{
	"contracts/SmartchefFactory.sol": {
		"SmartChefFactory": {
			"abi": [
				{
					"inputs": [],
					"stateMutability": "nonpayable",
					"type": "constructor"
				},
				{
					"anonymous": false,
					"inputs": [
						{
							"indexed": true,
							"internalType": "address",
							"name": "smartChef",
							"type": "address"
						}
					],
					"name": "NewSmartChefContract",
					"type": "event"
				},
				{
					"anonymous": false,
					"inputs": [
						{
							"indexed": true,
							"internalType": "address",
							"name": "previousOwner",
							"type": "address"
						},
						{
							"indexed": true,
							"internalType": "address",
							"name": "newOwner",
							"type": "address"
						}
					],
					"name": "OwnershipTransferred",
					"type": "event"
				},
				{
					"inputs": [
						{
							"internalType": "contract IERC20Metadata",
							"name": "_stakedToken",
							"type": "address"
						},
						{
							"internalType": "contract IERC20Metadata",
							"name": "_rewardToken",
							"type": "address"
						},
						{
							"internalType": "uint256",
							"name": "_rewardPerBlock",
							"type": "uint256"
						},
						{
							"internalType": "uint256",
							"name": "_startBlock",
							"type": "uint256"
						},
						{
							"internalType": "uint256",
							"name": "_bonusEndBlock",
							"type": "uint256"
						},
						{
							"internalType": "uint256",
							"name": "_poolLimitPerUser",
							"type": "uint256"
						},
						{
							"internalType": "uint256",
							"name": "_numberBlocksForUserLimit",
							"type": "uint256"
						},
						{
							"internalType": "address",
							"name": "_admin",
							"type": "address"
						}
					],
					"name": "deployPool",
					"outputs": [],
					"stateMutability": "nonpayable",
					"type": "function"
				},
				{
					"inputs": [],
					"name": "owner",
					"outputs": [
						{
							"internalType": "address",
							"name": "",
							"type": "address"
						}
					],
					"stateMutability": "view",
					"type": "function"
				},
				{
					"inputs": [],
					"name": "renounceOwnership",
					"outputs": [],
					"stateMutability": "nonpayable",
					"type": "function"
				},
				{
					"inputs": [
						{
							"internalType": "address",
							"name": "newOwner",
							"type": "address"
						}
					],
					"name": "transferOwnership",
					"outputs": [],
					"stateMutability": "nonpayable",
					"type": "function"
				}
			],
			"devdoc": {
				"kind": "dev",
				"methods": {
					"owner()": {
						"details": "Returns the address of the current owner."
					},
					"renounceOwnership()": {
						"details": "Leaves the contract without owner. It will not be possible to call `onlyOwner` functions anymore. Can only be called by the current owner. NOTE: Renouncing ownership will leave the contract without an owner, thereby removing any functionality that is only available to the owner."
					},
					"transferOwnership(address)": {
						"details": "Transfers ownership of the contract to a new account (`newOwner`). Can only be called by the current owner."
					}
				},
				"version": 1
			},
			"evm": {
				"assembly": "    /* \"contracts/SmartchefFactory.sol\":39106:41098  contract SmartChefFactory is Ownable {... */\n  mstore(0x40, 0x80)\n    /* \"contracts/SmartchefFactory.sol\":39212:39246  constructor() {... */\n  callvalue\n  dup1\n  iszero\n  tag_1\n  jumpi\n  0x00\n  dup1\n  revert\ntag_1:\n  pop\n    /* \"contracts/SmartchefFactory.sol\":24708:24740  _transferOwnership(_msgSender()) */\n  tag_5\n    /* \"contracts/SmartchefFactory.sol\":23618:23628  msg.sender */\n  caller\n    /* \"contracts/SmartchefFactory.sol\":24708:24726  _transferOwnership */\n  tag_8\n    /* \"contracts/SmartchefFactory.sol\":24708:24740  _transferOwnership(_msgSender()) */\n  jump\t// in\ntag_5:\n    /* \"contracts/SmartchefFactory.sol\":39106:41098  contract SmartChefFactory is Ownable {... */\n  jump(tag_10)\n    /* \"contracts/SmartchefFactory.sol\":26254:26445  function _transferOwnership(address newOwner) internal virtual {... */\ntag_8:\n    /* \"contracts/SmartchefFactory.sol\":26328:26344  address oldOwner */\n  0x00\n    /* \"contracts/SmartchefFactory.sol\":26347:26353  _owner */\n  dup1\n  sload\n  sub(shl(0xa0, 0x01), 0x01)\n    /* \"contracts/SmartchefFactory.sol\":26364:26381  _owner = newOwner */\n  dup4\n  dup2\n  and\n  not(sub(shl(0xa0, 0x01), 0x01))\n  dup4\n  and\n  dup2\n  or\n  dup5\n  sstore\n    /* \"contracts/SmartchefFactory.sol\":26397:26437  OwnershipTransferred(oldOwner, newOwner) */\n  mload(0x40)\n    /* \"contracts/SmartchefFactory.sol\":26347:26353  _owner */\n  swap2\n  swap1\n  swap3\n  and\n  swap3\n  dup4\n  swap2\n    /* \"contracts/SmartchefFactory.sol\":26397:26437  OwnershipTransferred(oldOwner, newOwner) */\n  0x8be0079c531659141344cd1fd0a4f28419497f9722a3daafe3b4186f6b6457e0\n  swap2\n    /* \"contracts/SmartchefFactory.sol\":26328:26344  address oldOwner */\n  swap1\n    /* \"contracts/SmartchefFactory.sol\":26397:26437  OwnershipTransferred(oldOwner, newOwner) */\n  log3\n    /* \"contracts/SmartchefFactory.sol\":26317:26445  {... */\n  pop\n    /* \"contracts/SmartchefFactory.sol\":26254:26445  function _transferOwnership(address newOwner) internal virtual {... */\n  pop\n  jump\t// out\n    /* \"contracts/SmartchefFactory.sol\":39106:41098  contract SmartChefFactory is Ownable {... */\ntag_10:\n  dataSize(sub_0)\n  dup1\n  dataOffset(sub_0)\n  0x00\n  codecopy\n  0x00\n  return\nstop\n\nsub_0: assembly {\n        /* \"contracts/SmartchefFactory.sol\":39106:41098  contract SmartChefFactory is Ownable {... */\n      mstore(0x40, 0x80)\n      callvalue\n      dup1\n      iszero\n      tag_1\n      jumpi\n      0x00\n      dup1\n      revert\n    tag_1:\n      pop\n      jumpi(tag_2, lt(calldatasize, 0x04))\n      shr(0xe0, calldataload(0x00))\n      dup1\n      0x715018a6\n      eq\n      tag_3\n      jumpi\n      dup1\n      0x8da5cb5b\n      eq\n      tag_4\n      jumpi\n      dup1\n      0xbbc22f50\n      eq\n      tag_5\n      jumpi\n      dup1\n      0xf2fde38b\n      eq\n      tag_6\n      jumpi\n    tag_2:\n      0x00\n      dup1\n      revert\n        /* \"contracts/SmartchefFactory.sol\":25635:25738  function renounceOwnership() public virtual onlyOwner {... */\n    tag_3:\n      tag_7\n      tag_8\n      jump\t// in\n    tag_7:\n      stop\n        /* \"contracts/SmartchefFactory.sol\":24987:25074  function owner() public view virtual returns (address) {... */\n    tag_4:\n        /* \"contracts/SmartchefFactory.sol\":25033:25040  address */\n      0x00\n        /* \"contracts/SmartchefFactory.sol\":25060:25066  _owner */\n      sload\n        /* \"contracts/SmartchefFactory.sol\":24987:25074  function owner() public view virtual returns (address) {... */\n      0x40\n      dup1\n      mload\n        /* \"contracts/SmartchefFactory.sol\":25060:25066  _owner */\n      0xffffffffffffffffffffffffffffffffffffffff\n      swap1\n      swap3\n      and\n        /* \"#utility.yul\":160:234   */\n      dup3\n      mstore\n        /* \"contracts/SmartchefFactory.sol\":24987:25074  function owner() public view virtual returns (address) {... */\n      mload\n      swap1\n      dup2\n      swap1\n      sub\n        /* \"#utility.yul\":148:150   */\n      0x20\n        /* \"contracts/SmartchefFactory.sol\":24987:25074  function owner() public view virtual returns (address) {... */\n      add\n      swap1\n      return\n        /* \"contracts/SmartchefFactory.sol\":39835:41095  function deployPool(... */\n    tag_5:\n      tag_7\n      tag_14\n      calldatasize\n      0x04\n      tag_15\n      jump\t// in\n    tag_14:\n      tag_16\n      jump\t// in\n        /* \"contracts/SmartchefFactory.sol\":25893:26094  function transferOwnership(address newOwner) public virtual onlyOwner {... */\n    tag_6:\n      tag_7\n      tag_18\n      calldatasize\n      0x04\n      tag_19\n      jump\t// in\n    tag_18:\n      tag_20\n      jump\t// in\n        /* \"contracts/SmartchefFactory.sol\":25635:25738  function renounceOwnership() public virtual onlyOwner {... */\n    tag_8:\n        /* \"contracts/SmartchefFactory.sol\":24873:24886  _checkOwner() */\n      tag_22\n        /* \"contracts/SmartchefFactory.sol\":24873:24884  _checkOwner */\n      tag_23\n        /* \"contracts/SmartchefFactory.sol\":24873:24886  _checkOwner() */\n      jump\t// in\n    tag_22:\n        /* \"contracts/SmartchefFactory.sol\":25700:25730  _transferOwnership(address(0)) */\n      tag_25\n        /* \"contracts/SmartchefFactory.sol\":25727:25728  0 */\n      0x00\n        /* \"contracts/SmartchefFactory.sol\":25700:25718  _transferOwnership */\n      tag_26\n        /* \"contracts/SmartchefFactory.sol\":25700:25730  _transferOwnership(address(0)) */\n      jump\t// in\n    tag_25:\n        /* \"contracts/SmartchefFactory.sol\":25635:25738  function renounceOwnership() public virtual onlyOwner {... */\n      jump\t// out\n        /* \"contracts/SmartchefFactory.sol\":39835:41095  function deployPool(... */\n    tag_16:\n        /* \"contracts/SmartchefFactory.sol\":24873:24886  _checkOwner() */\n      tag_29\n        /* \"contracts/SmartchefFactory.sol\":24873:24884  _checkOwner */\n      tag_23\n        /* \"contracts/SmartchefFactory.sol\":24873:24886  _checkOwner() */\n      jump\t// in\n    tag_29:\n        /* \"contracts/SmartchefFactory.sol\":40208:40209  0 */\n      0x00\n        /* \"contracts/SmartchefFactory.sol\":40178:40190  _stakedToken */\n      dup9\n        /* \"contracts/SmartchefFactory.sol\":40178:40202  _stakedToken.totalSupply */\n      0xffffffffffffffffffffffffffffffffffffffff\n      and\n      0x18160ddd\n        /* \"contracts/SmartchefFactory.sol\":40178:40204  _stakedToken.totalSupply() */\n      mload(0x40)\n      dup2\n      0xffffffff\n      and\n      0xe0\n      shl\n      dup2\n      mstore\n      0x04\n      add\n      0x20\n      mload(0x40)\n      dup1\n      dup4\n      sub\n      dup2\n      dup7\n      gas\n      staticcall\n      iszero\n      dup1\n      iszero\n      tag_32\n      jumpi\n      returndatasize\n      0x00\n      dup1\n      returndatacopy\n      revert(0x00, returndatasize)\n    tag_32:\n      pop\n      pop\n      pop\n      pop\n      mload(0x40)\n      returndatasize\n      not(0x1f)\n      0x1f\n      dup3\n      add\n      and\n      dup3\n      add\n      dup1\n      0x40\n      mstore\n      pop\n      dup2\n      add\n      swap1\n      tag_33\n      swap2\n      swap1\n      tag_34\n      jump\t// in\n    tag_33:\n        /* \"contracts/SmartchefFactory.sol\":40178:40209  _stakedToken.totalSupply() >= 0 */\n      lt\n      iszero\n        /* \"contracts/SmartchefFactory.sol\":40170:40210  require(_stakedToken.totalSupply() >= 0) */\n      tag_35\n      jumpi\n      0x00\n      dup1\n      revert\n    tag_35:\n        /* \"contracts/SmartchefFactory.sol\":40259:40260  0 */\n      0x00\n        /* \"contracts/SmartchefFactory.sol\":40229:40241  _rewardToken */\n      dup8\n        /* \"contracts/SmartchefFactory.sol\":40229:40253  _rewardToken.totalSupply */\n      0xffffffffffffffffffffffffffffffffffffffff\n      and\n      0x18160ddd\n        /* \"contracts/SmartchefFactory.sol\":40229:40255  _rewardToken.totalSupply() */\n      mload(0x40)\n      dup2\n      0xffffffff\n      and\n      0xe0\n      shl\n      dup2\n      mstore\n      0x04\n      add\n      0x20\n      mload(0x40)\n      dup1\n      dup4\n      sub\n      dup2\n      dup7\n      gas\n      staticcall\n      iszero\n      dup1\n      iszero\n      tag_37\n      jumpi\n      returndatasize\n      0x00\n      dup1\n      returndatacopy\n      revert(0x00, returndatasize)\n    tag_37:\n      pop\n      pop\n      pop\n      pop\n      mload(0x40)\n      returndatasize\n      not(0x1f)\n      0x1f\n      dup3\n      add\n      and\n      dup3\n      add\n      dup1\n      0x40\n      mstore\n      pop\n      dup2\n      add\n      swap1\n      tag_38\n      swap2\n      swap1\n      tag_34\n      jump\t// in\n    tag_38:\n        /* \"contracts/SmartchefFactory.sol\":40229:40260  _rewardToken.totalSupply() >= 0 */\n      lt\n      iszero\n        /* \"contracts/SmartchefFactory.sol\":40221:40261  require(_rewardToken.totalSupply() >= 0) */\n      tag_39\n      jumpi\n      0x00\n      dup1\n      revert\n    tag_39:\n        /* \"contracts/SmartchefFactory.sol\":40274:40295  bytes memory bytecode */\n      0x00\n        /* \"contracts/SmartchefFactory.sol\":40298:40339  type(SmartChefInitializable).creationCode */\n      mload(0x40)\n      dup1\n      0x20\n      add\n      tag_40\n      swap1\n      tag_41\n      jump\t// in\n    tag_40:\n      0xffffffffffffffffffffffffffffffffffffffffffffffffffffffffffffffe0\n      dup3\n      dup3\n      sub\n      dup2\n      add\n      dup4\n      mstore\n        /* \"contracts/SmartchefFactory.sol\":40453:40465  abi.encode() */\n      0x00\n        /* \"contracts/SmartchefFactory.sol\":40298:40339  type(SmartChefInitializable).creationCode */\n      0x1f\n      swap1\n      swap3\n      add\n      and\n        /* \"contracts/SmartchefFactory.sol\":40453:40465  abi.encode() */\n      swap1\n      dup2\n      mstore\n        /* \"contracts/SmartchefFactory.sol\":40298:40339  type(SmartChefInitializable).creationCode */\n      0x20\n        /* \"contracts/SmartchefFactory.sol\":40453:40465  abi.encode() */\n      dup2\n      add\n        /* \"contracts/SmartchefFactory.sol\":40298:40339  type(SmartChefInitializable).creationCode */\n      0x40\n        /* \"contracts/SmartchefFactory.sol\":40453:40465  abi.encode() */\n      swap1\n      dup2\n      mstore\n        /* \"contracts/SmartchefFactory.sol\":40298:40339  type(SmartChefInitializable).creationCode */\n      swap2\n      swap3\n      pop\n        /* \"contracts/SmartchefFactory.sol\":40399:40476  abi.encodePacked(... */\n      tag_42\n      swap2\n        /* \"contracts/SmartchefFactory.sol\":40298:40339  type(SmartChefInitializable).creationCode */\n      dup4\n      swap2\n      swap1\n        /* \"contracts/SmartchefFactory.sol\":40399:40476  abi.encodePacked(... */\n      dup2\n      add\n      tag_43\n      jump\t// in\n    tag_42:\n      0x40\n      dup1\n      mload\n      0xffffffffffffffffffffffffffffffffffffffffffffffffffffffffffffffe0\n      dup2\n      dup5\n      sub\n      add\n      dup2\n      mstore\n      swap1\n      dup3\n      swap1\n      mstore\n        /* \"#utility.yul\":2680:2746   */\n      0xffffffffffffffffffffffffffffffffffffffff000000000000000000000000\n        /* \"#utility.yul\":2775:2777   */\n      0x60\n        /* \"#utility.yul\":2771:2786   */\n      dup13\n      dup2\n      shl\n        /* \"#utility.yul\":2767:2791   */\n      dup3\n      and\n        /* \"contracts/SmartchefFactory.sol\":40399:40476  abi.encodePacked(... */\n      0x20\n        /* \"contracts/SmartchefFactory.sol\":40512:40569  abi.encodePacked(_stakedToken, _rewardToken, _startBlock) */\n      dup6\n      add\n        /* \"#utility.yul\":2755:2792   */\n      mstore\n        /* \"#utility.yul\":2826:2841   */\n      dup12\n      swap1\n      shl\n        /* \"#utility.yul\":2822:2846   */\n      and\n        /* \"#utility.yul\":2808:2820   */\n      0x34\n      dup4\n      add\n        /* \"#utility.yul\":2801:2847   */\n      mstore\n        /* \"#utility.yul\":2863:2875   */\n      0x48\n      dup3\n      add\n        /* \"#utility.yul\":2856:2884   */\n      dup9\n      swap1\n      mstore\n        /* \"contracts/SmartchefFactory.sol\":40399:40476  abi.encodePacked(... */\n      swap2\n      pop\n        /* \"contracts/SmartchefFactory.sol\":40487:40499  bytes32 salt */\n      0x00\n      swap1\n        /* \"#utility.yul\":2900:2912   */\n      0x68\n      add\n        /* \"contracts/SmartchefFactory.sol\":40512:40569  abi.encodePacked(_stakedToken, _rewardToken, _startBlock) */\n      mload(0x40)\n      0x20\n      dup2\n      dup4\n      sub\n      sub\n      dup2\n      mstore\n      swap1\n      0x40\n      mstore\n        /* \"contracts/SmartchefFactory.sol\":40502:40570  keccak256(abi.encodePacked(_stakedToken, _rewardToken, _startBlock)) */\n      dup1\n      mload\n      swap1\n      0x20\n      add\n      keccak256\n        /* \"contracts/SmartchefFactory.sol\":40487:40570  bytes32 salt = keccak256(abi.encodePacked(_stakedToken, _rewardToken, _startBlock)) */\n      swap1\n      pop\n        /* \"contracts/SmartchefFactory.sol\":40581:40605  address smartChefAddress */\n      0x00\n        /* \"contracts/SmartchefFactory.sol\":40709:40713  salt */\n      dup2\n        /* \"contracts/SmartchefFactory.sol\":40698:40706  bytecode */\n      dup4\n        /* \"contracts/SmartchefFactory.sol\":40692:40707  mload(bytecode) */\n      mload\n        /* \"contracts/SmartchefFactory.sol\":40687:40689  32 */\n      0x20\n        /* \"contracts/SmartchefFactory.sol\":40677:40685  bytecode */\n      dup6\n        /* \"contracts/SmartchefFactory.sol\":40673:40690  add(bytecode, 32) */\n      add\n        /* \"contracts/SmartchefFactory.sol\":40670:40671  0 */\n      0x00\n        /* \"contracts/SmartchefFactory.sol\":40662:40714  create2(0, add(bytecode, 32), mload(bytecode), salt) */\n      create2\n        /* \"contracts/SmartchefFactory.sol\":40737:41031  SmartChefInitializable(smartChefAddress).initialize(... */\n      mload(0x40)\n      0x2aa2c38100000000000000000000000000000000000000000000000000000000\n      dup2\n      mstore\n        /* \"contracts/SmartchefFactory.sol\":40737:40788  SmartChefInitializable(smartChefAddress).initialize */\n      0xffffffffffffffffffffffffffffffffffffffff\n        /* \"#utility.yul\":3389:3404   */\n      dup14\n      dup2\n      and\n        /* \"contracts/SmartchefFactory.sol\":40737:41031  SmartChefInitializable(smartChefAddress).initialize(... */\n      0x04\n      dup4\n      add\n        /* \"#utility.yul\":3371:3405   */\n      mstore\n        /* \"#utility.yul\":3441:3456   */\n      dup13\n      dup2\n      and\n        /* \"#utility.yul\":3421:3439   */\n      0x24\n      dup4\n      add\n        /* \"#utility.yul\":3414:3457   */\n      mstore\n        /* \"#utility.yul\":3473:3491   */\n      0x44\n      dup3\n      add\n        /* \"#utility.yul\":3466:3500   */\n      dup13\n      swap1\n      mstore\n        /* \"#utility.yul\":3516:3534   */\n      0x64\n      dup3\n      add\n        /* \"#utility.yul\":3509:3543   */\n      dup12\n      swap1\n      mstore\n        /* \"#utility.yul\":3559:3578   */\n      0x84\n      dup3\n      add\n        /* \"#utility.yul\":3552:3587   */\n      dup11\n      swap1\n      mstore\n        /* \"#utility.yul\":3603:3622   */\n      0xa4\n      dup3\n      add\n        /* \"#utility.yul\":3596:3631   */\n      dup10\n      swap1\n      mstore\n        /* \"#utility.yul\":3647:3666   */\n      0xc4\n      dup3\n      add\n        /* \"#utility.yul\":3640:3675   */\n      dup9\n      swap1\n      mstore\n        /* \"#utility.yul\":3712:3727   */\n      dup7\n      dup2\n      and\n        /* \"#utility.yul\":3691:3710   */\n      0xe4\n      dup4\n      add\n        /* \"#utility.yul\":3684:3728   */\n      mstore\n        /* \"contracts/SmartchefFactory.sol\":40642:40714  smartChefAddress := create2(0, add(bytecode, 32), mload(bytecode), salt) */\n      swap2\n      swap3\n      pop\n        /* \"contracts/SmartchefFactory.sol\":40737:40788  SmartChefInitializable(smartChefAddress).initialize */\n      swap1\n      dup3\n      and\n      swap1\n      0x2aa2c381\n      swap1\n        /* \"#utility.yul\":3282:3301   */\n      0x0104\n      add\n        /* \"contracts/SmartchefFactory.sol\":40737:41031  SmartChefInitializable(smartChefAddress).initialize(... */\n      0x00\n      mload(0x40)\n      dup1\n      dup4\n      sub\n      dup2\n      0x00\n      dup8\n      dup1\n      extcodesize\n      iszero\n      dup1\n      iszero\n      tag_48\n      jumpi\n      0x00\n      dup1\n      revert\n    tag_48:\n      pop\n      gas\n      call\n      iszero\n      dup1\n      iszero\n      tag_50\n      jumpi\n      returndatasize\n      0x00\n      dup1\n      returndatacopy\n      revert(0x00, returndatasize)\n    tag_50:\n      pop\n      pop\n        /* \"contracts/SmartchefFactory.sol\":41049:41087  NewSmartChefContract(smartChefAddress) */\n      mload(0x40)\n      0xffffffffffffffffffffffffffffffffffffffff\n      dup5\n      and\n      swap3\n      pop\n      0xe0d103a92c6ff6c4aceb49d436f4028e0deb4884fdbcb9f32b03045eabb44a6c\n      swap2\n      pop\n      0x00\n      swap1\n      log2\n        /* \"contracts/SmartchefFactory.sol\":40159:41095  {... */\n      pop\n      pop\n      pop\n        /* \"contracts/SmartchefFactory.sol\":39835:41095  function deployPool(... */\n      pop\n      pop\n      pop\n      pop\n      pop\n      pop\n      pop\n      pop\n      jump\t// out\n        /* \"contracts/SmartchefFactory.sol\":25893:26094  function transferOwnership(address newOwner) public virtual onlyOwner {... */\n    tag_20:\n        /* \"contracts/SmartchefFactory.sol\":24873:24886  _checkOwner() */\n      tag_52\n        /* \"contracts/SmartchefFactory.sol\":24873:24884  _checkOwner */\n      tag_23\n        /* \"contracts/SmartchefFactory.sol\":24873:24886  _checkOwner() */\n      jump\t// in\n    tag_52:\n        /* \"contracts/SmartchefFactory.sol\":25982:26004  newOwner != address(0) */\n      0xffffffffffffffffffffffffffffffffffffffff\n      dup2\n      and\n        /* \"contracts/SmartchefFactory.sol\":25974:26047  require(newOwner != address(0), \"Ownable: new owner is the zero address\") */\n      tag_54\n      jumpi\n      mload(0x40)\n      0x08c379a000000000000000000000000000000000000000000000000000000000\n      dup2\n      mstore\n        /* \"#utility.yul\":3941:3943   */\n      0x20\n        /* \"contracts/SmartchefFactory.sol\":25974:26047  require(newOwner != address(0), \"Ownable: new owner is the zero address\") */\n      0x04\n      dup3\n      add\n        /* \"#utility.yul\":3923:3944   */\n      mstore\n        /* \"#utility.yul\":3980:3982   */\n      0x26\n        /* \"#utility.yul\":3960:3978   */\n      0x24\n      dup3\n      add\n        /* \"#utility.yul\":3953:3983   */\n      mstore\n        /* \"#utility.yul\":4019:4053   */\n      0x4f776e61626c653a206e6577206f776e657220697320746865207a65726f2061\n        /* \"#utility.yul\":3999:4017   */\n      0x44\n      dup3\n      add\n        /* \"#utility.yul\":3992:4054   */\n      mstore\n        /* \"#utility.yul\":4090:4098   */\n      0x6464726573730000000000000000000000000000000000000000000000000000\n        /* \"#utility.yul\":4070:4088   */\n      0x64\n      dup3\n      add\n        /* \"#utility.yul\":4063:4099   */\n      mstore\n        /* \"#utility.yul\":4116:4135   */\n      0x84\n      add\n        /* \"contracts/SmartchefFactory.sol\":25974:26047  require(newOwner != address(0), \"Ownable: new owner is the zero address\") */\n    tag_55:\n      mload(0x40)\n      dup1\n      swap2\n      sub\n      swap1\n      revert\n    tag_54:\n        /* \"contracts/SmartchefFactory.sol\":26058:26086  _transferOwnership(newOwner) */\n      tag_57\n        /* \"contracts/SmartchefFactory.sol\":26077:26085  newOwner */\n      dup2\n        /* \"contracts/SmartchefFactory.sol\":26058:26076  _transferOwnership */\n      tag_26\n        /* \"contracts/SmartchefFactory.sol\":26058:26086  _transferOwnership(newOwner) */\n      jump\t// in\n    tag_57:\n        /* \"contracts/SmartchefFactory.sol\":25893:26094  function transferOwnership(address newOwner) public virtual onlyOwner {... */\n      pop\n      jump\t// out\n        /* \"contracts/SmartchefFactory.sol\":25152:25284  function _checkOwner() internal view virtual {... */\n    tag_23:\n        /* \"contracts/SmartchefFactory.sol\":25033:25040  address */\n      0x00\n        /* \"contracts/SmartchefFactory.sol\":25060:25066  _owner */\n      sload\n        /* \"contracts/SmartchefFactory.sol\":25216:25239  owner() == _msgSender() */\n      0xffffffffffffffffffffffffffffffffffffffff\n        /* \"contracts/SmartchefFactory.sol\":25060:25066  _owner */\n      and\n        /* \"contracts/SmartchefFactory.sol\":23618:23628  msg.sender */\n      caller\n        /* \"contracts/SmartchefFactory.sol\":25216:25239  owner() == _msgSender() */\n      eq\n        /* \"contracts/SmartchefFactory.sol\":25208:25276  require(owner() == _msgSender(), \"Ownable: caller is not the owner\") */\n      tag_25\n      jumpi\n      mload(0x40)\n      0x08c379a000000000000000000000000000000000000000000000000000000000\n      dup2\n      mstore\n        /* \"#utility.yul\":4348:4350   */\n      0x20\n        /* \"contracts/SmartchefFactory.sol\":25208:25276  require(owner() == _msgSender(), \"Ownable: caller is not the owner\") */\n      0x04\n      dup3\n      add\n        /* \"#utility.yul\":4330:4351   */\n      dup2\n      swap1\n      mstore\n        /* \"#utility.yul\":4367:4385   */\n      0x24\n      dup3\n      add\n        /* \"#utility.yul\":4360:4390   */\n      mstore\n        /* \"#utility.yul\":4426:4460   */\n      0x4f776e61626c653a2063616c6c6572206973206e6f7420746865206f776e6572\n        /* \"#utility.yul\":4406:4424   */\n      0x44\n      dup3\n      add\n        /* \"#utility.yul\":4399:4461   */\n      mstore\n        /* \"#utility.yul\":4478:4496   */\n      0x64\n      add\n        /* \"contracts/SmartchefFactory.sol\":25208:25276  require(owner() == _msgSender(), \"Ownable: caller is not the owner\") */\n      tag_55\n        /* \"#utility.yul\":4146:4502   */\n      jump\n        /* \"contracts/SmartchefFactory.sol\":26254:26445  function _transferOwnership(address newOwner) internal virtual {... */\n    tag_26:\n        /* \"contracts/SmartchefFactory.sol\":26328:26344  address oldOwner */\n      0x00\n        /* \"contracts/SmartchefFactory.sol\":26347:26353  _owner */\n      dup1\n      sload\n      0xffffffffffffffffffffffffffffffffffffffff\n        /* \"contracts/SmartchefFactory.sol\":26364:26381  _owner = newOwner */\n      dup4\n      dup2\n      and\n      0xffffffffffffffffffffffff0000000000000000000000000000000000000000\n      dup4\n      and\n      dup2\n      or\n      dup5\n      sstore\n        /* \"contracts/SmartchefFactory.sol\":26397:26437  OwnershipTransferred(oldOwner, newOwner) */\n      mload(0x40)\n        /* \"contracts/SmartchefFactory.sol\":26347:26353  _owner */\n      swap2\n      swap1\n      swap3\n      and\n      swap3\n      dup4\n      swap2\n        /* \"contracts/SmartchefFactory.sol\":26397:26437  OwnershipTransferred(oldOwner, newOwner) */\n      0x8be0079c531659141344cd1fd0a4f28419497f9722a3daafe3b4186f6b6457e0\n      swap2\n        /* \"contracts/SmartchefFactory.sol\":26328:26344  address oldOwner */\n      swap1\n        /* \"contracts/SmartchefFactory.sol\":26397:26437  OwnershipTransferred(oldOwner, newOwner) */\n      log3\n        /* \"contracts/SmartchefFactory.sol\":26317:26445  {... */\n      pop\n        /* \"contracts/SmartchefFactory.sol\":26254:26445  function _transferOwnership(address newOwner) internal virtual {... */\n      pop\n      jump\t// out\n    tag_41:\n      dataSize(sub_0)\n      dup1\n      dataOffset(sub_0)\n      dup4\n      codecopy\n      add\n      swap1\n      jump\t// out\n        /* \"#utility.yul\":245:415   */\n    tag_67:\n        /* \"#utility.yul\":347:389   */\n      0xffffffffffffffffffffffffffffffffffffffff\n        /* \"#utility.yul\":340:345   */\n      dup2\n        /* \"#utility.yul\":336:390   */\n      and\n        /* \"#utility.yul\":329:334   */\n      dup2\n        /* \"#utility.yul\":326:391   */\n      eq\n        /* \"#utility.yul\":316:409   */\n      tag_57\n      jumpi\n        /* \"#utility.yul\":405:406   */\n      0x00\n        /* \"#utility.yul\":402:403   */\n      dup1\n        /* \"#utility.yul\":395:407   */\n      revert\n        /* \"#utility.yul\":420:1386   */\n    tag_15:\n        /* \"#utility.yul\":586:592   */\n      0x00\n        /* \"#utility.yul\":594:600   */\n      dup1\n        /* \"#utility.yul\":602:608   */\n      0x00\n        /* \"#utility.yul\":610:616   */\n      dup1\n        /* \"#utility.yul\":618:624   */\n      0x00\n        /* \"#utility.yul\":626:632   */\n      dup1\n        /* \"#utility.yul\":634:640   */\n      0x00\n        /* \"#utility.yul\":642:648   */\n      dup1\n        /* \"#utility.yul\":695:698   */\n      0x0100\n        /* \"#utility.yul\":683:692   */\n      dup10\n        /* \"#utility.yul\":674:681   */\n      dup12\n        /* \"#utility.yul\":670:693   */\n      sub\n        /* \"#utility.yul\":666:699   */\n      slt\n        /* \"#utility.yul\":663:716   */\n      iszero\n      tag_74\n      jumpi\n        /* \"#utility.yul\":712:713   */\n      0x00\n        /* \"#utility.yul\":709:710   */\n      dup1\n        /* \"#utility.yul\":702:714   */\n      revert\n        /* \"#utility.yul\":663:716   */\n    tag_74:\n        /* \"#utility.yul\":751:760   */\n      dup9\n        /* \"#utility.yul\":738:761   */\n      calldataload\n        /* \"#utility.yul\":770:817   */\n      tag_75\n        /* \"#utility.yul\":811:816   */\n      dup2\n        /* \"#utility.yul\":770:817   */\n      tag_67\n      jump\t// in\n    tag_75:\n        /* \"#utility.yul\":836:841   */\n      swap8\n      pop\n        /* \"#utility.yul\":893:895   */\n      0x20\n        /* \"#utility.yul\":878:896   */\n      dup10\n      add\n        /* \"#utility.yul\":865:897   */\n      calldataload\n        /* \"#utility.yul\":906:955   */\n      tag_76\n        /* \"#utility.yul\":865:897   */\n      dup2\n        /* \"#utility.yul\":906:955   */\n      tag_67\n      jump\t// in\n    tag_76:\n        /* \"#utility.yul\":974:981   */\n      swap7\n      pop\n        /* \"#utility.yul\":1028:1030   */\n      0x40\n        /* \"#utility.yul\":1013:1031   */\n      dup10\n      add\n        /* \"#utility.yul\":1000:1032   */\n      calldataload\n      swap6\n      pop\n        /* \"#utility.yul\":1079:1081   */\n      0x60\n        /* \"#utility.yul\":1064:1082   */\n      dup10\n      add\n        /* \"#utility.yul\":1051:1083   */\n      calldataload\n      swap5\n      pop\n        /* \"#utility.yul\":1130:1133   */\n      0x80\n        /* \"#utility.yul\":1115:1134   */\n      dup10\n      add\n        /* \"#utility.yul\":1102:1135   */\n      calldataload\n      swap4\n      pop\n        /* \"#utility.yul\":1182:1185   */\n      0xa0\n        /* \"#utility.yul\":1167:1186   */\n      dup10\n      add\n        /* \"#utility.yul\":1154:1187   */\n      calldataload\n      swap3\n      pop\n        /* \"#utility.yul\":1234:1237   */\n      0xc0\n        /* \"#utility.yul\":1219:1238   */\n      dup10\n      add\n        /* \"#utility.yul\":1206:1239   */\n      calldataload\n      swap2\n      pop\n        /* \"#utility.yul\":1291:1294   */\n      0xe0\n        /* \"#utility.yul\":1276:1295   */\n      dup10\n      add\n        /* \"#utility.yul\":1263:1296   */\n      calldataload\n        /* \"#utility.yul\":1305:1354   */\n      tag_77\n        /* \"#utility.yul\":1263:1296   */\n      dup2\n        /* \"#utility.yul\":1305:1354   */\n      tag_67\n      jump\t// in\n    tag_77:\n        /* \"#utility.yul\":1373:1380   */\n      dup1\n        /* \"#utility.yul\":1363:1380   */\n      swap2\n      pop\n      pop\n        /* \"#utility.yul\":420:1386   */\n      swap3\n      swap6\n      swap9\n      pop\n      swap3\n      swap6\n      swap9\n      swap1\n      swap4\n      swap7\n      pop\n      jump\t// out\n        /* \"#utility.yul\":1391:1654   */\n    tag_19:\n        /* \"#utility.yul\":1450:1456   */\n      0x00\n        /* \"#utility.yul\":1503:1505   */\n      0x20\n        /* \"#utility.yul\":1491:1500   */\n      dup3\n        /* \"#utility.yul\":1482:1489   */\n      dup5\n        /* \"#utility.yul\":1478:1501   */\n      sub\n        /* \"#utility.yul\":1474:1506   */\n      slt\n        /* \"#utility.yul\":1471:1523   */\n      iszero\n      tag_79\n      jumpi\n        /* \"#utility.yul\":1519:1520   */\n      0x00\n        /* \"#utility.yul\":1516:1517   */\n      dup1\n        /* \"#utility.yul\":1509:1521   */\n      revert\n        /* \"#utility.yul\":1471:1523   */\n    tag_79:\n        /* \"#utility.yul\":1558:1567   */\n      dup2\n        /* \"#utility.yul\":1545:1568   */\n      calldataload\n        /* \"#utility.yul\":1577:1624   */\n      tag_80\n        /* \"#utility.yul\":1618:1623   */\n      dup2\n        /* \"#utility.yul\":1577:1624   */\n      tag_67\n      jump\t// in\n    tag_80:\n        /* \"#utility.yul\":1643:1648   */\n      swap4\n        /* \"#utility.yul\":1391:1654   */\n      swap3\n      pop\n      pop\n      pop\n      jump\t// out\n        /* \"#utility.yul\":1659:1843   */\n    tag_34:\n        /* \"#utility.yul\":1729:1735   */\n      0x00\n        /* \"#utility.yul\":1782:1784   */\n      0x20\n        /* \"#utility.yul\":1770:1779   */\n      dup3\n        /* \"#utility.yul\":1761:1768   */\n      dup5\n        /* \"#utility.yul\":1757:1780   */\n      sub\n        /* \"#utility.yul\":1753:1785   */\n      slt\n        /* \"#utility.yul\":1750:1802   */\n      iszero\n      tag_82\n      jumpi\n        /* \"#utility.yul\":1798:1799   */\n      0x00\n        /* \"#utility.yul\":1795:1796   */\n      dup1\n        /* \"#utility.yul\":1788:1800   */\n      revert\n        /* \"#utility.yul\":1750:1802   */\n    tag_82:\n      pop\n        /* \"#utility.yul\":1821:1837   */\n      mload\n      swap2\n        /* \"#utility.yul\":1659:1843   */\n      swap1\n      pop\n      jump\t// out\n        /* \"#utility.yul\":1848:2170   */\n    tag_68:\n        /* \"#utility.yul\":1889:1892   */\n      0x00\n        /* \"#utility.yul\":1927:1932   */\n      dup2\n        /* \"#utility.yul\":1921:1933   */\n      mload\n        /* \"#utility.yul\":1951:1952   */\n      0x00\n        /* \"#utility.yul\":1961:2089   */\n    tag_84:\n        /* \"#utility.yul\":1975:1981   */\n      dup2\n        /* \"#utility.yul\":1972:1973   */\n      dup2\n        /* \"#utility.yul\":1969:1982   */\n      lt\n        /* \"#utility.yul\":1961:2089   */\n      iszero\n      tag_86\n      jumpi\n        /* \"#utility.yul\":2072:2076   */\n      0x20\n        /* \"#utility.yul\":2057:2070   */\n      dup2\n      dup6\n      add\n        /* \"#utility.yul\":2053:2077   */\n      dup2\n      add\n        /* \"#utility.yul\":2047:2078   */\n      mload\n        /* \"#utility.yul\":2034:2045   */\n      dup7\n      dup4\n      add\n        /* \"#utility.yul\":2027:2079   */\n      mstore\n        /* \"#utility.yul\":1990:2002   */\n      add\n        /* \"#utility.yul\":1961:2089   */\n      jump(tag_84)\n    tag_86:\n      pop\n        /* \"#utility.yul\":2144:2145   */\n      0x00\n        /* \"#utility.yul\":2108:2124   */\n      swap4\n      add\n        /* \"#utility.yul\":2133:2146   */\n      swap3\n      dup4\n      mstore\n      pop\n        /* \"#utility.yul\":2108:2124   */\n      swap1\n      swap2\n        /* \"#utility.yul\":1848:2170   */\n      swap1\n      pop\n      jump\t// out\n        /* \"#utility.yul\":2175:2436   */\n    tag_43:\n        /* \"#utility.yul\":2350:2353   */\n      0x00\n        /* \"#utility.yul\":2375:2430   */\n      tag_88\n        /* \"#utility.yul\":2400:2429   */\n      tag_89\n        /* \"#utility.yul\":2425:2428   */\n      dup4\n        /* \"#utility.yul\":2417:2423   */\n      dup7\n        /* \"#utility.yul\":2400:2429   */\n      tag_68\n      jump\t// in\n    tag_89:\n        /* \"#utility.yul\":2392:2398   */\n      dup5\n        /* \"#utility.yul\":2375:2430   */\n      tag_68\n      jump\t// in\n    tag_88:\n        /* \"#utility.yul\":2368:2430   */\n      swap5\n        /* \"#utility.yul\":2175:2436   */\n      swap4\n      pop\n      pop\n      pop\n      pop\n      jump\t// out\n    stop\n\n    sub_0: assembly {\n            /* \"contracts/SmartchefFactory.sol\":26576:39007  contract SmartChefInitializable is Ownable, ReentrancyGuard {... */\n          mstore(0x40, 0xa0)\n            /* \"contracts/SmartchefFactory.sol\":28586:28650  constructor() {... */\n          callvalue\n          dup1\n          iszero\n          tag_1\n          jumpi\n          0x00\n          dup1\n          revert\n        tag_1:\n          pop\n            /* \"contracts/SmartchefFactory.sol\":24708:24740  _transferOwnership(_msgSender()) */\n          tag_6\n            /* \"contracts/SmartchefFactory.sol\":23618:23628  msg.sender */\n          caller\n            /* \"contracts/SmartchefFactory.sol\":24708:24726  _transferOwnership */\n          tag_9\n            /* \"contracts/SmartchefFactory.sol\":24708:24740  _transferOwnership(_msgSender()) */\n          jump\t// in\n        tag_6:\n            /* \"contracts/SmartchefFactory.sol\":13578:13579  1 */\n          0x01\n            /* \"contracts/SmartchefFactory.sol\":13689:13711  _status = _NOT_ENTERED */\n          dup1\n          sstore\n            /* \"contracts/SmartchefFactory.sol\":28632:28642  msg.sender */\n          caller\n            /* \"contracts/SmartchefFactory.sol\":28611:28642  SMART_CHEF_FACTORY = msg.sender */\n          0x80\n          mstore\n            /* \"contracts/SmartchefFactory.sol\":26576:39007  contract SmartChefInitializable is Ownable, ReentrancyGuard {... */\n          jump(tag_12)\n            /* \"contracts/SmartchefFactory.sol\":26254:26445  function _transferOwnership(address newOwner) internal virtual {... */\n        tag_9:\n            /* \"contracts/SmartchefFactory.sol\":26328:26344  address oldOwner */\n          0x00\n            /* \"contracts/SmartchefFactory.sol\":26347:26353  _owner */\n          dup1\n          sload\n          sub(shl(0xa0, 0x01), 0x01)\n            /* \"contracts/SmartchefFactory.sol\":26364:26381  _owner = newOwner */\n          dup4\n          dup2\n          and\n          not(sub(shl(0xa0, 0x01), 0x01))\n          dup4\n          and\n          dup2\n          or\n          dup5\n          sstore\n            /* \"contracts/SmartchefFactory.sol\":26397:26437  OwnershipTransferred(oldOwner, newOwner) */\n          mload(0x40)\n            /* \"contracts/SmartchefFactory.sol\":26347:26353  _owner */\n          swap2\n          swap1\n          swap3\n          and\n          swap3\n          dup4\n          swap2\n            /* \"contracts/SmartchefFactory.sol\":26397:26437  OwnershipTransferred(oldOwner, newOwner) */\n          0x8be0079c531659141344cd1fd0a4f28419497f9722a3daafe3b4186f6b6457e0\n          swap2\n            /* \"contracts/SmartchefFactory.sol\":26328:26344  address oldOwner */\n          swap1\n            /* \"contracts/SmartchefFactory.sol\":26397:26437  OwnershipTransferred(oldOwner, newOwner) */\n          log3\n            /* \"contracts/SmartchefFactory.sol\":26317:26445  {... */\n          pop\n            /* \"contracts/SmartchefFactory.sol\":26254:26445  function _transferOwnership(address newOwner) internal virtual {... */\n          pop\n          jump\t// out\n            /* \"contracts/SmartchefFactory.sol\":26576:39007  contract SmartChefInitializable is Ownable, ReentrancyGuard {... */\n        tag_12:\n          mload(0x80)\n          codecopy(0x00, dataOffset(sub_0), dataSize(sub_0))\n          0x00\n          assignImmutable(\"0x4c8fd8318661e3a4ade28b580fa743eaeae928d59991cb1b8a4121980e21c88e\")\n          return(0x00, dataSize(sub_0))\n        stop\n\n        sub_0: assembly {\n                /* \"contracts/SmartchefFactory.sol\":26576:39007  contract SmartChefInitializable is Ownable, ReentrancyGuard {... */\n              mstore(0x40, 0x80)\n              callvalue\n              dup1\n              iszero\n              tag_1\n              jumpi\n              0x00\n              dup1\n              revert\n            tag_1:\n              pop\n              jumpi(tag_2, lt(calldatasize, 0x04))\n              shr(0xe0, calldataload(0x00))\n              dup1\n              0x8f662915\n              gt\n              tag_33\n              jumpi\n              dup1\n              0xb6b55f25\n              gt\n              tag_34\n              jumpi\n              dup1\n              0xdb2e21bc\n              gt\n              tag_35\n              jumpi\n              dup1\n              0xdb2e21bc\n              eq\n              tag_29\n              jumpi\n              dup1\n              0xf2fde38b\n              eq\n              tag_30\n              jumpi\n              dup1\n              0xf40f0f52\n              eq\n              tag_31\n              jumpi\n              dup1\n              0xf7c618c1\n              eq\n              tag_32\n              jumpi\n              0x00\n              dup1\n              revert\n            tag_35:\n              dup1\n              0xb6b55f25\n              eq\n              tag_25\n              jumpi\n              dup1\n              0xbd617191\n              eq\n              tag_26\n              jumpi\n              dup1\n              0xcc7a262e\n              eq\n              tag_27\n              jumpi\n              dup1\n              0xccd34cd5\n              eq\n              tag_28\n              jumpi\n              0x00\n              dup1\n              revert\n            tag_34:\n              dup1\n              0x9be65a60\n              gt\n              tag_36\n              jumpi\n              dup1\n              0x9be65a60\n              eq\n              tag_21\n              jumpi\n              dup1\n              0x9c367bc2\n              eq\n              tag_22\n              jumpi\n              dup1\n              0xa0b40905\n              eq\n              tag_23\n              jumpi\n              dup1\n              0xa9f8d181\n              eq\n              tag_24\n              jumpi\n              0x00\n              dup1\n              revert\n            tag_36:\n              dup1\n              0x8f662915\n              eq\n              tag_18\n              jumpi\n              dup1\n              0x92e8990e\n              eq\n              tag_19\n              jumpi\n              dup1\n              0x9513997f\n              eq\n              tag_20\n              jumpi\n              0x00\n              dup1\n              revert\n            tag_33:\n              dup1\n              0x48cd4cb1\n              gt\n              tag_37\n              jumpi\n              dup1\n              0x80dc0672\n              gt\n              tag_38\n              jumpi\n              dup1\n              0x80dc0672\n              eq\n              tag_14\n              jumpi\n              dup1\n              0x8ad1071b\n              eq\n              tag_15\n              jumpi\n              dup1\n              0x8ae39cac\n              eq\n              tag_16\n              jumpi\n              dup1\n              0x8da5cb5b\n              eq\n              tag_17\n              jumpi\n              0x00\n              dup1\n              revert\n            tag_38:\n              dup1\n              0x48cd4cb1\n              eq\n              tag_10\n              jumpi\n              dup1\n              0x4a7c01ec\n              eq\n              tag_11\n              jumpi\n              dup1\n              0x66fe9f8a\n              eq\n              tag_12\n              jumpi\n              dup1\n              0x715018a6\n              eq\n              tag_13\n              jumpi\n              0x00\n              dup1\n              revert\n            tag_37:\n              dup1\n              0x2aa2c381\n              gt\n              tag_39\n              jumpi\n              dup1\n              0x2aa2c381\n              eq\n              tag_6\n              jumpi\n              dup1\n              0x2e1a7d4d\n              eq\n              tag_7\n              jumpi\n              dup1\n              0x3279beab\n              eq\n              tag_8\n              jumpi\n              dup1\n              0x392e53cd\n              eq\n              tag_9\n              jumpi\n              0x00\n              dup1\n              revert\n            tag_39:\n              dup1\n              0x01f8a976\n              eq\n              tag_3\n              jumpi\n              dup1\n              0x1959a002\n              eq\n              tag_4\n              jumpi\n              dup1\n              0x1aed6553\n              eq\n              tag_5\n              jumpi\n            tag_2:\n              0x00\n              dup1\n              revert\n                /* \"contracts/SmartchefFactory.sol\":34811:35051  function updateRewardPerBlock(uint256 _rewardPerBlock) external onlyOwner {... */\n            tag_3:\n              tag_40\n              tag_41\n              calldatasize\n              0x04\n              tag_42\n              jump\t// in\n            tag_41:\n              tag_43\n              jump\t// in\n            tag_40:\n              stop\n                /* \"contracts/SmartchefFactory.sol\":27865:27909  mapping(address => UserInfo) public userInfo */\n            tag_4:\n              tag_44\n              tag_45\n              calldatasize\n              0x04\n              tag_46\n              jump\t// in\n            tag_45:\n              mstore(0x20, 0x0e)\n              0x00\n              swap1\n              dup2\n              mstore\n              0x40\n              swap1\n              keccak256\n              dup1\n              sload\n              0x01\n              swap1\n              swap2\n              add\n              sload\n              dup3\n              jump\n            tag_44:\n              0x40\n              dup1\n              mload\n                /* \"#utility.yul\":784:809   */\n              swap3\n              dup4\n              mstore\n                /* \"#utility.yul\":840:842   */\n              0x20\n                /* \"#utility.yul\":825:843   */\n              dup4\n              add\n                /* \"#utility.yul\":818:852   */\n              swap2\n              swap1\n              swap2\n              mstore\n                /* \"#utility.yul\":757:775   */\n              add\n                /* \"contracts/SmartchefFactory.sol\":27865:27909  mapping(address => UserInfo) public userInfo */\n            tag_48:\n              mload(0x40)\n              dup1\n              swap2\n              sub\n              swap1\n              return\n                /* \"contracts/SmartchefFactory.sol\":27043:27071  uint256 public bonusEndBlock */\n            tag_5:\n              tag_50\n              sload(0x04)\n              dup2\n              jump\n            tag_50:\n              mload(0x40)\n                /* \"#utility.yul\":1009:1034   */\n              swap1\n              dup2\n              mstore\n                /* \"#utility.yul\":997:999   */\n              0x20\n                /* \"#utility.yul\":982:1000   */\n              add\n                /* \"contracts/SmartchefFactory.sol\":27043:27071  uint256 public bonusEndBlock */\n              tag_48\n                /* \"#utility.yul\":863:1040   */\n              jump\n                /* \"contracts/SmartchefFactory.sol\":29201:30561  function initialize(... */\n            tag_6:\n              tag_40\n              tag_55\n              calldatasize\n              0x04\n              tag_56\n              jump\t// in\n            tag_55:\n              tag_57\n              jump\t// in\n                /* \"contracts/SmartchefFactory.sol\":31647:32315  function withdraw(uint256 _amount) external nonReentrant {... */\n            tag_7:\n              tag_40\n              tag_59\n              calldatasize\n              0x04\n              tag_42\n              jump\t// in\n            tag_59:\n              tag_60\n              jump\t// in\n                /* \"contracts/SmartchefFactory.sol\":32956:33073  function emergencyRewardWithdraw(uint256 _amount) external onlyOwner {... */\n            tag_8:\n              tag_40\n              tag_62\n              calldatasize\n              0x04\n              tag_42\n              jump\t// in\n            tag_62:\n              tag_63\n              jump\t// in\n                /* \"contracts/SmartchefFactory.sol\":26889:26914  bool public isInitialized */\n            tag_9:\n              sload(0x02)\n              tag_64\n              swap1\n              0x0100\n              swap1\n              div\n              0xff\n              and\n              dup2\n              jump\n            tag_64:\n              mload(0x40)\n                /* \"#utility.yul\":2133:2147   */\n              swap1\n              iszero\n                /* \"#utility.yul\":2126:2148   */\n              iszero\n                /* \"#utility.yul\":2108:2149   */\n              dup2\n              mstore\n                /* \"#utility.yul\":2096:2098   */\n              0x20\n                /* \"#utility.yul\":2081:2099   */\n              add\n                /* \"contracts/SmartchefFactory.sol\":26889:26914  bool public isInitialized */\n              tag_48\n                /* \"#utility.yul\":1968:2155   */\n              jump\n                /* \"contracts/SmartchefFactory.sol\":27130:27155  uint256 public startBlock */\n            tag_10:\n              tag_50\n              sload(0x05)\n              dup2\n              jump\n                /* \"contracts/SmartchefFactory.sol\":26825:26846  bool public userLimit */\n            tag_11:\n              sload(0x02)\n              tag_64\n              swap1\n              0xff\n              and\n              dup2\n              jump\n                /* \"contracts/SmartchefFactory.sol\":27287:27318  uint256 public poolLimitPerUser */\n            tag_12:\n              tag_50\n              sload(0x07)\n              dup2\n              jump\n                /* \"contracts/SmartchefFactory.sol\":25635:25738  function renounceOwnership() public virtual onlyOwner {... */\n            tag_13:\n              tag_40\n              tag_78\n              jump\t// in\n                /* \"contracts/SmartchefFactory.sol\":33885:33973  function stopReward() external onlyOwner {... */\n            tag_14:\n              tag_40\n              tag_80\n              jump\t// in\n                /* \"contracts/SmartchefFactory.sol\":27394:27433  uint256 public numberBlocksForUserLimit */\n            tag_15:\n              tag_50\n              sload(0x08)\n              dup2\n              jump\n                /* \"contracts/SmartchefFactory.sol\":27481:27510  uint256 public rewardPerBlock */\n            tag_16:\n              tag_50\n              sload(0x09)\n              dup2\n              jump\n                /* \"contracts/SmartchefFactory.sol\":24987:25074  function owner() public view virtual returns (address) {... */\n            tag_17:\n                /* \"contracts/SmartchefFactory.sol\":25033:25040  address */\n              0x00\n                /* \"contracts/SmartchefFactory.sol\":25060:25066  _owner */\n              sload\n              0xffffffffffffffffffffffffffffffffffffffff\n              and\n                /* \"contracts/SmartchefFactory.sol\":24987:25074  function owner() public view virtual returns (address) {... */\n            tag_87:\n              mload(0x40)\n                /* \"#utility.yul\":2336:2378   */\n              0xffffffffffffffffffffffffffffffffffffffff\n                /* \"#utility.yul\":2324:2379   */\n              swap1\n              swap2\n              and\n                /* \"#utility.yul\":2306:2380   */\n              dup2\n              mstore\n                /* \"#utility.yul\":2294:2296   */\n              0x20\n                /* \"#utility.yul\":2279:2297   */\n              add\n                /* \"contracts/SmartchefFactory.sol\":24987:25074  function owner() public view virtual returns (address) {... */\n              tag_48\n                /* \"#utility.yul\":2160:2386   */\n              jump\n                /* \"contracts/SmartchefFactory.sol\":26955:26986  uint256 public accTokenPerShare */\n            tag_18:\n              tag_50\n              sload(0x03)\n              dup2\n              jump\n                /* \"contracts/SmartchefFactory.sol\":38795:39004  function hasUserLimit() public view returns (bool) {... */\n            tag_19:\n              tag_64\n              tag_95\n              jump\t// in\n                /* \"contracts/SmartchefFactory.sol\":35295:35901  function updateStartAndEndBlocks(uint256 _startBlock, uint256 _bonusEndBlock) external onlyOwner {... */\n            tag_20:\n              tag_40\n              tag_98\n              calldatasize\n              0x04\n              tag_99\n              jump\t// in\n            tag_98:\n              tag_100\n              jump\t// in\n                /* \"contracts/SmartchefFactory.sol\":33250:33795  function recoverToken(address _token) external onlyOwner {... */\n            tag_21:\n              tag_40\n              tag_102\n              calldatasize\n              0x04\n              tag_46\n              jump\t// in\n            tag_102:\n              tag_103\n              jump\t// in\n                /* \"contracts/SmartchefFactory.sol\":27765:27797  uint256 public stakedTokenAmount */\n            tag_22:\n              tag_50\n              sload(0x0d)\n              dup2\n              jump\n                /* \"contracts/SmartchefFactory.sol\":34196:34656  function updatePoolLimitPerUser(bool _userLimit, uint256 _poolLimitPerUser) external onlyOwner {... */\n            tag_23:\n              tag_40\n              tag_108\n              calldatasize\n              0x04\n              tag_109\n              jump\t// in\n            tag_108:\n              tag_110\n              jump\t// in\n                /* \"contracts/SmartchefFactory.sol\":27213:27243  uint256 public lastRewardBlock */\n            tag_24:\n              tag_50\n              sload(0x06)\n              dup2\n              jump\n                /* \"contracts/SmartchefFactory.sol\":30719:31497  function deposit(uint256 _amount) external nonReentrant {... */\n            tag_25:\n              tag_40\n              tag_115\n              calldatasize\n              0x04\n              tag_42\n              jump\t// in\n            tag_115:\n              tag_116\n              jump\t// in\n                /* \"contracts/SmartchefFactory.sol\":26732:26775  address public immutable SMART_CHEF_FACTORY */\n            tag_26:\n              tag_87\n              immutable(\"0x4c8fd8318661e3a4ade28b580fa743eaeae928d59991cb1b8a4121980e21c88e\")\n              dup2\n              jump\n                /* \"contracts/SmartchefFactory.sol\":27680:27713  IERC20Metadata public stakedToken */\n            tag_27:\n              sload(0x0c)\n              tag_87\n              swap1\n              0xffffffffffffffffffffffffffffffffffffffff\n              and\n              dup2\n              jump\n                /* \"contracts/SmartchefFactory.sol\":27548:27579  uint256 public PRECISION_FACTOR */\n            tag_28:\n              tag_50\n              sload(0x0a)\n              dup2\n              jump\n                /* \"contracts/SmartchefFactory.sol\":32456:32838  function emergencyWithdraw() external nonReentrant {... */\n            tag_29:\n              tag_40\n              tag_128\n              jump\t// in\n                /* \"contracts/SmartchefFactory.sol\":25893:26094  function transferOwnership(address newOwner) public virtual onlyOwner {... */\n            tag_30:\n              tag_40\n              tag_130\n              calldatasize\n              0x04\n              tag_46\n              jump\t// in\n            tag_130:\n              tag_131\n              jump\t// in\n                /* \"contracts/SmartchefFactory.sol\":36074:36752  function pendingReward(address _user) external view returns (uint256) {... */\n            tag_31:\n              tag_50\n              tag_133\n              calldatasize\n              0x04\n              tag_46\n              jump\t// in\n            tag_133:\n              tag_134\n              jump\t// in\n                /* \"contracts/SmartchefFactory.sol\":27613:27646  IERC20Metadata public rewardToken */\n            tag_32:\n              sload(0x0b)\n              tag_87\n              swap1\n              0xffffffffffffffffffffffffffffffffffffffff\n              and\n              dup2\n              jump\n                /* \"contracts/SmartchefFactory.sol\":34811:35051  function updateRewardPerBlock(uint256 _rewardPerBlock) external onlyOwner {... */\n            tag_43:\n                /* \"contracts/SmartchefFactory.sol\":24873:24886  _checkOwner() */\n              tag_140\n                /* \"contracts/SmartchefFactory.sol\":24873:24884  _checkOwner */\n              tag_141\n                /* \"contracts/SmartchefFactory.sol\":24873:24886  _checkOwner() */\n              jump\t// in\n            tag_140:\n                /* \"contracts/SmartchefFactory.sol\":34919:34929  startBlock */\n              sload(0x05)\n                /* \"contracts/SmartchefFactory.sol\":34904:34916  block.number */\n              number\n                /* \"contracts/SmartchefFactory.sol\":34904:34929  block.number < startBlock */\n              lt\n                /* \"contracts/SmartchefFactory.sol\":34896:34950  require(block.number < startBlock, \"Pool has started\") */\n              tag_143\n              jumpi\n              mload(0x40)\n              0x08c379a000000000000000000000000000000000000000000000000000000000\n              dup2\n              mstore\n                /* \"#utility.yul\":3536:3538   */\n              0x20\n                /* \"contracts/SmartchefFactory.sol\":34896:34950  require(block.number < startBlock, \"Pool has started\") */\n              0x04\n              dup3\n              add\n                /* \"#utility.yul\":3518:3539   */\n              mstore\n                /* \"#utility.yul\":3575:3577   */\n              0x10\n                /* \"#utility.yul\":3555:3573   */\n              0x24\n              dup3\n              add\n                /* \"#utility.yul\":3548:3578   */\n              mstore\n                /* \"#utility.yul\":3614:3632   */\n              0x506f6f6c20686173207374617274656400000000000000000000000000000000\n                /* \"#utility.yul\":3594:3612   */\n              0x44\n              dup3\n              add\n                /* \"#utility.yul\":3587:3633   */\n              mstore\n                /* \"#utility.yul\":3650:3668   */\n              0x64\n              add\n                /* \"contracts/SmartchefFactory.sol\":34896:34950  require(block.number < startBlock, \"Pool has started\") */\n            tag_144:\n              mload(0x40)\n              dup1\n              swap2\n              sub\n              swap1\n              revert\n            tag_143:\n                /* \"contracts/SmartchefFactory.sol\":34961:34975  rewardPerBlock */\n              0x09\n                /* \"contracts/SmartchefFactory.sol\":34961:34993  rewardPerBlock = _rewardPerBlock */\n              dup2\n              swap1\n              sstore\n                /* \"contracts/SmartchefFactory.sol\":35009:35043  NewRewardPerBlock(_rewardPerBlock) */\n              mload(0x40)\n                /* \"#utility.yul\":1009:1034   */\n              dup2\n              dup2\n              mstore\n                /* \"contracts/SmartchefFactory.sol\":35009:35043  NewRewardPerBlock(_rewardPerBlock) */\n              0x0c4d677eef92893ac7ec52faf8140fc6c851ab4736302b4f3a89dfb20696a0df\n              swap1\n                /* \"#utility.yul\":997:999   */\n              0x20\n                /* \"#utility.yul\":982:1000   */\n              add\n                /* \"contracts/SmartchefFactory.sol\":35009:35043  NewRewardPerBlock(_rewardPerBlock) */\n              mload(0x40)\n              dup1\n              swap2\n              sub\n              swap1\n              log1\n                /* \"contracts/SmartchefFactory.sol\":34811:35051  function updateRewardPerBlock(uint256 _rewardPerBlock) external onlyOwner {... */\n              pop\n              jump\t// out\n                /* \"contracts/SmartchefFactory.sol\":29201:30561  function initialize(... */\n            tag_57:\n                /* \"contracts/SmartchefFactory.sol\":29535:29548  isInitialized */\n              sload(0x02)\n              0x0100\n              swap1\n              div\n              0xff\n              and\n                /* \"contracts/SmartchefFactory.sol\":29534:29548  !isInitialized */\n              iszero\n                /* \"contracts/SmartchefFactory.sol\":29526:29572  require(!isInitialized, \"Already initialized\") */\n              tag_148\n              jumpi\n              mload(0x40)\n              0x08c379a000000000000000000000000000000000000000000000000000000000\n              dup2\n              mstore\n                /* \"#utility.yul\":3881:3883   */\n              0x20\n                /* \"contracts/SmartchefFactory.sol\":29526:29572  require(!isInitialized, \"Already initialized\") */\n              0x04\n              dup3\n              add\n                /* \"#utility.yul\":3863:3884   */\n              mstore\n                /* \"#utility.yul\":3920:3922   */\n              0x13\n                /* \"#utility.yul\":3900:3918   */\n              0x24\n              dup3\n              add\n                /* \"#utility.yul\":3893:3923   */\n              mstore\n                /* \"#utility.yul\":3959:3980   */\n              0x416c726561647920696e697469616c697a656400000000000000000000000000\n                /* \"#utility.yul\":3939:3957   */\n              0x44\n              dup3\n              add\n                /* \"#utility.yul\":3932:3981   */\n              mstore\n                /* \"#utility.yul\":3998:4016   */\n              0x64\n              add\n                /* \"contracts/SmartchefFactory.sol\":29526:29572  require(!isInitialized, \"Already initialized\") */\n              tag_144\n                /* \"#utility.yul\":3679:4022   */\n              jump\n                /* \"contracts/SmartchefFactory.sol\":29526:29572  require(!isInitialized, \"Already initialized\") */\n            tag_148:\n                /* \"contracts/SmartchefFactory.sol\":29591:29601  msg.sender */\n              caller\n                /* \"contracts/SmartchefFactory.sol\":29591:29623  msg.sender == SMART_CHEF_FACTORY */\n              0xffffffffffffffffffffffffffffffffffffffff\n                /* \"contracts/SmartchefFactory.sol\":29605:29623  SMART_CHEF_FACTORY */\n              immutable(\"0x4c8fd8318661e3a4ade28b580fa743eaeae928d59991cb1b8a4121980e21c88e\")\n                /* \"contracts/SmartchefFactory.sol\":29591:29623  msg.sender == SMART_CHEF_FACTORY */\n              and\n              eq\n                /* \"contracts/SmartchefFactory.sol\":29583:29639  require(msg.sender == SMART_CHEF_FACTORY, \"Not factory\") */\n              tag_151\n              jumpi\n              mload(0x40)\n              0x08c379a000000000000000000000000000000000000000000000000000000000\n              dup2\n              mstore\n                /* \"#utility.yul\":4229:4231   */\n              0x20\n                /* \"contracts/SmartchefFactory.sol\":29583:29639  require(msg.sender == SMART_CHEF_FACTORY, \"Not factory\") */\n              0x04\n              dup3\n              add\n                /* \"#utility.yul\":4211:4232   */\n              mstore\n                /* \"#utility.yul\":4268:4270   */\n              0x0b\n                /* \"#utility.yul\":4248:4266   */\n              0x24\n              dup3\n              add\n                /* \"#utility.yul\":4241:4271   */\n              mstore\n                /* \"#utility.yul\":4307:4320   */\n              0x4e6f7420666163746f7279000000000000000000000000000000000000000000\n                /* \"#utility.yul\":4287:4305   */\n              0x44\n              dup3\n              add\n                /* \"#utility.yul\":4280:4321   */\n              mstore\n                /* \"#utility.yul\":4338:4356   */\n              0x64\n              add\n                /* \"contracts/SmartchefFactory.sol\":29583:29639  require(msg.sender == SMART_CHEF_FACTORY, \"Not factory\") */\n              tag_144\n                /* \"#utility.yul\":4027:4362   */\n              jump\n                /* \"contracts/SmartchefFactory.sol\":29583:29639  require(msg.sender == SMART_CHEF_FACTORY, \"Not factory\") */\n            tag_151:\n                /* \"contracts/SmartchefFactory.sol\":29695:29708  isInitialized */\n              0x02\n                /* \"contracts/SmartchefFactory.sol\":29695:29715  isInitialized = true */\n              dup1\n              sload\n              0xffffffffffffffffffffffffffffffffffffffffffffffffffffffffffff00ff\n              and\n              0x0100\n              or\n              swap1\n              sstore\n                /* \"contracts/SmartchefFactory.sol\":29728:29739  stakedToken */\n              0x0c\n                /* \"contracts/SmartchefFactory.sol\":29728:29754  stakedToken = _stakedToken */\n              dup1\n              sload\n              0xffffffffffffffffffffffffffffffffffffffff\n              dup1\n              dup12\n              and\n              0xffffffffffffffffffffffff0000000000000000000000000000000000000000\n              swap3\n              dup4\n              and\n              or\n              swap1\n              swap3\n              sstore\n                /* \"contracts/SmartchefFactory.sol\":29765:29776  rewardToken */\n              0x0b\n                /* \"contracts/SmartchefFactory.sol\":29765:29791  rewardToken = _rewardToken */\n              dup1\n              sload\n              swap3\n              dup11\n              and\n              swap3\n              swap1\n              swap2\n              and\n              swap2\n              swap1\n              swap2\n              or\n              swap1\n              sstore\n                /* \"contracts/SmartchefFactory.sol\":29802:29816  rewardPerBlock */\n              0x09\n                /* \"contracts/SmartchefFactory.sol\":29802:29834  rewardPerBlock = _rewardPerBlock */\n              dup7\n              swap1\n              sstore\n                /* \"contracts/SmartchefFactory.sol\":29845:29855  startBlock */\n              0x05\n                /* \"contracts/SmartchefFactory.sol\":29845:29869  startBlock = _startBlock */\n              dup6\n              swap1\n              sstore\n              0x04\n                /* \"contracts/SmartchefFactory.sol\":29880:29910  bonusEndBlock = _bonusEndBlock */\n              dup5\n              swap1\n              sstore\n                /* \"contracts/SmartchefFactory.sol\":29927:29948  _poolLimitPerUser > 0 */\n              dup3\n              iszero\n                /* \"contracts/SmartchefFactory.sol\":29923:30111  if (_poolLimitPerUser > 0) {... */\n              tag_154\n              jumpi\n                /* \"contracts/SmartchefFactory.sol\":29965:29974  userLimit */\n              0x02\n                /* \"contracts/SmartchefFactory.sol\":29965:29981  userLimit = true */\n              dup1\n              sload\n              0xffffffffffffffffffffffffffffffffffffffffffffffffffffffffffffff00\n              and\n                /* \"contracts/SmartchefFactory.sol\":29977:29981  true */\n              0x01\n                /* \"contracts/SmartchefFactory.sol\":29965:29981  userLimit = true */\n              or\n              swap1\n              sstore\n                /* \"contracts/SmartchefFactory.sol\":29996:30012  poolLimitPerUser */\n              0x07\n                /* \"contracts/SmartchefFactory.sol\":29996:30032  poolLimitPerUser = _poolLimitPerUser */\n              dup4\n              swap1\n              sstore\n                /* \"contracts/SmartchefFactory.sol\":30047:30071  numberBlocksForUserLimit */\n              0x08\n                /* \"contracts/SmartchefFactory.sol\":30047:30099  numberBlocksForUserLimit = _numberBlocksForUserLimit */\n              dup3\n              swap1\n              sstore\n                /* \"contracts/SmartchefFactory.sol\":29923:30111  if (_poolLimitPerUser > 0) {... */\n            tag_154:\n                /* \"contracts/SmartchefFactory.sol\":30161:30172  rewardToken */\n              sload(0x0b)\n                /* \"contracts/SmartchefFactory.sol\":30161:30183  rewardToken.decimals() */\n              0x40\n              dup1\n              mload\n              0x313ce56700000000000000000000000000000000000000000000000000000000\n              dup2\n              mstore\n              swap1\n              mload\n                /* \"contracts/SmartchefFactory.sol\":30123:30150  uint256 decimalsRewardToken */\n              0x00\n              swap3\n                /* \"contracts/SmartchefFactory.sol\":30161:30172  rewardToken */\n              0xffffffffffffffffffffffffffffffffffffffff\n              and\n              swap2\n                /* \"contracts/SmartchefFactory.sol\":30161:30181  rewardToken.decimals */\n              0x313ce567\n              swap2\n                /* \"contracts/SmartchefFactory.sol\":30161:30183  rewardToken.decimals() */\n              0x04\n              dup1\n              dup4\n              add\n              swap3\n              0x20\n              swap3\n              swap2\n              swap1\n              dup3\n              swap1\n              sub\n              add\n              dup2\n                /* \"contracts/SmartchefFactory.sol\":30161:30172  rewardToken */\n              dup7\n                /* \"contracts/SmartchefFactory.sol\":30161:30183  rewardToken.decimals() */\n              gas\n              staticcall\n              iszero\n              dup1\n              iszero\n              tag_156\n              jumpi\n              returndatasize\n              0x00\n              dup1\n              returndatacopy\n              revert(0x00, returndatasize)\n            tag_156:\n              pop\n              pop\n              pop\n              pop\n              mload(0x40)\n              returndatasize\n              not(0x1f)\n              0x1f\n              dup3\n              add\n              and\n              dup3\n              add\n              dup1\n              0x40\n              mstore\n              pop\n              dup2\n              add\n              swap1\n              tag_157\n              swap2\n              swap1\n              tag_158\n              jump\t// in\n            tag_157:\n                /* \"contracts/SmartchefFactory.sol\":30153:30184  uint256(rewardToken.decimals()) */\n              0xff\n              and\n                /* \"contracts/SmartchefFactory.sol\":30123:30184  uint256 decimalsRewardToken = uint256(rewardToken.decimals()) */\n              swap1\n              pop\n                /* \"contracts/SmartchefFactory.sol\":30225:30227  30 */\n              0x1e\n                /* \"contracts/SmartchefFactory.sol\":30203:30222  decimalsRewardToken */\n              dup2\n                /* \"contracts/SmartchefFactory.sol\":30203:30227  decimalsRewardToken < 30 */\n              lt\n                /* \"contracts/SmartchefFactory.sol\":30195:30254  require(decimalsRewardToken < 30, \"Must be inferior to 30\") */\n              tag_159\n              jumpi\n              mload(0x40)\n              0x08c379a000000000000000000000000000000000000000000000000000000000\n              dup2\n              mstore\n                /* \"#utility.yul\":4847:4849   */\n              0x20\n                /* \"contracts/SmartchefFactory.sol\":30195:30254  require(decimalsRewardToken < 30, \"Must be inferior to 30\") */\n              0x04\n              dup3\n              add\n                /* \"#utility.yul\":4829:4850   */\n              mstore\n                /* \"#utility.yul\":4886:4888   */\n              0x16\n                /* \"#utility.yul\":4866:4884   */\n              0x24\n              dup3\n              add\n                /* \"#utility.yul\":4859:4889   */\n              mstore\n                /* \"#utility.yul\":4925:4949   */\n              0x4d75737420626520696e666572696f7220746f20333000000000000000000000\n                /* \"#utility.yul\":4905:4923   */\n              0x44\n              dup3\n              add\n                /* \"#utility.yul\":4898:4950   */\n              mstore\n                /* \"#utility.yul\":4967:4985   */\n              0x64\n              add\n                /* \"contracts/SmartchefFactory.sol\":30195:30254  require(decimalsRewardToken < 30, \"Must be inferior to 30\") */\n              tag_144\n                /* \"#utility.yul\":4645:4991   */\n              jump\n                /* \"contracts/SmartchefFactory.sol\":30195:30254  require(decimalsRewardToken < 30, \"Must be inferior to 30\") */\n            tag_159:\n                /* \"contracts/SmartchefFactory.sol\":30299:30332  uint256(30) - decimalsRewardToken */\n              tag_162\n                /* \"contracts/SmartchefFactory.sol\":30313:30332  decimalsRewardToken */\n              dup2\n                /* \"contracts/SmartchefFactory.sol\":30307:30309  30 */\n              0x1e\n                /* \"contracts/SmartchefFactory.sol\":30299:30332  uint256(30) - decimalsRewardToken */\n              tag_163\n              jump\t// in\n            tag_162:\n                /* \"contracts/SmartchefFactory.sol\":30294:30333  10**(uint256(30) - decimalsRewardToken) */\n              tag_164\n              swap1\n                /* \"contracts/SmartchefFactory.sol\":30294:30296  10 */\n              0x0a\n                /* \"contracts/SmartchefFactory.sol\":30294:30333  10**(uint256(30) - decimalsRewardToken) */\n              tag_165\n              jump\t// in\n            tag_164:\n                /* \"contracts/SmartchefFactory.sol\":30267:30283  PRECISION_FACTOR */\n              0x0a\n                /* \"contracts/SmartchefFactory.sol\":30267:30334  PRECISION_FACTOR = uint256(10**(uint256(30) - decimalsRewardToken)) */\n              sstore\n                /* \"contracts/SmartchefFactory.sol\":30419:30429  startBlock */\n              sload(0x05)\n                /* \"contracts/SmartchefFactory.sol\":30401:30416  lastRewardBlock */\n              0x06\n                /* \"contracts/SmartchefFactory.sol\":30401:30429  lastRewardBlock = startBlock */\n              sstore\n                /* \"contracts/SmartchefFactory.sol\":30528:30553  transferOwnership(_admin) */\n              tag_166\n                /* \"contracts/SmartchefFactory.sol\":30546:30552  _admin */\n              dup3\n                /* \"contracts/SmartchefFactory.sol\":30528:30545  transferOwnership */\n              tag_131\n                /* \"contracts/SmartchefFactory.sol\":30528:30553  transferOwnership(_admin) */\n              jump\t// in\n            tag_166:\n                /* \"contracts/SmartchefFactory.sol\":29515:30561  {... */\n              pop\n                /* \"contracts/SmartchefFactory.sol\":29201:30561  function initialize(... */\n              pop\n              pop\n              pop\n              pop\n              pop\n              pop\n              pop\n              pop\n              jump\t// out\n                /* \"contracts/SmartchefFactory.sol\":31647:32315  function withdraw(uint256 _amount) external nonReentrant {... */\n            tag_60:\n                /* \"contracts/SmartchefFactory.sol\":14140:14161  _nonReentrantBefore() */\n              tag_168\n                /* \"contracts/SmartchefFactory.sol\":14140:14159  _nonReentrantBefore */\n              tag_169\n                /* \"contracts/SmartchefFactory.sol\":14140:14161  _nonReentrantBefore() */\n              jump\t// in\n            tag_168:\n                /* \"contracts/SmartchefFactory.sol\":31748:31758  msg.sender */\n              caller\n                /* \"contracts/SmartchefFactory.sol\":31715:31736  UserInfo storage user */\n              0x00\n                /* \"contracts/SmartchefFactory.sol\":31739:31759  userInfo[msg.sender] */\n              swap1\n              dup2\n              mstore\n                /* \"contracts/SmartchefFactory.sol\":31739:31747  userInfo */\n              0x0e\n                /* \"contracts/SmartchefFactory.sol\":31739:31759  userInfo[msg.sender] */\n              0x20\n              mstore\n              0x40\n              swap1\n              keccak256\n                /* \"contracts/SmartchefFactory.sol\":31778:31789  user.amount */\n              dup1\n              sload\n                /* \"contracts/SmartchefFactory.sol\":31778:31800  user.amount >= _amount */\n              dup3\n              gt\n              iszero\n                /* \"contracts/SmartchefFactory.sol\":31770:31832  require(user.amount >= _amount, \"Amount to withdraw too high\") */\n              tag_171\n              jumpi\n              mload(0x40)\n              0x08c379a000000000000000000000000000000000000000000000000000000000\n              dup2\n              mstore\n                /* \"#utility.yul\":7014:7016   */\n              0x20\n                /* \"contracts/SmartchefFactory.sol\":31770:31832  require(user.amount >= _amount, \"Amount to withdraw too high\") */\n              0x04\n              dup3\n              add\n                /* \"#utility.yul\":6996:7017   */\n              mstore\n                /* \"#utility.yul\":7053:7055   */\n              0x1b\n                /* \"#utility.yul\":7033:7051   */\n              0x24\n              dup3\n              add\n                /* \"#utility.yul\":7026:7056   */\n              mstore\n                /* \"#utility.yul\":7092:7121   */\n              0x416d6f756e7420746f20776974686472617720746f6f20686967680000000000\n                /* \"#utility.yul\":7072:7090   */\n              0x44\n              dup3\n              add\n                /* \"#utility.yul\":7065:7122   */\n              mstore\n                /* \"#utility.yul\":7139:7157   */\n              0x64\n              add\n                /* \"contracts/SmartchefFactory.sol\":31770:31832  require(user.amount >= _amount, \"Amount to withdraw too high\") */\n              tag_144\n                /* \"#utility.yul\":6812:7163   */\n              jump\n                /* \"contracts/SmartchefFactory.sol\":31770:31832  require(user.amount >= _amount, \"Amount to withdraw too high\") */\n            tag_171:\n                /* \"contracts/SmartchefFactory.sol\":31845:31858  _updatePool() */\n              tag_174\n                /* \"contracts/SmartchefFactory.sol\":31845:31856  _updatePool */\n              tag_175\n                /* \"contracts/SmartchefFactory.sol\":31845:31858  _updatePool() */\n              jump\t// in\n            tag_174:\n                /* \"contracts/SmartchefFactory.sol\":31871:31886  uint256 pending */\n              0x00\n                /* \"contracts/SmartchefFactory.sol\":31943:31947  user */\n              dup2\n                /* \"contracts/SmartchefFactory.sol\":31943:31958  user.rewardDebt */\n              0x01\n              add\n              sload\n                /* \"contracts/SmartchefFactory.sol\":31924:31940  PRECISION_FACTOR */\n              sload(0x0a)\n                /* \"contracts/SmartchefFactory.sol\":31904:31920  accTokenPerShare */\n              sload(0x03)\n                /* \"contracts/SmartchefFactory.sol\":31890:31894  user */\n              dup5\n                /* \"contracts/SmartchefFactory.sol\":31890:31901  user.amount */\n              0x00\n              add\n              sload\n                /* \"contracts/SmartchefFactory.sol\":31890:31920  user.amount * accTokenPerShare */\n              tag_176\n              swap2\n              swap1\n              tag_177\n              jump\t// in\n            tag_176:\n                /* \"contracts/SmartchefFactory.sol\":31889:31940  (user.amount * accTokenPerShare) / PRECISION_FACTOR */\n              tag_178\n              swap2\n              swap1\n              tag_179\n              jump\t// in\n            tag_178:\n                /* \"contracts/SmartchefFactory.sol\":31889:31958  (user.amount * accTokenPerShare) / PRECISION_FACTOR - user.rewardDebt */\n              tag_180\n              swap2\n              swap1\n              tag_163\n              jump\t// in\n            tag_180:\n                /* \"contracts/SmartchefFactory.sol\":31871:31958  uint256 pending = (user.amount * accTokenPerShare) / PRECISION_FACTOR - user.rewardDebt */\n              swap1\n              pop\n                /* \"contracts/SmartchefFactory.sol\":31975:31986  _amount > 0 */\n              dup3\n              iszero\n                /* \"contracts/SmartchefFactory.sol\":31971:32094  if (_amount > 0) {... */\n              tag_183\n              jumpi\n                /* \"contracts/SmartchefFactory.sol\":32017:32028  user.amount */\n              dup2\n              sload\n                /* \"contracts/SmartchefFactory.sol\":32017:32038  user.amount - _amount */\n              tag_182\n              swap1\n                /* \"contracts/SmartchefFactory.sol\":32031:32038  _amount */\n              dup5\n              swap1\n                /* \"contracts/SmartchefFactory.sol\":32017:32038  user.amount - _amount */\n              tag_163\n              jump\t// in\n            tag_182:\n                /* \"contracts/SmartchefFactory.sol\":32003:32038  user.amount = user.amount - _amount */\n              dup3\n              sstore\n                /* \"contracts/SmartchefFactory.sol\":32053:32082  _withdrawStakedToken(_amount) */\n              tag_183\n                /* \"contracts/SmartchefFactory.sol\":32074:32081  _amount */\n              dup4\n                /* \"contracts/SmartchefFactory.sol\":32053:32073  _withdrawStakedToken */\n              tag_184\n                /* \"contracts/SmartchefFactory.sol\":32053:32082  _withdrawStakedToken(_amount) */\n              jump\t// in\n            tag_183:\n                /* \"contracts/SmartchefFactory.sol\":32110:32121  pending > 0 */\n              dup1\n              iszero\n                /* \"contracts/SmartchefFactory.sol\":32106:32179  if (pending > 0) {... */\n              tag_186\n              jumpi\n                /* \"contracts/SmartchefFactory.sol\":32138:32167  _withdrawRewardToken(pending) */\n              tag_186\n                /* \"contracts/SmartchefFactory.sol\":32159:32166  pending */\n              dup2\n                /* \"contracts/SmartchefFactory.sol\":32138:32158  _withdrawRewardToken */\n              tag_187\n                /* \"contracts/SmartchefFactory.sol\":32138:32167  _withdrawRewardToken(pending) */\n              jump\t// in\n            tag_186:\n                /* \"contracts/SmartchefFactory.sol\":32244:32260  PRECISION_FACTOR */\n              sload(0x0a)\n                /* \"contracts/SmartchefFactory.sol\":32224:32240  accTokenPerShare */\n              sload(0x03)\n                /* \"contracts/SmartchefFactory.sol\":32210:32221  user.amount */\n              dup4\n              sload\n                /* \"contracts/SmartchefFactory.sol\":32210:32240  user.amount * accTokenPerShare */\n              tag_188\n              swap2\n                /* \"contracts/SmartchefFactory.sol\":32224:32240  accTokenPerShare */\n              swap1\n                /* \"contracts/SmartchefFactory.sol\":32210:32240  user.amount * accTokenPerShare */\n              tag_177\n              jump\t// in\n            tag_188:\n                /* \"contracts/SmartchefFactory.sol\":32209:32260  (user.amount * accTokenPerShare) / PRECISION_FACTOR */\n              tag_189\n              swap2\n              swap1\n              tag_179\n              jump\t// in\n            tag_189:\n                /* \"contracts/SmartchefFactory.sol\":32191:32206  user.rewardDebt */\n              0x01\n              dup4\n              add\n                /* \"contracts/SmartchefFactory.sol\":32191:32260  user.rewardDebt = (user.amount * accTokenPerShare) / PRECISION_FACTOR */\n              sstore\n                /* \"contracts/SmartchefFactory.sol\":32278:32307  Withdraw(msg.sender, _amount) */\n              mload(0x40)\n                /* \"#utility.yul\":1009:1034   */\n              dup4\n              dup2\n              mstore\n                /* \"contracts/SmartchefFactory.sol\":32287:32297  msg.sender */\n              caller\n              swap1\n                /* \"contracts/SmartchefFactory.sol\":32278:32307  Withdraw(msg.sender, _amount) */\n              0x884edad9ce6fa2440d8a54cc123490eb96d2768479d49ff9c7366125a9424364\n              swap1\n                /* \"#utility.yul\":997:999   */\n              0x20\n                /* \"#utility.yul\":982:1000   */\n              add\n                /* \"contracts/SmartchefFactory.sol\":32278:32307  Withdraw(msg.sender, _amount) */\n              mload(0x40)\n              dup1\n              swap2\n              sub\n              swap1\n              log2\n                /* \"contracts/SmartchefFactory.sol\":31704:32315  {... */\n              pop\n              pop\n                /* \"contracts/SmartchefFactory.sol\":14184:14204  _nonReentrantAfter() */\n              tag_191\n                /* \"contracts/SmartchefFactory.sol\":13578:13579  1 */\n              0x01\n                /* \"contracts/SmartchefFactory.sol\":14704:14726  _status = _NOT_ENTERED */\n              dup1\n              sstore\n                /* \"contracts/SmartchefFactory.sol\":14521:14734  function _nonReentrantAfter() private {... */\n              jump\n                /* \"contracts/SmartchefFactory.sol\":14184:14204  _nonReentrantAfter() */\n            tag_191:\n                /* \"contracts/SmartchefFactory.sol\":31647:32315  function withdraw(uint256 _amount) external nonReentrant {... */\n              pop\n              jump\t// out\n                /* \"contracts/SmartchefFactory.sol\":32956:33073  function emergencyRewardWithdraw(uint256 _amount) external onlyOwner {... */\n            tag_63:\n                /* \"contracts/SmartchefFactory.sol\":24873:24886  _checkOwner() */\n              tag_194\n                /* \"contracts/SmartchefFactory.sol\":24873:24884  _checkOwner */\n              tag_141\n                /* \"contracts/SmartchefFactory.sol\":24873:24886  _checkOwner() */\n              jump\t// in\n            tag_194:\n                /* \"contracts/SmartchefFactory.sol\":33036:33065  _withdrawRewardToken(_amount) */\n              tag_191\n                /* \"contracts/SmartchefFactory.sol\":33057:33064  _amount */\n              dup2\n                /* \"contracts/SmartchefFactory.sol\":33036:33056  _withdrawRewardToken */\n              tag_187\n                /* \"contracts/SmartchefFactory.sol\":33036:33065  _withdrawRewardToken(_amount) */\n              jump\t// in\n                /* \"contracts/SmartchefFactory.sol\":25635:25738  function renounceOwnership() public virtual onlyOwner {... */\n            tag_78:\n                /* \"contracts/SmartchefFactory.sol\":24873:24886  _checkOwner() */\n              tag_198\n                /* \"contracts/SmartchefFactory.sol\":24873:24884  _checkOwner */\n              tag_141\n                /* \"contracts/SmartchefFactory.sol\":24873:24886  _checkOwner() */\n              jump\t// in\n            tag_198:\n                /* \"contracts/SmartchefFactory.sol\":25700:25730  _transferOwnership(address(0)) */\n              tag_200\n                /* \"contracts/SmartchefFactory.sol\":25727:25728  0 */\n              0x00\n                /* \"contracts/SmartchefFactory.sol\":25700:25718  _transferOwnership */\n              tag_201\n                /* \"contracts/SmartchefFactory.sol\":25700:25730  _transferOwnership(address(0)) */\n              jump\t// in\n            tag_200:\n                /* \"contracts/SmartchefFactory.sol\":25635:25738  function renounceOwnership() public virtual onlyOwner {... */\n              jump\t// out\n                /* \"contracts/SmartchefFactory.sol\":33885:33973  function stopReward() external onlyOwner {... */\n            tag_80:\n                /* \"contracts/SmartchefFactory.sol\":24873:24886  _checkOwner() */\n              tag_203\n                /* \"contracts/SmartchefFactory.sol\":24873:24884  _checkOwner */\n              tag_141\n                /* \"contracts/SmartchefFactory.sol\":24873:24886  _checkOwner() */\n              jump\t// in\n            tag_203:\n                /* \"contracts/SmartchefFactory.sol\":33953:33965  block.number */\n              number\n                /* \"contracts/SmartchefFactory.sol\":33937:33950  bonusEndBlock */\n              0x04\n                /* \"contracts/SmartchefFactory.sol\":33937:33965  bonusEndBlock = block.number */\n              sstore\n                /* \"contracts/SmartchefFactory.sol\":33885:33973  function stopReward() external onlyOwner {... */\n              jump\t// out\n                /* \"contracts/SmartchefFactory.sol\":38795:39004  function hasUserLimit() public view returns (bool) {... */\n            tag_95:\n                /* \"contracts/SmartchefFactory.sol\":38862:38871  userLimit */\n              sload(0x02)\n                /* \"contracts/SmartchefFactory.sol\":38840:38844  bool */\n              0x00\n              swap1\n                /* \"contracts/SmartchefFactory.sol\":38862:38871  userLimit */\n              0xff\n              and\n                /* \"contracts/SmartchefFactory.sol\":38861:38871  !userLimit */\n              iszero\n              dup1\n                /* \"contracts/SmartchefFactory.sol\":38861:38932  !userLimit || (block.number >= (startBlock + numberBlocksForUserLimit)) */\n              tag_207\n              jumpi\n              pop\n                /* \"contracts/SmartchefFactory.sol\":38906:38930  numberBlocksForUserLimit */\n              sload(0x08)\n                /* \"contracts/SmartchefFactory.sol\":38893:38903  startBlock */\n              sload(0x05)\n                /* \"contracts/SmartchefFactory.sol\":38893:38930  startBlock + numberBlocksForUserLimit */\n              tag_208\n              swap2\n              swap1\n              tag_209\n              jump\t// in\n            tag_208:\n                /* \"contracts/SmartchefFactory.sol\":38876:38888  block.number */\n              number\n                /* \"contracts/SmartchefFactory.sol\":38876:38931  block.number >= (startBlock + numberBlocksForUserLimit) */\n              lt\n              iszero\n                /* \"contracts/SmartchefFactory.sol\":38861:38932  !userLimit || (block.number >= (startBlock + numberBlocksForUserLimit)) */\n            tag_207:\n                /* \"contracts/SmartchefFactory.sol\":38857:38973  if (!userLimit || (block.number >= (startBlock + numberBlocksForUserLimit))) {... */\n              iszero\n              tag_210\n              jumpi\n              pop\n                /* \"contracts/SmartchefFactory.sol\":38956:38961  false */\n              0x00\n              swap1\n                /* \"contracts/SmartchefFactory.sol\":38795:39004  function hasUserLimit() public view returns (bool) {... */\n              jump\t// out\n                /* \"contracts/SmartchefFactory.sol\":38857:38973  if (!userLimit || (block.number >= (startBlock + numberBlocksForUserLimit))) {... */\n            tag_210:\n              pop\n                /* \"contracts/SmartchefFactory.sol\":38992:38996  true */\n              0x01\n              swap1\n                /* \"contracts/SmartchefFactory.sol\":38795:39004  function hasUserLimit() public view returns (bool) {... */\n              jump\t// out\n                /* \"contracts/SmartchefFactory.sol\":35295:35901  function updateStartAndEndBlocks(uint256 _startBlock, uint256 _bonusEndBlock) external onlyOwner {... */\n            tag_100:\n                /* \"contracts/SmartchefFactory.sol\":24873:24886  _checkOwner() */\n              tag_212\n                /* \"contracts/SmartchefFactory.sol\":24873:24884  _checkOwner */\n              tag_141\n                /* \"contracts/SmartchefFactory.sol\":24873:24886  _checkOwner() */\n              jump\t// in\n            tag_212:\n                /* \"contracts/SmartchefFactory.sol\":35426:35436  startBlock */\n              sload(0x05)\n                /* \"contracts/SmartchefFactory.sol\":35411:35423  block.number */\n              number\n                /* \"contracts/SmartchefFactory.sol\":35411:35436  block.number < startBlock */\n              lt\n                /* \"contracts/SmartchefFactory.sol\":35403:35457  require(block.number < startBlock, \"Pool has started\") */\n              tag_214\n              jumpi\n              mload(0x40)\n              0x08c379a000000000000000000000000000000000000000000000000000000000\n              dup2\n              mstore\n                /* \"#utility.yul\":3536:3538   */\n              0x20\n                /* \"contracts/SmartchefFactory.sol\":35403:35457  require(block.number < startBlock, \"Pool has started\") */\n              0x04\n              dup3\n              add\n                /* \"#utility.yul\":3518:3539   */\n              mstore\n                /* \"#utility.yul\":3575:3577   */\n              0x10\n                /* \"#utility.yul\":3555:3573   */\n              0x24\n              dup3\n              add\n                /* \"#utility.yul\":3548:3578   */\n              mstore\n                /* \"#utility.yul\":3614:3632   */\n              0x506f6f6c20686173207374617274656400000000000000000000000000000000\n                /* \"#utility.yul\":3594:3612   */\n              0x44\n              dup3\n              add\n                /* \"#utility.yul\":3587:3633   */\n              mstore\n                /* \"#utility.yul\":3650:3668   */\n              0x64\n              add\n                /* \"contracts/SmartchefFactory.sol\":35403:35457  require(block.number < startBlock, \"Pool has started\") */\n              tag_144\n                /* \"#utility.yul\":3334:3674   */\n              jump\n                /* \"contracts/SmartchefFactory.sol\":35403:35457  require(block.number < startBlock, \"Pool has started\") */\n            tag_214:\n                /* \"contracts/SmartchefFactory.sol\":35490:35504  _bonusEndBlock */\n              dup1\n                /* \"contracts/SmartchefFactory.sol\":35476:35487  _startBlock */\n              dup3\n                /* \"contracts/SmartchefFactory.sol\":35476:35504  _startBlock < _bonusEndBlock */\n              lt\n                /* \"contracts/SmartchefFactory.sol\":35468:35555  require(_startBlock < _bonusEndBlock, \"New startBlock must be lower than new endBlock\") */\n              tag_216\n              jumpi\n              mload(0x40)\n              0x08c379a000000000000000000000000000000000000000000000000000000000\n              dup2\n              mstore\n                /* \"#utility.yul\":7952:7954   */\n              0x20\n                /* \"contracts/SmartchefFactory.sol\":35468:35555  require(_startBlock < _bonusEndBlock, \"New startBlock must be lower than new endBlock\") */\n              0x04\n              dup3\n              add\n                /* \"#utility.yul\":7934:7955   */\n              mstore\n                /* \"#utility.yul\":7991:7993   */\n              0x2e\n                /* \"#utility.yul\":7971:7989   */\n              0x24\n              dup3\n              add\n                /* \"#utility.yul\":7964:7994   */\n              mstore\n                /* \"#utility.yul\":8030:8064   */\n              0x4e6577207374617274426c6f636b206d757374206265206c6f77657220746861\n                /* \"#utility.yul\":8010:8028   */\n              0x44\n              dup3\n              add\n                /* \"#utility.yul\":8003:8065   */\n              mstore\n                /* \"#utility.yul\":8101:8117   */\n              0x6e206e657720656e64426c6f636b000000000000000000000000000000000000\n                /* \"#utility.yul\":8081:8099   */\n              0x64\n              dup3\n              add\n                /* \"#utility.yul\":8074:8118   */\n              mstore\n                /* \"#utility.yul\":8135:8154   */\n              0x84\n              add\n                /* \"contracts/SmartchefFactory.sol\":35468:35555  require(_startBlock < _bonusEndBlock, \"New startBlock must be lower than new endBlock\") */\n              tag_144\n                /* \"#utility.yul\":7750:8160   */\n              jump\n                /* \"contracts/SmartchefFactory.sol\":35468:35555  require(_startBlock < _bonusEndBlock, \"New startBlock must be lower than new endBlock\") */\n            tag_216:\n                /* \"contracts/SmartchefFactory.sol\":35589:35600  _startBlock */\n              dup2\n                /* \"contracts/SmartchefFactory.sol\":35574:35586  block.number */\n              number\n                /* \"contracts/SmartchefFactory.sol\":35574:35600  block.number < _startBlock */\n              lt\n                /* \"contracts/SmartchefFactory.sol\":35566:35653  require(block.number < _startBlock, \"New startBlock must be higher than current block\") */\n              tag_219\n              jumpi\n              mload(0x40)\n              0x08c379a000000000000000000000000000000000000000000000000000000000\n              dup2\n              mstore\n                /* \"#utility.yul\":8367:8369   */\n              0x20\n                /* \"contracts/SmartchefFactory.sol\":35566:35653  require(block.number < _startBlock, \"New startBlock must be higher than current block\") */\n              0x04\n              dup3\n              add\n                /* \"#utility.yul\":8349:8370   */\n              mstore\n                /* \"#utility.yul\":8406:8408   */\n              0x30\n                /* \"#utility.yul\":8386:8404   */\n              0x24\n              dup3\n              add\n                /* \"#utility.yul\":8379:8409   */\n              mstore\n                /* \"#utility.yul\":8445:8479   */\n              0x4e6577207374617274426c6f636b206d75737420626520686967686572207468\n                /* \"#utility.yul\":8425:8443   */\n              0x44\n              dup3\n              add\n                /* \"#utility.yul\":8418:8480   */\n              mstore\n                /* \"#utility.yul\":8516:8534   */\n              0x616e2063757272656e7420626c6f636b00000000000000000000000000000000\n                /* \"#utility.yul\":8496:8514   */\n              0x64\n              dup3\n              add\n                /* \"#utility.yul\":8489:8535   */\n              mstore\n                /* \"#utility.yul\":8552:8571   */\n              0x84\n              add\n                /* \"contracts/SmartchefFactory.sol\":35566:35653  require(block.number < _startBlock, \"New startBlock must be higher than current block\") */\n              tag_144\n                /* \"#utility.yul\":8165:8577   */\n              jump\n                /* \"contracts/SmartchefFactory.sol\":35566:35653  require(block.number < _startBlock, \"New startBlock must be higher than current block\") */\n            tag_219:\n                /* \"contracts/SmartchefFactory.sol\":35666:35676  startBlock */\n              0x05\n                /* \"contracts/SmartchefFactory.sol\":35666:35690  startBlock = _startBlock */\n              dup3\n              swap1\n              sstore\n                /* \"contracts/SmartchefFactory.sol\":35701:35714  bonusEndBlock */\n              0x04\n                /* \"contracts/SmartchefFactory.sol\":35701:35731  bonusEndBlock = _bonusEndBlock */\n              dup2\n              swap1\n              sstore\n                /* \"contracts/SmartchefFactory.sol\":35798:35813  lastRewardBlock */\n              0x06\n                /* \"contracts/SmartchefFactory.sol\":35798:35826  lastRewardBlock = startBlock */\n              dup3\n              swap1\n              sstore\n                /* \"contracts/SmartchefFactory.sol\":35844:35893  NewStartAndEndBlocks(_startBlock, _bonusEndBlock) */\n              0x40\n              dup1\n              mload\n                /* \"#utility.yul\":784:809   */\n              dup4\n              dup2\n              mstore\n                /* \"#utility.yul\":840:842   */\n              0x20\n                /* \"#utility.yul\":825:843   */\n              dup2\n              add\n                /* \"#utility.yul\":818:852   */\n              dup4\n              swap1\n              mstore\n                /* \"contracts/SmartchefFactory.sol\":35844:35893  NewStartAndEndBlocks(_startBlock, _bonusEndBlock) */\n              0x7cd0ab87d19036f3dfadadb232c78aa4879dda3f0c994a9d637532410ee2ce06\n              swap2\n                /* \"#utility.yul\":757:775   */\n              add\n                /* \"contracts/SmartchefFactory.sol\":35844:35893  NewStartAndEndBlocks(_startBlock, _bonusEndBlock) */\n            tag_222:\n              mload(0x40)\n              dup1\n              swap2\n              sub\n              swap1\n              log1\n                /* \"contracts/SmartchefFactory.sol\":35295:35901  function updateStartAndEndBlocks(uint256 _startBlock, uint256 _bonusEndBlock) external onlyOwner {... */\n              pop\n              pop\n              jump\t// out\n                /* \"contracts/SmartchefFactory.sol\":33250:33795  function recoverToken(address _token) external onlyOwner {... */\n            tag_103:\n                /* \"contracts/SmartchefFactory.sol\":24873:24886  _checkOwner() */\n              tag_224\n                /* \"contracts/SmartchefFactory.sol\":24873:24884  _checkOwner */\n              tag_141\n                /* \"contracts/SmartchefFactory.sol\":24873:24886  _checkOwner() */\n              jump\t// in\n            tag_224:\n                /* \"contracts/SmartchefFactory.sol\":33344:33355  rewardToken */\n              sload(0x0b)\n              0xffffffffffffffffffffffffffffffffffffffff\n              swap1\n              dup2\n              and\n                /* \"contracts/SmartchefFactory.sol\":33326:33356  _token != address(rewardToken) */\n              swap1\n              dup3\n              and\n              sub\n                /* \"contracts/SmartchefFactory.sol\":33318:33400  require(_token != address(rewardToken), \"Operations: Cannot recover reward token\") */\n              tag_226\n              jumpi\n              mload(0x40)\n              0x08c379a000000000000000000000000000000000000000000000000000000000\n              dup2\n              mstore\n                /* \"#utility.yul\":8784:8786   */\n              0x20\n                /* \"contracts/SmartchefFactory.sol\":33318:33400  require(_token != address(rewardToken), \"Operations: Cannot recover reward token\") */\n              0x04\n              dup3\n              add\n                /* \"#utility.yul\":8766:8787   */\n              mstore\n                /* \"#utility.yul\":8823:8825   */\n              0x27\n                /* \"#utility.yul\":8803:8821   */\n              0x24\n              dup3\n              add\n                /* \"#utility.yul\":8796:8826   */\n              mstore\n                /* \"#utility.yul\":8862:8896   */\n              0x4f7065726174696f6e733a2043616e6e6f74207265636f766572207265776172\n                /* \"#utility.yul\":8842:8860   */\n              0x44\n              dup3\n              add\n                /* \"#utility.yul\":8835:8897   */\n              mstore\n                /* \"#utility.yul\":8933:8942   */\n              0x6420746f6b656e00000000000000000000000000000000000000000000000000\n                /* \"#utility.yul\":8913:8931   */\n              0x64\n              dup3\n              add\n                /* \"#utility.yul\":8906:8943   */\n              mstore\n                /* \"#utility.yul\":8960:8979   */\n              0x84\n              add\n                /* \"contracts/SmartchefFactory.sol\":33318:33400  require(_token != address(rewardToken), \"Operations: Cannot recover reward token\") */\n              tag_144\n                /* \"#utility.yul\":8582:8985   */\n              jump\n                /* \"contracts/SmartchefFactory.sol\":33318:33400  require(_token != address(rewardToken), \"Operations: Cannot recover reward token\") */\n            tag_226:\n                /* \"contracts/SmartchefFactory.sol\":33431:33478  IERC20Metadata(_token).balanceOf(address(this)) */\n              mload(0x40)\n              0x70a0823100000000000000000000000000000000000000000000000000000000\n              dup2\n              mstore\n                /* \"contracts/SmartchefFactory.sol\":33472:33476  this */\n              address\n                /* \"contracts/SmartchefFactory.sol\":33431:33478  IERC20Metadata(_token).balanceOf(address(this)) */\n              0x04\n              dup3\n              add\n                /* \"#utility.yul\":2306:2380   */\n              mstore\n                /* \"contracts/SmartchefFactory.sol\":33413:33428  uint256 balance */\n              0x00\n              swap1\n                /* \"contracts/SmartchefFactory.sol\":33431:33463  IERC20Metadata(_token).balanceOf */\n              0xffffffffffffffffffffffffffffffffffffffff\n              dup4\n              and\n              swap1\n              0x70a08231\n              swap1\n                /* \"#utility.yul\":2279:2297   */\n              0x24\n              add\n                /* \"contracts/SmartchefFactory.sol\":33431:33478  IERC20Metadata(_token).balanceOf(address(this)) */\n              0x20\n              mload(0x40)\n              dup1\n              dup4\n              sub\n              dup2\n              dup7\n              gas\n              staticcall\n              iszero\n              dup1\n              iszero\n              tag_231\n              jumpi\n              returndatasize\n              0x00\n              dup1\n              returndatacopy\n              revert(0x00, returndatasize)\n            tag_231:\n              pop\n              pop\n              pop\n              pop\n              mload(0x40)\n              returndatasize\n              not(0x1f)\n              0x1f\n              dup3\n              add\n              and\n              dup3\n              add\n              dup1\n              0x40\n              mstore\n              pop\n              dup2\n              add\n              swap1\n              tag_232\n              swap2\n              swap1\n              tag_233\n              jump\t// in\n            tag_232:\n                /* \"contracts/SmartchefFactory.sol\":33510:33521  stakedToken */\n              sload(0x0c)\n                /* \"contracts/SmartchefFactory.sol\":33413:33478  uint256 balance = IERC20Metadata(_token).balanceOf(address(this)) */\n              swap1\n              swap2\n              pop\n                /* \"contracts/SmartchefFactory.sol\":33510:33521  stakedToken */\n              0xffffffffffffffffffffffffffffffffffffffff\n              swap1\n              dup2\n              and\n                /* \"contracts/SmartchefFactory.sol\":33492:33522  _token == address(stakedToken) */\n              swap1\n              dup4\n              and\n              sub\n                /* \"contracts/SmartchefFactory.sol\":33489:33587  if(_token == address(stakedToken)){... */\n              tag_234\n              jumpi\n                /* \"contracts/SmartchefFactory.sol\":33558:33575  stakedTokenAmount */\n              sload(0x0d)\n                /* \"contracts/SmartchefFactory.sol\":33548:33575  balance - stakedTokenAmount */\n              tag_235\n              swap1\n                /* \"contracts/SmartchefFactory.sol\":33548:33555  balance */\n              dup3\n                /* \"contracts/SmartchefFactory.sol\":33548:33575  balance - stakedTokenAmount */\n              tag_163\n              jump\t// in\n            tag_235:\n                /* \"contracts/SmartchefFactory.sol\":33538:33575  balance = balance - stakedTokenAmount */\n              swap1\n              pop\n                /* \"contracts/SmartchefFactory.sol\":33489:33587  if(_token == address(stakedToken)){... */\n            tag_234:\n                /* \"contracts/SmartchefFactory.sol\":33605:33612  balance */\n              dup1\n                /* \"contracts/SmartchefFactory.sol\":33616:33617  0 */\n              0x00\n                /* \"contracts/SmartchefFactory.sol\":33605:33617  balance != 0 */\n              sub\n                /* \"contracts/SmartchefFactory.sol\":33597:33661  require(balance != 0, \"Operations: Cannot recover zero balance\") */\n              tag_236\n              jumpi\n              mload(0x40)\n              0x08c379a000000000000000000000000000000000000000000000000000000000\n              dup2\n              mstore\n                /* \"#utility.yul\":9381:9383   */\n              0x20\n                /* \"contracts/SmartchefFactory.sol\":33597:33661  require(balance != 0, \"Operations: Cannot recover zero balance\") */\n              0x04\n              dup3\n              add\n                /* \"#utility.yul\":9363:9384   */\n              mstore\n                /* \"#utility.yul\":9420:9422   */\n              0x27\n                /* \"#utility.yul\":9400:9418   */\n              0x24\n              dup3\n              add\n                /* \"#utility.yul\":9393:9423   */\n              mstore\n                /* \"#utility.yul\":9459:9493   */\n              0x4f7065726174696f6e733a2043616e6e6f74207265636f766572207a65726f20\n                /* \"#utility.yul\":9439:9457   */\n              0x44\n              dup3\n              add\n                /* \"#utility.yul\":9432:9494   */\n              mstore\n                /* \"#utility.yul\":9530:9539   */\n              0x62616c616e636500000000000000000000000000000000000000000000000000\n                /* \"#utility.yul\":9510:9528   */\n              0x64\n              dup3\n              add\n                /* \"#utility.yul\":9503:9540   */\n              mstore\n                /* \"#utility.yul\":9557:9576   */\n              0x84\n              add\n                /* \"contracts/SmartchefFactory.sol\":33597:33661  require(balance != 0, \"Operations: Cannot recover zero balance\") */\n              tag_144\n                /* \"#utility.yul\":9179:9582   */\n              jump\n                /* \"contracts/SmartchefFactory.sol\":33597:33661  require(balance != 0, \"Operations: Cannot recover zero balance\") */\n            tag_236:\n                /* \"contracts/SmartchefFactory.sol\":33674:33739  IERC20Metadata(_token).safeTransfer(address(msg.sender), balance) */\n              tag_239\n                /* \"contracts/SmartchefFactory.sol\":33674:33709  IERC20Metadata(_token).safeTransfer */\n              0xffffffffffffffffffffffffffffffffffffffff\n              dup4\n              and\n                /* \"contracts/SmartchefFactory.sol\":33718:33728  msg.sender */\n              caller\n                /* \"contracts/SmartchefFactory.sol\":33731:33738  balance */\n              dup4\n                /* \"contracts/SmartchefFactory.sol\":33674:33709  IERC20Metadata(_token).safeTransfer */\n              tag_240\n                /* \"contracts/SmartchefFactory.sol\":33674:33739  IERC20Metadata(_token).safeTransfer(address(msg.sender), balance) */\n              jump\t// in\n            tag_239:\n                /* \"contracts/SmartchefFactory.sol\":33771:33777  _token */\n              dup2\n                /* \"contracts/SmartchefFactory.sol\":33757:33787  TokenRecovery(_token, balance) */\n              0xffffffffffffffffffffffffffffffffffffffff\n              and\n              0x14f11966a996e0629572e51064726d2057a80fbd34efc066682c06a71dbb6e98\n                /* \"contracts/SmartchefFactory.sol\":33779:33786  balance */\n              dup3\n                /* \"contracts/SmartchefFactory.sol\":33757:33787  TokenRecovery(_token, balance) */\n              mload(0x40)\n              tag_241\n              swap2\n                /* \"#utility.yul\":1009:1034   */\n              dup2\n              mstore\n                /* \"#utility.yul\":997:999   */\n              0x20\n                /* \"#utility.yul\":982:1000   */\n              add\n              swap1\n                /* \"#utility.yul\":863:1040   */\n              jump\n                /* \"contracts/SmartchefFactory.sol\":33757:33787  TokenRecovery(_token, balance) */\n            tag_241:\n              mload(0x40)\n              dup1\n              swap2\n              sub\n              swap1\n              log2\n                /* \"contracts/SmartchefFactory.sol\":33307:33795  {... */\n              pop\n                /* \"contracts/SmartchefFactory.sol\":33250:33795  function recoverToken(address _token) external onlyOwner {... */\n              pop\n              jump\t// out\n                /* \"contracts/SmartchefFactory.sol\":34196:34656  function updatePoolLimitPerUser(bool _userLimit, uint256 _poolLimitPerUser) external onlyOwner {... */\n            tag_110:\n                /* \"contracts/SmartchefFactory.sol\":24873:24886  _checkOwner() */\n              tag_243\n                /* \"contracts/SmartchefFactory.sol\":24873:24884  _checkOwner */\n              tag_141\n                /* \"contracts/SmartchefFactory.sol\":24873:24886  _checkOwner() */\n              jump\t// in\n            tag_243:\n                /* \"contracts/SmartchefFactory.sol\":34310:34319  userLimit */\n              and(0xff, sload(0x02))\n                /* \"contracts/SmartchefFactory.sol\":34302:34335  require(userLimit, \"Must be set\") */\n              tag_245\n              jumpi\n              mload(0x40)\n              0x08c379a000000000000000000000000000000000000000000000000000000000\n              dup2\n              mstore\n                /* \"#utility.yul\":9789:9791   */\n              0x20\n                /* \"contracts/SmartchefFactory.sol\":34302:34335  require(userLimit, \"Must be set\") */\n              0x04\n              dup3\n              add\n                /* \"#utility.yul\":9771:9792   */\n              mstore\n                /* \"#utility.yul\":9828:9830   */\n              0x0b\n                /* \"#utility.yul\":9808:9826   */\n              0x24\n              dup3\n              add\n                /* \"#utility.yul\":9801:9831   */\n              mstore\n                /* \"#utility.yul\":9867:9880   */\n              0x4d75737420626520736574000000000000000000000000000000000000000000\n                /* \"#utility.yul\":9847:9865   */\n              0x44\n              dup3\n              add\n                /* \"#utility.yul\":9840:9881   */\n              mstore\n                /* \"#utility.yul\":9898:9916   */\n              0x64\n              add\n                /* \"contracts/SmartchefFactory.sol\":34302:34335  require(userLimit, \"Must be set\") */\n              tag_144\n                /* \"#utility.yul\":9587:9922   */\n              jump\n                /* \"contracts/SmartchefFactory.sol\":34302:34335  require(userLimit, \"Must be set\") */\n            tag_245:\n                /* \"contracts/SmartchefFactory.sol\":34350:34360  _userLimit */\n              dup2\n                /* \"contracts/SmartchefFactory.sol\":34346:34603  if (_userLimit) {... */\n              iszero\n              tag_248\n              jumpi\n                /* \"contracts/SmartchefFactory.sol\":34405:34421  poolLimitPerUser */\n              sload(0x07)\n                /* \"contracts/SmartchefFactory.sol\":34385:34402  _poolLimitPerUser */\n              dup2\n                /* \"contracts/SmartchefFactory.sol\":34385:34421  _poolLimitPerUser > poolLimitPerUser */\n              gt\n                /* \"contracts/SmartchefFactory.sol\":34377:34450  require(_poolLimitPerUser > poolLimitPerUser, \"New limit must be higher\") */\n              tag_249\n              jumpi\n              mload(0x40)\n              0x08c379a000000000000000000000000000000000000000000000000000000000\n              dup2\n              mstore\n                /* \"#utility.yul\":10129:10131   */\n              0x20\n                /* \"contracts/SmartchefFactory.sol\":34377:34450  require(_poolLimitPerUser > poolLimitPerUser, \"New limit must be higher\") */\n              0x04\n              dup3\n              add\n                /* \"#utility.yul\":10111:10132   */\n              mstore\n                /* \"#utility.yul\":10168:10170   */\n              0x18\n                /* \"#utility.yul\":10148:10166   */\n              0x24\n              dup3\n              add\n                /* \"#utility.yul\":10141:10171   */\n              mstore\n                /* \"#utility.yul\":10207:10233   */\n              0x4e6577206c696d6974206d757374206265206869676865720000000000000000\n                /* \"#utility.yul\":10187:10205   */\n              0x44\n              dup3\n              add\n                /* \"#utility.yul\":10180:10234   */\n              mstore\n                /* \"#utility.yul\":10251:10269   */\n              0x64\n              add\n                /* \"contracts/SmartchefFactory.sol\":34377:34450  require(_poolLimitPerUser > poolLimitPerUser, \"New limit must be higher\") */\n              tag_144\n                /* \"#utility.yul\":9927:10275   */\n              jump\n                /* \"contracts/SmartchefFactory.sol\":34377:34450  require(_poolLimitPerUser > poolLimitPerUser, \"New limit must be higher\") */\n            tag_249:\n                /* \"contracts/SmartchefFactory.sol\":34465:34481  poolLimitPerUser */\n              0x07\n                /* \"contracts/SmartchefFactory.sol\":34465:34501  poolLimitPerUser = _poolLimitPerUser */\n              dup2\n              swap1\n              sstore\n                /* \"contracts/SmartchefFactory.sol\":34346:34603  if (_userLimit) {... */\n              jump(tag_252)\n            tag_248:\n                /* \"contracts/SmartchefFactory.sol\":34534:34543  userLimit */\n              0x02\n                /* \"contracts/SmartchefFactory.sol\":34534:34556  userLimit = _userLimit */\n              dup1\n              sload\n              0xffffffffffffffffffffffffffffffffffffffffffffffffffffffffffffff00\n              and\n              dup4\n              iszero\n              iszero\n              or\n              swap1\n              sstore\n              0x00\n                /* \"contracts/SmartchefFactory.sol\":34571:34587  poolLimitPerUser */\n              0x07\n                /* \"contracts/SmartchefFactory.sol\":34571:34591  poolLimitPerUser = 0 */\n              sstore\n                /* \"contracts/SmartchefFactory.sol\":34346:34603  if (_userLimit) {... */\n            tag_252:\n                /* \"contracts/SmartchefFactory.sol\":34618:34648  NewPoolLimit(poolLimitPerUser) */\n              0x241f67ee5f41b7a5cabf911367329be7215900f602ebfc47f89dce2a6bcd847c\n                /* \"contracts/SmartchefFactory.sol\":34631:34647  poolLimitPerUser */\n              sload(0x07)\n                /* \"contracts/SmartchefFactory.sol\":34618:34648  NewPoolLimit(poolLimitPerUser) */\n              mload(0x40)\n              tag_222\n              swap2\n                /* \"#utility.yul\":1009:1034   */\n              dup2\n              mstore\n                /* \"#utility.yul\":997:999   */\n              0x20\n                /* \"#utility.yul\":982:1000   */\n              add\n              swap1\n                /* \"#utility.yul\":863:1040   */\n              jump\n                /* \"contracts/SmartchefFactory.sol\":30719:31497  function deposit(uint256 _amount) external nonReentrant {... */\n            tag_116:\n                /* \"contracts/SmartchefFactory.sol\":14140:14161  _nonReentrantBefore() */\n              tag_255\n                /* \"contracts/SmartchefFactory.sol\":14140:14159  _nonReentrantBefore */\n              tag_169\n                /* \"contracts/SmartchefFactory.sol\":14140:14161  _nonReentrantBefore() */\n              jump\t// in\n            tag_255:\n                /* \"contracts/SmartchefFactory.sol\":30819:30829  msg.sender */\n              caller\n                /* \"contracts/SmartchefFactory.sol\":30786:30807  UserInfo storage user */\n              0x00\n                /* \"contracts/SmartchefFactory.sol\":30810:30830  userInfo[msg.sender] */\n              swap1\n              dup2\n              mstore\n                /* \"contracts/SmartchefFactory.sol\":30810:30818  userInfo */\n              0x0e\n                /* \"contracts/SmartchefFactory.sol\":30810:30830  userInfo[msg.sender] */\n              0x20\n              mstore\n              0x40\n              swap1\n              keccak256\n                /* \"contracts/SmartchefFactory.sol\":30855:30869  hasUserLimit() */\n              tag_257\n                /* \"contracts/SmartchefFactory.sol\":30855:30867  hasUserLimit */\n              tag_95\n                /* \"contracts/SmartchefFactory.sol\":30855:30869  hasUserLimit() */\n              jump\t// in\n            tag_257:\n                /* \"contracts/SmartchefFactory.sol\":30843:30852  userLimit */\n              0x02\n                /* \"contracts/SmartchefFactory.sol\":30843:30869  userLimit = hasUserLimit() */\n              dup1\n              sload\n              0xffffffffffffffffffffffffffffffffffffffffffffffffffffffffffffff00\n              and\n              swap2\n              iszero\n              iszero\n              swap2\n              dup3\n              or\n              swap1\n              sstore\n              0xff\n                /* \"contracts/SmartchefFactory.sol\":30891:30900  userLimit */\n              and\n                /* \"contracts/SmartchefFactory.sol\":30890:30900  !userLimit */\n              iszero\n              dup1\n                /* \"contracts/SmartchefFactory.sol\":30890:30949  !userLimit || ((_amount + user.amount) <= poolLimitPerUser) */\n              tag_258\n              jumpi\n              pop\n                /* \"contracts/SmartchefFactory.sol\":30932:30948  poolLimitPerUser */\n              sload(0x07)\n                /* \"contracts/SmartchefFactory.sol\":30916:30927  user.amount */\n              dup2\n              sload\n                /* \"contracts/SmartchefFactory.sol\":30906:30927  _amount + user.amount */\n              tag_259\n              swap1\n                /* \"contracts/SmartchefFactory.sol\":30906:30913  _amount */\n              dup5\n                /* \"contracts/SmartchefFactory.sol\":30906:30927  _amount + user.amount */\n              tag_209\n              jump\t// in\n            tag_259:\n                /* \"contracts/SmartchefFactory.sol\":30905:30948  (_amount + user.amount) <= poolLimitPerUser */\n              gt\n              iszero\n                /* \"contracts/SmartchefFactory.sol\":30890:30949  !userLimit || ((_amount + user.amount) <= poolLimitPerUser) */\n            tag_258:\n                /* \"contracts/SmartchefFactory.sol\":30882:30981  require(!userLimit || ((_amount + user.amount) <= poolLimitPerUser), \"Deposit: Amount above limit\") */\n              tag_260\n              jumpi\n              mload(0x40)\n              0x08c379a000000000000000000000000000000000000000000000000000000000\n              dup2\n              mstore\n                /* \"#utility.yul\":10482:10484   */\n              0x20\n                /* \"contracts/SmartchefFactory.sol\":30882:30981  require(!userLimit || ((_amount + user.amount) <= poolLimitPerUser), \"Deposit: Amount above limit\") */\n              0x04\n              dup3\n              add\n                /* \"#utility.yul\":10464:10485   */\n              mstore\n                /* \"#utility.yul\":10521:10523   */\n              0x1b\n                /* \"#utility.yul\":10501:10519   */\n              0x24\n              dup3\n              add\n                /* \"#utility.yul\":10494:10524   */\n              mstore\n                /* \"#utility.yul\":10560:10589   */\n              0x4465706f7369743a20416d6f756e742061626f7665206c696d69740000000000\n                /* \"#utility.yul\":10540:10558   */\n              0x44\n              dup3\n              add\n                /* \"#utility.yul\":10533:10590   */\n              mstore\n                /* \"#utility.yul\":10607:10625   */\n              0x64\n              add\n                /* \"contracts/SmartchefFactory.sol\":30882:30981  require(!userLimit || ((_amount + user.amount) <= poolLimitPerUser), \"Deposit: Amount above limit\") */\n              tag_144\n                /* \"#utility.yul\":10280:10631   */\n              jump\n                /* \"contracts/SmartchefFactory.sol\":30882:30981  require(!userLimit || ((_amount + user.amount) <= poolLimitPerUser), \"Deposit: Amount above limit\") */\n            tag_260:\n                /* \"contracts/SmartchefFactory.sol\":30994:31007  _updatePool() */\n              tag_263\n                /* \"contracts/SmartchefFactory.sol\":30994:31005  _updatePool */\n              tag_175\n                /* \"contracts/SmartchefFactory.sol\":30994:31007  _updatePool() */\n              jump\t// in\n            tag_263:\n                /* \"contracts/SmartchefFactory.sol\":31024:31035  user.amount */\n              dup1\n              sload\n                /* \"contracts/SmartchefFactory.sol\":31024:31039  user.amount > 0 */\n              iszero\n                /* \"contracts/SmartchefFactory.sol\":31020:31250  if (user.amount > 0) {... */\n              tag_264\n              jumpi\n                /* \"contracts/SmartchefFactory.sol\":31056:31071  uint256 pending */\n              0x00\n                /* \"contracts/SmartchefFactory.sol\":31128:31132  user */\n              dup2\n                /* \"contracts/SmartchefFactory.sol\":31128:31143  user.rewardDebt */\n              0x01\n              add\n              sload\n                /* \"contracts/SmartchefFactory.sol\":31109:31125  PRECISION_FACTOR */\n              sload(0x0a)\n                /* \"contracts/SmartchefFactory.sol\":31089:31105  accTokenPerShare */\n              sload(0x03)\n                /* \"contracts/SmartchefFactory.sol\":31075:31079  user */\n              dup5\n                /* \"contracts/SmartchefFactory.sol\":31075:31086  user.amount */\n              0x00\n              add\n              sload\n                /* \"contracts/SmartchefFactory.sol\":31075:31105  user.amount * accTokenPerShare */\n              tag_265\n              swap2\n              swap1\n              tag_177\n              jump\t// in\n            tag_265:\n                /* \"contracts/SmartchefFactory.sol\":31074:31125  (user.amount * accTokenPerShare) / PRECISION_FACTOR */\n              tag_266\n              swap2\n              swap1\n              tag_179\n              jump\t// in\n            tag_266:\n                /* \"contracts/SmartchefFactory.sol\":31074:31143  (user.amount * accTokenPerShare) / PRECISION_FACTOR - user.rewardDebt */\n              tag_267\n              swap2\n              swap1\n              tag_163\n              jump\t// in\n            tag_267:\n                /* \"contracts/SmartchefFactory.sol\":31056:31143  uint256 pending = (user.amount * accTokenPerShare) / PRECISION_FACTOR - user.rewardDebt */\n              swap1\n              pop\n                /* \"contracts/SmartchefFactory.sol\":31162:31173  pending > 0 */\n              dup1\n              iszero\n                /* \"contracts/SmartchefFactory.sol\":31158:31239  if (pending > 0) {... */\n              tag_269\n              jumpi\n                /* \"contracts/SmartchefFactory.sol\":31194:31223  _withdrawRewardToken(pending) */\n              tag_269\n                /* \"contracts/SmartchefFactory.sol\":31215:31222  pending */\n              dup2\n                /* \"contracts/SmartchefFactory.sol\":31194:31214  _withdrawRewardToken */\n              tag_187\n                /* \"contracts/SmartchefFactory.sol\":31194:31223  _withdrawRewardToken(pending) */\n              jump\t// in\n            tag_269:\n                /* \"contracts/SmartchefFactory.sol\":31041:31250  {... */\n              pop\n                /* \"contracts/SmartchefFactory.sol\":31020:31250  if (user.amount > 0) {... */\n            tag_264:\n                /* \"contracts/SmartchefFactory.sol\":31266:31277  _amount > 0 */\n              dup2\n              iszero\n                /* \"contracts/SmartchefFactory.sol\":31262:31362  if (_amount > 0) {... */\n              tag_270\n              jumpi\n                /* \"contracts/SmartchefFactory.sol\":31322:31350  _depositStakedToken(_amount) */\n              tag_271\n                /* \"contracts/SmartchefFactory.sol\":31342:31349  _amount */\n              dup3\n                /* \"contracts/SmartchefFactory.sol\":31322:31341  _depositStakedToken */\n              tag_272\n                /* \"contracts/SmartchefFactory.sol\":31322:31350  _depositStakedToken(_amount) */\n              jump\t// in\n            tag_271:\n                /* \"contracts/SmartchefFactory.sol\":31308:31319  user.amount */\n              dup2\n              sload\n                /* \"contracts/SmartchefFactory.sol\":31308:31350  user.amount + _depositStakedToken(_amount) */\n              tag_273\n              swap2\n              swap1\n              tag_209\n              jump\t// in\n            tag_273:\n                /* \"contracts/SmartchefFactory.sol\":31294:31350  user.amount = user.amount + _depositStakedToken(_amount) */\n              dup2\n              sstore\n                /* \"contracts/SmartchefFactory.sol\":31262:31362  if (_amount > 0) {... */\n            tag_270:\n                /* \"contracts/SmartchefFactory.sol\":31427:31443  PRECISION_FACTOR */\n              sload(0x0a)\n                /* \"contracts/SmartchefFactory.sol\":31407:31423  accTokenPerShare */\n              sload(0x03)\n                /* \"contracts/SmartchefFactory.sol\":31393:31404  user.amount */\n              dup3\n              sload\n                /* \"contracts/SmartchefFactory.sol\":31393:31423  user.amount * accTokenPerShare */\n              tag_274\n              swap2\n                /* \"contracts/SmartchefFactory.sol\":31407:31423  accTokenPerShare */\n              swap1\n                /* \"contracts/SmartchefFactory.sol\":31393:31423  user.amount * accTokenPerShare */\n              tag_177\n              jump\t// in\n            tag_274:\n                /* \"contracts/SmartchefFactory.sol\":31392:31443  (user.amount * accTokenPerShare) / PRECISION_FACTOR */\n              tag_275\n              swap2\n              swap1\n              tag_179\n              jump\t// in\n            tag_275:\n                /* \"contracts/SmartchefFactory.sol\":31374:31389  user.rewardDebt */\n              0x01\n              dup3\n              add\n                /* \"contracts/SmartchefFactory.sol\":31374:31443  user.rewardDebt = (user.amount * accTokenPerShare) / PRECISION_FACTOR */\n              sstore\n                /* \"contracts/SmartchefFactory.sol\":31461:31489  Deposit(msg.sender, _amount) */\n              mload(0x40)\n                /* \"#utility.yul\":1009:1034   */\n              dup3\n              dup2\n              mstore\n                /* \"contracts/SmartchefFactory.sol\":31469:31479  msg.sender */\n              caller\n              swap1\n                /* \"contracts/SmartchefFactory.sol\":31461:31489  Deposit(msg.sender, _amount) */\n              0xe1fffcc4923d04b559f4d29a8bfc6cda04eb5b0d3c460751c2402c5c5cc9109c\n              swap1\n                /* \"#utility.yul\":997:999   */\n              0x20\n                /* \"#utility.yul\":982:1000   */\n              add\n                /* \"contracts/SmartchefFactory.sol\":31461:31489  Deposit(msg.sender, _amount) */\n              mload(0x40)\n              dup1\n              swap2\n              sub\n              swap1\n              log2\n                /* \"contracts/SmartchefFactory.sol\":30775:31497  {... */\n              pop\n                /* \"contracts/SmartchefFactory.sol\":14184:14204  _nonReentrantAfter() */\n              tag_191\n                /* \"contracts/SmartchefFactory.sol\":13578:13579  1 */\n              0x01\n                /* \"contracts/SmartchefFactory.sol\":14704:14726  _status = _NOT_ENTERED */\n              dup1\n              sstore\n                /* \"contracts/SmartchefFactory.sol\":14521:14734  function _nonReentrantAfter() private {... */\n              jump\n                /* \"contracts/SmartchefFactory.sol\":32456:32838  function emergencyWithdraw() external nonReentrant {... */\n            tag_128:\n                /* \"contracts/SmartchefFactory.sol\":14140:14161  _nonReentrantBefore() */\n              tag_279\n                /* \"contracts/SmartchefFactory.sol\":14140:14159  _nonReentrantBefore */\n              tag_169\n                /* \"contracts/SmartchefFactory.sol\":14140:14161  _nonReentrantBefore() */\n              jump\t// in\n            tag_279:\n                /* \"contracts/SmartchefFactory.sol\":32551:32561  msg.sender */\n              caller\n                /* \"contracts/SmartchefFactory.sol\":32518:32539  UserInfo storage user */\n              0x00\n                /* \"contracts/SmartchefFactory.sol\":32542:32562  userInfo[msg.sender] */\n              swap1\n              dup2\n              mstore\n                /* \"contracts/SmartchefFactory.sol\":32542:32550  userInfo */\n              0x0e\n                /* \"contracts/SmartchefFactory.sol\":32542:32562  userInfo[msg.sender] */\n              0x20\n              mstore\n              0x40\n              dup2\n              keccak256\n                /* \"contracts/SmartchefFactory.sol\":32600:32611  user.amount */\n              dup1\n              sload\n                /* \"contracts/SmartchefFactory.sol\":32622:32637  user.amount = 0 */\n              dup3\n              dup3\n              sstore\n              0x01\n                /* \"contracts/SmartchefFactory.sol\":32648:32663  user.rewardDebt */\n              dup3\n              add\n                /* \"contracts/SmartchefFactory.sol\":32648:32667  user.rewardDebt = 0 */\n              swap3\n              swap1\n              swap3\n              sstore\n                /* \"contracts/SmartchefFactory.sol\":32542:32562  userInfo[msg.sender] */\n              swap1\n                /* \"contracts/SmartchefFactory.sol\":32684:32704  amountToTransfer > 0 */\n              dup1\n              iszero\n                /* \"contracts/SmartchefFactory.sol\":32680:32771  if (amountToTransfer > 0) {... */\n              tag_282\n              jumpi\n                /* \"contracts/SmartchefFactory.sol\":32721:32759  _withdrawStakedToken(amountToTransfer) */\n              tag_282\n                /* \"contracts/SmartchefFactory.sol\":32742:32758  amountToTransfer */\n              dup2\n                /* \"contracts/SmartchefFactory.sol\":32721:32741  _withdrawStakedToken */\n              tag_184\n                /* \"contracts/SmartchefFactory.sol\":32721:32759  _withdrawStakedToken(amountToTransfer) */\n              jump\t// in\n            tag_282:\n                /* \"contracts/SmartchefFactory.sol\":32818:32829  user.amount */\n              dup2\n              sload\n                /* \"contracts/SmartchefFactory.sol\":32788:32830  EmergencyWithdraw(msg.sender, user.amount) */\n              mload(0x40)\n                /* \"#utility.yul\":1009:1034   */\n              swap1\n              dup2\n              mstore\n                /* \"contracts/SmartchefFactory.sol\":32806:32816  msg.sender */\n              caller\n              swap1\n                /* \"contracts/SmartchefFactory.sol\":32788:32830  EmergencyWithdraw(msg.sender, user.amount) */\n              0x5fafa99d0643513820be26656b45130b01e1c03062e1266bf36f88cbd3bd9695\n              swap1\n                /* \"#utility.yul\":997:999   */\n              0x20\n                /* \"#utility.yul\":982:1000   */\n              add\n                /* \"contracts/SmartchefFactory.sol\":32788:32830  EmergencyWithdraw(msg.sender, user.amount) */\n              mload(0x40)\n              dup1\n              swap2\n              sub\n              swap1\n              log2\n                /* \"contracts/SmartchefFactory.sol\":32507:32838  {... */\n              pop\n              pop\n                /* \"contracts/SmartchefFactory.sol\":14184:14204  _nonReentrantAfter() */\n              tag_200\n                /* \"contracts/SmartchefFactory.sol\":13578:13579  1 */\n              0x01\n                /* \"contracts/SmartchefFactory.sol\":14704:14726  _status = _NOT_ENTERED */\n              dup1\n              sstore\n                /* \"contracts/SmartchefFactory.sol\":14521:14734  function _nonReentrantAfter() private {... */\n              jump\n                /* \"contracts/SmartchefFactory.sol\":25893:26094  function transferOwnership(address newOwner) public virtual onlyOwner {... */\n            tag_131:\n                /* \"contracts/SmartchefFactory.sol\":24873:24886  _checkOwner() */\n              tag_286\n                /* \"contracts/SmartchefFactory.sol\":24873:24884  _checkOwner */\n              tag_141\n                /* \"contracts/SmartchefFactory.sol\":24873:24886  _checkOwner() */\n              jump\t// in\n            tag_286:\n                /* \"contracts/SmartchefFactory.sol\":25982:26004  newOwner != address(0) */\n              0xffffffffffffffffffffffffffffffffffffffff\n              dup2\n              and\n                /* \"contracts/SmartchefFactory.sol\":25974:26047  require(newOwner != address(0), \"Ownable: new owner is the zero address\") */\n              tag_288\n              jumpi\n              mload(0x40)\n              0x08c379a000000000000000000000000000000000000000000000000000000000\n              dup2\n              mstore\n                /* \"#utility.yul\":10838:10840   */\n              0x20\n                /* \"contracts/SmartchefFactory.sol\":25974:26047  require(newOwner != address(0), \"Ownable: new owner is the zero address\") */\n              0x04\n              dup3\n              add\n                /* \"#utility.yul\":10820:10841   */\n              mstore\n                /* \"#utility.yul\":10877:10879   */\n              0x26\n                /* \"#utility.yul\":10857:10875   */\n              0x24\n              dup3\n              add\n                /* \"#utility.yul\":10850:10880   */\n              mstore\n                /* \"#utility.yul\":10916:10950   */\n              0x4f776e61626c653a206e6577206f776e657220697320746865207a65726f2061\n                /* \"#utility.yul\":10896:10914   */\n              0x44\n              dup3\n              add\n                /* \"#utility.yul\":10889:10951   */\n              mstore\n                /* \"#utility.yul\":10987:10995   */\n              0x6464726573730000000000000000000000000000000000000000000000000000\n                /* \"#utility.yul\":10967:10985   */\n              0x64\n              dup3\n              add\n                /* \"#utility.yul\":10960:10996   */\n              mstore\n                /* \"#utility.yul\":11013:11032   */\n              0x84\n              add\n                /* \"contracts/SmartchefFactory.sol\":25974:26047  require(newOwner != address(0), \"Ownable: new owner is the zero address\") */\n              tag_144\n                /* \"#utility.yul\":10636:11038   */\n              jump\n                /* \"contracts/SmartchefFactory.sol\":25974:26047  require(newOwner != address(0), \"Ownable: new owner is the zero address\") */\n            tag_288:\n                /* \"contracts/SmartchefFactory.sol\":26058:26086  _transferOwnership(newOwner) */\n              tag_191\n                /* \"contracts/SmartchefFactory.sol\":26077:26085  newOwner */\n              dup2\n                /* \"contracts/SmartchefFactory.sol\":26058:26076  _transferOwnership */\n              tag_201\n                /* \"contracts/SmartchefFactory.sol\":26058:26086  _transferOwnership(newOwner) */\n              jump\t// in\n                /* \"contracts/SmartchefFactory.sol\":36074:36752  function pendingReward(address _user) external view returns (uint256) {... */\n            tag_134:\n                /* \"contracts/SmartchefFactory.sol\":36179:36194  userInfo[_user] */\n              0xffffffffffffffffffffffffffffffffffffffff\n              dup2\n              and\n                /* \"contracts/SmartchefFactory.sol\":36135:36142  uint256 */\n              0x00\n                /* \"contracts/SmartchefFactory.sol\":36179:36194  userInfo[_user] */\n              swap1\n              dup2\n              mstore\n                /* \"contracts/SmartchefFactory.sol\":36179:36187  userInfo */\n              0x0e\n                /* \"contracts/SmartchefFactory.sol\":36179:36194  userInfo[_user] */\n              0x20\n              mstore\n              0x40\n              dup2\n              keccak256\n                /* \"contracts/SmartchefFactory.sol\":36224:36239  lastRewardBlock */\n              sload(0x06)\n                /* \"contracts/SmartchefFactory.sol\":36209:36221  block.number */\n              number\n                /* \"contracts/SmartchefFactory.sol\":36209:36239  block.number > lastRewardBlock */\n              gt\n                /* \"contracts/SmartchefFactory.sol\":36209:36265  block.number > lastRewardBlock && stakedTokenAmount != 0 */\n              dup1\n              iszero\n              tag_293\n              jumpi\n              pop\n                /* \"contracts/SmartchefFactory.sol\":36243:36260  stakedTokenAmount */\n              sload(0x0d)\n                /* \"contracts/SmartchefFactory.sol\":36243:36265  stakedTokenAmount != 0 */\n              iszero\n              iszero\n                /* \"contracts/SmartchefFactory.sol\":36209:36265  block.number > lastRewardBlock && stakedTokenAmount != 0 */\n            tag_293:\n                /* \"contracts/SmartchefFactory.sol\":36205:36745  if (block.number > lastRewardBlock && stakedTokenAmount != 0) {... */\n              iszero\n              tag_294\n              jumpi\n                /* \"contracts/SmartchefFactory.sol\":36282:36300  uint256 multiplier */\n              0x00\n                /* \"contracts/SmartchefFactory.sol\":36303:36348  _getMultiplier(lastRewardBlock, block.number) */\n              tag_295\n                /* \"contracts/SmartchefFactory.sol\":36318:36333  lastRewardBlock */\n              sload(0x06)\n                /* \"contracts/SmartchefFactory.sol\":36335:36347  block.number */\n              number\n                /* \"contracts/SmartchefFactory.sol\":36303:36317  _getMultiplier */\n              tag_296\n                /* \"contracts/SmartchefFactory.sol\":36303:36348  _getMultiplier(lastRewardBlock, block.number) */\n              jump\t// in\n            tag_295:\n                /* \"contracts/SmartchefFactory.sol\":36282:36348  uint256 multiplier = _getMultiplier(lastRewardBlock, block.number) */\n              swap1\n              pop\n                /* \"contracts/SmartchefFactory.sol\":36363:36381  uint256 cakeReward */\n              0x00\n                /* \"contracts/SmartchefFactory.sol\":36397:36411  rewardPerBlock */\n              sload(0x09)\n                /* \"contracts/SmartchefFactory.sol\":36384:36394  multiplier */\n              dup3\n                /* \"contracts/SmartchefFactory.sol\":36384:36411  multiplier * rewardPerBlock */\n              tag_297\n              swap2\n              swap1\n              tag_177\n              jump\t// in\n            tag_297:\n                /* \"contracts/SmartchefFactory.sol\":36363:36411  uint256 cakeReward = multiplier * rewardPerBlock */\n              swap1\n              pop\n                /* \"contracts/SmartchefFactory.sol\":36426:36455  uint256 adjustedTokenPerShare */\n              0x00\n                /* \"contracts/SmartchefFactory.sol\":36511:36528  stakedTokenAmount */\n              sload(0x0d)\n                /* \"contracts/SmartchefFactory.sol\":36491:36507  PRECISION_FACTOR */\n              sload(0x0a)\n                /* \"contracts/SmartchefFactory.sol\":36478:36488  cakeReward */\n              dup4\n                /* \"contracts/SmartchefFactory.sol\":36478:36507  cakeReward * PRECISION_FACTOR */\n              tag_298\n              swap2\n              swap1\n              tag_177\n              jump\t// in\n            tag_298:\n                /* \"contracts/SmartchefFactory.sol\":36477:36528  (cakeReward * PRECISION_FACTOR) / stakedTokenAmount */\n              tag_299\n              swap2\n              swap1\n              tag_179\n              jump\t// in\n            tag_299:\n                /* \"contracts/SmartchefFactory.sol\":36458:36474  accTokenPerShare */\n              sload(0x03)\n                /* \"contracts/SmartchefFactory.sol\":36458:36528  accTokenPerShare + (cakeReward * PRECISION_FACTOR) / stakedTokenAmount */\n              tag_300\n              swap2\n              swap1\n              tag_209\n              jump\t// in\n            tag_300:\n                /* \"contracts/SmartchefFactory.sol\":36426:36528  uint256 adjustedTokenPerShare = accTokenPerShare + (cakeReward * PRECISION_FACTOR) / stakedTokenAmount */\n              swap1\n              pop\n                /* \"contracts/SmartchefFactory.sol\":36609:36613  user */\n              dup4\n                /* \"contracts/SmartchefFactory.sol\":36609:36624  user.rewardDebt */\n              0x01\n              add\n              sload\n                /* \"contracts/SmartchefFactory.sol\":36590:36606  PRECISION_FACTOR */\n              sload(0x0a)\n                /* \"contracts/SmartchefFactory.sol\":36565:36586  adjustedTokenPerShare */\n              dup3\n                /* \"contracts/SmartchefFactory.sol\":36551:36555  user */\n              dup7\n                /* \"contracts/SmartchefFactory.sol\":36551:36562  user.amount */\n              0x00\n              add\n              sload\n                /* \"contracts/SmartchefFactory.sol\":36551:36586  user.amount * adjustedTokenPerShare */\n              tag_301\n              swap2\n              swap1\n              tag_177\n              jump\t// in\n            tag_301:\n                /* \"contracts/SmartchefFactory.sol\":36550:36606  (user.amount * adjustedTokenPerShare) / PRECISION_FACTOR */\n              tag_302\n              swap2\n              swap1\n              tag_179\n              jump\t// in\n            tag_302:\n                /* \"contracts/SmartchefFactory.sol\":36550:36624  (user.amount * adjustedTokenPerShare) / PRECISION_FACTOR - user.rewardDebt */\n              tag_303\n              swap2\n              swap1\n              tag_163\n              jump\t// in\n            tag_303:\n                /* \"contracts/SmartchefFactory.sol\":36543:36624  return (user.amount * adjustedTokenPerShare) / PRECISION_FACTOR - user.rewardDebt */\n              swap7\n                /* \"contracts/SmartchefFactory.sol\":36074:36752  function pendingReward(address _user) external view returns (uint256) {... */\n              swap6\n              pop\n              pop\n              pop\n              pop\n              pop\n              pop\n              jump\t// out\n                /* \"contracts/SmartchefFactory.sol\":36205:36745  if (block.number > lastRewardBlock && stakedTokenAmount != 0) {... */\n            tag_294:\n                /* \"contracts/SmartchefFactory.sol\":36718:36733  user.rewardDebt */\n              0x01\n              dup2\n              add\n              sload\n                /* \"contracts/SmartchefFactory.sol\":36699:36715  PRECISION_FACTOR */\n              sload(0x0a)\n                /* \"contracts/SmartchefFactory.sol\":36679:36695  accTokenPerShare */\n              sload(0x03)\n                /* \"contracts/SmartchefFactory.sol\":36665:36676  user.amount */\n              dup4\n              sload\n                /* \"contracts/SmartchefFactory.sol\":36665:36695  user.amount * accTokenPerShare */\n              tag_305\n              swap2\n                /* \"contracts/SmartchefFactory.sol\":36679:36695  accTokenPerShare */\n              swap1\n                /* \"contracts/SmartchefFactory.sol\":36665:36695  user.amount * accTokenPerShare */\n              tag_177\n              jump\t// in\n            tag_305:\n                /* \"contracts/SmartchefFactory.sol\":36664:36715  (user.amount * accTokenPerShare) / PRECISION_FACTOR */\n              tag_306\n              swap2\n              swap1\n              tag_179\n              jump\t// in\n            tag_306:\n                /* \"contracts/SmartchefFactory.sol\":36664:36733  (user.amount * accTokenPerShare) / PRECISION_FACTOR - user.rewardDebt */\n              tag_307\n              swap2\n              swap1\n              tag_163\n              jump\t// in\n            tag_307:\n                /* \"contracts/SmartchefFactory.sol\":36657:36733  return (user.amount * accTokenPerShare) / PRECISION_FACTOR - user.rewardDebt */\n              swap4\n                /* \"contracts/SmartchefFactory.sol\":36074:36752  function pendingReward(address _user) external view returns (uint256) {... */\n              swap3\n              pop\n              pop\n              pop\n              jump\t// out\n                /* \"contracts/SmartchefFactory.sol\":25152:25284  function _checkOwner() internal view virtual {... */\n            tag_141:\n                /* \"contracts/SmartchefFactory.sol\":25033:25040  address */\n              0x00\n                /* \"contracts/SmartchefFactory.sol\":25060:25066  _owner */\n              sload\n                /* \"contracts/SmartchefFactory.sol\":25216:25239  owner() == _msgSender() */\n              0xffffffffffffffffffffffffffffffffffffffff\n                /* \"contracts/SmartchefFactory.sol\":25060:25066  _owner */\n              and\n                /* \"contracts/SmartchefFactory.sol\":23618:23628  msg.sender */\n              caller\n                /* \"contracts/SmartchefFactory.sol\":25216:25239  owner() == _msgSender() */\n              eq\n                /* \"contracts/SmartchefFactory.sol\":25208:25276  require(owner() == _msgSender(), \"Ownable: caller is not the owner\") */\n              tag_200\n              jumpi\n              mload(0x40)\n              0x08c379a000000000000000000000000000000000000000000000000000000000\n              dup2\n              mstore\n                /* \"#utility.yul\":11245:11247   */\n              0x20\n                /* \"contracts/SmartchefFactory.sol\":25208:25276  require(owner() == _msgSender(), \"Ownable: caller is not the owner\") */\n              0x04\n              dup3\n              add\n                /* \"#utility.yul\":11227:11248   */\n              dup2\n              swap1\n              mstore\n                /* \"#utility.yul\":11264:11282   */\n              0x24\n              dup3\n              add\n                /* \"#utility.yul\":11257:11287   */\n              mstore\n                /* \"#utility.yul\":11323:11357   */\n              0x4f776e61626c653a2063616c6c6572206973206e6f7420746865206f776e6572\n                /* \"#utility.yul\":11303:11321   */\n              0x44\n              dup3\n              add\n                /* \"#utility.yul\":11296:11358   */\n              mstore\n                /* \"#utility.yul\":11375:11393   */\n              0x64\n              add\n                /* \"contracts/SmartchefFactory.sol\":25208:25276  require(owner() == _msgSender(), \"Ownable: caller is not the owner\") */\n              tag_144\n                /* \"#utility.yul\":11043:11399   */\n              jump\n                /* \"contracts/SmartchefFactory.sol\":14220:14513  function _nonReentrantBefore() private {... */\n            tag_169:\n                /* \"contracts/SmartchefFactory.sol\":13622:13623  2 */\n              0x02\n                /* \"contracts/SmartchefFactory.sol\":14354:14361  _status */\n              sload(0x01)\n                /* \"contracts/SmartchefFactory.sol\":14354:14373  _status != _ENTERED */\n              sub\n                /* \"contracts/SmartchefFactory.sol\":14346:14409  require(_status != _ENTERED, \"ReentrancyGuard: reentrant call\") */\n              tag_316\n              jumpi\n              mload(0x40)\n              0x08c379a000000000000000000000000000000000000000000000000000000000\n              dup2\n              mstore\n                /* \"#utility.yul\":11606:11608   */\n              0x20\n                /* \"contracts/SmartchefFactory.sol\":14346:14409  require(_status != _ENTERED, \"ReentrancyGuard: reentrant call\") */\n              0x04\n              dup3\n              add\n                /* \"#utility.yul\":11588:11609   */\n              mstore\n                /* \"#utility.yul\":11645:11647   */\n              0x1f\n                /* \"#utility.yul\":11625:11643   */\n              0x24\n              dup3\n              add\n                /* \"#utility.yul\":11618:11648   */\n              mstore\n                /* \"#utility.yul\":11684:11717   */\n              0x5265656e7472616e637947756172643a207265656e7472616e742063616c6c00\n                /* \"#utility.yul\":11664:11682   */\n              0x44\n              dup3\n              add\n                /* \"#utility.yul\":11657:11718   */\n              mstore\n                /* \"#utility.yul\":11735:11753   */\n              0x64\n              add\n                /* \"contracts/SmartchefFactory.sol\":14346:14409  require(_status != _ENTERED, \"ReentrancyGuard: reentrant call\") */\n              tag_144\n                /* \"#utility.yul\":11404:11759   */\n              jump\n                /* \"contracts/SmartchefFactory.sol\":14346:14409  require(_status != _ENTERED, \"ReentrancyGuard: reentrant call\") */\n            tag_316:\n                /* \"contracts/SmartchefFactory.sol\":13622:13623  2 */\n              0x02\n                /* \"contracts/SmartchefFactory.sol\":14487:14494  _status */\n              0x01\n                /* \"contracts/SmartchefFactory.sol\":14487:14505  _status = _ENTERED */\n              sstore\n                /* \"contracts/SmartchefFactory.sol\":14220:14513  function _nonReentrantBefore() private {... */\n              jump\t// out\n                /* \"contracts/SmartchefFactory.sol\":37726:38243  function _updatePool() internal {... */\n            tag_175:\n                /* \"contracts/SmartchefFactory.sol\":37789:37804  lastRewardBlock */\n              sload(0x06)\n                /* \"contracts/SmartchefFactory.sol\":37773:37785  block.number */\n              number\n                /* \"contracts/SmartchefFactory.sol\":37773:37804  block.number <= lastRewardBlock */\n              gt\n                /* \"contracts/SmartchefFactory.sol\":37769:37839  if (block.number <= lastRewardBlock) {... */\n              tag_320\n              jumpi\n                /* \"contracts/SmartchefFactory.sol\":37726:38243  function _updatePool() internal {... */\n              jump\t// out\n                /* \"contracts/SmartchefFactory.sol\":37769:37839  if (block.number <= lastRewardBlock) {... */\n            tag_320:\n                /* \"contracts/SmartchefFactory.sol\":37855:37872  stakedTokenAmount */\n              sload(0x0d)\n                /* \"contracts/SmartchefFactory.sol\":37876:37877  0 */\n              0x00\n                /* \"contracts/SmartchefFactory.sol\":37855:37877  stakedTokenAmount == 0 */\n              sub\n                /* \"contracts/SmartchefFactory.sol\":37851:37957  if (stakedTokenAmount == 0) {... */\n              tag_321\n              jumpi\n                /* \"contracts/SmartchefFactory.sol\":37912:37924  block.number */\n              number\n                /* \"contracts/SmartchefFactory.sol\":37894:37909  lastRewardBlock */\n              0x06\n                /* \"contracts/SmartchefFactory.sol\":37894:37924  lastRewardBlock = block.number */\n              sstore\n                /* \"contracts/SmartchefFactory.sol\":37726:38243  function _updatePool() internal {... */\n              jump\t// out\n                /* \"contracts/SmartchefFactory.sol\":37851:37957  if (stakedTokenAmount == 0) {... */\n            tag_321:\n                /* \"contracts/SmartchefFactory.sol\":37969:37987  uint256 multiplier */\n              0x00\n                /* \"contracts/SmartchefFactory.sol\":37990:38035  _getMultiplier(lastRewardBlock, block.number) */\n              tag_322\n                /* \"contracts/SmartchefFactory.sol\":38005:38020  lastRewardBlock */\n              sload(0x06)\n                /* \"contracts/SmartchefFactory.sol\":38022:38034  block.number */\n              number\n                /* \"contracts/SmartchefFactory.sol\":37990:38004  _getMultiplier */\n              tag_296\n                /* \"contracts/SmartchefFactory.sol\":37990:38035  _getMultiplier(lastRewardBlock, block.number) */\n              jump\t// in\n            tag_322:\n                /* \"contracts/SmartchefFactory.sol\":37969:38035  uint256 multiplier = _getMultiplier(lastRewardBlock, block.number) */\n              swap1\n              pop\n                /* \"contracts/SmartchefFactory.sol\":38046:38064  uint256 cakeReward */\n              0x00\n                /* \"contracts/SmartchefFactory.sol\":38080:38094  rewardPerBlock */\n              sload(0x09)\n                /* \"contracts/SmartchefFactory.sol\":38067:38077  multiplier */\n              dup3\n                /* \"contracts/SmartchefFactory.sol\":38067:38094  multiplier * rewardPerBlock */\n              tag_323\n              swap2\n              swap1\n              tag_177\n              jump\t// in\n            tag_323:\n                /* \"contracts/SmartchefFactory.sol\":38046:38094  uint256 cakeReward = multiplier * rewardPerBlock */\n              swap1\n              pop\n                /* \"contracts/SmartchefFactory.sol\":38177:38194  stakedTokenAmount */\n              sload(0x0d)\n                /* \"contracts/SmartchefFactory.sol\":38157:38173  PRECISION_FACTOR */\n              sload(0x0a)\n                /* \"contracts/SmartchefFactory.sol\":38144:38154  cakeReward */\n              dup3\n                /* \"contracts/SmartchefFactory.sol\":38144:38173  cakeReward * PRECISION_FACTOR */\n              tag_324\n              swap2\n              swap1\n              tag_177\n              jump\t// in\n            tag_324:\n                /* \"contracts/SmartchefFactory.sol\":38143:38194  (cakeReward * PRECISION_FACTOR) / stakedTokenAmount */\n              tag_325\n              swap2\n              swap1\n              tag_179\n              jump\t// in\n            tag_325:\n                /* \"contracts/SmartchefFactory.sol\":38124:38140  accTokenPerShare */\n              sload(0x03)\n                /* \"contracts/SmartchefFactory.sol\":38124:38194  accTokenPerShare + (cakeReward * PRECISION_FACTOR) / stakedTokenAmount */\n              tag_326\n              swap2\n              swap1\n              tag_209\n              jump\t// in\n            tag_326:\n                /* \"contracts/SmartchefFactory.sol\":38105:38121  accTokenPerShare */\n              0x03\n                /* \"contracts/SmartchefFactory.sol\":38105:38194  accTokenPerShare = accTokenPerShare + (cakeReward * PRECISION_FACTOR) / stakedTokenAmount */\n              sstore\n              pop\n              pop\n                /* \"contracts/SmartchefFactory.sol\":38223:38235  block.number */\n              number\n                /* \"contracts/SmartchefFactory.sol\":38205:38220  lastRewardBlock */\n              0x06\n                /* \"contracts/SmartchefFactory.sol\":38205:38235  lastRewardBlock = block.number */\n              sstore\n                /* \"contracts/SmartchefFactory.sol\":37726:38243  function _updatePool() internal {... */\n              jump\t// out\n                /* \"contracts/SmartchefFactory.sol\":37149:37336  function _withdrawStakedToken(uint256 _amount) internal {... */\n            tag_184:\n                /* \"contracts/SmartchefFactory.sol\":37256:37263  _amount */\n              dup1\n                /* \"contracts/SmartchefFactory.sol\":37236:37253  stakedTokenAmount */\n              sload(0x0d)\n                /* \"contracts/SmartchefFactory.sol\":37236:37263  stakedTokenAmount - _amount */\n              tag_328\n              swap2\n              swap1\n              tag_163\n              jump\t// in\n            tag_328:\n                /* \"contracts/SmartchefFactory.sol\":37216:37233  stakedTokenAmount */\n              0x0d\n                /* \"contracts/SmartchefFactory.sol\":37216:37263  stakedTokenAmount = stakedTokenAmount - _amount */\n              sstore\n                /* \"contracts/SmartchefFactory.sol\":37274:37285  stakedToken */\n              sload(0x0c)\n                /* \"contracts/SmartchefFactory.sol\":37274:37328  stakedToken.safeTransfer(address(msg.sender), _amount) */\n              tag_191\n              swap1\n                /* \"contracts/SmartchefFactory.sol\":37274:37285  stakedToken */\n              0xffffffffffffffffffffffffffffffffffffffff\n              and\n                /* \"contracts/SmartchefFactory.sol\":37307:37317  msg.sender */\n              caller\n                /* \"contracts/SmartchefFactory.sol\":37320:37327  _amount */\n              dup4\n                /* \"contracts/SmartchefFactory.sol\":37274:37298  stakedToken.safeTransfer */\n              tag_240\n                /* \"contracts/SmartchefFactory.sol\":37274:37328  stakedToken.safeTransfer(address(msg.sender), _amount) */\n              jump\t// in\n                /* \"contracts/SmartchefFactory.sol\":37344:37625  function _withdrawRewardToken(uint256 _amount) internal {... */\n            tag_187:\n                /* \"contracts/SmartchefFactory.sol\":37411:37422  rewardToken */\n              sload(0x0b)\n                /* \"contracts/SmartchefFactory.sol\":37411:37465  rewardToken.safeTransfer(address(msg.sender), _amount) */\n              tag_331\n              swap1\n                /* \"contracts/SmartchefFactory.sol\":37411:37422  rewardToken */\n              0xffffffffffffffffffffffffffffffffffffffff\n              and\n                /* \"contracts/SmartchefFactory.sol\":37444:37454  msg.sender */\n              caller\n                /* \"contracts/SmartchefFactory.sol\":37457:37464  _amount */\n              dup4\n                /* \"contracts/SmartchefFactory.sol\":37411:37435  rewardToken.safeTransfer */\n              tag_240\n                /* \"contracts/SmartchefFactory.sol\":37411:37465  rewardToken.safeTransfer(address(msg.sender), _amount) */\n              jump\t// in\n            tag_331:\n                /* \"contracts/SmartchefFactory.sol\":37495:37506  stakedToken */\n              sload(0x0c)\n                /* \"contracts/SmartchefFactory.sol\":37480:37491  rewardToken */\n              sload(0x0b)\n                /* \"contracts/SmartchefFactory.sol\":37495:37506  stakedToken */\n              0xffffffffffffffffffffffffffffffffffffffff\n              swap2\n              dup3\n              and\n                /* \"contracts/SmartchefFactory.sol\":37480:37491  rewardToken */\n              swap2\n              and\n                /* \"contracts/SmartchefFactory.sol\":37480:37506  rewardToken == stakedToken */\n              sub\n                /* \"contracts/SmartchefFactory.sol\":37476:37618  if (rewardToken == stakedToken) {... */\n              tag_191\n              jumpi\n                /* \"contracts/SmartchefFactory.sol\":37571:37588  stakedTokenAmount */\n              sload(0x0d)\n                /* \"contracts/SmartchefFactory.sol\":37531:37542  stakedToken */\n              sload(0x0c)\n                /* \"contracts/SmartchefFactory.sol\":37531:37567  stakedToken.balanceOf(address(this)) */\n              mload(0x40)\n              0x70a0823100000000000000000000000000000000000000000000000000000000\n              dup2\n              mstore\n                /* \"contracts/SmartchefFactory.sol\":37561:37565  this */\n              address\n                /* \"contracts/SmartchefFactory.sol\":37531:37567  stakedToken.balanceOf(address(this)) */\n              0x04\n              dup3\n              add\n                /* \"#utility.yul\":2306:2380   */\n              mstore\n                /* \"contracts/SmartchefFactory.sol\":37531:37542  stakedToken */\n              0xffffffffffffffffffffffffffffffffffffffff\n              swap1\n              swap2\n              and\n              swap1\n                /* \"contracts/SmartchefFactory.sol\":37531:37552  stakedToken.balanceOf */\n              0x70a08231\n              swap1\n                /* \"#utility.yul\":2279:2297   */\n              0x24\n              add\n                /* \"contracts/SmartchefFactory.sol\":37531:37567  stakedToken.balanceOf(address(this)) */\n              0x20\n              mload(0x40)\n              dup1\n              dup4\n              sub\n              dup2\n              dup7\n              gas\n              staticcall\n              iszero\n              dup1\n              iszero\n              tag_335\n              jumpi\n              returndatasize\n              0x00\n              dup1\n              returndatacopy\n              revert(0x00, returndatasize)\n            tag_335:\n              pop\n              pop\n              pop\n              pop\n              mload(0x40)\n              returndatasize\n              not(0x1f)\n              0x1f\n              dup3\n              add\n              and\n              dup3\n              add\n              dup1\n              0x40\n              mstore\n              pop\n              dup2\n              add\n              swap1\n              tag_336\n              swap2\n              swap1\n              tag_233\n              jump\t// in\n            tag_336:\n                /* \"contracts/SmartchefFactory.sol\":37531:37588  stakedToken.balanceOf(address(this)) >= stakedTokenAmount */\n              lt\n              iszero\n                /* \"contracts/SmartchefFactory.sol\":37523:37606  require(stakedToken.balanceOf(address(this)) >= stakedTokenAmount, \"rewards empty\") */\n              tag_191\n              jumpi\n              mload(0x40)\n              0x08c379a000000000000000000000000000000000000000000000000000000000\n              dup2\n              mstore\n                /* \"#utility.yul\":11966:11968   */\n              0x20\n                /* \"contracts/SmartchefFactory.sol\":37523:37606  require(stakedToken.balanceOf(address(this)) >= stakedTokenAmount, \"rewards empty\") */\n              0x04\n              dup3\n              add\n                /* \"#utility.yul\":11948:11969   */\n              mstore\n                /* \"#utility.yul\":12005:12007   */\n              0x0d\n                /* \"#utility.yul\":11985:12003   */\n              0x24\n              dup3\n              add\n                /* \"#utility.yul\":11978:12008   */\n              mstore\n                /* \"#utility.yul\":12044:12059   */\n              0x7265776172647320656d70747900000000000000000000000000000000000000\n                /* \"#utility.yul\":12024:12042   */\n              0x44\n              dup3\n              add\n                /* \"#utility.yul\":12017:12060   */\n              mstore\n                /* \"#utility.yul\":12077:12095   */\n              0x64\n              add\n                /* \"contracts/SmartchefFactory.sol\":37523:37606  require(stakedToken.balanceOf(address(this)) >= stakedTokenAmount, \"rewards empty\") */\n              tag_144\n                /* \"#utility.yul\":11764:12101   */\n              jump\n                /* \"contracts/SmartchefFactory.sol\":26254:26445  function _transferOwnership(address newOwner) internal virtual {... */\n            tag_201:\n                /* \"contracts/SmartchefFactory.sol\":26328:26344  address oldOwner */\n              0x00\n                /* \"contracts/SmartchefFactory.sol\":26347:26353  _owner */\n              dup1\n              sload\n              0xffffffffffffffffffffffffffffffffffffffff\n                /* \"contracts/SmartchefFactory.sol\":26364:26381  _owner = newOwner */\n              dup4\n              dup2\n              and\n              0xffffffffffffffffffffffff0000000000000000000000000000000000000000\n              dup4\n              and\n              dup2\n              or\n              dup5\n              sstore\n                /* \"contracts/SmartchefFactory.sol\":26397:26437  OwnershipTransferred(oldOwner, newOwner) */\n              mload(0x40)\n                /* \"contracts/SmartchefFactory.sol\":26347:26353  _owner */\n              swap2\n              swap1\n              swap3\n              and\n              swap3\n              dup4\n              swap2\n                /* \"contracts/SmartchefFactory.sol\":26397:26437  OwnershipTransferred(oldOwner, newOwner) */\n              0x8be0079c531659141344cd1fd0a4f28419497f9722a3daafe3b4186f6b6457e0\n              swap2\n                /* \"contracts/SmartchefFactory.sol\":26328:26344  address oldOwner */\n              swap1\n                /* \"contracts/SmartchefFactory.sol\":26397:26437  OwnershipTransferred(oldOwner, newOwner) */\n              log3\n                /* \"contracts/SmartchefFactory.sol\":26317:26445  {... */\n              pop\n                /* \"contracts/SmartchefFactory.sol\":26254:26445  function _transferOwnership(address newOwner) internal virtual {... */\n              pop\n              jump\t// out\n                /* \"contracts/SmartchefFactory.sol\":18334:18545  function safeTransfer(... */\n            tag_240:\n                /* \"contracts/SmartchefFactory.sol\":18478:18536  abi.encodeWithSelector(token.transfer.selector, to, value) */\n              mload(0x40)\n                /* \"#utility.yul\":12310:12352   */\n              0xffffffffffffffffffffffffffffffffffffffff\n                /* \"#utility.yul\":12298:12353   */\n              dup4\n              and\n                /* \"contracts/SmartchefFactory.sol\":18478:18536  abi.encodeWithSelector(token.transfer.selector, to, value) */\n              0x24\n              dup3\n              add\n                /* \"#utility.yul\":12280:12354   */\n              mstore\n                /* \"#utility.yul\":12370:12388   */\n              0x44\n              dup2\n              add\n                /* \"#utility.yul\":12363:12397   */\n              dup3\n              swap1\n              mstore\n                /* \"contracts/SmartchefFactory.sol\":18451:18537  _callOptionalReturn(token, abi.encodeWithSelector(token.transfer.selector, to, value)) */\n              tag_343\n              swap1\n                /* \"contracts/SmartchefFactory.sol\":18471:18476  token */\n              dup5\n              swap1\n                /* \"contracts/SmartchefFactory.sol\":18501:18524  token.transfer.selector */\n              0xa9059cbb00000000000000000000000000000000000000000000000000000000\n              swap1\n                /* \"#utility.yul\":12253:12271   */\n              0x64\n              add\n                /* \"contracts/SmartchefFactory.sol\":18478:18536  abi.encodeWithSelector(token.transfer.selector, to, value) */\n            tag_344:\n              0x40\n              dup1\n              mload\n              0xffffffffffffffffffffffffffffffffffffffffffffffffffffffffffffffe0\n              dup2\n              dup5\n              sub\n              add\n              dup2\n              mstore\n              swap2\n              swap1\n              mstore\n              0x20\n              dup2\n              add\n              dup1\n              mload\n              0xffffffffffffffffffffffffffffffffffffffffffffffffffffffff\n              and\n              0xffffffff00000000000000000000000000000000000000000000000000000000\n              swap1\n              swap4\n              and\n              swap3\n              swap1\n              swap3\n              or\n              swap1\n              swap2\n              mstore\n                /* \"contracts/SmartchefFactory.sol\":18451:18470  _callOptionalReturn */\n              tag_346\n                /* \"contracts/SmartchefFactory.sol\":18451:18537  _callOptionalReturn(token, abi.encodeWithSelector(token.transfer.selector, to, value)) */\n              jump\t// in\n            tag_343:\n                /* \"contracts/SmartchefFactory.sol\":18334:18545  function safeTransfer(... */\n              pop\n              pop\n              pop\n              jump\t// out\n                /* \"contracts/SmartchefFactory.sol\":36760:37141  function _depositStakedToken(uint256 _amount) internal returns (uint256 _received) {... */\n            tag_272:\n                /* \"contracts/SmartchefFactory.sol\":36878:36889  stakedToken */\n              sload(0x0c)\n                /* \"contracts/SmartchefFactory.sol\":36878:36914  stakedToken.balanceOf(address(this)) */\n              mload(0x40)\n              0x70a0823100000000000000000000000000000000000000000000000000000000\n              dup2\n              mstore\n                /* \"contracts/SmartchefFactory.sol\":36908:36912  this */\n              address\n                /* \"contracts/SmartchefFactory.sol\":36878:36914  stakedToken.balanceOf(address(this)) */\n              0x04\n              dup3\n              add\n                /* \"#utility.yul\":2306:2380   */\n              mstore\n                /* \"contracts/SmartchefFactory.sol\":36824:36841  uint256 _received */\n              0x00\n              swap2\n              dup3\n              swap2\n                /* \"contracts/SmartchefFactory.sol\":36878:36889  stakedToken */\n              0xffffffffffffffffffffffffffffffffffffffff\n              swap1\n              swap2\n              and\n              swap1\n                /* \"contracts/SmartchefFactory.sol\":36878:36899  stakedToken.balanceOf */\n              0x70a08231\n              swap1\n                /* \"#utility.yul\":2279:2297   */\n              0x24\n              add\n                /* \"contracts/SmartchefFactory.sol\":36878:36914  stakedToken.balanceOf(address(this)) */\n              0x20\n              mload(0x40)\n              dup1\n              dup4\n              sub\n              dup2\n              dup7\n              gas\n              staticcall\n              iszero\n              dup1\n              iszero\n              tag_350\n              jumpi\n              returndatasize\n              0x00\n              dup1\n              returndatacopy\n              revert(0x00, returndatasize)\n            tag_350:\n              pop\n              pop\n              pop\n              pop\n              mload(0x40)\n              returndatasize\n              not(0x1f)\n              0x1f\n              dup3\n              add\n              and\n              dup3\n              add\n              dup1\n              0x40\n              mstore\n              pop\n              dup2\n              add\n              swap1\n              tag_351\n              swap2\n              swap1\n              tag_233\n              jump\t// in\n            tag_351:\n                /* \"contracts/SmartchefFactory.sol\":36925:36936  stakedToken */\n              sload(0x0c)\n                /* \"contracts/SmartchefFactory.sol\":36854:36914  uint256 balanceBefore = stakedToken.balanceOf(address(this)) */\n              swap1\n              swap2\n              pop\n                /* \"contracts/SmartchefFactory.sol\":36925:36998  stakedToken.safeTransferFrom(address(msg.sender), address(this), _amount) */\n              tag_352\n              swap1\n                /* \"contracts/SmartchefFactory.sol\":36925:36936  stakedToken */\n              0xffffffffffffffffffffffffffffffffffffffff\n              and\n                /* \"contracts/SmartchefFactory.sol\":36962:36972  msg.sender */\n              caller\n                /* \"contracts/SmartchefFactory.sol\":36983:36987  this */\n              address\n                /* \"contracts/SmartchefFactory.sol\":36990:36997  _amount */\n              dup7\n                /* \"contracts/SmartchefFactory.sol\":36925:36953  stakedToken.safeTransferFrom */\n              tag_353\n                /* \"contracts/SmartchefFactory.sol\":36925:36998  stakedToken.safeTransferFrom(address(msg.sender), address(this), _amount) */\n              jump\t// in\n            tag_352:\n                /* \"contracts/SmartchefFactory.sol\":37021:37032  stakedToken */\n              sload(0x0c)\n                /* \"contracts/SmartchefFactory.sol\":37021:37057  stakedToken.balanceOf(address(this)) */\n              mload(0x40)\n              0x70a0823100000000000000000000000000000000000000000000000000000000\n              dup2\n              mstore\n                /* \"contracts/SmartchefFactory.sol\":37051:37055  this */\n              address\n                /* \"contracts/SmartchefFactory.sol\":37021:37057  stakedToken.balanceOf(address(this)) */\n              0x04\n              dup3\n              add\n                /* \"#utility.yul\":2306:2380   */\n              mstore\n                /* \"contracts/SmartchefFactory.sol\":37060:37073  balanceBefore */\n              dup3\n              swap2\n                /* \"contracts/SmartchefFactory.sol\":37021:37032  stakedToken */\n              0xffffffffffffffffffffffffffffffffffffffff\n              and\n              swap1\n                /* \"contracts/SmartchefFactory.sol\":37021:37042  stakedToken.balanceOf */\n              0x70a08231\n              swap1\n                /* \"#utility.yul\":2279:2297   */\n              0x24\n              add\n                /* \"contracts/SmartchefFactory.sol\":37021:37057  stakedToken.balanceOf(address(this)) */\n              0x20\n              mload(0x40)\n              dup1\n              dup4\n              sub\n              dup2\n              dup7\n              gas\n              staticcall\n              iszero\n              dup1\n              iszero\n              tag_356\n              jumpi\n              returndatasize\n              0x00\n              dup1\n              returndatacopy\n              revert(0x00, returndatasize)\n            tag_356:\n              pop\n              pop\n              pop\n              pop\n              mload(0x40)\n              returndatasize\n              not(0x1f)\n              0x1f\n              dup3\n              add\n              and\n              dup3\n              add\n              dup1\n              0x40\n              mstore\n              pop\n              dup2\n              add\n              swap1\n              tag_357\n              swap2\n              swap1\n              tag_233\n              jump\t// in\n            tag_357:\n                /* \"contracts/SmartchefFactory.sol\":37021:37073  stakedToken.balanceOf(address(this)) - balanceBefore */\n              tag_358\n              swap2\n              swap1\n              tag_163\n              jump\t// in\n            tag_358:\n                /* \"contracts/SmartchefFactory.sol\":37009:37073  _received = stakedToken.balanceOf(address(this)) - balanceBefore */\n              swap2\n              pop\n                /* \"contracts/SmartchefFactory.sol\":37124:37133  _received */\n              dup2\n                /* \"contracts/SmartchefFactory.sol\":37104:37121  stakedTokenAmount */\n              sload(0x0d)\n                /* \"contracts/SmartchefFactory.sol\":37104:37133  stakedTokenAmount + _received */\n              tag_359\n              swap2\n              swap1\n              tag_209\n              jump\t// in\n            tag_359:\n                /* \"contracts/SmartchefFactory.sol\":37084:37101  stakedTokenAmount */\n              0x0d\n                /* \"contracts/SmartchefFactory.sol\":37084:37133  stakedTokenAmount = stakedTokenAmount + _received */\n              sstore\n              pop\n                /* \"contracts/SmartchefFactory.sol\":36760:37141  function _depositStakedToken(uint256 _amount) internal returns (uint256 _received) {... */\n              swap2\n              swap1\n              pop\n              jump\t// out\n                /* \"contracts/SmartchefFactory.sol\":38417:38720  function _getMultiplier(uint256 _from, uint256 _to) internal view returns (uint256) {... */\n            tag_296:\n                /* \"contracts/SmartchefFactory.sol\":38492:38499  uint256 */\n              0x00\n                /* \"contracts/SmartchefFactory.sol\":38523:38536  bonusEndBlock */\n              sload(0x04)\n                /* \"contracts/SmartchefFactory.sol\":38516:38519  _to */\n              dup3\n                /* \"contracts/SmartchefFactory.sol\":38516:38536  _to <= bonusEndBlock */\n              gt\n                /* \"contracts/SmartchefFactory.sol\":38512:38713  if (_to <= bonusEndBlock) {... */\n              tag_361\n              jumpi\n                /* \"contracts/SmartchefFactory.sol\":38560:38571  _to - _from */\n              tag_362\n                /* \"contracts/SmartchefFactory.sol\":38566:38571  _from */\n              dup4\n                /* \"contracts/SmartchefFactory.sol\":38560:38563  _to */\n              dup4\n                /* \"contracts/SmartchefFactory.sol\":38560:38571  _to - _from */\n              tag_163\n              jump\t// in\n            tag_362:\n                /* \"contracts/SmartchefFactory.sol\":38553:38571  return _to - _from */\n              swap1\n              pop\n              jump(tag_365)\n                /* \"contracts/SmartchefFactory.sol\":38512:38713  if (_to <= bonusEndBlock) {... */\n            tag_361:\n                /* \"contracts/SmartchefFactory.sol\":38602:38615  bonusEndBlock */\n              sload(0x04)\n                /* \"contracts/SmartchefFactory.sol\":38593:38598  _from */\n              dup4\n                /* \"contracts/SmartchefFactory.sol\":38593:38615  _from >= bonusEndBlock */\n              lt\n                /* \"contracts/SmartchefFactory.sol\":38589:38713  if (_from >= bonusEndBlock) {... */\n              tag_364\n              jumpi\n              pop\n                /* \"contracts/SmartchefFactory.sol\":38639:38640  0 */\n              0x00\n                /* \"contracts/SmartchefFactory.sol\":38632:38640  return 0 */\n              jump(tag_365)\n                /* \"contracts/SmartchefFactory.sol\":38589:38713  if (_from >= bonusEndBlock) {... */\n            tag_364:\n                /* \"contracts/SmartchefFactory.sol\":38696:38701  _from */\n              dup3\n                /* \"contracts/SmartchefFactory.sol\":38680:38693  bonusEndBlock */\n              sload(0x04)\n                /* \"contracts/SmartchefFactory.sol\":38680:38701  bonusEndBlock - _from */\n              tag_362\n              swap2\n              swap1\n              tag_163\n              jump\t// in\n                /* \"contracts/SmartchefFactory.sol\":38589:38713  if (_from >= bonusEndBlock) {... */\n            tag_365:\n                /* \"contracts/SmartchefFactory.sol\":38417:38720  function _getMultiplier(uint256 _from, uint256 _to) internal view returns (uint256) {... */\n              swap3\n              swap2\n              pop\n              pop\n              jump\t// out\n                /* \"contracts/SmartchefFactory.sol\":21401:22117  function _callOptionalReturn(IERC20 token, bytes memory data) private {... */\n            tag_346:\n                /* \"contracts/SmartchefFactory.sol\":21825:21848  bytes memory returndata */\n              0x00\n                /* \"contracts/SmartchefFactory.sol\":21851:21920  address(token).functionCall(data, \"SafeERC20: low-level call failed\") */\n              tag_369\n                /* \"contracts/SmartchefFactory.sol\":21879:21883  data */\n              dup3\n                /* \"contracts/SmartchefFactory.sol\":21851:21920  address(token).functionCall(data, \"SafeERC20: low-level call failed\") */\n              mload(0x40)\n              dup1\n              0x40\n              add\n              0x40\n              mstore\n              dup1\n              0x20\n              dup2\n              mstore\n              0x20\n              add\n              0x5361666545524332303a206c6f772d6c6576656c2063616c6c206661696c6564\n              dup2\n              mstore\n              pop\n                /* \"contracts/SmartchefFactory.sol\":21859:21864  token */\n              dup6\n                /* \"contracts/SmartchefFactory.sol\":21851:21878  address(token).functionCall */\n              0xffffffffffffffffffffffffffffffffffffffff\n              and\n              tag_370\n              swap1\n                /* \"contracts/SmartchefFactory.sol\":21851:21920  address(token).functionCall(data, \"SafeERC20: low-level call failed\") */\n              swap3\n              swap2\n              swap1\n              0xffffffff\n              and\n              jump\t// in\n            tag_369:\n                /* \"contracts/SmartchefFactory.sol\":21935:21952  returndata.length */\n              dup1\n              mload\n                /* \"contracts/SmartchefFactory.sol\":21825:21920  bytes memory returndata = address(token).functionCall(data, \"SafeERC20: low-level call failed\") */\n              swap1\n              swap2\n              pop\n                /* \"contracts/SmartchefFactory.sol\":21935:21956  returndata.length > 0 */\n              iszero\n                /* \"contracts/SmartchefFactory.sol\":21931:22110  if (returndata.length > 0) {... */\n              tag_343\n              jumpi\n                /* \"contracts/SmartchefFactory.sol\":22032:22042  returndata */\n              dup1\n                /* \"contracts/SmartchefFactory.sol\":22021:22051  abi.decode(returndata, (bool)) */\n              dup1\n              0x20\n              add\n              swap1\n              mload\n              dup2\n              add\n              swap1\n              tag_372\n              swap2\n              swap1\n              tag_373\n              jump\t// in\n            tag_372:\n                /* \"contracts/SmartchefFactory.sol\":22013:22098  require(abi.decode(returndata, (bool)), \"SafeERC20: ERC20 operation did not succeed\") */\n              tag_343\n              jumpi\n              mload(0x40)\n              0x08c379a000000000000000000000000000000000000000000000000000000000\n              dup2\n              mstore\n                /* \"#utility.yul\":12860:12862   */\n              0x20\n                /* \"contracts/SmartchefFactory.sol\":22013:22098  require(abi.decode(returndata, (bool)), \"SafeERC20: ERC20 operation did not succeed\") */\n              0x04\n              dup3\n              add\n                /* \"#utility.yul\":12842:12863   */\n              mstore\n                /* \"#utility.yul\":12899:12901   */\n              0x2a\n                /* \"#utility.yul\":12879:12897   */\n              0x24\n              dup3\n              add\n                /* \"#utility.yul\":12872:12902   */\n              mstore\n                /* \"#utility.yul\":12938:12972   */\n              0x5361666545524332303a204552433230206f7065726174696f6e20646964206e\n                /* \"#utility.yul\":12918:12936   */\n              0x44\n              dup3\n              add\n                /* \"#utility.yul\":12911:12973   */\n              mstore\n                /* \"#utility.yul\":13009:13021   */\n              0x6f74207375636365656400000000000000000000000000000000000000000000\n                /* \"#utility.yul\":12989:13007   */\n              0x64\n              dup3\n              add\n                /* \"#utility.yul\":12982:13022   */\n              mstore\n                /* \"#utility.yul\":13039:13058   */\n              0x84\n              add\n                /* \"contracts/SmartchefFactory.sol\":22013:22098  require(abi.decode(returndata, (bool)), \"SafeERC20: ERC20 operation did not succeed\") */\n              tag_144\n                /* \"#utility.yul\":12658:13064   */\n              jump\n                /* \"contracts/SmartchefFactory.sol\":18553:18801  function safeTransferFrom(... */\n            tag_353:\n                /* \"contracts/SmartchefFactory.sol\":18724:18792  abi.encodeWithSelector(token.transferFrom.selector, from, to, value) */\n              mload(0x40)\n                /* \"#utility.yul\":13281:13323   */\n              0xffffffffffffffffffffffffffffffffffffffff\n                /* \"#utility.yul\":13350:13365   */\n              dup1\n              dup6\n              and\n                /* \"contracts/SmartchefFactory.sol\":18724:18792  abi.encodeWithSelector(token.transferFrom.selector, from, to, value) */\n              0x24\n              dup4\n              add\n                /* \"#utility.yul\":13332:13366   */\n              mstore\n                /* \"#utility.yul\":13402:13417   */\n              dup4\n              and\n                /* \"#utility.yul\":13382:13400   */\n              0x44\n              dup3\n              add\n                /* \"#utility.yul\":13375:13418   */\n              mstore\n                /* \"#utility.yul\":13434:13452   */\n              0x64\n              dup2\n              add\n                /* \"#utility.yul\":13427:13461   */\n              dup3\n              swap1\n              mstore\n                /* \"contracts/SmartchefFactory.sol\":18697:18793  _callOptionalReturn(token, abi.encodeWithSelector(token.transferFrom.selector, from, to, value)) */\n              tag_378\n              swap1\n                /* \"contracts/SmartchefFactory.sol\":18717:18722  token */\n              dup6\n              swap1\n                /* \"contracts/SmartchefFactory.sol\":18747:18774  token.transferFrom.selector */\n              0x23b872dd00000000000000000000000000000000000000000000000000000000\n              swap1\n                /* \"#utility.yul\":13244:13262   */\n              0x84\n              add\n                /* \"contracts/SmartchefFactory.sol\":18724:18792  abi.encodeWithSelector(token.transferFrom.selector, from, to, value) */\n              tag_344\n                /* \"#utility.yul\":13069:13467   */\n              jump\n                /* \"contracts/SmartchefFactory.sol\":18697:18793  _callOptionalReturn(token, abi.encodeWithSelector(token.transferFrom.selector, from, to, value)) */\n            tag_378:\n                /* \"contracts/SmartchefFactory.sol\":18553:18801  function safeTransferFrom(... */\n              pop\n              pop\n              pop\n              pop\n              jump\t// out\n                /* \"contracts/SmartchefFactory.sol\":3992:4221  function functionCall(... */\n            tag_370:\n                /* \"contracts/SmartchefFactory.sol\":4129:4141  bytes memory */\n              0x60\n                /* \"contracts/SmartchefFactory.sol\":4161:4213  functionCallWithValue(target, data, 0, errorMessage) */\n              tag_382\n                /* \"contracts/SmartchefFactory.sol\":4183:4189  target */\n              dup5\n                /* \"contracts/SmartchefFactory.sol\":4191:4195  data */\n              dup5\n                /* \"contracts/SmartchefFactory.sol\":4197:4198  0 */\n              0x00\n                /* \"contracts/SmartchefFactory.sol\":4200:4212  errorMessage */\n              dup6\n                /* \"contracts/SmartchefFactory.sol\":4161:4182  functionCallWithValue */\n              tag_383\n                /* \"contracts/SmartchefFactory.sol\":4161:4213  functionCallWithValue(target, data, 0, errorMessage) */\n              jump\t// in\n            tag_382:\n                /* \"contracts/SmartchefFactory.sol\":4154:4213  return functionCallWithValue(target, data, 0, errorMessage) */\n              swap5\n                /* \"contracts/SmartchefFactory.sol\":3992:4221  function functionCall(... */\n              swap4\n              pop\n              pop\n              pop\n              pop\n              jump\t// out\n                /* \"contracts/SmartchefFactory.sol\":5112:5567  function functionCallWithValue(... */\n            tag_383:\n                /* \"contracts/SmartchefFactory.sol\":5282:5294  bytes memory */\n              0x60\n                /* \"contracts/SmartchefFactory.sol\":5340:5345  value */\n              dup3\n                /* \"contracts/SmartchefFactory.sol\":5315:5336  address(this).balance */\n              selfbalance\n                /* \"contracts/SmartchefFactory.sol\":5315:5345  address(this).balance >= value */\n              lt\n              iszero\n                /* \"contracts/SmartchefFactory.sol\":5307:5388  require(address(this).balance >= value, \"Address: insufficient balance for call\") */\n              tag_385\n              jumpi\n              mload(0x40)\n              0x08c379a000000000000000000000000000000000000000000000000000000000\n              dup2\n              mstore\n                /* \"#utility.yul\":13674:13676   */\n              0x20\n                /* \"contracts/SmartchefFactory.sol\":5307:5388  require(address(this).balance >= value, \"Address: insufficient balance for call\") */\n              0x04\n              dup3\n              add\n                /* \"#utility.yul\":13656:13677   */\n              mstore\n                /* \"#utility.yul\":13713:13715   */\n              0x26\n                /* \"#utility.yul\":13693:13711   */\n              0x24\n              dup3\n              add\n                /* \"#utility.yul\":13686:13716   */\n              mstore\n                /* \"#utility.yul\":13752:13786   */\n              0x416464726573733a20696e73756666696369656e742062616c616e636520666f\n                /* \"#utility.yul\":13732:13750   */\n              0x44\n              dup3\n              add\n                /* \"#utility.yul\":13725:13787   */\n              mstore\n                /* \"#utility.yul\":13823:13831   */\n              0x722063616c6c0000000000000000000000000000000000000000000000000000\n                /* \"#utility.yul\":13803:13821   */\n              0x64\n              dup3\n              add\n                /* \"#utility.yul\":13796:13832   */\n              mstore\n                /* \"#utility.yul\":13849:13868   */\n              0x84\n              add\n                /* \"contracts/SmartchefFactory.sol\":5307:5388  require(address(this).balance >= value, \"Address: insufficient balance for call\") */\n              tag_144\n                /* \"#utility.yul\":13472:13874   */\n              jump\n                /* \"contracts/SmartchefFactory.sol\":5307:5388  require(address(this).balance >= value, \"Address: insufficient balance for call\") */\n            tag_385:\n                /* \"contracts/SmartchefFactory.sol\":5400:5412  bool success */\n              0x00\n                /* \"contracts/SmartchefFactory.sol\":5414:5437  bytes memory returndata */\n              dup1\n                /* \"contracts/SmartchefFactory.sol\":5441:5447  target */\n              dup7\n                /* \"contracts/SmartchefFactory.sol\":5441:5452  target.call */\n              0xffffffffffffffffffffffffffffffffffffffff\n              and\n                /* \"contracts/SmartchefFactory.sol\":5460:5465  value */\n              dup6\n                /* \"contracts/SmartchefFactory.sol\":5467:5471  data */\n              dup8\n                /* \"contracts/SmartchefFactory.sol\":5441:5472  target.call{value: value}(data) */\n              mload(0x40)\n              tag_388\n              swap2\n              swap1\n              tag_389\n              jump\t// in\n            tag_388:\n              0x00\n              mload(0x40)\n              dup1\n              dup4\n              sub\n              dup2\n              dup6\n              dup8\n              gas\n              call\n              swap3\n              pop\n              pop\n              pop\n              returndatasize\n              dup1\n              0x00\n              dup2\n              eq\n              tag_392\n              jumpi\n              mload(0x40)\n              swap2\n              pop\n              and(add(returndatasize, 0x3f), not(0x1f))\n              dup3\n              add\n              0x40\n              mstore\n              returndatasize\n              dup3\n              mstore\n              returndatasize\n              0x00\n              0x20\n              dup5\n              add\n              returndatacopy\n              jump(tag_391)\n            tag_392:\n              0x60\n              swap2\n              pop\n            tag_391:\n              pop\n                /* \"contracts/SmartchefFactory.sol\":5399:5472  (bool success, bytes memory returndata) = target.call{value: value}(data) */\n              swap2\n              pop\n              swap2\n              pop\n                /* \"contracts/SmartchefFactory.sol\":5490:5559  verifyCallResultFromTarget(target, success, returndata, errorMessage) */\n              tag_393\n                /* \"contracts/SmartchefFactory.sol\":5517:5523  target */\n              dup8\n                /* \"contracts/SmartchefFactory.sol\":5525:5532  success */\n              dup4\n                /* \"contracts/SmartchefFactory.sol\":5534:5544  returndata */\n              dup4\n                /* \"contracts/SmartchefFactory.sol\":5546:5558  errorMessage */\n              dup8\n                /* \"contracts/SmartchefFactory.sol\":5490:5516  verifyCallResultFromTarget */\n              tag_394\n                /* \"contracts/SmartchefFactory.sol\":5490:5559  verifyCallResultFromTarget(target, success, returndata, errorMessage) */\n              jump\t// in\n            tag_393:\n                /* \"contracts/SmartchefFactory.sol\":5483:5559  return verifyCallResultFromTarget(target, success, returndata, errorMessage) */\n              swap8\n                /* \"contracts/SmartchefFactory.sol\":5112:5567  function functionCallWithValue(... */\n              swap7\n              pop\n              pop\n              pop\n              pop\n              pop\n              pop\n              pop\n              jump\t// out\n                /* \"contracts/SmartchefFactory.sol\":7685:8329  function verifyCallResultFromTarget(... */\n            tag_394:\n                /* \"contracts/SmartchefFactory.sol\":7870:7882  bytes memory */\n              0x60\n                /* \"contracts/SmartchefFactory.sol\":7899:7906  success */\n              dup4\n                /* \"contracts/SmartchefFactory.sol\":7895:8322  if (success) {... */\n              iszero\n              tag_396\n              jumpi\n                /* \"contracts/SmartchefFactory.sol\":7927:7937  returndata */\n              dup3\n                /* \"contracts/SmartchefFactory.sol\":7927:7944  returndata.length */\n              mload\n                /* \"contracts/SmartchefFactory.sol\":7948:7949  0 */\n              0x00\n                /* \"contracts/SmartchefFactory.sol\":7927:7949  returndata.length == 0 */\n              sub\n                /* \"contracts/SmartchefFactory.sol\":7923:8213  if (returndata.length == 0) {... */\n              tag_400\n              jumpi\n                /* \"contracts/SmartchefFactory.sol\":1530:1549  account.code.length */\n              0xffffffffffffffffffffffffffffffffffffffff\n              dup6\n              and\n              extcodesize\n                /* \"contracts/SmartchefFactory.sol\":8137:8197  require(isContract(target), \"Address: call to non-contract\") */\n              tag_400\n              jumpi\n              mload(0x40)\n              0x08c379a000000000000000000000000000000000000000000000000000000000\n              dup2\n              mstore\n                /* \"#utility.yul\":14628:14630   */\n              0x20\n                /* \"contracts/SmartchefFactory.sol\":8137:8197  require(isContract(target), \"Address: call to non-contract\") */\n              0x04\n              dup3\n              add\n                /* \"#utility.yul\":14610:14631   */\n              mstore\n                /* \"#utility.yul\":14667:14669   */\n              0x1d\n                /* \"#utility.yul\":14647:14665   */\n              0x24\n              dup3\n              add\n                /* \"#utility.yul\":14640:14670   */\n              mstore\n                /* \"#utility.yul\":14706:14737   */\n              0x416464726573733a2063616c6c20746f206e6f6e2d636f6e7472616374000000\n                /* \"#utility.yul\":14686:14704   */\n              0x44\n              dup3\n              add\n                /* \"#utility.yul\":14679:14738   */\n              mstore\n                /* \"#utility.yul\":14755:14773   */\n              0x64\n              add\n                /* \"contracts/SmartchefFactory.sol\":8137:8197  require(isContract(target), \"Address: call to non-contract\") */\n              tag_144\n                /* \"#utility.yul\":14426:14779   */\n              jump\n                /* \"contracts/SmartchefFactory.sol\":8137:8197  require(isContract(target), \"Address: call to non-contract\") */\n            tag_400:\n              pop\n                /* \"contracts/SmartchefFactory.sol\":8234:8244  returndata */\n              dup2\n                /* \"contracts/SmartchefFactory.sol\":8227:8244  return returndata */\n              jump(tag_382)\n                /* \"contracts/SmartchefFactory.sol\":7895:8322  if (success) {... */\n            tag_396:\n                /* \"contracts/SmartchefFactory.sol\":8277:8310  _revert(returndata, errorMessage) */\n              tag_382\n                /* \"contracts/SmartchefFactory.sol\":8285:8295  returndata */\n              dup4\n                /* \"contracts/SmartchefFactory.sol\":8297:8309  errorMessage */\n              dup4\n                /* \"contracts/SmartchefFactory.sol\":9032:9049  returndata.length */\n              dup2\n              mload\n                /* \"contracts/SmartchefFactory.sol\":9032:9053  returndata.length > 0 */\n              iszero\n                /* \"contracts/SmartchefFactory.sol\":9028:9416  if (returndata.length > 0) {... */\n              tag_408\n              jumpi\n                /* \"contracts/SmartchefFactory.sol\":9264:9274  returndata */\n              dup2\n                /* \"contracts/SmartchefFactory.sol\":9258:9275  mload(returndata) */\n              mload\n                /* \"contracts/SmartchefFactory.sol\":9321:9336  returndata_size */\n              dup1\n                /* \"contracts/SmartchefFactory.sol\":9308:9318  returndata */\n              dup4\n                /* \"contracts/SmartchefFactory.sol\":9304:9306  32 */\n              0x20\n                /* \"contracts/SmartchefFactory.sol\":9300:9319  add(32, returndata) */\n              add\n                /* \"contracts/SmartchefFactory.sol\":9293:9337  revert(add(32, returndata), returndata_size) */\n              revert\n                /* \"contracts/SmartchefFactory.sol\":9028:9416  if (returndata.length > 0) {... */\n            tag_408:\n                /* \"contracts/SmartchefFactory.sol\":9391:9403  errorMessage */\n              dup1\n                /* \"contracts/SmartchefFactory.sol\":9384:9404  revert(errorMessage) */\n              mload(0x40)\n              0x08c379a000000000000000000000000000000000000000000000000000000000\n              dup2\n              mstore\n              0x04\n              add\n              tag_144\n              swap2\n              swap1\n              tag_411\n              jump\t// in\n                /* \"#utility.yul\":14:194   */\n            tag_42:\n                /* \"#utility.yul\":73:79   */\n              0x00\n                /* \"#utility.yul\":126:128   */\n              0x20\n                /* \"#utility.yul\":114:123   */\n              dup3\n                /* \"#utility.yul\":105:112   */\n              dup5\n                /* \"#utility.yul\":101:124   */\n              sub\n                /* \"#utility.yul\":97:129   */\n              slt\n                /* \"#utility.yul\":94:146   */\n              iszero\n              tag_420\n              jumpi\n                /* \"#utility.yul\":142:143   */\n              0x00\n                /* \"#utility.yul\":139:140   */\n              dup1\n                /* \"#utility.yul\":132:144   */\n              revert\n                /* \"#utility.yul\":94:146   */\n            tag_420:\n              pop\n                /* \"#utility.yul\":165:188   */\n              calldataload\n              swap2\n                /* \"#utility.yul\":14:194   */\n              swap1\n              pop\n              jump\t// out\n                /* \"#utility.yul\":199:353   */\n            tag_412:\n                /* \"#utility.yul\":285:327   */\n              0xffffffffffffffffffffffffffffffffffffffff\n                /* \"#utility.yul\":278:283   */\n              dup2\n                /* \"#utility.yul\":274:328   */\n              and\n                /* \"#utility.yul\":267:272   */\n              dup2\n                /* \"#utility.yul\":264:329   */\n              eq\n                /* \"#utility.yul\":254:347   */\n              tag_191\n              jumpi\n                /* \"#utility.yul\":343:344   */\n              0x00\n                /* \"#utility.yul\":340:341   */\n              dup1\n                /* \"#utility.yul\":333:345   */\n              revert\n                /* \"#utility.yul\":358:605   */\n            tag_46:\n                /* \"#utility.yul\":417:423   */\n              0x00\n                /* \"#utility.yul\":470:472   */\n              0x20\n                /* \"#utility.yul\":458:467   */\n              dup3\n                /* \"#utility.yul\":449:456   */\n              dup5\n                /* \"#utility.yul\":445:468   */\n              sub\n                /* \"#utility.yul\":441:473   */\n              slt\n                /* \"#utility.yul\":438:490   */\n              iszero\n              tag_424\n              jumpi\n                /* \"#utility.yul\":486:487   */\n              0x00\n                /* \"#utility.yul\":483:484   */\n              dup1\n                /* \"#utility.yul\":476:488   */\n              revert\n                /* \"#utility.yul\":438:490   */\n            tag_424:\n                /* \"#utility.yul\":525:534   */\n              dup2\n                /* \"#utility.yul\":512:535   */\n              calldataload\n                /* \"#utility.yul\":544:575   */\n              tag_307\n                /* \"#utility.yul\":569:574   */\n              dup2\n                /* \"#utility.yul\":544:575   */\n              tag_412\n              jump\t// in\n                /* \"#utility.yul\":1045:1963   */\n            tag_56:\n                /* \"#utility.yul\":1211:1217   */\n              0x00\n                /* \"#utility.yul\":1219:1225   */\n              dup1\n                /* \"#utility.yul\":1227:1233   */\n              0x00\n                /* \"#utility.yul\":1235:1241   */\n              dup1\n                /* \"#utility.yul\":1243:1249   */\n              0x00\n                /* \"#utility.yul\":1251:1257   */\n              dup1\n                /* \"#utility.yul\":1259:1265   */\n              0x00\n                /* \"#utility.yul\":1267:1273   */\n              dup1\n                /* \"#utility.yul\":1320:1323   */\n              0x0100\n                /* \"#utility.yul\":1308:1317   */\n              dup10\n                /* \"#utility.yul\":1299:1306   */\n              dup12\n                /* \"#utility.yul\":1295:1318   */\n              sub\n                /* \"#utility.yul\":1291:1324   */\n              slt\n                /* \"#utility.yul\":1288:1341   */\n              iszero\n              tag_429\n              jumpi\n                /* \"#utility.yul\":1337:1338   */\n              0x00\n                /* \"#utility.yul\":1334:1335   */\n              dup1\n                /* \"#utility.yul\":1327:1339   */\n              revert\n                /* \"#utility.yul\":1288:1341   */\n            tag_429:\n                /* \"#utility.yul\":1376:1385   */\n              dup9\n                /* \"#utility.yul\":1363:1386   */\n              calldataload\n                /* \"#utility.yul\":1395:1426   */\n              tag_430\n                /* \"#utility.yul\":1420:1425   */\n              dup2\n                /* \"#utility.yul\":1395:1426   */\n              tag_412\n              jump\t// in\n            tag_430:\n                /* \"#utility.yul\":1445:1450   */\n              swap8\n              pop\n                /* \"#utility.yul\":1502:1504   */\n              0x20\n                /* \"#utility.yul\":1487:1505   */\n              dup10\n              add\n                /* \"#utility.yul\":1474:1506   */\n              calldataload\n                /* \"#utility.yul\":1515:1548   */\n              tag_431\n                /* \"#utility.yul\":1474:1506   */\n              dup2\n                /* \"#utility.yul\":1515:1548   */\n              tag_412\n              jump\t// in\n            tag_431:\n                /* \"#utility.yul\":1567:1574   */\n              swap7\n              pop\n                /* \"#utility.yul\":1621:1623   */\n              0x40\n                /* \"#utility.yul\":1606:1624   */\n              dup10\n              add\n                /* \"#utility.yul\":1593:1625   */\n              calldataload\n              swap6\n              pop\n                /* \"#utility.yul\":1672:1674   */\n              0x60\n                /* \"#utility.yul\":1657:1675   */\n              dup10\n              add\n                /* \"#utility.yul\":1644:1676   */\n              calldataload\n              swap5\n              pop\n                /* \"#utility.yul\":1723:1726   */\n              0x80\n                /* \"#utility.yul\":1708:1727   */\n              dup10\n              add\n                /* \"#utility.yul\":1695:1728   */\n              calldataload\n              swap4\n              pop\n                /* \"#utility.yul\":1775:1778   */\n              0xa0\n                /* \"#utility.yul\":1760:1779   */\n              dup10\n              add\n                /* \"#utility.yul\":1747:1780   */\n              calldataload\n              swap3\n              pop\n                /* \"#utility.yul\":1827:1830   */\n              0xc0\n                /* \"#utility.yul\":1812:1831   */\n              dup10\n              add\n                /* \"#utility.yul\":1799:1832   */\n              calldataload\n              swap2\n              pop\n                /* \"#utility.yul\":1884:1887   */\n              0xe0\n                /* \"#utility.yul\":1869:1888   */\n              dup10\n              add\n                /* \"#utility.yul\":1856:1889   */\n              calldataload\n                /* \"#utility.yul\":1898:1931   */\n              tag_432\n                /* \"#utility.yul\":1856:1889   */\n              dup2\n                /* \"#utility.yul\":1898:1931   */\n              tag_412\n              jump\t// in\n            tag_432:\n                /* \"#utility.yul\":1950:1957   */\n              dup1\n                /* \"#utility.yul\":1940:1957   */\n              swap2\n              pop\n              pop\n                /* \"#utility.yul\":1045:1963   */\n              swap3\n              swap6\n              swap9\n              pop\n              swap3\n              swap6\n              swap9\n              swap1\n              swap4\n              swap7\n              pop\n              jump\t// out\n                /* \"#utility.yul\":2391:2639   */\n            tag_99:\n                /* \"#utility.yul\":2459:2465   */\n              0x00\n                /* \"#utility.yul\":2467:2473   */\n              dup1\n                /* \"#utility.yul\":2520:2522   */\n              0x40\n                /* \"#utility.yul\":2508:2517   */\n              dup4\n                /* \"#utility.yul\":2499:2506   */\n              dup6\n                /* \"#utility.yul\":2495:2518   */\n              sub\n                /* \"#utility.yul\":2491:2523   */\n              slt\n                /* \"#utility.yul\":2488:2540   */\n              iszero\n              tag_436\n              jumpi\n                /* \"#utility.yul\":2536:2537   */\n              0x00\n                /* \"#utility.yul\":2533:2534   */\n              dup1\n                /* \"#utility.yul\":2526:2538   */\n              revert\n                /* \"#utility.yul\":2488:2540   */\n            tag_436:\n              pop\n              pop\n                /* \"#utility.yul\":2559:2582   */\n              dup1\n              calldataload\n              swap3\n                /* \"#utility.yul\":2629:2631   */\n              0x20\n                /* \"#utility.yul\":2614:2632   */\n              swap1\n              swap2\n              add\n                /* \"#utility.yul\":2601:2633   */\n              calldataload\n              swap2\n              pop\n                /* \"#utility.yul\":2391:2639   */\n              jump\t// out\n                /* \"#utility.yul\":2644:2762   */\n            tag_413:\n                /* \"#utility.yul\":2730:2735   */\n              dup1\n                /* \"#utility.yul\":2723:2736   */\n              iszero\n                /* \"#utility.yul\":2716:2737   */\n              iszero\n                /* \"#utility.yul\":2709:2714   */\n              dup2\n                /* \"#utility.yul\":2706:2738   */\n              eq\n                /* \"#utility.yul\":2696:2756   */\n              tag_191\n              jumpi\n                /* \"#utility.yul\":2752:2753   */\n              0x00\n                /* \"#utility.yul\":2749:2750   */\n              dup1\n                /* \"#utility.yul\":2742:2754   */\n              revert\n                /* \"#utility.yul\":2767:3076   */\n            tag_109:\n                /* \"#utility.yul\":2832:2838   */\n              0x00\n                /* \"#utility.yul\":2840:2846   */\n              dup1\n                /* \"#utility.yul\":2893:2895   */\n              0x40\n                /* \"#utility.yul\":2881:2890   */\n              dup4\n                /* \"#utility.yul\":2872:2879   */\n              dup6\n                /* \"#utility.yul\":2868:2891   */\n              sub\n                /* \"#utility.yul\":2864:2896   */\n              slt\n                /* \"#utility.yul\":2861:2913   */\n              iszero\n              tag_440\n              jumpi\n                /* \"#utility.yul\":2909:2910   */\n              0x00\n                /* \"#utility.yul\":2906:2907   */\n              dup1\n                /* \"#utility.yul\":2899:2911   */\n              revert\n                /* \"#utility.yul\":2861:2913   */\n            tag_440:\n                /* \"#utility.yul\":2948:2957   */\n              dup3\n                /* \"#utility.yul\":2935:2958   */\n              calldataload\n                /* \"#utility.yul\":2967:2995   */\n              tag_441\n                /* \"#utility.yul\":2989:2994   */\n              dup2\n                /* \"#utility.yul\":2967:2995   */\n              tag_413\n              jump\t// in\n            tag_441:\n                /* \"#utility.yul\":3014:3019   */\n              swap5\n                /* \"#utility.yul\":3066:3068   */\n              0x20\n                /* \"#utility.yul\":3051:3069   */\n              swap4\n              swap1\n              swap4\n              add\n                /* \"#utility.yul\":3038:3070   */\n              calldataload\n              swap4\n              pop\n              pop\n              pop\n                /* \"#utility.yul\":2767:3076   */\n              jump\t// out\n                /* \"#utility.yul\":4367:4640   */\n            tag_158:\n                /* \"#utility.yul\":4435:4441   */\n              0x00\n                /* \"#utility.yul\":4488:4490   */\n              0x20\n                /* \"#utility.yul\":4476:4485   */\n              dup3\n                /* \"#utility.yul\":4467:4474   */\n              dup5\n                /* \"#utility.yul\":4463:4486   */\n              sub\n                /* \"#utility.yul\":4459:4491   */\n              slt\n                /* \"#utility.yul\":4456:4508   */\n              iszero\n              tag_447\n              jumpi\n                /* \"#utility.yul\":4504:4505   */\n              0x00\n                /* \"#utility.yul\":4501:4502   */\n              dup1\n                /* \"#utility.yul\":4494:4506   */\n              revert\n                /* \"#utility.yul\":4456:4508   */\n            tag_447:\n                /* \"#utility.yul\":4536:4545   */\n              dup2\n                /* \"#utility.yul\":4530:4546   */\n              mload\n                /* \"#utility.yul\":4586:4590   */\n              0xff\n                /* \"#utility.yul\":4579:4584   */\n              dup2\n                /* \"#utility.yul\":4575:4591   */\n              and\n                /* \"#utility.yul\":4568:4573   */\n              dup2\n                /* \"#utility.yul\":4565:4592   */\n              eq\n                /* \"#utility.yul\":4555:4610   */\n              tag_307\n              jumpi\n                /* \"#utility.yul\":4606:4607   */\n              0x00\n                /* \"#utility.yul\":4603:4604   */\n              dup1\n                /* \"#utility.yul\":4596:4608   */\n              revert\n                /* \"#utility.yul\":4996:5180   */\n            tag_414:\n                /* \"#utility.yul\":5048:5125   */\n              0x4e487b7100000000000000000000000000000000000000000000000000000000\n                /* \"#utility.yul\":5045:5046   */\n              0x00\n                /* \"#utility.yul\":5038:5126   */\n              mstore\n                /* \"#utility.yul\":5145:5149   */\n              0x11\n                /* \"#utility.yul\":5142:5143   */\n              0x04\n                /* \"#utility.yul\":5135:5150   */\n              mstore\n                /* \"#utility.yul\":5169:5173   */\n              0x24\n                /* \"#utility.yul\":5166:5167   */\n              0x00\n                /* \"#utility.yul\":5159:5174   */\n              revert\n                /* \"#utility.yul\":5185:5313   */\n            tag_163:\n                /* \"#utility.yul\":5252:5261   */\n              dup2\n              dup2\n              sub\n                /* \"#utility.yul\":5273:5284   */\n              dup2\n              dup2\n              gt\n                /* \"#utility.yul\":5270:5307   */\n              iszero\n              tag_365\n              jumpi\n                /* \"#utility.yul\":5287:5305   */\n              tag_365\n              tag_414\n              jump\t// in\n                /* \"#utility.yul\":5318:5800   */\n            tag_415:\n                /* \"#utility.yul\":5407:5408   */\n              0x01\n                /* \"#utility.yul\":5450:5455   */\n              dup2\n                /* \"#utility.yul\":5407:5408   */\n              dup2\n                /* \"#utility.yul\":5464:5794   */\n            tag_455:\n                /* \"#utility.yul\":5485:5492   */\n              dup1\n                /* \"#utility.yul\":5475:5483   */\n              dup6\n                /* \"#utility.yul\":5472:5493   */\n              gt\n                /* \"#utility.yul\":5464:5794   */\n              iszero\n              tag_457\n              jumpi\n                /* \"#utility.yul\":5604:5608   */\n              dup2\n                /* \"#utility.yul\":5536:5602   */\n              0xffffffffffffffffffffffffffffffffffffffffffffffffffffffffffffffff\n                /* \"#utility.yul\":5532:5609   */\n              div\n                /* \"#utility.yul\":5526:5530   */\n              dup3\n                /* \"#utility.yul\":5523:5610   */\n              gt\n                /* \"#utility.yul\":5520:5633   */\n              iszero\n              tag_459\n              jumpi\n                /* \"#utility.yul\":5613:5631   */\n              tag_459\n              tag_414\n              jump\t// in\n            tag_459:\n                /* \"#utility.yul\":5663:5670   */\n              dup1\n                /* \"#utility.yul\":5653:5661   */\n              dup6\n                /* \"#utility.yul\":5649:5671   */\n              and\n                /* \"#utility.yul\":5646:5701   */\n              iszero\n              tag_460\n              jumpi\n                /* \"#utility.yul\":5683:5699   */\n              swap2\n              dup2\n              mul\n              swap2\n                /* \"#utility.yul\":5646:5701   */\n            tag_460:\n                /* \"#utility.yul\":5762:5784   */\n              swap4\n              dup5\n              shr\n              swap4\n                /* \"#utility.yul\":5722:5737   */\n              swap1\n              dup1\n              mul\n              swap1\n                /* \"#utility.yul\":5464:5794   */\n              jump(tag_455)\n            tag_457:\n                /* \"#utility.yul\":5468:5471   */\n              pop\n                /* \"#utility.yul\":5318:5800   */\n              swap3\n              pop\n              swap3\n              swap1\n              pop\n              jump\t// out\n                /* \"#utility.yul\":5805:6671   */\n            tag_416:\n                /* \"#utility.yul\":5854:5859   */\n              0x00\n                /* \"#utility.yul\":5884:5892   */\n              dup3\n                /* \"#utility.yul\":5874:5954   */\n              tag_462\n              jumpi\n              pop\n                /* \"#utility.yul\":5925:5926   */\n              0x01\n                /* \"#utility.yul\":5939:5944   */\n              jump(tag_365)\n                /* \"#utility.yul\":5874:5954   */\n            tag_462:\n                /* \"#utility.yul\":5973:5977   */\n              dup2\n                /* \"#utility.yul\":5963:6039   */\n              tag_463\n              jumpi\n              pop\n                /* \"#utility.yul\":6010:6011   */\n              0x00\n                /* \"#utility.yul\":6024:6029   */\n              jump(tag_365)\n                /* \"#utility.yul\":5963:6039   */\n            tag_463:\n                /* \"#utility.yul\":6055:6059   */\n              dup2\n                /* \"#utility.yul\":6073:6074   */\n              0x01\n                /* \"#utility.yul\":6068:6127   */\n              dup2\n              eq\n              tag_465\n              jumpi\n                /* \"#utility.yul\":6141:6142   */\n              0x02\n                /* \"#utility.yul\":6136:6266   */\n              dup2\n              eq\n              tag_466\n              jumpi\n                /* \"#utility.yul\":6048:6266   */\n              jump(tag_464)\n                /* \"#utility.yul\":6068:6127   */\n            tag_465:\n                /* \"#utility.yul\":6098:6099   */\n              0x01\n                /* \"#utility.yul\":6089:6099   */\n              swap2\n              pop\n                /* \"#utility.yul\":6112:6117   */\n              pop\n              jump(tag_365)\n                /* \"#utility.yul\":6136:6266   */\n            tag_466:\n                /* \"#utility.yul\":6173:6176   */\n              0xff\n                /* \"#utility.yul\":6163:6171   */\n              dup5\n                /* \"#utility.yul\":6160:6177   */\n              gt\n                /* \"#utility.yul\":6157:6200   */\n              iszero\n              tag_468\n              jumpi\n                /* \"#utility.yul\":6180:6198   */\n              tag_468\n              tag_414\n              jump\t// in\n            tag_468:\n              pop\n              pop\n                /* \"#utility.yul\":6236:6237   */\n              0x01\n                /* \"#utility.yul\":6222:6238   */\n              dup3\n              shl\n                /* \"#utility.yul\":6251:6256   */\n              jump(tag_365)\n                /* \"#utility.yul\":6048:6266   */\n            tag_464:\n              pop\n                /* \"#utility.yul\":6350:6352   */\n              0x20\n                /* \"#utility.yul\":6340:6348   */\n              dup4\n                /* \"#utility.yul\":6337:6353   */\n              lt\n                /* \"#utility.yul\":6331:6334   */\n              0x0133\n                /* \"#utility.yul\":6325:6329   */\n              dup4\n                /* \"#utility.yul\":6322:6335   */\n              lt\n                /* \"#utility.yul\":6318:6354   */\n              and\n                /* \"#utility.yul\":6312:6314   */\n              0x4e\n                /* \"#utility.yul\":6302:6310   */\n              dup5\n                /* \"#utility.yul\":6299:6315   */\n              lt\n                /* \"#utility.yul\":6294:6296   */\n              0x0b\n                /* \"#utility.yul\":6288:6292   */\n              dup5\n                /* \"#utility.yul\":6285:6297   */\n              lt\n                /* \"#utility.yul\":6281:6316   */\n              and\n                /* \"#utility.yul\":6278:6355   */\n              or\n                /* \"#utility.yul\":6275:6434   */\n              iszero\n              tag_469\n              jumpi\n              pop\n                /* \"#utility.yul\":6387:6406   */\n              dup2\n              dup2\n              exp\n                /* \"#utility.yul\":6419:6424   */\n              jump(tag_365)\n                /* \"#utility.yul\":6275:6434   */\n            tag_469:\n                /* \"#utility.yul\":6466:6500   */\n              tag_470\n                /* \"#utility.yul\":6491:6499   */\n              dup4\n                /* \"#utility.yul\":6485:6489   */\n              dup4\n                /* \"#utility.yul\":6466:6500   */\n              tag_415\n              jump\t// in\n            tag_470:\n                /* \"#utility.yul\":6596:6602   */\n              dup1\n                /* \"#utility.yul\":6528:6594   */\n              0xffffffffffffffffffffffffffffffffffffffffffffffffffffffffffffffff\n                /* \"#utility.yul\":6524:6603   */\n              div\n                /* \"#utility.yul\":6515:6522   */\n              dup3\n                /* \"#utility.yul\":6512:6604   */\n              gt\n                /* \"#utility.yul\":6509:6627   */\n              iszero\n              tag_472\n              jumpi\n                /* \"#utility.yul\":6607:6625   */\n              tag_472\n              tag_414\n              jump\t// in\n            tag_472:\n                /* \"#utility.yul\":6645:6665   */\n              mul\n              swap4\n                /* \"#utility.yul\":5805:6671   */\n              swap3\n              pop\n              pop\n              pop\n              jump\t// out\n                /* \"#utility.yul\":6676:6807   */\n            tag_165:\n                /* \"#utility.yul\":6736:6741   */\n              0x00\n                /* \"#utility.yul\":6765:6801   */\n              tag_307\n                /* \"#utility.yul\":6792:6800   */\n              dup4\n                /* \"#utility.yul\":6786:6790   */\n              dup4\n                /* \"#utility.yul\":6765:6801   */\n              tag_416\n              jump\t// in\n                /* \"#utility.yul\":7168:7336   */\n            tag_177:\n                /* \"#utility.yul\":7241:7250   */\n              dup1\n              dup3\n              mul\n                /* \"#utility.yul\":7272:7281   */\n              dup2\n              iszero\n                /* \"#utility.yul\":7289:7304   */\n              dup3\n              dup3\n              div\n                /* \"#utility.yul\":7283:7305   */\n              dup5\n              eq\n                /* \"#utility.yul\":7269:7306   */\n              or\n                /* \"#utility.yul\":7259:7330   */\n              tag_365\n              jumpi\n                /* \"#utility.yul\":7310:7328   */\n              tag_365\n              tag_414\n              jump\t// in\n                /* \"#utility.yul\":7341:7615   */\n            tag_179:\n                /* \"#utility.yul\":7381:7382   */\n              0x00\n                /* \"#utility.yul\":7407:7408   */\n              dup3\n                /* \"#utility.yul\":7397:7586   */\n              tag_480\n              jumpi\n                /* \"#utility.yul\":7442:7519   */\n              0x4e487b7100000000000000000000000000000000000000000000000000000000\n                /* \"#utility.yul\":7439:7440   */\n              0x00\n                /* \"#utility.yul\":7432:7520   */\n              mstore\n                /* \"#utility.yul\":7543:7547   */\n              0x12\n                /* \"#utility.yul\":7540:7541   */\n              0x04\n                /* \"#utility.yul\":7533:7548   */\n              mstore\n                /* \"#utility.yul\":7571:7575   */\n              0x24\n                /* \"#utility.yul\":7568:7569   */\n              0x00\n                /* \"#utility.yul\":7561:7576   */\n              revert\n                /* \"#utility.yul\":7397:7586   */\n            tag_480:\n              pop\n                /* \"#utility.yul\":7600:7609   */\n              div\n              swap1\n                /* \"#utility.yul\":7341:7615   */\n              jump\t// out\n                /* \"#utility.yul\":7620:7745   */\n            tag_209:\n                /* \"#utility.yul\":7685:7694   */\n              dup1\n              dup3\n              add\n                /* \"#utility.yul\":7706:7716   */\n              dup1\n              dup3\n              gt\n                /* \"#utility.yul\":7703:7739   */\n              iszero\n              tag_365\n              jumpi\n                /* \"#utility.yul\":7719:7737   */\n              tag_365\n              tag_414\n              jump\t// in\n                /* \"#utility.yul\":8990:9174   */\n            tag_233:\n                /* \"#utility.yul\":9060:9066   */\n              0x00\n                /* \"#utility.yul\":9113:9115   */\n              0x20\n                /* \"#utility.yul\":9101:9110   */\n              dup3\n                /* \"#utility.yul\":9092:9099   */\n              dup5\n                /* \"#utility.yul\":9088:9111   */\n              sub\n                /* \"#utility.yul\":9084:9116   */\n              slt\n                /* \"#utility.yul\":9081:9133   */\n              iszero\n              tag_488\n              jumpi\n                /* \"#utility.yul\":9129:9130   */\n              0x00\n                /* \"#utility.yul\":9126:9127   */\n              dup1\n                /* \"#utility.yul\":9119:9131   */\n              revert\n                /* \"#utility.yul\":9081:9133   */\n            tag_488:\n              pop\n                /* \"#utility.yul\":9152:9168   */\n              mload\n              swap2\n                /* \"#utility.yul\":8990:9174   */\n              swap1\n              pop\n              jump\t// out\n                /* \"#utility.yul\":12408:12653   */\n            tag_373:\n                /* \"#utility.yul\":12475:12481   */\n              0x00\n                /* \"#utility.yul\":12528:12530   */\n              0x20\n                /* \"#utility.yul\":12516:12525   */\n              dup3\n                /* \"#utility.yul\":12507:12514   */\n              dup5\n                /* \"#utility.yul\":12503:12526   */\n              sub\n                /* \"#utility.yul\":12499:12531   */\n              slt\n                /* \"#utility.yul\":12496:12548   */\n              iszero\n              tag_499\n              jumpi\n                /* \"#utility.yul\":12544:12545   */\n              0x00\n                /* \"#utility.yul\":12541:12542   */\n              dup1\n                /* \"#utility.yul\":12534:12546   */\n              revert\n                /* \"#utility.yul\":12496:12548   */\n            tag_499:\n                /* \"#utility.yul\":12576:12585   */\n              dup2\n                /* \"#utility.yul\":12570:12586   */\n              mload\n                /* \"#utility.yul\":12595:12623   */\n              tag_307\n                /* \"#utility.yul\":12617:12622   */\n              dup2\n                /* \"#utility.yul\":12595:12623   */\n              tag_413\n              jump\t// in\n                /* \"#utility.yul\":13879:14129   */\n            tag_417:\n                /* \"#utility.yul\":13964:13965   */\n              0x00\n                /* \"#utility.yul\":13974:14087   */\n            tag_505:\n                /* \"#utility.yul\":13988:13994   */\n              dup4\n                /* \"#utility.yul\":13985:13986   */\n              dup2\n                /* \"#utility.yul\":13982:13995   */\n              lt\n                /* \"#utility.yul\":13974:14087   */\n              iszero\n              tag_507\n              jumpi\n                /* \"#utility.yul\":14064:14075   */\n              dup2\n              dup2\n              add\n                /* \"#utility.yul\":14058:14076   */\n              mload\n                /* \"#utility.yul\":14045:14056   */\n              dup4\n              dup3\n              add\n                /* \"#utility.yul\":14038:14077   */\n              mstore\n                /* \"#utility.yul\":14010:14012   */\n              0x20\n                /* \"#utility.yul\":14003:14013   */\n              add\n                /* \"#utility.yul\":13974:14087   */\n              jump(tag_505)\n            tag_507:\n              pop\n              pop\n                /* \"#utility.yul\":14121:14122   */\n              0x00\n                /* \"#utility.yul\":14103:14119   */\n              swap2\n              add\n                /* \"#utility.yul\":14096:14123   */\n              mstore\n                /* \"#utility.yul\":13879:14129   */\n              jump\t// out\n                /* \"#utility.yul\":14134:14421   */\n            tag_389:\n                /* \"#utility.yul\":14263:14266   */\n              0x00\n                /* \"#utility.yul\":14301:14307   */\n              dup3\n                /* \"#utility.yul\":14295:14308   */\n              mload\n                /* \"#utility.yul\":14317:14383   */\n              tag_509\n                /* \"#utility.yul\":14376:14382   */\n              dup2\n                /* \"#utility.yul\":14371:14374   */\n              dup5\n                /* \"#utility.yul\":14364:14368   */\n              0x20\n                /* \"#utility.yul\":14356:14362   */\n              dup8\n                /* \"#utility.yul\":14352:14369   */\n              add\n                /* \"#utility.yul\":14317:14383   */\n              tag_417\n              jump\t// in\n            tag_509:\n                /* \"#utility.yul\":14399:14415   */\n              swap2\n              swap1\n              swap2\n              add\n              swap3\n                /* \"#utility.yul\":14134:14421   */\n              swap2\n              pop\n              pop\n              jump\t// out\n                /* \"#utility.yul\":14784:15239   */\n            tag_411:\n                /* \"#utility.yul\":14933:14935   */\n              0x20\n                /* \"#utility.yul\":14922:14931   */\n              dup2\n                /* \"#utility.yul\":14915:14936   */\n              mstore\n                /* \"#utility.yul\":14896:14900   */\n              0x00\n                /* \"#utility.yul\":14965:14971   */\n              dup3\n                /* \"#utility.yul\":14959:14972   */\n              mload\n                /* \"#utility.yul\":15008:15014   */\n              dup1\n                /* \"#utility.yul\":15003:15005   */\n              0x20\n                /* \"#utility.yul\":14992:15001   */\n              dup5\n                /* \"#utility.yul\":14988:15006   */\n              add\n                /* \"#utility.yul\":14981:15015   */\n              mstore\n                /* \"#utility.yul\":15024:15103   */\n              tag_512\n                /* \"#utility.yul\":15096:15102   */\n              dup2\n                /* \"#utility.yul\":15091:15093   */\n              0x40\n                /* \"#utility.yul\":15080:15089   */\n              dup6\n                /* \"#utility.yul\":15076:15094   */\n              add\n                /* \"#utility.yul\":15071:15073   */\n              0x20\n                /* \"#utility.yul\":15063:15069   */\n              dup8\n                /* \"#utility.yul\":15059:15074   */\n              add\n                /* \"#utility.yul\":15024:15103   */\n              tag_417\n              jump\t// in\n            tag_512:\n                /* \"#utility.yul\":15155:15157   */\n              0x1f\n                /* \"#utility.yul\":15143:15158   */\n              add\n                /* \"#utility.yul\":15160:15226   */\n              0xffffffffffffffffffffffffffffffffffffffffffffffffffffffffffffffe0\n                /* \"#utility.yul\":15139:15227   */\n              and\n                /* \"#utility.yul\":15124:15228   */\n              swap2\n              swap1\n              swap2\n              add\n                /* \"#utility.yul\":15230:15232   */\n              0x40\n                /* \"#utility.yul\":15120:15233   */\n              add\n              swap3\n                /* \"#utility.yul\":14784:15239   */\n              swap2\n              pop\n              pop\n              jump\t// out\n\n            auxdata: 0xa264697066735822122076195b76a192f28aab7491bf01a603dcb48bf819bc09ceaaf6bcd4588327beaa64736f6c63430008110033\n        }\n    }\n\n    auxdata: 0xa2646970667358221220032be29c4d0a9703fabdf08eb6334d33aabc4f1863a686f12e84ec85989e4c0664736f6c63430008110033\n}\n",
				"bytecode": {
					"linkReferences": {},
					"object": "608060405234801561001057600080fd5b5061001a3361001f565b61006f565b600080546001600160a01b038381166001600160a01b0319831681178455604051919092169283917f8be0079c531659141344cd1fd0a4f28419497f9722a3daafe3b4186f6b6457e09190a35050565b6128148061007e6000396000f3fe608060405234801561001057600080fd5b506004361061004c5760003560e01c8063715018a6146100515780638da5cb5b1461005b578063bbc22f5014610087578063f2fde38b1461009a575b600080fd5b6100596100ad565b005b6000546040805173ffffffffffffffffffffffffffffffffffffffff9092168252519081900360200190f35b6100596100953660046105a0565b6100c1565b6100596100a836600461061c565b6103bf565b6100b561047b565b6100bf60006104fc565b565b6100c961047b565b60008873ffffffffffffffffffffffffffffffffffffffff166318160ddd6040518163ffffffff1660e01b8152600401602060405180830381865afa158015610116573d6000803e3d6000fd5b505050506040513d601f19601f8201168201806040525081019061013a9190610640565b101561014557600080fd5b60008773ffffffffffffffffffffffffffffffffffffffff166318160ddd6040518163ffffffff1660e01b8152600401602060405180830381865afa158015610192573d6000803e3d6000fd5b505050506040513d601f19601f820116820180604052508101906101b69190610640565b10156101c157600080fd5b6000604051806020016101d390610571565b7fffffffffffffffffffffffffffffffffffffffffffffffffffffffffffffffe0828203810183526000601f90920116908152602081016040908152919250610220918391908101610689565b604080517fffffffffffffffffffffffffffffffffffffffffffffffffffffffffffffffe0818403018152908290527fffffffffffffffffffffffffffffffffffffffff00000000000000000000000060608c811b821660208501528b901b1660348301526048820188905291506000906068016040516020818303038152906040528051906020012090506000818351602085016000f56040517f2aa2c38100000000000000000000000000000000000000000000000000000000815273ffffffffffffffffffffffffffffffffffffffff8d811660048301528c81166024830152604482018c9052606482018b9052608482018a905260a4820189905260c4820188905286811660e483015291925090821690632aa2c3819061010401600060405180830381600087803b15801561035957600080fd5b505af115801561036d573d6000803e3d6000fd5b505060405173ffffffffffffffffffffffffffffffffffffffff841692507fe0d103a92c6ff6c4aceb49d436f4028e0deb4884fdbcb9f32b03045eabb44a6c9150600090a25050505050505050505050565b6103c761047b565b73ffffffffffffffffffffffffffffffffffffffff811661046f576040517f08c379a000000000000000000000000000000000000000000000000000000000815260206004820152602660248201527f4f776e61626c653a206e6577206f776e657220697320746865207a65726f206160448201527f646472657373000000000000000000000000000000000000000000000000000060648201526084015b60405180910390fd5b610478816104fc565b50565b60005473ffffffffffffffffffffffffffffffffffffffff1633146100bf576040517f08c379a000000000000000000000000000000000000000000000000000000000815260206004820181905260248201527f4f776e61626c653a2063616c6c6572206973206e6f7420746865206f776e65726044820152606401610466565b6000805473ffffffffffffffffffffffffffffffffffffffff8381167fffffffffffffffffffffffff0000000000000000000000000000000000000000831681178455604051919092169283917f8be0079c531659141344cd1fd0a4f28419497f9722a3daafe3b4186f6b6457e09190a35050565b612138806106a783390190565b73ffffffffffffffffffffffffffffffffffffffff8116811461047857600080fd5b600080600080600080600080610100898b0312156105bd57600080fd5b88356105c88161057e565b975060208901356105d88161057e565b965060408901359550606089013594506080890135935060a0890135925060c0890135915060e089013561060b8161057e565b809150509295985092959890939650565b60006020828403121561062e57600080fd5b81356106398161057e565b9392505050565b60006020828403121561065257600080fd5b5051919050565b6000815160005b8181101561067a5760208185018101518683015201610660565b50600093019283525090919050565b600061069e6106988386610659565b84610659565b94935050505056fe60a060405234801561001057600080fd5b5061001a33610027565b6001805533608052610077565b600080546001600160a01b038381166001600160a01b0319831681178455604051919092169283917f8be0079c531659141344cd1fd0a4f28419497f9722a3daafe3b4186f6b6457e09190a35050565b60805161209f6100996000396000818161039b0152610571015261209f6000f3fe608060405234801561001057600080fd5b50600436106101da5760003560e01c80638f66291511610104578063b6b55f25116100a2578063db2e21bc11610071578063db2e21bc146103e6578063f2fde38b146103ee578063f40f0f5214610401578063f7c618c11461041457600080fd5b8063b6b55f2514610383578063bd61719114610396578063cc7a262e146103bd578063ccd34cd5146103dd57600080fd5b80639be65a60116100de5780639be65a601461034b5780639c367bc21461035e578063a0b4090514610367578063a9f8d1811461037a57600080fd5b80638f6629151461032757806392e8990e146103305780639513997f1461033857600080fd5b806348cd4cb11161017c57806380dc06721161014b57806380dc0672146102ce5780638ad1071b146102d65780638ae39cac146102df5780638da5cb5b146102e857600080fd5b806348cd4cb1146102a75780634a7c01ec146102b057806366fe9f8a146102bd578063715018a6146102c657600080fd5b80632aa2c381116101b85780632aa2c3811461024c5780632e1a7d4d1461025f5780633279beab14610272578063392e53cd1461028557600080fd5b806301f8a976146101df5780631959a002146101f45780631aed655314610235575b600080fd5b6101f26101ed366004611c7c565b610434565b005b61021b610202366004611cb7565b600e602052600090815260409020805460019091015482565b604080519283526020830191909152015b60405180910390f35b61023e60045481565b60405190815260200161022c565b6101f261025a366004611cd4565b6104e7565b6101f261026d366004611c7c565b6107fa565b6101f2610280366004611c7c565b610947565b60025461029790610100900460ff1681565b604051901515815260200161022c565b61023e60055481565b6002546102979060ff1681565b61023e60075481565b6101f2610958565b6101f261096c565b61023e60085481565b61023e60095481565b60005473ffffffffffffffffffffffffffffffffffffffff165b60405173ffffffffffffffffffffffffffffffffffffffff909116815260200161022c565b61023e60035481565b61029761097a565b6101f2610346366004611d50565b6109af565b6101f2610359366004611cb7565b610b8d565b61023e600d5481565b6101f2610375366004611d80565b610e0c565b61023e60065481565b6101f2610391366004611c7c565b610f60565b6103027f000000000000000000000000000000000000000000000000000000000000000081565b600c546103029073ffffffffffffffffffffffffffffffffffffffff1681565b61023e600a5481565b6101f26110ff565b6101f26103fc366004611cb7565b611175565b61023e61040f366004611cb7565b611229565b600b546103029073ffffffffffffffffffffffffffffffffffffffff1681565b61043c61131b565b60055443106104ac576040517f08c379a000000000000000000000000000000000000000000000000000000000815260206004820152601060248201527f506f6f6c2068617320737461727465640000000000000000000000000000000060448201526064015b60405180910390fd5b60098190556040518181527f0c4d677eef92893ac7ec52faf8140fc6c851ab4736302b4f3a89dfb20696a0df9060200160405180910390a150565b600254610100900460ff1615610559576040517f08c379a000000000000000000000000000000000000000000000000000000000815260206004820152601360248201527f416c726561647920696e697469616c697a65640000000000000000000000000060448201526064016104a3565b3373ffffffffffffffffffffffffffffffffffffffff7f000000000000000000000000000000000000000000000000000000000000000016146105f8576040517f08c379a000000000000000000000000000000000000000000000000000000000815260206004820152600b60248201527f4e6f7420666163746f727900000000000000000000000000000000000000000060448201526064016104a3565b600280547fffffffffffffffffffffffffffffffffffffffffffffffffffffffffffff00ff16610100179055600c805473ffffffffffffffffffffffffffffffffffffffff808b167fffffffffffffffffffffffff000000000000000000000000000000000000000092831617909255600b8054928a169290911691909117905560098690556005859055600484905582156106c457600280547fffffffffffffffffffffffffffffffffffffffffffffffffffffffffffffff00166001179055600783905560088290555b600b54604080517f313ce567000000000000000000000000000000000000000000000000000000008152905160009273ffffffffffffffffffffffffffffffffffffffff169163313ce5679160048083019260209291908290030181865afa158015610734573d6000803e3d6000fd5b505050506040513d601f19601f820116820180604052508101906107589190611dac565b60ff169050601e81106107c7576040517f08c379a000000000000000000000000000000000000000000000000000000000815260206004820152601660248201527f4d75737420626520696e666572696f7220746f2033300000000000000000000060448201526064016104a3565b6107d281601e611dfe565b6107dd90600a611f31565b600a556005546006556107ef82611175565b505050505050505050565b61080261139c565b336000908152600e60205260409020805482111561087c576040517f08c379a000000000000000000000000000000000000000000000000000000000815260206004820152601b60248201527f416d6f756e7420746f20776974686472617720746f6f2068696768000000000060448201526064016104a3565b61088461140f565b60008160010154600a5460035484600001546108a09190611f3d565b6108aa9190611f54565b6108b49190611dfe565b905082156108d45781546108c9908490611dfe565b82556108d48361147f565b80156108e3576108e3816114b4565b600a5460035483546108f59190611f3d565b6108ff9190611f54565b600183015560405183815233907f884edad9ce6fa2440d8a54cc123490eb96d2768479d49ff9c7366125a94243649060200160405180910390a2505061094460018055565b50565b61094f61131b565b610944816114b4565b61096061131b565b61096a60006115fa565b565b61097461131b565b43600455565b60025460009060ff16158061099e575060085460055461099a9190611f8f565b4310155b156109a95750600090565b50600190565b6109b761131b565b6005544310610a22576040517f08c379a000000000000000000000000000000000000000000000000000000000815260206004820152601060248201527f506f6f6c2068617320737461727465640000000000000000000000000000000060448201526064016104a3565b808210610ab1576040517f08c379a000000000000000000000000000000000000000000000000000000000815260206004820152602e60248201527f4e6577207374617274426c6f636b206d757374206265206c6f7765722074686160448201527f6e206e657720656e64426c6f636b00000000000000000000000000000000000060648201526084016104a3565b814310610b40576040517f08c379a000000000000000000000000000000000000000000000000000000000815260206004820152603060248201527f4e6577207374617274426c6f636b206d7573742062652068696768657220746860448201527f616e2063757272656e7420626c6f636b0000000000000000000000000000000060648201526084016104a3565b60058290556004819055600682905560408051838152602081018390527f7cd0ab87d19036f3dfadadb232c78aa4879dda3f0c994a9d637532410ee2ce0691015b60405180910390a15050565b610b9561131b565b600b5473ffffffffffffffffffffffffffffffffffffffff90811690821603610c40576040517f08c379a000000000000000000000000000000000000000000000000000000000815260206004820152602760248201527f4f7065726174696f6e733a2043616e6e6f74207265636f76657220726577617260448201527f6420746f6b656e0000000000000000000000000000000000000000000000000060648201526084016104a3565b6040517f70a0823100000000000000000000000000000000000000000000000000000000815230600482015260009073ffffffffffffffffffffffffffffffffffffffff8316906370a0823190602401602060405180830381865afa158015610cad573d6000803e3d6000fd5b505050506040513d601f19601f82011682018060405250810190610cd19190611fa2565b600c5490915073ffffffffffffffffffffffffffffffffffffffff90811690831603610d0757600d54610d049082611dfe565b90505b80600003610d97576040517f08c379a000000000000000000000000000000000000000000000000000000000815260206004820152602760248201527f4f7065726174696f6e733a2043616e6e6f74207265636f766572207a65726f2060448201527f62616c616e63650000000000000000000000000000000000000000000000000060648201526084016104a3565b610db873ffffffffffffffffffffffffffffffffffffffff8316338361166f565b8173ffffffffffffffffffffffffffffffffffffffff167f14f11966a996e0629572e51064726d2057a80fbd34efc066682c06a71dbb6e9882604051610e0091815260200190565b60405180910390a25050565b610e1461131b565b60025460ff16610e80576040517f08c379a000000000000000000000000000000000000000000000000000000000815260206004820152600b60248201527f4d7573742062652073657400000000000000000000000000000000000000000060448201526064016104a3565b8115610efb576007548111610ef1576040517f08c379a000000000000000000000000000000000000000000000000000000000815260206004820152601860248201527f4e6577206c696d6974206d75737420626520686967686572000000000000000060448201526064016104a3565b6007819055610f2d565b600280547fffffffffffffffffffffffffffffffffffffffffffffffffffffffffffffff001683151517905560006007555b7f241f67ee5f41b7a5cabf911367329be7215900f602ebfc47f89dce2a6bcd847c600754604051610b8191815260200190565b610f6861139c565b336000908152600e60205260409020610f7f61097a565b600280547fffffffffffffffffffffffffffffffffffffffffffffffffffffffffffffff0016911515918217905560ff161580610fc957506007548154610fc69084611f8f565b11155b61102f576040517f08c379a000000000000000000000000000000000000000000000000000000000815260206004820152601b60248201527f4465706f7369743a20416d6f756e742061626f7665206c696d6974000000000060448201526064016104a3565b61103761140f565b8054156110815760008160010154600a54600354846000015461105a9190611f3d565b6110649190611f54565b61106e9190611dfe565b9050801561107f5761107f816114b4565b505b811561109f5761109082611748565b815461109c9190611f8f565b81555b600a5460035482546110b19190611f3d565b6110bb9190611f54565b600182015560405182815233907fe1fffcc4923d04b559f4d29a8bfc6cda04eb5b0d3c460751c2402c5c5cc9109c9060200160405180910390a25061094460018055565b61110761139c565b336000908152600e6020526040812080548282556001820192909255908015611133576111338161147f565b815460405190815233907f5fafa99d0643513820be26656b45130b01e1c03062e1266bf36f88cbd3bd96959060200160405180910390a2505061096a60018055565b61117d61131b565b73ffffffffffffffffffffffffffffffffffffffff8116611220576040517f08c379a000000000000000000000000000000000000000000000000000000000815260206004820152602660248201527f4f776e61626c653a206e6577206f776e657220697320746865207a65726f206160448201527f646472657373000000000000000000000000000000000000000000000000000060648201526084016104a3565b610944816115fa565b73ffffffffffffffffffffffffffffffffffffffff81166000908152600e60205260408120600654431180156112605750600d5415155b156112e9576000611273600654436118bc565b90506000600954826112859190611f3d565b90506000600d54600a548361129a9190611f3d565b6112a49190611f54565b6003546112b19190611f8f565b90508360010154600a548286600001546112cb9190611f3d565b6112d59190611f54565b6112df9190611dfe565b9695505050505050565b6001810154600a5460035483546113009190611f3d565b61130a9190611f54565b6113149190611dfe565b9392505050565b60005473ffffffffffffffffffffffffffffffffffffffff16331461096a576040517f08c379a000000000000000000000000000000000000000000000000000000000815260206004820181905260248201527f4f776e61626c653a2063616c6c6572206973206e6f7420746865206f776e657260448201526064016104a3565b600260015403611408576040517f08c379a000000000000000000000000000000000000000000000000000000000815260206004820152601f60248201527f5265656e7472616e637947756172643a207265656e7472616e742063616c6c0060448201526064016104a3565b6002600155565b600654431161141a57565b600d5460000361142a5743600655565b6000611438600654436118bc565b905060006009548261144a9190611f3d565b9050600d54600a548261145d9190611f3d565b6114679190611f54565b6003546114749190611f8f565b600355505043600655565b80600d5461148d9190611dfe565b600d55600c546109449073ffffffffffffffffffffffffffffffffffffffff16338361166f565b600b546114d89073ffffffffffffffffffffffffffffffffffffffff16338361166f565b600c54600b5473ffffffffffffffffffffffffffffffffffffffff91821691160361094457600d54600c546040517f70a0823100000000000000000000000000000000000000000000000000000000815230600482015273ffffffffffffffffffffffffffffffffffffffff909116906370a0823190602401602060405180830381865afa15801561156e573d6000803e3d6000fd5b505050506040513d601f19601f820116820180604052508101906115929190611fa2565b1015610944576040517f08c379a000000000000000000000000000000000000000000000000000000000815260206004820152600d60248201527f7265776172647320656d7074790000000000000000000000000000000000000060448201526064016104a3565b6000805473ffffffffffffffffffffffffffffffffffffffff8381167fffffffffffffffffffffffff0000000000000000000000000000000000000000831681178455604051919092169283917f8be0079c531659141344cd1fd0a4f28419497f9722a3daafe3b4186f6b6457e09190a35050565b60405173ffffffffffffffffffffffffffffffffffffffff83166024820152604481018290526117439084907fa9059cbb00000000000000000000000000000000000000000000000000000000906064015b604080517fffffffffffffffffffffffffffffffffffffffffffffffffffffffffffffffe08184030181529190526020810180517bffffffffffffffffffffffffffffffffffffffffffffffffffffffff167fffffffff00000000000000000000000000000000000000000000000000000000909316929092179091526118fd565b505050565b600c546040517f70a08231000000000000000000000000000000000000000000000000000000008152306004820152600091829173ffffffffffffffffffffffffffffffffffffffff909116906370a0823190602401602060405180830381865afa1580156117bb573d6000803e3d6000fd5b505050506040513d601f19601f820116820180604052508101906117df9190611fa2565b600c549091506118079073ffffffffffffffffffffffffffffffffffffffff16333086611a09565b600c546040517f70a08231000000000000000000000000000000000000000000000000000000008152306004820152829173ffffffffffffffffffffffffffffffffffffffff16906370a0823190602401602060405180830381865afa158015611875573d6000803e3d6000fd5b505050506040513d601f19601f820116820180604052508101906118999190611fa2565b6118a39190611dfe565b915081600d546118b39190611f8f565b600d5550919050565b600060045482116118d8576118d18383611dfe565b90506118f7565b60045483106118e9575060006118f7565b826004546118d19190611dfe565b92915050565b600061195f826040518060400160405280602081526020017f5361666545524332303a206c6f772d6c6576656c2063616c6c206661696c65648152508573ffffffffffffffffffffffffffffffffffffffff16611a6d9092919063ffffffff16565b805190915015611743578080602001905181019061197d9190611fbb565b611743576040517f08c379a000000000000000000000000000000000000000000000000000000000815260206004820152602a60248201527f5361666545524332303a204552433230206f7065726174696f6e20646964206e60448201527f6f7420737563636565640000000000000000000000000000000000000000000060648201526084016104a3565b60405173ffffffffffffffffffffffffffffffffffffffff80851660248301528316604482015260648101829052611a679085907f23b872dd00000000000000000000000000000000000000000000000000000000906084016116c1565b50505050565b6060611a7c8484600085611a84565b949350505050565b606082471015611b16576040517f08c379a000000000000000000000000000000000000000000000000000000000815260206004820152602660248201527f416464726573733a20696e73756666696369656e742062616c616e636520666f60448201527f722063616c6c000000000000000000000000000000000000000000000000000060648201526084016104a3565b6000808673ffffffffffffffffffffffffffffffffffffffff168587604051611b3f9190611ffc565b60006040518083038185875af1925050503d8060008114611b7c576040519150601f19603f3d011682016040523d82523d6000602084013e611b81565b606091505b5091509150611b9287838387611b9d565b979650505050505050565b60608315611c33578251600003611c2c5773ffffffffffffffffffffffffffffffffffffffff85163b611c2c576040517f08c379a000000000000000000000000000000000000000000000000000000000815260206004820152601d60248201527f416464726573733a2063616c6c20746f206e6f6e2d636f6e747261637400000060448201526064016104a3565b5081611a7c565b611a7c8383815115611c485781518083602001fd5b806040517f08c379a00000000000000000000000000000000000000000000000000000000081526004016104a39190612018565b600060208284031215611c8e57600080fd5b5035919050565b73ffffffffffffffffffffffffffffffffffffffff8116811461094457600080fd5b600060208284031215611cc957600080fd5b813561131481611c95565b600080600080600080600080610100898b031215611cf157600080fd5b8835611cfc81611c95565b97506020890135611d0c81611c95565b965060408901359550606089013594506080890135935060a0890135925060c0890135915060e0890135611d3f81611c95565b809150509295985092959890939650565b60008060408385031215611d6357600080fd5b50508035926020909101359150565b801515811461094457600080fd5b60008060408385031215611d9357600080fd5b8235611d9e81611d72565b946020939093013593505050565b600060208284031215611dbe57600080fd5b815160ff8116811461131457600080fd5b7f4e487b7100000000000000000000000000000000000000000000000000000000600052601160045260246000fd5b818103818111156118f7576118f7611dcf565b600181815b80851115611e6a57817fffffffffffffffffffffffffffffffffffffffffffffffffffffffffffffffff04821115611e5057611e50611dcf565b80851615611e5d57918102915b93841c9390800290611e16565b509250929050565b600082611e81575060016118f7565b81611e8e575060006118f7565b8160018114611ea45760028114611eae57611eca565b60019150506118f7565b60ff841115611ebf57611ebf611dcf565b50506001821b6118f7565b5060208310610133831016604e8410600b8410161715611eed575081810a6118f7565b611ef78383611e11565b807fffffffffffffffffffffffffffffffffffffffffffffffffffffffffffffffff04821115611f2957611f29611dcf565b029392505050565b60006113148383611e72565b80820281158282048414176118f7576118f7611dcf565b600082611f8a577f4e487b7100000000000000000000000000000000000000000000000000000000600052601260045260246000fd5b500490565b808201808211156118f7576118f7611dcf565b600060208284031215611fb457600080fd5b5051919050565b600060208284031215611fcd57600080fd5b815161131481611d72565b60005b83811015611ff3578181015183820152602001611fdb565b50506000910152565b6000825161200e818460208701611fd8565b9190910192915050565b6020815260008251806020840152612037816040850160208701611fd8565b601f017fffffffffffffffffffffffffffffffffffffffffffffffffffffffffffffffe016919091016040019291505056fea264697066735822122076195b76a192f28aab7491bf01a603dcb48bf819bc09ceaaf6bcd4588327beaa64736f6c63430008110033a2646970667358221220032be29c4d0a9703fabdf08eb6334d33aabc4f1863a686f12e84ec85989e4c0664736f6c63430008110033",
					"opcodes": "PUSH1 0x80 PUSH1 0x40 MSTORE CALLVALUE DUP1 ISZERO PUSH2 0x10 JUMPI PUSH1 0x0 DUP1 REVERT JUMPDEST POP PUSH2 0x1A CALLER PUSH2 0x1F JUMP JUMPDEST PUSH2 0x6F JUMP JUMPDEST PUSH1 0x0 DUP1 SLOAD PUSH1 0x1 PUSH1 0x1 PUSH1 0xA0 SHL SUB DUP4 DUP2 AND PUSH1 0x1 PUSH1 0x1 PUSH1 0xA0 SHL SUB NOT DUP4 AND DUP2 OR DUP5 SSTORE PUSH1 0x40 MLOAD SWAP2 SWAP1 SWAP3 AND SWAP3 DUP4 SWAP2 PUSH32 0x8BE0079C531659141344CD1FD0A4F28419497F9722A3DAAFE3B4186F6B6457E0 SWAP2 SWAP1 LOG3 POP POP JUMP JUMPDEST PUSH2 0x2814 DUP1 PUSH2 0x7E PUSH1 0x0 CODECOPY PUSH1 0x0 RETURN INVALID PUSH1 0x80 PUSH1 0x40 MSTORE CALLVALUE DUP1 ISZERO PUSH2 0x10 JUMPI PUSH1 0x0 DUP1 REVERT JUMPDEST POP PUSH1 0x4 CALLDATASIZE LT PUSH2 0x4C JUMPI PUSH1 0x0 CALLDATALOAD PUSH1 0xE0 SHR DUP1 PUSH4 0x715018A6 EQ PUSH2 0x51 JUMPI DUP1 PUSH4 0x8DA5CB5B EQ PUSH2 0x5B JUMPI DUP1 PUSH4 0xBBC22F50 EQ PUSH2 0x87 JUMPI DUP1 PUSH4 0xF2FDE38B EQ PUSH2 0x9A JUMPI JUMPDEST PUSH1 0x0 DUP1 REVERT JUMPDEST PUSH2 0x59 PUSH2 0xAD JUMP JUMPDEST STOP JUMPDEST PUSH1 0x0 SLOAD PUSH1 0x40 DUP1 MLOAD PUSH20 0xFFFFFFFFFFFFFFFFFFFFFFFFFFFFFFFFFFFFFFFF SWAP1 SWAP3 AND DUP3 MSTORE MLOAD SWAP1 DUP2 SWAP1 SUB PUSH1 0x20 ADD SWAP1 RETURN JUMPDEST PUSH2 0x59 PUSH2 0x95 CALLDATASIZE PUSH1 0x4 PUSH2 0x5A0 JUMP JUMPDEST PUSH2 0xC1 JUMP JUMPDEST PUSH2 0x59 PUSH2 0xA8 CALLDATASIZE PUSH1 0x4 PUSH2 0x61C JUMP JUMPDEST PUSH2 0x3BF JUMP JUMPDEST PUSH2 0xB5 PUSH2 0x47B JUMP JUMPDEST PUSH2 0xBF PUSH1 0x0 PUSH2 0x4FC JUMP JUMPDEST JUMP JUMPDEST PUSH2 0xC9 PUSH2 0x47B JUMP JUMPDEST PUSH1 0x0 DUP9 PUSH20 0xFFFFFFFFFFFFFFFFFFFFFFFFFFFFFFFFFFFFFFFF AND PUSH4 0x18160DDD PUSH1 0x40 MLOAD DUP2 PUSH4 0xFFFFFFFF AND PUSH1 0xE0 SHL DUP2 MSTORE PUSH1 0x4 ADD PUSH1 0x20 PUSH1 0x40 MLOAD DUP1 DUP4 SUB DUP2 DUP7 GAS STATICCALL ISZERO DUP1 ISZERO PUSH2 0x116 JUMPI RETURNDATASIZE PUSH1 0x0 DUP1 RETURNDATACOPY RETURNDATASIZE PUSH1 0x0 REVERT JUMPDEST POP POP POP POP PUSH1 0x40 MLOAD RETURNDATASIZE PUSH1 0x1F NOT PUSH1 0x1F DUP3 ADD AND DUP3 ADD DUP1 PUSH1 0x40 MSTORE POP DUP2 ADD SWAP1 PUSH2 0x13A SWAP2 SWAP1 PUSH2 0x640 JUMP JUMPDEST LT ISZERO PUSH2 0x145 JUMPI PUSH1 0x0 DUP1 REVERT JUMPDEST PUSH1 0x0 DUP8 PUSH20 0xFFFFFFFFFFFFFFFFFFFFFFFFFFFFFFFFFFFFFFFF AND PUSH4 0x18160DDD PUSH1 0x40 MLOAD DUP2 PUSH4 0xFFFFFFFF AND PUSH1 0xE0 SHL DUP2 MSTORE PUSH1 0x4 ADD PUSH1 0x20 PUSH1 0x40 MLOAD DUP1 DUP4 SUB DUP2 DUP7 GAS STATICCALL ISZERO DUP1 ISZERO PUSH2 0x192 JUMPI RETURNDATASIZE PUSH1 0x0 DUP1 RETURNDATACOPY RETURNDATASIZE PUSH1 0x0 REVERT JUMPDEST POP POP POP POP PUSH1 0x40 MLOAD RETURNDATASIZE PUSH1 0x1F NOT PUSH1 0x1F DUP3 ADD AND DUP3 ADD DUP1 PUSH1 0x40 MSTORE POP DUP2 ADD SWAP1 PUSH2 0x1B6 SWAP2 SWAP1 PUSH2 0x640 JUMP JUMPDEST LT ISZERO PUSH2 0x1C1 JUMPI PUSH1 0x0 DUP1 REVERT JUMPDEST PUSH1 0x0 PUSH1 0x40 MLOAD DUP1 PUSH1 0x20 ADD PUSH2 0x1D3 SWAP1 PUSH2 0x571 JUMP JUMPDEST PUSH32 0xFFFFFFFFFFFFFFFFFFFFFFFFFFFFFFFFFFFFFFFFFFFFFFFFFFFFFFFFFFFFFFE0 DUP3 DUP3 SUB DUP2 ADD DUP4 MSTORE PUSH1 0x0 PUSH1 0x1F SWAP1 SWAP3 ADD AND SWAP1 DUP2 MSTORE PUSH1 0x20 DUP2 ADD PUSH1 0x40 SWAP1 DUP2 MSTORE SWAP2 SWAP3 POP PUSH2 0x220 SWAP2 DUP4 SWAP2 SWAP1 DUP2 ADD PUSH2 0x689 JUMP JUMPDEST PUSH1 0x40 DUP1 MLOAD PUSH32 0xFFFFFFFFFFFFFFFFFFFFFFFFFFFFFFFFFFFFFFFFFFFFFFFFFFFFFFFFFFFFFFE0 DUP2 DUP5 SUB ADD DUP2 MSTORE SWAP1 DUP3 SWAP1 MSTORE PUSH32 0xFFFFFFFFFFFFFFFFFFFFFFFFFFFFFFFFFFFFFFFF000000000000000000000000 PUSH1 0x60 DUP13 DUP2 SHL DUP3 AND PUSH1 0x20 DUP6 ADD MSTORE DUP12 SWAP1 SHL AND PUSH1 0x34 DUP4 ADD MSTORE PUSH1 0x48 DUP3 ADD DUP9 SWAP1 MSTORE SWAP2 POP PUSH1 0x0 SWAP1 PUSH1 0x68 ADD PUSH1 0x40 MLOAD PUSH1 0x20 DUP2 DUP4 SUB SUB DUP2 MSTORE SWAP1 PUSH1 0x40 MSTORE DUP1 MLOAD SWAP1 PUSH1 0x20 ADD KECCAK256 SWAP1 POP PUSH1 0x0 DUP2 DUP4 MLOAD PUSH1 0x20 DUP6 ADD PUSH1 0x0 CREATE2 PUSH1 0x40 MLOAD PUSH32 0x2AA2C38100000000000000000000000000000000000000000000000000000000 DUP2 MSTORE PUSH20 0xFFFFFFFFFFFFFFFFFFFFFFFFFFFFFFFFFFFFFFFF DUP14 DUP2 AND PUSH1 0x4 DUP4 ADD MSTORE DUP13 DUP2 AND PUSH1 0x24 DUP4 ADD MSTORE PUSH1 0x44 DUP3 ADD DUP13 SWAP1 MSTORE PUSH1 0x64 DUP3 ADD DUP12 SWAP1 MSTORE PUSH1 0x84 DUP3 ADD DUP11 SWAP1 MSTORE PUSH1 0xA4 DUP3 ADD DUP10 SWAP1 MSTORE PUSH1 0xC4 DUP3 ADD DUP9 SWAP1 MSTORE DUP7 DUP2 AND PUSH1 0xE4 DUP4 ADD MSTORE SWAP2 SWAP3 POP SWAP1 DUP3 AND SWAP1 PUSH4 0x2AA2C381 SWAP1 PUSH2 0x104 ADD PUSH1 0x0 PUSH1 0x40 MLOAD DUP1 DUP4 SUB DUP2 PUSH1 0x0 DUP8 DUP1 EXTCODESIZE ISZERO DUP1 ISZERO PUSH2 0x359 JUMPI PUSH1 0x0 DUP1 REVERT JUMPDEST POP GAS CALL ISZERO DUP1 ISZERO PUSH2 0x36D JUMPI RETURNDATASIZE PUSH1 0x0 DUP1 RETURNDATACOPY RETURNDATASIZE PUSH1 0x0 REVERT JUMPDEST POP POP PUSH1 0x40 MLOAD PUSH20 0xFFFFFFFFFFFFFFFFFFFFFFFFFFFFFFFFFFFFFFFF DUP5 AND SWAP3 POP PUSH32 0xE0D103A92C6FF6C4ACEB49D436F4028E0DEB4884FDBCB9F32B03045EABB44A6C SWAP2 POP PUSH1 0x0 SWAP1 LOG2 POP POP POP POP POP POP POP POP POP POP POP JUMP JUMPDEST PUSH2 0x3C7 PUSH2 0x47B JUMP JUMPDEST PUSH20 0xFFFFFFFFFFFFFFFFFFFFFFFFFFFFFFFFFFFFFFFF DUP2 AND PUSH2 0x46F JUMPI PUSH1 0x40 MLOAD PUSH32 0x8C379A000000000000000000000000000000000000000000000000000000000 DUP2 MSTORE PUSH1 0x20 PUSH1 0x4 DUP3 ADD MSTORE PUSH1 0x26 PUSH1 0x24 DUP3 ADD MSTORE PUSH32 0x4F776E61626C653A206E6577206F776E657220697320746865207A65726F2061 PUSH1 0x44 DUP3 ADD MSTORE PUSH32 0x6464726573730000000000000000000000000000000000000000000000000000 PUSH1 0x64 DUP3 ADD MSTORE PUSH1 0x84 ADD JUMPDEST PUSH1 0x40 MLOAD DUP1 SWAP2 SUB SWAP1 REVERT JUMPDEST PUSH2 0x478 DUP2 PUSH2 0x4FC JUMP JUMPDEST POP JUMP JUMPDEST PUSH1 0x0 SLOAD PUSH20 0xFFFFFFFFFFFFFFFFFFFFFFFFFFFFFFFFFFFFFFFF AND CALLER EQ PUSH2 0xBF JUMPI PUSH1 0x40 MLOAD PUSH32 0x8C379A000000000000000000000000000000000000000000000000000000000 DUP2 MSTORE PUSH1 0x20 PUSH1 0x4 DUP3 ADD DUP2 SWAP1 MSTORE PUSH1 0x24 DUP3 ADD MSTORE PUSH32 0x4F776E61626C653A2063616C6C6572206973206E6F7420746865206F776E6572 PUSH1 0x44 DUP3 ADD MSTORE PUSH1 0x64 ADD PUSH2 0x466 JUMP JUMPDEST PUSH1 0x0 DUP1 SLOAD PUSH20 0xFFFFFFFFFFFFFFFFFFFFFFFFFFFFFFFFFFFFFFFF DUP4 DUP2 AND PUSH32 0xFFFFFFFFFFFFFFFFFFFFFFFF0000000000000000000000000000000000000000 DUP4 AND DUP2 OR DUP5 SSTORE PUSH1 0x40 MLOAD SWAP2 SWAP1 SWAP3 AND SWAP3 DUP4 SWAP2 PUSH32 0x8BE0079C531659141344CD1FD0A4F28419497F9722A3DAAFE3B4186F6B6457E0 SWAP2 SWAP1 LOG3 POP POP JUMP JUMPDEST PUSH2 0x2138 DUP1 PUSH2 0x6A7 DUP4 CODECOPY ADD SWAP1 JUMP JUMPDEST PUSH20 0xFFFFFFFFFFFFFFFFFFFFFFFFFFFFFFFFFFFFFFFF DUP2 AND DUP2 EQ PUSH2 0x478 JUMPI PUSH1 0x0 DUP1 REVERT JUMPDEST PUSH1 0x0 DUP1 PUSH1 0x0 DUP1 PUSH1 0x0 DUP1 PUSH1 0x0 DUP1 PUSH2 0x100 DUP10 DUP12 SUB SLT ISZERO PUSH2 0x5BD JUMPI PUSH1 0x0 DUP1 REVERT JUMPDEST DUP9 CALLDATALOAD PUSH2 0x5C8 DUP2 PUSH2 0x57E JUMP JUMPDEST SWAP8 POP PUSH1 0x20 DUP10 ADD CALLDATALOAD PUSH2 0x5D8 DUP2 PUSH2 0x57E JUMP JUMPDEST SWAP7 POP PUSH1 0x40 DUP10 ADD CALLDATALOAD SWAP6 POP PUSH1 0x60 DUP10 ADD CALLDATALOAD SWAP5 POP PUSH1 0x80 DUP10 ADD CALLDATALOAD SWAP4 POP PUSH1 0xA0 DUP10 ADD CALLDATALOAD SWAP3 POP PUSH1 0xC0 DUP10 ADD CALLDATALOAD SWAP2 POP PUSH1 0xE0 DUP10 ADD CALLDATALOAD PUSH2 0x60B DUP2 PUSH2 0x57E JUMP JUMPDEST DUP1 SWAP2 POP POP SWAP3 SWAP6 SWAP9 POP SWAP3 SWAP6 SWAP9 SWAP1 SWAP4 SWAP7 POP JUMP JUMPDEST PUSH1 0x0 PUSH1 0x20 DUP3 DUP5 SUB SLT ISZERO PUSH2 0x62E JUMPI PUSH1 0x0 DUP1 REVERT JUMPDEST DUP2 CALLDATALOAD PUSH2 0x639 DUP2 PUSH2 0x57E JUMP JUMPDEST SWAP4 SWAP3 POP POP POP JUMP JUMPDEST PUSH1 0x0 PUSH1 0x20 DUP3 DUP5 SUB SLT ISZERO PUSH2 0x652 JUMPI PUSH1 0x0 DUP1 REVERT JUMPDEST POP MLOAD SWAP2 SWAP1 POP JUMP JUMPDEST PUSH1 0x0 DUP2 MLOAD PUSH1 0x0 JUMPDEST DUP2 DUP2 LT ISZERO PUSH2 0x67A JUMPI PUSH1 0x20 DUP2 DUP6 ADD DUP2 ADD MLOAD DUP7 DUP4 ADD MSTORE ADD PUSH2 0x660 JUMP JUMPDEST POP PUSH1 0x0 SWAP4 ADD SWAP3 DUP4 MSTORE POP SWAP1 SWAP2 SWAP1 POP JUMP JUMPDEST PUSH1 0x0 PUSH2 0x69E PUSH2 0x698 DUP4 DUP7 PUSH2 0x659 JUMP JUMPDEST DUP5 PUSH2 0x659 JUMP JUMPDEST SWAP5 SWAP4 POP POP POP POP JUMP INVALID PUSH1 0xA0 PUSH1 0x40 MSTORE CALLVALUE DUP1 ISZERO PUSH2 0x10 JUMPI PUSH1 0x0 DUP1 REVERT JUMPDEST POP PUSH2 0x1A CALLER PUSH2 0x27 JUMP JUMPDEST PUSH1 0x1 DUP1 SSTORE CALLER PUSH1 0x80 MSTORE PUSH2 0x77 JUMP JUMPDEST PUSH1 0x0 DUP1 SLOAD PUSH1 0x1 PUSH1 0x1 PUSH1 0xA0 SHL SUB DUP4 DUP2 AND PUSH1 0x1 PUSH1 0x1 PUSH1 0xA0 SHL SUB NOT DUP4 AND DUP2 OR DUP5 SSTORE PUSH1 0x40 MLOAD SWAP2 SWAP1 SWAP3 AND SWAP3 DUP4 SWAP2 PUSH32 0x8BE0079C531659141344CD1FD0A4F28419497F9722A3DAAFE3B4186F6B6457E0 SWAP2 SWAP1 LOG3 POP POP JUMP JUMPDEST PUSH1 0x80 MLOAD PUSH2 0x209F PUSH2 0x99 PUSH1 0x0 CODECOPY PUSH1 0x0 DUP2 DUP2 PUSH2 0x39B ADD MSTORE PUSH2 0x571 ADD MSTORE PUSH2 0x209F PUSH1 0x0 RETURN INVALID PUSH1 0x80 PUSH1 0x40 MSTORE CALLVALUE DUP1 ISZERO PUSH2 0x10 JUMPI PUSH1 0x0 DUP1 REVERT JUMPDEST POP PUSH1 0x4 CALLDATASIZE LT PUSH2 0x1DA JUMPI PUSH1 0x0 CALLDATALOAD PUSH1 0xE0 SHR DUP1 PUSH4 0x8F662915 GT PUSH2 0x104 JUMPI DUP1 PUSH4 0xB6B55F25 GT PUSH2 0xA2 JUMPI DUP1 PUSH4 0xDB2E21BC GT PUSH2 0x71 JUMPI DUP1 PUSH4 0xDB2E21BC EQ PUSH2 0x3E6 JUMPI DUP1 PUSH4 0xF2FDE38B EQ PUSH2 0x3EE JUMPI DUP1 PUSH4 0xF40F0F52 EQ PUSH2 0x401 JUMPI DUP1 PUSH4 0xF7C618C1 EQ PUSH2 0x414 JUMPI PUSH1 0x0 DUP1 REVERT JUMPDEST DUP1 PUSH4 0xB6B55F25 EQ PUSH2 0x383 JUMPI DUP1 PUSH4 0xBD617191 EQ PUSH2 0x396 JUMPI DUP1 PUSH4 0xCC7A262E EQ PUSH2 0x3BD JUMPI DUP1 PUSH4 0xCCD34CD5 EQ PUSH2 0x3DD JUMPI PUSH1 0x0 DUP1 REVERT JUMPDEST DUP1 PUSH4 0x9BE65A60 GT PUSH2 0xDE JUMPI DUP1 PUSH4 0x9BE65A60 EQ PUSH2 0x34B JUMPI DUP1 PUSH4 0x9C367BC2 EQ PUSH2 0x35E JUMPI DUP1 PUSH4 0xA0B40905 EQ PUSH2 0x367 JUMPI DUP1 PUSH4 0xA9F8D181 EQ PUSH2 0x37A JUMPI PUSH1 0x0 DUP1 REVERT JUMPDEST DUP1 PUSH4 0x8F662915 EQ PUSH2 0x327 JUMPI DUP1 PUSH4 0x92E8990E EQ PUSH2 0x330 JUMPI DUP1 PUSH4 0x9513997F EQ PUSH2 0x338 JUMPI PUSH1 0x0 DUP1 REVERT JUMPDEST DUP1 PUSH4 0x48CD4CB1 GT PUSH2 0x17C JUMPI DUP1 PUSH4 0x80DC0672 GT PUSH2 0x14B JUMPI DUP1 PUSH4 0x80DC0672 EQ PUSH2 0x2CE JUMPI DUP1 PUSH4 0x8AD1071B EQ PUSH2 0x2D6 JUMPI DUP1 PUSH4 0x8AE39CAC EQ PUSH2 0x2DF JUMPI DUP1 PUSH4 0x8DA5CB5B EQ PUSH2 0x2E8 JUMPI PUSH1 0x0 DUP1 REVERT JUMPDEST DUP1 PUSH4 0x48CD4CB1 EQ PUSH2 0x2A7 JUMPI DUP1 PUSH4 0x4A7C01EC EQ PUSH2 0x2B0 JUMPI DUP1 PUSH4 0x66FE9F8A EQ PUSH2 0x2BD JUMPI DUP1 PUSH4 0x715018A6 EQ PUSH2 0x2C6 JUMPI PUSH1 0x0 DUP1 REVERT JUMPDEST DUP1 PUSH4 0x2AA2C381 GT PUSH2 0x1B8 JUMPI DUP1 PUSH4 0x2AA2C381 EQ PUSH2 0x24C JUMPI DUP1 PUSH4 0x2E1A7D4D EQ PUSH2 0x25F JUMPI DUP1 PUSH4 0x3279BEAB EQ PUSH2 0x272 JUMPI DUP1 PUSH4 0x392E53CD EQ PUSH2 0x285 JUMPI PUSH1 0x0 DUP1 REVERT JUMPDEST DUP1 PUSH4 0x1F8A976 EQ PUSH2 0x1DF JUMPI DUP1 PUSH4 0x1959A002 EQ PUSH2 0x1F4 JUMPI DUP1 PUSH4 0x1AED6553 EQ PUSH2 0x235 JUMPI JUMPDEST PUSH1 0x0 DUP1 REVERT JUMPDEST PUSH2 0x1F2 PUSH2 0x1ED CALLDATASIZE PUSH1 0x4 PUSH2 0x1C7C JUMP JUMPDEST PUSH2 0x434 JUMP JUMPDEST STOP JUMPDEST PUSH2 0x21B PUSH2 0x202 CALLDATASIZE PUSH1 0x4 PUSH2 0x1CB7 JUMP JUMPDEST PUSH1 0xE PUSH1 0x20 MSTORE PUSH1 0x0 SWAP1 DUP2 MSTORE PUSH1 0x40 SWAP1 KECCAK256 DUP1 SLOAD PUSH1 0x1 SWAP1 SWAP2 ADD SLOAD DUP3 JUMP JUMPDEST PUSH1 0x40 DUP1 MLOAD SWAP3 DUP4 MSTORE PUSH1 0x20 DUP4 ADD SWAP2 SWAP1 SWAP2 MSTORE ADD JUMPDEST PUSH1 0x40 MLOAD DUP1 SWAP2 SUB SWAP1 RETURN JUMPDEST PUSH2 0x23E PUSH1 0x4 SLOAD DUP2 JUMP JUMPDEST PUSH1 0x40 MLOAD SWAP1 DUP2 MSTORE PUSH1 0x20 ADD PUSH2 0x22C JUMP JUMPDEST PUSH2 0x1F2 PUSH2 0x25A CALLDATASIZE PUSH1 0x4 PUSH2 0x1CD4 JUMP JUMPDEST PUSH2 0x4E7 JUMP JUMPDEST PUSH2 0x1F2 PUSH2 0x26D CALLDATASIZE PUSH1 0x4 PUSH2 0x1C7C JUMP JUMPDEST PUSH2 0x7FA JUMP JUMPDEST PUSH2 0x1F2 PUSH2 0x280 CALLDATASIZE PUSH1 0x4 PUSH2 0x1C7C JUMP JUMPDEST PUSH2 0x947 JUMP JUMPDEST PUSH1 0x2 SLOAD PUSH2 0x297 SWAP1 PUSH2 0x100 SWAP1 DIV PUSH1 0xFF AND DUP2 JUMP JUMPDEST PUSH1 0x40 MLOAD SWAP1 ISZERO ISZERO DUP2 MSTORE PUSH1 0x20 ADD PUSH2 0x22C JUMP JUMPDEST PUSH2 0x23E PUSH1 0x5 SLOAD DUP2 JUMP JUMPDEST PUSH1 0x2 SLOAD PUSH2 0x297 SWAP1 PUSH1 0xFF AND DUP2 JUMP JUMPDEST PUSH2 0x23E PUSH1 0x7 SLOAD DUP2 JUMP JUMPDEST PUSH2 0x1F2 PUSH2 0x958 JUMP JUMPDEST PUSH2 0x1F2 PUSH2 0x96C JUMP JUMPDEST PUSH2 0x23E PUSH1 0x8 SLOAD DUP2 JUMP JUMPDEST PUSH2 0x23E PUSH1 0x9 SLOAD DUP2 JUMP JUMPDEST PUSH1 0x0 SLOAD PUSH20 0xFFFFFFFFFFFFFFFFFFFFFFFFFFFFFFFFFFFFFFFF AND JUMPDEST PUSH1 0x40 MLOAD PUSH20 0xFFFFFFFFFFFFFFFFFFFFFFFFFFFFFFFFFFFFFFFF SWAP1 SWAP2 AND DUP2 MSTORE PUSH1 0x20 ADD PUSH2 0x22C JUMP JUMPDEST PUSH2 0x23E PUSH1 0x3 SLOAD DUP2 JUMP JUMPDEST PUSH2 0x297 PUSH2 0x97A JUMP JUMPDEST PUSH2 0x1F2 PUSH2 0x346 CALLDATASIZE PUSH1 0x4 PUSH2 0x1D50 JUMP JUMPDEST PUSH2 0x9AF JUMP JUMPDEST PUSH2 0x1F2 PUSH2 0x359 CALLDATASIZE PUSH1 0x4 PUSH2 0x1CB7 JUMP JUMPDEST PUSH2 0xB8D JUMP JUMPDEST PUSH2 0x23E PUSH1 0xD SLOAD DUP2 JUMP JUMPDEST PUSH2 0x1F2 PUSH2 0x375 CALLDATASIZE PUSH1 0x4 PUSH2 0x1D80 JUMP JUMPDEST PUSH2 0xE0C JUMP JUMPDEST PUSH2 0x23E PUSH1 0x6 SLOAD DUP2 JUMP JUMPDEST PUSH2 0x1F2 PUSH2 0x391 CALLDATASIZE PUSH1 0x4 PUSH2 0x1C7C JUMP JUMPDEST PUSH2 0xF60 JUMP JUMPDEST PUSH2 0x302 PUSH32 0x0 DUP2 JUMP JUMPDEST PUSH1 0xC SLOAD PUSH2 0x302 SWAP1 PUSH20 0xFFFFFFFFFFFFFFFFFFFFFFFFFFFFFFFFFFFFFFFF AND DUP2 JUMP JUMPDEST PUSH2 0x23E PUSH1 0xA SLOAD DUP2 JUMP JUMPDEST PUSH2 0x1F2 PUSH2 0x10FF JUMP JUMPDEST PUSH2 0x1F2 PUSH2 0x3FC CALLDATASIZE PUSH1 0x4 PUSH2 0x1CB7 JUMP JUMPDEST PUSH2 0x1175 JUMP JUMPDEST PUSH2 0x23E PUSH2 0x40F CALLDATASIZE PUSH1 0x4 PUSH2 0x1CB7 JUMP JUMPDEST PUSH2 0x1229 JUMP JUMPDEST PUSH1 0xB SLOAD PUSH2 0x302 SWAP1 PUSH20 0xFFFFFFFFFFFFFFFFFFFFFFFFFFFFFFFFFFFFFFFF AND DUP2 JUMP JUMPDEST PUSH2 0x43C PUSH2 0x131B JUMP JUMPDEST PUSH1 0x5 SLOAD NUMBER LT PUSH2 0x4AC JUMPI PUSH1 0x40 MLOAD PUSH32 0x8C379A000000000000000000000000000000000000000000000000000000000 DUP2 MSTORE PUSH1 0x20 PUSH1 0x4 DUP3 ADD MSTORE PUSH1 0x10 PUSH1 0x24 DUP3 ADD MSTORE PUSH32 0x506F6F6C20686173207374617274656400000000000000000000000000000000 PUSH1 0x44 DUP3 ADD MSTORE PUSH1 0x64 ADD JUMPDEST PUSH1 0x40 MLOAD DUP1 SWAP2 SUB SWAP1 REVERT JUMPDEST PUSH1 0x9 DUP2 SWAP1 SSTORE PUSH1 0x40 MLOAD DUP2 DUP2 MSTORE PUSH32 0xC4D677EEF92893AC7EC52FAF8140FC6C851AB4736302B4F3A89DFB20696A0DF SWAP1 PUSH1 0x20 ADD PUSH1 0x40 MLOAD DUP1 SWAP2 SUB SWAP1 LOG1 POP JUMP JUMPDEST PUSH1 0x2 SLOAD PUSH2 0x100 SWAP1 DIV PUSH1 0xFF AND ISZERO PUSH2 0x559 JUMPI PUSH1 0x40 MLOAD PUSH32 0x8C379A000000000000000000000000000000000000000000000000000000000 DUP2 MSTORE PUSH1 0x20 PUSH1 0x4 DUP3 ADD MSTORE PUSH1 0x13 PUSH1 0x24 DUP3 ADD MSTORE PUSH32 0x416C726561647920696E697469616C697A656400000000000000000000000000 PUSH1 0x44 DUP3 ADD MSTORE PUSH1 0x64 ADD PUSH2 0x4A3 JUMP JUMPDEST CALLER PUSH20 0xFFFFFFFFFFFFFFFFFFFFFFFFFFFFFFFFFFFFFFFF PUSH32 0x0 AND EQ PUSH2 0x5F8 JUMPI PUSH1 0x40 MLOAD PUSH32 0x8C379A000000000000000000000000000000000000000000000000000000000 DUP2 MSTORE PUSH1 0x20 PUSH1 0x4 DUP3 ADD MSTORE PUSH1 0xB PUSH1 0x24 DUP3 ADD MSTORE PUSH32 0x4E6F7420666163746F7279000000000000000000000000000000000000000000 PUSH1 0x44 DUP3 ADD MSTORE PUSH1 0x64 ADD PUSH2 0x4A3 JUMP JUMPDEST PUSH1 0x2 DUP1 SLOAD PUSH32 0xFFFFFFFFFFFFFFFFFFFFFFFFFFFFFFFFFFFFFFFFFFFFFFFFFFFFFFFFFFFF00FF AND PUSH2 0x100 OR SWAP1 SSTORE PUSH1 0xC DUP1 SLOAD PUSH20 0xFFFFFFFFFFFFFFFFFFFFFFFFFFFFFFFFFFFFFFFF DUP1 DUP12 AND PUSH32 0xFFFFFFFFFFFFFFFFFFFFFFFF0000000000000000000000000000000000000000 SWAP3 DUP4 AND OR SWAP1 SWAP3 SSTORE PUSH1 0xB DUP1 SLOAD SWAP3 DUP11 AND SWAP3 SWAP1 SWAP2 AND SWAP2 SWAP1 SWAP2 OR SWAP1 SSTORE PUSH1 0x9 DUP7 SWAP1 SSTORE PUSH1 0x5 DUP6 SWAP1 SSTORE PUSH1 0x4 DUP5 SWAP1 SSTORE DUP3 ISZERO PUSH2 0x6C4 JUMPI PUSH1 0x2 DUP1 SLOAD PUSH32 0xFFFFFFFFFFFFFFFFFFFFFFFFFFFFFFFFFFFFFFFFFFFFFFFFFFFFFFFFFFFFFF00 AND PUSH1 0x1 OR SWAP1 SSTORE PUSH1 0x7 DUP4 SWAP1 SSTORE PUSH1 0x8 DUP3 SWAP1 SSTORE JUMPDEST PUSH1 0xB SLOAD PUSH1 0x40 DUP1 MLOAD PUSH32 0x313CE56700000000000000000000000000000000000000000000000000000000 DUP2 MSTORE SWAP1 MLOAD PUSH1 0x0 SWAP3 PUSH20 0xFFFFFFFFFFFFFFFFFFFFFFFFFFFFFFFFFFFFFFFF AND SWAP2 PUSH4 0x313CE567 SWAP2 PUSH1 0x4 DUP1 DUP4 ADD SWAP3 PUSH1 0x20 SWAP3 SWAP2 SWAP1 DUP3 SWAP1 SUB ADD DUP2 DUP7 GAS STATICCALL ISZERO DUP1 ISZERO PUSH2 0x734 JUMPI RETURNDATASIZE PUSH1 0x0 DUP1 RETURNDATACOPY RETURNDATASIZE PUSH1 0x0 REVERT JUMPDEST POP POP POP POP PUSH1 0x40 MLOAD RETURNDATASIZE PUSH1 0x1F NOT PUSH1 0x1F DUP3 ADD AND DUP3 ADD DUP1 PUSH1 0x40 MSTORE POP DUP2 ADD SWAP1 PUSH2 0x758 SWAP2 SWAP1 PUSH2 0x1DAC JUMP JUMPDEST PUSH1 0xFF AND SWAP1 POP PUSH1 0x1E DUP2 LT PUSH2 0x7C7 JUMPI PUSH1 0x40 MLOAD PUSH32 0x8C379A000000000000000000000000000000000000000000000000000000000 DUP2 MSTORE PUSH1 0x20 PUSH1 0x4 DUP3 ADD MSTORE PUSH1 0x16 PUSH1 0x24 DUP3 ADD MSTORE PUSH32 0x4D75737420626520696E666572696F7220746F20333000000000000000000000 PUSH1 0x44 DUP3 ADD MSTORE PUSH1 0x64 ADD PUSH2 0x4A3 JUMP JUMPDEST PUSH2 0x7D2 DUP2 PUSH1 0x1E PUSH2 0x1DFE JUMP JUMPDEST PUSH2 0x7DD SWAP1 PUSH1 0xA PUSH2 0x1F31 JUMP JUMPDEST PUSH1 0xA SSTORE PUSH1 0x5 SLOAD PUSH1 0x6 SSTORE PUSH2 0x7EF DUP3 PUSH2 0x1175 JUMP JUMPDEST POP POP POP POP POP POP POP POP POP JUMP JUMPDEST PUSH2 0x802 PUSH2 0x139C JUMP JUMPDEST CALLER PUSH1 0x0 SWAP1 DUP2 MSTORE PUSH1 0xE PUSH1 0x20 MSTORE PUSH1 0x40 SWAP1 KECCAK256 DUP1 SLOAD DUP3 GT ISZERO PUSH2 0x87C JUMPI PUSH1 0x40 MLOAD PUSH32 0x8C379A000000000000000000000000000000000000000000000000000000000 DUP2 MSTORE PUSH1 0x20 PUSH1 0x4 DUP3 ADD MSTORE PUSH1 0x1B PUSH1 0x24 DUP3 ADD MSTORE PUSH32 0x416D6F756E7420746F20776974686472617720746F6F20686967680000000000 PUSH1 0x44 DUP3 ADD MSTORE PUSH1 0x64 ADD PUSH2 0x4A3 JUMP JUMPDEST PUSH2 0x884 PUSH2 0x140F JUMP JUMPDEST PUSH1 0x0 DUP2 PUSH1 0x1 ADD SLOAD PUSH1 0xA SLOAD PUSH1 0x3 SLOAD DUP5 PUSH1 0x0 ADD SLOAD PUSH2 0x8A0 SWAP2 SWAP1 PUSH2 0x1F3D JUMP JUMPDEST PUSH2 0x8AA SWAP2 SWAP1 PUSH2 0x1F54 JUMP JUMPDEST PUSH2 0x8B4 SWAP2 SWAP1 PUSH2 0x1DFE JUMP JUMPDEST SWAP1 POP DUP3 ISZERO PUSH2 0x8D4 JUMPI DUP2 SLOAD PUSH2 0x8C9 SWAP1 DUP5 SWAP1 PUSH2 0x1DFE JUMP JUMPDEST DUP3 SSTORE PUSH2 0x8D4 DUP4 PUSH2 0x147F JUMP JUMPDEST DUP1 ISZERO PUSH2 0x8E3 JUMPI PUSH2 0x8E3 DUP2 PUSH2 0x14B4 JUMP JUMPDEST PUSH1 0xA SLOAD PUSH1 0x3 SLOAD DUP4 SLOAD PUSH2 0x8F5 SWAP2 SWAP1 PUSH2 0x1F3D JUMP JUMPDEST PUSH2 0x8FF SWAP2 SWAP1 PUSH2 0x1F54 JUMP JUMPDEST PUSH1 0x1 DUP4 ADD SSTORE PUSH1 0x40 MLOAD DUP4 DUP2 MSTORE CALLER SWAP1 PUSH32 0x884EDAD9CE6FA2440D8A54CC123490EB96D2768479D49FF9C7366125A9424364 SWAP1 PUSH1 0x20 ADD PUSH1 0x40 MLOAD DUP1 SWAP2 SUB SWAP1 LOG2 POP POP PUSH2 0x944 PUSH1 0x1 DUP1 SSTORE JUMP JUMPDEST POP JUMP JUMPDEST PUSH2 0x94F PUSH2 0x131B JUMP JUMPDEST PUSH2 0x944 DUP2 PUSH2 0x14B4 JUMP JUMPDEST PUSH2 0x960 PUSH2 0x131B JUMP JUMPDEST PUSH2 0x96A PUSH1 0x0 PUSH2 0x15FA JUMP JUMPDEST JUMP JUMPDEST PUSH2 0x974 PUSH2 0x131B JUMP JUMPDEST NUMBER PUSH1 0x4 SSTORE JUMP JUMPDEST PUSH1 0x2 SLOAD PUSH1 0x0 SWAP1 PUSH1 0xFF AND ISZERO DUP1 PUSH2 0x99E JUMPI POP PUSH1 0x8 SLOAD PUSH1 0x5 SLOAD PUSH2 0x99A SWAP2 SWAP1 PUSH2 0x1F8F JUMP JUMPDEST NUMBER LT ISZERO JUMPDEST ISZERO PUSH2 0x9A9 JUMPI POP PUSH1 0x0 SWAP1 JUMP JUMPDEST POP PUSH1 0x1 SWAP1 JUMP JUMPDEST PUSH2 0x9B7 PUSH2 0x131B JUMP JUMPDEST PUSH1 0x5 SLOAD NUMBER LT PUSH2 0xA22 JUMPI PUSH1 0x40 MLOAD PUSH32 0x8C379A000000000000000000000000000000000000000000000000000000000 DUP2 MSTORE PUSH1 0x20 PUSH1 0x4 DUP3 ADD MSTORE PUSH1 0x10 PUSH1 0x24 DUP3 ADD MSTORE PUSH32 0x506F6F6C20686173207374617274656400000000000000000000000000000000 PUSH1 0x44 DUP3 ADD MSTORE PUSH1 0x64 ADD PUSH2 0x4A3 JUMP JUMPDEST DUP1 DUP3 LT PUSH2 0xAB1 JUMPI PUSH1 0x40 MLOAD PUSH32 0x8C379A000000000000000000000000000000000000000000000000000000000 DUP2 MSTORE PUSH1 0x20 PUSH1 0x4 DUP3 ADD MSTORE PUSH1 0x2E PUSH1 0x24 DUP3 ADD MSTORE PUSH32 0x4E6577207374617274426C6F636B206D757374206265206C6F77657220746861 PUSH1 0x44 DUP3 ADD MSTORE PUSH32 0x6E206E657720656E64426C6F636B000000000000000000000000000000000000 PUSH1 0x64 DUP3 ADD MSTORE PUSH1 0x84 ADD PUSH2 0x4A3 JUMP JUMPDEST DUP2 NUMBER LT PUSH2 0xB40 JUMPI PUSH1 0x40 MLOAD PUSH32 0x8C379A000000000000000000000000000000000000000000000000000000000 DUP2 MSTORE PUSH1 0x20 PUSH1 0x4 DUP3 ADD MSTORE PUSH1 0x30 PUSH1 0x24 DUP3 ADD MSTORE PUSH32 0x4E6577207374617274426C6F636B206D75737420626520686967686572207468 PUSH1 0x44 DUP3 ADD MSTORE PUSH32 0x616E2063757272656E7420626C6F636B00000000000000000000000000000000 PUSH1 0x64 DUP3 ADD MSTORE PUSH1 0x84 ADD PUSH2 0x4A3 JUMP JUMPDEST PUSH1 0x5 DUP3 SWAP1 SSTORE PUSH1 0x4 DUP2 SWAP1 SSTORE PUSH1 0x6 DUP3 SWAP1 SSTORE PUSH1 0x40 DUP1 MLOAD DUP4 DUP2 MSTORE PUSH1 0x20 DUP2 ADD DUP4 SWAP1 MSTORE PUSH32 0x7CD0AB87D19036F3DFADADB232C78AA4879DDA3F0C994A9D637532410EE2CE06 SWAP2 ADD JUMPDEST PUSH1 0x40 MLOAD DUP1 SWAP2 SUB SWAP1 LOG1 POP POP JUMP JUMPDEST PUSH2 0xB95 PUSH2 0x131B JUMP JUMPDEST PUSH1 0xB SLOAD PUSH20 0xFFFFFFFFFFFFFFFFFFFFFFFFFFFFFFFFFFFFFFFF SWAP1 DUP2 AND SWAP1 DUP3 AND SUB PUSH2 0xC40 JUMPI PUSH1 0x40 MLOAD PUSH32 0x8C379A000000000000000000000000000000000000000000000000000000000 DUP2 MSTORE PUSH1 0x20 PUSH1 0x4 DUP3 ADD MSTORE PUSH1 0x27 PUSH1 0x24 DUP3 ADD MSTORE PUSH32 0x4F7065726174696F6E733A2043616E6E6F74207265636F766572207265776172 PUSH1 0x44 DUP3 ADD MSTORE PUSH32 0x6420746F6B656E00000000000000000000000000000000000000000000000000 PUSH1 0x64 DUP3 ADD MSTORE PUSH1 0x84 ADD PUSH2 0x4A3 JUMP JUMPDEST PUSH1 0x40 MLOAD PUSH32 0x70A0823100000000000000000000000000000000000000000000000000000000 DUP2 MSTORE ADDRESS PUSH1 0x4 DUP3 ADD MSTORE PUSH1 0x0 SWAP1 PUSH20 0xFFFFFFFFFFFFFFFFFFFFFFFFFFFFFFFFFFFFFFFF DUP4 AND SWAP1 PUSH4 0x70A08231 SWAP1 PUSH1 0x24 ADD PUSH1 0x20 PUSH1 0x40 MLOAD DUP1 DUP4 SUB DUP2 DUP7 GAS STATICCALL ISZERO DUP1 ISZERO PUSH2 0xCAD JUMPI RETURNDATASIZE PUSH1 0x0 DUP1 RETURNDATACOPY RETURNDATASIZE PUSH1 0x0 REVERT JUMPDEST POP POP POP POP PUSH1 0x40 MLOAD RETURNDATASIZE PUSH1 0x1F NOT PUSH1 0x1F DUP3 ADD AND DUP3 ADD DUP1 PUSH1 0x40 MSTORE POP DUP2 ADD SWAP1 PUSH2 0xCD1 SWAP2 SWAP1 PUSH2 0x1FA2 JUMP JUMPDEST PUSH1 0xC SLOAD SWAP1 SWAP2 POP PUSH20 0xFFFFFFFFFFFFFFFFFFFFFFFFFFFFFFFFFFFFFFFF SWAP1 DUP2 AND SWAP1 DUP4 AND SUB PUSH2 0xD07 JUMPI PUSH1 0xD SLOAD PUSH2 0xD04 SWAP1 DUP3 PUSH2 0x1DFE JUMP JUMPDEST SWAP1 POP JUMPDEST DUP1 PUSH1 0x0 SUB PUSH2 0xD97 JUMPI PUSH1 0x40 MLOAD PUSH32 0x8C379A000000000000000000000000000000000000000000000000000000000 DUP2 MSTORE PUSH1 0x20 PUSH1 0x4 DUP3 ADD MSTORE PUSH1 0x27 PUSH1 0x24 DUP3 ADD MSTORE PUSH32 0x4F7065726174696F6E733A2043616E6E6F74207265636F766572207A65726F20 PUSH1 0x44 DUP3 ADD MSTORE PUSH32 0x62616C616E636500000000000000000000000000000000000000000000000000 PUSH1 0x64 DUP3 ADD MSTORE PUSH1 0x84 ADD PUSH2 0x4A3 JUMP JUMPDEST PUSH2 0xDB8 PUSH20 0xFFFFFFFFFFFFFFFFFFFFFFFFFFFFFFFFFFFFFFFF DUP4 AND CALLER DUP4 PUSH2 0x166F JUMP JUMPDEST DUP2 PUSH20 0xFFFFFFFFFFFFFFFFFFFFFFFFFFFFFFFFFFFFFFFF AND PUSH32 0x14F11966A996E0629572E51064726D2057A80FBD34EFC066682C06A71DBB6E98 DUP3 PUSH1 0x40 MLOAD PUSH2 0xE00 SWAP2 DUP2 MSTORE PUSH1 0x20 ADD SWAP1 JUMP JUMPDEST PUSH1 0x40 MLOAD DUP1 SWAP2 SUB SWAP1 LOG2 POP POP JUMP JUMPDEST PUSH2 0xE14 PUSH2 0x131B JUMP JUMPDEST PUSH1 0x2 SLOAD PUSH1 0xFF AND PUSH2 0xE80 JUMPI PUSH1 0x40 MLOAD PUSH32 0x8C379A000000000000000000000000000000000000000000000000000000000 DUP2 MSTORE PUSH1 0x20 PUSH1 0x4 DUP3 ADD MSTORE PUSH1 0xB PUSH1 0x24 DUP3 ADD MSTORE PUSH32 0x4D75737420626520736574000000000000000000000000000000000000000000 PUSH1 0x44 DUP3 ADD MSTORE PUSH1 0x64 ADD PUSH2 0x4A3 JUMP JUMPDEST DUP2 ISZERO PUSH2 0xEFB JUMPI PUSH1 0x7 SLOAD DUP2 GT PUSH2 0xEF1 JUMPI PUSH1 0x40 MLOAD PUSH32 0x8C379A000000000000000000000000000000000000000000000000000000000 DUP2 MSTORE PUSH1 0x20 PUSH1 0x4 DUP3 ADD MSTORE PUSH1 0x18 PUSH1 0x24 DUP3 ADD MSTORE PUSH32 0x4E6577206C696D6974206D757374206265206869676865720000000000000000 PUSH1 0x44 DUP3 ADD MSTORE PUSH1 0x64 ADD PUSH2 0x4A3 JUMP JUMPDEST PUSH1 0x7 DUP2 SWAP1 SSTORE PUSH2 0xF2D JUMP JUMPDEST PUSH1 0x2 DUP1 SLOAD PUSH32 0xFFFFFFFFFFFFFFFFFFFFFFFFFFFFFFFFFFFFFFFFFFFFFFFFFFFFFFFFFFFFFF00 AND DUP4 ISZERO ISZERO OR SWAP1 SSTORE PUSH1 0x0 PUSH1 0x7 SSTORE JUMPDEST PUSH32 0x241F67EE5F41B7A5CABF911367329BE7215900F602EBFC47F89DCE2A6BCD847C PUSH1 0x7 SLOAD PUSH1 0x40 MLOAD PUSH2 0xB81 SWAP2 DUP2 MSTORE PUSH1 0x20 ADD SWAP1 JUMP JUMPDEST PUSH2 0xF68 PUSH2 0x139C JUMP JUMPDEST CALLER PUSH1 0x0 SWAP1 DUP2 MSTORE PUSH1 0xE PUSH1 0x20 MSTORE PUSH1 0x40 SWAP1 KECCAK256 PUSH2 0xF7F PUSH2 0x97A JUMP JUMPDEST PUSH1 0x2 DUP1 SLOAD PUSH32 0xFFFFFFFFFFFFFFFFFFFFFFFFFFFFFFFFFFFFFFFFFFFFFFFFFFFFFFFFFFFFFF00 AND SWAP2 ISZERO ISZERO SWAP2 DUP3 OR SWAP1 SSTORE PUSH1 0xFF AND ISZERO DUP1 PUSH2 0xFC9 JUMPI POP PUSH1 0x7 SLOAD DUP2 SLOAD PUSH2 0xFC6 SWAP1 DUP5 PUSH2 0x1F8F JUMP JUMPDEST GT ISZERO JUMPDEST PUSH2 0x102F JUMPI PUSH1 0x40 MLOAD PUSH32 0x8C379A000000000000000000000000000000000000000000000000000000000 DUP2 MSTORE PUSH1 0x20 PUSH1 0x4 DUP3 ADD MSTORE PUSH1 0x1B PUSH1 0x24 DUP3 ADD MSTORE PUSH32 0x4465706F7369743A20416D6F756E742061626F7665206C696D69740000000000 PUSH1 0x44 DUP3 ADD MSTORE PUSH1 0x64 ADD PUSH2 0x4A3 JUMP JUMPDEST PUSH2 0x1037 PUSH2 0x140F JUMP JUMPDEST DUP1 SLOAD ISZERO PUSH2 0x1081 JUMPI PUSH1 0x0 DUP2 PUSH1 0x1 ADD SLOAD PUSH1 0xA SLOAD PUSH1 0x3 SLOAD DUP5 PUSH1 0x0 ADD SLOAD PUSH2 0x105A SWAP2 SWAP1 PUSH2 0x1F3D JUMP JUMPDEST PUSH2 0x1064 SWAP2 SWAP1 PUSH2 0x1F54 JUMP JUMPDEST PUSH2 0x106E SWAP2 SWAP1 PUSH2 0x1DFE JUMP JUMPDEST SWAP1 POP DUP1 ISZERO PUSH2 0x107F JUMPI PUSH2 0x107F DUP2 PUSH2 0x14B4 JUMP JUMPDEST POP JUMPDEST DUP2 ISZERO PUSH2 0x109F JUMPI PUSH2 0x1090 DUP3 PUSH2 0x1748 JUMP JUMPDEST DUP2 SLOAD PUSH2 0x109C SWAP2 SWAP1 PUSH2 0x1F8F JUMP JUMPDEST DUP2 SSTORE JUMPDEST PUSH1 0xA SLOAD PUSH1 0x3 SLOAD DUP3 SLOAD PUSH2 0x10B1 SWAP2 SWAP1 PUSH2 0x1F3D JUMP JUMPDEST PUSH2 0x10BB SWAP2 SWAP1 PUSH2 0x1F54 JUMP JUMPDEST PUSH1 0x1 DUP3 ADD SSTORE PUSH1 0x40 MLOAD DUP3 DUP2 MSTORE CALLER SWAP1 PUSH32 0xE1FFFCC4923D04B559F4D29A8BFC6CDA04EB5B0D3C460751C2402C5C5CC9109C SWAP1 PUSH1 0x20 ADD PUSH1 0x40 MLOAD DUP1 SWAP2 SUB SWAP1 LOG2 POP PUSH2 0x944 PUSH1 0x1 DUP1 SSTORE JUMP JUMPDEST PUSH2 0x1107 PUSH2 0x139C JUMP JUMPDEST CALLER PUSH1 0x0 SWAP1 DUP2 MSTORE PUSH1 0xE PUSH1 0x20 MSTORE PUSH1 0x40 DUP2 KECCAK256 DUP1 SLOAD DUP3 DUP3 SSTORE PUSH1 0x1 DUP3 ADD SWAP3 SWAP1 SWAP3 SSTORE SWAP1 DUP1 ISZERO PUSH2 0x1133 JUMPI PUSH2 0x1133 DUP2 PUSH2 0x147F JUMP JUMPDEST DUP2 SLOAD PUSH1 0x40 MLOAD SWAP1 DUP2 MSTORE CALLER SWAP1 PUSH32 0x5FAFA99D0643513820BE26656B45130B01E1C03062E1266BF36F88CBD3BD9695 SWAP1 PUSH1 0x20 ADD PUSH1 0x40 MLOAD DUP1 SWAP2 SUB SWAP1 LOG2 POP POP PUSH2 0x96A PUSH1 0x1 DUP1 SSTORE JUMP JUMPDEST PUSH2 0x117D PUSH2 0x131B JUMP JUMPDEST PUSH20 0xFFFFFFFFFFFFFFFFFFFFFFFFFFFFFFFFFFFFFFFF DUP2 AND PUSH2 0x1220 JUMPI PUSH1 0x40 MLOAD PUSH32 0x8C379A000000000000000000000000000000000000000000000000000000000 DUP2 MSTORE PUSH1 0x20 PUSH1 0x4 DUP3 ADD MSTORE PUSH1 0x26 PUSH1 0x24 DUP3 ADD MSTORE PUSH32 0x4F776E61626C653A206E6577206F776E657220697320746865207A65726F2061 PUSH1 0x44 DUP3 ADD MSTORE PUSH32 0x6464726573730000000000000000000000000000000000000000000000000000 PUSH1 0x64 DUP3 ADD MSTORE PUSH1 0x84 ADD PUSH2 0x4A3 JUMP JUMPDEST PUSH2 0x944 DUP2 PUSH2 0x15FA JUMP JUMPDEST PUSH20 0xFFFFFFFFFFFFFFFFFFFFFFFFFFFFFFFFFFFFFFFF DUP2 AND PUSH1 0x0 SWAP1 DUP2 MSTORE PUSH1 0xE PUSH1 0x20 MSTORE PUSH1 0x40 DUP2 KECCAK256 PUSH1 0x6 SLOAD NUMBER GT DUP1 ISZERO PUSH2 0x1260 JUMPI POP PUSH1 0xD SLOAD ISZERO ISZERO JUMPDEST ISZERO PUSH2 0x12E9 JUMPI PUSH1 0x0 PUSH2 0x1273 PUSH1 0x6 SLOAD NUMBER PUSH2 0x18BC JUMP JUMPDEST SWAP1 POP PUSH1 0x0 PUSH1 0x9 SLOAD DUP3 PUSH2 0x1285 SWAP2 SWAP1 PUSH2 0x1F3D JUMP JUMPDEST SWAP1 POP PUSH1 0x0 PUSH1 0xD SLOAD PUSH1 0xA SLOAD DUP4 PUSH2 0x129A SWAP2 SWAP1 PUSH2 0x1F3D JUMP JUMPDEST PUSH2 0x12A4 SWAP2 SWAP1 PUSH2 0x1F54 JUMP JUMPDEST PUSH1 0x3 SLOAD PUSH2 0x12B1 SWAP2 SWAP1 PUSH2 0x1F8F JUMP JUMPDEST SWAP1 POP DUP4 PUSH1 0x1 ADD SLOAD PUSH1 0xA SLOAD DUP3 DUP7 PUSH1 0x0 ADD SLOAD PUSH2 0x12CB SWAP2 SWAP1 PUSH2 0x1F3D JUMP JUMPDEST PUSH2 0x12D5 SWAP2 SWAP1 PUSH2 0x1F54 JUMP JUMPDEST PUSH2 0x12DF SWAP2 SWAP1 PUSH2 0x1DFE JUMP JUMPDEST SWAP7 SWAP6 POP POP POP POP POP POP JUMP JUMPDEST PUSH1 0x1 DUP2 ADD SLOAD PUSH1 0xA SLOAD PUSH1 0x3 SLOAD DUP4 SLOAD PUSH2 0x1300 SWAP2 SWAP1 PUSH2 0x1F3D JUMP JUMPDEST PUSH2 0x130A SWAP2 SWAP1 PUSH2 0x1F54 JUMP JUMPDEST PUSH2 0x1314 SWAP2 SWAP1 PUSH2 0x1DFE JUMP JUMPDEST SWAP4 SWAP3 POP POP POP JUMP JUMPDEST PUSH1 0x0 SLOAD PUSH20 0xFFFFFFFFFFFFFFFFFFFFFFFFFFFFFFFFFFFFFFFF AND CALLER EQ PUSH2 0x96A JUMPI PUSH1 0x40 MLOAD PUSH32 0x8C379A000000000000000000000000000000000000000000000000000000000 DUP2 MSTORE PUSH1 0x20 PUSH1 0x4 DUP3 ADD DUP2 SWAP1 MSTORE PUSH1 0x24 DUP3 ADD MSTORE PUSH32 0x4F776E61626C653A2063616C6C6572206973206E6F7420746865206F776E6572 PUSH1 0x44 DUP3 ADD MSTORE PUSH1 0x64 ADD PUSH2 0x4A3 JUMP JUMPDEST PUSH1 0x2 PUSH1 0x1 SLOAD SUB PUSH2 0x1408 JUMPI PUSH1 0x40 MLOAD PUSH32 0x8C379A000000000000000000000000000000000000000000000000000000000 DUP2 MSTORE PUSH1 0x20 PUSH1 0x4 DUP3 ADD MSTORE PUSH1 0x1F PUSH1 0x24 DUP3 ADD MSTORE PUSH32 0x5265656E7472616E637947756172643A207265656E7472616E742063616C6C00 PUSH1 0x44 DUP3 ADD MSTORE PUSH1 0x64 ADD PUSH2 0x4A3 JUMP JUMPDEST PUSH1 0x2 PUSH1 0x1 SSTORE JUMP JUMPDEST PUSH1 0x6 SLOAD NUMBER GT PUSH2 0x141A JUMPI JUMP JUMPDEST PUSH1 0xD SLOAD PUSH1 0x0 SUB PUSH2 0x142A JUMPI NUMBER PUSH1 0x6 SSTORE JUMP JUMPDEST PUSH1 0x0 PUSH2 0x1438 PUSH1 0x6 SLOAD NUMBER PUSH2 0x18BC JUMP JUMPDEST SWAP1 POP PUSH1 0x0 PUSH1 0x9 SLOAD DUP3 PUSH2 0x144A SWAP2 SWAP1 PUSH2 0x1F3D JUMP JUMPDEST SWAP1 POP PUSH1 0xD SLOAD PUSH1 0xA SLOAD DUP3 PUSH2 0x145D SWAP2 SWAP1 PUSH2 0x1F3D JUMP JUMPDEST PUSH2 0x1467 SWAP2 SWAP1 PUSH2 0x1F54 JUMP JUMPDEST PUSH1 0x3 SLOAD PUSH2 0x1474 SWAP2 SWAP1 PUSH2 0x1F8F JUMP JUMPDEST PUSH1 0x3 SSTORE POP POP NUMBER PUSH1 0x6 SSTORE JUMP JUMPDEST DUP1 PUSH1 0xD SLOAD PUSH2 0x148D SWAP2 SWAP1 PUSH2 0x1DFE JUMP JUMPDEST PUSH1 0xD SSTORE PUSH1 0xC SLOAD PUSH2 0x944 SWAP1 PUSH20 0xFFFFFFFFFFFFFFFFFFFFFFFFFFFFFFFFFFFFFFFF AND CALLER DUP4 PUSH2 0x166F JUMP JUMPDEST PUSH1 0xB SLOAD PUSH2 0x14D8 SWAP1 PUSH20 0xFFFFFFFFFFFFFFFFFFFFFFFFFFFFFFFFFFFFFFFF AND CALLER DUP4 PUSH2 0x166F JUMP JUMPDEST PUSH1 0xC SLOAD PUSH1 0xB SLOAD PUSH20 0xFFFFFFFFFFFFFFFFFFFFFFFFFFFFFFFFFFFFFFFF SWAP2 DUP3 AND SWAP2 AND SUB PUSH2 0x944 JUMPI PUSH1 0xD SLOAD PUSH1 0xC SLOAD PUSH1 0x40 MLOAD PUSH32 0x70A0823100000000000000000000000000000000000000000000000000000000 DUP2 MSTORE ADDRESS PUSH1 0x4 DUP3 ADD MSTORE PUSH20 0xFFFFFFFFFFFFFFFFFFFFFFFFFFFFFFFFFFFFFFFF SWAP1 SWAP2 AND SWAP1 PUSH4 0x70A08231 SWAP1 PUSH1 0x24 ADD PUSH1 0x20 PUSH1 0x40 MLOAD DUP1 DUP4 SUB DUP2 DUP7 GAS STATICCALL ISZERO DUP1 ISZERO PUSH2 0x156E JUMPI RETURNDATASIZE PUSH1 0x0 DUP1 RETURNDATACOPY RETURNDATASIZE PUSH1 0x0 REVERT JUMPDEST POP POP POP POP PUSH1 0x40 MLOAD RETURNDATASIZE PUSH1 0x1F NOT PUSH1 0x1F DUP3 ADD AND DUP3 ADD DUP1 PUSH1 0x40 MSTORE POP DUP2 ADD SWAP1 PUSH2 0x1592 SWAP2 SWAP1 PUSH2 0x1FA2 JUMP JUMPDEST LT ISZERO PUSH2 0x944 JUMPI PUSH1 0x40 MLOAD PUSH32 0x8C379A000000000000000000000000000000000000000000000000000000000 DUP2 MSTORE PUSH1 0x20 PUSH1 0x4 DUP3 ADD MSTORE PUSH1 0xD PUSH1 0x24 DUP3 ADD MSTORE PUSH32 0x7265776172647320656D70747900000000000000000000000000000000000000 PUSH1 0x44 DUP3 ADD MSTORE PUSH1 0x64 ADD PUSH2 0x4A3 JUMP JUMPDEST PUSH1 0x0 DUP1 SLOAD PUSH20 0xFFFFFFFFFFFFFFFFFFFFFFFFFFFFFFFFFFFFFFFF DUP4 DUP2 AND PUSH32 0xFFFFFFFFFFFFFFFFFFFFFFFF0000000000000000000000000000000000000000 DUP4 AND DUP2 OR DUP5 SSTORE PUSH1 0x40 MLOAD SWAP2 SWAP1 SWAP3 AND SWAP3 DUP4 SWAP2 PUSH32 0x8BE0079C531659141344CD1FD0A4F28419497F9722A3DAAFE3B4186F6B6457E0 SWAP2 SWAP1 LOG3 POP POP JUMP JUMPDEST PUSH1 0x40 MLOAD PUSH20 0xFFFFFFFFFFFFFFFFFFFFFFFFFFFFFFFFFFFFFFFF DUP4 AND PUSH1 0x24 DUP3 ADD MSTORE PUSH1 0x44 DUP2 ADD DUP3 SWAP1 MSTORE PUSH2 0x1743 SWAP1 DUP5 SWAP1 PUSH32 0xA9059CBB00000000000000000000000000000000000000000000000000000000 SWAP1 PUSH1 0x64 ADD JUMPDEST PUSH1 0x40 DUP1 MLOAD PUSH32 0xFFFFFFFFFFFFFFFFFFFFFFFFFFFFFFFFFFFFFFFFFFFFFFFFFFFFFFFFFFFFFFE0 DUP2 DUP5 SUB ADD DUP2 MSTORE SWAP2 SWAP1 MSTORE PUSH1 0x20 DUP2 ADD DUP1 MLOAD PUSH28 0xFFFFFFFFFFFFFFFFFFFFFFFFFFFFFFFFFFFFFFFFFFFFFFFFFFFFFFFF AND PUSH32 0xFFFFFFFF00000000000000000000000000000000000000000000000000000000 SWAP1 SWAP4 AND SWAP3 SWAP1 SWAP3 OR SWAP1 SWAP2 MSTORE PUSH2 0x18FD JUMP JUMPDEST POP POP POP JUMP JUMPDEST PUSH1 0xC SLOAD PUSH1 0x40 MLOAD PUSH32 0x70A0823100000000000000000000000000000000000000000000000000000000 DUP2 MSTORE ADDRESS PUSH1 0x4 DUP3 ADD MSTORE PUSH1 0x0 SWAP2 DUP3 SWAP2 PUSH20 0xFFFFFFFFFFFFFFFFFFFFFFFFFFFFFFFFFFFFFFFF SWAP1 SWAP2 AND SWAP1 PUSH4 0x70A08231 SWAP1 PUSH1 0x24 ADD PUSH1 0x20 PUSH1 0x40 MLOAD DUP1 DUP4 SUB DUP2 DUP7 GAS STATICCALL ISZERO DUP1 ISZERO PUSH2 0x17BB JUMPI RETURNDATASIZE PUSH1 0x0 DUP1 RETURNDATACOPY RETURNDATASIZE PUSH1 0x0 REVERT JUMPDEST POP POP POP POP PUSH1 0x40 MLOAD RETURNDATASIZE PUSH1 0x1F NOT PUSH1 0x1F DUP3 ADD AND DUP3 ADD DUP1 PUSH1 0x40 MSTORE POP DUP2 ADD SWAP1 PUSH2 0x17DF SWAP2 SWAP1 PUSH2 0x1FA2 JUMP JUMPDEST PUSH1 0xC SLOAD SWAP1 SWAP2 POP PUSH2 0x1807 SWAP1 PUSH20 0xFFFFFFFFFFFFFFFFFFFFFFFFFFFFFFFFFFFFFFFF AND CALLER ADDRESS DUP7 PUSH2 0x1A09 JUMP JUMPDEST PUSH1 0xC SLOAD PUSH1 0x40 MLOAD PUSH32 0x70A0823100000000000000000000000000000000000000000000000000000000 DUP2 MSTORE ADDRESS PUSH1 0x4 DUP3 ADD MSTORE DUP3 SWAP2 PUSH20 0xFFFFFFFFFFFFFFFFFFFFFFFFFFFFFFFFFFFFFFFF AND SWAP1 PUSH4 0x70A08231 SWAP1 PUSH1 0x24 ADD PUSH1 0x20 PUSH1 0x40 MLOAD DUP1 DUP4 SUB DUP2 DUP7 GAS STATICCALL ISZERO DUP1 ISZERO PUSH2 0x1875 JUMPI RETURNDATASIZE PUSH1 0x0 DUP1 RETURNDATACOPY RETURNDATASIZE PUSH1 0x0 REVERT JUMPDEST POP POP POP POP PUSH1 0x40 MLOAD RETURNDATASIZE PUSH1 0x1F NOT PUSH1 0x1F DUP3 ADD AND DUP3 ADD DUP1 PUSH1 0x40 MSTORE POP DUP2 ADD SWAP1 PUSH2 0x1899 SWAP2 SWAP1 PUSH2 0x1FA2 JUMP JUMPDEST PUSH2 0x18A3 SWAP2 SWAP1 PUSH2 0x1DFE JUMP JUMPDEST SWAP2 POP DUP2 PUSH1 0xD SLOAD PUSH2 0x18B3 SWAP2 SWAP1 PUSH2 0x1F8F JUMP JUMPDEST PUSH1 0xD SSTORE POP SWAP2 SWAP1 POP JUMP JUMPDEST PUSH1 0x0 PUSH1 0x4 SLOAD DUP3 GT PUSH2 0x18D8 JUMPI PUSH2 0x18D1 DUP4 DUP4 PUSH2 0x1DFE JUMP JUMPDEST SWAP1 POP PUSH2 0x18F7 JUMP JUMPDEST PUSH1 0x4 SLOAD DUP4 LT PUSH2 0x18E9 JUMPI POP PUSH1 0x0 PUSH2 0x18F7 JUMP JUMPDEST DUP3 PUSH1 0x4 SLOAD PUSH2 0x18D1 SWAP2 SWAP1 PUSH2 0x1DFE JUMP JUMPDEST SWAP3 SWAP2 POP POP JUMP JUMPDEST PUSH1 0x0 PUSH2 0x195F DUP3 PUSH1 0x40 MLOAD DUP1 PUSH1 0x40 ADD PUSH1 0x40 MSTORE DUP1 PUSH1 0x20 DUP2 MSTORE PUSH1 0x20 ADD PUSH32 0x5361666545524332303A206C6F772D6C6576656C2063616C6C206661696C6564 DUP2 MSTORE POP DUP6 PUSH20 0xFFFFFFFFFFFFFFFFFFFFFFFFFFFFFFFFFFFFFFFF AND PUSH2 0x1A6D SWAP1 SWAP3 SWAP2 SWAP1 PUSH4 0xFFFFFFFF AND JUMP JUMPDEST DUP1 MLOAD SWAP1 SWAP2 POP ISZERO PUSH2 0x1743 JUMPI DUP1 DUP1 PUSH1 0x20 ADD SWAP1 MLOAD DUP2 ADD SWAP1 PUSH2 0x197D SWAP2 SWAP1 PUSH2 0x1FBB JUMP JUMPDEST PUSH2 0x1743 JUMPI PUSH1 0x40 MLOAD PUSH32 0x8C379A000000000000000000000000000000000000000000000000000000000 DUP2 MSTORE PUSH1 0x20 PUSH1 0x4 DUP3 ADD MSTORE PUSH1 0x2A PUSH1 0x24 DUP3 ADD MSTORE PUSH32 0x5361666545524332303A204552433230206F7065726174696F6E20646964206E PUSH1 0x44 DUP3 ADD MSTORE PUSH32 0x6F74207375636365656400000000000000000000000000000000000000000000 PUSH1 0x64 DUP3 ADD MSTORE PUSH1 0x84 ADD PUSH2 0x4A3 JUMP JUMPDEST PUSH1 0x40 MLOAD PUSH20 0xFFFFFFFFFFFFFFFFFFFFFFFFFFFFFFFFFFFFFFFF DUP1 DUP6 AND PUSH1 0x24 DUP4 ADD MSTORE DUP4 AND PUSH1 0x44 DUP3 ADD MSTORE PUSH1 0x64 DUP2 ADD DUP3 SWAP1 MSTORE PUSH2 0x1A67 SWAP1 DUP6 SWAP1 PUSH32 0x23B872DD00000000000000000000000000000000000000000000000000000000 SWAP1 PUSH1 0x84 ADD PUSH2 0x16C1 JUMP JUMPDEST POP POP POP POP JUMP JUMPDEST PUSH1 0x60 PUSH2 0x1A7C DUP5 DUP5 PUSH1 0x0 DUP6 PUSH2 0x1A84 JUMP JUMPDEST SWAP5 SWAP4 POP POP POP POP JUMP JUMPDEST PUSH1 0x60 DUP3 SELFBALANCE LT ISZERO PUSH2 0x1B16 JUMPI PUSH1 0x40 MLOAD PUSH32 0x8C379A000000000000000000000000000000000000000000000000000000000 DUP2 MSTORE PUSH1 0x20 PUSH1 0x4 DUP3 ADD MSTORE PUSH1 0x26 PUSH1 0x24 DUP3 ADD MSTORE PUSH32 0x416464726573733A20696E73756666696369656E742062616C616E636520666F PUSH1 0x44 DUP3 ADD MSTORE PUSH32 0x722063616C6C0000000000000000000000000000000000000000000000000000 PUSH1 0x64 DUP3 ADD MSTORE PUSH1 0x84 ADD PUSH2 0x4A3 JUMP JUMPDEST PUSH1 0x0 DUP1 DUP7 PUSH20 0xFFFFFFFFFFFFFFFFFFFFFFFFFFFFFFFFFFFFFFFF AND DUP6 DUP8 PUSH1 0x40 MLOAD PUSH2 0x1B3F SWAP2 SWAP1 PUSH2 0x1FFC JUMP JUMPDEST PUSH1 0x0 PUSH1 0x40 MLOAD DUP1 DUP4 SUB DUP2 DUP6 DUP8 GAS CALL SWAP3 POP POP POP RETURNDATASIZE DUP1 PUSH1 0x0 DUP2 EQ PUSH2 0x1B7C JUMPI PUSH1 0x40 MLOAD SWAP2 POP PUSH1 0x1F NOT PUSH1 0x3F RETURNDATASIZE ADD AND DUP3 ADD PUSH1 0x40 MSTORE RETURNDATASIZE DUP3 MSTORE RETURNDATASIZE PUSH1 0x0 PUSH1 0x20 DUP5 ADD RETURNDATACOPY PUSH2 0x1B81 JUMP JUMPDEST PUSH1 0x60 SWAP2 POP JUMPDEST POP SWAP2 POP SWAP2 POP PUSH2 0x1B92 DUP8 DUP4 DUP4 DUP8 PUSH2 0x1B9D JUMP JUMPDEST SWAP8 SWAP7 POP POP POP POP POP POP POP JUMP JUMPDEST PUSH1 0x60 DUP4 ISZERO PUSH2 0x1C33 JUMPI DUP3 MLOAD PUSH1 0x0 SUB PUSH2 0x1C2C JUMPI PUSH20 0xFFFFFFFFFFFFFFFFFFFFFFFFFFFFFFFFFFFFFFFF DUP6 AND EXTCODESIZE PUSH2 0x1C2C JUMPI PUSH1 0x40 MLOAD PUSH32 0x8C379A000000000000000000000000000000000000000000000000000000000 DUP2 MSTORE PUSH1 0x20 PUSH1 0x4 DUP3 ADD MSTORE PUSH1 0x1D PUSH1 0x24 DUP3 ADD MSTORE PUSH32 0x416464726573733A2063616C6C20746F206E6F6E2D636F6E7472616374000000 PUSH1 0x44 DUP3 ADD MSTORE PUSH1 0x64 ADD PUSH2 0x4A3 JUMP JUMPDEST POP DUP2 PUSH2 0x1A7C JUMP JUMPDEST PUSH2 0x1A7C DUP4 DUP4 DUP2 MLOAD ISZERO PUSH2 0x1C48 JUMPI DUP2 MLOAD DUP1 DUP4 PUSH1 0x20 ADD REVERT JUMPDEST DUP1 PUSH1 0x40 MLOAD PUSH32 0x8C379A000000000000000000000000000000000000000000000000000000000 DUP2 MSTORE PUSH1 0x4 ADD PUSH2 0x4A3 SWAP2 SWAP1 PUSH2 0x2018 JUMP JUMPDEST PUSH1 0x0 PUSH1 0x20 DUP3 DUP5 SUB SLT ISZERO PUSH2 0x1C8E JUMPI PUSH1 0x0 DUP1 REVERT JUMPDEST POP CALLDATALOAD SWAP2 SWAP1 POP JUMP JUMPDEST PUSH20 0xFFFFFFFFFFFFFFFFFFFFFFFFFFFFFFFFFFFFFFFF DUP2 AND DUP2 EQ PUSH2 0x944 JUMPI PUSH1 0x0 DUP1 REVERT JUMPDEST PUSH1 0x0 PUSH1 0x20 DUP3 DUP5 SUB SLT ISZERO PUSH2 0x1CC9 JUMPI PUSH1 0x0 DUP1 REVERT JUMPDEST DUP2 CALLDATALOAD PUSH2 0x1314 DUP2 PUSH2 0x1C95 JUMP JUMPDEST PUSH1 0x0 DUP1 PUSH1 0x0 DUP1 PUSH1 0x0 DUP1 PUSH1 0x0 DUP1 PUSH2 0x100 DUP10 DUP12 SUB SLT ISZERO PUSH2 0x1CF1 JUMPI PUSH1 0x0 DUP1 REVERT JUMPDEST DUP9 CALLDATALOAD PUSH2 0x1CFC DUP2 PUSH2 0x1C95 JUMP JUMPDEST SWAP8 POP PUSH1 0x20 DUP10 ADD CALLDATALOAD PUSH2 0x1D0C DUP2 PUSH2 0x1C95 JUMP JUMPDEST SWAP7 POP PUSH1 0x40 DUP10 ADD CALLDATALOAD SWAP6 POP PUSH1 0x60 DUP10 ADD CALLDATALOAD SWAP5 POP PUSH1 0x80 DUP10 ADD CALLDATALOAD SWAP4 POP PUSH1 0xA0 DUP10 ADD CALLDATALOAD SWAP3 POP PUSH1 0xC0 DUP10 ADD CALLDATALOAD SWAP2 POP PUSH1 0xE0 DUP10 ADD CALLDATALOAD PUSH2 0x1D3F DUP2 PUSH2 0x1C95 JUMP JUMPDEST DUP1 SWAP2 POP POP SWAP3 SWAP6 SWAP9 POP SWAP3 SWAP6 SWAP9 SWAP1 SWAP4 SWAP7 POP JUMP JUMPDEST PUSH1 0x0 DUP1 PUSH1 0x40 DUP4 DUP6 SUB SLT ISZERO PUSH2 0x1D63 JUMPI PUSH1 0x0 DUP1 REVERT JUMPDEST POP POP DUP1 CALLDATALOAD SWAP3 PUSH1 0x20 SWAP1 SWAP2 ADD CALLDATALOAD SWAP2 POP JUMP JUMPDEST DUP1 ISZERO ISZERO DUP2 EQ PUSH2 0x944 JUMPI PUSH1 0x0 DUP1 REVERT JUMPDEST PUSH1 0x0 DUP1 PUSH1 0x40 DUP4 DUP6 SUB SLT ISZERO PUSH2 0x1D93 JUMPI PUSH1 0x0 DUP1 REVERT JUMPDEST DUP3 CALLDATALOAD PUSH2 0x1D9E DUP2 PUSH2 0x1D72 JUMP JUMPDEST SWAP5 PUSH1 0x20 SWAP4 SWAP1 SWAP4 ADD CALLDATALOAD SWAP4 POP POP POP JUMP JUMPDEST PUSH1 0x0 PUSH1 0x20 DUP3 DUP5 SUB SLT ISZERO PUSH2 0x1DBE JUMPI PUSH1 0x0 DUP1 REVERT JUMPDEST DUP2 MLOAD PUSH1 0xFF DUP2 AND DUP2 EQ PUSH2 0x1314 JUMPI PUSH1 0x0 DUP1 REVERT JUMPDEST PUSH32 0x4E487B7100000000000000000000000000000000000000000000000000000000 PUSH1 0x0 MSTORE PUSH1 0x11 PUSH1 0x4 MSTORE PUSH1 0x24 PUSH1 0x0 REVERT JUMPDEST DUP2 DUP2 SUB DUP2 DUP2 GT ISZERO PUSH2 0x18F7 JUMPI PUSH2 0x18F7 PUSH2 0x1DCF JUMP JUMPDEST PUSH1 0x1 DUP2 DUP2 JUMPDEST DUP1 DUP6 GT ISZERO PUSH2 0x1E6A JUMPI DUP2 PUSH32 0xFFFFFFFFFFFFFFFFFFFFFFFFFFFFFFFFFFFFFFFFFFFFFFFFFFFFFFFFFFFFFFFF DIV DUP3 GT ISZERO PUSH2 0x1E50 JUMPI PUSH2 0x1E50 PUSH2 0x1DCF JUMP JUMPDEST DUP1 DUP6 AND ISZERO PUSH2 0x1E5D JUMPI SWAP2 DUP2 MUL SWAP2 JUMPDEST SWAP4 DUP5 SHR SWAP4 SWAP1 DUP1 MUL SWAP1 PUSH2 0x1E16 JUMP JUMPDEST POP SWAP3 POP SWAP3 SWAP1 POP JUMP JUMPDEST PUSH1 0x0 DUP3 PUSH2 0x1E81 JUMPI POP PUSH1 0x1 PUSH2 0x18F7 JUMP JUMPDEST DUP2 PUSH2 0x1E8E JUMPI POP PUSH1 0x0 PUSH2 0x18F7 JUMP JUMPDEST DUP2 PUSH1 0x1 DUP2 EQ PUSH2 0x1EA4 JUMPI PUSH1 0x2 DUP2 EQ PUSH2 0x1EAE JUMPI PUSH2 0x1ECA JUMP JUMPDEST PUSH1 0x1 SWAP2 POP POP PUSH2 0x18F7 JUMP JUMPDEST PUSH1 0xFF DUP5 GT ISZERO PUSH2 0x1EBF JUMPI PUSH2 0x1EBF PUSH2 0x1DCF JUMP JUMPDEST POP POP PUSH1 0x1 DUP3 SHL PUSH2 0x18F7 JUMP JUMPDEST POP PUSH1 0x20 DUP4 LT PUSH2 0x133 DUP4 LT AND PUSH1 0x4E DUP5 LT PUSH1 0xB DUP5 LT AND OR ISZERO PUSH2 0x1EED JUMPI POP DUP2 DUP2 EXP PUSH2 0x18F7 JUMP JUMPDEST PUSH2 0x1EF7 DUP4 DUP4 PUSH2 0x1E11 JUMP JUMPDEST DUP1 PUSH32 0xFFFFFFFFFFFFFFFFFFFFFFFFFFFFFFFFFFFFFFFFFFFFFFFFFFFFFFFFFFFFFFFF DIV DUP3 GT ISZERO PUSH2 0x1F29 JUMPI PUSH2 0x1F29 PUSH2 0x1DCF JUMP JUMPDEST MUL SWAP4 SWAP3 POP POP POP JUMP JUMPDEST PUSH1 0x0 PUSH2 0x1314 DUP4 DUP4 PUSH2 0x1E72 JUMP JUMPDEST DUP1 DUP3 MUL DUP2 ISZERO DUP3 DUP3 DIV DUP5 EQ OR PUSH2 0x18F7 JUMPI PUSH2 0x18F7 PUSH2 0x1DCF JUMP JUMPDEST PUSH1 0x0 DUP3 PUSH2 0x1F8A JUMPI PUSH32 0x4E487B7100000000000000000000000000000000000000000000000000000000 PUSH1 0x0 MSTORE PUSH1 0x12 PUSH1 0x4 MSTORE PUSH1 0x24 PUSH1 0x0 REVERT JUMPDEST POP DIV SWAP1 JUMP JUMPDEST DUP1 DUP3 ADD DUP1 DUP3 GT ISZERO PUSH2 0x18F7 JUMPI PUSH2 0x18F7 PUSH2 0x1DCF JUMP JUMPDEST PUSH1 0x0 PUSH1 0x20 DUP3 DUP5 SUB SLT ISZERO PUSH2 0x1FB4 JUMPI PUSH1 0x0 DUP1 REVERT JUMPDEST POP MLOAD SWAP2 SWAP1 POP JUMP JUMPDEST PUSH1 0x0 PUSH1 0x20 DUP3 DUP5 SUB SLT ISZERO PUSH2 0x1FCD JUMPI PUSH1 0x0 DUP1 REVERT JUMPDEST DUP2 MLOAD PUSH2 0x1314 DUP2 PUSH2 0x1D72 JUMP JUMPDEST PUSH1 0x0 JUMPDEST DUP4 DUP2 LT ISZERO PUSH2 0x1FF3 JUMPI DUP2 DUP2 ADD MLOAD DUP4 DUP3 ADD MSTORE PUSH1 0x20 ADD PUSH2 0x1FDB JUMP JUMPDEST POP POP PUSH1 0x0 SWAP2 ADD MSTORE JUMP JUMPDEST PUSH1 0x0 DUP3 MLOAD PUSH2 0x200E DUP2 DUP5 PUSH1 0x20 DUP8 ADD PUSH2 0x1FD8 JUMP JUMPDEST SWAP2 SWAP1 SWAP2 ADD SWAP3 SWAP2 POP POP JUMP JUMPDEST PUSH1 0x20 DUP2 MSTORE PUSH1 0x0 DUP3 MLOAD DUP1 PUSH1 0x20 DUP5 ADD MSTORE PUSH2 0x2037 DUP2 PUSH1 0x40 DUP6 ADD PUSH1 0x20 DUP8 ADD PUSH2 0x1FD8 JUMP JUMPDEST PUSH1 0x1F ADD PUSH32 0xFFFFFFFFFFFFFFFFFFFFFFFFFFFFFFFFFFFFFFFFFFFFFFFFFFFFFFFFFFFFFFE0 AND SWAP2 SWAP1 SWAP2 ADD PUSH1 0x40 ADD SWAP3 SWAP2 POP POP JUMP INVALID LOG2 PUSH5 0x6970667358 0x22 SLT KECCAK256 PUSH23 0x195B76A192F28AAB7491BF01A603DCB48BF819BC09CEAA 0xF6 0xBC 0xD4 PC DUP4 0x27 0xBE 0xAA PUSH5 0x736F6C6343 STOP ADDMOD GT STOP CALLER LOG2 PUSH5 0x6970667358 0x22 SLT KECCAK256 SUB 0x2B 0xE2 SWAP13 0x4D EXP SWAP8 SUB STATICCALL 0xBD CREATE DUP15 0xB6 CALLER 0x4D CALLER 0xAA 0xBC 0x4F XOR PUSH4 0xA686F12E DUP5 0xEC DUP6 SWAP9 SWAP15 0x4C MOD PUSH5 0x736F6C6343 STOP ADDMOD GT STOP CALLER "
				},
				"gasEstimates": {
					"creation": {
						"codeDepositCost": "2052000",
						"executionCost": "28019",
						"totalCost": "2080019"
					},
					"external": {
						"deployPool(address,address,uint256,uint256,uint256,uint256,uint256,address)": "infinite",
						"owner()": "2280",
						"renounceOwnership()": "infinite",
						"transferOwnership(address)": "infinite"
					}
				},
				"methodIdentifiers": {
					"deployPool(address,address,uint256,uint256,uint256,uint256,uint256,address)": "bbc22f50",
					"owner()": "8da5cb5b",
					"renounceOwnership()": "715018a6",
					"transferOwnership(address)": "f2fde38b"
				}
			},
			"storageLayout": {
				"storage": [
					{
						"astId": 821,
						"contract": "contracts/SmartchefFactory.sol:SmartChefFactory",
						"label": "_owner",
						"offset": 0,
						"slot": "0",
						"type": "t_address"
					}
				],
				"types": {
					"t_address": {
						"encoding": "inplace",
						"label": "address",
						"numberOfBytes": "20"
					}
				}
			},
			"userdoc": {
				"kind": "user",
				"methods": {},
				"version": 1
			}
		}
	}
}