{
	"contracts/sMasterChef.sol": {
		"sMasterChef": {
			"abi": [
				{
					"inputs": [
						{
							"internalType": "contract IMasterChef",
							"name": "_DARK_CHEF",
							"type": "address"
						},
						{
							"internalType": "contract IBEP20",
							"name": "_SHDW",
							"type": "address"
						},
						{
							"internalType": "uint256",
							"name": "_MASTER_PID",
							"type": "uint256"
						},
						{
							"internalType": "address",
							"name": "_burnAdmin",
							"type": "address"
						}
					],
					"stateMutability": "nonpayable",
					"type": "constructor"
				},
				{
					"anonymous": false,
					"inputs": [
						{
							"indexed": true,
							"internalType": "uint256",
							"name": "pid",
							"type": "uint256"
						},
						{
							"indexed": false,
							"internalType": "uint256",
							"name": "allocPoint",
							"type": "uint256"
						},
						{
							"indexed": true,
							"internalType": "contract IBEP20",
							"name": "lpToken",
							"type": "address"
						},
						{
							"indexed": false,
							"internalType": "bool",
							"name": "isRegular",
							"type": "bool"
						}
					],
					"name": "AddPool",
					"type": "event"
				},
				{
					"anonymous": false,
					"inputs": [
						{
							"indexed": true,
							"internalType": "address",
							"name": "user",
							"type": "address"
						},
						{
							"indexed": true,
							"internalType": "uint256",
							"name": "pid",
							"type": "uint256"
						},
						{
							"indexed": false,
							"internalType": "uint256",
							"name": "amount",
							"type": "uint256"
						}
					],
					"name": "Deposit",
					"type": "event"
				},
				{
					"anonymous": false,
					"inputs": [
						{
							"indexed": true,
							"internalType": "address",
							"name": "user",
							"type": "address"
						},
						{
							"indexed": true,
							"internalType": "uint256",
							"name": "pid",
							"type": "uint256"
						},
						{
							"indexed": false,
							"internalType": "uint256",
							"name": "amount",
							"type": "uint256"
						}
					],
					"name": "EmergencyWithdraw",
					"type": "event"
				},
				{
					"anonymous": false,
					"inputs": [],
					"name": "Init",
					"type": "event"
				},
				{
					"anonymous": false,
					"inputs": [
						{
							"indexed": true,
							"internalType": "address",
							"name": "previousOwner",
							"type": "address"
						},
						{
							"indexed": true,
							"internalType": "address",
							"name": "newOwner",
							"type": "address"
						}
					],
					"name": "OwnershipTransferred",
					"type": "event"
				},
				{
					"anonymous": false,
					"inputs": [
						{
							"indexed": true,
							"internalType": "uint256",
							"name": "pid",
							"type": "uint256"
						},
						{
							"indexed": false,
							"internalType": "uint256",
							"name": "allocPoint",
							"type": "uint256"
						}
					],
					"name": "SetPool",
					"type": "event"
				},
				{
					"anonymous": false,
					"inputs": [
						{
							"indexed": true,
							"internalType": "address",
							"name": "boostContract",
							"type": "address"
						}
					],
					"name": "UpdateBoostContract",
					"type": "event"
				},
				{
					"anonymous": false,
					"inputs": [
						{
							"indexed": true,
							"internalType": "address",
							"name": "user",
							"type": "address"
						},
						{
							"indexed": false,
							"internalType": "uint256",
							"name": "pid",
							"type": "uint256"
						},
						{
							"indexed": false,
							"internalType": "uint256",
							"name": "oldMultiplier",
							"type": "uint256"
						},
						{
							"indexed": false,
							"internalType": "uint256",
							"name": "newMultiplier",
							"type": "uint256"
						}
					],
					"name": "UpdateBoostMultiplier",
					"type": "event"
				},
				{
					"anonymous": false,
					"inputs": [
						{
							"indexed": true,
							"internalType": "address",
							"name": "oldAdmin",
							"type": "address"
						},
						{
							"indexed": true,
							"internalType": "address",
							"name": "newAdmin",
							"type": "address"
						}
					],
					"name": "UpdateBurnAdmin",
					"type": "event"
				},
				{
					"anonymous": false,
					"inputs": [
						{
							"indexed": true,
							"internalType": "uint256",
							"name": "pid",
							"type": "uint256"
						},
						{
							"indexed": false,
							"internalType": "uint256",
							"name": "lastRewardBlock",
							"type": "uint256"
						},
						{
							"indexed": false,
							"internalType": "uint256",
							"name": "lpSupply",
							"type": "uint256"
						},
						{
							"indexed": false,
							"internalType": "uint256",
							"name": "accShdwPerShare",
							"type": "uint256"
						}
					],
					"name": "UpdatePool",
					"type": "event"
				},
				{
					"anonymous": false,
					"inputs": [
						{
							"indexed": false,
							"internalType": "uint256",
							"name": "burnRate",
							"type": "uint256"
						},
						{
							"indexed": false,
							"internalType": "uint256",
							"name": "regularFarmRate",
							"type": "uint256"
						},
						{
							"indexed": false,
							"internalType": "uint256",
							"name": "specialFarmRate",
							"type": "uint256"
						}
					],
					"name": "UpdateShdwRate",
					"type": "event"
				},
				{
					"anonymous": false,
					"inputs": [
						{
							"indexed": true,
							"internalType": "address",
							"name": "user",
							"type": "address"
						},
						{
							"indexed": false,
							"internalType": "bool",
							"name": "isValid",
							"type": "bool"
						}
					],
					"name": "UpdateWhiteList",
					"type": "event"
				},
				{
					"anonymous": false,
					"inputs": [
						{
							"indexed": true,
							"internalType": "address",
							"name": "user",
							"type": "address"
						},
						{
							"indexed": true,
							"internalType": "uint256",
							"name": "pid",
							"type": "uint256"
						},
						{
							"indexed": false,
							"internalType": "uint256",
							"name": "amount",
							"type": "uint256"
						}
					],
					"name": "Withdraw",
					"type": "event"
				},
				{
					"inputs": [],
					"name": "ACC_SHDW_PRECISION",
					"outputs": [
						{
							"internalType": "uint256",
							"name": "",
							"type": "uint256"
						}
					],
					"stateMutability": "view",
					"type": "function"
				},
				{
					"inputs": [],
					"name": "BOOST_PRECISION",
					"outputs": [
						{
							"internalType": "uint256",
							"name": "",
							"type": "uint256"
						}
					],
					"stateMutability": "view",
					"type": "function"
				},
				{
					"inputs": [],
					"name": "DARK_CHEF",
					"outputs": [
						{
							"internalType": "contract IMasterChef",
							"name": "",
							"type": "address"
						}
					],
					"stateMutability": "view",
					"type": "function"
				},
				{
					"inputs": [],
					"name": "MASTERCHEF_SHDW_PER_BLOCK",
					"outputs": [
						{
							"internalType": "uint256",
							"name": "",
							"type": "uint256"
						}
					],
					"stateMutability": "view",
					"type": "function"
				},
				{
					"inputs": [],
					"name": "MASTER_PID",
					"outputs": [
						{
							"internalType": "uint256",
							"name": "",
							"type": "uint256"
						}
					],
					"stateMutability": "view",
					"type": "function"
				},
				{
					"inputs": [],
					"name": "MAX_BOOST_PRECISION",
					"outputs": [
						{
							"internalType": "uint256",
							"name": "",
							"type": "uint256"
						}
					],
					"stateMutability": "view",
					"type": "function"
				},
				{
					"inputs": [],
					"name": "SHDW",
					"outputs": [
						{
							"internalType": "contract IBEP20",
							"name": "",
							"type": "address"
						}
					],
					"stateMutability": "view",
					"type": "function"
				},
				{
					"inputs": [],
					"name": "SHDW_RATE_TOTAL_PRECISION",
					"outputs": [
						{
							"internalType": "uint256",
							"name": "",
							"type": "uint256"
						}
					],
					"stateMutability": "view",
					"type": "function"
				},
				{
					"inputs": [
						{
							"internalType": "uint256",
							"name": "_allocPoint",
							"type": "uint256"
						},
						{
							"internalType": "contract IBEP20",
							"name": "_lpToken",
							"type": "address"
						},
						{
							"internalType": "bool",
							"name": "_isRegular",
							"type": "bool"
						},
						{
							"internalType": "bool",
							"name": "_withUpdate",
							"type": "bool"
						}
					],
					"name": "add",
					"outputs": [],
					"stateMutability": "nonpayable",
					"type": "function"
				},
				{
					"inputs": [],
					"name": "boostContract",
					"outputs": [
						{
							"internalType": "address",
							"name": "",
							"type": "address"
						}
					],
					"stateMutability": "view",
					"type": "function"
				},
				{
					"inputs": [],
					"name": "burnAdmin",
					"outputs": [
						{
							"internalType": "address",
							"name": "",
							"type": "address"
						}
					],
					"stateMutability": "view",
					"type": "function"
				},
				{
					"inputs": [
						{
							"internalType": "bool",
							"name": "_withUpdate",
							"type": "bool"
						}
					],
					"name": "burnShdw",
					"outputs": [],
					"stateMutability": "nonpayable",
					"type": "function"
				},
				{
					"inputs": [
						{
							"internalType": "uint256",
							"name": "_pid",
							"type": "uint256"
						},
						{
							"internalType": "uint256",
							"name": "_amount",
							"type": "uint256"
						}
					],
					"name": "deposit",
					"outputs": [],
					"stateMutability": "nonpayable",
					"type": "function"
				},
				{
					"inputs": [
						{
							"internalType": "uint256",
							"name": "_pid",
							"type": "uint256"
						}
					],
					"name": "emergencyWithdraw",
					"outputs": [],
					"stateMutability": "nonpayable",
					"type": "function"
				},
				{
					"inputs": [
						{
							"internalType": "address",
							"name": "_user",
							"type": "address"
						},
						{
							"internalType": "uint256",
							"name": "_pid",
							"type": "uint256"
						}
					],
					"name": "getBoostMultiplier",
					"outputs": [
						{
							"internalType": "uint256",
							"name": "",
							"type": "uint256"
						}
					],
					"stateMutability": "view",
					"type": "function"
				},
				{
					"inputs": [],
					"name": "harvestFromMasterChef",
					"outputs": [],
					"stateMutability": "nonpayable",
					"type": "function"
				},
				{
					"inputs": [
						{
							"internalType": "contract IBEP20",
							"name": "dummyToken",
							"type": "address"
						}
					],
					"name": "init",
					"outputs": [],
					"stateMutability": "nonpayable",
					"type": "function"
				},
				{
					"inputs": [],
					"name": "lastBurnedBlock",
					"outputs": [
						{
							"internalType": "uint256",
							"name": "",
							"type": "uint256"
						}
					],
					"stateMutability": "view",
					"type": "function"
				},
				{
					"inputs": [
						{
							"internalType": "uint256",
							"name": "",
							"type": "uint256"
						}
					],
					"name": "lpToken",
					"outputs": [
						{
							"internalType": "contract IBEP20",
							"name": "",
							"type": "address"
						}
					],
					"stateMutability": "view",
					"type": "function"
				},
				{
					"inputs": [],
					"name": "massUpdatePools",
					"outputs": [],
					"stateMutability": "nonpayable",
					"type": "function"
				},
				{
					"inputs": [],
					"name": "owner",
					"outputs": [
						{
							"internalType": "address",
							"name": "",
							"type": "address"
						}
					],
					"stateMutability": "view",
					"type": "function"
				},
				{
					"inputs": [
						{
							"internalType": "uint256",
							"name": "_pid",
							"type": "uint256"
						},
						{
							"internalType": "address",
							"name": "_user",
							"type": "address"
						}
					],
					"name": "pendingShdw",
					"outputs": [
						{
							"internalType": "uint256",
							"name": "",
							"type": "uint256"
						}
					],
					"stateMutability": "view",
					"type": "function"
				},
				{
					"inputs": [
						{
							"internalType": "uint256",
							"name": "",
							"type": "uint256"
						}
					],
					"name": "poolInfo",
					"outputs": [
						{
							"internalType": "uint256",
							"name": "accShdwPerShare",
							"type": "uint256"
						},
						{
							"internalType": "uint256",
							"name": "lastRewardBlock",
							"type": "uint256"
						},
						{
							"internalType": "uint256",
							"name": "allocPoint",
							"type": "uint256"
						},
						{
							"internalType": "uint256",
							"name": "totalBoostedShare",
							"type": "uint256"
						},
						{
							"internalType": "bool",
							"name": "isRegular",
							"type": "bool"
						}
					],
					"stateMutability": "view",
					"type": "function"
				},
				{
					"inputs": [],
					"name": "poolLength",
					"outputs": [
						{
							"internalType": "uint256",
							"name": "pools",
							"type": "uint256"
						}
					],
					"stateMutability": "view",
					"type": "function"
				},
				{
					"inputs": [],
					"name": "renounceOwnership",
					"outputs": [],
					"stateMutability": "nonpayable",
					"type": "function"
				},
				{
					"inputs": [
						{
							"internalType": "uint256",
							"name": "_pid",
							"type": "uint256"
						},
						{
							"internalType": "uint256",
							"name": "_allocPoint",
							"type": "uint256"
						},
						{
							"internalType": "bool",
							"name": "_withUpdate",
							"type": "bool"
						}
					],
					"name": "set",
					"outputs": [],
					"stateMutability": "nonpayable",
					"type": "function"
				},
				{
					"inputs": [
						{
							"internalType": "bool",
							"name": "_isRegular",
							"type": "bool"
						}
					],
					"name": "shdwPerBlock",
					"outputs": [
						{
							"internalType": "uint256",
							"name": "amount",
							"type": "uint256"
						}
					],
					"stateMutability": "view",
					"type": "function"
				},
				{
					"inputs": [],
					"name": "shdwPerBlockToBurn",
					"outputs": [
						{
							"internalType": "uint256",
							"name": "amount",
							"type": "uint256"
						}
					],
					"stateMutability": "view",
					"type": "function"
				},
				{
					"inputs": [],
					"name": "shdwRateToBurn",
					"outputs": [
						{
							"internalType": "uint256",
							"name": "",
							"type": "uint256"
						}
					],
					"stateMutability": "view",
					"type": "function"
				},
				{
					"inputs": [],
					"name": "shdwRateToRegularFarm",
					"outputs": [
						{
							"internalType": "uint256",
							"name": "",
							"type": "uint256"
						}
					],
					"stateMutability": "view",
					"type": "function"
				},
				{
					"inputs": [],
					"name": "shdwRateToSpecialFarm",
					"outputs": [
						{
							"internalType": "uint256",
							"name": "",
							"type": "uint256"
						}
					],
					"stateMutability": "view",
					"type": "function"
				},
				{
					"inputs": [],
					"name": "totalRegularAllocPoint",
					"outputs": [
						{
							"internalType": "uint256",
							"name": "",
							"type": "uint256"
						}
					],
					"stateMutability": "view",
					"type": "function"
				},
				{
					"inputs": [],
					"name": "totalSpecialAllocPoint",
					"outputs": [
						{
							"internalType": "uint256",
							"name": "",
							"type": "uint256"
						}
					],
					"stateMutability": "view",
					"type": "function"
				},
				{
					"inputs": [
						{
							"internalType": "address",
							"name": "newOwner",
							"type": "address"
						}
					],
					"name": "transferOwnership",
					"outputs": [],
					"stateMutability": "nonpayable",
					"type": "function"
				},
				{
					"inputs": [
						{
							"internalType": "address",
							"name": "_newBoostContract",
							"type": "address"
						}
					],
					"name": "updateBoostContract",
					"outputs": [],
					"stateMutability": "nonpayable",
					"type": "function"
				},
				{
					"inputs": [
						{
							"internalType": "address",
							"name": "_user",
							"type": "address"
						},
						{
							"internalType": "uint256",
							"name": "_pid",
							"type": "uint256"
						},
						{
							"internalType": "uint256",
							"name": "_newMultiplier",
							"type": "uint256"
						}
					],
					"name": "updateBoostMultiplier",
					"outputs": [],
					"stateMutability": "nonpayable",
					"type": "function"
				},
				{
					"inputs": [
						{
							"internalType": "address",
							"name": "_newAdmin",
							"type": "address"
						}
					],
					"name": "updateBurnAdmin",
					"outputs": [],
					"stateMutability": "nonpayable",
					"type": "function"
				},
				{
					"inputs": [
						{
							"internalType": "uint256",
							"name": "_pid",
							"type": "uint256"
						}
					],
					"name": "updatePool",
					"outputs": [
						{
							"components": [
								{
									"internalType": "uint256",
									"name": "accShdwPerShare",
									"type": "uint256"
								},
								{
									"internalType": "uint256",
									"name": "lastRewardBlock",
									"type": "uint256"
								},
								{
									"internalType": "uint256",
									"name": "allocPoint",
									"type": "uint256"
								},
								{
									"internalType": "uint256",
									"name": "totalBoostedShare",
									"type": "uint256"
								},
								{
									"internalType": "bool",
									"name": "isRegular",
									"type": "bool"
								}
							],
							"internalType": "struct sMasterChef.PoolInfo",
							"name": "pool",
							"type": "tuple"
						}
					],
					"stateMutability": "nonpayable",
					"type": "function"
				},
				{
					"inputs": [
						{
							"internalType": "uint256",
							"name": "_burnRate",
							"type": "uint256"
						},
						{
							"internalType": "uint256",
							"name": "_regularFarmRate",
							"type": "uint256"
						},
						{
							"internalType": "uint256",
							"name": "_specialFarmRate",
							"type": "uint256"
						},
						{
							"internalType": "bool",
							"name": "_withUpdate",
							"type": "bool"
						}
					],
					"name": "updateShdwRate",
					"outputs": [],
					"stateMutability": "nonpayable",
					"type": "function"
				},
				{
					"inputs": [
						{
							"internalType": "address",
							"name": "_user",
							"type": "address"
						},
						{
							"internalType": "bool",
							"name": "_isValid",
							"type": "bool"
						}
					],
					"name": "updateWhiteList",
					"outputs": [],
					"stateMutability": "nonpayable",
					"type": "function"
				},
				{
					"inputs": [
						{
							"internalType": "uint256",
							"name": "",
							"type": "uint256"
						},
						{
							"internalType": "address",
							"name": "",
							"type": "address"
						}
					],
					"name": "userInfo",
					"outputs": [
						{
							"internalType": "uint256",
							"name": "amount",
							"type": "uint256"
						},
						{
							"internalType": "uint256",
							"name": "rewardDebt",
							"type": "uint256"
						},
						{
							"internalType": "uint256",
							"name": "boostMultiplier",
							"type": "uint256"
						}
					],
					"stateMutability": "view",
					"type": "function"
				},
				{
					"inputs": [
						{
							"internalType": "address",
							"name": "",
							"type": "address"
						}
					],
					"name": "whiteList",
					"outputs": [
						{
							"internalType": "bool",
							"name": "",
							"type": "bool"
						}
					],
					"stateMutability": "view",
					"type": "function"
				},
				{
					"inputs": [
						{
							"internalType": "uint256",
							"name": "_pid",
							"type": "uint256"
						},
						{
							"internalType": "uint256",
							"name": "_amount",
							"type": "uint256"
						}
					],
					"name": "withdraw",
					"outputs": [],
					"stateMutability": "nonpayable",
					"type": "function"
				}
			],
			"devdoc": {
				"kind": "dev",
				"methods": {
					"add(uint256,address,bool,bool)": {
						"params": {
							"_allocPoint": "Number of allocation points for the new pool.",
							"_isRegular": "Whether the pool is regular or special. LP farms are always \"regular\". \"Special\" pools are",
							"_lpToken": "Address of the LP BEP-20 token.",
							"_withUpdate": "Whether call \"massUpdatePools\" operation. only for Shdw distributions within ShadowSwap products."
						}
					},
					"burnShdw(bool)": {
						"params": {
							"_withUpdate": "Whether call \"massUpdatePools\" operation."
						}
					},
					"deposit(uint256,uint256)": {
						"params": {
							"_amount": "Amount of LP tokens to deposit.",
							"_pid": "The id of the pool. See `poolInfo`."
						}
					},
					"emergencyWithdraw(uint256)": {
						"params": {
							"_pid": "The id of the pool. See `poolInfo`."
						}
					},
					"getBoostMultiplier(address,uint256)": {
						"params": {
							"_pid": "The pool id.",
							"_user": "The user address."
						}
					},
					"init(address)": {
						"params": {
							"dummyToken": "The address of the BEP-20 token to be deposited into MCV1."
						}
					},
					"owner()": {
						"details": "Returns the address of the current owner."
					},
					"pendingShdw(uint256,address)": {
						"params": {
							"_pid": "The id of the pool. See `poolInfo`.",
							"_user": "Address of the user."
						}
					},
					"renounceOwnership()": {
						"details": "Leaves the contract without owner. It will not be possible to call `onlyOwner` functions anymore. Can only be called by the current owner. NOTE: Renouncing ownership will leave the contract without an owner, thereby removing any functionality that is only available to the owner."
					},
					"set(uint256,uint256,bool)": {
						"params": {
							"_allocPoint": "New number of allocation points for the pool.",
							"_pid": "The id of the pool. See `poolInfo`.",
							"_withUpdate": "Whether call \"massUpdatePools\" operation."
						}
					},
					"shdwPerBlock(bool)": {
						"params": {
							"_isRegular": "If the pool belongs to regular or special."
						}
					},
					"transferOwnership(address)": {
						"details": "Transfers ownership of the contract to a new account (`newOwner`). Can only be called by the current owner."
					},
					"updateBoostContract(address)": {
						"params": {
							"_newBoostContract": "The new address for handling all the share boosts."
						}
					},
					"updateBoostMultiplier(address,uint256,uint256)": {
						"params": {
							"_newMultiplier": "New boost multiplier.",
							"_pid": "The pool id for the boost factor updates.",
							"_user": "The user address for boost factor updates."
						}
					},
					"updateBurnAdmin(address)": {
						"params": {
							"_newAdmin": "The new burn admin address."
						}
					},
					"updatePool(uint256)": {
						"params": {
							"_pid": "The id of the pool. See `poolInfo`."
						},
						"returns": {
							"pool": "Returns the pool that was updated."
						}
					},
					"updateShdwRate(uint256,uint256,uint256,bool)": {
						"params": {
							"_burnRate": "The % of Shdw to burn each block.",
							"_regularFarmRate": "The % of Shdw to regular pools each block.",
							"_specialFarmRate": "The % of Shdw to special pools each block.",
							"_withUpdate": "Whether call \"massUpdatePools\" operation."
						}
					},
					"updateWhiteList(address,bool)": {
						"params": {
							"_isValid": "The flag for valid or invalid.",
							"_user": "The address to be updated."
						}
					},
					"withdraw(uint256,uint256)": {
						"params": {
							"_amount": "Amount of LP tokens to withdraw.",
							"_pid": "The id of the pool. See `poolInfo`."
						}
					}
				},
				"version": 1
			},
			"evm": {
				"assembly": "    /* \"contracts/sMasterChef.sol\":25023:48357  contract sMasterChef is Ownable, ReentrancyGuard {\r... */\n  mstore(0x40, 0xe0)\n    /* \"contracts/sMasterChef.sol\":29077:29089  643750000000 */\n  0x95e27d7580\n    /* \"contracts/sMasterChef.sol\":29045:29089  uint256 public shdwRateToBurn = 643750000000 */\n  0x0a\n  sstore\n    /* \"contracts/sMasterChef.sol\":29192:29203  62847222222 */\n  0x0ea1fc81ce\n    /* \"contracts/sMasterChef.sol\":29153:29203  uint256 public shdwRateToRegularFarm = 62847222222 */\n  0x0b\n  sstore\n    /* \"contracts/sMasterChef.sol\":29302:29314  293402777778 */\n  0x44502b18b2\n    /* \"contracts/sMasterChef.sol\":29263:29314  uint256 public shdwRateToSpecialFarm = 293402777778 */\n  0x0c\n  sstore\n    /* \"contracts/sMasterChef.sol\":30547:30820  constructor(\r... */\n  callvalue\n  dup1\n  iszero\n  tag_1\n  jumpi\n  0x00\n  dup1\n  revert\ntag_1:\n  pop\n  mload(0x40)\n  sub(codesize, bytecodeSize)\n  dup1\n  bytecodeSize\n  dup4\n  codecopy\n  dup2\n  add\n  0x40\n  dup2\n  swap1\n  mstore\n  tag_2\n  swap2\n  tag_3\n  jump\t// in\ntag_2:\n    /* \"contracts/sMasterChef.sol\":1847:1864  address msgSender */\n  0x00\n    /* \"contracts/sMasterChef.sol\":1867:1879  _msgSender() */\n  tag_8\n    /* \"contracts/sMasterChef.sol\":1867:1877  _msgSender */\n  tag_9\n    /* \"contracts/sMasterChef.sol\":1867:1879  _msgSender() */\n  jump\t// in\ntag_8:\n    /* \"contracts/sMasterChef.sol\":1890:1896  _owner */\n  0x00\n    /* \"contracts/sMasterChef.sol\":1890:1908  _owner = msgSender */\n  dup1\n  sload\n  not(sub(shl(0xa0, 0x01), 0x01))\n  and\n  sub(shl(0xa0, 0x01), 0x01)\n  dup4\n  and\n  swap1\n  dup2\n  or\n  dup3\n  sstore\n    /* \"contracts/sMasterChef.sol\":1924:1967  OwnershipTransferred(address(0), msgSender) */\n  mload(0x40)\n    /* \"contracts/sMasterChef.sol\":1890:1908  _owner = msgSender */\n  swap3\n  swap4\n  pop\n  swap2\n    /* \"contracts/sMasterChef.sol\":1924:1967  OwnershipTransferred(address(0), msgSender) */\n  0x8be0079c531659141344cd1fd0a4f28419497f9722a3daafe3b4186f6b6457e0\n  swap1\n    /* \"contracts/sMasterChef.sol\":1890:1896  _owner */\n  dup3\n  swap1\n    /* \"contracts/sMasterChef.sol\":1924:1967  OwnershipTransferred(address(0), msgSender) */\n  log3\n  pop\n    /* \"contracts/sMasterChef.sol\":10208:10209  1 */\n  0x01\n    /* \"contracts/sMasterChef.sol\":10329:10351  _status = _NOT_ENTERED */\n  dup1\n  sstore\n    /* \"contracts/sMasterChef.sol\":30699:30721  DARK_CHEF = _DARK_CHEF */\n  0x60\n  swap4\n  dup5\n  shl\n  not(sub(shl(0x60, 0x01), 0x01))\n  swap1\n  dup2\n  and\n  0x80\n  mstore\n    /* \"contracts/sMasterChef.sol\":30732:30744  SHDW = _SHDW */\n  swap3\n  swap1\n  swap4\n  shl\n  swap1\n  swap2\n  and\n  0xa0\n  mstore\n    /* \"contracts/sMasterChef.sol\":30755:30779  MASTER_PID = _MASTER_PID */\n  0xc0\n  mstore\n    /* \"contracts/sMasterChef.sol\":30790:30799  burnAdmin */\n  0x02\n    /* \"contracts/sMasterChef.sol\":30790:30812  burnAdmin = _burnAdmin */\n  dup1\n  sload\n  not(sub(shl(0xa0, 0x01), 0x01))\n  and\n  sub(shl(0xa0, 0x01), 0x01)\n  swap1\n  swap3\n  and\n  swap2\n  swap1\n  swap2\n  or\n  swap1\n  sstore\n    /* \"contracts/sMasterChef.sol\":25023:48357  contract sMasterChef is Ownable, ReentrancyGuard {\r... */\n  jump(tag_14)\n    /* \"contracts/sMasterChef.sol\":669:775  function _msgSender() internal view virtual returns (address payable) {\r... */\ntag_9:\n    /* \"contracts/sMasterChef.sol\":757:767  msg.sender */\n  caller\n    /* \"contracts/sMasterChef.sol\":669:775  function _msgSender() internal view virtual returns (address payable) {\r... */\n  swap1\n  jump\t// out\n    /* \"--CODEGEN--\":635:1373   */\ntag_3:\n  0x00\n  dup1\n  0x00\n  dup1\n    /* \"--CODEGEN--\":834:837   */\n  0x80\n    /* \"--CODEGEN--\":822:831   */\n  dup6\n    /* \"--CODEGEN--\":813:820   */\n  dup8\n    /* \"--CODEGEN--\":809:832   */\n  sub\n    /* \"--CODEGEN--\":805:838   */\n  slt\n    /* \"--CODEGEN--\":802:804   */\n  iszero\n  tag_16\n  jumpi\n  dup4\n  dup5\n    /* \"--CODEGEN--\":841:853   */\n  revert\n    /* \"--CODEGEN--\":802:804   */\ntag_16:\n    /* \"--CODEGEN--\":418:424   */\n  dup5\n    /* \"--CODEGEN--\":412:425   */\n  mload\n    /* \"--CODEGEN--\":430:482   */\n  tag_17\n    /* \"--CODEGEN--\":476:481   */\n  dup2\n    /* \"--CODEGEN--\":430:482   */\n  tag_18\n  jump\t// in\ntag_17:\n    /* \"--CODEGEN--\":1023:1025   */\n  0x20\n    /* \"--CODEGEN--\":1087:1109   */\n  dup7\n  add\n    /* \"--CODEGEN--\":238:251   */\n  mload\n    /* \"--CODEGEN--\":893:986   */\n  swap1\n  swap5\n  pop\n    /* \"--CODEGEN--\":256:303   */\n  tag_19\n    /* \"--CODEGEN--\":238:251   */\n  dup2\n    /* \"--CODEGEN--\":256:303   */\n  tag_18\n  jump\t// in\ntag_19:\n    /* \"--CODEGEN--\":1156:1158   */\n  0x40\n    /* \"--CODEGEN--\":1206:1228   */\n  dup7\n  add\n    /* \"--CODEGEN--\":572:585   */\n  mload\n    /* \"--CODEGEN--\":1275:1277   */\n  0x60\n    /* \"--CODEGEN--\":1325:1347   */\n  dup8\n  add\n    /* \"--CODEGEN--\":83:96   */\n  mload\n    /* \"--CODEGEN--\":1031:1119   */\n  swap2\n  swap5\n  pop\n    /* \"--CODEGEN--\":572:585   */\n  swap3\n  pop\n    /* \"--CODEGEN--\":101:134   */\n  tag_20\n    /* \"--CODEGEN--\":83:96   */\n  dup2\n    /* \"--CODEGEN--\":101:134   */\n  tag_18\n  jump\t// in\ntag_20:\n    /* \"--CODEGEN--\":796:1373   */\n  swap4\n  swap7\n  swap3\n  swap6\n  pop\n  swap1\n  swap4\n  pop\n  pop\n  jump\t// out\n    /* \"--CODEGEN--\":1914:2031   */\ntag_18:\n  sub(shl(0xa0, 0x01), 0x01)\n    /* \"--CODEGEN--\":1769:1823   */\n  dup2\n  and\n    /* \"--CODEGEN--\":1973:2008   */\n  dup2\n  eq\n    /* \"--CODEGEN--\":1963:1965   */\n  tag_22\n  jumpi\n    /* \"--CODEGEN--\":2022:2023   */\n  0x00\n  dup1\n    /* \"--CODEGEN--\":2012:2024   */\n  revert\n    /* \"--CODEGEN--\":1963:1965   */\ntag_22:\n    /* \"--CODEGEN--\":1957:2031   */\n  pop\n  jump\t// out\ntag_14:\n    /* \"contracts/sMasterChef.sol\":25023:48357  contract sMasterChef is Ownable, ReentrancyGuard {\r... */\n  shr(0x60, mload(0x80))\n  shr(0x60, mload(0xa0))\n  mload(0xc0)\n  codecopy(0x00, dataOffset(sub_0), dataSize(sub_0))\n  assignImmutable(\"0x9d86ea630c09ef2f1acbc248368c7b7030882e2a5db3011ef0f1f27cf79c9d56\")\n  assignImmutable(\"0xad6001c41f5480e3ca6168a06649b3a3f0b7288943b7fbc0eb5698ed5504137a\")\n  assignImmutable(\"0x523002c9adf4540d1913fbcc02308745afe7fe46bf4736ab566dafa3acaa32ea\")\n  return(0x00, dataSize(sub_0))\nstop\n\nsub_0: assembly {\n        /* \"contracts/sMasterChef.sol\":25023:48357  contract sMasterChef is Ownable, ReentrancyGuard {\r... */\n      mstore(0x40, 0x80)\n      callvalue\n      dup1\n      iszero\n      tag_1\n      jumpi\n      0x00\n      dup1\n      revert\n    tag_1:\n      pop\n      jumpi(tag_2, lt(calldatasize, 0x04))\n      shr(0xe0, calldataload(0x00))\n      dup1\n      0x715018a6\n      gt\n      tag_46\n      jumpi\n      dup1\n      0xc40d337b\n      gt\n      tag_47\n      jumpi\n      dup1\n      0xdfcedeee\n      gt\n      tag_48\n      jumpi\n      dup1\n      0xf474309e\n      gt\n      tag_49\n      jumpi\n      dup1\n      0xf474309e\n      eq\n      tag_43\n      jumpi\n      dup1\n      0xf5a26f40\n      eq\n      tag_44\n      jumpi\n      dup1\n      0xf5b91cd3\n      eq\n      tag_45\n      jumpi\n      jump(tag_2)\n    tag_49:\n      dup1\n      0xdfcedeee\n      eq\n      tag_40\n      jumpi\n      dup1\n      0xe2bbb158\n      eq\n      tag_41\n      jumpi\n      dup1\n      0xf2fde38b\n      eq\n      tag_42\n      jumpi\n      jump(tag_2)\n    tag_48:\n      dup1\n      0xc799b59d\n      gt\n      tag_50\n      jumpi\n      dup1\n      0xc799b59d\n      eq\n      tag_37\n      jumpi\n      dup1\n      0xcc6db2da\n      eq\n      tag_38\n      jumpi\n      dup1\n      0xd2ce6ae8\n      eq\n      tag_38\n      jumpi\n      jump(tag_2)\n    tag_50:\n      dup1\n      0xc40d337b\n      eq\n      tag_35\n      jumpi\n      dup1\n      0xc507aeaa\n      eq\n      tag_36\n      jumpi\n      jump(tag_2)\n    tag_47:\n      dup1\n      0x8da5cb5b\n      gt\n      tag_51\n      jumpi\n      dup1\n      0x9dd2fcc3\n      gt\n      tag_52\n      jumpi\n      dup1\n      0x9dd2fcc3\n      eq\n      tag_32\n      jumpi\n      dup1\n      0xac1d0609\n      eq\n      tag_33\n      jumpi\n      dup1\n      0xc3083016\n      eq\n      tag_34\n      jumpi\n      jump(tag_2)\n    tag_52:\n      dup1\n      0x8da5cb5b\n      eq\n      tag_29\n      jumpi\n      dup1\n      0x93f1a40b\n      eq\n      tag_30\n      jumpi\n      dup1\n      0x99d7e84a\n      eq\n      tag_31\n      jumpi\n      jump(tag_2)\n    tag_51:\n      dup1\n      0x78ed5d1f\n      gt\n      tag_53\n      jumpi\n      dup1\n      0x78ed5d1f\n      eq\n      tag_26\n      jumpi\n      dup1\n      0x815d087f\n      eq\n      tag_27\n      jumpi\n      dup1\n      0x81bdf98c\n      eq\n      tag_28\n      jumpi\n      jump(tag_2)\n    tag_53:\n      dup1\n      0x715018a6\n      eq\n      tag_24\n      jumpi\n      dup1\n      0x78db4c34\n      eq\n      tag_25\n      jumpi\n      jump(tag_2)\n    tag_46:\n      dup1\n      0x372c12b1\n      gt\n      tag_54\n      jumpi\n      dup1\n      0x61621aaa\n      gt\n      tag_55\n      jumpi\n      dup1\n      0x6661100f\n      gt\n      tag_56\n      jumpi\n      dup1\n      0x6661100f\n      eq\n      tag_21\n      jumpi\n      dup1\n      0x69b02128\n      eq\n      tag_22\n      jumpi\n      dup1\n      0x6fda08c3\n      eq\n      tag_23\n      jumpi\n      jump(tag_2)\n    tag_56:\n      dup1\n      0x61621aaa\n      eq\n      tag_18\n      jumpi\n      dup1\n      0x630b5ba1\n      eq\n      tag_19\n      jumpi\n      dup1\n      0x64482f79\n      eq\n      tag_20\n      jumpi\n      jump(tag_2)\n    tag_55:\n      dup1\n      0x4f70b15a\n      gt\n      tag_57\n      jumpi\n      dup1\n      0x4f70b15a\n      eq\n      tag_15\n      jumpi\n      dup1\n      0x51eb05a6\n      eq\n      tag_16\n      jumpi\n      dup1\n      0x5312ea8e\n      eq\n      tag_17\n      jumpi\n      jump(tag_2)\n    tag_57:\n      dup1\n      0x372c12b1\n      eq\n      tag_13\n      jumpi\n      dup1\n      0x441a3e70\n      eq\n      tag_14\n      jumpi\n      jump(tag_2)\n    tag_54:\n      dup1\n      0x1526fe27\n      gt\n      tag_58\n      jumpi\n      dup1\n      0x19ab453c\n      gt\n      tag_59\n      jumpi\n      dup1\n      0x19ab453c\n      eq\n      tag_10\n      jumpi\n      dup1\n      0x19f95e2e\n      eq\n      tag_11\n      jumpi\n      dup1\n      0x36183ed6\n      eq\n      tag_12\n      jumpi\n      jump(tag_2)\n    tag_59:\n      dup1\n      0x1526fe27\n      eq\n      tag_8\n      jumpi\n      dup1\n      0x16e80f4d\n      eq\n      tag_9\n      jumpi\n      jump(tag_2)\n    tag_58:\n      dup1\n      0x041a84c9\n      gt\n      tag_60\n      jumpi\n      dup1\n      0x041a84c9\n      eq\n      tag_5\n      jumpi\n      dup1\n      0x081e3eda\n      eq\n      tag_6\n      jumpi\n      dup1\n      0x0bb844bc\n      eq\n      tag_7\n      jumpi\n      jump(tag_2)\n    tag_60:\n      dup1\n      0x033186e8\n      eq\n      tag_3\n      jumpi\n      dup1\n      0x03dcff74\n      eq\n      tag_4\n      jumpi\n    tag_2:\n      0x00\n      dup1\n      revert\n        /* \"contracts/sMasterChef.sol\":46703:46944  function getBoostMultiplier(address _user, uint256 _pid) public view returns (uint256) {\r... */\n    tag_3:\n      tag_61\n      tag_62\n      calldatasize\n      0x04\n      tag_63\n      jump\t// in\n    tag_62:\n      tag_64\n      jump\t// in\n    tag_61:\n      mload(0x40)\n      tag_65\n      swap2\n      swap1\n      tag_66\n      jump\t// in\n    tag_65:\n      mload(0x40)\n      dup1\n      swap2\n      sub\n      swap1\n      return\n        /* \"contracts/sMasterChef.sol\":27296:27324  IBEP20 public immutable SHDW */\n    tag_4:\n      tag_67\n      tag_68\n      jump\t// in\n    tag_67:\n      mload(0x40)\n      tag_65\n      swap2\n      swap1\n      tag_155\n      jump\t// in\n        /* \"contracts/sMasterChef.sol\":45263:46556  function updateBoostMultiplier(\r... */\n    tag_5:\n      tag_71\n      tag_72\n      calldatasize\n      0x04\n      tag_73\n      jump\t// in\n    tag_72:\n      tag_74\n      jump\t// in\n    tag_71:\n      stop\n        /* \"contracts/sMasterChef.sol\":32017:32117  function poolLength() public view returns (uint256 pools) {\r... */\n    tag_6:\n      tag_61\n      tag_76\n      jump\t// in\n        /* \"contracts/sMasterChef.sol\":43665:44063  function updateBurnAdmin(address _newAdmin) external onlyOwner {\r... */\n    tag_7:\n      tag_71\n      tag_79\n      calldatasize\n      0x04\n      tag_80\n      jump\t// in\n    tag_79:\n      tag_81\n      jump\t// in\n        /* \"contracts/sMasterChef.sol\":27564:27590  PoolInfo[] public poolInfo */\n    tag_8:\n      tag_82\n      tag_83\n      calldatasize\n      0x04\n      tag_84\n      jump\t// in\n    tag_83:\n      tag_85\n      jump\t// in\n    tag_82:\n      mload(0x40)\n      tag_65\n      swap6\n      swap5\n      swap4\n      swap3\n      swap2\n      swap1\n      tag_87\n      jump\t// in\n        /* \"contracts/sMasterChef.sol\":28456:28505  uint256 public constant ACC_SHDW_PRECISION = 1e18 */\n    tag_9:\n      tag_61\n      tag_89\n      jump\t// in\n        /* \"contracts/sMasterChef.sol\":31448:31958  function init(IBEP20 dummyToken) external onlyOwner {\r... */\n    tag_10:\n      tag_71\n      tag_92\n      calldatasize\n      0x04\n      tag_80\n      jump\t// in\n    tag_92:\n      tag_94\n      jump\t// in\n        /* \"contracts/sMasterChef.sol\":36937:37108  function shdwPerBlockToBurn() public view returns (uint256 amount) {\r... */\n    tag_11:\n      tag_61\n      tag_96\n      jump\t// in\n        /* \"contracts/sMasterChef.sol\":41878:42279  function burnShdw(bool _withUpdate) public onlyOwner {\r... */\n    tag_12:\n      tag_71\n      tag_99\n      calldatasize\n      0x04\n      tag_100\n      jump\t// in\n    tag_99:\n      tag_101\n      jump\t// in\n        /* \"contracts/sMasterChef.sol\":27883:27924  mapping(address => bool) public whiteList */\n    tag_13:\n      tag_102\n      tag_103\n      calldatasize\n      0x04\n      tag_80\n      jump\t// in\n    tag_103:\n      tag_104\n      jump\t// in\n    tag_102:\n      mload(0x40)\n      tag_65\n      swap2\n      swap1\n      tag_106\n      jump\t// in\n        /* \"contracts/sMasterChef.sol\":39822:40726  function withdraw(uint256 _pid, uint256 _amount) external nonReentrant {\r... */\n    tag_14:\n      tag_71\n      tag_108\n      calldatasize\n      0x04\n      tag_109\n      jump\t// in\n    tag_108:\n      tag_110\n      jump\t// in\n        /* \"contracts/sMasterChef.sol\":40818:40909  function harvestFromMasterChef() public {\r... */\n    tag_15:\n      tag_71\n      tag_112\n      jump\t// in\n        /* \"contracts/sMasterChef.sol\":37291:38240  function updatePool(uint256 _pid) public returns (PoolInfo memory pool) {\r... */\n    tag_16:\n      tag_113\n      tag_114\n      calldatasize\n      0x04\n      tag_84\n      jump\t// in\n    tag_114:\n      tag_115\n      jump\t// in\n    tag_113:\n      mload(0x40)\n      tag_65\n      swap2\n      swap1\n      tag_117\n      jump\t// in\n        /* \"contracts/sMasterChef.sol\":41050:41740  function emergencyWithdraw(uint256 _pid) external nonReentrant {\r... */\n    tag_17:\n      tag_71\n      tag_119\n      calldatasize\n      0x04\n      tag_84\n      jump\t// in\n    tag_119:\n      tag_120\n      jump\t// in\n        /* \"contracts/sMasterChef.sol\":27999:28034  uint256 public immutable MASTER_PID */\n    tag_18:\n      tag_61\n      tag_122\n      jump\t// in\n        /* \"contracts/sMasterChef.sol\":36054:36345  function massUpdatePools() public {\r... */\n    tag_19:\n      tag_71\n      tag_125\n      jump\t// in\n        /* \"contracts/sMasterChef.sol\":34082:34812  function set(\r... */\n    tag_20:\n      tag_71\n      tag_127\n      calldatasize\n      0x04\n      tag_128\n      jump\t// in\n    tag_127:\n      tag_129\n      jump\t// in\n        /* \"contracts/sMasterChef.sol\":29045:29089  uint256 public shdwRateToBurn = 643750000000 */\n    tag_21:\n      tag_61\n      tag_131\n      jump\t// in\n        /* \"contracts/sMasterChef.sol\":28734:28790  uint256 public constant MAX_BOOST_PRECISION = 200 * 1e10 */\n    tag_22:\n      tag_61\n      tag_134\n      jump\t// in\n        /* \"contracts/sMasterChef.sol\":29263:29314  uint256 public shdwRateToSpecialFarm = 293402777778 */\n    tag_23:\n      tag_61\n      tag_137\n      jump\t// in\n        /* \"contracts/sMasterChef.sol\":2698:2846  function renounceOwnership() public virtual onlyOwner {\r... */\n    tag_24:\n      tag_71\n      tag_140\n      jump\t// in\n        /* \"contracts/sMasterChef.sol\":29323:29353  uint256 public lastBurnedBlock */\n    tag_25:\n      tag_61\n      tag_142\n      jump\t// in\n        /* \"contracts/sMasterChef.sol\":27658:27681  IBEP20[] public lpToken */\n    tag_26:\n      tag_67\n      tag_145\n      calldatasize\n      0x04\n      tag_84\n      jump\t// in\n    tag_145:\n      tag_146\n      jump\t// in\n        /* \"contracts/sMasterChef.sol\":42664:43559  function updateShdwRate(\r... */\n    tag_27:\n      tag_71\n      tag_149\n      calldatasize\n      0x04\n      tag_150\n      jump\t// in\n    tag_149:\n      tag_151\n      jump\t// in\n        /* \"contracts/sMasterChef.sol\":27399:27423  address public burnAdmin */\n    tag_28:\n      tag_67\n      tag_153\n      jump\t// in\n        /* \"contracts/sMasterChef.sol\":2056:2135  function owner() public view returns (address) {\r... */\n    tag_29:\n      tag_67\n      tag_157\n      jump\t// in\n        /* \"contracts/sMasterChef.sol\":27731:27795  mapping(uint256 => mapping(address => UserInfo)) public userInfo */\n    tag_30:\n      tag_159\n      tag_160\n      calldatasize\n      0x04\n      tag_161\n      jump\t// in\n    tag_160:\n      tag_162\n      jump\t// in\n    tag_159:\n      mload(0x40)\n      tag_65\n      swap4\n      swap3\n      swap2\n      swap1\n      tag_164\n      jump\t// in\n        /* \"contracts/sMasterChef.sol\":28299:28336  uint256 public totalSpecialAllocPoint */\n    tag_31:\n      tag_61\n      tag_166\n      jump\t// in\n        /* \"contracts/sMasterChef.sol\":44665:45031  function updateBoostContract(address _newBoostContract) external onlyOwner {\r... */\n    tag_32:\n      tag_71\n      tag_169\n      calldatasize\n      0x04\n      tag_80\n      jump\t// in\n    tag_169:\n      tag_170\n      jump\t// in\n        /* \"contracts/sMasterChef.sol\":44241:44503  function updateWhiteList(address _user, bool _isValid) external onlyOwner {\r... */\n    tag_33:\n      tag_71\n      tag_172\n      calldatasize\n      0x04\n      tag_173\n      jump\t// in\n    tag_172:\n      tag_174\n      jump\t// in\n        /* \"contracts/sMasterChef.sol\":27208:27246  IMasterChef public immutable DARK_CHEF */\n    tag_34:\n      tag_67\n      tag_176\n      jump\t// in\n        /* \"contracts/sMasterChef.sol\":28148:28185  uint256 public totalRegularAllocPoint */\n    tag_35:\n      tag_61\n      tag_180\n      jump\t// in\n        /* \"contracts/sMasterChef.sol\":32666:33776  function add(\r... */\n    tag_36:\n      tag_71\n      tag_183\n      calldatasize\n      0x04\n      tag_184\n      jump\t// in\n    tag_183:\n      tag_185\n      jump\t// in\n        /* \"contracts/sMasterChef.sol\":34986:35956  function pendingShdw(uint256 _pid, address _user) external view returns (uint256) {\r... */\n    tag_37:\n      tag_61\n      tag_187\n      calldatasize\n      0x04\n      tag_161\n      jump\t// in\n    tag_187:\n      tag_188\n      jump\t// in\n        /* \"contracts/sMasterChef.sol\":28584:28636  uint256 public constant BOOST_PRECISION = 100 * 1e10 */\n    tag_38:\n      tag_61\n      tag_191\n      jump\t// in\n        /* \"contracts/sMasterChef.sol\":27486:27514  address public boostContract */\n    tag_40:\n      tag_67\n      tag_197\n      jump\t// in\n        /* \"contracts/sMasterChef.sol\":38405:39653  function deposit(uint256 _pid, uint256 _amount) external nonReentrant {\r... */\n    tag_41:\n      tag_71\n      tag_200\n      calldatasize\n      0x04\n      tag_109\n      jump\t// in\n    tag_200:\n      tag_201\n      jump\t// in\n        /* \"contracts/sMasterChef.sol\":3001:3245  function transferOwnership(address newOwner) public virtual onlyOwner {\r... */\n    tag_42:\n      tag_71\n      tag_203\n      calldatasize\n      0x04\n      tag_80\n      jump\t// in\n    tag_203:\n      tag_204\n      jump\t// in\n        /* \"contracts/sMasterChef.sol\":36495:36849  function shdwPerBlock(bool _isRegular) public view returns (uint256 amount) {\r... */\n    tag_43:\n      tag_61\n      tag_206\n      calldatasize\n      0x04\n      tag_100\n      jump\t// in\n    tag_206:\n      tag_207\n      jump\t// in\n        /* \"contracts/sMasterChef.sol\":29153:29203  uint256 public shdwRateToRegularFarm = 62847222222 */\n    tag_44:\n      tag_61\n      tag_210\n      jump\t// in\n        /* \"contracts/sMasterChef.sol\":28388:28449  uint256 public constant MASTERCHEF_SHDW_PER_BLOCK = 40 * 1e18 */\n    tag_45:\n      tag_61\n      tag_213\n      jump\t// in\n        /* \"contracts/sMasterChef.sol\":46703:46944  function getBoostMultiplier(address _user, uint256 _pid) public view returns (uint256) {\r... */\n    tag_64:\n        /* \"contracts/sMasterChef.sol\":46781:46788  uint256 */\n      0x00\n        /* \"contracts/sMasterChef.sol\":46822:46836  userInfo[_pid] */\n      dup2\n      dup2\n      mstore\n        /* \"contracts/sMasterChef.sol\":46822:46830  userInfo */\n      0x06\n        /* \"contracts/sMasterChef.sol\":46822:46836  userInfo[_pid] */\n      0x20\n      swap1\n      dup2\n      mstore\n      0x40\n      dup1\n      dup4\n      keccak256\n        /* \"contracts/sMasterChef.sol\":46822:46843  userInfo[_pid][_user] */\n      0xffffffffffffffffffffffffffffffffffffffff\n      dup7\n      and\n      dup5\n      mstore\n      swap1\n      swap2\n      mstore\n      dup2\n      keccak256\n        /* \"contracts/sMasterChef.sol\":46822:46859  userInfo[_pid][_user].boostMultiplier */\n      0x02\n      add\n      sload\n        /* \"contracts/sMasterChef.sol\":28626:28636  100 * 1e10 */\n      0xe8d4a51000\n        /* \"contracts/sMasterChef.sol\":46877:46905  multiplier > BOOST_PRECISION */\n      dup2\n      gt\n        /* \"contracts/sMasterChef.sol\":46877:46936  multiplier > BOOST_PRECISION ? multiplier : BOOST_PRECISION */\n      tag_216\n      jumpi\n        /* \"contracts/sMasterChef.sol\":28626:28636  100 * 1e10 */\n      0xe8d4a51000\n        /* \"contracts/sMasterChef.sol\":46877:46936  multiplier > BOOST_PRECISION ? multiplier : BOOST_PRECISION */\n      jump(tag_217)\n    tag_216:\n        /* \"contracts/sMasterChef.sol\":46908:46918  multiplier */\n      dup1\n        /* \"contracts/sMasterChef.sol\":46877:46936  multiplier > BOOST_PRECISION ? multiplier : BOOST_PRECISION */\n    tag_217:\n        /* \"contracts/sMasterChef.sol\":46870:46936  return multiplier > BOOST_PRECISION ? multiplier : BOOST_PRECISION */\n      swap2\n      pop\n      pop\n        /* \"contracts/sMasterChef.sol\":46703:46944  function getBoostMultiplier(address _user, uint256 _pid) public view returns (uint256) {\r... */\n    tag_215:\n      swap3\n      swap2\n      pop\n      pop\n      jump\t// out\n        /* \"contracts/sMasterChef.sol\":27296:27324  IBEP20 public immutable SHDW */\n    tag_68:\n      immutable(\"0xad6001c41f5480e3ca6168a06649b3a3f0b7288943b7fbc0eb5698ed5504137a\")\n      dup2\n      jump\t// out\n        /* \"contracts/sMasterChef.sol\":45263:46556  function updateBoostMultiplier(\r... */\n    tag_74:\n        /* \"contracts/sMasterChef.sol\":30951:30964  boostContract */\n      sload(0x03)\n        /* \"contracts/sMasterChef.sol\":30951:30978  boostContract == msg.sender */\n      0xffffffffffffffffffffffffffffffffffffffff\n        /* \"contracts/sMasterChef.sol\":30951:30964  boostContract */\n      and\n        /* \"contracts/sMasterChef.sol\":30968:30978  msg.sender */\n      caller\n        /* \"contracts/sMasterChef.sol\":30951:30978  boostContract == msg.sender */\n      eq\n        /* \"contracts/sMasterChef.sol\":30943:31024  require(boostContract == msg.sender, \"Ownable: caller is not the boost contract\") */\n      tag_219\n      jumpi\n      mload(0x40)\n      0x08c379a000000000000000000000000000000000000000000000000000000000\n      dup2\n      mstore\n      0x04\n      add\n      tag_220\n      swap1\n      tag_221\n      jump\t// in\n    tag_220:\n      mload(0x40)\n      dup1\n      swap2\n      sub\n      swap1\n      revert\n    tag_219:\n        /* \"contracts/sMasterChef.sol\":10252:10253  2 */\n      0x02\n        /* \"contracts/sMasterChef.sol\":10858:10865  _status */\n      sload(0x01)\n        /* \"contracts/sMasterChef.sol\":10858:10877  _status != _ENTERED */\n      eq\n      iszero\n        /* \"contracts/sMasterChef.sol\":10850:10913  require(_status != _ENTERED, \"ReentrancyGuard: reentrant call\") */\n      tag_223\n      jumpi\n      mload(0x40)\n      0x08c379a000000000000000000000000000000000000000000000000000000000\n      dup2\n      mstore\n      0x04\n      add\n      tag_220\n      swap1\n      tag_225\n      jump\t// in\n    tag_223:\n        /* \"contracts/sMasterChef.sol\":10252:10253  2 */\n      0x02\n        /* \"contracts/sMasterChef.sol\":10991:10998  _status */\n      0x01\n        /* \"contracts/sMasterChef.sol\":10991:11009  _status = _ENTERED */\n      sstore\n        /* \"contracts/sMasterChef.sol\":45440:45459  _user != address(0) */\n      0xffffffffffffffffffffffffffffffffffffffff\n      dup4\n      and\n        /* \"contracts/sMasterChef.sol\":45432:45507  require(_user != address(0), \"sMasterChef: The user address must be valid\") */\n      tag_227\n      jumpi\n      mload(0x40)\n      0x08c379a000000000000000000000000000000000000000000000000000000000\n      dup2\n      mstore\n      0x04\n      add\n      tag_220\n      swap1\n      tag_229\n      jump\t// in\n    tag_227:\n        /* \"contracts/sMasterChef.sol\":45526:45534  poolInfo */\n      0x04\n        /* \"contracts/sMasterChef.sol\":45535:45539  _pid */\n      dup3\n        /* \"contracts/sMasterChef.sol\":45526:45540  poolInfo[_pid] */\n      dup2\n      sload\n      dup2\n      lt\n      tag_230\n      jumpi\n      invalid\n    tag_230:\n      0x00\n      swap2\n      dup3\n      mstore\n      0x20\n      swap1\n      swap2\n      keccak256\n        /* \"contracts/sMasterChef.sol\":45526:45550  poolInfo[_pid].isRegular */\n      0x04\n        /* \"contracts/sMasterChef.sol\":45526:45540  poolInfo[_pid] */\n      0x05\n      swap1\n      swap3\n      mul\n      add\n        /* \"contracts/sMasterChef.sol\":45526:45550  poolInfo[_pid].isRegular */\n      add\n      sload\n      0xff\n      and\n        /* \"contracts/sMasterChef.sol\":45518:45602  require(poolInfo[_pid].isRegular, \"sMasterChef: Only regular farm could be boosted\") */\n      tag_232\n      jumpi\n      mload(0x40)\n      0x08c379a000000000000000000000000000000000000000000000000000000000\n      dup2\n      mstore\n      0x04\n      add\n      tag_220\n      swap1\n      tag_234\n      jump\t// in\n    tag_232:\n        /* \"contracts/sMasterChef.sol\":28626:28636  100 * 1e10 */\n      0xe8d4a51000\n        /* \"contracts/sMasterChef.sol\":45635:45649  _newMultiplier */\n      dup2\n        /* \"contracts/sMasterChef.sol\":45635:45668  _newMultiplier >= BOOST_PRECISION */\n      lt\n      iszero\n        /* \"contracts/sMasterChef.sol\":45635:45709  _newMultiplier >= BOOST_PRECISION && _newMultiplier <= MAX_BOOST_PRECISION */\n      dup1\n      iszero\n      tag_235\n      jumpi\n      pop\n        /* \"contracts/sMasterChef.sol\":28780:28790  200 * 1e10 */\n      0x01d1a94a2000\n        /* \"contracts/sMasterChef.sol\":45672:45686  _newMultiplier */\n      dup2\n        /* \"contracts/sMasterChef.sol\":45672:45709  _newMultiplier <= MAX_BOOST_PRECISION */\n      gt\n      iszero\n        /* \"contracts/sMasterChef.sol\":45635:45709  _newMultiplier >= BOOST_PRECISION && _newMultiplier <= MAX_BOOST_PRECISION */\n    tag_235:\n        /* \"contracts/sMasterChef.sol\":45613:45778  require(\r... */\n      tag_236\n      jumpi\n      mload(0x40)\n      0x08c379a000000000000000000000000000000000000000000000000000000000\n      dup2\n      mstore\n      0x04\n      add\n      tag_220\n      swap1\n      tag_238\n      jump\t// in\n    tag_236:\n        /* \"contracts/sMasterChef.sol\":45791:45811  PoolInfo memory pool */\n      tag_239\n      tag_240\n      jump\t// in\n    tag_239:\n        /* \"contracts/sMasterChef.sol\":45814:45830  updatePool(_pid) */\n      tag_241\n        /* \"contracts/sMasterChef.sol\":45825:45829  _pid */\n      dup4\n        /* \"contracts/sMasterChef.sol\":45814:45824  updatePool */\n      tag_115\n        /* \"contracts/sMasterChef.sol\":45814:45830  updatePool(_pid) */\n      jump\t// in\n    tag_241:\n        /* \"contracts/sMasterChef.sol\":45841:45862  UserInfo storage user */\n      0x00\n        /* \"contracts/sMasterChef.sol\":45865:45879  userInfo[_pid] */\n      dup5\n      dup2\n      mstore\n        /* \"contracts/sMasterChef.sol\":45865:45873  userInfo */\n      0x06\n        /* \"contracts/sMasterChef.sol\":45865:45879  userInfo[_pid] */\n      0x20\n      swap1\n      dup2\n      mstore\n      0x40\n      dup1\n      dup4\n      keccak256\n        /* \"contracts/sMasterChef.sol\":45865:45886  userInfo[_pid][_user] */\n      0xffffffffffffffffffffffffffffffffffffffff\n      dup10\n      and\n      dup5\n      mstore\n      swap1\n      swap2\n      mstore\n      dup2\n      keccak256\n        /* \"contracts/sMasterChef.sol\":45791:45830  PoolInfo memory pool = updatePool(_pid) */\n      swap2\n      swap3\n      pop\n        /* \"contracts/sMasterChef.sol\":45924:45955  getBoostMultiplier(_user, _pid) */\n      tag_242\n        /* \"contracts/sMasterChef.sol\":45880:45885  _user */\n      dup7\n        /* \"contracts/sMasterChef.sol\":45874:45878  _pid */\n      dup7\n        /* \"contracts/sMasterChef.sol\":45924:45942  getBoostMultiplier */\n      tag_64\n        /* \"contracts/sMasterChef.sol\":45924:45955  getBoostMultiplier(_user, _pid) */\n      jump\t// in\n    tag_242:\n        /* \"contracts/sMasterChef.sol\":45899:45955  uint256 prevMultiplier = getBoostMultiplier(_user, _pid) */\n      swap1\n      pop\n        /* \"contracts/sMasterChef.sol\":45966:46012  settlePendingShdw(_user, _pid, prevMultiplier) */\n      tag_243\n        /* \"contracts/sMasterChef.sol\":45984:45989  _user */\n      dup7\n        /* \"contracts/sMasterChef.sol\":45991:45995  _pid */\n      dup7\n        /* \"contracts/sMasterChef.sol\":45997:46011  prevMultiplier */\n      dup4\n        /* \"contracts/sMasterChef.sol\":45966:45983  settlePendingShdw */\n      tag_244\n        /* \"contracts/sMasterChef.sol\":45966:46012  settlePendingShdw(_user, _pid, prevMultiplier) */\n      jump\t// in\n    tag_243:\n        /* \"contracts/sMasterChef.sol\":46043:46169  user.amount.mul(_newMultiplier).div(BOOST_PRECISION).mul(pool.accShdwPerShare).div(\r... */\n      tag_245\n        /* \"contracts/sMasterChef.sol\":28501:28505  1e18 */\n      0x0de0b6b3a7640000\n        /* \"contracts/sMasterChef.sol\":46043:46121  user.amount.mul(_newMultiplier).div(BOOST_PRECISION).mul(pool.accShdwPerShare) */\n      tag_248\n        /* \"contracts/sMasterChef.sol\":46100:46104  pool */\n      dup6\n        /* \"contracts/sMasterChef.sol\":46100:46120  pool.accShdwPerShare */\n      0x00\n      add\n      mload\n        /* \"contracts/sMasterChef.sol\":46043:46095  user.amount.mul(_newMultiplier).div(BOOST_PRECISION) */\n      tag_247\n        /* \"contracts/sMasterChef.sol\":28626:28636  100 * 1e10 */\n      0xe8d4a51000\n        /* \"contracts/sMasterChef.sol\":46043:46074  user.amount.mul(_newMultiplier) */\n      tag_248\n        /* \"contracts/sMasterChef.sol\":46059:46073  _newMultiplier */\n      dup11\n        /* \"contracts/sMasterChef.sol\":46043:46047  user */\n      dup10\n        /* \"contracts/sMasterChef.sol\":46043:46054  user.amount */\n      0x00\n      add\n      sload\n        /* \"contracts/sMasterChef.sol\":46043:46058  user.amount.mul */\n      tag_249\n      swap1\n        /* \"contracts/sMasterChef.sol\":46043:46074  user.amount.mul(_newMultiplier) */\n      swap2\n      swap1\n      0xffffffff\n      and\n      jump\t// in\n    tag_248:\n        /* \"contracts/sMasterChef.sol\":46043:46078  user.amount.mul(_newMultiplier).div */\n      swap1\n      tag_250\n        /* \"contracts/sMasterChef.sol\":46043:46095  user.amount.mul(_newMultiplier).div(BOOST_PRECISION) */\n      jump\t// in\n    tag_247:\n        /* \"contracts/sMasterChef.sol\":46043:46099  user.amount.mul(_newMultiplier).div(BOOST_PRECISION).mul */\n      swap1\n      tag_249\n        /* \"contracts/sMasterChef.sol\":46043:46121  user.amount.mul(_newMultiplier).div(BOOST_PRECISION).mul(pool.accShdwPerShare) */\n      jump\t// in\n        /* \"contracts/sMasterChef.sol\":46043:46169  user.amount.mul(_newMultiplier).div(BOOST_PRECISION).mul(pool.accShdwPerShare).div(\r... */\n    tag_245:\n        /* \"contracts/sMasterChef.sol\":46025:46040  user.rewardDebt */\n      0x01\n      dup4\n      add\n        /* \"contracts/sMasterChef.sol\":46025:46169  user.rewardDebt = user.amount.mul(_newMultiplier).div(BOOST_PRECISION).mul(pool.accShdwPerShare).div(\r... */\n      sstore\n        /* \"contracts/sMasterChef.sol\":46304:46315  user.amount */\n      dup2\n      sload\n        /* \"contracts/sMasterChef.sol\":46205:46367  pool.totalBoostedShare.sub(user.amount.mul(prevMultiplier).div(BOOST_PRECISION)).add(\r... */\n      tag_251\n      swap1\n        /* \"contracts/sMasterChef.sol\":46304:46356  user.amount.mul(_newMultiplier).div(BOOST_PRECISION) */\n      tag_252\n      swap1\n        /* \"contracts/sMasterChef.sol\":28626:28636  100 * 1e10 */\n      0xe8d4a51000\n      swap1\n        /* \"contracts/sMasterChef.sol\":46304:46335  user.amount.mul(_newMultiplier) */\n      tag_248\n      swap1\n        /* \"contracts/sMasterChef.sol\":46320:46334  _newMultiplier */\n      dup9\n        /* \"contracts/sMasterChef.sol\":46304:46319  user.amount.mul */\n      tag_249\n        /* \"contracts/sMasterChef.sol\":46304:46335  user.amount.mul(_newMultiplier) */\n      jump\t// in\n        /* \"contracts/sMasterChef.sol\":46304:46356  user.amount.mul(_newMultiplier).div(BOOST_PRECISION) */\n    tag_252:\n        /* \"contracts/sMasterChef.sol\":46232:46243  user.amount */\n      dup4\n      sload\n        /* \"contracts/sMasterChef.sol\":46205:46285  pool.totalBoostedShare.sub(user.amount.mul(prevMultiplier).div(BOOST_PRECISION)) */\n      tag_254\n      swap1\n        /* \"contracts/sMasterChef.sol\":46232:46284  user.amount.mul(prevMultiplier).div(BOOST_PRECISION) */\n      tag_255\n      swap1\n        /* \"contracts/sMasterChef.sol\":28626:28636  100 * 1e10 */\n      0xe8d4a51000\n      swap1\n        /* \"contracts/sMasterChef.sol\":46232:46263  user.amount.mul(prevMultiplier) */\n      tag_248\n      swap1\n        /* \"contracts/sMasterChef.sol\":46248:46262  prevMultiplier */\n      dup8\n        /* \"contracts/sMasterChef.sol\":46232:46247  user.amount.mul */\n      tag_249\n        /* \"contracts/sMasterChef.sol\":46232:46263  user.amount.mul(prevMultiplier) */\n      jump\t// in\n        /* \"contracts/sMasterChef.sol\":46232:46284  user.amount.mul(prevMultiplier).div(BOOST_PRECISION) */\n    tag_255:\n        /* \"contracts/sMasterChef.sol\":46205:46227  pool.totalBoostedShare */\n      0x60\n      dup8\n      add\n      mload\n      swap1\n        /* \"contracts/sMasterChef.sol\":46205:46231  pool.totalBoostedShare.sub */\n      tag_257\n        /* \"contracts/sMasterChef.sol\":46205:46285  pool.totalBoostedShare.sub(user.amount.mul(prevMultiplier).div(BOOST_PRECISION)) */\n      jump\t// in\n    tag_254:\n        /* \"contracts/sMasterChef.sol\":46205:46289  pool.totalBoostedShare.sub(user.amount.mul(prevMultiplier).div(BOOST_PRECISION)).add */\n      swap1\n      tag_258\n        /* \"contracts/sMasterChef.sol\":46205:46367  pool.totalBoostedShare.sub(user.amount.mul(prevMultiplier).div(BOOST_PRECISION)).add(\r... */\n      jump\t// in\n    tag_251:\n        /* \"contracts/sMasterChef.sol\":46180:46202  pool.totalBoostedShare */\n      0x60\n      dup5\n      add\n        /* \"contracts/sMasterChef.sol\":46180:46367  pool.totalBoostedShare = pool.totalBoostedShare.sub(user.amount.mul(prevMultiplier).div(BOOST_PRECISION)).add(\r... */\n      mstore\n        /* \"contracts/sMasterChef.sol\":46378:46386  poolInfo */\n      0x04\n        /* \"contracts/sMasterChef.sol\":46378:46392  poolInfo[_pid] */\n      dup1\n      sload\n        /* \"contracts/sMasterChef.sol\":46180:46184  pool */\n      dup5\n      swap2\n        /* \"contracts/sMasterChef.sol\":46378:46386  poolInfo */\n      swap1\n        /* \"contracts/sMasterChef.sol\":46387:46391  _pid */\n      dup8\n      swap1\n        /* \"contracts/sMasterChef.sol\":46378:46392  poolInfo[_pid] */\n      dup2\n      lt\n      tag_259\n      jumpi\n      invalid\n    tag_259:\n      0x00\n      swap2\n      dup3\n      mstore\n      0x20\n      dup1\n      dup4\n      keccak256\n        /* \"contracts/sMasterChef.sol\":46378:46399  poolInfo[_pid] = pool */\n      dup5\n      mload\n        /* \"contracts/sMasterChef.sol\":46378:46392  poolInfo[_pid] */\n      0x05\n      swap4\n      swap1\n      swap4\n      mul\n      add\n        /* \"contracts/sMasterChef.sol\":46378:46399  poolInfo[_pid] = pool */\n      swap2\n      dup3\n      sstore\n      dup4\n      dup2\n      add\n      mload\n      0x01\n      dup4\n      add\n      sstore\n      0x40\n      dup1\n      dup6\n      add\n      mload\n      0x02\n      dup1\n      dup6\n      add\n      swap2\n      swap1\n      swap2\n      sstore\n      0x60\n      dup7\n      add\n      mload\n      0x03\n      dup6\n      add\n      sstore\n      0x80\n      swap1\n      swap6\n      add\n      mload\n      0x04\n      swap1\n      swap4\n      add\n      dup1\n      sload\n      0xffffffffffffffffffffffffffffffffffffffffffffffffffffffffffffff00\n      and\n      swap4\n      iszero\n      iszero\n      swap4\n      swap1\n      swap4\n      or\n      swap1\n      swap3\n      sstore\n        /* \"contracts/sMasterChef.sol\":46410:46424  userInfo[_pid] */\n      dup9\n      dup4\n      mstore\n        /* \"contracts/sMasterChef.sol\":46410:46418  userInfo */\n      0x06\n        /* \"contracts/sMasterChef.sol\":46410:46424  userInfo[_pid] */\n      dup2\n      mstore\n      dup2\n      dup4\n      keccak256\n        /* \"contracts/sMasterChef.sol\":46410:46431  userInfo[_pid][_user] */\n      0xffffffffffffffffffffffffffffffffffffffff\n      dup12\n      and\n      dup1\n      dup6\n      mstore\n      swap2\n      mstore\n      swap2\n      dup2\n      swap1\n      keccak256\n        /* \"contracts/sMasterChef.sol\":46410:46447  userInfo[_pid][_user].boostMultiplier */\n      swap1\n      swap3\n      add\n        /* \"contracts/sMasterChef.sol\":46410:46464  userInfo[_pid][_user].boostMultiplier = _newMultiplier */\n      dup7\n      swap1\n      sstore\n        /* \"contracts/sMasterChef.sol\":46482:46548  UpdateBoostMultiplier(_user, _pid, prevMultiplier, _newMultiplier) */\n      swap1\n      mload\n      0x01abd62439b64f6c5dab6f94d56099495bd0c094f9c21f98f4d3562a21edb4ba\n      swap1\n      tag_261\n      swap1\n        /* \"contracts/sMasterChef.sol\":46410:46424  userInfo[_pid] */\n      dup9\n      swap1\n        /* \"contracts/sMasterChef.sol\":46517:46531  prevMultiplier */\n      dup6\n      swap1\n        /* \"contracts/sMasterChef.sol\":46410:46464  userInfo[_pid][_user].boostMultiplier = _newMultiplier */\n      dup10\n      swap1\n        /* \"contracts/sMasterChef.sol\":46482:46548  UpdateBoostMultiplier(_user, _pid, prevMultiplier, _newMultiplier) */\n      tag_164\n      jump\t// in\n    tag_261:\n      mload(0x40)\n      dup1\n      swap2\n      sub\n      swap1\n      log2\n      pop\n      pop\n        /* \"contracts/sMasterChef.sol\":10208:10209  1 */\n      0x01\n        /* \"contracts/sMasterChef.sol\":11170:11192  _status = _NOT_ENTERED */\n      dup1\n      sstore\n      pop\n      pop\n      pop\n      pop\n        /* \"contracts/sMasterChef.sol\":45263:46556  function updateBoostMultiplier(\r... */\n      jump\t// out\n        /* \"contracts/sMasterChef.sol\":32017:32117  function poolLength() public view returns (uint256 pools) {\r... */\n    tag_76:\n        /* \"contracts/sMasterChef.sol\":32094:32102  poolInfo */\n      0x04\n        /* \"contracts/sMasterChef.sol\":32094:32109  poolInfo.length */\n      sload\n      swap1\n        /* \"contracts/sMasterChef.sol\":32017:32117  function poolLength() public view returns (uint256 pools) {\r... */\n      jump\t// out\n        /* \"contracts/sMasterChef.sol\":43665:44063  function updateBurnAdmin(address _newAdmin) external onlyOwner {\r... */\n    tag_81:\n        /* \"contracts/sMasterChef.sol\":2278:2290  _msgSender() */\n      tag_264\n        /* \"contracts/sMasterChef.sol\":2278:2288  _msgSender */\n      tag_265\n        /* \"contracts/sMasterChef.sol\":2278:2290  _msgSender() */\n      jump\t// in\n    tag_264:\n        /* \"contracts/sMasterChef.sol\":2268:2274  _owner */\n      sload(0x00)\n        /* \"contracts/sMasterChef.sol\":2268:2290  _owner == _msgSender() */\n      0xffffffffffffffffffffffffffffffffffffffff\n        /* \"contracts/sMasterChef.sol\":2268:2274  _owner */\n      swap1\n      dup2\n      and\n        /* \"contracts/sMasterChef.sol\":2268:2290  _owner == _msgSender() */\n      swap2\n      and\n      eq\n        /* \"contracts/sMasterChef.sol\":2260:2327  require(_owner == _msgSender(), \"Ownable: caller is not the owner\") */\n      tag_266\n      jumpi\n      mload(0x40)\n      0x08c379a000000000000000000000000000000000000000000000000000000000\n      dup2\n      mstore\n      0x04\n      add\n      tag_220\n      swap1\n      tag_268\n      jump\t// in\n    tag_266:\n        /* \"contracts/sMasterChef.sol\":43747:43770  _newAdmin != address(0) */\n      0xffffffffffffffffffffffffffffffffffffffff\n      dup2\n      and\n        /* \"contracts/sMasterChef.sol\":43739:43820  require(_newAdmin != address(0), \"sMasterChef: Burn admin address must be valid\") */\n      tag_270\n      jumpi\n      mload(0x40)\n      0x08c379a000000000000000000000000000000000000000000000000000000000\n      dup2\n      mstore\n      0x04\n      add\n      tag_220\n      swap1\n      tag_272\n      jump\t// in\n    tag_270:\n        /* \"contracts/sMasterChef.sol\":43852:43861  burnAdmin */\n      sload(0x02)\n      0xffffffffffffffffffffffffffffffffffffffff\n        /* \"contracts/sMasterChef.sol\":43839:43861  _newAdmin != burnAdmin */\n      dup3\n      dup2\n      and\n        /* \"contracts/sMasterChef.sol\":43852:43861  burnAdmin */\n      swap2\n      and\n        /* \"contracts/sMasterChef.sol\":43839:43861  _newAdmin != burnAdmin */\n      eq\n      iszero\n        /* \"contracts/sMasterChef.sol\":43831:43930  require(_newAdmin != burnAdmin, \"sMasterChef: Burn admin address is the same with current address\") */\n      tag_273\n      jumpi\n      mload(0x40)\n      0x08c379a000000000000000000000000000000000000000000000000000000000\n      dup2\n      mstore\n      0x04\n      add\n      tag_220\n      swap1\n      tag_275\n      jump\t// in\n    tag_273:\n        /* \"contracts/sMasterChef.sol\":43961:43970  burnAdmin */\n      0x02\n      dup1\n      sload\n      0xffffffffffffffffffffffffffffffffffffffff\n        /* \"contracts/sMasterChef.sol\":43981:44002  burnAdmin = _newAdmin */\n      dup4\n      dup2\n      and\n      0xffffffffffffffffffffffff0000000000000000000000000000000000000000\n      dup4\n      and\n      dup2\n      or\n      swap1\n      swap4\n      sstore\n        /* \"contracts/sMasterChef.sol\":44018:44055  UpdateBurnAdmin(_oldAdmin, _newAdmin) */\n      mload(0x40)\n        /* \"contracts/sMasterChef.sol\":43961:43970  burnAdmin */\n      swap2\n      and\n      swap2\n        /* \"contracts/sMasterChef.sol\":43981:44002  burnAdmin = _newAdmin */\n      swap1\n        /* \"contracts/sMasterChef.sol\":43961:43970  burnAdmin */\n      dup3\n      swap1\n        /* \"contracts/sMasterChef.sol\":44018:44055  UpdateBurnAdmin(_oldAdmin, _newAdmin) */\n      0xd146fe330fdddf682413850a35b28edfccd4c4b53cfee802fd24950de5be1dbe\n      swap1\n        /* \"contracts/sMasterChef.sol\":43941:43958  address _oldAdmin */\n      0x00\n      swap1\n        /* \"contracts/sMasterChef.sol\":44018:44055  UpdateBurnAdmin(_oldAdmin, _newAdmin) */\n      log3\n        /* \"contracts/sMasterChef.sol\":2338:2339  _ */\n      pop\n        /* \"contracts/sMasterChef.sol\":43665:44063  function updateBurnAdmin(address _newAdmin) external onlyOwner {\r... */\n      pop\n      jump\t// out\n        /* \"contracts/sMasterChef.sol\":27564:27590  PoolInfo[] public poolInfo */\n    tag_85:\n      0x04\n      dup2\n      dup2\n      sload\n      dup2\n      lt\n      tag_276\n      jumpi\n      invalid\n    tag_276:\n      0x00\n      swap2\n      dup3\n      mstore\n      0x20\n      swap1\n      swap2\n      keccak256\n      0x05\n      swap1\n      swap2\n      mul\n      add\n      dup1\n      sload\n      0x01\n      dup3\n      add\n      sload\n      0x02\n      dup4\n      add\n      sload\n      0x03\n      dup5\n      add\n      sload\n      0x04\n      swap1\n      swap5\n      add\n      sload\n      swap3\n      swap5\n      pop\n      swap1\n      swap3\n      swap1\n      swap2\n      0xff\n      and\n      dup6\n      jump\t// out\n        /* \"contracts/sMasterChef.sol\":28456:28505  uint256 public constant ACC_SHDW_PRECISION = 1e18 */\n    tag_89:\n        /* \"contracts/sMasterChef.sol\":28501:28505  1e18 */\n      0x0de0b6b3a7640000\n        /* \"contracts/sMasterChef.sol\":28456:28505  uint256 public constant ACC_SHDW_PRECISION = 1e18 */\n      dup2\n      jump\t// out\n        /* \"contracts/sMasterChef.sol\":31448:31958  function init(IBEP20 dummyToken) external onlyOwner {\r... */\n    tag_94:\n        /* \"contracts/sMasterChef.sol\":2278:2290  _msgSender() */\n      tag_279\n        /* \"contracts/sMasterChef.sol\":2278:2288  _msgSender */\n      tag_265\n        /* \"contracts/sMasterChef.sol\":2278:2290  _msgSender() */\n      jump\t// in\n    tag_279:\n        /* \"contracts/sMasterChef.sol\":2268:2274  _owner */\n      sload(0x00)\n        /* \"contracts/sMasterChef.sol\":2268:2290  _owner == _msgSender() */\n      0xffffffffffffffffffffffffffffffffffffffff\n        /* \"contracts/sMasterChef.sol\":2268:2274  _owner */\n      swap1\n      dup2\n      and\n        /* \"contracts/sMasterChef.sol\":2268:2290  _owner == _msgSender() */\n      swap2\n      and\n      eq\n        /* \"contracts/sMasterChef.sol\":2260:2327  require(_owner == _msgSender(), \"Ownable: caller is not the owner\") */\n      tag_280\n      jumpi\n      mload(0x40)\n      0x08c379a000000000000000000000000000000000000000000000000000000000\n      dup2\n      mstore\n      0x04\n      add\n      tag_220\n      swap1\n      tag_268\n      jump\t// in\n    tag_280:\n        /* \"contracts/sMasterChef.sol\":31529:31561  dummyToken.balanceOf(msg.sender) */\n      mload(0x40)\n      0x70a0823100000000000000000000000000000000000000000000000000000000\n      dup2\n      mstore\n        /* \"contracts/sMasterChef.sol\":31511:31526  uint256 balance */\n      0x00\n      swap1\n        /* \"contracts/sMasterChef.sol\":31529:31549  dummyToken.balanceOf */\n      0xffffffffffffffffffffffffffffffffffffffff\n      dup4\n      and\n      swap1\n      0x70a08231\n      swap1\n        /* \"contracts/sMasterChef.sol\":31529:31561  dummyToken.balanceOf(msg.sender) */\n      tag_283\n      swap1\n        /* \"contracts/sMasterChef.sol\":31550:31560  msg.sender */\n      caller\n      swap1\n        /* \"contracts/sMasterChef.sol\":31529:31561  dummyToken.balanceOf(msg.sender) */\n      0x04\n      add\n      tag_155\n      jump\t// in\n    tag_283:\n      0x20\n      mload(0x40)\n      dup1\n      dup4\n      sub\n      dup2\n      dup7\n      dup1\n      extcodesize\n      iszero\n      dup1\n      iszero\n      tag_285\n      jumpi\n      0x00\n      dup1\n      revert\n    tag_285:\n      pop\n      gas\n      staticcall\n      iszero\n      dup1\n      iszero\n      tag_287\n      jumpi\n      returndatasize\n      0x00\n      dup1\n      returndatacopy\n      revert(0x00, returndatasize)\n    tag_287:\n      pop\n      pop\n      pop\n      pop\n      mload(0x40)\n      returndatasize\n      not(0x1f)\n      0x1f\n      dup3\n      add\n      and\n      dup3\n      add\n      dup1\n      0x40\n      mstore\n      pop\n      dup2\n      add\n      swap1\n      tag_288\n      swap2\n      swap1\n      tag_289\n      jump\t// in\n    tag_288:\n        /* \"contracts/sMasterChef.sol\":31511:31561  uint256 balance = dummyToken.balanceOf(msg.sender) */\n      swap1\n      pop\n        /* \"contracts/sMasterChef.sol\":31580:31592  balance != 0 */\n      dup1\n        /* \"contracts/sMasterChef.sol\":31572:31631  require(balance != 0, \"sMasterChef: Balance must exceed 0\") */\n      tag_290\n      jumpi\n      mload(0x40)\n      0x08c379a000000000000000000000000000000000000000000000000000000000\n      dup2\n      mstore\n      0x04\n      add\n      tag_220\n      swap1\n      tag_292\n      jump\t// in\n    tag_290:\n        /* \"contracts/sMasterChef.sol\":31642:31705  dummyToken.safeTransferFrom(msg.sender, address(this), balance) */\n      tag_293\n        /* \"contracts/sMasterChef.sol\":31642:31669  dummyToken.safeTransferFrom */\n      0xffffffffffffffffffffffffffffffffffffffff\n      dup4\n      and\n        /* \"contracts/sMasterChef.sol\":31670:31680  msg.sender */\n      caller\n        /* \"contracts/sMasterChef.sol\":31690:31694  this */\n      address\n        /* \"contracts/sMasterChef.sol\":31697:31704  balance */\n      dup5\n        /* \"contracts/sMasterChef.sol\":31642:31669  dummyToken.safeTransferFrom */\n      tag_294\n        /* \"contracts/sMasterChef.sol\":31642:31705  dummyToken.safeTransferFrom(msg.sender, address(this), balance) */\n      jump\t// in\n    tag_293:\n        /* \"contracts/sMasterChef.sol\":31716:31763  dummyToken.approve(address(DARK_CHEF), balance) */\n      mload(0x40)\n      0x095ea7b300000000000000000000000000000000000000000000000000000000\n      dup2\n      mstore\n        /* \"contracts/sMasterChef.sol\":31716:31734  dummyToken.approve */\n      0xffffffffffffffffffffffffffffffffffffffff\n      dup4\n      and\n      swap1\n      0x095ea7b3\n      swap1\n        /* \"contracts/sMasterChef.sol\":31716:31763  dummyToken.approve(address(DARK_CHEF), balance) */\n      tag_295\n      swap1\n        /* \"contracts/sMasterChef.sol\":31743:31752  DARK_CHEF */\n      immutable(\"0x523002c9adf4540d1913fbcc02308745afe7fe46bf4736ab566dafa3acaa32ea\")\n      swap1\n        /* \"contracts/sMasterChef.sol\":31755:31762  balance */\n      dup6\n      swap1\n        /* \"contracts/sMasterChef.sol\":31716:31763  dummyToken.approve(address(DARK_CHEF), balance) */\n      0x04\n      add\n      tag_296\n      jump\t// in\n    tag_295:\n      0x20\n      mload(0x40)\n      dup1\n      dup4\n      sub\n      dup2\n      0x00\n      dup8\n      dup1\n      extcodesize\n      iszero\n      dup1\n      iszero\n      tag_297\n      jumpi\n      0x00\n      dup1\n      revert\n    tag_297:\n      pop\n      gas\n      call\n      iszero\n      dup1\n      iszero\n      tag_299\n      jumpi\n      returndatasize\n      0x00\n      dup1\n      returndatacopy\n      revert(0x00, returndatasize)\n    tag_299:\n      pop\n      pop\n      pop\n      pop\n      mload(0x40)\n      returndatasize\n      not(0x1f)\n      0x1f\n      dup3\n      add\n      and\n      dup3\n      add\n      dup1\n      0x40\n      mstore\n      pop\n      dup2\n      add\n      swap1\n      tag_300\n      swap2\n      swap1\n      tag_301\n      jump\t// in\n    tag_300:\n      pop\n        /* \"contracts/sMasterChef.sol\":31774:31812  DARK_CHEF.deposit(MASTER_PID, balance) */\n      mload(0x40)\n      0xe2bbb15800000000000000000000000000000000000000000000000000000000\n      dup2\n      mstore\n        /* \"contracts/sMasterChef.sol\":31774:31791  DARK_CHEF.deposit */\n      0xffffffffffffffffffffffffffffffffffffffff\n        /* \"contracts/sMasterChef.sol\":31774:31783  DARK_CHEF */\n      immutable(\"0x523002c9adf4540d1913fbcc02308745afe7fe46bf4736ab566dafa3acaa32ea\")\n        /* \"contracts/sMasterChef.sol\":31774:31791  DARK_CHEF.deposit */\n      and\n      swap1\n      0xe2bbb158\n      swap1\n        /* \"contracts/sMasterChef.sol\":31774:31812  DARK_CHEF.deposit(MASTER_PID, balance) */\n      tag_302\n      swap1\n        /* \"contracts/sMasterChef.sol\":31792:31802  MASTER_PID */\n      immutable(\"0x9d86ea630c09ef2f1acbc248368c7b7030882e2a5db3011ef0f1f27cf79c9d56\")\n      swap1\n        /* \"contracts/sMasterChef.sol\":31804:31811  balance */\n      dup6\n      swap1\n        /* \"contracts/sMasterChef.sol\":31774:31812  DARK_CHEF.deposit(MASTER_PID, balance) */\n      0x04\n      add\n      tag_353\n      jump\t// in\n    tag_302:\n      0x00\n      mload(0x40)\n      dup1\n      dup4\n      sub\n      dup2\n      0x00\n      dup8\n      dup1\n      extcodesize\n      iszero\n      dup1\n      iszero\n      tag_304\n      jumpi\n      0x00\n      dup1\n      revert\n    tag_304:\n      pop\n      gas\n      call\n      iszero\n      dup1\n      iszero\n      tag_306\n      jumpi\n      returndatasize\n      0x00\n      dup1\n      returndatacopy\n      revert(0x00, returndatasize)\n    tag_306:\n      pop\n      pop\n        /* \"contracts/sMasterChef.sol\":31916:31928  block.number */\n      number\n        /* \"contracts/sMasterChef.sol\":31898:31913  lastBurnedBlock */\n      0x0d\n        /* \"contracts/sMasterChef.sol\":31898:31928  lastBurnedBlock = block.number */\n      sstore\n      pop\n      pop\n        /* \"contracts/sMasterChef.sol\":31944:31950  Init() */\n      mload(0x40)\n      0x57a86f7d14ccde89e22870afe839e3011216827daa9b24e18629f0a1e9d6cc14\n      swap1\n      0x00\n      swap1\n      log1\n        /* \"contracts/sMasterChef.sol\":2338:2339  _ */\n      pop\n        /* \"contracts/sMasterChef.sol\":31448:31958  function init(IBEP20 dummyToken) external onlyOwner {\r... */\n      pop\n      jump\t// out\n        /* \"contracts/sMasterChef.sol\":36937:37108  function shdwPerBlockToBurn() public view returns (uint256 amount) {\r... */\n    tag_96:\n        /* \"contracts/sMasterChef.sol\":36988:37002  uint256 amount */\n      0x00\n        /* \"contracts/sMasterChef.sol\":37024:37100  MASTERCHEF_SHDW_PER_BLOCK.mul(shdwRateToBurn).div(SHDW_RATE_TOTAL_PRECISION) */\n      tag_308\n        /* \"contracts/sMasterChef.sol\":28915:28919  1e12 */\n      0xe8d4a51000\n        /* \"contracts/sMasterChef.sol\":37024:37069  MASTERCHEF_SHDW_PER_BLOCK.mul(shdwRateToBurn) */\n      tag_248\n        /* \"contracts/sMasterChef.sol\":37054:37068  shdwRateToBurn */\n      sload(0x0a)\n        /* \"contracts/sMasterChef.sol\":28440:28449  40 * 1e18 */\n      0x022b1c8c1227a00000\n        /* \"contracts/sMasterChef.sol\":37024:37053  MASTERCHEF_SHDW_PER_BLOCK.mul */\n      tag_249\n      swap1\n        /* \"contracts/sMasterChef.sol\":37024:37069  MASTERCHEF_SHDW_PER_BLOCK.mul(shdwRateToBurn) */\n      swap2\n      swap1\n      0xffffffff\n      and\n      jump\t// in\n        /* \"contracts/sMasterChef.sol\":37024:37100  MASTERCHEF_SHDW_PER_BLOCK.mul(shdwRateToBurn).div(SHDW_RATE_TOTAL_PRECISION) */\n    tag_308:\n        /* \"contracts/sMasterChef.sol\":37015:37100  amount = MASTERCHEF_SHDW_PER_BLOCK.mul(shdwRateToBurn).div(SHDW_RATE_TOTAL_PRECISION) */\n      swap1\n      pop\n        /* \"contracts/sMasterChef.sol\":36937:37108  function shdwPerBlockToBurn() public view returns (uint256 amount) {\r... */\n      swap1\n      jump\t// out\n        /* \"contracts/sMasterChef.sol\":41878:42279  function burnShdw(bool _withUpdate) public onlyOwner {\r... */\n    tag_101:\n        /* \"contracts/sMasterChef.sol\":2278:2290  _msgSender() */\n      tag_311\n        /* \"contracts/sMasterChef.sol\":2278:2288  _msgSender */\n      tag_265\n        /* \"contracts/sMasterChef.sol\":2278:2290  _msgSender() */\n      jump\t// in\n    tag_311:\n        /* \"contracts/sMasterChef.sol\":2268:2274  _owner */\n      sload(0x00)\n        /* \"contracts/sMasterChef.sol\":2268:2290  _owner == _msgSender() */\n      0xffffffffffffffffffffffffffffffffffffffff\n        /* \"contracts/sMasterChef.sol\":2268:2274  _owner */\n      swap1\n      dup2\n      and\n        /* \"contracts/sMasterChef.sol\":2268:2290  _owner == _msgSender() */\n      swap2\n      and\n      eq\n        /* \"contracts/sMasterChef.sol\":2260:2327  require(_owner == _msgSender(), \"Ownable: caller is not the owner\") */\n      tag_312\n      jumpi\n      mload(0x40)\n      0x08c379a000000000000000000000000000000000000000000000000000000000\n      dup2\n      mstore\n      0x04\n      add\n      tag_220\n      swap1\n      tag_268\n      jump\t// in\n    tag_312:\n        /* \"contracts/sMasterChef.sol\":41946:41957  _withUpdate */\n      dup1\n        /* \"contracts/sMasterChef.sol\":41942:42003  if (_withUpdate) {\r... */\n      iszero\n      tag_316\n      jumpi\n        /* \"contracts/sMasterChef.sol\":41974:41991  massUpdatePools() */\n      tag_316\n        /* \"contracts/sMasterChef.sol\":41974:41989  massUpdatePools */\n      tag_125\n        /* \"contracts/sMasterChef.sol\":41974:41991  massUpdatePools() */\n      jump\t// in\n    tag_316:\n        /* \"contracts/sMasterChef.sol\":42015:42033  uint256 multiplier */\n      0x00\n        /* \"contracts/sMasterChef.sol\":42036:42069  block.number.sub(lastBurnedBlock) */\n      tag_317\n        /* \"contracts/sMasterChef.sol\":42053:42068  lastBurnedBlock */\n      sload(0x0d)\n        /* \"contracts/sMasterChef.sol\":42036:42048  block.number */\n      number\n        /* \"contracts/sMasterChef.sol\":42036:42052  block.number.sub */\n      tag_257\n      swap1\n        /* \"contracts/sMasterChef.sol\":42036:42069  block.number.sub(lastBurnedBlock) */\n      swap2\n      swap1\n      0xffffffff\n      and\n      jump\t// in\n    tag_317:\n        /* \"contracts/sMasterChef.sol\":42015:42069  uint256 multiplier = block.number.sub(lastBurnedBlock) */\n      swap1\n      pop\n        /* \"contracts/sMasterChef.sol\":42080:42105  uint256 pendingShdwToBurn */\n      0x00\n        /* \"contracts/sMasterChef.sol\":42108:42144  multiplier.mul(shdwPerBlockToBurn()) */\n      tag_318\n        /* \"contracts/sMasterChef.sol\":42123:42143  shdwPerBlockToBurn() */\n      tag_319\n        /* \"contracts/sMasterChef.sol\":42123:42141  shdwPerBlockToBurn */\n      tag_96\n        /* \"contracts/sMasterChef.sol\":42123:42143  shdwPerBlockToBurn() */\n      jump\t// in\n    tag_319:\n        /* \"contracts/sMasterChef.sol\":42108:42118  multiplier */\n      dup4\n      swap1\n        /* \"contracts/sMasterChef.sol\":42108:42122  multiplier.mul */\n      tag_249\n        /* \"contracts/sMasterChef.sol\":42108:42144  multiplier.mul(shdwPerBlockToBurn()) */\n      jump\t// in\n    tag_318:\n        /* \"contracts/sMasterChef.sol\":42201:42210  burnAdmin */\n      sload(0x02)\n        /* \"contracts/sMasterChef.sol\":42080:42144  uint256 pendingShdwToBurn = multiplier.mul(shdwPerBlockToBurn()) */\n      swap1\n      swap2\n      pop\n        /* \"contracts/sMasterChef.sol\":42187:42230  _safeTransfer(burnAdmin, pendingShdwToBurn) */\n      tag_320\n      swap1\n        /* \"contracts/sMasterChef.sol\":42201:42210  burnAdmin */\n      0xffffffffffffffffffffffffffffffffffffffff\n      and\n        /* \"contracts/sMasterChef.sol\":42080:42144  uint256 pendingShdwToBurn = multiplier.mul(shdwPerBlockToBurn()) */\n      dup3\n        /* \"contracts/sMasterChef.sol\":42187:42200  _safeTransfer */\n      tag_321\n        /* \"contracts/sMasterChef.sol\":42187:42230  _safeTransfer(burnAdmin, pendingShdwToBurn) */\n      jump\t// in\n    tag_320:\n      pop\n      pop\n        /* \"contracts/sMasterChef.sol\":42259:42271  block.number */\n      number\n        /* \"contracts/sMasterChef.sol\":42241:42256  lastBurnedBlock */\n      0x0d\n        /* \"contracts/sMasterChef.sol\":42241:42271  lastBurnedBlock = block.number */\n      sstore\n      pop\n        /* \"contracts/sMasterChef.sol\":41878:42279  function burnShdw(bool _withUpdate) public onlyOwner {\r... */\n      jump\t// out\n        /* \"contracts/sMasterChef.sol\":27883:27924  mapping(address => bool) public whiteList */\n    tag_104:\n      mstore(0x20, 0x07)\n      0x00\n      swap1\n      dup2\n      mstore\n      0x40\n      swap1\n      keccak256\n      sload\n      0xff\n      and\n      dup2\n      jump\t// out\n        /* \"contracts/sMasterChef.sol\":39822:40726  function withdraw(uint256 _pid, uint256 _amount) external nonReentrant {\r... */\n    tag_110:\n        /* \"contracts/sMasterChef.sol\":10252:10253  2 */\n      0x02\n        /* \"contracts/sMasterChef.sol\":10858:10865  _status */\n      sload(0x01)\n        /* \"contracts/sMasterChef.sol\":10858:10877  _status != _ENTERED */\n      eq\n      iszero\n        /* \"contracts/sMasterChef.sol\":10850:10913  require(_status != _ENTERED, \"ReentrancyGuard: reentrant call\") */\n      tag_323\n      jumpi\n      mload(0x40)\n      0x08c379a000000000000000000000000000000000000000000000000000000000\n      dup2\n      mstore\n      0x04\n      add\n      tag_220\n      swap1\n      tag_225\n      jump\t// in\n    tag_323:\n        /* \"contracts/sMasterChef.sol\":10252:10253  2 */\n      0x02\n        /* \"contracts/sMasterChef.sol\":10991:10998  _status */\n      0x01\n        /* \"contracts/sMasterChef.sol\":10991:11009  _status = _ENTERED */\n      sstore\n        /* \"contracts/sMasterChef.sol\":39904:39924  PoolInfo memory pool */\n      tag_326\n      tag_240\n      jump\t// in\n    tag_326:\n        /* \"contracts/sMasterChef.sol\":39927:39943  updatePool(_pid) */\n      tag_327\n        /* \"contracts/sMasterChef.sol\":39938:39942  _pid */\n      dup4\n        /* \"contracts/sMasterChef.sol\":39927:39937  updatePool */\n      tag_115\n        /* \"contracts/sMasterChef.sol\":39927:39943  updatePool(_pid) */\n      jump\t// in\n    tag_327:\n        /* \"contracts/sMasterChef.sol\":39954:39975  UserInfo storage user */\n      0x00\n        /* \"contracts/sMasterChef.sol\":39978:39992  userInfo[_pid] */\n      dup5\n      dup2\n      mstore\n        /* \"contracts/sMasterChef.sol\":39978:39986  userInfo */\n      0x06\n        /* \"contracts/sMasterChef.sol\":39978:39992  userInfo[_pid] */\n      0x20\n      swap1\n      dup2\n      mstore\n      0x40\n      dup1\n      dup4\n      keccak256\n        /* \"contracts/sMasterChef.sol\":39993:40003  msg.sender */\n      caller\n        /* \"contracts/sMasterChef.sol\":39978:40004  userInfo[_pid][msg.sender] */\n      dup5\n      mstore\n      swap1\n      swap2\n      mstore\n      swap1\n      keccak256\n        /* \"contracts/sMasterChef.sol\":40025:40036  user.amount */\n      dup1\n      sload\n        /* \"contracts/sMasterChef.sol\":39904:39943  PoolInfo memory pool = updatePool(_pid) */\n      swap2\n      swap3\n      pop\n        /* \"contracts/sMasterChef.sol\":39978:40004  userInfo[_pid][msg.sender] */\n      swap1\n        /* \"contracts/sMasterChef.sol\":40025:40047  user.amount >= _amount */\n      dup4\n      gt\n      iszero\n        /* \"contracts/sMasterChef.sol\":40017:40074  require(user.amount >= _amount, \"withdraw: Insufficient\") */\n      tag_328\n      jumpi\n      mload(0x40)\n      0x08c379a000000000000000000000000000000000000000000000000000000000\n      dup2\n      mstore\n      0x04\n      add\n      tag_220\n      swap1\n      tag_330\n      jump\t// in\n    tag_328:\n        /* \"contracts/sMasterChef.sol\":40087:40105  uint256 multiplier */\n      0x00\n        /* \"contracts/sMasterChef.sol\":40108:40144  getBoostMultiplier(msg.sender, _pid) */\n      tag_331\n        /* \"contracts/sMasterChef.sol\":40127:40137  msg.sender */\n      caller\n        /* \"contracts/sMasterChef.sol\":40139:40143  _pid */\n      dup7\n        /* \"contracts/sMasterChef.sol\":40108:40126  getBoostMultiplier */\n      tag_64\n        /* \"contracts/sMasterChef.sol\":40108:40144  getBoostMultiplier(msg.sender, _pid) */\n      jump\t// in\n    tag_331:\n        /* \"contracts/sMasterChef.sol\":40087:40144  uint256 multiplier = getBoostMultiplier(msg.sender, _pid) */\n      swap1\n      pop\n        /* \"contracts/sMasterChef.sol\":40157:40204  settlePendingShdw(msg.sender, _pid, multiplier) */\n      tag_332\n        /* \"contracts/sMasterChef.sol\":40175:40185  msg.sender */\n      caller\n        /* \"contracts/sMasterChef.sol\":40187:40191  _pid */\n      dup7\n        /* \"contracts/sMasterChef.sol\":40193:40203  multiplier */\n      dup4\n        /* \"contracts/sMasterChef.sol\":40157:40174  settlePendingShdw */\n      tag_244\n        /* \"contracts/sMasterChef.sol\":40157:40204  settlePendingShdw(msg.sender, _pid, multiplier) */\n      jump\t// in\n    tag_332:\n        /* \"contracts/sMasterChef.sol\":40221:40232  _amount > 0 */\n      dup4\n      iszero\n        /* \"contracts/sMasterChef.sol\":40217:40361  if (_amount > 0) {\r... */\n      tag_335\n      jumpi\n        /* \"contracts/sMasterChef.sol\":40263:40274  user.amount */\n      dup2\n      sload\n        /* \"contracts/sMasterChef.sol\":40263:40287  user.amount.sub(_amount) */\n      tag_334\n      swap1\n        /* \"contracts/sMasterChef.sol\":40279:40286  _amount */\n      dup6\n        /* \"contracts/sMasterChef.sol\":40263:40278  user.amount.sub */\n      tag_257\n        /* \"contracts/sMasterChef.sol\":40263:40287  user.amount.sub(_amount) */\n      jump\t// in\n    tag_334:\n        /* \"contracts/sMasterChef.sol\":40249:40253  user */\n      dup3\n        /* \"contracts/sMasterChef.sol\":40249:40260  user.amount */\n      0x00\n      add\n        /* \"contracts/sMasterChef.sol\":40249:40287  user.amount = user.amount.sub(_amount) */\n      dup2\n      swap1\n      sstore\n      pop\n        /* \"contracts/sMasterChef.sol\":40302:40349  lpToken[_pid].safeTransfer(msg.sender, _amount) */\n      tag_335\n        /* \"contracts/sMasterChef.sol\":40329:40339  msg.sender */\n      caller\n        /* \"contracts/sMasterChef.sol\":40341:40348  _amount */\n      dup6\n        /* \"contracts/sMasterChef.sol\":40302:40309  lpToken */\n      0x05\n        /* \"contracts/sMasterChef.sol\":40310:40314  _pid */\n      dup9\n        /* \"contracts/sMasterChef.sol\":40302:40315  lpToken[_pid] */\n      dup2\n      sload\n      dup2\n      lt\n      tag_336\n      jumpi\n      invalid\n    tag_336:\n      0x00\n      swap2\n      dup3\n      mstore\n      0x20\n      swap1\n      swap2\n      keccak256\n      add\n      sload\n      0xffffffffffffffffffffffffffffffffffffffff\n      and\n      swap2\n        /* \"contracts/sMasterChef.sol\":40302:40349  lpToken[_pid].safeTransfer(msg.sender, _amount) */\n      swap1\n        /* \"contracts/sMasterChef.sol\":40302:40328  lpToken[_pid].safeTransfer */\n      tag_338\n        /* \"contracts/sMasterChef.sol\":40302:40349  lpToken[_pid].safeTransfer(msg.sender, _amount) */\n      jump\t// in\n    tag_335:\n        /* \"contracts/sMasterChef.sol\":40391:40513  user.amount.mul(multiplier).div(BOOST_PRECISION).mul(pool.accShdwPerShare).div(\r... */\n      tag_339\n        /* \"contracts/sMasterChef.sol\":28501:28505  1e18 */\n      0x0de0b6b3a7640000\n        /* \"contracts/sMasterChef.sol\":40391:40465  user.amount.mul(multiplier).div(BOOST_PRECISION).mul(pool.accShdwPerShare) */\n      tag_248\n        /* \"contracts/sMasterChef.sol\":40444:40448  pool */\n      dup6\n        /* \"contracts/sMasterChef.sol\":40444:40464  pool.accShdwPerShare */\n      0x00\n      add\n      mload\n        /* \"contracts/sMasterChef.sol\":40391:40439  user.amount.mul(multiplier).div(BOOST_PRECISION) */\n      tag_247\n        /* \"contracts/sMasterChef.sol\":28626:28636  100 * 1e10 */\n      0xe8d4a51000\n        /* \"contracts/sMasterChef.sol\":40391:40418  user.amount.mul(multiplier) */\n      tag_248\n        /* \"contracts/sMasterChef.sol\":40407:40417  multiplier */\n      dup8\n        /* \"contracts/sMasterChef.sol\":40391:40395  user */\n      dup10\n        /* \"contracts/sMasterChef.sol\":40391:40402  user.amount */\n      0x00\n      add\n      sload\n        /* \"contracts/sMasterChef.sol\":40391:40406  user.amount.mul */\n      tag_249\n      swap1\n        /* \"contracts/sMasterChef.sol\":40391:40418  user.amount.mul(multiplier) */\n      swap2\n      swap1\n      0xffffffff\n      and\n      jump\t// in\n        /* \"contracts/sMasterChef.sol\":40391:40513  user.amount.mul(multiplier).div(BOOST_PRECISION).mul(pool.accShdwPerShare).div(\r... */\n    tag_339:\n        /* \"contracts/sMasterChef.sol\":40373:40388  user.rewardDebt */\n      0x01\n      dup4\n      add\n        /* \"contracts/sMasterChef.sol\":40373:40513  user.rewardDebt = user.amount.mul(multiplier).div(BOOST_PRECISION).mul(pool.accShdwPerShare).div(\r... */\n      sstore\n        /* \"contracts/sMasterChef.sol\":40559:40665  poolInfo[_pid].totalBoostedShare.sub(\r... */\n      tag_343\n        /* \"contracts/sMasterChef.sol\":40610:40654  _amount.mul(multiplier).div(BOOST_PRECISION) */\n      tag_344\n        /* \"contracts/sMasterChef.sol\":28626:28636  100 * 1e10 */\n      0xe8d4a51000\n        /* \"contracts/sMasterChef.sol\":40610:40633  _amount.mul(multiplier) */\n      tag_248\n        /* \"contracts/sMasterChef.sol\":40610:40617  _amount */\n      dup8\n        /* \"contracts/sMasterChef.sol\":40622:40632  multiplier */\n      dup6\n        /* \"contracts/sMasterChef.sol\":40610:40621  _amount.mul */\n      tag_249\n        /* \"contracts/sMasterChef.sol\":40610:40633  _amount.mul(multiplier) */\n      jump\t// in\n        /* \"contracts/sMasterChef.sol\":40610:40654  _amount.mul(multiplier).div(BOOST_PRECISION) */\n    tag_344:\n        /* \"contracts/sMasterChef.sol\":40559:40567  poolInfo */\n      0x04\n        /* \"contracts/sMasterChef.sol\":40568:40572  _pid */\n      dup8\n        /* \"contracts/sMasterChef.sol\":40559:40573  poolInfo[_pid] */\n      dup2\n      sload\n      dup2\n      lt\n      tag_346\n      jumpi\n      invalid\n    tag_346:\n      swap1\n      0x00\n      mstore\n      keccak256(0x00, 0x20)\n      swap1\n      0x05\n      mul\n      add\n        /* \"contracts/sMasterChef.sol\":40559:40591  poolInfo[_pid].totalBoostedShare */\n      0x03\n      add\n      sload\n        /* \"contracts/sMasterChef.sol\":40559:40595  poolInfo[_pid].totalBoostedShare.sub */\n      tag_257\n      swap1\n        /* \"contracts/sMasterChef.sol\":40559:40665  poolInfo[_pid].totalBoostedShare.sub(\r... */\n      swap2\n      swap1\n      0xffffffff\n      and\n      jump\t// in\n    tag_343:\n        /* \"contracts/sMasterChef.sol\":40524:40532  poolInfo */\n      0x04\n        /* \"contracts/sMasterChef.sol\":40533:40537  _pid */\n      dup7\n        /* \"contracts/sMasterChef.sol\":40524:40538  poolInfo[_pid] */\n      dup2\n      sload\n      dup2\n      lt\n      tag_348\n      jumpi\n      invalid\n    tag_348:\n      swap1\n      0x00\n      mstore\n      keccak256(0x00, 0x20)\n      swap1\n      0x05\n      mul\n      add\n        /* \"contracts/sMasterChef.sol\":40524:40556  poolInfo[_pid].totalBoostedShare */\n      0x03\n      add\n        /* \"contracts/sMasterChef.sol\":40524:40665  poolInfo[_pid].totalBoostedShare = poolInfo[_pid].totalBoostedShare.sub(\r... */\n      dup2\n      swap1\n      sstore\n      pop\n        /* \"contracts/sMasterChef.sol\":40704:40708  _pid */\n      dup5\n        /* \"contracts/sMasterChef.sol\":40692:40702  msg.sender */\n      caller\n        /* \"contracts/sMasterChef.sol\":40683:40718  Withdraw(msg.sender, _pid, _amount) */\n      0xffffffffffffffffffffffffffffffffffffffff\n      and\n      0xf279e6a1f5e320cca91135676d9cb6e44ca8a08c0b88342bcdb1144f6511b568\n        /* \"contracts/sMasterChef.sol\":40710:40717  _amount */\n      dup7\n        /* \"contracts/sMasterChef.sol\":40683:40718  Withdraw(msg.sender, _pid, _amount) */\n      mload(0x40)\n      tag_350\n      swap2\n      swap1\n      tag_66\n      jump\t// in\n    tag_350:\n      mload(0x40)\n      dup1\n      swap2\n      sub\n      swap1\n      log3\n      pop\n      pop\n        /* \"contracts/sMasterChef.sol\":10208:10209  1 */\n      0x01\n        /* \"contracts/sMasterChef.sol\":11170:11192  _status = _NOT_ENTERED */\n      dup1\n      sstore\n      pop\n      pop\n      pop\n        /* \"contracts/sMasterChef.sol\":39822:40726  function withdraw(uint256 _pid, uint256 _amount) external nonReentrant {\r... */\n      jump\t// out\n        /* \"contracts/sMasterChef.sol\":40818:40909  function harvestFromMasterChef() public {\r... */\n    tag_112:\n        /* \"contracts/sMasterChef.sol\":40869:40901  DARK_CHEF.deposit(MASTER_PID, 0) */\n      mload(0x40)\n      0xe2bbb15800000000000000000000000000000000000000000000000000000000\n      dup2\n      mstore\n        /* \"contracts/sMasterChef.sol\":40869:40886  DARK_CHEF.deposit */\n      0xffffffffffffffffffffffffffffffffffffffff\n        /* \"contracts/sMasterChef.sol\":40869:40878  DARK_CHEF */\n      immutable(\"0x523002c9adf4540d1913fbcc02308745afe7fe46bf4736ab566dafa3acaa32ea\")\n        /* \"contracts/sMasterChef.sol\":40869:40886  DARK_CHEF.deposit */\n      and\n      swap1\n      0xe2bbb158\n      swap1\n        /* \"contracts/sMasterChef.sol\":40869:40901  DARK_CHEF.deposit(MASTER_PID, 0) */\n      tag_352\n      swap1\n        /* \"contracts/sMasterChef.sol\":40887:40897  MASTER_PID */\n      immutable(\"0x9d86ea630c09ef2f1acbc248368c7b7030882e2a5db3011ef0f1f27cf79c9d56\")\n      swap1\n        /* \"contracts/sMasterChef.sol\":40899:40900  0 */\n      0x00\n      swap1\n        /* \"contracts/sMasterChef.sol\":40869:40901  DARK_CHEF.deposit(MASTER_PID, 0) */\n      0x04\n      add\n      tag_353\n      jump\t// in\n    tag_352:\n      0x00\n      mload(0x40)\n      dup1\n      dup4\n      sub\n      dup2\n      0x00\n      dup8\n      dup1\n      extcodesize\n      iszero\n      dup1\n      iszero\n      tag_354\n      jumpi\n      0x00\n      dup1\n      revert\n    tag_354:\n      pop\n      gas\n      call\n      iszero\n      dup1\n      iszero\n      tag_356\n      jumpi\n      returndatasize\n      0x00\n      dup1\n      returndatacopy\n      revert(0x00, returndatasize)\n    tag_356:\n      pop\n      pop\n      pop\n      pop\n        /* \"contracts/sMasterChef.sol\":40818:40909  function harvestFromMasterChef() public {\r... */\n      jump\t// out\n        /* \"contracts/sMasterChef.sol\":37291:38240  function updatePool(uint256 _pid) public returns (PoolInfo memory pool) {\r... */\n    tag_115:\n        /* \"contracts/sMasterChef.sol\":37341:37361  PoolInfo memory pool */\n      tag_357\n      tag_240\n      jump\t// in\n    tag_357:\n        /* \"contracts/sMasterChef.sol\":37381:37389  poolInfo */\n      0x04\n        /* \"contracts/sMasterChef.sol\":37390:37394  _pid */\n      dup3\n        /* \"contracts/sMasterChef.sol\":37381:37395  poolInfo[_pid] */\n      dup2\n      sload\n      dup2\n      lt\n      tag_359\n      jumpi\n      invalid\n    tag_359:\n      0x00\n      swap2\n      dup3\n      mstore\n      0x20\n      swap2\n      dup3\n      swap1\n      keccak256\n        /* \"contracts/sMasterChef.sol\":37374:37395  pool = poolInfo[_pid] */\n      0x40\n      dup1\n      mload\n      0xa0\n      dup2\n      add\n      dup3\n      mstore\n        /* \"contracts/sMasterChef.sol\":37381:37395  poolInfo[_pid] */\n      0x05\n      swap1\n      swap4\n      mul\n      swap1\n      swap2\n      add\n        /* \"contracts/sMasterChef.sol\":37374:37395  pool = poolInfo[_pid] */\n      dup1\n      sload\n      dup4\n      mstore\n      0x01\n      dup2\n      add\n      sload\n      swap4\n      dup4\n      add\n      dup5\n      swap1\n      mstore\n      0x02\n      dup2\n      add\n      sload\n      swap2\n      dup4\n      add\n      swap2\n      swap1\n      swap2\n      mstore\n      0x03\n      dup2\n      add\n      sload\n      0x60\n      dup4\n      add\n      mstore\n      0x04\n      add\n      sload\n      0xff\n      and\n      iszero\n      iszero\n      0x80\n      dup3\n      add\n      mstore\n      swap2\n      pop\n        /* \"contracts/sMasterChef.sol\":37410:37422  block.number */\n      number\n        /* \"contracts/sMasterChef.sol\":37410:37445  block.number > pool.lastRewardBlock */\n      gt\n        /* \"contracts/sMasterChef.sol\":37406:38233  if (block.number > pool.lastRewardBlock) {\r... */\n      iszero\n      tag_361\n      jumpi\n        /* \"contracts/sMasterChef.sol\":37481:37503  pool.totalBoostedShare */\n      0x60\n      dup2\n      add\n      mload\n        /* \"contracts/sMasterChef.sol\":37545:37559  pool.isRegular */\n      0x80\n      dup3\n      add\n      mload\n        /* \"contracts/sMasterChef.sol\":37462:37478  uint256 lpSupply */\n      0x00\n      swap1\n        /* \"contracts/sMasterChef.sol\":37545:37609  pool.isRegular ? totalRegularAllocPoint : totalSpecialAllocPoint */\n      tag_362\n      jumpi\n        /* \"contracts/sMasterChef.sol\":37587:37609  totalSpecialAllocPoint */\n      sload(0x09)\n        /* \"contracts/sMasterChef.sol\":37545:37609  pool.isRegular ? totalRegularAllocPoint : totalSpecialAllocPoint */\n      jump(tag_363)\n    tag_362:\n        /* \"contracts/sMasterChef.sol\":37562:37584  totalRegularAllocPoint */\n      sload(0x08)\n        /* \"contracts/sMasterChef.sol\":37545:37609  pool.isRegular ? totalRegularAllocPoint : totalSpecialAllocPoint */\n    tag_363:\n        /* \"contracts/sMasterChef.sol\":37518:37610  uint256 totalAllocPoint = (pool.isRegular ? totalRegularAllocPoint : totalSpecialAllocPoint) */\n      swap1\n      pop\n        /* \"contracts/sMasterChef.sol\":37642:37643  0 */\n      0x00\n        /* \"contracts/sMasterChef.sol\":37631:37639  lpSupply */\n      dup3\n        /* \"contracts/sMasterChef.sol\":37631:37643  lpSupply > 0 */\n      gt\n        /* \"contracts/sMasterChef.sol\":37631:37666  lpSupply > 0 && totalAllocPoint > 0 */\n      dup1\n      iszero\n      tag_364\n      jumpi\n      pop\n        /* \"contracts/sMasterChef.sol\":37665:37666  0 */\n      0x00\n        /* \"contracts/sMasterChef.sol\":37647:37662  totalAllocPoint */\n      dup2\n        /* \"contracts/sMasterChef.sol\":37647:37666  totalAllocPoint > 0 */\n      gt\n        /* \"contracts/sMasterChef.sol\":37631:37666  lpSupply > 0 && totalAllocPoint > 0 */\n    tag_364:\n        /* \"contracts/sMasterChef.sol\":37627:38046  if (lpSupply > 0 && totalAllocPoint > 0) {\r... */\n      iszero\n      tag_365\n      jumpi\n        /* \"contracts/sMasterChef.sol\":37687:37705  uint256 multiplier */\n      0x00\n        /* \"contracts/sMasterChef.sol\":37708:37746  block.number.sub(pool.lastRewardBlock) */\n      tag_366\n        /* \"contracts/sMasterChef.sol\":37725:37729  pool */\n      dup5\n        /* \"contracts/sMasterChef.sol\":37725:37745  pool.lastRewardBlock */\n      0x20\n      add\n      mload\n        /* \"contracts/sMasterChef.sol\":37708:37720  block.number */\n      number\n        /* \"contracts/sMasterChef.sol\":37708:37724  block.number.sub */\n      tag_257\n      swap1\n        /* \"contracts/sMasterChef.sol\":37708:37746  block.number.sub(pool.lastRewardBlock) */\n      swap2\n      swap1\n      0xffffffff\n      and\n      jump\t// in\n    tag_366:\n        /* \"contracts/sMasterChef.sol\":37687:37746  uint256 multiplier = block.number.sub(pool.lastRewardBlock) */\n      swap1\n      pop\n        /* \"contracts/sMasterChef.sol\":37765:37783  uint256 shdwReward */\n      0x00\n        /* \"contracts/sMasterChef.sol\":37786:37912  multiplier.mul(shdwPerBlock(pool.isRegular)).mul(pool.allocPoint).div(\r... */\n      tag_367\n        /* \"contracts/sMasterChef.sol\":37878:37893  totalAllocPoint */\n      dup4\n        /* \"contracts/sMasterChef.sol\":37786:37851  multiplier.mul(shdwPerBlock(pool.isRegular)).mul(pool.allocPoint) */\n      tag_248\n        /* \"contracts/sMasterChef.sol\":37835:37839  pool */\n      dup8\n        /* \"contracts/sMasterChef.sol\":37835:37850  pool.allocPoint */\n      0x40\n      add\n      mload\n        /* \"contracts/sMasterChef.sol\":37786:37830  multiplier.mul(shdwPerBlock(pool.isRegular)) */\n      tag_247\n        /* \"contracts/sMasterChef.sol\":37801:37829  shdwPerBlock(pool.isRegular) */\n      tag_370\n        /* \"contracts/sMasterChef.sol\":37814:37818  pool */\n      dup11\n        /* \"contracts/sMasterChef.sol\":37814:37828  pool.isRegular */\n      0x80\n      add\n      mload\n        /* \"contracts/sMasterChef.sol\":37801:37813  shdwPerBlock */\n      tag_207\n        /* \"contracts/sMasterChef.sol\":37801:37829  shdwPerBlock(pool.isRegular) */\n      jump\t// in\n    tag_370:\n        /* \"contracts/sMasterChef.sol\":37786:37796  multiplier */\n      dup8\n      swap1\n        /* \"contracts/sMasterChef.sol\":37786:37800  multiplier.mul */\n      tag_249\n        /* \"contracts/sMasterChef.sol\":37786:37830  multiplier.mul(shdwPerBlock(pool.isRegular)) */\n      jump\t// in\n        /* \"contracts/sMasterChef.sol\":37786:37912  multiplier.mul(shdwPerBlock(pool.isRegular)).mul(pool.allocPoint).div(\r... */\n    tag_367:\n        /* \"contracts/sMasterChef.sol\":37765:37912  uint256 shdwReward = multiplier.mul(shdwPerBlock(pool.isRegular)).mul(pool.allocPoint).div(\r... */\n      swap1\n      pop\n        /* \"contracts/sMasterChef.sol\":37954:38030  pool.accShdwPerShare.add((shdwReward.mul(ACC_SHDW_PRECISION).div(lpSupply))) */\n      tag_371\n        /* \"contracts/sMasterChef.sol\":37980:38028  shdwReward.mul(ACC_SHDW_PRECISION).div(lpSupply) */\n      tag_372\n        /* \"contracts/sMasterChef.sol\":38019:38027  lpSupply */\n      dup6\n        /* \"contracts/sMasterChef.sol\":37980:38014  shdwReward.mul(ACC_SHDW_PRECISION) */\n      tag_248\n        /* \"contracts/sMasterChef.sol\":37765:37912  uint256 shdwReward = multiplier.mul(shdwPerBlock(pool.isRegular)).mul(pool.allocPoint).div(\r... */\n      dup5\n        /* \"contracts/sMasterChef.sol\":28501:28505  1e18 */\n      0x0de0b6b3a7640000\n        /* \"contracts/sMasterChef.sol\":37980:37994  shdwReward.mul */\n      tag_249\n        /* \"contracts/sMasterChef.sol\":37980:38014  shdwReward.mul(ACC_SHDW_PRECISION) */\n      jump\t// in\n        /* \"contracts/sMasterChef.sol\":37980:38028  shdwReward.mul(ACC_SHDW_PRECISION).div(lpSupply) */\n    tag_372:\n        /* \"contracts/sMasterChef.sol\":37954:37974  pool.accShdwPerShare */\n      dup7\n      mload\n      swap1\n        /* \"contracts/sMasterChef.sol\":37954:37978  pool.accShdwPerShare.add */\n      tag_258\n        /* \"contracts/sMasterChef.sol\":37954:38030  pool.accShdwPerShare.add((shdwReward.mul(ACC_SHDW_PRECISION).div(lpSupply))) */\n      jump\t// in\n    tag_371:\n        /* \"contracts/sMasterChef.sol\":37931:38030  pool.accShdwPerShare = pool.accShdwPerShare.add((shdwReward.mul(ACC_SHDW_PRECISION).div(lpSupply))) */\n      dup6\n      mstore\n      pop\n      pop\n        /* \"contracts/sMasterChef.sol\":37627:38046  if (lpSupply > 0 && totalAllocPoint > 0) {\r... */\n    tag_365:\n        /* \"contracts/sMasterChef.sol\":38083:38095  block.number */\n      number\n        /* \"contracts/sMasterChef.sol\":38060:38080  pool.lastRewardBlock */\n      0x20\n      dup5\n      add\n        /* \"contracts/sMasterChef.sol\":38060:38095  pool.lastRewardBlock = block.number */\n      mstore\n        /* \"contracts/sMasterChef.sol\":38110:38118  poolInfo */\n      0x04\n        /* \"contracts/sMasterChef.sol\":38110:38124  poolInfo[_pid] */\n      dup1\n      sload\n        /* \"contracts/sMasterChef.sol\":38060:38064  pool */\n      dup5\n      swap2\n        /* \"contracts/sMasterChef.sol\":38110:38118  poolInfo */\n      swap1\n        /* \"contracts/sMasterChef.sol\":38119:38123  _pid */\n      dup7\n      swap1\n        /* \"contracts/sMasterChef.sol\":38110:38124  poolInfo[_pid] */\n      dup2\n      lt\n      tag_374\n      jumpi\n      invalid\n    tag_374:\n      0x00\n      swap2\n      dup3\n      mstore\n      0x20\n      swap2\n      dup3\n      swap1\n      keccak256\n        /* \"contracts/sMasterChef.sol\":38110:38131  poolInfo[_pid] = pool */\n      dup4\n      mload\n        /* \"contracts/sMasterChef.sol\":38110:38124  poolInfo[_pid] */\n      0x05\n      swap3\n      swap1\n      swap3\n      mul\n      add\n        /* \"contracts/sMasterChef.sol\":38110:38131  poolInfo[_pid] = pool */\n      swap1\n      dup2\n      sstore\n      dup3\n      dup3\n      add\n      mload\n      0x01\n      dup3\n      add\n      sstore\n      0x40\n      dup1\n      dup5\n      add\n      mload\n      0x02\n      dup4\n      add\n      sstore\n      0x60\n      dup5\n      add\n      mload\n      0x03\n      dup4\n      add\n      sstore\n      0x80\n      swap1\n      swap4\n      add\n      mload\n      0x04\n      swap1\n      swap2\n      add\n      dup1\n      sload\n      0xffffffffffffffffffffffffffffffffffffffffffffffffffffffffffffff00\n      and\n      swap2\n      iszero\n      iszero\n      swap2\n      swap1\n      swap2\n      or\n      swap1\n      sstore\n        /* \"contracts/sMasterChef.sol\":38168:38188  pool.lastRewardBlock */\n      dup5\n      add\n      mload\n        /* \"contracts/sMasterChef.sol\":38200:38220  pool.accShdwPerShare */\n      dup5\n      mload\n        /* \"contracts/sMasterChef.sol\":38151:38221  UpdatePool(_pid, pool.lastRewardBlock, lpSupply, pool.accShdwPerShare) */\n      swap2\n      mload\n        /* \"contracts/sMasterChef.sol\":38162:38166  _pid */\n      dup7\n      swap3\n        /* \"contracts/sMasterChef.sol\":38151:38221  UpdatePool(_pid, pool.lastRewardBlock, lpSupply, pool.accShdwPerShare) */\n      0x3be3541fc42237d611b30329040bfa4569541d156560acdbbae57640d20b8f46\n      swap3\n      tag_376\n      swap3\n        /* \"contracts/sMasterChef.sol\":38168:38188  pool.lastRewardBlock */\n      swap1\n      swap2\n        /* \"contracts/sMasterChef.sol\":38190:38198  lpSupply */\n      dup8\n      swap2\n        /* \"contracts/sMasterChef.sol\":38151:38221  UpdatePool(_pid, pool.lastRewardBlock, lpSupply, pool.accShdwPerShare) */\n      tag_164\n      jump\t// in\n    tag_376:\n      mload(0x40)\n      dup1\n      swap2\n      sub\n      swap1\n      log2\n        /* \"contracts/sMasterChef.sol\":37406:38233  if (block.number > pool.lastRewardBlock) {\r... */\n      pop\n      pop\n    tag_361:\n        /* \"contracts/sMasterChef.sol\":37291:38240  function updatePool(uint256 _pid) public returns (PoolInfo memory pool) {\r... */\n      swap2\n      swap1\n      pop\n      jump\t// out\n        /* \"contracts/sMasterChef.sol\":41050:41740  function emergencyWithdraw(uint256 _pid) external nonReentrant {\r... */\n    tag_120:\n        /* \"contracts/sMasterChef.sol\":10252:10253  2 */\n      0x02\n        /* \"contracts/sMasterChef.sol\":10858:10865  _status */\n      sload(0x01)\n        /* \"contracts/sMasterChef.sol\":10858:10877  _status != _ENTERED */\n      eq\n      iszero\n        /* \"contracts/sMasterChef.sol\":10850:10913  require(_status != _ENTERED, \"ReentrancyGuard: reentrant call\") */\n      tag_378\n      jumpi\n      mload(0x40)\n      0x08c379a000000000000000000000000000000000000000000000000000000000\n      dup2\n      mstore\n      0x04\n      add\n      tag_220\n      swap1\n      tag_225\n      jump\t// in\n    tag_378:\n        /* \"contracts/sMasterChef.sol\":10252:10253  2 */\n      0x02\n        /* \"contracts/sMasterChef.sol\":10991:10998  _status */\n      0x01\n        /* \"contracts/sMasterChef.sol\":10991:11009  _status = _ENTERED */\n      dup2\n      swap1\n      sstore\n      pop\n        /* \"contracts/sMasterChef.sol\":41124:41145  PoolInfo storage pool */\n      0x00\n        /* \"contracts/sMasterChef.sol\":41148:41156  poolInfo */\n      0x04\n        /* \"contracts/sMasterChef.sol\":41157:41161  _pid */\n      dup3\n        /* \"contracts/sMasterChef.sol\":41148:41162  poolInfo[_pid] */\n      dup2\n      sload\n      dup2\n      lt\n      tag_381\n      jumpi\n      invalid\n    tag_381:\n      0x00\n      swap2\n      dup3\n      mstore\n      0x20\n      dup1\n      dup4\n      keccak256\n        /* \"contracts/sMasterChef.sol\":41197:41211  userInfo[_pid] */\n      dup6\n      dup5\n      mstore\n        /* \"contracts/sMasterChef.sol\":41197:41205  userInfo */\n      0x06\n        /* \"contracts/sMasterChef.sol\":41197:41211  userInfo[_pid] */\n      dup3\n      mstore\n      0x40\n      dup1\n      dup6\n      keccak256\n        /* \"contracts/sMasterChef.sol\":41212:41222  msg.sender */\n      caller\n        /* \"contracts/sMasterChef.sol\":41197:41223  userInfo[_pid][msg.sender] */\n      dup1\n      dup8\n      mstore\n      swap4\n      mstore\n      dup5\n      keccak256\n        /* \"contracts/sMasterChef.sol\":41253:41264  user.amount */\n      dup1\n      sload\n        /* \"contracts/sMasterChef.sol\":41275:41290  user.amount = 0 */\n      dup6\n      dup3\n      sstore\n      0x01\n        /* \"contracts/sMasterChef.sol\":41301:41316  user.rewardDebt */\n      dup3\n      add\n        /* \"contracts/sMasterChef.sol\":41301:41320  user.rewardDebt = 0 */\n      dup7\n      swap1\n      sstore\n        /* \"contracts/sMasterChef.sol\":41148:41162  poolInfo[_pid] */\n      0x05\n      swap1\n      swap5\n      mul\n      swap1\n      swap2\n      add\n      swap5\n      pop\n        /* \"contracts/sMasterChef.sol\":41197:41223  userInfo[_pid][msg.sender] */\n      swap3\n        /* \"contracts/sMasterChef.sol\":41148:41162  poolInfo[_pid] */\n      swap1\n        /* \"contracts/sMasterChef.sol\":41355:41424  amount.mul(getBoostMultiplier(msg.sender, _pid)).div(BOOST_PRECISION) */\n      tag_383\n      swap1\n        /* \"contracts/sMasterChef.sol\":28626:28636  100 * 1e10 */\n      0xe8d4a51000\n      swap1\n        /* \"contracts/sMasterChef.sol\":41355:41403  amount.mul(getBoostMultiplier(msg.sender, _pid)) */\n      tag_248\n      swap1\n        /* \"contracts/sMasterChef.sol\":41366:41402  getBoostMultiplier(msg.sender, _pid) */\n      tag_385\n      swap1\n        /* \"contracts/sMasterChef.sol\":41206:41210  _pid */\n      dup10\n        /* \"contracts/sMasterChef.sol\":41366:41384  getBoostMultiplier */\n      tag_64\n        /* \"contracts/sMasterChef.sol\":41366:41402  getBoostMultiplier(msg.sender, _pid) */\n      jump\t// in\n    tag_385:\n        /* \"contracts/sMasterChef.sol\":41355:41361  amount */\n      dup6\n      swap1\n        /* \"contracts/sMasterChef.sol\":41355:41365  amount.mul */\n      tag_249\n        /* \"contracts/sMasterChef.sol\":41355:41403  amount.mul(getBoostMultiplier(msg.sender, _pid)) */\n      jump\t// in\n        /* \"contracts/sMasterChef.sol\":41355:41424  amount.mul(getBoostMultiplier(msg.sender, _pid)).div(BOOST_PRECISION) */\n    tag_383:\n        /* \"contracts/sMasterChef.sol\":41331:41424  uint256 boostedAmount = amount.mul(getBoostMultiplier(msg.sender, _pid)).div(BOOST_PRECISION) */\n      swap1\n      pop\n        /* \"contracts/sMasterChef.sol\":41485:41498  boostedAmount */\n      dup1\n        /* \"contracts/sMasterChef.sol\":41460:41464  pool */\n      dup5\n        /* \"contracts/sMasterChef.sol\":41460:41482  pool.totalBoostedShare */\n      0x03\n      add\n      sload\n        /* \"contracts/sMasterChef.sol\":41460:41498  pool.totalBoostedShare > boostedAmount */\n      gt\n        /* \"contracts/sMasterChef.sol\":41460:41546  pool.totalBoostedShare > boostedAmount ? pool.totalBoostedShare.sub(boostedAmount) : 0 */\n      tag_386\n      jumpi\n        /* \"contracts/sMasterChef.sol\":41545:41546  0 */\n      0x00\n        /* \"contracts/sMasterChef.sol\":41460:41546  pool.totalBoostedShare > boostedAmount ? pool.totalBoostedShare.sub(boostedAmount) : 0 */\n      jump(tag_388)\n    tag_386:\n        /* \"contracts/sMasterChef.sol\":41501:41523  pool.totalBoostedShare */\n      0x03\n      dup5\n      add\n      sload\n        /* \"contracts/sMasterChef.sol\":41501:41542  pool.totalBoostedShare.sub(boostedAmount) */\n      tag_388\n      swap1\n        /* \"contracts/sMasterChef.sol\":41528:41541  boostedAmount */\n      dup3\n        /* \"contracts/sMasterChef.sol\":41501:41527  pool.totalBoostedShare.sub */\n      tag_257\n        /* \"contracts/sMasterChef.sol\":41501:41542  pool.totalBoostedShare.sub(boostedAmount) */\n      jump\t// in\n    tag_388:\n        /* \"contracts/sMasterChef.sol\":41435:41439  pool */\n      dup5\n        /* \"contracts/sMasterChef.sol\":41435:41457  pool.totalBoostedShare */\n      0x03\n      add\n        /* \"contracts/sMasterChef.sol\":41435:41546  pool.totalBoostedShare = pool.totalBoostedShare > boostedAmount ? pool.totalBoostedShare.sub(boostedAmount) : 0 */\n      dup2\n      swap1\n      sstore\n      pop\n        /* \"contracts/sMasterChef.sol\":41627:41673  lpToken[_pid].safeTransfer(msg.sender, amount) */\n      tag_389\n        /* \"contracts/sMasterChef.sol\":41654:41664  msg.sender */\n      caller\n        /* \"contracts/sMasterChef.sol\":41666:41672  amount */\n      dup4\n        /* \"contracts/sMasterChef.sol\":41627:41634  lpToken */\n      0x05\n        /* \"contracts/sMasterChef.sol\":41635:41639  _pid */\n      dup9\n        /* \"contracts/sMasterChef.sol\":41627:41640  lpToken[_pid] */\n      dup2\n      sload\n      dup2\n      lt\n      tag_336\n      jumpi\n      invalid\n        /* \"contracts/sMasterChef.sol\":41627:41673  lpToken[_pid].safeTransfer(msg.sender, amount) */\n    tag_389:\n        /* \"contracts/sMasterChef.sol\":41719:41723  _pid */\n      dup5\n        /* \"contracts/sMasterChef.sol\":41707:41717  msg.sender */\n      caller\n        /* \"contracts/sMasterChef.sol\":41689:41732  EmergencyWithdraw(msg.sender, _pid, amount) */\n      0xffffffffffffffffffffffffffffffffffffffff\n      and\n      0xbb757047c2b5f3974fe26b7c10f732e7bce710b0952a71082702781e62ae0595\n        /* \"contracts/sMasterChef.sol\":41725:41731  amount */\n      dup5\n        /* \"contracts/sMasterChef.sol\":41689:41732  EmergencyWithdraw(msg.sender, _pid, amount) */\n      mload(0x40)\n      tag_350\n      swap2\n      swap1\n      tag_66\n      jump\t// in\n        /* \"contracts/sMasterChef.sol\":27999:28034  uint256 public immutable MASTER_PID */\n    tag_122:\n      immutable(\"0x9d86ea630c09ef2f1acbc248368c7b7030882e2a5db3011ef0f1f27cf79c9d56\")\n      dup2\n      jump\t// out\n        /* \"contracts/sMasterChef.sol\":36054:36345  function massUpdatePools() public {\r... */\n    tag_125:\n        /* \"contracts/sMasterChef.sol\":36116:36124  poolInfo */\n      0x04\n        /* \"contracts/sMasterChef.sol\":36116:36131  poolInfo.length */\n      sload\n        /* \"contracts/sMasterChef.sol\":36099:36113  uint256 length */\n      0x00\n        /* \"contracts/sMasterChef.sol\":36142:36338  for (uint256 pid = 0; pid < length; ++pid) {\r... */\n    tag_394:\n        /* \"contracts/sMasterChef.sol\":36170:36176  length */\n      dup2\n        /* \"contracts/sMasterChef.sol\":36164:36167  pid */\n      dup2\n        /* \"contracts/sMasterChef.sol\":36164:36176  pid < length */\n      lt\n        /* \"contracts/sMasterChef.sol\":36142:36338  for (uint256 pid = 0; pid < length; ++pid) {\r... */\n      iszero\n      tag_395\n      jumpi\n        /* \"contracts/sMasterChef.sol\":36200:36220  PoolInfo memory pool */\n      tag_397\n      tag_240\n      jump\t// in\n    tag_397:\n        /* \"contracts/sMasterChef.sol\":36223:36231  poolInfo */\n      0x04\n        /* \"contracts/sMasterChef.sol\":36232:36235  pid */\n      dup3\n        /* \"contracts/sMasterChef.sol\":36223:36236  poolInfo[pid] */\n      dup2\n      sload\n      dup2\n      lt\n      tag_398\n      jumpi\n      invalid\n    tag_398:\n      0x00\n      swap2\n      dup3\n      mstore\n      0x20\n      swap2\n      dup3\n      swap1\n      keccak256\n        /* \"contracts/sMasterChef.sol\":36200:36236  PoolInfo memory pool = poolInfo[pid] */\n      0x40\n      dup1\n      mload\n      0xa0\n      dup2\n      add\n      dup3\n      mstore\n        /* \"contracts/sMasterChef.sol\":36223:36236  poolInfo[pid] */\n      0x05\n      swap1\n      swap4\n      mul\n      swap1\n      swap2\n      add\n        /* \"contracts/sMasterChef.sol\":36200:36236  PoolInfo memory pool = poolInfo[pid] */\n      dup1\n      sload\n      dup4\n      mstore\n      0x01\n      dup2\n      add\n      sload\n      swap4\n      dup4\n      add\n      swap4\n      swap1\n      swap4\n      mstore\n      0x02\n      dup4\n      add\n      sload\n      swap1\n      dup3\n      add\n      dup2\n      swap1\n      mstore\n      0x03\n      dup4\n      add\n      sload\n      0x60\n      dup4\n      add\n      mstore\n      0x04\n      swap1\n      swap3\n      add\n      sload\n      0xff\n      and\n      iszero\n      iszero\n      0x80\n      dup3\n      add\n      mstore\n      swap2\n      pop\n        /* \"contracts/sMasterChef.sol\":36255:36275  pool.allocPoint != 0 */\n      iszero\n        /* \"contracts/sMasterChef.sol\":36251:36327  if (pool.allocPoint != 0) {\r... */\n      tag_400\n      jumpi\n        /* \"contracts/sMasterChef.sol\":36296:36311  updatePool(pid) */\n      tag_401\n        /* \"contracts/sMasterChef.sol\":36307:36310  pid */\n      dup3\n        /* \"contracts/sMasterChef.sol\":36296:36306  updatePool */\n      tag_115\n        /* \"contracts/sMasterChef.sol\":36296:36311  updatePool(pid) */\n      jump\t// in\n    tag_401:\n      pop\n        /* \"contracts/sMasterChef.sol\":36251:36327  if (pool.allocPoint != 0) {\r... */\n    tag_400:\n      pop\n        /* \"contracts/sMasterChef.sol\":36178:36183  ++pid */\n      0x01\n      add\n        /* \"contracts/sMasterChef.sol\":36142:36338  for (uint256 pid = 0; pid < length; ++pid) {\r... */\n      jump(tag_394)\n    tag_395:\n      pop\n        /* \"contracts/sMasterChef.sol\":36054:36345  function massUpdatePools() public {\r... */\n      pop\n      jump\t// out\n        /* \"contracts/sMasterChef.sol\":34082:34812  function set(\r... */\n    tag_129:\n        /* \"contracts/sMasterChef.sol\":2278:2290  _msgSender() */\n      tag_403\n        /* \"contracts/sMasterChef.sol\":2278:2288  _msgSender */\n      tag_265\n        /* \"contracts/sMasterChef.sol\":2278:2290  _msgSender() */\n      jump\t// in\n    tag_403:\n        /* \"contracts/sMasterChef.sol\":2268:2274  _owner */\n      sload(0x00)\n        /* \"contracts/sMasterChef.sol\":2268:2290  _owner == _msgSender() */\n      0xffffffffffffffffffffffffffffffffffffffff\n        /* \"contracts/sMasterChef.sol\":2268:2274  _owner */\n      swap1\n      dup2\n      and\n        /* \"contracts/sMasterChef.sol\":2268:2290  _owner == _msgSender() */\n      swap2\n      and\n      eq\n        /* \"contracts/sMasterChef.sol\":2260:2327  require(_owner == _msgSender(), \"Ownable: caller is not the owner\") */\n      tag_404\n      jumpi\n      mload(0x40)\n      0x08c379a000000000000000000000000000000000000000000000000000000000\n      dup2\n      mstore\n      0x04\n      add\n      tag_220\n      swap1\n      tag_268\n      jump\t// in\n    tag_404:\n        /* \"contracts/sMasterChef.sol\":34331:34347  updatePool(_pid) */\n      tag_407\n        /* \"contracts/sMasterChef.sol\":34342:34346  _pid */\n      dup4\n        /* \"contracts/sMasterChef.sol\":34331:34341  updatePool */\n      tag_115\n        /* \"contracts/sMasterChef.sol\":34331:34347  updatePool(_pid) */\n      jump\t// in\n    tag_407:\n      pop\n        /* \"contracts/sMasterChef.sol\":34364:34375  _withUpdate */\n      dup1\n        /* \"contracts/sMasterChef.sol\":34360:34421  if (_withUpdate) {\r... */\n      iszero\n      tag_409\n      jumpi\n        /* \"contracts/sMasterChef.sol\":34392:34409  massUpdatePools() */\n      tag_409\n        /* \"contracts/sMasterChef.sol\":34392:34407  massUpdatePools */\n      tag_125\n        /* \"contracts/sMasterChef.sol\":34392:34409  massUpdatePools() */\n      jump\t// in\n    tag_409:\n        /* \"contracts/sMasterChef.sol\":34437:34445  poolInfo */\n      0x04\n        /* \"contracts/sMasterChef.sol\":34446:34450  _pid */\n      dup4\n        /* \"contracts/sMasterChef.sol\":34437:34451  poolInfo[_pid] */\n      dup2\n      sload\n      dup2\n      lt\n      tag_410\n      jumpi\n      invalid\n    tag_410:\n      0x00\n      swap2\n      dup3\n      mstore\n      0x20\n      swap1\n      swap2\n      keccak256\n        /* \"contracts/sMasterChef.sol\":34437:34461  poolInfo[_pid].isRegular */\n      0x04\n        /* \"contracts/sMasterChef.sol\":34437:34451  poolInfo[_pid] */\n      0x05\n      swap1\n      swap3\n      mul\n      add\n        /* \"contracts/sMasterChef.sol\":34437:34461  poolInfo[_pid].isRegular */\n      add\n      sload\n      0xff\n      and\n        /* \"contracts/sMasterChef.sol\":34433:34713  if (poolInfo[_pid].isRegular) {\r... */\n      iszero\n      tag_412\n      jumpi\n        /* \"contracts/sMasterChef.sol\":34503:34573  totalRegularAllocPoint.sub(poolInfo[_pid].allocPoint).add(_allocPoint) */\n      tag_413\n        /* \"contracts/sMasterChef.sol\":34561:34572  _allocPoint */\n      dup3\n        /* \"contracts/sMasterChef.sol\":34503:34556  totalRegularAllocPoint.sub(poolInfo[_pid].allocPoint) */\n      tag_254\n        /* \"contracts/sMasterChef.sol\":34530:34538  poolInfo */\n      0x04\n        /* \"contracts/sMasterChef.sol\":34539:34543  _pid */\n      dup7\n        /* \"contracts/sMasterChef.sol\":34530:34544  poolInfo[_pid] */\n      dup2\n      sload\n      dup2\n      lt\n      tag_415\n      jumpi\n      invalid\n    tag_415:\n      swap1\n      0x00\n      mstore\n      keccak256(0x00, 0x20)\n      swap1\n      0x05\n      mul\n      add\n        /* \"contracts/sMasterChef.sol\":34530:34555  poolInfo[_pid].allocPoint */\n      0x02\n      add\n      sload\n        /* \"contracts/sMasterChef.sol\":34503:34525  totalRegularAllocPoint */\n      sload(0x08)\n        /* \"contracts/sMasterChef.sol\":34503:34529  totalRegularAllocPoint.sub */\n      tag_257\n      swap1\n        /* \"contracts/sMasterChef.sol\":34503:34556  totalRegularAllocPoint.sub(poolInfo[_pid].allocPoint) */\n      swap2\n      swap1\n      0xffffffff\n      and\n      jump\t// in\n        /* \"contracts/sMasterChef.sol\":34503:34573  totalRegularAllocPoint.sub(poolInfo[_pid].allocPoint).add(_allocPoint) */\n    tag_413:\n        /* \"contracts/sMasterChef.sol\":34478:34500  totalRegularAllocPoint */\n      0x08\n        /* \"contracts/sMasterChef.sol\":34478:34573  totalRegularAllocPoint = totalRegularAllocPoint.sub(poolInfo[_pid].allocPoint).add(_allocPoint) */\n      sstore\n        /* \"contracts/sMasterChef.sol\":34433:34713  if (poolInfo[_pid].isRegular) {\r... */\n      jump(tag_417)\n    tag_412:\n        /* \"contracts/sMasterChef.sol\":34631:34701  totalSpecialAllocPoint.sub(poolInfo[_pid].allocPoint).add(_allocPoint) */\n      tag_418\n        /* \"contracts/sMasterChef.sol\":34689:34700  _allocPoint */\n      dup3\n        /* \"contracts/sMasterChef.sol\":34631:34684  totalSpecialAllocPoint.sub(poolInfo[_pid].allocPoint) */\n      tag_254\n        /* \"contracts/sMasterChef.sol\":34658:34666  poolInfo */\n      0x04\n        /* \"contracts/sMasterChef.sol\":34667:34671  _pid */\n      dup7\n        /* \"contracts/sMasterChef.sol\":34658:34672  poolInfo[_pid] */\n      dup2\n      sload\n      dup2\n      lt\n      tag_420\n      jumpi\n      invalid\n    tag_420:\n      swap1\n      0x00\n      mstore\n      keccak256(0x00, 0x20)\n      swap1\n      0x05\n      mul\n      add\n        /* \"contracts/sMasterChef.sol\":34658:34683  poolInfo[_pid].allocPoint */\n      0x02\n      add\n      sload\n        /* \"contracts/sMasterChef.sol\":34631:34653  totalSpecialAllocPoint */\n      sload(0x09)\n        /* \"contracts/sMasterChef.sol\":34631:34657  totalSpecialAllocPoint.sub */\n      tag_257\n      swap1\n        /* \"contracts/sMasterChef.sol\":34631:34684  totalSpecialAllocPoint.sub(poolInfo[_pid].allocPoint) */\n      swap2\n      swap1\n      0xffffffff\n      and\n      jump\t// in\n        /* \"contracts/sMasterChef.sol\":34631:34701  totalSpecialAllocPoint.sub(poolInfo[_pid].allocPoint).add(_allocPoint) */\n    tag_418:\n        /* \"contracts/sMasterChef.sol\":34606:34628  totalSpecialAllocPoint */\n      0x09\n        /* \"contracts/sMasterChef.sol\":34606:34701  totalSpecialAllocPoint = totalSpecialAllocPoint.sub(poolInfo[_pid].allocPoint).add(_allocPoint) */\n      sstore\n        /* \"contracts/sMasterChef.sol\":34433:34713  if (poolInfo[_pid].isRegular) {\r... */\n    tag_417:\n        /* \"contracts/sMasterChef.sol\":34751:34762  _allocPoint */\n      dup2\n        /* \"contracts/sMasterChef.sol\":34723:34731  poolInfo */\n      0x04\n        /* \"contracts/sMasterChef.sol\":34732:34736  _pid */\n      dup5\n        /* \"contracts/sMasterChef.sol\":34723:34737  poolInfo[_pid] */\n      dup2\n      sload\n      dup2\n      lt\n      tag_422\n      jumpi\n      invalid\n    tag_422:\n      swap1\n      0x00\n      mstore\n      keccak256(0x00, 0x20)\n      swap1\n      0x05\n      mul\n      add\n        /* \"contracts/sMasterChef.sol\":34723:34748  poolInfo[_pid].allocPoint */\n      0x02\n      add\n        /* \"contracts/sMasterChef.sol\":34723:34762  poolInfo[_pid].allocPoint = _allocPoint */\n      dup2\n      swap1\n      sstore\n      pop\n        /* \"contracts/sMasterChef.sol\":34786:34790  _pid */\n      dup3\n        /* \"contracts/sMasterChef.sol\":34778:34804  SetPool(_pid, _allocPoint) */\n      0xc0cfd54d2de2b55f1e6e108d3ec53ff0a1abe6055401d32c61e9433b747ef9f8\n        /* \"contracts/sMasterChef.sol\":34792:34803  _allocPoint */\n      dup4\n        /* \"contracts/sMasterChef.sol\":34778:34804  SetPool(_pid, _allocPoint) */\n      mload(0x40)\n      tag_424\n      swap2\n      swap1\n      tag_66\n      jump\t// in\n    tag_424:\n      mload(0x40)\n      dup1\n      swap2\n      sub\n      swap1\n      log2\n        /* \"contracts/sMasterChef.sol\":34082:34812  function set(\r... */\n      pop\n      pop\n      pop\n      jump\t// out\n        /* \"contracts/sMasterChef.sol\":29045:29089  uint256 public shdwRateToBurn = 643750000000 */\n    tag_131:\n      sload(0x0a)\n      dup2\n      jump\t// out\n        /* \"contracts/sMasterChef.sol\":28734:28790  uint256 public constant MAX_BOOST_PRECISION = 200 * 1e10 */\n    tag_134:\n        /* \"contracts/sMasterChef.sol\":28780:28790  200 * 1e10 */\n      0x01d1a94a2000\n        /* \"contracts/sMasterChef.sol\":28734:28790  uint256 public constant MAX_BOOST_PRECISION = 200 * 1e10 */\n      dup2\n      jump\t// out\n        /* \"contracts/sMasterChef.sol\":29263:29314  uint256 public shdwRateToSpecialFarm = 293402777778 */\n    tag_137:\n      sload(0x0c)\n      dup2\n      jump\t// out\n        /* \"contracts/sMasterChef.sol\":2698:2846  function renounceOwnership() public virtual onlyOwner {\r... */\n    tag_140:\n        /* \"contracts/sMasterChef.sol\":2278:2290  _msgSender() */\n      tag_426\n        /* \"contracts/sMasterChef.sol\":2278:2288  _msgSender */\n      tag_265\n        /* \"contracts/sMasterChef.sol\":2278:2290  _msgSender() */\n      jump\t// in\n    tag_426:\n        /* \"contracts/sMasterChef.sol\":2268:2274  _owner */\n      sload(0x00)\n        /* \"contracts/sMasterChef.sol\":2268:2290  _owner == _msgSender() */\n      0xffffffffffffffffffffffffffffffffffffffff\n        /* \"contracts/sMasterChef.sol\":2268:2274  _owner */\n      swap1\n      dup2\n      and\n        /* \"contracts/sMasterChef.sol\":2268:2290  _owner == _msgSender() */\n      swap2\n      and\n      eq\n        /* \"contracts/sMasterChef.sol\":2260:2327  require(_owner == _msgSender(), \"Ownable: caller is not the owner\") */\n      tag_427\n      jumpi\n      mload(0x40)\n      0x08c379a000000000000000000000000000000000000000000000000000000000\n      dup2\n      mstore\n      0x04\n      add\n      tag_220\n      swap1\n      tag_268\n      jump\t// in\n    tag_427:\n        /* \"contracts/sMasterChef.sol\":2805:2806  0 */\n      0x00\n        /* \"contracts/sMasterChef.sol\":2789:2795  _owner */\n      dup1\n      sload\n        /* \"contracts/sMasterChef.sol\":2768:2808  OwnershipTransferred(_owner, address(0)) */\n      mload(0x40)\n      0xffffffffffffffffffffffffffffffffffffffff\n        /* \"contracts/sMasterChef.sol\":2789:2795  _owner */\n      swap1\n      swap2\n      and\n      swap1\n        /* \"contracts/sMasterChef.sol\":2768:2808  OwnershipTransferred(_owner, address(0)) */\n      0x8be0079c531659141344cd1fd0a4f28419497f9722a3daafe3b4186f6b6457e0\n      swap1\n        /* \"contracts/sMasterChef.sol\":2805:2806  0 */\n      dup4\n      swap1\n        /* \"contracts/sMasterChef.sol\":2768:2808  OwnershipTransferred(_owner, address(0)) */\n      log3\n        /* \"contracts/sMasterChef.sol\":2836:2837  0 */\n      0x00\n        /* \"contracts/sMasterChef.sol\":2819:2838  _owner = address(0) */\n      dup1\n      sload\n      0xffffffffffffffffffffffff0000000000000000000000000000000000000000\n      and\n      swap1\n      sstore\n        /* \"contracts/sMasterChef.sol\":2698:2846  function renounceOwnership() public virtual onlyOwner {\r... */\n      jump\t// out\n        /* \"contracts/sMasterChef.sol\":29323:29353  uint256 public lastBurnedBlock */\n    tag_142:\n      sload(0x0d)\n      dup2\n      jump\t// out\n        /* \"contracts/sMasterChef.sol\":27658:27681  IBEP20[] public lpToken */\n    tag_146:\n      0x05\n      dup2\n      dup2\n      sload\n      dup2\n      lt\n      tag_430\n      jumpi\n      invalid\n    tag_430:\n      0x00\n      swap2\n      dup3\n      mstore\n      0x20\n      swap1\n      swap2\n      keccak256\n      add\n      sload\n      0xffffffffffffffffffffffffffffffffffffffff\n      and\n      swap1\n      pop\n      dup2\n      jump\t// out\n        /* \"contracts/sMasterChef.sol\":42664:43559  function updateShdwRate(\r... */\n    tag_151:\n        /* \"contracts/sMasterChef.sol\":2278:2290  _msgSender() */\n      tag_433\n        /* \"contracts/sMasterChef.sol\":2278:2288  _msgSender */\n      tag_265\n        /* \"contracts/sMasterChef.sol\":2278:2290  _msgSender() */\n      jump\t// in\n    tag_433:\n        /* \"contracts/sMasterChef.sol\":2268:2274  _owner */\n      sload(0x00)\n        /* \"contracts/sMasterChef.sol\":2268:2290  _owner == _msgSender() */\n      0xffffffffffffffffffffffffffffffffffffffff\n        /* \"contracts/sMasterChef.sol\":2268:2274  _owner */\n      swap1\n      dup2\n      and\n        /* \"contracts/sMasterChef.sol\":2268:2290  _owner == _msgSender() */\n      swap2\n      and\n      eq\n        /* \"contracts/sMasterChef.sol\":2260:2327  require(_owner == _msgSender(), \"Ownable: caller is not the owner\") */\n      tag_434\n      jumpi\n      mload(0x40)\n      0x08c379a000000000000000000000000000000000000000000000000000000000\n      dup2\n      mstore\n      0x04\n      add\n      tag_220\n      swap1\n      tag_268\n      jump\t// in\n    tag_434:\n        /* \"contracts/sMasterChef.sol\":42884:42885  0 */\n      0x00\n        /* \"contracts/sMasterChef.sol\":42872:42881  _burnRate */\n      dup5\n        /* \"contracts/sMasterChef.sol\":42872:42885  _burnRate > 0 */\n      gt\n        /* \"contracts/sMasterChef.sol\":42872:42909  _burnRate > 0 && _regularFarmRate > 0 */\n      dup1\n      iszero\n      tag_437\n      jumpi\n      pop\n        /* \"contracts/sMasterChef.sol\":42908:42909  0 */\n      0x00\n        /* \"contracts/sMasterChef.sol\":42889:42905  _regularFarmRate */\n      dup4\n        /* \"contracts/sMasterChef.sol\":42889:42909  _regularFarmRate > 0 */\n      gt\n        /* \"contracts/sMasterChef.sol\":42872:42909  _burnRate > 0 && _regularFarmRate > 0 */\n    tag_437:\n        /* \"contracts/sMasterChef.sol\":42872:42933  _burnRate > 0 && _regularFarmRate > 0 && _specialFarmRate > 0 */\n      dup1\n      iszero\n      tag_438\n      jumpi\n      pop\n        /* \"contracts/sMasterChef.sol\":42932:42933  0 */\n      0x00\n        /* \"contracts/sMasterChef.sol\":42913:42929  _specialFarmRate */\n      dup3\n        /* \"contracts/sMasterChef.sol\":42913:42933  _specialFarmRate > 0 */\n      gt\n        /* \"contracts/sMasterChef.sol\":42872:42933  _burnRate > 0 && _regularFarmRate > 0 && _specialFarmRate > 0 */\n    tag_438:\n        /* \"contracts/sMasterChef.sol\":42850:43006  require(\r... */\n      tag_439\n      jumpi\n      mload(0x40)\n      0x08c379a000000000000000000000000000000000000000000000000000000000\n      dup2\n      mstore\n      0x04\n      add\n      tag_220\n      swap1\n      tag_441\n      jump\t// in\n    tag_439:\n        /* \"contracts/sMasterChef.sol\":28915:28919  1e12 */\n      0xe8d4a51000\n        /* \"contracts/sMasterChef.sol\":43039:43092  _burnRate.add(_regularFarmRate).add(_specialFarmRate) */\n      tag_442\n        /* \"contracts/sMasterChef.sol\":43075:43091  _specialFarmRate */\n      dup4\n        /* \"contracts/sMasterChef.sol\":43039:43070  _burnRate.add(_regularFarmRate) */\n      tag_254\n        /* \"contracts/sMasterChef.sol\":43039:43048  _burnRate */\n      dup8\n        /* \"contracts/sMasterChef.sol\":43053:43069  _regularFarmRate */\n      dup8\n        /* \"contracts/sMasterChef.sol\":43039:43052  _burnRate.add */\n      tag_258\n        /* \"contracts/sMasterChef.sol\":43039:43070  _burnRate.add(_regularFarmRate) */\n      jump\t// in\n        /* \"contracts/sMasterChef.sol\":43039:43092  _burnRate.add(_regularFarmRate).add(_specialFarmRate) */\n    tag_442:\n        /* \"contracts/sMasterChef.sol\":43039:43121  _burnRate.add(_regularFarmRate).add(_specialFarmRate) == SHDW_RATE_TOTAL_PRECISION */\n      eq\n        /* \"contracts/sMasterChef.sol\":43017:43185  require(\r... */\n      tag_444\n      jumpi\n      mload(0x40)\n      0x08c379a000000000000000000000000000000000000000000000000000000000\n      dup2\n      mstore\n      0x04\n      add\n      tag_220\n      swap1\n      tag_446\n      jump\t// in\n    tag_444:\n        /* \"contracts/sMasterChef.sol\":43200:43211  _withUpdate */\n      dup1\n        /* \"contracts/sMasterChef.sol\":43196:43257  if (_withUpdate) {\r... */\n      iszero\n      tag_448\n      jumpi\n        /* \"contracts/sMasterChef.sol\":43228:43245  massUpdatePools() */\n      tag_448\n        /* \"contracts/sMasterChef.sol\":43228:43243  massUpdatePools */\n      tag_125\n        /* \"contracts/sMasterChef.sol\":43228:43245  massUpdatePools() */\n      jump\t// in\n    tag_448:\n        /* \"contracts/sMasterChef.sol\":43316:43331  burnShdw(false) */\n      tag_449\n        /* \"contracts/sMasterChef.sol\":43325:43330  false */\n      0x00\n        /* \"contracts/sMasterChef.sol\":43316:43324  burnShdw */\n      tag_101\n        /* \"contracts/sMasterChef.sol\":43316:43331  burnShdw(false) */\n      jump\t// in\n    tag_449:\n        /* \"contracts/sMasterChef.sol\":43344:43358  shdwRateToBurn */\n      0x0a\n        /* \"contracts/sMasterChef.sol\":43344:43370  shdwRateToBurn = _burnRate */\n      dup5\n      swap1\n      sstore\n        /* \"contracts/sMasterChef.sol\":43381:43402  shdwRateToRegularFarm */\n      0x0b\n        /* \"contracts/sMasterChef.sol\":43381:43421  shdwRateToRegularFarm = _regularFarmRate */\n      dup4\n      swap1\n      sstore\n        /* \"contracts/sMasterChef.sol\":43432:43453  shdwRateToSpecialFarm */\n      0x0c\n        /* \"contracts/sMasterChef.sol\":43432:43472  shdwRateToSpecialFarm = _specialFarmRate */\n      dup3\n      swap1\n      sstore\n        /* \"contracts/sMasterChef.sol\":43490:43551  UpdateShdwRate(_burnRate, _regularFarmRate, _specialFarmRate) */\n      mload(0x40)\n      0x2882b55ee231404a42d7d813dad9cfe57d65e1992a6d165a6e29466a8d1b7499\n      swap1\n      tag_450\n      swap1\n        /* \"contracts/sMasterChef.sol\":43361:43370  _burnRate */\n      dup7\n      swap1\n        /* \"contracts/sMasterChef.sol\":43405:43421  _regularFarmRate */\n      dup7\n      swap1\n        /* \"contracts/sMasterChef.sol\":43456:43472  _specialFarmRate */\n      dup7\n      swap1\n        /* \"contracts/sMasterChef.sol\":43490:43551  UpdateShdwRate(_burnRate, _regularFarmRate, _specialFarmRate) */\n      tag_164\n      jump\t// in\n    tag_450:\n      mload(0x40)\n      dup1\n      swap2\n      sub\n      swap1\n      log1\n        /* \"contracts/sMasterChef.sol\":42664:43559  function updateShdwRate(\r... */\n      pop\n      pop\n      pop\n      pop\n      jump\t// out\n        /* \"contracts/sMasterChef.sol\":27399:27423  address public burnAdmin */\n    tag_153:\n      and(0xffffffffffffffffffffffffffffffffffffffff, sload(0x02))\n      dup2\n      jump\t// out\n        /* \"contracts/sMasterChef.sol\":2056:2135  function owner() public view returns (address) {\r... */\n    tag_157:\n        /* \"contracts/sMasterChef.sol\":2094:2101  address */\n      0x00\n        /* \"contracts/sMasterChef.sol\":2121:2127  _owner */\n      sload\n      0xffffffffffffffffffffffffffffffffffffffff\n      and\n        /* \"contracts/sMasterChef.sol\":2056:2135  function owner() public view returns (address) {\r... */\n      swap1\n      jump\t// out\n        /* \"contracts/sMasterChef.sol\":27731:27795  mapping(uint256 => mapping(address => UserInfo)) public userInfo */\n    tag_162:\n      0x06\n      0x20\n      swap1\n      dup2\n      mstore\n      0x00\n      swap3\n      dup4\n      mstore\n      0x40\n      dup1\n      dup5\n      keccak256\n      swap1\n      swap2\n      mstore\n      swap1\n      dup3\n      mstore\n      swap1\n      keccak256\n      dup1\n      sload\n      0x01\n      dup3\n      add\n      sload\n      0x02\n      swap1\n      swap3\n      add\n      sload\n      swap1\n      swap2\n      swap1\n      dup4\n      jump\t// out\n        /* \"contracts/sMasterChef.sol\":28299:28336  uint256 public totalSpecialAllocPoint */\n    tag_166:\n      sload(0x09)\n      dup2\n      jump\t// out\n        /* \"contracts/sMasterChef.sol\":44665:45031  function updateBoostContract(address _newBoostContract) external onlyOwner {\r... */\n    tag_170:\n        /* \"contracts/sMasterChef.sol\":2278:2290  _msgSender() */\n      tag_453\n        /* \"contracts/sMasterChef.sol\":2278:2288  _msgSender */\n      tag_265\n        /* \"contracts/sMasterChef.sol\":2278:2290  _msgSender() */\n      jump\t// in\n    tag_453:\n        /* \"contracts/sMasterChef.sol\":2268:2274  _owner */\n      sload(0x00)\n        /* \"contracts/sMasterChef.sol\":2268:2290  _owner == _msgSender() */\n      0xffffffffffffffffffffffffffffffffffffffff\n        /* \"contracts/sMasterChef.sol\":2268:2274  _owner */\n      swap1\n      dup2\n      and\n        /* \"contracts/sMasterChef.sol\":2268:2290  _owner == _msgSender() */\n      swap2\n      and\n      eq\n        /* \"contracts/sMasterChef.sol\":2260:2327  require(_owner == _msgSender(), \"Ownable: caller is not the owner\") */\n      tag_454\n      jumpi\n      mload(0x40)\n      0x08c379a000000000000000000000000000000000000000000000000000000000\n      dup2\n      mstore\n      0x04\n      add\n      tag_220\n      swap1\n      tag_268\n      jump\t// in\n    tag_454:\n        /* \"contracts/sMasterChef.sol\":44773:44804  _newBoostContract != address(0) */\n      0xffffffffffffffffffffffffffffffffffffffff\n      dup2\n      and\n      iszero\n      dup1\n      iszero\n      swap1\n        /* \"contracts/sMasterChef.sol\":44773:44842  _newBoostContract != address(0) && _newBoostContract != boostContract */\n      tag_457\n      jumpi\n      pop\n        /* \"contracts/sMasterChef.sol\":44829:44842  boostContract */\n      sload(0x03)\n      0xffffffffffffffffffffffffffffffffffffffff\n        /* \"contracts/sMasterChef.sol\":44808:44842  _newBoostContract != boostContract */\n      dup3\n      dup2\n      and\n        /* \"contracts/sMasterChef.sol\":44829:44842  boostContract */\n      swap2\n      and\n        /* \"contracts/sMasterChef.sol\":44808:44842  _newBoostContract != boostContract */\n      eq\n      iszero\n        /* \"contracts/sMasterChef.sol\":44773:44842  _newBoostContract != address(0) && _newBoostContract != boostContract */\n    tag_457:\n        /* \"contracts/sMasterChef.sol\":44751:44923  require(\r... */\n      tag_458\n      jumpi\n      mload(0x40)\n      0x08c379a000000000000000000000000000000000000000000000000000000000\n      dup2\n      mstore\n      0x04\n      add\n      tag_220\n      swap1\n      tag_460\n      jump\t// in\n    tag_458:\n        /* \"contracts/sMasterChef.sol\":44936:44949  boostContract */\n      0x03\n        /* \"contracts/sMasterChef.sol\":44936:44969  boostContract = _newBoostContract */\n      dup1\n      sload\n      0xffffffffffffffffffffffff0000000000000000000000000000000000000000\n      and\n      0xffffffffffffffffffffffffffffffffffffffff\n      dup4\n      and\n      swap1\n      dup2\n      or\n      swap1\n      swap2\n      sstore\n        /* \"contracts/sMasterChef.sol\":44985:45023  UpdateBoostContract(_newBoostContract) */\n      mload(0x40)\n      0x4c0c07d0b548b824a1b998eb4d11fccf1cfbc1e47edcdb309970ba88315eb303\n      swap1\n      0x00\n      swap1\n      log2\n        /* \"contracts/sMasterChef.sol\":44665:45031  function updateBoostContract(address _newBoostContract) external onlyOwner {\r... */\n      pop\n      jump\t// out\n        /* \"contracts/sMasterChef.sol\":44241:44503  function updateWhiteList(address _user, bool _isValid) external onlyOwner {\r... */\n    tag_174:\n        /* \"contracts/sMasterChef.sol\":2278:2290  _msgSender() */\n      tag_462\n        /* \"contracts/sMasterChef.sol\":2278:2288  _msgSender */\n      tag_265\n        /* \"contracts/sMasterChef.sol\":2278:2290  _msgSender() */\n      jump\t// in\n    tag_462:\n        /* \"contracts/sMasterChef.sol\":2268:2274  _owner */\n      sload(0x00)\n        /* \"contracts/sMasterChef.sol\":2268:2290  _owner == _msgSender() */\n      0xffffffffffffffffffffffffffffffffffffffff\n        /* \"contracts/sMasterChef.sol\":2268:2274  _owner */\n      swap1\n      dup2\n      and\n        /* \"contracts/sMasterChef.sol\":2268:2290  _owner == _msgSender() */\n      swap2\n      and\n      eq\n        /* \"contracts/sMasterChef.sol\":2260:2327  require(_owner == _msgSender(), \"Ownable: caller is not the owner\") */\n      tag_463\n      jumpi\n      mload(0x40)\n      0x08c379a000000000000000000000000000000000000000000000000000000000\n      dup2\n      mstore\n      0x04\n      add\n      tag_220\n      swap1\n      tag_268\n      jump\t// in\n    tag_463:\n        /* \"contracts/sMasterChef.sol\":44334:44353  _user != address(0) */\n      0xffffffffffffffffffffffffffffffffffffffff\n      dup3\n      and\n        /* \"contracts/sMasterChef.sol\":44326:44407  require(_user != address(0), \"sMasterChef: The white list address must be valid\") */\n      tag_466\n      jumpi\n      mload(0x40)\n      0x08c379a000000000000000000000000000000000000000000000000000000000\n      dup2\n      mstore\n      0x04\n      add\n      tag_220\n      swap1\n      tag_468\n      jump\t// in\n    tag_466:\n        /* \"contracts/sMasterChef.sol\":44420:44436  whiteList[_user] */\n      0xffffffffffffffffffffffffffffffffffffffff\n      dup3\n      and\n      0x00\n      dup2\n      dup2\n      mstore\n        /* \"contracts/sMasterChef.sol\":44420:44429  whiteList */\n      0x07\n        /* \"contracts/sMasterChef.sol\":44420:44436  whiteList[_user] */\n      0x20\n      mstore\n      0x40\n      swap1\n      dup2\n      swap1\n      keccak256\n        /* \"contracts/sMasterChef.sol\":44420:44447  whiteList[_user] = _isValid */\n      dup1\n      sload\n      0xffffffffffffffffffffffffffffffffffffffffffffffffffffffffffffff00\n      and\n      dup5\n      iszero\n      iszero\n      or\n      swap1\n      sstore\n        /* \"contracts/sMasterChef.sol\":44463:44495  UpdateWhiteList(_user, _isValid) */\n      mload\n      0xc551bbb22d0406dbfb8b6b7740cc521bcf44e1106029cf899c19b6a8e4c99d51\n      swap1\n      tag_469\n      swap1\n        /* \"contracts/sMasterChef.sol\":44420:44447  whiteList[_user] = _isValid */\n      dup5\n      swap1\n        /* \"contracts/sMasterChef.sol\":44463:44495  UpdateWhiteList(_user, _isValid) */\n      tag_106\n      jump\t// in\n    tag_469:\n      mload(0x40)\n      dup1\n      swap2\n      sub\n      swap1\n      log2\n        /* \"contracts/sMasterChef.sol\":44241:44503  function updateWhiteList(address _user, bool _isValid) external onlyOwner {\r... */\n      pop\n      pop\n      jump\t// out\n        /* \"contracts/sMasterChef.sol\":27208:27246  IMasterChef public immutable DARK_CHEF */\n    tag_176:\n      immutable(\"0x523002c9adf4540d1913fbcc02308745afe7fe46bf4736ab566dafa3acaa32ea\")\n      dup2\n      jump\t// out\n        /* \"contracts/sMasterChef.sol\":28148:28185  uint256 public totalRegularAllocPoint */\n    tag_180:\n      sload(0x08)\n      dup2\n      jump\t// out\n        /* \"contracts/sMasterChef.sol\":32666:33776  function add(\r... */\n    tag_185:\n        /* \"contracts/sMasterChef.sol\":2278:2290  _msgSender() */\n      tag_471\n        /* \"contracts/sMasterChef.sol\":2278:2288  _msgSender */\n      tag_265\n        /* \"contracts/sMasterChef.sol\":2278:2290  _msgSender() */\n      jump\t// in\n    tag_471:\n        /* \"contracts/sMasterChef.sol\":2268:2274  _owner */\n      sload(0x00)\n        /* \"contracts/sMasterChef.sol\":2268:2290  _owner == _msgSender() */\n      0xffffffffffffffffffffffffffffffffffffffff\n        /* \"contracts/sMasterChef.sol\":2268:2274  _owner */\n      swap1\n      dup2\n      and\n        /* \"contracts/sMasterChef.sol\":2268:2290  _owner == _msgSender() */\n      swap2\n      and\n      eq\n        /* \"contracts/sMasterChef.sol\":2260:2327  require(_owner == _msgSender(), \"Ownable: caller is not the owner\") */\n      tag_472\n      jumpi\n      mload(0x40)\n      0x08c379a000000000000000000000000000000000000000000000000000000000\n      dup2\n      mstore\n      0x04\n      add\n      tag_220\n      swap1\n      tag_268\n      jump\t// in\n    tag_472:\n        /* \"contracts/sMasterChef.sol\":32833:32866  _lpToken.balanceOf(address(this)) */\n      mload(0x40)\n      0x70a0823100000000000000000000000000000000000000000000000000000000\n      dup2\n      mstore\n        /* \"contracts/sMasterChef.sol\":32870:32871  0 */\n      0x00\n      swap1\n        /* \"contracts/sMasterChef.sol\":32833:32851  _lpToken.balanceOf */\n      0xffffffffffffffffffffffffffffffffffffffff\n      dup6\n      and\n      swap1\n      0x70a08231\n      swap1\n        /* \"contracts/sMasterChef.sol\":32833:32866  _lpToken.balanceOf(address(this)) */\n      tag_475\n      swap1\n        /* \"contracts/sMasterChef.sol\":32860:32864  this */\n      address\n      swap1\n        /* \"contracts/sMasterChef.sol\":32833:32866  _lpToken.balanceOf(address(this)) */\n      0x04\n      add\n      tag_155\n      jump\t// in\n    tag_475:\n      0x20\n      mload(0x40)\n      dup1\n      dup4\n      sub\n      dup2\n      dup7\n      dup1\n      extcodesize\n      iszero\n      dup1\n      iszero\n      tag_476\n      jumpi\n      0x00\n      dup1\n      revert\n    tag_476:\n      pop\n      gas\n      staticcall\n      iszero\n      dup1\n      iszero\n      tag_478\n      jumpi\n      returndatasize\n      0x00\n      dup1\n      returndatacopy\n      revert(0x00, returndatasize)\n    tag_478:\n      pop\n      pop\n      pop\n      pop\n      mload(0x40)\n      returndatasize\n      not(0x1f)\n      0x1f\n      dup3\n      add\n      and\n      dup3\n      add\n      dup1\n      0x40\n      mstore\n      pop\n      dup2\n      add\n      swap1\n      tag_479\n      swap2\n      swap1\n      tag_289\n      jump\t// in\n    tag_479:\n        /* \"contracts/sMasterChef.sol\":32833:32871  _lpToken.balanceOf(address(this)) >= 0 */\n      lt\n      iszero\n        /* \"contracts/sMasterChef.sol\":32825:32893  require(_lpToken.balanceOf(address(this)) >= 0, \"None BEP20 tokens\") */\n      tag_480\n      jumpi\n      mload(0x40)\n      0x08c379a000000000000000000000000000000000000000000000000000000000\n      dup2\n      mstore\n      0x04\n      add\n      tag_220\n      swap1\n      tag_482\n      jump\t// in\n    tag_480:\n        /* \"contracts/sMasterChef.sol\":33078:33082  SHDW */\n      immutable(\"0xad6001c41f5480e3ca6168a06649b3a3f0b7288943b7fbc0eb5698ed5504137a\")\n        /* \"contracts/sMasterChef.sol\":33066:33082  _lpToken != SHDW */\n      0xffffffffffffffffffffffffffffffffffffffff\n      and\n        /* \"contracts/sMasterChef.sol\":33066:33074  _lpToken */\n      dup4\n        /* \"contracts/sMasterChef.sol\":33066:33082  _lpToken != SHDW */\n      0xffffffffffffffffffffffffffffffffffffffff\n      and\n      eq\n      iszero\n        /* \"contracts/sMasterChef.sol\":33058:33126  require(_lpToken != SHDW, \"SHDW token can't be added to farm pools\") */\n      tag_483\n      jumpi\n      mload(0x40)\n      0x08c379a000000000000000000000000000000000000000000000000000000000\n      dup2\n      mstore\n      0x04\n      add\n      tag_220\n      swap1\n      tag_485\n      jump\t// in\n    tag_483:\n        /* \"contracts/sMasterChef.sol\":33143:33154  _withUpdate */\n      dup1\n        /* \"contracts/sMasterChef.sol\":33139:33200  if (_withUpdate) {\r... */\n      iszero\n      tag_487\n      jumpi\n        /* \"contracts/sMasterChef.sol\":33171:33188  massUpdatePools() */\n      tag_487\n        /* \"contracts/sMasterChef.sol\":33171:33186  massUpdatePools */\n      tag_125\n        /* \"contracts/sMasterChef.sol\":33171:33188  massUpdatePools() */\n      jump\t// in\n    tag_487:\n        /* \"contracts/sMasterChef.sol\":33216:33226  _isRegular */\n      dup2\n        /* \"contracts/sMasterChef.sol\":33212:33416  if (_isRegular) {\r... */\n      iszero\n      tag_488\n      jumpi\n        /* \"contracts/sMasterChef.sol\":33268:33290  totalRegularAllocPoint */\n      sload(0x08)\n        /* \"contracts/sMasterChef.sol\":33268:33307  totalRegularAllocPoint.add(_allocPoint) */\n      tag_489\n      swap1\n        /* \"contracts/sMasterChef.sol\":33295:33306  _allocPoint */\n      dup6\n        /* \"contracts/sMasterChef.sol\":33268:33294  totalRegularAllocPoint.add */\n      tag_258\n        /* \"contracts/sMasterChef.sol\":33268:33307  totalRegularAllocPoint.add(_allocPoint) */\n      jump\t// in\n    tag_489:\n        /* \"contracts/sMasterChef.sol\":33243:33265  totalRegularAllocPoint */\n      0x08\n        /* \"contracts/sMasterChef.sol\":33243:33307  totalRegularAllocPoint = totalRegularAllocPoint.add(_allocPoint) */\n      sstore\n        /* \"contracts/sMasterChef.sol\":33212:33416  if (_isRegular) {\r... */\n      jump(tag_490)\n    tag_488:\n        /* \"contracts/sMasterChef.sol\":33365:33387  totalSpecialAllocPoint */\n      sload(0x09)\n        /* \"contracts/sMasterChef.sol\":33365:33404  totalSpecialAllocPoint.add(_allocPoint) */\n      tag_491\n      swap1\n        /* \"contracts/sMasterChef.sol\":33392:33403  _allocPoint */\n      dup6\n        /* \"contracts/sMasterChef.sol\":33365:33391  totalSpecialAllocPoint.add */\n      tag_258\n        /* \"contracts/sMasterChef.sol\":33365:33404  totalSpecialAllocPoint.add(_allocPoint) */\n      jump\t// in\n    tag_491:\n        /* \"contracts/sMasterChef.sol\":33340:33362  totalSpecialAllocPoint */\n      0x09\n        /* \"contracts/sMasterChef.sol\":33340:33404  totalSpecialAllocPoint = totalSpecialAllocPoint.add(_allocPoint) */\n      sstore\n        /* \"contracts/sMasterChef.sol\":33212:33416  if (_isRegular) {\r... */\n    tag_490:\n        /* \"contracts/sMasterChef.sol\":33426:33433  lpToken */\n      0x05\n        /* \"contracts/sMasterChef.sol\":33426:33448  lpToken.push(_lpToken) */\n      dup1\n      sload\n      0x01\n      dup1\n      dup3\n      add\n      dup4\n      sstore\n      0x036b6384b5eca791c62761152d0c79bb0604c104a5fb6f4eb0703f3154bb3db0\n      swap1\n      swap2\n      add\n      dup1\n      sload\n      0xffffffffffffffffffffffff0000000000000000000000000000000000000000\n      and\n      0xffffffffffffffffffffffffffffffffffffffff\n      dup8\n      and\n      swap1\n      dup2\n      or\n      swap1\n      swap2\n      sstore\n        /* \"contracts/sMasterChef.sol\":33489:33676  PoolInfo({\r... */\n      0x40\n      dup1\n      mload\n      0xa0\n      dup2\n      add\n      dup3\n      mstore\n      0x00\n      dup1\n      dup3\n      mstore\n        /* \"contracts/sMasterChef.sol\":33560:33572  block.number */\n      number\n        /* \"contracts/sMasterChef.sol\":33426:33448  lpToken.push(_lpToken) */\n      0x20\n        /* \"contracts/sMasterChef.sol\":33489:33676  PoolInfo({\r... */\n      dup4\n      add\n      swap1\n      dup2\n      mstore\n      swap3\n      dup3\n      add\n      dup11\n      dup2\n      mstore\n      0x60\n      dup4\n      add\n      dup3\n      dup2\n      mstore\n      dup10\n      iszero\n      iszero\n      0x80\n      dup6\n      add\n      swap1\n      dup2\n      mstore\n        /* \"contracts/sMasterChef.sol\":33461:33469  poolInfo */\n      0x04\n        /* \"contracts/sMasterChef.sol\":33461:33687  poolInfo.push(\r... */\n      dup1\n      sload\n      dup1\n      dup11\n      add\n      dup3\n      sstore\n      swap5\n      mstore\n      swap4\n      mload\n      0x8a35acfbc15ff81a39ae7d344fd709f28e8600b4aa8c65c6b64bfe7fe36bd19b\n      swap4\n      dup10\n      mul\n      swap4\n      dup5\n      add\n      sstore\n      swap4\n      mload\n      0x8a35acfbc15ff81a39ae7d344fd709f28e8600b4aa8c65c6b64bfe7fe36bd19c\n      dup4\n      add\n      sstore\n      mload\n      0x8a35acfbc15ff81a39ae7d344fd709f28e8600b4aa8c65c6b64bfe7fe36bd19d\n      dup3\n      add\n      sstore\n      swap2\n      mload\n      0x8a35acfbc15ff81a39ae7d344fd709f28e8600b4aa8c65c6b64bfe7fe36bd19e\n      dup4\n      add\n      sstore\n      mload\n      0x8a35acfbc15ff81a39ae7d344fd709f28e8600b4aa8c65c6b64bfe7fe36bd19f\n      swap1\n      swap2\n      add\n      dup1\n      sload\n      0xffffffffffffffffffffffffffffffffffffffffffffffffffffffffffffff00\n      and\n      swap2\n      iszero\n      iszero\n      swap2\n      swap1\n      swap2\n      or\n      swap1\n      sstore\n        /* \"contracts/sMasterChef.sol\":33711:33725  lpToken.length */\n      swap2\n      sload\n        /* \"contracts/sMasterChef.sol\":33711:33732  lpToken.length.sub(1) */\n      tag_494\n      swap2\n        /* \"contracts/sMasterChef.sol\":33711:33729  lpToken.length.sub */\n      tag_257\n        /* \"contracts/sMasterChef.sol\":33711:33732  lpToken.length.sub(1) */\n      jump\t// in\n    tag_494:\n        /* \"contracts/sMasterChef.sol\":33703:33768  AddPool(lpToken.length.sub(1), _allocPoint, _lpToken, _isRegular) */\n      0x18caa0724a26384928efe604ae6ddc99c242548876259770fc88fcb7e719d8fa\n        /* \"contracts/sMasterChef.sol\":33734:33745  _allocPoint */\n      dup7\n        /* \"contracts/sMasterChef.sol\":33757:33767  _isRegular */\n      dup6\n        /* \"contracts/sMasterChef.sol\":33703:33768  AddPool(lpToken.length.sub(1), _allocPoint, _lpToken, _isRegular) */\n      mload(0x40)\n      tag_495\n      swap3\n      swap2\n      swap1\n      tag_496\n      jump\t// in\n    tag_495:\n      mload(0x40)\n      dup1\n      swap2\n      sub\n      swap1\n      log3\n        /* \"contracts/sMasterChef.sol\":32666:33776  function add(\r... */\n      pop\n      pop\n      pop\n      pop\n      jump\t// out\n        /* \"contracts/sMasterChef.sol\":34986:35956  function pendingShdw(uint256 _pid, address _user) external view returns (uint256) {\r... */\n    tag_188:\n        /* \"contracts/sMasterChef.sol\":35059:35066  uint256 */\n      0x00\n        /* \"contracts/sMasterChef.sol\":35079:35099  PoolInfo memory pool */\n      tag_498\n      tag_240\n      jump\t// in\n    tag_498:\n        /* \"contracts/sMasterChef.sol\":35102:35110  poolInfo */\n      0x04\n        /* \"contracts/sMasterChef.sol\":35111:35115  _pid */\n      dup5\n        /* \"contracts/sMasterChef.sol\":35102:35116  poolInfo[_pid] */\n      dup2\n      sload\n      dup2\n      lt\n      tag_499\n      jumpi\n      invalid\n    tag_499:\n      0x00\n      swap2\n      dup3\n      mstore\n      0x20\n      swap2\n      dup3\n      swap1\n      keccak256\n        /* \"contracts/sMasterChef.sol\":35079:35116  PoolInfo memory pool = poolInfo[_pid] */\n      0x40\n      dup1\n      mload\n      0xa0\n      dup2\n      add\n      dup3\n      mstore\n        /* \"contracts/sMasterChef.sol\":35102:35116  poolInfo[_pid] */\n      0x05\n      swap1\n      swap4\n      mul\n      swap1\n      swap2\n      add\n        /* \"contracts/sMasterChef.sol\":35079:35116  PoolInfo memory pool = poolInfo[_pid] */\n      dup1\n      sload\n      dup4\n      mstore\n      0x01\n      dup2\n      add\n      sload\n      swap4\n      dup4\n      add\n      swap4\n      swap1\n      swap4\n      mstore\n      0x02\n      dup4\n      add\n      sload\n      swap1\n      dup3\n      add\n      mstore\n      0x03\n      dup3\n      add\n      sload\n      0x60\n      dup3\n      add\n      mstore\n      0x04\n      swap1\n      swap2\n      add\n      sload\n      0xff\n      and\n      iszero\n      iszero\n      0x80\n      dup3\n      add\n      mstore\n      swap1\n      pop\n        /* \"contracts/sMasterChef.sol\":35127:35147  UserInfo memory user */\n      tag_501\n      tag_502\n      jump\t// in\n    tag_501:\n      pop\n        /* \"contracts/sMasterChef.sol\":35150:35164  userInfo[_pid] */\n      0x00\n      dup5\n      dup2\n      mstore\n        /* \"contracts/sMasterChef.sol\":35150:35158  userInfo */\n      0x06\n        /* \"contracts/sMasterChef.sol\":35150:35164  userInfo[_pid] */\n      0x20\n      swap1\n      dup2\n      mstore\n      0x40\n      dup1\n      dup4\n      keccak256\n        /* \"contracts/sMasterChef.sol\":35150:35171  userInfo[_pid][_user] */\n      0xffffffffffffffffffffffffffffffffffffffff\n      dup8\n      and\n      dup5\n      mstore\n      dup3\n      mstore\n      swap2\n      dup3\n      swap1\n      keccak256\n        /* \"contracts/sMasterChef.sol\":35127:35171  UserInfo memory user = userInfo[_pid][_user] */\n      dup3\n      mload\n      0x60\n      dup1\n      dup3\n      add\n      dup6\n      mstore\n      dup3\n      sload\n      dup3\n      mstore\n      0x01\n      dup4\n      add\n      sload\n      dup3\n      dup6\n      add\n      mstore\n      0x02\n      swap1\n      swap3\n      add\n      sload\n      swap4\n      dup2\n      add\n      swap4\n      swap1\n      swap4\n      mstore\n        /* \"contracts/sMasterChef.sol\":35208:35228  pool.accShdwPerShare */\n      dup4\n      mload\n        /* \"contracts/sMasterChef.sol\":35258:35280  pool.totalBoostedShare */\n      swap1\n      dup5\n      add\n      mload\n        /* \"contracts/sMasterChef.sol\":35312:35332  pool.lastRewardBlock */\n      swap2\n      dup5\n      add\n      mload\n        /* \"contracts/sMasterChef.sol\":35208:35228  pool.accShdwPerShare */\n      swap1\n      swap2\n        /* \"contracts/sMasterChef.sol\":35258:35280  pool.totalBoostedShare */\n      swap1\n        /* \"contracts/sMasterChef.sol\":35297:35309  block.number */\n      number\n        /* \"contracts/sMasterChef.sol\":35297:35332  block.number > pool.lastRewardBlock */\n      gt\n        /* \"contracts/sMasterChef.sol\":35297:35349  block.number > pool.lastRewardBlock && lpSupply != 0 */\n      dup1\n      iszero\n      tag_503\n      jumpi\n      pop\n        /* \"contracts/sMasterChef.sol\":35336:35349  lpSupply != 0 */\n      dup1\n      iszero\n      iszero\n        /* \"contracts/sMasterChef.sol\":35297:35349  block.number > pool.lastRewardBlock && lpSupply != 0 */\n    tag_503:\n        /* \"contracts/sMasterChef.sol\":35293:35746  if (block.number > pool.lastRewardBlock && lpSupply != 0) {\r... */\n      iszero\n      tag_504\n      jumpi\n        /* \"contracts/sMasterChef.sol\":35366:35384  uint256 multiplier */\n      0x00\n        /* \"contracts/sMasterChef.sol\":35387:35425  block.number.sub(pool.lastRewardBlock) */\n      tag_505\n        /* \"contracts/sMasterChef.sol\":35404:35408  pool */\n      dup6\n        /* \"contracts/sMasterChef.sol\":35404:35424  pool.lastRewardBlock */\n      0x20\n      add\n      mload\n        /* \"contracts/sMasterChef.sol\":35387:35399  block.number */\n      number\n        /* \"contracts/sMasterChef.sol\":35387:35403  block.number.sub */\n      tag_257\n      swap1\n        /* \"contracts/sMasterChef.sol\":35387:35425  block.number.sub(pool.lastRewardBlock) */\n      swap2\n      swap1\n      0xffffffff\n      and\n      jump\t// in\n    tag_505:\n        /* \"contracts/sMasterChef.sol\":35366:35425  uint256 multiplier = block.number.sub(pool.lastRewardBlock) */\n      swap1\n      pop\n        /* \"contracts/sMasterChef.sol\":35442:35460  uint256 shdwReward */\n      0x00\n        /* \"contracts/sMasterChef.sol\":35463:35632  multiplier.mul(shdwPerBlock(pool.isRegular)).mul(pool.allocPoint).div(\r... */\n      tag_506\n        /* \"contracts/sMasterChef.sol\":35552:35556  pool */\n      dup7\n        /* \"contracts/sMasterChef.sol\":35552:35566  pool.isRegular */\n      0x80\n      add\n      mload\n        /* \"contracts/sMasterChef.sol\":35552:35616  pool.isRegular ? totalRegularAllocPoint : totalSpecialAllocPoint */\n      tag_507\n      jumpi\n        /* \"contracts/sMasterChef.sol\":35594:35616  totalSpecialAllocPoint */\n      sload(0x09)\n        /* \"contracts/sMasterChef.sol\":35552:35616  pool.isRegular ? totalRegularAllocPoint : totalSpecialAllocPoint */\n      jump(tag_508)\n    tag_507:\n        /* \"contracts/sMasterChef.sol\":35569:35591  totalRegularAllocPoint */\n      sload(0x08)\n        /* \"contracts/sMasterChef.sol\":35552:35616  pool.isRegular ? totalRegularAllocPoint : totalSpecialAllocPoint */\n    tag_508:\n        /* \"contracts/sMasterChef.sol\":35463:35528  multiplier.mul(shdwPerBlock(pool.isRegular)).mul(pool.allocPoint) */\n      tag_248\n        /* \"contracts/sMasterChef.sol\":35512:35516  pool */\n      dup9\n        /* \"contracts/sMasterChef.sol\":35512:35527  pool.allocPoint */\n      0x40\n      add\n      mload\n        /* \"contracts/sMasterChef.sol\":35463:35507  multiplier.mul(shdwPerBlock(pool.isRegular)) */\n      tag_247\n        /* \"contracts/sMasterChef.sol\":35478:35506  shdwPerBlock(pool.isRegular) */\n      tag_370\n        /* \"contracts/sMasterChef.sol\":35491:35495  pool */\n      dup12\n        /* \"contracts/sMasterChef.sol\":35491:35505  pool.isRegular */\n      0x80\n      add\n      mload\n        /* \"contracts/sMasterChef.sol\":35478:35490  shdwPerBlock */\n      tag_207\n        /* \"contracts/sMasterChef.sol\":35478:35506  shdwPerBlock(pool.isRegular) */\n      jump\t// in\n        /* \"contracts/sMasterChef.sol\":35463:35632  multiplier.mul(shdwPerBlock(pool.isRegular)).mul(pool.allocPoint).div(\r... */\n    tag_506:\n        /* \"contracts/sMasterChef.sol\":35442:35632  uint256 shdwReward = multiplier.mul(shdwPerBlock(pool.isRegular)).mul(pool.allocPoint).div(\r... */\n      swap1\n      pop\n        /* \"contracts/sMasterChef.sol\":35665:35734  accShdwPerShare.add(shdwReward.mul(ACC_SHDW_PRECISION).div(lpSupply)) */\n      tag_512\n        /* \"contracts/sMasterChef.sol\":35685:35733  shdwReward.mul(ACC_SHDW_PRECISION).div(lpSupply) */\n      tag_513\n        /* \"contracts/sMasterChef.sol\":35724:35732  lpSupply */\n      dup5\n        /* \"contracts/sMasterChef.sol\":35685:35719  shdwReward.mul(ACC_SHDW_PRECISION) */\n      tag_248\n        /* \"contracts/sMasterChef.sol\":35442:35632  uint256 shdwReward = multiplier.mul(shdwPerBlock(pool.isRegular)).mul(pool.allocPoint).div(\r... */\n      dup5\n        /* \"contracts/sMasterChef.sol\":28501:28505  1e18 */\n      0x0de0b6b3a7640000\n        /* \"contracts/sMasterChef.sol\":35685:35699  shdwReward.mul */\n      tag_249\n        /* \"contracts/sMasterChef.sol\":35685:35719  shdwReward.mul(ACC_SHDW_PRECISION) */\n      jump\t// in\n        /* \"contracts/sMasterChef.sol\":35685:35733  shdwReward.mul(ACC_SHDW_PRECISION).div(lpSupply) */\n    tag_513:\n        /* \"contracts/sMasterChef.sol\":35665:35680  accShdwPerShare */\n      dup6\n      swap1\n        /* \"contracts/sMasterChef.sol\":35665:35684  accShdwPerShare.add */\n      tag_258\n        /* \"contracts/sMasterChef.sol\":35665:35734  accShdwPerShare.add(shdwReward.mul(ACC_SHDW_PRECISION).div(lpSupply)) */\n      jump\t// in\n    tag_512:\n        /* \"contracts/sMasterChef.sol\":35647:35734  accShdwPerShare = accShdwPerShare.add(shdwReward.mul(ACC_SHDW_PRECISION).div(lpSupply)) */\n      swap4\n      pop\n        /* \"contracts/sMasterChef.sol\":35293:35746  if (block.number > pool.lastRewardBlock && lpSupply != 0) {\r... */\n      pop\n      pop\n    tag_504:\n        /* \"contracts/sMasterChef.sol\":35758:35779  uint256 boostedAmount */\n      0x00\n        /* \"contracts/sMasterChef.sol\":35782:35851  user.amount.mul(getBoostMultiplier(_user, _pid)).div(BOOST_PRECISION) */\n      tag_515\n        /* \"contracts/sMasterChef.sol\":28626:28636  100 * 1e10 */\n      0xe8d4a51000\n        /* \"contracts/sMasterChef.sol\":35782:35830  user.amount.mul(getBoostMultiplier(_user, _pid)) */\n      tag_248\n        /* \"contracts/sMasterChef.sol\":35798:35829  getBoostMultiplier(_user, _pid) */\n      tag_517\n        /* \"contracts/sMasterChef.sol\":35817:35822  _user */\n      dup11\n        /* \"contracts/sMasterChef.sol\":35824:35828  _pid */\n      dup13\n        /* \"contracts/sMasterChef.sol\":35798:35816  getBoostMultiplier */\n      tag_64\n        /* \"contracts/sMasterChef.sol\":35798:35829  getBoostMultiplier(_user, _pid) */\n      jump\t// in\n    tag_517:\n        /* \"contracts/sMasterChef.sol\":35782:35793  user.amount */\n      dup8\n      mload\n      swap1\n        /* \"contracts/sMasterChef.sol\":35782:35797  user.amount.mul */\n      tag_249\n        /* \"contracts/sMasterChef.sol\":35782:35830  user.amount.mul(getBoostMultiplier(_user, _pid)) */\n      jump\t// in\n        /* \"contracts/sMasterChef.sol\":35782:35851  user.amount.mul(getBoostMultiplier(_user, _pid)).div(BOOST_PRECISION) */\n    tag_515:\n        /* \"contracts/sMasterChef.sol\":35932:35947  user.rewardDebt */\n      0x20\n      dup6\n      add\n      mload\n        /* \"contracts/sMasterChef.sol\":35758:35851  uint256 boostedAmount = user.amount.mul(getBoostMultiplier(_user, _pid)).div(BOOST_PRECISION) */\n      swap1\n      swap2\n      pop\n        /* \"contracts/sMasterChef.sol\":35869:35948  boostedAmount.mul(accShdwPerShare).div(ACC_SHDW_PRECISION).sub(user.rewardDebt) */\n      tag_518\n      swap1\n        /* \"contracts/sMasterChef.sol\":35869:35927  boostedAmount.mul(accShdwPerShare).div(ACC_SHDW_PRECISION) */\n      tag_519\n        /* \"contracts/sMasterChef.sol\":28501:28505  1e18 */\n      0x0de0b6b3a7640000\n        /* \"contracts/sMasterChef.sol\":35869:35903  boostedAmount.mul(accShdwPerShare) */\n      tag_248\n        /* \"contracts/sMasterChef.sol\":35758:35851  uint256 boostedAmount = user.amount.mul(getBoostMultiplier(_user, _pid)).div(BOOST_PRECISION) */\n      dup6\n        /* \"contracts/sMasterChef.sol\":35887:35902  accShdwPerShare */\n      dup9\n        /* \"contracts/sMasterChef.sol\":35869:35886  boostedAmount.mul */\n      tag_249\n        /* \"contracts/sMasterChef.sol\":35869:35903  boostedAmount.mul(accShdwPerShare) */\n      jump\t// in\n        /* \"contracts/sMasterChef.sol\":35869:35927  boostedAmount.mul(accShdwPerShare).div(ACC_SHDW_PRECISION) */\n    tag_519:\n        /* \"contracts/sMasterChef.sol\":35869:35931  boostedAmount.mul(accShdwPerShare).div(ACC_SHDW_PRECISION).sub */\n      swap1\n      tag_257\n        /* \"contracts/sMasterChef.sol\":35869:35948  boostedAmount.mul(accShdwPerShare).div(ACC_SHDW_PRECISION).sub(user.rewardDebt) */\n      jump\t// in\n    tag_518:\n        /* \"contracts/sMasterChef.sol\":35862:35948  return boostedAmount.mul(accShdwPerShare).div(ACC_SHDW_PRECISION).sub(user.rewardDebt) */\n      swap9\n        /* \"contracts/sMasterChef.sol\":34986:35956  function pendingShdw(uint256 _pid, address _user) external view returns (uint256) {\r... */\n      swap8\n      pop\n      pop\n      pop\n      pop\n      pop\n      pop\n      pop\n      pop\n      jump\t// out\n        /* \"contracts/sMasterChef.sol\":28584:28636  uint256 public constant BOOST_PRECISION = 100 * 1e10 */\n    tag_191:\n        /* \"contracts/sMasterChef.sol\":28626:28636  100 * 1e10 */\n      0xe8d4a51000\n        /* \"contracts/sMasterChef.sol\":28584:28636  uint256 public constant BOOST_PRECISION = 100 * 1e10 */\n      dup2\n      jump\t// out\n        /* \"contracts/sMasterChef.sol\":27486:27514  address public boostContract */\n    tag_197:\n      and(0xffffffffffffffffffffffffffffffffffffffff, sload(0x03))\n      dup2\n      jump\t// out\n        /* \"contracts/sMasterChef.sol\":38405:39653  function deposit(uint256 _pid, uint256 _amount) external nonReentrant {\r... */\n    tag_201:\n        /* \"contracts/sMasterChef.sol\":10252:10253  2 */\n      0x02\n        /* \"contracts/sMasterChef.sol\":10858:10865  _status */\n      sload(0x01)\n        /* \"contracts/sMasterChef.sol\":10858:10877  _status != _ENTERED */\n      eq\n      iszero\n        /* \"contracts/sMasterChef.sol\":10850:10913  require(_status != _ENTERED, \"ReentrancyGuard: reentrant call\") */\n      tag_522\n      jumpi\n      mload(0x40)\n      0x08c379a000000000000000000000000000000000000000000000000000000000\n      dup2\n      mstore\n      0x04\n      add\n      tag_220\n      swap1\n      tag_225\n      jump\t// in\n    tag_522:\n        /* \"contracts/sMasterChef.sol\":10252:10253  2 */\n      0x02\n        /* \"contracts/sMasterChef.sol\":10991:10998  _status */\n      0x01\n        /* \"contracts/sMasterChef.sol\":10991:11009  _status = _ENTERED */\n      sstore\n        /* \"contracts/sMasterChef.sol\":38486:38506  PoolInfo memory pool */\n      tag_525\n      tag_240\n      jump\t// in\n    tag_525:\n        /* \"contracts/sMasterChef.sol\":38509:38525  updatePool(_pid) */\n      tag_526\n        /* \"contracts/sMasterChef.sol\":38520:38524  _pid */\n      dup4\n        /* \"contracts/sMasterChef.sol\":38509:38519  updatePool */\n      tag_115\n        /* \"contracts/sMasterChef.sol\":38509:38525  updatePool(_pid) */\n      jump\t// in\n    tag_526:\n        /* \"contracts/sMasterChef.sol\":38536:38557  UserInfo storage user */\n      0x00\n        /* \"contracts/sMasterChef.sol\":38560:38574  userInfo[_pid] */\n      dup5\n      dup2\n      mstore\n        /* \"contracts/sMasterChef.sol\":38560:38568  userInfo */\n      0x06\n        /* \"contracts/sMasterChef.sol\":38560:38574  userInfo[_pid] */\n      0x20\n      swap1\n      dup2\n      mstore\n      0x40\n      dup1\n      dup4\n      keccak256\n        /* \"contracts/sMasterChef.sol\":38575:38585  msg.sender */\n      caller\n        /* \"contracts/sMasterChef.sol\":38560:38586  userInfo[_pid][msg.sender] */\n      dup5\n      mstore\n      swap1\n      swap2\n      mstore\n      swap1\n      keccak256\n        /* \"contracts/sMasterChef.sol\":38621:38635  pool.isRegular */\n      0x80\n      dup3\n      add\n      mload\n        /* \"contracts/sMasterChef.sol\":38486:38525  PoolInfo memory pool = updatePool(_pid) */\n      swap2\n      swap3\n      pop\n        /* \"contracts/sMasterChef.sol\":38560:38586  userInfo[_pid][msg.sender] */\n      swap1\n        /* \"contracts/sMasterChef.sol\":38621:38635  pool.isRegular */\n      dup1\n        /* \"contracts/sMasterChef.sol\":38621:38660  pool.isRegular || whiteList[msg.sender] */\n      tag_527\n      jumpi\n      pop\n        /* \"contracts/sMasterChef.sol\":38649:38659  msg.sender */\n      caller\n        /* \"contracts/sMasterChef.sol\":38639:38660  whiteList[msg.sender] */\n      0x00\n      swap1\n      dup2\n      mstore\n        /* \"contracts/sMasterChef.sol\":38639:38648  whiteList */\n      0x07\n        /* \"contracts/sMasterChef.sol\":38639:38660  whiteList[msg.sender] */\n      0x20\n      mstore\n      0x40\n      swap1\n      keccak256\n      sload\n      0xff\n      and\n        /* \"contracts/sMasterChef.sol\":38621:38660  pool.isRegular || whiteList[msg.sender] */\n    tag_527:\n        /* \"contracts/sMasterChef.sol\":38599:38753  require(\r... */\n      tag_528\n      jumpi\n      mload(0x40)\n      0x08c379a000000000000000000000000000000000000000000000000000000000\n      dup2\n      mstore\n      0x04\n      add\n      tag_220\n      swap1\n      tag_530\n      jump\t// in\n    tag_528:\n        /* \"contracts/sMasterChef.sol\":38766:38784  uint256 multiplier */\n      0x00\n        /* \"contracts/sMasterChef.sol\":38787:38823  getBoostMultiplier(msg.sender, _pid) */\n      tag_531\n        /* \"contracts/sMasterChef.sol\":38806:38816  msg.sender */\n      caller\n        /* \"contracts/sMasterChef.sol\":38818:38822  _pid */\n      dup7\n        /* \"contracts/sMasterChef.sol\":38787:38805  getBoostMultiplier */\n      tag_64\n        /* \"contracts/sMasterChef.sol\":38787:38823  getBoostMultiplier(msg.sender, _pid) */\n      jump\t// in\n    tag_531:\n        /* \"contracts/sMasterChef.sol\":38840:38851  user.amount */\n      dup3\n      sload\n        /* \"contracts/sMasterChef.sol\":38766:38823  uint256 multiplier = getBoostMultiplier(msg.sender, _pid) */\n      swap1\n      swap2\n      pop\n        /* \"contracts/sMasterChef.sol\":38840:38855  user.amount > 0 */\n      iszero\n        /* \"contracts/sMasterChef.sol\":38836:38931  if (user.amount > 0) {\r... */\n      tag_533\n      jumpi\n        /* \"contracts/sMasterChef.sol\":38872:38919  settlePendingShdw(msg.sender, _pid, multiplier) */\n      tag_533\n        /* \"contracts/sMasterChef.sol\":38890:38900  msg.sender */\n      caller\n        /* \"contracts/sMasterChef.sol\":38902:38906  _pid */\n      dup7\n        /* \"contracts/sMasterChef.sol\":38908:38918  multiplier */\n      dup4\n        /* \"contracts/sMasterChef.sol\":38872:38889  settlePendingShdw */\n      tag_244\n        /* \"contracts/sMasterChef.sol\":38872:38919  settlePendingShdw(msg.sender, _pid, multiplier) */\n      jump\t// in\n    tag_533:\n        /* \"contracts/sMasterChef.sol\":38947:38958  _amount > 0 */\n      dup4\n      iszero\n        /* \"contracts/sMasterChef.sol\":38943:39409  if (_amount > 0) {\r... */\n      tag_534\n      jumpi\n        /* \"contracts/sMasterChef.sol\":38975:38989  uint256 before */\n      0x00\n        /* \"contracts/sMasterChef.sol\":38992:38999  lpToken */\n      0x05\n        /* \"contracts/sMasterChef.sol\":39000:39004  _pid */\n      dup7\n        /* \"contracts/sMasterChef.sol\":38992:39005  lpToken[_pid] */\n      dup2\n      sload\n      dup2\n      lt\n      tag_535\n      jumpi\n      invalid\n    tag_535:\n      0x00\n      swap2\n      dup3\n      mstore\n      0x20\n      swap1\n      swap2\n      keccak256\n      add\n      sload\n        /* \"contracts/sMasterChef.sol\":38992:39030  lpToken[_pid].balanceOf(address(this)) */\n      mload(0x40)\n      0x70a0823100000000000000000000000000000000000000000000000000000000\n      dup2\n      mstore\n        /* \"contracts/sMasterChef.sol\":38992:39005  lpToken[_pid] */\n      0xffffffffffffffffffffffffffffffffffffffff\n      swap1\n      swap2\n      and\n      swap1\n        /* \"contracts/sMasterChef.sol\":38992:39015  lpToken[_pid].balanceOf */\n      0x70a08231\n      swap1\n        /* \"contracts/sMasterChef.sol\":38992:39030  lpToken[_pid].balanceOf(address(this)) */\n      tag_537\n      swap1\n        /* \"contracts/sMasterChef.sol\":39024:39028  this */\n      address\n      swap1\n        /* \"contracts/sMasterChef.sol\":38992:39030  lpToken[_pid].balanceOf(address(this)) */\n      0x04\n      add\n      tag_155\n      jump\t// in\n    tag_537:\n      0x20\n      mload(0x40)\n      dup1\n      dup4\n      sub\n      dup2\n      dup7\n      dup1\n      extcodesize\n      iszero\n      dup1\n      iszero\n      tag_538\n      jumpi\n      0x00\n      dup1\n      revert\n    tag_538:\n      pop\n      gas\n      staticcall\n      iszero\n      dup1\n      iszero\n      tag_540\n      jumpi\n      returndatasize\n      0x00\n      dup1\n      returndatacopy\n      revert(0x00, returndatasize)\n    tag_540:\n      pop\n      pop\n      pop\n      pop\n      mload(0x40)\n      returndatasize\n      not(0x1f)\n      0x1f\n      dup3\n      add\n      and\n      dup3\n      add\n      dup1\n      0x40\n      mstore\n      pop\n      dup2\n      add\n      swap1\n      tag_541\n      swap2\n      swap1\n      tag_289\n      jump\t// in\n    tag_541:\n        /* \"contracts/sMasterChef.sol\":38975:39030  uint256 before = lpToken[_pid].balanceOf(address(this)) */\n      swap1\n      pop\n        /* \"contracts/sMasterChef.sol\":39045:39111  lpToken[_pid].safeTransferFrom(msg.sender, address(this), _amount) */\n      tag_542\n        /* \"contracts/sMasterChef.sol\":39076:39086  msg.sender */\n      caller\n        /* \"contracts/sMasterChef.sol\":39096:39100  this */\n      address\n        /* \"contracts/sMasterChef.sol\":39103:39110  _amount */\n      dup8\n        /* \"contracts/sMasterChef.sol\":39045:39052  lpToken */\n      0x05\n        /* \"contracts/sMasterChef.sol\":39053:39057  _pid */\n      dup11\n        /* \"contracts/sMasterChef.sol\":39045:39058  lpToken[_pid] */\n      dup2\n      sload\n      dup2\n      lt\n      tag_543\n      jumpi\n      invalid\n    tag_543:\n      0x00\n      swap2\n      dup3\n      mstore\n      0x20\n      swap1\n      swap2\n      keccak256\n      add\n      sload\n      0xffffffffffffffffffffffffffffffffffffffff\n      and\n      swap3\n        /* \"contracts/sMasterChef.sol\":39045:39111  lpToken[_pid].safeTransferFrom(msg.sender, address(this), _amount) */\n      swap2\n      swap1\n        /* \"contracts/sMasterChef.sol\":39045:39075  lpToken[_pid].safeTransferFrom */\n      tag_294\n        /* \"contracts/sMasterChef.sol\":39045:39111  lpToken[_pid].safeTransferFrom(msg.sender, address(this), _amount) */\n      jump\t// in\n    tag_542:\n        /* \"contracts/sMasterChef.sol\":39136:39186  lpToken[_pid].balanceOf(address(this)).sub(before) */\n      tag_545\n        /* \"contracts/sMasterChef.sol\":39179:39185  before */\n      dup2\n        /* \"contracts/sMasterChef.sol\":39136:39143  lpToken */\n      0x05\n        /* \"contracts/sMasterChef.sol\":39144:39148  _pid */\n      dup9\n        /* \"contracts/sMasterChef.sol\":39136:39149  lpToken[_pid] */\n      dup2\n      sload\n      dup2\n      lt\n      tag_546\n      jumpi\n      invalid\n    tag_546:\n      0x00\n      swap2\n      dup3\n      mstore\n      0x20\n      swap1\n      swap2\n      keccak256\n      add\n      sload\n        /* \"contracts/sMasterChef.sol\":39136:39174  lpToken[_pid].balanceOf(address(this)) */\n      mload(0x40)\n      0x70a0823100000000000000000000000000000000000000000000000000000000\n      dup2\n      mstore\n        /* \"contracts/sMasterChef.sol\":39136:39149  lpToken[_pid] */\n      0xffffffffffffffffffffffffffffffffffffffff\n      swap1\n      swap2\n      and\n      swap1\n        /* \"contracts/sMasterChef.sol\":39136:39159  lpToken[_pid].balanceOf */\n      0x70a08231\n      swap1\n        /* \"contracts/sMasterChef.sol\":39136:39174  lpToken[_pid].balanceOf(address(this)) */\n      tag_548\n      swap1\n        /* \"contracts/sMasterChef.sol\":39168:39172  this */\n      address\n      swap1\n        /* \"contracts/sMasterChef.sol\":39136:39174  lpToken[_pid].balanceOf(address(this)) */\n      0x04\n      add\n      tag_155\n      jump\t// in\n    tag_548:\n      0x20\n      mload(0x40)\n      dup1\n      dup4\n      sub\n      dup2\n      dup7\n      dup1\n      extcodesize\n      iszero\n      dup1\n      iszero\n      tag_549\n      jumpi\n      0x00\n      dup1\n      revert\n    tag_549:\n      pop\n      gas\n      staticcall\n      iszero\n      dup1\n      iszero\n      tag_551\n      jumpi\n      returndatasize\n      0x00\n      dup1\n      returndatacopy\n      revert(0x00, returndatasize)\n    tag_551:\n      pop\n      pop\n      pop\n      pop\n      mload(0x40)\n      returndatasize\n      not(0x1f)\n      0x1f\n      dup3\n      add\n      and\n      dup3\n      add\n      dup1\n      0x40\n      mstore\n      pop\n      dup2\n      add\n      swap1\n      tag_519\n      swap2\n      swap1\n      tag_289\n      jump\t// in\n        /* \"contracts/sMasterChef.sol\":39136:39186  lpToken[_pid].balanceOf(address(this)).sub(before) */\n    tag_545:\n        /* \"contracts/sMasterChef.sol\":39215:39226  user.amount */\n      dup4\n      sload\n        /* \"contracts/sMasterChef.sol\":39126:39186  _amount = lpToken[_pid].balanceOf(address(this)).sub(before) */\n      swap1\n      swap6\n      pop\n        /* \"contracts/sMasterChef.sol\":39215:39239  user.amount.add(_amount) */\n      tag_553\n      swap1\n        /* \"contracts/sMasterChef.sol\":39126:39186  _amount = lpToken[_pid].balanceOf(address(this)).sub(before) */\n      dup7\n        /* \"contracts/sMasterChef.sol\":39215:39230  user.amount.add */\n      tag_258\n        /* \"contracts/sMasterChef.sol\":39215:39239  user.amount.add(_amount) */\n      jump\t// in\n    tag_553:\n        /* \"contracts/sMasterChef.sol\":39201:39239  user.amount = user.amount.add(_amount) */\n      dup4\n      sstore\n        /* \"contracts/sMasterChef.sol\":39325:39397  pool.totalBoostedShare.add(_amount.mul(multiplier).div(BOOST_PRECISION)) */\n      tag_554\n        /* \"contracts/sMasterChef.sol\":39352:39396  _amount.mul(multiplier).div(BOOST_PRECISION) */\n      tag_555\n        /* \"contracts/sMasterChef.sol\":28626:28636  100 * 1e10 */\n      0xe8d4a51000\n        /* \"contracts/sMasterChef.sol\":39352:39375  _amount.mul(multiplier) */\n      tag_248\n        /* \"contracts/sMasterChef.sol\":39352:39359  _amount */\n      dup9\n        /* \"contracts/sMasterChef.sol\":39364:39374  multiplier */\n      dup7\n        /* \"contracts/sMasterChef.sol\":39352:39363  _amount.mul */\n      tag_249\n        /* \"contracts/sMasterChef.sol\":39352:39375  _amount.mul(multiplier) */\n      jump\t// in\n        /* \"contracts/sMasterChef.sol\":39352:39396  _amount.mul(multiplier).div(BOOST_PRECISION) */\n    tag_555:\n        /* \"contracts/sMasterChef.sol\":39325:39347  pool.totalBoostedShare */\n      0x60\n      dup7\n      add\n      mload\n      swap1\n        /* \"contracts/sMasterChef.sol\":39325:39351  pool.totalBoostedShare.add */\n      tag_258\n        /* \"contracts/sMasterChef.sol\":39325:39397  pool.totalBoostedShare.add(_amount.mul(multiplier).div(BOOST_PRECISION)) */\n      jump\t// in\n    tag_554:\n        /* \"contracts/sMasterChef.sol\":39300:39322  pool.totalBoostedShare */\n      0x60\n      dup6\n      add\n        /* \"contracts/sMasterChef.sol\":39300:39397  pool.totalBoostedShare = pool.totalBoostedShare.add(_amount.mul(multiplier).div(BOOST_PRECISION)) */\n      mstore\n      pop\n        /* \"contracts/sMasterChef.sol\":38943:39409  if (_amount > 0) {\r... */\n    tag_534:\n        /* \"contracts/sMasterChef.sol\":39439:39561  user.amount.mul(multiplier).div(BOOST_PRECISION).mul(pool.accShdwPerShare).div(\r... */\n      tag_557\n        /* \"contracts/sMasterChef.sol\":28501:28505  1e18 */\n      0x0de0b6b3a7640000\n        /* \"contracts/sMasterChef.sol\":39439:39513  user.amount.mul(multiplier).div(BOOST_PRECISION).mul(pool.accShdwPerShare) */\n      tag_248\n        /* \"contracts/sMasterChef.sol\":39492:39496  pool */\n      dup6\n        /* \"contracts/sMasterChef.sol\":39492:39512  pool.accShdwPerShare */\n      0x00\n      add\n      mload\n        /* \"contracts/sMasterChef.sol\":39439:39487  user.amount.mul(multiplier).div(BOOST_PRECISION) */\n      tag_247\n        /* \"contracts/sMasterChef.sol\":28626:28636  100 * 1e10 */\n      0xe8d4a51000\n        /* \"contracts/sMasterChef.sol\":39439:39466  user.amount.mul(multiplier) */\n      tag_248\n        /* \"contracts/sMasterChef.sol\":39455:39465  multiplier */\n      dup8\n        /* \"contracts/sMasterChef.sol\":39439:39443  user */\n      dup10\n        /* \"contracts/sMasterChef.sol\":39439:39450  user.amount */\n      0x00\n      add\n      sload\n        /* \"contracts/sMasterChef.sol\":39439:39454  user.amount.mul */\n      tag_249\n      swap1\n        /* \"contracts/sMasterChef.sol\":39439:39466  user.amount.mul(multiplier) */\n      swap2\n      swap1\n      0xffffffff\n      and\n      jump\t// in\n        /* \"contracts/sMasterChef.sol\":39439:39561  user.amount.mul(multiplier).div(BOOST_PRECISION).mul(pool.accShdwPerShare).div(\r... */\n    tag_557:\n        /* \"contracts/sMasterChef.sol\":39421:39425  user */\n      dup3\n        /* \"contracts/sMasterChef.sol\":39421:39436  user.rewardDebt */\n      0x01\n      add\n        /* \"contracts/sMasterChef.sol\":39421:39561  user.rewardDebt = user.amount.mul(multiplier).div(BOOST_PRECISION).mul(pool.accShdwPerShare).div(\r... */\n      dup2\n      swap1\n      sstore\n      pop\n        /* \"contracts/sMasterChef.sol\":39589:39593  pool */\n      dup3\n        /* \"contracts/sMasterChef.sol\":39572:39580  poolInfo */\n      0x04\n        /* \"contracts/sMasterChef.sol\":39581:39585  _pid */\n      dup7\n        /* \"contracts/sMasterChef.sol\":39572:39586  poolInfo[_pid] */\n      dup2\n      sload\n      dup2\n      lt\n      tag_561\n      jumpi\n      invalid\n    tag_561:\n      0x00\n      swap2\n      dup3\n      mstore\n      0x20\n      swap2\n      dup3\n      swap1\n      keccak256\n        /* \"contracts/sMasterChef.sol\":39572:39593  poolInfo[_pid] = pool */\n      dup4\n      mload\n        /* \"contracts/sMasterChef.sol\":39572:39586  poolInfo[_pid] */\n      0x05\n      swap3\n      swap1\n      swap3\n      mul\n      add\n        /* \"contracts/sMasterChef.sol\":39572:39593  poolInfo[_pid] = pool */\n      swap1\n      dup2\n      sstore\n      swap1\n      dup3\n      add\n      mload\n      0x01\n      dup3\n      add\n      sstore\n      0x40\n      dup1\n      dup4\n      add\n      mload\n      0x02\n      dup4\n      add\n      sstore\n      0x60\n      dup4\n      add\n      mload\n      0x03\n      dup4\n      add\n      sstore\n      0x80\n      swap1\n      swap3\n      add\n      mload\n      0x04\n      swap1\n      swap2\n      add\n      dup1\n      sload\n      0xffffffffffffffffffffffffffffffffffffffffffffffffffffffffffffff00\n      and\n      swap2\n      iszero\n      iszero\n      swap2\n      swap1\n      swap2\n      or\n      swap1\n      sstore\n        /* \"contracts/sMasterChef.sol\":39611:39645  Deposit(msg.sender, _pid, _amount) */\n      mload\n        /* \"contracts/sMasterChef.sol\":39631:39635  _pid */\n      dup6\n      swap1\n        /* \"contracts/sMasterChef.sol\":39619:39629  msg.sender */\n      caller\n      swap1\n        /* \"contracts/sMasterChef.sol\":39611:39645  Deposit(msg.sender, _pid, _amount) */\n      0x90890809c654f11d6e72a28fa60149770a0d11ec6c92319d6ceb2bb0a4ea1a15\n      swap1\n      tag_350\n      swap1\n        /* \"contracts/sMasterChef.sol\":39637:39644  _amount */\n      dup9\n      swap1\n        /* \"contracts/sMasterChef.sol\":39611:39645  Deposit(msg.sender, _pid, _amount) */\n      tag_66\n      jump\t// in\n        /* \"contracts/sMasterChef.sol\":3001:3245  function transferOwnership(address newOwner) public virtual onlyOwner {\r... */\n    tag_204:\n        /* \"contracts/sMasterChef.sol\":2278:2290  _msgSender() */\n      tag_565\n        /* \"contracts/sMasterChef.sol\":2278:2288  _msgSender */\n      tag_265\n        /* \"contracts/sMasterChef.sol\":2278:2290  _msgSender() */\n      jump\t// in\n    tag_565:\n        /* \"contracts/sMasterChef.sol\":2268:2274  _owner */\n      sload(0x00)\n        /* \"contracts/sMasterChef.sol\":2268:2290  _owner == _msgSender() */\n      0xffffffffffffffffffffffffffffffffffffffff\n        /* \"contracts/sMasterChef.sol\":2268:2274  _owner */\n      swap1\n      dup2\n      and\n        /* \"contracts/sMasterChef.sol\":2268:2290  _owner == _msgSender() */\n      swap2\n      and\n      eq\n        /* \"contracts/sMasterChef.sol\":2260:2327  require(_owner == _msgSender(), \"Ownable: caller is not the owner\") */\n      tag_566\n      jumpi\n      mload(0x40)\n      0x08c379a000000000000000000000000000000000000000000000000000000000\n      dup2\n      mstore\n      0x04\n      add\n      tag_220\n      swap1\n      tag_268\n      jump\t// in\n    tag_566:\n        /* \"contracts/sMasterChef.sol\":3090:3112  newOwner != address(0) */\n      0xffffffffffffffffffffffffffffffffffffffff\n      dup2\n      and\n        /* \"contracts/sMasterChef.sol\":3082:3155  require(newOwner != address(0), \"Ownable: new owner is the zero address\") */\n      tag_569\n      jumpi\n      mload(0x40)\n      0x08c379a000000000000000000000000000000000000000000000000000000000\n      dup2\n      mstore\n      0x04\n      add\n      tag_220\n      swap1\n      tag_571\n      jump\t// in\n    tag_569:\n        /* \"contracts/sMasterChef.sol\":3192:3198  _owner */\n      0x00\n      dup1\n      sload\n        /* \"contracts/sMasterChef.sol\":3171:3209  OwnershipTransferred(_owner, newOwner) */\n      mload(0x40)\n      0xffffffffffffffffffffffffffffffffffffffff\n      dup1\n      dup6\n      and\n      swap4\n        /* \"contracts/sMasterChef.sol\":3192:3198  _owner */\n      swap3\n      and\n      swap2\n        /* \"contracts/sMasterChef.sol\":3171:3209  OwnershipTransferred(_owner, newOwner) */\n      0x8be0079c531659141344cd1fd0a4f28419497f9722a3daafe3b4186f6b6457e0\n      swap2\n      log3\n        /* \"contracts/sMasterChef.sol\":3220:3226  _owner */\n      0x00\n        /* \"contracts/sMasterChef.sol\":3220:3237  _owner = newOwner */\n      dup1\n      sload\n      0xffffffffffffffffffffffff0000000000000000000000000000000000000000\n      and\n      0xffffffffffffffffffffffffffffffffffffffff\n      swap3\n      swap1\n      swap3\n      and\n      swap2\n      swap1\n      swap2\n      or\n      swap1\n      sstore\n        /* \"contracts/sMasterChef.sol\":3001:3245  function transferOwnership(address newOwner) public virtual onlyOwner {\r... */\n      jump\t// out\n        /* \"contracts/sMasterChef.sol\":36495:36849  function shdwPerBlock(bool _isRegular) public view returns (uint256 amount) {\r... */\n    tag_207:\n        /* \"contracts/sMasterChef.sol\":36555:36569  uint256 amount */\n      0x00\n        /* \"contracts/sMasterChef.sol\":36586:36596  _isRegular */\n      dup2\n        /* \"contracts/sMasterChef.sol\":36582:36842  if (_isRegular) {\r... */\n      iszero\n      tag_573\n      jumpi\n        /* \"contracts/sMasterChef.sol\":36622:36705  MASTERCHEF_SHDW_PER_BLOCK.mul(shdwRateToRegularFarm).div(SHDW_RATE_TOTAL_PRECISION) */\n      tag_574\n        /* \"contracts/sMasterChef.sol\":28915:28919  1e12 */\n      0xe8d4a51000\n        /* \"contracts/sMasterChef.sol\":36622:36674  MASTERCHEF_SHDW_PER_BLOCK.mul(shdwRateToRegularFarm) */\n      tag_248\n        /* \"contracts/sMasterChef.sol\":36652:36673  shdwRateToRegularFarm */\n      sload(0x0b)\n        /* \"contracts/sMasterChef.sol\":28440:28449  40 * 1e18 */\n      0x022b1c8c1227a00000\n        /* \"contracts/sMasterChef.sol\":36622:36651  MASTERCHEF_SHDW_PER_BLOCK.mul */\n      tag_249\n      swap1\n        /* \"contracts/sMasterChef.sol\":36622:36674  MASTERCHEF_SHDW_PER_BLOCK.mul(shdwRateToRegularFarm) */\n      swap2\n      swap1\n      0xffffffff\n      and\n      jump\t// in\n        /* \"contracts/sMasterChef.sol\":36622:36705  MASTERCHEF_SHDW_PER_BLOCK.mul(shdwRateToRegularFarm).div(SHDW_RATE_TOTAL_PRECISION) */\n    tag_574:\n        /* \"contracts/sMasterChef.sol\":36613:36705  amount = MASTERCHEF_SHDW_PER_BLOCK.mul(shdwRateToRegularFarm).div(SHDW_RATE_TOTAL_PRECISION) */\n      swap1\n      pop\n        /* \"contracts/sMasterChef.sol\":36582:36842  if (_isRegular) {\r... */\n      jump(tag_361)\n    tag_573:\n        /* \"contracts/sMasterChef.sol\":36747:36830  MASTERCHEF_SHDW_PER_BLOCK.mul(shdwRateToSpecialFarm).div(SHDW_RATE_TOTAL_PRECISION) */\n      tag_215\n        /* \"contracts/sMasterChef.sol\":28915:28919  1e12 */\n      0xe8d4a51000\n        /* \"contracts/sMasterChef.sol\":36747:36799  MASTERCHEF_SHDW_PER_BLOCK.mul(shdwRateToSpecialFarm) */\n      tag_248\n        /* \"contracts/sMasterChef.sol\":36777:36798  shdwRateToSpecialFarm */\n      sload(0x0c)\n        /* \"contracts/sMasterChef.sol\":28440:28449  40 * 1e18 */\n      0x022b1c8c1227a00000\n        /* \"contracts/sMasterChef.sol\":36747:36776  MASTERCHEF_SHDW_PER_BLOCK.mul */\n      tag_249\n      swap1\n        /* \"contracts/sMasterChef.sol\":36747:36799  MASTERCHEF_SHDW_PER_BLOCK.mul(shdwRateToSpecialFarm) */\n      swap2\n      swap1\n      0xffffffff\n      and\n      jump\t// in\n        /* \"contracts/sMasterChef.sol\":29153:29203  uint256 public shdwRateToRegularFarm = 62847222222 */\n    tag_210:\n      sload(0x0b)\n      dup2\n      jump\t// out\n        /* \"contracts/sMasterChef.sol\":28388:28449  uint256 public constant MASTERCHEF_SHDW_PER_BLOCK = 40 * 1e18 */\n    tag_213:\n        /* \"contracts/sMasterChef.sol\":28440:28449  40 * 1e18 */\n      0x022b1c8c1227a00000\n        /* \"contracts/sMasterChef.sol\":28388:28449  uint256 public constant MASTERCHEF_SHDW_PER_BLOCK = 40 * 1e18 */\n      dup2\n      jump\t// out\n        /* \"contracts/sMasterChef.sol\":47205:47713  function settlePendingShdw(\r... */\n    tag_244:\n        /* \"contracts/sMasterChef.sol\":47341:47361  UserInfo memory user */\n      tag_580\n      tag_502\n      jump\t// in\n    tag_580:\n      pop\n        /* \"contracts/sMasterChef.sol\":47364:47378  userInfo[_pid] */\n      0x00\n      dup3\n      dup2\n      mstore\n        /* \"contracts/sMasterChef.sol\":47364:47372  userInfo */\n      0x06\n        /* \"contracts/sMasterChef.sol\":47364:47378  userInfo[_pid] */\n      0x20\n      swap1\n      dup2\n      mstore\n      0x40\n      dup1\n      dup4\n      keccak256\n        /* \"contracts/sMasterChef.sol\":47364:47385  userInfo[_pid][_user] */\n      0xffffffffffffffffffffffffffffffffffffffff\n      dup8\n      and\n      dup5\n      mstore\n      dup3\n      mstore\n      dup1\n      dup4\n      keccak256\n        /* \"contracts/sMasterChef.sol\":47341:47385  UserInfo memory user = userInfo[_pid][_user] */\n      dup2\n      mload\n      0x60\n      dup2\n      add\n      dup4\n      mstore\n      dup2\n      sload\n      dup1\n      dup3\n      mstore\n      0x01\n      dup4\n      add\n      sload\n      swap5\n      dup3\n      add\n      swap5\n      swap1\n      swap5\n      mstore\n      0x02\n      swap1\n      swap2\n      add\n      sload\n      swap2\n      dup2\n      add\n      swap2\n      swap1\n      swap2\n      mstore\n      swap2\n        /* \"contracts/sMasterChef.sol\":47364:47378  userInfo[_pid] */\n      swap1\n        /* \"contracts/sMasterChef.sol\":47422:47476  user.amount.mul(_boostMultiplier).div(BOOST_PRECISION) */\n      tag_581\n      swap1\n        /* \"contracts/sMasterChef.sol\":28626:28636  100 * 1e10 */\n      0xe8d4a51000\n      swap1\n        /* \"contracts/sMasterChef.sol\":47422:47455  user.amount.mul(_boostMultiplier) */\n      tag_248\n      swap1\n        /* \"contracts/sMasterChef.sol\":47438:47454  _boostMultiplier */\n      dup7\n        /* \"contracts/sMasterChef.sol\":47422:47437  user.amount.mul */\n      tag_249\n        /* \"contracts/sMasterChef.sol\":47422:47455  user.amount.mul(_boostMultiplier) */\n      jump\t// in\n        /* \"contracts/sMasterChef.sol\":47422:47476  user.amount.mul(_boostMultiplier).div(BOOST_PRECISION) */\n    tag_581:\n        /* \"contracts/sMasterChef.sol\":47398:47476  uint256 boostedAmount = user.amount.mul(_boostMultiplier).div(BOOST_PRECISION) */\n      swap1\n      pop\n        /* \"contracts/sMasterChef.sol\":47487:47502  uint256 accShdw */\n      0x00\n        /* \"contracts/sMasterChef.sol\":47505:47578  boostedAmount.mul(poolInfo[_pid].accShdwPerShare).div(ACC_SHDW_PRECISION) */\n      tag_583\n        /* \"contracts/sMasterChef.sol\":28501:28505  1e18 */\n      0x0de0b6b3a7640000\n        /* \"contracts/sMasterChef.sol\":47505:47554  boostedAmount.mul(poolInfo[_pid].accShdwPerShare) */\n      tag_248\n        /* \"contracts/sMasterChef.sol\":47523:47531  poolInfo */\n      0x04\n        /* \"contracts/sMasterChef.sol\":47532:47536  _pid */\n      dup9\n        /* \"contracts/sMasterChef.sol\":47523:47537  poolInfo[_pid] */\n      dup2\n      sload\n      dup2\n      lt\n      tag_585\n      jumpi\n      invalid\n    tag_585:\n      0x00\n      swap2\n      dup3\n      mstore\n      0x20\n      swap1\n      swap2\n      keccak256\n      0x05\n      swap1\n      swap2\n      mul\n      add\n        /* \"contracts/sMasterChef.sol\":47523:47553  poolInfo[_pid].accShdwPerShare */\n      sload\n        /* \"contracts/sMasterChef.sol\":47505:47518  boostedAmount */\n      dup6\n      swap1\n        /* \"contracts/sMasterChef.sol\":47505:47522  boostedAmount.mul */\n      tag_249\n        /* \"contracts/sMasterChef.sol\":47505:47554  boostedAmount.mul(poolInfo[_pid].accShdwPerShare) */\n      jump\t// in\n        /* \"contracts/sMasterChef.sol\":47505:47578  boostedAmount.mul(poolInfo[_pid].accShdwPerShare).div(ACC_SHDW_PRECISION) */\n    tag_583:\n        /* \"contracts/sMasterChef.sol\":47487:47578  uint256 accShdw = boostedAmount.mul(poolInfo[_pid].accShdwPerShare).div(ACC_SHDW_PRECISION) */\n      swap1\n      pop\n        /* \"contracts/sMasterChef.sol\":47589:47604  uint256 pending */\n      0x00\n        /* \"contracts/sMasterChef.sol\":47607:47635  accShdw.sub(user.rewardDebt) */\n      tag_587\n        /* \"contracts/sMasterChef.sol\":47619:47623  user */\n      dup5\n        /* \"contracts/sMasterChef.sol\":47619:47634  user.rewardDebt */\n      0x20\n      add\n      mload\n        /* \"contracts/sMasterChef.sol\":47607:47614  accShdw */\n      dup4\n        /* \"contracts/sMasterChef.sol\":47607:47618  accShdw.sub */\n      tag_257\n      swap1\n        /* \"contracts/sMasterChef.sol\":47607:47635  accShdw.sub(user.rewardDebt) */\n      swap2\n      swap1\n      0xffffffff\n      and\n      jump\t// in\n    tag_587:\n        /* \"contracts/sMasterChef.sol\":47589:47635  uint256 pending = accShdw.sub(user.rewardDebt) */\n      swap1\n      pop\n        /* \"contracts/sMasterChef.sol\":47676:47705  _safeTransfer(_user, pending) */\n      tag_588\n        /* \"contracts/sMasterChef.sol\":47690:47695  _user */\n      dup8\n        /* \"contracts/sMasterChef.sol\":47697:47704  pending */\n      dup3\n        /* \"contracts/sMasterChef.sol\":47676:47689  _safeTransfer */\n      tag_321\n        /* \"contracts/sMasterChef.sol\":47676:47705  _safeTransfer(_user, pending) */\n      jump\t// in\n    tag_588:\n        /* \"contracts/sMasterChef.sol\":47205:47713  function settlePendingShdw(\r... */\n      pop\n      pop\n      pop\n      pop\n      pop\n      pop\n      pop\n      jump\t// out\n        /* \"contracts/sMasterChef.sol\":5475:5946  function mul(uint256 a, uint256 b) internal pure returns (uint256) {\r... */\n    tag_249:\n        /* \"contracts/sMasterChef.sol\":5533:5540  uint256 */\n      0x00\n        /* \"contracts/sMasterChef.sol\":5778:5784  a == 0 */\n      dup3\n        /* \"contracts/sMasterChef.sol\":5774:5821  if (a == 0) {\r... */\n      tag_590\n      jumpi\n      pop\n        /* \"contracts/sMasterChef.sol\":5808:5809  0 */\n      0x00\n        /* \"contracts/sMasterChef.sol\":5801:5809  return 0 */\n      jump(tag_215)\n        /* \"contracts/sMasterChef.sol\":5774:5821  if (a == 0) {\r... */\n    tag_590:\n        /* \"contracts/sMasterChef.sol\":5845:5850  a * b */\n      dup3\n      dup3\n      mul\n        /* \"contracts/sMasterChef.sol\":5849:5850  b */\n      dup3\n        /* \"contracts/sMasterChef.sol\":5845:5846  a */\n      dup5\n        /* \"contracts/sMasterChef.sol\":5845:5850  a * b */\n      dup3\n        /* \"contracts/sMasterChef.sol\":5845:5846  a */\n      dup2\n        /* \"contracts/sMasterChef.sol\":5869:5874  c / a */\n      tag_591\n      jumpi\n      invalid\n    tag_591:\n      div\n        /* \"contracts/sMasterChef.sol\":5869:5879  c / a == b */\n      eq\n        /* \"contracts/sMasterChef.sol\":5861:5917  require(c / a == b, \"SafeMath: multiplication overflow\") */\n      tag_216\n      jumpi\n      mload(0x40)\n      0x08c379a000000000000000000000000000000000000000000000000000000000\n      dup2\n      mstore\n      0x04\n      add\n      tag_220\n      swap1\n      tag_594\n      jump\t// in\n        /* \"contracts/sMasterChef.sol\":6422:6554  function div(uint256 a, uint256 b) internal pure returns (uint256) {\r... */\n    tag_250:\n        /* \"contracts/sMasterChef.sol\":6480:6487  uint256 */\n      0x00\n        /* \"contracts/sMasterChef.sol\":6507:6546  div(a, b, \"SafeMath: division by zero\") */\n      tag_596\n        /* \"contracts/sMasterChef.sol\":6511:6512  a */\n      dup4\n        /* \"contracts/sMasterChef.sol\":6514:6515  b */\n      dup4\n        /* \"contracts/sMasterChef.sol\":6507:6546  div(a, b, \"SafeMath: division by zero\") */\n      mload(0x40)\n      dup1\n      0x40\n      add\n      0x40\n      mstore\n      dup1\n      0x1a\n      dup2\n      mstore\n      0x20\n      add\n      0x536166654d6174683a206469766973696f6e206279207a65726f000000000000\n      dup2\n      mstore\n      pop\n        /* \"contracts/sMasterChef.sol\":6507:6510  div */\n      tag_597\n        /* \"contracts/sMasterChef.sol\":6507:6546  div(a, b, \"SafeMath: division by zero\") */\n      jump\t// in\n    tag_596:\n        /* \"contracts/sMasterChef.sol\":6500:6546  return div(a, b, \"SafeMath: division by zero\") */\n      swap4\n        /* \"contracts/sMasterChef.sol\":6422:6554  function div(uint256 a, uint256 b) internal pure returns (uint256) {\r... */\n      swap3\n      pop\n      pop\n      pop\n      jump\t// out\n        /* \"contracts/sMasterChef.sol\":4585:4721  function sub(uint256 a, uint256 b) internal pure returns (uint256) {\r... */\n    tag_257:\n        /* \"contracts/sMasterChef.sol\":4643:4650  uint256 */\n      0x00\n        /* \"contracts/sMasterChef.sol\":4670:4713  sub(a, b, \"SafeMath: subtraction overflow\") */\n      tag_596\n        /* \"contracts/sMasterChef.sol\":4674:4675  a */\n      dup4\n        /* \"contracts/sMasterChef.sol\":4677:4678  b */\n      dup4\n        /* \"contracts/sMasterChef.sol\":4670:4713  sub(a, b, \"SafeMath: subtraction overflow\") */\n      mload(0x40)\n      dup1\n      0x40\n      add\n      0x40\n      mstore\n      dup1\n      0x1e\n      dup2\n      mstore\n      0x20\n      add\n      0x536166654d6174683a207375627472616374696f6e206f766572666c6f770000\n      dup2\n      mstore\n      pop\n        /* \"contracts/sMasterChef.sol\":4670:4673  sub */\n      tag_600\n        /* \"contracts/sMasterChef.sol\":4670:4713  sub(a, b, \"SafeMath: subtraction overflow\") */\n      jump\t// in\n        /* \"contracts/sMasterChef.sol\":4121:4302  function add(uint256 a, uint256 b) internal pure returns (uint256) {\r... */\n    tag_258:\n        /* \"contracts/sMasterChef.sol\":4179:4186  uint256 */\n      0x00\n        /* \"contracts/sMasterChef.sol\":4211:4216  a + b */\n      dup3\n      dup3\n      add\n        /* \"contracts/sMasterChef.sol\":4235:4241  c >= a */\n      dup4\n      dup2\n      lt\n      iszero\n        /* \"contracts/sMasterChef.sol\":4227:4273  require(c >= a, \"SafeMath: addition overflow\") */\n      tag_216\n      jumpi\n      mload(0x40)\n      0x08c379a000000000000000000000000000000000000000000000000000000000\n      dup2\n      mstore\n      0x04\n      add\n      tag_220\n      swap1\n      tag_604\n      jump\t// in\n        /* \"contracts/sMasterChef.sol\":669:775  function _msgSender() internal view virtual returns (address payable) {\r... */\n    tag_265:\n        /* \"contracts/sMasterChef.sol\":757:767  msg.sender */\n      caller\n        /* \"contracts/sMasterChef.sol\":669:775  function _msgSender() internal view virtual returns (address payable) {\r... */\n      swap1\n      jump\t// out\n        /* \"contracts/sMasterChef.sol\":21026:21271  function safeTransferFrom(\r... */\n    tag_294:\n        /* \"contracts/sMasterChef.sol\":21148:21265  _callOptionalReturn(\r... */\n      tag_356\n        /* \"contracts/sMasterChef.sol\":21176:21181  token */\n      dup5\n        /* \"contracts/sMasterChef.sol\":21213:21240  token.transferFrom.selector */\n      shl(0xe0, 0x23b872dd)\n        /* \"contracts/sMasterChef.sol\":21242:21246  from */\n      dup6\n        /* \"contracts/sMasterChef.sol\":21248:21250  to */\n      dup6\n        /* \"contracts/sMasterChef.sol\":21252:21257  value */\n      dup6\n        /* \"contracts/sMasterChef.sol\":21190:21258  abi.encodeWithSelector(token.transferFrom.selector, from, to, value) */\n      add(0x24, mload(0x40))\n      tag_608\n      swap4\n      swap3\n      swap2\n      swap1\n      tag_609\n      jump\t// in\n    tag_608:\n      0x40\n      dup1\n      mload\n      0xffffffffffffffffffffffffffffffffffffffffffffffffffffffffffffffe0\n      dup2\n      dup5\n      sub\n      add\n      dup2\n      mstore\n      swap2\n      swap1\n      mstore\n      0x20\n      dup2\n      add\n      dup1\n      mload\n      0xffffffffffffffffffffffffffffffffffffffffffffffffffffffff\n      and\n      0xffffffff00000000000000000000000000000000000000000000000000000000\n      swap1\n      swap4\n      and\n      swap3\n      swap1\n      swap3\n      or\n      swap1\n      swap2\n      mstore\n        /* \"contracts/sMasterChef.sol\":21148:21167  _callOptionalReturn */\n      tag_610\n        /* \"contracts/sMasterChef.sol\":21148:21265  _callOptionalReturn(\r... */\n      jump\t// in\n        /* \"contracts/sMasterChef.sol\":47852:48354  function _safeTransfer(address _to, uint256 _amount) internal {\r... */\n    tag_321:\n        /* \"contracts/sMasterChef.sol\":47929:47940  _amount > 0 */\n      dup1\n      iszero\n        /* \"contracts/sMasterChef.sol\":47925:48347  if (_amount > 0) {\r... */\n      tag_395\n      jumpi\n        /* \"contracts/sMasterChef.sol\":48040:48069  SHDW.balanceOf(address(this)) */\n      mload(0x40)\n      0x70a0823100000000000000000000000000000000000000000000000000000000\n      dup2\n      mstore\n        /* \"contracts/sMasterChef.sol\":48072:48079  _amount */\n      dup2\n      swap1\n        /* \"contracts/sMasterChef.sol\":48040:48054  SHDW.balanceOf */\n      0xffffffffffffffffffffffffffffffffffffffff\n        /* \"contracts/sMasterChef.sol\":48040:48044  SHDW */\n      immutable(\"0xad6001c41f5480e3ca6168a06649b3a3f0b7288943b7fbc0eb5698ed5504137a\")\n        /* \"contracts/sMasterChef.sol\":48040:48054  SHDW.balanceOf */\n      and\n      swap1\n      0x70a08231\n      swap1\n        /* \"contracts/sMasterChef.sol\":48040:48069  SHDW.balanceOf(address(this)) */\n      tag_613\n      swap1\n        /* \"contracts/sMasterChef.sol\":48063:48067  this */\n      address\n      swap1\n        /* \"contracts/sMasterChef.sol\":48040:48069  SHDW.balanceOf(address(this)) */\n      0x04\n      add\n      tag_155\n      jump\t// in\n    tag_613:\n      0x20\n      mload(0x40)\n      dup1\n      dup4\n      sub\n      dup2\n      dup7\n      dup1\n      extcodesize\n      iszero\n      dup1\n      iszero\n      tag_614\n      jumpi\n      0x00\n      dup1\n      revert\n    tag_614:\n      pop\n      gas\n      staticcall\n      iszero\n      dup1\n      iszero\n      tag_616\n      jumpi\n      returndatasize\n      0x00\n      dup1\n      returndatacopy\n      revert(0x00, returndatasize)\n    tag_616:\n      pop\n      pop\n      pop\n      pop\n      mload(0x40)\n      returndatasize\n      not(0x1f)\n      0x1f\n      dup3\n      add\n      and\n      dup3\n      add\n      dup1\n      0x40\n      mstore\n      pop\n      dup2\n      add\n      swap1\n      tag_617\n      swap2\n      swap1\n      tag_289\n      jump\t// in\n    tag_617:\n        /* \"contracts/sMasterChef.sol\":48040:48079  SHDW.balanceOf(address(this)) < _amount */\n      lt\n        /* \"contracts/sMasterChef.sol\":48036:48139  if (SHDW.balanceOf(address(this)) < _amount) {\r... */\n      iszero\n      tag_619\n      jumpi\n        /* \"contracts/sMasterChef.sol\":48100:48123  harvestFromMasterChef() */\n      tag_619\n        /* \"contracts/sMasterChef.sol\":48100:48121  harvestFromMasterChef */\n      tag_112\n        /* \"contracts/sMasterChef.sol\":48100:48123  harvestFromMasterChef() */\n      jump\t// in\n    tag_619:\n        /* \"contracts/sMasterChef.sol\":48171:48200  SHDW.balanceOf(address(this)) */\n      mload(0x40)\n      0x70a0823100000000000000000000000000000000000000000000000000000000\n      dup2\n      mstore\n        /* \"contracts/sMasterChef.sol\":48153:48168  uint256 balance */\n      0x00\n      swap1\n        /* \"contracts/sMasterChef.sol\":48171:48185  SHDW.balanceOf */\n      0xffffffffffffffffffffffffffffffffffffffff\n        /* \"contracts/sMasterChef.sol\":48171:48175  SHDW */\n      immutable(\"0xad6001c41f5480e3ca6168a06649b3a3f0b7288943b7fbc0eb5698ed5504137a\")\n        /* \"contracts/sMasterChef.sol\":48171:48185  SHDW.balanceOf */\n      and\n      swap1\n      0x70a08231\n      swap1\n        /* \"contracts/sMasterChef.sol\":48171:48200  SHDW.balanceOf(address(this)) */\n      tag_620\n      swap1\n        /* \"contracts/sMasterChef.sol\":48194:48198  this */\n      address\n      swap1\n        /* \"contracts/sMasterChef.sol\":48171:48200  SHDW.balanceOf(address(this)) */\n      0x04\n      add\n      tag_155\n      jump\t// in\n    tag_620:\n      0x20\n      mload(0x40)\n      dup1\n      dup4\n      sub\n      dup2\n      dup7\n      dup1\n      extcodesize\n      iszero\n      dup1\n      iszero\n      tag_621\n      jumpi\n      0x00\n      dup1\n      revert\n    tag_621:\n      pop\n      gas\n      staticcall\n      iszero\n      dup1\n      iszero\n      tag_623\n      jumpi\n      returndatasize\n      0x00\n      dup1\n      returndatacopy\n      revert(0x00, returndatasize)\n    tag_623:\n      pop\n      pop\n      pop\n      pop\n      mload(0x40)\n      returndatasize\n      not(0x1f)\n      0x1f\n      dup3\n      add\n      and\n      dup3\n      add\n      dup1\n      0x40\n      mstore\n      pop\n      dup2\n      add\n      swap1\n      tag_624\n      swap2\n      swap1\n      tag_289\n      jump\t// in\n    tag_624:\n        /* \"contracts/sMasterChef.sol\":48153:48200  uint256 balance = SHDW.balanceOf(address(this)) */\n      swap1\n      pop\n        /* \"contracts/sMasterChef.sol\":48229:48236  _amount */\n      dup2\n        /* \"contracts/sMasterChef.sol\":48219:48226  balance */\n      dup2\n        /* \"contracts/sMasterChef.sol\":48219:48236  balance < _amount */\n      lt\n        /* \"contracts/sMasterChef.sol\":48215:48290  if (balance < _amount) {\r... */\n      iszero\n      tag_625\n      jumpi\n        /* \"contracts/sMasterChef.sol\":48267:48274  balance */\n      dup1\n        /* \"contracts/sMasterChef.sol\":48257:48274  _amount = balance */\n      swap2\n      pop\n        /* \"contracts/sMasterChef.sol\":48215:48290  if (balance < _amount) {\r... */\n    tag_625:\n        /* \"contracts/sMasterChef.sol\":48304:48335  SHDW.safeTransfer(_to, _amount) */\n      tag_626\n        /* \"contracts/sMasterChef.sol\":48304:48321  SHDW.safeTransfer */\n      0xffffffffffffffffffffffffffffffffffffffff\n        /* \"contracts/sMasterChef.sol\":48304:48308  SHDW */\n      immutable(\"0xad6001c41f5480e3ca6168a06649b3a3f0b7288943b7fbc0eb5698ed5504137a\")\n        /* \"contracts/sMasterChef.sol\":48304:48321  SHDW.safeTransfer */\n      and\n        /* \"contracts/sMasterChef.sol\":48322:48325  _to */\n      dup5\n        /* \"contracts/sMasterChef.sol\":48327:48334  _amount */\n      dup5\n        /* \"contracts/sMasterChef.sol\":48304:48321  SHDW.safeTransfer */\n      tag_338\n        /* \"contracts/sMasterChef.sol\":48304:48335  SHDW.safeTransfer(_to, _amount) */\n      jump\t// in\n    tag_626:\n        /* \"contracts/sMasterChef.sol\":47925:48347  if (_amount > 0) {\r... */\n      pop\n        /* \"contracts/sMasterChef.sol\":47852:48354  function _safeTransfer(address _to, uint256 _amount) internal {\r... */\n      pop\n      pop\n      jump\t// out\n        /* \"contracts/sMasterChef.sol\":20808:21020  function safeTransfer(\r... */\n    tag_338:\n        /* \"contracts/sMasterChef.sol\":20907:21014  _callOptionalReturn(\r... */\n      tag_626\n        /* \"contracts/sMasterChef.sol\":20935:20940  token */\n      dup4\n        /* \"contracts/sMasterChef.sol\":20972:20995  token.transfer.selector */\n      shl(0xe0, 0xa9059cbb)\n        /* \"contracts/sMasterChef.sol\":20997:20999  to */\n      dup5\n        /* \"contracts/sMasterChef.sol\":21001:21006  value */\n      dup5\n        /* \"contracts/sMasterChef.sol\":20949:21007  abi.encodeWithSelector(token.transfer.selector, to, value) */\n      add(0x24, mload(0x40))\n      tag_608\n      swap3\n      swap2\n      swap1\n      tag_296\n      jump\t// in\n        /* \"contracts/sMasterChef.sol\":7050:7328  function div(uint256 a, uint256 b, string memory errorMessage) internal pure returns (uint256) {\r... */\n    tag_597:\n        /* \"contracts/sMasterChef.sol\":7136:7143  uint256 */\n      0x00\n        /* \"contracts/sMasterChef.sol\":7171:7183  errorMessage */\n      dup2\n        /* \"contracts/sMasterChef.sol\":7164:7169  b > 0 */\n      dup4\n        /* \"contracts/sMasterChef.sol\":7156:7184  require(b > 0, errorMessage) */\n      tag_631\n      jumpi\n      mload(0x40)\n      0x08c379a000000000000000000000000000000000000000000000000000000000\n      dup2\n      mstore\n      0x04\n      add\n      tag_220\n      swap2\n      swap1\n      tag_633\n      jump\t// in\n    tag_631:\n      pop\n        /* \"contracts/sMasterChef.sol\":7195:7204  uint256 c */\n      0x00\n        /* \"contracts/sMasterChef.sol\":7211:7212  b */\n      dup4\n        /* \"contracts/sMasterChef.sol\":7207:7208  a */\n      dup6\n        /* \"contracts/sMasterChef.sol\":7207:7212  a / b */\n      dup2\n      tag_634\n      jumpi\n      invalid\n    tag_634:\n      div\n      swap6\n        /* \"contracts/sMasterChef.sol\":7050:7328  function div(uint256 a, uint256 b, string memory errorMessage) internal pure returns (uint256) {\r... */\n      swap5\n      pop\n      pop\n      pop\n      pop\n      pop\n      jump\t// out\n        /* \"contracts/sMasterChef.sol\":5024:5216  function sub(uint256 a, uint256 b, string memory errorMessage) internal pure returns (uint256) {\r... */\n    tag_600:\n        /* \"contracts/sMasterChef.sol\":5110:5117  uint256 */\n      0x00\n        /* \"contracts/sMasterChef.sol\":5146:5158  errorMessage */\n      dup2\n        /* \"contracts/sMasterChef.sol\":5138:5144  b <= a */\n      dup5\n      dup5\n      gt\n      iszero\n        /* \"contracts/sMasterChef.sol\":5130:5159  require(b <= a, errorMessage) */\n      tag_636\n      jumpi\n      mload(0x40)\n      0x08c379a000000000000000000000000000000000000000000000000000000000\n      dup2\n      mstore\n      0x04\n      add\n      tag_220\n      swap2\n      swap1\n      tag_633\n      jump\t// in\n    tag_636:\n      pop\n      pop\n      pop\n        /* \"contracts/sMasterChef.sol\":5182:5187  a - b */\n      swap1\n      sub\n      swap1\n        /* \"contracts/sMasterChef.sol\":5024:5216  function sub(uint256 a, uint256 b, string memory errorMessage) internal pure returns (uint256) {\r... */\n      jump\t// out\n        /* \"contracts/sMasterChef.sol\":23261:24025  function _callOptionalReturn(IBEP20 token, bytes memory data) private {\r... */\n    tag_610:\n        /* \"contracts/sMasterChef.sol\":23669:23692  bytes memory returndata */\n      0x60\n        /* \"contracts/sMasterChef.sol\":23702:23771  address(token).functionCall(data, \"SafeBEP20: low-level call failed\") */\n      tag_639\n        /* \"contracts/sMasterChef.sol\":23730:23734  data */\n      dup3\n        /* \"contracts/sMasterChef.sol\":23702:23771  address(token).functionCall(data, \"SafeBEP20: low-level call failed\") */\n      mload(0x40)\n      dup1\n      0x40\n      add\n      0x40\n      mstore\n      dup1\n      0x20\n      dup2\n      mstore\n      0x20\n      add\n      0x5361666542455032303a206c6f772d6c6576656c2063616c6c206661696c6564\n      dup2\n      mstore\n      pop\n        /* \"contracts/sMasterChef.sol\":23710:23715  token */\n      dup6\n        /* \"contracts/sMasterChef.sol\":23702:23729  address(token).functionCall */\n      0xffffffffffffffffffffffffffffffffffffffff\n      and\n      tag_640\n      swap1\n        /* \"contracts/sMasterChef.sol\":23702:23771  address(token).functionCall(data, \"SafeBEP20: low-level call failed\") */\n      swap3\n      swap2\n      swap1\n      0xffffffff\n      and\n      jump\t// in\n    tag_639:\n        /* \"contracts/sMasterChef.sol\":23782:23799  returndata.length */\n      dup1\n      mload\n        /* \"contracts/sMasterChef.sol\":23669:23771  bytes memory returndata =\r... */\n      swap1\n      swap2\n      pop\n        /* \"contracts/sMasterChef.sol\":23782:23803  returndata.length > 0 */\n      iszero\n        /* \"contracts/sMasterChef.sol\":23778:24020  if (returndata.length > 0) {\r... */\n      tag_626\n      jumpi\n        /* \"contracts/sMasterChef.sol\":23929:23939  returndata */\n      dup1\n        /* \"contracts/sMasterChef.sol\":23918:23948  abi.decode(returndata, (bool)) */\n      dup1\n      0x20\n      add\n      swap1\n      mload\n      dup2\n      add\n      swap1\n      tag_642\n      swap2\n      swap1\n      tag_301\n      jump\t// in\n    tag_642:\n        /* \"contracts/sMasterChef.sol\":23900:24012  require(\r... */\n      tag_626\n      jumpi\n      mload(0x40)\n      0x08c379a000000000000000000000000000000000000000000000000000000000\n      dup2\n      mstore\n      0x04\n      add\n      tag_220\n      swap1\n      tag_645\n      jump\t// in\n        /* \"contracts/sMasterChef.sol\":17865:18061  function functionCall(address target, bytes memory data, string memory errorMessage) internal returns (bytes memory) {\r... */\n    tag_640:\n        /* \"contracts/sMasterChef.sol\":17968:17980  bytes memory */\n      0x60\n        /* \"contracts/sMasterChef.sol\":18000:18053  _functionCallWithValue(target, data, 0, errorMessage) */\n      tag_647\n        /* \"contracts/sMasterChef.sol\":18023:18029  target */\n      dup5\n        /* \"contracts/sMasterChef.sol\":18031:18035  data */\n      dup5\n        /* \"contracts/sMasterChef.sol\":18037:18038  0 */\n      0x00\n        /* \"contracts/sMasterChef.sol\":18040:18052  errorMessage */\n      dup6\n        /* \"contracts/sMasterChef.sol\":18000:18022  _functionCallWithValue */\n      tag_648\n        /* \"contracts/sMasterChef.sol\":18000:18053  _functionCallWithValue(target, data, 0, errorMessage) */\n      jump\t// in\n    tag_647:\n        /* \"contracts/sMasterChef.sol\":17993:18053  return _functionCallWithValue(target, data, 0, errorMessage) */\n      swap5\n        /* \"contracts/sMasterChef.sol\":17865:18061  function functionCall(address target, bytes memory data, string memory errorMessage) internal returns (bytes memory) {\r... */\n      swap4\n      pop\n      pop\n      pop\n      pop\n      jump\t// out\n        /* \"contracts/sMasterChef.sol\":19242:20221  function _functionCallWithValue(address target, bytes memory data, uint256 weiValue, string memory errorMessage) private returns (bytes memory) {\r... */\n    tag_648:\n        /* \"contracts/sMasterChef.sol\":19372:19384  bytes memory */\n      0x60\n        /* \"contracts/sMasterChef.sol\":19405:19423  isContract(target) */\n      tag_650\n        /* \"contracts/sMasterChef.sol\":19416:19422  target */\n      dup6\n        /* \"contracts/sMasterChef.sol\":19405:19415  isContract */\n      tag_651\n        /* \"contracts/sMasterChef.sol\":19405:19423  isContract(target) */\n      jump\t// in\n    tag_650:\n        /* \"contracts/sMasterChef.sol\":19397:19457  require(isContract(target), \"Address: call to non-contract\") */\n      tag_652\n      jumpi\n      mload(0x40)\n      0x08c379a000000000000000000000000000000000000000000000000000000000\n      dup2\n      mstore\n      0x04\n      add\n      tag_220\n      swap1\n      tag_654\n      jump\t// in\n    tag_652:\n        /* \"contracts/sMasterChef.sol\":19531:19543  bool success */\n      0x00\n        /* \"contracts/sMasterChef.sol\":19545:19568  bytes memory returndata */\n      0x60\n        /* \"contracts/sMasterChef.sol\":19572:19578  target */\n      dup7\n        /* \"contracts/sMasterChef.sol\":19572:19583  target.call */\n      0xffffffffffffffffffffffffffffffffffffffff\n      and\n        /* \"contracts/sMasterChef.sol\":19592:19600  weiValue */\n      dup6\n        /* \"contracts/sMasterChef.sol\":19603:19607  data */\n      dup8\n        /* \"contracts/sMasterChef.sol\":19572:19608  target.call{ value: weiValue }(data) */\n      mload(0x40)\n      tag_655\n      swap2\n      swap1\n      tag_656\n      jump\t// in\n    tag_655:\n      0x00\n      mload(0x40)\n      dup1\n      dup4\n      sub\n      dup2\n      dup6\n      dup8\n      gas\n      call\n      swap3\n      pop\n      pop\n      pop\n      returndatasize\n      dup1\n      0x00\n      dup2\n      eq\n      tag_659\n      jumpi\n      mload(0x40)\n      swap2\n      pop\n      and(add(returndatasize, 0x3f), not(0x1f))\n      dup3\n      add\n      0x40\n      mstore\n      returndatasize\n      dup3\n      mstore\n      returndatasize\n      0x00\n      0x20\n      dup5\n      add\n      returndatacopy\n      jump(tag_658)\n    tag_659:\n      0x60\n      swap2\n      pop\n    tag_658:\n      pop\n        /* \"contracts/sMasterChef.sol\":19530:19608  (bool success, bytes memory returndata) = target.call{ value: weiValue }(data) */\n      swap2\n      pop\n      swap2\n      pop\n        /* \"contracts/sMasterChef.sol\":19623:19630  success */\n      dup2\n        /* \"contracts/sMasterChef.sol\":19619:20214  if (success) {\r... */\n      iszero\n      tag_660\n      jumpi\n        /* \"contracts/sMasterChef.sol\":19654:19664  returndata */\n      swap2\n      pop\n        /* \"contracts/sMasterChef.sol\":19647:19664  return returndata */\n      tag_647\n      swap1\n      pop\n      jump\n        /* \"contracts/sMasterChef.sol\":19619:20214  if (success) {\r... */\n    tag_660:\n        /* \"contracts/sMasterChef.sol\":19768:19785  returndata.length */\n      dup1\n      mload\n        /* \"contracts/sMasterChef.sol\":19768:19789  returndata.length > 0 */\n      iszero\n        /* \"contracts/sMasterChef.sol\":19764:20203  if (returndata.length > 0) {\r... */\n      tag_662\n      jumpi\n        /* \"contracts/sMasterChef.sol\":20031:20041  returndata */\n      dup1\n        /* \"contracts/sMasterChef.sol\":20025:20042  mload(returndata) */\n      mload\n        /* \"contracts/sMasterChef.sol\":20092:20107  returndata_size */\n      dup1\n        /* \"contracts/sMasterChef.sol\":20079:20089  returndata */\n      dup3\n        /* \"contracts/sMasterChef.sol\":20075:20077  32 */\n      0x20\n        /* \"contracts/sMasterChef.sol\":20071:20090  add(32, returndata) */\n      add\n        /* \"contracts/sMasterChef.sol\":20064:20108  revert(add(32, returndata), returndata_size) */\n      revert\n        /* \"contracts/sMasterChef.sol\":19979:20127  {\r... */\n    tag_662:\n        /* \"contracts/sMasterChef.sol\":20174:20186  errorMessage */\n      dup4\n        /* \"contracts/sMasterChef.sol\":20167:20187  revert(errorMessage) */\n      mload(0x40)\n      0x08c379a000000000000000000000000000000000000000000000000000000000\n      dup2\n      mstore\n      0x04\n      add\n      tag_220\n      swap2\n      swap1\n      tag_633\n      jump\t// in\n        /* \"contracts/sMasterChef.sol\":14947:15369  function isContract(address account) internal view returns (bool) {\r... */\n    tag_651:\n        /* \"contracts/sMasterChef.sol\":15314:15334  extcodesize(account) */\n      extcodesize\n        /* \"contracts/sMasterChef.sol\":15353:15361  size > 0 */\n      iszero\n      iszero\n      swap1\n        /* \"contracts/sMasterChef.sol\":14947:15369  function isContract(address account) internal view returns (bool) {\r... */\n      jump\t// out\n    tag_240:\n      mload(0x40)\n      dup1\n      0xa0\n      add\n      0x40\n      mstore\n      dup1\n      0x00\n      dup2\n      mstore\n      0x20\n      add\n      0x00\n      dup2\n      mstore\n      0x20\n      add\n      0x00\n      dup2\n      mstore\n      0x20\n      add\n      0x00\n      dup2\n      mstore\n      0x20\n      add\n      iszero(iszero(0x00))\n      dup2\n      mstore\n      pop\n      swap1\n      jump\t// out\n    tag_502:\n      mload(0x40)\n      dup1\n      0x60\n      add\n      0x40\n      mstore\n      dup1\n      0x00\n      dup2\n      mstore\n      0x20\n      add\n      0x00\n      dup2\n      mstore\n      0x20\n      add\n      0x00\n      dup2\n      mstore\n      pop\n      swap1\n      jump\t// out\n        /* \"--CODEGEN--\":851:1092   */\n    tag_80:\n      0x00\n        /* \"--CODEGEN--\":955:957   */\n      0x20\n        /* \"--CODEGEN--\":943:952   */\n      dup3\n        /* \"--CODEGEN--\":934:941   */\n      dup5\n        /* \"--CODEGEN--\":930:953   */\n      sub\n        /* \"--CODEGEN--\":926:958   */\n      slt\n        /* \"--CODEGEN--\":923:925   */\n      iszero\n      tag_668\n      jumpi\n      dup1\n      dup2\n        /* \"--CODEGEN--\":961:973   */\n      revert\n        /* \"--CODEGEN--\":923:925   */\n    tag_668:\n        /* \"--CODEGEN--\":85:91   */\n      dup2\n        /* \"--CODEGEN--\":72:92   */\n      calldataload\n        /* \"--CODEGEN--\":97:130   */\n      tag_216\n        /* \"--CODEGEN--\":124:129   */\n      dup2\n        /* \"--CODEGEN--\":97:130   */\n      tag_670\n      jump\t// in\n        /* \"--CODEGEN--\":1099:1459   */\n    tag_173:\n      0x00\n      dup1\n        /* \"--CODEGEN--\":1217:1219   */\n      0x40\n        /* \"--CODEGEN--\":1205:1214   */\n      dup4\n        /* \"--CODEGEN--\":1196:1203   */\n      dup6\n        /* \"--CODEGEN--\":1192:1215   */\n      sub\n        /* \"--CODEGEN--\":1188:1220   */\n      slt\n        /* \"--CODEGEN--\":1185:1187   */\n      iszero\n      tag_672\n      jumpi\n      dup1\n      dup2\n        /* \"--CODEGEN--\":1223:1235   */\n      revert\n        /* \"--CODEGEN--\":1185:1187   */\n    tag_672:\n        /* \"--CODEGEN--\":85:91   */\n      dup3\n        /* \"--CODEGEN--\":72:92   */\n      calldataload\n        /* \"--CODEGEN--\":97:130   */\n      tag_673\n        /* \"--CODEGEN--\":124:129   */\n      dup2\n        /* \"--CODEGEN--\":97:130   */\n      tag_670\n      jump\t// in\n    tag_673:\n        /* \"--CODEGEN--\":1275:1338   */\n      swap2\n      pop\n        /* \"--CODEGEN--\":1375:1377   */\n      0x20\n        /* \"--CODEGEN--\":1411:1433   */\n      dup4\n      add\n        /* \"--CODEGEN--\":206:226   */\n      calldataload\n        /* \"--CODEGEN--\":231:261   */\n      tag_674\n        /* \"--CODEGEN--\":206:226   */\n      dup2\n        /* \"--CODEGEN--\":231:261   */\n      tag_675\n      jump\t// in\n    tag_674:\n        /* \"--CODEGEN--\":1383:1443   */\n      dup1\n      swap2\n      pop\n      pop\n        /* \"--CODEGEN--\":1179:1459   */\n      swap3\n      pop\n      swap3\n      swap1\n      pop\n      jump\t// out\n        /* \"--CODEGEN--\":1466:1832   */\n    tag_63:\n      0x00\n      dup1\n        /* \"--CODEGEN--\":1587:1589   */\n      0x40\n        /* \"--CODEGEN--\":1575:1584   */\n      dup4\n        /* \"--CODEGEN--\":1566:1573   */\n      dup6\n        /* \"--CODEGEN--\":1562:1585   */\n      sub\n        /* \"--CODEGEN--\":1558:1590   */\n      slt\n        /* \"--CODEGEN--\":1555:1557   */\n      iszero\n      tag_677\n      jumpi\n      dup2\n      dup3\n        /* \"--CODEGEN--\":1593:1605   */\n      revert\n        /* \"--CODEGEN--\":1555:1557   */\n    tag_677:\n        /* \"--CODEGEN--\":85:91   */\n      dup3\n        /* \"--CODEGEN--\":72:92   */\n      calldataload\n        /* \"--CODEGEN--\":97:130   */\n      tag_678\n        /* \"--CODEGEN--\":124:129   */\n      dup2\n        /* \"--CODEGEN--\":97:130   */\n      tag_670\n      jump\t// in\n    tag_678:\n        /* \"--CODEGEN--\":1645:1708   */\n      swap5\n        /* \"--CODEGEN--\":1745:1747   */\n      0x20\n        /* \"--CODEGEN--\":1784:1806   */\n      swap4\n      swap1\n      swap4\n      add\n        /* \"--CODEGEN--\":640:660   */\n      calldataload\n      swap4\n      pop\n      pop\n      pop\n        /* \"--CODEGEN--\":1549:1832   */\n      jump\t// out\n        /* \"--CODEGEN--\":1839:2330   */\n    tag_73:\n      0x00\n      dup1\n      0x00\n        /* \"--CODEGEN--\":1977:1979   */\n      0x60\n        /* \"--CODEGEN--\":1965:1974   */\n      dup5\n        /* \"--CODEGEN--\":1956:1963   */\n      dup7\n        /* \"--CODEGEN--\":1952:1975   */\n      sub\n        /* \"--CODEGEN--\":1948:1980   */\n      slt\n        /* \"--CODEGEN--\":1945:1947   */\n      iszero\n      tag_680\n      jumpi\n      dup1\n      dup2\n        /* \"--CODEGEN--\":1983:1995   */\n      revert\n        /* \"--CODEGEN--\":1945:1947   */\n    tag_680:\n        /* \"--CODEGEN--\":85:91   */\n      dup4\n        /* \"--CODEGEN--\":72:92   */\n      calldataload\n        /* \"--CODEGEN--\":97:130   */\n      tag_681\n        /* \"--CODEGEN--\":124:129   */\n      dup2\n        /* \"--CODEGEN--\":97:130   */\n      tag_670\n      jump\t// in\n    tag_681:\n        /* \"--CODEGEN--\":2035:2098   */\n      swap6\n        /* \"--CODEGEN--\":2135:2137   */\n      0x20\n        /* \"--CODEGEN--\":2174:2196   */\n      dup6\n      add\n        /* \"--CODEGEN--\":640:660   */\n      calldataload\n      swap6\n      pop\n        /* \"--CODEGEN--\":2243:2245   */\n      0x40\n        /* \"--CODEGEN--\":2282:2304   */\n      swap1\n      swap5\n      add\n        /* \"--CODEGEN--\":640:660   */\n      calldataload\n      swap4\n        /* \"--CODEGEN--\":1939:2330   */\n      swap3\n      pop\n      pop\n      pop\n      jump\t// out\n        /* \"--CODEGEN--\":2337:2572   */\n    tag_100:\n      0x00\n        /* \"--CODEGEN--\":2438:2440   */\n      0x20\n        /* \"--CODEGEN--\":2426:2435   */\n      dup3\n        /* \"--CODEGEN--\":2417:2424   */\n      dup5\n        /* \"--CODEGEN--\":2413:2436   */\n      sub\n        /* \"--CODEGEN--\":2409:2441   */\n      slt\n        /* \"--CODEGEN--\":2406:2408   */\n      iszero\n      tag_683\n      jumpi\n      dup1\n      dup2\n        /* \"--CODEGEN--\":2444:2456   */\n      revert\n        /* \"--CODEGEN--\":2406:2408   */\n    tag_683:\n        /* \"--CODEGEN--\":219:225   */\n      dup2\n        /* \"--CODEGEN--\":206:226   */\n      calldataload\n        /* \"--CODEGEN--\":231:261   */\n      tag_216\n        /* \"--CODEGEN--\":255:260   */\n      dup2\n        /* \"--CODEGEN--\":231:261   */\n      tag_675\n      jump\t// in\n        /* \"--CODEGEN--\":2579:2836   */\n    tag_301:\n      0x00\n        /* \"--CODEGEN--\":2691:2693   */\n      0x20\n        /* \"--CODEGEN--\":2679:2688   */\n      dup3\n        /* \"--CODEGEN--\":2670:2677   */\n      dup5\n        /* \"--CODEGEN--\":2666:2689   */\n      sub\n        /* \"--CODEGEN--\":2662:2694   */\n      slt\n        /* \"--CODEGEN--\":2659:2661   */\n      iszero\n      tag_686\n      jumpi\n      dup1\n      dup2\n        /* \"--CODEGEN--\":2697:2709   */\n      revert\n        /* \"--CODEGEN--\":2659:2661   */\n    tag_686:\n        /* \"--CODEGEN--\":354:360   */\n      dup2\n        /* \"--CODEGEN--\":348:361   */\n      mload\n        /* \"--CODEGEN--\":366:396   */\n      tag_216\n        /* \"--CODEGEN--\":390:395   */\n      dup2\n        /* \"--CODEGEN--\":366:396   */\n      tag_675\n      jump\t// in\n        /* \"--CODEGEN--\":3119:3360   */\n    tag_84:\n      0x00\n        /* \"--CODEGEN--\":3223:3225   */\n      0x20\n        /* \"--CODEGEN--\":3211:3220   */\n      dup3\n        /* \"--CODEGEN--\":3202:3209   */\n      dup5\n        /* \"--CODEGEN--\":3198:3221   */\n      sub\n        /* \"--CODEGEN--\":3194:3226   */\n      slt\n        /* \"--CODEGEN--\":3191:3193   */\n      iszero\n      tag_692\n      jumpi\n      dup1\n      dup2\n        /* \"--CODEGEN--\":3229:3241   */\n      revert\n        /* \"--CODEGEN--\":3191:3193   */\n    tag_692:\n      pop\n        /* \"--CODEGEN--\":640:660   */\n      calldataload\n      swap2\n        /* \"--CODEGEN--\":3185:3360   */\n      swap1\n      pop\n      jump\t// out\n        /* \"--CODEGEN--\":3367:3630   */\n    tag_289:\n      0x00\n        /* \"--CODEGEN--\":3482:3484   */\n      0x20\n        /* \"--CODEGEN--\":3470:3479   */\n      dup3\n        /* \"--CODEGEN--\":3461:3468   */\n      dup5\n        /* \"--CODEGEN--\":3457:3480   */\n      sub\n        /* \"--CODEGEN--\":3453:3485   */\n      slt\n        /* \"--CODEGEN--\":3450:3452   */\n      iszero\n      tag_694\n      jumpi\n      dup1\n      dup2\n        /* \"--CODEGEN--\":3488:3500   */\n      revert\n        /* \"--CODEGEN--\":3450:3452   */\n    tag_694:\n      pop\n        /* \"--CODEGEN--\":788:801   */\n      mload\n      swap2\n        /* \"--CODEGEN--\":3444:3630   */\n      swap1\n      pop\n      jump\t// out\n        /* \"--CODEGEN--\":3637:4003   */\n    tag_161:\n      0x00\n      dup1\n        /* \"--CODEGEN--\":3758:3760   */\n      0x40\n        /* \"--CODEGEN--\":3746:3755   */\n      dup4\n        /* \"--CODEGEN--\":3737:3744   */\n      dup6\n        /* \"--CODEGEN--\":3733:3756   */\n      sub\n        /* \"--CODEGEN--\":3729:3761   */\n      slt\n        /* \"--CODEGEN--\":3726:3728   */\n      iszero\n      tag_696\n      jumpi\n      dup2\n      dup3\n        /* \"--CODEGEN--\":3764:3776   */\n      revert\n        /* \"--CODEGEN--\":3726:3728   */\n    tag_696:\n        /* \"--CODEGEN--\":653:659   */\n      dup3\n        /* \"--CODEGEN--\":640:660   */\n      calldataload\n        /* \"--CODEGEN--\":3816:3879   */\n      swap2\n      pop\n        /* \"--CODEGEN--\":3916:3918   */\n      0x20\n        /* \"--CODEGEN--\":3959:3968   */\n      dup4\n        /* \"--CODEGEN--\":3955:3977   */\n      add\n        /* \"--CODEGEN--\":72:92   */\n      calldataload\n        /* \"--CODEGEN--\":97:130   */\n      tag_674\n        /* \"--CODEGEN--\":124:129   */\n      dup2\n        /* \"--CODEGEN--\":97:130   */\n      tag_670\n      jump\t// in\n        /* \"--CODEGEN--\":4010:4643   */\n    tag_184:\n      0x00\n      dup1\n      0x00\n      dup1\n        /* \"--CODEGEN--\":4173:4176   */\n      0x80\n        /* \"--CODEGEN--\":4161:4170   */\n      dup6\n        /* \"--CODEGEN--\":4152:4159   */\n      dup8\n        /* \"--CODEGEN--\":4148:4171   */\n      sub\n        /* \"--CODEGEN--\":4144:4177   */\n      slt\n        /* \"--CODEGEN--\":4141:4143   */\n      iszero\n      tag_699\n      jumpi\n      dup1\n      dup2\n        /* \"--CODEGEN--\":4180:4192   */\n      revert\n        /* \"--CODEGEN--\":4141:4143   */\n    tag_699:\n        /* \"--CODEGEN--\":653:659   */\n      dup5\n        /* \"--CODEGEN--\":640:660   */\n      calldataload\n        /* \"--CODEGEN--\":4232:4295   */\n      swap4\n      pop\n        /* \"--CODEGEN--\":4332:4334   */\n      0x20\n        /* \"--CODEGEN--\":4389:4398   */\n      dup6\n        /* \"--CODEGEN--\":4385:4407   */\n      add\n        /* \"--CODEGEN--\":489:509   */\n      calldataload\n        /* \"--CODEGEN--\":514:561   */\n      tag_700\n        /* \"--CODEGEN--\":555:560   */\n      dup2\n        /* \"--CODEGEN--\":514:561   */\n      tag_670\n      jump\t// in\n    tag_700:\n        /* \"--CODEGEN--\":4340:4417   */\n      swap3\n      pop\n        /* \"--CODEGEN--\":4454:4456   */\n      0x40\n        /* \"--CODEGEN--\":4490:4512   */\n      dup6\n      add\n        /* \"--CODEGEN--\":206:226   */\n      calldataload\n        /* \"--CODEGEN--\":231:261   */\n      tag_701\n        /* \"--CODEGEN--\":206:226   */\n      dup2\n        /* \"--CODEGEN--\":231:261   */\n      tag_675\n      jump\t// in\n    tag_701:\n        /* \"--CODEGEN--\":4462:4522   */\n      swap2\n      pop\n        /* \"--CODEGEN--\":4559:4561   */\n      0x60\n        /* \"--CODEGEN--\":4595:4617   */\n      dup6\n      add\n        /* \"--CODEGEN--\":206:226   */\n      calldataload\n        /* \"--CODEGEN--\":231:261   */\n      tag_702\n        /* \"--CODEGEN--\":206:226   */\n      dup2\n        /* \"--CODEGEN--\":231:261   */\n      tag_675\n      jump\t// in\n    tag_702:\n        /* \"--CODEGEN--\":4135:4643   */\n      swap4\n      swap7\n      swap3\n      swap6\n      pop\n      swap1\n      swap4\n      pop\n      pop\n      jump\t// out\n        /* \"--CODEGEN--\":4650:5016   */\n    tag_109:\n      0x00\n      dup1\n        /* \"--CODEGEN--\":4771:4773   */\n      0x40\n        /* \"--CODEGEN--\":4759:4768   */\n      dup4\n        /* \"--CODEGEN--\":4750:4757   */\n      dup6\n        /* \"--CODEGEN--\":4746:4769   */\n      sub\n        /* \"--CODEGEN--\":4742:4774   */\n      slt\n        /* \"--CODEGEN--\":4739:4741   */\n      iszero\n      tag_704\n      jumpi\n      dup2\n      dup3\n        /* \"--CODEGEN--\":4777:4789   */\n      revert\n        /* \"--CODEGEN--\":4739:4741   */\n    tag_704:\n      pop\n      pop\n        /* \"--CODEGEN--\":640:660   */\n      dup1\n      calldataload\n      swap3\n        /* \"--CODEGEN--\":4929:4931   */\n      0x20\n        /* \"--CODEGEN--\":4968:4990   */\n      swap1\n      swap2\n      add\n        /* \"--CODEGEN--\":640:660   */\n      calldataload\n      swap2\n      pop\n        /* \"--CODEGEN--\":4733:5016   */\n      jump\t// out\n        /* \"--CODEGEN--\":5023:5508   */\n    tag_128:\n      0x00\n      dup1\n      0x00\n        /* \"--CODEGEN--\":5158:5160   */\n      0x60\n        /* \"--CODEGEN--\":5146:5155   */\n      dup5\n        /* \"--CODEGEN--\":5137:5144   */\n      dup7\n        /* \"--CODEGEN--\":5133:5156   */\n      sub\n        /* \"--CODEGEN--\":5129:5161   */\n      slt\n        /* \"--CODEGEN--\":5126:5128   */\n      iszero\n      tag_706\n      jumpi\n      dup3\n      dup4\n        /* \"--CODEGEN--\":5164:5176   */\n      revert\n        /* \"--CODEGEN--\":5126:5128   */\n    tag_706:\n        /* \"--CODEGEN--\":653:659   */\n      dup4\n        /* \"--CODEGEN--\":640:660   */\n      calldataload\n        /* \"--CODEGEN--\":5216:5279   */\n      swap3\n      pop\n        /* \"--CODEGEN--\":5316:5318   */\n      0x20\n        /* \"--CODEGEN--\":5359:5368   */\n      dup5\n        /* \"--CODEGEN--\":5355:5377   */\n      add\n        /* \"--CODEGEN--\":640:660   */\n      calldataload\n        /* \"--CODEGEN--\":5324:5387   */\n      swap2\n      pop\n        /* \"--CODEGEN--\":5424:5426   */\n      0x40\n        /* \"--CODEGEN--\":5464:5473   */\n      dup5\n        /* \"--CODEGEN--\":5460:5482   */\n      add\n        /* \"--CODEGEN--\":206:226   */\n      calldataload\n        /* \"--CODEGEN--\":231:261   */\n      tag_707\n        /* \"--CODEGEN--\":255:260   */\n      dup2\n        /* \"--CODEGEN--\":231:261   */\n      tag_675\n      jump\t// in\n    tag_707:\n        /* \"--CODEGEN--\":5432:5492   */\n      dup1\n      swap2\n      pop\n      pop\n        /* \"--CODEGEN--\":5120:5508   */\n      swap3\n      pop\n      swap3\n      pop\n      swap3\n      jump\t// out\n        /* \"--CODEGEN--\":5515:6126   */\n    tag_150:\n      0x00\n      dup1\n      0x00\n      dup1\n        /* \"--CODEGEN--\":5667:5670   */\n      0x80\n        /* \"--CODEGEN--\":5655:5664   */\n      dup6\n        /* \"--CODEGEN--\":5646:5653   */\n      dup8\n        /* \"--CODEGEN--\":5642:5665   */\n      sub\n        /* \"--CODEGEN--\":5638:5671   */\n      slt\n        /* \"--CODEGEN--\":5635:5637   */\n      iszero\n      tag_709\n      jumpi\n      dup4\n      dup5\n        /* \"--CODEGEN--\":5674:5686   */\n      revert\n        /* \"--CODEGEN--\":5635:5637   */\n    tag_709:\n        /* \"--CODEGEN--\":653:659   */\n      dup5\n        /* \"--CODEGEN--\":640:660   */\n      calldataload\n        /* \"--CODEGEN--\":5726:5789   */\n      swap4\n      pop\n        /* \"--CODEGEN--\":5826:5828   */\n      0x20\n        /* \"--CODEGEN--\":5869:5878   */\n      dup6\n        /* \"--CODEGEN--\":5865:5887   */\n      add\n        /* \"--CODEGEN--\":640:660   */\n      calldataload\n        /* \"--CODEGEN--\":5834:5897   */\n      swap3\n      pop\n        /* \"--CODEGEN--\":5934:5936   */\n      0x40\n        /* \"--CODEGEN--\":5977:5986   */\n      dup6\n        /* \"--CODEGEN--\":5973:5995   */\n      add\n        /* \"--CODEGEN--\":640:660   */\n      calldataload\n        /* \"--CODEGEN--\":5942:6005   */\n      swap2\n      pop\n        /* \"--CODEGEN--\":6042:6044   */\n      0x60\n        /* \"--CODEGEN--\":6082:6091   */\n      dup6\n        /* \"--CODEGEN--\":6078:6100   */\n      add\n        /* \"--CODEGEN--\":206:226   */\n      calldataload\n        /* \"--CODEGEN--\":231:261   */\n      tag_702\n        /* \"--CODEGEN--\":255:260   */\n      dup2\n        /* \"--CODEGEN--\":231:261   */\n      tag_675\n      jump\t// in\n        /* \"--CODEGEN--\":17392:17663   */\n    tag_656:\n      0x00\n        /* \"--CODEGEN--\":6774:6779   */\n      dup3\n        /* \"--CODEGEN--\":32083:32095   */\n      mload\n        /* \"--CODEGEN--\":6885:6937   */\n      tag_712\n        /* \"--CODEGEN--\":6930:6936   */\n      dup2\n        /* \"--CODEGEN--\":6925:6928   */\n      dup5\n        /* \"--CODEGEN--\":6918:6922   */\n      0x20\n        /* \"--CODEGEN--\":6911:6916   */\n      dup8\n        /* \"--CODEGEN--\":6907:6923   */\n      add\n        /* \"--CODEGEN--\":6885:6937   */\n      tag_713\n      jump\t// in\n    tag_712:\n        /* \"--CODEGEN--\":6949:6965   */\n      swap2\n      swap1\n      swap2\n      add\n      swap3\n        /* \"--CODEGEN--\":17526:17663   */\n      swap2\n      pop\n      pop\n      jump\t// out\n        /* \"--CODEGEN--\":17670:17892   */\n    tag_155:\n        /* \"--CODEGEN--\":32953:32995   */\n      0xffffffffffffffffffffffffffffffffffffffff\n        /* \"--CODEGEN--\":32942:32996   */\n      swap2\n      swap1\n      swap2\n      and\n        /* \"--CODEGEN--\":6353:6390   */\n      dup2\n      mstore\n        /* \"--CODEGEN--\":17797:17799   */\n      0x20\n        /* \"--CODEGEN--\":17782:17800   */\n      add\n      swap1\n        /* \"--CODEGEN--\":17768:17892   */\n      jump\t// out\n        /* \"--CODEGEN--\":18144:18588   */\n    tag_609:\n        /* \"--CODEGEN--\":32953:32995   */\n      0xffffffffffffffffffffffffffffffffffffffff\n        /* \"--CODEGEN--\":32942:32996   */\n      swap4\n      dup5\n      and\n        /* \"--CODEGEN--\":6353:6390   */\n      dup2\n      mstore\n        /* \"--CODEGEN--\":32942:32996   */\n      swap2\n      swap1\n      swap3\n      and\n        /* \"--CODEGEN--\":18491:18493   */\n      0x20\n        /* \"--CODEGEN--\":18476:18494   */\n      dup3\n      add\n        /* \"--CODEGEN--\":6353:6390   */\n      mstore\n        /* \"--CODEGEN--\":18574:18576   */\n      0x40\n        /* \"--CODEGEN--\":18559:18577   */\n      dup2\n      add\n        /* \"--CODEGEN--\":17223:17260   */\n      swap2\n      swap1\n      swap2\n      mstore\n        /* \"--CODEGEN--\":18327:18329   */\n      0x60\n        /* \"--CODEGEN--\":18312:18330   */\n      add\n      swap1\n        /* \"--CODEGEN--\":18298:18588   */\n      jump\t// out\n        /* \"--CODEGEN--\":18595:18928   */\n    tag_296:\n        /* \"--CODEGEN--\":32953:32995   */\n      0xffffffffffffffffffffffffffffffffffffffff\n        /* \"--CODEGEN--\":32942:32996   */\n      swap3\n      swap1\n      swap3\n      and\n        /* \"--CODEGEN--\":6353:6390   */\n      dup3\n      mstore\n        /* \"--CODEGEN--\":18914:18916   */\n      0x20\n        /* \"--CODEGEN--\":18899:18917   */\n      dup3\n      add\n        /* \"--CODEGEN--\":17223:17260   */\n      mstore\n        /* \"--CODEGEN--\":18750:18752   */\n      0x40\n        /* \"--CODEGEN--\":18735:18753   */\n      add\n      swap1\n        /* \"--CODEGEN--\":18721:18928   */\n      jump\t// out\n        /* \"--CODEGEN--\":18935:19145   */\n    tag_106:\n        /* \"--CODEGEN--\":32742:32755   */\n      swap1\n      iszero\n        /* \"--CODEGEN--\":32735:32756   */\n      iszero\n        /* \"--CODEGEN--\":6457:6491   */\n      dup2\n      mstore\n        /* \"--CODEGEN--\":19056:19058   */\n      0x20\n        /* \"--CODEGEN--\":19041:19059   */\n      add\n      swap1\n        /* \"--CODEGEN--\":19027:19145   */\n      jump\t// out\n        /* \"--CODEGEN--\":19676:19986   */\n    tag_633:\n      0x00\n        /* \"--CODEGEN--\":19823:19825   */\n      0x20\n        /* \"--CODEGEN--\":19844:19861   */\n      dup3\n        /* \"--CODEGEN--\":19837:19884   */\n      mstore\n        /* \"--CODEGEN--\":7603:7608   */\n      dup3\n        /* \"--CODEGEN--\":32083:32095   */\n      mload\n        /* \"--CODEGEN--\":32522:32528   */\n      dup1\n        /* \"--CODEGEN--\":19823:19825   */\n      0x20\n        /* \"--CODEGEN--\":19812:19821   */\n      dup5\n        /* \"--CODEGEN--\":19808:19826   */\n      add\n        /* \"--CODEGEN--\":32510:32529   */\n      mstore\n        /* \"--CODEGEN--\":7697:7749   */\n      tag_722\n        /* \"--CODEGEN--\":7742:7748   */\n      dup2\n        /* \"--CODEGEN--\":32550:32564   */\n      0x40\n        /* \"--CODEGEN--\":19812:19821   */\n      dup6\n        /* \"--CODEGEN--\":32550:32564   */\n      add\n        /* \"--CODEGEN--\":19823:19825   */\n      0x20\n        /* \"--CODEGEN--\":7723:7728   */\n      dup8\n        /* \"--CODEGEN--\":7719:7735   */\n      add\n        /* \"--CODEGEN--\":7697:7749   */\n      tag_713\n      jump\t// in\n    tag_722:\n        /* \"--CODEGEN--\":34539:34541   */\n      0x1f\n        /* \"--CODEGEN--\":34519:34533   */\n      add\n        /* \"--CODEGEN--\":34535:34542   */\n      0xffffffffffffffffffffffffffffffffffffffffffffffffffffffffffffffe0\n        /* \"--CODEGEN--\":34515:34543   */\n      and\n        /* \"--CODEGEN--\":7761:7800   */\n      swap2\n      swap1\n      swap2\n      add\n        /* \"--CODEGEN--\":32550:32564   */\n      0x40\n        /* \"--CODEGEN--\":7761:7800   */\n      add\n      swap3\n        /* \"--CODEGEN--\":19794:19986   */\n      swap2\n      pop\n      pop\n      jump\t// out\n        /* \"--CODEGEN--\":19993:20409   */\n    tag_441:\n        /* \"--CODEGEN--\":20193:20195   */\n      0x20\n        /* \"--CODEGEN--\":20207:20254   */\n      dup1\n      dup3\n      mstore\n        /* \"--CODEGEN--\":8037:8039   */\n      0x2d\n        /* \"--CODEGEN--\":20178:20196   */\n      swap1\n      dup3\n      add\n        /* \"--CODEGEN--\":32510:32529   */\n      mstore\n        /* \"--CODEGEN--\":8073:8107   */\n      0x734d6173746572436865663a20536864772072617465206d7573742062652067\n        /* \"--CODEGEN--\":32550:32564   */\n      0x40\n      dup3\n      add\n        /* \"--CODEGEN--\":8053:8108   */\n      mstore\n        /* \"--CODEGEN--\":8142:8157   */\n      0x726561746572207468616e203000000000000000000000000000000000000000\n        /* \"--CODEGEN--\":8128:8140   */\n      0x60\n      dup3\n      add\n        /* \"--CODEGEN--\":8121:8158   */\n      mstore\n        /* \"--CODEGEN--\":8177:8189   */\n      0x80\n      add\n      swap1\n        /* \"--CODEGEN--\":20164:20409   */\n      jump\t// out\n        /* \"--CODEGEN--\":20416:20832   */\n    tag_645:\n        /* \"--CODEGEN--\":20616:20618   */\n      0x20\n        /* \"--CODEGEN--\":20630:20677   */\n      dup1\n      dup3\n      mstore\n        /* \"--CODEGEN--\":8428:8430   */\n      0x2a\n        /* \"--CODEGEN--\":20601:20619   */\n      swap1\n      dup3\n      add\n        /* \"--CODEGEN--\":32510:32529   */\n      mstore\n        /* \"--CODEGEN--\":8464:8498   */\n      0x5361666542455032303a204245503230206f7065726174696f6e20646964206e\n        /* \"--CODEGEN--\":32550:32564   */\n      0x40\n      dup3\n      add\n        /* \"--CODEGEN--\":8444:8499   */\n      mstore\n        /* \"--CODEGEN--\":8533:8545   */\n      0x6f74207375636365656400000000000000000000000000000000000000000000\n        /* \"--CODEGEN--\":8519:8531   */\n      0x60\n      dup3\n      add\n        /* \"--CODEGEN--\":8512:8546   */\n      mstore\n        /* \"--CODEGEN--\":8565:8577   */\n      0x80\n      add\n      swap1\n        /* \"--CODEGEN--\":20587:20832   */\n      jump\t// out\n        /* \"--CODEGEN--\":20839:21255   */\n    tag_571:\n        /* \"--CODEGEN--\":21039:21041   */\n      0x20\n        /* \"--CODEGEN--\":21053:21100   */\n      dup1\n      dup3\n      mstore\n        /* \"--CODEGEN--\":8816:8818   */\n      0x26\n        /* \"--CODEGEN--\":21024:21042   */\n      swap1\n      dup3\n      add\n        /* \"--CODEGEN--\":32510:32529   */\n      mstore\n        /* \"--CODEGEN--\":8852:8886   */\n      0x4f776e61626c653a206e6577206f776e657220697320746865207a65726f2061\n        /* \"--CODEGEN--\":32550:32564   */\n      0x40\n      dup3\n      add\n        /* \"--CODEGEN--\":8832:8887   */\n      mstore\n        /* \"--CODEGEN--\":8921:8929   */\n      0x6464726573730000000000000000000000000000000000000000000000000000\n        /* \"--CODEGEN--\":8907:8919   */\n      0x60\n      dup3\n      add\n        /* \"--CODEGEN--\":8900:8930   */\n      mstore\n        /* \"--CODEGEN--\":8949:8961   */\n      0x80\n      add\n      swap1\n        /* \"--CODEGEN--\":21010:21255   */\n      jump\t// out\n        /* \"--CODEGEN--\":21262:21678   */\n    tag_604:\n        /* \"--CODEGEN--\":21462:21464   */\n      0x20\n        /* \"--CODEGEN--\":21476:21523   */\n      dup1\n      dup3\n      mstore\n        /* \"--CODEGEN--\":9200:9202   */\n      0x1b\n        /* \"--CODEGEN--\":21447:21465   */\n      swap1\n      dup3\n      add\n        /* \"--CODEGEN--\":32510:32529   */\n      mstore\n        /* \"--CODEGEN--\":9236:9265   */\n      0x536166654d6174683a206164646974696f6e206f766572666c6f770000000000\n        /* \"--CODEGEN--\":32550:32564   */\n      0x40\n      dup3\n      add\n        /* \"--CODEGEN--\":9216:9266   */\n      mstore\n        /* \"--CODEGEN--\":9285:9297   */\n      0x60\n      add\n      swap1\n        /* \"--CODEGEN--\":21433:21678   */\n      jump\t// out\n        /* \"--CODEGEN--\":21685:22101   */\n    tag_446:\n        /* \"--CODEGEN--\":21885:21887   */\n      0x20\n        /* \"--CODEGEN--\":21899:21946   */\n      dup1\n      dup3\n      mstore\n        /* \"--CODEGEN--\":9536:9538   */\n      0x24\n        /* \"--CODEGEN--\":21870:21888   */\n      swap1\n      dup3\n      add\n        /* \"--CODEGEN--\":32510:32529   */\n      mstore\n        /* \"--CODEGEN--\":9572:9606   */\n      0x734d6173746572436865663a20546f74616c2072617465206d75737420626520\n        /* \"--CODEGEN--\":32550:32564   */\n      0x40\n      dup3\n      add\n        /* \"--CODEGEN--\":9552:9607   */\n      mstore\n        /* \"--CODEGEN--\":9641:9647   */\n      0x3165313200000000000000000000000000000000000000000000000000000000\n        /* \"--CODEGEN--\":9627:9639   */\n      0x60\n      dup3\n      add\n        /* \"--CODEGEN--\":9620:9648   */\n      mstore\n        /* \"--CODEGEN--\":9667:9679   */\n      0x80\n      add\n      swap1\n        /* \"--CODEGEN--\":21856:22101   */\n      jump\t// out\n        /* \"--CODEGEN--\":22108:22524   */\n    tag_292:\n        /* \"--CODEGEN--\":22308:22310   */\n      0x20\n        /* \"--CODEGEN--\":22322:22369   */\n      dup1\n      dup3\n      mstore\n        /* \"--CODEGEN--\":9918:9920   */\n      0x22\n        /* \"--CODEGEN--\":22293:22311   */\n      swap1\n      dup3\n      add\n        /* \"--CODEGEN--\":32510:32529   */\n      mstore\n        /* \"--CODEGEN--\":9954:9988   */\n      0x734d6173746572436865663a2042616c616e6365206d75737420657863656564\n        /* \"--CODEGEN--\":32550:32564   */\n      0x40\n      dup3\n      add\n        /* \"--CODEGEN--\":9934:9989   */\n      mstore\n        /* \"--CODEGEN--\":10023:10027   */\n      0x2030000000000000000000000000000000000000000000000000000000000000\n        /* \"--CODEGEN--\":10009:10021   */\n      0x60\n      dup3\n      add\n        /* \"--CODEGEN--\":10002:10028   */\n      mstore\n        /* \"--CODEGEN--\":10047:10059   */\n      0x80\n      add\n      swap1\n        /* \"--CODEGEN--\":22279:22524   */\n      jump\t// out\n        /* \"--CODEGEN--\":22531:22947   */\n    tag_594:\n        /* \"--CODEGEN--\":22731:22733   */\n      0x20\n        /* \"--CODEGEN--\":22745:22792   */\n      dup1\n      dup3\n      mstore\n        /* \"--CODEGEN--\":10298:10300   */\n      0x21\n        /* \"--CODEGEN--\":22716:22734   */\n      swap1\n      dup3\n      add\n        /* \"--CODEGEN--\":32510:32529   */\n      mstore\n        /* \"--CODEGEN--\":10334:10368   */\n      0x536166654d6174683a206d756c7469706c69636174696f6e206f766572666c6f\n        /* \"--CODEGEN--\":32550:32564   */\n      0x40\n      dup3\n      add\n        /* \"--CODEGEN--\":10314:10369   */\n      mstore\n        /* \"--CODEGEN--\":10403:10406   */\n      0x7700000000000000000000000000000000000000000000000000000000000000\n        /* \"--CODEGEN--\":10389:10401   */\n      0x60\n      dup3\n      add\n        /* \"--CODEGEN--\":10382:10407   */\n      mstore\n        /* \"--CODEGEN--\":10426:10438   */\n      0x80\n      add\n      swap1\n        /* \"--CODEGEN--\":22702:22947   */\n      jump\t// out\n        /* \"--CODEGEN--\":22954:23370   */\n    tag_330:\n        /* \"--CODEGEN--\":23154:23156   */\n      0x20\n        /* \"--CODEGEN--\":23168:23215   */\n      dup1\n      dup3\n      mstore\n        /* \"--CODEGEN--\":10677:10679   */\n      0x16\n        /* \"--CODEGEN--\":23139:23157   */\n      swap1\n      dup3\n      add\n        /* \"--CODEGEN--\":32510:32529   */\n      mstore\n        /* \"--CODEGEN--\":10713:10737   */\n      0x77697468647261773a20496e73756666696369656e7400000000000000000000\n        /* \"--CODEGEN--\":32550:32564   */\n      0x40\n      dup3\n      add\n        /* \"--CODEGEN--\":10693:10738   */\n      mstore\n        /* \"--CODEGEN--\":10757:10769   */\n      0x60\n      add\n      swap1\n        /* \"--CODEGEN--\":23125:23370   */\n      jump\t// out\n        /* \"--CODEGEN--\":23377:23793   */\n    tag_482:\n        /* \"--CODEGEN--\":23577:23579   */\n      0x20\n        /* \"--CODEGEN--\":23591:23638   */\n      dup1\n      dup3\n      mstore\n        /* \"--CODEGEN--\":11008:11010   */\n      0x11\n        /* \"--CODEGEN--\":23562:23580   */\n      swap1\n      dup3\n      add\n        /* \"--CODEGEN--\":32510:32529   */\n      mstore\n        /* \"--CODEGEN--\":11044:11063   */\n      0x4e6f6e6520424550323020746f6b656e73000000000000000000000000000000\n        /* \"--CODEGEN--\":32550:32564   */\n      0x40\n      dup3\n      add\n        /* \"--CODEGEN--\":11024:11064   */\n      mstore\n        /* \"--CODEGEN--\":11083:11095   */\n      0x60\n      add\n      swap1\n        /* \"--CODEGEN--\":23548:23793   */\n      jump\t// out\n        /* \"--CODEGEN--\":23800:24216   */\n    tag_268:\n        /* \"--CODEGEN--\":24000:24002   */\n      0x20\n        /* \"--CODEGEN--\":24014:24061   */\n      dup1\n      dup3\n      mstore\n        /* \"--CODEGEN--\":23985:24003   */\n      dup2\n      dup2\n      add\n        /* \"--CODEGEN--\":32510:32529   */\n      mstore\n        /* \"--CODEGEN--\":11370:11404   */\n      0x4f776e61626c653a2063616c6c6572206973206e6f7420746865206f776e6572\n        /* \"--CODEGEN--\":32550:32564   */\n      0x40\n      dup3\n      add\n        /* \"--CODEGEN--\":11350:11405   */\n      mstore\n        /* \"--CODEGEN--\":11424:11436   */\n      0x60\n      add\n      swap1\n        /* \"--CODEGEN--\":23971:24216   */\n      jump\t// out\n        /* \"--CODEGEN--\":24223:24639   */\n    tag_221:\n        /* \"--CODEGEN--\":24423:24425   */\n      0x20\n        /* \"--CODEGEN--\":24437:24484   */\n      dup1\n      dup3\n      mstore\n        /* \"--CODEGEN--\":11675:11677   */\n      0x29\n        /* \"--CODEGEN--\":24408:24426   */\n      swap1\n      dup3\n      add\n        /* \"--CODEGEN--\":32510:32529   */\n      mstore\n        /* \"--CODEGEN--\":11711:11745   */\n      0x4f776e61626c653a2063616c6c6572206973206e6f742074686520626f6f7374\n        /* \"--CODEGEN--\":32550:32564   */\n      0x40\n      dup3\n      add\n        /* \"--CODEGEN--\":11691:11746   */\n      mstore\n        /* \"--CODEGEN--\":11780:11791   */\n      0x20636f6e74726163740000000000000000000000000000000000000000000000\n        /* \"--CODEGEN--\":11766:11778   */\n      0x60\n      dup3\n      add\n        /* \"--CODEGEN--\":11759:11792   */\n      mstore\n        /* \"--CODEGEN--\":11811:11823   */\n      0x80\n      add\n      swap1\n        /* \"--CODEGEN--\":24394:24639   */\n      jump\t// out\n        /* \"--CODEGEN--\":24646:25062   */\n    tag_530:\n        /* \"--CODEGEN--\":24846:24848   */\n      0x20\n        /* \"--CODEGEN--\":24860:24907   */\n      dup1\n      dup3\n      mstore\n        /* \"--CODEGEN--\":12062:12064   */\n      0x41\n        /* \"--CODEGEN--\":24831:24849   */\n      swap1\n      dup3\n      add\n        /* \"--CODEGEN--\":32510:32529   */\n      mstore\n        /* \"--CODEGEN--\":12098:12132   */\n      0x734d6173746572436865663a205468652061646472657373206973206e6f7420\n        /* \"--CODEGEN--\":32550:32564   */\n      0x40\n      dup3\n      add\n        /* \"--CODEGEN--\":12078:12133   */\n      mstore\n        /* \"--CODEGEN--\":12167:12201   */\n      0x617661696c61626c6520746f206465706f73697420696e207468697320706f6f\n        /* \"--CODEGEN--\":12153:12165   */\n      0x60\n      dup3\n      add\n        /* \"--CODEGEN--\":12146:12202   */\n      mstore\n        /* \"--CODEGEN--\":12236:12239   */\n      0x6c00000000000000000000000000000000000000000000000000000000000000\n        /* \"--CODEGEN--\":12222:12234   */\n      0x80\n      dup3\n      add\n        /* \"--CODEGEN--\":12215:12240   */\n      mstore\n        /* \"--CODEGEN--\":12259:12271   */\n      0xa0\n      add\n      swap1\n        /* \"--CODEGEN--\":24817:25062   */\n      jump\t// out\n        /* \"--CODEGEN--\":25069:25485   */\n    tag_654:\n        /* \"--CODEGEN--\":25269:25271   */\n      0x20\n        /* \"--CODEGEN--\":25283:25330   */\n      dup1\n      dup3\n      mstore\n        /* \"--CODEGEN--\":12510:12512   */\n      0x1d\n        /* \"--CODEGEN--\":25254:25272   */\n      swap1\n      dup3\n      add\n        /* \"--CODEGEN--\":32510:32529   */\n      mstore\n        /* \"--CODEGEN--\":12546:12577   */\n      0x416464726573733a2063616c6c20746f206e6f6e2d636f6e7472616374000000\n        /* \"--CODEGEN--\":32550:32564   */\n      0x40\n      dup3\n      add\n        /* \"--CODEGEN--\":12526:12578   */\n      mstore\n        /* \"--CODEGEN--\":12597:12609   */\n      0x60\n      add\n      swap1\n        /* \"--CODEGEN--\":25240:25485   */\n      jump\t// out\n        /* \"--CODEGEN--\":25492:25908   */\n    tag_275:\n        /* \"--CODEGEN--\":25692:25694   */\n      0x20\n        /* \"--CODEGEN--\":25706:25753   */\n      dup1\n      dup3\n      mstore\n        /* \"--CODEGEN--\":12848:12850   */\n      0x40\n        /* \"--CODEGEN--\":25677:25695   */\n      swap1\n      dup3\n      add\n        /* \"--CODEGEN--\":32510:32529   */\n      dup2\n      swap1\n      mstore\n        /* \"--CODEGEN--\":12884:12918   */\n      0x734d6173746572436865663a204275726e2061646d696e206164647265737320\n        /* \"--CODEGEN--\":32550:32564   */\n      swap1\n      dup3\n      add\n        /* \"--CODEGEN--\":12864:12919   */\n      mstore\n        /* \"--CODEGEN--\":12953:12987   */\n      0x6973207468652073616d6520776974682063757272656e742061646472657373\n        /* \"--CODEGEN--\":12939:12951   */\n      0x60\n      dup3\n      add\n        /* \"--CODEGEN--\":12932:12988   */\n      mstore\n        /* \"--CODEGEN--\":13007:13019   */\n      0x80\n      add\n      swap1\n        /* \"--CODEGEN--\":25663:25908   */\n      jump\t// out\n        /* \"--CODEGEN--\":25915:26331   */\n    tag_238:\n        /* \"--CODEGEN--\":26115:26117   */\n      0x20\n        /* \"--CODEGEN--\":26129:26176   */\n      dup1\n      dup3\n      mstore\n        /* \"--CODEGEN--\":13258:13260   */\n      0x29\n        /* \"--CODEGEN--\":26100:26118   */\n      swap1\n      dup3\n      add\n        /* \"--CODEGEN--\":32510:32529   */\n      mstore\n        /* \"--CODEGEN--\":13294:13328   */\n      0x734d6173746572436865663a20496e76616c6964206e657720626f6f7374206d\n        /* \"--CODEGEN--\":32550:32564   */\n      0x40\n      dup3\n      add\n        /* \"--CODEGEN--\":13274:13329   */\n      mstore\n        /* \"--CODEGEN--\":13363:13374   */\n      0x756c7469706c6965720000000000000000000000000000000000000000000000\n        /* \"--CODEGEN--\":13349:13361   */\n      0x60\n      dup3\n      add\n        /* \"--CODEGEN--\":13342:13375   */\n      mstore\n        /* \"--CODEGEN--\":13394:13406   */\n      0x80\n      add\n      swap1\n        /* \"--CODEGEN--\":26086:26331   */\n      jump\t// out\n        /* \"--CODEGEN--\":26338:26754   */\n    tag_485:\n        /* \"--CODEGEN--\":26538:26540   */\n      0x20\n        /* \"--CODEGEN--\":26552:26599   */\n      dup1\n      dup3\n      mstore\n        /* \"--CODEGEN--\":13645:13647   */\n      0x27\n        /* \"--CODEGEN--\":26523:26541   */\n      swap1\n      dup3\n      add\n        /* \"--CODEGEN--\":32510:32529   */\n      mstore\n        /* \"--CODEGEN--\":13681:13715   */\n      0x5348445720746f6b656e2063616e277420626520616464656420746f20666172\n        /* \"--CODEGEN--\":32550:32564   */\n      0x40\n      dup3\n      add\n        /* \"--CODEGEN--\":13661:13716   */\n      mstore\n        /* \"--CODEGEN--\":13750:13759   */\n      0x6d20706f6f6c7300000000000000000000000000000000000000000000000000\n        /* \"--CODEGEN--\":13736:13748   */\n      0x60\n      dup3\n      add\n        /* \"--CODEGEN--\":13729:13760   */\n      mstore\n        /* \"--CODEGEN--\":13779:13791   */\n      0x80\n      add\n      swap1\n        /* \"--CODEGEN--\":26509:26754   */\n      jump\t// out\n        /* \"--CODEGEN--\":26761:27177   */\n    tag_272:\n        /* \"--CODEGEN--\":26961:26963   */\n      0x20\n        /* \"--CODEGEN--\":26975:27022   */\n      dup1\n      dup3\n      mstore\n        /* \"--CODEGEN--\":14030:14032   */\n      0x2d\n        /* \"--CODEGEN--\":26946:26964   */\n      swap1\n      dup3\n      add\n        /* \"--CODEGEN--\":32510:32529   */\n      mstore\n        /* \"--CODEGEN--\":14066:14100   */\n      0x734d6173746572436865663a204275726e2061646d696e206164647265737320\n        /* \"--CODEGEN--\":32550:32564   */\n      0x40\n      dup3\n      add\n        /* \"--CODEGEN--\":14046:14101   */\n      mstore\n        /* \"--CODEGEN--\":14135:14150   */\n      0x6d7573742062652076616c696400000000000000000000000000000000000000\n        /* \"--CODEGEN--\":14121:14133   */\n      0x60\n      dup3\n      add\n        /* \"--CODEGEN--\":14114:14151   */\n      mstore\n        /* \"--CODEGEN--\":14170:14182   */\n      0x80\n      add\n      swap1\n        /* \"--CODEGEN--\":26932:27177   */\n      jump\t// out\n        /* \"--CODEGEN--\":27184:27600   */\n    tag_225:\n        /* \"--CODEGEN--\":27384:27386   */\n      0x20\n        /* \"--CODEGEN--\":27398:27445   */\n      dup1\n      dup3\n      mstore\n        /* \"--CODEGEN--\":14421:14423   */\n      0x1f\n        /* \"--CODEGEN--\":27369:27387   */\n      swap1\n      dup3\n      add\n        /* \"--CODEGEN--\":32510:32529   */\n      mstore\n        /* \"--CODEGEN--\":14457:14490   */\n      0x5265656e7472616e637947756172643a207265656e7472616e742063616c6c00\n        /* \"--CODEGEN--\":32550:32564   */\n      0x40\n      dup3\n      add\n        /* \"--CODEGEN--\":14437:14491   */\n      mstore\n        /* \"--CODEGEN--\":14510:14522   */\n      0x60\n      add\n      swap1\n        /* \"--CODEGEN--\":27355:27600   */\n      jump\t// out\n        /* \"--CODEGEN--\":27607:28023   */\n    tag_460:\n        /* \"--CODEGEN--\":27807:27809   */\n      0x20\n        /* \"--CODEGEN--\":27821:27868   */\n      dup1\n      dup3\n      mstore\n        /* \"--CODEGEN--\":14761:14763   */\n      0x35\n        /* \"--CODEGEN--\":27792:27810   */\n      swap1\n      dup3\n      add\n        /* \"--CODEGEN--\":32510:32529   */\n      mstore\n        /* \"--CODEGEN--\":14797:14831   */\n      0x734d6173746572436865663a204e657720626f6f737420636f6e747261637420\n        /* \"--CODEGEN--\":32550:32564   */\n      0x40\n      dup3\n      add\n        /* \"--CODEGEN--\":14777:14832   */\n      mstore\n        /* \"--CODEGEN--\":14866:14889   */\n      0x61646472657373206d7573742062652076616c69640000000000000000000000\n        /* \"--CODEGEN--\":14852:14864   */\n      0x60\n      dup3\n      add\n        /* \"--CODEGEN--\":14845:14890   */\n      mstore\n        /* \"--CODEGEN--\":14909:14921   */\n      0x80\n      add\n      swap1\n        /* \"--CODEGEN--\":27778:28023   */\n      jump\t// out\n        /* \"--CODEGEN--\":28030:28446   */\n    tag_234:\n        /* \"--CODEGEN--\":28230:28232   */\n      0x20\n        /* \"--CODEGEN--\":28244:28291   */\n      dup1\n      dup3\n      mstore\n        /* \"--CODEGEN--\":15160:15162   */\n      0x2f\n        /* \"--CODEGEN--\":28215:28233   */\n      swap1\n      dup3\n      add\n        /* \"--CODEGEN--\":32510:32529   */\n      mstore\n        /* \"--CODEGEN--\":15196:15230   */\n      0x734d6173746572436865663a204f6e6c7920726567756c6172206661726d2063\n        /* \"--CODEGEN--\":32550:32564   */\n      0x40\n      dup3\n      add\n        /* \"--CODEGEN--\":15176:15231   */\n      mstore\n        /* \"--CODEGEN--\":15265:15282   */\n      0x6f756c6420626520626f6f737465640000000000000000000000000000000000\n        /* \"--CODEGEN--\":15251:15263   */\n      0x60\n      dup3\n      add\n        /* \"--CODEGEN--\":15244:15283   */\n      mstore\n        /* \"--CODEGEN--\":15302:15314   */\n      0x80\n      add\n      swap1\n        /* \"--CODEGEN--\":28201:28446   */\n      jump\t// out\n        /* \"--CODEGEN--\":28453:28869   */\n    tag_229:\n        /* \"--CODEGEN--\":28653:28655   */\n      0x20\n        /* \"--CODEGEN--\":28667:28714   */\n      dup1\n      dup3\n      mstore\n        /* \"--CODEGEN--\":15553:15555   */\n      0x2b\n        /* \"--CODEGEN--\":28638:28656   */\n      swap1\n      dup3\n      add\n        /* \"--CODEGEN--\":32510:32529   */\n      mstore\n        /* \"--CODEGEN--\":15589:15623   */\n      0x734d6173746572436865663a2054686520757365722061646472657373206d75\n        /* \"--CODEGEN--\":32550:32564   */\n      0x40\n      dup3\n      add\n        /* \"--CODEGEN--\":15569:15624   */\n      mstore\n        /* \"--CODEGEN--\":15658:15671   */\n      0x73742062652076616c6964000000000000000000000000000000000000000000\n        /* \"--CODEGEN--\":15644:15656   */\n      0x60\n      dup3\n      add\n        /* \"--CODEGEN--\":15637:15672   */\n      mstore\n        /* \"--CODEGEN--\":15691:15703   */\n      0x80\n      add\n      swap1\n        /* \"--CODEGEN--\":28624:28869   */\n      jump\t// out\n        /* \"--CODEGEN--\":28876:29292   */\n    tag_468:\n        /* \"--CODEGEN--\":29076:29078   */\n      0x20\n        /* \"--CODEGEN--\":29090:29137   */\n      dup1\n      dup3\n      mstore\n        /* \"--CODEGEN--\":15942:15944   */\n      0x31\n        /* \"--CODEGEN--\":29061:29079   */\n      swap1\n      dup3\n      add\n        /* \"--CODEGEN--\":32510:32529   */\n      mstore\n        /* \"--CODEGEN--\":15978:16012   */\n      0x734d6173746572436865663a20546865207768697465206c6973742061646472\n        /* \"--CODEGEN--\":32550:32564   */\n      0x40\n      dup3\n      add\n        /* \"--CODEGEN--\":15958:16013   */\n      mstore\n        /* \"--CODEGEN--\":16047:16066   */\n      0x657373206d7573742062652076616c6964000000000000000000000000000000\n        /* \"--CODEGEN--\":16033:16045   */\n      0x60\n      dup3\n      add\n        /* \"--CODEGEN--\":16026:16067   */\n      mstore\n        /* \"--CODEGEN--\":16086:16098   */\n      0x80\n      add\n      swap1\n        /* \"--CODEGEN--\":29047:29292   */\n      jump\t// out\n        /* \"--CODEGEN--\":29299:29622   */\n    tag_117:\n      0x00\n        /* \"--CODEGEN--\":29476:29479   */\n      0xa0\n        /* \"--CODEGEN--\":29465:29474   */\n      dup3\n        /* \"--CODEGEN--\":29461:29480   */\n      add\n        /* \"--CODEGEN--\":29453:29480   */\n      swap1\n      pop\n        /* \"--CODEGEN--\":16403:16419   */\n      dup3\n        /* \"--CODEGEN--\":16397:16420   */\n      mload\n        /* \"--CODEGEN--\":17230:17233   */\n      dup3\n        /* \"--CODEGEN--\":17223:17260   */\n      mstore\n        /* \"--CODEGEN--\":16579:16583   */\n      0x20\n        /* \"--CODEGEN--\":16572:16577   */\n      dup4\n        /* \"--CODEGEN--\":16568:16584   */\n      add\n        /* \"--CODEGEN--\":16562:16585   */\n      mload\n        /* \"--CODEGEN--\":16579:16583   */\n      0x20\n        /* \"--CODEGEN--\":16643:16646   */\n      dup4\n        /* \"--CODEGEN--\":16639:16653   */\n      add\n        /* \"--CODEGEN--\":17223:17260   */\n      mstore\n        /* \"--CODEGEN--\":16739:16743   */\n      0x40\n        /* \"--CODEGEN--\":16732:16737   */\n      dup4\n        /* \"--CODEGEN--\":16728:16744   */\n      add\n        /* \"--CODEGEN--\":16722:16745   */\n      mload\n        /* \"--CODEGEN--\":16739:16743   */\n      0x40\n        /* \"--CODEGEN--\":16803:16806   */\n      dup4\n        /* \"--CODEGEN--\":16799:16813   */\n      add\n        /* \"--CODEGEN--\":17223:17260   */\n      mstore\n        /* \"--CODEGEN--\":16906:16910   */\n      0x60\n        /* \"--CODEGEN--\":16899:16904   */\n      dup4\n        /* \"--CODEGEN--\":16895:16911   */\n      add\n        /* \"--CODEGEN--\":16889:16912   */\n      mload\n        /* \"--CODEGEN--\":16906:16910   */\n      0x60\n        /* \"--CODEGEN--\":16970:16973   */\n      dup4\n        /* \"--CODEGEN--\":16966:16980   */\n      add\n        /* \"--CODEGEN--\":17223:17260   */\n      mstore\n        /* \"--CODEGEN--\":17065:17069   */\n      0x80\n        /* \"--CODEGEN--\":17058:17063   */\n      dup4\n        /* \"--CODEGEN--\":17054:17070   */\n      add\n        /* \"--CODEGEN--\":17048:17071   */\n      mload\n        /* \"--CODEGEN--\":32742:32755   */\n      iszero\n        /* \"--CODEGEN--\":32735:32756   */\n      iszero\n        /* \"--CODEGEN--\":17065:17069   */\n      0x80\n        /* \"--CODEGEN--\":17123:17126   */\n      dup4\n        /* \"--CODEGEN--\":17119:17133   */\n      add\n        /* \"--CODEGEN--\":6457:6491   */\n      mstore\n        /* \"--CODEGEN--\":29447:29622   */\n      swap3\n      swap2\n      pop\n      pop\n      jump\t// out\n        /* \"--CODEGEN--\":29629:29851   */\n    tag_66:\n        /* \"--CODEGEN--\":17223:17260   */\n      swap1\n      dup2\n      mstore\n        /* \"--CODEGEN--\":29756:29758   */\n      0x20\n        /* \"--CODEGEN--\":29741:29759   */\n      add\n      swap1\n        /* \"--CODEGEN--\":29727:29851   */\n      jump\t// out\n        /* \"--CODEGEN--\":29858:30179   */\n    tag_496:\n        /* \"--CODEGEN--\":17223:17260   */\n      swap2\n      dup3\n      mstore\n        /* \"--CODEGEN--\":32742:32755   */\n      iszero\n        /* \"--CODEGEN--\":32735:32756   */\n      iszero\n        /* \"--CODEGEN--\":30165:30167   */\n      0x20\n        /* \"--CODEGEN--\":30150:30168   */\n      dup3\n      add\n        /* \"--CODEGEN--\":6457:6491   */\n      mstore\n        /* \"--CODEGEN--\":30007:30009   */\n      0x40\n        /* \"--CODEGEN--\":29992:30010   */\n      add\n      swap1\n        /* \"--CODEGEN--\":29978:30179   */\n      jump\t// out\n        /* \"--CODEGEN--\":30186:30535   */\n    tag_353:\n        /* \"--CODEGEN--\":17223:17260   */\n      swap2\n      dup3\n      mstore\n        /* \"--CODEGEN--\":30521:30523   */\n      0x20\n        /* \"--CODEGEN--\":30506:30524   */\n      dup3\n      add\n        /* \"--CODEGEN--\":7388:7446   */\n      mstore\n        /* \"--CODEGEN--\":30349:30351   */\n      0x40\n        /* \"--CODEGEN--\":30334:30352   */\n      add\n      swap1\n        /* \"--CODEGEN--\":30320:30535   */\n      jump\t// out\n        /* \"--CODEGEN--\":30882:31326   */\n    tag_164:\n        /* \"--CODEGEN--\":17223:17260   */\n      swap3\n      dup4\n      mstore\n        /* \"--CODEGEN--\":31229:31231   */\n      0x20\n        /* \"--CODEGEN--\":31214:31232   */\n      dup4\n      add\n        /* \"--CODEGEN--\":17223:17260   */\n      swap2\n      swap1\n      swap2\n      mstore\n        /* \"--CODEGEN--\":31312:31314   */\n      0x40\n        /* \"--CODEGEN--\":31297:31315   */\n      dup3\n      add\n        /* \"--CODEGEN--\":17223:17260   */\n      mstore\n        /* \"--CODEGEN--\":31065:31067   */\n      0x60\n        /* \"--CODEGEN--\":31050:31068   */\n      add\n      swap1\n        /* \"--CODEGEN--\":31036:31326   */\n      jump\t// out\n        /* \"--CODEGEN--\":31333:31989   */\n    tag_87:\n        /* \"--CODEGEN--\":17223:17260   */\n      swap5\n      dup6\n      mstore\n        /* \"--CODEGEN--\":31731:31733   */\n      0x20\n        /* \"--CODEGEN--\":31716:31734   */\n      dup6\n      add\n        /* \"--CODEGEN--\":17223:17260   */\n      swap4\n      swap1\n      swap4\n      mstore\n        /* \"--CODEGEN--\":31814:31816   */\n      0x40\n        /* \"--CODEGEN--\":31799:31817   */\n      dup5\n      add\n        /* \"--CODEGEN--\":17223:17260   */\n      swap2\n      swap1\n      swap2\n      mstore\n        /* \"--CODEGEN--\":31897:31899   */\n      0x60\n        /* \"--CODEGEN--\":31882:31900   */\n      dup4\n      add\n        /* \"--CODEGEN--\":17223:17260   */\n      mstore\n        /* \"--CODEGEN--\":32742:32755   */\n      iszero\n        /* \"--CODEGEN--\":32735:32756   */\n      iszero\n        /* \"--CODEGEN--\":31974:31977   */\n      0x80\n        /* \"--CODEGEN--\":31959:31978   */\n      dup3\n      add\n        /* \"--CODEGEN--\":6457:6491   */\n      mstore\n        /* \"--CODEGEN--\":31566:31569   */\n      0xa0\n        /* \"--CODEGEN--\":31551:31570   */\n      add\n      swap1\n        /* \"--CODEGEN--\":31537:31989   */\n      jump\t// out\n        /* \"--CODEGEN--\":34175:34443   */\n    tag_713:\n        /* \"--CODEGEN--\":34240:34241   */\n      0x00\n        /* \"--CODEGEN--\":34247:34348   */\n    tag_753:\n        /* \"--CODEGEN--\":34261:34267   */\n      dup4\n        /* \"--CODEGEN--\":34258:34259   */\n      dup2\n        /* \"--CODEGEN--\":34255:34268   */\n      lt\n        /* \"--CODEGEN--\":34247:34348   */\n      iszero\n      tag_755\n      jumpi\n        /* \"--CODEGEN--\":34328:34339   */\n      dup2\n      dup2\n      add\n        /* \"--CODEGEN--\":34322:34340   */\n      mload\n        /* \"--CODEGEN--\":34309:34320   */\n      dup4\n      dup3\n      add\n        /* \"--CODEGEN--\":34302:34341   */\n      mstore\n        /* \"--CODEGEN--\":34283:34285   */\n      0x20\n        /* \"--CODEGEN--\":34276:34286   */\n      add\n        /* \"--CODEGEN--\":34247:34348   */\n      jump(tag_753)\n    tag_755:\n        /* \"--CODEGEN--\":34363:34369   */\n      dup4\n        /* \"--CODEGEN--\":34360:34361   */\n      dup2\n        /* \"--CODEGEN--\":34357:34370   */\n      gt\n        /* \"--CODEGEN--\":34354:34356   */\n      iszero\n      tag_356\n      jumpi\n      pop\n      pop\n        /* \"--CODEGEN--\":34240:34241   */\n      0x00\n        /* \"--CODEGEN--\":34410:34426   */\n      swap2\n      add\n        /* \"--CODEGEN--\":34403:34430   */\n      mstore\n        /* \"--CODEGEN--\":34224:34443   */\n      jump\t// out\n        /* \"--CODEGEN--\":34556:34673   */\n    tag_670:\n        /* \"--CODEGEN--\":32953:32995   */\n      0xffffffffffffffffffffffffffffffffffffffff\n        /* \"--CODEGEN--\":34643:34648   */\n      dup2\n        /* \"--CODEGEN--\":32942:32996   */\n      and\n        /* \"--CODEGEN--\":34618:34623   */\n      dup2\n        /* \"--CODEGEN--\":34615:34650   */\n      eq\n        /* \"--CODEGEN--\":34605:34607   */\n      tag_758\n      jumpi\n        /* \"--CODEGEN--\":34664:34665   */\n      0x00\n      dup1\n        /* \"--CODEGEN--\":34654:34666   */\n      revert\n        /* \"--CODEGEN--\":34605:34607   */\n    tag_758:\n        /* \"--CODEGEN--\":34599:34673   */\n      pop\n      jump\t// out\n        /* \"--CODEGEN--\":34680:34791   */\n    tag_675:\n        /* \"--CODEGEN--\":34761:34766   */\n      dup1\n        /* \"--CODEGEN--\":32742:32755   */\n      iszero\n        /* \"--CODEGEN--\":32735:32756   */\n      iszero\n        /* \"--CODEGEN--\":34739:34744   */\n      dup2\n        /* \"--CODEGEN--\":34736:34768   */\n      eq\n        /* \"--CODEGEN--\":34726:34728   */\n      tag_758\n      jumpi\n        /* \"--CODEGEN--\":34782:34783   */\n      0x00\n      dup1\n        /* \"--CODEGEN--\":34772:34784   */\n      revert\n\n    auxdata: 0xa2646970667358221220d18afb1e29210e815a91a31352105dfb52e75557f02218e839513c20d61f7f6d64736f6c634300060c0033\n}\n",
				"bytecode": {
					"linkReferences": {},
					"object": "60e06040526495e27d7580600a55640ea1fc81ce600b556444502b18b2600c553480156200002c57600080fd5b5060405162003cca38038062003cca8339810160408190526200004f91620000f3565b60006200005b620000ef565b600080546001600160a01b0319166001600160a01b0383169081178255604051929350917f8be0079c531659141344cd1fd0a4f28419497f9722a3daafe3b4186f6b6457e0908290a35060018055606093841b6001600160601b03199081166080529290931b90911660a05260c052600280546001600160a01b0319166001600160a01b0390921691909117905562000167565b3390565b6000806000806080858703121562000109578384fd5b845162000116816200014e565b602086015190945062000129816200014e565b60408601516060870151919450925062000143816200014e565b939692955090935050565b6001600160a01b03811681146200016457600080fd5b50565b60805160601c60a05160601c60c051613b03620001c760003980610dcb52806111dc52806115415250806105dc5280611e2f5280612af65280612bc95280612c76525080610ce45280610d9e52806111af5280611ccc5250613b036000f3fe608060405234801561001057600080fd5b50600436106102e95760003560e01c8063715018a611610191578063c40d337b116100e3578063dfcedeee11610097578063f474309e11610071578063f474309e14610561578063f5a26f4014610574578063f5b91cd31461057c576102e9565b8063dfcedeee14610533578063e2bbb1581461053b578063f2fde38b1461054e576102e9565b8063c799b59d116100c8578063c799b59d14610518578063cc6db2da1461052b578063d2ce6ae81461052b576102e9565b8063c40d337b146104fd578063c507aeaa14610505576102e9565b80638da5cb5b116101455780639dd2fcc31161011f5780639dd2fcc3146104cf578063ac1d0609146104e2578063c3083016146104f5576102e9565b80638da5cb5b1461049d57806393f1a40b146104a557806399d7e84a146104c7576102e9565b806378ed5d1f1161017657806378ed5d1f1461046f578063815d087f1461048257806381bdf98c14610495576102e9565b8063715018a61461045f57806378db4c3414610467576102e9565b8063372c12b11161024a57806361621aaa116101fe5780636661100f116101d85780636661100f1461044757806369b021281461044f5780636fda08c314610457576102e9565b806361621aaa14610424578063630b5ba11461042c57806364482f7914610434576102e9565b80634f70b15a1161022f5780634f70b15a146103e957806351eb05a6146103f15780635312ea8e14610411576102e9565b8063372c12b1146103b6578063441a3e70146103d6576102e9565b80631526fe27116102a157806319ab453c1161028657806319ab453c1461038857806319f95e2e1461039b57806336183ed6146103a3576102e9565b80631526fe271461035c57806316e80f4d14610380576102e9565b8063041a84c9116102d2578063041a84c91461032c578063081e3eda146103415780630bb844bc14610349576102e9565b8063033186e8146102ee57806303dcff7414610317575b600080fd5b6103016102fc366004612fd6565b610584565b60405161030e9190613a0c565b60405180910390f35b61031f6105da565b60405161030e91906131bd565b61033f61033a366004613001565b6105fe565b005b610301610976565b61033f610357366004612f82565b61097c565b61036f61036a36600461306d565b610af1565b60405161030e959493929190613a49565b610301610b32565b61033f610396366004612f82565b610b3e565b610301610e58565b61033f6103b1366004613035565b610e86565b6103c96103c4366004612f82565b610f4c565b60405161030e9190613235565b61033f6103e4366004613113565b610f61565b61033f611172565b6104046103ff36600461306d565b61123b565b60405161030e91906139d0565b61033f61041f36600461306d565b611411565b61030161153f565b61033f611563565b61033f610442366004613134565b6115f7565b61030161176e565b610301611774565b61030161177e565b61033f611784565b61030161184f565b61031f61047d36600461306d565b611855565b61033f61049036600461316c565b611889565b61031f6119eb565b61031f611a07565b6104b86104b336600461309d565b611a23565b60405161030e93929190613a33565b610301611a4f565b61033f6104dd366004612f82565b611a55565b61033f6104f0366004612f9e565b611b96565b61031f611cca565b610301611cee565b61033f6105133660046130c1565b611cf4565b61030161052636600461309d565b6120cd565b610301612279565b61031f612282565b61033f610549366004613113565b61229e565b61033f61055c366004612f82565b612669565b61030161056f366004613035565b61279f565b6103016127fc565b610301612802565b600081815260066020908152604080832073ffffffffffffffffffffffffffffffffffffffff8616845290915281206002015464e8d4a5100081116105ce5764e8d4a510006105d0565b805b9150505b92915050565b7f000000000000000000000000000000000000000000000000000000000000000081565b60035473ffffffffffffffffffffffffffffffffffffffff163314610658576040517f08c379a000000000000000000000000000000000000000000000000000000000815260040161064f90613599565b60405180910390fd5b60026001541415610695576040517f08c379a000000000000000000000000000000000000000000000000000000000815260040161064f90613825565b600260015573ffffffffffffffffffffffffffffffffffffffff83166106e7576040517f08c379a000000000000000000000000000000000000000000000000000000000815260040161064f90613916565b600482815481106106f457fe5b600091825260209091206004600590920201015460ff16610741576040517f08c379a000000000000000000000000000000000000000000000000000000000815260040161064f906138b9565b64e8d4a51000811015801561075c57506501d1a94a20008111155b610792576040517f08c379a000000000000000000000000000000000000000000000000000000000815260040161064f9061370e565b61079a612f30565b6107a38361123b565b600084815260066020908152604080832073ffffffffffffffffffffffffffffffffffffffff8916845290915281209192506107df8686610584565b90506107ec86868361280f565b61082c670de0b6b3a7640000610820856000015161082664e8d4a510006108208a89600001546128ec90919063ffffffff16565b90612940565b906128ec565b600183015581546108789061084c9064e8d4a510009061082090886128ec565b8354610872906108679064e8d4a510009061082090876128ec565b606087015190612989565b906129cb565b6060840152600480548491908790811061088e57fe5b6000918252602080832084516005939093020191825583810151600183015560408085015160028085019190915560608601516003850155608090950151600490930180547fffffffffffffffffffffffffffffffffffffffffffffffffffffffffffffff0016931515939093179092558883526006815281832073ffffffffffffffffffffffffffffffffffffffff8b1680855291529181902090920186905590517f01abd62439b64f6c5dab6f94d56099495bd0c094f9c21f98f4d3562a21edb4ba9061096290889085908990613a33565b60405180910390a250506001805550505050565b60045490565b610984612a0a565b60005473ffffffffffffffffffffffffffffffffffffffff9081169116146109d8576040517f08c379a000000000000000000000000000000000000000000000000000000000815260040161064f90613564565b73ffffffffffffffffffffffffffffffffffffffff8116610a25576040517f08c379a000000000000000000000000000000000000000000000000000000000815260040161064f906137c8565b60025473ffffffffffffffffffffffffffffffffffffffff82811691161415610a7a576040517f08c379a000000000000000000000000000000000000000000000000000000000815260040161064f906136b0565b6002805473ffffffffffffffffffffffffffffffffffffffff8381167fffffffffffffffffffffffff0000000000000000000000000000000000000000831681179093556040519116919082907fd146fe330fdddf682413850a35b28edfccd4c4b53cfee802fd24950de5be1dbe90600090a35050565b60048181548110610afe57fe5b6000918252602090912060059091020180546001820154600283015460038401546004909401549294509092909160ff1685565b670de0b6b3a764000081565b610b46612a0a565b60005473ffffffffffffffffffffffffffffffffffffffff908116911614610b9a576040517f08c379a000000000000000000000000000000000000000000000000000000000815260040161064f90613564565b6040517f70a0823100000000000000000000000000000000000000000000000000000000815260009073ffffffffffffffffffffffffffffffffffffffff8316906370a0823190610bef9033906004016131bd565b60206040518083038186803b158015610c0757600080fd5b505afa158015610c1b573d6000803e3d6000fd5b505050506040513d601f19601f82011682018060405250810190610c3f9190613085565b905080610c78576040517f08c379a000000000000000000000000000000000000000000000000000000000815260040161064f9061343c565b610c9a73ffffffffffffffffffffffffffffffffffffffff8316333084612a0e565b6040517f095ea7b300000000000000000000000000000000000000000000000000000000815273ffffffffffffffffffffffffffffffffffffffff83169063095ea7b390610d0e907f000000000000000000000000000000000000000000000000000000000000000090859060040161320f565b602060405180830381600087803b158015610d2857600080fd5b505af1158015610d3c573d6000803e3d6000fd5b505050506040513d601f19601f82011682018060405250810190610d609190613051565b506040517fe2bbb15800000000000000000000000000000000000000000000000000000000815273ffffffffffffffffffffffffffffffffffffffff7f0000000000000000000000000000000000000000000000000000000000000000169063e2bbb15890610df5907f0000000000000000000000000000000000000000000000000000000000000000908590600401613a25565b600060405180830381600087803b158015610e0f57600080fd5b505af1158015610e23573d6000803e3d6000fd5b505043600d5550506040517f57a86f7d14ccde89e22870afe839e3011216827daa9b24e18629f0a1e9d6cc1490600090a15050565b6000610e8164e8d4a51000610820600a5468022b1c8c1227a000006128ec90919063ffffffff16565b905090565b610e8e612a0a565b60005473ffffffffffffffffffffffffffffffffffffffff908116911614610ee2576040517f08c379a000000000000000000000000000000000000000000000000000000000815260040161064f90613564565b8015610ef057610ef0611563565b6000610f07600d544361298990919063ffffffff16565b90506000610f1d610f16610e58565b83906128ec565b600254909150610f439073ffffffffffffffffffffffffffffffffffffffff1682612ab1565b505043600d5550565b60076020526000908152604090205460ff1681565b60026001541415610f9e576040517f08c379a000000000000000000000000000000000000000000000000000000000815260040161064f90613825565b6002600155610fab612f30565b610fb48361123b565b6000848152600660209081526040808320338452909152902080549192509083111561100c576040517f08c379a000000000000000000000000000000000000000000000000000000000815260040161064f906134f6565b60006110183386610584565b905061102533868361280f565b831561107a5781546110379085612989565b826000018190555061107a33856005888154811061105157fe5b60009182526020909120015473ffffffffffffffffffffffffffffffffffffffff169190612ca2565b6110ae670de0b6b3a7640000610820856000015161082664e8d4a510006108208789600001546128ec90919063ffffffff16565b60018301556110f66110c964e8d4a5100061082087856128ec565b600487815481106110d657fe5b90600052602060002090600502016003015461298990919063ffffffff16565b6004868154811061110357fe5b906000526020600020906005020160030181905550843373ffffffffffffffffffffffffffffffffffffffff167ff279e6a1f5e320cca91135676d9cb6e44ca8a08c0b88342bcdb1144f6511b5688660405161115f9190613a0c565b60405180910390a3505060018055505050565b6040517fe2bbb15800000000000000000000000000000000000000000000000000000000815273ffffffffffffffffffffffffffffffffffffffff7f0000000000000000000000000000000000000000000000000000000000000000169063e2bbb15890611207907f000000000000000000000000000000000000000000000000000000000000000090600090600401613a25565b600060405180830381600087803b15801561122157600080fd5b505af1158015611235573d6000803e3d6000fd5b50505050565b611243612f30565b6004828154811061125057fe5b60009182526020918290206040805160a0810182526005909302909101805483526001810154938301849052600281015491830191909152600381015460608301526004015460ff1615156080820152915043111561140c57606081015160808201516000906112c2576009546112c6565b6008545b90506000821180156112d85750600081115b156113455760006112f684602001514361298990919063ffffffff16565b9050600061131d8361082087604001516108266113168a6080015161279f565b87906128ec565b90506113406113388561082084670de0b6b3a76400006128ec565b8651906129cb565b855250505b436020840152600480548491908690811061135c57fe5b6000918252602091829020835160059290920201908155828201516001820155604080840151600283015560608401516003830155608090930151600490910180547fffffffffffffffffffffffffffffffffffffffffffffffffffffffffffffff00169115159190911790558401518451915186927f3be3541fc42237d611b30329040bfa4569541d156560acdbbae57640d20b8f46926114019290918791613a33565b60405180910390a250505b919050565b6002600154141561144e576040517f08c379a000000000000000000000000000000000000000000000000000000000815260040161064f90613825565b600260018190555060006004828154811061146557fe5b6000918252602080832085845260068252604080852033808752935284208054858255600182018690556005909402909101945092906114bb9064e8d4a5100090610820906114b49089610584565b85906128ec565b9050808460030154116114cf5760006114de565b60038401546114de9082612989565b84600301819055506114f833836005888154811061105157fe5b843373ffffffffffffffffffffffffffffffffffffffff167fbb757047c2b5f3974fe26b7c10f732e7bce710b0952a71082702781e62ae05958460405161115f9190613a0c565b7f000000000000000000000000000000000000000000000000000000000000000081565b60045460005b818110156115f357611579612f30565b6004828154811061158657fe5b60009182526020918290206040805160a08101825260059093029091018054835260018101549383019390935260028301549082018190526003830154606083015260049092015460ff16151560808201529150156115ea576115e88261123b565b505b50600101611569565b5050565b6115ff612a0a565b60005473ffffffffffffffffffffffffffffffffffffffff908116911614611653576040517f08c379a000000000000000000000000000000000000000000000000000000000815260040161064f90613564565b61165c8361123b565b50801561166b5761166b611563565b6004838154811061167857fe5b600091825260209091206004600590920201015460ff16156116d3576116cb82610872600486815481106116a857fe5b90600052602060002090600502016002015460085461298990919063ffffffff16565b60085561170e565b61170a82610872600486815481106116e757fe5b90600052602060002090600502016002015460095461298990919063ffffffff16565b6009555b816004848154811061171c57fe5b906000526020600020906005020160020181905550827fc0cfd54d2de2b55f1e6e108d3ec53ff0a1abe6055401d32c61e9433b747ef9f8836040516117619190613a0c565b60405180910390a2505050565b600a5481565b6501d1a94a200081565b600c5481565b61178c612a0a565b60005473ffffffffffffffffffffffffffffffffffffffff9081169116146117e0576040517f08c379a000000000000000000000000000000000000000000000000000000000815260040161064f90613564565b6000805460405173ffffffffffffffffffffffffffffffffffffffff909116907f8be0079c531659141344cd1fd0a4f28419497f9722a3daafe3b4186f6b6457e0908390a3600080547fffffffffffffffffffffffff0000000000000000000000000000000000000000169055565b600d5481565b6005818154811061186257fe5b60009182526020909120015473ffffffffffffffffffffffffffffffffffffffff16905081565b611891612a0a565b60005473ffffffffffffffffffffffffffffffffffffffff9081169116146118e5576040517f08c379a000000000000000000000000000000000000000000000000000000000815260040161064f90613564565b6000841180156118f55750600083115b80156119015750600082115b611937576040517f08c379a000000000000000000000000000000000000000000000000000000000815260040161064f90613291565b64e8d4a5100061194b8361087287876129cb565b14611982576040517f08c379a000000000000000000000000000000000000000000000000000000000815260040161064f906133df565b801561199057611990611563565b61199a6000610e86565b600a849055600b839055600c8290556040517f2882b55ee231404a42d7d813dad9cfe57d65e1992a6d165a6e29466a8d1b7499906119dd90869086908690613a33565b60405180910390a150505050565b60025473ffffffffffffffffffffffffffffffffffffffff1681565b60005473ffffffffffffffffffffffffffffffffffffffff1690565b600660209081526000928352604080842090915290825290208054600182015460029092015490919083565b60095481565b611a5d612a0a565b60005473ffffffffffffffffffffffffffffffffffffffff908116911614611ab1576040517f08c379a000000000000000000000000000000000000000000000000000000000815260040161064f90613564565b73ffffffffffffffffffffffffffffffffffffffff811615801590611af1575060035473ffffffffffffffffffffffffffffffffffffffff828116911614155b611b27576040517f08c379a000000000000000000000000000000000000000000000000000000000815260040161064f9061385c565b600380547fffffffffffffffffffffffff00000000000000000000000000000000000000001673ffffffffffffffffffffffffffffffffffffffff83169081179091556040517f4c0c07d0b548b824a1b998eb4d11fccf1cfbc1e47edcdb309970ba88315eb30390600090a250565b611b9e612a0a565b60005473ffffffffffffffffffffffffffffffffffffffff908116911614611bf2576040517f08c379a000000000000000000000000000000000000000000000000000000000815260040161064f90613564565b73ffffffffffffffffffffffffffffffffffffffff8216611c3f576040517f08c379a000000000000000000000000000000000000000000000000000000000815260040161064f90613973565b73ffffffffffffffffffffffffffffffffffffffff82166000818152600760205260409081902080547fffffffffffffffffffffffffffffffffffffffffffffffffffffffffffffff0016841515179055517fc551bbb22d0406dbfb8b6b7740cc521bcf44e1106029cf899c19b6a8e4c99d5190611cbe908490613235565b60405180910390a25050565b7f000000000000000000000000000000000000000000000000000000000000000081565b60085481565b611cfc612a0a565b60005473ffffffffffffffffffffffffffffffffffffffff908116911614611d50576040517f08c379a000000000000000000000000000000000000000000000000000000000815260040161064f90613564565b6040517f70a0823100000000000000000000000000000000000000000000000000000000815260009073ffffffffffffffffffffffffffffffffffffffff8516906370a0823190611da59030906004016131bd565b60206040518083038186803b158015611dbd57600080fd5b505afa158015611dd1573d6000803e3d6000fd5b505050506040513d601f19601f82011682018060405250810190611df59190613085565b1015611e2d576040517f08c379a000000000000000000000000000000000000000000000000000000000815260040161064f9061352d565b7f000000000000000000000000000000000000000000000000000000000000000073ffffffffffffffffffffffffffffffffffffffff168373ffffffffffffffffffffffffffffffffffffffff161415611eb3576040517f08c379a000000000000000000000000000000000000000000000000000000000815260040161064f9061376b565b8015611ec157611ec1611563565b8115611edc57600854611ed490856129cb565b600855611eed565b600954611ee990856129cb565b6009555b60058054600180820183557f036b6384b5eca791c62761152d0c79bb0604c104a5fb6f4eb0703f3154bb3db090910180547fffffffffffffffffffffffff00000000000000000000000000000000000000001673ffffffffffffffffffffffffffffffffffffffff87169081179091556040805160a081018252600080825243602083019081529282018a8152606083018281528915156080850190815260048054808a018255945293517f8a35acfbc15ff81a39ae7d344fd709f28e8600b4aa8c65c6b64bfe7fe36bd19b9389029384015593517f8a35acfbc15ff81a39ae7d344fd709f28e8600b4aa8c65c6b64bfe7fe36bd19c830155517f8a35acfbc15ff81a39ae7d344fd709f28e8600b4aa8c65c6b64bfe7fe36bd19d82015591517f8a35acfbc15ff81a39ae7d344fd709f28e8600b4aa8c65c6b64bfe7fe36bd19e830155517f8a35acfbc15ff81a39ae7d344fd709f28e8600b4aa8c65c6b64bfe7fe36bd19f90910180547fffffffffffffffffffffffffffffffffffffffffffffffffffffffffffffff0016911515919091179055915461208e91612989565b7f18caa0724a26384928efe604ae6ddc99c242548876259770fc88fcb7e719d8fa86856040516120bf929190613a15565b60405180910390a350505050565b60006120d7612f30565b600484815481106120e457fe5b60009182526020918290206040805160a0810182526005909302909101805483526001810154938301939093526002830154908201526003820154606082015260049091015460ff1615156080820152905061213e612f61565b50600084815260066020908152604080832073ffffffffffffffffffffffffffffffffffffffff87168452825291829020825160608082018552825482526001830154828501526002909201549381019390935283519084015191840151909190431180156121ac57508015155b156122255760006121ca85602001514361298990919063ffffffff16565b905060006121fe86608001516121e2576009546121e6565b6008545b61082088604001516108266113168b6080015161279f565b90506122206122198461082084670de0b6b3a76400006128ec565b85906129cb565b935050505b600061224564e8d4a5100061082061223d8a8c610584565b8751906128ec565b602085015190915061226d90612267670de0b6b3a764000061082085886128ec565b90612989565b98975050505050505050565b64e8d4a5100081565b60035473ffffffffffffffffffffffffffffffffffffffff1681565b600260015414156122db576040517f08c379a000000000000000000000000000000000000000000000000000000000815260040161064f90613825565b60026001556122e8612f30565b6122f18361123b565b600084815260066020908152604080832033845290915290206080820151919250908061232d57503360009081526007602052604090205460ff165b612363576040517f08c379a000000000000000000000000000000000000000000000000000000000815260040161064f906135f6565b600061236f3386610584565b8254909150156123845761238433868361280f565b83156125805760006005868154811061239957fe5b6000918252602090912001546040517f70a0823100000000000000000000000000000000000000000000000000000000815273ffffffffffffffffffffffffffffffffffffffff909116906370a08231906123f89030906004016131bd565b60206040518083038186803b15801561241057600080fd5b505afa158015612424573d6000803e3d6000fd5b505050506040513d601f19601f820116820180604052508101906124489190613085565b905061248733308760058a8154811061245d57fe5b60009182526020909120015473ffffffffffffffffffffffffffffffffffffffff16929190612a0e565b612547816005888154811061249857fe5b6000918252602090912001546040517f70a0823100000000000000000000000000000000000000000000000000000000815273ffffffffffffffffffffffffffffffffffffffff909116906370a08231906124f79030906004016131bd565b60206040518083038186803b15801561250f57600080fd5b505afa158015612523573d6000803e3d6000fd5b505050506040513d601f19601f820116820180604052508101906122679190613085565b835490955061255690866129cb565b835561257961256e64e8d4a5100061082088866128ec565b6060860151906129cb565b6060850152505b6125b4670de0b6b3a7640000610820856000015161082664e8d4a510006108208789600001546128ec90919063ffffffff16565b826001018190555082600486815481106125ca57fe5b6000918252602091829020835160059290920201908155908201516001820155604080830151600283015560608301516003830155608090920151600490910180547fffffffffffffffffffffffffffffffffffffffffffffffffffffffffffffff001691151591909117905551859033907f90890809c654f11d6e72a28fa60149770a0d11ec6c92319d6ceb2bb0a4ea1a159061115f908890613a0c565b612671612a0a565b60005473ffffffffffffffffffffffffffffffffffffffff9081169116146126c5576040517f08c379a000000000000000000000000000000000000000000000000000000000815260040161064f90613564565b73ffffffffffffffffffffffffffffffffffffffff8116612712576040517f08c379a000000000000000000000000000000000000000000000000000000000815260040161064f9061334b565b6000805460405173ffffffffffffffffffffffffffffffffffffffff808516939216917f8be0079c531659141344cd1fd0a4f28419497f9722a3daafe3b4186f6b6457e091a3600080547fffffffffffffffffffffffff00000000000000000000000000000000000000001673ffffffffffffffffffffffffffffffffffffffff92909216919091179055565b600081156127d5576127ce64e8d4a51000610820600b5468022b1c8c1227a000006128ec90919063ffffffff16565b905061140c565b6105d464e8d4a51000610820600c5468022b1c8c1227a000006128ec90919063ffffffff16565b600b5481565b68022b1c8c1227a0000081565b612817612f61565b50600082815260066020908152604080832073ffffffffffffffffffffffffffffffffffffffff871684528252808320815160608101835281548082526001830154948201949094526002909101549181019190915291906128849064e8d4a510009061082090866128ec565b905060006128bc670de0b6b3a7640000610820600488815481106128a457fe5b600091825260209091206005909102015485906128ec565b905060006128d784602001518361298990919063ffffffff16565b90506128e38782612ab1565b50505050505050565b6000826128fb575060006105d4565b8282028284828161290857fe5b04146105ce576040517f08c379a000000000000000000000000000000000000000000000000000000000815260040161064f90613499565b600061298283836040518060400160405280601a81526020017f536166654d6174683a206469766973696f6e206279207a65726f000000000000815250612cc1565b9392505050565b600061298283836040518060400160405280601e81526020017f536166654d6174683a207375627472616374696f6e206f766572666c6f770000815250612d12565b6000828201838110156105ce576040517f08c379a000000000000000000000000000000000000000000000000000000000815260040161064f906133a8565b3390565b611235846323b872dd60e01b858585604051602401612a2f939291906131de565b604080517fffffffffffffffffffffffffffffffffffffffffffffffffffffffffffffffe08184030181529190526020810180517bffffffffffffffffffffffffffffffffffffffffffffffffffffffff167fffffffff0000000000000000000000000000000000000000000000000000000090931692909217909152612d58565b80156115f3576040517f70a08231000000000000000000000000000000000000000000000000000000008152819073ffffffffffffffffffffffffffffffffffffffff7f000000000000000000000000000000000000000000000000000000000000000016906370a0823190612b2b9030906004016131bd565b60206040518083038186803b158015612b4357600080fd5b505afa158015612b57573d6000803e3d6000fd5b505050506040513d601f19601f82011682018060405250810190612b7b9190613085565b1015612b8957612b89611172565b6040517f70a0823100000000000000000000000000000000000000000000000000000000815260009073ffffffffffffffffffffffffffffffffffffffff7f000000000000000000000000000000000000000000000000000000000000000016906370a0823190612bfe9030906004016131bd565b60206040518083038186803b158015612c1657600080fd5b505afa158015612c2a573d6000803e3d6000fd5b505050506040513d601f19601f82011682018060405250810190612c4e9190613085565b905081811015612c5c578091505b612c9d73ffffffffffffffffffffffffffffffffffffffff7f0000000000000000000000000000000000000000000000000000000000000000168484612ca2565b505050565b612c9d8363a9059cbb60e01b8484604051602401612a2f92919061320f565b60008183612cfc576040517f08c379a000000000000000000000000000000000000000000000000000000000815260040161064f9190613240565b506000838581612d0857fe5b0495945050505050565b60008184841115612d50576040517f08c379a000000000000000000000000000000000000000000000000000000000815260040161064f9190613240565b505050900390565b6060612dba826040518060400160405280602081526020017f5361666542455032303a206c6f772d6c6576656c2063616c6c206661696c65648152508573ffffffffffffffffffffffffffffffffffffffff16612e0e9092919063ffffffff16565b805190915015612c9d5780806020019051810190612dd89190613051565b612c9d576040517f08c379a000000000000000000000000000000000000000000000000000000000815260040161064f906132ee565b6060612e1d8484600085612e25565b949350505050565b6060612e3085612f2a565b612e66576040517f08c379a000000000000000000000000000000000000000000000000000000000815260040161064f90613679565b600060608673ffffffffffffffffffffffffffffffffffffffff168587604051612e9091906131a1565b60006040518083038185875af1925050503d8060008114612ecd576040519150601f19603f3d011682016040523d82523d6000602084013e612ed2565b606091505b50915091508115612ee6579150612e1d9050565b805115612ef65780518082602001fd5b836040517f08c379a000000000000000000000000000000000000000000000000000000000815260040161064f9190613240565b3b151590565b6040518060a00160405280600081526020016000815260200160008152602001600081526020016000151581525090565b60405180606001604052806000815260200160008152602001600081525090565b600060208284031215612f93578081fd5b81356105ce81613a9a565b60008060408385031215612fb0578081fd5b8235612fbb81613a9a565b91506020830135612fcb81613abf565b809150509250929050565b60008060408385031215612fe8578182fd5b8235612ff381613a9a565b946020939093013593505050565b600080600060608486031215613015578081fd5b833561302081613a9a565b95602085013595506040909401359392505050565b600060208284031215613046578081fd5b81356105ce81613abf565b600060208284031215613062578081fd5b81516105ce81613abf565b60006020828403121561307e578081fd5b5035919050565b600060208284031215613096578081fd5b5051919050565b600080604083850312156130af578182fd5b823591506020830135612fcb81613a9a565b600080600080608085870312156130d6578081fd5b8435935060208501356130e881613a9a565b925060408501356130f881613abf565b9150606085013561310881613abf565b939692955090935050565b60008060408385031215613125578182fd5b50508035926020909101359150565b600080600060608486031215613148578283fd5b8335925060208401359150604084013561316181613abf565b809150509250925092565b60008060008060808587031215613181578384fd5b843593506020850135925060408501359150606085013561310881613abf565b600082516131b3818460208701613a6e565b9190910192915050565b73ffffffffffffffffffffffffffffffffffffffff91909116815260200190565b73ffffffffffffffffffffffffffffffffffffffff9384168152919092166020820152604081019190915260600190565b73ffffffffffffffffffffffffffffffffffffffff929092168252602082015260400190565b901515815260200190565b600060208252825180602084015261325f816040850160208701613a6e565b601f017fffffffffffffffffffffffffffffffffffffffffffffffffffffffffffffffe0169190910160400192915050565b6020808252602d908201527f734d6173746572436865663a20536864772072617465206d757374206265206760408201527f726561746572207468616e203000000000000000000000000000000000000000606082015260800190565b6020808252602a908201527f5361666542455032303a204245503230206f7065726174696f6e20646964206e60408201527f6f74207375636365656400000000000000000000000000000000000000000000606082015260800190565b60208082526026908201527f4f776e61626c653a206e6577206f776e657220697320746865207a65726f206160408201527f6464726573730000000000000000000000000000000000000000000000000000606082015260800190565b6020808252601b908201527f536166654d6174683a206164646974696f6e206f766572666c6f770000000000604082015260600190565b60208082526024908201527f734d6173746572436865663a20546f74616c2072617465206d7573742062652060408201527f3165313200000000000000000000000000000000000000000000000000000000606082015260800190565b60208082526022908201527f734d6173746572436865663a2042616c616e6365206d7573742065786365656460408201527f2030000000000000000000000000000000000000000000000000000000000000606082015260800190565b60208082526021908201527f536166654d6174683a206d756c7469706c69636174696f6e206f766572666c6f60408201527f7700000000000000000000000000000000000000000000000000000000000000606082015260800190565b60208082526016908201527f77697468647261773a20496e73756666696369656e7400000000000000000000604082015260600190565b60208082526011908201527f4e6f6e6520424550323020746f6b656e73000000000000000000000000000000604082015260600190565b6020808252818101527f4f776e61626c653a2063616c6c6572206973206e6f7420746865206f776e6572604082015260600190565b60208082526029908201527f4f776e61626c653a2063616c6c6572206973206e6f742074686520626f6f737460408201527f20636f6e74726163740000000000000000000000000000000000000000000000606082015260800190565b60208082526041908201527f734d6173746572436865663a205468652061646472657373206973206e6f742060408201527f617661696c61626c6520746f206465706f73697420696e207468697320706f6f60608201527f6c00000000000000000000000000000000000000000000000000000000000000608082015260a00190565b6020808252601d908201527f416464726573733a2063616c6c20746f206e6f6e2d636f6e7472616374000000604082015260600190565b602080825260409082018190527f734d6173746572436865663a204275726e2061646d696e206164647265737320908201527f6973207468652073616d6520776974682063757272656e742061646472657373606082015260800190565b60208082526029908201527f734d6173746572436865663a20496e76616c6964206e657720626f6f7374206d60408201527f756c7469706c6965720000000000000000000000000000000000000000000000606082015260800190565b60208082526027908201527f5348445720746f6b656e2063616e277420626520616464656420746f2066617260408201527f6d20706f6f6c7300000000000000000000000000000000000000000000000000606082015260800190565b6020808252602d908201527f734d6173746572436865663a204275726e2061646d696e20616464726573732060408201527f6d7573742062652076616c696400000000000000000000000000000000000000606082015260800190565b6020808252601f908201527f5265656e7472616e637947756172643a207265656e7472616e742063616c6c00604082015260600190565b60208082526035908201527f734d6173746572436865663a204e657720626f6f737420636f6e74726163742060408201527f61646472657373206d7573742062652076616c69640000000000000000000000606082015260800190565b6020808252602f908201527f734d6173746572436865663a204f6e6c7920726567756c6172206661726d206360408201527f6f756c6420626520626f6f737465640000000000000000000000000000000000606082015260800190565b6020808252602b908201527f734d6173746572436865663a2054686520757365722061646472657373206d7560408201527f73742062652076616c6964000000000000000000000000000000000000000000606082015260800190565b60208082526031908201527f734d6173746572436865663a20546865207768697465206c697374206164647260408201527f657373206d7573742062652076616c6964000000000000000000000000000000606082015260800190565b600060a0820190508251825260208301516020830152604083015160408301526060830151606083015260808301511515608083015292915050565b90815260200190565b9182521515602082015260400190565b918252602082015260400190565b9283526020830191909152604082015260600190565b9485526020850193909352604084019190915260608301521515608082015260a00190565b60005b83811015613a89578181015183820152602001613a71565b838111156112355750506000910152565b73ffffffffffffffffffffffffffffffffffffffff81168114613abc57600080fd5b50565b8015158114613abc57600080fdfea2646970667358221220d18afb1e29210e815a91a31352105dfb52e75557f02218e839513c20d61f7f6d64736f6c634300060c0033",
					"opcodes": "PUSH1 0xE0 PUSH1 0x40 MSTORE PUSH5 0x95E27D7580 PUSH1 0xA SSTORE PUSH5 0xEA1FC81CE PUSH1 0xB SSTORE PUSH5 0x44502B18B2 PUSH1 0xC SSTORE CALLVALUE DUP1 ISZERO PUSH3 0x2C JUMPI PUSH1 0x0 DUP1 REVERT JUMPDEST POP PUSH1 0x40 MLOAD PUSH3 0x3CCA CODESIZE SUB DUP1 PUSH3 0x3CCA DUP4 CODECOPY DUP2 ADD PUSH1 0x40 DUP2 SWAP1 MSTORE PUSH3 0x4F SWAP2 PUSH3 0xF3 JUMP JUMPDEST PUSH1 0x0 PUSH3 0x5B PUSH3 0xEF JUMP JUMPDEST PUSH1 0x0 DUP1 SLOAD PUSH1 0x1 PUSH1 0x1 PUSH1 0xA0 SHL SUB NOT AND PUSH1 0x1 PUSH1 0x1 PUSH1 0xA0 SHL SUB DUP4 AND SWAP1 DUP2 OR DUP3 SSTORE PUSH1 0x40 MLOAD SWAP3 SWAP4 POP SWAP2 PUSH32 0x8BE0079C531659141344CD1FD0A4F28419497F9722A3DAAFE3B4186F6B6457E0 SWAP1 DUP3 SWAP1 LOG3 POP PUSH1 0x1 DUP1 SSTORE PUSH1 0x60 SWAP4 DUP5 SHL PUSH1 0x1 PUSH1 0x1 PUSH1 0x60 SHL SUB NOT SWAP1 DUP2 AND PUSH1 0x80 MSTORE SWAP3 SWAP1 SWAP4 SHL SWAP1 SWAP2 AND PUSH1 0xA0 MSTORE PUSH1 0xC0 MSTORE PUSH1 0x2 DUP1 SLOAD PUSH1 0x1 PUSH1 0x1 PUSH1 0xA0 SHL SUB NOT AND PUSH1 0x1 PUSH1 0x1 PUSH1 0xA0 SHL SUB SWAP1 SWAP3 AND SWAP2 SWAP1 SWAP2 OR SWAP1 SSTORE PUSH3 0x167 JUMP JUMPDEST CALLER SWAP1 JUMP JUMPDEST PUSH1 0x0 DUP1 PUSH1 0x0 DUP1 PUSH1 0x80 DUP6 DUP8 SUB SLT ISZERO PUSH3 0x109 JUMPI DUP4 DUP5 REVERT JUMPDEST DUP5 MLOAD PUSH3 0x116 DUP2 PUSH3 0x14E JUMP JUMPDEST PUSH1 0x20 DUP7 ADD MLOAD SWAP1 SWAP5 POP PUSH3 0x129 DUP2 PUSH3 0x14E JUMP JUMPDEST PUSH1 0x40 DUP7 ADD MLOAD PUSH1 0x60 DUP8 ADD MLOAD SWAP2 SWAP5 POP SWAP3 POP PUSH3 0x143 DUP2 PUSH3 0x14E JUMP JUMPDEST SWAP4 SWAP7 SWAP3 SWAP6 POP SWAP1 SWAP4 POP POP JUMP JUMPDEST PUSH1 0x1 PUSH1 0x1 PUSH1 0xA0 SHL SUB DUP2 AND DUP2 EQ PUSH3 0x164 JUMPI PUSH1 0x0 DUP1 REVERT JUMPDEST POP JUMP JUMPDEST PUSH1 0x80 MLOAD PUSH1 0x60 SHR PUSH1 0xA0 MLOAD PUSH1 0x60 SHR PUSH1 0xC0 MLOAD PUSH2 0x3B03 PUSH3 0x1C7 PUSH1 0x0 CODECOPY DUP1 PUSH2 0xDCB MSTORE DUP1 PUSH2 0x11DC MSTORE DUP1 PUSH2 0x1541 MSTORE POP DUP1 PUSH2 0x5DC MSTORE DUP1 PUSH2 0x1E2F MSTORE DUP1 PUSH2 0x2AF6 MSTORE DUP1 PUSH2 0x2BC9 MSTORE DUP1 PUSH2 0x2C76 MSTORE POP DUP1 PUSH2 0xCE4 MSTORE DUP1 PUSH2 0xD9E MSTORE DUP1 PUSH2 0x11AF MSTORE DUP1 PUSH2 0x1CCC MSTORE POP PUSH2 0x3B03 PUSH1 0x0 RETURN INVALID PUSH1 0x80 PUSH1 0x40 MSTORE CALLVALUE DUP1 ISZERO PUSH2 0x10 JUMPI PUSH1 0x0 DUP1 REVERT JUMPDEST POP PUSH1 0x4 CALLDATASIZE LT PUSH2 0x2E9 JUMPI PUSH1 0x0 CALLDATALOAD PUSH1 0xE0 SHR DUP1 PUSH4 0x715018A6 GT PUSH2 0x191 JUMPI DUP1 PUSH4 0xC40D337B GT PUSH2 0xE3 JUMPI DUP1 PUSH4 0xDFCEDEEE GT PUSH2 0x97 JUMPI DUP1 PUSH4 0xF474309E GT PUSH2 0x71 JUMPI DUP1 PUSH4 0xF474309E EQ PUSH2 0x561 JUMPI DUP1 PUSH4 0xF5A26F40 EQ PUSH2 0x574 JUMPI DUP1 PUSH4 0xF5B91CD3 EQ PUSH2 0x57C JUMPI PUSH2 0x2E9 JUMP JUMPDEST DUP1 PUSH4 0xDFCEDEEE EQ PUSH2 0x533 JUMPI DUP1 PUSH4 0xE2BBB158 EQ PUSH2 0x53B JUMPI DUP1 PUSH4 0xF2FDE38B EQ PUSH2 0x54E JUMPI PUSH2 0x2E9 JUMP JUMPDEST DUP1 PUSH4 0xC799B59D GT PUSH2 0xC8 JUMPI DUP1 PUSH4 0xC799B59D EQ PUSH2 0x518 JUMPI DUP1 PUSH4 0xCC6DB2DA EQ PUSH2 0x52B JUMPI DUP1 PUSH4 0xD2CE6AE8 EQ PUSH2 0x52B JUMPI PUSH2 0x2E9 JUMP JUMPDEST DUP1 PUSH4 0xC40D337B EQ PUSH2 0x4FD JUMPI DUP1 PUSH4 0xC507AEAA EQ PUSH2 0x505 JUMPI PUSH2 0x2E9 JUMP JUMPDEST DUP1 PUSH4 0x8DA5CB5B GT PUSH2 0x145 JUMPI DUP1 PUSH4 0x9DD2FCC3 GT PUSH2 0x11F JUMPI DUP1 PUSH4 0x9DD2FCC3 EQ PUSH2 0x4CF JUMPI DUP1 PUSH4 0xAC1D0609 EQ PUSH2 0x4E2 JUMPI DUP1 PUSH4 0xC3083016 EQ PUSH2 0x4F5 JUMPI PUSH2 0x2E9 JUMP JUMPDEST DUP1 PUSH4 0x8DA5CB5B EQ PUSH2 0x49D JUMPI DUP1 PUSH4 0x93F1A40B EQ PUSH2 0x4A5 JUMPI DUP1 PUSH4 0x99D7E84A EQ PUSH2 0x4C7 JUMPI PUSH2 0x2E9 JUMP JUMPDEST DUP1 PUSH4 0x78ED5D1F GT PUSH2 0x176 JUMPI DUP1 PUSH4 0x78ED5D1F EQ PUSH2 0x46F JUMPI DUP1 PUSH4 0x815D087F EQ PUSH2 0x482 JUMPI DUP1 PUSH4 0x81BDF98C EQ PUSH2 0x495 JUMPI PUSH2 0x2E9 JUMP JUMPDEST DUP1 PUSH4 0x715018A6 EQ PUSH2 0x45F JUMPI DUP1 PUSH4 0x78DB4C34 EQ PUSH2 0x467 JUMPI PUSH2 0x2E9 JUMP JUMPDEST DUP1 PUSH4 0x372C12B1 GT PUSH2 0x24A JUMPI DUP1 PUSH4 0x61621AAA GT PUSH2 0x1FE JUMPI DUP1 PUSH4 0x6661100F GT PUSH2 0x1D8 JUMPI DUP1 PUSH4 0x6661100F EQ PUSH2 0x447 JUMPI DUP1 PUSH4 0x69B02128 EQ PUSH2 0x44F JUMPI DUP1 PUSH4 0x6FDA08C3 EQ PUSH2 0x457 JUMPI PUSH2 0x2E9 JUMP JUMPDEST DUP1 PUSH4 0x61621AAA EQ PUSH2 0x424 JUMPI DUP1 PUSH4 0x630B5BA1 EQ PUSH2 0x42C JUMPI DUP1 PUSH4 0x64482F79 EQ PUSH2 0x434 JUMPI PUSH2 0x2E9 JUMP JUMPDEST DUP1 PUSH4 0x4F70B15A GT PUSH2 0x22F JUMPI DUP1 PUSH4 0x4F70B15A EQ PUSH2 0x3E9 JUMPI DUP1 PUSH4 0x51EB05A6 EQ PUSH2 0x3F1 JUMPI DUP1 PUSH4 0x5312EA8E EQ PUSH2 0x411 JUMPI PUSH2 0x2E9 JUMP JUMPDEST DUP1 PUSH4 0x372C12B1 EQ PUSH2 0x3B6 JUMPI DUP1 PUSH4 0x441A3E70 EQ PUSH2 0x3D6 JUMPI PUSH2 0x2E9 JUMP JUMPDEST DUP1 PUSH4 0x1526FE27 GT PUSH2 0x2A1 JUMPI DUP1 PUSH4 0x19AB453C GT PUSH2 0x286 JUMPI DUP1 PUSH4 0x19AB453C EQ PUSH2 0x388 JUMPI DUP1 PUSH4 0x19F95E2E EQ PUSH2 0x39B JUMPI DUP1 PUSH4 0x36183ED6 EQ PUSH2 0x3A3 JUMPI PUSH2 0x2E9 JUMP JUMPDEST DUP1 PUSH4 0x1526FE27 EQ PUSH2 0x35C JUMPI DUP1 PUSH4 0x16E80F4D EQ PUSH2 0x380 JUMPI PUSH2 0x2E9 JUMP JUMPDEST DUP1 PUSH4 0x41A84C9 GT PUSH2 0x2D2 JUMPI DUP1 PUSH4 0x41A84C9 EQ PUSH2 0x32C JUMPI DUP1 PUSH4 0x81E3EDA EQ PUSH2 0x341 JUMPI DUP1 PUSH4 0xBB844BC EQ PUSH2 0x349 JUMPI PUSH2 0x2E9 JUMP JUMPDEST DUP1 PUSH4 0x33186E8 EQ PUSH2 0x2EE JUMPI DUP1 PUSH4 0x3DCFF74 EQ PUSH2 0x317 JUMPI JUMPDEST PUSH1 0x0 DUP1 REVERT JUMPDEST PUSH2 0x301 PUSH2 0x2FC CALLDATASIZE PUSH1 0x4 PUSH2 0x2FD6 JUMP JUMPDEST PUSH2 0x584 JUMP JUMPDEST PUSH1 0x40 MLOAD PUSH2 0x30E SWAP2 SWAP1 PUSH2 0x3A0C JUMP JUMPDEST PUSH1 0x40 MLOAD DUP1 SWAP2 SUB SWAP1 RETURN JUMPDEST PUSH2 0x31F PUSH2 0x5DA JUMP JUMPDEST PUSH1 0x40 MLOAD PUSH2 0x30E SWAP2 SWAP1 PUSH2 0x31BD JUMP JUMPDEST PUSH2 0x33F PUSH2 0x33A CALLDATASIZE PUSH1 0x4 PUSH2 0x3001 JUMP JUMPDEST PUSH2 0x5FE JUMP JUMPDEST STOP JUMPDEST PUSH2 0x301 PUSH2 0x976 JUMP JUMPDEST PUSH2 0x33F PUSH2 0x357 CALLDATASIZE PUSH1 0x4 PUSH2 0x2F82 JUMP JUMPDEST PUSH2 0x97C JUMP JUMPDEST PUSH2 0x36F PUSH2 0x36A CALLDATASIZE PUSH1 0x4 PUSH2 0x306D JUMP JUMPDEST PUSH2 0xAF1 JUMP JUMPDEST PUSH1 0x40 MLOAD PUSH2 0x30E SWAP6 SWAP5 SWAP4 SWAP3 SWAP2 SWAP1 PUSH2 0x3A49 JUMP JUMPDEST PUSH2 0x301 PUSH2 0xB32 JUMP JUMPDEST PUSH2 0x33F PUSH2 0x396 CALLDATASIZE PUSH1 0x4 PUSH2 0x2F82 JUMP JUMPDEST PUSH2 0xB3E JUMP JUMPDEST PUSH2 0x301 PUSH2 0xE58 JUMP JUMPDEST PUSH2 0x33F PUSH2 0x3B1 CALLDATASIZE PUSH1 0x4 PUSH2 0x3035 JUMP JUMPDEST PUSH2 0xE86 JUMP JUMPDEST PUSH2 0x3C9 PUSH2 0x3C4 CALLDATASIZE PUSH1 0x4 PUSH2 0x2F82 JUMP JUMPDEST PUSH2 0xF4C JUMP JUMPDEST PUSH1 0x40 MLOAD PUSH2 0x30E SWAP2 SWAP1 PUSH2 0x3235 JUMP JUMPDEST PUSH2 0x33F PUSH2 0x3E4 CALLDATASIZE PUSH1 0x4 PUSH2 0x3113 JUMP JUMPDEST PUSH2 0xF61 JUMP JUMPDEST PUSH2 0x33F PUSH2 0x1172 JUMP JUMPDEST PUSH2 0x404 PUSH2 0x3FF CALLDATASIZE PUSH1 0x4 PUSH2 0x306D JUMP JUMPDEST PUSH2 0x123B JUMP JUMPDEST PUSH1 0x40 MLOAD PUSH2 0x30E SWAP2 SWAP1 PUSH2 0x39D0 JUMP JUMPDEST PUSH2 0x33F PUSH2 0x41F CALLDATASIZE PUSH1 0x4 PUSH2 0x306D JUMP JUMPDEST PUSH2 0x1411 JUMP JUMPDEST PUSH2 0x301 PUSH2 0x153F JUMP JUMPDEST PUSH2 0x33F PUSH2 0x1563 JUMP JUMPDEST PUSH2 0x33F PUSH2 0x442 CALLDATASIZE PUSH1 0x4 PUSH2 0x3134 JUMP JUMPDEST PUSH2 0x15F7 JUMP JUMPDEST PUSH2 0x301 PUSH2 0x176E JUMP JUMPDEST PUSH2 0x301 PUSH2 0x1774 JUMP JUMPDEST PUSH2 0x301 PUSH2 0x177E JUMP JUMPDEST PUSH2 0x33F PUSH2 0x1784 JUMP JUMPDEST PUSH2 0x301 PUSH2 0x184F JUMP JUMPDEST PUSH2 0x31F PUSH2 0x47D CALLDATASIZE PUSH1 0x4 PUSH2 0x306D JUMP JUMPDEST PUSH2 0x1855 JUMP JUMPDEST PUSH2 0x33F PUSH2 0x490 CALLDATASIZE PUSH1 0x4 PUSH2 0x316C JUMP JUMPDEST PUSH2 0x1889 JUMP JUMPDEST PUSH2 0x31F PUSH2 0x19EB JUMP JUMPDEST PUSH2 0x31F PUSH2 0x1A07 JUMP JUMPDEST PUSH2 0x4B8 PUSH2 0x4B3 CALLDATASIZE PUSH1 0x4 PUSH2 0x309D JUMP JUMPDEST PUSH2 0x1A23 JUMP JUMPDEST PUSH1 0x40 MLOAD PUSH2 0x30E SWAP4 SWAP3 SWAP2 SWAP1 PUSH2 0x3A33 JUMP JUMPDEST PUSH2 0x301 PUSH2 0x1A4F JUMP JUMPDEST PUSH2 0x33F PUSH2 0x4DD CALLDATASIZE PUSH1 0x4 PUSH2 0x2F82 JUMP JUMPDEST PUSH2 0x1A55 JUMP JUMPDEST PUSH2 0x33F PUSH2 0x4F0 CALLDATASIZE PUSH1 0x4 PUSH2 0x2F9E JUMP JUMPDEST PUSH2 0x1B96 JUMP JUMPDEST PUSH2 0x31F PUSH2 0x1CCA JUMP JUMPDEST PUSH2 0x301 PUSH2 0x1CEE JUMP JUMPDEST PUSH2 0x33F PUSH2 0x513 CALLDATASIZE PUSH1 0x4 PUSH2 0x30C1 JUMP JUMPDEST PUSH2 0x1CF4 JUMP JUMPDEST PUSH2 0x301 PUSH2 0x526 CALLDATASIZE PUSH1 0x4 PUSH2 0x309D JUMP JUMPDEST PUSH2 0x20CD JUMP JUMPDEST PUSH2 0x301 PUSH2 0x2279 JUMP JUMPDEST PUSH2 0x31F PUSH2 0x2282 JUMP JUMPDEST PUSH2 0x33F PUSH2 0x549 CALLDATASIZE PUSH1 0x4 PUSH2 0x3113 JUMP JUMPDEST PUSH2 0x229E JUMP JUMPDEST PUSH2 0x33F PUSH2 0x55C CALLDATASIZE PUSH1 0x4 PUSH2 0x2F82 JUMP JUMPDEST PUSH2 0x2669 JUMP JUMPDEST PUSH2 0x301 PUSH2 0x56F CALLDATASIZE PUSH1 0x4 PUSH2 0x3035 JUMP JUMPDEST PUSH2 0x279F JUMP JUMPDEST PUSH2 0x301 PUSH2 0x27FC JUMP JUMPDEST PUSH2 0x301 PUSH2 0x2802 JUMP JUMPDEST PUSH1 0x0 DUP2 DUP2 MSTORE PUSH1 0x6 PUSH1 0x20 SWAP1 DUP2 MSTORE PUSH1 0x40 DUP1 DUP4 KECCAK256 PUSH20 0xFFFFFFFFFFFFFFFFFFFFFFFFFFFFFFFFFFFFFFFF DUP7 AND DUP5 MSTORE SWAP1 SWAP2 MSTORE DUP2 KECCAK256 PUSH1 0x2 ADD SLOAD PUSH5 0xE8D4A51000 DUP2 GT PUSH2 0x5CE JUMPI PUSH5 0xE8D4A51000 PUSH2 0x5D0 JUMP JUMPDEST DUP1 JUMPDEST SWAP2 POP POP JUMPDEST SWAP3 SWAP2 POP POP JUMP JUMPDEST PUSH32 0x0 DUP2 JUMP JUMPDEST PUSH1 0x3 SLOAD PUSH20 0xFFFFFFFFFFFFFFFFFFFFFFFFFFFFFFFFFFFFFFFF AND CALLER EQ PUSH2 0x658 JUMPI PUSH1 0x40 MLOAD PUSH32 0x8C379A000000000000000000000000000000000000000000000000000000000 DUP2 MSTORE PUSH1 0x4 ADD PUSH2 0x64F SWAP1 PUSH2 0x3599 JUMP JUMPDEST PUSH1 0x40 MLOAD DUP1 SWAP2 SUB SWAP1 REVERT JUMPDEST PUSH1 0x2 PUSH1 0x1 SLOAD EQ ISZERO PUSH2 0x695 JUMPI PUSH1 0x40 MLOAD PUSH32 0x8C379A000000000000000000000000000000000000000000000000000000000 DUP2 MSTORE PUSH1 0x4 ADD PUSH2 0x64F SWAP1 PUSH2 0x3825 JUMP JUMPDEST PUSH1 0x2 PUSH1 0x1 SSTORE PUSH20 0xFFFFFFFFFFFFFFFFFFFFFFFFFFFFFFFFFFFFFFFF DUP4 AND PUSH2 0x6E7 JUMPI PUSH1 0x40 MLOAD PUSH32 0x8C379A000000000000000000000000000000000000000000000000000000000 DUP2 MSTORE PUSH1 0x4 ADD PUSH2 0x64F SWAP1 PUSH2 0x3916 JUMP JUMPDEST PUSH1 0x4 DUP3 DUP2 SLOAD DUP2 LT PUSH2 0x6F4 JUMPI INVALID JUMPDEST PUSH1 0x0 SWAP2 DUP3 MSTORE PUSH1 0x20 SWAP1 SWAP2 KECCAK256 PUSH1 0x4 PUSH1 0x5 SWAP1 SWAP3 MUL ADD ADD SLOAD PUSH1 0xFF AND PUSH2 0x741 JUMPI PUSH1 0x40 MLOAD PUSH32 0x8C379A000000000000000000000000000000000000000000000000000000000 DUP2 MSTORE PUSH1 0x4 ADD PUSH2 0x64F SWAP1 PUSH2 0x38B9 JUMP JUMPDEST PUSH5 0xE8D4A51000 DUP2 LT ISZERO DUP1 ISZERO PUSH2 0x75C JUMPI POP PUSH6 0x1D1A94A2000 DUP2 GT ISZERO JUMPDEST PUSH2 0x792 JUMPI PUSH1 0x40 MLOAD PUSH32 0x8C379A000000000000000000000000000000000000000000000000000000000 DUP2 MSTORE PUSH1 0x4 ADD PUSH2 0x64F SWAP1 PUSH2 0x370E JUMP JUMPDEST PUSH2 0x79A PUSH2 0x2F30 JUMP JUMPDEST PUSH2 0x7A3 DUP4 PUSH2 0x123B JUMP JUMPDEST PUSH1 0x0 DUP5 DUP2 MSTORE PUSH1 0x6 PUSH1 0x20 SWAP1 DUP2 MSTORE PUSH1 0x40 DUP1 DUP4 KECCAK256 PUSH20 0xFFFFFFFFFFFFFFFFFFFFFFFFFFFFFFFFFFFFFFFF DUP10 AND DUP5 MSTORE SWAP1 SWAP2 MSTORE DUP2 KECCAK256 SWAP2 SWAP3 POP PUSH2 0x7DF DUP7 DUP7 PUSH2 0x584 JUMP JUMPDEST SWAP1 POP PUSH2 0x7EC DUP7 DUP7 DUP4 PUSH2 0x280F JUMP JUMPDEST PUSH2 0x82C PUSH8 0xDE0B6B3A7640000 PUSH2 0x820 DUP6 PUSH1 0x0 ADD MLOAD PUSH2 0x826 PUSH5 0xE8D4A51000 PUSH2 0x820 DUP11 DUP10 PUSH1 0x0 ADD SLOAD PUSH2 0x28EC SWAP1 SWAP2 SWAP1 PUSH4 0xFFFFFFFF AND JUMP JUMPDEST SWAP1 PUSH2 0x2940 JUMP JUMPDEST SWAP1 PUSH2 0x28EC JUMP JUMPDEST PUSH1 0x1 DUP4 ADD SSTORE DUP2 SLOAD PUSH2 0x878 SWAP1 PUSH2 0x84C SWAP1 PUSH5 0xE8D4A51000 SWAP1 PUSH2 0x820 SWAP1 DUP9 PUSH2 0x28EC JUMP JUMPDEST DUP4 SLOAD PUSH2 0x872 SWAP1 PUSH2 0x867 SWAP1 PUSH5 0xE8D4A51000 SWAP1 PUSH2 0x820 SWAP1 DUP8 PUSH2 0x28EC JUMP JUMPDEST PUSH1 0x60 DUP8 ADD MLOAD SWAP1 PUSH2 0x2989 JUMP JUMPDEST SWAP1 PUSH2 0x29CB JUMP JUMPDEST PUSH1 0x60 DUP5 ADD MSTORE PUSH1 0x4 DUP1 SLOAD DUP5 SWAP2 SWAP1 DUP8 SWAP1 DUP2 LT PUSH2 0x88E JUMPI INVALID JUMPDEST PUSH1 0x0 SWAP2 DUP3 MSTORE PUSH1 0x20 DUP1 DUP4 KECCAK256 DUP5 MLOAD PUSH1 0x5 SWAP4 SWAP1 SWAP4 MUL ADD SWAP2 DUP3 SSTORE DUP4 DUP2 ADD MLOAD PUSH1 0x1 DUP4 ADD SSTORE PUSH1 0x40 DUP1 DUP6 ADD MLOAD PUSH1 0x2 DUP1 DUP6 ADD SWAP2 SWAP1 SWAP2 SSTORE PUSH1 0x60 DUP7 ADD MLOAD PUSH1 0x3 DUP6 ADD SSTORE PUSH1 0x80 SWAP1 SWAP6 ADD MLOAD PUSH1 0x4 SWAP1 SWAP4 ADD DUP1 SLOAD PUSH32 0xFFFFFFFFFFFFFFFFFFFFFFFFFFFFFFFFFFFFFFFFFFFFFFFFFFFFFFFFFFFFFF00 AND SWAP4 ISZERO ISZERO SWAP4 SWAP1 SWAP4 OR SWAP1 SWAP3 SSTORE DUP9 DUP4 MSTORE PUSH1 0x6 DUP2 MSTORE DUP2 DUP4 KECCAK256 PUSH20 0xFFFFFFFFFFFFFFFFFFFFFFFFFFFFFFFFFFFFFFFF DUP12 AND DUP1 DUP6 MSTORE SWAP2 MSTORE SWAP2 DUP2 SWAP1 KECCAK256 SWAP1 SWAP3 ADD DUP7 SWAP1 SSTORE SWAP1 MLOAD PUSH32 0x1ABD62439B64F6C5DAB6F94D56099495BD0C094F9C21F98F4D3562A21EDB4BA SWAP1 PUSH2 0x962 SWAP1 DUP9 SWAP1 DUP6 SWAP1 DUP10 SWAP1 PUSH2 0x3A33 JUMP JUMPDEST PUSH1 0x40 MLOAD DUP1 SWAP2 SUB SWAP1 LOG2 POP POP PUSH1 0x1 DUP1 SSTORE POP POP POP POP JUMP JUMPDEST PUSH1 0x4 SLOAD SWAP1 JUMP JUMPDEST PUSH2 0x984 PUSH2 0x2A0A JUMP JUMPDEST PUSH1 0x0 SLOAD PUSH20 0xFFFFFFFFFFFFFFFFFFFFFFFFFFFFFFFFFFFFFFFF SWAP1 DUP2 AND SWAP2 AND EQ PUSH2 0x9D8 JUMPI PUSH1 0x40 MLOAD PUSH32 0x8C379A000000000000000000000000000000000000000000000000000000000 DUP2 MSTORE PUSH1 0x4 ADD PUSH2 0x64F SWAP1 PUSH2 0x3564 JUMP JUMPDEST PUSH20 0xFFFFFFFFFFFFFFFFFFFFFFFFFFFFFFFFFFFFFFFF DUP2 AND PUSH2 0xA25 JUMPI PUSH1 0x40 MLOAD PUSH32 0x8C379A000000000000000000000000000000000000000000000000000000000 DUP2 MSTORE PUSH1 0x4 ADD PUSH2 0x64F SWAP1 PUSH2 0x37C8 JUMP JUMPDEST PUSH1 0x2 SLOAD PUSH20 0xFFFFFFFFFFFFFFFFFFFFFFFFFFFFFFFFFFFFFFFF DUP3 DUP2 AND SWAP2 AND EQ ISZERO PUSH2 0xA7A JUMPI PUSH1 0x40 MLOAD PUSH32 0x8C379A000000000000000000000000000000000000000000000000000000000 DUP2 MSTORE PUSH1 0x4 ADD PUSH2 0x64F SWAP1 PUSH2 0x36B0 JUMP JUMPDEST PUSH1 0x2 DUP1 SLOAD PUSH20 0xFFFFFFFFFFFFFFFFFFFFFFFFFFFFFFFFFFFFFFFF DUP4 DUP2 AND PUSH32 0xFFFFFFFFFFFFFFFFFFFFFFFF0000000000000000000000000000000000000000 DUP4 AND DUP2 OR SWAP1 SWAP4 SSTORE PUSH1 0x40 MLOAD SWAP2 AND SWAP2 SWAP1 DUP3 SWAP1 PUSH32 0xD146FE330FDDDF682413850A35B28EDFCCD4C4B53CFEE802FD24950DE5BE1DBE SWAP1 PUSH1 0x0 SWAP1 LOG3 POP POP JUMP JUMPDEST PUSH1 0x4 DUP2 DUP2 SLOAD DUP2 LT PUSH2 0xAFE JUMPI INVALID JUMPDEST PUSH1 0x0 SWAP2 DUP3 MSTORE PUSH1 0x20 SWAP1 SWAP2 KECCAK256 PUSH1 0x5 SWAP1 SWAP2 MUL ADD DUP1 SLOAD PUSH1 0x1 DUP3 ADD SLOAD PUSH1 0x2 DUP4 ADD SLOAD PUSH1 0x3 DUP5 ADD SLOAD PUSH1 0x4 SWAP1 SWAP5 ADD SLOAD SWAP3 SWAP5 POP SWAP1 SWAP3 SWAP1 SWAP2 PUSH1 0xFF AND DUP6 JUMP JUMPDEST PUSH8 0xDE0B6B3A7640000 DUP2 JUMP JUMPDEST PUSH2 0xB46 PUSH2 0x2A0A JUMP JUMPDEST PUSH1 0x0 SLOAD PUSH20 0xFFFFFFFFFFFFFFFFFFFFFFFFFFFFFFFFFFFFFFFF SWAP1 DUP2 AND SWAP2 AND EQ PUSH2 0xB9A JUMPI PUSH1 0x40 MLOAD PUSH32 0x8C379A000000000000000000000000000000000000000000000000000000000 DUP2 MSTORE PUSH1 0x4 ADD PUSH2 0x64F SWAP1 PUSH2 0x3564 JUMP JUMPDEST PUSH1 0x40 MLOAD PUSH32 0x70A0823100000000000000000000000000000000000000000000000000000000 DUP2 MSTORE PUSH1 0x0 SWAP1 PUSH20 0xFFFFFFFFFFFFFFFFFFFFFFFFFFFFFFFFFFFFFFFF DUP4 AND SWAP1 PUSH4 0x70A08231 SWAP1 PUSH2 0xBEF SWAP1 CALLER SWAP1 PUSH1 0x4 ADD PUSH2 0x31BD JUMP JUMPDEST PUSH1 0x20 PUSH1 0x40 MLOAD DUP1 DUP4 SUB DUP2 DUP7 DUP1 EXTCODESIZE ISZERO DUP1 ISZERO PUSH2 0xC07 JUMPI PUSH1 0x0 DUP1 REVERT JUMPDEST POP GAS STATICCALL ISZERO DUP1 ISZERO PUSH2 0xC1B JUMPI RETURNDATASIZE PUSH1 0x0 DUP1 RETURNDATACOPY RETURNDATASIZE PUSH1 0x0 REVERT JUMPDEST POP POP POP POP PUSH1 0x40 MLOAD RETURNDATASIZE PUSH1 0x1F NOT PUSH1 0x1F DUP3 ADD AND DUP3 ADD DUP1 PUSH1 0x40 MSTORE POP DUP2 ADD SWAP1 PUSH2 0xC3F SWAP2 SWAP1 PUSH2 0x3085 JUMP JUMPDEST SWAP1 POP DUP1 PUSH2 0xC78 JUMPI PUSH1 0x40 MLOAD PUSH32 0x8C379A000000000000000000000000000000000000000000000000000000000 DUP2 MSTORE PUSH1 0x4 ADD PUSH2 0x64F SWAP1 PUSH2 0x343C JUMP JUMPDEST PUSH2 0xC9A PUSH20 0xFFFFFFFFFFFFFFFFFFFFFFFFFFFFFFFFFFFFFFFF DUP4 AND CALLER ADDRESS DUP5 PUSH2 0x2A0E JUMP JUMPDEST PUSH1 0x40 MLOAD PUSH32 0x95EA7B300000000000000000000000000000000000000000000000000000000 DUP2 MSTORE PUSH20 0xFFFFFFFFFFFFFFFFFFFFFFFFFFFFFFFFFFFFFFFF DUP4 AND SWAP1 PUSH4 0x95EA7B3 SWAP1 PUSH2 0xD0E SWAP1 PUSH32 0x0 SWAP1 DUP6 SWAP1 PUSH1 0x4 ADD PUSH2 0x320F JUMP JUMPDEST PUSH1 0x20 PUSH1 0x40 MLOAD DUP1 DUP4 SUB DUP2 PUSH1 0x0 DUP8 DUP1 EXTCODESIZE ISZERO DUP1 ISZERO PUSH2 0xD28 JUMPI PUSH1 0x0 DUP1 REVERT JUMPDEST POP GAS CALL ISZERO DUP1 ISZERO PUSH2 0xD3C JUMPI RETURNDATASIZE PUSH1 0x0 DUP1 RETURNDATACOPY RETURNDATASIZE PUSH1 0x0 REVERT JUMPDEST POP POP POP POP PUSH1 0x40 MLOAD RETURNDATASIZE PUSH1 0x1F NOT PUSH1 0x1F DUP3 ADD AND DUP3 ADD DUP1 PUSH1 0x40 MSTORE POP DUP2 ADD SWAP1 PUSH2 0xD60 SWAP2 SWAP1 PUSH2 0x3051 JUMP JUMPDEST POP PUSH1 0x40 MLOAD PUSH32 0xE2BBB15800000000000000000000000000000000000000000000000000000000 DUP2 MSTORE PUSH20 0xFFFFFFFFFFFFFFFFFFFFFFFFFFFFFFFFFFFFFFFF PUSH32 0x0 AND SWAP1 PUSH4 0xE2BBB158 SWAP1 PUSH2 0xDF5 SWAP1 PUSH32 0x0 SWAP1 DUP6 SWAP1 PUSH1 0x4 ADD PUSH2 0x3A25 JUMP JUMPDEST PUSH1 0x0 PUSH1 0x40 MLOAD DUP1 DUP4 SUB DUP2 PUSH1 0x0 DUP8 DUP1 EXTCODESIZE ISZERO DUP1 ISZERO PUSH2 0xE0F JUMPI PUSH1 0x0 DUP1 REVERT JUMPDEST POP GAS CALL ISZERO DUP1 ISZERO PUSH2 0xE23 JUMPI RETURNDATASIZE PUSH1 0x0 DUP1 RETURNDATACOPY RETURNDATASIZE PUSH1 0x0 REVERT JUMPDEST POP POP NUMBER PUSH1 0xD SSTORE POP POP PUSH1 0x40 MLOAD PUSH32 0x57A86F7D14CCDE89E22870AFE839E3011216827DAA9B24E18629F0A1E9D6CC14 SWAP1 PUSH1 0x0 SWAP1 LOG1 POP POP JUMP JUMPDEST PUSH1 0x0 PUSH2 0xE81 PUSH5 0xE8D4A51000 PUSH2 0x820 PUSH1 0xA SLOAD PUSH9 0x22B1C8C1227A00000 PUSH2 0x28EC SWAP1 SWAP2 SWAP1 PUSH4 0xFFFFFFFF AND JUMP JUMPDEST SWAP1 POP SWAP1 JUMP JUMPDEST PUSH2 0xE8E PUSH2 0x2A0A JUMP JUMPDEST PUSH1 0x0 SLOAD PUSH20 0xFFFFFFFFFFFFFFFFFFFFFFFFFFFFFFFFFFFFFFFF SWAP1 DUP2 AND SWAP2 AND EQ PUSH2 0xEE2 JUMPI PUSH1 0x40 MLOAD PUSH32 0x8C379A000000000000000000000000000000000000000000000000000000000 DUP2 MSTORE PUSH1 0x4 ADD PUSH2 0x64F SWAP1 PUSH2 0x3564 JUMP JUMPDEST DUP1 ISZERO PUSH2 0xEF0 JUMPI PUSH2 0xEF0 PUSH2 0x1563 JUMP JUMPDEST PUSH1 0x0 PUSH2 0xF07 PUSH1 0xD SLOAD NUMBER PUSH2 0x2989 SWAP1 SWAP2 SWAP1 PUSH4 0xFFFFFFFF AND JUMP JUMPDEST SWAP1 POP PUSH1 0x0 PUSH2 0xF1D PUSH2 0xF16 PUSH2 0xE58 JUMP JUMPDEST DUP4 SWAP1 PUSH2 0x28EC JUMP JUMPDEST PUSH1 0x2 SLOAD SWAP1 SWAP2 POP PUSH2 0xF43 SWAP1 PUSH20 0xFFFFFFFFFFFFFFFFFFFFFFFFFFFFFFFFFFFFFFFF AND DUP3 PUSH2 0x2AB1 JUMP JUMPDEST POP POP NUMBER PUSH1 0xD SSTORE POP JUMP JUMPDEST PUSH1 0x7 PUSH1 0x20 MSTORE PUSH1 0x0 SWAP1 DUP2 MSTORE PUSH1 0x40 SWAP1 KECCAK256 SLOAD PUSH1 0xFF AND DUP2 JUMP JUMPDEST PUSH1 0x2 PUSH1 0x1 SLOAD EQ ISZERO PUSH2 0xF9E JUMPI PUSH1 0x40 MLOAD PUSH32 0x8C379A000000000000000000000000000000000000000000000000000000000 DUP2 MSTORE PUSH1 0x4 ADD PUSH2 0x64F SWAP1 PUSH2 0x3825 JUMP JUMPDEST PUSH1 0x2 PUSH1 0x1 SSTORE PUSH2 0xFAB PUSH2 0x2F30 JUMP JUMPDEST PUSH2 0xFB4 DUP4 PUSH2 0x123B JUMP JUMPDEST PUSH1 0x0 DUP5 DUP2 MSTORE PUSH1 0x6 PUSH1 0x20 SWAP1 DUP2 MSTORE PUSH1 0x40 DUP1 DUP4 KECCAK256 CALLER DUP5 MSTORE SWAP1 SWAP2 MSTORE SWAP1 KECCAK256 DUP1 SLOAD SWAP2 SWAP3 POP SWAP1 DUP4 GT ISZERO PUSH2 0x100C JUMPI PUSH1 0x40 MLOAD PUSH32 0x8C379A000000000000000000000000000000000000000000000000000000000 DUP2 MSTORE PUSH1 0x4 ADD PUSH2 0x64F SWAP1 PUSH2 0x34F6 JUMP JUMPDEST PUSH1 0x0 PUSH2 0x1018 CALLER DUP7 PUSH2 0x584 JUMP JUMPDEST SWAP1 POP PUSH2 0x1025 CALLER DUP7 DUP4 PUSH2 0x280F JUMP JUMPDEST DUP4 ISZERO PUSH2 0x107A JUMPI DUP2 SLOAD PUSH2 0x1037 SWAP1 DUP6 PUSH2 0x2989 JUMP JUMPDEST DUP3 PUSH1 0x0 ADD DUP2 SWAP1 SSTORE POP PUSH2 0x107A CALLER DUP6 PUSH1 0x5 DUP9 DUP2 SLOAD DUP2 LT PUSH2 0x1051 JUMPI INVALID JUMPDEST PUSH1 0x0 SWAP2 DUP3 MSTORE PUSH1 0x20 SWAP1 SWAP2 KECCAK256 ADD SLOAD PUSH20 0xFFFFFFFFFFFFFFFFFFFFFFFFFFFFFFFFFFFFFFFF AND SWAP2 SWAP1 PUSH2 0x2CA2 JUMP JUMPDEST PUSH2 0x10AE PUSH8 0xDE0B6B3A7640000 PUSH2 0x820 DUP6 PUSH1 0x0 ADD MLOAD PUSH2 0x826 PUSH5 0xE8D4A51000 PUSH2 0x820 DUP8 DUP10 PUSH1 0x0 ADD SLOAD PUSH2 0x28EC SWAP1 SWAP2 SWAP1 PUSH4 0xFFFFFFFF AND JUMP JUMPDEST PUSH1 0x1 DUP4 ADD SSTORE PUSH2 0x10F6 PUSH2 0x10C9 PUSH5 0xE8D4A51000 PUSH2 0x820 DUP8 DUP6 PUSH2 0x28EC JUMP JUMPDEST PUSH1 0x4 DUP8 DUP2 SLOAD DUP2 LT PUSH2 0x10D6 JUMPI INVALID JUMPDEST SWAP1 PUSH1 0x0 MSTORE PUSH1 0x20 PUSH1 0x0 KECCAK256 SWAP1 PUSH1 0x5 MUL ADD PUSH1 0x3 ADD SLOAD PUSH2 0x2989 SWAP1 SWAP2 SWAP1 PUSH4 0xFFFFFFFF AND JUMP JUMPDEST PUSH1 0x4 DUP7 DUP2 SLOAD DUP2 LT PUSH2 0x1103 JUMPI INVALID JUMPDEST SWAP1 PUSH1 0x0 MSTORE PUSH1 0x20 PUSH1 0x0 KECCAK256 SWAP1 PUSH1 0x5 MUL ADD PUSH1 0x3 ADD DUP2 SWAP1 SSTORE POP DUP5 CALLER PUSH20 0xFFFFFFFFFFFFFFFFFFFFFFFFFFFFFFFFFFFFFFFF AND PUSH32 0xF279E6A1F5E320CCA91135676D9CB6E44CA8A08C0B88342BCDB1144F6511B568 DUP7 PUSH1 0x40 MLOAD PUSH2 0x115F SWAP2 SWAP1 PUSH2 0x3A0C JUMP JUMPDEST PUSH1 0x40 MLOAD DUP1 SWAP2 SUB SWAP1 LOG3 POP POP PUSH1 0x1 DUP1 SSTORE POP POP POP JUMP JUMPDEST PUSH1 0x40 MLOAD PUSH32 0xE2BBB15800000000000000000000000000000000000000000000000000000000 DUP2 MSTORE PUSH20 0xFFFFFFFFFFFFFFFFFFFFFFFFFFFFFFFFFFFFFFFF PUSH32 0x0 AND SWAP1 PUSH4 0xE2BBB158 SWAP1 PUSH2 0x1207 SWAP1 PUSH32 0x0 SWAP1 PUSH1 0x0 SWAP1 PUSH1 0x4 ADD PUSH2 0x3A25 JUMP JUMPDEST PUSH1 0x0 PUSH1 0x40 MLOAD DUP1 DUP4 SUB DUP2 PUSH1 0x0 DUP8 DUP1 EXTCODESIZE ISZERO DUP1 ISZERO PUSH2 0x1221 JUMPI PUSH1 0x0 DUP1 REVERT JUMPDEST POP GAS CALL ISZERO DUP1 ISZERO PUSH2 0x1235 JUMPI RETURNDATASIZE PUSH1 0x0 DUP1 RETURNDATACOPY RETURNDATASIZE PUSH1 0x0 REVERT JUMPDEST POP POP POP POP JUMP JUMPDEST PUSH2 0x1243 PUSH2 0x2F30 JUMP JUMPDEST PUSH1 0x4 DUP3 DUP2 SLOAD DUP2 LT PUSH2 0x1250 JUMPI INVALID JUMPDEST PUSH1 0x0 SWAP2 DUP3 MSTORE PUSH1 0x20 SWAP2 DUP3 SWAP1 KECCAK256 PUSH1 0x40 DUP1 MLOAD PUSH1 0xA0 DUP2 ADD DUP3 MSTORE PUSH1 0x5 SWAP1 SWAP4 MUL SWAP1 SWAP2 ADD DUP1 SLOAD DUP4 MSTORE PUSH1 0x1 DUP2 ADD SLOAD SWAP4 DUP4 ADD DUP5 SWAP1 MSTORE PUSH1 0x2 DUP2 ADD SLOAD SWAP2 DUP4 ADD SWAP2 SWAP1 SWAP2 MSTORE PUSH1 0x3 DUP2 ADD SLOAD PUSH1 0x60 DUP4 ADD MSTORE PUSH1 0x4 ADD SLOAD PUSH1 0xFF AND ISZERO ISZERO PUSH1 0x80 DUP3 ADD MSTORE SWAP2 POP NUMBER GT ISZERO PUSH2 0x140C JUMPI PUSH1 0x60 DUP2 ADD MLOAD PUSH1 0x80 DUP3 ADD MLOAD PUSH1 0x0 SWAP1 PUSH2 0x12C2 JUMPI PUSH1 0x9 SLOAD PUSH2 0x12C6 JUMP JUMPDEST PUSH1 0x8 SLOAD JUMPDEST SWAP1 POP PUSH1 0x0 DUP3 GT DUP1 ISZERO PUSH2 0x12D8 JUMPI POP PUSH1 0x0 DUP2 GT JUMPDEST ISZERO PUSH2 0x1345 JUMPI PUSH1 0x0 PUSH2 0x12F6 DUP5 PUSH1 0x20 ADD MLOAD NUMBER PUSH2 0x2989 SWAP1 SWAP2 SWAP1 PUSH4 0xFFFFFFFF AND JUMP JUMPDEST SWAP1 POP PUSH1 0x0 PUSH2 0x131D DUP4 PUSH2 0x820 DUP8 PUSH1 0x40 ADD MLOAD PUSH2 0x826 PUSH2 0x1316 DUP11 PUSH1 0x80 ADD MLOAD PUSH2 0x279F JUMP JUMPDEST DUP8 SWAP1 PUSH2 0x28EC JUMP JUMPDEST SWAP1 POP PUSH2 0x1340 PUSH2 0x1338 DUP6 PUSH2 0x820 DUP5 PUSH8 0xDE0B6B3A7640000 PUSH2 0x28EC JUMP JUMPDEST DUP7 MLOAD SWAP1 PUSH2 0x29CB JUMP JUMPDEST DUP6 MSTORE POP POP JUMPDEST NUMBER PUSH1 0x20 DUP5 ADD MSTORE PUSH1 0x4 DUP1 SLOAD DUP5 SWAP2 SWAP1 DUP7 SWAP1 DUP2 LT PUSH2 0x135C JUMPI INVALID JUMPDEST PUSH1 0x0 SWAP2 DUP3 MSTORE PUSH1 0x20 SWAP2 DUP3 SWAP1 KECCAK256 DUP4 MLOAD PUSH1 0x5 SWAP3 SWAP1 SWAP3 MUL ADD SWAP1 DUP2 SSTORE DUP3 DUP3 ADD MLOAD PUSH1 0x1 DUP3 ADD SSTORE PUSH1 0x40 DUP1 DUP5 ADD MLOAD PUSH1 0x2 DUP4 ADD SSTORE PUSH1 0x60 DUP5 ADD MLOAD PUSH1 0x3 DUP4 ADD SSTORE PUSH1 0x80 SWAP1 SWAP4 ADD MLOAD PUSH1 0x4 SWAP1 SWAP2 ADD DUP1 SLOAD PUSH32 0xFFFFFFFFFFFFFFFFFFFFFFFFFFFFFFFFFFFFFFFFFFFFFFFFFFFFFFFFFFFFFF00 AND SWAP2 ISZERO ISZERO SWAP2 SWAP1 SWAP2 OR SWAP1 SSTORE DUP5 ADD MLOAD DUP5 MLOAD SWAP2 MLOAD DUP7 SWAP3 PUSH32 0x3BE3541FC42237D611B30329040BFA4569541D156560ACDBBAE57640D20B8F46 SWAP3 PUSH2 0x1401 SWAP3 SWAP1 SWAP2 DUP8 SWAP2 PUSH2 0x3A33 JUMP JUMPDEST PUSH1 0x40 MLOAD DUP1 SWAP2 SUB SWAP1 LOG2 POP POP JUMPDEST SWAP2 SWAP1 POP JUMP JUMPDEST PUSH1 0x2 PUSH1 0x1 SLOAD EQ ISZERO PUSH2 0x144E JUMPI PUSH1 0x40 MLOAD PUSH32 0x8C379A000000000000000000000000000000000000000000000000000000000 DUP2 MSTORE PUSH1 0x4 ADD PUSH2 0x64F SWAP1 PUSH2 0x3825 JUMP JUMPDEST PUSH1 0x2 PUSH1 0x1 DUP2 SWAP1 SSTORE POP PUSH1 0x0 PUSH1 0x4 DUP3 DUP2 SLOAD DUP2 LT PUSH2 0x1465 JUMPI INVALID JUMPDEST PUSH1 0x0 SWAP2 DUP3 MSTORE PUSH1 0x20 DUP1 DUP4 KECCAK256 DUP6 DUP5 MSTORE PUSH1 0x6 DUP3 MSTORE PUSH1 0x40 DUP1 DUP6 KECCAK256 CALLER DUP1 DUP8 MSTORE SWAP4 MSTORE DUP5 KECCAK256 DUP1 SLOAD DUP6 DUP3 SSTORE PUSH1 0x1 DUP3 ADD DUP7 SWAP1 SSTORE PUSH1 0x5 SWAP1 SWAP5 MUL SWAP1 SWAP2 ADD SWAP5 POP SWAP3 SWAP1 PUSH2 0x14BB SWAP1 PUSH5 0xE8D4A51000 SWAP1 PUSH2 0x820 SWAP1 PUSH2 0x14B4 SWAP1 DUP10 PUSH2 0x584 JUMP JUMPDEST DUP6 SWAP1 PUSH2 0x28EC JUMP JUMPDEST SWAP1 POP DUP1 DUP5 PUSH1 0x3 ADD SLOAD GT PUSH2 0x14CF JUMPI PUSH1 0x0 PUSH2 0x14DE JUMP JUMPDEST PUSH1 0x3 DUP5 ADD SLOAD PUSH2 0x14DE SWAP1 DUP3 PUSH2 0x2989 JUMP JUMPDEST DUP5 PUSH1 0x3 ADD DUP2 SWAP1 SSTORE POP PUSH2 0x14F8 CALLER DUP4 PUSH1 0x5 DUP9 DUP2 SLOAD DUP2 LT PUSH2 0x1051 JUMPI INVALID JUMPDEST DUP5 CALLER PUSH20 0xFFFFFFFFFFFFFFFFFFFFFFFFFFFFFFFFFFFFFFFF AND PUSH32 0xBB757047C2B5F3974FE26B7C10F732E7BCE710B0952A71082702781E62AE0595 DUP5 PUSH1 0x40 MLOAD PUSH2 0x115F SWAP2 SWAP1 PUSH2 0x3A0C JUMP JUMPDEST PUSH32 0x0 DUP2 JUMP JUMPDEST PUSH1 0x4 SLOAD PUSH1 0x0 JUMPDEST DUP2 DUP2 LT ISZERO PUSH2 0x15F3 JUMPI PUSH2 0x1579 PUSH2 0x2F30 JUMP JUMPDEST PUSH1 0x4 DUP3 DUP2 SLOAD DUP2 LT PUSH2 0x1586 JUMPI INVALID JUMPDEST PUSH1 0x0 SWAP2 DUP3 MSTORE PUSH1 0x20 SWAP2 DUP3 SWAP1 KECCAK256 PUSH1 0x40 DUP1 MLOAD PUSH1 0xA0 DUP2 ADD DUP3 MSTORE PUSH1 0x5 SWAP1 SWAP4 MUL SWAP1 SWAP2 ADD DUP1 SLOAD DUP4 MSTORE PUSH1 0x1 DUP2 ADD SLOAD SWAP4 DUP4 ADD SWAP4 SWAP1 SWAP4 MSTORE PUSH1 0x2 DUP4 ADD SLOAD SWAP1 DUP3 ADD DUP2 SWAP1 MSTORE PUSH1 0x3 DUP4 ADD SLOAD PUSH1 0x60 DUP4 ADD MSTORE PUSH1 0x4 SWAP1 SWAP3 ADD SLOAD PUSH1 0xFF AND ISZERO ISZERO PUSH1 0x80 DUP3 ADD MSTORE SWAP2 POP ISZERO PUSH2 0x15EA JUMPI PUSH2 0x15E8 DUP3 PUSH2 0x123B JUMP JUMPDEST POP JUMPDEST POP PUSH1 0x1 ADD PUSH2 0x1569 JUMP JUMPDEST POP POP JUMP JUMPDEST PUSH2 0x15FF PUSH2 0x2A0A JUMP JUMPDEST PUSH1 0x0 SLOAD PUSH20 0xFFFFFFFFFFFFFFFFFFFFFFFFFFFFFFFFFFFFFFFF SWAP1 DUP2 AND SWAP2 AND EQ PUSH2 0x1653 JUMPI PUSH1 0x40 MLOAD PUSH32 0x8C379A000000000000000000000000000000000000000000000000000000000 DUP2 MSTORE PUSH1 0x4 ADD PUSH2 0x64F SWAP1 PUSH2 0x3564 JUMP JUMPDEST PUSH2 0x165C DUP4 PUSH2 0x123B JUMP JUMPDEST POP DUP1 ISZERO PUSH2 0x166B JUMPI PUSH2 0x166B PUSH2 0x1563 JUMP JUMPDEST PUSH1 0x4 DUP4 DUP2 SLOAD DUP2 LT PUSH2 0x1678 JUMPI INVALID JUMPDEST PUSH1 0x0 SWAP2 DUP3 MSTORE PUSH1 0x20 SWAP1 SWAP2 KECCAK256 PUSH1 0x4 PUSH1 0x5 SWAP1 SWAP3 MUL ADD ADD SLOAD PUSH1 0xFF AND ISZERO PUSH2 0x16D3 JUMPI PUSH2 0x16CB DUP3 PUSH2 0x872 PUSH1 0x4 DUP7 DUP2 SLOAD DUP2 LT PUSH2 0x16A8 JUMPI INVALID JUMPDEST SWAP1 PUSH1 0x0 MSTORE PUSH1 0x20 PUSH1 0x0 KECCAK256 SWAP1 PUSH1 0x5 MUL ADD PUSH1 0x2 ADD SLOAD PUSH1 0x8 SLOAD PUSH2 0x2989 SWAP1 SWAP2 SWAP1 PUSH4 0xFFFFFFFF AND JUMP JUMPDEST PUSH1 0x8 SSTORE PUSH2 0x170E JUMP JUMPDEST PUSH2 0x170A DUP3 PUSH2 0x872 PUSH1 0x4 DUP7 DUP2 SLOAD DUP2 LT PUSH2 0x16E7 JUMPI INVALID JUMPDEST SWAP1 PUSH1 0x0 MSTORE PUSH1 0x20 PUSH1 0x0 KECCAK256 SWAP1 PUSH1 0x5 MUL ADD PUSH1 0x2 ADD SLOAD PUSH1 0x9 SLOAD PUSH2 0x2989 SWAP1 SWAP2 SWAP1 PUSH4 0xFFFFFFFF AND JUMP JUMPDEST PUSH1 0x9 SSTORE JUMPDEST DUP2 PUSH1 0x4 DUP5 DUP2 SLOAD DUP2 LT PUSH2 0x171C JUMPI INVALID JUMPDEST SWAP1 PUSH1 0x0 MSTORE PUSH1 0x20 PUSH1 0x0 KECCAK256 SWAP1 PUSH1 0x5 MUL ADD PUSH1 0x2 ADD DUP2 SWAP1 SSTORE POP DUP3 PUSH32 0xC0CFD54D2DE2B55F1E6E108D3EC53FF0A1ABE6055401D32C61E9433B747EF9F8 DUP4 PUSH1 0x40 MLOAD PUSH2 0x1761 SWAP2 SWAP1 PUSH2 0x3A0C JUMP JUMPDEST PUSH1 0x40 MLOAD DUP1 SWAP2 SUB SWAP1 LOG2 POP POP POP JUMP JUMPDEST PUSH1 0xA SLOAD DUP2 JUMP JUMPDEST PUSH6 0x1D1A94A2000 DUP2 JUMP JUMPDEST PUSH1 0xC SLOAD DUP2 JUMP JUMPDEST PUSH2 0x178C PUSH2 0x2A0A JUMP JUMPDEST PUSH1 0x0 SLOAD PUSH20 0xFFFFFFFFFFFFFFFFFFFFFFFFFFFFFFFFFFFFFFFF SWAP1 DUP2 AND SWAP2 AND EQ PUSH2 0x17E0 JUMPI PUSH1 0x40 MLOAD PUSH32 0x8C379A000000000000000000000000000000000000000000000000000000000 DUP2 MSTORE PUSH1 0x4 ADD PUSH2 0x64F SWAP1 PUSH2 0x3564 JUMP JUMPDEST PUSH1 0x0 DUP1 SLOAD PUSH1 0x40 MLOAD PUSH20 0xFFFFFFFFFFFFFFFFFFFFFFFFFFFFFFFFFFFFFFFF SWAP1 SWAP2 AND SWAP1 PUSH32 0x8BE0079C531659141344CD1FD0A4F28419497F9722A3DAAFE3B4186F6B6457E0 SWAP1 DUP4 SWAP1 LOG3 PUSH1 0x0 DUP1 SLOAD PUSH32 0xFFFFFFFFFFFFFFFFFFFFFFFF0000000000000000000000000000000000000000 AND SWAP1 SSTORE JUMP JUMPDEST PUSH1 0xD SLOAD DUP2 JUMP JUMPDEST PUSH1 0x5 DUP2 DUP2 SLOAD DUP2 LT PUSH2 0x1862 JUMPI INVALID JUMPDEST PUSH1 0x0 SWAP2 DUP3 MSTORE PUSH1 0x20 SWAP1 SWAP2 KECCAK256 ADD SLOAD PUSH20 0xFFFFFFFFFFFFFFFFFFFFFFFFFFFFFFFFFFFFFFFF AND SWAP1 POP DUP2 JUMP JUMPDEST PUSH2 0x1891 PUSH2 0x2A0A JUMP JUMPDEST PUSH1 0x0 SLOAD PUSH20 0xFFFFFFFFFFFFFFFFFFFFFFFFFFFFFFFFFFFFFFFF SWAP1 DUP2 AND SWAP2 AND EQ PUSH2 0x18E5 JUMPI PUSH1 0x40 MLOAD PUSH32 0x8C379A000000000000000000000000000000000000000000000000000000000 DUP2 MSTORE PUSH1 0x4 ADD PUSH2 0x64F SWAP1 PUSH2 0x3564 JUMP JUMPDEST PUSH1 0x0 DUP5 GT DUP1 ISZERO PUSH2 0x18F5 JUMPI POP PUSH1 0x0 DUP4 GT JUMPDEST DUP1 ISZERO PUSH2 0x1901 JUMPI POP PUSH1 0x0 DUP3 GT JUMPDEST PUSH2 0x1937 JUMPI PUSH1 0x40 MLOAD PUSH32 0x8C379A000000000000000000000000000000000000000000000000000000000 DUP2 MSTORE PUSH1 0x4 ADD PUSH2 0x64F SWAP1 PUSH2 0x3291 JUMP JUMPDEST PUSH5 0xE8D4A51000 PUSH2 0x194B DUP4 PUSH2 0x872 DUP8 DUP8 PUSH2 0x29CB JUMP JUMPDEST EQ PUSH2 0x1982 JUMPI PUSH1 0x40 MLOAD PUSH32 0x8C379A000000000000000000000000000000000000000000000000000000000 DUP2 MSTORE PUSH1 0x4 ADD PUSH2 0x64F SWAP1 PUSH2 0x33DF JUMP JUMPDEST DUP1 ISZERO PUSH2 0x1990 JUMPI PUSH2 0x1990 PUSH2 0x1563 JUMP JUMPDEST PUSH2 0x199A PUSH1 0x0 PUSH2 0xE86 JUMP JUMPDEST PUSH1 0xA DUP5 SWAP1 SSTORE PUSH1 0xB DUP4 SWAP1 SSTORE PUSH1 0xC DUP3 SWAP1 SSTORE PUSH1 0x40 MLOAD PUSH32 0x2882B55EE231404A42D7D813DAD9CFE57D65E1992A6D165A6E29466A8D1B7499 SWAP1 PUSH2 0x19DD SWAP1 DUP7 SWAP1 DUP7 SWAP1 DUP7 SWAP1 PUSH2 0x3A33 JUMP JUMPDEST PUSH1 0x40 MLOAD DUP1 SWAP2 SUB SWAP1 LOG1 POP POP POP POP JUMP JUMPDEST PUSH1 0x2 SLOAD PUSH20 0xFFFFFFFFFFFFFFFFFFFFFFFFFFFFFFFFFFFFFFFF AND DUP2 JUMP JUMPDEST PUSH1 0x0 SLOAD PUSH20 0xFFFFFFFFFFFFFFFFFFFFFFFFFFFFFFFFFFFFFFFF AND SWAP1 JUMP JUMPDEST PUSH1 0x6 PUSH1 0x20 SWAP1 DUP2 MSTORE PUSH1 0x0 SWAP3 DUP4 MSTORE PUSH1 0x40 DUP1 DUP5 KECCAK256 SWAP1 SWAP2 MSTORE SWAP1 DUP3 MSTORE SWAP1 KECCAK256 DUP1 SLOAD PUSH1 0x1 DUP3 ADD SLOAD PUSH1 0x2 SWAP1 SWAP3 ADD SLOAD SWAP1 SWAP2 SWAP1 DUP4 JUMP JUMPDEST PUSH1 0x9 SLOAD DUP2 JUMP JUMPDEST PUSH2 0x1A5D PUSH2 0x2A0A JUMP JUMPDEST PUSH1 0x0 SLOAD PUSH20 0xFFFFFFFFFFFFFFFFFFFFFFFFFFFFFFFFFFFFFFFF SWAP1 DUP2 AND SWAP2 AND EQ PUSH2 0x1AB1 JUMPI PUSH1 0x40 MLOAD PUSH32 0x8C379A000000000000000000000000000000000000000000000000000000000 DUP2 MSTORE PUSH1 0x4 ADD PUSH2 0x64F SWAP1 PUSH2 0x3564 JUMP JUMPDEST PUSH20 0xFFFFFFFFFFFFFFFFFFFFFFFFFFFFFFFFFFFFFFFF DUP2 AND ISZERO DUP1 ISZERO SWAP1 PUSH2 0x1AF1 JUMPI POP PUSH1 0x3 SLOAD PUSH20 0xFFFFFFFFFFFFFFFFFFFFFFFFFFFFFFFFFFFFFFFF DUP3 DUP2 AND SWAP2 AND EQ ISZERO JUMPDEST PUSH2 0x1B27 JUMPI PUSH1 0x40 MLOAD PUSH32 0x8C379A000000000000000000000000000000000000000000000000000000000 DUP2 MSTORE PUSH1 0x4 ADD PUSH2 0x64F SWAP1 PUSH2 0x385C JUMP JUMPDEST PUSH1 0x3 DUP1 SLOAD PUSH32 0xFFFFFFFFFFFFFFFFFFFFFFFF0000000000000000000000000000000000000000 AND PUSH20 0xFFFFFFFFFFFFFFFFFFFFFFFFFFFFFFFFFFFFFFFF DUP4 AND SWAP1 DUP2 OR SWAP1 SWAP2 SSTORE PUSH1 0x40 MLOAD PUSH32 0x4C0C07D0B548B824A1B998EB4D11FCCF1CFBC1E47EDCDB309970BA88315EB303 SWAP1 PUSH1 0x0 SWAP1 LOG2 POP JUMP JUMPDEST PUSH2 0x1B9E PUSH2 0x2A0A JUMP JUMPDEST PUSH1 0x0 SLOAD PUSH20 0xFFFFFFFFFFFFFFFFFFFFFFFFFFFFFFFFFFFFFFFF SWAP1 DUP2 AND SWAP2 AND EQ PUSH2 0x1BF2 JUMPI PUSH1 0x40 MLOAD PUSH32 0x8C379A000000000000000000000000000000000000000000000000000000000 DUP2 MSTORE PUSH1 0x4 ADD PUSH2 0x64F SWAP1 PUSH2 0x3564 JUMP JUMPDEST PUSH20 0xFFFFFFFFFFFFFFFFFFFFFFFFFFFFFFFFFFFFFFFF DUP3 AND PUSH2 0x1C3F JUMPI PUSH1 0x40 MLOAD PUSH32 0x8C379A000000000000000000000000000000000000000000000000000000000 DUP2 MSTORE PUSH1 0x4 ADD PUSH2 0x64F SWAP1 PUSH2 0x3973 JUMP JUMPDEST PUSH20 0xFFFFFFFFFFFFFFFFFFFFFFFFFFFFFFFFFFFFFFFF DUP3 AND PUSH1 0x0 DUP2 DUP2 MSTORE PUSH1 0x7 PUSH1 0x20 MSTORE PUSH1 0x40 SWAP1 DUP2 SWAP1 KECCAK256 DUP1 SLOAD PUSH32 0xFFFFFFFFFFFFFFFFFFFFFFFFFFFFFFFFFFFFFFFFFFFFFFFFFFFFFFFFFFFFFF00 AND DUP5 ISZERO ISZERO OR SWAP1 SSTORE MLOAD PUSH32 0xC551BBB22D0406DBFB8B6B7740CC521BCF44E1106029CF899C19B6A8E4C99D51 SWAP1 PUSH2 0x1CBE SWAP1 DUP5 SWAP1 PUSH2 0x3235 JUMP JUMPDEST PUSH1 0x40 MLOAD DUP1 SWAP2 SUB SWAP1 LOG2 POP POP JUMP JUMPDEST PUSH32 0x0 DUP2 JUMP JUMPDEST PUSH1 0x8 SLOAD DUP2 JUMP JUMPDEST PUSH2 0x1CFC PUSH2 0x2A0A JUMP JUMPDEST PUSH1 0x0 SLOAD PUSH20 0xFFFFFFFFFFFFFFFFFFFFFFFFFFFFFFFFFFFFFFFF SWAP1 DUP2 AND SWAP2 AND EQ PUSH2 0x1D50 JUMPI PUSH1 0x40 MLOAD PUSH32 0x8C379A000000000000000000000000000000000000000000000000000000000 DUP2 MSTORE PUSH1 0x4 ADD PUSH2 0x64F SWAP1 PUSH2 0x3564 JUMP JUMPDEST PUSH1 0x40 MLOAD PUSH32 0x70A0823100000000000000000000000000000000000000000000000000000000 DUP2 MSTORE PUSH1 0x0 SWAP1 PUSH20 0xFFFFFFFFFFFFFFFFFFFFFFFFFFFFFFFFFFFFFFFF DUP6 AND SWAP1 PUSH4 0x70A08231 SWAP1 PUSH2 0x1DA5 SWAP1 ADDRESS SWAP1 PUSH1 0x4 ADD PUSH2 0x31BD JUMP JUMPDEST PUSH1 0x20 PUSH1 0x40 MLOAD DUP1 DUP4 SUB DUP2 DUP7 DUP1 EXTCODESIZE ISZERO DUP1 ISZERO PUSH2 0x1DBD JUMPI PUSH1 0x0 DUP1 REVERT JUMPDEST POP GAS STATICCALL ISZERO DUP1 ISZERO PUSH2 0x1DD1 JUMPI RETURNDATASIZE PUSH1 0x0 DUP1 RETURNDATACOPY RETURNDATASIZE PUSH1 0x0 REVERT JUMPDEST POP POP POP POP PUSH1 0x40 MLOAD RETURNDATASIZE PUSH1 0x1F NOT PUSH1 0x1F DUP3 ADD AND DUP3 ADD DUP1 PUSH1 0x40 MSTORE POP DUP2 ADD SWAP1 PUSH2 0x1DF5 SWAP2 SWAP1 PUSH2 0x3085 JUMP JUMPDEST LT ISZERO PUSH2 0x1E2D JUMPI PUSH1 0x40 MLOAD PUSH32 0x8C379A000000000000000000000000000000000000000000000000000000000 DUP2 MSTORE PUSH1 0x4 ADD PUSH2 0x64F SWAP1 PUSH2 0x352D JUMP JUMPDEST PUSH32 0x0 PUSH20 0xFFFFFFFFFFFFFFFFFFFFFFFFFFFFFFFFFFFFFFFF AND DUP4 PUSH20 0xFFFFFFFFFFFFFFFFFFFFFFFFFFFFFFFFFFFFFFFF AND EQ ISZERO PUSH2 0x1EB3 JUMPI PUSH1 0x40 MLOAD PUSH32 0x8C379A000000000000000000000000000000000000000000000000000000000 DUP2 MSTORE PUSH1 0x4 ADD PUSH2 0x64F SWAP1 PUSH2 0x376B JUMP JUMPDEST DUP1 ISZERO PUSH2 0x1EC1 JUMPI PUSH2 0x1EC1 PUSH2 0x1563 JUMP JUMPDEST DUP2 ISZERO PUSH2 0x1EDC JUMPI PUSH1 0x8 SLOAD PUSH2 0x1ED4 SWAP1 DUP6 PUSH2 0x29CB JUMP JUMPDEST PUSH1 0x8 SSTORE PUSH2 0x1EED JUMP JUMPDEST PUSH1 0x9 SLOAD PUSH2 0x1EE9 SWAP1 DUP6 PUSH2 0x29CB JUMP JUMPDEST PUSH1 0x9 SSTORE JUMPDEST PUSH1 0x5 DUP1 SLOAD PUSH1 0x1 DUP1 DUP3 ADD DUP4 SSTORE PUSH32 0x36B6384B5ECA791C62761152D0C79BB0604C104A5FB6F4EB0703F3154BB3DB0 SWAP1 SWAP2 ADD DUP1 SLOAD PUSH32 0xFFFFFFFFFFFFFFFFFFFFFFFF0000000000000000000000000000000000000000 AND PUSH20 0xFFFFFFFFFFFFFFFFFFFFFFFFFFFFFFFFFFFFFFFF DUP8 AND SWAP1 DUP2 OR SWAP1 SWAP2 SSTORE PUSH1 0x40 DUP1 MLOAD PUSH1 0xA0 DUP2 ADD DUP3 MSTORE PUSH1 0x0 DUP1 DUP3 MSTORE NUMBER PUSH1 0x20 DUP4 ADD SWAP1 DUP2 MSTORE SWAP3 DUP3 ADD DUP11 DUP2 MSTORE PUSH1 0x60 DUP4 ADD DUP3 DUP2 MSTORE DUP10 ISZERO ISZERO PUSH1 0x80 DUP6 ADD SWAP1 DUP2 MSTORE PUSH1 0x4 DUP1 SLOAD DUP1 DUP11 ADD DUP3 SSTORE SWAP5 MSTORE SWAP4 MLOAD PUSH32 0x8A35ACFBC15FF81A39AE7D344FD709F28E8600B4AA8C65C6B64BFE7FE36BD19B SWAP4 DUP10 MUL SWAP4 DUP5 ADD SSTORE SWAP4 MLOAD PUSH32 0x8A35ACFBC15FF81A39AE7D344FD709F28E8600B4AA8C65C6B64BFE7FE36BD19C DUP4 ADD SSTORE MLOAD PUSH32 0x8A35ACFBC15FF81A39AE7D344FD709F28E8600B4AA8C65C6B64BFE7FE36BD19D DUP3 ADD SSTORE SWAP2 MLOAD PUSH32 0x8A35ACFBC15FF81A39AE7D344FD709F28E8600B4AA8C65C6B64BFE7FE36BD19E DUP4 ADD SSTORE MLOAD PUSH32 0x8A35ACFBC15FF81A39AE7D344FD709F28E8600B4AA8C65C6B64BFE7FE36BD19F SWAP1 SWAP2 ADD DUP1 SLOAD PUSH32 0xFFFFFFFFFFFFFFFFFFFFFFFFFFFFFFFFFFFFFFFFFFFFFFFFFFFFFFFFFFFFFF00 AND SWAP2 ISZERO ISZERO SWAP2 SWAP1 SWAP2 OR SWAP1 SSTORE SWAP2 SLOAD PUSH2 0x208E SWAP2 PUSH2 0x2989 JUMP JUMPDEST PUSH32 0x18CAA0724A26384928EFE604AE6DDC99C242548876259770FC88FCB7E719D8FA DUP7 DUP6 PUSH1 0x40 MLOAD PUSH2 0x20BF SWAP3 SWAP2 SWAP1 PUSH2 0x3A15 JUMP JUMPDEST PUSH1 0x40 MLOAD DUP1 SWAP2 SUB SWAP1 LOG3 POP POP POP POP JUMP JUMPDEST PUSH1 0x0 PUSH2 0x20D7 PUSH2 0x2F30 JUMP JUMPDEST PUSH1 0x4 DUP5 DUP2 SLOAD DUP2 LT PUSH2 0x20E4 JUMPI INVALID JUMPDEST PUSH1 0x0 SWAP2 DUP3 MSTORE PUSH1 0x20 SWAP2 DUP3 SWAP1 KECCAK256 PUSH1 0x40 DUP1 MLOAD PUSH1 0xA0 DUP2 ADD DUP3 MSTORE PUSH1 0x5 SWAP1 SWAP4 MUL SWAP1 SWAP2 ADD DUP1 SLOAD DUP4 MSTORE PUSH1 0x1 DUP2 ADD SLOAD SWAP4 DUP4 ADD SWAP4 SWAP1 SWAP4 MSTORE PUSH1 0x2 DUP4 ADD SLOAD SWAP1 DUP3 ADD MSTORE PUSH1 0x3 DUP3 ADD SLOAD PUSH1 0x60 DUP3 ADD MSTORE PUSH1 0x4 SWAP1 SWAP2 ADD SLOAD PUSH1 0xFF AND ISZERO ISZERO PUSH1 0x80 DUP3 ADD MSTORE SWAP1 POP PUSH2 0x213E PUSH2 0x2F61 JUMP JUMPDEST POP PUSH1 0x0 DUP5 DUP2 MSTORE PUSH1 0x6 PUSH1 0x20 SWAP1 DUP2 MSTORE PUSH1 0x40 DUP1 DUP4 KECCAK256 PUSH20 0xFFFFFFFFFFFFFFFFFFFFFFFFFFFFFFFFFFFFFFFF DUP8 AND DUP5 MSTORE DUP3 MSTORE SWAP2 DUP3 SWAP1 KECCAK256 DUP3 MLOAD PUSH1 0x60 DUP1 DUP3 ADD DUP6 MSTORE DUP3 SLOAD DUP3 MSTORE PUSH1 0x1 DUP4 ADD SLOAD DUP3 DUP6 ADD MSTORE PUSH1 0x2 SWAP1 SWAP3 ADD SLOAD SWAP4 DUP2 ADD SWAP4 SWAP1 SWAP4 MSTORE DUP4 MLOAD SWAP1 DUP5 ADD MLOAD SWAP2 DUP5 ADD MLOAD SWAP1 SWAP2 SWAP1 NUMBER GT DUP1 ISZERO PUSH2 0x21AC JUMPI POP DUP1 ISZERO ISZERO JUMPDEST ISZERO PUSH2 0x2225 JUMPI PUSH1 0x0 PUSH2 0x21CA DUP6 PUSH1 0x20 ADD MLOAD NUMBER PUSH2 0x2989 SWAP1 SWAP2 SWAP1 PUSH4 0xFFFFFFFF AND JUMP JUMPDEST SWAP1 POP PUSH1 0x0 PUSH2 0x21FE DUP7 PUSH1 0x80 ADD MLOAD PUSH2 0x21E2 JUMPI PUSH1 0x9 SLOAD PUSH2 0x21E6 JUMP JUMPDEST PUSH1 0x8 SLOAD JUMPDEST PUSH2 0x820 DUP9 PUSH1 0x40 ADD MLOAD PUSH2 0x826 PUSH2 0x1316 DUP12 PUSH1 0x80 ADD MLOAD PUSH2 0x279F JUMP JUMPDEST SWAP1 POP PUSH2 0x2220 PUSH2 0x2219 DUP5 PUSH2 0x820 DUP5 PUSH8 0xDE0B6B3A7640000 PUSH2 0x28EC JUMP JUMPDEST DUP6 SWAP1 PUSH2 0x29CB JUMP JUMPDEST SWAP4 POP POP POP JUMPDEST PUSH1 0x0 PUSH2 0x2245 PUSH5 0xE8D4A51000 PUSH2 0x820 PUSH2 0x223D DUP11 DUP13 PUSH2 0x584 JUMP JUMPDEST DUP8 MLOAD SWAP1 PUSH2 0x28EC JUMP JUMPDEST PUSH1 0x20 DUP6 ADD MLOAD SWAP1 SWAP2 POP PUSH2 0x226D SWAP1 PUSH2 0x2267 PUSH8 0xDE0B6B3A7640000 PUSH2 0x820 DUP6 DUP9 PUSH2 0x28EC JUMP JUMPDEST SWAP1 PUSH2 0x2989 JUMP JUMPDEST SWAP9 SWAP8 POP POP POP POP POP POP POP POP JUMP JUMPDEST PUSH5 0xE8D4A51000 DUP2 JUMP JUMPDEST PUSH1 0x3 SLOAD PUSH20 0xFFFFFFFFFFFFFFFFFFFFFFFFFFFFFFFFFFFFFFFF AND DUP2 JUMP JUMPDEST PUSH1 0x2 PUSH1 0x1 SLOAD EQ ISZERO PUSH2 0x22DB JUMPI PUSH1 0x40 MLOAD PUSH32 0x8C379A000000000000000000000000000000000000000000000000000000000 DUP2 MSTORE PUSH1 0x4 ADD PUSH2 0x64F SWAP1 PUSH2 0x3825 JUMP JUMPDEST PUSH1 0x2 PUSH1 0x1 SSTORE PUSH2 0x22E8 PUSH2 0x2F30 JUMP JUMPDEST PUSH2 0x22F1 DUP4 PUSH2 0x123B JUMP JUMPDEST PUSH1 0x0 DUP5 DUP2 MSTORE PUSH1 0x6 PUSH1 0x20 SWAP1 DUP2 MSTORE PUSH1 0x40 DUP1 DUP4 KECCAK256 CALLER DUP5 MSTORE SWAP1 SWAP2 MSTORE SWAP1 KECCAK256 PUSH1 0x80 DUP3 ADD MLOAD SWAP2 SWAP3 POP SWAP1 DUP1 PUSH2 0x232D JUMPI POP CALLER PUSH1 0x0 SWAP1 DUP2 MSTORE PUSH1 0x7 PUSH1 0x20 MSTORE PUSH1 0x40 SWAP1 KECCAK256 SLOAD PUSH1 0xFF AND JUMPDEST PUSH2 0x2363 JUMPI PUSH1 0x40 MLOAD PUSH32 0x8C379A000000000000000000000000000000000000000000000000000000000 DUP2 MSTORE PUSH1 0x4 ADD PUSH2 0x64F SWAP1 PUSH2 0x35F6 JUMP JUMPDEST PUSH1 0x0 PUSH2 0x236F CALLER DUP7 PUSH2 0x584 JUMP JUMPDEST DUP3 SLOAD SWAP1 SWAP2 POP ISZERO PUSH2 0x2384 JUMPI PUSH2 0x2384 CALLER DUP7 DUP4 PUSH2 0x280F JUMP JUMPDEST DUP4 ISZERO PUSH2 0x2580 JUMPI PUSH1 0x0 PUSH1 0x5 DUP7 DUP2 SLOAD DUP2 LT PUSH2 0x2399 JUMPI INVALID JUMPDEST PUSH1 0x0 SWAP2 DUP3 MSTORE PUSH1 0x20 SWAP1 SWAP2 KECCAK256 ADD SLOAD PUSH1 0x40 MLOAD PUSH32 0x70A0823100000000000000000000000000000000000000000000000000000000 DUP2 MSTORE PUSH20 0xFFFFFFFFFFFFFFFFFFFFFFFFFFFFFFFFFFFFFFFF SWAP1 SWAP2 AND SWAP1 PUSH4 0x70A08231 SWAP1 PUSH2 0x23F8 SWAP1 ADDRESS SWAP1 PUSH1 0x4 ADD PUSH2 0x31BD JUMP JUMPDEST PUSH1 0x20 PUSH1 0x40 MLOAD DUP1 DUP4 SUB DUP2 DUP7 DUP1 EXTCODESIZE ISZERO DUP1 ISZERO PUSH2 0x2410 JUMPI PUSH1 0x0 DUP1 REVERT JUMPDEST POP GAS STATICCALL ISZERO DUP1 ISZERO PUSH2 0x2424 JUMPI RETURNDATASIZE PUSH1 0x0 DUP1 RETURNDATACOPY RETURNDATASIZE PUSH1 0x0 REVERT JUMPDEST POP POP POP POP PUSH1 0x40 MLOAD RETURNDATASIZE PUSH1 0x1F NOT PUSH1 0x1F DUP3 ADD AND DUP3 ADD DUP1 PUSH1 0x40 MSTORE POP DUP2 ADD SWAP1 PUSH2 0x2448 SWAP2 SWAP1 PUSH2 0x3085 JUMP JUMPDEST SWAP1 POP PUSH2 0x2487 CALLER ADDRESS DUP8 PUSH1 0x5 DUP11 DUP2 SLOAD DUP2 LT PUSH2 0x245D JUMPI INVALID JUMPDEST PUSH1 0x0 SWAP2 DUP3 MSTORE PUSH1 0x20 SWAP1 SWAP2 KECCAK256 ADD SLOAD PUSH20 0xFFFFFFFFFFFFFFFFFFFFFFFFFFFFFFFFFFFFFFFF AND SWAP3 SWAP2 SWAP1 PUSH2 0x2A0E JUMP JUMPDEST PUSH2 0x2547 DUP2 PUSH1 0x5 DUP9 DUP2 SLOAD DUP2 LT PUSH2 0x2498 JUMPI INVALID JUMPDEST PUSH1 0x0 SWAP2 DUP3 MSTORE PUSH1 0x20 SWAP1 SWAP2 KECCAK256 ADD SLOAD PUSH1 0x40 MLOAD PUSH32 0x70A0823100000000000000000000000000000000000000000000000000000000 DUP2 MSTORE PUSH20 0xFFFFFFFFFFFFFFFFFFFFFFFFFFFFFFFFFFFFFFFF SWAP1 SWAP2 AND SWAP1 PUSH4 0x70A08231 SWAP1 PUSH2 0x24F7 SWAP1 ADDRESS SWAP1 PUSH1 0x4 ADD PUSH2 0x31BD JUMP JUMPDEST PUSH1 0x20 PUSH1 0x40 MLOAD DUP1 DUP4 SUB DUP2 DUP7 DUP1 EXTCODESIZE ISZERO DUP1 ISZERO PUSH2 0x250F JUMPI PUSH1 0x0 DUP1 REVERT JUMPDEST POP GAS STATICCALL ISZERO DUP1 ISZERO PUSH2 0x2523 JUMPI RETURNDATASIZE PUSH1 0x0 DUP1 RETURNDATACOPY RETURNDATASIZE PUSH1 0x0 REVERT JUMPDEST POP POP POP POP PUSH1 0x40 MLOAD RETURNDATASIZE PUSH1 0x1F NOT PUSH1 0x1F DUP3 ADD AND DUP3 ADD DUP1 PUSH1 0x40 MSTORE POP DUP2 ADD SWAP1 PUSH2 0x2267 SWAP2 SWAP1 PUSH2 0x3085 JUMP JUMPDEST DUP4 SLOAD SWAP1 SWAP6 POP PUSH2 0x2556 SWAP1 DUP7 PUSH2 0x29CB JUMP JUMPDEST DUP4 SSTORE PUSH2 0x2579 PUSH2 0x256E PUSH5 0xE8D4A51000 PUSH2 0x820 DUP9 DUP7 PUSH2 0x28EC JUMP JUMPDEST PUSH1 0x60 DUP7 ADD MLOAD SWAP1 PUSH2 0x29CB JUMP JUMPDEST PUSH1 0x60 DUP6 ADD MSTORE POP JUMPDEST PUSH2 0x25B4 PUSH8 0xDE0B6B3A7640000 PUSH2 0x820 DUP6 PUSH1 0x0 ADD MLOAD PUSH2 0x826 PUSH5 0xE8D4A51000 PUSH2 0x820 DUP8 DUP10 PUSH1 0x0 ADD SLOAD PUSH2 0x28EC SWAP1 SWAP2 SWAP1 PUSH4 0xFFFFFFFF AND JUMP JUMPDEST DUP3 PUSH1 0x1 ADD DUP2 SWAP1 SSTORE POP DUP3 PUSH1 0x4 DUP7 DUP2 SLOAD DUP2 LT PUSH2 0x25CA JUMPI INVALID JUMPDEST PUSH1 0x0 SWAP2 DUP3 MSTORE PUSH1 0x20 SWAP2 DUP3 SWAP1 KECCAK256 DUP4 MLOAD PUSH1 0x5 SWAP3 SWAP1 SWAP3 MUL ADD SWAP1 DUP2 SSTORE SWAP1 DUP3 ADD MLOAD PUSH1 0x1 DUP3 ADD SSTORE PUSH1 0x40 DUP1 DUP4 ADD MLOAD PUSH1 0x2 DUP4 ADD SSTORE PUSH1 0x60 DUP4 ADD MLOAD PUSH1 0x3 DUP4 ADD SSTORE PUSH1 0x80 SWAP1 SWAP3 ADD MLOAD PUSH1 0x4 SWAP1 SWAP2 ADD DUP1 SLOAD PUSH32 0xFFFFFFFFFFFFFFFFFFFFFFFFFFFFFFFFFFFFFFFFFFFFFFFFFFFFFFFFFFFFFF00 AND SWAP2 ISZERO ISZERO SWAP2 SWAP1 SWAP2 OR SWAP1 SSTORE MLOAD DUP6 SWAP1 CALLER SWAP1 PUSH32 0x90890809C654F11D6E72A28FA60149770A0D11EC6C92319D6CEB2BB0A4EA1A15 SWAP1 PUSH2 0x115F SWAP1 DUP9 SWAP1 PUSH2 0x3A0C JUMP JUMPDEST PUSH2 0x2671 PUSH2 0x2A0A JUMP JUMPDEST PUSH1 0x0 SLOAD PUSH20 0xFFFFFFFFFFFFFFFFFFFFFFFFFFFFFFFFFFFFFFFF SWAP1 DUP2 AND SWAP2 AND EQ PUSH2 0x26C5 JUMPI PUSH1 0x40 MLOAD PUSH32 0x8C379A000000000000000000000000000000000000000000000000000000000 DUP2 MSTORE PUSH1 0x4 ADD PUSH2 0x64F SWAP1 PUSH2 0x3564 JUMP JUMPDEST PUSH20 0xFFFFFFFFFFFFFFFFFFFFFFFFFFFFFFFFFFFFFFFF DUP2 AND PUSH2 0x2712 JUMPI PUSH1 0x40 MLOAD PUSH32 0x8C379A000000000000000000000000000000000000000000000000000000000 DUP2 MSTORE PUSH1 0x4 ADD PUSH2 0x64F SWAP1 PUSH2 0x334B JUMP JUMPDEST PUSH1 0x0 DUP1 SLOAD PUSH1 0x40 MLOAD PUSH20 0xFFFFFFFFFFFFFFFFFFFFFFFFFFFFFFFFFFFFFFFF DUP1 DUP6 AND SWAP4 SWAP3 AND SWAP2 PUSH32 0x8BE0079C531659141344CD1FD0A4F28419497F9722A3DAAFE3B4186F6B6457E0 SWAP2 LOG3 PUSH1 0x0 DUP1 SLOAD PUSH32 0xFFFFFFFFFFFFFFFFFFFFFFFF0000000000000000000000000000000000000000 AND PUSH20 0xFFFFFFFFFFFFFFFFFFFFFFFFFFFFFFFFFFFFFFFF SWAP3 SWAP1 SWAP3 AND SWAP2 SWAP1 SWAP2 OR SWAP1 SSTORE JUMP JUMPDEST PUSH1 0x0 DUP2 ISZERO PUSH2 0x27D5 JUMPI PUSH2 0x27CE PUSH5 0xE8D4A51000 PUSH2 0x820 PUSH1 0xB SLOAD PUSH9 0x22B1C8C1227A00000 PUSH2 0x28EC SWAP1 SWAP2 SWAP1 PUSH4 0xFFFFFFFF AND JUMP JUMPDEST SWAP1 POP PUSH2 0x140C JUMP JUMPDEST PUSH2 0x5D4 PUSH5 0xE8D4A51000 PUSH2 0x820 PUSH1 0xC SLOAD PUSH9 0x22B1C8C1227A00000 PUSH2 0x28EC SWAP1 SWAP2 SWAP1 PUSH4 0xFFFFFFFF AND JUMP JUMPDEST PUSH1 0xB SLOAD DUP2 JUMP JUMPDEST PUSH9 0x22B1C8C1227A00000 DUP2 JUMP JUMPDEST PUSH2 0x2817 PUSH2 0x2F61 JUMP JUMPDEST POP PUSH1 0x0 DUP3 DUP2 MSTORE PUSH1 0x6 PUSH1 0x20 SWAP1 DUP2 MSTORE PUSH1 0x40 DUP1 DUP4 KECCAK256 PUSH20 0xFFFFFFFFFFFFFFFFFFFFFFFFFFFFFFFFFFFFFFFF DUP8 AND DUP5 MSTORE DUP3 MSTORE DUP1 DUP4 KECCAK256 DUP2 MLOAD PUSH1 0x60 DUP2 ADD DUP4 MSTORE DUP2 SLOAD DUP1 DUP3 MSTORE PUSH1 0x1 DUP4 ADD SLOAD SWAP5 DUP3 ADD SWAP5 SWAP1 SWAP5 MSTORE PUSH1 0x2 SWAP1 SWAP2 ADD SLOAD SWAP2 DUP2 ADD SWAP2 SWAP1 SWAP2 MSTORE SWAP2 SWAP1 PUSH2 0x2884 SWAP1 PUSH5 0xE8D4A51000 SWAP1 PUSH2 0x820 SWAP1 DUP7 PUSH2 0x28EC JUMP JUMPDEST SWAP1 POP PUSH1 0x0 PUSH2 0x28BC PUSH8 0xDE0B6B3A7640000 PUSH2 0x820 PUSH1 0x4 DUP9 DUP2 SLOAD DUP2 LT PUSH2 0x28A4 JUMPI INVALID JUMPDEST PUSH1 0x0 SWAP2 DUP3 MSTORE PUSH1 0x20 SWAP1 SWAP2 KECCAK256 PUSH1 0x5 SWAP1 SWAP2 MUL ADD SLOAD DUP6 SWAP1 PUSH2 0x28EC JUMP JUMPDEST SWAP1 POP PUSH1 0x0 PUSH2 0x28D7 DUP5 PUSH1 0x20 ADD MLOAD DUP4 PUSH2 0x2989 SWAP1 SWAP2 SWAP1 PUSH4 0xFFFFFFFF AND JUMP JUMPDEST SWAP1 POP PUSH2 0x28E3 DUP8 DUP3 PUSH2 0x2AB1 JUMP JUMPDEST POP POP POP POP POP POP POP JUMP JUMPDEST PUSH1 0x0 DUP3 PUSH2 0x28FB JUMPI POP PUSH1 0x0 PUSH2 0x5D4 JUMP JUMPDEST DUP3 DUP3 MUL DUP3 DUP5 DUP3 DUP2 PUSH2 0x2908 JUMPI INVALID JUMPDEST DIV EQ PUSH2 0x5CE JUMPI PUSH1 0x40 MLOAD PUSH32 0x8C379A000000000000000000000000000000000000000000000000000000000 DUP2 MSTORE PUSH1 0x4 ADD PUSH2 0x64F SWAP1 PUSH2 0x3499 JUMP JUMPDEST PUSH1 0x0 PUSH2 0x2982 DUP4 DUP4 PUSH1 0x40 MLOAD DUP1 PUSH1 0x40 ADD PUSH1 0x40 MSTORE DUP1 PUSH1 0x1A DUP2 MSTORE PUSH1 0x20 ADD PUSH32 0x536166654D6174683A206469766973696F6E206279207A65726F000000000000 DUP2 MSTORE POP PUSH2 0x2CC1 JUMP JUMPDEST SWAP4 SWAP3 POP POP POP JUMP JUMPDEST PUSH1 0x0 PUSH2 0x2982 DUP4 DUP4 PUSH1 0x40 MLOAD DUP1 PUSH1 0x40 ADD PUSH1 0x40 MSTORE DUP1 PUSH1 0x1E DUP2 MSTORE PUSH1 0x20 ADD PUSH32 0x536166654D6174683A207375627472616374696F6E206F766572666C6F770000 DUP2 MSTORE POP PUSH2 0x2D12 JUMP JUMPDEST PUSH1 0x0 DUP3 DUP3 ADD DUP4 DUP2 LT ISZERO PUSH2 0x5CE JUMPI PUSH1 0x40 MLOAD PUSH32 0x8C379A000000000000000000000000000000000000000000000000000000000 DUP2 MSTORE PUSH1 0x4 ADD PUSH2 0x64F SWAP1 PUSH2 0x33A8 JUMP JUMPDEST CALLER SWAP1 JUMP JUMPDEST PUSH2 0x1235 DUP5 PUSH4 0x23B872DD PUSH1 0xE0 SHL DUP6 DUP6 DUP6 PUSH1 0x40 MLOAD PUSH1 0x24 ADD PUSH2 0x2A2F SWAP4 SWAP3 SWAP2 SWAP1 PUSH2 0x31DE JUMP JUMPDEST PUSH1 0x40 DUP1 MLOAD PUSH32 0xFFFFFFFFFFFFFFFFFFFFFFFFFFFFFFFFFFFFFFFFFFFFFFFFFFFFFFFFFFFFFFE0 DUP2 DUP5 SUB ADD DUP2 MSTORE SWAP2 SWAP1 MSTORE PUSH1 0x20 DUP2 ADD DUP1 MLOAD PUSH28 0xFFFFFFFFFFFFFFFFFFFFFFFFFFFFFFFFFFFFFFFFFFFFFFFFFFFFFFFF AND PUSH32 0xFFFFFFFF00000000000000000000000000000000000000000000000000000000 SWAP1 SWAP4 AND SWAP3 SWAP1 SWAP3 OR SWAP1 SWAP2 MSTORE PUSH2 0x2D58 JUMP JUMPDEST DUP1 ISZERO PUSH2 0x15F3 JUMPI PUSH1 0x40 MLOAD PUSH32 0x70A0823100000000000000000000000000000000000000000000000000000000 DUP2 MSTORE DUP2 SWAP1 PUSH20 0xFFFFFFFFFFFFFFFFFFFFFFFFFFFFFFFFFFFFFFFF PUSH32 0x0 AND SWAP1 PUSH4 0x70A08231 SWAP1 PUSH2 0x2B2B SWAP1 ADDRESS SWAP1 PUSH1 0x4 ADD PUSH2 0x31BD JUMP JUMPDEST PUSH1 0x20 PUSH1 0x40 MLOAD DUP1 DUP4 SUB DUP2 DUP7 DUP1 EXTCODESIZE ISZERO DUP1 ISZERO PUSH2 0x2B43 JUMPI PUSH1 0x0 DUP1 REVERT JUMPDEST POP GAS STATICCALL ISZERO DUP1 ISZERO PUSH2 0x2B57 JUMPI RETURNDATASIZE PUSH1 0x0 DUP1 RETURNDATACOPY RETURNDATASIZE PUSH1 0x0 REVERT JUMPDEST POP POP POP POP PUSH1 0x40 MLOAD RETURNDATASIZE PUSH1 0x1F NOT PUSH1 0x1F DUP3 ADD AND DUP3 ADD DUP1 PUSH1 0x40 MSTORE POP DUP2 ADD SWAP1 PUSH2 0x2B7B SWAP2 SWAP1 PUSH2 0x3085 JUMP JUMPDEST LT ISZERO PUSH2 0x2B89 JUMPI PUSH2 0x2B89 PUSH2 0x1172 JUMP JUMPDEST PUSH1 0x40 MLOAD PUSH32 0x70A0823100000000000000000000000000000000000000000000000000000000 DUP2 MSTORE PUSH1 0x0 SWAP1 PUSH20 0xFFFFFFFFFFFFFFFFFFFFFFFFFFFFFFFFFFFFFFFF PUSH32 0x0 AND SWAP1 PUSH4 0x70A08231 SWAP1 PUSH2 0x2BFE SWAP1 ADDRESS SWAP1 PUSH1 0x4 ADD PUSH2 0x31BD JUMP JUMPDEST PUSH1 0x20 PUSH1 0x40 MLOAD DUP1 DUP4 SUB DUP2 DUP7 DUP1 EXTCODESIZE ISZERO DUP1 ISZERO PUSH2 0x2C16 JUMPI PUSH1 0x0 DUP1 REVERT JUMPDEST POP GAS STATICCALL ISZERO DUP1 ISZERO PUSH2 0x2C2A JUMPI RETURNDATASIZE PUSH1 0x0 DUP1 RETURNDATACOPY RETURNDATASIZE PUSH1 0x0 REVERT JUMPDEST POP POP POP POP PUSH1 0x40 MLOAD RETURNDATASIZE PUSH1 0x1F NOT PUSH1 0x1F DUP3 ADD AND DUP3 ADD DUP1 PUSH1 0x40 MSTORE POP DUP2 ADD SWAP1 PUSH2 0x2C4E SWAP2 SWAP1 PUSH2 0x3085 JUMP JUMPDEST SWAP1 POP DUP2 DUP2 LT ISZERO PUSH2 0x2C5C JUMPI DUP1 SWAP2 POP JUMPDEST PUSH2 0x2C9D PUSH20 0xFFFFFFFFFFFFFFFFFFFFFFFFFFFFFFFFFFFFFFFF PUSH32 0x0 AND DUP5 DUP5 PUSH2 0x2CA2 JUMP JUMPDEST POP POP POP JUMP JUMPDEST PUSH2 0x2C9D DUP4 PUSH4 0xA9059CBB PUSH1 0xE0 SHL DUP5 DUP5 PUSH1 0x40 MLOAD PUSH1 0x24 ADD PUSH2 0x2A2F SWAP3 SWAP2 SWAP1 PUSH2 0x320F JUMP JUMPDEST PUSH1 0x0 DUP2 DUP4 PUSH2 0x2CFC JUMPI PUSH1 0x40 MLOAD PUSH32 0x8C379A000000000000000000000000000000000000000000000000000000000 DUP2 MSTORE PUSH1 0x4 ADD PUSH2 0x64F SWAP2 SWAP1 PUSH2 0x3240 JUMP JUMPDEST POP PUSH1 0x0 DUP4 DUP6 DUP2 PUSH2 0x2D08 JUMPI INVALID JUMPDEST DIV SWAP6 SWAP5 POP POP POP POP POP JUMP JUMPDEST PUSH1 0x0 DUP2 DUP5 DUP5 GT ISZERO PUSH2 0x2D50 JUMPI PUSH1 0x40 MLOAD PUSH32 0x8C379A000000000000000000000000000000000000000000000000000000000 DUP2 MSTORE PUSH1 0x4 ADD PUSH2 0x64F SWAP2 SWAP1 PUSH2 0x3240 JUMP JUMPDEST POP POP POP SWAP1 SUB SWAP1 JUMP JUMPDEST PUSH1 0x60 PUSH2 0x2DBA DUP3 PUSH1 0x40 MLOAD DUP1 PUSH1 0x40 ADD PUSH1 0x40 MSTORE DUP1 PUSH1 0x20 DUP2 MSTORE PUSH1 0x20 ADD PUSH32 0x5361666542455032303A206C6F772D6C6576656C2063616C6C206661696C6564 DUP2 MSTORE POP DUP6 PUSH20 0xFFFFFFFFFFFFFFFFFFFFFFFFFFFFFFFFFFFFFFFF AND PUSH2 0x2E0E SWAP1 SWAP3 SWAP2 SWAP1 PUSH4 0xFFFFFFFF AND JUMP JUMPDEST DUP1 MLOAD SWAP1 SWAP2 POP ISZERO PUSH2 0x2C9D JUMPI DUP1 DUP1 PUSH1 0x20 ADD SWAP1 MLOAD DUP2 ADD SWAP1 PUSH2 0x2DD8 SWAP2 SWAP1 PUSH2 0x3051 JUMP JUMPDEST PUSH2 0x2C9D JUMPI PUSH1 0x40 MLOAD PUSH32 0x8C379A000000000000000000000000000000000000000000000000000000000 DUP2 MSTORE PUSH1 0x4 ADD PUSH2 0x64F SWAP1 PUSH2 0x32EE JUMP JUMPDEST PUSH1 0x60 PUSH2 0x2E1D DUP5 DUP5 PUSH1 0x0 DUP6 PUSH2 0x2E25 JUMP JUMPDEST SWAP5 SWAP4 POP POP POP POP JUMP JUMPDEST PUSH1 0x60 PUSH2 0x2E30 DUP6 PUSH2 0x2F2A JUMP JUMPDEST PUSH2 0x2E66 JUMPI PUSH1 0x40 MLOAD PUSH32 0x8C379A000000000000000000000000000000000000000000000000000000000 DUP2 MSTORE PUSH1 0x4 ADD PUSH2 0x64F SWAP1 PUSH2 0x3679 JUMP JUMPDEST PUSH1 0x0 PUSH1 0x60 DUP7 PUSH20 0xFFFFFFFFFFFFFFFFFFFFFFFFFFFFFFFFFFFFFFFF AND DUP6 DUP8 PUSH1 0x40 MLOAD PUSH2 0x2E90 SWAP2 SWAP1 PUSH2 0x31A1 JUMP JUMPDEST PUSH1 0x0 PUSH1 0x40 MLOAD DUP1 DUP4 SUB DUP2 DUP6 DUP8 GAS CALL SWAP3 POP POP POP RETURNDATASIZE DUP1 PUSH1 0x0 DUP2 EQ PUSH2 0x2ECD JUMPI PUSH1 0x40 MLOAD SWAP2 POP PUSH1 0x1F NOT PUSH1 0x3F RETURNDATASIZE ADD AND DUP3 ADD PUSH1 0x40 MSTORE RETURNDATASIZE DUP3 MSTORE RETURNDATASIZE PUSH1 0x0 PUSH1 0x20 DUP5 ADD RETURNDATACOPY PUSH2 0x2ED2 JUMP JUMPDEST PUSH1 0x60 SWAP2 POP JUMPDEST POP SWAP2 POP SWAP2 POP DUP2 ISZERO PUSH2 0x2EE6 JUMPI SWAP2 POP PUSH2 0x2E1D SWAP1 POP JUMP JUMPDEST DUP1 MLOAD ISZERO PUSH2 0x2EF6 JUMPI DUP1 MLOAD DUP1 DUP3 PUSH1 0x20 ADD REVERT JUMPDEST DUP4 PUSH1 0x40 MLOAD PUSH32 0x8C379A000000000000000000000000000000000000000000000000000000000 DUP2 MSTORE PUSH1 0x4 ADD PUSH2 0x64F SWAP2 SWAP1 PUSH2 0x3240 JUMP JUMPDEST EXTCODESIZE ISZERO ISZERO SWAP1 JUMP JUMPDEST PUSH1 0x40 MLOAD DUP1 PUSH1 0xA0 ADD PUSH1 0x40 MSTORE DUP1 PUSH1 0x0 DUP2 MSTORE PUSH1 0x20 ADD PUSH1 0x0 DUP2 MSTORE PUSH1 0x20 ADD PUSH1 0x0 DUP2 MSTORE PUSH1 0x20 ADD PUSH1 0x0 DUP2 MSTORE PUSH1 0x20 ADD PUSH1 0x0 ISZERO ISZERO DUP2 MSTORE POP SWAP1 JUMP JUMPDEST PUSH1 0x40 MLOAD DUP1 PUSH1 0x60 ADD PUSH1 0x40 MSTORE DUP1 PUSH1 0x0 DUP2 MSTORE PUSH1 0x20 ADD PUSH1 0x0 DUP2 MSTORE PUSH1 0x20 ADD PUSH1 0x0 DUP2 MSTORE POP SWAP1 JUMP JUMPDEST PUSH1 0x0 PUSH1 0x20 DUP3 DUP5 SUB SLT ISZERO PUSH2 0x2F93 JUMPI DUP1 DUP2 REVERT JUMPDEST DUP2 CALLDATALOAD PUSH2 0x5CE DUP2 PUSH2 0x3A9A JUMP JUMPDEST PUSH1 0x0 DUP1 PUSH1 0x40 DUP4 DUP6 SUB SLT ISZERO PUSH2 0x2FB0 JUMPI DUP1 DUP2 REVERT JUMPDEST DUP3 CALLDATALOAD PUSH2 0x2FBB DUP2 PUSH2 0x3A9A JUMP JUMPDEST SWAP2 POP PUSH1 0x20 DUP4 ADD CALLDATALOAD PUSH2 0x2FCB DUP2 PUSH2 0x3ABF JUMP JUMPDEST DUP1 SWAP2 POP POP SWAP3 POP SWAP3 SWAP1 POP JUMP JUMPDEST PUSH1 0x0 DUP1 PUSH1 0x40 DUP4 DUP6 SUB SLT ISZERO PUSH2 0x2FE8 JUMPI DUP2 DUP3 REVERT JUMPDEST DUP3 CALLDATALOAD PUSH2 0x2FF3 DUP2 PUSH2 0x3A9A JUMP JUMPDEST SWAP5 PUSH1 0x20 SWAP4 SWAP1 SWAP4 ADD CALLDATALOAD SWAP4 POP POP POP JUMP JUMPDEST PUSH1 0x0 DUP1 PUSH1 0x0 PUSH1 0x60 DUP5 DUP7 SUB SLT ISZERO PUSH2 0x3015 JUMPI DUP1 DUP2 REVERT JUMPDEST DUP4 CALLDATALOAD PUSH2 0x3020 DUP2 PUSH2 0x3A9A JUMP JUMPDEST SWAP6 PUSH1 0x20 DUP6 ADD CALLDATALOAD SWAP6 POP PUSH1 0x40 SWAP1 SWAP5 ADD CALLDATALOAD SWAP4 SWAP3 POP POP POP JUMP JUMPDEST PUSH1 0x0 PUSH1 0x20 DUP3 DUP5 SUB SLT ISZERO PUSH2 0x3046 JUMPI DUP1 DUP2 REVERT JUMPDEST DUP2 CALLDATALOAD PUSH2 0x5CE DUP2 PUSH2 0x3ABF JUMP JUMPDEST PUSH1 0x0 PUSH1 0x20 DUP3 DUP5 SUB SLT ISZERO PUSH2 0x3062 JUMPI DUP1 DUP2 REVERT JUMPDEST DUP2 MLOAD PUSH2 0x5CE DUP2 PUSH2 0x3ABF JUMP JUMPDEST PUSH1 0x0 PUSH1 0x20 DUP3 DUP5 SUB SLT ISZERO PUSH2 0x307E JUMPI DUP1 DUP2 REVERT JUMPDEST POP CALLDATALOAD SWAP2 SWAP1 POP JUMP JUMPDEST PUSH1 0x0 PUSH1 0x20 DUP3 DUP5 SUB SLT ISZERO PUSH2 0x3096 JUMPI DUP1 DUP2 REVERT JUMPDEST POP MLOAD SWAP2 SWAP1 POP JUMP JUMPDEST PUSH1 0x0 DUP1 PUSH1 0x40 DUP4 DUP6 SUB SLT ISZERO PUSH2 0x30AF JUMPI DUP2 DUP3 REVERT JUMPDEST DUP3 CALLDATALOAD SWAP2 POP PUSH1 0x20 DUP4 ADD CALLDATALOAD PUSH2 0x2FCB DUP2 PUSH2 0x3A9A JUMP JUMPDEST PUSH1 0x0 DUP1 PUSH1 0x0 DUP1 PUSH1 0x80 DUP6 DUP8 SUB SLT ISZERO PUSH2 0x30D6 JUMPI DUP1 DUP2 REVERT JUMPDEST DUP5 CALLDATALOAD SWAP4 POP PUSH1 0x20 DUP6 ADD CALLDATALOAD PUSH2 0x30E8 DUP2 PUSH2 0x3A9A JUMP JUMPDEST SWAP3 POP PUSH1 0x40 DUP6 ADD CALLDATALOAD PUSH2 0x30F8 DUP2 PUSH2 0x3ABF JUMP JUMPDEST SWAP2 POP PUSH1 0x60 DUP6 ADD CALLDATALOAD PUSH2 0x3108 DUP2 PUSH2 0x3ABF JUMP JUMPDEST SWAP4 SWAP7 SWAP3 SWAP6 POP SWAP1 SWAP4 POP POP JUMP JUMPDEST PUSH1 0x0 DUP1 PUSH1 0x40 DUP4 DUP6 SUB SLT ISZERO PUSH2 0x3125 JUMPI DUP2 DUP3 REVERT JUMPDEST POP POP DUP1 CALLDATALOAD SWAP3 PUSH1 0x20 SWAP1 SWAP2 ADD CALLDATALOAD SWAP2 POP JUMP JUMPDEST PUSH1 0x0 DUP1 PUSH1 0x0 PUSH1 0x60 DUP5 DUP7 SUB SLT ISZERO PUSH2 0x3148 JUMPI DUP3 DUP4 REVERT JUMPDEST DUP4 CALLDATALOAD SWAP3 POP PUSH1 0x20 DUP5 ADD CALLDATALOAD SWAP2 POP PUSH1 0x40 DUP5 ADD CALLDATALOAD PUSH2 0x3161 DUP2 PUSH2 0x3ABF JUMP JUMPDEST DUP1 SWAP2 POP POP SWAP3 POP SWAP3 POP SWAP3 JUMP JUMPDEST PUSH1 0x0 DUP1 PUSH1 0x0 DUP1 PUSH1 0x80 DUP6 DUP8 SUB SLT ISZERO PUSH2 0x3181 JUMPI DUP4 DUP5 REVERT JUMPDEST DUP5 CALLDATALOAD SWAP4 POP PUSH1 0x20 DUP6 ADD CALLDATALOAD SWAP3 POP PUSH1 0x40 DUP6 ADD CALLDATALOAD SWAP2 POP PUSH1 0x60 DUP6 ADD CALLDATALOAD PUSH2 0x3108 DUP2 PUSH2 0x3ABF JUMP JUMPDEST PUSH1 0x0 DUP3 MLOAD PUSH2 0x31B3 DUP2 DUP5 PUSH1 0x20 DUP8 ADD PUSH2 0x3A6E JUMP JUMPDEST SWAP2 SWAP1 SWAP2 ADD SWAP3 SWAP2 POP POP JUMP JUMPDEST PUSH20 0xFFFFFFFFFFFFFFFFFFFFFFFFFFFFFFFFFFFFFFFF SWAP2 SWAP1 SWAP2 AND DUP2 MSTORE PUSH1 0x20 ADD SWAP1 JUMP JUMPDEST PUSH20 0xFFFFFFFFFFFFFFFFFFFFFFFFFFFFFFFFFFFFFFFF SWAP4 DUP5 AND DUP2 MSTORE SWAP2 SWAP1 SWAP3 AND PUSH1 0x20 DUP3 ADD MSTORE PUSH1 0x40 DUP2 ADD SWAP2 SWAP1 SWAP2 MSTORE PUSH1 0x60 ADD SWAP1 JUMP JUMPDEST PUSH20 0xFFFFFFFFFFFFFFFFFFFFFFFFFFFFFFFFFFFFFFFF SWAP3 SWAP1 SWAP3 AND DUP3 MSTORE PUSH1 0x20 DUP3 ADD MSTORE PUSH1 0x40 ADD SWAP1 JUMP JUMPDEST SWAP1 ISZERO ISZERO DUP2 MSTORE PUSH1 0x20 ADD SWAP1 JUMP JUMPDEST PUSH1 0x0 PUSH1 0x20 DUP3 MSTORE DUP3 MLOAD DUP1 PUSH1 0x20 DUP5 ADD MSTORE PUSH2 0x325F DUP2 PUSH1 0x40 DUP6 ADD PUSH1 0x20 DUP8 ADD PUSH2 0x3A6E JUMP JUMPDEST PUSH1 0x1F ADD PUSH32 0xFFFFFFFFFFFFFFFFFFFFFFFFFFFFFFFFFFFFFFFFFFFFFFFFFFFFFFFFFFFFFFE0 AND SWAP2 SWAP1 SWAP2 ADD PUSH1 0x40 ADD SWAP3 SWAP2 POP POP JUMP JUMPDEST PUSH1 0x20 DUP1 DUP3 MSTORE PUSH1 0x2D SWAP1 DUP3 ADD MSTORE PUSH32 0x734D6173746572436865663A20536864772072617465206D7573742062652067 PUSH1 0x40 DUP3 ADD MSTORE PUSH32 0x726561746572207468616E203000000000000000000000000000000000000000 PUSH1 0x60 DUP3 ADD MSTORE PUSH1 0x80 ADD SWAP1 JUMP JUMPDEST PUSH1 0x20 DUP1 DUP3 MSTORE PUSH1 0x2A SWAP1 DUP3 ADD MSTORE PUSH32 0x5361666542455032303A204245503230206F7065726174696F6E20646964206E PUSH1 0x40 DUP3 ADD MSTORE PUSH32 0x6F74207375636365656400000000000000000000000000000000000000000000 PUSH1 0x60 DUP3 ADD MSTORE PUSH1 0x80 ADD SWAP1 JUMP JUMPDEST PUSH1 0x20 DUP1 DUP3 MSTORE PUSH1 0x26 SWAP1 DUP3 ADD MSTORE PUSH32 0x4F776E61626C653A206E6577206F776E657220697320746865207A65726F2061 PUSH1 0x40 DUP3 ADD MSTORE PUSH32 0x6464726573730000000000000000000000000000000000000000000000000000 PUSH1 0x60 DUP3 ADD MSTORE PUSH1 0x80 ADD SWAP1 JUMP JUMPDEST PUSH1 0x20 DUP1 DUP3 MSTORE PUSH1 0x1B SWAP1 DUP3 ADD MSTORE PUSH32 0x536166654D6174683A206164646974696F6E206F766572666C6F770000000000 PUSH1 0x40 DUP3 ADD MSTORE PUSH1 0x60 ADD SWAP1 JUMP JUMPDEST PUSH1 0x20 DUP1 DUP3 MSTORE PUSH1 0x24 SWAP1 DUP3 ADD MSTORE PUSH32 0x734D6173746572436865663A20546F74616C2072617465206D75737420626520 PUSH1 0x40 DUP3 ADD MSTORE PUSH32 0x3165313200000000000000000000000000000000000000000000000000000000 PUSH1 0x60 DUP3 ADD MSTORE PUSH1 0x80 ADD SWAP1 JUMP JUMPDEST PUSH1 0x20 DUP1 DUP3 MSTORE PUSH1 0x22 SWAP1 DUP3 ADD MSTORE PUSH32 0x734D6173746572436865663A2042616C616E6365206D75737420657863656564 PUSH1 0x40 DUP3 ADD MSTORE PUSH32 0x2030000000000000000000000000000000000000000000000000000000000000 PUSH1 0x60 DUP3 ADD MSTORE PUSH1 0x80 ADD SWAP1 JUMP JUMPDEST PUSH1 0x20 DUP1 DUP3 MSTORE PUSH1 0x21 SWAP1 DUP3 ADD MSTORE PUSH32 0x536166654D6174683A206D756C7469706C69636174696F6E206F766572666C6F PUSH1 0x40 DUP3 ADD MSTORE PUSH32 0x7700000000000000000000000000000000000000000000000000000000000000 PUSH1 0x60 DUP3 ADD MSTORE PUSH1 0x80 ADD SWAP1 JUMP JUMPDEST PUSH1 0x20 DUP1 DUP3 MSTORE PUSH1 0x16 SWAP1 DUP3 ADD MSTORE PUSH32 0x77697468647261773A20496E73756666696369656E7400000000000000000000 PUSH1 0x40 DUP3 ADD MSTORE PUSH1 0x60 ADD SWAP1 JUMP JUMPDEST PUSH1 0x20 DUP1 DUP3 MSTORE PUSH1 0x11 SWAP1 DUP3 ADD MSTORE PUSH32 0x4E6F6E6520424550323020746F6B656E73000000000000000000000000000000 PUSH1 0x40 DUP3 ADD MSTORE PUSH1 0x60 ADD SWAP1 JUMP JUMPDEST PUSH1 0x20 DUP1 DUP3 MSTORE DUP2 DUP2 ADD MSTORE PUSH32 0x4F776E61626C653A2063616C6C6572206973206E6F7420746865206F776E6572 PUSH1 0x40 DUP3 ADD MSTORE PUSH1 0x60 ADD SWAP1 JUMP JUMPDEST PUSH1 0x20 DUP1 DUP3 MSTORE PUSH1 0x29 SWAP1 DUP3 ADD MSTORE PUSH32 0x4F776E61626C653A2063616C6C6572206973206E6F742074686520626F6F7374 PUSH1 0x40 DUP3 ADD MSTORE PUSH32 0x20636F6E74726163740000000000000000000000000000000000000000000000 PUSH1 0x60 DUP3 ADD MSTORE PUSH1 0x80 ADD SWAP1 JUMP JUMPDEST PUSH1 0x20 DUP1 DUP3 MSTORE PUSH1 0x41 SWAP1 DUP3 ADD MSTORE PUSH32 0x734D6173746572436865663A205468652061646472657373206973206E6F7420 PUSH1 0x40 DUP3 ADD MSTORE PUSH32 0x617661696C61626C6520746F206465706F73697420696E207468697320706F6F PUSH1 0x60 DUP3 ADD MSTORE PUSH32 0x6C00000000000000000000000000000000000000000000000000000000000000 PUSH1 0x80 DUP3 ADD MSTORE PUSH1 0xA0 ADD SWAP1 JUMP JUMPDEST PUSH1 0x20 DUP1 DUP3 MSTORE PUSH1 0x1D SWAP1 DUP3 ADD MSTORE PUSH32 0x416464726573733A2063616C6C20746F206E6F6E2D636F6E7472616374000000 PUSH1 0x40 DUP3 ADD MSTORE PUSH1 0x60 ADD SWAP1 JUMP JUMPDEST PUSH1 0x20 DUP1 DUP3 MSTORE PUSH1 0x40 SWAP1 DUP3 ADD DUP2 SWAP1 MSTORE PUSH32 0x734D6173746572436865663A204275726E2061646D696E206164647265737320 SWAP1 DUP3 ADD MSTORE PUSH32 0x6973207468652073616D6520776974682063757272656E742061646472657373 PUSH1 0x60 DUP3 ADD MSTORE PUSH1 0x80 ADD SWAP1 JUMP JUMPDEST PUSH1 0x20 DUP1 DUP3 MSTORE PUSH1 0x29 SWAP1 DUP3 ADD MSTORE PUSH32 0x734D6173746572436865663A20496E76616C6964206E657720626F6F7374206D PUSH1 0x40 DUP3 ADD MSTORE PUSH32 0x756C7469706C6965720000000000000000000000000000000000000000000000 PUSH1 0x60 DUP3 ADD MSTORE PUSH1 0x80 ADD SWAP1 JUMP JUMPDEST PUSH1 0x20 DUP1 DUP3 MSTORE PUSH1 0x27 SWAP1 DUP3 ADD MSTORE PUSH32 0x5348445720746F6B656E2063616E277420626520616464656420746F20666172 PUSH1 0x40 DUP3 ADD MSTORE PUSH32 0x6D20706F6F6C7300000000000000000000000000000000000000000000000000 PUSH1 0x60 DUP3 ADD MSTORE PUSH1 0x80 ADD SWAP1 JUMP JUMPDEST PUSH1 0x20 DUP1 DUP3 MSTORE PUSH1 0x2D SWAP1 DUP3 ADD MSTORE PUSH32 0x734D6173746572436865663A204275726E2061646D696E206164647265737320 PUSH1 0x40 DUP3 ADD MSTORE PUSH32 0x6D7573742062652076616C696400000000000000000000000000000000000000 PUSH1 0x60 DUP3 ADD MSTORE PUSH1 0x80 ADD SWAP1 JUMP JUMPDEST PUSH1 0x20 DUP1 DUP3 MSTORE PUSH1 0x1F SWAP1 DUP3 ADD MSTORE PUSH32 0x5265656E7472616E637947756172643A207265656E7472616E742063616C6C00 PUSH1 0x40 DUP3 ADD MSTORE PUSH1 0x60 ADD SWAP1 JUMP JUMPDEST PUSH1 0x20 DUP1 DUP3 MSTORE PUSH1 0x35 SWAP1 DUP3 ADD MSTORE PUSH32 0x734D6173746572436865663A204E657720626F6F737420636F6E747261637420 PUSH1 0x40 DUP3 ADD MSTORE PUSH32 0x61646472657373206D7573742062652076616C69640000000000000000000000 PUSH1 0x60 DUP3 ADD MSTORE PUSH1 0x80 ADD SWAP1 JUMP JUMPDEST PUSH1 0x20 DUP1 DUP3 MSTORE PUSH1 0x2F SWAP1 DUP3 ADD MSTORE PUSH32 0x734D6173746572436865663A204F6E6C7920726567756C6172206661726D2063 PUSH1 0x40 DUP3 ADD MSTORE PUSH32 0x6F756C6420626520626F6F737465640000000000000000000000000000000000 PUSH1 0x60 DUP3 ADD MSTORE PUSH1 0x80 ADD SWAP1 JUMP JUMPDEST PUSH1 0x20 DUP1 DUP3 MSTORE PUSH1 0x2B SWAP1 DUP3 ADD MSTORE PUSH32 0x734D6173746572436865663A2054686520757365722061646472657373206D75 PUSH1 0x40 DUP3 ADD MSTORE PUSH32 0x73742062652076616C6964000000000000000000000000000000000000000000 PUSH1 0x60 DUP3 ADD MSTORE PUSH1 0x80 ADD SWAP1 JUMP JUMPDEST PUSH1 0x20 DUP1 DUP3 MSTORE PUSH1 0x31 SWAP1 DUP3 ADD MSTORE PUSH32 0x734D6173746572436865663A20546865207768697465206C6973742061646472 PUSH1 0x40 DUP3 ADD MSTORE PUSH32 0x657373206D7573742062652076616C6964000000000000000000000000000000 PUSH1 0x60 DUP3 ADD MSTORE PUSH1 0x80 ADD SWAP1 JUMP JUMPDEST PUSH1 0x0 PUSH1 0xA0 DUP3 ADD SWAP1 POP DUP3 MLOAD DUP3 MSTORE PUSH1 0x20 DUP4 ADD MLOAD PUSH1 0x20 DUP4 ADD MSTORE PUSH1 0x40 DUP4 ADD MLOAD PUSH1 0x40 DUP4 ADD MSTORE PUSH1 0x60 DUP4 ADD MLOAD PUSH1 0x60 DUP4 ADD MSTORE PUSH1 0x80 DUP4 ADD MLOAD ISZERO ISZERO PUSH1 0x80 DUP4 ADD MSTORE SWAP3 SWAP2 POP POP JUMP JUMPDEST SWAP1 DUP2 MSTORE PUSH1 0x20 ADD SWAP1 JUMP JUMPDEST SWAP2 DUP3 MSTORE ISZERO ISZERO PUSH1 0x20 DUP3 ADD MSTORE PUSH1 0x40 ADD SWAP1 JUMP JUMPDEST SWAP2 DUP3 MSTORE PUSH1 0x20 DUP3 ADD MSTORE PUSH1 0x40 ADD SWAP1 JUMP JUMPDEST SWAP3 DUP4 MSTORE PUSH1 0x20 DUP4 ADD SWAP2 SWAP1 SWAP2 MSTORE PUSH1 0x40 DUP3 ADD MSTORE PUSH1 0x60 ADD SWAP1 JUMP JUMPDEST SWAP5 DUP6 MSTORE PUSH1 0x20 DUP6 ADD SWAP4 SWAP1 SWAP4 MSTORE PUSH1 0x40 DUP5 ADD SWAP2 SWAP1 SWAP2 MSTORE PUSH1 0x60 DUP4 ADD MSTORE ISZERO ISZERO PUSH1 0x80 DUP3 ADD MSTORE PUSH1 0xA0 ADD SWAP1 JUMP JUMPDEST PUSH1 0x0 JUMPDEST DUP4 DUP2 LT ISZERO PUSH2 0x3A89 JUMPI DUP2 DUP2 ADD MLOAD DUP4 DUP3 ADD MSTORE PUSH1 0x20 ADD PUSH2 0x3A71 JUMP JUMPDEST DUP4 DUP2 GT ISZERO PUSH2 0x1235 JUMPI POP POP PUSH1 0x0 SWAP2 ADD MSTORE JUMP JUMPDEST PUSH20 0xFFFFFFFFFFFFFFFFFFFFFFFFFFFFFFFFFFFFFFFF DUP2 AND DUP2 EQ PUSH2 0x3ABC JUMPI PUSH1 0x0 DUP1 REVERT JUMPDEST POP JUMP JUMPDEST DUP1 ISZERO ISZERO DUP2 EQ PUSH2 0x3ABC JUMPI PUSH1 0x0 DUP1 REVERT INVALID LOG2 PUSH5 0x6970667358 0x22 SLT KECCAK256 0xD1 DUP11 0xFB 0x1E 0x29 0x21 0xE DUP2 GAS SWAP2 LOG3 SGT MSTORE LT 0x5D 0xFB MSTORE 0xE7 SSTORE JUMPI CREATE 0x22 XOR 0xE8 CODECOPY MLOAD EXTCODECOPY KECCAK256 0xD6 0x1F PUSH32 0x6D64736F6C634300060C00330000000000000000000000000000000000000000 "
				},
				"gasEstimates": {
					"creation": {
						"codeDepositCost": "3021400",
						"executionCost": "infinite",
						"totalCost": "infinite"
					},
					"external": {
						"ACC_SHDW_PRECISION()": "319",
						"BOOST_PRECISION()": "317",
						"DARK_CHEF()": "infinite",
						"MASTERCHEF_SHDW_PER_BLOCK()": "338",
						"MASTER_PID()": "infinite",
						"MAX_BOOST_PRECISION()": "317",
						"SHDW()": "infinite",
						"SHDW_RATE_TOTAL_PRECISION()": "339",
						"add(uint256,address,bool,bool)": "infinite",
						"boostContract()": "1113",
						"burnAdmin()": "1158",
						"burnShdw(bool)": "infinite",
						"deposit(uint256,uint256)": "infinite",
						"emergencyWithdraw(uint256)": "infinite",
						"getBoostMultiplier(address,uint256)": "1461",
						"harvestFromMasterChef()": "infinite",
						"init(address)": "infinite",
						"lastBurnedBlock()": "1119",
						"lpToken(uint256)": "2082",
						"massUpdatePools()": "infinite",
						"owner()": "1114",
						"pendingShdw(uint256,address)": "infinite",
						"poolInfo(uint256)": "5438",
						"poolLength()": "1119",
						"renounceOwnership()": "24234",
						"set(uint256,uint256,bool)": "infinite",
						"shdwPerBlock(bool)": "infinite",
						"shdwPerBlockToBurn()": "infinite",
						"shdwRateToBurn()": "1095",
						"shdwRateToRegularFarm()": "1116",
						"shdwRateToSpecialFarm()": "1139",
						"totalRegularAllocPoint()": "1096",
						"totalSpecialAllocPoint()": "1140",
						"transferOwnership(address)": "24479",
						"updateBoostContract(address)": "24087",
						"updateBoostMultiplier(address,uint256,uint256)": "infinite",
						"updateBurnAdmin(address)": "24517",
						"updatePool(uint256)": "infinite",
						"updateShdwRate(uint256,uint256,uint256,bool)": "infinite",
						"updateWhiteList(address,bool)": "infinite",
						"userInfo(uint256,address)": "3105",
						"whiteList(address)": "1325",
						"withdraw(uint256,uint256)": "infinite"
					},
					"internal": {
						"_safeTransfer(address,uint256)": "infinite",
						"settlePendingShdw(address,uint256,uint256)": "infinite"
					}
				},
				"methodIdentifiers": {
					"ACC_SHDW_PRECISION()": "16e80f4d",
					"BOOST_PRECISION()": "cc6db2da",
					"DARK_CHEF()": "c3083016",
					"MASTERCHEF_SHDW_PER_BLOCK()": "f5b91cd3",
					"MASTER_PID()": "61621aaa",
					"MAX_BOOST_PRECISION()": "69b02128",
					"SHDW()": "03dcff74",
					"SHDW_RATE_TOTAL_PRECISION()": "d2ce6ae8",
					"add(uint256,address,bool,bool)": "c507aeaa",
					"boostContract()": "dfcedeee",
					"burnAdmin()": "81bdf98c",
					"burnShdw(bool)": "36183ed6",
					"deposit(uint256,uint256)": "e2bbb158",
					"emergencyWithdraw(uint256)": "5312ea8e",
					"getBoostMultiplier(address,uint256)": "033186e8",
					"harvestFromMasterChef()": "4f70b15a",
					"init(address)": "19ab453c",
					"lastBurnedBlock()": "78db4c34",
					"lpToken(uint256)": "78ed5d1f",
					"massUpdatePools()": "630b5ba1",
					"owner()": "8da5cb5b",
					"pendingShdw(uint256,address)": "c799b59d",
					"poolInfo(uint256)": "1526fe27",
					"poolLength()": "081e3eda",
					"renounceOwnership()": "715018a6",
					"set(uint256,uint256,bool)": "64482f79",
					"shdwPerBlock(bool)": "f474309e",
					"shdwPerBlockToBurn()": "19f95e2e",
					"shdwRateToBurn()": "6661100f",
					"shdwRateToRegularFarm()": "f5a26f40",
					"shdwRateToSpecialFarm()": "6fda08c3",
					"totalRegularAllocPoint()": "c40d337b",
					"totalSpecialAllocPoint()": "99d7e84a",
					"transferOwnership(address)": "f2fde38b",
					"updateBoostContract(address)": "9dd2fcc3",
					"updateBoostMultiplier(address,uint256,uint256)": "041a84c9",
					"updateBurnAdmin(address)": "0bb844bc",
					"updatePool(uint256)": "51eb05a6",
					"updateShdwRate(uint256,uint256,uint256,bool)": "815d087f",
					"updateWhiteList(address,bool)": "ac1d0609",
					"userInfo(uint256,address)": "93f1a40b",
					"whiteList(address)": "372c12b1",
					"withdraw(uint256,uint256)": "441a3e70"
				}
			},
			"storageLayout": {
				"storage": [
					{
						"astId": 30,
						"contract": "contracts/sMasterChef.sol:sMasterChef",
						"label": "_owner",
						"offset": 0,
						"slot": "0",
						"type": "t_address"
					},
					{
						"astId": 336,
						"contract": "contracts/sMasterChef.sol:sMasterChef",
						"label": "_status",
						"offset": 0,
						"slot": "1",
						"type": "t_uint256"
					},
					{
						"astId": 957,
						"contract": "contracts/sMasterChef.sol:sMasterChef",
						"label": "burnAdmin",
						"offset": 0,
						"slot": "2",
						"type": "t_address"
					},
					{
						"astId": 960,
						"contract": "contracts/sMasterChef.sol:sMasterChef",
						"label": "boostContract",
						"offset": 0,
						"slot": "3",
						"type": "t_address"
					},
					{
						"astId": 964,
						"contract": "contracts/sMasterChef.sol:sMasterChef",
						"label": "poolInfo",
						"offset": 0,
						"slot": "4",
						"type": "t_array(t_struct(PoolInfo)948_storage)dyn_storage"
					},
					{
						"astId": 968,
						"contract": "contracts/sMasterChef.sol:sMasterChef",
						"label": "lpToken",
						"offset": 0,
						"slot": "5",
						"type": "t_array(t_contract(IBEP20)465)dyn_storage"
					},
					{
						"astId": 975,
						"contract": "contracts/sMasterChef.sol:sMasterChef",
						"label": "userInfo",
						"offset": 0,
						"slot": "6",
						"type": "t_mapping(t_uint256,t_mapping(t_address,t_struct(UserInfo)937_storage))"
					},
					{
						"astId": 980,
						"contract": "contracts/sMasterChef.sol:sMasterChef",
						"label": "whiteList",
						"offset": 0,
						"slot": "7",
						"type": "t_mapping(t_address,t_bool)"
					},
					{
						"astId": 986,
						"contract": "contracts/sMasterChef.sol:sMasterChef",
						"label": "totalRegularAllocPoint",
						"offset": 0,
						"slot": "8",
						"type": "t_uint256"
					},
					{
						"astId": 989,
						"contract": "contracts/sMasterChef.sol:sMasterChef",
						"label": "totalSpecialAllocPoint",
						"offset": 0,
						"slot": "9",
						"type": "t_uint256"
					},
					{
						"astId": 1018,
						"contract": "contracts/sMasterChef.sol:sMasterChef",
						"label": "shdwRateToBurn",
						"offset": 0,
						"slot": "10",
						"type": "t_uint256"
					},
					{
						"astId": 1022,
						"contract": "contracts/sMasterChef.sol:sMasterChef",
						"label": "shdwRateToRegularFarm",
						"offset": 0,
						"slot": "11",
						"type": "t_uint256"
					},
					{
						"astId": 1026,
						"contract": "contracts/sMasterChef.sol:sMasterChef",
						"label": "shdwRateToSpecialFarm",
						"offset": 0,
						"slot": "12",
						"type": "t_uint256"
					},
					{
						"astId": 1028,
						"contract": "contracts/sMasterChef.sol:sMasterChef",
						"label": "lastBurnedBlock",
						"offset": 0,
						"slot": "13",
						"type": "t_uint256"
					}
				],
				"types": {
					"t_address": {
						"encoding": "inplace",
						"label": "address",
						"numberOfBytes": "20"
					},
					"t_array(t_contract(IBEP20)465)dyn_storage": {
						"base": "t_contract(IBEP20)465",
						"encoding": "dynamic_array",
						"label": "contract IBEP20[]",
						"numberOfBytes": "32"
					},
					"t_array(t_struct(PoolInfo)948_storage)dyn_storage": {
						"base": "t_struct(PoolInfo)948_storage",
						"encoding": "dynamic_array",
						"label": "struct sMasterChef.PoolInfo[]",
						"numberOfBytes": "32"
					},
					"t_bool": {
						"encoding": "inplace",
						"label": "bool",
						"numberOfBytes": "1"
					},
					"t_contract(IBEP20)465": {
						"encoding": "inplace",
						"label": "contract IBEP20",
						"numberOfBytes": "20"
					},
					"t_mapping(t_address,t_bool)": {
						"encoding": "mapping",
						"key": "t_address",
						"label": "mapping(address => bool)",
						"numberOfBytes": "32",
						"value": "t_bool"
					},
					"t_mapping(t_address,t_struct(UserInfo)937_storage)": {
						"encoding": "mapping",
						"key": "t_address",
						"label": "mapping(address => struct sMasterChef.UserInfo)",
						"numberOfBytes": "32",
						"value": "t_struct(UserInfo)937_storage"
					},
					"t_mapping(t_uint256,t_mapping(t_address,t_struct(UserInfo)937_storage))": {
						"encoding": "mapping",
						"key": "t_uint256",
						"label": "mapping(uint256 => mapping(address => struct sMasterChef.UserInfo))",
						"numberOfBytes": "32",
						"value": "t_mapping(t_address,t_struct(UserInfo)937_storage)"
					},
					"t_struct(PoolInfo)948_storage": {
						"encoding": "inplace",
						"label": "struct sMasterChef.PoolInfo",
						"members": [
							{
								"astId": 939,
								"contract": "contracts/sMasterChef.sol:sMasterChef",
								"label": "accShdwPerShare",
								"offset": 0,
								"slot": "0",
								"type": "t_uint256"
							},
							{
								"astId": 941,
								"contract": "contracts/sMasterChef.sol:sMasterChef",
								"label": "lastRewardBlock",
								"offset": 0,
								"slot": "1",
								"type": "t_uint256"
							},
							{
								"astId": 943,
								"contract": "contracts/sMasterChef.sol:sMasterChef",
								"label": "allocPoint",
								"offset": 0,
								"slot": "2",
								"type": "t_uint256"
							},
							{
								"astId": 945,
								"contract": "contracts/sMasterChef.sol:sMasterChef",
								"label": "totalBoostedShare",
								"offset": 0,
								"slot": "3",
								"type": "t_uint256"
							},
							{
								"astId": 947,
								"contract": "contracts/sMasterChef.sol:sMasterChef",
								"label": "isRegular",
								"offset": 0,
								"slot": "4",
								"type": "t_bool"
							}
						],
						"numberOfBytes": "160"
					},
					"t_struct(UserInfo)937_storage": {
						"encoding": "inplace",
						"label": "struct sMasterChef.UserInfo",
						"members": [
							{
								"astId": 932,
								"contract": "contracts/sMasterChef.sol:sMasterChef",
								"label": "amount",
								"offset": 0,
								"slot": "0",
								"type": "t_uint256"
							},
							{
								"astId": 934,
								"contract": "contracts/sMasterChef.sol:sMasterChef",
								"label": "rewardDebt",
								"offset": 0,
								"slot": "1",
								"type": "t_uint256"
							},
							{
								"astId": 936,
								"contract": "contracts/sMasterChef.sol:sMasterChef",
								"label": "boostMultiplier",
								"offset": 0,
								"slot": "2",
								"type": "t_uint256"
							}
						],
						"numberOfBytes": "96"
					},
					"t_uint256": {
						"encoding": "inplace",
						"label": "uint256",
						"numberOfBytes": "32"
					}
				}
			},
			"userdoc": {
				"kind": "user",
				"methods": {
					"BOOST_PRECISION()": {
						"notice": "Basic boost factor, none boosted user's boost factor"
					},
					"DARK_CHEF()": {
						"notice": "Address of MCV1 contract."
					},
					"MASTERCHEF_SHDW_PER_BLOCK()": {
						"notice": "40 Shdws per block in MCV1"
					},
					"MASTER_PID()": {
						"notice": "The pool id of the MCV2 mock token pool in MCV1."
					},
					"MAX_BOOST_PRECISION()": {
						"notice": "Hard limit for maxmium boost factor, it must greater than BOOST_PRECISION"
					},
					"SHDW()": {
						"notice": "Address of Shdw contract."
					},
					"SHDW_RATE_TOTAL_PRECISION()": {
						"notice": "total Shdw rate = toBurn + toRegular + toSpecial"
					},
					"add(uint256,address,bool,bool)": {
						"notice": "Add a new pool. Can only be called by the owner. DO NOT add the same LP token more than once. Rewards will be messed up if you do."
					},
					"boostContract()": {
						"notice": "The contract handles the share boosts."
					},
					"burnAdmin()": {
						"notice": "The only address can withdraw all the burn SHDW."
					},
					"burnShdw(bool)": {
						"notice": "Send Shdw pending for burn to `burnAdmin`."
					},
					"constructor": "_DARK_CHEF The ShadowSwap MCV1 contract address.  _Shdw The Shadow token contract address.  _MASTER_PID The pool id of the dummy pool on the MCV1.  _burnAdmin The address of burn admin.",
					"deposit(uint256,uint256)": {
						"notice": "Deposit LP tokens to pool."
					},
					"emergencyWithdraw(uint256)": {
						"notice": "Withdraw without caring about the rewards. EMERGENCY ONLY."
					},
					"getBoostMultiplier(address,uint256)": {
						"notice": "Get user boost multiplier for specific pool id."
					},
					"harvestFromMasterChef()": {
						"notice": "Harvests Shdw from `DARK_CHEF` MCV1 and pool `MASTER_PID` to MCV2."
					},
					"init(address)": {
						"notice": "Deposits a dummy token to `DARK_CHEF` MCV1. This is required because MCV1 holds the minting permission of Shdw. It will transfer all the `dummyToken` in the tx sender address. The allocation point for the dummy pool on MCV1 should be equal to the total amount of allocPoint."
					},
					"lpToken(uint256)": {
						"notice": "Address of the LP token for each MCV2 pool."
					},
					"massUpdatePools()": {
						"notice": "Update Shdw reward for all the active pools. Be careful of gas spending!"
					},
					"pendingShdw(uint256,address)": {
						"notice": "View function for checking pending Shdw rewards."
					},
					"poolInfo(uint256)": {
						"notice": "Info of each MCV2 pool."
					},
					"poolLength()": {
						"notice": "Returns the number of MCV2 pools."
					},
					"set(uint256,uint256,bool)": {
						"notice": "Update the given pool's Shdw allocation point. Can only be called by the owner."
					},
					"shdwPerBlock(bool)": {
						"notice": "Calculates and returns the `amount` of Shdw per block."
					},
					"shdwPerBlockToBurn()": {
						"notice": "Calculates and returns the `amount` of Shdw per block to burn."
					},
					"shdwRateToBurn()": {
						"notice": "The last block number of Shdw burn action being executed.Shdw distribute % for burn"
					},
					"shdwRateToRegularFarm()": {
						"notice": "Shdw distribute % for regular farm pool"
					},
					"shdwRateToSpecialFarm()": {
						"notice": "Shdw distribute % for special pools"
					},
					"totalRegularAllocPoint()": {
						"notice": "Total regular allocation points. Must be the sum of all regular pools' allocation points."
					},
					"totalSpecialAllocPoint()": {
						"notice": "Total special allocation points. Must be the sum of all special pools' allocation points."
					},
					"updateBoostContract(address)": {
						"notice": "Update boost contract address and max boost factor."
					},
					"updateBoostMultiplier(address,uint256,uint256)": {
						"notice": "Update user boost factor."
					},
					"updateBurnAdmin(address)": {
						"notice": "Update burn admin address."
					},
					"updatePool(uint256)": {
						"notice": "Update reward variables for the given pool."
					},
					"updateShdwRate(uint256,uint256,uint256,bool)": {
						"notice": "Update the % of Shdw distributions for burn, regular pools and special pools."
					},
					"updateWhiteList(address,bool)": {
						"notice": "Update whitelisted addresses for special pools."
					},
					"userInfo(uint256,address)": {
						"notice": "Info of each pool user."
					},
					"whiteList(address)": {
						"notice": "The whitelist of addresses allowed to deposit in special pools."
					},
					"withdraw(uint256,uint256)": {
						"notice": "Withdraw LP tokens from pool."
					}
				},
				"notice": "The (older) MasterChef contract gives out a constant number of Shdw tokens per block. It is the only address with minting rights for Shdw. The idea for this sMasterChef  (sMCV) contract is therefore to be the owner of a dummy token that is deposited into the MasterChef V1 (MCV1) contract. The allocation point for this pool on MCV1 is the total allocation point for all pools that receive incentives.",
				"version": 1
			}
		}
	}
}