{
	"data": {
		"bytecode": {
			"linkReferences": {},
			"object": "60a06040523480156200001157600080fd5b50600160005562000022336200002f565b3360601b60805262000081565b600180546001600160a01b038381166001600160a01b0319831681179093556040519116919082907f8be0079c531659141344cd1fd0a4f28419497f9722a3daafe3b4186f6b6457e090600090a35050565b60805160601c613e18620000a76000396000818161042501526108d20152613e186000f3fe608060405234801561001057600080fd5b50600436106102bb5760003560e01c8063715018a611610182578063a8660a78116100e9578063e2ec6ec3116100a2578063f51321d71161007c578063f51321d71461076b578063f7c469f01461077e578063f9cd5c1214610791578063feebf529146107b157600080fd5b8063e2ec6ec314610732578063ea1bb3d514610745578063f2fde38b1461075857600080fd5b8063a8660a78146106a8578063ad082874146106b1578063b6549f75146106c4578063b7813607146106cc578063b86c6f14146106df578063ca463ca41461071257600080fd5b80638da5cb5b1161013b5780638da5cb5b146105775780638ed5b0fc14610588578063915dfc31146105915780639513997f1461059a5780639ef346b4146105ad5780639f1b52481461069557600080fd5b8063715018a614610525578063760b31801461052d57806379795108146105365780637b9417c81461053e5780637f1bdd76146105515780638af104da1461056457600080fd5b8063392e53cd1161022657806348deb471116101df57806348deb4711461049a5780634af3c9b7146104a25780635a7bb69a146104c35780635fcbd285146104ec57806367d42a8b146104ff5780636a01df771461051257600080fd5b8063392e53cd146103cd5780633af32abf146103e15780633f138d4b1461040d57806345de0f771461042057806346ab91bf1461044757806348cd4cb11461049157600080fd5b806323f935741161027857806323f935741461034257806324953eaa1461035c578063286dd3f51461036f57806328fddfaf146103825780632c2339c11461038f57806337f859b8146103ba57600080fd5b806304e3ccd6146102c057806306cec857146102e65780630729da0b14610309578063083c63231461031e57806313083617146103275780632374876c1461032f575b600080fd5b6102d36102ce3660046139ef565b6107d1565b6040519081526020015b60405180910390f35b6102f96102f4366004613887565b61084a565b60405190151581526020016102dd565b61031c6103173660046138a2565b61086d565b005b6102d360085481565b6025546102d3565b61031c61033d366004613afc565b6109a9565b61034a600281565b60405160ff90911681526020016102dd565b61031c61036a366004613990565b610e06565b61031c61037d366004613887565b610ee1565b6024546102f99060ff1681565b6006546103a2906001600160a01b031681565b6040516001600160a01b0390911681526020016102dd565b6102d36103c83660046139ef565b610f32565b6006546102f990600160a01b900460ff1681565b6102f96103ef366004613887565b6001600160a01b031660009081526002602052604090205460ff1690565b61031c61041b366004613966565b610f9e565b6103a27f000000000000000000000000000000000000000000000000000000000000000081565b61045a6104553660046139ef565b6110c7565b604080519788526020880196909652948601939093529015156060850152608084015260a0830152151560c082015260e0016102dd565b6102d360075481565b6027546102d3565b6104b56104b0366004613913565b6111b7565b6040516102dd929190613beb565b6102d36104d1366004613887565b6001600160a01b031660009081526028602052604090205490565b6004546103a2906001600160a01b031681565b61031c61050d3660046139ef565b611311565b61031c610520366004613a43565b611565565b61031c6119a1565b6102d3600a5481565b6102d36119b5565b61031c61054c366004613887565b611a47565b61031c61055f366004613ad0565b611a9b565b6102d3610572366004613966565b61223d565b6001546001600160a01b03166103a2565b6102d360095481565b6102d360035481565b61031c6105a8366004613a21565b612284565b61064a6105bb3660046139ef565b6040805160a08101825260008082526020820181905291810182905260608101829052608081019190915250600090815260266020908152604091829020825160a081018452815460ff808216151583526001600160a01b0361010083041694830194909452600160a81b90049092169282019290925260018201546060820152600290910154608082015290565b6040516102dd91908151151581526020808301516001600160a01b03169082015260408083015160ff1690820152606080830151908201526080918201519181019190915260a00190565b61031c6106a3366004613a21565b612462565b6102d360235481565b6102d36106bf366004613966565b61267e565b61031c612774565b6005546103a2906001600160a01b031681565b6106f26106ed3660046139ef565b6127fc565b6040805194855260208501939093529183015260608201526080016102dd565b610725610720366004613913565b61287d565b6040516102dd9190613b6e565b61031c610740366004613990565b6129c9565b6102d36107533660046139ef565b612a9f565b61031c610766366004613887565b612b72565b61064a610779366004613966565b612be8565b6102d361078c366004613887565b612c20565b6107a461079f366004613913565b612c44565b6040516102dd9190613bd8565b6102d36107bf366004613887565b60226020526000908152604090205481565b60006107dc60255490565b82106108255760405162461bcd60e51b8152602060048201526013602482015272696e646578206f7574206f6620626f756e647360681b60448201526064015b60405180910390fd5b6025828154811061083857610838613da8565b90600052602060002001549050919050565b6001600160a01b03811660009081526002602052604081205460ff165b92915050565b600654600160a01b900460ff16156108c75760405162461bcd60e51b815260206004820152601f60248201527f4f7065726174696f6e733a20416c726561647920696e697469616c697a656400604482015260640161081c565b336001600160a01b037f0000000000000000000000000000000000000000000000000000000000000000161461093f5760405162461bcd60e51b815260206004820152601760248201527f4f7065726174696f6e733a204e6f7420666163746f7279000000000000000000604482015260640161081c565b60068054600480546001600160a01b03808c166001600160a01b031992831617909255600580548b8416921691909117905583166001600160a81b031990911617600160a01b1790556007859055600884905560038390556109a082612b72565b50505050505050565b6109b1612d00565b333b156109f75760405162461bcd60e51b815260206004820152601460248201527318dbdb9d1c9858dd081b9bdd08185b1b1bddd95960621b604482015260640161081c565b333214610a465760405162461bcd60e51b815260206004820152601a60248201527f70726f787920636f6e7472616374206e6f7420616c6c6f776564000000000000604482015260640161081c565b6008544311610a8c5760405162461bcd60e51b8152602060048201526012602482015271486172766573743a20546f6f206561726c7960701b604482015260640161081c565b600260ff821610610adf5760405162461bcd60e51b815260206004820152601a60248201527f486172766573743a204e6f6e2076616c696420706f6f6c206964000000000000604482015260640161081c565b33600090815260216020908152604080832060ff85168452909152902054610b495760405162461bcd60e51b815260206004820152601c60248201527f486172766573743a20446964206e6f7420706172746963697061746500000000604482015260640161081c565b33600090815260216020908152604080832060ff80861685529252909120600101541615610bb15760405162461bcd60e51b8152602060048201526015602482015274486172766573743a20416c726561647920646f6e6560581b604482015260640161081c565b33600090815260216020908152604080832060ff8516845290915290206001908101805460ff19169091179055602354610bea57426023555b6000806000610bf93385612d5a565b919450925090508015610c5857610c3681600b8660ff1660028110610c2057610c20613da8565b600b020160050154612f6590919063ffffffff16565b600b8560ff1660028110610c4c57610c4c613da8565b600b0201600501819055505b8215610dd9576000600b8560ff1660028110610c7657610c76613da8565b600b0201600701546064610c8a9190613d14565b1115610d2d576000610cd16064610ccb600b8860ff1660028110610cb057610cb0613da8565b600b0201600701546064610cc49190613d14565b8790612f71565b90612f7d565b600554909150610ceb906001600160a01b03163383612f89565b604080518281526020810185905260ff87169133917f51524c2e5edfedf8b01b29719c661e4fbe27e71734e7cd773dabb7cb712fb3b3910160405180910390a3505b6000600b8560ff1660028110610d4557610d45613da8565b600b0201600701541115610dd9576000610d8a6064610ccb600b8860ff1660028110610d7357610d73613da8565b600b02016007015487612f7190919063ffffffff16565b9050610d97338683612fec565b604080518281526020810185905260ff87169133917f4b386667138d87683f75b2e46ad8ac192b053af4c8875da8689415997663a950910160405180910390a3505b8115610df657600454610df6906001600160a01b03163384612f89565b505050610e036001600055565b50565b610e0e6131f3565b60005b81811015610edc57600060026000858585818110610e3157610e31613da8565b9050602002016020810190610e469190613887565b6001600160a01b031681526020810191909152604001600020805460ff1916911515919091179055828282818110610e8057610e80613da8565b9050602002016020810190610e959190613887565b6001600160a01b03167ff1abf01a1043b7c244d128e8595cf0c1d10743b022b03a02dffd8ca3bf729f5a60405160405180910390a280610ed481613d57565b915050610e11565b505050565b610ee96131f3565b6001600160a01b038116600081815260026020526040808220805460ff19169055517ff1abf01a1043b7c244d128e8595cf0c1d10743b022b03a02dffd8ca3bf729f5a9190a250565b6000600b8260028110610f4757610f47613da8565b600b02016003015460ff16610f5e57506000919050565b610867600b8360028110610f7457610f74613da8565b600b020160040154600b8460028110610f8f57610f8f613da8565b600b02015461324d565b919050565b610fa66131f3565b6004546001600160a01b03838116911614156110045760405162461bcd60e51b815260206004820152601b60248201527f5265636f7665723a2043616e6e6f74206265204c5020746f6b656e0000000000604482015260640161081c565b6005546001600160a01b038381169116141561106c5760405162461bcd60e51b815260206004820152602160248201527f5265636f7665723a2043616e6e6f74206265206f66666572696e6720746f6b656044820152603760f91b606482015260840161081c565b6110806001600160a01b0383163383612f89565b604080516001600160a01b0384168152602081018390527f74545154aac348a3eac92596bd1971957ca94795f4e954ec5f613b55fab7812991015b60405180910390a15050565b6000806000806000806000600b88600281106110e5576110e5613da8565b600b020160000154600b896002811061110057611100613da8565b600b020160010154600b8a6002811061111b5761111b613da8565b600b020160020154600b8b6002811061113657611136613da8565b600b020160030160009054906101000a900460ff16600b8c6002811061115e5761115e613da8565b600b020160040154600b8d6002811061117957611179613da8565b600b020160050154600b8e6002811061119457611194613da8565b600b020160060154959e949d50929b509099509750955060ff9091169350915050565b60608060008367ffffffffffffffff8111156111d5576111d5613dbe565b6040519080825280602002602001820160405280156111fe578160200160208202803683370190505b50905060008467ffffffffffffffff81111561121c5761121c613dbe565b604051908082528060200260200182016040528015611245578160200160208202803683370190505b50905060005b600260ff82161015611304576001600160a01b038816600090815260216020908152604080832060ff8516808552925290912054845190918591811061129357611293613da8565b6020908102919091018101919091526001600160a01b038916600090815260218252604080822060ff80861680855291909452912060010154845192169184919081106112e2576112e2613da8565b91151560209283029190910190910152806112fc81613d72565b91505061124b565b5090969095509350505050565b611319612d00565b60008181526026602052604090205460ff16151560011461137c5760405162461bcd60e51b815260206004820152601d60248201527f76657374696e67207363686564756c65206973206e6f74206578697374000000604482015260640161081c565b60008181526026602052604090208054600154336001600160a01b0361010090930483168114929091161481806113b05750805b6114225760405162461bcd60e51b815260206004820152603860248201527f6f6e6c79207468652062656e656669636961727920616e64206f776e6572206360448201527f616e2072656c656173652076657374656420746f6b656e730000000000000000606482015260840161081c565b6040805160a081018252845460ff808216151583526001600160a01b036101008304166020840152600160a81b9091041691810191909152600184015460608201526002840154608082015260009061147a906132eb565b9050600081116114cc5760405162461bcd60e51b815260206004820152601b60248201527f6e6f2076657374656420746f6b656e7320746f2072656c656173650000000000604482015260640161081c565b60028401546114db9082612f65565b60028501556027546114ed9082613455565b6027558354600554611512916001600160a01b03918216916101009091041683612f89565b83546040518281526101009091046001600160a01b0316907fb21fb52d5749b80f3182f8c6992236b5e5576681880914484d7f4c9b062e619e9060200160405180910390a250505050610e036001600055565b61156d6131f3565b60075443106115be5760405162461bcd60e51b815260206004820152601b60248201527f4f7065726174696f6e733a2049464f2068617320737461727465640000000000604482015260640161081c565b600260ff8716106116115760405162461bcd60e51b815260206004820152601f60248201527f4f7065726174696f6e733a20506f6f6c20646f6573206e6f7420657869737400604482015260640161081c565b606484111561168a576040805162461bcd60e51b81526020600482015260248101919091527f4f7065726174696f6e733a2076657374696e672070657263656e74616765207360448201527f686f756c642065786365656473203020616e6420696e746572696f7220313030606482015260840161081c565b600082116116da5760405162461bcd60e51b815260206004820152601760248201527f6475726174696f6e206d75737420657863656564732030000000000000000000604482015260640161081c565b60018110156117375760405162461bcd60e51b8152602060048201526024808201527f736c696365506572696f645365636f6e6473206d7573742062652065786365656044820152636473203160e01b606482015260840161081c565b8181111561179c5760405162461bcd60e51b815260206004820152602c60248201527f736c696365506572696f645365636f6e6473206d75737420626520696e74657260448201526b34b7b910323ab930ba34b7b760a11b606482015260840161081c565b89600b8760ff16600281106117b3576117b3613da8565b600b02016001018190555088600b8760ff16600281106117d5576117d5613da8565b600b02016000018190555087600b8760ff16600281106117f7576117f7613da8565b600b02016002018190555086600b8760ff166002811061181957611819613da8565b600b020160030160006101000a81548160ff02191690831515021790555084600b8760ff166002811061184e5761184e613da8565b600b020160060160006101000a81548160ff02191690831515021790555083600b8760ff166002811061188357611883613da8565b600b02016007018190555082600b8760ff16600281106118a5576118a5613da8565b600b02016008018190555081600b8760ff16600281106118c7576118c7613da8565b600b02016009018190555080600b8760ff16600281106118e9576118e9613da8565b600b0201600a0181905550600080600090505b600260ff8216101561194c57611938600b8260ff166002811061192157611921613da8565b600b02016001015483612f6590919063ffffffff16565b91508061194481613d72565b9150506118fc565b50600a819055604080518c8152602081018c905260ff89168183015290517fddaf243a142670be60c19ff7116b5d8b124717b29bb4cc03cead42161614105b9181900360600190a15050505050505050505050565b6119a96131f3565b6119b36000613461565b565b6027546005546040516370a0823160e01b8152306004820152600092611a429290916001600160a01b03909116906370a082319060240160206040518083038186803b158015611a0457600080fd5b505afa158015611a18573d6000803e3d6000fd5b505050506040513d601f19601f82011682018060405250810190611a3c9190613a08565b90613455565b905090565b611a4f6131f3565b6001600160a01b038116600081815260026020526040808220805460ff19166001179055517fd1bba68c128cc3f427e5831b3c6f99f480b6efa6b9e80c757768f6124158cc3f9190a250565b611aa3612d00565b333b15611ae95760405162461bcd60e51b815260206004820152601460248201527318dbdb9d1c9858dd081b9bdd08185b1b1bddd95960621b604482015260640161081c565b333214611b385760405162461bcd60e51b815260206004820152601a60248201527f70726f787920636f6e7472616374206e6f7420616c6c6f776564000000000000604482015260640161081c565b600260ff821610611b8b5760405162461bcd60e51b815260206004820152601a60248201527f4465706f7369743a204e6f6e2076616c696420706f6f6c206964000000000000604482015260640161081c565b6000600b8260ff1660028110611ba357611ba3613da8565b600b020160010154118015611bd257506000600b8260ff1660028110611bcb57611bcb613da8565b600b020154115b611c165760405162461bcd60e51b815260206004820152601560248201527411195c1bdcda5d0e88141bdbdb081b9bdd081cd95d605a1b604482015260640161081c565b6007544311611c5c5760405162461bcd60e51b81526020600482015260126024820152714465706f7369743a20546f6f206561726c7960701b604482015260640161081c565b6008544310611ca15760405162461bcd60e51b81526020600482015260116024820152704465706f7369743a20546f6f206c61746560781b604482015260640161081c565b60008211611cf15760405162461bcd60e51b815260206004820152601b60248201527f4465706f7369743a20416d6f756e74206d757374206265203e20300000000000604482015260640161081c565b600a546005546040516370a0823160e01b81523060048201526001600160a01b03909116906370a082319060240160206040518083038186803b158015611d3757600080fd5b505afa158015611d4b573d6000803e3d6000fd5b505050506040513d601f19601f82011682018060405250810190611d6f9190613a08565b1015611dcc5760405162461bcd60e51b815260206004820152602660248201527f4465706f7369743a20546f6b656e73206e6f74206465706f73697465642070726044820152656f7065726c7960d01b606482015260840161081c565b600b8160ff1660028110611de257611de2613da8565b600b02016006015460ff16612070576006546040516336b5bc3760e21b81523360048201526000916001600160a01b03169063dad6f0dc9060240160206040518083038186803b158015611e3557600080fd5b505afa158015611e49573d6000803e3d6000fd5b505050506040513d601f19601f82011682018060405250810190611e6d9190613a08565b336000908152602260205260409020549091508190611e8c9085612f65565b1115611eda5760405162461bcd60e51b815260206004820152601a60248201527f4e6f7420656e6f7567682049464f20637265646974206c656674000000000000604482015260640161081c565b600454611ef2906001600160a01b03163330866134b3565b33600090815260216020908152604080832060ff86168452909152902054611f1a9084612f65565b33600090815260216020908152604080832060ff8716808552925282209290925590600b9060028110611f4f57611f4f613da8565b600b0201600201541115611fb757600b8260ff1660028110611f7357611f73613da8565b600b02016002015433600090815260216020908152604080832060ff871684529091529020541115611fb75760405162461bcd60e51b815260040161081c90613c77565b611fe783600b8460ff1660028110611fd157611fd1613da8565b600b020160040154612f6590919063ffffffff16565b600b8360ff1660028110611ffd57611ffd613da8565b600b0201600401553360009081526022602052604090205461201f9084612f65565b33600081815260226020908152604091829020939093555185815260ff8516927ff763e680fce25a97ffd55d8b705370c98b47b2285f7b3b2900c43606fd418045910160405180910390a35061222f565b3360009081526002602052604090205460ff166120cf5760405162461bcd60e51b815260206004820152601760248201527f41646472657373206e6f742077686974656c6973746564000000000000000000604482015260640161081c565b6004546120e7906001600160a01b03163330856134b3565b33600090815260216020908152604080832060ff8516845290915290205461210f9083612f65565b33600090815260216020908152604080832060ff8616808552925282209290925590600b906002811061214457612144613da8565b600b02016002015411156121ac57600b8160ff166002811061216857612168613da8565b600b02016002015433600090815260216020908152604080832060ff8616845290915290205411156121ac5760405162461bcd60e51b815260040161081c90613c77565b6121c682600b8360ff1660028110611fd157611fd1613da8565b600b8260ff16600281106121dc576121dc613da8565b600b0201600401819055508060ff16336001600160a01b03167ff763e680fce25a97ffd55d8b705370c98b47b2285f7b3b2900c43606fd4180458460405161222691815260200190565b60405180910390a35b6122396001600055565b5050565b6040516bffffffffffffffffffffffff19606084901b1660208201526034810182905260009060540160405160208183030381529060405280519060200120905092915050565b61228c6131f3565b6003546122999043613cbb565b81106122e75760405162461bcd60e51b815260206004820152601c60248201527f4f7065726174696f6e733a20456e64426c6f636b20746f6f2066617200000000604482015260640161081c565b60075443106123385760405162461bcd60e51b815260206004820152601b60248201527f4f7065726174696f6e733a2049464f2068617320737461727465640000000000604482015260640161081c565b8082106123ad5760405162461bcd60e51b815260206004820152603a60248201527f4f7065726174696f6e733a204e6577207374617274426c6f636b206d7573742060448201527f6265206c6f776572207468616e206e657720656e64426c6f636b000000000000606482015260840161081c565b8143106124225760405162461bcd60e51b815260206004820152603c60248201527f4f7065726174696f6e733a204e6577207374617274426c6f636b206d7573742060448201527f626520686967686572207468616e2063757272656e7420626c6f636b00000000606482015260840161081c565b6007829055600881905560408051838152602081018390527f7cd0ab87d19036f3dfadadb232c78aa4879dda3f0c994a9d637532410ee2ce0691016110bb565b61246a6131f3565b600480546040516370a0823160e01b815230928101929092526001600160a01b0316906370a082319060240160206040518083038186803b1580156124ae57600080fd5b505afa1580156124c2573d6000803e3d6000fd5b505050506040513d601f19601f820116820180604052508101906124e69190613a08565b8211156125355760405162461bcd60e51b815260206004820181905260248201527f4f7065726174696f6e733a204e6f7420656e6f756768204c5020746f6b656e73604482015260640161081c565b6005546040516370a0823160e01b81523060048201526001600160a01b03909116906370a082319060240160206040518083038186803b15801561257857600080fd5b505afa15801561258c573d6000803e3d6000fd5b505050506040513d601f19601f820116820180604052508101906125b09190613a08565b81111561260e5760405162461bcd60e51b815260206004820152602660248201527f4f7065726174696f6e733a204e6f7420656e6f756768206f66666572696e6720604482015265746f6b656e7360d01b606482015260840161081c565b811561262b5760045461262b906001600160a01b03163384612f89565b801561264857600554612648906001600160a01b03163383612f89565b60408051838152602081018390527f94ebb62a252249c867ecb758d386f50a95be7e8df9e1c52917c9cf494327dd7d91016110bb565b6000600282106126e45760405162461bcd60e51b815260206004820152602b60248201527f436f6d7075746556657374696e675363686564756c6549643a204e6f6e20766160448201526a1b1a59081c1bdbdb081a5960aa1b606482015260840161081c565b60006126f184600061223d565b600081815260266020908152604091829020825160a081018452815460ff808216151583526001600160a01b0361010083041694830194909452600160a81b90049092169282018390526001810154606083015260020154608082015291925084141561276057509050610867565b61276b85600161223d565b92505050610867565b61277c6131f3565b60245460ff16156127c45760405162461bcd60e51b81526020600482015260126024820152711d995cdd1a5b99c81a5cc81c995d9bdad95960721b604482015260640161081c565b6024805460ff191660011790556040517f44825a4b2df8acb19ce4e1afba9aa850c8b65cdb7942e2078f27d0b0960efee690600090a1565b600080600080600b856002811061281557612815613da8565b600b020160070154600b866002811061283057612830613da8565b600b020160080154600b876002811061284b5761284b613da8565b600b020160090154600b886002811061286657612866613da8565b600b0201600a015493509350935093509193509193565b606060008267ffffffffffffffff81111561289a5761289a613dbe565b6040519080825280602002602001820160405280156128d357816020015b6128c06137f5565b8152602001906001900390816128b85790505b50905060005b60ff81168411156129c057600080600080600b89898760ff1681811061290157612901613da8565b90506020020160208101906129169190613afc565b60ff166002811061292957612929613da8565b600b020154111561296f576129678989898760ff1681811061294d5761294d613da8565b90506020020160208101906129629190613afc565b612d5a565b919450925090505b604051806060016040528084815260200183815260200182815250858560ff168151811061299f5761299f613da8565b602002602001018190525050505080806129b890613d72565b9150506128d9565b50949350505050565b6129d16131f3565b60005b81811015610edc576001600260008585858181106129f4576129f4613da8565b9050602002016020810190612a099190613887565b6001600160a01b031681526020810191909152604001600020805460ff1916911515919091179055828282818110612a4357612a43613da8565b9050602002016020810190612a589190613887565b6001600160a01b03167fd1bba68c128cc3f427e5831b3c6f99f480b6efa6b9e80c757768f6124158cc3f60405160405180910390a280612a9781613d57565b9150506129d4565b60008181526026602052604081205460ff161515600114612b025760405162461bcd60e51b815260206004820152601d60248201527f76657374696e67207363686564756c65206973206e6f74206578697374000000604482015260640161081c565b600082815260266020908152604091829020825160a081018452815460ff808216151583526001600160a01b0361010083041694830194909452600160a81b900490921692820192909252600182015460608201526002909101546080820152612b6b816132eb565b9392505050565b612b7a6131f3565b6001600160a01b038116612bdf5760405162461bcd60e51b815260206004820152602660248201527f4f776e61626c653a206e6577206f776e657220697320746865207a65726f206160448201526564647265737360d01b606482015260840161081c565b610e0381613461565b6040805160a081018252600080825260208201819052918101829052606081018290526080810191909152612b6b6105bb848461223d565b6001600160a01b03811660009081526028602052604081205461086790839061223d565b606060008267ffffffffffffffff811115612c6157612c61613dbe565b604051908082528060200260200182016040528015612c8a578160200160208202803683370190505b50905060005b60ff81168411156129c057612cce8686868460ff16818110612cb457612cb4613da8565b9050602002016020810190612cc99190613afc565b6134f1565b828260ff1681518110612ce357612ce3613da8565b602090810291909101015280612cf881613d72565b915050612c90565b60026000541415612d535760405162461bcd60e51b815260206004820152601f60248201527f5265656e7472616e637947756172643a207265656e7472616e742063616c6c00604482015260640161081c565b6002600055565b600080600080600080600b8760ff1660028110612d7957612d79613da8565b600b020160000154600b8860ff1660028110612d9757612d97613da8565b600b0201600401541115612edf576000612db189896134f1565b9050612dec64e8d4a51000610ccb83600b8c60ff1660028110612dd657612dd6613da8565b600b020160010154612f7190919063ffffffff16565b93506000612e1e64e8d4a51000610ccb84600b8d60ff1660028110612e1357612e13613da8565b600b02015490612f71565b6001600160a01b038b16600090815260216020908152604080832060ff8e168452909152902054909150612e529082613455565b9350600b8960ff1660028110612e6a57612e6a613da8565b600b02016003015460ff1615612ed8576000612eb3600b8b60ff1660028110612e9557612e95613da8565b600b020160040154600b8c60ff1660028110610f8f57610f8f613da8565b9050612ec864e8d4a51000610ccb8784612f71565b9350612ed48585613455565b9450505b5050612f57565b506000905080612f54600b60ff891660028110612efe57612efe613da8565b600b020160000154610ccb600b8a60ff1660028110612f1f57612f1f613da8565b600b0201600101546001600160a01b038c16600090815260216020908152604080832060ff8f16845290915290205490612f71565b92505b919450925090509250925092565b6000612b6b8284613cbb565b6000612b6b8284613cf5565b6000612b6b8284613cd3565b6040516001600160a01b038316602482015260448101829052610edc90849063a9059cbb60e01b906064015b60408051601f198184030181529190526020810180516001600160e01b03166001600160e01b031990931692909217909152613596565b80612ff56119b5565b10156130625760405162461bcd60e51b815260206004820152603660248201527f63616e206e6f74206372656174652076657374696e67207363686564756c6520604482015275776974682073756666696369656e7420746f6b656e7360501b606482015260840161081c565b600061306d84612c20565b60008181526026602052604090205490915061010090046001600160a01b0316156130e45760405162461bcd60e51b815260206004820152602160248201527f76657374696e675363686564756c654964206973206265656e206372656174656044820152601960fa1b606482015260840161081c565b6040805160a08101825260018082526001600160a01b03878116602080850191825260ff898116868801908152606087018a81526000608089018181528b825260269095529890982096518754945191516001600160a81b0319909516901515610100600160a81b0319161761010091909516029390931760ff60a81b1916600160a81b929093169190910291909117835592519082015590516002909101556027546131919083612f65565b60275560258054600181019091557f401968ff42a154441da5f6c4c935ac46b8671f0e062baaa62a7545ba53bb6e4c018190556001600160a01b03841660009081526028602052604081208054916131e883613d57565b919050555050505050565b6001546001600160a01b031633146119b35760405162461bcd60e51b815260206004820181905260248201527f4f776e61626c653a2063616c6c6572206973206e6f7420746865206f776e6572604482015260640161081c565b60008061325a8484612f7d565b90506105dc811061327257630ee6b280915050610867565b6103e8811061328857631dcd6500915050610867565b6101f4811061329e57633b9aca00915050610867565b60fa81106132b357634a817c80915050610867565b606481106132c8576359682f00915050610867565b603281106132dd57639502f900915050610867565b64012a05f200915050610867565b600080429050600b836040015160ff166002811061330b5761330b613da8565b600b0201600801546023546133209190613cbb565b8110156133305750600092915050565b613366600b846040015160ff166002811061334d5761334d613da8565b600b020160090154602354612f6590919063ffffffff16565b81101580613376575060245460ff165b1561338e5760808301516060840151612b6b91613455565b60006133a56023548361345590919063ffffffff16565b90506000600b856040015160ff16600281106133c3576133c3613da8565b600b0201600a0154905060006133e28284612f7d90919063ffffffff16565b905060006133f08284612f71565b90506000613430600b896040015160ff166002811061341157613411613da8565b600b020160090154610ccb848b60600151612f7190919063ffffffff16565b905061344988608001518261345590919063ffffffff16565b98975050505050505050565b6000612b6b8284613d14565b600180546001600160a01b038381166001600160a01b0319831681179093556040519116919082907f8be0079c531659141344cd1fd0a4f28419497f9722a3daafe3b4186f6b6457e090600090a35050565b6040516001600160a01b03808516602483015283166044820152606481018290526134eb9085906323b872dd60e01b90608401612fb5565b50505050565b600080600b8360ff166002811061350a5761350a613da8565b600b020160040154111561358e5761358761354e620f4240600b8560ff166002811061353857613538613da8565b600b020160040154612f7190919063ffffffff16565b6001600160a01b038516600090815260216020908152604080832060ff88168452909152902054610ccb90670de0b6b3a7640000612f71565b9050610867565b506000610867565b60006135eb826040518060400160405280602081526020017f5361666545524332303a206c6f772d6c6576656c2063616c6c206661696c6564815250856001600160a01b03166136689092919063ffffffff16565b805190915015610edc578080602001905181019061360991906139d2565b610edc5760405162461bcd60e51b815260206004820152602a60248201527f5361666545524332303a204552433230206f7065726174696f6e20646964206e6044820152691bdd081cdd58d8d9595960b21b606482015260840161081c565b6060613677848460008561367f565b949350505050565b6060824710156136e05760405162461bcd60e51b815260206004820152602660248201527f416464726573733a20696e73756666696369656e742062616c616e636520666f6044820152651c8818d85b1b60d21b606482015260840161081c565b600080866001600160a01b031685876040516136fc9190613b52565b60006040518083038185875af1925050503d8060008114613739576040519150601f19603f3d011682016040523d82523d6000602084013e61373e565b606091505b509150915061374f8783838761375a565b979650505050505050565b606083156137c65782516137bf576001600160a01b0385163b6137bf5760405162461bcd60e51b815260206004820152601d60248201527f416464726573733a2063616c6c20746f206e6f6e2d636f6e7472616374000000604482015260640161081c565b5081613677565b61367783838151156137db5781518083602001fd5b8060405162461bcd60e51b815260040161081c9190613c44565b60405180606001604052806003906020820280368337509192915050565b80356001600160a01b0381168114610f9957600080fd5b60008083601f84011261383c57600080fd5b50813567ffffffffffffffff81111561385457600080fd5b6020830191508360208260051b850101111561386f57600080fd5b9250929050565b803560ff81168114610f9957600080fd5b60006020828403121561389957600080fd5b612b6b82613813565b600080600080600080600060e0888a0312156138bd57600080fd5b6138c688613813565b96506138d460208901613813565b95506040880135945060608801359350608088013592506138f760a08901613813565b915061390560c08901613813565b905092959891949750929550565b60008060006040848603121561392857600080fd5b61393184613813565b9250602084013567ffffffffffffffff81111561394d57600080fd5b6139598682870161382a565b9497909650939450505050565b6000806040838503121561397957600080fd5b61398283613813565b946020939093013593505050565b600080602083850312156139a357600080fd5b823567ffffffffffffffff8111156139ba57600080fd5b6139c68582860161382a565b90969095509350505050565b6000602082840312156139e457600080fd5b8151612b6b81613dd4565b600060208284031215613a0157600080fd5b5035919050565b600060208284031215613a1a57600080fd5b5051919050565b60008060408385031215613a3457600080fd5b50508035926020909101359150565b6000806000806000806000806000806101408b8d031215613a6357600080fd5b8a35995060208b0135985060408b0135975060608b0135613a8381613dd4565b9650613a9160808c01613876565b955060a08b0135613aa181613dd4565b999c989b5096999598949794965050505060c08301359260e08101359261010082013592506101209091013590565b60008060408385031215613ae357600080fd5b82359150613af360208401613876565b90509250929050565b600060208284031215613b0e57600080fd5b612b6b82613876565b600081518084526020808501945080840160005b83811015613b4757815187529582019590820190600101613b2b565b509495945050505050565b60008251613b64818460208701613d2b565b9190910192915050565b602080825282518282018190526000919084820190604085019084805b82811015613bcb57845184835b6003811015613bb557825182529188019190880190600101613b98565b5050509385019360609390930192600101613b8b565b5091979650505050505050565b602081526000612b6b6020830184613b17565b604081526000613bfe6040830185613b17565b82810360208481019190915284518083528582019282019060005b81811015613c37578451151583529383019391830191600101613c19565b5090979650505050505050565b6020815260008251806020840152613c63816040850160208701613d2b565b601f01601f19169190910160400192915050565b60208082526024908201527f4465706f7369743a204e657720616d6f756e742061626f76652075736572206c6040820152631a5b5a5d60e21b606082015260800190565b60008219821115613cce57613cce613d92565b500190565b600082613cf057634e487b7160e01b600052601260045260246000fd5b500490565b6000816000190483118215151615613d0f57613d0f613d92565b500290565b600082821015613d2657613d26613d92565b500390565b60005b83811015613d46578181015183820152602001613d2e565b838111156134eb5750506000910152565b6000600019821415613d6b57613d6b613d92565b5060010190565b600060ff821660ff811415613d8957613d89613d92565b60010192915050565b634e487b7160e01b600052601160045260246000fd5b634e487b7160e01b600052603260045260246000fd5b634e487b7160e01b600052604160045260246000fd5b8015158114610e0357600080fdfea2646970667358221220149ecb0a118bedee6169eb52b6f9d5dac2779cceca433947ca437f6a39232c2f64736f6c63430008050033",
			"opcodes": "PUSH1 0xA0 PUSH1 0x40 MSTORE CALLVALUE DUP1 ISZERO PUSH3 0x11 JUMPI PUSH1 0x0 DUP1 REVERT JUMPDEST POP PUSH1 0x1 PUSH1 0x0 SSTORE PUSH3 0x22 CALLER PUSH3 0x2F JUMP JUMPDEST CALLER PUSH1 0x60 SHL PUSH1 0x80 MSTORE PUSH3 0x81 JUMP JUMPDEST PUSH1 0x1 DUP1 SLOAD PUSH1 0x1 PUSH1 0x1 PUSH1 0xA0 SHL SUB DUP4 DUP2 AND PUSH1 0x1 PUSH1 0x1 PUSH1 0xA0 SHL SUB NOT DUP4 AND DUP2 OR SWAP1 SWAP4 SSTORE PUSH1 0x40 MLOAD SWAP2 AND SWAP2 SWAP1 DUP3 SWAP1 PUSH32 0x8BE0079C531659141344CD1FD0A4F28419497F9722A3DAAFE3B4186F6B6457E0 SWAP1 PUSH1 0x0 SWAP1 LOG3 POP POP JUMP JUMPDEST PUSH1 0x80 MLOAD PUSH1 0x60 SHR PUSH2 0x3E18 PUSH3 0xA7 PUSH1 0x0 CODECOPY PUSH1 0x0 DUP2 DUP2 PUSH2 0x425 ADD MSTORE PUSH2 0x8D2 ADD MSTORE PUSH2 0x3E18 PUSH1 0x0 RETURN INVALID PUSH1 0x80 PUSH1 0x40 MSTORE CALLVALUE DUP1 ISZERO PUSH2 0x10 JUMPI PUSH1 0x0 DUP1 REVERT JUMPDEST POP PUSH1 0x4 CALLDATASIZE LT PUSH2 0x2BB JUMPI PUSH1 0x0 CALLDATALOAD PUSH1 0xE0 SHR DUP1 PUSH4 0x715018A6 GT PUSH2 0x182 JUMPI DUP1 PUSH4 0xA8660A78 GT PUSH2 0xE9 JUMPI DUP1 PUSH4 0xE2EC6EC3 GT PUSH2 0xA2 JUMPI DUP1 PUSH4 0xF51321D7 GT PUSH2 0x7C JUMPI DUP1 PUSH4 0xF51321D7 EQ PUSH2 0x76B JUMPI DUP1 PUSH4 0xF7C469F0 EQ PUSH2 0x77E JUMPI DUP1 PUSH4 0xF9CD5C12 EQ PUSH2 0x791 JUMPI DUP1 PUSH4 0xFEEBF529 EQ PUSH2 0x7B1 JUMPI PUSH1 0x0 DUP1 REVERT JUMPDEST DUP1 PUSH4 0xE2EC6EC3 EQ PUSH2 0x732 JUMPI DUP1 PUSH4 0xEA1BB3D5 EQ PUSH2 0x745 JUMPI DUP1 PUSH4 0xF2FDE38B EQ PUSH2 0x758 JUMPI PUSH1 0x0 DUP1 REVERT JUMPDEST DUP1 PUSH4 0xA8660A78 EQ PUSH2 0x6A8 JUMPI DUP1 PUSH4 0xAD082874 EQ PUSH2 0x6B1 JUMPI DUP1 PUSH4 0xB6549F75 EQ PUSH2 0x6C4 JUMPI DUP1 PUSH4 0xB7813607 EQ PUSH2 0x6CC JUMPI DUP1 PUSH4 0xB86C6F14 EQ PUSH2 0x6DF JUMPI DUP1 PUSH4 0xCA463CA4 EQ PUSH2 0x712 JUMPI PUSH1 0x0 DUP1 REVERT JUMPDEST DUP1 PUSH4 0x8DA5CB5B GT PUSH2 0x13B JUMPI DUP1 PUSH4 0x8DA5CB5B EQ PUSH2 0x577 JUMPI DUP1 PUSH4 0x8ED5B0FC EQ PUSH2 0x588 JUMPI DUP1 PUSH4 0x915DFC31 EQ PUSH2 0x591 JUMPI DUP1 PUSH4 0x9513997F EQ PUSH2 0x59A JUMPI DUP1 PUSH4 0x9EF346B4 EQ PUSH2 0x5AD JUMPI DUP1 PUSH4 0x9F1B5248 EQ PUSH2 0x695 JUMPI PUSH1 0x0 DUP1 REVERT JUMPDEST DUP1 PUSH4 0x715018A6 EQ PUSH2 0x525 JUMPI DUP1 PUSH4 0x760B3180 EQ PUSH2 0x52D JUMPI DUP1 PUSH4 0x79795108 EQ PUSH2 0x536 JUMPI DUP1 PUSH4 0x7B9417C8 EQ PUSH2 0x53E JUMPI DUP1 PUSH4 0x7F1BDD76 EQ PUSH2 0x551 JUMPI DUP1 PUSH4 0x8AF104DA EQ PUSH2 0x564 JUMPI PUSH1 0x0 DUP1 REVERT JUMPDEST DUP1 PUSH4 0x392E53CD GT PUSH2 0x226 JUMPI DUP1 PUSH4 0x48DEB471 GT PUSH2 0x1DF JUMPI DUP1 PUSH4 0x48DEB471 EQ PUSH2 0x49A JUMPI DUP1 PUSH4 0x4AF3C9B7 EQ PUSH2 0x4A2 JUMPI DUP1 PUSH4 0x5A7BB69A EQ PUSH2 0x4C3 JUMPI DUP1 PUSH4 0x5FCBD285 EQ PUSH2 0x4EC JUMPI DUP1 PUSH4 0x67D42A8B EQ PUSH2 0x4FF JUMPI DUP1 PUSH4 0x6A01DF77 EQ PUSH2 0x512 JUMPI PUSH1 0x0 DUP1 REVERT JUMPDEST DUP1 PUSH4 0x392E53CD EQ PUSH2 0x3CD JUMPI DUP1 PUSH4 0x3AF32ABF EQ PUSH2 0x3E1 JUMPI DUP1 PUSH4 0x3F138D4B EQ PUSH2 0x40D JUMPI DUP1 PUSH4 0x45DE0F77 EQ PUSH2 0x420 JUMPI DUP1 PUSH4 0x46AB91BF EQ PUSH2 0x447 JUMPI DUP1 PUSH4 0x48CD4CB1 EQ PUSH2 0x491 JUMPI PUSH1 0x0 DUP1 REVERT JUMPDEST DUP1 PUSH4 0x23F93574 GT PUSH2 0x278 JUMPI DUP1 PUSH4 0x23F93574 EQ PUSH2 0x342 JUMPI DUP1 PUSH4 0x24953EAA EQ PUSH2 0x35C JUMPI DUP1 PUSH4 0x286DD3F5 EQ PUSH2 0x36F JUMPI DUP1 PUSH4 0x28FDDFAF EQ PUSH2 0x382 JUMPI DUP1 PUSH4 0x2C2339C1 EQ PUSH2 0x38F JUMPI DUP1 PUSH4 0x37F859B8 EQ PUSH2 0x3BA JUMPI PUSH1 0x0 DUP1 REVERT JUMPDEST DUP1 PUSH4 0x4E3CCD6 EQ PUSH2 0x2C0 JUMPI DUP1 PUSH4 0x6CEC857 EQ PUSH2 0x2E6 JUMPI DUP1 PUSH4 0x729DA0B EQ PUSH2 0x309 JUMPI DUP1 PUSH4 0x83C6323 EQ PUSH2 0x31E JUMPI DUP1 PUSH4 0x13083617 EQ PUSH2 0x327 JUMPI DUP1 PUSH4 0x2374876C EQ PUSH2 0x32F JUMPI JUMPDEST PUSH1 0x0 DUP1 REVERT JUMPDEST PUSH2 0x2D3 PUSH2 0x2CE CALLDATASIZE PUSH1 0x4 PUSH2 0x39EF JUMP JUMPDEST PUSH2 0x7D1 JUMP JUMPDEST PUSH1 0x40 MLOAD SWAP1 DUP2 MSTORE PUSH1 0x20 ADD JUMPDEST PUSH1 0x40 MLOAD DUP1 SWAP2 SUB SWAP1 RETURN JUMPDEST PUSH2 0x2F9 PUSH2 0x2F4 CALLDATASIZE PUSH1 0x4 PUSH2 0x3887 JUMP JUMPDEST PUSH2 0x84A JUMP JUMPDEST PUSH1 0x40 MLOAD SWAP1 ISZERO ISZERO DUP2 MSTORE PUSH1 0x20 ADD PUSH2 0x2DD JUMP JUMPDEST PUSH2 0x31C PUSH2 0x317 CALLDATASIZE PUSH1 0x4 PUSH2 0x38A2 JUMP JUMPDEST PUSH2 0x86D JUMP JUMPDEST STOP JUMPDEST PUSH2 0x2D3 PUSH1 0x8 SLOAD DUP2 JUMP JUMPDEST PUSH1 0x25 SLOAD PUSH2 0x2D3 JUMP JUMPDEST PUSH2 0x31C PUSH2 0x33D CALLDATASIZE PUSH1 0x4 PUSH2 0x3AFC JUMP JUMPDEST PUSH2 0x9A9 JUMP JUMPDEST PUSH2 0x34A PUSH1 0x2 DUP2 JUMP JUMPDEST PUSH1 0x40 MLOAD PUSH1 0xFF SWAP1 SWAP2 AND DUP2 MSTORE PUSH1 0x20 ADD PUSH2 0x2DD JUMP JUMPDEST PUSH2 0x31C PUSH2 0x36A CALLDATASIZE PUSH1 0x4 PUSH2 0x3990 JUMP JUMPDEST PUSH2 0xE06 JUMP JUMPDEST PUSH2 0x31C PUSH2 0x37D CALLDATASIZE PUSH1 0x4 PUSH2 0x3887 JUMP JUMPDEST PUSH2 0xEE1 JUMP JUMPDEST PUSH1 0x24 SLOAD PUSH2 0x2F9 SWAP1 PUSH1 0xFF AND DUP2 JUMP JUMPDEST PUSH1 0x6 SLOAD PUSH2 0x3A2 SWAP1 PUSH1 0x1 PUSH1 0x1 PUSH1 0xA0 SHL SUB AND DUP2 JUMP JUMPDEST PUSH1 0x40 MLOAD PUSH1 0x1 PUSH1 0x1 PUSH1 0xA0 SHL SUB SWAP1 SWAP2 AND DUP2 MSTORE PUSH1 0x20 ADD PUSH2 0x2DD JUMP JUMPDEST PUSH2 0x2D3 PUSH2 0x3C8 CALLDATASIZE PUSH1 0x4 PUSH2 0x39EF JUMP JUMPDEST PUSH2 0xF32 JUMP JUMPDEST PUSH1 0x6 SLOAD PUSH2 0x2F9 SWAP1 PUSH1 0x1 PUSH1 0xA0 SHL SWAP1 DIV PUSH1 0xFF AND DUP2 JUMP JUMPDEST PUSH2 0x2F9 PUSH2 0x3EF CALLDATASIZE PUSH1 0x4 PUSH2 0x3887 JUMP JUMPDEST PUSH1 0x1 PUSH1 0x1 PUSH1 0xA0 SHL SUB AND PUSH1 0x0 SWAP1 DUP2 MSTORE PUSH1 0x2 PUSH1 0x20 MSTORE PUSH1 0x40 SWAP1 KECCAK256 SLOAD PUSH1 0xFF AND SWAP1 JUMP JUMPDEST PUSH2 0x31C PUSH2 0x41B CALLDATASIZE PUSH1 0x4 PUSH2 0x3966 JUMP JUMPDEST PUSH2 0xF9E JUMP JUMPDEST PUSH2 0x3A2 PUSH32 0x0 DUP2 JUMP JUMPDEST PUSH2 0x45A PUSH2 0x455 CALLDATASIZE PUSH1 0x4 PUSH2 0x39EF JUMP JUMPDEST PUSH2 0x10C7 JUMP JUMPDEST PUSH1 0x40 DUP1 MLOAD SWAP8 DUP9 MSTORE PUSH1 0x20 DUP9 ADD SWAP7 SWAP1 SWAP7 MSTORE SWAP5 DUP7 ADD SWAP4 SWAP1 SWAP4 MSTORE SWAP1 ISZERO ISZERO PUSH1 0x60 DUP6 ADD MSTORE PUSH1 0x80 DUP5 ADD MSTORE PUSH1 0xA0 DUP4 ADD MSTORE ISZERO ISZERO PUSH1 0xC0 DUP3 ADD MSTORE PUSH1 0xE0 ADD PUSH2 0x2DD JUMP JUMPDEST PUSH2 0x2D3 PUSH1 0x7 SLOAD DUP2 JUMP JUMPDEST PUSH1 0x27 SLOAD PUSH2 0x2D3 JUMP JUMPDEST PUSH2 0x4B5 PUSH2 0x4B0 CALLDATASIZE PUSH1 0x4 PUSH2 0x3913 JUMP JUMPDEST PUSH2 0x11B7 JUMP JUMPDEST PUSH1 0x40 MLOAD PUSH2 0x2DD SWAP3 SWAP2 SWAP1 PUSH2 0x3BEB JUMP JUMPDEST PUSH2 0x2D3 PUSH2 0x4D1 CALLDATASIZE PUSH1 0x4 PUSH2 0x3887 JUMP JUMPDEST PUSH1 0x1 PUSH1 0x1 PUSH1 0xA0 SHL SUB AND PUSH1 0x0 SWAP1 DUP2 MSTORE PUSH1 0x28 PUSH1 0x20 MSTORE PUSH1 0x40 SWAP1 KECCAK256 SLOAD SWAP1 JUMP JUMPDEST PUSH1 0x4 SLOAD PUSH2 0x3A2 SWAP1 PUSH1 0x1 PUSH1 0x1 PUSH1 0xA0 SHL SUB AND DUP2 JUMP JUMPDEST PUSH2 0x31C PUSH2 0x50D CALLDATASIZE PUSH1 0x4 PUSH2 0x39EF JUMP JUMPDEST PUSH2 0x1311 JUMP JUMPDEST PUSH2 0x31C PUSH2 0x520 CALLDATASIZE PUSH1 0x4 PUSH2 0x3A43 JUMP JUMPDEST PUSH2 0x1565 JUMP JUMPDEST PUSH2 0x31C PUSH2 0x19A1 JUMP JUMPDEST PUSH2 0x2D3 PUSH1 0xA SLOAD DUP2 JUMP JUMPDEST PUSH2 0x2D3 PUSH2 0x19B5 JUMP JUMPDEST PUSH2 0x31C PUSH2 0x54C CALLDATASIZE PUSH1 0x4 PUSH2 0x3887 JUMP JUMPDEST PUSH2 0x1A47 JUMP JUMPDEST PUSH2 0x31C PUSH2 0x55F CALLDATASIZE PUSH1 0x4 PUSH2 0x3AD0 JUMP JUMPDEST PUSH2 0x1A9B JUMP JUMPDEST PUSH2 0x2D3 PUSH2 0x572 CALLDATASIZE PUSH1 0x4 PUSH2 0x3966 JUMP JUMPDEST PUSH2 0x223D JUMP JUMPDEST PUSH1 0x1 SLOAD PUSH1 0x1 PUSH1 0x1 PUSH1 0xA0 SHL SUB AND PUSH2 0x3A2 JUMP JUMPDEST PUSH2 0x2D3 PUSH1 0x9 SLOAD DUP2 JUMP JUMPDEST PUSH2 0x2D3 PUSH1 0x3 SLOAD DUP2 JUMP JUMPDEST PUSH2 0x31C PUSH2 0x5A8 CALLDATASIZE PUSH1 0x4 PUSH2 0x3A21 JUMP JUMPDEST PUSH2 0x2284 JUMP JUMPDEST PUSH2 0x64A PUSH2 0x5BB CALLDATASIZE PUSH1 0x4 PUSH2 0x39EF JUMP JUMPDEST PUSH1 0x40 DUP1 MLOAD PUSH1 0xA0 DUP2 ADD DUP3 MSTORE PUSH1 0x0 DUP1 DUP3 MSTORE PUSH1 0x20 DUP3 ADD DUP2 SWAP1 MSTORE SWAP2 DUP2 ADD DUP3 SWAP1 MSTORE PUSH1 0x60 DUP2 ADD DUP3 SWAP1 MSTORE PUSH1 0x80 DUP2 ADD SWAP2 SWAP1 SWAP2 MSTORE POP PUSH1 0x0 SWAP1 DUP2 MSTORE PUSH1 0x26 PUSH1 0x20 SWAP1 DUP2 MSTORE PUSH1 0x40 SWAP2 DUP3 SWAP1 KECCAK256 DUP3 MLOAD PUSH1 0xA0 DUP2 ADD DUP5 MSTORE DUP2 SLOAD PUSH1 0xFF DUP1 DUP3 AND ISZERO ISZERO DUP4 MSTORE PUSH1 0x1 PUSH1 0x1 PUSH1 0xA0 SHL SUB PUSH2 0x100 DUP4 DIV AND SWAP5 DUP4 ADD SWAP5 SWAP1 SWAP5 MSTORE PUSH1 0x1 PUSH1 0xA8 SHL SWAP1 DIV SWAP1 SWAP3 AND SWAP3 DUP3 ADD SWAP3 SWAP1 SWAP3 MSTORE PUSH1 0x1 DUP3 ADD SLOAD PUSH1 0x60 DUP3 ADD MSTORE PUSH1 0x2 SWAP1 SWAP2 ADD SLOAD PUSH1 0x80 DUP3 ADD MSTORE SWAP1 JUMP JUMPDEST PUSH1 0x40 MLOAD PUSH2 0x2DD SWAP2 SWAP1 DUP2 MLOAD ISZERO ISZERO DUP2 MSTORE PUSH1 0x20 DUP1 DUP4 ADD MLOAD PUSH1 0x1 PUSH1 0x1 PUSH1 0xA0 SHL SUB AND SWAP1 DUP3 ADD MSTORE PUSH1 0x40 DUP1 DUP4 ADD MLOAD PUSH1 0xFF AND SWAP1 DUP3 ADD MSTORE PUSH1 0x60 DUP1 DUP4 ADD MLOAD SWAP1 DUP3 ADD MSTORE PUSH1 0x80 SWAP2 DUP3 ADD MLOAD SWAP2 DUP2 ADD SWAP2 SWAP1 SWAP2 MSTORE PUSH1 0xA0 ADD SWAP1 JUMP JUMPDEST PUSH2 0x31C PUSH2 0x6A3 CALLDATASIZE PUSH1 0x4 PUSH2 0x3A21 JUMP JUMPDEST PUSH2 0x2462 JUMP JUMPDEST PUSH2 0x2D3 PUSH1 0x23 SLOAD DUP2 JUMP JUMPDEST PUSH2 0x2D3 PUSH2 0x6BF CALLDATASIZE PUSH1 0x4 PUSH2 0x3966 JUMP JUMPDEST PUSH2 0x267E JUMP JUMPDEST PUSH2 0x31C PUSH2 0x2774 JUMP JUMPDEST PUSH1 0x5 SLOAD PUSH2 0x3A2 SWAP1 PUSH1 0x1 PUSH1 0x1 PUSH1 0xA0 SHL SUB AND DUP2 JUMP JUMPDEST PUSH2 0x6F2 PUSH2 0x6ED CALLDATASIZE PUSH1 0x4 PUSH2 0x39EF JUMP JUMPDEST PUSH2 0x27FC JUMP JUMPDEST PUSH1 0x40 DUP1 MLOAD SWAP5 DUP6 MSTORE PUSH1 0x20 DUP6 ADD SWAP4 SWAP1 SWAP4 MSTORE SWAP2 DUP4 ADD MSTORE PUSH1 0x60 DUP3 ADD MSTORE PUSH1 0x80 ADD PUSH2 0x2DD JUMP JUMPDEST PUSH2 0x725 PUSH2 0x720 CALLDATASIZE PUSH1 0x4 PUSH2 0x3913 JUMP JUMPDEST PUSH2 0x287D JUMP JUMPDEST PUSH1 0x40 MLOAD PUSH2 0x2DD SWAP2 SWAP1 PUSH2 0x3B6E JUMP JUMPDEST PUSH2 0x31C PUSH2 0x740 CALLDATASIZE PUSH1 0x4 PUSH2 0x3990 JUMP JUMPDEST PUSH2 0x29C9 JUMP JUMPDEST PUSH2 0x2D3 PUSH2 0x753 CALLDATASIZE PUSH1 0x4 PUSH2 0x39EF JUMP JUMPDEST PUSH2 0x2A9F JUMP JUMPDEST PUSH2 0x31C PUSH2 0x766 CALLDATASIZE PUSH1 0x4 PUSH2 0x3887 JUMP JUMPDEST PUSH2 0x2B72 JUMP JUMPDEST PUSH2 0x64A PUSH2 0x779 CALLDATASIZE PUSH1 0x4 PUSH2 0x3966 JUMP JUMPDEST PUSH2 0x2BE8 JUMP JUMPDEST PUSH2 0x2D3 PUSH2 0x78C CALLDATASIZE PUSH1 0x4 PUSH2 0x3887 JUMP JUMPDEST PUSH2 0x2C20 JUMP JUMPDEST PUSH2 0x7A4 PUSH2 0x79F CALLDATASIZE PUSH1 0x4 PUSH2 0x3913 JUMP JUMPDEST PUSH2 0x2C44 JUMP JUMPDEST PUSH1 0x40 MLOAD PUSH2 0x2DD SWAP2 SWAP1 PUSH2 0x3BD8 JUMP JUMPDEST PUSH2 0x2D3 PUSH2 0x7BF CALLDATASIZE PUSH1 0x4 PUSH2 0x3887 JUMP JUMPDEST PUSH1 0x22 PUSH1 0x20 MSTORE PUSH1 0x0 SWAP1 DUP2 MSTORE PUSH1 0x40 SWAP1 KECCAK256 SLOAD DUP2 JUMP JUMPDEST PUSH1 0x0 PUSH2 0x7DC PUSH1 0x25 SLOAD SWAP1 JUMP JUMPDEST DUP3 LT PUSH2 0x825 JUMPI PUSH1 0x40 MLOAD PUSH3 0x461BCD PUSH1 0xE5 SHL DUP2 MSTORE PUSH1 0x20 PUSH1 0x4 DUP3 ADD MSTORE PUSH1 0x13 PUSH1 0x24 DUP3 ADD MSTORE PUSH19 0x696E646578206F7574206F6620626F756E6473 PUSH1 0x68 SHL PUSH1 0x44 DUP3 ADD MSTORE PUSH1 0x64 ADD JUMPDEST PUSH1 0x40 MLOAD DUP1 SWAP2 SUB SWAP1 REVERT JUMPDEST PUSH1 0x25 DUP3 DUP2 SLOAD DUP2 LT PUSH2 0x838 JUMPI PUSH2 0x838 PUSH2 0x3DA8 JUMP JUMPDEST SWAP1 PUSH1 0x0 MSTORE PUSH1 0x20 PUSH1 0x0 KECCAK256 ADD SLOAD SWAP1 POP SWAP2 SWAP1 POP JUMP JUMPDEST PUSH1 0x1 PUSH1 0x1 PUSH1 0xA0 SHL SUB DUP2 AND PUSH1 0x0 SWAP1 DUP2 MSTORE PUSH1 0x2 PUSH1 0x20 MSTORE PUSH1 0x40 DUP2 KECCAK256 SLOAD PUSH1 0xFF AND JUMPDEST SWAP3 SWAP2 POP POP JUMP JUMPDEST PUSH1 0x6 SLOAD PUSH1 0x1 PUSH1 0xA0 SHL SWAP1 DIV PUSH1 0xFF AND ISZERO PUSH2 0x8C7 JUMPI PUSH1 0x40 MLOAD PUSH3 0x461BCD PUSH1 0xE5 SHL DUP2 MSTORE PUSH1 0x20 PUSH1 0x4 DUP3 ADD MSTORE PUSH1 0x1F PUSH1 0x24 DUP3 ADD MSTORE PUSH32 0x4F7065726174696F6E733A20416C726561647920696E697469616C697A656400 PUSH1 0x44 DUP3 ADD MSTORE PUSH1 0x64 ADD PUSH2 0x81C JUMP JUMPDEST CALLER PUSH1 0x1 PUSH1 0x1 PUSH1 0xA0 SHL SUB PUSH32 0x0 AND EQ PUSH2 0x93F JUMPI PUSH1 0x40 MLOAD PUSH3 0x461BCD PUSH1 0xE5 SHL DUP2 MSTORE PUSH1 0x20 PUSH1 0x4 DUP3 ADD MSTORE PUSH1 0x17 PUSH1 0x24 DUP3 ADD MSTORE PUSH32 0x4F7065726174696F6E733A204E6F7420666163746F7279000000000000000000 PUSH1 0x44 DUP3 ADD MSTORE PUSH1 0x64 ADD PUSH2 0x81C JUMP JUMPDEST PUSH1 0x6 DUP1 SLOAD PUSH1 0x4 DUP1 SLOAD PUSH1 0x1 PUSH1 0x1 PUSH1 0xA0 SHL SUB DUP1 DUP13 AND PUSH1 0x1 PUSH1 0x1 PUSH1 0xA0 SHL SUB NOT SWAP3 DUP4 AND OR SWAP1 SWAP3 SSTORE PUSH1 0x5 DUP1 SLOAD DUP12 DUP5 AND SWAP3 AND SWAP2 SWAP1 SWAP2 OR SWAP1 SSTORE DUP4 AND PUSH1 0x1 PUSH1 0x1 PUSH1 0xA8 SHL SUB NOT SWAP1 SWAP2 AND OR PUSH1 0x1 PUSH1 0xA0 SHL OR SWAP1 SSTORE PUSH1 0x7 DUP6 SWAP1 SSTORE PUSH1 0x8 DUP5 SWAP1 SSTORE PUSH1 0x3 DUP4 SWAP1 SSTORE PUSH2 0x9A0 DUP3 PUSH2 0x2B72 JUMP JUMPDEST POP POP POP POP POP POP POP JUMP JUMPDEST PUSH2 0x9B1 PUSH2 0x2D00 JUMP JUMPDEST CALLER EXTCODESIZE ISZERO PUSH2 0x9F7 JUMPI PUSH1 0x40 MLOAD PUSH3 0x461BCD PUSH1 0xE5 SHL DUP2 MSTORE PUSH1 0x20 PUSH1 0x4 DUP3 ADD MSTORE PUSH1 0x14 PUSH1 0x24 DUP3 ADD MSTORE PUSH20 0x18DBDB9D1C9858DD081B9BDD08185B1B1BDDD959 PUSH1 0x62 SHL PUSH1 0x44 DUP3 ADD MSTORE PUSH1 0x64 ADD PUSH2 0x81C JUMP JUMPDEST CALLER ORIGIN EQ PUSH2 0xA46 JUMPI PUSH1 0x40 MLOAD PUSH3 0x461BCD PUSH1 0xE5 SHL DUP2 MSTORE PUSH1 0x20 PUSH1 0x4 DUP3 ADD MSTORE PUSH1 0x1A PUSH1 0x24 DUP3 ADD MSTORE PUSH32 0x70726F787920636F6E7472616374206E6F7420616C6C6F776564000000000000 PUSH1 0x44 DUP3 ADD MSTORE PUSH1 0x64 ADD PUSH2 0x81C JUMP JUMPDEST PUSH1 0x8 SLOAD NUMBER GT PUSH2 0xA8C JUMPI PUSH1 0x40 MLOAD PUSH3 0x461BCD PUSH1 0xE5 SHL DUP2 MSTORE PUSH1 0x20 PUSH1 0x4 DUP3 ADD MSTORE PUSH1 0x12 PUSH1 0x24 DUP3 ADD MSTORE PUSH18 0x486172766573743A20546F6F206561726C79 PUSH1 0x70 SHL PUSH1 0x44 DUP3 ADD MSTORE PUSH1 0x64 ADD PUSH2 0x81C JUMP JUMPDEST PUSH1 0x2 PUSH1 0xFF DUP3 AND LT PUSH2 0xADF JUMPI PUSH1 0x40 MLOAD PUSH3 0x461BCD PUSH1 0xE5 SHL DUP2 MSTORE PUSH1 0x20 PUSH1 0x4 DUP3 ADD MSTORE PUSH1 0x1A PUSH1 0x24 DUP3 ADD MSTORE PUSH32 0x486172766573743A204E6F6E2076616C696420706F6F6C206964000000000000 PUSH1 0x44 DUP3 ADD MSTORE PUSH1 0x64 ADD PUSH2 0x81C JUMP JUMPDEST CALLER PUSH1 0x0 SWAP1 DUP2 MSTORE PUSH1 0x21 PUSH1 0x20 SWAP1 DUP2 MSTORE PUSH1 0x40 DUP1 DUP4 KECCAK256 PUSH1 0xFF DUP6 AND DUP5 MSTORE SWAP1 SWAP2 MSTORE SWAP1 KECCAK256 SLOAD PUSH2 0xB49 JUMPI PUSH1 0x40 MLOAD PUSH3 0x461BCD PUSH1 0xE5 SHL DUP2 MSTORE PUSH1 0x20 PUSH1 0x4 DUP3 ADD MSTORE PUSH1 0x1C PUSH1 0x24 DUP3 ADD MSTORE PUSH32 0x486172766573743A20446964206E6F7420706172746963697061746500000000 PUSH1 0x44 DUP3 ADD MSTORE PUSH1 0x64 ADD PUSH2 0x81C JUMP JUMPDEST CALLER PUSH1 0x0 SWAP1 DUP2 MSTORE PUSH1 0x21 PUSH1 0x20 SWAP1 DUP2 MSTORE PUSH1 0x40 DUP1 DUP4 KECCAK256 PUSH1 0xFF DUP1 DUP7 AND DUP6 MSTORE SWAP3 MSTORE SWAP1 SWAP2 KECCAK256 PUSH1 0x1 ADD SLOAD AND ISZERO PUSH2 0xBB1 JUMPI PUSH1 0x40 MLOAD PUSH3 0x461BCD PUSH1 0xE5 SHL DUP2 MSTORE PUSH1 0x20 PUSH1 0x4 DUP3 ADD MSTORE PUSH1 0x15 PUSH1 0x24 DUP3 ADD MSTORE PUSH21 0x486172766573743A20416C726561647920646F6E65 PUSH1 0x58 SHL PUSH1 0x44 DUP3 ADD MSTORE PUSH1 0x64 ADD PUSH2 0x81C JUMP JUMPDEST CALLER PUSH1 0x0 SWAP1 DUP2 MSTORE PUSH1 0x21 PUSH1 0x20 SWAP1 DUP2 MSTORE PUSH1 0x40 DUP1 DUP4 KECCAK256 PUSH1 0xFF DUP6 AND DUP5 MSTORE SWAP1 SWAP2 MSTORE SWAP1 KECCAK256 PUSH1 0x1 SWAP1 DUP2 ADD DUP1 SLOAD PUSH1 0xFF NOT AND SWAP1 SWAP2 OR SWAP1 SSTORE PUSH1 0x23 SLOAD PUSH2 0xBEA JUMPI TIMESTAMP PUSH1 0x23 SSTORE JUMPDEST PUSH1 0x0 DUP1 PUSH1 0x0 PUSH2 0xBF9 CALLER DUP6 PUSH2 0x2D5A JUMP JUMPDEST SWAP2 SWAP5 POP SWAP3 POP SWAP1 POP DUP1 ISZERO PUSH2 0xC58 JUMPI PUSH2 0xC36 DUP2 PUSH1 0xB DUP7 PUSH1 0xFF AND PUSH1 0x2 DUP2 LT PUSH2 0xC20 JUMPI PUSH2 0xC20 PUSH2 0x3DA8 JUMP JUMPDEST PUSH1 0xB MUL ADD PUSH1 0x5 ADD SLOAD PUSH2 0x2F65 SWAP1 SWAP2 SWAP1 PUSH4 0xFFFFFFFF AND JUMP JUMPDEST PUSH1 0xB DUP6 PUSH1 0xFF AND PUSH1 0x2 DUP2 LT PUSH2 0xC4C JUMPI PUSH2 0xC4C PUSH2 0x3DA8 JUMP JUMPDEST PUSH1 0xB MUL ADD PUSH1 0x5 ADD DUP2 SWAP1 SSTORE POP JUMPDEST DUP3 ISZERO PUSH2 0xDD9 JUMPI PUSH1 0x0 PUSH1 0xB DUP6 PUSH1 0xFF AND PUSH1 0x2 DUP2 LT PUSH2 0xC76 JUMPI PUSH2 0xC76 PUSH2 0x3DA8 JUMP JUMPDEST PUSH1 0xB MUL ADD PUSH1 0x7 ADD SLOAD PUSH1 0x64 PUSH2 0xC8A SWAP2 SWAP1 PUSH2 0x3D14 JUMP JUMPDEST GT ISZERO PUSH2 0xD2D JUMPI PUSH1 0x0 PUSH2 0xCD1 PUSH1 0x64 PUSH2 0xCCB PUSH1 0xB DUP9 PUSH1 0xFF AND PUSH1 0x2 DUP2 LT PUSH2 0xCB0 JUMPI PUSH2 0xCB0 PUSH2 0x3DA8 JUMP JUMPDEST PUSH1 0xB MUL ADD PUSH1 0x7 ADD SLOAD PUSH1 0x64 PUSH2 0xCC4 SWAP2 SWAP1 PUSH2 0x3D14 JUMP JUMPDEST DUP8 SWAP1 PUSH2 0x2F71 JUMP JUMPDEST SWAP1 PUSH2 0x2F7D JUMP JUMPDEST PUSH1 0x5 SLOAD SWAP1 SWAP2 POP PUSH2 0xCEB SWAP1 PUSH1 0x1 PUSH1 0x1 PUSH1 0xA0 SHL SUB AND CALLER DUP4 PUSH2 0x2F89 JUMP JUMPDEST PUSH1 0x40 DUP1 MLOAD DUP3 DUP2 MSTORE PUSH1 0x20 DUP2 ADD DUP6 SWAP1 MSTORE PUSH1 0xFF DUP8 AND SWAP2 CALLER SWAP2 PUSH32 0x51524C2E5EDFEDF8B01B29719C661E4FBE27E71734E7CD773DABB7CB712FB3B3 SWAP2 ADD PUSH1 0x40 MLOAD DUP1 SWAP2 SUB SWAP1 LOG3 POP JUMPDEST PUSH1 0x0 PUSH1 0xB DUP6 PUSH1 0xFF AND PUSH1 0x2 DUP2 LT PUSH2 0xD45 JUMPI PUSH2 0xD45 PUSH2 0x3DA8 JUMP JUMPDEST PUSH1 0xB MUL ADD PUSH1 0x7 ADD SLOAD GT ISZERO PUSH2 0xDD9 JUMPI PUSH1 0x0 PUSH2 0xD8A PUSH1 0x64 PUSH2 0xCCB PUSH1 0xB DUP9 PUSH1 0xFF AND PUSH1 0x2 DUP2 LT PUSH2 0xD73 JUMPI PUSH2 0xD73 PUSH2 0x3DA8 JUMP JUMPDEST PUSH1 0xB MUL ADD PUSH1 0x7 ADD SLOAD DUP8 PUSH2 0x2F71 SWAP1 SWAP2 SWAP1 PUSH4 0xFFFFFFFF AND JUMP JUMPDEST SWAP1 POP PUSH2 0xD97 CALLER DUP7 DUP4 PUSH2 0x2FEC JUMP JUMPDEST PUSH1 0x40 DUP1 MLOAD DUP3 DUP2 MSTORE PUSH1 0x20 DUP2 ADD DUP6 SWAP1 MSTORE PUSH1 0xFF DUP8 AND SWAP2 CALLER SWAP2 PUSH32 0x4B386667138D87683F75B2E46AD8AC192B053AF4C8875DA8689415997663A950 SWAP2 ADD PUSH1 0x40 MLOAD DUP1 SWAP2 SUB SWAP1 LOG3 POP JUMPDEST DUP2 ISZERO PUSH2 0xDF6 JUMPI PUSH1 0x4 SLOAD PUSH2 0xDF6 SWAP1 PUSH1 0x1 PUSH1 0x1 PUSH1 0xA0 SHL SUB AND CALLER DUP5 PUSH2 0x2F89 JUMP JUMPDEST POP POP POP PUSH2 0xE03 PUSH1 0x1 PUSH1 0x0 SSTORE JUMP JUMPDEST POP JUMP JUMPDEST PUSH2 0xE0E PUSH2 0x31F3 JUMP JUMPDEST PUSH1 0x0 JUMPDEST DUP2 DUP2 LT ISZERO PUSH2 0xEDC JUMPI PUSH1 0x0 PUSH1 0x2 PUSH1 0x0 DUP6 DUP6 DUP6 DUP2 DUP2 LT PUSH2 0xE31 JUMPI PUSH2 0xE31 PUSH2 0x3DA8 JUMP JUMPDEST SWAP1 POP PUSH1 0x20 MUL ADD PUSH1 0x20 DUP2 ADD SWAP1 PUSH2 0xE46 SWAP2 SWAP1 PUSH2 0x3887 JUMP JUMPDEST PUSH1 0x1 PUSH1 0x1 PUSH1 0xA0 SHL SUB AND DUP2 MSTORE PUSH1 0x20 DUP2 ADD SWAP2 SWAP1 SWAP2 MSTORE PUSH1 0x40 ADD PUSH1 0x0 KECCAK256 DUP1 SLOAD PUSH1 0xFF NOT AND SWAP2 ISZERO ISZERO SWAP2 SWAP1 SWAP2 OR SWAP1 SSTORE DUP3 DUP3 DUP3 DUP2 DUP2 LT PUSH2 0xE80 JUMPI PUSH2 0xE80 PUSH2 0x3DA8 JUMP JUMPDEST SWAP1 POP PUSH1 0x20 MUL ADD PUSH1 0x20 DUP2 ADD SWAP1 PUSH2 0xE95 SWAP2 SWAP1 PUSH2 0x3887 JUMP JUMPDEST PUSH1 0x1 PUSH1 0x1 PUSH1 0xA0 SHL SUB AND PUSH32 0xF1ABF01A1043B7C244D128E8595CF0C1D10743B022B03A02DFFD8CA3BF729F5A PUSH1 0x40 MLOAD PUSH1 0x40 MLOAD DUP1 SWAP2 SUB SWAP1 LOG2 DUP1 PUSH2 0xED4 DUP2 PUSH2 0x3D57 JUMP JUMPDEST SWAP2 POP POP PUSH2 0xE11 JUMP JUMPDEST POP POP POP JUMP JUMPDEST PUSH2 0xEE9 PUSH2 0x31F3 JUMP JUMPDEST PUSH1 0x1 PUSH1 0x1 PUSH1 0xA0 SHL SUB DUP2 AND PUSH1 0x0 DUP2 DUP2 MSTORE PUSH1 0x2 PUSH1 0x20 MSTORE PUSH1 0x40 DUP1 DUP3 KECCAK256 DUP1 SLOAD PUSH1 0xFF NOT AND SWAP1 SSTORE MLOAD PUSH32 0xF1ABF01A1043B7C244D128E8595CF0C1D10743B022B03A02DFFD8CA3BF729F5A SWAP2 SWAP1 LOG2 POP JUMP JUMPDEST PUSH1 0x0 PUSH1 0xB DUP3 PUSH1 0x2 DUP2 LT PUSH2 0xF47 JUMPI PUSH2 0xF47 PUSH2 0x3DA8 JUMP JUMPDEST PUSH1 0xB MUL ADD PUSH1 0x3 ADD SLOAD PUSH1 0xFF AND PUSH2 0xF5E JUMPI POP PUSH1 0x0 SWAP2 SWAP1 POP JUMP JUMPDEST PUSH2 0x867 PUSH1 0xB DUP4 PUSH1 0x2 DUP2 LT PUSH2 0xF74 JUMPI PUSH2 0xF74 PUSH2 0x3DA8 JUMP JUMPDEST PUSH1 0xB MUL ADD PUSH1 0x4 ADD SLOAD PUSH1 0xB DUP5 PUSH1 0x2 DUP2 LT PUSH2 0xF8F JUMPI PUSH2 0xF8F PUSH2 0x3DA8 JUMP JUMPDEST PUSH1 0xB MUL ADD SLOAD PUSH2 0x324D JUMP JUMPDEST SWAP2 SWAP1 POP JUMP JUMPDEST PUSH2 0xFA6 PUSH2 0x31F3 JUMP JUMPDEST PUSH1 0x4 SLOAD PUSH1 0x1 PUSH1 0x1 PUSH1 0xA0 SHL SUB DUP4 DUP2 AND SWAP2 AND EQ ISZERO PUSH2 0x1004 JUMPI PUSH1 0x40 MLOAD PUSH3 0x461BCD PUSH1 0xE5 SHL DUP2 MSTORE PUSH1 0x20 PUSH1 0x4 DUP3 ADD MSTORE PUSH1 0x1B PUSH1 0x24 DUP3 ADD MSTORE PUSH32 0x5265636F7665723A2043616E6E6F74206265204C5020746F6B656E0000000000 PUSH1 0x44 DUP3 ADD MSTORE PUSH1 0x64 ADD PUSH2 0x81C JUMP JUMPDEST PUSH1 0x5 SLOAD PUSH1 0x1 PUSH1 0x1 PUSH1 0xA0 SHL SUB DUP4 DUP2 AND SWAP2 AND EQ ISZERO PUSH2 0x106C JUMPI PUSH1 0x40 MLOAD PUSH3 0x461BCD PUSH1 0xE5 SHL DUP2 MSTORE PUSH1 0x20 PUSH1 0x4 DUP3 ADD MSTORE PUSH1 0x21 PUSH1 0x24 DUP3 ADD MSTORE PUSH32 0x5265636F7665723A2043616E6E6F74206265206F66666572696E6720746F6B65 PUSH1 0x44 DUP3 ADD MSTORE PUSH1 0x37 PUSH1 0xF9 SHL PUSH1 0x64 DUP3 ADD MSTORE PUSH1 0x84 ADD PUSH2 0x81C JUMP JUMPDEST PUSH2 0x1080 PUSH1 0x1 PUSH1 0x1 PUSH1 0xA0 SHL SUB DUP4 AND CALLER DUP4 PUSH2 0x2F89 JUMP JUMPDEST PUSH1 0x40 DUP1 MLOAD PUSH1 0x1 PUSH1 0x1 PUSH1 0xA0 SHL SUB DUP5 AND DUP2 MSTORE PUSH1 0x20 DUP2 ADD DUP4 SWAP1 MSTORE PUSH32 0x74545154AAC348A3EAC92596BD1971957CA94795F4E954EC5F613B55FAB78129 SWAP2 ADD JUMPDEST PUSH1 0x40 MLOAD DUP1 SWAP2 SUB SWAP1 LOG1 POP POP JUMP JUMPDEST PUSH1 0x0 DUP1 PUSH1 0x0 DUP1 PUSH1 0x0 DUP1 PUSH1 0x0 PUSH1 0xB DUP9 PUSH1 0x2 DUP2 LT PUSH2 0x10E5 JUMPI PUSH2 0x10E5 PUSH2 0x3DA8 JUMP JUMPDEST PUSH1 0xB MUL ADD PUSH1 0x0 ADD SLOAD PUSH1 0xB DUP10 PUSH1 0x2 DUP2 LT PUSH2 0x1100 JUMPI PUSH2 0x1100 PUSH2 0x3DA8 JUMP JUMPDEST PUSH1 0xB MUL ADD PUSH1 0x1 ADD SLOAD PUSH1 0xB DUP11 PUSH1 0x2 DUP2 LT PUSH2 0x111B JUMPI PUSH2 0x111B PUSH2 0x3DA8 JUMP JUMPDEST PUSH1 0xB MUL ADD PUSH1 0x2 ADD SLOAD PUSH1 0xB DUP12 PUSH1 0x2 DUP2 LT PUSH2 0x1136 JUMPI PUSH2 0x1136 PUSH2 0x3DA8 JUMP JUMPDEST PUSH1 0xB MUL ADD PUSH1 0x3 ADD PUSH1 0x0 SWAP1 SLOAD SWAP1 PUSH2 0x100 EXP SWAP1 DIV PUSH1 0xFF AND PUSH1 0xB DUP13 PUSH1 0x2 DUP2 LT PUSH2 0x115E JUMPI PUSH2 0x115E PUSH2 0x3DA8 JUMP JUMPDEST PUSH1 0xB MUL ADD PUSH1 0x4 ADD SLOAD PUSH1 0xB DUP14 PUSH1 0x2 DUP2 LT PUSH2 0x1179 JUMPI PUSH2 0x1179 PUSH2 0x3DA8 JUMP JUMPDEST PUSH1 0xB MUL ADD PUSH1 0x5 ADD SLOAD PUSH1 0xB DUP15 PUSH1 0x2 DUP2 LT PUSH2 0x1194 JUMPI PUSH2 0x1194 PUSH2 0x3DA8 JUMP JUMPDEST PUSH1 0xB MUL ADD PUSH1 0x6 ADD SLOAD SWAP6 SWAP15 SWAP5 SWAP14 POP SWAP3 SWAP12 POP SWAP1 SWAP10 POP SWAP8 POP SWAP6 POP PUSH1 0xFF SWAP1 SWAP2 AND SWAP4 POP SWAP2 POP POP JUMP JUMPDEST PUSH1 0x60 DUP1 PUSH1 0x0 DUP4 PUSH8 0xFFFFFFFFFFFFFFFF DUP2 GT ISZERO PUSH2 0x11D5 JUMPI PUSH2 0x11D5 PUSH2 0x3DBE JUMP JUMPDEST PUSH1 0x40 MLOAD SWAP1 DUP1 DUP3 MSTORE DUP1 PUSH1 0x20 MUL PUSH1 0x20 ADD DUP3 ADD PUSH1 0x40 MSTORE DUP1 ISZERO PUSH2 0x11FE JUMPI DUP2 PUSH1 0x20 ADD PUSH1 0x20 DUP3 MUL DUP1 CALLDATASIZE DUP4 CALLDATACOPY ADD SWAP1 POP JUMPDEST POP SWAP1 POP PUSH1 0x0 DUP5 PUSH8 0xFFFFFFFFFFFFFFFF DUP2 GT ISZERO PUSH2 0x121C JUMPI PUSH2 0x121C PUSH2 0x3DBE JUMP JUMPDEST PUSH1 0x40 MLOAD SWAP1 DUP1 DUP3 MSTORE DUP1 PUSH1 0x20 MUL PUSH1 0x20 ADD DUP3 ADD PUSH1 0x40 MSTORE DUP1 ISZERO PUSH2 0x1245 JUMPI DUP2 PUSH1 0x20 ADD PUSH1 0x20 DUP3 MUL DUP1 CALLDATASIZE DUP4 CALLDATACOPY ADD SWAP1 POP JUMPDEST POP SWAP1 POP PUSH1 0x0 JUMPDEST PUSH1 0x2 PUSH1 0xFF DUP3 AND LT ISZERO PUSH2 0x1304 JUMPI PUSH1 0x1 PUSH1 0x1 PUSH1 0xA0 SHL SUB DUP9 AND PUSH1 0x0 SWAP1 DUP2 MSTORE PUSH1 0x21 PUSH1 0x20 SWAP1 DUP2 MSTORE PUSH1 0x40 DUP1 DUP4 KECCAK256 PUSH1 0xFF DUP6 AND DUP1 DUP6 MSTORE SWAP3 MSTORE SWAP1 SWAP2 KECCAK256 SLOAD DUP5 MLOAD SWAP1 SWAP2 DUP6 SWAP2 DUP2 LT PUSH2 0x1293 JUMPI PUSH2 0x1293 PUSH2 0x3DA8 JUMP JUMPDEST PUSH1 0x20 SWAP1 DUP2 MUL SWAP2 SWAP1 SWAP2 ADD DUP2 ADD SWAP2 SWAP1 SWAP2 MSTORE PUSH1 0x1 PUSH1 0x1 PUSH1 0xA0 SHL SUB DUP10 AND PUSH1 0x0 SWAP1 DUP2 MSTORE PUSH1 0x21 DUP3 MSTORE PUSH1 0x40 DUP1 DUP3 KECCAK256 PUSH1 0xFF DUP1 DUP7 AND DUP1 DUP6 MSTORE SWAP2 SWAP1 SWAP5 MSTORE SWAP2 KECCAK256 PUSH1 0x1 ADD SLOAD DUP5 MLOAD SWAP3 AND SWAP2 DUP5 SWAP2 SWAP1 DUP2 LT PUSH2 0x12E2 JUMPI PUSH2 0x12E2 PUSH2 0x3DA8 JUMP JUMPDEST SWAP2 ISZERO ISZERO PUSH1 0x20 SWAP3 DUP4 MUL SWAP2 SWAP1 SWAP2 ADD SWAP1 SWAP2 ADD MSTORE DUP1 PUSH2 0x12FC DUP2 PUSH2 0x3D72 JUMP JUMPDEST SWAP2 POP POP PUSH2 0x124B JUMP JUMPDEST POP SWAP1 SWAP7 SWAP1 SWAP6 POP SWAP4 POP POP POP POP JUMP JUMPDEST PUSH2 0x1319 PUSH2 0x2D00 JUMP JUMPDEST PUSH1 0x0 DUP2 DUP2 MSTORE PUSH1 0x26 PUSH1 0x20 MSTORE PUSH1 0x40 SWAP1 KECCAK256 SLOAD PUSH1 0xFF AND ISZERO ISZERO PUSH1 0x1 EQ PUSH2 0x137C JUMPI PUSH1 0x40 MLOAD PUSH3 0x461BCD PUSH1 0xE5 SHL DUP2 MSTORE PUSH1 0x20 PUSH1 0x4 DUP3 ADD MSTORE PUSH1 0x1D PUSH1 0x24 DUP3 ADD MSTORE PUSH32 0x76657374696E67207363686564756C65206973206E6F74206578697374000000 PUSH1 0x44 DUP3 ADD MSTORE PUSH1 0x64 ADD PUSH2 0x81C JUMP JUMPDEST PUSH1 0x0 DUP2 DUP2 MSTORE PUSH1 0x26 PUSH1 0x20 MSTORE PUSH1 0x40 SWAP1 KECCAK256 DUP1 SLOAD PUSH1 0x1 SLOAD CALLER PUSH1 0x1 PUSH1 0x1 PUSH1 0xA0 SHL SUB PUSH2 0x100 SWAP1 SWAP4 DIV DUP4 AND DUP2 EQ SWAP3 SWAP1 SWAP2 AND EQ DUP2 DUP1 PUSH2 0x13B0 JUMPI POP DUP1 JUMPDEST PUSH2 0x1422 JUMPI PUSH1 0x40 MLOAD PUSH3 0x461BCD PUSH1 0xE5 SHL DUP2 MSTORE PUSH1 0x20 PUSH1 0x4 DUP3 ADD MSTORE PUSH1 0x38 PUSH1 0x24 DUP3 ADD MSTORE PUSH32 0x6F6E6C79207468652062656E656669636961727920616E64206F776E65722063 PUSH1 0x44 DUP3 ADD MSTORE PUSH32 0x616E2072656C656173652076657374656420746F6B656E730000000000000000 PUSH1 0x64 DUP3 ADD MSTORE PUSH1 0x84 ADD PUSH2 0x81C JUMP JUMPDEST PUSH1 0x40 DUP1 MLOAD PUSH1 0xA0 DUP2 ADD DUP3 MSTORE DUP5 SLOAD PUSH1 0xFF DUP1 DUP3 AND ISZERO ISZERO DUP4 MSTORE PUSH1 0x1 PUSH1 0x1 PUSH1 0xA0 SHL SUB PUSH2 0x100 DUP4 DIV AND PUSH1 0x20 DUP5 ADD MSTORE PUSH1 0x1 PUSH1 0xA8 SHL SWAP1 SWAP2 DIV AND SWAP2 DUP2 ADD SWAP2 SWAP1 SWAP2 MSTORE PUSH1 0x1 DUP5 ADD SLOAD PUSH1 0x60 DUP3 ADD MSTORE PUSH1 0x2 DUP5 ADD SLOAD PUSH1 0x80 DUP3 ADD MSTORE PUSH1 0x0 SWAP1 PUSH2 0x147A SWAP1 PUSH2 0x32EB JUMP JUMPDEST SWAP1 POP PUSH1 0x0 DUP2 GT PUSH2 0x14CC JUMPI PUSH1 0x40 MLOAD PUSH3 0x461BCD PUSH1 0xE5 SHL DUP2 MSTORE PUSH1 0x20 PUSH1 0x4 DUP3 ADD MSTORE PUSH1 0x1B PUSH1 0x24 DUP3 ADD MSTORE PUSH32 0x6E6F2076657374656420746F6B656E7320746F2072656C656173650000000000 PUSH1 0x44 DUP3 ADD MSTORE PUSH1 0x64 ADD PUSH2 0x81C JUMP JUMPDEST PUSH1 0x2 DUP5 ADD SLOAD PUSH2 0x14DB SWAP1 DUP3 PUSH2 0x2F65 JUMP JUMPDEST PUSH1 0x2 DUP6 ADD SSTORE PUSH1 0x27 SLOAD PUSH2 0x14ED SWAP1 DUP3 PUSH2 0x3455 JUMP JUMPDEST PUSH1 0x27 SSTORE DUP4 SLOAD PUSH1 0x5 SLOAD PUSH2 0x1512 SWAP2 PUSH1 0x1 PUSH1 0x1 PUSH1 0xA0 SHL SUB SWAP2 DUP3 AND SWAP2 PUSH2 0x100 SWAP1 SWAP2 DIV AND DUP4 PUSH2 0x2F89 JUMP JUMPDEST DUP4 SLOAD PUSH1 0x40 MLOAD DUP3 DUP2 MSTORE PUSH2 0x100 SWAP1 SWAP2 DIV PUSH1 0x1 PUSH1 0x1 PUSH1 0xA0 SHL SUB AND SWAP1 PUSH32 0xB21FB52D5749B80F3182F8C6992236B5E5576681880914484D7F4C9B062E619E SWAP1 PUSH1 0x20 ADD PUSH1 0x40 MLOAD DUP1 SWAP2 SUB SWAP1 LOG2 POP POP POP POP PUSH2 0xE03 PUSH1 0x1 PUSH1 0x0 SSTORE JUMP JUMPDEST PUSH2 0x156D PUSH2 0x31F3 JUMP JUMPDEST PUSH1 0x7 SLOAD NUMBER LT PUSH2 0x15BE JUMPI PUSH1 0x40 MLOAD PUSH3 0x461BCD PUSH1 0xE5 SHL DUP2 MSTORE PUSH1 0x20 PUSH1 0x4 DUP3 ADD MSTORE PUSH1 0x1B PUSH1 0x24 DUP3 ADD MSTORE PUSH32 0x4F7065726174696F6E733A2049464F2068617320737461727465640000000000 PUSH1 0x44 DUP3 ADD MSTORE PUSH1 0x64 ADD PUSH2 0x81C JUMP JUMPDEST PUSH1 0x2 PUSH1 0xFF DUP8 AND LT PUSH2 0x1611 JUMPI PUSH1 0x40 MLOAD PUSH3 0x461BCD PUSH1 0xE5 SHL DUP2 MSTORE PUSH1 0x20 PUSH1 0x4 DUP3 ADD MSTORE PUSH1 0x1F PUSH1 0x24 DUP3 ADD MSTORE PUSH32 0x4F7065726174696F6E733A20506F6F6C20646F6573206E6F7420657869737400 PUSH1 0x44 DUP3 ADD MSTORE PUSH1 0x64 ADD PUSH2 0x81C JUMP JUMPDEST PUSH1 0x64 DUP5 GT ISZERO PUSH2 0x168A JUMPI PUSH1 0x40 DUP1 MLOAD PUSH3 0x461BCD PUSH1 0xE5 SHL DUP2 MSTORE PUSH1 0x20 PUSH1 0x4 DUP3 ADD MSTORE PUSH1 0x24 DUP2 ADD SWAP2 SWAP1 SWAP2 MSTORE PUSH32 0x4F7065726174696F6E733A2076657374696E672070657263656E746167652073 PUSH1 0x44 DUP3 ADD MSTORE PUSH32 0x686F756C642065786365656473203020616E6420696E746572696F7220313030 PUSH1 0x64 DUP3 ADD MSTORE PUSH1 0x84 ADD PUSH2 0x81C JUMP JUMPDEST PUSH1 0x0 DUP3 GT PUSH2 0x16DA JUMPI PUSH1 0x40 MLOAD PUSH3 0x461BCD PUSH1 0xE5 SHL DUP2 MSTORE PUSH1 0x20 PUSH1 0x4 DUP3 ADD MSTORE PUSH1 0x17 PUSH1 0x24 DUP3 ADD MSTORE PUSH32 0x6475726174696F6E206D75737420657863656564732030000000000000000000 PUSH1 0x44 DUP3 ADD MSTORE PUSH1 0x64 ADD PUSH2 0x81C JUMP JUMPDEST PUSH1 0x1 DUP2 LT ISZERO PUSH2 0x1737 JUMPI PUSH1 0x40 MLOAD PUSH3 0x461BCD PUSH1 0xE5 SHL DUP2 MSTORE PUSH1 0x20 PUSH1 0x4 DUP3 ADD MSTORE PUSH1 0x24 DUP1 DUP3 ADD MSTORE PUSH32 0x736C696365506572696F645365636F6E6473206D757374206265206578636565 PUSH1 0x44 DUP3 ADD MSTORE PUSH4 0x64732031 PUSH1 0xE0 SHL PUSH1 0x64 DUP3 ADD MSTORE PUSH1 0x84 ADD PUSH2 0x81C JUMP JUMPDEST DUP2 DUP2 GT ISZERO PUSH2 0x179C JUMPI PUSH1 0x40 MLOAD PUSH3 0x461BCD PUSH1 0xE5 SHL DUP2 MSTORE PUSH1 0x20 PUSH1 0x4 DUP3 ADD MSTORE PUSH1 0x2C PUSH1 0x24 DUP3 ADD MSTORE PUSH32 0x736C696365506572696F645365636F6E6473206D75737420626520696E746572 PUSH1 0x44 DUP3 ADD MSTORE PUSH12 0x34B7B910323AB930BA34B7B7 PUSH1 0xA1 SHL PUSH1 0x64 DUP3 ADD MSTORE PUSH1 0x84 ADD PUSH2 0x81C JUMP JUMPDEST DUP10 PUSH1 0xB DUP8 PUSH1 0xFF AND PUSH1 0x2 DUP2 LT PUSH2 0x17B3 JUMPI PUSH2 0x17B3 PUSH2 0x3DA8 JUMP JUMPDEST PUSH1 0xB MUL ADD PUSH1 0x1 ADD DUP2 SWAP1 SSTORE POP DUP9 PUSH1 0xB DUP8 PUSH1 0xFF AND PUSH1 0x2 DUP2 LT PUSH2 0x17D5 JUMPI PUSH2 0x17D5 PUSH2 0x3DA8 JUMP JUMPDEST PUSH1 0xB MUL ADD PUSH1 0x0 ADD DUP2 SWAP1 SSTORE POP DUP8 PUSH1 0xB DUP8 PUSH1 0xFF AND PUSH1 0x2 DUP2 LT PUSH2 0x17F7 JUMPI PUSH2 0x17F7 PUSH2 0x3DA8 JUMP JUMPDEST PUSH1 0xB MUL ADD PUSH1 0x2 ADD DUP2 SWAP1 SSTORE POP DUP7 PUSH1 0xB DUP8 PUSH1 0xFF AND PUSH1 0x2 DUP2 LT PUSH2 0x1819 JUMPI PUSH2 0x1819 PUSH2 0x3DA8 JUMP JUMPDEST PUSH1 0xB MUL ADD PUSH1 0x3 ADD PUSH1 0x0 PUSH2 0x100 EXP DUP2 SLOAD DUP2 PUSH1 0xFF MUL NOT AND SWAP1 DUP4 ISZERO ISZERO MUL OR SWAP1 SSTORE POP DUP5 PUSH1 0xB DUP8 PUSH1 0xFF AND PUSH1 0x2 DUP2 LT PUSH2 0x184E JUMPI PUSH2 0x184E PUSH2 0x3DA8 JUMP JUMPDEST PUSH1 0xB MUL ADD PUSH1 0x6 ADD PUSH1 0x0 PUSH2 0x100 EXP DUP2 SLOAD DUP2 PUSH1 0xFF MUL NOT AND SWAP1 DUP4 ISZERO ISZERO MUL OR SWAP1 SSTORE POP DUP4 PUSH1 0xB DUP8 PUSH1 0xFF AND PUSH1 0x2 DUP2 LT PUSH2 0x1883 JUMPI PUSH2 0x1883 PUSH2 0x3DA8 JUMP JUMPDEST PUSH1 0xB MUL ADD PUSH1 0x7 ADD DUP2 SWAP1 SSTORE POP DUP3 PUSH1 0xB DUP8 PUSH1 0xFF AND PUSH1 0x2 DUP2 LT PUSH2 0x18A5 JUMPI PUSH2 0x18A5 PUSH2 0x3DA8 JUMP JUMPDEST PUSH1 0xB MUL ADD PUSH1 0x8 ADD DUP2 SWAP1 SSTORE POP DUP2 PUSH1 0xB DUP8 PUSH1 0xFF AND PUSH1 0x2 DUP2 LT PUSH2 0x18C7 JUMPI PUSH2 0x18C7 PUSH2 0x3DA8 JUMP JUMPDEST PUSH1 0xB MUL ADD PUSH1 0x9 ADD DUP2 SWAP1 SSTORE POP DUP1 PUSH1 0xB DUP8 PUSH1 0xFF AND PUSH1 0x2 DUP2 LT PUSH2 0x18E9 JUMPI PUSH2 0x18E9 PUSH2 0x3DA8 JUMP JUMPDEST PUSH1 0xB MUL ADD PUSH1 0xA ADD DUP2 SWAP1 SSTORE POP PUSH1 0x0 DUP1 PUSH1 0x0 SWAP1 POP JUMPDEST PUSH1 0x2 PUSH1 0xFF DUP3 AND LT ISZERO PUSH2 0x194C JUMPI PUSH2 0x1938 PUSH1 0xB DUP3 PUSH1 0xFF AND PUSH1 0x2 DUP2 LT PUSH2 0x1921 JUMPI PUSH2 0x1921 PUSH2 0x3DA8 JUMP JUMPDEST PUSH1 0xB MUL ADD PUSH1 0x1 ADD SLOAD DUP4 PUSH2 0x2F65 SWAP1 SWAP2 SWAP1 PUSH4 0xFFFFFFFF AND JUMP JUMPDEST SWAP2 POP DUP1 PUSH2 0x1944 DUP2 PUSH2 0x3D72 JUMP JUMPDEST SWAP2 POP POP PUSH2 0x18FC JUMP JUMPDEST POP PUSH1 0xA DUP2 SWAP1 SSTORE PUSH1 0x40 DUP1 MLOAD DUP13 DUP2 MSTORE PUSH1 0x20 DUP2 ADD DUP13 SWAP1 MSTORE PUSH1 0xFF DUP10 AND DUP2 DUP4 ADD MSTORE SWAP1 MLOAD PUSH32 0xDDAF243A142670BE60C19FF7116B5D8B124717B29BB4CC03CEAD42161614105B SWAP2 DUP2 SWAP1 SUB PUSH1 0x60 ADD SWAP1 LOG1 POP POP POP POP POP POP POP POP POP POP POP JUMP JUMPDEST PUSH2 0x19A9 PUSH2 0x31F3 JUMP JUMPDEST PUSH2 0x19B3 PUSH1 0x0 PUSH2 0x3461 JUMP JUMPDEST JUMP JUMPDEST PUSH1 0x27 SLOAD PUSH1 0x5 SLOAD PUSH1 0x40 MLOAD PUSH4 0x70A08231 PUSH1 0xE0 SHL DUP2 MSTORE ADDRESS PUSH1 0x4 DUP3 ADD MSTORE PUSH1 0x0 SWAP3 PUSH2 0x1A42 SWAP3 SWAP1 SWAP2 PUSH1 0x1 PUSH1 0x1 PUSH1 0xA0 SHL SUB SWAP1 SWAP2 AND SWAP1 PUSH4 0x70A08231 SWAP1 PUSH1 0x24 ADD PUSH1 0x20 PUSH1 0x40 MLOAD DUP1 DUP4 SUB DUP2 DUP7 DUP1 EXTCODESIZE ISZERO DUP1 ISZERO PUSH2 0x1A04 JUMPI PUSH1 0x0 DUP1 REVERT JUMPDEST POP GAS STATICCALL ISZERO DUP1 ISZERO PUSH2 0x1A18 JUMPI RETURNDATASIZE PUSH1 0x0 DUP1 RETURNDATACOPY RETURNDATASIZE PUSH1 0x0 REVERT JUMPDEST POP POP POP POP PUSH1 0x40 MLOAD RETURNDATASIZE PUSH1 0x1F NOT PUSH1 0x1F DUP3 ADD AND DUP3 ADD DUP1 PUSH1 0x40 MSTORE POP DUP2 ADD SWAP1 PUSH2 0x1A3C SWAP2 SWAP1 PUSH2 0x3A08 JUMP JUMPDEST SWAP1 PUSH2 0x3455 JUMP JUMPDEST SWAP1 POP SWAP1 JUMP JUMPDEST PUSH2 0x1A4F PUSH2 0x31F3 JUMP JUMPDEST PUSH1 0x1 PUSH1 0x1 PUSH1 0xA0 SHL SUB DUP2 AND PUSH1 0x0 DUP2 DUP2 MSTORE PUSH1 0x2 PUSH1 0x20 MSTORE PUSH1 0x40 DUP1 DUP3 KECCAK256 DUP1 SLOAD PUSH1 0xFF NOT AND PUSH1 0x1 OR SWAP1 SSTORE MLOAD PUSH32 0xD1BBA68C128CC3F427E5831B3C6F99F480B6EFA6B9E80C757768F6124158CC3F SWAP2 SWAP1 LOG2 POP JUMP JUMPDEST PUSH2 0x1AA3 PUSH2 0x2D00 JUMP JUMPDEST CALLER EXTCODESIZE ISZERO PUSH2 0x1AE9 JUMPI PUSH1 0x40 MLOAD PUSH3 0x461BCD PUSH1 0xE5 SHL DUP2 MSTORE PUSH1 0x20 PUSH1 0x4 DUP3 ADD MSTORE PUSH1 0x14 PUSH1 0x24 DUP3 ADD MSTORE PUSH20 0x18DBDB9D1C9858DD081B9BDD08185B1B1BDDD959 PUSH1 0x62 SHL PUSH1 0x44 DUP3 ADD MSTORE PUSH1 0x64 ADD PUSH2 0x81C JUMP JUMPDEST CALLER ORIGIN EQ PUSH2 0x1B38 JUMPI PUSH1 0x40 MLOAD PUSH3 0x461BCD PUSH1 0xE5 SHL DUP2 MSTORE PUSH1 0x20 PUSH1 0x4 DUP3 ADD MSTORE PUSH1 0x1A PUSH1 0x24 DUP3 ADD MSTORE PUSH32 0x70726F787920636F6E7472616374206E6F7420616C6C6F776564000000000000 PUSH1 0x44 DUP3 ADD MSTORE PUSH1 0x64 ADD PUSH2 0x81C JUMP JUMPDEST PUSH1 0x2 PUSH1 0xFF DUP3 AND LT PUSH2 0x1B8B JUMPI PUSH1 0x40 MLOAD PUSH3 0x461BCD PUSH1 0xE5 SHL DUP2 MSTORE PUSH1 0x20 PUSH1 0x4 DUP3 ADD MSTORE PUSH1 0x1A PUSH1 0x24 DUP3 ADD MSTORE PUSH32 0x4465706F7369743A204E6F6E2076616C696420706F6F6C206964000000000000 PUSH1 0x44 DUP3 ADD MSTORE PUSH1 0x64 ADD PUSH2 0x81C JUMP JUMPDEST PUSH1 0x0 PUSH1 0xB DUP3 PUSH1 0xFF AND PUSH1 0x2 DUP2 LT PUSH2 0x1BA3 JUMPI PUSH2 0x1BA3 PUSH2 0x3DA8 JUMP JUMPDEST PUSH1 0xB MUL ADD PUSH1 0x1 ADD SLOAD GT DUP1 ISZERO PUSH2 0x1BD2 JUMPI POP PUSH1 0x0 PUSH1 0xB DUP3 PUSH1 0xFF AND PUSH1 0x2 DUP2 LT PUSH2 0x1BCB JUMPI PUSH2 0x1BCB PUSH2 0x3DA8 JUMP JUMPDEST PUSH1 0xB MUL ADD SLOAD GT JUMPDEST PUSH2 0x1C16 JUMPI PUSH1 0x40 MLOAD PUSH3 0x461BCD PUSH1 0xE5 SHL DUP2 MSTORE PUSH1 0x20 PUSH1 0x4 DUP3 ADD MSTORE PUSH1 0x15 PUSH1 0x24 DUP3 ADD MSTORE PUSH21 0x11195C1BDCDA5D0E88141BDBDB081B9BDD081CD95D PUSH1 0x5A SHL PUSH1 0x44 DUP3 ADD MSTORE PUSH1 0x64 ADD PUSH2 0x81C JUMP JUMPDEST PUSH1 0x7 SLOAD NUMBER GT PUSH2 0x1C5C JUMPI PUSH1 0x40 MLOAD PUSH3 0x461BCD PUSH1 0xE5 SHL DUP2 MSTORE PUSH1 0x20 PUSH1 0x4 DUP3 ADD MSTORE PUSH1 0x12 PUSH1 0x24 DUP3 ADD MSTORE PUSH18 0x4465706F7369743A20546F6F206561726C79 PUSH1 0x70 SHL PUSH1 0x44 DUP3 ADD MSTORE PUSH1 0x64 ADD PUSH2 0x81C JUMP JUMPDEST PUSH1 0x8 SLOAD NUMBER LT PUSH2 0x1CA1 JUMPI PUSH1 0x40 MLOAD PUSH3 0x461BCD PUSH1 0xE5 SHL DUP2 MSTORE PUSH1 0x20 PUSH1 0x4 DUP3 ADD MSTORE PUSH1 0x11 PUSH1 0x24 DUP3 ADD MSTORE PUSH17 0x4465706F7369743A20546F6F206C617465 PUSH1 0x78 SHL PUSH1 0x44 DUP3 ADD MSTORE PUSH1 0x64 ADD PUSH2 0x81C JUMP JUMPDEST PUSH1 0x0 DUP3 GT PUSH2 0x1CF1 JUMPI PUSH1 0x40 MLOAD PUSH3 0x461BCD PUSH1 0xE5 SHL DUP2 MSTORE PUSH1 0x20 PUSH1 0x4 DUP3 ADD MSTORE PUSH1 0x1B PUSH1 0x24 DUP3 ADD MSTORE PUSH32 0x4465706F7369743A20416D6F756E74206D757374206265203E20300000000000 PUSH1 0x44 DUP3 ADD MSTORE PUSH1 0x64 ADD PUSH2 0x81C JUMP JUMPDEST PUSH1 0xA SLOAD PUSH1 0x5 SLOAD PUSH1 0x40 MLOAD PUSH4 0x70A08231 PUSH1 0xE0 SHL DUP2 MSTORE ADDRESS PUSH1 0x4 DUP3 ADD MSTORE PUSH1 0x1 PUSH1 0x1 PUSH1 0xA0 SHL SUB SWAP1 SWAP2 AND SWAP1 PUSH4 0x70A08231 SWAP1 PUSH1 0x24 ADD PUSH1 0x20 PUSH1 0x40 MLOAD DUP1 DUP4 SUB DUP2 DUP7 DUP1 EXTCODESIZE ISZERO DUP1 ISZERO PUSH2 0x1D37 JUMPI PUSH1 0x0 DUP1 REVERT JUMPDEST POP GAS STATICCALL ISZERO DUP1 ISZERO PUSH2 0x1D4B JUMPI RETURNDATASIZE PUSH1 0x0 DUP1 RETURNDATACOPY RETURNDATASIZE PUSH1 0x0 REVERT JUMPDEST POP POP POP POP PUSH1 0x40 MLOAD RETURNDATASIZE PUSH1 0x1F NOT PUSH1 0x1F DUP3 ADD AND DUP3 ADD DUP1 PUSH1 0x40 MSTORE POP DUP2 ADD SWAP1 PUSH2 0x1D6F SWAP2 SWAP1 PUSH2 0x3A08 JUMP JUMPDEST LT ISZERO PUSH2 0x1DCC JUMPI PUSH1 0x40 MLOAD PUSH3 0x461BCD PUSH1 0xE5 SHL DUP2 MSTORE PUSH1 0x20 PUSH1 0x4 DUP3 ADD MSTORE PUSH1 0x26 PUSH1 0x24 DUP3 ADD MSTORE PUSH32 0x4465706F7369743A20546F6B656E73206E6F74206465706F7369746564207072 PUSH1 0x44 DUP3 ADD MSTORE PUSH6 0x6F7065726C79 PUSH1 0xD0 SHL PUSH1 0x64 DUP3 ADD MSTORE PUSH1 0x84 ADD PUSH2 0x81C JUMP JUMPDEST PUSH1 0xB DUP2 PUSH1 0xFF AND PUSH1 0x2 DUP2 LT PUSH2 0x1DE2 JUMPI PUSH2 0x1DE2 PUSH2 0x3DA8 JUMP JUMPDEST PUSH1 0xB MUL ADD PUSH1 0x6 ADD SLOAD PUSH1 0xFF AND PUSH2 0x2070 JUMPI PUSH1 0x6 SLOAD PUSH1 0x40 MLOAD PUSH4 0x36B5BC37 PUSH1 0xE2 SHL DUP2 MSTORE CALLER PUSH1 0x4 DUP3 ADD MSTORE PUSH1 0x0 SWAP2 PUSH1 0x1 PUSH1 0x1 PUSH1 0xA0 SHL SUB AND SWAP1 PUSH4 0xDAD6F0DC SWAP1 PUSH1 0x24 ADD PUSH1 0x20 PUSH1 0x40 MLOAD DUP1 DUP4 SUB DUP2 DUP7 DUP1 EXTCODESIZE ISZERO DUP1 ISZERO PUSH2 0x1E35 JUMPI PUSH1 0x0 DUP1 REVERT JUMPDEST POP GAS STATICCALL ISZERO DUP1 ISZERO PUSH2 0x1E49 JUMPI RETURNDATASIZE PUSH1 0x0 DUP1 RETURNDATACOPY RETURNDATASIZE PUSH1 0x0 REVERT JUMPDEST POP POP POP POP PUSH1 0x40 MLOAD RETURNDATASIZE PUSH1 0x1F NOT PUSH1 0x1F DUP3 ADD AND DUP3 ADD DUP1 PUSH1 0x40 MSTORE POP DUP2 ADD SWAP1 PUSH2 0x1E6D SWAP2 SWAP1 PUSH2 0x3A08 JUMP JUMPDEST CALLER PUSH1 0x0 SWAP1 DUP2 MSTORE PUSH1 0x22 PUSH1 0x20 MSTORE PUSH1 0x40 SWAP1 KECCAK256 SLOAD SWAP1 SWAP2 POP DUP2 SWAP1 PUSH2 0x1E8C SWAP1 DUP6 PUSH2 0x2F65 JUMP JUMPDEST GT ISZERO PUSH2 0x1EDA JUMPI PUSH1 0x40 MLOAD PUSH3 0x461BCD PUSH1 0xE5 SHL DUP2 MSTORE PUSH1 0x20 PUSH1 0x4 DUP3 ADD MSTORE PUSH1 0x1A PUSH1 0x24 DUP3 ADD MSTORE PUSH32 0x4E6F7420656E6F7567682049464F20637265646974206C656674000000000000 PUSH1 0x44 DUP3 ADD MSTORE PUSH1 0x64 ADD PUSH2 0x81C JUMP JUMPDEST PUSH1 0x4 SLOAD PUSH2 0x1EF2 SWAP1 PUSH1 0x1 PUSH1 0x1 PUSH1 0xA0 SHL SUB AND CALLER ADDRESS DUP7 PUSH2 0x34B3 JUMP JUMPDEST CALLER PUSH1 0x0 SWAP1 DUP2 MSTORE PUSH1 0x21 PUSH1 0x20 SWAP1 DUP2 MSTORE PUSH1 0x40 DUP1 DUP4 KECCAK256 PUSH1 0xFF DUP7 AND DUP5 MSTORE SWAP1 SWAP2 MSTORE SWAP1 KECCAK256 SLOAD PUSH2 0x1F1A SWAP1 DUP5 PUSH2 0x2F65 JUMP JUMPDEST CALLER PUSH1 0x0 SWAP1 DUP2 MSTORE PUSH1 0x21 PUSH1 0x20 SWAP1 DUP2 MSTORE PUSH1 0x40 DUP1 DUP4 KECCAK256 PUSH1 0xFF DUP8 AND DUP1 DUP6 MSTORE SWAP3 MSTORE DUP3 KECCAK256 SWAP3 SWAP1 SWAP3 SSTORE SWAP1 PUSH1 0xB SWAP1 PUSH1 0x2 DUP2 LT PUSH2 0x1F4F JUMPI PUSH2 0x1F4F PUSH2 0x3DA8 JUMP JUMPDEST PUSH1 0xB MUL ADD PUSH1 0x2 ADD SLOAD GT ISZERO PUSH2 0x1FB7 JUMPI PUSH1 0xB DUP3 PUSH1 0xFF AND PUSH1 0x2 DUP2 LT PUSH2 0x1F73 JUMPI PUSH2 0x1F73 PUSH2 0x3DA8 JUMP JUMPDEST PUSH1 0xB MUL ADD PUSH1 0x2 ADD SLOAD CALLER PUSH1 0x0 SWAP1 DUP2 MSTORE PUSH1 0x21 PUSH1 0x20 SWAP1 DUP2 MSTORE PUSH1 0x40 DUP1 DUP4 KECCAK256 PUSH1 0xFF DUP8 AND DUP5 MSTORE SWAP1 SWAP2 MSTORE SWAP1 KECCAK256 SLOAD GT ISZERO PUSH2 0x1FB7 JUMPI PUSH1 0x40 MLOAD PUSH3 0x461BCD PUSH1 0xE5 SHL DUP2 MSTORE PUSH1 0x4 ADD PUSH2 0x81C SWAP1 PUSH2 0x3C77 JUMP JUMPDEST PUSH2 0x1FE7 DUP4 PUSH1 0xB DUP5 PUSH1 0xFF AND PUSH1 0x2 DUP2 LT PUSH2 0x1FD1 JUMPI PUSH2 0x1FD1 PUSH2 0x3DA8 JUMP JUMPDEST PUSH1 0xB MUL ADD PUSH1 0x4 ADD SLOAD PUSH2 0x2F65 SWAP1 SWAP2 SWAP1 PUSH4 0xFFFFFFFF AND JUMP JUMPDEST PUSH1 0xB DUP4 PUSH1 0xFF AND PUSH1 0x2 DUP2 LT PUSH2 0x1FFD JUMPI PUSH2 0x1FFD PUSH2 0x3DA8 JUMP JUMPDEST PUSH1 0xB MUL ADD PUSH1 0x4 ADD SSTORE CALLER PUSH1 0x0 SWAP1 DUP2 MSTORE PUSH1 0x22 PUSH1 0x20 MSTORE PUSH1 0x40 SWAP1 KECCAK256 SLOAD PUSH2 0x201F SWAP1 DUP5 PUSH2 0x2F65 JUMP JUMPDEST CALLER PUSH1 0x0 DUP2 DUP2 MSTORE PUSH1 0x22 PUSH1 0x20 SWAP1 DUP2 MSTORE PUSH1 0x40 SWAP2 DUP3 SWAP1 KECCAK256 SWAP4 SWAP1 SWAP4 SSTORE MLOAD DUP6 DUP2 MSTORE PUSH1 0xFF DUP6 AND SWAP3 PUSH32 0xF763E680FCE25A97FFD55D8B705370C98B47B2285F7B3B2900C43606FD418045 SWAP2 ADD PUSH1 0x40 MLOAD DUP1 SWAP2 SUB SWAP1 LOG3 POP PUSH2 0x222F JUMP JUMPDEST CALLER PUSH1 0x0 SWAP1 DUP2 MSTORE PUSH1 0x2 PUSH1 0x20 MSTORE PUSH1 0x40 SWAP1 KECCAK256 SLOAD PUSH1 0xFF AND PUSH2 0x20CF JUMPI PUSH1 0x40 MLOAD PUSH3 0x461BCD PUSH1 0xE5 SHL DUP2 MSTORE PUSH1 0x20 PUSH1 0x4 DUP3 ADD MSTORE PUSH1 0x17 PUSH1 0x24 DUP3 ADD MSTORE PUSH32 0x41646472657373206E6F742077686974656C6973746564000000000000000000 PUSH1 0x44 DUP3 ADD MSTORE PUSH1 0x64 ADD PUSH2 0x81C JUMP JUMPDEST PUSH1 0x4 SLOAD PUSH2 0x20E7 SWAP1 PUSH1 0x1 PUSH1 0x1 PUSH1 0xA0 SHL SUB AND CALLER ADDRESS DUP6 PUSH2 0x34B3 JUMP JUMPDEST CALLER PUSH1 0x0 SWAP1 DUP2 MSTORE PUSH1 0x21 PUSH1 0x20 SWAP1 DUP2 MSTORE PUSH1 0x40 DUP1 DUP4 KECCAK256 PUSH1 0xFF DUP6 AND DUP5 MSTORE SWAP1 SWAP2 MSTORE SWAP1 KECCAK256 SLOAD PUSH2 0x210F SWAP1 DUP4 PUSH2 0x2F65 JUMP JUMPDEST CALLER PUSH1 0x0 SWAP1 DUP2 MSTORE PUSH1 0x21 PUSH1 0x20 SWAP1 DUP2 MSTORE PUSH1 0x40 DUP1 DUP4 KECCAK256 PUSH1 0xFF DUP7 AND DUP1 DUP6 MSTORE SWAP3 MSTORE DUP3 KECCAK256 SWAP3 SWAP1 SWAP3 SSTORE SWAP1 PUSH1 0xB SWAP1 PUSH1 0x2 DUP2 LT PUSH2 0x2144 JUMPI PUSH2 0x2144 PUSH2 0x3DA8 JUMP JUMPDEST PUSH1 0xB MUL ADD PUSH1 0x2 ADD SLOAD GT ISZERO PUSH2 0x21AC JUMPI PUSH1 0xB DUP2 PUSH1 0xFF AND PUSH1 0x2 DUP2 LT PUSH2 0x2168 JUMPI PUSH2 0x2168 PUSH2 0x3DA8 JUMP JUMPDEST PUSH1 0xB MUL ADD PUSH1 0x2 ADD SLOAD CALLER PUSH1 0x0 SWAP1 DUP2 MSTORE PUSH1 0x21 PUSH1 0x20 SWAP1 DUP2 MSTORE PUSH1 0x40 DUP1 DUP4 KECCAK256 PUSH1 0xFF DUP7 AND DUP5 MSTORE SWAP1 SWAP2 MSTORE SWAP1 KECCAK256 SLOAD GT ISZERO PUSH2 0x21AC JUMPI PUSH1 0x40 MLOAD PUSH3 0x461BCD PUSH1 0xE5 SHL DUP2 MSTORE PUSH1 0x4 ADD PUSH2 0x81C SWAP1 PUSH2 0x3C77 JUMP JUMPDEST PUSH2 0x21C6 DUP3 PUSH1 0xB DUP4 PUSH1 0xFF AND PUSH1 0x2 DUP2 LT PUSH2 0x1FD1 JUMPI PUSH2 0x1FD1 PUSH2 0x3DA8 JUMP JUMPDEST PUSH1 0xB DUP3 PUSH1 0xFF AND PUSH1 0x2 DUP2 LT PUSH2 0x21DC JUMPI PUSH2 0x21DC PUSH2 0x3DA8 JUMP JUMPDEST PUSH1 0xB MUL ADD PUSH1 0x4 ADD DUP2 SWAP1 SSTORE POP DUP1 PUSH1 0xFF AND CALLER PUSH1 0x1 PUSH1 0x1 PUSH1 0xA0 SHL SUB AND PUSH32 0xF763E680FCE25A97FFD55D8B705370C98B47B2285F7B3B2900C43606FD418045 DUP5 PUSH1 0x40 MLOAD PUSH2 0x2226 SWAP2 DUP2 MSTORE PUSH1 0x20 ADD SWAP1 JUMP JUMPDEST PUSH1 0x40 MLOAD DUP1 SWAP2 SUB SWAP1 LOG3 JUMPDEST PUSH2 0x2239 PUSH1 0x1 PUSH1 0x0 SSTORE JUMP JUMPDEST POP POP JUMP JUMPDEST PUSH1 0x40 MLOAD PUSH12 0xFFFFFFFFFFFFFFFFFFFFFFFF NOT PUSH1 0x60 DUP5 SWAP1 SHL AND PUSH1 0x20 DUP3 ADD MSTORE PUSH1 0x34 DUP2 ADD DUP3 SWAP1 MSTORE PUSH1 0x0 SWAP1 PUSH1 0x54 ADD PUSH1 0x40 MLOAD PUSH1 0x20 DUP2 DUP4 SUB SUB DUP2 MSTORE SWAP1 PUSH1 0x40 MSTORE DUP1 MLOAD SWAP1 PUSH1 0x20 ADD KECCAK256 SWAP1 POP SWAP3 SWAP2 POP POP JUMP JUMPDEST PUSH2 0x228C PUSH2 0x31F3 JUMP JUMPDEST PUSH1 0x3 SLOAD PUSH2 0x2299 SWAP1 NUMBER PUSH2 0x3CBB JUMP JUMPDEST DUP2 LT PUSH2 0x22E7 JUMPI PUSH1 0x40 MLOAD PUSH3 0x461BCD PUSH1 0xE5 SHL DUP2 MSTORE PUSH1 0x20 PUSH1 0x4 DUP3 ADD MSTORE PUSH1 0x1C PUSH1 0x24 DUP3 ADD MSTORE PUSH32 0x4F7065726174696F6E733A20456E64426C6F636B20746F6F2066617200000000 PUSH1 0x44 DUP3 ADD MSTORE PUSH1 0x64 ADD PUSH2 0x81C JUMP JUMPDEST PUSH1 0x7 SLOAD NUMBER LT PUSH2 0x2338 JUMPI PUSH1 0x40 MLOAD PUSH3 0x461BCD PUSH1 0xE5 SHL DUP2 MSTORE PUSH1 0x20 PUSH1 0x4 DUP3 ADD MSTORE PUSH1 0x1B PUSH1 0x24 DUP3 ADD MSTORE PUSH32 0x4F7065726174696F6E733A2049464F2068617320737461727465640000000000 PUSH1 0x44 DUP3 ADD MSTORE PUSH1 0x64 ADD PUSH2 0x81C JUMP JUMPDEST DUP1 DUP3 LT PUSH2 0x23AD JUMPI PUSH1 0x40 MLOAD PUSH3 0x461BCD PUSH1 0xE5 SHL DUP2 MSTORE PUSH1 0x20 PUSH1 0x4 DUP3 ADD MSTORE PUSH1 0x3A PUSH1 0x24 DUP3 ADD MSTORE PUSH32 0x4F7065726174696F6E733A204E6577207374617274426C6F636B206D75737420 PUSH1 0x44 DUP3 ADD MSTORE PUSH32 0x6265206C6F776572207468616E206E657720656E64426C6F636B000000000000 PUSH1 0x64 DUP3 ADD MSTORE PUSH1 0x84 ADD PUSH2 0x81C JUMP JUMPDEST DUP2 NUMBER LT PUSH2 0x2422 JUMPI PUSH1 0x40 MLOAD PUSH3 0x461BCD PUSH1 0xE5 SHL DUP2 MSTORE PUSH1 0x20 PUSH1 0x4 DUP3 ADD MSTORE PUSH1 0x3C PUSH1 0x24 DUP3 ADD MSTORE PUSH32 0x4F7065726174696F6E733A204E6577207374617274426C6F636B206D75737420 PUSH1 0x44 DUP3 ADD MSTORE PUSH32 0x626520686967686572207468616E2063757272656E7420626C6F636B00000000 PUSH1 0x64 DUP3 ADD MSTORE PUSH1 0x84 ADD PUSH2 0x81C JUMP JUMPDEST PUSH1 0x7 DUP3 SWAP1 SSTORE PUSH1 0x8 DUP2 SWAP1 SSTORE PUSH1 0x40 DUP1 MLOAD DUP4 DUP2 MSTORE PUSH1 0x20 DUP2 ADD DUP4 SWAP1 MSTORE PUSH32 0x7CD0AB87D19036F3DFADADB232C78AA4879DDA3F0C994A9D637532410EE2CE06 SWAP2 ADD PUSH2 0x10BB JUMP JUMPDEST PUSH2 0x246A PUSH2 0x31F3 JUMP JUMPDEST PUSH1 0x4 DUP1 SLOAD PUSH1 0x40 MLOAD PUSH4 0x70A08231 PUSH1 0xE0 SHL DUP2 MSTORE ADDRESS SWAP3 DUP2 ADD SWAP3 SWAP1 SWAP3 MSTORE PUSH1 0x1 PUSH1 0x1 PUSH1 0xA0 SHL SUB AND SWAP1 PUSH4 0x70A08231 SWAP1 PUSH1 0x24 ADD PUSH1 0x20 PUSH1 0x40 MLOAD DUP1 DUP4 SUB DUP2 DUP7 DUP1 EXTCODESIZE ISZERO DUP1 ISZERO PUSH2 0x24AE JUMPI PUSH1 0x0 DUP1 REVERT JUMPDEST POP GAS STATICCALL ISZERO DUP1 ISZERO PUSH2 0x24C2 JUMPI RETURNDATASIZE PUSH1 0x0 DUP1 RETURNDATACOPY RETURNDATASIZE PUSH1 0x0 REVERT JUMPDEST POP POP POP POP PUSH1 0x40 MLOAD RETURNDATASIZE PUSH1 0x1F NOT PUSH1 0x1F DUP3 ADD AND DUP3 ADD DUP1 PUSH1 0x40 MSTORE POP DUP2 ADD SWAP1 PUSH2 0x24E6 SWAP2 SWAP1 PUSH2 0x3A08 JUMP JUMPDEST DUP3 GT ISZERO PUSH2 0x2535 JUMPI PUSH1 0x40 MLOAD PUSH3 0x461BCD PUSH1 0xE5 SHL DUP2 MSTORE PUSH1 0x20 PUSH1 0x4 DUP3 ADD DUP2 SWAP1 MSTORE PUSH1 0x24 DUP3 ADD MSTORE PUSH32 0x4F7065726174696F6E733A204E6F7420656E6F756768204C5020746F6B656E73 PUSH1 0x44 DUP3 ADD MSTORE PUSH1 0x64 ADD PUSH2 0x81C JUMP JUMPDEST PUSH1 0x5 SLOAD PUSH1 0x40 MLOAD PUSH4 0x70A08231 PUSH1 0xE0 SHL DUP2 MSTORE ADDRESS PUSH1 0x4 DUP3 ADD MSTORE PUSH1 0x1 PUSH1 0x1 PUSH1 0xA0 SHL SUB SWAP1 SWAP2 AND SWAP1 PUSH4 0x70A08231 SWAP1 PUSH1 0x24 ADD PUSH1 0x20 PUSH1 0x40 MLOAD DUP1 DUP4 SUB DUP2 DUP7 DUP1 EXTCODESIZE ISZERO DUP1 ISZERO PUSH2 0x2578 JUMPI PUSH1 0x0 DUP1 REVERT JUMPDEST POP GAS STATICCALL ISZERO DUP1 ISZERO PUSH2 0x258C JUMPI RETURNDATASIZE PUSH1 0x0 DUP1 RETURNDATACOPY RETURNDATASIZE PUSH1 0x0 REVERT JUMPDEST POP POP POP POP PUSH1 0x40 MLOAD RETURNDATASIZE PUSH1 0x1F NOT PUSH1 0x1F DUP3 ADD AND DUP3 ADD DUP1 PUSH1 0x40 MSTORE POP DUP2 ADD SWAP1 PUSH2 0x25B0 SWAP2 SWAP1 PUSH2 0x3A08 JUMP JUMPDEST DUP2 GT ISZERO PUSH2 0x260E JUMPI PUSH1 0x40 MLOAD PUSH3 0x461BCD PUSH1 0xE5 SHL DUP2 MSTORE PUSH1 0x20 PUSH1 0x4 DUP3 ADD MSTORE PUSH1 0x26 PUSH1 0x24 DUP3 ADD MSTORE PUSH32 0x4F7065726174696F6E733A204E6F7420656E6F756768206F66666572696E6720 PUSH1 0x44 DUP3 ADD MSTORE PUSH6 0x746F6B656E73 PUSH1 0xD0 SHL PUSH1 0x64 DUP3 ADD MSTORE PUSH1 0x84 ADD PUSH2 0x81C JUMP JUMPDEST DUP2 ISZERO PUSH2 0x262B JUMPI PUSH1 0x4 SLOAD PUSH2 0x262B SWAP1 PUSH1 0x1 PUSH1 0x1 PUSH1 0xA0 SHL SUB AND CALLER DUP5 PUSH2 0x2F89 JUMP JUMPDEST DUP1 ISZERO PUSH2 0x2648 JUMPI PUSH1 0x5 SLOAD PUSH2 0x2648 SWAP1 PUSH1 0x1 PUSH1 0x1 PUSH1 0xA0 SHL SUB AND CALLER DUP4 PUSH2 0x2F89 JUMP JUMPDEST PUSH1 0x40 DUP1 MLOAD DUP4 DUP2 MSTORE PUSH1 0x20 DUP2 ADD DUP4 SWAP1 MSTORE PUSH32 0x94EBB62A252249C867ECB758D386F50A95BE7E8DF9E1C52917C9CF494327DD7D SWAP2 ADD PUSH2 0x10BB JUMP JUMPDEST PUSH1 0x0 PUSH1 0x2 DUP3 LT PUSH2 0x26E4 JUMPI PUSH1 0x40 MLOAD PUSH3 0x461BCD PUSH1 0xE5 SHL DUP2 MSTORE PUSH1 0x20 PUSH1 0x4 DUP3 ADD MSTORE PUSH1 0x2B PUSH1 0x24 DUP3 ADD MSTORE PUSH32 0x436F6D7075746556657374696E675363686564756C6549643A204E6F6E207661 PUSH1 0x44 DUP3 ADD MSTORE PUSH11 0x1B1A59081C1BDBDB081A59 PUSH1 0xAA SHL PUSH1 0x64 DUP3 ADD MSTORE PUSH1 0x84 ADD PUSH2 0x81C JUMP JUMPDEST PUSH1 0x0 PUSH2 0x26F1 DUP5 PUSH1 0x0 PUSH2 0x223D JUMP JUMPDEST PUSH1 0x0 DUP2 DUP2 MSTORE PUSH1 0x26 PUSH1 0x20 SWAP1 DUP2 MSTORE PUSH1 0x40 SWAP2 DUP3 SWAP1 KECCAK256 DUP3 MLOAD PUSH1 0xA0 DUP2 ADD DUP5 MSTORE DUP2 SLOAD PUSH1 0xFF DUP1 DUP3 AND ISZERO ISZERO DUP4 MSTORE PUSH1 0x1 PUSH1 0x1 PUSH1 0xA0 SHL SUB PUSH2 0x100 DUP4 DIV AND SWAP5 DUP4 ADD SWAP5 SWAP1 SWAP5 MSTORE PUSH1 0x1 PUSH1 0xA8 SHL SWAP1 DIV SWAP1 SWAP3 AND SWAP3 DUP3 ADD DUP4 SWAP1 MSTORE PUSH1 0x1 DUP2 ADD SLOAD PUSH1 0x60 DUP4 ADD MSTORE PUSH1 0x2 ADD SLOAD PUSH1 0x80 DUP3 ADD MSTORE SWAP2 SWAP3 POP DUP5 EQ ISZERO PUSH2 0x2760 JUMPI POP SWAP1 POP PUSH2 0x867 JUMP JUMPDEST PUSH2 0x276B DUP6 PUSH1 0x1 PUSH2 0x223D JUMP JUMPDEST SWAP3 POP POP POP PUSH2 0x867 JUMP JUMPDEST PUSH2 0x277C PUSH2 0x31F3 JUMP JUMPDEST PUSH1 0x24 SLOAD PUSH1 0xFF AND ISZERO PUSH2 0x27C4 JUMPI PUSH1 0x40 MLOAD PUSH3 0x461BCD PUSH1 0xE5 SHL DUP2 MSTORE PUSH1 0x20 PUSH1 0x4 DUP3 ADD MSTORE PUSH1 0x12 PUSH1 0x24 DUP3 ADD MSTORE PUSH18 0x1D995CDD1A5B99C81A5CC81C995D9BDAD959 PUSH1 0x72 SHL PUSH1 0x44 DUP3 ADD MSTORE PUSH1 0x64 ADD PUSH2 0x81C JUMP JUMPDEST PUSH1 0x24 DUP1 SLOAD PUSH1 0xFF NOT AND PUSH1 0x1 OR SWAP1 SSTORE PUSH1 0x40 MLOAD PUSH32 0x44825A4B2DF8ACB19CE4E1AFBA9AA850C8B65CDB7942E2078F27D0B0960EFEE6 SWAP1 PUSH1 0x0 SWAP1 LOG1 JUMP JUMPDEST PUSH1 0x0 DUP1 PUSH1 0x0 DUP1 PUSH1 0xB DUP6 PUSH1 0x2 DUP2 LT PUSH2 0x2815 JUMPI PUSH2 0x2815 PUSH2 0x3DA8 JUMP JUMPDEST PUSH1 0xB MUL ADD PUSH1 0x7 ADD SLOAD PUSH1 0xB DUP7 PUSH1 0x2 DUP2 LT PUSH2 0x2830 JUMPI PUSH2 0x2830 PUSH2 0x3DA8 JUMP JUMPDEST PUSH1 0xB MUL ADD PUSH1 0x8 ADD SLOAD PUSH1 0xB DUP8 PUSH1 0x2 DUP2 LT PUSH2 0x284B JUMPI PUSH2 0x284B PUSH2 0x3DA8 JUMP JUMPDEST PUSH1 0xB MUL ADD PUSH1 0x9 ADD SLOAD PUSH1 0xB DUP9 PUSH1 0x2 DUP2 LT PUSH2 0x2866 JUMPI PUSH2 0x2866 PUSH2 0x3DA8 JUMP JUMPDEST PUSH1 0xB MUL ADD PUSH1 0xA ADD SLOAD SWAP4 POP SWAP4 POP SWAP4 POP SWAP4 POP SWAP2 SWAP4 POP SWAP2 SWAP4 JUMP JUMPDEST PUSH1 0x60 PUSH1 0x0 DUP3 PUSH8 0xFFFFFFFFFFFFFFFF DUP2 GT ISZERO PUSH2 0x289A JUMPI PUSH2 0x289A PUSH2 0x3DBE JUMP JUMPDEST PUSH1 0x40 MLOAD SWAP1 DUP1 DUP3 MSTORE DUP1 PUSH1 0x20 MUL PUSH1 0x20 ADD DUP3 ADD PUSH1 0x40 MSTORE DUP1 ISZERO PUSH2 0x28D3 JUMPI DUP2 PUSH1 0x20 ADD JUMPDEST PUSH2 0x28C0 PUSH2 0x37F5 JUMP JUMPDEST DUP2 MSTORE PUSH1 0x20 ADD SWAP1 PUSH1 0x1 SWAP1 SUB SWAP1 DUP2 PUSH2 0x28B8 JUMPI SWAP1 POP JUMPDEST POP SWAP1 POP PUSH1 0x0 JUMPDEST PUSH1 0xFF DUP2 AND DUP5 GT ISZERO PUSH2 0x29C0 JUMPI PUSH1 0x0 DUP1 PUSH1 0x0 DUP1 PUSH1 0xB DUP10 DUP10 DUP8 PUSH1 0xFF AND DUP2 DUP2 LT PUSH2 0x2901 JUMPI PUSH2 0x2901 PUSH2 0x3DA8 JUMP JUMPDEST SWAP1 POP PUSH1 0x20 MUL ADD PUSH1 0x20 DUP2 ADD SWAP1 PUSH2 0x2916 SWAP2 SWAP1 PUSH2 0x3AFC JUMP JUMPDEST PUSH1 0xFF AND PUSH1 0x2 DUP2 LT PUSH2 0x2929 JUMPI PUSH2 0x2929 PUSH2 0x3DA8 JUMP JUMPDEST PUSH1 0xB MUL ADD SLOAD GT ISZERO PUSH2 0x296F JUMPI PUSH2 0x2967 DUP10 DUP10 DUP10 DUP8 PUSH1 0xFF AND DUP2 DUP2 LT PUSH2 0x294D JUMPI PUSH2 0x294D PUSH2 0x3DA8 JUMP JUMPDEST SWAP1 POP PUSH1 0x20 MUL ADD PUSH1 0x20 DUP2 ADD SWAP1 PUSH2 0x2962 SWAP2 SWAP1 PUSH2 0x3AFC JUMP JUMPDEST PUSH2 0x2D5A JUMP JUMPDEST SWAP2 SWAP5 POP SWAP3 POP SWAP1 POP JUMPDEST PUSH1 0x40 MLOAD DUP1 PUSH1 0x60 ADD PUSH1 0x40 MSTORE DUP1 DUP5 DUP2 MSTORE PUSH1 0x20 ADD DUP4 DUP2 MSTORE PUSH1 0x20 ADD DUP3 DUP2 MSTORE POP DUP6 DUP6 PUSH1 0xFF AND DUP2 MLOAD DUP2 LT PUSH2 0x299F JUMPI PUSH2 0x299F PUSH2 0x3DA8 JUMP JUMPDEST PUSH1 0x20 MUL PUSH1 0x20 ADD ADD DUP2 SWAP1 MSTORE POP POP POP POP DUP1 DUP1 PUSH2 0x29B8 SWAP1 PUSH2 0x3D72 JUMP JUMPDEST SWAP2 POP POP PUSH2 0x28D9 JUMP JUMPDEST POP SWAP5 SWAP4 POP POP POP POP JUMP JUMPDEST PUSH2 0x29D1 PUSH2 0x31F3 JUMP JUMPDEST PUSH1 0x0 JUMPDEST DUP2 DUP2 LT ISZERO PUSH2 0xEDC JUMPI PUSH1 0x1 PUSH1 0x2 PUSH1 0x0 DUP6 DUP6 DUP6 DUP2 DUP2 LT PUSH2 0x29F4 JUMPI PUSH2 0x29F4 PUSH2 0x3DA8 JUMP JUMPDEST SWAP1 POP PUSH1 0x20 MUL ADD PUSH1 0x20 DUP2 ADD SWAP1 PUSH2 0x2A09 SWAP2 SWAP1 PUSH2 0x3887 JUMP JUMPDEST PUSH1 0x1 PUSH1 0x1 PUSH1 0xA0 SHL SUB AND DUP2 MSTORE PUSH1 0x20 DUP2 ADD SWAP2 SWAP1 SWAP2 MSTORE PUSH1 0x40 ADD PUSH1 0x0 KECCAK256 DUP1 SLOAD PUSH1 0xFF NOT AND SWAP2 ISZERO ISZERO SWAP2 SWAP1 SWAP2 OR SWAP1 SSTORE DUP3 DUP3 DUP3 DUP2 DUP2 LT PUSH2 0x2A43 JUMPI PUSH2 0x2A43 PUSH2 0x3DA8 JUMP JUMPDEST SWAP1 POP PUSH1 0x20 MUL ADD PUSH1 0x20 DUP2 ADD SWAP1 PUSH2 0x2A58 SWAP2 SWAP1 PUSH2 0x3887 JUMP JUMPDEST PUSH1 0x1 PUSH1 0x1 PUSH1 0xA0 SHL SUB AND PUSH32 0xD1BBA68C128CC3F427E5831B3C6F99F480B6EFA6B9E80C757768F6124158CC3F PUSH1 0x40 MLOAD PUSH1 0x40 MLOAD DUP1 SWAP2 SUB SWAP1 LOG2 DUP1 PUSH2 0x2A97 DUP2 PUSH2 0x3D57 JUMP JUMPDEST SWAP2 POP POP PUSH2 0x29D4 JUMP JUMPDEST PUSH1 0x0 DUP2 DUP2 MSTORE PUSH1 0x26 PUSH1 0x20 MSTORE PUSH1 0x40 DUP2 KECCAK256 SLOAD PUSH1 0xFF AND ISZERO ISZERO PUSH1 0x1 EQ PUSH2 0x2B02 JUMPI PUSH1 0x40 MLOAD PUSH3 0x461BCD PUSH1 0xE5 SHL DUP2 MSTORE PUSH1 0x20 PUSH1 0x4 DUP3 ADD MSTORE PUSH1 0x1D PUSH1 0x24 DUP3 ADD MSTORE PUSH32 0x76657374696E67207363686564756C65206973206E6F74206578697374000000 PUSH1 0x44 DUP3 ADD MSTORE PUSH1 0x64 ADD PUSH2 0x81C JUMP JUMPDEST PUSH1 0x0 DUP3 DUP2 MSTORE PUSH1 0x26 PUSH1 0x20 SWAP1 DUP2 MSTORE PUSH1 0x40 SWAP2 DUP3 SWAP1 KECCAK256 DUP3 MLOAD PUSH1 0xA0 DUP2 ADD DUP5 MSTORE DUP2 SLOAD PUSH1 0xFF DUP1 DUP3 AND ISZERO ISZERO DUP4 MSTORE PUSH1 0x1 PUSH1 0x1 PUSH1 0xA0 SHL SUB PUSH2 0x100 DUP4 DIV AND SWAP5 DUP4 ADD SWAP5 SWAP1 SWAP5 MSTORE PUSH1 0x1 PUSH1 0xA8 SHL SWAP1 DIV SWAP1 SWAP3 AND SWAP3 DUP3 ADD SWAP3 SWAP1 SWAP3 MSTORE PUSH1 0x1 DUP3 ADD SLOAD PUSH1 0x60 DUP3 ADD MSTORE PUSH1 0x2 SWAP1 SWAP2 ADD SLOAD PUSH1 0x80 DUP3 ADD MSTORE PUSH2 0x2B6B DUP2 PUSH2 0x32EB JUMP JUMPDEST SWAP4 SWAP3 POP POP POP JUMP JUMPDEST PUSH2 0x2B7A PUSH2 0x31F3 JUMP JUMPDEST PUSH1 0x1 PUSH1 0x1 PUSH1 0xA0 SHL SUB DUP2 AND PUSH2 0x2BDF JUMPI PUSH1 0x40 MLOAD PUSH3 0x461BCD PUSH1 0xE5 SHL DUP2 MSTORE PUSH1 0x20 PUSH1 0x4 DUP3 ADD MSTORE PUSH1 0x26 PUSH1 0x24 DUP3 ADD MSTORE PUSH32 0x4F776E61626C653A206E6577206F776E657220697320746865207A65726F2061 PUSH1 0x44 DUP3 ADD MSTORE PUSH6 0x646472657373 PUSH1 0xD0 SHL PUSH1 0x64 DUP3 ADD MSTORE PUSH1 0x84 ADD PUSH2 0x81C JUMP JUMPDEST PUSH2 0xE03 DUP2 PUSH2 0x3461 JUMP JUMPDEST PUSH1 0x40 DUP1 MLOAD PUSH1 0xA0 DUP2 ADD DUP3 MSTORE PUSH1 0x0 DUP1 DUP3 MSTORE PUSH1 0x20 DUP3 ADD DUP2 SWAP1 MSTORE SWAP2 DUP2 ADD DUP3 SWAP1 MSTORE PUSH1 0x60 DUP2 ADD DUP3 SWAP1 MSTORE PUSH1 0x80 DUP2 ADD SWAP2 SWAP1 SWAP2 MSTORE PUSH2 0x2B6B PUSH2 0x5BB DUP5 DUP5 PUSH2 0x223D JUMP JUMPDEST PUSH1 0x1 PUSH1 0x1 PUSH1 0xA0 SHL SUB DUP2 AND PUSH1 0x0 SWAP1 DUP2 MSTORE PUSH1 0x28 PUSH1 0x20 MSTORE PUSH1 0x40 DUP2 KECCAK256 SLOAD PUSH2 0x867 SWAP1 DUP4 SWAP1 PUSH2 0x223D JUMP JUMPDEST PUSH1 0x60 PUSH1 0x0 DUP3 PUSH8 0xFFFFFFFFFFFFFFFF DUP2 GT ISZERO PUSH2 0x2C61 JUMPI PUSH2 0x2C61 PUSH2 0x3DBE JUMP JUMPDEST PUSH1 0x40 MLOAD SWAP1 DUP1 DUP3 MSTORE DUP1 PUSH1 0x20 MUL PUSH1 0x20 ADD DUP3 ADD PUSH1 0x40 MSTORE DUP1 ISZERO PUSH2 0x2C8A JUMPI DUP2 PUSH1 0x20 ADD PUSH1 0x20 DUP3 MUL DUP1 CALLDATASIZE DUP4 CALLDATACOPY ADD SWAP1 POP JUMPDEST POP SWAP1 POP PUSH1 0x0 JUMPDEST PUSH1 0xFF DUP2 AND DUP5 GT ISZERO PUSH2 0x29C0 JUMPI PUSH2 0x2CCE DUP7 DUP7 DUP7 DUP5 PUSH1 0xFF AND DUP2 DUP2 LT PUSH2 0x2CB4 JUMPI PUSH2 0x2CB4 PUSH2 0x3DA8 JUMP JUMPDEST SWAP1 POP PUSH1 0x20 MUL ADD PUSH1 0x20 DUP2 ADD SWAP1 PUSH2 0x2CC9 SWAP2 SWAP1 PUSH2 0x3AFC JUMP JUMPDEST PUSH2 0x34F1 JUMP JUMPDEST DUP3 DUP3 PUSH1 0xFF AND DUP2 MLOAD DUP2 LT PUSH2 0x2CE3 JUMPI PUSH2 0x2CE3 PUSH2 0x3DA8 JUMP JUMPDEST PUSH1 0x20 SWAP1 DUP2 MUL SWAP2 SWAP1 SWAP2 ADD ADD MSTORE DUP1 PUSH2 0x2CF8 DUP2 PUSH2 0x3D72 JUMP JUMPDEST SWAP2 POP POP PUSH2 0x2C90 JUMP JUMPDEST PUSH1 0x2 PUSH1 0x0 SLOAD EQ ISZERO PUSH2 0x2D53 JUMPI PUSH1 0x40 MLOAD PUSH3 0x461BCD PUSH1 0xE5 SHL DUP2 MSTORE PUSH1 0x20 PUSH1 0x4 DUP3 ADD MSTORE PUSH1 0x1F PUSH1 0x24 DUP3 ADD MSTORE PUSH32 0x5265656E7472616E637947756172643A207265656E7472616E742063616C6C00 PUSH1 0x44 DUP3 ADD MSTORE PUSH1 0x64 ADD PUSH2 0x81C JUMP JUMPDEST PUSH1 0x2 PUSH1 0x0 SSTORE JUMP JUMPDEST PUSH1 0x0 DUP1 PUSH1 0x0 DUP1 PUSH1 0x0 DUP1 PUSH1 0xB DUP8 PUSH1 0xFF AND PUSH1 0x2 DUP2 LT PUSH2 0x2D79 JUMPI PUSH2 0x2D79 PUSH2 0x3DA8 JUMP JUMPDEST PUSH1 0xB MUL ADD PUSH1 0x0 ADD SLOAD PUSH1 0xB DUP9 PUSH1 0xFF AND PUSH1 0x2 DUP2 LT PUSH2 0x2D97 JUMPI PUSH2 0x2D97 PUSH2 0x3DA8 JUMP JUMPDEST PUSH1 0xB MUL ADD PUSH1 0x4 ADD SLOAD GT ISZERO PUSH2 0x2EDF JUMPI PUSH1 0x0 PUSH2 0x2DB1 DUP10 DUP10 PUSH2 0x34F1 JUMP JUMPDEST SWAP1 POP PUSH2 0x2DEC PUSH5 0xE8D4A51000 PUSH2 0xCCB DUP4 PUSH1 0xB DUP13 PUSH1 0xFF AND PUSH1 0x2 DUP2 LT PUSH2 0x2DD6 JUMPI PUSH2 0x2DD6 PUSH2 0x3DA8 JUMP JUMPDEST PUSH1 0xB MUL ADD PUSH1 0x1 ADD SLOAD PUSH2 0x2F71 SWAP1 SWAP2 SWAP1 PUSH4 0xFFFFFFFF AND JUMP JUMPDEST SWAP4 POP PUSH1 0x0 PUSH2 0x2E1E PUSH5 0xE8D4A51000 PUSH2 0xCCB DUP5 PUSH1 0xB DUP14 PUSH1 0xFF AND PUSH1 0x2 DUP2 LT PUSH2 0x2E13 JUMPI PUSH2 0x2E13 PUSH2 0x3DA8 JUMP JUMPDEST PUSH1 0xB MUL ADD SLOAD SWAP1 PUSH2 0x2F71 JUMP JUMPDEST PUSH1 0x1 PUSH1 0x1 PUSH1 0xA0 SHL SUB DUP12 AND PUSH1 0x0 SWAP1 DUP2 MSTORE PUSH1 0x21 PUSH1 0x20 SWAP1 DUP2 MSTORE PUSH1 0x40 DUP1 DUP4 KECCAK256 PUSH1 0xFF DUP15 AND DUP5 MSTORE SWAP1 SWAP2 MSTORE SWAP1 KECCAK256 SLOAD SWAP1 SWAP2 POP PUSH2 0x2E52 SWAP1 DUP3 PUSH2 0x3455 JUMP JUMPDEST SWAP4 POP PUSH1 0xB DUP10 PUSH1 0xFF AND PUSH1 0x2 DUP2 LT PUSH2 0x2E6A JUMPI PUSH2 0x2E6A PUSH2 0x3DA8 JUMP JUMPDEST PUSH1 0xB MUL ADD PUSH1 0x3 ADD SLOAD PUSH1 0xFF AND ISZERO PUSH2 0x2ED8 JUMPI PUSH1 0x0 PUSH2 0x2EB3 PUSH1 0xB DUP12 PUSH1 0xFF AND PUSH1 0x2 DUP2 LT PUSH2 0x2E95 JUMPI PUSH2 0x2E95 PUSH2 0x3DA8 JUMP JUMPDEST PUSH1 0xB MUL ADD PUSH1 0x4 ADD SLOAD PUSH1 0xB DUP13 PUSH1 0xFF AND PUSH1 0x2 DUP2 LT PUSH2 0xF8F JUMPI PUSH2 0xF8F PUSH2 0x3DA8 JUMP JUMPDEST SWAP1 POP PUSH2 0x2EC8 PUSH5 0xE8D4A51000 PUSH2 0xCCB DUP8 DUP5 PUSH2 0x2F71 JUMP JUMPDEST SWAP4 POP PUSH2 0x2ED4 DUP6 DUP6 PUSH2 0x3455 JUMP JUMPDEST SWAP5 POP POP JUMPDEST POP POP PUSH2 0x2F57 JUMP JUMPDEST POP PUSH1 0x0 SWAP1 POP DUP1 PUSH2 0x2F54 PUSH1 0xB PUSH1 0xFF DUP10 AND PUSH1 0x2 DUP2 LT PUSH2 0x2EFE JUMPI PUSH2 0x2EFE PUSH2 0x3DA8 JUMP JUMPDEST PUSH1 0xB MUL ADD PUSH1 0x0 ADD SLOAD PUSH2 0xCCB PUSH1 0xB DUP11 PUSH1 0xFF AND PUSH1 0x2 DUP2 LT PUSH2 0x2F1F JUMPI PUSH2 0x2F1F PUSH2 0x3DA8 JUMP JUMPDEST PUSH1 0xB MUL ADD PUSH1 0x1 ADD SLOAD PUSH1 0x1 PUSH1 0x1 PUSH1 0xA0 SHL SUB DUP13 AND PUSH1 0x0 SWAP1 DUP2 MSTORE PUSH1 0x21 PUSH1 0x20 SWAP1 DUP2 MSTORE PUSH1 0x40 DUP1 DUP4 KECCAK256 PUSH1 0xFF DUP16 AND DUP5 MSTORE SWAP1 SWAP2 MSTORE SWAP1 KECCAK256 SLOAD SWAP1 PUSH2 0x2F71 JUMP JUMPDEST SWAP3 POP JUMPDEST SWAP2 SWAP5 POP SWAP3 POP SWAP1 POP SWAP3 POP SWAP3 POP SWAP3 JUMP JUMPDEST PUSH1 0x0 PUSH2 0x2B6B DUP3 DUP5 PUSH2 0x3CBB JUMP JUMPDEST PUSH1 0x0 PUSH2 0x2B6B DUP3 DUP5 PUSH2 0x3CF5 JUMP JUMPDEST PUSH1 0x0 PUSH2 0x2B6B DUP3 DUP5 PUSH2 0x3CD3 JUMP JUMPDEST PUSH1 0x40 MLOAD PUSH1 0x1 PUSH1 0x1 PUSH1 0xA0 SHL SUB DUP4 AND PUSH1 0x24 DUP3 ADD MSTORE PUSH1 0x44 DUP2 ADD DUP3 SWAP1 MSTORE PUSH2 0xEDC SWAP1 DUP5 SWAP1 PUSH4 0xA9059CBB PUSH1 0xE0 SHL SWAP1 PUSH1 0x64 ADD JUMPDEST PUSH1 0x40 DUP1 MLOAD PUSH1 0x1F NOT DUP2 DUP5 SUB ADD DUP2 MSTORE SWAP2 SWAP1 MSTORE PUSH1 0x20 DUP2 ADD DUP1 MLOAD PUSH1 0x1 PUSH1 0x1 PUSH1 0xE0 SHL SUB AND PUSH1 0x1 PUSH1 0x1 PUSH1 0xE0 SHL SUB NOT SWAP1 SWAP4 AND SWAP3 SWAP1 SWAP3 OR SWAP1 SWAP2 MSTORE PUSH2 0x3596 JUMP JUMPDEST DUP1 PUSH2 0x2FF5 PUSH2 0x19B5 JUMP JUMPDEST LT ISZERO PUSH2 0x3062 JUMPI PUSH1 0x40 MLOAD PUSH3 0x461BCD PUSH1 0xE5 SHL DUP2 MSTORE PUSH1 0x20 PUSH1 0x4 DUP3 ADD MSTORE PUSH1 0x36 PUSH1 0x24 DUP3 ADD MSTORE PUSH32 0x63616E206E6F74206372656174652076657374696E67207363686564756C6520 PUSH1 0x44 DUP3 ADD MSTORE PUSH22 0x776974682073756666696369656E7420746F6B656E73 PUSH1 0x50 SHL PUSH1 0x64 DUP3 ADD MSTORE PUSH1 0x84 ADD PUSH2 0x81C JUMP JUMPDEST PUSH1 0x0 PUSH2 0x306D DUP5 PUSH2 0x2C20 JUMP JUMPDEST PUSH1 0x0 DUP2 DUP2 MSTORE PUSH1 0x26 PUSH1 0x20 MSTORE PUSH1 0x40 SWAP1 KECCAK256 SLOAD SWAP1 SWAP2 POP PUSH2 0x100 SWAP1 DIV PUSH1 0x1 PUSH1 0x1 PUSH1 0xA0 SHL SUB AND ISZERO PUSH2 0x30E4 JUMPI PUSH1 0x40 MLOAD PUSH3 0x461BCD PUSH1 0xE5 SHL DUP2 MSTORE PUSH1 0x20 PUSH1 0x4 DUP3 ADD MSTORE PUSH1 0x21 PUSH1 0x24 DUP3 ADD MSTORE PUSH32 0x76657374696E675363686564756C654964206973206265656E20637265617465 PUSH1 0x44 DUP3 ADD MSTORE PUSH1 0x19 PUSH1 0xFA SHL PUSH1 0x64 DUP3 ADD MSTORE PUSH1 0x84 ADD PUSH2 0x81C JUMP JUMPDEST PUSH1 0x40 DUP1 MLOAD PUSH1 0xA0 DUP2 ADD DUP3 MSTORE PUSH1 0x1 DUP1 DUP3 MSTORE PUSH1 0x1 PUSH1 0x1 PUSH1 0xA0 SHL SUB DUP8 DUP2 AND PUSH1 0x20 DUP1 DUP6 ADD SWAP2 DUP3 MSTORE PUSH1 0xFF DUP10 DUP2 AND DUP7 DUP9 ADD SWAP1 DUP2 MSTORE PUSH1 0x60 DUP8 ADD DUP11 DUP2 MSTORE PUSH1 0x0 PUSH1 0x80 DUP10 ADD DUP2 DUP2 MSTORE DUP12 DUP3 MSTORE PUSH1 0x26 SWAP1 SWAP6 MSTORE SWAP9 SWAP1 SWAP9 KECCAK256 SWAP7 MLOAD DUP8 SLOAD SWAP5 MLOAD SWAP2 MLOAD PUSH1 0x1 PUSH1 0x1 PUSH1 0xA8 SHL SUB NOT SWAP1 SWAP6 AND SWAP1 ISZERO ISZERO PUSH2 0x100 PUSH1 0x1 PUSH1 0xA8 SHL SUB NOT AND OR PUSH2 0x100 SWAP2 SWAP1 SWAP6 AND MUL SWAP4 SWAP1 SWAP4 OR PUSH1 0xFF PUSH1 0xA8 SHL NOT AND PUSH1 0x1 PUSH1 0xA8 SHL SWAP3 SWAP1 SWAP4 AND SWAP2 SWAP1 SWAP2 MUL SWAP2 SWAP1 SWAP2 OR DUP4 SSTORE SWAP3 MLOAD SWAP1 DUP3 ADD SSTORE SWAP1 MLOAD PUSH1 0x2 SWAP1 SWAP2 ADD SSTORE PUSH1 0x27 SLOAD PUSH2 0x3191 SWAP1 DUP4 PUSH2 0x2F65 JUMP JUMPDEST PUSH1 0x27 SSTORE PUSH1 0x25 DUP1 SLOAD PUSH1 0x1 DUP2 ADD SWAP1 SWAP2 SSTORE PUSH32 0x401968FF42A154441DA5F6C4C935AC46B8671F0E062BAAA62A7545BA53BB6E4C ADD DUP2 SWAP1 SSTORE PUSH1 0x1 PUSH1 0x1 PUSH1 0xA0 SHL SUB DUP5 AND PUSH1 0x0 SWAP1 DUP2 MSTORE PUSH1 0x28 PUSH1 0x20 MSTORE PUSH1 0x40 DUP2 KECCAK256 DUP1 SLOAD SWAP2 PUSH2 0x31E8 DUP4 PUSH2 0x3D57 JUMP JUMPDEST SWAP2 SWAP1 POP SSTORE POP POP POP POP POP JUMP JUMPDEST PUSH1 0x1 SLOAD PUSH1 0x1 PUSH1 0x1 PUSH1 0xA0 SHL SUB AND CALLER EQ PUSH2 0x19B3 JUMPI PUSH1 0x40 MLOAD PUSH3 0x461BCD PUSH1 0xE5 SHL DUP2 MSTORE PUSH1 0x20 PUSH1 0x4 DUP3 ADD DUP2 SWAP1 MSTORE PUSH1 0x24 DUP3 ADD MSTORE PUSH32 0x4F776E61626C653A2063616C6C6572206973206E6F7420746865206F776E6572 PUSH1 0x44 DUP3 ADD MSTORE PUSH1 0x64 ADD PUSH2 0x81C JUMP JUMPDEST PUSH1 0x0 DUP1 PUSH2 0x325A DUP5 DUP5 PUSH2 0x2F7D JUMP JUMPDEST SWAP1 POP PUSH2 0x5DC DUP2 LT PUSH2 0x3272 JUMPI PUSH4 0xEE6B280 SWAP2 POP POP PUSH2 0x867 JUMP JUMPDEST PUSH2 0x3E8 DUP2 LT PUSH2 0x3288 JUMPI PUSH4 0x1DCD6500 SWAP2 POP POP PUSH2 0x867 JUMP JUMPDEST PUSH2 0x1F4 DUP2 LT PUSH2 0x329E JUMPI PUSH4 0x3B9ACA00 SWAP2 POP POP PUSH2 0x867 JUMP JUMPDEST PUSH1 0xFA DUP2 LT PUSH2 0x32B3 JUMPI PUSH4 0x4A817C80 SWAP2 POP POP PUSH2 0x867 JUMP JUMPDEST PUSH1 0x64 DUP2 LT PUSH2 0x32C8 JUMPI PUSH4 0x59682F00 SWAP2 POP POP PUSH2 0x867 JUMP JUMPDEST PUSH1 0x32 DUP2 LT PUSH2 0x32DD JUMPI PUSH4 0x9502F900 SWAP2 POP POP PUSH2 0x867 JUMP JUMPDEST PUSH5 0x12A05F200 SWAP2 POP POP PUSH2 0x867 JUMP JUMPDEST PUSH1 0x0 DUP1 TIMESTAMP SWAP1 POP PUSH1 0xB DUP4 PUSH1 0x40 ADD MLOAD PUSH1 0xFF AND PUSH1 0x2 DUP2 LT PUSH2 0x330B JUMPI PUSH2 0x330B PUSH2 0x3DA8 JUMP JUMPDEST PUSH1 0xB MUL ADD PUSH1 0x8 ADD SLOAD PUSH1 0x23 SLOAD PUSH2 0x3320 SWAP2 SWAP1 PUSH2 0x3CBB JUMP JUMPDEST DUP2 LT ISZERO PUSH2 0x3330 JUMPI POP PUSH1 0x0 SWAP3 SWAP2 POP POP JUMP JUMPDEST PUSH2 0x3366 PUSH1 0xB DUP5 PUSH1 0x40 ADD MLOAD PUSH1 0xFF AND PUSH1 0x2 DUP2 LT PUSH2 0x334D JUMPI PUSH2 0x334D PUSH2 0x3DA8 JUMP JUMPDEST PUSH1 0xB MUL ADD PUSH1 0x9 ADD SLOAD PUSH1 0x23 SLOAD PUSH2 0x2F65 SWAP1 SWAP2 SWAP1 PUSH4 0xFFFFFFFF AND JUMP JUMPDEST DUP2 LT ISZERO DUP1 PUSH2 0x3376 JUMPI POP PUSH1 0x24 SLOAD PUSH1 0xFF AND JUMPDEST ISZERO PUSH2 0x338E JUMPI PUSH1 0x80 DUP4 ADD MLOAD PUSH1 0x60 DUP5 ADD MLOAD PUSH2 0x2B6B SWAP2 PUSH2 0x3455 JUMP JUMPDEST PUSH1 0x0 PUSH2 0x33A5 PUSH1 0x23 SLOAD DUP4 PUSH2 0x3455 SWAP1 SWAP2 SWAP1 PUSH4 0xFFFFFFFF AND JUMP JUMPDEST SWAP1 POP PUSH1 0x0 PUSH1 0xB DUP6 PUSH1 0x40 ADD MLOAD PUSH1 0xFF AND PUSH1 0x2 DUP2 LT PUSH2 0x33C3 JUMPI PUSH2 0x33C3 PUSH2 0x3DA8 JUMP JUMPDEST PUSH1 0xB MUL ADD PUSH1 0xA ADD SLOAD SWAP1 POP PUSH1 0x0 PUSH2 0x33E2 DUP3 DUP5 PUSH2 0x2F7D SWAP1 SWAP2 SWAP1 PUSH4 0xFFFFFFFF AND JUMP JUMPDEST SWAP1 POP PUSH1 0x0 PUSH2 0x33F0 DUP3 DUP5 PUSH2 0x2F71 JUMP JUMPDEST SWAP1 POP PUSH1 0x0 PUSH2 0x3430 PUSH1 0xB DUP10 PUSH1 0x40 ADD MLOAD PUSH1 0xFF AND PUSH1 0x2 DUP2 LT PUSH2 0x3411 JUMPI PUSH2 0x3411 PUSH2 0x3DA8 JUMP JUMPDEST PUSH1 0xB MUL ADD PUSH1 0x9 ADD SLOAD PUSH2 0xCCB DUP5 DUP12 PUSH1 0x60 ADD MLOAD PUSH2 0x2F71 SWAP1 SWAP2 SWAP1 PUSH4 0xFFFFFFFF AND JUMP JUMPDEST SWAP1 POP PUSH2 0x3449 DUP9 PUSH1 0x80 ADD MLOAD DUP3 PUSH2 0x3455 SWAP1 SWAP2 SWAP1 PUSH4 0xFFFFFFFF AND JUMP JUMPDEST SWAP9 SWAP8 POP POP POP POP POP POP POP POP JUMP JUMPDEST PUSH1 0x0 PUSH2 0x2B6B DUP3 DUP5 PUSH2 0x3D14 JUMP JUMPDEST PUSH1 0x1 DUP1 SLOAD PUSH1 0x1 PUSH1 0x1 PUSH1 0xA0 SHL SUB DUP4 DUP2 AND PUSH1 0x1 PUSH1 0x1 PUSH1 0xA0 SHL SUB NOT DUP4 AND DUP2 OR SWAP1 SWAP4 SSTORE PUSH1 0x40 MLOAD SWAP2 AND SWAP2 SWAP1 DUP3 SWAP1 PUSH32 0x8BE0079C531659141344CD1FD0A4F28419497F9722A3DAAFE3B4186F6B6457E0 SWAP1 PUSH1 0x0 SWAP1 LOG3 POP POP JUMP JUMPDEST PUSH1 0x40 MLOAD PUSH1 0x1 PUSH1 0x1 PUSH1 0xA0 SHL SUB DUP1 DUP6 AND PUSH1 0x24 DUP4 ADD MSTORE DUP4 AND PUSH1 0x44 DUP3 ADD MSTORE PUSH1 0x64 DUP2 ADD DUP3 SWAP1 MSTORE PUSH2 0x34EB SWAP1 DUP6 SWAP1 PUSH4 0x23B872DD PUSH1 0xE0 SHL SWAP1 PUSH1 0x84 ADD PUSH2 0x2FB5 JUMP JUMPDEST POP POP POP POP JUMP JUMPDEST PUSH1 0x0 DUP1 PUSH1 0xB DUP4 PUSH1 0xFF AND PUSH1 0x2 DUP2 LT PUSH2 0x350A JUMPI PUSH2 0x350A PUSH2 0x3DA8 JUMP JUMPDEST PUSH1 0xB MUL ADD PUSH1 0x4 ADD SLOAD GT ISZERO PUSH2 0x358E JUMPI PUSH2 0x3587 PUSH2 0x354E PUSH3 0xF4240 PUSH1 0xB DUP6 PUSH1 0xFF AND PUSH1 0x2 DUP2 LT PUSH2 0x3538 JUMPI PUSH2 0x3538 PUSH2 0x3DA8 JUMP JUMPDEST PUSH1 0xB MUL ADD PUSH1 0x4 ADD SLOAD PUSH2 0x2F71 SWAP1 SWAP2 SWAP1 PUSH4 0xFFFFFFFF AND JUMP JUMPDEST PUSH1 0x1 PUSH1 0x1 PUSH1 0xA0 SHL SUB DUP6 AND PUSH1 0x0 SWAP1 DUP2 MSTORE PUSH1 0x21 PUSH1 0x20 SWAP1 DUP2 MSTORE PUSH1 0x40 DUP1 DUP4 KECCAK256 PUSH1 0xFF DUP9 AND DUP5 MSTORE SWAP1 SWAP2 MSTORE SWAP1 KECCAK256 SLOAD PUSH2 0xCCB SWAP1 PUSH8 0xDE0B6B3A7640000 PUSH2 0x2F71 JUMP JUMPDEST SWAP1 POP PUSH2 0x867 JUMP JUMPDEST POP PUSH1 0x0 PUSH2 0x867 JUMP JUMPDEST PUSH1 0x0 PUSH2 0x35EB DUP3 PUSH1 0x40 MLOAD DUP1 PUSH1 0x40 ADD PUSH1 0x40 MSTORE DUP1 PUSH1 0x20 DUP2 MSTORE PUSH1 0x20 ADD PUSH32 0x5361666545524332303A206C6F772D6C6576656C2063616C6C206661696C6564 DUP2 MSTORE POP DUP6 PUSH1 0x1 PUSH1 0x1 PUSH1 0xA0 SHL SUB AND PUSH2 0x3668 SWAP1 SWAP3 SWAP2 SWAP1 PUSH4 0xFFFFFFFF AND JUMP JUMPDEST DUP1 MLOAD SWAP1 SWAP2 POP ISZERO PUSH2 0xEDC JUMPI DUP1 DUP1 PUSH1 0x20 ADD SWAP1 MLOAD DUP2 ADD SWAP1 PUSH2 0x3609 SWAP2 SWAP1 PUSH2 0x39D2 JUMP JUMPDEST PUSH2 0xEDC JUMPI PUSH1 0x40 MLOAD PUSH3 0x461BCD PUSH1 0xE5 SHL DUP2 MSTORE PUSH1 0x20 PUSH1 0x4 DUP3 ADD MSTORE PUSH1 0x2A PUSH1 0x24 DUP3 ADD MSTORE PUSH32 0x5361666545524332303A204552433230206F7065726174696F6E20646964206E PUSH1 0x44 DUP3 ADD MSTORE PUSH10 0x1BDD081CDD58D8D95959 PUSH1 0xB2 SHL PUSH1 0x64 DUP3 ADD MSTORE PUSH1 0x84 ADD PUSH2 0x81C JUMP JUMPDEST PUSH1 0x60 PUSH2 0x3677 DUP5 DUP5 PUSH1 0x0 DUP6 PUSH2 0x367F JUMP JUMPDEST SWAP5 SWAP4 POP POP POP POP JUMP JUMPDEST PUSH1 0x60 DUP3 SELFBALANCE LT ISZERO PUSH2 0x36E0 JUMPI PUSH1 0x40 MLOAD PUSH3 0x461BCD PUSH1 0xE5 SHL DUP2 MSTORE PUSH1 0x20 PUSH1 0x4 DUP3 ADD MSTORE PUSH1 0x26 PUSH1 0x24 DUP3 ADD MSTORE PUSH32 0x416464726573733A20696E73756666696369656E742062616C616E636520666F PUSH1 0x44 DUP3 ADD MSTORE PUSH6 0x1C8818D85B1B PUSH1 0xD2 SHL PUSH1 0x64 DUP3 ADD MSTORE PUSH1 0x84 ADD PUSH2 0x81C JUMP JUMPDEST PUSH1 0x0 DUP1 DUP7 PUSH1 0x1 PUSH1 0x1 PUSH1 0xA0 SHL SUB AND DUP6 DUP8 PUSH1 0x40 MLOAD PUSH2 0x36FC SWAP2 SWAP1 PUSH2 0x3B52 JUMP JUMPDEST PUSH1 0x0 PUSH1 0x40 MLOAD DUP1 DUP4 SUB DUP2 DUP6 DUP8 GAS CALL SWAP3 POP POP POP RETURNDATASIZE DUP1 PUSH1 0x0 DUP2 EQ PUSH2 0x3739 JUMPI PUSH1 0x40 MLOAD SWAP2 POP PUSH1 0x1F NOT PUSH1 0x3F RETURNDATASIZE ADD AND DUP3 ADD PUSH1 0x40 MSTORE RETURNDATASIZE DUP3 MSTORE RETURNDATASIZE PUSH1 0x0 PUSH1 0x20 DUP5 ADD RETURNDATACOPY PUSH2 0x373E JUMP JUMPDEST PUSH1 0x60 SWAP2 POP JUMPDEST POP SWAP2 POP SWAP2 POP PUSH2 0x374F DUP8 DUP4 DUP4 DUP8 PUSH2 0x375A JUMP JUMPDEST SWAP8 SWAP7 POP POP POP POP POP POP POP JUMP JUMPDEST PUSH1 0x60 DUP4 ISZERO PUSH2 0x37C6 JUMPI DUP3 MLOAD PUSH2 0x37BF JUMPI PUSH1 0x1 PUSH1 0x1 PUSH1 0xA0 SHL SUB DUP6 AND EXTCODESIZE PUSH2 0x37BF JUMPI PUSH1 0x40 MLOAD PUSH3 0x461BCD PUSH1 0xE5 SHL DUP2 MSTORE PUSH1 0x20 PUSH1 0x4 DUP3 ADD MSTORE PUSH1 0x1D PUSH1 0x24 DUP3 ADD MSTORE PUSH32 0x416464726573733A2063616C6C20746F206E6F6E2D636F6E7472616374000000 PUSH1 0x44 DUP3 ADD MSTORE PUSH1 0x64 ADD PUSH2 0x81C JUMP JUMPDEST POP DUP2 PUSH2 0x3677 JUMP JUMPDEST PUSH2 0x3677 DUP4 DUP4 DUP2 MLOAD ISZERO PUSH2 0x37DB JUMPI DUP2 MLOAD DUP1 DUP4 PUSH1 0x20 ADD REVERT JUMPDEST DUP1 PUSH1 0x40 MLOAD PUSH3 0x461BCD PUSH1 0xE5 SHL DUP2 MSTORE PUSH1 0x4 ADD PUSH2 0x81C SWAP2 SWAP1 PUSH2 0x3C44 JUMP JUMPDEST PUSH1 0x40 MLOAD DUP1 PUSH1 0x60 ADD PUSH1 0x40 MSTORE DUP1 PUSH1 0x3 SWAP1 PUSH1 0x20 DUP3 MUL DUP1 CALLDATASIZE DUP4 CALLDATACOPY POP SWAP2 SWAP3 SWAP2 POP POP JUMP JUMPDEST DUP1 CALLDATALOAD PUSH1 0x1 PUSH1 0x1 PUSH1 0xA0 SHL SUB DUP2 AND DUP2 EQ PUSH2 0xF99 JUMPI PUSH1 0x0 DUP1 REVERT JUMPDEST PUSH1 0x0 DUP1 DUP4 PUSH1 0x1F DUP5 ADD SLT PUSH2 0x383C JUMPI PUSH1 0x0 DUP1 REVERT JUMPDEST POP DUP2 CALLDATALOAD PUSH8 0xFFFFFFFFFFFFFFFF DUP2 GT ISZERO PUSH2 0x3854 JUMPI PUSH1 0x0 DUP1 REVERT JUMPDEST PUSH1 0x20 DUP4 ADD SWAP2 POP DUP4 PUSH1 0x20 DUP3 PUSH1 0x5 SHL DUP6 ADD ADD GT ISZERO PUSH2 0x386F JUMPI PUSH1 0x0 DUP1 REVERT JUMPDEST SWAP3 POP SWAP3 SWAP1 POP JUMP JUMPDEST DUP1 CALLDATALOAD PUSH1 0xFF DUP2 AND DUP2 EQ PUSH2 0xF99 JUMPI PUSH1 0x0 DUP1 REVERT JUMPDEST PUSH1 0x0 PUSH1 0x20 DUP3 DUP5 SUB SLT ISZERO PUSH2 0x3899 JUMPI PUSH1 0x0 DUP1 REVERT JUMPDEST PUSH2 0x2B6B DUP3 PUSH2 0x3813 JUMP JUMPDEST PUSH1 0x0 DUP1 PUSH1 0x0 DUP1 PUSH1 0x0 DUP1 PUSH1 0x0 PUSH1 0xE0 DUP9 DUP11 SUB SLT ISZERO PUSH2 0x38BD JUMPI PUSH1 0x0 DUP1 REVERT JUMPDEST PUSH2 0x38C6 DUP9 PUSH2 0x3813 JUMP JUMPDEST SWAP7 POP PUSH2 0x38D4 PUSH1 0x20 DUP10 ADD PUSH2 0x3813 JUMP JUMPDEST SWAP6 POP PUSH1 0x40 DUP9 ADD CALLDATALOAD SWAP5 POP PUSH1 0x60 DUP9 ADD CALLDATALOAD SWAP4 POP PUSH1 0x80 DUP9 ADD CALLDATALOAD SWAP3 POP PUSH2 0x38F7 PUSH1 0xA0 DUP10 ADD PUSH2 0x3813 JUMP JUMPDEST SWAP2 POP PUSH2 0x3905 PUSH1 0xC0 DUP10 ADD PUSH2 0x3813 JUMP JUMPDEST SWAP1 POP SWAP3 SWAP6 SWAP9 SWAP2 SWAP5 SWAP8 POP SWAP3 SWAP6 POP JUMP JUMPDEST PUSH1 0x0 DUP1 PUSH1 0x0 PUSH1 0x40 DUP5 DUP7 SUB SLT ISZERO PUSH2 0x3928 JUMPI PUSH1 0x0 DUP1 REVERT JUMPDEST PUSH2 0x3931 DUP5 PUSH2 0x3813 JUMP JUMPDEST SWAP3 POP PUSH1 0x20 DUP5 ADD CALLDATALOAD PUSH8 0xFFFFFFFFFFFFFFFF DUP2 GT ISZERO PUSH2 0x394D JUMPI PUSH1 0x0 DUP1 REVERT JUMPDEST PUSH2 0x3959 DUP7 DUP3 DUP8 ADD PUSH2 0x382A JUMP JUMPDEST SWAP5 SWAP8 SWAP1 SWAP7 POP SWAP4 SWAP5 POP POP POP POP JUMP JUMPDEST PUSH1 0x0 DUP1 PUSH1 0x40 DUP4 DUP6 SUB SLT ISZERO PUSH2 0x3979 JUMPI PUSH1 0x0 DUP1 REVERT JUMPDEST PUSH2 0x3982 DUP4 PUSH2 0x3813 JUMP JUMPDEST SWAP5 PUSH1 0x20 SWAP4 SWAP1 SWAP4 ADD CALLDATALOAD SWAP4 POP POP POP JUMP JUMPDEST PUSH1 0x0 DUP1 PUSH1 0x20 DUP4 DUP6 SUB SLT ISZERO PUSH2 0x39A3 JUMPI PUSH1 0x0 DUP1 REVERT JUMPDEST DUP3 CALLDATALOAD PUSH8 0xFFFFFFFFFFFFFFFF DUP2 GT ISZERO PUSH2 0x39BA JUMPI PUSH1 0x0 DUP1 REVERT JUMPDEST PUSH2 0x39C6 DUP6 DUP3 DUP7 ADD PUSH2 0x382A JUMP JUMPDEST SWAP1 SWAP7 SWAP1 SWAP6 POP SWAP4 POP POP POP POP JUMP JUMPDEST PUSH1 0x0 PUSH1 0x20 DUP3 DUP5 SUB SLT ISZERO PUSH2 0x39E4 JUMPI PUSH1 0x0 DUP1 REVERT JUMPDEST DUP2 MLOAD PUSH2 0x2B6B DUP2 PUSH2 0x3DD4 JUMP JUMPDEST PUSH1 0x0 PUSH1 0x20 DUP3 DUP5 SUB SLT ISZERO PUSH2 0x3A01 JUMPI PUSH1 0x0 DUP1 REVERT JUMPDEST POP CALLDATALOAD SWAP2 SWAP1 POP JUMP JUMPDEST PUSH1 0x0 PUSH1 0x20 DUP3 DUP5 SUB SLT ISZERO PUSH2 0x3A1A JUMPI PUSH1 0x0 DUP1 REVERT JUMPDEST POP MLOAD SWAP2 SWAP1 POP JUMP JUMPDEST PUSH1 0x0 DUP1 PUSH1 0x40 DUP4 DUP6 SUB SLT ISZERO PUSH2 0x3A34 JUMPI PUSH1 0x0 DUP1 REVERT JUMPDEST POP POP DUP1 CALLDATALOAD SWAP3 PUSH1 0x20 SWAP1 SWAP2 ADD CALLDATALOAD SWAP2 POP JUMP JUMPDEST PUSH1 0x0 DUP1 PUSH1 0x0 DUP1 PUSH1 0x0 DUP1 PUSH1 0x0 DUP1 PUSH1 0x0 DUP1 PUSH2 0x140 DUP12 DUP14 SUB SLT ISZERO PUSH2 0x3A63 JUMPI PUSH1 0x0 DUP1 REVERT JUMPDEST DUP11 CALLDATALOAD SWAP10 POP PUSH1 0x20 DUP12 ADD CALLDATALOAD SWAP9 POP PUSH1 0x40 DUP12 ADD CALLDATALOAD SWAP8 POP PUSH1 0x60 DUP12 ADD CALLDATALOAD PUSH2 0x3A83 DUP2 PUSH2 0x3DD4 JUMP JUMPDEST SWAP7 POP PUSH2 0x3A91 PUSH1 0x80 DUP13 ADD PUSH2 0x3876 JUMP JUMPDEST SWAP6 POP PUSH1 0xA0 DUP12 ADD CALLDATALOAD PUSH2 0x3AA1 DUP2 PUSH2 0x3DD4 JUMP JUMPDEST SWAP10 SWAP13 SWAP9 SWAP12 POP SWAP7 SWAP10 SWAP6 SWAP9 SWAP5 SWAP8 SWAP5 SWAP7 POP POP POP POP PUSH1 0xC0 DUP4 ADD CALLDATALOAD SWAP3 PUSH1 0xE0 DUP2 ADD CALLDATALOAD SWAP3 PUSH2 0x100 DUP3 ADD CALLDATALOAD SWAP3 POP PUSH2 0x120 SWAP1 SWAP2 ADD CALLDATALOAD SWAP1 JUMP JUMPDEST PUSH1 0x0 DUP1 PUSH1 0x40 DUP4 DUP6 SUB SLT ISZERO PUSH2 0x3AE3 JUMPI PUSH1 0x0 DUP1 REVERT JUMPDEST DUP3 CALLDATALOAD SWAP2 POP PUSH2 0x3AF3 PUSH1 0x20 DUP5 ADD PUSH2 0x3876 JUMP JUMPDEST SWAP1 POP SWAP3 POP SWAP3 SWAP1 POP JUMP JUMPDEST PUSH1 0x0 PUSH1 0x20 DUP3 DUP5 SUB SLT ISZERO PUSH2 0x3B0E JUMPI PUSH1 0x0 DUP1 REVERT JUMPDEST PUSH2 0x2B6B DUP3 PUSH2 0x3876 JUMP JUMPDEST PUSH1 0x0 DUP2 MLOAD DUP1 DUP5 MSTORE PUSH1 0x20 DUP1 DUP6 ADD SWAP5 POP DUP1 DUP5 ADD PUSH1 0x0 JUMPDEST DUP4 DUP2 LT ISZERO PUSH2 0x3B47 JUMPI DUP2 MLOAD DUP8 MSTORE SWAP6 DUP3 ADD SWAP6 SWAP1 DUP3 ADD SWAP1 PUSH1 0x1 ADD PUSH2 0x3B2B JUMP JUMPDEST POP SWAP5 SWAP6 SWAP5 POP POP POP POP POP JUMP JUMPDEST PUSH1 0x0 DUP3 MLOAD PUSH2 0x3B64 DUP2 DUP5 PUSH1 0x20 DUP8 ADD PUSH2 0x3D2B JUMP JUMPDEST SWAP2 SWAP1 SWAP2 ADD SWAP3 SWAP2 POP POP JUMP JUMPDEST PUSH1 0x20 DUP1 DUP3 MSTORE DUP3 MLOAD DUP3 DUP3 ADD DUP2 SWAP1 MSTORE PUSH1 0x0 SWAP2 SWAP1 DUP5 DUP3 ADD SWAP1 PUSH1 0x40 DUP6 ADD SWAP1 DUP5 DUP1 JUMPDEST DUP3 DUP2 LT ISZERO PUSH2 0x3BCB JUMPI DUP5 MLOAD DUP5 DUP4 JUMPDEST PUSH1 0x3 DUP2 LT ISZERO PUSH2 0x3BB5 JUMPI DUP3 MLOAD DUP3 MSTORE SWAP2 DUP9 ADD SWAP2 SWAP1 DUP9 ADD SWAP1 PUSH1 0x1 ADD PUSH2 0x3B98 JUMP JUMPDEST POP POP POP SWAP4 DUP6 ADD SWAP4 PUSH1 0x60 SWAP4 SWAP1 SWAP4 ADD SWAP3 PUSH1 0x1 ADD PUSH2 0x3B8B JUMP JUMPDEST POP SWAP2 SWAP8 SWAP7 POP POP POP POP POP POP POP JUMP JUMPDEST PUSH1 0x20 DUP2 MSTORE PUSH1 0x0 PUSH2 0x2B6B PUSH1 0x20 DUP4 ADD DUP5 PUSH2 0x3B17 JUMP JUMPDEST PUSH1 0x40 DUP2 MSTORE PUSH1 0x0 PUSH2 0x3BFE PUSH1 0x40 DUP4 ADD DUP6 PUSH2 0x3B17 JUMP JUMPDEST DUP3 DUP2 SUB PUSH1 0x20 DUP5 DUP2 ADD SWAP2 SWAP1 SWAP2 MSTORE DUP5 MLOAD DUP1 DUP4 MSTORE DUP6 DUP3 ADD SWAP3 DUP3 ADD SWAP1 PUSH1 0x0 JUMPDEST DUP2 DUP2 LT ISZERO PUSH2 0x3C37 JUMPI DUP5 MLOAD ISZERO ISZERO DUP4 MSTORE SWAP4 DUP4 ADD SWAP4 SWAP2 DUP4 ADD SWAP2 PUSH1 0x1 ADD PUSH2 0x3C19 JUMP JUMPDEST POP SWAP1 SWAP8 SWAP7 POP POP POP POP POP POP POP JUMP JUMPDEST PUSH1 0x20 DUP2 MSTORE PUSH1 0x0 DUP3 MLOAD DUP1 PUSH1 0x20 DUP5 ADD MSTORE PUSH2 0x3C63 DUP2 PUSH1 0x40 DUP6 ADD PUSH1 0x20 DUP8 ADD PUSH2 0x3D2B JUMP JUMPDEST PUSH1 0x1F ADD PUSH1 0x1F NOT AND SWAP2 SWAP1 SWAP2 ADD PUSH1 0x40 ADD SWAP3 SWAP2 POP POP JUMP JUMPDEST PUSH1 0x20 DUP1 DUP3 MSTORE PUSH1 0x24 SWAP1 DUP3 ADD MSTORE PUSH32 0x4465706F7369743A204E657720616D6F756E742061626F76652075736572206C PUSH1 0x40 DUP3 ADD MSTORE PUSH4 0x1A5B5A5D PUSH1 0xE2 SHL PUSH1 0x60 DUP3 ADD MSTORE PUSH1 0x80 ADD SWAP1 JUMP JUMPDEST PUSH1 0x0 DUP3 NOT DUP3 GT ISZERO PUSH2 0x3CCE JUMPI PUSH2 0x3CCE PUSH2 0x3D92 JUMP JUMPDEST POP ADD SWAP1 JUMP JUMPDEST PUSH1 0x0 DUP3 PUSH2 0x3CF0 JUMPI PUSH4 0x4E487B71 PUSH1 0xE0 SHL PUSH1 0x0 MSTORE PUSH1 0x12 PUSH1 0x4 MSTORE PUSH1 0x24 PUSH1 0x0 REVERT JUMPDEST POP DIV SWAP1 JUMP JUMPDEST PUSH1 0x0 DUP2 PUSH1 0x0 NOT DIV DUP4 GT DUP3 ISZERO ISZERO AND ISZERO PUSH2 0x3D0F JUMPI PUSH2 0x3D0F PUSH2 0x3D92 JUMP JUMPDEST POP MUL SWAP1 JUMP JUMPDEST PUSH1 0x0 DUP3 DUP3 LT ISZERO PUSH2 0x3D26 JUMPI PUSH2 0x3D26 PUSH2 0x3D92 JUMP JUMPDEST POP SUB SWAP1 JUMP JUMPDEST PUSH1 0x0 JUMPDEST DUP4 DUP2 LT ISZERO PUSH2 0x3D46 JUMPI DUP2 DUP2 ADD MLOAD DUP4 DUP3 ADD MSTORE PUSH1 0x20 ADD PUSH2 0x3D2E JUMP JUMPDEST DUP4 DUP2 GT ISZERO PUSH2 0x34EB JUMPI POP POP PUSH1 0x0 SWAP2 ADD MSTORE JUMP JUMPDEST PUSH1 0x0 PUSH1 0x0 NOT DUP3 EQ ISZERO PUSH2 0x3D6B JUMPI PUSH2 0x3D6B PUSH2 0x3D92 JUMP JUMPDEST POP PUSH1 0x1 ADD SWAP1 JUMP JUMPDEST PUSH1 0x0 PUSH1 0xFF DUP3 AND PUSH1 0xFF DUP2 EQ ISZERO PUSH2 0x3D89 JUMPI PUSH2 0x3D89 PUSH2 0x3D92 JUMP JUMPDEST PUSH1 0x1 ADD SWAP3 SWAP2 POP POP JUMP JUMPDEST PUSH4 0x4E487B71 PUSH1 0xE0 SHL PUSH1 0x0 MSTORE PUSH1 0x11 PUSH1 0x4 MSTORE PUSH1 0x24 PUSH1 0x0 REVERT JUMPDEST PUSH4 0x4E487B71 PUSH1 0xE0 SHL PUSH1 0x0 MSTORE PUSH1 0x32 PUSH1 0x4 MSTORE PUSH1 0x24 PUSH1 0x0 REVERT JUMPDEST PUSH4 0x4E487B71 PUSH1 0xE0 SHL PUSH1 0x0 MSTORE PUSH1 0x41 PUSH1 0x4 MSTORE PUSH1 0x24 PUSH1 0x0 REVERT JUMPDEST DUP1 ISZERO ISZERO DUP2 EQ PUSH2 0xE03 JUMPI PUSH1 0x0 DUP1 REVERT INVALID LOG2 PUSH5 0x6970667358 0x22 SLT KECCAK256 EQ SWAP15 0xCB EXP GT DUP12 0xED 0xEE PUSH2 0x69EB MSTORE 0xB6 0xF9 0xD5 0xDA 0xC2 PUSH24 0x9CCECA433947CA437F6A39232C2F64736F6C634300080500 CALLER "
		},
		"gasEstimates": {
			"creation": {
				"codeDepositCost": "3179200",
				"executionCost": "infinite",
				"totalCost": "infinite"
			},
			"external": {
				"IFO_FACTORY()": "infinite",
				"MAX_BUFFER_BLOCKS()": "2373",
				"NUMBER_POOLS()": "250",
				"addAddressToWhitelist(address)": "28031",
				"addAddressesToWhitelist(address[])": "infinite",
				"campaignId()": "2351",
				"computeNextVestingScheduleIdForHolder(address)": "2855",
				"computeReleasableAmount(bytes32)": "infinite",
				"computeVestingScheduleIdForAddressAndIndex(address,uint256)": "711",
				"computeVestingScheduleIdForAddressAndPid(address,uint256)": "infinite",
				"depositPool(uint256,uint8)": "infinite",
				"endBlock()": "2397",
				"finalWithdraw(uint256,uint256)": "infinite",
				"getVestingSchedule(bytes32)": "7287",
				"getVestingScheduleByAddressAndIndex(address,uint256)": "7701",
				"getVestingScheduleIdAtIndex(uint256)": "6751",
				"getVestingSchedulesCount()": "2416",
				"getVestingSchedulesCountByBeneficiary(address)": "2615",
				"getVestingSchedulesTotalAmount()": "2326",
				"getWithdrawableOfferingTokenAmount()": "infinite",
				"harvestPool(uint8)": "infinite",
				"iShdw()": "2471",
				"initialize(address,address,uint256,uint256,uint256,address,address)": "infinite",
				"isInitialized()": "2373",
				"isQualifiedWhitelist(address)": "2641",
				"isWhitelisted(address)": "2617",
				"lpToken()": "2448",
				"offeringToken()": "2448",
				"owner()": "2376",
				"recoverWrongTokens(address,uint256)": "infinite",
				"release(bytes32)": "infinite",
				"removeAddressFromWhitelist(address)": "28003",
				"removeAddressesFromWhitelist(address[])": "infinite",
				"renounceOwnership()": "infinite",
				"revoke()": "29515",
				"setPool(uint256,uint256,uint256,bool,uint8,bool,uint256,uint256,uint256,uint256)": "infinite",
				"startBlock()": "2440",
				"totalTokensOffered()": "2352",
				"transferOwnership(address)": "28447",
				"updateStartAndEndBlocks(uint256,uint256)": "52446",
				"userCreditUsed(address)": "2640",
				"vestingRevoked()": "2422",
				"vestingStartTime()": "2329",
				"viewPoolInformation(uint256)": "15681",
				"viewPoolTaxRateOverflow(uint256)": "infinite",
				"viewPoolVestingInformation(uint256)": "9098",
				"viewUserAllocationPools(address,uint8[])": "infinite",
				"viewUserInfo(address,uint8[])": "infinite",
				"viewUserOfferingAndRefundingAmountsForPools(address,uint8[])": "infinite"
			},
			"internal": {
				"_calculateOfferingAndRefundingAmountsPool(address,uint8)": "infinite",
				"_calculateTaxOverflow(uint256,uint256)": "295",
				"_computeReleasableAmount(struct IFOInitializableV5.VestingSchedule memory)": "infinite",
				"_createVestingSchedule(address,uint8,uint256)": "infinite",
				"_getUserAllocationPool(address,uint8)": "infinite",
				"_isContract(address)": "infinite",
				"_isQualifiedWhitelist(address)": "infinite",
				"getCurrentTime()": "infinite"
			}
		},
		"methodIdentifiers": {
			"IFO_FACTORY()": "45de0f77",
			"MAX_BUFFER_BLOCKS()": "915dfc31",
			"NUMBER_POOLS()": "23f93574",
			"addAddressToWhitelist(address)": "7b9417c8",
			"addAddressesToWhitelist(address[])": "e2ec6ec3",
			"campaignId()": "8ed5b0fc",
			"computeNextVestingScheduleIdForHolder(address)": "f7c469f0",
			"computeReleasableAmount(bytes32)": "ea1bb3d5",
			"computeVestingScheduleIdForAddressAndIndex(address,uint256)": "8af104da",
			"computeVestingScheduleIdForAddressAndPid(address,uint256)": "ad082874",
			"depositPool(uint256,uint8)": "7f1bdd76",
			"endBlock()": "083c6323",
			"finalWithdraw(uint256,uint256)": "9f1b5248",
			"getVestingSchedule(bytes32)": "9ef346b4",
			"getVestingScheduleByAddressAndIndex(address,uint256)": "f51321d7",
			"getVestingScheduleIdAtIndex(uint256)": "04e3ccd6",
			"getVestingSchedulesCount()": "13083617",
			"getVestingSchedulesCountByBeneficiary(address)": "5a7bb69a",
			"getVestingSchedulesTotalAmount()": "48deb471",
			"getWithdrawableOfferingTokenAmount()": "79795108",
			"harvestPool(uint8)": "2374876c",
			"iShdw()": "2c2339c1",
			"initialize(address,address,uint256,uint256,uint256,address,address)": "0729da0b",
			"isInitialized()": "392e53cd",
			"isQualifiedWhitelist(address)": "06cec857",
			"isWhitelisted(address)": "3af32abf",
			"lpToken()": "5fcbd285",
			"offeringToken()": "b7813607",
			"owner()": "8da5cb5b",
			"recoverWrongTokens(address,uint256)": "3f138d4b",
			"release(bytes32)": "67d42a8b",
			"removeAddressFromWhitelist(address)": "286dd3f5",
			"removeAddressesFromWhitelist(address[])": "24953eaa",
			"renounceOwnership()": "715018a6",
			"revoke()": "b6549f75",
			"setPool(uint256,uint256,uint256,bool,uint8,bool,uint256,uint256,uint256,uint256)": "6a01df77",
			"startBlock()": "48cd4cb1",
			"totalTokensOffered()": "760b3180",
			"transferOwnership(address)": "f2fde38b",
			"updateStartAndEndBlocks(uint256,uint256)": "9513997f",
			"userCreditUsed(address)": "feebf529",
			"vestingRevoked()": "28fddfaf",
			"vestingStartTime()": "a8660a78",
			"viewPoolInformation(uint256)": "46ab91bf",
			"viewPoolTaxRateOverflow(uint256)": "37f859b8",
			"viewPoolVestingInformation(uint256)": "b86c6f14",
			"viewUserAllocationPools(address,uint8[])": "f9cd5c12",
			"viewUserInfo(address,uint8[])": "4af3c9b7",
			"viewUserOfferingAndRefundingAmountsForPools(address,uint8[])": "ca463ca4"
		}
	},
	"abi": [
		{
			"inputs": [],
			"stateMutability": "nonpayable",
			"type": "constructor"
		},
		{
			"anonymous": false,
			"inputs": [
				{
					"indexed": false,
					"internalType": "address",
					"name": "tokenAddress",
					"type": "address"
				},
				{
					"indexed": false,
					"internalType": "uint256",
					"name": "amountTokens",
					"type": "uint256"
				}
			],
			"name": "AdminTokenRecovery",
			"type": "event"
		},
		{
			"anonymous": false,
			"inputs": [
				{
					"indexed": false,
					"internalType": "uint256",
					"name": "amountLP",
					"type": "uint256"
				},
				{
					"indexed": false,
					"internalType": "uint256",
					"name": "amountOfferingToken",
					"type": "uint256"
				}
			],
			"name": "AdminWithdraw",
			"type": "event"
		},
		{
			"anonymous": false,
			"inputs": [
				{
					"indexed": true,
					"internalType": "address",
					"name": "user",
					"type": "address"
				},
				{
					"indexed": false,
					"internalType": "uint256",
					"name": "offeringAmount",
					"type": "uint256"
				},
				{
					"indexed": false,
					"internalType": "uint256",
					"name": "excessAmount",
					"type": "uint256"
				},
				{
					"indexed": true,
					"internalType": "uint8",
					"name": "pid",
					"type": "uint8"
				}
			],
			"name": "CreateVestingSchedule",
			"type": "event"
		},
		{
			"anonymous": false,
			"inputs": [
				{
					"indexed": true,
					"internalType": "address",
					"name": "user",
					"type": "address"
				},
				{
					"indexed": false,
					"internalType": "uint256",
					"name": "amount",
					"type": "uint256"
				},
				{
					"indexed": true,
					"internalType": "uint8",
					"name": "pid",
					"type": "uint8"
				}
			],
			"name": "Deposit",
			"type": "event"
		},
		{
			"anonymous": false,
			"inputs": [
				{
					"indexed": true,
					"internalType": "address",
					"name": "user",
					"type": "address"
				},
				{
					"indexed": false,
					"internalType": "uint256",
					"name": "offeringAmount",
					"type": "uint256"
				},
				{
					"indexed": false,
					"internalType": "uint256",
					"name": "excessAmount",
					"type": "uint256"
				},
				{
					"indexed": true,
					"internalType": "uint8",
					"name": "pid",
					"type": "uint8"
				}
			],
			"name": "Harvest",
			"type": "event"
		},
		{
			"anonymous": false,
			"inputs": [
				{
					"indexed": false,
					"internalType": "uint256",
					"name": "startBlock",
					"type": "uint256"
				},
				{
					"indexed": false,
					"internalType": "uint256",
					"name": "endBlock",
					"type": "uint256"
				}
			],
			"name": "NewStartAndEndBlocks",
			"type": "event"
		},
		{
			"anonymous": false,
			"inputs": [
				{
					"indexed": true,
					"internalType": "address",
					"name": "previousOwner",
					"type": "address"
				},
				{
					"indexed": true,
					"internalType": "address",
					"name": "newOwner",
					"type": "address"
				}
			],
			"name": "OwnershipTransferred",
			"type": "event"
		},
		{
			"anonymous": false,
			"inputs": [
				{
					"indexed": false,
					"internalType": "uint256",
					"name": "offeringAmountPool",
					"type": "uint256"
				},
				{
					"indexed": false,
					"internalType": "uint256",
					"name": "raisingAmountPool",
					"type": "uint256"
				},
				{
					"indexed": false,
					"internalType": "uint8",
					"name": "pid",
					"type": "uint8"
				}
			],
			"name": "PoolParametersSet",
			"type": "event"
		},
		{
			"anonymous": false,
			"inputs": [
				{
					"indexed": true,
					"internalType": "address",
					"name": "beneficiary",
					"type": "address"
				},
				{
					"indexed": false,
					"internalType": "uint256",
					"name": "amount",
					"type": "uint256"
				}
			],
			"name": "Released",
			"type": "event"
		},
		{
			"anonymous": false,
			"inputs": [],
			"name": "Revoked",
			"type": "event"
		},
		{
			"anonymous": false,
			"inputs": [
				{
					"indexed": true,
					"internalType": "address",
					"name": "_user",
					"type": "address"
				}
			],
			"name": "WhitelistedAddressAdded",
			"type": "event"
		},
		{
			"anonymous": false,
			"inputs": [
				{
					"indexed": true,
					"internalType": "address",
					"name": "_user",
					"type": "address"
				}
			],
			"name": "WhitelistedAddressRemoved",
			"type": "event"
		},
		{
			"inputs": [],
			"name": "IFO_FACTORY",
			"outputs": [
				{
					"internalType": "address",
					"name": "",
					"type": "address"
				}
			],
			"stateMutability": "view",
			"type": "function"
		},
		{
			"inputs": [],
			"name": "MAX_BUFFER_BLOCKS",
			"outputs": [
				{
					"internalType": "uint256",
					"name": "",
					"type": "uint256"
				}
			],
			"stateMutability": "view",
			"type": "function"
		},
		{
			"inputs": [],
			"name": "NUMBER_POOLS",
			"outputs": [
				{
					"internalType": "uint8",
					"name": "",
					"type": "uint8"
				}
			],
			"stateMutability": "view",
			"type": "function"
		},
		{
			"inputs": [
				{
					"internalType": "address",
					"name": "_user",
					"type": "address"
				}
			],
			"name": "addAddressToWhitelist",
			"outputs": [],
			"stateMutability": "nonpayable",
			"type": "function"
		},
		{
			"inputs": [
				{
					"internalType": "address[]",
					"name": "_users",
					"type": "address[]"
				}
			],
			"name": "addAddressesToWhitelist",
			"outputs": [],
			"stateMutability": "nonpayable",
			"type": "function"
		},
		{
			"inputs": [],
			"name": "campaignId",
			"outputs": [
				{
					"internalType": "uint256",
					"name": "",
					"type": "uint256"
				}
			],
			"stateMutability": "view",
			"type": "function"
		},
		{
			"inputs": [
				{
					"internalType": "address",
					"name": "_holder",
					"type": "address"
				}
			],
			"name": "computeNextVestingScheduleIdForHolder",
			"outputs": [
				{
					"internalType": "bytes32",
					"name": "",
					"type": "bytes32"
				}
			],
			"stateMutability": "view",
			"type": "function"
		},
		{
			"inputs": [
				{
					"internalType": "bytes32",
					"name": "_vestingScheduleId",
					"type": "bytes32"
				}
			],
			"name": "computeReleasableAmount",
			"outputs": [
				{
					"internalType": "uint256",
					"name": "",
					"type": "uint256"
				}
			],
			"stateMutability": "view",
			"type": "function"
		},
		{
			"inputs": [
				{
					"internalType": "address",
					"name": "_holder",
					"type": "address"
				},
				{
					"internalType": "uint256",
					"name": "_index",
					"type": "uint256"
				}
			],
			"name": "computeVestingScheduleIdForAddressAndIndex",
			"outputs": [
				{
					"internalType": "bytes32",
					"name": "",
					"type": "bytes32"
				}
			],
			"stateMutability": "pure",
			"type": "function"
		},
		{
			"inputs": [
				{
					"internalType": "address",
					"name": "_holder",
					"type": "address"
				},
				{
					"internalType": "uint256",
					"name": "_pid",
					"type": "uint256"
				}
			],
			"name": "computeVestingScheduleIdForAddressAndPid",
			"outputs": [
				{
					"internalType": "bytes32",
					"name": "",
					"type": "bytes32"
				}
			],
			"stateMutability": "view",
			"type": "function"
		},
		{
			"inputs": [
				{
					"internalType": "uint256",
					"name": "_amount",
					"type": "uint256"
				},
				{
					"internalType": "uint8",
					"name": "_pid",
					"type": "uint8"
				}
			],
			"name": "depositPool",
			"outputs": [],
			"stateMutability": "nonpayable",
			"type": "function"
		},
		{
			"inputs": [],
			"name": "endBlock",
			"outputs": [
				{
					"internalType": "uint256",
					"name": "",
					"type": "uint256"
				}
			],
			"stateMutability": "view",
			"type": "function"
		},
		{
			"inputs": [
				{
					"internalType": "uint256",
					"name": "_lpAmount",
					"type": "uint256"
				},
				{
					"internalType": "uint256",
					"name": "_offerAmount",
					"type": "uint256"
				}
			],
			"name": "finalWithdraw",
			"outputs": [],
			"stateMutability": "nonpayable",
			"type": "function"
		},
		{
			"inputs": [
				{
					"internalType": "bytes32",
					"name": "_vestingScheduleId",
					"type": "bytes32"
				}
			],
			"name": "getVestingSchedule",
			"outputs": [
				{
					"components": [
						{
							"internalType": "bool",
							"name": "isVestingInitialized",
							"type": "bool"
						},
						{
							"internalType": "address",
							"name": "beneficiary",
							"type": "address"
						},
						{
							"internalType": "uint8",
							"name": "pid",
							"type": "uint8"
						},
						{
							"internalType": "uint256",
							"name": "amountTotal",
							"type": "uint256"
						},
						{
							"internalType": "uint256",
							"name": "released",
							"type": "uint256"
						}
					],
					"internalType": "struct IFOInitializableV5.VestingSchedule",
					"name": "",
					"type": "tuple"
				}
			],
			"stateMutability": "view",
			"type": "function"
		},
		{
			"inputs": [
				{
					"internalType": "address",
					"name": "_holder",
					"type": "address"
				},
				{
					"internalType": "uint256",
					"name": "_index",
					"type": "uint256"
				}
			],
			"name": "getVestingScheduleByAddressAndIndex",
			"outputs": [
				{
					"components": [
						{
							"internalType": "bool",
							"name": "isVestingInitialized",
							"type": "bool"
						},
						{
							"internalType": "address",
							"name": "beneficiary",
							"type": "address"
						},
						{
							"internalType": "uint8",
							"name": "pid",
							"type": "uint8"
						},
						{
							"internalType": "uint256",
							"name": "amountTotal",
							"type": "uint256"
						},
						{
							"internalType": "uint256",
							"name": "released",
							"type": "uint256"
						}
					],
					"internalType": "struct IFOInitializableV5.VestingSchedule",
					"name": "",
					"type": "tuple"
				}
			],
			"stateMutability": "view",
			"type": "function"
		},
		{
			"inputs": [
				{
					"internalType": "uint256",
					"name": "_index",
					"type": "uint256"
				}
			],
			"name": "getVestingScheduleIdAtIndex",
			"outputs": [
				{
					"internalType": "bytes32",
					"name": "",
					"type": "bytes32"
				}
			],
			"stateMutability": "view",
			"type": "function"
		},
		{
			"inputs": [],
			"name": "getVestingSchedulesCount",
			"outputs": [
				{
					"internalType": "uint256",
					"name": "",
					"type": "uint256"
				}
			],
			"stateMutability": "view",
			"type": "function"
		},
		{
			"inputs": [
				{
					"internalType": "address",
					"name": "_beneficiary",
					"type": "address"
				}
			],
			"name": "getVestingSchedulesCountByBeneficiary",
			"outputs": [
				{
					"internalType": "uint256",
					"name": "",
					"type": "uint256"
				}
			],
			"stateMutability": "view",
			"type": "function"
		},
		{
			"inputs": [],
			"name": "getVestingSchedulesTotalAmount",
			"outputs": [
				{
					"internalType": "uint256",
					"name": "",
					"type": "uint256"
				}
			],
			"stateMutability": "view",
			"type": "function"
		},
		{
			"inputs": [],
			"name": "getWithdrawableOfferingTokenAmount",
			"outputs": [
				{
					"internalType": "uint256",
					"name": "",
					"type": "uint256"
				}
			],
			"stateMutability": "view",
			"type": "function"
		},
		{
			"inputs": [
				{
					"internalType": "uint8",
					"name": "_pid",
					"type": "uint8"
				}
			],
			"name": "harvestPool",
			"outputs": [],
			"stateMutability": "nonpayable",
			"type": "function"
		},
		{
			"inputs": [],
			"name": "iShdw",
			"outputs": [
				{
					"internalType": "contract IShdw",
					"name": "",
					"type": "address"
				}
			],
			"stateMutability": "view",
			"type": "function"
		},
		{
			"inputs": [
				{
					"internalType": "address",
					"name": "_lpToken",
					"type": "address"
				},
				{
					"internalType": "address",
					"name": "_offeringToken",
					"type": "address"
				},
				{
					"internalType": "uint256",
					"name": "_startBlock",
					"type": "uint256"
				},
				{
					"internalType": "uint256",
					"name": "_endBlock",
					"type": "uint256"
				},
				{
					"internalType": "uint256",
					"name": "_maxBufferBlocks",
					"type": "uint256"
				},
				{
					"internalType": "address",
					"name": "_adminAddress",
					"type": "address"
				},
				{
					"internalType": "address",
					"name": "_iShdwAddress",
					"type": "address"
				}
			],
			"name": "initialize",
			"outputs": [],
			"stateMutability": "nonpayable",
			"type": "function"
		},
		{
			"inputs": [],
			"name": "isInitialized",
			"outputs": [
				{
					"internalType": "bool",
					"name": "",
					"type": "bool"
				}
			],
			"stateMutability": "view",
			"type": "function"
		},
		{
			"inputs": [
				{
					"internalType": "address",
					"name": "_user",
					"type": "address"
				}
			],
			"name": "isQualifiedWhitelist",
			"outputs": [
				{
					"internalType": "bool",
					"name": "",
					"type": "bool"
				}
			],
			"stateMutability": "view",
			"type": "function"
		},
		{
			"inputs": [
				{
					"internalType": "address",
					"name": "_user",
					"type": "address"
				}
			],
			"name": "isWhitelisted",
			"outputs": [
				{
					"internalType": "bool",
					"name": "",
					"type": "bool"
				}
			],
			"stateMutability": "view",
			"type": "function"
		},
		{
			"inputs": [],
			"name": "lpToken",
			"outputs": [
				{
					"internalType": "contract IERC20",
					"name": "",
					"type": "address"
				}
			],
			"stateMutability": "view",
			"type": "function"
		},
		{
			"inputs": [],
			"name": "offeringToken",
			"outputs": [
				{
					"internalType": "contract IERC20",
					"name": "",
					"type": "address"
				}
			],
			"stateMutability": "view",
			"type": "function"
		},
		{
			"inputs": [],
			"name": "owner",
			"outputs": [
				{
					"internalType": "address",
					"name": "",
					"type": "address"
				}
			],
			"stateMutability": "view",
			"type": "function"
		},
		{
			"inputs": [
				{
					"internalType": "address",
					"name": "_tokenAddress",
					"type": "address"
				},
				{
					"internalType": "uint256",
					"name": "_tokenAmount",
					"type": "uint256"
				}
			],
			"name": "recoverWrongTokens",
			"outputs": [],
			"stateMutability": "nonpayable",
			"type": "function"
		},
		{
			"inputs": [
				{
					"internalType": "bytes32",
					"name": "_vestingScheduleId",
					"type": "bytes32"
				}
			],
			"name": "release",
			"outputs": [],
			"stateMutability": "nonpayable",
			"type": "function"
		},
		{
			"inputs": [
				{
					"internalType": "address",
					"name": "_user",
					"type": "address"
				}
			],
			"name": "removeAddressFromWhitelist",
			"outputs": [],
			"stateMutability": "nonpayable",
			"type": "function"
		},
		{
			"inputs": [
				{
					"internalType": "address[]",
					"name": "_users",
					"type": "address[]"
				}
			],
			"name": "removeAddressesFromWhitelist",
			"outputs": [],
			"stateMutability": "nonpayable",
			"type": "function"
		},
		{
			"inputs": [],
			"name": "renounceOwnership",
			"outputs": [],
			"stateMutability": "nonpayable",
			"type": "function"
		},
		{
			"inputs": [],
			"name": "revoke",
			"outputs": [],
			"stateMutability": "nonpayable",
			"type": "function"
		},
		{
			"inputs": [
				{
					"internalType": "uint256",
					"name": "_offeringAmountPool",
					"type": "uint256"
				},
				{
					"internalType": "uint256",
					"name": "_raisingAmountPool",
					"type": "uint256"
				},
				{
					"internalType": "uint256",
					"name": "_limitPerUserInLP",
					"type": "uint256"
				},
				{
					"internalType": "bool",
					"name": "_hasTax",
					"type": "bool"
				},
				{
					"internalType": "uint8",
					"name": "_pid",
					"type": "uint8"
				},
				{
					"internalType": "bool",
					"name": "_isSpecialSale",
					"type": "bool"
				},
				{
					"internalType": "uint256",
					"name": "_vestingPercentage",
					"type": "uint256"
				},
				{
					"internalType": "uint256",
					"name": "_vestingCliff",
					"type": "uint256"
				},
				{
					"internalType": "uint256",
					"name": "_vestingDuration",
					"type": "uint256"
				},
				{
					"internalType": "uint256",
					"name": "_vestingSlicePeriodSeconds",
					"type": "uint256"
				}
			],
			"name": "setPool",
			"outputs": [],
			"stateMutability": "nonpayable",
			"type": "function"
		},
		{
			"inputs": [],
			"name": "startBlock",
			"outputs": [
				{
					"internalType": "uint256",
					"name": "",
					"type": "uint256"
				}
			],
			"stateMutability": "view",
			"type": "function"
		},
		{
			"inputs": [],
			"name": "totalTokensOffered",
			"outputs": [
				{
					"internalType": "uint256",
					"name": "",
					"type": "uint256"
				}
			],
			"stateMutability": "view",
			"type": "function"
		},
		{
			"inputs": [
				{
					"internalType": "address",
					"name": "newOwner",
					"type": "address"
				}
			],
			"name": "transferOwnership",
			"outputs": [],
			"stateMutability": "nonpayable",
			"type": "function"
		},
		{
			"inputs": [
				{
					"internalType": "uint256",
					"name": "_startBlock",
					"type": "uint256"
				},
				{
					"internalType": "uint256",
					"name": "_endBlock",
					"type": "uint256"
				}
			],
			"name": "updateStartAndEndBlocks",
			"outputs": [],
			"stateMutability": "nonpayable",
			"type": "function"
		},
		{
			"inputs": [
				{
					"internalType": "address",
					"name": "",
					"type": "address"
				}
			],
			"name": "userCreditUsed",
			"outputs": [
				{
					"internalType": "uint256",
					"name": "",
					"type": "uint256"
				}
			],
			"stateMutability": "view",
			"type": "function"
		},
		{
			"inputs": [],
			"name": "vestingRevoked",
			"outputs": [
				{
					"internalType": "bool",
					"name": "",
					"type": "bool"
				}
			],
			"stateMutability": "view",
			"type": "function"
		},
		{
			"inputs": [],
			"name": "vestingStartTime",
			"outputs": [
				{
					"internalType": "uint256",
					"name": "",
					"type": "uint256"
				}
			],
			"stateMutability": "view",
			"type": "function"
		},
		{
			"inputs": [
				{
					"internalType": "uint256",
					"name": "_pid",
					"type": "uint256"
				}
			],
			"name": "viewPoolInformation",
			"outputs": [
				{
					"internalType": "uint256",
					"name": "",
					"type": "uint256"
				},
				{
					"internalType": "uint256",
					"name": "",
					"type": "uint256"
				},
				{
					"internalType": "uint256",
					"name": "",
					"type": "uint256"
				},
				{
					"internalType": "bool",
					"name": "",
					"type": "bool"
				},
				{
					"internalType": "uint256",
					"name": "",
					"type": "uint256"
				},
				{
					"internalType": "uint256",
					"name": "",
					"type": "uint256"
				},
				{
					"internalType": "bool",
					"name": "",
					"type": "bool"
				}
			],
			"stateMutability": "view",
			"type": "function"
		},
		{
			"inputs": [
				{
					"internalType": "uint256",
					"name": "_pid",
					"type": "uint256"
				}
			],
			"name": "viewPoolTaxRateOverflow",
			"outputs": [
				{
					"internalType": "uint256",
					"name": "",
					"type": "uint256"
				}
			],
			"stateMutability": "view",
			"type": "function"
		},
		{
			"inputs": [
				{
					"internalType": "uint256",
					"name": "_pid",
					"type": "uint256"
				}
			],
			"name": "viewPoolVestingInformation",
			"outputs": [
				{
					"internalType": "uint256",
					"name": "",
					"type": "uint256"
				},
				{
					"internalType": "uint256",
					"name": "",
					"type": "uint256"
				},
				{
					"internalType": "uint256",
					"name": "",
					"type": "uint256"
				},
				{
					"internalType": "uint256",
					"name": "",
					"type": "uint256"
				}
			],
			"stateMutability": "view",
			"type": "function"
		},
		{
			"inputs": [
				{
					"internalType": "address",
					"name": "_user",
					"type": "address"
				},
				{
					"internalType": "uint8[]",
					"name": "_pids",
					"type": "uint8[]"
				}
			],
			"name": "viewUserAllocationPools",
			"outputs": [
				{
					"internalType": "uint256[]",
					"name": "",
					"type": "uint256[]"
				}
			],
			"stateMutability": "view",
			"type": "function"
		},
		{
			"inputs": [
				{
					"internalType": "address",
					"name": "_user",
					"type": "address"
				},
				{
					"internalType": "uint8[]",
					"name": "_pids",
					"type": "uint8[]"
				}
			],
			"name": "viewUserInfo",
			"outputs": [
				{
					"internalType": "uint256[]",
					"name": "",
					"type": "uint256[]"
				},
				{
					"internalType": "bool[]",
					"name": "",
					"type": "bool[]"
				}
			],
			"stateMutability": "view",
			"type": "function"
		},
		{
			"inputs": [
				{
					"internalType": "address",
					"name": "_user",
					"type": "address"
				},
				{
					"internalType": "uint8[]",
					"name": "_pids",
					"type": "uint8[]"
				}
			],
			"name": "viewUserOfferingAndRefundingAmountsForPools",
			"outputs": [
				{
					"internalType": "uint256[3][]",
					"name": "",
					"type": "uint256[3][]"
				}
			],
			"stateMutability": "view",
			"type": "function"
		}
	]
}