{
	"data": {
		"bytecode": {
			"linkReferences": {},
			"object": "60c060405262093a80600e556301e13380600f556301e1338060105562ed4e0060115564e8d4a5100060125560c860135560c8601455600a601555600a60165564e8d4a510006017556203f4806018553480156200005c57600080fd5b5060405162005021380380620050218339810160408190526200007f9162000157565b620000936200008d62000103565b62000107565b6000805460ff60a01b191690556001600160601b0319606096871b81166080529490951b90931660a052600880546001600160a01b039384166001600160a01b0319918216179091556009805492841692821692909217909155600a8054929093169116179055600b55620001f7565b3390565b600080546001600160a01b038381166001600160a01b0319831681178455604051919092169283917f8be0079c531659141344cd1fd0a4f28419497f9722a3daafe3b4186f6b6457e09190a35050565b60008060008060008060c0878903121562000170578182fd5b86516200017d81620001de565b60208801519096506200019081620001de565b6040880151909550620001a381620001de565b6060880151909450620001b681620001de565b6080880151909350620001c981620001de565b8092505060a087015190509295509295509295565b6001600160a01b0381168114620001f457600080fd5b50565b60805160601c60a05160601c614d9c6200028560003960008181610c6001528181610d1d0152818161208e015281816123a00152818161384e01526139280152600081816113ec01528181611937015281816124aa015281816129ab01528181612e0f01528181612e61015281816131650152818161324001528181613b7b0152613db30152614d9c6000f3fe608060405234801561001057600080fd5b50600436106105145760003560e01c806387788782116102a1578063c6ed51be1161016b578063e464c623116100e3578063f2fde38b11610097578063f851a4401161007c578063f851a440146108fb578063fc0c546a14610903578063fd253b641461090b57610514565b8063f2fde38b146108d5578063f786b958146108e857610514565b8063e73008bc116100c8578063e73008bc146108b2578063e941fa78146108ba578063f0f44260146108c257610514565b8063e464c623146108a2578063e4b37ef5146108aa57610514565b8063def68a9c1161013a578063df10b4e61161011f578063df10b4e61461087f578063dfcedeee14610887578063e2bbb1581461088f57610514565b8063def68a9c14610859578063def7869d1461086c57610514565b8063c6ed51be14610836578063cc9cfba114610849578063ccd34cd514610779578063d4b0de2f1461085157610514565b8063acaf88cd11610219578063bc3d652a116101cd578063bdca9165116101b2578063bdca916514610808578063beba0fa014610810578063c54d349c1461082357610514565b8063bc3d652a146107f8578063bc75f4b81461080057610514565b8063b6857844116101fe578063b6857844146105a2578063b6ac642a146107d2578063bb9f408d146107e557610514565b8063acaf88cd146107b7578063b3ab15fb146107bf57610514565b8063948a03f211610270578063a3639b3911610255578063a3639b3914610794578063a5834e06146107a7578063aaada5da146107af57610514565b8063948a03f21461077957806395dc14e11461078157610514565b8063877887821461074357806387d4bda91461074b5780638da5cb5b1461075e57806393c99e6a1461076657610514565b80634e4de1e9116103e2578063668679ba1161035a578063731ff24a1161030e57806378b4330f116102f357806378b4330f146105d05780638456cb5914610733578063853828b61461073b57610514565b8063731ff24a1461072357806377c7b8fc1461072b57610514565b806370897b231161033f57806370897b2314610700578063715018a614610713578063722713f71461071b57610514565b8063668679ba146106da578063704b6c02146106ed57610514565b8063570ca735116103b157806361d027b31161039657806361d027b3146106b757806361fa6368146106bf57806362122f5a146106c757610514565b8063570ca7351461069a5780635c975abb146106af57610514565b80634e4de1e9146106645780634f1bfc9e1461067757806351fb26df1461067f5780635521e9bf1461068757610514565b80632cfc5f01116104905780633eb78874116104445780633fec4e32116104295780633fec4e3214610629578063423b93ed1461064957806348a0d7541461065c57610514565b80633eb78874146106195780633f4ba83a1461062157610514565b80632f6c493c116104755780632f6c493c146105eb57806335981921146105fe5780633a98ef391461061157610514565b80632cfc5f01146105d05780632e1a7d4d146105d857610514565b80631959a002116104e75780631ea30fef116104cc5780631ea30fef146105a25780631efac1b8146105aa57806329a5cfd6146105bd57610514565b80631959a0021461056757806319ab453c1461058f57610514565b806301e813261461051957806305a9f274146105375780630c59696b1461053f57806314ff303914610554575b600080fd5b610521610913565b60405161052e9190614b9f565b60405180910390f35b61052161091b565b61055261054d366004614171565b610921565b005b610552610562366004614171565b6109fa565b61057a6105753660046140d6565b610abc565b60405161052e99989796959493929190614bf5565b61055261059d3660046140d6565b610b0e565b610521610db2565b6105526105b8366004614171565b610dbc565b6105216105cb36600461412a565b610e7f565b610521610fce565b6105526105e6366004614171565b610fd5565b6105526105f93660046140d6565b611025565b61055261060c366004614171565b611122565b6105216111e2565b6105216111e8565b6105526111ee565b61063c6106373660046140d6565b61127a565b60405161052e91906142bf565b6105526106573660046140f2565b61128f565b6105216113ac565b6105526106723660046140f2565b611476565b610521611593565b610521611599565b610552610695366004614171565b61159f565b6106a26115f1565b60405161052e91906141de565b61063c61160d565b6106a261162e565b6106a261164a565b6105526106d53660046140d6565b611666565b61063c6106e83660046140d6565b61177a565b6105526106fb3660046140d6565b61178f565b61055261070e366004614171565b61185a565b61055261191c565b610521611930565b6105216119e8565b6105216119f8565b610552611a4f565b610552611adb565b610521611af4565b61063c6107593660046140d6565b611afa565b6106a2611b0f565b610552610774366004614171565b611b2b565b610521611bf1565b61052161078f3660046140d6565b611bfa565b6105526107a2366004614171565b611d6b565b610521611e2b565b610521611e31565b610521611e37565b6105526107cd3660046140d6565b611e3d565b6105526107e0366004614171565b611f08565b6105526107f3366004614171565b611fca565b6106a261208c565b6105216120b0565b6105216120b6565b61055261081e3660046140f2565b6120bc565b610552610831366004614171565b6121d9565b6105216108443660046140d6565b612299565b61052161239b565b610521612451565b6105526108673660046140d6565b612457565b61055261087a3660046140d6565b6125fa565b61052161270e565b6106a2612714565b61055261089d3660046141a1565b612730565b610521612788565b61052161278e565b610521612794565b61052161279a565b6105526108d03660046140d6565b6127a0565b6105526108e33660046140d6565b61286b565b6105526108f6366004614171565b6128c9565b6106a261298d565b6106a26129a9565b6105216129cd565b6305265c0081565b600d5481565b60085473ffffffffffffffffffffffffffffffffffffffff16331461097b576040517f08c379a000000000000000000000000000000000000000000000000000000000815260040161097290614929565b60405180910390fd5b64e8d4a510008111156109ba576040517f08c379a0000000000000000000000000000000000000000000000000000000008152600401610972906147dd565b60178190556040517ff4bd1c5978320077e792afbb3911e8cab1325ce28a6b3e67f9067a1d80692961906109ef908390614b9f565b60405180910390a150565b60085473ffffffffffffffffffffffffffffffffffffffff163314610a4b576040517f08c379a000000000000000000000000000000000000000000000000000000000815260040161097290614929565b6101f4811115610a87576040517f08c379a000000000000000000000000000000000000000000000000000000000815260040161097290614aae565b60168190556040517fcab352e118188b8a2f20a2e8c4ce1241ce2c1740aac4f17c5b0831e65824d8ef906109ef908390614b9f565b6003602081905260009182526040909120805460018201546002830154938301546004840154600585015460068601546007870154600890970154959794969495939492939192909160ff9091169089565b610b166129d7565b6040517f70a0823100000000000000000000000000000000000000000000000000000000815260009073ffffffffffffffffffffffffffffffffffffffff8316906370a0823190610b6b9033906004016141de565b60206040518083038186803b158015610b8357600080fd5b505afa158015610b97573d6000803e3d6000fd5b505050506040513d601f19601f82011682018060405250810190610bbb9190614189565b905080610bf4576040517f08c379a0000000000000000000000000000000000000000000000000000000008152600401610972906144e8565b610c1673ffffffffffffffffffffffffffffffffffffffff8316333084612a4a565b6040517f095ea7b300000000000000000000000000000000000000000000000000000000815273ffffffffffffffffffffffffffffffffffffffff83169063095ea7b390610c8a907f0000000000000000000000000000000000000000000000000000000000000000908590600401614230565b602060405180830381600087803b158015610ca457600080fd5b505af1158015610cb8573d6000803e3d6000fd5b505050506040513d601f19601f82011682018060405250810190610cdc9190614155565b50600b546040517fe2bbb15800000000000000000000000000000000000000000000000000000000815273ffffffffffffffffffffffffffffffffffffffff7f0000000000000000000000000000000000000000000000000000000000000000169163e2bbb15891610d5391908590600401614bcc565b600060405180830381600087803b158015610d6d57600080fd5b505af1158015610d81573d6000803e3d6000fd5b50506040517f57a86f7d14ccde89e22870afe839e3011216827daa9b24e18629f0a1e9d6cc14925060009150a15050565b6509184e72a00081565b60085473ffffffffffffffffffffffffffffffffffffffff163314610e0d576040517f08c379a000000000000000000000000000000000000000000000000000000000815260040161097290614929565b62093a80811115610e4a576040517f08c379a0000000000000000000000000000000000000000000000000000000008152600401610972906149f4565b60188190556040517fb89ddaddb7435be26824cb48d2d0186c9525a2e1ec057abcb502704cdc0686cc906109ef908390614b9f565b73ffffffffffffffffffffffffffffffffffffffff821660009081526003602052604081208054831115610eb257805492505b3360009081526005602052604090205460ff16158015610ee257506018548160010154610edf9190614c36565b42105b15610fc2576000610ef161239b565b610ef9611930565b610f039190614c36565b8254909150600090610f1a64e8d4a5100087614c87565b610f249190614c4e565b90506000610f3187612af3565b60068501546007548654610f459087614c87565b610f4f9190614c4e565b610f599190614cc4565b610f639190614cc4565b9050600064e8d4a51000610f778484614c87565b610f819190614c4e565b601554909150610f9033612b11565b15610f9a57506016545b6000612710610fa98385614c87565b610fb39190614c4e565b9750610fc89650505050505050565b60009150505b92915050565b62093a8081565b610fdd612b17565b60008111611017576040517f08c379a000000000000000000000000000000000000000000000000000000000815260040161097290614389565b611022816000612b56565b50565b803373ffffffffffffffffffffffffffffffffffffffff821614806110615750600a5473ffffffffffffffffffffffffffffffffffffffff1633145b611097576040517f08c379a0000000000000000000000000000000000000000000000000000000008152600401610972906145ea565b61109f612b17565b73ffffffffffffffffffffffffffffffffffffffff82166000908152600360205260409020600781015460ff1680156110db5750428160050154105b611111576040517f08c379a000000000000000000000000000000000000000000000000000000000815260040161097290614b68565b61111d60008085612f29565b505050565b60085473ffffffffffffffffffffffffffffffffffffffff163314611173576040517f08c379a000000000000000000000000000000000000000000000000000000000815260040161097290614929565b600081116111ad576040517f08c379a000000000000000000000000000000000000000000000000000000000815260040161097290614780565b60118190556040517f18b6d179114082d7eda9837e15a39eb30032d5f3df00487a67541398f48fabfe906109ef908390614b9f565b60075481565b60145481565b60085473ffffffffffffffffffffffffffffffffffffffff16331461123f576040517f08c379a000000000000000000000000000000000000000000000000000000000815260040161097290614929565b61124761359f565b61124f6135dd565b6040517f7805862f689e2f13df9f062ff482ad3ad112aca9e0847911ed832e158c525b3390600090a1565b60046020526000908152604090205460ff1681565b60085473ffffffffffffffffffffffffffffffffffffffff1633146112e0576040517f08c379a000000000000000000000000000000000000000000000000000000000815260040161097290614929565b73ffffffffffffffffffffffffffffffffffffffff821661132d576040517f08c379a000000000000000000000000000000000000000000000000000000000815260040161097290614749565b73ffffffffffffffffffffffffffffffffffffffff821660008181526004602052604080822080547fffffffffffffffffffffffffffffffffffffffffffffffffffffffffffffff001685151590811790915590519092917f3d7902bc9a6665bd7caf4240b834bb805d3cd68256889e9f8d2e40a10be41d4491a35050565b6040517f70a0823100000000000000000000000000000000000000000000000000000000815260009073ffffffffffffffffffffffffffffffffffffffff7f000000000000000000000000000000000000000000000000000000000000000016906370a08231906114219030906004016141de565b60206040518083038186803b15801561143957600080fd5b505afa15801561144d573d6000803e3d6000fd5b505050506040513d601f19601f820116820180604052508101906114719190614189565b905090565b60085473ffffffffffffffffffffffffffffffffffffffff1633146114c7576040517f08c379a000000000000000000000000000000000000000000000000000000000815260040161097290614929565b73ffffffffffffffffffffffffffffffffffffffff8216611514576040517f08c379a000000000000000000000000000000000000000000000000000000000815260040161097290614749565b73ffffffffffffffffffffffffffffffffffffffff821660008181526006602052604080822080547fffffffffffffffffffffffffffffffffffffffffffffffffffffffffffffff001685151590811790915590519092917f3d7902bc9a6665bd7caf4240b834bb805d3cd68256889e9f8d2e40a10be41d4491a35050565b600f5481565b600b5481565b6115a7612b17565b6509184e72a00081116115e6576040517f08c379a000000000000000000000000000000000000000000000000000000000815260040161097290614960565b611022600082612b56565b600a5473ffffffffffffffffffffffffffffffffffffffff1681565b60005474010000000000000000000000000000000000000000900460ff1690565b60095473ffffffffffffffffffffffffffffffffffffffff1681565b60025473ffffffffffffffffffffffffffffffffffffffff1681565b60085473ffffffffffffffffffffffffffffffffffffffff1633146116b7576040517f08c379a000000000000000000000000000000000000000000000000000000000815260040161097290614929565b73ffffffffffffffffffffffffffffffffffffffff8116611704576040517f08c379a000000000000000000000000000000000000000000000000000000000815260040161097290614749565b600280547fffffffffffffffffffffffff00000000000000000000000000000000000000001673ffffffffffffffffffffffffffffffffffffffff83811691909117918290556040517faf38f30be8d095bc1461196db21930b7d89226e57b0167f9d6abe951c53f3332926109ef9216906141de565b60066020526000908152604090205460ff1681565b6117976129d7565b73ffffffffffffffffffffffffffffffffffffffff81166117e4576040517f08c379a000000000000000000000000000000000000000000000000000000000815260040161097290614749565b600880547fffffffffffffffffffffffff00000000000000000000000000000000000000001673ffffffffffffffffffffffffffffffffffffffff83811691909117918290556040517f71614071b88dee5e0b2ae578a9dd7b2ebbe9ae832ba419dc0242cd065a290b6c926109ef9216906141de565b60085473ffffffffffffffffffffffffffffffffffffffff1633146118ab576040517f08c379a000000000000000000000000000000000000000000000000000000000815260040161097290614929565b6107d08111156118e7576040517f08c379a0000000000000000000000000000000000000000000000000000000008152600401610972906146b5565b60138190556040517fefeafcf03e479a9566d7ef321b4816de0ba19cfa3cd0fae2f8c5f4a0afb342c4906109ef908390614b9f565b6119246129d7565b61192e600061364d565b565b6000600c547f000000000000000000000000000000000000000000000000000000000000000073ffffffffffffffffffffffffffffffffffffffff166370a08231306040518263ffffffff1660e01b815260040161198e91906141de565b60206040518083038186803b1580156119a657600080fd5b505afa1580156119ba573d6000803e3d6000fd5b505050506040513d601f19601f820116820180604052508101906119de9190614189565b6114719190614c36565b6b204fce5e3e2502611000000081565b6000600754600014611a4257600754611a0f61239b565b611a17611930565b611a219190614c36565b611a3390670de0b6b3a7640000614c87565b611a3d9190614c4e565b611471565b50670de0b6b3a764000090565b60085473ffffffffffffffffffffffffffffffffffffffff163314611aa0576040517f08c379a000000000000000000000000000000000000000000000000000000000815260040161097290614929565b611aa8612b17565b611ab06136c2565b6040517f6985a02210a168e66602d3235cb6db0e70f92b3ba4d376a33c0f3d9434bff62590600090a1565b3360009081526003602052604090205461192e90610fd5565b60135481565b60056020526000908152604090205460ff1681565b60005473ffffffffffffffffffffffffffffffffffffffff1690565b60085473ffffffffffffffffffffffffffffffffffffffff163314611b7c576040517f08c379a000000000000000000000000000000000000000000000000000000000815260040161097290614929565b652d79883d2000811115611bbc576040517f08c379a00000000000000000000000000000000000000000000000000000000081526004016109729061448b565b60128190556040517f7666dfff8c3377938e522b4eed3aff079973a976f95969db60a406d49f40da4e906109ef908390614b9f565b64e8d4a5100081565b73ffffffffffffffffffffffffffffffffffffffff81166000908152600360205260408120805415801590611c335750600781015460ff165b8015611c65575073ffffffffffffffffffffffffffffffffffffffff831660009081526006602052604090205460ff16155b8015611c81575042600e548260050154611c7f9190614c36565b105b15611d60576000611c9061239b565b611c98611930565b611ca29190614c36565b60068301546007548454929350600092611cbc9085614c87565b611cc69190614c4e565b611cd09190614cc4565b90506000836008015482611ce49190614cc4565b90506000600e54856005015442611cfb9190614cc4565b611d059190614cc4565b9050601154811115611d1657506011545b600060115460175483611d299190614c87565b611d339190614c4e565b9050600064e8d4a51000611d478386614c87565b611d519190614c4e565b9750611d669650505050505050565b60009150505b919050565b60085473ffffffffffffffffffffffffffffffffffffffff163314611dbc576040517f08c379a000000000000000000000000000000000000000000000000000000000815260040161097290614929565b60008111611df6576040517f08c379a00000000000000000000000000000000000000000000000000000000081526004016109729061441d565b60108190556040517f9478eb023aac0a7d58a4e935377056bf27cf5b72a2300725f831817a8f62fbde906109ef908390614b9f565b60175481565b600e5481565b60115481565b611e456129d7565b73ffffffffffffffffffffffffffffffffffffffff8116611e92576040517f08c379a000000000000000000000000000000000000000000000000000000000815260040161097290614749565b600a80547fffffffffffffffffffffffff00000000000000000000000000000000000000001673ffffffffffffffffffffffffffffffffffffffff83811691909117918290556040517fda12ee837e6978172aaf54b16145ffe08414fd8710092ef033c71b8eb6ec189a926109ef9216906141de565b60085473ffffffffffffffffffffffffffffffffffffffff163314611f59576040517f08c379a000000000000000000000000000000000000000000000000000000000815260040161097290614929565b6101f4811115611f95576040517f08c379a000000000000000000000000000000000000000000000000000000000815260040161097290614aae565b60158190556040517fd5fe46099fa396290a7f57e36c3c3c8774e2562c18ed5d1dcc0fa75071e03f1d906109ef908390614b9f565b60085473ffffffffffffffffffffffffffffffffffffffff16331461201b576040517f08c379a000000000000000000000000000000000000000000000000000000000815260040161097290614929565b6107d0811115612057576040517f08c379a0000000000000000000000000000000000000000000000000000000008152600401610972906146b5565b60148190556040517fc5d25457b67b87678c987375af13f6e50beb3ad7bfd009da26766ae986eaa20d906109ef908390614b9f565b7f000000000000000000000000000000000000000000000000000000000000000081565b60125481565b6107d081565b60085473ffffffffffffffffffffffffffffffffffffffff16331461210d576040517f08c379a000000000000000000000000000000000000000000000000000000000815260040161097290614929565b73ffffffffffffffffffffffffffffffffffffffff821661215a576040517f08c379a000000000000000000000000000000000000000000000000000000000815260040161097290614749565b73ffffffffffffffffffffffffffffffffffffffff821660008181526005602052604080822080547fffffffffffffffffffffffffffffffffffffffffffffffffffffffffffffff001685151590811790915590519092917f3d7902bc9a6665bd7caf4240b834bb805d3cd68256889e9f8d2e40a10be41d4491a35050565b60085473ffffffffffffffffffffffffffffffffffffffff16331461222a576040517f08c379a000000000000000000000000000000000000000000000000000000000815260040161097290614929565b60008111612264576040517f08c379a000000000000000000000000000000000000000000000000000000000815260040161097290614b0b565b600e8190556040517ff84bf2b901cfc02956d4e69556d7448cef4ea13587e7714dba7c6d697091e7ad906109ef908390614b9f565b73ffffffffffffffffffffffffffffffffffffffff811660009081526003602052604081208054158015906122d35750600781015460ff16155b8015612305575073ffffffffffffffffffffffffffffffffffffffff831660009081526004602052604090205460ff16155b15611d6057600061231461239b565b61231c611930565b6123269190614c36565b9050600060075482846000015461233d9190614c87565b6123479190614c4e565b9050600083600201548261235b9190614cc4565b60135490915061236a87612b11565b1561237457506014545b60006127106123838385614c87565b61238d9190614c4e565b9650611d6695505050505050565b6000807f000000000000000000000000000000000000000000000000000000000000000073ffffffffffffffffffffffffffffffffffffffff1663c799b59d600b54306040518363ffffffff1660e01b81526004016123fb929190614ba8565b60206040518083038186803b15801561241357600080fd5b505afa158015612427573d6000803e3d6000fd5b505050506040513d601f19601f8201168201806040525081019061244b9190614189565b91505090565b6101f481565b60085473ffffffffffffffffffffffffffffffffffffffff1633146124a8576040517f08c379a000000000000000000000000000000000000000000000000000000000815260040161097290614929565b7f000000000000000000000000000000000000000000000000000000000000000073ffffffffffffffffffffffffffffffffffffffff168173ffffffffffffffffffffffffffffffffffffffff16141561252e576040517f08c379a00000000000000000000000000000000000000000000000000000000081526004016109729061451f565b6040517f70a0823100000000000000000000000000000000000000000000000000000000815260009073ffffffffffffffffffffffffffffffffffffffff8316906370a08231906125839030906004016141de565b60206040518083038186803b15801561259b57600080fd5b505afa1580156125af573d6000803e3d6000fd5b505050506040513d601f19601f820116820180604052508101906125d39190614189565b90506125f673ffffffffffffffffffffffffffffffffffffffff83163383613732565b5050565b60085473ffffffffffffffffffffffffffffffffffffffff16331461264b576040517f08c379a000000000000000000000000000000000000000000000000000000000815260040161097290614929565b73ffffffffffffffffffffffffffffffffffffffff8116612698576040517f08c379a000000000000000000000000000000000000000000000000000000000815260040161097290614749565b600180547fffffffffffffffffffffffff00000000000000000000000000000000000000001673ffffffffffffffffffffffffffffffffffffffff83811691909117918290556040517f8f49a182922022d9119a1a6aeeca151b4a5665e86bd61c1ff32e152d459558b2926109ef9216906141de565b60185481565b60015473ffffffffffffffffffffffffffffffffffffffff1681565b612738612b17565b60008211806127475750600081115b61277d576040517f08c379a00000000000000000000000000000000000000000000000000000000081526004016109729061431b565b6125f6828233612f29565b60105481565b60165481565b600c5481565b60155481565b6127a86129d7565b73ffffffffffffffffffffffffffffffffffffffff81166127f5576040517f08c379a000000000000000000000000000000000000000000000000000000000815260040161097290614749565b600980547fffffffffffffffffffffffff00000000000000000000000000000000000000001673ffffffffffffffffffffffffffffffffffffffff83811691909117918290556040517fafa147634b29e2c7bd53ce194256b9f41cfb9ba3036f2b822fdd1d965beea086926109ef9216906141de565b6128736129d7565b73ffffffffffffffffffffffffffffffffffffffff81166128c0576040517f08c379a0000000000000000000000000000000000000000000000000000000008152600401610972906143c0565b6110228161364d565b60085473ffffffffffffffffffffffffffffffffffffffff16331461291a576040517f08c379a000000000000000000000000000000000000000000000000000000000815260040161097290614929565b6305265c00811115612958576040517f08c379a000000000000000000000000000000000000000000000000000000000815260040161097290614897565b600f8190556040517fcab2f3455b51b6ca5377e84fccd0f890b6f6ca36c02e18b6d36cb34f469fe4fe906109ef908390614b9f565b60085473ffffffffffffffffffffffffffffffffffffffff1681565b7f000000000000000000000000000000000000000000000000000000000000000081565b652d79883d200081565b6129df613751565b73ffffffffffffffffffffffffffffffffffffffff166129fd611b0f565b73ffffffffffffffffffffffffffffffffffffffff161461192e576040517f08c379a0000000000000000000000000000000000000000000000000000000008152600401610972906148f4565b612aed846323b872dd60e01b858585604051602401612a6b939291906141ff565b604080517fffffffffffffffffffffffffffffffffffffffffffffffffffffffffffffffe08184030181529190526020810180517bffffffffffffffffffffffffffffffffffffffffffffffffffffffff167fffffffff0000000000000000000000000000000000000000000000000000000090931692909217909152613755565b50505050565b6000612afe82611bfa565b612b0783612299565b610fc89190614c36565b3b151590565b612b1f61160d565b1561192e576040517f08c379a000000000000000000000000000000000000000000000000000000000815260040161097290614712565b3360009081526003602052604090208054831115612ba0576040517f08c379a00000000000000000000000000000000000000000000000000000000081526004016109729061457c565b42816005015410612bdd576040517f08c379a000000000000000000000000000000000000000000000000000000000815260040161097290614454565b60025473ffffffffffffffffffffffffffffffffffffffff1615612c84576002546040517f51cff8d900000000000000000000000000000000000000000000000000000000815273ffffffffffffffffffffffffffffffffffffffff909116906351cff8d990612c519033906004016141de565b600060405180830381600087803b158015612c6b57600080fd5b505af1158015612c7f573d6000803e3d6000fd5b505050505b80548390600090612ca16b204fce5e3e2502611000000084614c87565b612cab9190614c4e565b9050612cb561380b565b612cbe336139e2565b84158015612ccc5750600084115b15612d0d576000612cdb611930565b90508060075486612cec9190614c87565b612cf69190614c4e565b8454909350831115612d0757835492505b50612d34565b82546b204fce5e3e2502611000000090612d279083614c87565b612d319190614c4e565b91505b600060075483612d42611930565b612d4c9190614c87565b612d569190614c4e565b905082846000016000828254612d6c9190614cc4565b925050819055508260076000828254612d859190614cc4565b90915550503360009081526005602052604090205460ff16158015612dba57506018548460010154612db79190614c36565b42105b15612e4757601554612dcb33612b11565b15612dd557506016545b6000612710612de48385614c87565b612dee9190614c4e565b600954909150612e389073ffffffffffffffffffffffffffffffffffffffff7f00000000000000000000000000000000000000000000000000000000000000008116911683613732565b612e428184614cc4565b925050505b612e8873ffffffffffffffffffffffffffffffffffffffff7f0000000000000000000000000000000000000000000000000000000000000000163383613732565b835415612eba57600754612e9a611930565b8554612ea69190614c87565b612eb09190614c4e565b6002850155612ec2565b600060028501555b426003850155612ed133613e53565b3373ffffffffffffffffffffffffffffffffffffffff167ff279e6a1f5e320cca91135676d9cb6e44ca8a08c0b88342bcdb1144f6511b5688285604051612f19929190614bcc565b60405180910390a2505050505050565b73ffffffffffffffffffffffffffffffffffffffff8116600090815260036020526040902080541580612f5c5750600084115b15612fa0576509184e72a0008411612fa0576040517f08c379a00000000000000000000000000000000000000000000000000000000081526004016109729061483a565b600581015483904211612ffe578415612fdd574260048301556008820154600d8054600090612fd0908490614cc4565b9091555050600060088301555b81600401548260050154612ff19190614cc4565b612ffb9082614c36565b90505b83158061300e575062093a808110155b613044576040517f08c379a000000000000000000000000000000000000000000000000000000000815260040161097290614621565b600f54811115613080576040517f08c379a0000000000000000000000000000000000000000000000000000000008152600401610972906145b3565b60025473ffffffffffffffffffffffffffffffffffffffff161561312b576002546040517f0efe6a8b00000000000000000000000000000000000000000000000000000000815273ffffffffffffffffffffffffffffffffffffffff90911690630efe6a8b906130f890869089908990600401614256565b600060405180830381600087803b15801561311257600080fd5b505af1158015613126573d6000803e3d6000fd5b505050505b61313361380b565b6007546131905760006131446113ac565b60095490915061318e9073ffffffffffffffffffffffffffffffffffffffff7f00000000000000000000000000000000000000000000000000000000000000008116911683613732565b505b613199836139e2565b83156132105742826005015410156131c85742600483018190556131be908590614c36565b60058301556131e2565b838260050160008282546131dc9190614c36565b90915550505b6007820180547fffffffffffffffffffffffffffffffffffffffffffffffffffffffffffffff001660011790555b60008060008061321e611930565b9050881561326c5761326873ffffffffffffffffffffffffffffffffffffffff7f00000000000000000000000000000000000000000000000000000000000000001688308c612a4a565b8892505b8554158015906132805750600786015460ff165b156132f95760075486546132949083614c87565b61329e9190614c4e565b91506132aa8284614c36565b92508560000154600760008282546132c29190614cc4565b90915550506000865560048601544214156132f95760088601829055600d80548391906000906132f3908490614c36565b90915550505b600754156133295761330b8282614cc4565b6007546133189085614c87565b6133229190614c4e565b935061332d565b8293505b8560040154866005015411156134b0576000601054601254886004015489600501546133599190614cc4565b6133639190614c87565b61336d9190614c4e565b9050600064e8d4a510006133818784614c87565b61338b9190614c4e565b90506133978187614c36565b9550858860000160008282546133ad9190614c36565b909155506000905064e8d4a510006133c58785614c87565b6133cf9190614c4e565b9050808960060160008282546133e59190614c36565b9250508190555080600c60008282546133fe9190614c36565b925050819055508b8960080160008282546134199190614c36565b925050819055508b600d60008282546134329190614c36565b925050819055508973ffffffffffffffffffffffffffffffffffffffff167f2b943276e5d747f6f7dd46d3b880d8874cb8d6b9b88ca1903990a2738e7dc7a18a600801548b600001548c600401548d6005015461348f9190614cc4565b426040516134a09493929190614bda565b60405180910390a25050506134ca565b838660000160008282546134c49190614c36565b90915550505b60008911806134d95750600088115b156134e5574260018701555b83600760008282546134f79190614c36565b9091555050600686015460075461350c611930565b88546135189190614c87565b6135229190614c4e565b61352c9190614cc4565b600287015542600387015561354087613e53565b8673ffffffffffffffffffffffffffffffffffffffff167f7162984403f6c73c8639375d45a9187dfd04602231bd8e587c415718b5f7e5f98a868b4260405161358c9493929190614bda565b60405180910390a2505050505050505050565b6135a761160d565b61192e576040517f08c379a000000000000000000000000000000000000000000000000000000000815260040161097290614352565b6135e561359f565b600080547fffffffffffffffffffffff00ffffffffffffffffffffffffffffffffffffffff1690557f5db9ee0a495bf2e6ff9c91a7834c1ba4fdd244a5e8aa4e537bd38aeae4b073aa613636613751565b60405161364391906141de565b60405180910390a1565b6000805473ffffffffffffffffffffffffffffffffffffffff8381167fffffffffffffffffffffffff0000000000000000000000000000000000000000831681178455604051919092169283917f8be0079c531659141344cd1fd0a4f28419497f9722a3daafe3b4186f6b6457e09190a35050565b6136ca612b17565b600080547fffffffffffffffffffffff00ffffffffffffffffffffffffffffffffffffffff16740100000000000000000000000000000000000000001790557f62e78cea01bee320cd4e420270b5ea74000d11b0c9f74754ebdbfc544b05a258613636613751565b61111d8363a9059cbb60e01b8484604051602401612a6b929190614230565b3390565b60006137b7826040518060400160405280602081526020017f5361666545524332303a206c6f772d6c6576656c2063616c6c206661696c65648152508573ffffffffffffffffffffffffffffffffffffffff16613f4d9092919063ffffffff16565b80519091501561111d57808060200190518101906137d59190614155565b61111d576040517f08c379a000000000000000000000000000000000000000000000000000000000815260040161097290614a51565b600b546040517fc799b59d00000000000000000000000000000000000000000000000000000000815260009173ffffffffffffffffffffffffffffffffffffffff7f0000000000000000000000000000000000000000000000000000000000000000169163c799b59d91613883913090600401614ba8565b60206040518083038186803b15801561389b57600080fd5b505afa1580156138af573d6000803e3d6000fd5b505050506040513d601f19601f820116820180604052508101906138d39190614189565b905080156110225760006138e56113ac565b600b546040517f441a3e7000000000000000000000000000000000000000000000000000000000815291925073ffffffffffffffffffffffffffffffffffffffff7f0000000000000000000000000000000000000000000000000000000000000000169163441a3e709161395e91600090600401614bcc565b600060405180830381600087803b15801561397857600080fd5b505af115801561398c573d6000803e3d6000fd5b50505050600061399a6113ac565b9050337fc9695243a805adb74c91f28311176c65b417e842d5699893cef56d18bfa48cba6139c88484614cc4565b6040516139d59190614b9f565b60405180910390a2505050565b73ffffffffffffffffffffffffffffffffffffffff811660009081526003602052604090208054156125f657600781015460ff1615613cda57600081600601546007548360000154613a32611930565b613a3c9190614c87565b613a469190614c4e565b613a509190614cc4565b90508160060154600c6000828254613a689190614cc4565b909155505060006006830181905582546007805491929091613a8b908490614cc4565b909155505073ffffffffffffffffffffffffffffffffffffffff831660009081526006602052604090205460ff16158015613ad6575042600e548360050154613ad49190614c36565b105b15613bb5576000826008015482613aed9190614cc4565b90506000600e54846005015442613b049190614cc4565b613b0e9190614cc4565b9050601154811115613b1f57506011545b600060115460175483613b329190614c87565b613b3c9190614c4e565b9050600064e8d4a51000613b508386614c87565b613b5a9190614c4e565b600954909150613ba49073ffffffffffffffffffffffffffffffffffffffff7f00000000000000000000000000000000000000000000000000000000000000008116911683613732565b613bae8186614cc4565b9450505050505b6000613bbf611930565b90506000600754600014613bf557613bd78383614cc4565b600754613be49085614c87565b613bee9190614c4e565b9050613bf8565b50815b80845560078054829190600090613c10908490614c36565b90915550506005840154421115613cd2576007840180547fffffffffffffffffffffffffffffffffffffffffffffffffffffffffffffff00169055600060048501819055600585018190556008850154600d805491929091613c73908490614cc4565b90915550506000600885015560405173ffffffffffffffffffffffffffffffffffffffff8616907ff7870c5b224cbc19873599e46ccfc7103934650509b1af0c3ce90138377c200490613cc99086904290614bcc565b60405180910390a25b5050506125f6565b73ffffffffffffffffffffffffffffffffffffffff821660009081526004602052604090205460ff166125f6576000600754613d14611930565b8354613d209190614c87565b613d2a9190614c4e565b9050816000015460076000828254613d429190614cc4565b909155505060008083556002830154613d5b9083614cc4565b601354909150613d6a85612b11565b15613d7457506014545b6000612710613d838385614c87565b613d8d9190614c4e565b90508015613de957600954613ddc9073ffffffffffffffffffffffffffffffffffffffff7f00000000000000000000000000000000000000000000000000000000000000008116911683613732565b613de68185614cc4565b93505b6000613df3611930565b90506000600754600014613e2957613e0b8683614cc4565b600754613e189088614c87565b613e229190614c4e565b9050613e2c565b50845b80875560078054829190600090613e44908490614c36565b90915550505050505050505050565b60015473ffffffffffffffffffffffffffffffffffffffff16156110225773ffffffffffffffffffffffffffffffffffffffff8116600090815260036020526040812060048101546005820154919291613ead9190614cc4565b6001546008840154600d546010546040517f87356ef700000000000000000000000000000000000000000000000000000000815294955073ffffffffffffffffffffffffffffffffffffffff909316936387356ef793613f169389939092889290600401614284565b600060405180830381600087803b158015613f3057600080fd5b505af1158015613f44573d6000803e3d6000fd5b50505050505050565b6060613f5c8484600085613f66565b90505b9392505050565b606082471015613fa2576040517f08c379a000000000000000000000000000000000000000000000000000000000815260040161097290614658565b613fab85614067565b613fe1576040517f08c379a0000000000000000000000000000000000000000000000000000000008152600401610972906149bd565b6000808673ffffffffffffffffffffffffffffffffffffffff16858760405161400a91906141c2565b60006040518083038185875af1925050503d8060008114614047576040519150601f19603f3d011682016040523d82523d6000602084013e61404c565b606091505b509150915061405c828286614083565b979650505050505050565b73ffffffffffffffffffffffffffffffffffffffff163b151590565b60608315614092575081613f5f565b8251156140a25782518084602001fd5b816040517f08c379a000000000000000000000000000000000000000000000000000000000815260040161097291906142ca565b6000602082840312156140e7578081fd5b8135613f5f81614d36565b60008060408385031215614104578081fd5b823561410f81614d36565b9150602083013561411f81614d58565b809150509250929050565b6000806040838503121561413c578182fd5b823561414781614d36565b946020939093013593505050565b600060208284031215614166578081fd5b8151613f5f81614d58565b600060208284031215614182578081fd5b5035919050565b60006020828403121561419a578081fd5b5051919050565b600080604083850312156141b3578182fd5b50508035926020909101359150565b600082516141d4818460208701614cdb565b9190910192915050565b73ffffffffffffffffffffffffffffffffffffffff91909116815260200190565b73ffffffffffffffffffffffffffffffffffffffff9384168152919092166020820152604081019190915260600190565b73ffffffffffffffffffffffffffffffffffffffff929092168252602082015260400190565b73ffffffffffffffffffffffffffffffffffffffff9390931683526020830191909152604082015260600190565b73ffffffffffffffffffffffffffffffffffffffff959095168552602085019390935260408401919091526060830152608082015260a00190565b901515815260200190565b60006020825282518060208401526142e9816040850160208701614cdb565b601f017fffffffffffffffffffffffffffffffffffffffffffffffffffffffffffffffe0169190910160400192915050565b60208082526012908201527f4e6f7468696e6720746f206465706f7369740000000000000000000000000000604082015260600190565b60208082526014908201527f5061757361626c653a206e6f7420706175736564000000000000000000000000604082015260600190565b60208082526013908201527f4e6f7468696e6720746f20776974686472617700000000000000000000000000604082015260600190565b60208082526026908201527f4f776e61626c653a206e6577206f776e657220697320746865207a65726f206160408201527f6464726573730000000000000000000000000000000000000000000000000000606082015260800190565b6020808252601e908201527f4455524154494f4e5f464143544f522063616e6e6f74206265207a65726f0000604082015260600190565b6020808252600d908201527f5374696c6c20696e206c6f636b00000000000000000000000000000000000000604082015260600190565b60208082526033908201527f424f4f53545f5745494748542063616e6e6f74206265206d6f7265207468616e60408201527f20424f4f53545f5745494748545f4c494d495400000000000000000000000000606082015260800190565b60208082526015908201527f42616c616e6365206d7573742065786365656420300000000000000000000000604082015260600190565b60208082526025908201527f546f6b656e2063616e6e6f742062652073616d65206173206465706f7369742060408201527f746f6b656e000000000000000000000000000000000000000000000000000000606082015260800190565b6020808252601f908201527f576974686472617720616d6f756e7420657863656564732062616c616e636500604082015260600190565b6020808252601c908201527f4d6178696d756d206c6f636b20706572696f6420657863656564656400000000604082015260600190565b6020808252601a908201527f4e6f74206f70657261746f72206f722053686477206f776e6572000000000000604082015260600190565b6020808252601f908201527f4d696e696d756d206c6f636b20706572696f64206973206f6e65207765656b00604082015260600190565b60208082526026908201527f416464726573733a20696e73756666696369656e742062616c616e636520666f60408201527f722063616c6c0000000000000000000000000000000000000000000000000000606082015260800190565b60208082526036908201527f706572666f726d616e63654665652063616e6e6f74206265206d6f726520746860408201527f616e204d41585f504552464f524d414e43455f46454500000000000000000000606082015260800190565b60208082526010908201527f5061757361626c653a2070617573656400000000000000000000000000000000604082015260600190565b60208082526016908201527f43616e6e6f74206265207a65726f206164647265737300000000000000000000604082015260600190565b60208082526026908201527f4455524154494f4e5f464143544f525f4f5645524455452063616e6e6f74206260408201527f65207a65726f0000000000000000000000000000000000000000000000000000606082015260800190565b6020808252602e908201527f6f7665726475654665652063616e6e6f74206265206d6f7265207468616e204d60408201527f41585f4f5645524455455f464545000000000000000000000000000000000000606082015260800190565b60208082526036908201527f4465706f73697420616d6f756e74206d7573742062652067726561746572207460408201527f68616e204d494e5f4445504f5349545f414d4f554e5400000000000000000000606082015260800190565b6020808252603d908201527f4d41585f4c4f434b5f4455524154494f4e2063616e6e6f74206265206d6f726560408201527f207468616e204d41585f4c4f434b5f4455524154494f4e5f4c494d4954000000606082015260800190565b6020808252818101527f4f776e61626c653a2063616c6c6572206973206e6f7420746865206f776e6572604082015260600190565b6020808252600b908201527f61646d696e3a207775743f000000000000000000000000000000000000000000604082015260600190565b60208082526038908201527f576974686472617720616d6f756e74206d75737420626520677265617465722060408201527f7468616e204d494e5f57495448445241575f414d4f554e540000000000000000606082015260800190565b6020808252601d908201527f416464726573733a2063616c6c20746f206e6f6e2d636f6e7472616374000000604082015260600190565b6020808252603d908201527f7769746864726177466565506572696f642063616e6e6f74206265206d6f726560408201527f207468616e204d41585f57495448445241575f4645455f504552494f44000000606082015260800190565b6020808252602a908201527f5361666545524332303a204552433230206f7065726174696f6e20646964206e60408201527f6f74207375636365656400000000000000000000000000000000000000000000606082015260800190565b60208082526030908201527f77697468647261774665652063616e6e6f74206265206d6f7265207468616e2060408201527f4d41585f57495448445241575f46454500000000000000000000000000000000606082015260800190565b60208082526023908201527f554e4c4f434b5f465245455f4455524154494f4e2063616e6e6f74206265207a60408201527f65726f0000000000000000000000000000000000000000000000000000000000606082015260800190565b60208082526011908201527f43616e6e6f7420756e6c6f636b20796574000000000000000000000000000000604082015260600190565b90815260200190565b91825273ffffffffffffffffffffffffffffffffffffffff16602082015260400190565b918252602082015260400190565b93845260208401929092526040830152606082015260800190565b988952602089019790975260408801959095526060870193909352608086019190915260a085015260c0840152151560e08301526101008201526101200190565b60008219821115614c4957614c49614d07565b500190565b600082614c82577f4e487b710000000000000000000000000000000000000000000000000000000081526012600452602481fd5b500490565b6000817fffffffffffffffffffffffffffffffffffffffffffffffffffffffffffffffff0483118215151615614cbf57614cbf614d07565b500290565b600082821015614cd657614cd6614d07565b500390565b60005b83811015614cf6578181015183820152602001614cde565b83811115612aed5750506000910152565b7f4e487b7100000000000000000000000000000000000000000000000000000000600052601160045260246000fd5b73ffffffffffffffffffffffffffffffffffffffff8116811461102257600080fd5b801515811461102257600080fdfea26469706673582212209148be7dbd4a79d027a9f9903f87a5cb14661085db3d662088dd1dffc4d82e9664736f6c63430008010033",
			"opcodes": "PUSH1 0xC0 PUSH1 0x40 MSTORE PUSH3 0x93A80 PUSH1 0xE SSTORE PUSH4 0x1E13380 PUSH1 0xF SSTORE PUSH4 0x1E13380 PUSH1 0x10 SSTORE PUSH3 0xED4E00 PUSH1 0x11 SSTORE PUSH5 0xE8D4A51000 PUSH1 0x12 SSTORE PUSH1 0xC8 PUSH1 0x13 SSTORE PUSH1 0xC8 PUSH1 0x14 SSTORE PUSH1 0xA PUSH1 0x15 SSTORE PUSH1 0xA PUSH1 0x16 SSTORE PUSH5 0xE8D4A51000 PUSH1 0x17 SSTORE PUSH3 0x3F480 PUSH1 0x18 SSTORE CALLVALUE DUP1 ISZERO PUSH3 0x5C JUMPI PUSH1 0x0 DUP1 REVERT JUMPDEST POP PUSH1 0x40 MLOAD PUSH3 0x5021 CODESIZE SUB DUP1 PUSH3 0x5021 DUP4 CODECOPY DUP2 ADD PUSH1 0x40 DUP2 SWAP1 MSTORE PUSH3 0x7F SWAP2 PUSH3 0x157 JUMP JUMPDEST PUSH3 0x93 PUSH3 0x8D PUSH3 0x103 JUMP JUMPDEST PUSH3 0x107 JUMP JUMPDEST PUSH1 0x0 DUP1 SLOAD PUSH1 0xFF PUSH1 0xA0 SHL NOT AND SWAP1 SSTORE PUSH1 0x1 PUSH1 0x1 PUSH1 0x60 SHL SUB NOT PUSH1 0x60 SWAP7 DUP8 SHL DUP2 AND PUSH1 0x80 MSTORE SWAP5 SWAP1 SWAP6 SHL SWAP1 SWAP4 AND PUSH1 0xA0 MSTORE PUSH1 0x8 DUP1 SLOAD PUSH1 0x1 PUSH1 0x1 PUSH1 0xA0 SHL SUB SWAP4 DUP5 AND PUSH1 0x1 PUSH1 0x1 PUSH1 0xA0 SHL SUB NOT SWAP2 DUP3 AND OR SWAP1 SWAP2 SSTORE PUSH1 0x9 DUP1 SLOAD SWAP3 DUP5 AND SWAP3 DUP3 AND SWAP3 SWAP1 SWAP3 OR SWAP1 SWAP2 SSTORE PUSH1 0xA DUP1 SLOAD SWAP3 SWAP1 SWAP4 AND SWAP2 AND OR SWAP1 SSTORE PUSH1 0xB SSTORE PUSH3 0x1F7 JUMP JUMPDEST CALLER SWAP1 JUMP JUMPDEST PUSH1 0x0 DUP1 SLOAD PUSH1 0x1 PUSH1 0x1 PUSH1 0xA0 SHL SUB DUP4 DUP2 AND PUSH1 0x1 PUSH1 0x1 PUSH1 0xA0 SHL SUB NOT DUP4 AND DUP2 OR DUP5 SSTORE PUSH1 0x40 MLOAD SWAP2 SWAP1 SWAP3 AND SWAP3 DUP4 SWAP2 PUSH32 0x8BE0079C531659141344CD1FD0A4F28419497F9722A3DAAFE3B4186F6B6457E0 SWAP2 SWAP1 LOG3 POP POP JUMP JUMPDEST PUSH1 0x0 DUP1 PUSH1 0x0 DUP1 PUSH1 0x0 DUP1 PUSH1 0xC0 DUP8 DUP10 SUB SLT ISZERO PUSH3 0x170 JUMPI DUP2 DUP3 REVERT JUMPDEST DUP7 MLOAD PUSH3 0x17D DUP2 PUSH3 0x1DE JUMP JUMPDEST PUSH1 0x20 DUP9 ADD MLOAD SWAP1 SWAP7 POP PUSH3 0x190 DUP2 PUSH3 0x1DE JUMP JUMPDEST PUSH1 0x40 DUP9 ADD MLOAD SWAP1 SWAP6 POP PUSH3 0x1A3 DUP2 PUSH3 0x1DE JUMP JUMPDEST PUSH1 0x60 DUP9 ADD MLOAD SWAP1 SWAP5 POP PUSH3 0x1B6 DUP2 PUSH3 0x1DE JUMP JUMPDEST PUSH1 0x80 DUP9 ADD MLOAD SWAP1 SWAP4 POP PUSH3 0x1C9 DUP2 PUSH3 0x1DE JUMP JUMPDEST DUP1 SWAP3 POP POP PUSH1 0xA0 DUP8 ADD MLOAD SWAP1 POP SWAP3 SWAP6 POP SWAP3 SWAP6 POP SWAP3 SWAP6 JUMP JUMPDEST PUSH1 0x1 PUSH1 0x1 PUSH1 0xA0 SHL SUB DUP2 AND DUP2 EQ PUSH3 0x1F4 JUMPI PUSH1 0x0 DUP1 REVERT JUMPDEST POP JUMP JUMPDEST PUSH1 0x80 MLOAD PUSH1 0x60 SHR PUSH1 0xA0 MLOAD PUSH1 0x60 SHR PUSH2 0x4D9C PUSH3 0x285 PUSH1 0x0 CODECOPY PUSH1 0x0 DUP2 DUP2 PUSH2 0xC60 ADD MSTORE DUP2 DUP2 PUSH2 0xD1D ADD MSTORE DUP2 DUP2 PUSH2 0x208E ADD MSTORE DUP2 DUP2 PUSH2 0x23A0 ADD MSTORE DUP2 DUP2 PUSH2 0x384E ADD MSTORE PUSH2 0x3928 ADD MSTORE PUSH1 0x0 DUP2 DUP2 PUSH2 0x13EC ADD MSTORE DUP2 DUP2 PUSH2 0x1937 ADD MSTORE DUP2 DUP2 PUSH2 0x24AA ADD MSTORE DUP2 DUP2 PUSH2 0x29AB ADD MSTORE DUP2 DUP2 PUSH2 0x2E0F ADD MSTORE DUP2 DUP2 PUSH2 0x2E61 ADD MSTORE DUP2 DUP2 PUSH2 0x3165 ADD MSTORE DUP2 DUP2 PUSH2 0x3240 ADD MSTORE DUP2 DUP2 PUSH2 0x3B7B ADD MSTORE PUSH2 0x3DB3 ADD MSTORE PUSH2 0x4D9C PUSH1 0x0 RETURN INVALID PUSH1 0x80 PUSH1 0x40 MSTORE CALLVALUE DUP1 ISZERO PUSH2 0x10 JUMPI PUSH1 0x0 DUP1 REVERT JUMPDEST POP PUSH1 0x4 CALLDATASIZE LT PUSH2 0x514 JUMPI PUSH1 0x0 CALLDATALOAD PUSH1 0xE0 SHR DUP1 PUSH4 0x87788782 GT PUSH2 0x2A1 JUMPI DUP1 PUSH4 0xC6ED51BE GT PUSH2 0x16B JUMPI DUP1 PUSH4 0xE464C623 GT PUSH2 0xE3 JUMPI DUP1 PUSH4 0xF2FDE38B GT PUSH2 0x97 JUMPI DUP1 PUSH4 0xF851A440 GT PUSH2 0x7C JUMPI DUP1 PUSH4 0xF851A440 EQ PUSH2 0x8FB JUMPI DUP1 PUSH4 0xFC0C546A EQ PUSH2 0x903 JUMPI DUP1 PUSH4 0xFD253B64 EQ PUSH2 0x90B JUMPI PUSH2 0x514 JUMP JUMPDEST DUP1 PUSH4 0xF2FDE38B EQ PUSH2 0x8D5 JUMPI DUP1 PUSH4 0xF786B958 EQ PUSH2 0x8E8 JUMPI PUSH2 0x514 JUMP JUMPDEST DUP1 PUSH4 0xE73008BC GT PUSH2 0xC8 JUMPI DUP1 PUSH4 0xE73008BC EQ PUSH2 0x8B2 JUMPI DUP1 PUSH4 0xE941FA78 EQ PUSH2 0x8BA JUMPI DUP1 PUSH4 0xF0F44260 EQ PUSH2 0x8C2 JUMPI PUSH2 0x514 JUMP JUMPDEST DUP1 PUSH4 0xE464C623 EQ PUSH2 0x8A2 JUMPI DUP1 PUSH4 0xE4B37EF5 EQ PUSH2 0x8AA JUMPI PUSH2 0x514 JUMP JUMPDEST DUP1 PUSH4 0xDEF68A9C GT PUSH2 0x13A JUMPI DUP1 PUSH4 0xDF10B4E6 GT PUSH2 0x11F JUMPI DUP1 PUSH4 0xDF10B4E6 EQ PUSH2 0x87F JUMPI DUP1 PUSH4 0xDFCEDEEE EQ PUSH2 0x887 JUMPI DUP1 PUSH4 0xE2BBB158 EQ PUSH2 0x88F JUMPI PUSH2 0x514 JUMP JUMPDEST DUP1 PUSH4 0xDEF68A9C EQ PUSH2 0x859 JUMPI DUP1 PUSH4 0xDEF7869D EQ PUSH2 0x86C JUMPI PUSH2 0x514 JUMP JUMPDEST DUP1 PUSH4 0xC6ED51BE EQ PUSH2 0x836 JUMPI DUP1 PUSH4 0xCC9CFBA1 EQ PUSH2 0x849 JUMPI DUP1 PUSH4 0xCCD34CD5 EQ PUSH2 0x779 JUMPI DUP1 PUSH4 0xD4B0DE2F EQ PUSH2 0x851 JUMPI PUSH2 0x514 JUMP JUMPDEST DUP1 PUSH4 0xACAF88CD GT PUSH2 0x219 JUMPI DUP1 PUSH4 0xBC3D652A GT PUSH2 0x1CD JUMPI DUP1 PUSH4 0xBDCA9165 GT PUSH2 0x1B2 JUMPI DUP1 PUSH4 0xBDCA9165 EQ PUSH2 0x808 JUMPI DUP1 PUSH4 0xBEBA0FA0 EQ PUSH2 0x810 JUMPI DUP1 PUSH4 0xC54D349C EQ PUSH2 0x823 JUMPI PUSH2 0x514 JUMP JUMPDEST DUP1 PUSH4 0xBC3D652A EQ PUSH2 0x7F8 JUMPI DUP1 PUSH4 0xBC75F4B8 EQ PUSH2 0x800 JUMPI PUSH2 0x514 JUMP JUMPDEST DUP1 PUSH4 0xB6857844 GT PUSH2 0x1FE JUMPI DUP1 PUSH4 0xB6857844 EQ PUSH2 0x5A2 JUMPI DUP1 PUSH4 0xB6AC642A EQ PUSH2 0x7D2 JUMPI DUP1 PUSH4 0xBB9F408D EQ PUSH2 0x7E5 JUMPI PUSH2 0x514 JUMP JUMPDEST DUP1 PUSH4 0xACAF88CD EQ PUSH2 0x7B7 JUMPI DUP1 PUSH4 0xB3AB15FB EQ PUSH2 0x7BF JUMPI PUSH2 0x514 JUMP JUMPDEST DUP1 PUSH4 0x948A03F2 GT PUSH2 0x270 JUMPI DUP1 PUSH4 0xA3639B39 GT PUSH2 0x255 JUMPI DUP1 PUSH4 0xA3639B39 EQ PUSH2 0x794 JUMPI DUP1 PUSH4 0xA5834E06 EQ PUSH2 0x7A7 JUMPI DUP1 PUSH4 0xAAADA5DA EQ PUSH2 0x7AF JUMPI PUSH2 0x514 JUMP JUMPDEST DUP1 PUSH4 0x948A03F2 EQ PUSH2 0x779 JUMPI DUP1 PUSH4 0x95DC14E1 EQ PUSH2 0x781 JUMPI PUSH2 0x514 JUMP JUMPDEST DUP1 PUSH4 0x87788782 EQ PUSH2 0x743 JUMPI DUP1 PUSH4 0x87D4BDA9 EQ PUSH2 0x74B JUMPI DUP1 PUSH4 0x8DA5CB5B EQ PUSH2 0x75E JUMPI DUP1 PUSH4 0x93C99E6A EQ PUSH2 0x766 JUMPI PUSH2 0x514 JUMP JUMPDEST DUP1 PUSH4 0x4E4DE1E9 GT PUSH2 0x3E2 JUMPI DUP1 PUSH4 0x668679BA GT PUSH2 0x35A JUMPI DUP1 PUSH4 0x731FF24A GT PUSH2 0x30E JUMPI DUP1 PUSH4 0x78B4330F GT PUSH2 0x2F3 JUMPI DUP1 PUSH4 0x78B4330F EQ PUSH2 0x5D0 JUMPI DUP1 PUSH4 0x8456CB59 EQ PUSH2 0x733 JUMPI DUP1 PUSH4 0x853828B6 EQ PUSH2 0x73B JUMPI PUSH2 0x514 JUMP JUMPDEST DUP1 PUSH4 0x731FF24A EQ PUSH2 0x723 JUMPI DUP1 PUSH4 0x77C7B8FC EQ PUSH2 0x72B JUMPI PUSH2 0x514 JUMP JUMPDEST DUP1 PUSH4 0x70897B23 GT PUSH2 0x33F JUMPI DUP1 PUSH4 0x70897B23 EQ PUSH2 0x700 JUMPI DUP1 PUSH4 0x715018A6 EQ PUSH2 0x713 JUMPI DUP1 PUSH4 0x722713F7 EQ PUSH2 0x71B JUMPI PUSH2 0x514 JUMP JUMPDEST DUP1 PUSH4 0x668679BA EQ PUSH2 0x6DA JUMPI DUP1 PUSH4 0x704B6C02 EQ PUSH2 0x6ED JUMPI PUSH2 0x514 JUMP JUMPDEST DUP1 PUSH4 0x570CA735 GT PUSH2 0x3B1 JUMPI DUP1 PUSH4 0x61D027B3 GT PUSH2 0x396 JUMPI DUP1 PUSH4 0x61D027B3 EQ PUSH2 0x6B7 JUMPI DUP1 PUSH4 0x61FA6368 EQ PUSH2 0x6BF JUMPI DUP1 PUSH4 0x62122F5A EQ PUSH2 0x6C7 JUMPI PUSH2 0x514 JUMP JUMPDEST DUP1 PUSH4 0x570CA735 EQ PUSH2 0x69A JUMPI DUP1 PUSH4 0x5C975ABB EQ PUSH2 0x6AF JUMPI PUSH2 0x514 JUMP JUMPDEST DUP1 PUSH4 0x4E4DE1E9 EQ PUSH2 0x664 JUMPI DUP1 PUSH4 0x4F1BFC9E EQ PUSH2 0x677 JUMPI DUP1 PUSH4 0x51FB26DF EQ PUSH2 0x67F JUMPI DUP1 PUSH4 0x5521E9BF EQ PUSH2 0x687 JUMPI PUSH2 0x514 JUMP JUMPDEST DUP1 PUSH4 0x2CFC5F01 GT PUSH2 0x490 JUMPI DUP1 PUSH4 0x3EB78874 GT PUSH2 0x444 JUMPI DUP1 PUSH4 0x3FEC4E32 GT PUSH2 0x429 JUMPI DUP1 PUSH4 0x3FEC4E32 EQ PUSH2 0x629 JUMPI DUP1 PUSH4 0x423B93ED EQ PUSH2 0x649 JUMPI DUP1 PUSH4 0x48A0D754 EQ PUSH2 0x65C JUMPI PUSH2 0x514 JUMP JUMPDEST DUP1 PUSH4 0x3EB78874 EQ PUSH2 0x619 JUMPI DUP1 PUSH4 0x3F4BA83A EQ PUSH2 0x621 JUMPI PUSH2 0x514 JUMP JUMPDEST DUP1 PUSH4 0x2F6C493C GT PUSH2 0x475 JUMPI DUP1 PUSH4 0x2F6C493C EQ PUSH2 0x5EB JUMPI DUP1 PUSH4 0x35981921 EQ PUSH2 0x5FE JUMPI DUP1 PUSH4 0x3A98EF39 EQ PUSH2 0x611 JUMPI PUSH2 0x514 JUMP JUMPDEST DUP1 PUSH4 0x2CFC5F01 EQ PUSH2 0x5D0 JUMPI DUP1 PUSH4 0x2E1A7D4D EQ PUSH2 0x5D8 JUMPI PUSH2 0x514 JUMP JUMPDEST DUP1 PUSH4 0x1959A002 GT PUSH2 0x4E7 JUMPI DUP1 PUSH4 0x1EA30FEF GT PUSH2 0x4CC JUMPI DUP1 PUSH4 0x1EA30FEF EQ PUSH2 0x5A2 JUMPI DUP1 PUSH4 0x1EFAC1B8 EQ PUSH2 0x5AA JUMPI DUP1 PUSH4 0x29A5CFD6 EQ PUSH2 0x5BD JUMPI PUSH2 0x514 JUMP JUMPDEST DUP1 PUSH4 0x1959A002 EQ PUSH2 0x567 JUMPI DUP1 PUSH4 0x19AB453C EQ PUSH2 0x58F JUMPI PUSH2 0x514 JUMP JUMPDEST DUP1 PUSH4 0x1E81326 EQ PUSH2 0x519 JUMPI DUP1 PUSH4 0x5A9F274 EQ PUSH2 0x537 JUMPI DUP1 PUSH4 0xC59696B EQ PUSH2 0x53F JUMPI DUP1 PUSH4 0x14FF3039 EQ PUSH2 0x554 JUMPI JUMPDEST PUSH1 0x0 DUP1 REVERT JUMPDEST PUSH2 0x521 PUSH2 0x913 JUMP JUMPDEST PUSH1 0x40 MLOAD PUSH2 0x52E SWAP2 SWAP1 PUSH2 0x4B9F JUMP JUMPDEST PUSH1 0x40 MLOAD DUP1 SWAP2 SUB SWAP1 RETURN JUMPDEST PUSH2 0x521 PUSH2 0x91B JUMP JUMPDEST PUSH2 0x552 PUSH2 0x54D CALLDATASIZE PUSH1 0x4 PUSH2 0x4171 JUMP JUMPDEST PUSH2 0x921 JUMP JUMPDEST STOP JUMPDEST PUSH2 0x552 PUSH2 0x562 CALLDATASIZE PUSH1 0x4 PUSH2 0x4171 JUMP JUMPDEST PUSH2 0x9FA JUMP JUMPDEST PUSH2 0x57A PUSH2 0x575 CALLDATASIZE PUSH1 0x4 PUSH2 0x40D6 JUMP JUMPDEST PUSH2 0xABC JUMP JUMPDEST PUSH1 0x40 MLOAD PUSH2 0x52E SWAP10 SWAP9 SWAP8 SWAP7 SWAP6 SWAP5 SWAP4 SWAP3 SWAP2 SWAP1 PUSH2 0x4BF5 JUMP JUMPDEST PUSH2 0x552 PUSH2 0x59D CALLDATASIZE PUSH1 0x4 PUSH2 0x40D6 JUMP JUMPDEST PUSH2 0xB0E JUMP JUMPDEST PUSH2 0x521 PUSH2 0xDB2 JUMP JUMPDEST PUSH2 0x552 PUSH2 0x5B8 CALLDATASIZE PUSH1 0x4 PUSH2 0x4171 JUMP JUMPDEST PUSH2 0xDBC JUMP JUMPDEST PUSH2 0x521 PUSH2 0x5CB CALLDATASIZE PUSH1 0x4 PUSH2 0x412A JUMP JUMPDEST PUSH2 0xE7F JUMP JUMPDEST PUSH2 0x521 PUSH2 0xFCE JUMP JUMPDEST PUSH2 0x552 PUSH2 0x5E6 CALLDATASIZE PUSH1 0x4 PUSH2 0x4171 JUMP JUMPDEST PUSH2 0xFD5 JUMP JUMPDEST PUSH2 0x552 PUSH2 0x5F9 CALLDATASIZE PUSH1 0x4 PUSH2 0x40D6 JUMP JUMPDEST PUSH2 0x1025 JUMP JUMPDEST PUSH2 0x552 PUSH2 0x60C CALLDATASIZE PUSH1 0x4 PUSH2 0x4171 JUMP JUMPDEST PUSH2 0x1122 JUMP JUMPDEST PUSH2 0x521 PUSH2 0x11E2 JUMP JUMPDEST PUSH2 0x521 PUSH2 0x11E8 JUMP JUMPDEST PUSH2 0x552 PUSH2 0x11EE JUMP JUMPDEST PUSH2 0x63C PUSH2 0x637 CALLDATASIZE PUSH1 0x4 PUSH2 0x40D6 JUMP JUMPDEST PUSH2 0x127A JUMP JUMPDEST PUSH1 0x40 MLOAD PUSH2 0x52E SWAP2 SWAP1 PUSH2 0x42BF JUMP JUMPDEST PUSH2 0x552 PUSH2 0x657 CALLDATASIZE PUSH1 0x4 PUSH2 0x40F2 JUMP JUMPDEST PUSH2 0x128F JUMP JUMPDEST PUSH2 0x521 PUSH2 0x13AC JUMP JUMPDEST PUSH2 0x552 PUSH2 0x672 CALLDATASIZE PUSH1 0x4 PUSH2 0x40F2 JUMP JUMPDEST PUSH2 0x1476 JUMP JUMPDEST PUSH2 0x521 PUSH2 0x1593 JUMP JUMPDEST PUSH2 0x521 PUSH2 0x1599 JUMP JUMPDEST PUSH2 0x552 PUSH2 0x695 CALLDATASIZE PUSH1 0x4 PUSH2 0x4171 JUMP JUMPDEST PUSH2 0x159F JUMP JUMPDEST PUSH2 0x6A2 PUSH2 0x15F1 JUMP JUMPDEST PUSH1 0x40 MLOAD PUSH2 0x52E SWAP2 SWAP1 PUSH2 0x41DE JUMP JUMPDEST PUSH2 0x63C PUSH2 0x160D JUMP JUMPDEST PUSH2 0x6A2 PUSH2 0x162E JUMP JUMPDEST PUSH2 0x6A2 PUSH2 0x164A JUMP JUMPDEST PUSH2 0x552 PUSH2 0x6D5 CALLDATASIZE PUSH1 0x4 PUSH2 0x40D6 JUMP JUMPDEST PUSH2 0x1666 JUMP JUMPDEST PUSH2 0x63C PUSH2 0x6E8 CALLDATASIZE PUSH1 0x4 PUSH2 0x40D6 JUMP JUMPDEST PUSH2 0x177A JUMP JUMPDEST PUSH2 0x552 PUSH2 0x6FB CALLDATASIZE PUSH1 0x4 PUSH2 0x40D6 JUMP JUMPDEST PUSH2 0x178F JUMP JUMPDEST PUSH2 0x552 PUSH2 0x70E CALLDATASIZE PUSH1 0x4 PUSH2 0x4171 JUMP JUMPDEST PUSH2 0x185A JUMP JUMPDEST PUSH2 0x552 PUSH2 0x191C JUMP JUMPDEST PUSH2 0x521 PUSH2 0x1930 JUMP JUMPDEST PUSH2 0x521 PUSH2 0x19E8 JUMP JUMPDEST PUSH2 0x521 PUSH2 0x19F8 JUMP JUMPDEST PUSH2 0x552 PUSH2 0x1A4F JUMP JUMPDEST PUSH2 0x552 PUSH2 0x1ADB JUMP JUMPDEST PUSH2 0x521 PUSH2 0x1AF4 JUMP JUMPDEST PUSH2 0x63C PUSH2 0x759 CALLDATASIZE PUSH1 0x4 PUSH2 0x40D6 JUMP JUMPDEST PUSH2 0x1AFA JUMP JUMPDEST PUSH2 0x6A2 PUSH2 0x1B0F JUMP JUMPDEST PUSH2 0x552 PUSH2 0x774 CALLDATASIZE PUSH1 0x4 PUSH2 0x4171 JUMP JUMPDEST PUSH2 0x1B2B JUMP JUMPDEST PUSH2 0x521 PUSH2 0x1BF1 JUMP JUMPDEST PUSH2 0x521 PUSH2 0x78F CALLDATASIZE PUSH1 0x4 PUSH2 0x40D6 JUMP JUMPDEST PUSH2 0x1BFA JUMP JUMPDEST PUSH2 0x552 PUSH2 0x7A2 CALLDATASIZE PUSH1 0x4 PUSH2 0x4171 JUMP JUMPDEST PUSH2 0x1D6B JUMP JUMPDEST PUSH2 0x521 PUSH2 0x1E2B JUMP JUMPDEST PUSH2 0x521 PUSH2 0x1E31 JUMP JUMPDEST PUSH2 0x521 PUSH2 0x1E37 JUMP JUMPDEST PUSH2 0x552 PUSH2 0x7CD CALLDATASIZE PUSH1 0x4 PUSH2 0x40D6 JUMP JUMPDEST PUSH2 0x1E3D JUMP JUMPDEST PUSH2 0x552 PUSH2 0x7E0 CALLDATASIZE PUSH1 0x4 PUSH2 0x4171 JUMP JUMPDEST PUSH2 0x1F08 JUMP JUMPDEST PUSH2 0x552 PUSH2 0x7F3 CALLDATASIZE PUSH1 0x4 PUSH2 0x4171 JUMP JUMPDEST PUSH2 0x1FCA JUMP JUMPDEST PUSH2 0x6A2 PUSH2 0x208C JUMP JUMPDEST PUSH2 0x521 PUSH2 0x20B0 JUMP JUMPDEST PUSH2 0x521 PUSH2 0x20B6 JUMP JUMPDEST PUSH2 0x552 PUSH2 0x81E CALLDATASIZE PUSH1 0x4 PUSH2 0x40F2 JUMP JUMPDEST PUSH2 0x20BC JUMP JUMPDEST PUSH2 0x552 PUSH2 0x831 CALLDATASIZE PUSH1 0x4 PUSH2 0x4171 JUMP JUMPDEST PUSH2 0x21D9 JUMP JUMPDEST PUSH2 0x521 PUSH2 0x844 CALLDATASIZE PUSH1 0x4 PUSH2 0x40D6 JUMP JUMPDEST PUSH2 0x2299 JUMP JUMPDEST PUSH2 0x521 PUSH2 0x239B JUMP JUMPDEST PUSH2 0x521 PUSH2 0x2451 JUMP JUMPDEST PUSH2 0x552 PUSH2 0x867 CALLDATASIZE PUSH1 0x4 PUSH2 0x40D6 JUMP JUMPDEST PUSH2 0x2457 JUMP JUMPDEST PUSH2 0x552 PUSH2 0x87A CALLDATASIZE PUSH1 0x4 PUSH2 0x40D6 JUMP JUMPDEST PUSH2 0x25FA JUMP JUMPDEST PUSH2 0x521 PUSH2 0x270E JUMP JUMPDEST PUSH2 0x6A2 PUSH2 0x2714 JUMP JUMPDEST PUSH2 0x552 PUSH2 0x89D CALLDATASIZE PUSH1 0x4 PUSH2 0x41A1 JUMP JUMPDEST PUSH2 0x2730 JUMP JUMPDEST PUSH2 0x521 PUSH2 0x2788 JUMP JUMPDEST PUSH2 0x521 PUSH2 0x278E JUMP JUMPDEST PUSH2 0x521 PUSH2 0x2794 JUMP JUMPDEST PUSH2 0x521 PUSH2 0x279A JUMP JUMPDEST PUSH2 0x552 PUSH2 0x8D0 CALLDATASIZE PUSH1 0x4 PUSH2 0x40D6 JUMP JUMPDEST PUSH2 0x27A0 JUMP JUMPDEST PUSH2 0x552 PUSH2 0x8E3 CALLDATASIZE PUSH1 0x4 PUSH2 0x40D6 JUMP JUMPDEST PUSH2 0x286B JUMP JUMPDEST PUSH2 0x552 PUSH2 0x8F6 CALLDATASIZE PUSH1 0x4 PUSH2 0x4171 JUMP JUMPDEST PUSH2 0x28C9 JUMP JUMPDEST PUSH2 0x6A2 PUSH2 0x298D JUMP JUMPDEST PUSH2 0x6A2 PUSH2 0x29A9 JUMP JUMPDEST PUSH2 0x521 PUSH2 0x29CD JUMP JUMPDEST PUSH4 0x5265C00 DUP2 JUMP JUMPDEST PUSH1 0xD SLOAD DUP2 JUMP JUMPDEST PUSH1 0x8 SLOAD PUSH20 0xFFFFFFFFFFFFFFFFFFFFFFFFFFFFFFFFFFFFFFFF AND CALLER EQ PUSH2 0x97B JUMPI PUSH1 0x40 MLOAD PUSH32 0x8C379A000000000000000000000000000000000000000000000000000000000 DUP2 MSTORE PUSH1 0x4 ADD PUSH2 0x972 SWAP1 PUSH2 0x4929 JUMP JUMPDEST PUSH1 0x40 MLOAD DUP1 SWAP2 SUB SWAP1 REVERT JUMPDEST PUSH5 0xE8D4A51000 DUP2 GT ISZERO PUSH2 0x9BA JUMPI PUSH1 0x40 MLOAD PUSH32 0x8C379A000000000000000000000000000000000000000000000000000000000 DUP2 MSTORE PUSH1 0x4 ADD PUSH2 0x972 SWAP1 PUSH2 0x47DD JUMP JUMPDEST PUSH1 0x17 DUP2 SWAP1 SSTORE PUSH1 0x40 MLOAD PUSH32 0xF4BD1C5978320077E792AFBB3911E8CAB1325CE28A6B3E67F9067A1D80692961 SWAP1 PUSH2 0x9EF SWAP1 DUP4 SWAP1 PUSH2 0x4B9F JUMP JUMPDEST PUSH1 0x40 MLOAD DUP1 SWAP2 SUB SWAP1 LOG1 POP JUMP JUMPDEST PUSH1 0x8 SLOAD PUSH20 0xFFFFFFFFFFFFFFFFFFFFFFFFFFFFFFFFFFFFFFFF AND CALLER EQ PUSH2 0xA4B JUMPI PUSH1 0x40 MLOAD PUSH32 0x8C379A000000000000000000000000000000000000000000000000000000000 DUP2 MSTORE PUSH1 0x4 ADD PUSH2 0x972 SWAP1 PUSH2 0x4929 JUMP JUMPDEST PUSH2 0x1F4 DUP2 GT ISZERO PUSH2 0xA87 JUMPI PUSH1 0x40 MLOAD PUSH32 0x8C379A000000000000000000000000000000000000000000000000000000000 DUP2 MSTORE PUSH1 0x4 ADD PUSH2 0x972 SWAP1 PUSH2 0x4AAE JUMP JUMPDEST PUSH1 0x16 DUP2 SWAP1 SSTORE PUSH1 0x40 MLOAD PUSH32 0xCAB352E118188B8A2F20A2E8C4CE1241CE2C1740AAC4F17C5B0831E65824D8EF SWAP1 PUSH2 0x9EF SWAP1 DUP4 SWAP1 PUSH2 0x4B9F JUMP JUMPDEST PUSH1 0x3 PUSH1 0x20 DUP2 SWAP1 MSTORE PUSH1 0x0 SWAP2 DUP3 MSTORE PUSH1 0x40 SWAP1 SWAP2 KECCAK256 DUP1 SLOAD PUSH1 0x1 DUP3 ADD SLOAD PUSH1 0x2 DUP4 ADD SLOAD SWAP4 DUP4 ADD SLOAD PUSH1 0x4 DUP5 ADD SLOAD PUSH1 0x5 DUP6 ADD SLOAD PUSH1 0x6 DUP7 ADD SLOAD PUSH1 0x7 DUP8 ADD SLOAD PUSH1 0x8 SWAP1 SWAP8 ADD SLOAD SWAP6 SWAP8 SWAP5 SWAP7 SWAP5 SWAP6 SWAP4 SWAP5 SWAP3 SWAP4 SWAP2 SWAP3 SWAP1 SWAP2 PUSH1 0xFF SWAP1 SWAP2 AND SWAP1 DUP10 JUMP JUMPDEST PUSH2 0xB16 PUSH2 0x29D7 JUMP JUMPDEST PUSH1 0x40 MLOAD PUSH32 0x70A0823100000000000000000000000000000000000000000000000000000000 DUP2 MSTORE PUSH1 0x0 SWAP1 PUSH20 0xFFFFFFFFFFFFFFFFFFFFFFFFFFFFFFFFFFFFFFFF DUP4 AND SWAP1 PUSH4 0x70A08231 SWAP1 PUSH2 0xB6B SWAP1 CALLER SWAP1 PUSH1 0x4 ADD PUSH2 0x41DE JUMP JUMPDEST PUSH1 0x20 PUSH1 0x40 MLOAD DUP1 DUP4 SUB DUP2 DUP7 DUP1 EXTCODESIZE ISZERO DUP1 ISZERO PUSH2 0xB83 JUMPI PUSH1 0x0 DUP1 REVERT JUMPDEST POP GAS STATICCALL ISZERO DUP1 ISZERO PUSH2 0xB97 JUMPI RETURNDATASIZE PUSH1 0x0 DUP1 RETURNDATACOPY RETURNDATASIZE PUSH1 0x0 REVERT JUMPDEST POP POP POP POP PUSH1 0x40 MLOAD RETURNDATASIZE PUSH1 0x1F NOT PUSH1 0x1F DUP3 ADD AND DUP3 ADD DUP1 PUSH1 0x40 MSTORE POP DUP2 ADD SWAP1 PUSH2 0xBBB SWAP2 SWAP1 PUSH2 0x4189 JUMP JUMPDEST SWAP1 POP DUP1 PUSH2 0xBF4 JUMPI PUSH1 0x40 MLOAD PUSH32 0x8C379A000000000000000000000000000000000000000000000000000000000 DUP2 MSTORE PUSH1 0x4 ADD PUSH2 0x972 SWAP1 PUSH2 0x44E8 JUMP JUMPDEST PUSH2 0xC16 PUSH20 0xFFFFFFFFFFFFFFFFFFFFFFFFFFFFFFFFFFFFFFFF DUP4 AND CALLER ADDRESS DUP5 PUSH2 0x2A4A JUMP JUMPDEST PUSH1 0x40 MLOAD PUSH32 0x95EA7B300000000000000000000000000000000000000000000000000000000 DUP2 MSTORE PUSH20 0xFFFFFFFFFFFFFFFFFFFFFFFFFFFFFFFFFFFFFFFF DUP4 AND SWAP1 PUSH4 0x95EA7B3 SWAP1 PUSH2 0xC8A SWAP1 PUSH32 0x0 SWAP1 DUP6 SWAP1 PUSH1 0x4 ADD PUSH2 0x4230 JUMP JUMPDEST PUSH1 0x20 PUSH1 0x40 MLOAD DUP1 DUP4 SUB DUP2 PUSH1 0x0 DUP8 DUP1 EXTCODESIZE ISZERO DUP1 ISZERO PUSH2 0xCA4 JUMPI PUSH1 0x0 DUP1 REVERT JUMPDEST POP GAS CALL ISZERO DUP1 ISZERO PUSH2 0xCB8 JUMPI RETURNDATASIZE PUSH1 0x0 DUP1 RETURNDATACOPY RETURNDATASIZE PUSH1 0x0 REVERT JUMPDEST POP POP POP POP PUSH1 0x40 MLOAD RETURNDATASIZE PUSH1 0x1F NOT PUSH1 0x1F DUP3 ADD AND DUP3 ADD DUP1 PUSH1 0x40 MSTORE POP DUP2 ADD SWAP1 PUSH2 0xCDC SWAP2 SWAP1 PUSH2 0x4155 JUMP JUMPDEST POP PUSH1 0xB SLOAD PUSH1 0x40 MLOAD PUSH32 0xE2BBB15800000000000000000000000000000000000000000000000000000000 DUP2 MSTORE PUSH20 0xFFFFFFFFFFFFFFFFFFFFFFFFFFFFFFFFFFFFFFFF PUSH32 0x0 AND SWAP2 PUSH4 0xE2BBB158 SWAP2 PUSH2 0xD53 SWAP2 SWAP1 DUP6 SWAP1 PUSH1 0x4 ADD PUSH2 0x4BCC JUMP JUMPDEST PUSH1 0x0 PUSH1 0x40 MLOAD DUP1 DUP4 SUB DUP2 PUSH1 0x0 DUP8 DUP1 EXTCODESIZE ISZERO DUP1 ISZERO PUSH2 0xD6D JUMPI PUSH1 0x0 DUP1 REVERT JUMPDEST POP GAS CALL ISZERO DUP1 ISZERO PUSH2 0xD81 JUMPI RETURNDATASIZE PUSH1 0x0 DUP1 RETURNDATACOPY RETURNDATASIZE PUSH1 0x0 REVERT JUMPDEST POP POP PUSH1 0x40 MLOAD PUSH32 0x57A86F7D14CCDE89E22870AFE839E3011216827DAA9B24E18629F0A1E9D6CC14 SWAP3 POP PUSH1 0x0 SWAP2 POP LOG1 POP POP JUMP JUMPDEST PUSH6 0x9184E72A000 DUP2 JUMP JUMPDEST PUSH1 0x8 SLOAD PUSH20 0xFFFFFFFFFFFFFFFFFFFFFFFFFFFFFFFFFFFFFFFF AND CALLER EQ PUSH2 0xE0D JUMPI PUSH1 0x40 MLOAD PUSH32 0x8C379A000000000000000000000000000000000000000000000000000000000 DUP2 MSTORE PUSH1 0x4 ADD PUSH2 0x972 SWAP1 PUSH2 0x4929 JUMP JUMPDEST PUSH3 0x93A80 DUP2 GT ISZERO PUSH2 0xE4A JUMPI PUSH1 0x40 MLOAD PUSH32 0x8C379A000000000000000000000000000000000000000000000000000000000 DUP2 MSTORE PUSH1 0x4 ADD PUSH2 0x972 SWAP1 PUSH2 0x49F4 JUMP JUMPDEST PUSH1 0x18 DUP2 SWAP1 SSTORE PUSH1 0x40 MLOAD PUSH32 0xB89DDADDB7435BE26824CB48D2D0186C9525A2E1EC057ABCB502704CDC0686CC SWAP1 PUSH2 0x9EF SWAP1 DUP4 SWAP1 PUSH2 0x4B9F JUMP JUMPDEST PUSH20 0xFFFFFFFFFFFFFFFFFFFFFFFFFFFFFFFFFFFFFFFF DUP3 AND PUSH1 0x0 SWAP1 DUP2 MSTORE PUSH1 0x3 PUSH1 0x20 MSTORE PUSH1 0x40 DUP2 KECCAK256 DUP1 SLOAD DUP4 GT ISZERO PUSH2 0xEB2 JUMPI DUP1 SLOAD SWAP3 POP JUMPDEST CALLER PUSH1 0x0 SWAP1 DUP2 MSTORE PUSH1 0x5 PUSH1 0x20 MSTORE PUSH1 0x40 SWAP1 KECCAK256 SLOAD PUSH1 0xFF AND ISZERO DUP1 ISZERO PUSH2 0xEE2 JUMPI POP PUSH1 0x18 SLOAD DUP2 PUSH1 0x1 ADD SLOAD PUSH2 0xEDF SWAP2 SWAP1 PUSH2 0x4C36 JUMP JUMPDEST TIMESTAMP LT JUMPDEST ISZERO PUSH2 0xFC2 JUMPI PUSH1 0x0 PUSH2 0xEF1 PUSH2 0x239B JUMP JUMPDEST PUSH2 0xEF9 PUSH2 0x1930 JUMP JUMPDEST PUSH2 0xF03 SWAP2 SWAP1 PUSH2 0x4C36 JUMP JUMPDEST DUP3 SLOAD SWAP1 SWAP2 POP PUSH1 0x0 SWAP1 PUSH2 0xF1A PUSH5 0xE8D4A51000 DUP8 PUSH2 0x4C87 JUMP JUMPDEST PUSH2 0xF24 SWAP2 SWAP1 PUSH2 0x4C4E JUMP JUMPDEST SWAP1 POP PUSH1 0x0 PUSH2 0xF31 DUP8 PUSH2 0x2AF3 JUMP JUMPDEST PUSH1 0x6 DUP6 ADD SLOAD PUSH1 0x7 SLOAD DUP7 SLOAD PUSH2 0xF45 SWAP1 DUP8 PUSH2 0x4C87 JUMP JUMPDEST PUSH2 0xF4F SWAP2 SWAP1 PUSH2 0x4C4E JUMP JUMPDEST PUSH2 0xF59 SWAP2 SWAP1 PUSH2 0x4CC4 JUMP JUMPDEST PUSH2 0xF63 SWAP2 SWAP1 PUSH2 0x4CC4 JUMP JUMPDEST SWAP1 POP PUSH1 0x0 PUSH5 0xE8D4A51000 PUSH2 0xF77 DUP5 DUP5 PUSH2 0x4C87 JUMP JUMPDEST PUSH2 0xF81 SWAP2 SWAP1 PUSH2 0x4C4E JUMP JUMPDEST PUSH1 0x15 SLOAD SWAP1 SWAP2 POP PUSH2 0xF90 CALLER PUSH2 0x2B11 JUMP JUMPDEST ISZERO PUSH2 0xF9A JUMPI POP PUSH1 0x16 SLOAD JUMPDEST PUSH1 0x0 PUSH2 0x2710 PUSH2 0xFA9 DUP4 DUP6 PUSH2 0x4C87 JUMP JUMPDEST PUSH2 0xFB3 SWAP2 SWAP1 PUSH2 0x4C4E JUMP JUMPDEST SWAP8 POP PUSH2 0xFC8 SWAP7 POP POP POP POP POP POP POP JUMP JUMPDEST PUSH1 0x0 SWAP2 POP POP JUMPDEST SWAP3 SWAP2 POP POP JUMP JUMPDEST PUSH3 0x93A80 DUP2 JUMP JUMPDEST PUSH2 0xFDD PUSH2 0x2B17 JUMP JUMPDEST PUSH1 0x0 DUP2 GT PUSH2 0x1017 JUMPI PUSH1 0x40 MLOAD PUSH32 0x8C379A000000000000000000000000000000000000000000000000000000000 DUP2 MSTORE PUSH1 0x4 ADD PUSH2 0x972 SWAP1 PUSH2 0x4389 JUMP JUMPDEST PUSH2 0x1022 DUP2 PUSH1 0x0 PUSH2 0x2B56 JUMP JUMPDEST POP JUMP JUMPDEST DUP1 CALLER PUSH20 0xFFFFFFFFFFFFFFFFFFFFFFFFFFFFFFFFFFFFFFFF DUP3 AND EQ DUP1 PUSH2 0x1061 JUMPI POP PUSH1 0xA SLOAD PUSH20 0xFFFFFFFFFFFFFFFFFFFFFFFFFFFFFFFFFFFFFFFF AND CALLER EQ JUMPDEST PUSH2 0x1097 JUMPI PUSH1 0x40 MLOAD PUSH32 0x8C379A000000000000000000000000000000000000000000000000000000000 DUP2 MSTORE PUSH1 0x4 ADD PUSH2 0x972 SWAP1 PUSH2 0x45EA JUMP JUMPDEST PUSH2 0x109F PUSH2 0x2B17 JUMP JUMPDEST PUSH20 0xFFFFFFFFFFFFFFFFFFFFFFFFFFFFFFFFFFFFFFFF DUP3 AND PUSH1 0x0 SWAP1 DUP2 MSTORE PUSH1 0x3 PUSH1 0x20 MSTORE PUSH1 0x40 SWAP1 KECCAK256 PUSH1 0x7 DUP2 ADD SLOAD PUSH1 0xFF AND DUP1 ISZERO PUSH2 0x10DB JUMPI POP TIMESTAMP DUP2 PUSH1 0x5 ADD SLOAD LT JUMPDEST PUSH2 0x1111 JUMPI PUSH1 0x40 MLOAD PUSH32 0x8C379A000000000000000000000000000000000000000000000000000000000 DUP2 MSTORE PUSH1 0x4 ADD PUSH2 0x972 SWAP1 PUSH2 0x4B68 JUMP JUMPDEST PUSH2 0x111D PUSH1 0x0 DUP1 DUP6 PUSH2 0x2F29 JUMP JUMPDEST POP POP POP JUMP JUMPDEST PUSH1 0x8 SLOAD PUSH20 0xFFFFFFFFFFFFFFFFFFFFFFFFFFFFFFFFFFFFFFFF AND CALLER EQ PUSH2 0x1173 JUMPI PUSH1 0x40 MLOAD PUSH32 0x8C379A000000000000000000000000000000000000000000000000000000000 DUP2 MSTORE PUSH1 0x4 ADD PUSH2 0x972 SWAP1 PUSH2 0x4929 JUMP JUMPDEST PUSH1 0x0 DUP2 GT PUSH2 0x11AD JUMPI PUSH1 0x40 MLOAD PUSH32 0x8C379A000000000000000000000000000000000000000000000000000000000 DUP2 MSTORE PUSH1 0x4 ADD PUSH2 0x972 SWAP1 PUSH2 0x4780 JUMP JUMPDEST PUSH1 0x11 DUP2 SWAP1 SSTORE PUSH1 0x40 MLOAD PUSH32 0x18B6D179114082D7EDA9837E15A39EB30032D5F3DF00487A67541398F48FABFE SWAP1 PUSH2 0x9EF SWAP1 DUP4 SWAP1 PUSH2 0x4B9F JUMP JUMPDEST PUSH1 0x7 SLOAD DUP2 JUMP JUMPDEST PUSH1 0x14 SLOAD DUP2 JUMP JUMPDEST PUSH1 0x8 SLOAD PUSH20 0xFFFFFFFFFFFFFFFFFFFFFFFFFFFFFFFFFFFFFFFF AND CALLER EQ PUSH2 0x123F JUMPI PUSH1 0x40 MLOAD PUSH32 0x8C379A000000000000000000000000000000000000000000000000000000000 DUP2 MSTORE PUSH1 0x4 ADD PUSH2 0x972 SWAP1 PUSH2 0x4929 JUMP JUMPDEST PUSH2 0x1247 PUSH2 0x359F JUMP JUMPDEST PUSH2 0x124F PUSH2 0x35DD JUMP JUMPDEST PUSH1 0x40 MLOAD PUSH32 0x7805862F689E2F13DF9F062FF482AD3AD112ACA9E0847911ED832E158C525B33 SWAP1 PUSH1 0x0 SWAP1 LOG1 JUMP JUMPDEST PUSH1 0x4 PUSH1 0x20 MSTORE PUSH1 0x0 SWAP1 DUP2 MSTORE PUSH1 0x40 SWAP1 KECCAK256 SLOAD PUSH1 0xFF AND DUP2 JUMP JUMPDEST PUSH1 0x8 SLOAD PUSH20 0xFFFFFFFFFFFFFFFFFFFFFFFFFFFFFFFFFFFFFFFF AND CALLER EQ PUSH2 0x12E0 JUMPI PUSH1 0x40 MLOAD PUSH32 0x8C379A000000000000000000000000000000000000000000000000000000000 DUP2 MSTORE PUSH1 0x4 ADD PUSH2 0x972 SWAP1 PUSH2 0x4929 JUMP JUMPDEST PUSH20 0xFFFFFFFFFFFFFFFFFFFFFFFFFFFFFFFFFFFFFFFF DUP3 AND PUSH2 0x132D JUMPI PUSH1 0x40 MLOAD PUSH32 0x8C379A000000000000000000000000000000000000000000000000000000000 DUP2 MSTORE PUSH1 0x4 ADD PUSH2 0x972 SWAP1 PUSH2 0x4749 JUMP JUMPDEST PUSH20 0xFFFFFFFFFFFFFFFFFFFFFFFFFFFFFFFFFFFFFFFF DUP3 AND PUSH1 0x0 DUP2 DUP2 MSTORE PUSH1 0x4 PUSH1 0x20 MSTORE PUSH1 0x40 DUP1 DUP3 KECCAK256 DUP1 SLOAD PUSH32 0xFFFFFFFFFFFFFFFFFFFFFFFFFFFFFFFFFFFFFFFFFFFFFFFFFFFFFFFFFFFFFF00 AND DUP6 ISZERO ISZERO SWAP1 DUP2 OR SWAP1 SWAP2 SSTORE SWAP1 MLOAD SWAP1 SWAP3 SWAP2 PUSH32 0x3D7902BC9A6665BD7CAF4240B834BB805D3CD68256889E9F8D2E40A10BE41D44 SWAP2 LOG3 POP POP JUMP JUMPDEST PUSH1 0x40 MLOAD PUSH32 0x70A0823100000000000000000000000000000000000000000000000000000000 DUP2 MSTORE PUSH1 0x0 SWAP1 PUSH20 0xFFFFFFFFFFFFFFFFFFFFFFFFFFFFFFFFFFFFFFFF PUSH32 0x0 AND SWAP1 PUSH4 0x70A08231 SWAP1 PUSH2 0x1421 SWAP1 ADDRESS SWAP1 PUSH1 0x4 ADD PUSH2 0x41DE JUMP JUMPDEST PUSH1 0x20 PUSH1 0x40 MLOAD DUP1 DUP4 SUB DUP2 DUP7 DUP1 EXTCODESIZE ISZERO DUP1 ISZERO PUSH2 0x1439 JUMPI PUSH1 0x0 DUP1 REVERT JUMPDEST POP GAS STATICCALL ISZERO DUP1 ISZERO PUSH2 0x144D JUMPI RETURNDATASIZE PUSH1 0x0 DUP1 RETURNDATACOPY RETURNDATASIZE PUSH1 0x0 REVERT JUMPDEST POP POP POP POP PUSH1 0x40 MLOAD RETURNDATASIZE PUSH1 0x1F NOT PUSH1 0x1F DUP3 ADD AND DUP3 ADD DUP1 PUSH1 0x40 MSTORE POP DUP2 ADD SWAP1 PUSH2 0x1471 SWAP2 SWAP1 PUSH2 0x4189 JUMP JUMPDEST SWAP1 POP SWAP1 JUMP JUMPDEST PUSH1 0x8 SLOAD PUSH20 0xFFFFFFFFFFFFFFFFFFFFFFFFFFFFFFFFFFFFFFFF AND CALLER EQ PUSH2 0x14C7 JUMPI PUSH1 0x40 MLOAD PUSH32 0x8C379A000000000000000000000000000000000000000000000000000000000 DUP2 MSTORE PUSH1 0x4 ADD PUSH2 0x972 SWAP1 PUSH2 0x4929 JUMP JUMPDEST PUSH20 0xFFFFFFFFFFFFFFFFFFFFFFFFFFFFFFFFFFFFFFFF DUP3 AND PUSH2 0x1514 JUMPI PUSH1 0x40 MLOAD PUSH32 0x8C379A000000000000000000000000000000000000000000000000000000000 DUP2 MSTORE PUSH1 0x4 ADD PUSH2 0x972 SWAP1 PUSH2 0x4749 JUMP JUMPDEST PUSH20 0xFFFFFFFFFFFFFFFFFFFFFFFFFFFFFFFFFFFFFFFF DUP3 AND PUSH1 0x0 DUP2 DUP2 MSTORE PUSH1 0x6 PUSH1 0x20 MSTORE PUSH1 0x40 DUP1 DUP3 KECCAK256 DUP1 SLOAD PUSH32 0xFFFFFFFFFFFFFFFFFFFFFFFFFFFFFFFFFFFFFFFFFFFFFFFFFFFFFFFFFFFFFF00 AND DUP6 ISZERO ISZERO SWAP1 DUP2 OR SWAP1 SWAP2 SSTORE SWAP1 MLOAD SWAP1 SWAP3 SWAP2 PUSH32 0x3D7902BC9A6665BD7CAF4240B834BB805D3CD68256889E9F8D2E40A10BE41D44 SWAP2 LOG3 POP POP JUMP JUMPDEST PUSH1 0xF SLOAD DUP2 JUMP JUMPDEST PUSH1 0xB SLOAD DUP2 JUMP JUMPDEST PUSH2 0x15A7 PUSH2 0x2B17 JUMP JUMPDEST PUSH6 0x9184E72A000 DUP2 GT PUSH2 0x15E6 JUMPI PUSH1 0x40 MLOAD PUSH32 0x8C379A000000000000000000000000000000000000000000000000000000000 DUP2 MSTORE PUSH1 0x4 ADD PUSH2 0x972 SWAP1 PUSH2 0x4960 JUMP JUMPDEST PUSH2 0x1022 PUSH1 0x0 DUP3 PUSH2 0x2B56 JUMP JUMPDEST PUSH1 0xA SLOAD PUSH20 0xFFFFFFFFFFFFFFFFFFFFFFFFFFFFFFFFFFFFFFFF AND DUP2 JUMP JUMPDEST PUSH1 0x0 SLOAD PUSH21 0x10000000000000000000000000000000000000000 SWAP1 DIV PUSH1 0xFF AND SWAP1 JUMP JUMPDEST PUSH1 0x9 SLOAD PUSH20 0xFFFFFFFFFFFFFFFFFFFFFFFFFFFFFFFFFFFFFFFF AND DUP2 JUMP JUMPDEST PUSH1 0x2 SLOAD PUSH20 0xFFFFFFFFFFFFFFFFFFFFFFFFFFFFFFFFFFFFFFFF AND DUP2 JUMP JUMPDEST PUSH1 0x8 SLOAD PUSH20 0xFFFFFFFFFFFFFFFFFFFFFFFFFFFFFFFFFFFFFFFF AND CALLER EQ PUSH2 0x16B7 JUMPI PUSH1 0x40 MLOAD PUSH32 0x8C379A000000000000000000000000000000000000000000000000000000000 DUP2 MSTORE PUSH1 0x4 ADD PUSH2 0x972 SWAP1 PUSH2 0x4929 JUMP JUMPDEST PUSH20 0xFFFFFFFFFFFFFFFFFFFFFFFFFFFFFFFFFFFFFFFF DUP2 AND PUSH2 0x1704 JUMPI PUSH1 0x40 MLOAD PUSH32 0x8C379A000000000000000000000000000000000000000000000000000000000 DUP2 MSTORE PUSH1 0x4 ADD PUSH2 0x972 SWAP1 PUSH2 0x4749 JUMP JUMPDEST PUSH1 0x2 DUP1 SLOAD PUSH32 0xFFFFFFFFFFFFFFFFFFFFFFFF0000000000000000000000000000000000000000 AND PUSH20 0xFFFFFFFFFFFFFFFFFFFFFFFFFFFFFFFFFFFFFFFF DUP4 DUP2 AND SWAP2 SWAP1 SWAP2 OR SWAP2 DUP3 SWAP1 SSTORE PUSH1 0x40 MLOAD PUSH32 0xAF38F30BE8D095BC1461196DB21930B7D89226E57B0167F9D6ABE951C53F3332 SWAP3 PUSH2 0x9EF SWAP3 AND SWAP1 PUSH2 0x41DE JUMP JUMPDEST PUSH1 0x6 PUSH1 0x20 MSTORE PUSH1 0x0 SWAP1 DUP2 MSTORE PUSH1 0x40 SWAP1 KECCAK256 SLOAD PUSH1 0xFF AND DUP2 JUMP JUMPDEST PUSH2 0x1797 PUSH2 0x29D7 JUMP JUMPDEST PUSH20 0xFFFFFFFFFFFFFFFFFFFFFFFFFFFFFFFFFFFFFFFF DUP2 AND PUSH2 0x17E4 JUMPI PUSH1 0x40 MLOAD PUSH32 0x8C379A000000000000000000000000000000000000000000000000000000000 DUP2 MSTORE PUSH1 0x4 ADD PUSH2 0x972 SWAP1 PUSH2 0x4749 JUMP JUMPDEST PUSH1 0x8 DUP1 SLOAD PUSH32 0xFFFFFFFFFFFFFFFFFFFFFFFF0000000000000000000000000000000000000000 AND PUSH20 0xFFFFFFFFFFFFFFFFFFFFFFFFFFFFFFFFFFFFFFFF DUP4 DUP2 AND SWAP2 SWAP1 SWAP2 OR SWAP2 DUP3 SWAP1 SSTORE PUSH1 0x40 MLOAD PUSH32 0x71614071B88DEE5E0B2AE578A9DD7B2EBBE9AE832BA419DC0242CD065A290B6C SWAP3 PUSH2 0x9EF SWAP3 AND SWAP1 PUSH2 0x41DE JUMP JUMPDEST PUSH1 0x8 SLOAD PUSH20 0xFFFFFFFFFFFFFFFFFFFFFFFFFFFFFFFFFFFFFFFF AND CALLER EQ PUSH2 0x18AB JUMPI PUSH1 0x40 MLOAD PUSH32 0x8C379A000000000000000000000000000000000000000000000000000000000 DUP2 MSTORE PUSH1 0x4 ADD PUSH2 0x972 SWAP1 PUSH2 0x4929 JUMP JUMPDEST PUSH2 0x7D0 DUP2 GT ISZERO PUSH2 0x18E7 JUMPI PUSH1 0x40 MLOAD PUSH32 0x8C379A000000000000000000000000000000000000000000000000000000000 DUP2 MSTORE PUSH1 0x4 ADD PUSH2 0x972 SWAP1 PUSH2 0x46B5 JUMP JUMPDEST PUSH1 0x13 DUP2 SWAP1 SSTORE PUSH1 0x40 MLOAD PUSH32 0xEFEAFCF03E479A9566D7EF321B4816DE0BA19CFA3CD0FAE2F8C5F4A0AFB342C4 SWAP1 PUSH2 0x9EF SWAP1 DUP4 SWAP1 PUSH2 0x4B9F JUMP JUMPDEST PUSH2 0x1924 PUSH2 0x29D7 JUMP JUMPDEST PUSH2 0x192E PUSH1 0x0 PUSH2 0x364D JUMP JUMPDEST JUMP JUMPDEST PUSH1 0x0 PUSH1 0xC SLOAD PUSH32 0x0 PUSH20 0xFFFFFFFFFFFFFFFFFFFFFFFFFFFFFFFFFFFFFFFF AND PUSH4 0x70A08231 ADDRESS PUSH1 0x40 MLOAD DUP3 PUSH4 0xFFFFFFFF AND PUSH1 0xE0 SHL DUP2 MSTORE PUSH1 0x4 ADD PUSH2 0x198E SWAP2 SWAP1 PUSH2 0x41DE JUMP JUMPDEST PUSH1 0x20 PUSH1 0x40 MLOAD DUP1 DUP4 SUB DUP2 DUP7 DUP1 EXTCODESIZE ISZERO DUP1 ISZERO PUSH2 0x19A6 JUMPI PUSH1 0x0 DUP1 REVERT JUMPDEST POP GAS STATICCALL ISZERO DUP1 ISZERO PUSH2 0x19BA JUMPI RETURNDATASIZE PUSH1 0x0 DUP1 RETURNDATACOPY RETURNDATASIZE PUSH1 0x0 REVERT JUMPDEST POP POP POP POP PUSH1 0x40 MLOAD RETURNDATASIZE PUSH1 0x1F NOT PUSH1 0x1F DUP3 ADD AND DUP3 ADD DUP1 PUSH1 0x40 MSTORE POP DUP2 ADD SWAP1 PUSH2 0x19DE SWAP2 SWAP1 PUSH2 0x4189 JUMP JUMPDEST PUSH2 0x1471 SWAP2 SWAP1 PUSH2 0x4C36 JUMP JUMPDEST PUSH12 0x204FCE5E3E25026110000000 DUP2 JUMP JUMPDEST PUSH1 0x0 PUSH1 0x7 SLOAD PUSH1 0x0 EQ PUSH2 0x1A42 JUMPI PUSH1 0x7 SLOAD PUSH2 0x1A0F PUSH2 0x239B JUMP JUMPDEST PUSH2 0x1A17 PUSH2 0x1930 JUMP JUMPDEST PUSH2 0x1A21 SWAP2 SWAP1 PUSH2 0x4C36 JUMP JUMPDEST PUSH2 0x1A33 SWAP1 PUSH8 0xDE0B6B3A7640000 PUSH2 0x4C87 JUMP JUMPDEST PUSH2 0x1A3D SWAP2 SWAP1 PUSH2 0x4C4E JUMP JUMPDEST PUSH2 0x1471 JUMP JUMPDEST POP PUSH8 0xDE0B6B3A7640000 SWAP1 JUMP JUMPDEST PUSH1 0x8 SLOAD PUSH20 0xFFFFFFFFFFFFFFFFFFFFFFFFFFFFFFFFFFFFFFFF AND CALLER EQ PUSH2 0x1AA0 JUMPI PUSH1 0x40 MLOAD PUSH32 0x8C379A000000000000000000000000000000000000000000000000000000000 DUP2 MSTORE PUSH1 0x4 ADD PUSH2 0x972 SWAP1 PUSH2 0x4929 JUMP JUMPDEST PUSH2 0x1AA8 PUSH2 0x2B17 JUMP JUMPDEST PUSH2 0x1AB0 PUSH2 0x36C2 JUMP JUMPDEST PUSH1 0x40 MLOAD PUSH32 0x6985A02210A168E66602D3235CB6DB0E70F92B3BA4D376A33C0F3D9434BFF625 SWAP1 PUSH1 0x0 SWAP1 LOG1 JUMP JUMPDEST CALLER PUSH1 0x0 SWAP1 DUP2 MSTORE PUSH1 0x3 PUSH1 0x20 MSTORE PUSH1 0x40 SWAP1 KECCAK256 SLOAD PUSH2 0x192E SWAP1 PUSH2 0xFD5 JUMP JUMPDEST PUSH1 0x13 SLOAD DUP2 JUMP JUMPDEST PUSH1 0x5 PUSH1 0x20 MSTORE PUSH1 0x0 SWAP1 DUP2 MSTORE PUSH1 0x40 SWAP1 KECCAK256 SLOAD PUSH1 0xFF AND DUP2 JUMP JUMPDEST PUSH1 0x0 SLOAD PUSH20 0xFFFFFFFFFFFFFFFFFFFFFFFFFFFFFFFFFFFFFFFF AND SWAP1 JUMP JUMPDEST PUSH1 0x8 SLOAD PUSH20 0xFFFFFFFFFFFFFFFFFFFFFFFFFFFFFFFFFFFFFFFF AND CALLER EQ PUSH2 0x1B7C JUMPI PUSH1 0x40 MLOAD PUSH32 0x8C379A000000000000000000000000000000000000000000000000000000000 DUP2 MSTORE PUSH1 0x4 ADD PUSH2 0x972 SWAP1 PUSH2 0x4929 JUMP JUMPDEST PUSH6 0x2D79883D2000 DUP2 GT ISZERO PUSH2 0x1BBC JUMPI PUSH1 0x40 MLOAD PUSH32 0x8C379A000000000000000000000000000000000000000000000000000000000 DUP2 MSTORE PUSH1 0x4 ADD PUSH2 0x972 SWAP1 PUSH2 0x448B JUMP JUMPDEST PUSH1 0x12 DUP2 SWAP1 SSTORE PUSH1 0x40 MLOAD PUSH32 0x7666DFFF8C3377938E522B4EED3AFF079973A976F95969DB60A406D49F40DA4E SWAP1 PUSH2 0x9EF SWAP1 DUP4 SWAP1 PUSH2 0x4B9F JUMP JUMPDEST PUSH5 0xE8D4A51000 DUP2 JUMP JUMPDEST PUSH20 0xFFFFFFFFFFFFFFFFFFFFFFFFFFFFFFFFFFFFFFFF DUP2 AND PUSH1 0x0 SWAP1 DUP2 MSTORE PUSH1 0x3 PUSH1 0x20 MSTORE PUSH1 0x40 DUP2 KECCAK256 DUP1 SLOAD ISZERO DUP1 ISZERO SWAP1 PUSH2 0x1C33 JUMPI POP PUSH1 0x7 DUP2 ADD SLOAD PUSH1 0xFF AND JUMPDEST DUP1 ISZERO PUSH2 0x1C65 JUMPI POP PUSH20 0xFFFFFFFFFFFFFFFFFFFFFFFFFFFFFFFFFFFFFFFF DUP4 AND PUSH1 0x0 SWAP1 DUP2 MSTORE PUSH1 0x6 PUSH1 0x20 MSTORE PUSH1 0x40 SWAP1 KECCAK256 SLOAD PUSH1 0xFF AND ISZERO JUMPDEST DUP1 ISZERO PUSH2 0x1C81 JUMPI POP TIMESTAMP PUSH1 0xE SLOAD DUP3 PUSH1 0x5 ADD SLOAD PUSH2 0x1C7F SWAP2 SWAP1 PUSH2 0x4C36 JUMP JUMPDEST LT JUMPDEST ISZERO PUSH2 0x1D60 JUMPI PUSH1 0x0 PUSH2 0x1C90 PUSH2 0x239B JUMP JUMPDEST PUSH2 0x1C98 PUSH2 0x1930 JUMP JUMPDEST PUSH2 0x1CA2 SWAP2 SWAP1 PUSH2 0x4C36 JUMP JUMPDEST PUSH1 0x6 DUP4 ADD SLOAD PUSH1 0x7 SLOAD DUP5 SLOAD SWAP3 SWAP4 POP PUSH1 0x0 SWAP3 PUSH2 0x1CBC SWAP1 DUP6 PUSH2 0x4C87 JUMP JUMPDEST PUSH2 0x1CC6 SWAP2 SWAP1 PUSH2 0x4C4E JUMP JUMPDEST PUSH2 0x1CD0 SWAP2 SWAP1 PUSH2 0x4CC4 JUMP JUMPDEST SWAP1 POP PUSH1 0x0 DUP4 PUSH1 0x8 ADD SLOAD DUP3 PUSH2 0x1CE4 SWAP2 SWAP1 PUSH2 0x4CC4 JUMP JUMPDEST SWAP1 POP PUSH1 0x0 PUSH1 0xE SLOAD DUP6 PUSH1 0x5 ADD SLOAD TIMESTAMP PUSH2 0x1CFB SWAP2 SWAP1 PUSH2 0x4CC4 JUMP JUMPDEST PUSH2 0x1D05 SWAP2 SWAP1 PUSH2 0x4CC4 JUMP JUMPDEST SWAP1 POP PUSH1 0x11 SLOAD DUP2 GT ISZERO PUSH2 0x1D16 JUMPI POP PUSH1 0x11 SLOAD JUMPDEST PUSH1 0x0 PUSH1 0x11 SLOAD PUSH1 0x17 SLOAD DUP4 PUSH2 0x1D29 SWAP2 SWAP1 PUSH2 0x4C87 JUMP JUMPDEST PUSH2 0x1D33 SWAP2 SWAP1 PUSH2 0x4C4E JUMP JUMPDEST SWAP1 POP PUSH1 0x0 PUSH5 0xE8D4A51000 PUSH2 0x1D47 DUP4 DUP7 PUSH2 0x4C87 JUMP JUMPDEST PUSH2 0x1D51 SWAP2 SWAP1 PUSH2 0x4C4E JUMP JUMPDEST SWAP8 POP PUSH2 0x1D66 SWAP7 POP POP POP POP POP POP POP JUMP JUMPDEST PUSH1 0x0 SWAP2 POP POP JUMPDEST SWAP2 SWAP1 POP JUMP JUMPDEST PUSH1 0x8 SLOAD PUSH20 0xFFFFFFFFFFFFFFFFFFFFFFFFFFFFFFFFFFFFFFFF AND CALLER EQ PUSH2 0x1DBC JUMPI PUSH1 0x40 MLOAD PUSH32 0x8C379A000000000000000000000000000000000000000000000000000000000 DUP2 MSTORE PUSH1 0x4 ADD PUSH2 0x972 SWAP1 PUSH2 0x4929 JUMP JUMPDEST PUSH1 0x0 DUP2 GT PUSH2 0x1DF6 JUMPI PUSH1 0x40 MLOAD PUSH32 0x8C379A000000000000000000000000000000000000000000000000000000000 DUP2 MSTORE PUSH1 0x4 ADD PUSH2 0x972 SWAP1 PUSH2 0x441D JUMP JUMPDEST PUSH1 0x10 DUP2 SWAP1 SSTORE PUSH1 0x40 MLOAD PUSH32 0x9478EB023AAC0A7D58A4E935377056BF27CF5B72A2300725F831817A8F62FBDE SWAP1 PUSH2 0x9EF SWAP1 DUP4 SWAP1 PUSH2 0x4B9F JUMP JUMPDEST PUSH1 0x17 SLOAD DUP2 JUMP JUMPDEST PUSH1 0xE SLOAD DUP2 JUMP JUMPDEST PUSH1 0x11 SLOAD DUP2 JUMP JUMPDEST PUSH2 0x1E45 PUSH2 0x29D7 JUMP JUMPDEST PUSH20 0xFFFFFFFFFFFFFFFFFFFFFFFFFFFFFFFFFFFFFFFF DUP2 AND PUSH2 0x1E92 JUMPI PUSH1 0x40 MLOAD PUSH32 0x8C379A000000000000000000000000000000000000000000000000000000000 DUP2 MSTORE PUSH1 0x4 ADD PUSH2 0x972 SWAP1 PUSH2 0x4749 JUMP JUMPDEST PUSH1 0xA DUP1 SLOAD PUSH32 0xFFFFFFFFFFFFFFFFFFFFFFFF0000000000000000000000000000000000000000 AND PUSH20 0xFFFFFFFFFFFFFFFFFFFFFFFFFFFFFFFFFFFFFFFF DUP4 DUP2 AND SWAP2 SWAP1 SWAP2 OR SWAP2 DUP3 SWAP1 SSTORE PUSH1 0x40 MLOAD PUSH32 0xDA12EE837E6978172AAF54B16145FFE08414FD8710092EF033C71B8EB6EC189A SWAP3 PUSH2 0x9EF SWAP3 AND SWAP1 PUSH2 0x41DE JUMP JUMPDEST PUSH1 0x8 SLOAD PUSH20 0xFFFFFFFFFFFFFFFFFFFFFFFFFFFFFFFFFFFFFFFF AND CALLER EQ PUSH2 0x1F59 JUMPI PUSH1 0x40 MLOAD PUSH32 0x8C379A000000000000000000000000000000000000000000000000000000000 DUP2 MSTORE PUSH1 0x4 ADD PUSH2 0x972 SWAP1 PUSH2 0x4929 JUMP JUMPDEST PUSH2 0x1F4 DUP2 GT ISZERO PUSH2 0x1F95 JUMPI PUSH1 0x40 MLOAD PUSH32 0x8C379A000000000000000000000000000000000000000000000000000000000 DUP2 MSTORE PUSH1 0x4 ADD PUSH2 0x972 SWAP1 PUSH2 0x4AAE JUMP JUMPDEST PUSH1 0x15 DUP2 SWAP1 SSTORE PUSH1 0x40 MLOAD PUSH32 0xD5FE46099FA396290A7F57E36C3C3C8774E2562C18ED5D1DCC0FA75071E03F1D SWAP1 PUSH2 0x9EF SWAP1 DUP4 SWAP1 PUSH2 0x4B9F JUMP JUMPDEST PUSH1 0x8 SLOAD PUSH20 0xFFFFFFFFFFFFFFFFFFFFFFFFFFFFFFFFFFFFFFFF AND CALLER EQ PUSH2 0x201B JUMPI PUSH1 0x40 MLOAD PUSH32 0x8C379A000000000000000000000000000000000000000000000000000000000 DUP2 MSTORE PUSH1 0x4 ADD PUSH2 0x972 SWAP1 PUSH2 0x4929 JUMP JUMPDEST PUSH2 0x7D0 DUP2 GT ISZERO PUSH2 0x2057 JUMPI PUSH1 0x40 MLOAD PUSH32 0x8C379A000000000000000000000000000000000000000000000000000000000 DUP2 MSTORE PUSH1 0x4 ADD PUSH2 0x972 SWAP1 PUSH2 0x46B5 JUMP JUMPDEST PUSH1 0x14 DUP2 SWAP1 SSTORE PUSH1 0x40 MLOAD PUSH32 0xC5D25457B67B87678C987375AF13F6E50BEB3AD7BFD009DA26766AE986EAA20D SWAP1 PUSH2 0x9EF SWAP1 DUP4 SWAP1 PUSH2 0x4B9F JUMP JUMPDEST PUSH32 0x0 DUP2 JUMP JUMPDEST PUSH1 0x12 SLOAD DUP2 JUMP JUMPDEST PUSH2 0x7D0 DUP2 JUMP JUMPDEST PUSH1 0x8 SLOAD PUSH20 0xFFFFFFFFFFFFFFFFFFFFFFFFFFFFFFFFFFFFFFFF AND CALLER EQ PUSH2 0x210D JUMPI PUSH1 0x40 MLOAD PUSH32 0x8C379A000000000000000000000000000000000000000000000000000000000 DUP2 MSTORE PUSH1 0x4 ADD PUSH2 0x972 SWAP1 PUSH2 0x4929 JUMP JUMPDEST PUSH20 0xFFFFFFFFFFFFFFFFFFFFFFFFFFFFFFFFFFFFFFFF DUP3 AND PUSH2 0x215A JUMPI PUSH1 0x40 MLOAD PUSH32 0x8C379A000000000000000000000000000000000000000000000000000000000 DUP2 MSTORE PUSH1 0x4 ADD PUSH2 0x972 SWAP1 PUSH2 0x4749 JUMP JUMPDEST PUSH20 0xFFFFFFFFFFFFFFFFFFFFFFFFFFFFFFFFFFFFFFFF DUP3 AND PUSH1 0x0 DUP2 DUP2 MSTORE PUSH1 0x5 PUSH1 0x20 MSTORE PUSH1 0x40 DUP1 DUP3 KECCAK256 DUP1 SLOAD PUSH32 0xFFFFFFFFFFFFFFFFFFFFFFFFFFFFFFFFFFFFFFFFFFFFFFFFFFFFFFFFFFFFFF00 AND DUP6 ISZERO ISZERO SWAP1 DUP2 OR SWAP1 SWAP2 SSTORE SWAP1 MLOAD SWAP1 SWAP3 SWAP2 PUSH32 0x3D7902BC9A6665BD7CAF4240B834BB805D3CD68256889E9F8D2E40A10BE41D44 SWAP2 LOG3 POP POP JUMP JUMPDEST PUSH1 0x8 SLOAD PUSH20 0xFFFFFFFFFFFFFFFFFFFFFFFFFFFFFFFFFFFFFFFF AND CALLER EQ PUSH2 0x222A JUMPI PUSH1 0x40 MLOAD PUSH32 0x8C379A000000000000000000000000000000000000000000000000000000000 DUP2 MSTORE PUSH1 0x4 ADD PUSH2 0x972 SWAP1 PUSH2 0x4929 JUMP JUMPDEST PUSH1 0x0 DUP2 GT PUSH2 0x2264 JUMPI PUSH1 0x40 MLOAD PUSH32 0x8C379A000000000000000000000000000000000000000000000000000000000 DUP2 MSTORE PUSH1 0x4 ADD PUSH2 0x972 SWAP1 PUSH2 0x4B0B JUMP JUMPDEST PUSH1 0xE DUP2 SWAP1 SSTORE PUSH1 0x40 MLOAD PUSH32 0xF84BF2B901CFC02956D4E69556D7448CEF4EA13587E7714DBA7C6D697091E7AD SWAP1 PUSH2 0x9EF SWAP1 DUP4 SWAP1 PUSH2 0x4B9F JUMP JUMPDEST PUSH20 0xFFFFFFFFFFFFFFFFFFFFFFFFFFFFFFFFFFFFFFFF DUP2 AND PUSH1 0x0 SWAP1 DUP2 MSTORE PUSH1 0x3 PUSH1 0x20 MSTORE PUSH1 0x40 DUP2 KECCAK256 DUP1 SLOAD ISZERO DUP1 ISZERO SWAP1 PUSH2 0x22D3 JUMPI POP PUSH1 0x7 DUP2 ADD SLOAD PUSH1 0xFF AND ISZERO JUMPDEST DUP1 ISZERO PUSH2 0x2305 JUMPI POP PUSH20 0xFFFFFFFFFFFFFFFFFFFFFFFFFFFFFFFFFFFFFFFF DUP4 AND PUSH1 0x0 SWAP1 DUP2 MSTORE PUSH1 0x4 PUSH1 0x20 MSTORE PUSH1 0x40 SWAP1 KECCAK256 SLOAD PUSH1 0xFF AND ISZERO JUMPDEST ISZERO PUSH2 0x1D60 JUMPI PUSH1 0x0 PUSH2 0x2314 PUSH2 0x239B JUMP JUMPDEST PUSH2 0x231C PUSH2 0x1930 JUMP JUMPDEST PUSH2 0x2326 SWAP2 SWAP1 PUSH2 0x4C36 JUMP JUMPDEST SWAP1 POP PUSH1 0x0 PUSH1 0x7 SLOAD DUP3 DUP5 PUSH1 0x0 ADD SLOAD PUSH2 0x233D SWAP2 SWAP1 PUSH2 0x4C87 JUMP JUMPDEST PUSH2 0x2347 SWAP2 SWAP1 PUSH2 0x4C4E JUMP JUMPDEST SWAP1 POP PUSH1 0x0 DUP4 PUSH1 0x2 ADD SLOAD DUP3 PUSH2 0x235B SWAP2 SWAP1 PUSH2 0x4CC4 JUMP JUMPDEST PUSH1 0x13 SLOAD SWAP1 SWAP2 POP PUSH2 0x236A DUP8 PUSH2 0x2B11 JUMP JUMPDEST ISZERO PUSH2 0x2374 JUMPI POP PUSH1 0x14 SLOAD JUMPDEST PUSH1 0x0 PUSH2 0x2710 PUSH2 0x2383 DUP4 DUP6 PUSH2 0x4C87 JUMP JUMPDEST PUSH2 0x238D SWAP2 SWAP1 PUSH2 0x4C4E JUMP JUMPDEST SWAP7 POP PUSH2 0x1D66 SWAP6 POP POP POP POP POP POP JUMP JUMPDEST PUSH1 0x0 DUP1 PUSH32 0x0 PUSH20 0xFFFFFFFFFFFFFFFFFFFFFFFFFFFFFFFFFFFFFFFF AND PUSH4 0xC799B59D PUSH1 0xB SLOAD ADDRESS PUSH1 0x40 MLOAD DUP4 PUSH4 0xFFFFFFFF AND PUSH1 0xE0 SHL DUP2 MSTORE PUSH1 0x4 ADD PUSH2 0x23FB SWAP3 SWAP2 SWAP1 PUSH2 0x4BA8 JUMP JUMPDEST PUSH1 0x20 PUSH1 0x40 MLOAD DUP1 DUP4 SUB DUP2 DUP7 DUP1 EXTCODESIZE ISZERO DUP1 ISZERO PUSH2 0x2413 JUMPI PUSH1 0x0 DUP1 REVERT JUMPDEST POP GAS STATICCALL ISZERO DUP1 ISZERO PUSH2 0x2427 JUMPI RETURNDATASIZE PUSH1 0x0 DUP1 RETURNDATACOPY RETURNDATASIZE PUSH1 0x0 REVERT JUMPDEST POP POP POP POP PUSH1 0x40 MLOAD RETURNDATASIZE PUSH1 0x1F NOT PUSH1 0x1F DUP3 ADD AND DUP3 ADD DUP1 PUSH1 0x40 MSTORE POP DUP2 ADD SWAP1 PUSH2 0x244B SWAP2 SWAP1 PUSH2 0x4189 JUMP JUMPDEST SWAP2 POP POP SWAP1 JUMP JUMPDEST PUSH2 0x1F4 DUP2 JUMP JUMPDEST PUSH1 0x8 SLOAD PUSH20 0xFFFFFFFFFFFFFFFFFFFFFFFFFFFFFFFFFFFFFFFF AND CALLER EQ PUSH2 0x24A8 JUMPI PUSH1 0x40 MLOAD PUSH32 0x8C379A000000000000000000000000000000000000000000000000000000000 DUP2 MSTORE PUSH1 0x4 ADD PUSH2 0x972 SWAP1 PUSH2 0x4929 JUMP JUMPDEST PUSH32 0x0 PUSH20 0xFFFFFFFFFFFFFFFFFFFFFFFFFFFFFFFFFFFFFFFF AND DUP2 PUSH20 0xFFFFFFFFFFFFFFFFFFFFFFFFFFFFFFFFFFFFFFFF AND EQ ISZERO PUSH2 0x252E JUMPI PUSH1 0x40 MLOAD PUSH32 0x8C379A000000000000000000000000000000000000000000000000000000000 DUP2 MSTORE PUSH1 0x4 ADD PUSH2 0x972 SWAP1 PUSH2 0x451F JUMP JUMPDEST PUSH1 0x40 MLOAD PUSH32 0x70A0823100000000000000000000000000000000000000000000000000000000 DUP2 MSTORE PUSH1 0x0 SWAP1 PUSH20 0xFFFFFFFFFFFFFFFFFFFFFFFFFFFFFFFFFFFFFFFF DUP4 AND SWAP1 PUSH4 0x70A08231 SWAP1 PUSH2 0x2583 SWAP1 ADDRESS SWAP1 PUSH1 0x4 ADD PUSH2 0x41DE JUMP JUMPDEST PUSH1 0x20 PUSH1 0x40 MLOAD DUP1 DUP4 SUB DUP2 DUP7 DUP1 EXTCODESIZE ISZERO DUP1 ISZERO PUSH2 0x259B JUMPI PUSH1 0x0 DUP1 REVERT JUMPDEST POP GAS STATICCALL ISZERO DUP1 ISZERO PUSH2 0x25AF JUMPI RETURNDATASIZE PUSH1 0x0 DUP1 RETURNDATACOPY RETURNDATASIZE PUSH1 0x0 REVERT JUMPDEST POP POP POP POP PUSH1 0x40 MLOAD RETURNDATASIZE PUSH1 0x1F NOT PUSH1 0x1F DUP3 ADD AND DUP3 ADD DUP1 PUSH1 0x40 MSTORE POP DUP2 ADD SWAP1 PUSH2 0x25D3 SWAP2 SWAP1 PUSH2 0x4189 JUMP JUMPDEST SWAP1 POP PUSH2 0x25F6 PUSH20 0xFFFFFFFFFFFFFFFFFFFFFFFFFFFFFFFFFFFFFFFF DUP4 AND CALLER DUP4 PUSH2 0x3732 JUMP JUMPDEST POP POP JUMP JUMPDEST PUSH1 0x8 SLOAD PUSH20 0xFFFFFFFFFFFFFFFFFFFFFFFFFFFFFFFFFFFFFFFF AND CALLER EQ PUSH2 0x264B JUMPI PUSH1 0x40 MLOAD PUSH32 0x8C379A000000000000000000000000000000000000000000000000000000000 DUP2 MSTORE PUSH1 0x4 ADD PUSH2 0x972 SWAP1 PUSH2 0x4929 JUMP JUMPDEST PUSH20 0xFFFFFFFFFFFFFFFFFFFFFFFFFFFFFFFFFFFFFFFF DUP2 AND PUSH2 0x2698 JUMPI PUSH1 0x40 MLOAD PUSH32 0x8C379A000000000000000000000000000000000000000000000000000000000 DUP2 MSTORE PUSH1 0x4 ADD PUSH2 0x972 SWAP1 PUSH2 0x4749 JUMP JUMPDEST PUSH1 0x1 DUP1 SLOAD PUSH32 0xFFFFFFFFFFFFFFFFFFFFFFFF0000000000000000000000000000000000000000 AND PUSH20 0xFFFFFFFFFFFFFFFFFFFFFFFFFFFFFFFFFFFFFFFF DUP4 DUP2 AND SWAP2 SWAP1 SWAP2 OR SWAP2 DUP3 SWAP1 SSTORE PUSH1 0x40 MLOAD PUSH32 0x8F49A182922022D9119A1A6AEECA151B4A5665E86BD61C1FF32E152D459558B2 SWAP3 PUSH2 0x9EF SWAP3 AND SWAP1 PUSH2 0x41DE JUMP JUMPDEST PUSH1 0x18 SLOAD DUP2 JUMP JUMPDEST PUSH1 0x1 SLOAD PUSH20 0xFFFFFFFFFFFFFFFFFFFFFFFFFFFFFFFFFFFFFFFF AND DUP2 JUMP JUMPDEST PUSH2 0x2738 PUSH2 0x2B17 JUMP JUMPDEST PUSH1 0x0 DUP3 GT DUP1 PUSH2 0x2747 JUMPI POP PUSH1 0x0 DUP2 GT JUMPDEST PUSH2 0x277D JUMPI PUSH1 0x40 MLOAD PUSH32 0x8C379A000000000000000000000000000000000000000000000000000000000 DUP2 MSTORE PUSH1 0x4 ADD PUSH2 0x972 SWAP1 PUSH2 0x431B JUMP JUMPDEST PUSH2 0x25F6 DUP3 DUP3 CALLER PUSH2 0x2F29 JUMP JUMPDEST PUSH1 0x10 SLOAD DUP2 JUMP JUMPDEST PUSH1 0x16 SLOAD DUP2 JUMP JUMPDEST PUSH1 0xC SLOAD DUP2 JUMP JUMPDEST PUSH1 0x15 SLOAD DUP2 JUMP JUMPDEST PUSH2 0x27A8 PUSH2 0x29D7 JUMP JUMPDEST PUSH20 0xFFFFFFFFFFFFFFFFFFFFFFFFFFFFFFFFFFFFFFFF DUP2 AND PUSH2 0x27F5 JUMPI PUSH1 0x40 MLOAD PUSH32 0x8C379A000000000000000000000000000000000000000000000000000000000 DUP2 MSTORE PUSH1 0x4 ADD PUSH2 0x972 SWAP1 PUSH2 0x4749 JUMP JUMPDEST PUSH1 0x9 DUP1 SLOAD PUSH32 0xFFFFFFFFFFFFFFFFFFFFFFFF0000000000000000000000000000000000000000 AND PUSH20 0xFFFFFFFFFFFFFFFFFFFFFFFFFFFFFFFFFFFFFFFF DUP4 DUP2 AND SWAP2 SWAP1 SWAP2 OR SWAP2 DUP3 SWAP1 SSTORE PUSH1 0x40 MLOAD PUSH32 0xAFA147634B29E2C7BD53CE194256B9F41CFB9BA3036F2B822FDD1D965BEEA086 SWAP3 PUSH2 0x9EF SWAP3 AND SWAP1 PUSH2 0x41DE JUMP JUMPDEST PUSH2 0x2873 PUSH2 0x29D7 JUMP JUMPDEST PUSH20 0xFFFFFFFFFFFFFFFFFFFFFFFFFFFFFFFFFFFFFFFF DUP2 AND PUSH2 0x28C0 JUMPI PUSH1 0x40 MLOAD PUSH32 0x8C379A000000000000000000000000000000000000000000000000000000000 DUP2 MSTORE PUSH1 0x4 ADD PUSH2 0x972 SWAP1 PUSH2 0x43C0 JUMP JUMPDEST PUSH2 0x1022 DUP2 PUSH2 0x364D JUMP JUMPDEST PUSH1 0x8 SLOAD PUSH20 0xFFFFFFFFFFFFFFFFFFFFFFFFFFFFFFFFFFFFFFFF AND CALLER EQ PUSH2 0x291A JUMPI PUSH1 0x40 MLOAD PUSH32 0x8C379A000000000000000000000000000000000000000000000000000000000 DUP2 MSTORE PUSH1 0x4 ADD PUSH2 0x972 SWAP1 PUSH2 0x4929 JUMP JUMPDEST PUSH4 0x5265C00 DUP2 GT ISZERO PUSH2 0x2958 JUMPI PUSH1 0x40 MLOAD PUSH32 0x8C379A000000000000000000000000000000000000000000000000000000000 DUP2 MSTORE PUSH1 0x4 ADD PUSH2 0x972 SWAP1 PUSH2 0x4897 JUMP JUMPDEST PUSH1 0xF DUP2 SWAP1 SSTORE PUSH1 0x40 MLOAD PUSH32 0xCAB2F3455B51B6CA5377E84FCCD0F890B6F6CA36C02E18B6D36CB34F469FE4FE SWAP1 PUSH2 0x9EF SWAP1 DUP4 SWAP1 PUSH2 0x4B9F JUMP JUMPDEST PUSH1 0x8 SLOAD PUSH20 0xFFFFFFFFFFFFFFFFFFFFFFFFFFFFFFFFFFFFFFFF AND DUP2 JUMP JUMPDEST PUSH32 0x0 DUP2 JUMP JUMPDEST PUSH6 0x2D79883D2000 DUP2 JUMP JUMPDEST PUSH2 0x29DF PUSH2 0x3751 JUMP JUMPDEST PUSH20 0xFFFFFFFFFFFFFFFFFFFFFFFFFFFFFFFFFFFFFFFF AND PUSH2 0x29FD PUSH2 0x1B0F JUMP JUMPDEST PUSH20 0xFFFFFFFFFFFFFFFFFFFFFFFFFFFFFFFFFFFFFFFF AND EQ PUSH2 0x192E JUMPI PUSH1 0x40 MLOAD PUSH32 0x8C379A000000000000000000000000000000000000000000000000000000000 DUP2 MSTORE PUSH1 0x4 ADD PUSH2 0x972 SWAP1 PUSH2 0x48F4 JUMP JUMPDEST PUSH2 0x2AED DUP5 PUSH4 0x23B872DD PUSH1 0xE0 SHL DUP6 DUP6 DUP6 PUSH1 0x40 MLOAD PUSH1 0x24 ADD PUSH2 0x2A6B SWAP4 SWAP3 SWAP2 SWAP1 PUSH2 0x41FF JUMP JUMPDEST PUSH1 0x40 DUP1 MLOAD PUSH32 0xFFFFFFFFFFFFFFFFFFFFFFFFFFFFFFFFFFFFFFFFFFFFFFFFFFFFFFFFFFFFFFE0 DUP2 DUP5 SUB ADD DUP2 MSTORE SWAP2 SWAP1 MSTORE PUSH1 0x20 DUP2 ADD DUP1 MLOAD PUSH28 0xFFFFFFFFFFFFFFFFFFFFFFFFFFFFFFFFFFFFFFFFFFFFFFFFFFFFFFFF AND PUSH32 0xFFFFFFFF00000000000000000000000000000000000000000000000000000000 SWAP1 SWAP4 AND SWAP3 SWAP1 SWAP3 OR SWAP1 SWAP2 MSTORE PUSH2 0x3755 JUMP JUMPDEST POP POP POP POP JUMP JUMPDEST PUSH1 0x0 PUSH2 0x2AFE DUP3 PUSH2 0x1BFA JUMP JUMPDEST PUSH2 0x2B07 DUP4 PUSH2 0x2299 JUMP JUMPDEST PUSH2 0xFC8 SWAP2 SWAP1 PUSH2 0x4C36 JUMP JUMPDEST EXTCODESIZE ISZERO ISZERO SWAP1 JUMP JUMPDEST PUSH2 0x2B1F PUSH2 0x160D JUMP JUMPDEST ISZERO PUSH2 0x192E JUMPI PUSH1 0x40 MLOAD PUSH32 0x8C379A000000000000000000000000000000000000000000000000000000000 DUP2 MSTORE PUSH1 0x4 ADD PUSH2 0x972 SWAP1 PUSH2 0x4712 JUMP JUMPDEST CALLER PUSH1 0x0 SWAP1 DUP2 MSTORE PUSH1 0x3 PUSH1 0x20 MSTORE PUSH1 0x40 SWAP1 KECCAK256 DUP1 SLOAD DUP4 GT ISZERO PUSH2 0x2BA0 JUMPI PUSH1 0x40 MLOAD PUSH32 0x8C379A000000000000000000000000000000000000000000000000000000000 DUP2 MSTORE PUSH1 0x4 ADD PUSH2 0x972 SWAP1 PUSH2 0x457C JUMP JUMPDEST TIMESTAMP DUP2 PUSH1 0x5 ADD SLOAD LT PUSH2 0x2BDD JUMPI PUSH1 0x40 MLOAD PUSH32 0x8C379A000000000000000000000000000000000000000000000000000000000 DUP2 MSTORE PUSH1 0x4 ADD PUSH2 0x972 SWAP1 PUSH2 0x4454 JUMP JUMPDEST PUSH1 0x2 SLOAD PUSH20 0xFFFFFFFFFFFFFFFFFFFFFFFFFFFFFFFFFFFFFFFF AND ISZERO PUSH2 0x2C84 JUMPI PUSH1 0x2 SLOAD PUSH1 0x40 MLOAD PUSH32 0x51CFF8D900000000000000000000000000000000000000000000000000000000 DUP2 MSTORE PUSH20 0xFFFFFFFFFFFFFFFFFFFFFFFFFFFFFFFFFFFFFFFF SWAP1 SWAP2 AND SWAP1 PUSH4 0x51CFF8D9 SWAP1 PUSH2 0x2C51 SWAP1 CALLER SWAP1 PUSH1 0x4 ADD PUSH2 0x41DE JUMP JUMPDEST PUSH1 0x0 PUSH1 0x40 MLOAD DUP1 DUP4 SUB DUP2 PUSH1 0x0 DUP8 DUP1 EXTCODESIZE ISZERO DUP1 ISZERO PUSH2 0x2C6B JUMPI PUSH1 0x0 DUP1 REVERT JUMPDEST POP GAS CALL ISZERO DUP1 ISZERO PUSH2 0x2C7F JUMPI RETURNDATASIZE PUSH1 0x0 DUP1 RETURNDATACOPY RETURNDATASIZE PUSH1 0x0 REVERT JUMPDEST POP POP POP POP JUMPDEST DUP1 SLOAD DUP4 SWAP1 PUSH1 0x0 SWAP1 PUSH2 0x2CA1 PUSH12 0x204FCE5E3E25026110000000 DUP5 PUSH2 0x4C87 JUMP JUMPDEST PUSH2 0x2CAB SWAP2 SWAP1 PUSH2 0x4C4E JUMP JUMPDEST SWAP1 POP PUSH2 0x2CB5 PUSH2 0x380B JUMP JUMPDEST PUSH2 0x2CBE CALLER PUSH2 0x39E2 JUMP JUMPDEST DUP5 ISZERO DUP1 ISZERO PUSH2 0x2CCC JUMPI POP PUSH1 0x0 DUP5 GT JUMPDEST ISZERO PUSH2 0x2D0D JUMPI PUSH1 0x0 PUSH2 0x2CDB PUSH2 0x1930 JUMP JUMPDEST SWAP1 POP DUP1 PUSH1 0x7 SLOAD DUP7 PUSH2 0x2CEC SWAP2 SWAP1 PUSH2 0x4C87 JUMP JUMPDEST PUSH2 0x2CF6 SWAP2 SWAP1 PUSH2 0x4C4E JUMP JUMPDEST DUP5 SLOAD SWAP1 SWAP4 POP DUP4 GT ISZERO PUSH2 0x2D07 JUMPI DUP4 SLOAD SWAP3 POP JUMPDEST POP PUSH2 0x2D34 JUMP JUMPDEST DUP3 SLOAD PUSH12 0x204FCE5E3E25026110000000 SWAP1 PUSH2 0x2D27 SWAP1 DUP4 PUSH2 0x4C87 JUMP JUMPDEST PUSH2 0x2D31 SWAP2 SWAP1 PUSH2 0x4C4E JUMP JUMPDEST SWAP2 POP JUMPDEST PUSH1 0x0 PUSH1 0x7 SLOAD DUP4 PUSH2 0x2D42 PUSH2 0x1930 JUMP JUMPDEST PUSH2 0x2D4C SWAP2 SWAP1 PUSH2 0x4C87 JUMP JUMPDEST PUSH2 0x2D56 SWAP2 SWAP1 PUSH2 0x4C4E JUMP JUMPDEST SWAP1 POP DUP3 DUP5 PUSH1 0x0 ADD PUSH1 0x0 DUP3 DUP3 SLOAD PUSH2 0x2D6C SWAP2 SWAP1 PUSH2 0x4CC4 JUMP JUMPDEST SWAP3 POP POP DUP2 SWAP1 SSTORE POP DUP3 PUSH1 0x7 PUSH1 0x0 DUP3 DUP3 SLOAD PUSH2 0x2D85 SWAP2 SWAP1 PUSH2 0x4CC4 JUMP JUMPDEST SWAP1 SWAP2 SSTORE POP POP CALLER PUSH1 0x0 SWAP1 DUP2 MSTORE PUSH1 0x5 PUSH1 0x20 MSTORE PUSH1 0x40 SWAP1 KECCAK256 SLOAD PUSH1 0xFF AND ISZERO DUP1 ISZERO PUSH2 0x2DBA JUMPI POP PUSH1 0x18 SLOAD DUP5 PUSH1 0x1 ADD SLOAD PUSH2 0x2DB7 SWAP2 SWAP1 PUSH2 0x4C36 JUMP JUMPDEST TIMESTAMP LT JUMPDEST ISZERO PUSH2 0x2E47 JUMPI PUSH1 0x15 SLOAD PUSH2 0x2DCB CALLER PUSH2 0x2B11 JUMP JUMPDEST ISZERO PUSH2 0x2DD5 JUMPI POP PUSH1 0x16 SLOAD JUMPDEST PUSH1 0x0 PUSH2 0x2710 PUSH2 0x2DE4 DUP4 DUP6 PUSH2 0x4C87 JUMP JUMPDEST PUSH2 0x2DEE SWAP2 SWAP1 PUSH2 0x4C4E JUMP JUMPDEST PUSH1 0x9 SLOAD SWAP1 SWAP2 POP PUSH2 0x2E38 SWAP1 PUSH20 0xFFFFFFFFFFFFFFFFFFFFFFFFFFFFFFFFFFFFFFFF PUSH32 0x0 DUP2 AND SWAP2 AND DUP4 PUSH2 0x3732 JUMP JUMPDEST PUSH2 0x2E42 DUP2 DUP5 PUSH2 0x4CC4 JUMP JUMPDEST SWAP3 POP POP POP JUMPDEST PUSH2 0x2E88 PUSH20 0xFFFFFFFFFFFFFFFFFFFFFFFFFFFFFFFFFFFFFFFF PUSH32 0x0 AND CALLER DUP4 PUSH2 0x3732 JUMP JUMPDEST DUP4 SLOAD ISZERO PUSH2 0x2EBA JUMPI PUSH1 0x7 SLOAD PUSH2 0x2E9A PUSH2 0x1930 JUMP JUMPDEST DUP6 SLOAD PUSH2 0x2EA6 SWAP2 SWAP1 PUSH2 0x4C87 JUMP JUMPDEST PUSH2 0x2EB0 SWAP2 SWAP1 PUSH2 0x4C4E JUMP JUMPDEST PUSH1 0x2 DUP6 ADD SSTORE PUSH2 0x2EC2 JUMP JUMPDEST PUSH1 0x0 PUSH1 0x2 DUP6 ADD SSTORE JUMPDEST TIMESTAMP PUSH1 0x3 DUP6 ADD SSTORE PUSH2 0x2ED1 CALLER PUSH2 0x3E53 JUMP JUMPDEST CALLER PUSH20 0xFFFFFFFFFFFFFFFFFFFFFFFFFFFFFFFFFFFFFFFF AND PUSH32 0xF279E6A1F5E320CCA91135676D9CB6E44CA8A08C0B88342BCDB1144F6511B568 DUP3 DUP6 PUSH1 0x40 MLOAD PUSH2 0x2F19 SWAP3 SWAP2 SWAP1 PUSH2 0x4BCC JUMP JUMPDEST PUSH1 0x40 MLOAD DUP1 SWAP2 SUB SWAP1 LOG2 POP POP POP POP POP POP JUMP JUMPDEST PUSH20 0xFFFFFFFFFFFFFFFFFFFFFFFFFFFFFFFFFFFFFFFF DUP2 AND PUSH1 0x0 SWAP1 DUP2 MSTORE PUSH1 0x3 PUSH1 0x20 MSTORE PUSH1 0x40 SWAP1 KECCAK256 DUP1 SLOAD ISZERO DUP1 PUSH2 0x2F5C JUMPI POP PUSH1 0x0 DUP5 GT JUMPDEST ISZERO PUSH2 0x2FA0 JUMPI PUSH6 0x9184E72A000 DUP5 GT PUSH2 0x2FA0 JUMPI PUSH1 0x40 MLOAD PUSH32 0x8C379A000000000000000000000000000000000000000000000000000000000 DUP2 MSTORE PUSH1 0x4 ADD PUSH2 0x972 SWAP1 PUSH2 0x483A JUMP JUMPDEST PUSH1 0x5 DUP2 ADD SLOAD DUP4 SWAP1 TIMESTAMP GT PUSH2 0x2FFE JUMPI DUP5 ISZERO PUSH2 0x2FDD JUMPI TIMESTAMP PUSH1 0x4 DUP4 ADD SSTORE PUSH1 0x8 DUP3 ADD SLOAD PUSH1 0xD DUP1 SLOAD PUSH1 0x0 SWAP1 PUSH2 0x2FD0 SWAP1 DUP5 SWAP1 PUSH2 0x4CC4 JUMP JUMPDEST SWAP1 SWAP2 SSTORE POP POP PUSH1 0x0 PUSH1 0x8 DUP4 ADD SSTORE JUMPDEST DUP2 PUSH1 0x4 ADD SLOAD DUP3 PUSH1 0x5 ADD SLOAD PUSH2 0x2FF1 SWAP2 SWAP1 PUSH2 0x4CC4 JUMP JUMPDEST PUSH2 0x2FFB SWAP1 DUP3 PUSH2 0x4C36 JUMP JUMPDEST SWAP1 POP JUMPDEST DUP4 ISZERO DUP1 PUSH2 0x300E JUMPI POP PUSH3 0x93A80 DUP2 LT ISZERO JUMPDEST PUSH2 0x3044 JUMPI PUSH1 0x40 MLOAD PUSH32 0x8C379A000000000000000000000000000000000000000000000000000000000 DUP2 MSTORE PUSH1 0x4 ADD PUSH2 0x972 SWAP1 PUSH2 0x4621 JUMP JUMPDEST PUSH1 0xF SLOAD DUP2 GT ISZERO PUSH2 0x3080 JUMPI PUSH1 0x40 MLOAD PUSH32 0x8C379A000000000000000000000000000000000000000000000000000000000 DUP2 MSTORE PUSH1 0x4 ADD PUSH2 0x972 SWAP1 PUSH2 0x45B3 JUMP JUMPDEST PUSH1 0x2 SLOAD PUSH20 0xFFFFFFFFFFFFFFFFFFFFFFFFFFFFFFFFFFFFFFFF AND ISZERO PUSH2 0x312B JUMPI PUSH1 0x2 SLOAD PUSH1 0x40 MLOAD PUSH32 0xEFE6A8B00000000000000000000000000000000000000000000000000000000 DUP2 MSTORE PUSH20 0xFFFFFFFFFFFFFFFFFFFFFFFFFFFFFFFFFFFFFFFF SWAP1 SWAP2 AND SWAP1 PUSH4 0xEFE6A8B SWAP1 PUSH2 0x30F8 SWAP1 DUP7 SWAP1 DUP10 SWAP1 DUP10 SWAP1 PUSH1 0x4 ADD PUSH2 0x4256 JUMP JUMPDEST PUSH1 0x0 PUSH1 0x40 MLOAD DUP1 DUP4 SUB DUP2 PUSH1 0x0 DUP8 DUP1 EXTCODESIZE ISZERO DUP1 ISZERO PUSH2 0x3112 JUMPI PUSH1 0x0 DUP1 REVERT JUMPDEST POP GAS CALL ISZERO DUP1 ISZERO PUSH2 0x3126 JUMPI RETURNDATASIZE PUSH1 0x0 DUP1 RETURNDATACOPY RETURNDATASIZE PUSH1 0x0 REVERT JUMPDEST POP POP POP POP JUMPDEST PUSH2 0x3133 PUSH2 0x380B JUMP JUMPDEST PUSH1 0x7 SLOAD PUSH2 0x3190 JUMPI PUSH1 0x0 PUSH2 0x3144 PUSH2 0x13AC JUMP JUMPDEST PUSH1 0x9 SLOAD SWAP1 SWAP2 POP PUSH2 0x318E SWAP1 PUSH20 0xFFFFFFFFFFFFFFFFFFFFFFFFFFFFFFFFFFFFFFFF PUSH32 0x0 DUP2 AND SWAP2 AND DUP4 PUSH2 0x3732 JUMP JUMPDEST POP JUMPDEST PUSH2 0x3199 DUP4 PUSH2 0x39E2 JUMP JUMPDEST DUP4 ISZERO PUSH2 0x3210 JUMPI TIMESTAMP DUP3 PUSH1 0x5 ADD SLOAD LT ISZERO PUSH2 0x31C8 JUMPI TIMESTAMP PUSH1 0x4 DUP4 ADD DUP2 SWAP1 SSTORE PUSH2 0x31BE SWAP1 DUP6 SWAP1 PUSH2 0x4C36 JUMP JUMPDEST PUSH1 0x5 DUP4 ADD SSTORE PUSH2 0x31E2 JUMP JUMPDEST DUP4 DUP3 PUSH1 0x5 ADD PUSH1 0x0 DUP3 DUP3 SLOAD PUSH2 0x31DC SWAP2 SWAP1 PUSH2 0x4C36 JUMP JUMPDEST SWAP1 SWAP2 SSTORE POP POP JUMPDEST PUSH1 0x7 DUP3 ADD DUP1 SLOAD PUSH32 0xFFFFFFFFFFFFFFFFFFFFFFFFFFFFFFFFFFFFFFFFFFFFFFFFFFFFFFFFFFFFFF00 AND PUSH1 0x1 OR SWAP1 SSTORE JUMPDEST PUSH1 0x0 DUP1 PUSH1 0x0 DUP1 PUSH2 0x321E PUSH2 0x1930 JUMP JUMPDEST SWAP1 POP DUP9 ISZERO PUSH2 0x326C JUMPI PUSH2 0x3268 PUSH20 0xFFFFFFFFFFFFFFFFFFFFFFFFFFFFFFFFFFFFFFFF PUSH32 0x0 AND DUP9 ADDRESS DUP13 PUSH2 0x2A4A JUMP JUMPDEST DUP9 SWAP3 POP JUMPDEST DUP6 SLOAD ISZERO DUP1 ISZERO SWAP1 PUSH2 0x3280 JUMPI POP PUSH1 0x7 DUP7 ADD SLOAD PUSH1 0xFF AND JUMPDEST ISZERO PUSH2 0x32F9 JUMPI PUSH1 0x7 SLOAD DUP7 SLOAD PUSH2 0x3294 SWAP1 DUP4 PUSH2 0x4C87 JUMP JUMPDEST PUSH2 0x329E SWAP2 SWAP1 PUSH2 0x4C4E JUMP JUMPDEST SWAP2 POP PUSH2 0x32AA DUP3 DUP5 PUSH2 0x4C36 JUMP JUMPDEST SWAP3 POP DUP6 PUSH1 0x0 ADD SLOAD PUSH1 0x7 PUSH1 0x0 DUP3 DUP3 SLOAD PUSH2 0x32C2 SWAP2 SWAP1 PUSH2 0x4CC4 JUMP JUMPDEST SWAP1 SWAP2 SSTORE POP POP PUSH1 0x0 DUP7 SSTORE PUSH1 0x4 DUP7 ADD SLOAD TIMESTAMP EQ ISZERO PUSH2 0x32F9 JUMPI PUSH1 0x8 DUP7 ADD DUP3 SWAP1 SSTORE PUSH1 0xD DUP1 SLOAD DUP4 SWAP2 SWAP1 PUSH1 0x0 SWAP1 PUSH2 0x32F3 SWAP1 DUP5 SWAP1 PUSH2 0x4C36 JUMP JUMPDEST SWAP1 SWAP2 SSTORE POP POP JUMPDEST PUSH1 0x7 SLOAD ISZERO PUSH2 0x3329 JUMPI PUSH2 0x330B DUP3 DUP3 PUSH2 0x4CC4 JUMP JUMPDEST PUSH1 0x7 SLOAD PUSH2 0x3318 SWAP1 DUP6 PUSH2 0x4C87 JUMP JUMPDEST PUSH2 0x3322 SWAP2 SWAP1 PUSH2 0x4C4E JUMP JUMPDEST SWAP4 POP PUSH2 0x332D JUMP JUMPDEST DUP3 SWAP4 POP JUMPDEST DUP6 PUSH1 0x4 ADD SLOAD DUP7 PUSH1 0x5 ADD SLOAD GT ISZERO PUSH2 0x34B0 JUMPI PUSH1 0x0 PUSH1 0x10 SLOAD PUSH1 0x12 SLOAD DUP9 PUSH1 0x4 ADD SLOAD DUP10 PUSH1 0x5 ADD SLOAD PUSH2 0x3359 SWAP2 SWAP1 PUSH2 0x4CC4 JUMP JUMPDEST PUSH2 0x3363 SWAP2 SWAP1 PUSH2 0x4C87 JUMP JUMPDEST PUSH2 0x336D SWAP2 SWAP1 PUSH2 0x4C4E JUMP JUMPDEST SWAP1 POP PUSH1 0x0 PUSH5 0xE8D4A51000 PUSH2 0x3381 DUP8 DUP5 PUSH2 0x4C87 JUMP JUMPDEST PUSH2 0x338B SWAP2 SWAP1 PUSH2 0x4C4E JUMP JUMPDEST SWAP1 POP PUSH2 0x3397 DUP2 DUP8 PUSH2 0x4C36 JUMP JUMPDEST SWAP6 POP DUP6 DUP9 PUSH1 0x0 ADD PUSH1 0x0 DUP3 DUP3 SLOAD PUSH2 0x33AD SWAP2 SWAP1 PUSH2 0x4C36 JUMP JUMPDEST SWAP1 SWAP2 SSTORE POP PUSH1 0x0 SWAP1 POP PUSH5 0xE8D4A51000 PUSH2 0x33C5 DUP8 DUP6 PUSH2 0x4C87 JUMP JUMPDEST PUSH2 0x33CF SWAP2 SWAP1 PUSH2 0x4C4E JUMP JUMPDEST SWAP1 POP DUP1 DUP10 PUSH1 0x6 ADD PUSH1 0x0 DUP3 DUP3 SLOAD PUSH2 0x33E5 SWAP2 SWAP1 PUSH2 0x4C36 JUMP JUMPDEST SWAP3 POP POP DUP2 SWAP1 SSTORE POP DUP1 PUSH1 0xC PUSH1 0x0 DUP3 DUP3 SLOAD PUSH2 0x33FE SWAP2 SWAP1 PUSH2 0x4C36 JUMP JUMPDEST SWAP3 POP POP DUP2 SWAP1 SSTORE POP DUP12 DUP10 PUSH1 0x8 ADD PUSH1 0x0 DUP3 DUP3 SLOAD PUSH2 0x3419 SWAP2 SWAP1 PUSH2 0x4C36 JUMP JUMPDEST SWAP3 POP POP DUP2 SWAP1 SSTORE POP DUP12 PUSH1 0xD PUSH1 0x0 DUP3 DUP3 SLOAD PUSH2 0x3432 SWAP2 SWAP1 PUSH2 0x4C36 JUMP JUMPDEST SWAP3 POP POP DUP2 SWAP1 SSTORE POP DUP10 PUSH20 0xFFFFFFFFFFFFFFFFFFFFFFFFFFFFFFFFFFFFFFFF AND PUSH32 0x2B943276E5D747F6F7DD46D3B880D8874CB8D6B9B88CA1903990A2738E7DC7A1 DUP11 PUSH1 0x8 ADD SLOAD DUP12 PUSH1 0x0 ADD SLOAD DUP13 PUSH1 0x4 ADD SLOAD DUP14 PUSH1 0x5 ADD SLOAD PUSH2 0x348F SWAP2 SWAP1 PUSH2 0x4CC4 JUMP JUMPDEST TIMESTAMP PUSH1 0x40 MLOAD PUSH2 0x34A0 SWAP5 SWAP4 SWAP3 SWAP2 SWAP1 PUSH2 0x4BDA JUMP JUMPDEST PUSH1 0x40 MLOAD DUP1 SWAP2 SUB SWAP1 LOG2 POP POP POP PUSH2 0x34CA JUMP JUMPDEST DUP4 DUP7 PUSH1 0x0 ADD PUSH1 0x0 DUP3 DUP3 SLOAD PUSH2 0x34C4 SWAP2 SWAP1 PUSH2 0x4C36 JUMP JUMPDEST SWAP1 SWAP2 SSTORE POP POP JUMPDEST PUSH1 0x0 DUP10 GT DUP1 PUSH2 0x34D9 JUMPI POP PUSH1 0x0 DUP9 GT JUMPDEST ISZERO PUSH2 0x34E5 JUMPI TIMESTAMP PUSH1 0x1 DUP8 ADD SSTORE JUMPDEST DUP4 PUSH1 0x7 PUSH1 0x0 DUP3 DUP3 SLOAD PUSH2 0x34F7 SWAP2 SWAP1 PUSH2 0x4C36 JUMP JUMPDEST SWAP1 SWAP2 SSTORE POP POP PUSH1 0x6 DUP7 ADD SLOAD PUSH1 0x7 SLOAD PUSH2 0x350C PUSH2 0x1930 JUMP JUMPDEST DUP9 SLOAD PUSH2 0x3518 SWAP2 SWAP1 PUSH2 0x4C87 JUMP JUMPDEST PUSH2 0x3522 SWAP2 SWAP1 PUSH2 0x4C4E JUMP JUMPDEST PUSH2 0x352C SWAP2 SWAP1 PUSH2 0x4CC4 JUMP JUMPDEST PUSH1 0x2 DUP8 ADD SSTORE TIMESTAMP PUSH1 0x3 DUP8 ADD SSTORE PUSH2 0x3540 DUP8 PUSH2 0x3E53 JUMP JUMPDEST DUP7 PUSH20 0xFFFFFFFFFFFFFFFFFFFFFFFFFFFFFFFFFFFFFFFF AND PUSH32 0x7162984403F6C73C8639375D45A9187DFD04602231BD8E587C415718B5F7E5F9 DUP11 DUP7 DUP12 TIMESTAMP PUSH1 0x40 MLOAD PUSH2 0x358C SWAP5 SWAP4 SWAP3 SWAP2 SWAP1 PUSH2 0x4BDA JUMP JUMPDEST PUSH1 0x40 MLOAD DUP1 SWAP2 SUB SWAP1 LOG2 POP POP POP POP POP POP POP POP POP JUMP JUMPDEST PUSH2 0x35A7 PUSH2 0x160D JUMP JUMPDEST PUSH2 0x192E JUMPI PUSH1 0x40 MLOAD PUSH32 0x8C379A000000000000000000000000000000000000000000000000000000000 DUP2 MSTORE PUSH1 0x4 ADD PUSH2 0x972 SWAP1 PUSH2 0x4352 JUMP JUMPDEST PUSH2 0x35E5 PUSH2 0x359F JUMP JUMPDEST PUSH1 0x0 DUP1 SLOAD PUSH32 0xFFFFFFFFFFFFFFFFFFFFFF00FFFFFFFFFFFFFFFFFFFFFFFFFFFFFFFFFFFFFFFF AND SWAP1 SSTORE PUSH32 0x5DB9EE0A495BF2E6FF9C91A7834C1BA4FDD244A5E8AA4E537BD38AEAE4B073AA PUSH2 0x3636 PUSH2 0x3751 JUMP JUMPDEST PUSH1 0x40 MLOAD PUSH2 0x3643 SWAP2 SWAP1 PUSH2 0x41DE JUMP JUMPDEST PUSH1 0x40 MLOAD DUP1 SWAP2 SUB SWAP1 LOG1 JUMP JUMPDEST PUSH1 0x0 DUP1 SLOAD PUSH20 0xFFFFFFFFFFFFFFFFFFFFFFFFFFFFFFFFFFFFFFFF DUP4 DUP2 AND PUSH32 0xFFFFFFFFFFFFFFFFFFFFFFFF0000000000000000000000000000000000000000 DUP4 AND DUP2 OR DUP5 SSTORE PUSH1 0x40 MLOAD SWAP2 SWAP1 SWAP3 AND SWAP3 DUP4 SWAP2 PUSH32 0x8BE0079C531659141344CD1FD0A4F28419497F9722A3DAAFE3B4186F6B6457E0 SWAP2 SWAP1 LOG3 POP POP JUMP JUMPDEST PUSH2 0x36CA PUSH2 0x2B17 JUMP JUMPDEST PUSH1 0x0 DUP1 SLOAD PUSH32 0xFFFFFFFFFFFFFFFFFFFFFF00FFFFFFFFFFFFFFFFFFFFFFFFFFFFFFFFFFFFFFFF AND PUSH21 0x10000000000000000000000000000000000000000 OR SWAP1 SSTORE PUSH32 0x62E78CEA01BEE320CD4E420270B5EA74000D11B0C9F74754EBDBFC544B05A258 PUSH2 0x3636 PUSH2 0x3751 JUMP JUMPDEST PUSH2 0x111D DUP4 PUSH4 0xA9059CBB PUSH1 0xE0 SHL DUP5 DUP5 PUSH1 0x40 MLOAD PUSH1 0x24 ADD PUSH2 0x2A6B SWAP3 SWAP2 SWAP1 PUSH2 0x4230 JUMP JUMPDEST CALLER SWAP1 JUMP JUMPDEST PUSH1 0x0 PUSH2 0x37B7 DUP3 PUSH1 0x40 MLOAD DUP1 PUSH1 0x40 ADD PUSH1 0x40 MSTORE DUP1 PUSH1 0x20 DUP2 MSTORE PUSH1 0x20 ADD PUSH32 0x5361666545524332303A206C6F772D6C6576656C2063616C6C206661696C6564 DUP2 MSTORE POP DUP6 PUSH20 0xFFFFFFFFFFFFFFFFFFFFFFFFFFFFFFFFFFFFFFFF AND PUSH2 0x3F4D SWAP1 SWAP3 SWAP2 SWAP1 PUSH4 0xFFFFFFFF AND JUMP JUMPDEST DUP1 MLOAD SWAP1 SWAP2 POP ISZERO PUSH2 0x111D JUMPI DUP1 DUP1 PUSH1 0x20 ADD SWAP1 MLOAD DUP2 ADD SWAP1 PUSH2 0x37D5 SWAP2 SWAP1 PUSH2 0x4155 JUMP JUMPDEST PUSH2 0x111D JUMPI PUSH1 0x40 MLOAD PUSH32 0x8C379A000000000000000000000000000000000000000000000000000000000 DUP2 MSTORE PUSH1 0x4 ADD PUSH2 0x972 SWAP1 PUSH2 0x4A51 JUMP JUMPDEST PUSH1 0xB SLOAD PUSH1 0x40 MLOAD PUSH32 0xC799B59D00000000000000000000000000000000000000000000000000000000 DUP2 MSTORE PUSH1 0x0 SWAP2 PUSH20 0xFFFFFFFFFFFFFFFFFFFFFFFFFFFFFFFFFFFFFFFF PUSH32 0x0 AND SWAP2 PUSH4 0xC799B59D SWAP2 PUSH2 0x3883 SWAP2 ADDRESS SWAP1 PUSH1 0x4 ADD PUSH2 0x4BA8 JUMP JUMPDEST PUSH1 0x20 PUSH1 0x40 MLOAD DUP1 DUP4 SUB DUP2 DUP7 DUP1 EXTCODESIZE ISZERO DUP1 ISZERO PUSH2 0x389B JUMPI PUSH1 0x0 DUP1 REVERT JUMPDEST POP GAS STATICCALL ISZERO DUP1 ISZERO PUSH2 0x38AF JUMPI RETURNDATASIZE PUSH1 0x0 DUP1 RETURNDATACOPY RETURNDATASIZE PUSH1 0x0 REVERT JUMPDEST POP POP POP POP PUSH1 0x40 MLOAD RETURNDATASIZE PUSH1 0x1F NOT PUSH1 0x1F DUP3 ADD AND DUP3 ADD DUP1 PUSH1 0x40 MSTORE POP DUP2 ADD SWAP1 PUSH2 0x38D3 SWAP2 SWAP1 PUSH2 0x4189 JUMP JUMPDEST SWAP1 POP DUP1 ISZERO PUSH2 0x1022 JUMPI PUSH1 0x0 PUSH2 0x38E5 PUSH2 0x13AC JUMP JUMPDEST PUSH1 0xB SLOAD PUSH1 0x40 MLOAD PUSH32 0x441A3E7000000000000000000000000000000000000000000000000000000000 DUP2 MSTORE SWAP2 SWAP3 POP PUSH20 0xFFFFFFFFFFFFFFFFFFFFFFFFFFFFFFFFFFFFFFFF PUSH32 0x0 AND SWAP2 PUSH4 0x441A3E70 SWAP2 PUSH2 0x395E SWAP2 PUSH1 0x0 SWAP1 PUSH1 0x4 ADD PUSH2 0x4BCC JUMP JUMPDEST PUSH1 0x0 PUSH1 0x40 MLOAD DUP1 DUP4 SUB DUP2 PUSH1 0x0 DUP8 DUP1 EXTCODESIZE ISZERO DUP1 ISZERO PUSH2 0x3978 JUMPI PUSH1 0x0 DUP1 REVERT JUMPDEST POP GAS CALL ISZERO DUP1 ISZERO PUSH2 0x398C JUMPI RETURNDATASIZE PUSH1 0x0 DUP1 RETURNDATACOPY RETURNDATASIZE PUSH1 0x0 REVERT JUMPDEST POP POP POP POP PUSH1 0x0 PUSH2 0x399A PUSH2 0x13AC JUMP JUMPDEST SWAP1 POP CALLER PUSH32 0xC9695243A805ADB74C91F28311176C65B417E842D5699893CEF56D18BFA48CBA PUSH2 0x39C8 DUP5 DUP5 PUSH2 0x4CC4 JUMP JUMPDEST PUSH1 0x40 MLOAD PUSH2 0x39D5 SWAP2 SWAP1 PUSH2 0x4B9F JUMP JUMPDEST PUSH1 0x40 MLOAD DUP1 SWAP2 SUB SWAP1 LOG2 POP POP POP JUMP JUMPDEST PUSH20 0xFFFFFFFFFFFFFFFFFFFFFFFFFFFFFFFFFFFFFFFF DUP2 AND PUSH1 0x0 SWAP1 DUP2 MSTORE PUSH1 0x3 PUSH1 0x20 MSTORE PUSH1 0x40 SWAP1 KECCAK256 DUP1 SLOAD ISZERO PUSH2 0x25F6 JUMPI PUSH1 0x7 DUP2 ADD SLOAD PUSH1 0xFF AND ISZERO PUSH2 0x3CDA JUMPI PUSH1 0x0 DUP2 PUSH1 0x6 ADD SLOAD PUSH1 0x7 SLOAD DUP4 PUSH1 0x0 ADD SLOAD PUSH2 0x3A32 PUSH2 0x1930 JUMP JUMPDEST PUSH2 0x3A3C SWAP2 SWAP1 PUSH2 0x4C87 JUMP JUMPDEST PUSH2 0x3A46 SWAP2 SWAP1 PUSH2 0x4C4E JUMP JUMPDEST PUSH2 0x3A50 SWAP2 SWAP1 PUSH2 0x4CC4 JUMP JUMPDEST SWAP1 POP DUP2 PUSH1 0x6 ADD SLOAD PUSH1 0xC PUSH1 0x0 DUP3 DUP3 SLOAD PUSH2 0x3A68 SWAP2 SWAP1 PUSH2 0x4CC4 JUMP JUMPDEST SWAP1 SWAP2 SSTORE POP POP PUSH1 0x0 PUSH1 0x6 DUP4 ADD DUP2 SWAP1 SSTORE DUP3 SLOAD PUSH1 0x7 DUP1 SLOAD SWAP2 SWAP3 SWAP1 SWAP2 PUSH2 0x3A8B SWAP1 DUP5 SWAP1 PUSH2 0x4CC4 JUMP JUMPDEST SWAP1 SWAP2 SSTORE POP POP PUSH20 0xFFFFFFFFFFFFFFFFFFFFFFFFFFFFFFFFFFFFFFFF DUP4 AND PUSH1 0x0 SWAP1 DUP2 MSTORE PUSH1 0x6 PUSH1 0x20 MSTORE PUSH1 0x40 SWAP1 KECCAK256 SLOAD PUSH1 0xFF AND ISZERO DUP1 ISZERO PUSH2 0x3AD6 JUMPI POP TIMESTAMP PUSH1 0xE SLOAD DUP4 PUSH1 0x5 ADD SLOAD PUSH2 0x3AD4 SWAP2 SWAP1 PUSH2 0x4C36 JUMP JUMPDEST LT JUMPDEST ISZERO PUSH2 0x3BB5 JUMPI PUSH1 0x0 DUP3 PUSH1 0x8 ADD SLOAD DUP3 PUSH2 0x3AED SWAP2 SWAP1 PUSH2 0x4CC4 JUMP JUMPDEST SWAP1 POP PUSH1 0x0 PUSH1 0xE SLOAD DUP5 PUSH1 0x5 ADD SLOAD TIMESTAMP PUSH2 0x3B04 SWAP2 SWAP1 PUSH2 0x4CC4 JUMP JUMPDEST PUSH2 0x3B0E SWAP2 SWAP1 PUSH2 0x4CC4 JUMP JUMPDEST SWAP1 POP PUSH1 0x11 SLOAD DUP2 GT ISZERO PUSH2 0x3B1F JUMPI POP PUSH1 0x11 SLOAD JUMPDEST PUSH1 0x0 PUSH1 0x11 SLOAD PUSH1 0x17 SLOAD DUP4 PUSH2 0x3B32 SWAP2 SWAP1 PUSH2 0x4C87 JUMP JUMPDEST PUSH2 0x3B3C SWAP2 SWAP1 PUSH2 0x4C4E JUMP JUMPDEST SWAP1 POP PUSH1 0x0 PUSH5 0xE8D4A51000 PUSH2 0x3B50 DUP4 DUP7 PUSH2 0x4C87 JUMP JUMPDEST PUSH2 0x3B5A SWAP2 SWAP1 PUSH2 0x4C4E JUMP JUMPDEST PUSH1 0x9 SLOAD SWAP1 SWAP2 POP PUSH2 0x3BA4 SWAP1 PUSH20 0xFFFFFFFFFFFFFFFFFFFFFFFFFFFFFFFFFFFFFFFF PUSH32 0x0 DUP2 AND SWAP2 AND DUP4 PUSH2 0x3732 JUMP JUMPDEST PUSH2 0x3BAE DUP2 DUP7 PUSH2 0x4CC4 JUMP JUMPDEST SWAP5 POP POP POP POP POP JUMPDEST PUSH1 0x0 PUSH2 0x3BBF PUSH2 0x1930 JUMP JUMPDEST SWAP1 POP PUSH1 0x0 PUSH1 0x7 SLOAD PUSH1 0x0 EQ PUSH2 0x3BF5 JUMPI PUSH2 0x3BD7 DUP4 DUP4 PUSH2 0x4CC4 JUMP JUMPDEST PUSH1 0x7 SLOAD PUSH2 0x3BE4 SWAP1 DUP6 PUSH2 0x4C87 JUMP JUMPDEST PUSH2 0x3BEE SWAP2 SWAP1 PUSH2 0x4C4E JUMP JUMPDEST SWAP1 POP PUSH2 0x3BF8 JUMP JUMPDEST POP DUP2 JUMPDEST DUP1 DUP5 SSTORE PUSH1 0x7 DUP1 SLOAD DUP3 SWAP2 SWAP1 PUSH1 0x0 SWAP1 PUSH2 0x3C10 SWAP1 DUP5 SWAP1 PUSH2 0x4C36 JUMP JUMPDEST SWAP1 SWAP2 SSTORE POP POP PUSH1 0x5 DUP5 ADD SLOAD TIMESTAMP GT ISZERO PUSH2 0x3CD2 JUMPI PUSH1 0x7 DUP5 ADD DUP1 SLOAD PUSH32 0xFFFFFFFFFFFFFFFFFFFFFFFFFFFFFFFFFFFFFFFFFFFFFFFFFFFFFFFFFFFFFF00 AND SWAP1 SSTORE PUSH1 0x0 PUSH1 0x4 DUP6 ADD DUP2 SWAP1 SSTORE PUSH1 0x5 DUP6 ADD DUP2 SWAP1 SSTORE PUSH1 0x8 DUP6 ADD SLOAD PUSH1 0xD DUP1 SLOAD SWAP2 SWAP3 SWAP1 SWAP2 PUSH2 0x3C73 SWAP1 DUP5 SWAP1 PUSH2 0x4CC4 JUMP JUMPDEST SWAP1 SWAP2 SSTORE POP POP PUSH1 0x0 PUSH1 0x8 DUP6 ADD SSTORE PUSH1 0x40 MLOAD PUSH20 0xFFFFFFFFFFFFFFFFFFFFFFFFFFFFFFFFFFFFFFFF DUP7 AND SWAP1 PUSH32 0xF7870C5B224CBC19873599E46CCFC7103934650509B1AF0C3CE90138377C2004 SWAP1 PUSH2 0x3CC9 SWAP1 DUP7 SWAP1 TIMESTAMP SWAP1 PUSH2 0x4BCC JUMP JUMPDEST PUSH1 0x40 MLOAD DUP1 SWAP2 SUB SWAP1 LOG2 JUMPDEST POP POP POP PUSH2 0x25F6 JUMP JUMPDEST PUSH20 0xFFFFFFFFFFFFFFFFFFFFFFFFFFFFFFFFFFFFFFFF DUP3 AND PUSH1 0x0 SWAP1 DUP2 MSTORE PUSH1 0x4 PUSH1 0x20 MSTORE PUSH1 0x40 SWAP1 KECCAK256 SLOAD PUSH1 0xFF AND PUSH2 0x25F6 JUMPI PUSH1 0x0 PUSH1 0x7 SLOAD PUSH2 0x3D14 PUSH2 0x1930 JUMP JUMPDEST DUP4 SLOAD PUSH2 0x3D20 SWAP2 SWAP1 PUSH2 0x4C87 JUMP JUMPDEST PUSH2 0x3D2A SWAP2 SWAP1 PUSH2 0x4C4E JUMP JUMPDEST SWAP1 POP DUP2 PUSH1 0x0 ADD SLOAD PUSH1 0x7 PUSH1 0x0 DUP3 DUP3 SLOAD PUSH2 0x3D42 SWAP2 SWAP1 PUSH2 0x4CC4 JUMP JUMPDEST SWAP1 SWAP2 SSTORE POP POP PUSH1 0x0 DUP1 DUP4 SSTORE PUSH1 0x2 DUP4 ADD SLOAD PUSH2 0x3D5B SWAP1 DUP4 PUSH2 0x4CC4 JUMP JUMPDEST PUSH1 0x13 SLOAD SWAP1 SWAP2 POP PUSH2 0x3D6A DUP6 PUSH2 0x2B11 JUMP JUMPDEST ISZERO PUSH2 0x3D74 JUMPI POP PUSH1 0x14 SLOAD JUMPDEST PUSH1 0x0 PUSH2 0x2710 PUSH2 0x3D83 DUP4 DUP6 PUSH2 0x4C87 JUMP JUMPDEST PUSH2 0x3D8D SWAP2 SWAP1 PUSH2 0x4C4E JUMP JUMPDEST SWAP1 POP DUP1 ISZERO PUSH2 0x3DE9 JUMPI PUSH1 0x9 SLOAD PUSH2 0x3DDC SWAP1 PUSH20 0xFFFFFFFFFFFFFFFFFFFFFFFFFFFFFFFFFFFFFFFF PUSH32 0x0 DUP2 AND SWAP2 AND DUP4 PUSH2 0x3732 JUMP JUMPDEST PUSH2 0x3DE6 DUP2 DUP6 PUSH2 0x4CC4 JUMP JUMPDEST SWAP4 POP JUMPDEST PUSH1 0x0 PUSH2 0x3DF3 PUSH2 0x1930 JUMP JUMPDEST SWAP1 POP PUSH1 0x0 PUSH1 0x7 SLOAD PUSH1 0x0 EQ PUSH2 0x3E29 JUMPI PUSH2 0x3E0B DUP7 DUP4 PUSH2 0x4CC4 JUMP JUMPDEST PUSH1 0x7 SLOAD PUSH2 0x3E18 SWAP1 DUP9 PUSH2 0x4C87 JUMP JUMPDEST PUSH2 0x3E22 SWAP2 SWAP1 PUSH2 0x4C4E JUMP JUMPDEST SWAP1 POP PUSH2 0x3E2C JUMP JUMPDEST POP DUP5 JUMPDEST DUP1 DUP8 SSTORE PUSH1 0x7 DUP1 SLOAD DUP3 SWAP2 SWAP1 PUSH1 0x0 SWAP1 PUSH2 0x3E44 SWAP1 DUP5 SWAP1 PUSH2 0x4C36 JUMP JUMPDEST SWAP1 SWAP2 SSTORE POP POP POP POP POP POP POP POP POP POP JUMP JUMPDEST PUSH1 0x1 SLOAD PUSH20 0xFFFFFFFFFFFFFFFFFFFFFFFFFFFFFFFFFFFFFFFF AND ISZERO PUSH2 0x1022 JUMPI PUSH20 0xFFFFFFFFFFFFFFFFFFFFFFFFFFFFFFFFFFFFFFFF DUP2 AND PUSH1 0x0 SWAP1 DUP2 MSTORE PUSH1 0x3 PUSH1 0x20 MSTORE PUSH1 0x40 DUP2 KECCAK256 PUSH1 0x4 DUP2 ADD SLOAD PUSH1 0x5 DUP3 ADD SLOAD SWAP2 SWAP3 SWAP2 PUSH2 0x3EAD SWAP2 SWAP1 PUSH2 0x4CC4 JUMP JUMPDEST PUSH1 0x1 SLOAD PUSH1 0x8 DUP5 ADD SLOAD PUSH1 0xD SLOAD PUSH1 0x10 SLOAD PUSH1 0x40 MLOAD PUSH32 0x87356EF700000000000000000000000000000000000000000000000000000000 DUP2 MSTORE SWAP5 SWAP6 POP PUSH20 0xFFFFFFFFFFFFFFFFFFFFFFFFFFFFFFFFFFFFFFFF SWAP1 SWAP4 AND SWAP4 PUSH4 0x87356EF7 SWAP4 PUSH2 0x3F16 SWAP4 DUP10 SWAP4 SWAP1 SWAP3 DUP9 SWAP3 SWAP1 PUSH1 0x4 ADD PUSH2 0x4284 JUMP JUMPDEST PUSH1 0x0 PUSH1 0x40 MLOAD DUP1 DUP4 SUB DUP2 PUSH1 0x0 DUP8 DUP1 EXTCODESIZE ISZERO DUP1 ISZERO PUSH2 0x3F30 JUMPI PUSH1 0x0 DUP1 REVERT JUMPDEST POP GAS CALL ISZERO DUP1 ISZERO PUSH2 0x3F44 JUMPI RETURNDATASIZE PUSH1 0x0 DUP1 RETURNDATACOPY RETURNDATASIZE PUSH1 0x0 REVERT JUMPDEST POP POP POP POP POP POP POP JUMP JUMPDEST PUSH1 0x60 PUSH2 0x3F5C DUP5 DUP5 PUSH1 0x0 DUP6 PUSH2 0x3F66 JUMP JUMPDEST SWAP1 POP JUMPDEST SWAP4 SWAP3 POP POP POP JUMP JUMPDEST PUSH1 0x60 DUP3 SELFBALANCE LT ISZERO PUSH2 0x3FA2 JUMPI PUSH1 0x40 MLOAD PUSH32 0x8C379A000000000000000000000000000000000000000000000000000000000 DUP2 MSTORE PUSH1 0x4 ADD PUSH2 0x972 SWAP1 PUSH2 0x4658 JUMP JUMPDEST PUSH2 0x3FAB DUP6 PUSH2 0x4067 JUMP JUMPDEST PUSH2 0x3FE1 JUMPI PUSH1 0x40 MLOAD PUSH32 0x8C379A000000000000000000000000000000000000000000000000000000000 DUP2 MSTORE PUSH1 0x4 ADD PUSH2 0x972 SWAP1 PUSH2 0x49BD JUMP JUMPDEST PUSH1 0x0 DUP1 DUP7 PUSH20 0xFFFFFFFFFFFFFFFFFFFFFFFFFFFFFFFFFFFFFFFF AND DUP6 DUP8 PUSH1 0x40 MLOAD PUSH2 0x400A SWAP2 SWAP1 PUSH2 0x41C2 JUMP JUMPDEST PUSH1 0x0 PUSH1 0x40 MLOAD DUP1 DUP4 SUB DUP2 DUP6 DUP8 GAS CALL SWAP3 POP POP POP RETURNDATASIZE DUP1 PUSH1 0x0 DUP2 EQ PUSH2 0x4047 JUMPI PUSH1 0x40 MLOAD SWAP2 POP PUSH1 0x1F NOT PUSH1 0x3F RETURNDATASIZE ADD AND DUP3 ADD PUSH1 0x40 MSTORE RETURNDATASIZE DUP3 MSTORE RETURNDATASIZE PUSH1 0x0 PUSH1 0x20 DUP5 ADD RETURNDATACOPY PUSH2 0x404C JUMP JUMPDEST PUSH1 0x60 SWAP2 POP JUMPDEST POP SWAP2 POP SWAP2 POP PUSH2 0x405C DUP3 DUP3 DUP7 PUSH2 0x4083 JUMP JUMPDEST SWAP8 SWAP7 POP POP POP POP POP POP POP JUMP JUMPDEST PUSH20 0xFFFFFFFFFFFFFFFFFFFFFFFFFFFFFFFFFFFFFFFF AND EXTCODESIZE ISZERO ISZERO SWAP1 JUMP JUMPDEST PUSH1 0x60 DUP4 ISZERO PUSH2 0x4092 JUMPI POP DUP2 PUSH2 0x3F5F JUMP JUMPDEST DUP3 MLOAD ISZERO PUSH2 0x40A2 JUMPI DUP3 MLOAD DUP1 DUP5 PUSH1 0x20 ADD REVERT JUMPDEST DUP2 PUSH1 0x40 MLOAD PUSH32 0x8C379A000000000000000000000000000000000000000000000000000000000 DUP2 MSTORE PUSH1 0x4 ADD PUSH2 0x972 SWAP2 SWAP1 PUSH2 0x42CA JUMP JUMPDEST PUSH1 0x0 PUSH1 0x20 DUP3 DUP5 SUB SLT ISZERO PUSH2 0x40E7 JUMPI DUP1 DUP2 REVERT JUMPDEST DUP2 CALLDATALOAD PUSH2 0x3F5F DUP2 PUSH2 0x4D36 JUMP JUMPDEST PUSH1 0x0 DUP1 PUSH1 0x40 DUP4 DUP6 SUB SLT ISZERO PUSH2 0x4104 JUMPI DUP1 DUP2 REVERT JUMPDEST DUP3 CALLDATALOAD PUSH2 0x410F DUP2 PUSH2 0x4D36 JUMP JUMPDEST SWAP2 POP PUSH1 0x20 DUP4 ADD CALLDATALOAD PUSH2 0x411F DUP2 PUSH2 0x4D58 JUMP JUMPDEST DUP1 SWAP2 POP POP SWAP3 POP SWAP3 SWAP1 POP JUMP JUMPDEST PUSH1 0x0 DUP1 PUSH1 0x40 DUP4 DUP6 SUB SLT ISZERO PUSH2 0x413C JUMPI DUP2 DUP3 REVERT JUMPDEST DUP3 CALLDATALOAD PUSH2 0x4147 DUP2 PUSH2 0x4D36 JUMP JUMPDEST SWAP5 PUSH1 0x20 SWAP4 SWAP1 SWAP4 ADD CALLDATALOAD SWAP4 POP POP POP JUMP JUMPDEST PUSH1 0x0 PUSH1 0x20 DUP3 DUP5 SUB SLT ISZERO PUSH2 0x4166 JUMPI DUP1 DUP2 REVERT JUMPDEST DUP2 MLOAD PUSH2 0x3F5F DUP2 PUSH2 0x4D58 JUMP JUMPDEST PUSH1 0x0 PUSH1 0x20 DUP3 DUP5 SUB SLT ISZERO PUSH2 0x4182 JUMPI DUP1 DUP2 REVERT JUMPDEST POP CALLDATALOAD SWAP2 SWAP1 POP JUMP JUMPDEST PUSH1 0x0 PUSH1 0x20 DUP3 DUP5 SUB SLT ISZERO PUSH2 0x419A JUMPI DUP1 DUP2 REVERT JUMPDEST POP MLOAD SWAP2 SWAP1 POP JUMP JUMPDEST PUSH1 0x0 DUP1 PUSH1 0x40 DUP4 DUP6 SUB SLT ISZERO PUSH2 0x41B3 JUMPI DUP2 DUP3 REVERT JUMPDEST POP POP DUP1 CALLDATALOAD SWAP3 PUSH1 0x20 SWAP1 SWAP2 ADD CALLDATALOAD SWAP2 POP JUMP JUMPDEST PUSH1 0x0 DUP3 MLOAD PUSH2 0x41D4 DUP2 DUP5 PUSH1 0x20 DUP8 ADD PUSH2 0x4CDB JUMP JUMPDEST SWAP2 SWAP1 SWAP2 ADD SWAP3 SWAP2 POP POP JUMP JUMPDEST PUSH20 0xFFFFFFFFFFFFFFFFFFFFFFFFFFFFFFFFFFFFFFFF SWAP2 SWAP1 SWAP2 AND DUP2 MSTORE PUSH1 0x20 ADD SWAP1 JUMP JUMPDEST PUSH20 0xFFFFFFFFFFFFFFFFFFFFFFFFFFFFFFFFFFFFFFFF SWAP4 DUP5 AND DUP2 MSTORE SWAP2 SWAP1 SWAP3 AND PUSH1 0x20 DUP3 ADD MSTORE PUSH1 0x40 DUP2 ADD SWAP2 SWAP1 SWAP2 MSTORE PUSH1 0x60 ADD SWAP1 JUMP JUMPDEST PUSH20 0xFFFFFFFFFFFFFFFFFFFFFFFFFFFFFFFFFFFFFFFF SWAP3 SWAP1 SWAP3 AND DUP3 MSTORE PUSH1 0x20 DUP3 ADD MSTORE PUSH1 0x40 ADD SWAP1 JUMP JUMPDEST PUSH20 0xFFFFFFFFFFFFFFFFFFFFFFFFFFFFFFFFFFFFFFFF SWAP4 SWAP1 SWAP4 AND DUP4 MSTORE PUSH1 0x20 DUP4 ADD SWAP2 SWAP1 SWAP2 MSTORE PUSH1 0x40 DUP3 ADD MSTORE PUSH1 0x60 ADD SWAP1 JUMP JUMPDEST PUSH20 0xFFFFFFFFFFFFFFFFFFFFFFFFFFFFFFFFFFFFFFFF SWAP6 SWAP1 SWAP6 AND DUP6 MSTORE PUSH1 0x20 DUP6 ADD SWAP4 SWAP1 SWAP4 MSTORE PUSH1 0x40 DUP5 ADD SWAP2 SWAP1 SWAP2 MSTORE PUSH1 0x60 DUP4 ADD MSTORE PUSH1 0x80 DUP3 ADD MSTORE PUSH1 0xA0 ADD SWAP1 JUMP JUMPDEST SWAP1 ISZERO ISZERO DUP2 MSTORE PUSH1 0x20 ADD SWAP1 JUMP JUMPDEST PUSH1 0x0 PUSH1 0x20 DUP3 MSTORE DUP3 MLOAD DUP1 PUSH1 0x20 DUP5 ADD MSTORE PUSH2 0x42E9 DUP2 PUSH1 0x40 DUP6 ADD PUSH1 0x20 DUP8 ADD PUSH2 0x4CDB JUMP JUMPDEST PUSH1 0x1F ADD PUSH32 0xFFFFFFFFFFFFFFFFFFFFFFFFFFFFFFFFFFFFFFFFFFFFFFFFFFFFFFFFFFFFFFE0 AND SWAP2 SWAP1 SWAP2 ADD PUSH1 0x40 ADD SWAP3 SWAP2 POP POP JUMP JUMPDEST PUSH1 0x20 DUP1 DUP3 MSTORE PUSH1 0x12 SWAP1 DUP3 ADD MSTORE PUSH32 0x4E6F7468696E6720746F206465706F7369740000000000000000000000000000 PUSH1 0x40 DUP3 ADD MSTORE PUSH1 0x60 ADD SWAP1 JUMP JUMPDEST PUSH1 0x20 DUP1 DUP3 MSTORE PUSH1 0x14 SWAP1 DUP3 ADD MSTORE PUSH32 0x5061757361626C653A206E6F7420706175736564000000000000000000000000 PUSH1 0x40 DUP3 ADD MSTORE PUSH1 0x60 ADD SWAP1 JUMP JUMPDEST PUSH1 0x20 DUP1 DUP3 MSTORE PUSH1 0x13 SWAP1 DUP3 ADD MSTORE PUSH32 0x4E6F7468696E6720746F20776974686472617700000000000000000000000000 PUSH1 0x40 DUP3 ADD MSTORE PUSH1 0x60 ADD SWAP1 JUMP JUMPDEST PUSH1 0x20 DUP1 DUP3 MSTORE PUSH1 0x26 SWAP1 DUP3 ADD MSTORE PUSH32 0x4F776E61626C653A206E6577206F776E657220697320746865207A65726F2061 PUSH1 0x40 DUP3 ADD MSTORE PUSH32 0x6464726573730000000000000000000000000000000000000000000000000000 PUSH1 0x60 DUP3 ADD MSTORE PUSH1 0x80 ADD SWAP1 JUMP JUMPDEST PUSH1 0x20 DUP1 DUP3 MSTORE PUSH1 0x1E SWAP1 DUP3 ADD MSTORE PUSH32 0x4455524154494F4E5F464143544F522063616E6E6F74206265207A65726F0000 PUSH1 0x40 DUP3 ADD MSTORE PUSH1 0x60 ADD SWAP1 JUMP JUMPDEST PUSH1 0x20 DUP1 DUP3 MSTORE PUSH1 0xD SWAP1 DUP3 ADD MSTORE PUSH32 0x5374696C6C20696E206C6F636B00000000000000000000000000000000000000 PUSH1 0x40 DUP3 ADD MSTORE PUSH1 0x60 ADD SWAP1 JUMP JUMPDEST PUSH1 0x20 DUP1 DUP3 MSTORE PUSH1 0x33 SWAP1 DUP3 ADD MSTORE PUSH32 0x424F4F53545F5745494748542063616E6E6F74206265206D6F7265207468616E PUSH1 0x40 DUP3 ADD MSTORE PUSH32 0x20424F4F53545F5745494748545F4C494D495400000000000000000000000000 PUSH1 0x60 DUP3 ADD MSTORE PUSH1 0x80 ADD SWAP1 JUMP JUMPDEST PUSH1 0x20 DUP1 DUP3 MSTORE PUSH1 0x15 SWAP1 DUP3 ADD MSTORE PUSH32 0x42616C616E6365206D7573742065786365656420300000000000000000000000 PUSH1 0x40 DUP3 ADD MSTORE PUSH1 0x60 ADD SWAP1 JUMP JUMPDEST PUSH1 0x20 DUP1 DUP3 MSTORE PUSH1 0x25 SWAP1 DUP3 ADD MSTORE PUSH32 0x546F6B656E2063616E6E6F742062652073616D65206173206465706F73697420 PUSH1 0x40 DUP3 ADD MSTORE PUSH32 0x746F6B656E000000000000000000000000000000000000000000000000000000 PUSH1 0x60 DUP3 ADD MSTORE PUSH1 0x80 ADD SWAP1 JUMP JUMPDEST PUSH1 0x20 DUP1 DUP3 MSTORE PUSH1 0x1F SWAP1 DUP3 ADD MSTORE PUSH32 0x576974686472617720616D6F756E7420657863656564732062616C616E636500 PUSH1 0x40 DUP3 ADD MSTORE PUSH1 0x60 ADD SWAP1 JUMP JUMPDEST PUSH1 0x20 DUP1 DUP3 MSTORE PUSH1 0x1C SWAP1 DUP3 ADD MSTORE PUSH32 0x4D6178696D756D206C6F636B20706572696F6420657863656564656400000000 PUSH1 0x40 DUP3 ADD MSTORE PUSH1 0x60 ADD SWAP1 JUMP JUMPDEST PUSH1 0x20 DUP1 DUP3 MSTORE PUSH1 0x1A SWAP1 DUP3 ADD MSTORE PUSH32 0x4E6F74206F70657261746F72206F722053686477206F776E6572000000000000 PUSH1 0x40 DUP3 ADD MSTORE PUSH1 0x60 ADD SWAP1 JUMP JUMPDEST PUSH1 0x20 DUP1 DUP3 MSTORE PUSH1 0x1F SWAP1 DUP3 ADD MSTORE PUSH32 0x4D696E696D756D206C6F636B20706572696F64206973206F6E65207765656B00 PUSH1 0x40 DUP3 ADD MSTORE PUSH1 0x60 ADD SWAP1 JUMP JUMPDEST PUSH1 0x20 DUP1 DUP3 MSTORE PUSH1 0x26 SWAP1 DUP3 ADD MSTORE PUSH32 0x416464726573733A20696E73756666696369656E742062616C616E636520666F PUSH1 0x40 DUP3 ADD MSTORE PUSH32 0x722063616C6C0000000000000000000000000000000000000000000000000000 PUSH1 0x60 DUP3 ADD MSTORE PUSH1 0x80 ADD SWAP1 JUMP JUMPDEST PUSH1 0x20 DUP1 DUP3 MSTORE PUSH1 0x36 SWAP1 DUP3 ADD MSTORE PUSH32 0x706572666F726D616E63654665652063616E6E6F74206265206D6F7265207468 PUSH1 0x40 DUP3 ADD MSTORE PUSH32 0x616E204D41585F504552464F524D414E43455F46454500000000000000000000 PUSH1 0x60 DUP3 ADD MSTORE PUSH1 0x80 ADD SWAP1 JUMP JUMPDEST PUSH1 0x20 DUP1 DUP3 MSTORE PUSH1 0x10 SWAP1 DUP3 ADD MSTORE PUSH32 0x5061757361626C653A2070617573656400000000000000000000000000000000 PUSH1 0x40 DUP3 ADD MSTORE PUSH1 0x60 ADD SWAP1 JUMP JUMPDEST PUSH1 0x20 DUP1 DUP3 MSTORE PUSH1 0x16 SWAP1 DUP3 ADD MSTORE PUSH32 0x43616E6E6F74206265207A65726F206164647265737300000000000000000000 PUSH1 0x40 DUP3 ADD MSTORE PUSH1 0x60 ADD SWAP1 JUMP JUMPDEST PUSH1 0x20 DUP1 DUP3 MSTORE PUSH1 0x26 SWAP1 DUP3 ADD MSTORE PUSH32 0x4455524154494F4E5F464143544F525F4F5645524455452063616E6E6F742062 PUSH1 0x40 DUP3 ADD MSTORE PUSH32 0x65207A65726F0000000000000000000000000000000000000000000000000000 PUSH1 0x60 DUP3 ADD MSTORE PUSH1 0x80 ADD SWAP1 JUMP JUMPDEST PUSH1 0x20 DUP1 DUP3 MSTORE PUSH1 0x2E SWAP1 DUP3 ADD MSTORE PUSH32 0x6F7665726475654665652063616E6E6F74206265206D6F7265207468616E204D PUSH1 0x40 DUP3 ADD MSTORE PUSH32 0x41585F4F5645524455455F464545000000000000000000000000000000000000 PUSH1 0x60 DUP3 ADD MSTORE PUSH1 0x80 ADD SWAP1 JUMP JUMPDEST PUSH1 0x20 DUP1 DUP3 MSTORE PUSH1 0x36 SWAP1 DUP3 ADD MSTORE PUSH32 0x4465706F73697420616D6F756E74206D75737420626520677265617465722074 PUSH1 0x40 DUP3 ADD MSTORE PUSH32 0x68616E204D494E5F4445504F5349545F414D4F554E5400000000000000000000 PUSH1 0x60 DUP3 ADD MSTORE PUSH1 0x80 ADD SWAP1 JUMP JUMPDEST PUSH1 0x20 DUP1 DUP3 MSTORE PUSH1 0x3D SWAP1 DUP3 ADD MSTORE PUSH32 0x4D41585F4C4F434B5F4455524154494F4E2063616E6E6F74206265206D6F7265 PUSH1 0x40 DUP3 ADD MSTORE PUSH32 0x207468616E204D41585F4C4F434B5F4455524154494F4E5F4C494D4954000000 PUSH1 0x60 DUP3 ADD MSTORE PUSH1 0x80 ADD SWAP1 JUMP JUMPDEST PUSH1 0x20 DUP1 DUP3 MSTORE DUP2 DUP2 ADD MSTORE PUSH32 0x4F776E61626C653A2063616C6C6572206973206E6F7420746865206F776E6572 PUSH1 0x40 DUP3 ADD MSTORE PUSH1 0x60 ADD SWAP1 JUMP JUMPDEST PUSH1 0x20 DUP1 DUP3 MSTORE PUSH1 0xB SWAP1 DUP3 ADD MSTORE PUSH32 0x61646D696E3A207775743F000000000000000000000000000000000000000000 PUSH1 0x40 DUP3 ADD MSTORE PUSH1 0x60 ADD SWAP1 JUMP JUMPDEST PUSH1 0x20 DUP1 DUP3 MSTORE PUSH1 0x38 SWAP1 DUP3 ADD MSTORE PUSH32 0x576974686472617720616D6F756E74206D757374206265206772656174657220 PUSH1 0x40 DUP3 ADD MSTORE PUSH32 0x7468616E204D494E5F57495448445241575F414D4F554E540000000000000000 PUSH1 0x60 DUP3 ADD MSTORE PUSH1 0x80 ADD SWAP1 JUMP JUMPDEST PUSH1 0x20 DUP1 DUP3 MSTORE PUSH1 0x1D SWAP1 DUP3 ADD MSTORE PUSH32 0x416464726573733A2063616C6C20746F206E6F6E2D636F6E7472616374000000 PUSH1 0x40 DUP3 ADD MSTORE PUSH1 0x60 ADD SWAP1 JUMP JUMPDEST PUSH1 0x20 DUP1 DUP3 MSTORE PUSH1 0x3D SWAP1 DUP3 ADD MSTORE PUSH32 0x7769746864726177466565506572696F642063616E6E6F74206265206D6F7265 PUSH1 0x40 DUP3 ADD MSTORE PUSH32 0x207468616E204D41585F57495448445241575F4645455F504552494F44000000 PUSH1 0x60 DUP3 ADD MSTORE PUSH1 0x80 ADD SWAP1 JUMP JUMPDEST PUSH1 0x20 DUP1 DUP3 MSTORE PUSH1 0x2A SWAP1 DUP3 ADD MSTORE PUSH32 0x5361666545524332303A204552433230206F7065726174696F6E20646964206E PUSH1 0x40 DUP3 ADD MSTORE PUSH32 0x6F74207375636365656400000000000000000000000000000000000000000000 PUSH1 0x60 DUP3 ADD MSTORE PUSH1 0x80 ADD SWAP1 JUMP JUMPDEST PUSH1 0x20 DUP1 DUP3 MSTORE PUSH1 0x30 SWAP1 DUP3 ADD MSTORE PUSH32 0x77697468647261774665652063616E6E6F74206265206D6F7265207468616E20 PUSH1 0x40 DUP3 ADD MSTORE PUSH32 0x4D41585F57495448445241575F46454500000000000000000000000000000000 PUSH1 0x60 DUP3 ADD MSTORE PUSH1 0x80 ADD SWAP1 JUMP JUMPDEST PUSH1 0x20 DUP1 DUP3 MSTORE PUSH1 0x23 SWAP1 DUP3 ADD MSTORE PUSH32 0x554E4C4F434B5F465245455F4455524154494F4E2063616E6E6F74206265207A PUSH1 0x40 DUP3 ADD MSTORE PUSH32 0x65726F0000000000000000000000000000000000000000000000000000000000 PUSH1 0x60 DUP3 ADD MSTORE PUSH1 0x80 ADD SWAP1 JUMP JUMPDEST PUSH1 0x20 DUP1 DUP3 MSTORE PUSH1 0x11 SWAP1 DUP3 ADD MSTORE PUSH32 0x43616E6E6F7420756E6C6F636B20796574000000000000000000000000000000 PUSH1 0x40 DUP3 ADD MSTORE PUSH1 0x60 ADD SWAP1 JUMP JUMPDEST SWAP1 DUP2 MSTORE PUSH1 0x20 ADD SWAP1 JUMP JUMPDEST SWAP2 DUP3 MSTORE PUSH20 0xFFFFFFFFFFFFFFFFFFFFFFFFFFFFFFFFFFFFFFFF AND PUSH1 0x20 DUP3 ADD MSTORE PUSH1 0x40 ADD SWAP1 JUMP JUMPDEST SWAP2 DUP3 MSTORE PUSH1 0x20 DUP3 ADD MSTORE PUSH1 0x40 ADD SWAP1 JUMP JUMPDEST SWAP4 DUP5 MSTORE PUSH1 0x20 DUP5 ADD SWAP3 SWAP1 SWAP3 MSTORE PUSH1 0x40 DUP4 ADD MSTORE PUSH1 0x60 DUP3 ADD MSTORE PUSH1 0x80 ADD SWAP1 JUMP JUMPDEST SWAP9 DUP10 MSTORE PUSH1 0x20 DUP10 ADD SWAP8 SWAP1 SWAP8 MSTORE PUSH1 0x40 DUP9 ADD SWAP6 SWAP1 SWAP6 MSTORE PUSH1 0x60 DUP8 ADD SWAP4 SWAP1 SWAP4 MSTORE PUSH1 0x80 DUP7 ADD SWAP2 SWAP1 SWAP2 MSTORE PUSH1 0xA0 DUP6 ADD MSTORE PUSH1 0xC0 DUP5 ADD MSTORE ISZERO ISZERO PUSH1 0xE0 DUP4 ADD MSTORE PUSH2 0x100 DUP3 ADD MSTORE PUSH2 0x120 ADD SWAP1 JUMP JUMPDEST PUSH1 0x0 DUP3 NOT DUP3 GT ISZERO PUSH2 0x4C49 JUMPI PUSH2 0x4C49 PUSH2 0x4D07 JUMP JUMPDEST POP ADD SWAP1 JUMP JUMPDEST PUSH1 0x0 DUP3 PUSH2 0x4C82 JUMPI PUSH32 0x4E487B7100000000000000000000000000000000000000000000000000000000 DUP2 MSTORE PUSH1 0x12 PUSH1 0x4 MSTORE PUSH1 0x24 DUP2 REVERT JUMPDEST POP DIV SWAP1 JUMP JUMPDEST PUSH1 0x0 DUP2 PUSH32 0xFFFFFFFFFFFFFFFFFFFFFFFFFFFFFFFFFFFFFFFFFFFFFFFFFFFFFFFFFFFFFFFF DIV DUP4 GT DUP3 ISZERO ISZERO AND ISZERO PUSH2 0x4CBF JUMPI PUSH2 0x4CBF PUSH2 0x4D07 JUMP JUMPDEST POP MUL SWAP1 JUMP JUMPDEST PUSH1 0x0 DUP3 DUP3 LT ISZERO PUSH2 0x4CD6 JUMPI PUSH2 0x4CD6 PUSH2 0x4D07 JUMP JUMPDEST POP SUB SWAP1 JUMP JUMPDEST PUSH1 0x0 JUMPDEST DUP4 DUP2 LT ISZERO PUSH2 0x4CF6 JUMPI DUP2 DUP2 ADD MLOAD DUP4 DUP3 ADD MSTORE PUSH1 0x20 ADD PUSH2 0x4CDE JUMP JUMPDEST DUP4 DUP2 GT ISZERO PUSH2 0x2AED JUMPI POP POP PUSH1 0x0 SWAP2 ADD MSTORE JUMP JUMPDEST PUSH32 0x4E487B7100000000000000000000000000000000000000000000000000000000 PUSH1 0x0 MSTORE PUSH1 0x11 PUSH1 0x4 MSTORE PUSH1 0x24 PUSH1 0x0 REVERT JUMPDEST PUSH20 0xFFFFFFFFFFFFFFFFFFFFFFFFFFFFFFFFFFFFFFFF DUP2 AND DUP2 EQ PUSH2 0x1022 JUMPI PUSH1 0x0 DUP1 REVERT JUMPDEST DUP1 ISZERO ISZERO DUP2 EQ PUSH2 0x1022 JUMPI PUSH1 0x0 DUP1 REVERT INVALID LOG2 PUSH5 0x6970667358 0x22 SLT KECCAK256 SWAP2 0x48 0xBE PUSH30 0xBD4A79D027A9F9903F87A5CB14661085DB3D662088DD1DFFC4D82E966473 PUSH16 0x6C634300080100330000000000000000 "
		},
		"gasEstimates": {
			"creation": {
				"codeDepositCost": "3973600",
				"executionCost": "infinite",
				"totalCost": "infinite"
			},
			"external": {
				"BOOST_WEIGHT()": "1140",
				"BOOST_WEIGHT_LIMIT()": "360",
				"DURATION_FACTOR()": "1118",
				"DURATION_FACTOR_OVERDUE()": "1119",
				"MAX_LOCK_DURATION()": "1119",
				"MAX_LOCK_DURATION_LIMIT()": "298",
				"MAX_OVERDUE_FEE()": "319",
				"MAX_PERFORMANCE_FEE()": "317",
				"MAX_WITHDRAW_FEE()": "362",
				"MAX_WITHDRAW_FEE_PERIOD()": "320",
				"MIN_DEPOSIT_AMOUNT()": "319",
				"MIN_LOCK_DURATION()": "317",
				"MIN_WITHDRAW_AMOUNT()": "318",
				"PRECISION_FACTOR()": "340",
				"PRECISION_FACTOR_SHARE()": "318",
				"UNLOCK_FREE_DURATION()": "1162",
				"VShdw()": "1158",
				"admin()": "1134",
				"available()": "infinite",
				"balanceOf()": "infinite",
				"boostContract()": "1157",
				"calculateOverdueFee(address)": "infinite",
				"calculatePerformanceFee(address)": "infinite",
				"calculateTotalpendingShdwRewards()": "infinite",
				"calculateWithdrawFee(address,uint256)": "infinite",
				"deposit(uint256,uint256)": "infinite",
				"freeOverdueFeeUsers(address)": "1337",
				"freePerformanceFeeUsers(address)": "1336",
				"freeWithdrawFeeUsers(address)": "1337",
				"getPricePerFullShare()": "infinite",
				"inCaseTokensGetStuck(address)": "infinite",
				"init(address)": "infinite",
				"operator()": "1137",
				"overdueFee()": "1140",
				"owner()": "1159",
				"pause()": "infinite",
				"paused()": "1164",
				"performanceFee()": "1097",
				"performanceFeeContract()": "1119",
				"renounceOwnership()": "infinite",
				"setAdmin(address)": "23290",
				"setBoostContract(address)": "23199",
				"setBoostWeight(uint256)": "22314",
				"setDurationFactor(uint256)": "22266",
				"setDurationFactorOverdue(uint256)": "22289",
				"setFreePerformanceFeeUser(address,bool)": "infinite",
				"setMaxLockDuration(uint256)": "22290",
				"setOperator(address)": "23290",
				"setOverdueFee(uint256)": "22293",
				"setOverdueFeeUser(address,bool)": "infinite",
				"setPerformanceFee(uint256)": "22269",
				"setPerformanceFeeContract(uint256)": "22313",
				"setTreasury(address)": "23310",
				"setUnlockFreeDuration(uint256)": "22309",
				"setVShdwContract(address)": "23221",
				"setWithdrawFee(uint256)": "22291",
				"setWithdrawFeeContract(uint256)": "22315",
				"setWithdrawFeePeriod(uint256)": "22292",
				"setWithdrawFeeUser(address,bool)": "infinite",
				"shadowchefV2()": "infinite",
				"shdwPoolPID()": "1141",
				"token()": "infinite",
				"totalBoostDebt()": "1117",
				"totalLockedAmount()": "1120",
				"totalShares()": "1163",
				"transferOwnership(address)": "infinite",
				"treasury()": "1136",
				"unlock(address)": "infinite",
				"unpause()": "infinite",
				"userInfo(address)": "8056",
				"withdraw(uint256)": "infinite",
				"withdrawAll()": "infinite",
				"withdrawByAmount(uint256)": "infinite",
				"withdrawFee()": "1139",
				"withdrawFeeContract()": "1140",
				"withdrawFeePeriod()": "1117"
			},
			"internal": {
				"_isContract(address)": "718",
				"calculatePerformanceFeeOrOverdueFee(address)": "infinite",
				"depositOperation(uint256,uint256,address)": "infinite",
				"harvest()": "infinite",
				"updateBoostContractInfo(address)": "infinite",
				"updateUserShare(address)": "infinite",
				"withdrawOperation(uint256,uint256)": "infinite"
			}
		},
		"methodIdentifiers": {
			"BOOST_WEIGHT()": "bc75f4b8",
			"BOOST_WEIGHT_LIMIT()": "fd253b64",
			"DURATION_FACTOR()": "e464c623",
			"DURATION_FACTOR_OVERDUE()": "acaf88cd",
			"MAX_LOCK_DURATION()": "4f1bfc9e",
			"MAX_LOCK_DURATION_LIMIT()": "01e81326",
			"MAX_OVERDUE_FEE()": "948a03f2",
			"MAX_PERFORMANCE_FEE()": "bdca9165",
			"MAX_WITHDRAW_FEE()": "d4b0de2f",
			"MAX_WITHDRAW_FEE_PERIOD()": "2cfc5f01",
			"MIN_DEPOSIT_AMOUNT()": "1ea30fef",
			"MIN_LOCK_DURATION()": "78b4330f",
			"MIN_WITHDRAW_AMOUNT()": "b6857844",
			"PRECISION_FACTOR()": "ccd34cd5",
			"PRECISION_FACTOR_SHARE()": "731ff24a",
			"UNLOCK_FREE_DURATION()": "aaada5da",
			"VShdw()": "61fa6368",
			"admin()": "f851a440",
			"available()": "48a0d754",
			"balanceOf()": "722713f7",
			"boostContract()": "dfcedeee",
			"calculateOverdueFee(address)": "95dc14e1",
			"calculatePerformanceFee(address)": "c6ed51be",
			"calculateTotalpendingShdwRewards()": "cc9cfba1",
			"calculateWithdrawFee(address,uint256)": "29a5cfd6",
			"deposit(uint256,uint256)": "e2bbb158",
			"freeOverdueFeeUsers(address)": "668679ba",
			"freePerformanceFeeUsers(address)": "3fec4e32",
			"freeWithdrawFeeUsers(address)": "87d4bda9",
			"getPricePerFullShare()": "77c7b8fc",
			"inCaseTokensGetStuck(address)": "def68a9c",
			"init(address)": "19ab453c",
			"operator()": "570ca735",
			"overdueFee()": "a5834e06",
			"owner()": "8da5cb5b",
			"pause()": "8456cb59",
			"paused()": "5c975abb",
			"performanceFee()": "87788782",
			"performanceFeeContract()": "3eb78874",
			"renounceOwnership()": "715018a6",
			"setAdmin(address)": "704b6c02",
			"setBoostContract(address)": "def7869d",
			"setBoostWeight(uint256)": "93c99e6a",
			"setDurationFactor(uint256)": "a3639b39",
			"setDurationFactorOverdue(uint256)": "35981921",
			"setFreePerformanceFeeUser(address,bool)": "423b93ed",
			"setMaxLockDuration(uint256)": "f786b958",
			"setOperator(address)": "b3ab15fb",
			"setOverdueFee(uint256)": "0c59696b",
			"setOverdueFeeUser(address,bool)": "4e4de1e9",
			"setPerformanceFee(uint256)": "70897b23",
			"setPerformanceFeeContract(uint256)": "bb9f408d",
			"setTreasury(address)": "f0f44260",
			"setUnlockFreeDuration(uint256)": "c54d349c",
			"setVShdwContract(address)": "62122f5a",
			"setWithdrawFee(uint256)": "b6ac642a",
			"setWithdrawFeeContract(uint256)": "14ff3039",
			"setWithdrawFeePeriod(uint256)": "1efac1b8",
			"setWithdrawFeeUser(address,bool)": "beba0fa0",
			"shadowchefV2()": "bc3d652a",
			"shdwPoolPID()": "51fb26df",
			"token()": "fc0c546a",
			"totalBoostDebt()": "e73008bc",
			"totalLockedAmount()": "05a9f274",
			"totalShares()": "3a98ef39",
			"transferOwnership(address)": "f2fde38b",
			"treasury()": "61d027b3",
			"unlock(address)": "2f6c493c",
			"unpause()": "3f4ba83a",
			"userInfo(address)": "1959a002",
			"withdraw(uint256)": "2e1a7d4d",
			"withdrawAll()": "853828b6",
			"withdrawByAmount(uint256)": "5521e9bf",
			"withdrawFee()": "e941fa78",
			"withdrawFeeContract()": "e4b37ef5",
			"withdrawFeePeriod()": "df10b4e6"
		}
	},
	"abi": [
		{
			"inputs": [
				{
					"internalType": "contract IERC20",
					"name": "_token",
					"type": "address"
				},
				{
					"internalType": "contract IShadowChefV2",
					"name": "_shadowchefV2",
					"type": "address"
				},
				{
					"internalType": "address",
					"name": "_admin",
					"type": "address"
				},
				{
					"internalType": "address",
					"name": "_treasury",
					"type": "address"
				},
				{
					"internalType": "address",
					"name": "_operator",
					"type": "address"
				},
				{
					"internalType": "uint256",
					"name": "_pid",
					"type": "uint256"
				}
			],
			"stateMutability": "nonpayable",
			"type": "constructor"
		},
		{
			"anonymous": false,
			"inputs": [
				{
					"indexed": true,
					"internalType": "address",
					"name": "sender",
					"type": "address"
				},
				{
					"indexed": false,
					"internalType": "uint256",
					"name": "amount",
					"type": "uint256"
				},
				{
					"indexed": false,
					"internalType": "uint256",
					"name": "shares",
					"type": "uint256"
				},
				{
					"indexed": false,
					"internalType": "uint256",
					"name": "duration",
					"type": "uint256"
				},
				{
					"indexed": false,
					"internalType": "uint256",
					"name": "lastDepositedTime",
					"type": "uint256"
				}
			],
			"name": "Deposit",
			"type": "event"
		},
		{
			"anonymous": false,
			"inputs": [
				{
					"indexed": true,
					"internalType": "address",
					"name": "user",
					"type": "address"
				},
				{
					"indexed": true,
					"internalType": "bool",
					"name": "free",
					"type": "bool"
				}
			],
			"name": "FreeFeeUser",
			"type": "event"
		},
		{
			"anonymous": false,
			"inputs": [
				{
					"indexed": true,
					"internalType": "address",
					"name": "sender",
					"type": "address"
				},
				{
					"indexed": false,
					"internalType": "uint256",
					"name": "amount",
					"type": "uint256"
				}
			],
			"name": "Harvest",
			"type": "event"
		},
		{
			"anonymous": false,
			"inputs": [],
			"name": "Init",
			"type": "event"
		},
		{
			"anonymous": false,
			"inputs": [
				{
					"indexed": true,
					"internalType": "address",
					"name": "sender",
					"type": "address"
				},
				{
					"indexed": false,
					"internalType": "uint256",
					"name": "lockedAmount",
					"type": "uint256"
				},
				{
					"indexed": false,
					"internalType": "uint256",
					"name": "shares",
					"type": "uint256"
				},
				{
					"indexed": false,
					"internalType": "uint256",
					"name": "lockedDuration",
					"type": "uint256"
				},
				{
					"indexed": false,
					"internalType": "uint256",
					"name": "blockTimestamp",
					"type": "uint256"
				}
			],
			"name": "Lock",
			"type": "event"
		},
		{
			"anonymous": false,
			"inputs": [
				{
					"indexed": false,
					"internalType": "address",
					"name": "admin",
					"type": "address"
				}
			],
			"name": "NewAdmin",
			"type": "event"
		},
		{
			"anonymous": false,
			"inputs": [
				{
					"indexed": false,
					"internalType": "address",
					"name": "boostContract",
					"type": "address"
				}
			],
			"name": "NewBoostContract",
			"type": "event"
		},
		{
			"anonymous": false,
			"inputs": [
				{
					"indexed": false,
					"internalType": "uint256",
					"name": "boostWeight",
					"type": "uint256"
				}
			],
			"name": "NewBoostWeight",
			"type": "event"
		},
		{
			"anonymous": false,
			"inputs": [
				{
					"indexed": false,
					"internalType": "uint256",
					"name": "durationFactor",
					"type": "uint256"
				}
			],
			"name": "NewDurationFactor",
			"type": "event"
		},
		{
			"anonymous": false,
			"inputs": [
				{
					"indexed": false,
					"internalType": "uint256",
					"name": "durationFactorOverdue",
					"type": "uint256"
				}
			],
			"name": "NewDurationFactorOverdue",
			"type": "event"
		},
		{
			"anonymous": false,
			"inputs": [
				{
					"indexed": false,
					"internalType": "uint256",
					"name": "maxLockDuration",
					"type": "uint256"
				}
			],
			"name": "NewMaxLockDuration",
			"type": "event"
		},
		{
			"anonymous": false,
			"inputs": [
				{
					"indexed": false,
					"internalType": "address",
					"name": "operator",
					"type": "address"
				}
			],
			"name": "NewOperator",
			"type": "event"
		},
		{
			"anonymous": false,
			"inputs": [
				{
					"indexed": false,
					"internalType": "uint256",
					"name": "overdueFee",
					"type": "uint256"
				}
			],
			"name": "NewOverdueFee",
			"type": "event"
		},
		{
			"anonymous": false,
			"inputs": [
				{
					"indexed": false,
					"internalType": "uint256",
					"name": "performanceFee",
					"type": "uint256"
				}
			],
			"name": "NewPerformanceFee",
			"type": "event"
		},
		{
			"anonymous": false,
			"inputs": [
				{
					"indexed": false,
					"internalType": "uint256",
					"name": "performanceFeeContract",
					"type": "uint256"
				}
			],
			"name": "NewPerformanceFeeContract",
			"type": "event"
		},
		{
			"anonymous": false,
			"inputs": [
				{
					"indexed": false,
					"internalType": "address",
					"name": "treasury",
					"type": "address"
				}
			],
			"name": "NewTreasury",
			"type": "event"
		},
		{
			"anonymous": false,
			"inputs": [
				{
					"indexed": false,
					"internalType": "uint256",
					"name": "unlockFreeDuration",
					"type": "uint256"
				}
			],
			"name": "NewUnlockFreeDuration",
			"type": "event"
		},
		{
			"anonymous": false,
			"inputs": [
				{
					"indexed": false,
					"internalType": "address",
					"name": "VShdw",
					"type": "address"
				}
			],
			"name": "NewVShdwContract",
			"type": "event"
		},
		{
			"anonymous": false,
			"inputs": [
				{
					"indexed": false,
					"internalType": "uint256",
					"name": "withdrawFee",
					"type": "uint256"
				}
			],
			"name": "NewWithdrawFee",
			"type": "event"
		},
		{
			"anonymous": false,
			"inputs": [
				{
					"indexed": false,
					"internalType": "uint256",
					"name": "withdrawFeeContract",
					"type": "uint256"
				}
			],
			"name": "NewWithdrawFeeContract",
			"type": "event"
		},
		{
			"anonymous": false,
			"inputs": [
				{
					"indexed": false,
					"internalType": "uint256",
					"name": "withdrawFeePeriod",
					"type": "uint256"
				}
			],
			"name": "NewWithdrawFeePeriod",
			"type": "event"
		},
		{
			"anonymous": false,
			"inputs": [
				{
					"indexed": true,
					"internalType": "address",
					"name": "previousOwner",
					"type": "address"
				},
				{
					"indexed": true,
					"internalType": "address",
					"name": "newOwner",
					"type": "address"
				}
			],
			"name": "OwnershipTransferred",
			"type": "event"
		},
		{
			"anonymous": false,
			"inputs": [],
			"name": "Pause",
			"type": "event"
		},
		{
			"anonymous": false,
			"inputs": [
				{
					"indexed": false,
					"internalType": "address",
					"name": "account",
					"type": "address"
				}
			],
			"name": "Paused",
			"type": "event"
		},
		{
			"anonymous": false,
			"inputs": [
				{
					"indexed": true,
					"internalType": "address",
					"name": "sender",
					"type": "address"
				},
				{
					"indexed": false,
					"internalType": "uint256",
					"name": "amount",
					"type": "uint256"
				},
				{
					"indexed": false,
					"internalType": "uint256",
					"name": "blockTimestamp",
					"type": "uint256"
				}
			],
			"name": "Unlock",
			"type": "event"
		},
		{
			"anonymous": false,
			"inputs": [],
			"name": "Unpause",
			"type": "event"
		},
		{
			"anonymous": false,
			"inputs": [
				{
					"indexed": false,
					"internalType": "address",
					"name": "account",
					"type": "address"
				}
			],
			"name": "Unpaused",
			"type": "event"
		},
		{
			"anonymous": false,
			"inputs": [
				{
					"indexed": true,
					"internalType": "address",
					"name": "sender",
					"type": "address"
				},
				{
					"indexed": false,
					"internalType": "uint256",
					"name": "amount",
					"type": "uint256"
				},
				{
					"indexed": false,
					"internalType": "uint256",
					"name": "shares",
					"type": "uint256"
				}
			],
			"name": "Withdraw",
			"type": "event"
		},
		{
			"inputs": [],
			"name": "BOOST_WEIGHT",
			"outputs": [
				{
					"internalType": "uint256",
					"name": "",
					"type": "uint256"
				}
			],
			"stateMutability": "view",
			"type": "function"
		},
		{
			"inputs": [],
			"name": "BOOST_WEIGHT_LIMIT",
			"outputs": [
				{
					"internalType": "uint256",
					"name": "",
					"type": "uint256"
				}
			],
			"stateMutability": "view",
			"type": "function"
		},
		{
			"inputs": [],
			"name": "DURATION_FACTOR",
			"outputs": [
				{
					"internalType": "uint256",
					"name": "",
					"type": "uint256"
				}
			],
			"stateMutability": "view",
			"type": "function"
		},
		{
			"inputs": [],
			"name": "DURATION_FACTOR_OVERDUE",
			"outputs": [
				{
					"internalType": "uint256",
					"name": "",
					"type": "uint256"
				}
			],
			"stateMutability": "view",
			"type": "function"
		},
		{
			"inputs": [],
			"name": "MAX_LOCK_DURATION",
			"outputs": [
				{
					"internalType": "uint256",
					"name": "",
					"type": "uint256"
				}
			],
			"stateMutability": "view",
			"type": "function"
		},
		{
			"inputs": [],
			"name": "MAX_LOCK_DURATION_LIMIT",
			"outputs": [
				{
					"internalType": "uint256",
					"name": "",
					"type": "uint256"
				}
			],
			"stateMutability": "view",
			"type": "function"
		},
		{
			"inputs": [],
			"name": "MAX_OVERDUE_FEE",
			"outputs": [
				{
					"internalType": "uint256",
					"name": "",
					"type": "uint256"
				}
			],
			"stateMutability": "view",
			"type": "function"
		},
		{
			"inputs": [],
			"name": "MAX_PERFORMANCE_FEE",
			"outputs": [
				{
					"internalType": "uint256",
					"name": "",
					"type": "uint256"
				}
			],
			"stateMutability": "view",
			"type": "function"
		},
		{
			"inputs": [],
			"name": "MAX_WITHDRAW_FEE",
			"outputs": [
				{
					"internalType": "uint256",
					"name": "",
					"type": "uint256"
				}
			],
			"stateMutability": "view",
			"type": "function"
		},
		{
			"inputs": [],
			"name": "MAX_WITHDRAW_FEE_PERIOD",
			"outputs": [
				{
					"internalType": "uint256",
					"name": "",
					"type": "uint256"
				}
			],
			"stateMutability": "view",
			"type": "function"
		},
		{
			"inputs": [],
			"name": "MIN_DEPOSIT_AMOUNT",
			"outputs": [
				{
					"internalType": "uint256",
					"name": "",
					"type": "uint256"
				}
			],
			"stateMutability": "view",
			"type": "function"
		},
		{
			"inputs": [],
			"name": "MIN_LOCK_DURATION",
			"outputs": [
				{
					"internalType": "uint256",
					"name": "",
					"type": "uint256"
				}
			],
			"stateMutability": "view",
			"type": "function"
		},
		{
			"inputs": [],
			"name": "MIN_WITHDRAW_AMOUNT",
			"outputs": [
				{
					"internalType": "uint256",
					"name": "",
					"type": "uint256"
				}
			],
			"stateMutability": "view",
			"type": "function"
		},
		{
			"inputs": [],
			"name": "PRECISION_FACTOR",
			"outputs": [
				{
					"internalType": "uint256",
					"name": "",
					"type": "uint256"
				}
			],
			"stateMutability": "view",
			"type": "function"
		},
		{
			"inputs": [],
			"name": "PRECISION_FACTOR_SHARE",
			"outputs": [
				{
					"internalType": "uint256",
					"name": "",
					"type": "uint256"
				}
			],
			"stateMutability": "view",
			"type": "function"
		},
		{
			"inputs": [],
			"name": "UNLOCK_FREE_DURATION",
			"outputs": [
				{
					"internalType": "uint256",
					"name": "",
					"type": "uint256"
				}
			],
			"stateMutability": "view",
			"type": "function"
		},
		{
			"inputs": [],
			"name": "VShdw",
			"outputs": [
				{
					"internalType": "address",
					"name": "",
					"type": "address"
				}
			],
			"stateMutability": "view",
			"type": "function"
		},
		{
			"inputs": [],
			"name": "admin",
			"outputs": [
				{
					"internalType": "address",
					"name": "",
					"type": "address"
				}
			],
			"stateMutability": "view",
			"type": "function"
		},
		{
			"inputs": [],
			"name": "available",
			"outputs": [
				{
					"internalType": "uint256",
					"name": "",
					"type": "uint256"
				}
			],
			"stateMutability": "view",
			"type": "function"
		},
		{
			"inputs": [],
			"name": "balanceOf",
			"outputs": [
				{
					"internalType": "uint256",
					"name": "",
					"type": "uint256"
				}
			],
			"stateMutability": "view",
			"type": "function"
		},
		{
			"inputs": [],
			"name": "boostContract",
			"outputs": [
				{
					"internalType": "address",
					"name": "",
					"type": "address"
				}
			],
			"stateMutability": "view",
			"type": "function"
		},
		{
			"inputs": [
				{
					"internalType": "address",
					"name": "_user",
					"type": "address"
				}
			],
			"name": "calculateOverdueFee",
			"outputs": [
				{
					"internalType": "uint256",
					"name": "",
					"type": "uint256"
				}
			],
			"stateMutability": "view",
			"type": "function"
		},
		{
			"inputs": [
				{
					"internalType": "address",
					"name": "_user",
					"type": "address"
				}
			],
			"name": "calculatePerformanceFee",
			"outputs": [
				{
					"internalType": "uint256",
					"name": "",
					"type": "uint256"
				}
			],
			"stateMutability": "view",
			"type": "function"
		},
		{
			"inputs": [],
			"name": "calculateTotalpendingShdwRewards",
			"outputs": [
				{
					"internalType": "uint256",
					"name": "",
					"type": "uint256"
				}
			],
			"stateMutability": "view",
			"type": "function"
		},
		{
			"inputs": [
				{
					"internalType": "address",
					"name": "_user",
					"type": "address"
				},
				{
					"internalType": "uint256",
					"name": "_shares",
					"type": "uint256"
				}
			],
			"name": "calculateWithdrawFee",
			"outputs": [
				{
					"internalType": "uint256",
					"name": "",
					"type": "uint256"
				}
			],
			"stateMutability": "view",
			"type": "function"
		},
		{
			"inputs": [
				{
					"internalType": "uint256",
					"name": "_amount",
					"type": "uint256"
				},
				{
					"internalType": "uint256",
					"name": "_lockDuration",
					"type": "uint256"
				}
			],
			"name": "deposit",
			"outputs": [],
			"stateMutability": "nonpayable",
			"type": "function"
		},
		{
			"inputs": [
				{
					"internalType": "address",
					"name": "",
					"type": "address"
				}
			],
			"name": "freeOverdueFeeUsers",
			"outputs": [
				{
					"internalType": "bool",
					"name": "",
					"type": "bool"
				}
			],
			"stateMutability": "view",
			"type": "function"
		},
		{
			"inputs": [
				{
					"internalType": "address",
					"name": "",
					"type": "address"
				}
			],
			"name": "freePerformanceFeeUsers",
			"outputs": [
				{
					"internalType": "bool",
					"name": "",
					"type": "bool"
				}
			],
			"stateMutability": "view",
			"type": "function"
		},
		{
			"inputs": [
				{
					"internalType": "address",
					"name": "",
					"type": "address"
				}
			],
			"name": "freeWithdrawFeeUsers",
			"outputs": [
				{
					"internalType": "bool",
					"name": "",
					"type": "bool"
				}
			],
			"stateMutability": "view",
			"type": "function"
		},
		{
			"inputs": [],
			"name": "getPricePerFullShare",
			"outputs": [
				{
					"internalType": "uint256",
					"name": "",
					"type": "uint256"
				}
			],
			"stateMutability": "view",
			"type": "function"
		},
		{
			"inputs": [
				{
					"internalType": "address",
					"name": "_token",
					"type": "address"
				}
			],
			"name": "inCaseTokensGetStuck",
			"outputs": [],
			"stateMutability": "nonpayable",
			"type": "function"
		},
		{
			"inputs": [
				{
					"internalType": "contract IERC20",
					"name": "dummyToken",
					"type": "address"
				}
			],
			"name": "init",
			"outputs": [],
			"stateMutability": "nonpayable",
			"type": "function"
		},
		{
			"inputs": [],
			"name": "operator",
			"outputs": [
				{
					"internalType": "address",
					"name": "",
					"type": "address"
				}
			],
			"stateMutability": "view",
			"type": "function"
		},
		{
			"inputs": [],
			"name": "overdueFee",
			"outputs": [
				{
					"internalType": "uint256",
					"name": "",
					"type": "uint256"
				}
			],
			"stateMutability": "view",
			"type": "function"
		},
		{
			"inputs": [],
			"name": "owner",
			"outputs": [
				{
					"internalType": "address",
					"name": "",
					"type": "address"
				}
			],
			"stateMutability": "view",
			"type": "function"
		},
		{
			"inputs": [],
			"name": "pause",
			"outputs": [],
			"stateMutability": "nonpayable",
			"type": "function"
		},
		{
			"inputs": [],
			"name": "paused",
			"outputs": [
				{
					"internalType": "bool",
					"name": "",
					"type": "bool"
				}
			],
			"stateMutability": "view",
			"type": "function"
		},
		{
			"inputs": [],
			"name": "performanceFee",
			"outputs": [
				{
					"internalType": "uint256",
					"name": "",
					"type": "uint256"
				}
			],
			"stateMutability": "view",
			"type": "function"
		},
		{
			"inputs": [],
			"name": "performanceFeeContract",
			"outputs": [
				{
					"internalType": "uint256",
					"name": "",
					"type": "uint256"
				}
			],
			"stateMutability": "view",
			"type": "function"
		},
		{
			"inputs": [],
			"name": "renounceOwnership",
			"outputs": [],
			"stateMutability": "nonpayable",
			"type": "function"
		},
		{
			"inputs": [
				{
					"internalType": "address",
					"name": "_admin",
					"type": "address"
				}
			],
			"name": "setAdmin",
			"outputs": [],
			"stateMutability": "nonpayable",
			"type": "function"
		},
		{
			"inputs": [
				{
					"internalType": "address",
					"name": "_boostContract",
					"type": "address"
				}
			],
			"name": "setBoostContract",
			"outputs": [],
			"stateMutability": "nonpayable",
			"type": "function"
		},
		{
			"inputs": [
				{
					"internalType": "uint256",
					"name": "_boostWeight",
					"type": "uint256"
				}
			],
			"name": "setBoostWeight",
			"outputs": [],
			"stateMutability": "nonpayable",
			"type": "function"
		},
		{
			"inputs": [
				{
					"internalType": "uint256",
					"name": "_durationFactor",
					"type": "uint256"
				}
			],
			"name": "setDurationFactor",
			"outputs": [],
			"stateMutability": "nonpayable",
			"type": "function"
		},
		{
			"inputs": [
				{
					"internalType": "uint256",
					"name": "_durationFactorOverdue",
					"type": "uint256"
				}
			],
			"name": "setDurationFactorOverdue",
			"outputs": [],
			"stateMutability": "nonpayable",
			"type": "function"
		},
		{
			"inputs": [
				{
					"internalType": "address",
					"name": "_user",
					"type": "address"
				},
				{
					"internalType": "bool",
					"name": "_free",
					"type": "bool"
				}
			],
			"name": "setFreePerformanceFeeUser",
			"outputs": [],
			"stateMutability": "nonpayable",
			"type": "function"
		},
		{
			"inputs": [
				{
					"internalType": "uint256",
					"name": "_maxLockDuration",
					"type": "uint256"
				}
			],
			"name": "setMaxLockDuration",
			"outputs": [],
			"stateMutability": "nonpayable",
			"type": "function"
		},
		{
			"inputs": [
				{
					"internalType": "address",
					"name": "_operator",
					"type": "address"
				}
			],
			"name": "setOperator",
			"outputs": [],
			"stateMutability": "nonpayable",
			"type": "function"
		},
		{
			"inputs": [
				{
					"internalType": "uint256",
					"name": "_overdueFee",
					"type": "uint256"
				}
			],
			"name": "setOverdueFee",
			"outputs": [],
			"stateMutability": "nonpayable",
			"type": "function"
		},
		{
			"inputs": [
				{
					"internalType": "address",
					"name": "_user",
					"type": "address"
				},
				{
					"internalType": "bool",
					"name": "_free",
					"type": "bool"
				}
			],
			"name": "setOverdueFeeUser",
			"outputs": [],
			"stateMutability": "nonpayable",
			"type": "function"
		},
		{
			"inputs": [
				{
					"internalType": "uint256",
					"name": "_performanceFee",
					"type": "uint256"
				}
			],
			"name": "setPerformanceFee",
			"outputs": [],
			"stateMutability": "nonpayable",
			"type": "function"
		},
		{
			"inputs": [
				{
					"internalType": "uint256",
					"name": "_performanceFeeContract",
					"type": "uint256"
				}
			],
			"name": "setPerformanceFeeContract",
			"outputs": [],
			"stateMutability": "nonpayable",
			"type": "function"
		},
		{
			"inputs": [
				{
					"internalType": "address",
					"name": "_treasury",
					"type": "address"
				}
			],
			"name": "setTreasury",
			"outputs": [],
			"stateMutability": "nonpayable",
			"type": "function"
		},
		{
			"inputs": [
				{
					"internalType": "uint256",
					"name": "_unlockFreeDuration",
					"type": "uint256"
				}
			],
			"name": "setUnlockFreeDuration",
			"outputs": [],
			"stateMutability": "nonpayable",
			"type": "function"
		},
		{
			"inputs": [
				{
					"internalType": "address",
					"name": "_VShdw",
					"type": "address"
				}
			],
			"name": "setVShdwContract",
			"outputs": [],
			"stateMutability": "nonpayable",
			"type": "function"
		},
		{
			"inputs": [
				{
					"internalType": "uint256",
					"name": "_withdrawFee",
					"type": "uint256"
				}
			],
			"name": "setWithdrawFee",
			"outputs": [],
			"stateMutability": "nonpayable",
			"type": "function"
		},
		{
			"inputs": [
				{
					"internalType": "uint256",
					"name": "_withdrawFeeContract",
					"type": "uint256"
				}
			],
			"name": "setWithdrawFeeContract",
			"outputs": [],
			"stateMutability": "nonpayable",
			"type": "function"
		},
		{
			"inputs": [
				{
					"internalType": "uint256",
					"name": "_withdrawFeePeriod",
					"type": "uint256"
				}
			],
			"name": "setWithdrawFeePeriod",
			"outputs": [],
			"stateMutability": "nonpayable",
			"type": "function"
		},
		{
			"inputs": [
				{
					"internalType": "address",
					"name": "_user",
					"type": "address"
				},
				{
					"internalType": "bool",
					"name": "_free",
					"type": "bool"
				}
			],
			"name": "setWithdrawFeeUser",
			"outputs": [],
			"stateMutability": "nonpayable",
			"type": "function"
		},
		{
			"inputs": [],
			"name": "shadowchefV2",
			"outputs": [
				{
					"internalType": "contract IShadowChefV2",
					"name": "",
					"type": "address"
				}
			],
			"stateMutability": "view",
			"type": "function"
		},
		{
			"inputs": [],
			"name": "shdwPoolPID",
			"outputs": [
				{
					"internalType": "uint256",
					"name": "",
					"type": "uint256"
				}
			],
			"stateMutability": "view",
			"type": "function"
		},
		{
			"inputs": [],
			"name": "token",
			"outputs": [
				{
					"internalType": "contract IERC20",
					"name": "",
					"type": "address"
				}
			],
			"stateMutability": "view",
			"type": "function"
		},
		{
			"inputs": [],
			"name": "totalBoostDebt",
			"outputs": [
				{
					"internalType": "uint256",
					"name": "",
					"type": "uint256"
				}
			],
			"stateMutability": "view",
			"type": "function"
		},
		{
			"inputs": [],
			"name": "totalLockedAmount",
			"outputs": [
				{
					"internalType": "uint256",
					"name": "",
					"type": "uint256"
				}
			],
			"stateMutability": "view",
			"type": "function"
		},
		{
			"inputs": [],
			"name": "totalShares",
			"outputs": [
				{
					"internalType": "uint256",
					"name": "",
					"type": "uint256"
				}
			],
			"stateMutability": "view",
			"type": "function"
		},
		{
			"inputs": [
				{
					"internalType": "address",
					"name": "newOwner",
					"type": "address"
				}
			],
			"name": "transferOwnership",
			"outputs": [],
			"stateMutability": "nonpayable",
			"type": "function"
		},
		{
			"inputs": [],
			"name": "treasury",
			"outputs": [
				{
					"internalType": "address",
					"name": "",
					"type": "address"
				}
			],
			"stateMutability": "view",
			"type": "function"
		},
		{
			"inputs": [
				{
					"internalType": "address",
					"name": "_user",
					"type": "address"
				}
			],
			"name": "unlock",
			"outputs": [],
			"stateMutability": "nonpayable",
			"type": "function"
		},
		{
			"inputs": [],
			"name": "unpause",
			"outputs": [],
			"stateMutability": "nonpayable",
			"type": "function"
		},
		{
			"inputs": [
				{
					"internalType": "address",
					"name": "",
					"type": "address"
				}
			],
			"name": "userInfo",
			"outputs": [
				{
					"internalType": "uint256",
					"name": "shares",
					"type": "uint256"
				},
				{
					"internalType": "uint256",
					"name": "lastDepositedTime",
					"type": "uint256"
				},
				{
					"internalType": "uint256",
					"name": "shdwAtLastUserAction",
					"type": "uint256"
				},
				{
					"internalType": "uint256",
					"name": "lastUserActionTime",
					"type": "uint256"
				},
				{
					"internalType": "uint256",
					"name": "lockStartTime",
					"type": "uint256"
				},
				{
					"internalType": "uint256",
					"name": "lockEndTime",
					"type": "uint256"
				},
				{
					"internalType": "uint256",
					"name": "userBoostedShare",
					"type": "uint256"
				},
				{
					"internalType": "bool",
					"name": "locked",
					"type": "bool"
				},
				{
					"internalType": "uint256",
					"name": "lockedAmount",
					"type": "uint256"
				}
			],
			"stateMutability": "view",
			"type": "function"
		},
		{
			"inputs": [
				{
					"internalType": "uint256",
					"name": "_shares",
					"type": "uint256"
				}
			],
			"name": "withdraw",
			"outputs": [],
			"stateMutability": "nonpayable",
			"type": "function"
		},
		{
			"inputs": [],
			"name": "withdrawAll",
			"outputs": [],
			"stateMutability": "nonpayable",
			"type": "function"
		},
		{
			"inputs": [
				{
					"internalType": "uint256",
					"name": "_amount",
					"type": "uint256"
				}
			],
			"name": "withdrawByAmount",
			"outputs": [],
			"stateMutability": "nonpayable",
			"type": "function"
		},
		{
			"inputs": [],
			"name": "withdrawFee",
			"outputs": [
				{
					"internalType": "uint256",
					"name": "",
					"type": "uint256"
				}
			],
			"stateMutability": "view",
			"type": "function"
		},
		{
			"inputs": [],
			"name": "withdrawFeeContract",
			"outputs": [
				{
					"internalType": "uint256",
					"name": "",
					"type": "uint256"
				}
			],
			"stateMutability": "view",
			"type": "function"
		},
		{
			"inputs": [],
			"name": "withdrawFeePeriod",
			"outputs": [
				{
					"internalType": "uint256",
					"name": "",
					"type": "uint256"
				}
			],
			"stateMutability": "view",
			"type": "function"
		}
	]
}