{
	"data": {
		"bytecode": {
			"linkReferences": {},
			"object": "60a0604052640ba43b7400600a55643a35294400600b5564a2fb405800600c553480156200002c57600080fd5b50604051620036c4380380620036c48339810160408190526200004f91620000e5565b60006200005b620000e1565b600080546001600160a01b0319166001600160a01b0383169081178255604051929350917f8be0079c531659141344cd1fd0a4f28419497f9722a3daafe3b4186f6b6457e0908290a3506001805560609190911b6001600160601b031916608052600280546001600160a01b0319166001600160a01b039092169190911790556200013c565b3390565b60008060408385031215620000f8578182fd5b8251620001058162000123565b6020840151909250620001188162000123565b809150509250929050565b6001600160a01b03811681146200013957600080fd5b50565b60805160601c61355b6200016960003980610575528061199c52806125be528061266b525061355b6000f3fe608060405234801561001057600080fd5b50600436106102ad5760003560e01c806378db4c341161017b578063c507aeaa116100d8578063e2bbb1581161008c578063f474309e11610071578063f474309e146104fa578063f5a26f401461050d578063f5b91cd314610515576102ad565b8063e2bbb158146104d4578063f2fde38b146104e7576102ad565b8063cc6db2da116100bd578063cc6db2da146104c4578063d2ce6ae8146104c4578063dfcedeee146104cc576102ad565b8063c507aeaa1461049e578063c799b59d146104b1576102ad565b806393f1a40b1161012f5780639dd2fcc3116101145780639dd2fcc314610470578063ac1d060914610483578063c40d337b14610496576102ad565b806393f1a40b1461044657806399d7e84a14610468576102ad565b8063815d087f11610160578063815d087f1461042357806381bdf98c146104365780638da5cb5b1461043e576102ad565b806378db4c341461040857806378ed5d1f14610410576102ad565b8063372c12b11161022957806364482f79116101dd57806369b02128116101c257806369b02128146103f05780636fda08c3146103f8578063715018a614610400576102ad565b806364482f79146103d55780636661100f146103e8576102ad565b806351eb05a61161020e57806351eb05a61461039a5780635312ea8e146103ba578063630b5ba1146103cd576102ad565b8063372c12b114610367578063441a3e7014610387576102ad565b80630bb844bc1161028057806316e80f4d1161026557806316e80f4d1461034457806319f95e2e1461034c57806336183ed614610354576102ad565b80630bb844bc1461030d5780631526fe2714610320576102ad565b8063033186e8146102b257806303dcff74146102db578063041a84c9146102f0578063081e3eda14610305575b600080fd5b6102c56102c0366004612a74565b61051d565b6040516102d29190613472565b60405180910390f35b6102e3610573565b6040516102d29190612c5b565b6103036102fe366004612a9f565b610597565b005b6102c561090f565b61030361031b366004612a20565b610915565b61033361032e366004612b0b565b610a8a565b6040516102d29594939291906134a1565b6102c5610acb565b6102c5610ad7565b610303610362366004612ad3565b610b04565b61037a610375366004612a20565b610bca565b6040516102d29190612cd3565b610303610395366004612bb1565b610bdf565b6103ad6103a8366004612b0b565b610df0565b6040516102d29190613436565b6103036103c8366004612b0b565b610fc6565b6103036110f4565b6103036103e3366004612bd2565b611188565b6102c56112ff565b6102c5611305565b6102c561130f565b610303611315565b6102c56113e0565b6102e361041e366004612b0b565b6113e6565b610303610431366004612c0a565b61141a565b6102e361157c565b6102e3611598565b610459610454366004612b3b565b6115b4565b6040516102d29392919061348b565b6102c56115e0565b61030361047e366004612a20565b6115e6565b610303610491366004612a3c565b611727565b6102c561185b565b6103036104ac366004612b5f565b611861565b6102c56104bf366004612b3b565b611c3a565b6102c5611de6565b6102e3611def565b6103036104e2366004612bb1565b611e0b565b6103036104f5366004612a20565b6121d6565b6102c5610508366004612ad3565b61230c565b6102c5612367565b6102c561236d565b600081815260066020908152604080832073ffffffffffffffffffffffffffffffffffffffff8616845290915281206002015464e8d4a5100081116105675764e8d4a51000610569565b805b9150505b92915050565b7f000000000000000000000000000000000000000000000000000000000000000081565b60035473ffffffffffffffffffffffffffffffffffffffff1633146105f1576040517f08c379a00000000000000000000000000000000000000000000000000000000081526004016105e8906131d1565b60405180910390fd5b6002600154141561062e576040517f08c379a00000000000000000000000000000000000000000000000000000000081526004016105e8906133ff565b600260015573ffffffffffffffffffffffffffffffffffffffff8316610680576040517f08c379a00000000000000000000000000000000000000000000000000000000081526004016105e890612d8c565b6004828154811061068d57fe5b600091825260209091206004600590920201015460ff166106da576040517f08c379a00000000000000000000000000000000000000000000000000000000081526004016105e890613345565b64e8d4a5100081101580156106f557506501d1a94a20008111155b61072b576040517f08c379a00000000000000000000000000000000000000000000000000000000081526004016105e890612d2f565b6107336129ce565b61073c83610df0565b600084815260066020908152604080832073ffffffffffffffffffffffffffffffffffffffff891684529091528120919250610778868661051d565b9050610785868683612379565b6107c5670de0b6b3a76400006107b985600001516107bf64e8d4a510006107b98a896000015461245690919063ffffffff16565b906124aa565b90612456565b60018301558154610811906107e59064e8d4a51000906107b99088612456565b835461080b906108009064e8d4a51000906107b99087612456565b6060870151906124f3565b90612535565b6060840152600480548491908790811061082757fe5b6000918252602080832084516005939093020191825583810151600183015560408085015160028085019190915560608601516003850155608090950151600490930180547fffffffffffffffffffffffffffffffffffffffffffffffffffffffffffffff0016931515939093179092558883526006815281832073ffffffffffffffffffffffffffffffffffffffff8b1680855291529181902090920186905590517f01abd62439b64f6c5dab6f94d56099495bd0c094f9c21f98f4d3562a21edb4ba906108fb9088908590899061348b565b60405180910390a250506001805550505050565b60045490565b61091d612574565b60005473ffffffffffffffffffffffffffffffffffffffff908116911614610971576040517f08c379a00000000000000000000000000000000000000000000000000000000081526004016105e89061319c565b73ffffffffffffffffffffffffffffffffffffffff81166109be576040517f08c379a00000000000000000000000000000000000000000000000000000000081526004016105e890612eda565b60025473ffffffffffffffffffffffffffffffffffffffff82811691161415610a13576040517f08c379a00000000000000000000000000000000000000000000000000000000081526004016105e8906132c2565b6002805473ffffffffffffffffffffffffffffffffffffffff8381167fffffffffffffffffffffffff0000000000000000000000000000000000000000831681179093556040519116919082907fd146fe330fdddf682413850a35b28edfccd4c4b53cfee802fd24950de5be1dbe90600090a35050565b60048181548110610a9757fe5b6000918252602090912060059091020180546001820154600283015460038401546004909401549294509092909160ff1685565b670de0b6b3a764000081565b6000610aff64e8d4a510006107b9600a54671314fb370629800061245690919063ffffffff16565b905090565b610b0c612574565b60005473ffffffffffffffffffffffffffffffffffffffff908116911614610b60576040517f08c379a00000000000000000000000000000000000000000000000000000000081526004016105e89061319c565b8015610b6e57610b6e6110f4565b6000610b85600d54436124f390919063ffffffff16565b90506000610b9b610b94610ad7565b8390612456565b600254909150610bc19073ffffffffffffffffffffffffffffffffffffffff1682612578565b505043600d5550565b60076020526000908152604090205460ff1681565b60026001541415610c1c576040517f08c379a00000000000000000000000000000000000000000000000000000000081526004016105e8906133ff565b6002600155610c296129ce565b610c3283610df0565b60008481526006602090815260408083203384529091529020805491925090831115610c8a576040517f08c379a00000000000000000000000000000000000000000000000000000000081526004016105e89061312e565b6000610c96338661051d565b9050610ca3338683612379565b8315610cf8578154610cb590856124f3565b8260000181905550610cf8338560058881548110610ccf57fe5b60009182526020909120015473ffffffffffffffffffffffffffffffffffffffff169190612697565b610d2c670de0b6b3a76400006107b985600001516107bf64e8d4a510006107b987896000015461245690919063ffffffff16565b6001830155610d74610d4764e8d4a510006107b98785612456565b60048781548110610d5457fe5b9060005260206000209060050201600301546124f390919063ffffffff16565b60048681548110610d8157fe5b906000526020600020906005020160030181905550843373ffffffffffffffffffffffffffffffffffffffff167ff279e6a1f5e320cca91135676d9cb6e44ca8a08c0b88342bcdb1144f6511b56886604051610ddd9190613472565b60405180910390a3505060018055505050565b610df86129ce565b60048281548110610e0557fe5b60009182526020918290206040805160a0810182526005909302909101805483526001810154938301849052600281015491830191909152600381015460608301526004015460ff16151560808201529150431115610fc15760608101516080820151600090610e7757600954610e7b565b6008545b9050600082118015610e8d5750600081115b15610efa576000610eab8460200151436124f390919063ffffffff16565b90506000610ed2836107b987604001516107bf610ecb8a6080015161230c565b8790612456565b9050610ef5610eed856107b984670de0b6b3a7640000612456565b865190612535565b855250505b4360208401526004805484919086908110610f1157fe5b6000918252602091829020835160059290920201908155828201516001820155604080840151600283015560608401516003830155608090930151600490910180547fffffffffffffffffffffffffffffffffffffffffffffffffffffffffffffff00169115159190911790558401518451915186927f3be3541fc42237d611b30329040bfa4569541d156560acdbbae57640d20b8f4692610fb6929091879161348b565b60405180910390a250505b919050565b60026001541415611003576040517f08c379a00000000000000000000000000000000000000000000000000000000081526004016105e8906133ff565b600260018190555060006004828154811061101a57fe5b6000918252602080832085845260068252604080852033808752935284208054858255600182018690556005909402909101945092906110709064e8d4a51000906107b990611069908961051d565b8590612456565b905080846003015411611084576000611093565b600384015461109390826124f3565b84600301819055506110ad338360058881548110610ccf57fe5b843373ffffffffffffffffffffffffffffffffffffffff167fbb757047c2b5f3974fe26b7c10f732e7bce710b0952a71082702781e62ae059584604051610ddd9190613472565b60045460005b818110156111845761110a6129ce565b6004828154811061111757fe5b60009182526020918290206040805160a08101825260059093029091018054835260018101549383019390935260028301549082018190526003830154606083015260049092015460ff161515608082015291501561117b5761117982610df0565b505b506001016110fa565b5050565b611190612574565b60005473ffffffffffffffffffffffffffffffffffffffff9081169116146111e4576040517f08c379a00000000000000000000000000000000000000000000000000000000081526004016105e89061319c565b6111ed83610df0565b5080156111fc576111fc6110f4565b6004838154811061120957fe5b600091825260209091206004600590920201015460ff16156112645761125c8261080b6004868154811061123957fe5b9060005260206000209060050201600201546008546124f390919063ffffffff16565b60085561129f565b61129b8261080b6004868154811061127857fe5b9060005260206000209060050201600201546009546124f390919063ffffffff16565b6009555b81600484815481106112ad57fe5b906000526020600020906005020160020181905550827fc0cfd54d2de2b55f1e6e108d3ec53ff0a1abe6055401d32c61e9433b747ef9f8836040516112f29190613472565b60405180910390a2505050565b600a5481565b6501d1a94a200081565b600c5481565b61131d612574565b60005473ffffffffffffffffffffffffffffffffffffffff908116911614611371576040517f08c379a00000000000000000000000000000000000000000000000000000000081526004016105e89061319c565b6000805460405173ffffffffffffffffffffffffffffffffffffffff909116907f8be0079c531659141344cd1fd0a4f28419497f9722a3daafe3b4186f6b6457e0908390a3600080547fffffffffffffffffffffffff0000000000000000000000000000000000000000169055565b600d5481565b600581815481106113f357fe5b60009182526020909120015473ffffffffffffffffffffffffffffffffffffffff16905081565b611422612574565b60005473ffffffffffffffffffffffffffffffffffffffff908116911614611476576040517f08c379a00000000000000000000000000000000000000000000000000000000081526004016105e89061319c565b6000841180156114865750600083115b80156114925750600082115b6114c8576040517f08c379a00000000000000000000000000000000000000000000000000000000081526004016105e890612fba565b64e8d4a510006114dc8361080b8787612535565b14611513576040517f08c379a00000000000000000000000000000000000000000000000000000000081526004016105e890613017565b8015611521576115216110f4565b61152b6000610b04565b600a849055600b839055600c8290556040517f49f805c5fed16b2296163d4fd1958b1961efe39fef41cbb4b981aaa3d80d22d29061156e9086908690869061348b565b60405180910390a150505050565b60025473ffffffffffffffffffffffffffffffffffffffff1681565b60005473ffffffffffffffffffffffffffffffffffffffff1690565b600660209081526000928352604080842090915290825290208054600182015460029092015490919083565b60095481565b6115ee612574565b60005473ffffffffffffffffffffffffffffffffffffffff908116911614611642576040517f08c379a00000000000000000000000000000000000000000000000000000000081526004016105e89061319c565b73ffffffffffffffffffffffffffffffffffffffff811615801590611682575060035473ffffffffffffffffffffffffffffffffffffffff828116911614155b6116b8576040517f08c379a00000000000000000000000000000000000000000000000000000000081526004016105e89061322e565b600380547fffffffffffffffffffffffff00000000000000000000000000000000000000001673ffffffffffffffffffffffffffffffffffffffff83169081179091556040517f4c0c07d0b548b824a1b998eb4d11fccf1cfbc1e47edcdb309970ba88315eb30390600090a250565b61172f612574565b60005473ffffffffffffffffffffffffffffffffffffffff908116911614611783576040517f08c379a00000000000000000000000000000000000000000000000000000000081526004016105e89061319c565b73ffffffffffffffffffffffffffffffffffffffff82166117d0576040517f08c379a00000000000000000000000000000000000000000000000000000000081526004016105e890613074565b73ffffffffffffffffffffffffffffffffffffffff82166000818152600760205260409081902080547fffffffffffffffffffffffffffffffffffffffffffffffffffffffffffffff0016841515179055517fc551bbb22d0406dbfb8b6b7740cc521bcf44e1106029cf899c19b6a8e4c99d519061184f908490612cd3565b60405180910390a25050565b60085481565b611869612574565b60005473ffffffffffffffffffffffffffffffffffffffff9081169116146118bd576040517f08c379a00000000000000000000000000000000000000000000000000000000081526004016105e89061319c565b6040517f70a0823100000000000000000000000000000000000000000000000000000000815260009073ffffffffffffffffffffffffffffffffffffffff8516906370a0823190611912903090600401612c5b565b60206040518083038186803b15801561192a57600080fd5b505afa15801561193e573d6000803e3d6000fd5b505050506040513d601f19601f820116820180604052508101906119629190612b23565b101561199a576040517f08c379a00000000000000000000000000000000000000000000000000000000081526004016105e890613165565b7f000000000000000000000000000000000000000000000000000000000000000073ffffffffffffffffffffffffffffffffffffffff168373ffffffffffffffffffffffffffffffffffffffff161415611a20576040517f08c379a00000000000000000000000000000000000000000000000000000000081526004016105e8906133a2565b8015611a2e57611a2e6110f4565b8115611a4957600854611a419085612535565b600855611a5a565b600954611a569085612535565b6009555b60058054600180820183557f036b6384b5eca791c62761152d0c79bb0604c104a5fb6f4eb0703f3154bb3db090910180547fffffffffffffffffffffffff00000000000000000000000000000000000000001673ffffffffffffffffffffffffffffffffffffffff87169081179091556040805160a081018252600080825243602083019081529282018a8152606083018281528915156080850190815260048054808a018255945293517f8a35acfbc15ff81a39ae7d344fd709f28e8600b4aa8c65c6b64bfe7fe36bd19b9389029384015593517f8a35acfbc15ff81a39ae7d344fd709f28e8600b4aa8c65c6b64bfe7fe36bd19c830155517f8a35acfbc15ff81a39ae7d344fd709f28e8600b4aa8c65c6b64bfe7fe36bd19d82015591517f8a35acfbc15ff81a39ae7d344fd709f28e8600b4aa8c65c6b64bfe7fe36bd19e830155517f8a35acfbc15ff81a39ae7d344fd709f28e8600b4aa8c65c6b64bfe7fe36bd19f90910180547fffffffffffffffffffffffffffffffffffffffffffffffffffffffffffffff00169115159190911790559154611bfb916124f3565b7f18caa0724a26384928efe604ae6ddc99c242548876259770fc88fcb7e719d8fa8685604051611c2c92919061347b565b60405180910390a350505050565b6000611c446129ce565b60048481548110611c5157fe5b60009182526020918290206040805160a0810182526005909302909101805483526001810154938301939093526002830154908201526003820154606082015260049091015460ff16151560808201529050611cab6129ff565b50600084815260066020908152604080832073ffffffffffffffffffffffffffffffffffffffff8716845282529182902082516060808201855282548252600183015482850152600290920154938101939093528351908401519184015190919043118015611d1957508015155b15611d92576000611d378560200151436124f390919063ffffffff16565b90506000611d6b8660800151611d4f57600954611d53565b6008545b6107b988604001516107bf610ecb8b6080015161230c565b9050611d8d611d86846107b984670de0b6b3a7640000612456565b8590612535565b935050505b6000611db264e8d4a510006107b9611daa8a8c61051d565b875190612456565b6020850151909150611dda90611dd4670de0b6b3a76400006107b98588612456565b906124f3565b98975050505050505050565b64e8d4a5100081565b60035473ffffffffffffffffffffffffffffffffffffffff1681565b60026001541415611e48576040517f08c379a00000000000000000000000000000000000000000000000000000000081526004016105e8906133ff565b6002600155611e556129ce565b611e5e83610df0565b6000848152600660209081526040808320338452909152902060808201519192509080611e9a57503360009081526007602052604090205460ff165b611ed0576040517f08c379a00000000000000000000000000000000000000000000000000000000081526004016105e890612f37565b6000611edc338661051d565b825490915015611ef157611ef1338683612379565b83156120ed57600060058681548110611f0657fe5b6000918252602090912001546040517f70a0823100000000000000000000000000000000000000000000000000000000815273ffffffffffffffffffffffffffffffffffffffff909116906370a0823190611f65903090600401612c5b565b60206040518083038186803b158015611f7d57600080fd5b505afa158015611f91573d6000803e3d6000fd5b505050506040513d601f19601f82011682018060405250810190611fb59190612b23565b9050611ff433308760058a81548110611fca57fe5b60009182526020909120015473ffffffffffffffffffffffffffffffffffffffff16929190612738565b6120b4816005888154811061200557fe5b6000918252602090912001546040517f70a0823100000000000000000000000000000000000000000000000000000000815273ffffffffffffffffffffffffffffffffffffffff909116906370a0823190612064903090600401612c5b565b60206040518083038186803b15801561207c57600080fd5b505afa158015612090573d6000803e3d6000fd5b505050506040513d601f19601f82011682018060405250810190611dd49190612b23565b83549095506120c39086612535565b83556120e66120db64e8d4a510006107b98886612456565b606086015190612535565b6060850152505b612121670de0b6b3a76400006107b985600001516107bf64e8d4a510006107b987896000015461245690919063ffffffff16565b8260010181905550826004868154811061213757fe5b6000918252602091829020835160059290920201908155908201516001820155604080830151600283015560608301516003830155608090920151600490910180547fffffffffffffffffffffffffffffffffffffffffffffffffffffffffffffff001691151591909117905551859033907f90890809c654f11d6e72a28fa60149770a0d11ec6c92319d6ceb2bb0a4ea1a1590610ddd908890613472565b6121de612574565b60005473ffffffffffffffffffffffffffffffffffffffff908116911614612232576040517f08c379a00000000000000000000000000000000000000000000000000000000081526004016105e89061319c565b73ffffffffffffffffffffffffffffffffffffffff811661227f576040517f08c379a00000000000000000000000000000000000000000000000000000000081526004016105e890612e46565b6000805460405173ffffffffffffffffffffffffffffffffffffffff808516939216917f8be0079c531659141344cd1fd0a4f28419497f9722a3daafe3b4186f6b6457e091a3600080547fffffffffffffffffffffffff00000000000000000000000000000000000000001673ffffffffffffffffffffffffffffffffffffffff92909216919091179055565b600081156123415761233a64e8d4a510006107b9600b54671314fb370629800061245690919063ffffffff16565b9050610fc1565b61056d64e8d4a510006107b9600c54671314fb370629800061245690919063ffffffff16565b600b5481565b671314fb370629800081565b6123816129ff565b50600082815260066020908152604080832073ffffffffffffffffffffffffffffffffffffffff871684528252808320815160608101835281548082526001830154948201949094526002909101549181019190915291906123ee9064e8d4a51000906107b99086612456565b90506000612426670de0b6b3a76400006107b96004888154811061240e57fe5b60009182526020909120600590910201548590612456565b905060006124418460200151836124f390919063ffffffff16565b905061244d8782612578565b50505050505050565b6000826124655750600061056d565b8282028284828161247257fe5b0414610567576040517f08c379a00000000000000000000000000000000000000000000000000000000081526004016105e8906130d1565b60006124ec83836040518060400160405280601a81526020017f536166654d6174683a206469766973696f6e206279207a65726f00000000000081525061275f565b9392505050565b60006124ec83836040518060400160405280601e81526020017f536166654d6174683a207375627472616374696f6e206f766572666c6f7700008152506127b0565b600082820183811015610567576040517f08c379a00000000000000000000000000000000000000000000000000000000081526004016105e890612ea3565b3390565b8015611184576040517f70a0823100000000000000000000000000000000000000000000000000000000815260009073ffffffffffffffffffffffffffffffffffffffff7f000000000000000000000000000000000000000000000000000000000000000016906370a08231906125f3903090600401612c5b565b60206040518083038186803b15801561260b57600080fd5b505afa15801561261f573d6000803e3d6000fd5b505050506040513d601f19601f820116820180604052508101906126439190612b23565b905081811015612651578091505b61269273ffffffffffffffffffffffffffffffffffffffff7f0000000000000000000000000000000000000000000000000000000000000000168484612697565b505050565b6126928363a9059cbb60e01b84846040516024016126b6929190612cad565b604080517fffffffffffffffffffffffffffffffffffffffffffffffffffffffffffffffe08184030181529190526020810180517bffffffffffffffffffffffffffffffffffffffffffffffffffffffff167fffffffff00000000000000000000000000000000000000000000000000000000909316929092179091526127f6565b612759846323b872dd60e01b8585856040516024016126b693929190612c7c565b50505050565b6000818361279a576040517f08c379a00000000000000000000000000000000000000000000000000000000081526004016105e89190612cde565b5060008385816127a657fe5b0495945050505050565b600081848411156127ee576040517f08c379a00000000000000000000000000000000000000000000000000000000081526004016105e89190612cde565b505050900390565b6060612858826040518060400160405280602081526020017f5361666542455032303a206c6f772d6c6576656c2063616c6c206661696c65648152508573ffffffffffffffffffffffffffffffffffffffff166128ac9092919063ffffffff16565b80519091501561269257808060200190518101906128769190612aef565b612692576040517f08c379a00000000000000000000000000000000000000000000000000000000081526004016105e890612de9565b60606128bb84846000856128c3565b949350505050565b60606128ce856129c8565b612904576040517f08c379a00000000000000000000000000000000000000000000000000000000081526004016105e89061328b565b600060608673ffffffffffffffffffffffffffffffffffffffff16858760405161292e9190612c3f565b60006040518083038185875af1925050503d806000811461296b576040519150601f19603f3d011682016040523d82523d6000602084013e612970565b606091505b509150915081156129845791506128bb9050565b8051156129945780518082602001fd5b836040517f08c379a00000000000000000000000000000000000000000000000000000000081526004016105e89190612cde565b3b151590565b6040518060a00160405280600081526020016000815260200160008152602001600081526020016000151581525090565b60405180606001604052806000815260200160008152602001600081525090565b600060208284031215612a31578081fd5b8135610567816134f2565b60008060408385031215612a4e578081fd5b8235612a59816134f2565b91506020830135612a6981613517565b809150509250929050565b60008060408385031215612a86578182fd5b8235612a91816134f2565b946020939093013593505050565b600080600060608486031215612ab3578081fd5b8335612abe816134f2565b95602085013595506040909401359392505050565b600060208284031215612ae4578081fd5b813561056781613517565b600060208284031215612b00578081fd5b815161056781613517565b600060208284031215612b1c578081fd5b5035919050565b600060208284031215612b34578081fd5b5051919050565b60008060408385031215612b4d578182fd5b823591506020830135612a69816134f2565b60008060008060808587031215612b74578081fd5b843593506020850135612b86816134f2565b92506040850135612b9681613517565b91506060850135612ba681613517565b939692955090935050565b60008060408385031215612bc3578182fd5b50508035926020909101359150565b600080600060608486031215612be6578283fd5b83359250602084013591506040840135612bff81613517565b809150509250925092565b60008060008060808587031215612c1f578384fd5b8435935060208501359250604085013591506060850135612ba681613517565b60008251612c518184602087016134c6565b9190910192915050565b73ffffffffffffffffffffffffffffffffffffffff91909116815260200190565b73ffffffffffffffffffffffffffffffffffffffff9384168152919092166020820152604081019190915260600190565b73ffffffffffffffffffffffffffffffffffffffff929092168252602082015260400190565b901515815260200190565b6000602082528251806020840152612cfd8160408501602087016134c6565b601f017fffffffffffffffffffffffffffffffffffffffffffffffffffffffffffffffe0169190910160400192915050565b6020808252602a908201527f536861646f774368656656323a20496e76616c6964206e657720626f6f73742060408201527f6d756c7469706c69657200000000000000000000000000000000000000000000606082015260800190565b6020808252602c908201527f536861646f774368656656323a2054686520757365722061646472657373206d60408201527f7573742062652076616c69640000000000000000000000000000000000000000606082015260800190565b6020808252602a908201527f5361666542455032303a204245503230206f7065726174696f6e20646964206e60408201527f6f74207375636365656400000000000000000000000000000000000000000000606082015260800190565b60208082526026908201527f4f776e61626c653a206e6577206f776e657220697320746865207a65726f206160408201527f6464726573730000000000000000000000000000000000000000000000000000606082015260800190565b6020808252601b908201527f536166654d6174683a206164646974696f6e206f766572666c6f770000000000604082015260600190565b6020808252602e908201527f536861646f774368656656323a204275726e2061646d696e206164647265737360408201527f206d7573742062652076616c6964000000000000000000000000000000000000606082015260800190565b60208082526042908201527f536861646f774368656656323a205468652061646472657373206973206e6f7460408201527f20617661696c61626c6520746f206465706f73697420696e207468697320706f60608201527f6f6c000000000000000000000000000000000000000000000000000000000000608082015260a00190565b6020808252602e908201527f536861646f774368656656323a20534844572072617465206d7573742062652060408201527f67726561746572207468616e2030000000000000000000000000000000000000606082015260800190565b60208082526025908201527f536861646f774368656656323a20546f74616c2072617465206d75737420626560408201527f2031653132000000000000000000000000000000000000000000000000000000606082015260800190565b60208082526032908201527f536861646f774368656656323a20546865207768697465206c6973742061646460408201527f72657373206d7573742062652076616c69640000000000000000000000000000606082015260800190565b60208082526021908201527f536166654d6174683a206d756c7469706c69636174696f6e206f766572666c6f60408201527f7700000000000000000000000000000000000000000000000000000000000000606082015260800190565b60208082526016908201527f77697468647261773a20496e73756666696369656e7400000000000000000000604082015260600190565b60208082526011908201527f4e6f6e6520424550323020746f6b656e73000000000000000000000000000000604082015260600190565b6020808252818101527f4f776e61626c653a2063616c6c6572206973206e6f7420746865206f776e6572604082015260600190565b60208082526029908201527f4f776e61626c653a2063616c6c6572206973206e6f742074686520626f6f737460408201527f20636f6e74726163740000000000000000000000000000000000000000000000606082015260800190565b60208082526036908201527f536861646f774368656656323a204e657720626f6f737420636f6e747261637460408201527f2061646472657373206d7573742062652076616c696400000000000000000000606082015260800190565b6020808252601d908201527f416464726573733a2063616c6c20746f206e6f6e2d636f6e7472616374000000604082015260600190565b60208082526041908201527f536861646f774368656656323a204275726e2061646d696e206164647265737360408201527f206973207468652073616d6520776974682063757272656e742061646472657360608201527f7300000000000000000000000000000000000000000000000000000000000000608082015260a00190565b60208082526030908201527f536861646f774368656656323a204f6e6c7920726567756c6172206661726d2060408201527f636f756c6420626520626f6f7374656400000000000000000000000000000000606082015260800190565b60208082526027908201527f5348445720746f6b656e2063616e277420626520616464656420746f2066617260408201527f6d20706f6f6c7300000000000000000000000000000000000000000000000000606082015260800190565b6020808252601f908201527f5265656e7472616e637947756172643a207265656e7472616e742063616c6c00604082015260600190565b600060a0820190508251825260208301516020830152604083015160408301526060830151606083015260808301511515608083015292915050565b90815260200190565b9182521515602082015260400190565b9283526020830191909152604082015260600190565b9485526020850193909352604084019190915260608301521515608082015260a00190565b60005b838110156134e15781810151838201526020016134c9565b838111156127595750506000910152565b73ffffffffffffffffffffffffffffffffffffffff8116811461351457600080fd5b50565b801515811461351457600080fdfea26469706673582212208258375ac1461dc0f29a035a916da3fbd5d3fac1fe1c167088369b432b73787f64736f6c634300060c0033",
			"opcodes": "PUSH1 0xA0 PUSH1 0x40 MSTORE PUSH5 0xBA43B7400 PUSH1 0xA SSTORE PUSH5 0x3A35294400 PUSH1 0xB SSTORE PUSH5 0xA2FB405800 PUSH1 0xC SSTORE CALLVALUE DUP1 ISZERO PUSH3 0x2C JUMPI PUSH1 0x0 DUP1 REVERT JUMPDEST POP PUSH1 0x40 MLOAD PUSH3 0x36C4 CODESIZE SUB DUP1 PUSH3 0x36C4 DUP4 CODECOPY DUP2 ADD PUSH1 0x40 DUP2 SWAP1 MSTORE PUSH3 0x4F SWAP2 PUSH3 0xE5 JUMP JUMPDEST PUSH1 0x0 PUSH3 0x5B PUSH3 0xE1 JUMP JUMPDEST PUSH1 0x0 DUP1 SLOAD PUSH1 0x1 PUSH1 0x1 PUSH1 0xA0 SHL SUB NOT AND PUSH1 0x1 PUSH1 0x1 PUSH1 0xA0 SHL SUB DUP4 AND SWAP1 DUP2 OR DUP3 SSTORE PUSH1 0x40 MLOAD SWAP3 SWAP4 POP SWAP2 PUSH32 0x8BE0079C531659141344CD1FD0A4F28419497F9722A3DAAFE3B4186F6B6457E0 SWAP1 DUP3 SWAP1 LOG3 POP PUSH1 0x1 DUP1 SSTORE PUSH1 0x60 SWAP2 SWAP1 SWAP2 SHL PUSH1 0x1 PUSH1 0x1 PUSH1 0x60 SHL SUB NOT AND PUSH1 0x80 MSTORE PUSH1 0x2 DUP1 SLOAD PUSH1 0x1 PUSH1 0x1 PUSH1 0xA0 SHL SUB NOT AND PUSH1 0x1 PUSH1 0x1 PUSH1 0xA0 SHL SUB SWAP1 SWAP3 AND SWAP2 SWAP1 SWAP2 OR SWAP1 SSTORE PUSH3 0x13C JUMP JUMPDEST CALLER SWAP1 JUMP JUMPDEST PUSH1 0x0 DUP1 PUSH1 0x40 DUP4 DUP6 SUB SLT ISZERO PUSH3 0xF8 JUMPI DUP2 DUP3 REVERT JUMPDEST DUP3 MLOAD PUSH3 0x105 DUP2 PUSH3 0x123 JUMP JUMPDEST PUSH1 0x20 DUP5 ADD MLOAD SWAP1 SWAP3 POP PUSH3 0x118 DUP2 PUSH3 0x123 JUMP JUMPDEST DUP1 SWAP2 POP POP SWAP3 POP SWAP3 SWAP1 POP JUMP JUMPDEST PUSH1 0x1 PUSH1 0x1 PUSH1 0xA0 SHL SUB DUP2 AND DUP2 EQ PUSH3 0x139 JUMPI PUSH1 0x0 DUP1 REVERT JUMPDEST POP JUMP JUMPDEST PUSH1 0x80 MLOAD PUSH1 0x60 SHR PUSH2 0x355B PUSH3 0x169 PUSH1 0x0 CODECOPY DUP1 PUSH2 0x575 MSTORE DUP1 PUSH2 0x199C MSTORE DUP1 PUSH2 0x25BE MSTORE DUP1 PUSH2 0x266B MSTORE POP PUSH2 0x355B PUSH1 0x0 RETURN INVALID PUSH1 0x80 PUSH1 0x40 MSTORE CALLVALUE DUP1 ISZERO PUSH2 0x10 JUMPI PUSH1 0x0 DUP1 REVERT JUMPDEST POP PUSH1 0x4 CALLDATASIZE LT PUSH2 0x2AD JUMPI PUSH1 0x0 CALLDATALOAD PUSH1 0xE0 SHR DUP1 PUSH4 0x78DB4C34 GT PUSH2 0x17B JUMPI DUP1 PUSH4 0xC507AEAA GT PUSH2 0xD8 JUMPI DUP1 PUSH4 0xE2BBB158 GT PUSH2 0x8C JUMPI DUP1 PUSH4 0xF474309E GT PUSH2 0x71 JUMPI DUP1 PUSH4 0xF474309E EQ PUSH2 0x4FA JUMPI DUP1 PUSH4 0xF5A26F40 EQ PUSH2 0x50D JUMPI DUP1 PUSH4 0xF5B91CD3 EQ PUSH2 0x515 JUMPI PUSH2 0x2AD JUMP JUMPDEST DUP1 PUSH4 0xE2BBB158 EQ PUSH2 0x4D4 JUMPI DUP1 PUSH4 0xF2FDE38B EQ PUSH2 0x4E7 JUMPI PUSH2 0x2AD JUMP JUMPDEST DUP1 PUSH4 0xCC6DB2DA GT PUSH2 0xBD JUMPI DUP1 PUSH4 0xCC6DB2DA EQ PUSH2 0x4C4 JUMPI DUP1 PUSH4 0xD2CE6AE8 EQ PUSH2 0x4C4 JUMPI DUP1 PUSH4 0xDFCEDEEE EQ PUSH2 0x4CC JUMPI PUSH2 0x2AD JUMP JUMPDEST DUP1 PUSH4 0xC507AEAA EQ PUSH2 0x49E JUMPI DUP1 PUSH4 0xC799B59D EQ PUSH2 0x4B1 JUMPI PUSH2 0x2AD JUMP JUMPDEST DUP1 PUSH4 0x93F1A40B GT PUSH2 0x12F JUMPI DUP1 PUSH4 0x9DD2FCC3 GT PUSH2 0x114 JUMPI DUP1 PUSH4 0x9DD2FCC3 EQ PUSH2 0x470 JUMPI DUP1 PUSH4 0xAC1D0609 EQ PUSH2 0x483 JUMPI DUP1 PUSH4 0xC40D337B EQ PUSH2 0x496 JUMPI PUSH2 0x2AD JUMP JUMPDEST DUP1 PUSH4 0x93F1A40B EQ PUSH2 0x446 JUMPI DUP1 PUSH4 0x99D7E84A EQ PUSH2 0x468 JUMPI PUSH2 0x2AD JUMP JUMPDEST DUP1 PUSH4 0x815D087F GT PUSH2 0x160 JUMPI DUP1 PUSH4 0x815D087F EQ PUSH2 0x423 JUMPI DUP1 PUSH4 0x81BDF98C EQ PUSH2 0x436 JUMPI DUP1 PUSH4 0x8DA5CB5B EQ PUSH2 0x43E JUMPI PUSH2 0x2AD JUMP JUMPDEST DUP1 PUSH4 0x78DB4C34 EQ PUSH2 0x408 JUMPI DUP1 PUSH4 0x78ED5D1F EQ PUSH2 0x410 JUMPI PUSH2 0x2AD JUMP JUMPDEST DUP1 PUSH4 0x372C12B1 GT PUSH2 0x229 JUMPI DUP1 PUSH4 0x64482F79 GT PUSH2 0x1DD JUMPI DUP1 PUSH4 0x69B02128 GT PUSH2 0x1C2 JUMPI DUP1 PUSH4 0x69B02128 EQ PUSH2 0x3F0 JUMPI DUP1 PUSH4 0x6FDA08C3 EQ PUSH2 0x3F8 JUMPI DUP1 PUSH4 0x715018A6 EQ PUSH2 0x400 JUMPI PUSH2 0x2AD JUMP JUMPDEST DUP1 PUSH4 0x64482F79 EQ PUSH2 0x3D5 JUMPI DUP1 PUSH4 0x6661100F EQ PUSH2 0x3E8 JUMPI PUSH2 0x2AD JUMP JUMPDEST DUP1 PUSH4 0x51EB05A6 GT PUSH2 0x20E JUMPI DUP1 PUSH4 0x51EB05A6 EQ PUSH2 0x39A JUMPI DUP1 PUSH4 0x5312EA8E EQ PUSH2 0x3BA JUMPI DUP1 PUSH4 0x630B5BA1 EQ PUSH2 0x3CD JUMPI PUSH2 0x2AD JUMP JUMPDEST DUP1 PUSH4 0x372C12B1 EQ PUSH2 0x367 JUMPI DUP1 PUSH4 0x441A3E70 EQ PUSH2 0x387 JUMPI PUSH2 0x2AD JUMP JUMPDEST DUP1 PUSH4 0xBB844BC GT PUSH2 0x280 JUMPI DUP1 PUSH4 0x16E80F4D GT PUSH2 0x265 JUMPI DUP1 PUSH4 0x16E80F4D EQ PUSH2 0x344 JUMPI DUP1 PUSH4 0x19F95E2E EQ PUSH2 0x34C JUMPI DUP1 PUSH4 0x36183ED6 EQ PUSH2 0x354 JUMPI PUSH2 0x2AD JUMP JUMPDEST DUP1 PUSH4 0xBB844BC EQ PUSH2 0x30D JUMPI DUP1 PUSH4 0x1526FE27 EQ PUSH2 0x320 JUMPI PUSH2 0x2AD JUMP JUMPDEST DUP1 PUSH4 0x33186E8 EQ PUSH2 0x2B2 JUMPI DUP1 PUSH4 0x3DCFF74 EQ PUSH2 0x2DB JUMPI DUP1 PUSH4 0x41A84C9 EQ PUSH2 0x2F0 JUMPI DUP1 PUSH4 0x81E3EDA EQ PUSH2 0x305 JUMPI JUMPDEST PUSH1 0x0 DUP1 REVERT JUMPDEST PUSH2 0x2C5 PUSH2 0x2C0 CALLDATASIZE PUSH1 0x4 PUSH2 0x2A74 JUMP JUMPDEST PUSH2 0x51D JUMP JUMPDEST PUSH1 0x40 MLOAD PUSH2 0x2D2 SWAP2 SWAP1 PUSH2 0x3472 JUMP JUMPDEST PUSH1 0x40 MLOAD DUP1 SWAP2 SUB SWAP1 RETURN JUMPDEST PUSH2 0x2E3 PUSH2 0x573 JUMP JUMPDEST PUSH1 0x40 MLOAD PUSH2 0x2D2 SWAP2 SWAP1 PUSH2 0x2C5B JUMP JUMPDEST PUSH2 0x303 PUSH2 0x2FE CALLDATASIZE PUSH1 0x4 PUSH2 0x2A9F JUMP JUMPDEST PUSH2 0x597 JUMP JUMPDEST STOP JUMPDEST PUSH2 0x2C5 PUSH2 0x90F JUMP JUMPDEST PUSH2 0x303 PUSH2 0x31B CALLDATASIZE PUSH1 0x4 PUSH2 0x2A20 JUMP JUMPDEST PUSH2 0x915 JUMP JUMPDEST PUSH2 0x333 PUSH2 0x32E CALLDATASIZE PUSH1 0x4 PUSH2 0x2B0B JUMP JUMPDEST PUSH2 0xA8A JUMP JUMPDEST PUSH1 0x40 MLOAD PUSH2 0x2D2 SWAP6 SWAP5 SWAP4 SWAP3 SWAP2 SWAP1 PUSH2 0x34A1 JUMP JUMPDEST PUSH2 0x2C5 PUSH2 0xACB JUMP JUMPDEST PUSH2 0x2C5 PUSH2 0xAD7 JUMP JUMPDEST PUSH2 0x303 PUSH2 0x362 CALLDATASIZE PUSH1 0x4 PUSH2 0x2AD3 JUMP JUMPDEST PUSH2 0xB04 JUMP JUMPDEST PUSH2 0x37A PUSH2 0x375 CALLDATASIZE PUSH1 0x4 PUSH2 0x2A20 JUMP JUMPDEST PUSH2 0xBCA JUMP JUMPDEST PUSH1 0x40 MLOAD PUSH2 0x2D2 SWAP2 SWAP1 PUSH2 0x2CD3 JUMP JUMPDEST PUSH2 0x303 PUSH2 0x395 CALLDATASIZE PUSH1 0x4 PUSH2 0x2BB1 JUMP JUMPDEST PUSH2 0xBDF JUMP JUMPDEST PUSH2 0x3AD PUSH2 0x3A8 CALLDATASIZE PUSH1 0x4 PUSH2 0x2B0B JUMP JUMPDEST PUSH2 0xDF0 JUMP JUMPDEST PUSH1 0x40 MLOAD PUSH2 0x2D2 SWAP2 SWAP1 PUSH2 0x3436 JUMP JUMPDEST PUSH2 0x303 PUSH2 0x3C8 CALLDATASIZE PUSH1 0x4 PUSH2 0x2B0B JUMP JUMPDEST PUSH2 0xFC6 JUMP JUMPDEST PUSH2 0x303 PUSH2 0x10F4 JUMP JUMPDEST PUSH2 0x303 PUSH2 0x3E3 CALLDATASIZE PUSH1 0x4 PUSH2 0x2BD2 JUMP JUMPDEST PUSH2 0x1188 JUMP JUMPDEST PUSH2 0x2C5 PUSH2 0x12FF JUMP JUMPDEST PUSH2 0x2C5 PUSH2 0x1305 JUMP JUMPDEST PUSH2 0x2C5 PUSH2 0x130F JUMP JUMPDEST PUSH2 0x303 PUSH2 0x1315 JUMP JUMPDEST PUSH2 0x2C5 PUSH2 0x13E0 JUMP JUMPDEST PUSH2 0x2E3 PUSH2 0x41E CALLDATASIZE PUSH1 0x4 PUSH2 0x2B0B JUMP JUMPDEST PUSH2 0x13E6 JUMP JUMPDEST PUSH2 0x303 PUSH2 0x431 CALLDATASIZE PUSH1 0x4 PUSH2 0x2C0A JUMP JUMPDEST PUSH2 0x141A JUMP JUMPDEST PUSH2 0x2E3 PUSH2 0x157C JUMP JUMPDEST PUSH2 0x2E3 PUSH2 0x1598 JUMP JUMPDEST PUSH2 0x459 PUSH2 0x454 CALLDATASIZE PUSH1 0x4 PUSH2 0x2B3B JUMP JUMPDEST PUSH2 0x15B4 JUMP JUMPDEST PUSH1 0x40 MLOAD PUSH2 0x2D2 SWAP4 SWAP3 SWAP2 SWAP1 PUSH2 0x348B JUMP JUMPDEST PUSH2 0x2C5 PUSH2 0x15E0 JUMP JUMPDEST PUSH2 0x303 PUSH2 0x47E CALLDATASIZE PUSH1 0x4 PUSH2 0x2A20 JUMP JUMPDEST PUSH2 0x15E6 JUMP JUMPDEST PUSH2 0x303 PUSH2 0x491 CALLDATASIZE PUSH1 0x4 PUSH2 0x2A3C JUMP JUMPDEST PUSH2 0x1727 JUMP JUMPDEST PUSH2 0x2C5 PUSH2 0x185B JUMP JUMPDEST PUSH2 0x303 PUSH2 0x4AC CALLDATASIZE PUSH1 0x4 PUSH2 0x2B5F JUMP JUMPDEST PUSH2 0x1861 JUMP JUMPDEST PUSH2 0x2C5 PUSH2 0x4BF CALLDATASIZE PUSH1 0x4 PUSH2 0x2B3B JUMP JUMPDEST PUSH2 0x1C3A JUMP JUMPDEST PUSH2 0x2C5 PUSH2 0x1DE6 JUMP JUMPDEST PUSH2 0x2E3 PUSH2 0x1DEF JUMP JUMPDEST PUSH2 0x303 PUSH2 0x4E2 CALLDATASIZE PUSH1 0x4 PUSH2 0x2BB1 JUMP JUMPDEST PUSH2 0x1E0B JUMP JUMPDEST PUSH2 0x303 PUSH2 0x4F5 CALLDATASIZE PUSH1 0x4 PUSH2 0x2A20 JUMP JUMPDEST PUSH2 0x21D6 JUMP JUMPDEST PUSH2 0x2C5 PUSH2 0x508 CALLDATASIZE PUSH1 0x4 PUSH2 0x2AD3 JUMP JUMPDEST PUSH2 0x230C JUMP JUMPDEST PUSH2 0x2C5 PUSH2 0x2367 JUMP JUMPDEST PUSH2 0x2C5 PUSH2 0x236D JUMP JUMPDEST PUSH1 0x0 DUP2 DUP2 MSTORE PUSH1 0x6 PUSH1 0x20 SWAP1 DUP2 MSTORE PUSH1 0x40 DUP1 DUP4 KECCAK256 PUSH20 0xFFFFFFFFFFFFFFFFFFFFFFFFFFFFFFFFFFFFFFFF DUP7 AND DUP5 MSTORE SWAP1 SWAP2 MSTORE DUP2 KECCAK256 PUSH1 0x2 ADD SLOAD PUSH5 0xE8D4A51000 DUP2 GT PUSH2 0x567 JUMPI PUSH5 0xE8D4A51000 PUSH2 0x569 JUMP JUMPDEST DUP1 JUMPDEST SWAP2 POP POP JUMPDEST SWAP3 SWAP2 POP POP JUMP JUMPDEST PUSH32 0x0 DUP2 JUMP JUMPDEST PUSH1 0x3 SLOAD PUSH20 0xFFFFFFFFFFFFFFFFFFFFFFFFFFFFFFFFFFFFFFFF AND CALLER EQ PUSH2 0x5F1 JUMPI PUSH1 0x40 MLOAD PUSH32 0x8C379A000000000000000000000000000000000000000000000000000000000 DUP2 MSTORE PUSH1 0x4 ADD PUSH2 0x5E8 SWAP1 PUSH2 0x31D1 JUMP JUMPDEST PUSH1 0x40 MLOAD DUP1 SWAP2 SUB SWAP1 REVERT JUMPDEST PUSH1 0x2 PUSH1 0x1 SLOAD EQ ISZERO PUSH2 0x62E JUMPI PUSH1 0x40 MLOAD PUSH32 0x8C379A000000000000000000000000000000000000000000000000000000000 DUP2 MSTORE PUSH1 0x4 ADD PUSH2 0x5E8 SWAP1 PUSH2 0x33FF JUMP JUMPDEST PUSH1 0x2 PUSH1 0x1 SSTORE PUSH20 0xFFFFFFFFFFFFFFFFFFFFFFFFFFFFFFFFFFFFFFFF DUP4 AND PUSH2 0x680 JUMPI PUSH1 0x40 MLOAD PUSH32 0x8C379A000000000000000000000000000000000000000000000000000000000 DUP2 MSTORE PUSH1 0x4 ADD PUSH2 0x5E8 SWAP1 PUSH2 0x2D8C JUMP JUMPDEST PUSH1 0x4 DUP3 DUP2 SLOAD DUP2 LT PUSH2 0x68D JUMPI INVALID JUMPDEST PUSH1 0x0 SWAP2 DUP3 MSTORE PUSH1 0x20 SWAP1 SWAP2 KECCAK256 PUSH1 0x4 PUSH1 0x5 SWAP1 SWAP3 MUL ADD ADD SLOAD PUSH1 0xFF AND PUSH2 0x6DA JUMPI PUSH1 0x40 MLOAD PUSH32 0x8C379A000000000000000000000000000000000000000000000000000000000 DUP2 MSTORE PUSH1 0x4 ADD PUSH2 0x5E8 SWAP1 PUSH2 0x3345 JUMP JUMPDEST PUSH5 0xE8D4A51000 DUP2 LT ISZERO DUP1 ISZERO PUSH2 0x6F5 JUMPI POP PUSH6 0x1D1A94A2000 DUP2 GT ISZERO JUMPDEST PUSH2 0x72B JUMPI PUSH1 0x40 MLOAD PUSH32 0x8C379A000000000000000000000000000000000000000000000000000000000 DUP2 MSTORE PUSH1 0x4 ADD PUSH2 0x5E8 SWAP1 PUSH2 0x2D2F JUMP JUMPDEST PUSH2 0x733 PUSH2 0x29CE JUMP JUMPDEST PUSH2 0x73C DUP4 PUSH2 0xDF0 JUMP JUMPDEST PUSH1 0x0 DUP5 DUP2 MSTORE PUSH1 0x6 PUSH1 0x20 SWAP1 DUP2 MSTORE PUSH1 0x40 DUP1 DUP4 KECCAK256 PUSH20 0xFFFFFFFFFFFFFFFFFFFFFFFFFFFFFFFFFFFFFFFF DUP10 AND DUP5 MSTORE SWAP1 SWAP2 MSTORE DUP2 KECCAK256 SWAP2 SWAP3 POP PUSH2 0x778 DUP7 DUP7 PUSH2 0x51D JUMP JUMPDEST SWAP1 POP PUSH2 0x785 DUP7 DUP7 DUP4 PUSH2 0x2379 JUMP JUMPDEST PUSH2 0x7C5 PUSH8 0xDE0B6B3A7640000 PUSH2 0x7B9 DUP6 PUSH1 0x0 ADD MLOAD PUSH2 0x7BF PUSH5 0xE8D4A51000 PUSH2 0x7B9 DUP11 DUP10 PUSH1 0x0 ADD SLOAD PUSH2 0x2456 SWAP1 SWAP2 SWAP1 PUSH4 0xFFFFFFFF AND JUMP JUMPDEST SWAP1 PUSH2 0x24AA JUMP JUMPDEST SWAP1 PUSH2 0x2456 JUMP JUMPDEST PUSH1 0x1 DUP4 ADD SSTORE DUP2 SLOAD PUSH2 0x811 SWAP1 PUSH2 0x7E5 SWAP1 PUSH5 0xE8D4A51000 SWAP1 PUSH2 0x7B9 SWAP1 DUP9 PUSH2 0x2456 JUMP JUMPDEST DUP4 SLOAD PUSH2 0x80B SWAP1 PUSH2 0x800 SWAP1 PUSH5 0xE8D4A51000 SWAP1 PUSH2 0x7B9 SWAP1 DUP8 PUSH2 0x2456 JUMP JUMPDEST PUSH1 0x60 DUP8 ADD MLOAD SWAP1 PUSH2 0x24F3 JUMP JUMPDEST SWAP1 PUSH2 0x2535 JUMP JUMPDEST PUSH1 0x60 DUP5 ADD MSTORE PUSH1 0x4 DUP1 SLOAD DUP5 SWAP2 SWAP1 DUP8 SWAP1 DUP2 LT PUSH2 0x827 JUMPI INVALID JUMPDEST PUSH1 0x0 SWAP2 DUP3 MSTORE PUSH1 0x20 DUP1 DUP4 KECCAK256 DUP5 MLOAD PUSH1 0x5 SWAP4 SWAP1 SWAP4 MUL ADD SWAP2 DUP3 SSTORE DUP4 DUP2 ADD MLOAD PUSH1 0x1 DUP4 ADD SSTORE PUSH1 0x40 DUP1 DUP6 ADD MLOAD PUSH1 0x2 DUP1 DUP6 ADD SWAP2 SWAP1 SWAP2 SSTORE PUSH1 0x60 DUP7 ADD MLOAD PUSH1 0x3 DUP6 ADD SSTORE PUSH1 0x80 SWAP1 SWAP6 ADD MLOAD PUSH1 0x4 SWAP1 SWAP4 ADD DUP1 SLOAD PUSH32 0xFFFFFFFFFFFFFFFFFFFFFFFFFFFFFFFFFFFFFFFFFFFFFFFFFFFFFFFFFFFFFF00 AND SWAP4 ISZERO ISZERO SWAP4 SWAP1 SWAP4 OR SWAP1 SWAP3 SSTORE DUP9 DUP4 MSTORE PUSH1 0x6 DUP2 MSTORE DUP2 DUP4 KECCAK256 PUSH20 0xFFFFFFFFFFFFFFFFFFFFFFFFFFFFFFFFFFFFFFFF DUP12 AND DUP1 DUP6 MSTORE SWAP2 MSTORE SWAP2 DUP2 SWAP1 KECCAK256 SWAP1 SWAP3 ADD DUP7 SWAP1 SSTORE SWAP1 MLOAD PUSH32 0x1ABD62439B64F6C5DAB6F94D56099495BD0C094F9C21F98F4D3562A21EDB4BA SWAP1 PUSH2 0x8FB SWAP1 DUP9 SWAP1 DUP6 SWAP1 DUP10 SWAP1 PUSH2 0x348B JUMP JUMPDEST PUSH1 0x40 MLOAD DUP1 SWAP2 SUB SWAP1 LOG2 POP POP PUSH1 0x1 DUP1 SSTORE POP POP POP POP JUMP JUMPDEST PUSH1 0x4 SLOAD SWAP1 JUMP JUMPDEST PUSH2 0x91D PUSH2 0x2574 JUMP JUMPDEST PUSH1 0x0 SLOAD PUSH20 0xFFFFFFFFFFFFFFFFFFFFFFFFFFFFFFFFFFFFFFFF SWAP1 DUP2 AND SWAP2 AND EQ PUSH2 0x971 JUMPI PUSH1 0x40 MLOAD PUSH32 0x8C379A000000000000000000000000000000000000000000000000000000000 DUP2 MSTORE PUSH1 0x4 ADD PUSH2 0x5E8 SWAP1 PUSH2 0x319C JUMP JUMPDEST PUSH20 0xFFFFFFFFFFFFFFFFFFFFFFFFFFFFFFFFFFFFFFFF DUP2 AND PUSH2 0x9BE JUMPI PUSH1 0x40 MLOAD PUSH32 0x8C379A000000000000000000000000000000000000000000000000000000000 DUP2 MSTORE PUSH1 0x4 ADD PUSH2 0x5E8 SWAP1 PUSH2 0x2EDA JUMP JUMPDEST PUSH1 0x2 SLOAD PUSH20 0xFFFFFFFFFFFFFFFFFFFFFFFFFFFFFFFFFFFFFFFF DUP3 DUP2 AND SWAP2 AND EQ ISZERO PUSH2 0xA13 JUMPI PUSH1 0x40 MLOAD PUSH32 0x8C379A000000000000000000000000000000000000000000000000000000000 DUP2 MSTORE PUSH1 0x4 ADD PUSH2 0x5E8 SWAP1 PUSH2 0x32C2 JUMP JUMPDEST PUSH1 0x2 DUP1 SLOAD PUSH20 0xFFFFFFFFFFFFFFFFFFFFFFFFFFFFFFFFFFFFFFFF DUP4 DUP2 AND PUSH32 0xFFFFFFFFFFFFFFFFFFFFFFFF0000000000000000000000000000000000000000 DUP4 AND DUP2 OR SWAP1 SWAP4 SSTORE PUSH1 0x40 MLOAD SWAP2 AND SWAP2 SWAP1 DUP3 SWAP1 PUSH32 0xD146FE330FDDDF682413850A35B28EDFCCD4C4B53CFEE802FD24950DE5BE1DBE SWAP1 PUSH1 0x0 SWAP1 LOG3 POP POP JUMP JUMPDEST PUSH1 0x4 DUP2 DUP2 SLOAD DUP2 LT PUSH2 0xA97 JUMPI INVALID JUMPDEST PUSH1 0x0 SWAP2 DUP3 MSTORE PUSH1 0x20 SWAP1 SWAP2 KECCAK256 PUSH1 0x5 SWAP1 SWAP2 MUL ADD DUP1 SLOAD PUSH1 0x1 DUP3 ADD SLOAD PUSH1 0x2 DUP4 ADD SLOAD PUSH1 0x3 DUP5 ADD SLOAD PUSH1 0x4 SWAP1 SWAP5 ADD SLOAD SWAP3 SWAP5 POP SWAP1 SWAP3 SWAP1 SWAP2 PUSH1 0xFF AND DUP6 JUMP JUMPDEST PUSH8 0xDE0B6B3A7640000 DUP2 JUMP JUMPDEST PUSH1 0x0 PUSH2 0xAFF PUSH5 0xE8D4A51000 PUSH2 0x7B9 PUSH1 0xA SLOAD PUSH8 0x1314FB3706298000 PUSH2 0x2456 SWAP1 SWAP2 SWAP1 PUSH4 0xFFFFFFFF AND JUMP JUMPDEST SWAP1 POP SWAP1 JUMP JUMPDEST PUSH2 0xB0C PUSH2 0x2574 JUMP JUMPDEST PUSH1 0x0 SLOAD PUSH20 0xFFFFFFFFFFFFFFFFFFFFFFFFFFFFFFFFFFFFFFFF SWAP1 DUP2 AND SWAP2 AND EQ PUSH2 0xB60 JUMPI PUSH1 0x40 MLOAD PUSH32 0x8C379A000000000000000000000000000000000000000000000000000000000 DUP2 MSTORE PUSH1 0x4 ADD PUSH2 0x5E8 SWAP1 PUSH2 0x319C JUMP JUMPDEST DUP1 ISZERO PUSH2 0xB6E JUMPI PUSH2 0xB6E PUSH2 0x10F4 JUMP JUMPDEST PUSH1 0x0 PUSH2 0xB85 PUSH1 0xD SLOAD NUMBER PUSH2 0x24F3 SWAP1 SWAP2 SWAP1 PUSH4 0xFFFFFFFF AND JUMP JUMPDEST SWAP1 POP PUSH1 0x0 PUSH2 0xB9B PUSH2 0xB94 PUSH2 0xAD7 JUMP JUMPDEST DUP4 SWAP1 PUSH2 0x2456 JUMP JUMPDEST PUSH1 0x2 SLOAD SWAP1 SWAP2 POP PUSH2 0xBC1 SWAP1 PUSH20 0xFFFFFFFFFFFFFFFFFFFFFFFFFFFFFFFFFFFFFFFF AND DUP3 PUSH2 0x2578 JUMP JUMPDEST POP POP NUMBER PUSH1 0xD SSTORE POP JUMP JUMPDEST PUSH1 0x7 PUSH1 0x20 MSTORE PUSH1 0x0 SWAP1 DUP2 MSTORE PUSH1 0x40 SWAP1 KECCAK256 SLOAD PUSH1 0xFF AND DUP2 JUMP JUMPDEST PUSH1 0x2 PUSH1 0x1 SLOAD EQ ISZERO PUSH2 0xC1C JUMPI PUSH1 0x40 MLOAD PUSH32 0x8C379A000000000000000000000000000000000000000000000000000000000 DUP2 MSTORE PUSH1 0x4 ADD PUSH2 0x5E8 SWAP1 PUSH2 0x33FF JUMP JUMPDEST PUSH1 0x2 PUSH1 0x1 SSTORE PUSH2 0xC29 PUSH2 0x29CE JUMP JUMPDEST PUSH2 0xC32 DUP4 PUSH2 0xDF0 JUMP JUMPDEST PUSH1 0x0 DUP5 DUP2 MSTORE PUSH1 0x6 PUSH1 0x20 SWAP1 DUP2 MSTORE PUSH1 0x40 DUP1 DUP4 KECCAK256 CALLER DUP5 MSTORE SWAP1 SWAP2 MSTORE SWAP1 KECCAK256 DUP1 SLOAD SWAP2 SWAP3 POP SWAP1 DUP4 GT ISZERO PUSH2 0xC8A JUMPI PUSH1 0x40 MLOAD PUSH32 0x8C379A000000000000000000000000000000000000000000000000000000000 DUP2 MSTORE PUSH1 0x4 ADD PUSH2 0x5E8 SWAP1 PUSH2 0x312E JUMP JUMPDEST PUSH1 0x0 PUSH2 0xC96 CALLER DUP7 PUSH2 0x51D JUMP JUMPDEST SWAP1 POP PUSH2 0xCA3 CALLER DUP7 DUP4 PUSH2 0x2379 JUMP JUMPDEST DUP4 ISZERO PUSH2 0xCF8 JUMPI DUP2 SLOAD PUSH2 0xCB5 SWAP1 DUP6 PUSH2 0x24F3 JUMP JUMPDEST DUP3 PUSH1 0x0 ADD DUP2 SWAP1 SSTORE POP PUSH2 0xCF8 CALLER DUP6 PUSH1 0x5 DUP9 DUP2 SLOAD DUP2 LT PUSH2 0xCCF JUMPI INVALID JUMPDEST PUSH1 0x0 SWAP2 DUP3 MSTORE PUSH1 0x20 SWAP1 SWAP2 KECCAK256 ADD SLOAD PUSH20 0xFFFFFFFFFFFFFFFFFFFFFFFFFFFFFFFFFFFFFFFF AND SWAP2 SWAP1 PUSH2 0x2697 JUMP JUMPDEST PUSH2 0xD2C PUSH8 0xDE0B6B3A7640000 PUSH2 0x7B9 DUP6 PUSH1 0x0 ADD MLOAD PUSH2 0x7BF PUSH5 0xE8D4A51000 PUSH2 0x7B9 DUP8 DUP10 PUSH1 0x0 ADD SLOAD PUSH2 0x2456 SWAP1 SWAP2 SWAP1 PUSH4 0xFFFFFFFF AND JUMP JUMPDEST PUSH1 0x1 DUP4 ADD SSTORE PUSH2 0xD74 PUSH2 0xD47 PUSH5 0xE8D4A51000 PUSH2 0x7B9 DUP8 DUP6 PUSH2 0x2456 JUMP JUMPDEST PUSH1 0x4 DUP8 DUP2 SLOAD DUP2 LT PUSH2 0xD54 JUMPI INVALID JUMPDEST SWAP1 PUSH1 0x0 MSTORE PUSH1 0x20 PUSH1 0x0 KECCAK256 SWAP1 PUSH1 0x5 MUL ADD PUSH1 0x3 ADD SLOAD PUSH2 0x24F3 SWAP1 SWAP2 SWAP1 PUSH4 0xFFFFFFFF AND JUMP JUMPDEST PUSH1 0x4 DUP7 DUP2 SLOAD DUP2 LT PUSH2 0xD81 JUMPI INVALID JUMPDEST SWAP1 PUSH1 0x0 MSTORE PUSH1 0x20 PUSH1 0x0 KECCAK256 SWAP1 PUSH1 0x5 MUL ADD PUSH1 0x3 ADD DUP2 SWAP1 SSTORE POP DUP5 CALLER PUSH20 0xFFFFFFFFFFFFFFFFFFFFFFFFFFFFFFFFFFFFFFFF AND PUSH32 0xF279E6A1F5E320CCA91135676D9CB6E44CA8A08C0B88342BCDB1144F6511B568 DUP7 PUSH1 0x40 MLOAD PUSH2 0xDDD SWAP2 SWAP1 PUSH2 0x3472 JUMP JUMPDEST PUSH1 0x40 MLOAD DUP1 SWAP2 SUB SWAP1 LOG3 POP POP PUSH1 0x1 DUP1 SSTORE POP POP POP JUMP JUMPDEST PUSH2 0xDF8 PUSH2 0x29CE JUMP JUMPDEST PUSH1 0x4 DUP3 DUP2 SLOAD DUP2 LT PUSH2 0xE05 JUMPI INVALID JUMPDEST PUSH1 0x0 SWAP2 DUP3 MSTORE PUSH1 0x20 SWAP2 DUP3 SWAP1 KECCAK256 PUSH1 0x40 DUP1 MLOAD PUSH1 0xA0 DUP2 ADD DUP3 MSTORE PUSH1 0x5 SWAP1 SWAP4 MUL SWAP1 SWAP2 ADD DUP1 SLOAD DUP4 MSTORE PUSH1 0x1 DUP2 ADD SLOAD SWAP4 DUP4 ADD DUP5 SWAP1 MSTORE PUSH1 0x2 DUP2 ADD SLOAD SWAP2 DUP4 ADD SWAP2 SWAP1 SWAP2 MSTORE PUSH1 0x3 DUP2 ADD SLOAD PUSH1 0x60 DUP4 ADD MSTORE PUSH1 0x4 ADD SLOAD PUSH1 0xFF AND ISZERO ISZERO PUSH1 0x80 DUP3 ADD MSTORE SWAP2 POP NUMBER GT ISZERO PUSH2 0xFC1 JUMPI PUSH1 0x60 DUP2 ADD MLOAD PUSH1 0x80 DUP3 ADD MLOAD PUSH1 0x0 SWAP1 PUSH2 0xE77 JUMPI PUSH1 0x9 SLOAD PUSH2 0xE7B JUMP JUMPDEST PUSH1 0x8 SLOAD JUMPDEST SWAP1 POP PUSH1 0x0 DUP3 GT DUP1 ISZERO PUSH2 0xE8D JUMPI POP PUSH1 0x0 DUP2 GT JUMPDEST ISZERO PUSH2 0xEFA JUMPI PUSH1 0x0 PUSH2 0xEAB DUP5 PUSH1 0x20 ADD MLOAD NUMBER PUSH2 0x24F3 SWAP1 SWAP2 SWAP1 PUSH4 0xFFFFFFFF AND JUMP JUMPDEST SWAP1 POP PUSH1 0x0 PUSH2 0xED2 DUP4 PUSH2 0x7B9 DUP8 PUSH1 0x40 ADD MLOAD PUSH2 0x7BF PUSH2 0xECB DUP11 PUSH1 0x80 ADD MLOAD PUSH2 0x230C JUMP JUMPDEST DUP8 SWAP1 PUSH2 0x2456 JUMP JUMPDEST SWAP1 POP PUSH2 0xEF5 PUSH2 0xEED DUP6 PUSH2 0x7B9 DUP5 PUSH8 0xDE0B6B3A7640000 PUSH2 0x2456 JUMP JUMPDEST DUP7 MLOAD SWAP1 PUSH2 0x2535 JUMP JUMPDEST DUP6 MSTORE POP POP JUMPDEST NUMBER PUSH1 0x20 DUP5 ADD MSTORE PUSH1 0x4 DUP1 SLOAD DUP5 SWAP2 SWAP1 DUP7 SWAP1 DUP2 LT PUSH2 0xF11 JUMPI INVALID JUMPDEST PUSH1 0x0 SWAP2 DUP3 MSTORE PUSH1 0x20 SWAP2 DUP3 SWAP1 KECCAK256 DUP4 MLOAD PUSH1 0x5 SWAP3 SWAP1 SWAP3 MUL ADD SWAP1 DUP2 SSTORE DUP3 DUP3 ADD MLOAD PUSH1 0x1 DUP3 ADD SSTORE PUSH1 0x40 DUP1 DUP5 ADD MLOAD PUSH1 0x2 DUP4 ADD SSTORE PUSH1 0x60 DUP5 ADD MLOAD PUSH1 0x3 DUP4 ADD SSTORE PUSH1 0x80 SWAP1 SWAP4 ADD MLOAD PUSH1 0x4 SWAP1 SWAP2 ADD DUP1 SLOAD PUSH32 0xFFFFFFFFFFFFFFFFFFFFFFFFFFFFFFFFFFFFFFFFFFFFFFFFFFFFFFFFFFFFFF00 AND SWAP2 ISZERO ISZERO SWAP2 SWAP1 SWAP2 OR SWAP1 SSTORE DUP5 ADD MLOAD DUP5 MLOAD SWAP2 MLOAD DUP7 SWAP3 PUSH32 0x3BE3541FC42237D611B30329040BFA4569541D156560ACDBBAE57640D20B8F46 SWAP3 PUSH2 0xFB6 SWAP3 SWAP1 SWAP2 DUP8 SWAP2 PUSH2 0x348B JUMP JUMPDEST PUSH1 0x40 MLOAD DUP1 SWAP2 SUB SWAP1 LOG2 POP POP JUMPDEST SWAP2 SWAP1 POP JUMP JUMPDEST PUSH1 0x2 PUSH1 0x1 SLOAD EQ ISZERO PUSH2 0x1003 JUMPI PUSH1 0x40 MLOAD PUSH32 0x8C379A000000000000000000000000000000000000000000000000000000000 DUP2 MSTORE PUSH1 0x4 ADD PUSH2 0x5E8 SWAP1 PUSH2 0x33FF JUMP JUMPDEST PUSH1 0x2 PUSH1 0x1 DUP2 SWAP1 SSTORE POP PUSH1 0x0 PUSH1 0x4 DUP3 DUP2 SLOAD DUP2 LT PUSH2 0x101A JUMPI INVALID JUMPDEST PUSH1 0x0 SWAP2 DUP3 MSTORE PUSH1 0x20 DUP1 DUP4 KECCAK256 DUP6 DUP5 MSTORE PUSH1 0x6 DUP3 MSTORE PUSH1 0x40 DUP1 DUP6 KECCAK256 CALLER DUP1 DUP8 MSTORE SWAP4 MSTORE DUP5 KECCAK256 DUP1 SLOAD DUP6 DUP3 SSTORE PUSH1 0x1 DUP3 ADD DUP7 SWAP1 SSTORE PUSH1 0x5 SWAP1 SWAP5 MUL SWAP1 SWAP2 ADD SWAP5 POP SWAP3 SWAP1 PUSH2 0x1070 SWAP1 PUSH5 0xE8D4A51000 SWAP1 PUSH2 0x7B9 SWAP1 PUSH2 0x1069 SWAP1 DUP10 PUSH2 0x51D JUMP JUMPDEST DUP6 SWAP1 PUSH2 0x2456 JUMP JUMPDEST SWAP1 POP DUP1 DUP5 PUSH1 0x3 ADD SLOAD GT PUSH2 0x1084 JUMPI PUSH1 0x0 PUSH2 0x1093 JUMP JUMPDEST PUSH1 0x3 DUP5 ADD SLOAD PUSH2 0x1093 SWAP1 DUP3 PUSH2 0x24F3 JUMP JUMPDEST DUP5 PUSH1 0x3 ADD DUP2 SWAP1 SSTORE POP PUSH2 0x10AD CALLER DUP4 PUSH1 0x5 DUP9 DUP2 SLOAD DUP2 LT PUSH2 0xCCF JUMPI INVALID JUMPDEST DUP5 CALLER PUSH20 0xFFFFFFFFFFFFFFFFFFFFFFFFFFFFFFFFFFFFFFFF AND PUSH32 0xBB757047C2B5F3974FE26B7C10F732E7BCE710B0952A71082702781E62AE0595 DUP5 PUSH1 0x40 MLOAD PUSH2 0xDDD SWAP2 SWAP1 PUSH2 0x3472 JUMP JUMPDEST PUSH1 0x4 SLOAD PUSH1 0x0 JUMPDEST DUP2 DUP2 LT ISZERO PUSH2 0x1184 JUMPI PUSH2 0x110A PUSH2 0x29CE JUMP JUMPDEST PUSH1 0x4 DUP3 DUP2 SLOAD DUP2 LT PUSH2 0x1117 JUMPI INVALID JUMPDEST PUSH1 0x0 SWAP2 DUP3 MSTORE PUSH1 0x20 SWAP2 DUP3 SWAP1 KECCAK256 PUSH1 0x40 DUP1 MLOAD PUSH1 0xA0 DUP2 ADD DUP3 MSTORE PUSH1 0x5 SWAP1 SWAP4 MUL SWAP1 SWAP2 ADD DUP1 SLOAD DUP4 MSTORE PUSH1 0x1 DUP2 ADD SLOAD SWAP4 DUP4 ADD SWAP4 SWAP1 SWAP4 MSTORE PUSH1 0x2 DUP4 ADD SLOAD SWAP1 DUP3 ADD DUP2 SWAP1 MSTORE PUSH1 0x3 DUP4 ADD SLOAD PUSH1 0x60 DUP4 ADD MSTORE PUSH1 0x4 SWAP1 SWAP3 ADD SLOAD PUSH1 0xFF AND ISZERO ISZERO PUSH1 0x80 DUP3 ADD MSTORE SWAP2 POP ISZERO PUSH2 0x117B JUMPI PUSH2 0x1179 DUP3 PUSH2 0xDF0 JUMP JUMPDEST POP JUMPDEST POP PUSH1 0x1 ADD PUSH2 0x10FA JUMP JUMPDEST POP POP JUMP JUMPDEST PUSH2 0x1190 PUSH2 0x2574 JUMP JUMPDEST PUSH1 0x0 SLOAD PUSH20 0xFFFFFFFFFFFFFFFFFFFFFFFFFFFFFFFFFFFFFFFF SWAP1 DUP2 AND SWAP2 AND EQ PUSH2 0x11E4 JUMPI PUSH1 0x40 MLOAD PUSH32 0x8C379A000000000000000000000000000000000000000000000000000000000 DUP2 MSTORE PUSH1 0x4 ADD PUSH2 0x5E8 SWAP1 PUSH2 0x319C JUMP JUMPDEST PUSH2 0x11ED DUP4 PUSH2 0xDF0 JUMP JUMPDEST POP DUP1 ISZERO PUSH2 0x11FC JUMPI PUSH2 0x11FC PUSH2 0x10F4 JUMP JUMPDEST PUSH1 0x4 DUP4 DUP2 SLOAD DUP2 LT PUSH2 0x1209 JUMPI INVALID JUMPDEST PUSH1 0x0 SWAP2 DUP3 MSTORE PUSH1 0x20 SWAP1 SWAP2 KECCAK256 PUSH1 0x4 PUSH1 0x5 SWAP1 SWAP3 MUL ADD ADD SLOAD PUSH1 0xFF AND ISZERO PUSH2 0x1264 JUMPI PUSH2 0x125C DUP3 PUSH2 0x80B PUSH1 0x4 DUP7 DUP2 SLOAD DUP2 LT PUSH2 0x1239 JUMPI INVALID JUMPDEST SWAP1 PUSH1 0x0 MSTORE PUSH1 0x20 PUSH1 0x0 KECCAK256 SWAP1 PUSH1 0x5 MUL ADD PUSH1 0x2 ADD SLOAD PUSH1 0x8 SLOAD PUSH2 0x24F3 SWAP1 SWAP2 SWAP1 PUSH4 0xFFFFFFFF AND JUMP JUMPDEST PUSH1 0x8 SSTORE PUSH2 0x129F JUMP JUMPDEST PUSH2 0x129B DUP3 PUSH2 0x80B PUSH1 0x4 DUP7 DUP2 SLOAD DUP2 LT PUSH2 0x1278 JUMPI INVALID JUMPDEST SWAP1 PUSH1 0x0 MSTORE PUSH1 0x20 PUSH1 0x0 KECCAK256 SWAP1 PUSH1 0x5 MUL ADD PUSH1 0x2 ADD SLOAD PUSH1 0x9 SLOAD PUSH2 0x24F3 SWAP1 SWAP2 SWAP1 PUSH4 0xFFFFFFFF AND JUMP JUMPDEST PUSH1 0x9 SSTORE JUMPDEST DUP2 PUSH1 0x4 DUP5 DUP2 SLOAD DUP2 LT PUSH2 0x12AD JUMPI INVALID JUMPDEST SWAP1 PUSH1 0x0 MSTORE PUSH1 0x20 PUSH1 0x0 KECCAK256 SWAP1 PUSH1 0x5 MUL ADD PUSH1 0x2 ADD DUP2 SWAP1 SSTORE POP DUP3 PUSH32 0xC0CFD54D2DE2B55F1E6E108D3EC53FF0A1ABE6055401D32C61E9433B747EF9F8 DUP4 PUSH1 0x40 MLOAD PUSH2 0x12F2 SWAP2 SWAP1 PUSH2 0x3472 JUMP JUMPDEST PUSH1 0x40 MLOAD DUP1 SWAP2 SUB SWAP1 LOG2 POP POP POP JUMP JUMPDEST PUSH1 0xA SLOAD DUP2 JUMP JUMPDEST PUSH6 0x1D1A94A2000 DUP2 JUMP JUMPDEST PUSH1 0xC SLOAD DUP2 JUMP JUMPDEST PUSH2 0x131D PUSH2 0x2574 JUMP JUMPDEST PUSH1 0x0 SLOAD PUSH20 0xFFFFFFFFFFFFFFFFFFFFFFFFFFFFFFFFFFFFFFFF SWAP1 DUP2 AND SWAP2 AND EQ PUSH2 0x1371 JUMPI PUSH1 0x40 MLOAD PUSH32 0x8C379A000000000000000000000000000000000000000000000000000000000 DUP2 MSTORE PUSH1 0x4 ADD PUSH2 0x5E8 SWAP1 PUSH2 0x319C JUMP JUMPDEST PUSH1 0x0 DUP1 SLOAD PUSH1 0x40 MLOAD PUSH20 0xFFFFFFFFFFFFFFFFFFFFFFFFFFFFFFFFFFFFFFFF SWAP1 SWAP2 AND SWAP1 PUSH32 0x8BE0079C531659141344CD1FD0A4F28419497F9722A3DAAFE3B4186F6B6457E0 SWAP1 DUP4 SWAP1 LOG3 PUSH1 0x0 DUP1 SLOAD PUSH32 0xFFFFFFFFFFFFFFFFFFFFFFFF0000000000000000000000000000000000000000 AND SWAP1 SSTORE JUMP JUMPDEST PUSH1 0xD SLOAD DUP2 JUMP JUMPDEST PUSH1 0x5 DUP2 DUP2 SLOAD DUP2 LT PUSH2 0x13F3 JUMPI INVALID JUMPDEST PUSH1 0x0 SWAP2 DUP3 MSTORE PUSH1 0x20 SWAP1 SWAP2 KECCAK256 ADD SLOAD PUSH20 0xFFFFFFFFFFFFFFFFFFFFFFFFFFFFFFFFFFFFFFFF AND SWAP1 POP DUP2 JUMP JUMPDEST PUSH2 0x1422 PUSH2 0x2574 JUMP JUMPDEST PUSH1 0x0 SLOAD PUSH20 0xFFFFFFFFFFFFFFFFFFFFFFFFFFFFFFFFFFFFFFFF SWAP1 DUP2 AND SWAP2 AND EQ PUSH2 0x1476 JUMPI PUSH1 0x40 MLOAD PUSH32 0x8C379A000000000000000000000000000000000000000000000000000000000 DUP2 MSTORE PUSH1 0x4 ADD PUSH2 0x5E8 SWAP1 PUSH2 0x319C JUMP JUMPDEST PUSH1 0x0 DUP5 GT DUP1 ISZERO PUSH2 0x1486 JUMPI POP PUSH1 0x0 DUP4 GT JUMPDEST DUP1 ISZERO PUSH2 0x1492 JUMPI POP PUSH1 0x0 DUP3 GT JUMPDEST PUSH2 0x14C8 JUMPI PUSH1 0x40 MLOAD PUSH32 0x8C379A000000000000000000000000000000000000000000000000000000000 DUP2 MSTORE PUSH1 0x4 ADD PUSH2 0x5E8 SWAP1 PUSH2 0x2FBA JUMP JUMPDEST PUSH5 0xE8D4A51000 PUSH2 0x14DC DUP4 PUSH2 0x80B DUP8 DUP8 PUSH2 0x2535 JUMP JUMPDEST EQ PUSH2 0x1513 JUMPI PUSH1 0x40 MLOAD PUSH32 0x8C379A000000000000000000000000000000000000000000000000000000000 DUP2 MSTORE PUSH1 0x4 ADD PUSH2 0x5E8 SWAP1 PUSH2 0x3017 JUMP JUMPDEST DUP1 ISZERO PUSH2 0x1521 JUMPI PUSH2 0x1521 PUSH2 0x10F4 JUMP JUMPDEST PUSH2 0x152B PUSH1 0x0 PUSH2 0xB04 JUMP JUMPDEST PUSH1 0xA DUP5 SWAP1 SSTORE PUSH1 0xB DUP4 SWAP1 SSTORE PUSH1 0xC DUP3 SWAP1 SSTORE PUSH1 0x40 MLOAD PUSH32 0x49F805C5FED16B2296163D4FD1958B1961EFE39FEF41CBB4B981AAA3D80D22D2 SWAP1 PUSH2 0x156E SWAP1 DUP7 SWAP1 DUP7 SWAP1 DUP7 SWAP1 PUSH2 0x348B JUMP JUMPDEST PUSH1 0x40 MLOAD DUP1 SWAP2 SUB SWAP1 LOG1 POP POP POP POP JUMP JUMPDEST PUSH1 0x2 SLOAD PUSH20 0xFFFFFFFFFFFFFFFFFFFFFFFFFFFFFFFFFFFFFFFF AND DUP2 JUMP JUMPDEST PUSH1 0x0 SLOAD PUSH20 0xFFFFFFFFFFFFFFFFFFFFFFFFFFFFFFFFFFFFFFFF AND SWAP1 JUMP JUMPDEST PUSH1 0x6 PUSH1 0x20 SWAP1 DUP2 MSTORE PUSH1 0x0 SWAP3 DUP4 MSTORE PUSH1 0x40 DUP1 DUP5 KECCAK256 SWAP1 SWAP2 MSTORE SWAP1 DUP3 MSTORE SWAP1 KECCAK256 DUP1 SLOAD PUSH1 0x1 DUP3 ADD SLOAD PUSH1 0x2 SWAP1 SWAP3 ADD SLOAD SWAP1 SWAP2 SWAP1 DUP4 JUMP JUMPDEST PUSH1 0x9 SLOAD DUP2 JUMP JUMPDEST PUSH2 0x15EE PUSH2 0x2574 JUMP JUMPDEST PUSH1 0x0 SLOAD PUSH20 0xFFFFFFFFFFFFFFFFFFFFFFFFFFFFFFFFFFFFFFFF SWAP1 DUP2 AND SWAP2 AND EQ PUSH2 0x1642 JUMPI PUSH1 0x40 MLOAD PUSH32 0x8C379A000000000000000000000000000000000000000000000000000000000 DUP2 MSTORE PUSH1 0x4 ADD PUSH2 0x5E8 SWAP1 PUSH2 0x319C JUMP JUMPDEST PUSH20 0xFFFFFFFFFFFFFFFFFFFFFFFFFFFFFFFFFFFFFFFF DUP2 AND ISZERO DUP1 ISZERO SWAP1 PUSH2 0x1682 JUMPI POP PUSH1 0x3 SLOAD PUSH20 0xFFFFFFFFFFFFFFFFFFFFFFFFFFFFFFFFFFFFFFFF DUP3 DUP2 AND SWAP2 AND EQ ISZERO JUMPDEST PUSH2 0x16B8 JUMPI PUSH1 0x40 MLOAD PUSH32 0x8C379A000000000000000000000000000000000000000000000000000000000 DUP2 MSTORE PUSH1 0x4 ADD PUSH2 0x5E8 SWAP1 PUSH2 0x322E JUMP JUMPDEST PUSH1 0x3 DUP1 SLOAD PUSH32 0xFFFFFFFFFFFFFFFFFFFFFFFF0000000000000000000000000000000000000000 AND PUSH20 0xFFFFFFFFFFFFFFFFFFFFFFFFFFFFFFFFFFFFFFFF DUP4 AND SWAP1 DUP2 OR SWAP1 SWAP2 SSTORE PUSH1 0x40 MLOAD PUSH32 0x4C0C07D0B548B824A1B998EB4D11FCCF1CFBC1E47EDCDB309970BA88315EB303 SWAP1 PUSH1 0x0 SWAP1 LOG2 POP JUMP JUMPDEST PUSH2 0x172F PUSH2 0x2574 JUMP JUMPDEST PUSH1 0x0 SLOAD PUSH20 0xFFFFFFFFFFFFFFFFFFFFFFFFFFFFFFFFFFFFFFFF SWAP1 DUP2 AND SWAP2 AND EQ PUSH2 0x1783 JUMPI PUSH1 0x40 MLOAD PUSH32 0x8C379A000000000000000000000000000000000000000000000000000000000 DUP2 MSTORE PUSH1 0x4 ADD PUSH2 0x5E8 SWAP1 PUSH2 0x319C JUMP JUMPDEST PUSH20 0xFFFFFFFFFFFFFFFFFFFFFFFFFFFFFFFFFFFFFFFF DUP3 AND PUSH2 0x17D0 JUMPI PUSH1 0x40 MLOAD PUSH32 0x8C379A000000000000000000000000000000000000000000000000000000000 DUP2 MSTORE PUSH1 0x4 ADD PUSH2 0x5E8 SWAP1 PUSH2 0x3074 JUMP JUMPDEST PUSH20 0xFFFFFFFFFFFFFFFFFFFFFFFFFFFFFFFFFFFFFFFF DUP3 AND PUSH1 0x0 DUP2 DUP2 MSTORE PUSH1 0x7 PUSH1 0x20 MSTORE PUSH1 0x40 SWAP1 DUP2 SWAP1 KECCAK256 DUP1 SLOAD PUSH32 0xFFFFFFFFFFFFFFFFFFFFFFFFFFFFFFFFFFFFFFFFFFFFFFFFFFFFFFFFFFFFFF00 AND DUP5 ISZERO ISZERO OR SWAP1 SSTORE MLOAD PUSH32 0xC551BBB22D0406DBFB8B6B7740CC521BCF44E1106029CF899C19B6A8E4C99D51 SWAP1 PUSH2 0x184F SWAP1 DUP5 SWAP1 PUSH2 0x2CD3 JUMP JUMPDEST PUSH1 0x40 MLOAD DUP1 SWAP2 SUB SWAP1 LOG2 POP POP JUMP JUMPDEST PUSH1 0x8 SLOAD DUP2 JUMP JUMPDEST PUSH2 0x1869 PUSH2 0x2574 JUMP JUMPDEST PUSH1 0x0 SLOAD PUSH20 0xFFFFFFFFFFFFFFFFFFFFFFFFFFFFFFFFFFFFFFFF SWAP1 DUP2 AND SWAP2 AND EQ PUSH2 0x18BD JUMPI PUSH1 0x40 MLOAD PUSH32 0x8C379A000000000000000000000000000000000000000000000000000000000 DUP2 MSTORE PUSH1 0x4 ADD PUSH2 0x5E8 SWAP1 PUSH2 0x319C JUMP JUMPDEST PUSH1 0x40 MLOAD PUSH32 0x70A0823100000000000000000000000000000000000000000000000000000000 DUP2 MSTORE PUSH1 0x0 SWAP1 PUSH20 0xFFFFFFFFFFFFFFFFFFFFFFFFFFFFFFFFFFFFFFFF DUP6 AND SWAP1 PUSH4 0x70A08231 SWAP1 PUSH2 0x1912 SWAP1 ADDRESS SWAP1 PUSH1 0x4 ADD PUSH2 0x2C5B JUMP JUMPDEST PUSH1 0x20 PUSH1 0x40 MLOAD DUP1 DUP4 SUB DUP2 DUP7 DUP1 EXTCODESIZE ISZERO DUP1 ISZERO PUSH2 0x192A JUMPI PUSH1 0x0 DUP1 REVERT JUMPDEST POP GAS STATICCALL ISZERO DUP1 ISZERO PUSH2 0x193E JUMPI RETURNDATASIZE PUSH1 0x0 DUP1 RETURNDATACOPY RETURNDATASIZE PUSH1 0x0 REVERT JUMPDEST POP POP POP POP PUSH1 0x40 MLOAD RETURNDATASIZE PUSH1 0x1F NOT PUSH1 0x1F DUP3 ADD AND DUP3 ADD DUP1 PUSH1 0x40 MSTORE POP DUP2 ADD SWAP1 PUSH2 0x1962 SWAP2 SWAP1 PUSH2 0x2B23 JUMP JUMPDEST LT ISZERO PUSH2 0x199A JUMPI PUSH1 0x40 MLOAD PUSH32 0x8C379A000000000000000000000000000000000000000000000000000000000 DUP2 MSTORE PUSH1 0x4 ADD PUSH2 0x5E8 SWAP1 PUSH2 0x3165 JUMP JUMPDEST PUSH32 0x0 PUSH20 0xFFFFFFFFFFFFFFFFFFFFFFFFFFFFFFFFFFFFFFFF AND DUP4 PUSH20 0xFFFFFFFFFFFFFFFFFFFFFFFFFFFFFFFFFFFFFFFF AND EQ ISZERO PUSH2 0x1A20 JUMPI PUSH1 0x40 MLOAD PUSH32 0x8C379A000000000000000000000000000000000000000000000000000000000 DUP2 MSTORE PUSH1 0x4 ADD PUSH2 0x5E8 SWAP1 PUSH2 0x33A2 JUMP JUMPDEST DUP1 ISZERO PUSH2 0x1A2E JUMPI PUSH2 0x1A2E PUSH2 0x10F4 JUMP JUMPDEST DUP2 ISZERO PUSH2 0x1A49 JUMPI PUSH1 0x8 SLOAD PUSH2 0x1A41 SWAP1 DUP6 PUSH2 0x2535 JUMP JUMPDEST PUSH1 0x8 SSTORE PUSH2 0x1A5A JUMP JUMPDEST PUSH1 0x9 SLOAD PUSH2 0x1A56 SWAP1 DUP6 PUSH2 0x2535 JUMP JUMPDEST PUSH1 0x9 SSTORE JUMPDEST PUSH1 0x5 DUP1 SLOAD PUSH1 0x1 DUP1 DUP3 ADD DUP4 SSTORE PUSH32 0x36B6384B5ECA791C62761152D0C79BB0604C104A5FB6F4EB0703F3154BB3DB0 SWAP1 SWAP2 ADD DUP1 SLOAD PUSH32 0xFFFFFFFFFFFFFFFFFFFFFFFF0000000000000000000000000000000000000000 AND PUSH20 0xFFFFFFFFFFFFFFFFFFFFFFFFFFFFFFFFFFFFFFFF DUP8 AND SWAP1 DUP2 OR SWAP1 SWAP2 SSTORE PUSH1 0x40 DUP1 MLOAD PUSH1 0xA0 DUP2 ADD DUP3 MSTORE PUSH1 0x0 DUP1 DUP3 MSTORE NUMBER PUSH1 0x20 DUP4 ADD SWAP1 DUP2 MSTORE SWAP3 DUP3 ADD DUP11 DUP2 MSTORE PUSH1 0x60 DUP4 ADD DUP3 DUP2 MSTORE DUP10 ISZERO ISZERO PUSH1 0x80 DUP6 ADD SWAP1 DUP2 MSTORE PUSH1 0x4 DUP1 SLOAD DUP1 DUP11 ADD DUP3 SSTORE SWAP5 MSTORE SWAP4 MLOAD PUSH32 0x8A35ACFBC15FF81A39AE7D344FD709F28E8600B4AA8C65C6B64BFE7FE36BD19B SWAP4 DUP10 MUL SWAP4 DUP5 ADD SSTORE SWAP4 MLOAD PUSH32 0x8A35ACFBC15FF81A39AE7D344FD709F28E8600B4AA8C65C6B64BFE7FE36BD19C DUP4 ADD SSTORE MLOAD PUSH32 0x8A35ACFBC15FF81A39AE7D344FD709F28E8600B4AA8C65C6B64BFE7FE36BD19D DUP3 ADD SSTORE SWAP2 MLOAD PUSH32 0x8A35ACFBC15FF81A39AE7D344FD709F28E8600B4AA8C65C6B64BFE7FE36BD19E DUP4 ADD SSTORE MLOAD PUSH32 0x8A35ACFBC15FF81A39AE7D344FD709F28E8600B4AA8C65C6B64BFE7FE36BD19F SWAP1 SWAP2 ADD DUP1 SLOAD PUSH32 0xFFFFFFFFFFFFFFFFFFFFFFFFFFFFFFFFFFFFFFFFFFFFFFFFFFFFFFFFFFFFFF00 AND SWAP2 ISZERO ISZERO SWAP2 SWAP1 SWAP2 OR SWAP1 SSTORE SWAP2 SLOAD PUSH2 0x1BFB SWAP2 PUSH2 0x24F3 JUMP JUMPDEST PUSH32 0x18CAA0724A26384928EFE604AE6DDC99C242548876259770FC88FCB7E719D8FA DUP7 DUP6 PUSH1 0x40 MLOAD PUSH2 0x1C2C SWAP3 SWAP2 SWAP1 PUSH2 0x347B JUMP JUMPDEST PUSH1 0x40 MLOAD DUP1 SWAP2 SUB SWAP1 LOG3 POP POP POP POP JUMP JUMPDEST PUSH1 0x0 PUSH2 0x1C44 PUSH2 0x29CE JUMP JUMPDEST PUSH1 0x4 DUP5 DUP2 SLOAD DUP2 LT PUSH2 0x1C51 JUMPI INVALID JUMPDEST PUSH1 0x0 SWAP2 DUP3 MSTORE PUSH1 0x20 SWAP2 DUP3 SWAP1 KECCAK256 PUSH1 0x40 DUP1 MLOAD PUSH1 0xA0 DUP2 ADD DUP3 MSTORE PUSH1 0x5 SWAP1 SWAP4 MUL SWAP1 SWAP2 ADD DUP1 SLOAD DUP4 MSTORE PUSH1 0x1 DUP2 ADD SLOAD SWAP4 DUP4 ADD SWAP4 SWAP1 SWAP4 MSTORE PUSH1 0x2 DUP4 ADD SLOAD SWAP1 DUP3 ADD MSTORE PUSH1 0x3 DUP3 ADD SLOAD PUSH1 0x60 DUP3 ADD MSTORE PUSH1 0x4 SWAP1 SWAP2 ADD SLOAD PUSH1 0xFF AND ISZERO ISZERO PUSH1 0x80 DUP3 ADD MSTORE SWAP1 POP PUSH2 0x1CAB PUSH2 0x29FF JUMP JUMPDEST POP PUSH1 0x0 DUP5 DUP2 MSTORE PUSH1 0x6 PUSH1 0x20 SWAP1 DUP2 MSTORE PUSH1 0x40 DUP1 DUP4 KECCAK256 PUSH20 0xFFFFFFFFFFFFFFFFFFFFFFFFFFFFFFFFFFFFFFFF DUP8 AND DUP5 MSTORE DUP3 MSTORE SWAP2 DUP3 SWAP1 KECCAK256 DUP3 MLOAD PUSH1 0x60 DUP1 DUP3 ADD DUP6 MSTORE DUP3 SLOAD DUP3 MSTORE PUSH1 0x1 DUP4 ADD SLOAD DUP3 DUP6 ADD MSTORE PUSH1 0x2 SWAP1 SWAP3 ADD SLOAD SWAP4 DUP2 ADD SWAP4 SWAP1 SWAP4 MSTORE DUP4 MLOAD SWAP1 DUP5 ADD MLOAD SWAP2 DUP5 ADD MLOAD SWAP1 SWAP2 SWAP1 NUMBER GT DUP1 ISZERO PUSH2 0x1D19 JUMPI POP DUP1 ISZERO ISZERO JUMPDEST ISZERO PUSH2 0x1D92 JUMPI PUSH1 0x0 PUSH2 0x1D37 DUP6 PUSH1 0x20 ADD MLOAD NUMBER PUSH2 0x24F3 SWAP1 SWAP2 SWAP1 PUSH4 0xFFFFFFFF AND JUMP JUMPDEST SWAP1 POP PUSH1 0x0 PUSH2 0x1D6B DUP7 PUSH1 0x80 ADD MLOAD PUSH2 0x1D4F JUMPI PUSH1 0x9 SLOAD PUSH2 0x1D53 JUMP JUMPDEST PUSH1 0x8 SLOAD JUMPDEST PUSH2 0x7B9 DUP9 PUSH1 0x40 ADD MLOAD PUSH2 0x7BF PUSH2 0xECB DUP12 PUSH1 0x80 ADD MLOAD PUSH2 0x230C JUMP JUMPDEST SWAP1 POP PUSH2 0x1D8D PUSH2 0x1D86 DUP5 PUSH2 0x7B9 DUP5 PUSH8 0xDE0B6B3A7640000 PUSH2 0x2456 JUMP JUMPDEST DUP6 SWAP1 PUSH2 0x2535 JUMP JUMPDEST SWAP4 POP POP POP JUMPDEST PUSH1 0x0 PUSH2 0x1DB2 PUSH5 0xE8D4A51000 PUSH2 0x7B9 PUSH2 0x1DAA DUP11 DUP13 PUSH2 0x51D JUMP JUMPDEST DUP8 MLOAD SWAP1 PUSH2 0x2456 JUMP JUMPDEST PUSH1 0x20 DUP6 ADD MLOAD SWAP1 SWAP2 POP PUSH2 0x1DDA SWAP1 PUSH2 0x1DD4 PUSH8 0xDE0B6B3A7640000 PUSH2 0x7B9 DUP6 DUP9 PUSH2 0x2456 JUMP JUMPDEST SWAP1 PUSH2 0x24F3 JUMP JUMPDEST SWAP9 SWAP8 POP POP POP POP POP POP POP POP JUMP JUMPDEST PUSH5 0xE8D4A51000 DUP2 JUMP JUMPDEST PUSH1 0x3 SLOAD PUSH20 0xFFFFFFFFFFFFFFFFFFFFFFFFFFFFFFFFFFFFFFFF AND DUP2 JUMP JUMPDEST PUSH1 0x2 PUSH1 0x1 SLOAD EQ ISZERO PUSH2 0x1E48 JUMPI PUSH1 0x40 MLOAD PUSH32 0x8C379A000000000000000000000000000000000000000000000000000000000 DUP2 MSTORE PUSH1 0x4 ADD PUSH2 0x5E8 SWAP1 PUSH2 0x33FF JUMP JUMPDEST PUSH1 0x2 PUSH1 0x1 SSTORE PUSH2 0x1E55 PUSH2 0x29CE JUMP JUMPDEST PUSH2 0x1E5E DUP4 PUSH2 0xDF0 JUMP JUMPDEST PUSH1 0x0 DUP5 DUP2 MSTORE PUSH1 0x6 PUSH1 0x20 SWAP1 DUP2 MSTORE PUSH1 0x40 DUP1 DUP4 KECCAK256 CALLER DUP5 MSTORE SWAP1 SWAP2 MSTORE SWAP1 KECCAK256 PUSH1 0x80 DUP3 ADD MLOAD SWAP2 SWAP3 POP SWAP1 DUP1 PUSH2 0x1E9A JUMPI POP CALLER PUSH1 0x0 SWAP1 DUP2 MSTORE PUSH1 0x7 PUSH1 0x20 MSTORE PUSH1 0x40 SWAP1 KECCAK256 SLOAD PUSH1 0xFF AND JUMPDEST PUSH2 0x1ED0 JUMPI PUSH1 0x40 MLOAD PUSH32 0x8C379A000000000000000000000000000000000000000000000000000000000 DUP2 MSTORE PUSH1 0x4 ADD PUSH2 0x5E8 SWAP1 PUSH2 0x2F37 JUMP JUMPDEST PUSH1 0x0 PUSH2 0x1EDC CALLER DUP7 PUSH2 0x51D JUMP JUMPDEST DUP3 SLOAD SWAP1 SWAP2 POP ISZERO PUSH2 0x1EF1 JUMPI PUSH2 0x1EF1 CALLER DUP7 DUP4 PUSH2 0x2379 JUMP JUMPDEST DUP4 ISZERO PUSH2 0x20ED JUMPI PUSH1 0x0 PUSH1 0x5 DUP7 DUP2 SLOAD DUP2 LT PUSH2 0x1F06 JUMPI INVALID JUMPDEST PUSH1 0x0 SWAP2 DUP3 MSTORE PUSH1 0x20 SWAP1 SWAP2 KECCAK256 ADD SLOAD PUSH1 0x40 MLOAD PUSH32 0x70A0823100000000000000000000000000000000000000000000000000000000 DUP2 MSTORE PUSH20 0xFFFFFFFFFFFFFFFFFFFFFFFFFFFFFFFFFFFFFFFF SWAP1 SWAP2 AND SWAP1 PUSH4 0x70A08231 SWAP1 PUSH2 0x1F65 SWAP1 ADDRESS SWAP1 PUSH1 0x4 ADD PUSH2 0x2C5B JUMP JUMPDEST PUSH1 0x20 PUSH1 0x40 MLOAD DUP1 DUP4 SUB DUP2 DUP7 DUP1 EXTCODESIZE ISZERO DUP1 ISZERO PUSH2 0x1F7D JUMPI PUSH1 0x0 DUP1 REVERT JUMPDEST POP GAS STATICCALL ISZERO DUP1 ISZERO PUSH2 0x1F91 JUMPI RETURNDATASIZE PUSH1 0x0 DUP1 RETURNDATACOPY RETURNDATASIZE PUSH1 0x0 REVERT JUMPDEST POP POP POP POP PUSH1 0x40 MLOAD RETURNDATASIZE PUSH1 0x1F NOT PUSH1 0x1F DUP3 ADD AND DUP3 ADD DUP1 PUSH1 0x40 MSTORE POP DUP2 ADD SWAP1 PUSH2 0x1FB5 SWAP2 SWAP1 PUSH2 0x2B23 JUMP JUMPDEST SWAP1 POP PUSH2 0x1FF4 CALLER ADDRESS DUP8 PUSH1 0x5 DUP11 DUP2 SLOAD DUP2 LT PUSH2 0x1FCA JUMPI INVALID JUMPDEST PUSH1 0x0 SWAP2 DUP3 MSTORE PUSH1 0x20 SWAP1 SWAP2 KECCAK256 ADD SLOAD PUSH20 0xFFFFFFFFFFFFFFFFFFFFFFFFFFFFFFFFFFFFFFFF AND SWAP3 SWAP2 SWAP1 PUSH2 0x2738 JUMP JUMPDEST PUSH2 0x20B4 DUP2 PUSH1 0x5 DUP9 DUP2 SLOAD DUP2 LT PUSH2 0x2005 JUMPI INVALID JUMPDEST PUSH1 0x0 SWAP2 DUP3 MSTORE PUSH1 0x20 SWAP1 SWAP2 KECCAK256 ADD SLOAD PUSH1 0x40 MLOAD PUSH32 0x70A0823100000000000000000000000000000000000000000000000000000000 DUP2 MSTORE PUSH20 0xFFFFFFFFFFFFFFFFFFFFFFFFFFFFFFFFFFFFFFFF SWAP1 SWAP2 AND SWAP1 PUSH4 0x70A08231 SWAP1 PUSH2 0x2064 SWAP1 ADDRESS SWAP1 PUSH1 0x4 ADD PUSH2 0x2C5B JUMP JUMPDEST PUSH1 0x20 PUSH1 0x40 MLOAD DUP1 DUP4 SUB DUP2 DUP7 DUP1 EXTCODESIZE ISZERO DUP1 ISZERO PUSH2 0x207C JUMPI PUSH1 0x0 DUP1 REVERT JUMPDEST POP GAS STATICCALL ISZERO DUP1 ISZERO PUSH2 0x2090 JUMPI RETURNDATASIZE PUSH1 0x0 DUP1 RETURNDATACOPY RETURNDATASIZE PUSH1 0x0 REVERT JUMPDEST POP POP POP POP PUSH1 0x40 MLOAD RETURNDATASIZE PUSH1 0x1F NOT PUSH1 0x1F DUP3 ADD AND DUP3 ADD DUP1 PUSH1 0x40 MSTORE POP DUP2 ADD SWAP1 PUSH2 0x1DD4 SWAP2 SWAP1 PUSH2 0x2B23 JUMP JUMPDEST DUP4 SLOAD SWAP1 SWAP6 POP PUSH2 0x20C3 SWAP1 DUP7 PUSH2 0x2535 JUMP JUMPDEST DUP4 SSTORE PUSH2 0x20E6 PUSH2 0x20DB PUSH5 0xE8D4A51000 PUSH2 0x7B9 DUP9 DUP7 PUSH2 0x2456 JUMP JUMPDEST PUSH1 0x60 DUP7 ADD MLOAD SWAP1 PUSH2 0x2535 JUMP JUMPDEST PUSH1 0x60 DUP6 ADD MSTORE POP JUMPDEST PUSH2 0x2121 PUSH8 0xDE0B6B3A7640000 PUSH2 0x7B9 DUP6 PUSH1 0x0 ADD MLOAD PUSH2 0x7BF PUSH5 0xE8D4A51000 PUSH2 0x7B9 DUP8 DUP10 PUSH1 0x0 ADD SLOAD PUSH2 0x2456 SWAP1 SWAP2 SWAP1 PUSH4 0xFFFFFFFF AND JUMP JUMPDEST DUP3 PUSH1 0x1 ADD DUP2 SWAP1 SSTORE POP DUP3 PUSH1 0x4 DUP7 DUP2 SLOAD DUP2 LT PUSH2 0x2137 JUMPI INVALID JUMPDEST PUSH1 0x0 SWAP2 DUP3 MSTORE PUSH1 0x20 SWAP2 DUP3 SWAP1 KECCAK256 DUP4 MLOAD PUSH1 0x5 SWAP3 SWAP1 SWAP3 MUL ADD SWAP1 DUP2 SSTORE SWAP1 DUP3 ADD MLOAD PUSH1 0x1 DUP3 ADD SSTORE PUSH1 0x40 DUP1 DUP4 ADD MLOAD PUSH1 0x2 DUP4 ADD SSTORE PUSH1 0x60 DUP4 ADD MLOAD PUSH1 0x3 DUP4 ADD SSTORE PUSH1 0x80 SWAP1 SWAP3 ADD MLOAD PUSH1 0x4 SWAP1 SWAP2 ADD DUP1 SLOAD PUSH32 0xFFFFFFFFFFFFFFFFFFFFFFFFFFFFFFFFFFFFFFFFFFFFFFFFFFFFFFFFFFFFFF00 AND SWAP2 ISZERO ISZERO SWAP2 SWAP1 SWAP2 OR SWAP1 SSTORE MLOAD DUP6 SWAP1 CALLER SWAP1 PUSH32 0x90890809C654F11D6E72A28FA60149770A0D11EC6C92319D6CEB2BB0A4EA1A15 SWAP1 PUSH2 0xDDD SWAP1 DUP9 SWAP1 PUSH2 0x3472 JUMP JUMPDEST PUSH2 0x21DE PUSH2 0x2574 JUMP JUMPDEST PUSH1 0x0 SLOAD PUSH20 0xFFFFFFFFFFFFFFFFFFFFFFFFFFFFFFFFFFFFFFFF SWAP1 DUP2 AND SWAP2 AND EQ PUSH2 0x2232 JUMPI PUSH1 0x40 MLOAD PUSH32 0x8C379A000000000000000000000000000000000000000000000000000000000 DUP2 MSTORE PUSH1 0x4 ADD PUSH2 0x5E8 SWAP1 PUSH2 0x319C JUMP JUMPDEST PUSH20 0xFFFFFFFFFFFFFFFFFFFFFFFFFFFFFFFFFFFFFFFF DUP2 AND PUSH2 0x227F JUMPI PUSH1 0x40 MLOAD PUSH32 0x8C379A000000000000000000000000000000000000000000000000000000000 DUP2 MSTORE PUSH1 0x4 ADD PUSH2 0x5E8 SWAP1 PUSH2 0x2E46 JUMP JUMPDEST PUSH1 0x0 DUP1 SLOAD PUSH1 0x40 MLOAD PUSH20 0xFFFFFFFFFFFFFFFFFFFFFFFFFFFFFFFFFFFFFFFF DUP1 DUP6 AND SWAP4 SWAP3 AND SWAP2 PUSH32 0x8BE0079C531659141344CD1FD0A4F28419497F9722A3DAAFE3B4186F6B6457E0 SWAP2 LOG3 PUSH1 0x0 DUP1 SLOAD PUSH32 0xFFFFFFFFFFFFFFFFFFFFFFFF0000000000000000000000000000000000000000 AND PUSH20 0xFFFFFFFFFFFFFFFFFFFFFFFFFFFFFFFFFFFFFFFF SWAP3 SWAP1 SWAP3 AND SWAP2 SWAP1 SWAP2 OR SWAP1 SSTORE JUMP JUMPDEST PUSH1 0x0 DUP2 ISZERO PUSH2 0x2341 JUMPI PUSH2 0x233A PUSH5 0xE8D4A51000 PUSH2 0x7B9 PUSH1 0xB SLOAD PUSH8 0x1314FB3706298000 PUSH2 0x2456 SWAP1 SWAP2 SWAP1 PUSH4 0xFFFFFFFF AND JUMP JUMPDEST SWAP1 POP PUSH2 0xFC1 JUMP JUMPDEST PUSH2 0x56D PUSH5 0xE8D4A51000 PUSH2 0x7B9 PUSH1 0xC SLOAD PUSH8 0x1314FB3706298000 PUSH2 0x2456 SWAP1 SWAP2 SWAP1 PUSH4 0xFFFFFFFF AND JUMP JUMPDEST PUSH1 0xB SLOAD DUP2 JUMP JUMPDEST PUSH8 0x1314FB3706298000 DUP2 JUMP JUMPDEST PUSH2 0x2381 PUSH2 0x29FF JUMP JUMPDEST POP PUSH1 0x0 DUP3 DUP2 MSTORE PUSH1 0x6 PUSH1 0x20 SWAP1 DUP2 MSTORE PUSH1 0x40 DUP1 DUP4 KECCAK256 PUSH20 0xFFFFFFFFFFFFFFFFFFFFFFFFFFFFFFFFFFFFFFFF DUP8 AND DUP5 MSTORE DUP3 MSTORE DUP1 DUP4 KECCAK256 DUP2 MLOAD PUSH1 0x60 DUP2 ADD DUP4 MSTORE DUP2 SLOAD DUP1 DUP3 MSTORE PUSH1 0x1 DUP4 ADD SLOAD SWAP5 DUP3 ADD SWAP5 SWAP1 SWAP5 MSTORE PUSH1 0x2 SWAP1 SWAP2 ADD SLOAD SWAP2 DUP2 ADD SWAP2 SWAP1 SWAP2 MSTORE SWAP2 SWAP1 PUSH2 0x23EE SWAP1 PUSH5 0xE8D4A51000 SWAP1 PUSH2 0x7B9 SWAP1 DUP7 PUSH2 0x2456 JUMP JUMPDEST SWAP1 POP PUSH1 0x0 PUSH2 0x2426 PUSH8 0xDE0B6B3A7640000 PUSH2 0x7B9 PUSH1 0x4 DUP9 DUP2 SLOAD DUP2 LT PUSH2 0x240E JUMPI INVALID JUMPDEST PUSH1 0x0 SWAP2 DUP3 MSTORE PUSH1 0x20 SWAP1 SWAP2 KECCAK256 PUSH1 0x5 SWAP1 SWAP2 MUL ADD SLOAD DUP6 SWAP1 PUSH2 0x2456 JUMP JUMPDEST SWAP1 POP PUSH1 0x0 PUSH2 0x2441 DUP5 PUSH1 0x20 ADD MLOAD DUP4 PUSH2 0x24F3 SWAP1 SWAP2 SWAP1 PUSH4 0xFFFFFFFF AND JUMP JUMPDEST SWAP1 POP PUSH2 0x244D DUP8 DUP3 PUSH2 0x2578 JUMP JUMPDEST POP POP POP POP POP POP POP JUMP JUMPDEST PUSH1 0x0 DUP3 PUSH2 0x2465 JUMPI POP PUSH1 0x0 PUSH2 0x56D JUMP JUMPDEST DUP3 DUP3 MUL DUP3 DUP5 DUP3 DUP2 PUSH2 0x2472 JUMPI INVALID JUMPDEST DIV EQ PUSH2 0x567 JUMPI PUSH1 0x40 MLOAD PUSH32 0x8C379A000000000000000000000000000000000000000000000000000000000 DUP2 MSTORE PUSH1 0x4 ADD PUSH2 0x5E8 SWAP1 PUSH2 0x30D1 JUMP JUMPDEST PUSH1 0x0 PUSH2 0x24EC DUP4 DUP4 PUSH1 0x40 MLOAD DUP1 PUSH1 0x40 ADD PUSH1 0x40 MSTORE DUP1 PUSH1 0x1A DUP2 MSTORE PUSH1 0x20 ADD PUSH32 0x536166654D6174683A206469766973696F6E206279207A65726F000000000000 DUP2 MSTORE POP PUSH2 0x275F JUMP JUMPDEST SWAP4 SWAP3 POP POP POP JUMP JUMPDEST PUSH1 0x0 PUSH2 0x24EC DUP4 DUP4 PUSH1 0x40 MLOAD DUP1 PUSH1 0x40 ADD PUSH1 0x40 MSTORE DUP1 PUSH1 0x1E DUP2 MSTORE PUSH1 0x20 ADD PUSH32 0x536166654D6174683A207375627472616374696F6E206F766572666C6F770000 DUP2 MSTORE POP PUSH2 0x27B0 JUMP JUMPDEST PUSH1 0x0 DUP3 DUP3 ADD DUP4 DUP2 LT ISZERO PUSH2 0x567 JUMPI PUSH1 0x40 MLOAD PUSH32 0x8C379A000000000000000000000000000000000000000000000000000000000 DUP2 MSTORE PUSH1 0x4 ADD PUSH2 0x5E8 SWAP1 PUSH2 0x2EA3 JUMP JUMPDEST CALLER SWAP1 JUMP JUMPDEST DUP1 ISZERO PUSH2 0x1184 JUMPI PUSH1 0x40 MLOAD PUSH32 0x70A0823100000000000000000000000000000000000000000000000000000000 DUP2 MSTORE PUSH1 0x0 SWAP1 PUSH20 0xFFFFFFFFFFFFFFFFFFFFFFFFFFFFFFFFFFFFFFFF PUSH32 0x0 AND SWAP1 PUSH4 0x70A08231 SWAP1 PUSH2 0x25F3 SWAP1 ADDRESS SWAP1 PUSH1 0x4 ADD PUSH2 0x2C5B JUMP JUMPDEST PUSH1 0x20 PUSH1 0x40 MLOAD DUP1 DUP4 SUB DUP2 DUP7 DUP1 EXTCODESIZE ISZERO DUP1 ISZERO PUSH2 0x260B JUMPI PUSH1 0x0 DUP1 REVERT JUMPDEST POP GAS STATICCALL ISZERO DUP1 ISZERO PUSH2 0x261F JUMPI RETURNDATASIZE PUSH1 0x0 DUP1 RETURNDATACOPY RETURNDATASIZE PUSH1 0x0 REVERT JUMPDEST POP POP POP POP PUSH1 0x40 MLOAD RETURNDATASIZE PUSH1 0x1F NOT PUSH1 0x1F DUP3 ADD AND DUP3 ADD DUP1 PUSH1 0x40 MSTORE POP DUP2 ADD SWAP1 PUSH2 0x2643 SWAP2 SWAP1 PUSH2 0x2B23 JUMP JUMPDEST SWAP1 POP DUP2 DUP2 LT ISZERO PUSH2 0x2651 JUMPI DUP1 SWAP2 POP JUMPDEST PUSH2 0x2692 PUSH20 0xFFFFFFFFFFFFFFFFFFFFFFFFFFFFFFFFFFFFFFFF PUSH32 0x0 AND DUP5 DUP5 PUSH2 0x2697 JUMP JUMPDEST POP POP POP JUMP JUMPDEST PUSH2 0x2692 DUP4 PUSH4 0xA9059CBB PUSH1 0xE0 SHL DUP5 DUP5 PUSH1 0x40 MLOAD PUSH1 0x24 ADD PUSH2 0x26B6 SWAP3 SWAP2 SWAP1 PUSH2 0x2CAD JUMP JUMPDEST PUSH1 0x40 DUP1 MLOAD PUSH32 0xFFFFFFFFFFFFFFFFFFFFFFFFFFFFFFFFFFFFFFFFFFFFFFFFFFFFFFFFFFFFFFE0 DUP2 DUP5 SUB ADD DUP2 MSTORE SWAP2 SWAP1 MSTORE PUSH1 0x20 DUP2 ADD DUP1 MLOAD PUSH28 0xFFFFFFFFFFFFFFFFFFFFFFFFFFFFFFFFFFFFFFFFFFFFFFFFFFFFFFFF AND PUSH32 0xFFFFFFFF00000000000000000000000000000000000000000000000000000000 SWAP1 SWAP4 AND SWAP3 SWAP1 SWAP3 OR SWAP1 SWAP2 MSTORE PUSH2 0x27F6 JUMP JUMPDEST PUSH2 0x2759 DUP5 PUSH4 0x23B872DD PUSH1 0xE0 SHL DUP6 DUP6 DUP6 PUSH1 0x40 MLOAD PUSH1 0x24 ADD PUSH2 0x26B6 SWAP4 SWAP3 SWAP2 SWAP1 PUSH2 0x2C7C JUMP JUMPDEST POP POP POP POP JUMP JUMPDEST PUSH1 0x0 DUP2 DUP4 PUSH2 0x279A JUMPI PUSH1 0x40 MLOAD PUSH32 0x8C379A000000000000000000000000000000000000000000000000000000000 DUP2 MSTORE PUSH1 0x4 ADD PUSH2 0x5E8 SWAP2 SWAP1 PUSH2 0x2CDE JUMP JUMPDEST POP PUSH1 0x0 DUP4 DUP6 DUP2 PUSH2 0x27A6 JUMPI INVALID JUMPDEST DIV SWAP6 SWAP5 POP POP POP POP POP JUMP JUMPDEST PUSH1 0x0 DUP2 DUP5 DUP5 GT ISZERO PUSH2 0x27EE JUMPI PUSH1 0x40 MLOAD PUSH32 0x8C379A000000000000000000000000000000000000000000000000000000000 DUP2 MSTORE PUSH1 0x4 ADD PUSH2 0x5E8 SWAP2 SWAP1 PUSH2 0x2CDE JUMP JUMPDEST POP POP POP SWAP1 SUB SWAP1 JUMP JUMPDEST PUSH1 0x60 PUSH2 0x2858 DUP3 PUSH1 0x40 MLOAD DUP1 PUSH1 0x40 ADD PUSH1 0x40 MSTORE DUP1 PUSH1 0x20 DUP2 MSTORE PUSH1 0x20 ADD PUSH32 0x5361666542455032303A206C6F772D6C6576656C2063616C6C206661696C6564 DUP2 MSTORE POP DUP6 PUSH20 0xFFFFFFFFFFFFFFFFFFFFFFFFFFFFFFFFFFFFFFFF AND PUSH2 0x28AC SWAP1 SWAP3 SWAP2 SWAP1 PUSH4 0xFFFFFFFF AND JUMP JUMPDEST DUP1 MLOAD SWAP1 SWAP2 POP ISZERO PUSH2 0x2692 JUMPI DUP1 DUP1 PUSH1 0x20 ADD SWAP1 MLOAD DUP2 ADD SWAP1 PUSH2 0x2876 SWAP2 SWAP1 PUSH2 0x2AEF JUMP JUMPDEST PUSH2 0x2692 JUMPI PUSH1 0x40 MLOAD PUSH32 0x8C379A000000000000000000000000000000000000000000000000000000000 DUP2 MSTORE PUSH1 0x4 ADD PUSH2 0x5E8 SWAP1 PUSH2 0x2DE9 JUMP JUMPDEST PUSH1 0x60 PUSH2 0x28BB DUP5 DUP5 PUSH1 0x0 DUP6 PUSH2 0x28C3 JUMP JUMPDEST SWAP5 SWAP4 POP POP POP POP JUMP JUMPDEST PUSH1 0x60 PUSH2 0x28CE DUP6 PUSH2 0x29C8 JUMP JUMPDEST PUSH2 0x2904 JUMPI PUSH1 0x40 MLOAD PUSH32 0x8C379A000000000000000000000000000000000000000000000000000000000 DUP2 MSTORE PUSH1 0x4 ADD PUSH2 0x5E8 SWAP1 PUSH2 0x328B JUMP JUMPDEST PUSH1 0x0 PUSH1 0x60 DUP7 PUSH20 0xFFFFFFFFFFFFFFFFFFFFFFFFFFFFFFFFFFFFFFFF AND DUP6 DUP8 PUSH1 0x40 MLOAD PUSH2 0x292E SWAP2 SWAP1 PUSH2 0x2C3F JUMP JUMPDEST PUSH1 0x0 PUSH1 0x40 MLOAD DUP1 DUP4 SUB DUP2 DUP6 DUP8 GAS CALL SWAP3 POP POP POP RETURNDATASIZE DUP1 PUSH1 0x0 DUP2 EQ PUSH2 0x296B JUMPI PUSH1 0x40 MLOAD SWAP2 POP PUSH1 0x1F NOT PUSH1 0x3F RETURNDATASIZE ADD AND DUP3 ADD PUSH1 0x40 MSTORE RETURNDATASIZE DUP3 MSTORE RETURNDATASIZE PUSH1 0x0 PUSH1 0x20 DUP5 ADD RETURNDATACOPY PUSH2 0x2970 JUMP JUMPDEST PUSH1 0x60 SWAP2 POP JUMPDEST POP SWAP2 POP SWAP2 POP DUP2 ISZERO PUSH2 0x2984 JUMPI SWAP2 POP PUSH2 0x28BB SWAP1 POP JUMP JUMPDEST DUP1 MLOAD ISZERO PUSH2 0x2994 JUMPI DUP1 MLOAD DUP1 DUP3 PUSH1 0x20 ADD REVERT JUMPDEST DUP4 PUSH1 0x40 MLOAD PUSH32 0x8C379A000000000000000000000000000000000000000000000000000000000 DUP2 MSTORE PUSH1 0x4 ADD PUSH2 0x5E8 SWAP2 SWAP1 PUSH2 0x2CDE JUMP JUMPDEST EXTCODESIZE ISZERO ISZERO SWAP1 JUMP JUMPDEST PUSH1 0x40 MLOAD DUP1 PUSH1 0xA0 ADD PUSH1 0x40 MSTORE DUP1 PUSH1 0x0 DUP2 MSTORE PUSH1 0x20 ADD PUSH1 0x0 DUP2 MSTORE PUSH1 0x20 ADD PUSH1 0x0 DUP2 MSTORE PUSH1 0x20 ADD PUSH1 0x0 DUP2 MSTORE PUSH1 0x20 ADD PUSH1 0x0 ISZERO ISZERO DUP2 MSTORE POP SWAP1 JUMP JUMPDEST PUSH1 0x40 MLOAD DUP1 PUSH1 0x60 ADD PUSH1 0x40 MSTORE DUP1 PUSH1 0x0 DUP2 MSTORE PUSH1 0x20 ADD PUSH1 0x0 DUP2 MSTORE PUSH1 0x20 ADD PUSH1 0x0 DUP2 MSTORE POP SWAP1 JUMP JUMPDEST PUSH1 0x0 PUSH1 0x20 DUP3 DUP5 SUB SLT ISZERO PUSH2 0x2A31 JUMPI DUP1 DUP2 REVERT JUMPDEST DUP2 CALLDATALOAD PUSH2 0x567 DUP2 PUSH2 0x34F2 JUMP JUMPDEST PUSH1 0x0 DUP1 PUSH1 0x40 DUP4 DUP6 SUB SLT ISZERO PUSH2 0x2A4E JUMPI DUP1 DUP2 REVERT JUMPDEST DUP3 CALLDATALOAD PUSH2 0x2A59 DUP2 PUSH2 0x34F2 JUMP JUMPDEST SWAP2 POP PUSH1 0x20 DUP4 ADD CALLDATALOAD PUSH2 0x2A69 DUP2 PUSH2 0x3517 JUMP JUMPDEST DUP1 SWAP2 POP POP SWAP3 POP SWAP3 SWAP1 POP JUMP JUMPDEST PUSH1 0x0 DUP1 PUSH1 0x40 DUP4 DUP6 SUB SLT ISZERO PUSH2 0x2A86 JUMPI DUP2 DUP3 REVERT JUMPDEST DUP3 CALLDATALOAD PUSH2 0x2A91 DUP2 PUSH2 0x34F2 JUMP JUMPDEST SWAP5 PUSH1 0x20 SWAP4 SWAP1 SWAP4 ADD CALLDATALOAD SWAP4 POP POP POP JUMP JUMPDEST PUSH1 0x0 DUP1 PUSH1 0x0 PUSH1 0x60 DUP5 DUP7 SUB SLT ISZERO PUSH2 0x2AB3 JUMPI DUP1 DUP2 REVERT JUMPDEST DUP4 CALLDATALOAD PUSH2 0x2ABE DUP2 PUSH2 0x34F2 JUMP JUMPDEST SWAP6 PUSH1 0x20 DUP6 ADD CALLDATALOAD SWAP6 POP PUSH1 0x40 SWAP1 SWAP5 ADD CALLDATALOAD SWAP4 SWAP3 POP POP POP JUMP JUMPDEST PUSH1 0x0 PUSH1 0x20 DUP3 DUP5 SUB SLT ISZERO PUSH2 0x2AE4 JUMPI DUP1 DUP2 REVERT JUMPDEST DUP2 CALLDATALOAD PUSH2 0x567 DUP2 PUSH2 0x3517 JUMP JUMPDEST PUSH1 0x0 PUSH1 0x20 DUP3 DUP5 SUB SLT ISZERO PUSH2 0x2B00 JUMPI DUP1 DUP2 REVERT JUMPDEST DUP2 MLOAD PUSH2 0x567 DUP2 PUSH2 0x3517 JUMP JUMPDEST PUSH1 0x0 PUSH1 0x20 DUP3 DUP5 SUB SLT ISZERO PUSH2 0x2B1C JUMPI DUP1 DUP2 REVERT JUMPDEST POP CALLDATALOAD SWAP2 SWAP1 POP JUMP JUMPDEST PUSH1 0x0 PUSH1 0x20 DUP3 DUP5 SUB SLT ISZERO PUSH2 0x2B34 JUMPI DUP1 DUP2 REVERT JUMPDEST POP MLOAD SWAP2 SWAP1 POP JUMP JUMPDEST PUSH1 0x0 DUP1 PUSH1 0x40 DUP4 DUP6 SUB SLT ISZERO PUSH2 0x2B4D JUMPI DUP2 DUP3 REVERT JUMPDEST DUP3 CALLDATALOAD SWAP2 POP PUSH1 0x20 DUP4 ADD CALLDATALOAD PUSH2 0x2A69 DUP2 PUSH2 0x34F2 JUMP JUMPDEST PUSH1 0x0 DUP1 PUSH1 0x0 DUP1 PUSH1 0x80 DUP6 DUP8 SUB SLT ISZERO PUSH2 0x2B74 JUMPI DUP1 DUP2 REVERT JUMPDEST DUP5 CALLDATALOAD SWAP4 POP PUSH1 0x20 DUP6 ADD CALLDATALOAD PUSH2 0x2B86 DUP2 PUSH2 0x34F2 JUMP JUMPDEST SWAP3 POP PUSH1 0x40 DUP6 ADD CALLDATALOAD PUSH2 0x2B96 DUP2 PUSH2 0x3517 JUMP JUMPDEST SWAP2 POP PUSH1 0x60 DUP6 ADD CALLDATALOAD PUSH2 0x2BA6 DUP2 PUSH2 0x3517 JUMP JUMPDEST SWAP4 SWAP7 SWAP3 SWAP6 POP SWAP1 SWAP4 POP POP JUMP JUMPDEST PUSH1 0x0 DUP1 PUSH1 0x40 DUP4 DUP6 SUB SLT ISZERO PUSH2 0x2BC3 JUMPI DUP2 DUP3 REVERT JUMPDEST POP POP DUP1 CALLDATALOAD SWAP3 PUSH1 0x20 SWAP1 SWAP2 ADD CALLDATALOAD SWAP2 POP JUMP JUMPDEST PUSH1 0x0 DUP1 PUSH1 0x0 PUSH1 0x60 DUP5 DUP7 SUB SLT ISZERO PUSH2 0x2BE6 JUMPI DUP3 DUP4 REVERT JUMPDEST DUP4 CALLDATALOAD SWAP3 POP PUSH1 0x20 DUP5 ADD CALLDATALOAD SWAP2 POP PUSH1 0x40 DUP5 ADD CALLDATALOAD PUSH2 0x2BFF DUP2 PUSH2 0x3517 JUMP JUMPDEST DUP1 SWAP2 POP POP SWAP3 POP SWAP3 POP SWAP3 JUMP JUMPDEST PUSH1 0x0 DUP1 PUSH1 0x0 DUP1 PUSH1 0x80 DUP6 DUP8 SUB SLT ISZERO PUSH2 0x2C1F JUMPI DUP4 DUP5 REVERT JUMPDEST DUP5 CALLDATALOAD SWAP4 POP PUSH1 0x20 DUP6 ADD CALLDATALOAD SWAP3 POP PUSH1 0x40 DUP6 ADD CALLDATALOAD SWAP2 POP PUSH1 0x60 DUP6 ADD CALLDATALOAD PUSH2 0x2BA6 DUP2 PUSH2 0x3517 JUMP JUMPDEST PUSH1 0x0 DUP3 MLOAD PUSH2 0x2C51 DUP2 DUP5 PUSH1 0x20 DUP8 ADD PUSH2 0x34C6 JUMP JUMPDEST SWAP2 SWAP1 SWAP2 ADD SWAP3 SWAP2 POP POP JUMP JUMPDEST PUSH20 0xFFFFFFFFFFFFFFFFFFFFFFFFFFFFFFFFFFFFFFFF SWAP2 SWAP1 SWAP2 AND DUP2 MSTORE PUSH1 0x20 ADD SWAP1 JUMP JUMPDEST PUSH20 0xFFFFFFFFFFFFFFFFFFFFFFFFFFFFFFFFFFFFFFFF SWAP4 DUP5 AND DUP2 MSTORE SWAP2 SWAP1 SWAP3 AND PUSH1 0x20 DUP3 ADD MSTORE PUSH1 0x40 DUP2 ADD SWAP2 SWAP1 SWAP2 MSTORE PUSH1 0x60 ADD SWAP1 JUMP JUMPDEST PUSH20 0xFFFFFFFFFFFFFFFFFFFFFFFFFFFFFFFFFFFFFFFF SWAP3 SWAP1 SWAP3 AND DUP3 MSTORE PUSH1 0x20 DUP3 ADD MSTORE PUSH1 0x40 ADD SWAP1 JUMP JUMPDEST SWAP1 ISZERO ISZERO DUP2 MSTORE PUSH1 0x20 ADD SWAP1 JUMP JUMPDEST PUSH1 0x0 PUSH1 0x20 DUP3 MSTORE DUP3 MLOAD DUP1 PUSH1 0x20 DUP5 ADD MSTORE PUSH2 0x2CFD DUP2 PUSH1 0x40 DUP6 ADD PUSH1 0x20 DUP8 ADD PUSH2 0x34C6 JUMP JUMPDEST PUSH1 0x1F ADD PUSH32 0xFFFFFFFFFFFFFFFFFFFFFFFFFFFFFFFFFFFFFFFFFFFFFFFFFFFFFFFFFFFFFFE0 AND SWAP2 SWAP1 SWAP2 ADD PUSH1 0x40 ADD SWAP3 SWAP2 POP POP JUMP JUMPDEST PUSH1 0x20 DUP1 DUP3 MSTORE PUSH1 0x2A SWAP1 DUP3 ADD MSTORE PUSH32 0x536861646F774368656656323A20496E76616C6964206E657720626F6F737420 PUSH1 0x40 DUP3 ADD MSTORE PUSH32 0x6D756C7469706C69657200000000000000000000000000000000000000000000 PUSH1 0x60 DUP3 ADD MSTORE PUSH1 0x80 ADD SWAP1 JUMP JUMPDEST PUSH1 0x20 DUP1 DUP3 MSTORE PUSH1 0x2C SWAP1 DUP3 ADD MSTORE PUSH32 0x536861646F774368656656323A2054686520757365722061646472657373206D PUSH1 0x40 DUP3 ADD MSTORE PUSH32 0x7573742062652076616C69640000000000000000000000000000000000000000 PUSH1 0x60 DUP3 ADD MSTORE PUSH1 0x80 ADD SWAP1 JUMP JUMPDEST PUSH1 0x20 DUP1 DUP3 MSTORE PUSH1 0x2A SWAP1 DUP3 ADD MSTORE PUSH32 0x5361666542455032303A204245503230206F7065726174696F6E20646964206E PUSH1 0x40 DUP3 ADD MSTORE PUSH32 0x6F74207375636365656400000000000000000000000000000000000000000000 PUSH1 0x60 DUP3 ADD MSTORE PUSH1 0x80 ADD SWAP1 JUMP JUMPDEST PUSH1 0x20 DUP1 DUP3 MSTORE PUSH1 0x26 SWAP1 DUP3 ADD MSTORE PUSH32 0x4F776E61626C653A206E6577206F776E657220697320746865207A65726F2061 PUSH1 0x40 DUP3 ADD MSTORE PUSH32 0x6464726573730000000000000000000000000000000000000000000000000000 PUSH1 0x60 DUP3 ADD MSTORE PUSH1 0x80 ADD SWAP1 JUMP JUMPDEST PUSH1 0x20 DUP1 DUP3 MSTORE PUSH1 0x1B SWAP1 DUP3 ADD MSTORE PUSH32 0x536166654D6174683A206164646974696F6E206F766572666C6F770000000000 PUSH1 0x40 DUP3 ADD MSTORE PUSH1 0x60 ADD SWAP1 JUMP JUMPDEST PUSH1 0x20 DUP1 DUP3 MSTORE PUSH1 0x2E SWAP1 DUP3 ADD MSTORE PUSH32 0x536861646F774368656656323A204275726E2061646D696E2061646472657373 PUSH1 0x40 DUP3 ADD MSTORE PUSH32 0x206D7573742062652076616C6964000000000000000000000000000000000000 PUSH1 0x60 DUP3 ADD MSTORE PUSH1 0x80 ADD SWAP1 JUMP JUMPDEST PUSH1 0x20 DUP1 DUP3 MSTORE PUSH1 0x42 SWAP1 DUP3 ADD MSTORE PUSH32 0x536861646F774368656656323A205468652061646472657373206973206E6F74 PUSH1 0x40 DUP3 ADD MSTORE PUSH32 0x20617661696C61626C6520746F206465706F73697420696E207468697320706F PUSH1 0x60 DUP3 ADD MSTORE PUSH32 0x6F6C000000000000000000000000000000000000000000000000000000000000 PUSH1 0x80 DUP3 ADD MSTORE PUSH1 0xA0 ADD SWAP1 JUMP JUMPDEST PUSH1 0x20 DUP1 DUP3 MSTORE PUSH1 0x2E SWAP1 DUP3 ADD MSTORE PUSH32 0x536861646F774368656656323A20534844572072617465206D75737420626520 PUSH1 0x40 DUP3 ADD MSTORE PUSH32 0x67726561746572207468616E2030000000000000000000000000000000000000 PUSH1 0x60 DUP3 ADD MSTORE PUSH1 0x80 ADD SWAP1 JUMP JUMPDEST PUSH1 0x20 DUP1 DUP3 MSTORE PUSH1 0x25 SWAP1 DUP3 ADD MSTORE PUSH32 0x536861646F774368656656323A20546F74616C2072617465206D757374206265 PUSH1 0x40 DUP3 ADD MSTORE PUSH32 0x2031653132000000000000000000000000000000000000000000000000000000 PUSH1 0x60 DUP3 ADD MSTORE PUSH1 0x80 ADD SWAP1 JUMP JUMPDEST PUSH1 0x20 DUP1 DUP3 MSTORE PUSH1 0x32 SWAP1 DUP3 ADD MSTORE PUSH32 0x536861646F774368656656323A20546865207768697465206C69737420616464 PUSH1 0x40 DUP3 ADD MSTORE PUSH32 0x72657373206D7573742062652076616C69640000000000000000000000000000 PUSH1 0x60 DUP3 ADD MSTORE PUSH1 0x80 ADD SWAP1 JUMP JUMPDEST PUSH1 0x20 DUP1 DUP3 MSTORE PUSH1 0x21 SWAP1 DUP3 ADD MSTORE PUSH32 0x536166654D6174683A206D756C7469706C69636174696F6E206F766572666C6F PUSH1 0x40 DUP3 ADD MSTORE PUSH32 0x7700000000000000000000000000000000000000000000000000000000000000 PUSH1 0x60 DUP3 ADD MSTORE PUSH1 0x80 ADD SWAP1 JUMP JUMPDEST PUSH1 0x20 DUP1 DUP3 MSTORE PUSH1 0x16 SWAP1 DUP3 ADD MSTORE PUSH32 0x77697468647261773A20496E73756666696369656E7400000000000000000000 PUSH1 0x40 DUP3 ADD MSTORE PUSH1 0x60 ADD SWAP1 JUMP JUMPDEST PUSH1 0x20 DUP1 DUP3 MSTORE PUSH1 0x11 SWAP1 DUP3 ADD MSTORE PUSH32 0x4E6F6E6520424550323020746F6B656E73000000000000000000000000000000 PUSH1 0x40 DUP3 ADD MSTORE PUSH1 0x60 ADD SWAP1 JUMP JUMPDEST PUSH1 0x20 DUP1 DUP3 MSTORE DUP2 DUP2 ADD MSTORE PUSH32 0x4F776E61626C653A2063616C6C6572206973206E6F7420746865206F776E6572 PUSH1 0x40 DUP3 ADD MSTORE PUSH1 0x60 ADD SWAP1 JUMP JUMPDEST PUSH1 0x20 DUP1 DUP3 MSTORE PUSH1 0x29 SWAP1 DUP3 ADD MSTORE PUSH32 0x4F776E61626C653A2063616C6C6572206973206E6F742074686520626F6F7374 PUSH1 0x40 DUP3 ADD MSTORE PUSH32 0x20636F6E74726163740000000000000000000000000000000000000000000000 PUSH1 0x60 DUP3 ADD MSTORE PUSH1 0x80 ADD SWAP1 JUMP JUMPDEST PUSH1 0x20 DUP1 DUP3 MSTORE PUSH1 0x36 SWAP1 DUP3 ADD MSTORE PUSH32 0x536861646F774368656656323A204E657720626F6F737420636F6E7472616374 PUSH1 0x40 DUP3 ADD MSTORE PUSH32 0x2061646472657373206D7573742062652076616C696400000000000000000000 PUSH1 0x60 DUP3 ADD MSTORE PUSH1 0x80 ADD SWAP1 JUMP JUMPDEST PUSH1 0x20 DUP1 DUP3 MSTORE PUSH1 0x1D SWAP1 DUP3 ADD MSTORE PUSH32 0x416464726573733A2063616C6C20746F206E6F6E2D636F6E7472616374000000 PUSH1 0x40 DUP3 ADD MSTORE PUSH1 0x60 ADD SWAP1 JUMP JUMPDEST PUSH1 0x20 DUP1 DUP3 MSTORE PUSH1 0x41 SWAP1 DUP3 ADD MSTORE PUSH32 0x536861646F774368656656323A204275726E2061646D696E2061646472657373 PUSH1 0x40 DUP3 ADD MSTORE PUSH32 0x206973207468652073616D6520776974682063757272656E7420616464726573 PUSH1 0x60 DUP3 ADD MSTORE PUSH32 0x7300000000000000000000000000000000000000000000000000000000000000 PUSH1 0x80 DUP3 ADD MSTORE PUSH1 0xA0 ADD SWAP1 JUMP JUMPDEST PUSH1 0x20 DUP1 DUP3 MSTORE PUSH1 0x30 SWAP1 DUP3 ADD MSTORE PUSH32 0x536861646F774368656656323A204F6E6C7920726567756C6172206661726D20 PUSH1 0x40 DUP3 ADD MSTORE PUSH32 0x636F756C6420626520626F6F7374656400000000000000000000000000000000 PUSH1 0x60 DUP3 ADD MSTORE PUSH1 0x80 ADD SWAP1 JUMP JUMPDEST PUSH1 0x20 DUP1 DUP3 MSTORE PUSH1 0x27 SWAP1 DUP3 ADD MSTORE PUSH32 0x5348445720746F6B656E2063616E277420626520616464656420746F20666172 PUSH1 0x40 DUP3 ADD MSTORE PUSH32 0x6D20706F6F6C7300000000000000000000000000000000000000000000000000 PUSH1 0x60 DUP3 ADD MSTORE PUSH1 0x80 ADD SWAP1 JUMP JUMPDEST PUSH1 0x20 DUP1 DUP3 MSTORE PUSH1 0x1F SWAP1 DUP3 ADD MSTORE PUSH32 0x5265656E7472616E637947756172643A207265656E7472616E742063616C6C00 PUSH1 0x40 DUP3 ADD MSTORE PUSH1 0x60 ADD SWAP1 JUMP JUMPDEST PUSH1 0x0 PUSH1 0xA0 DUP3 ADD SWAP1 POP DUP3 MLOAD DUP3 MSTORE PUSH1 0x20 DUP4 ADD MLOAD PUSH1 0x20 DUP4 ADD MSTORE PUSH1 0x40 DUP4 ADD MLOAD PUSH1 0x40 DUP4 ADD MSTORE PUSH1 0x60 DUP4 ADD MLOAD PUSH1 0x60 DUP4 ADD MSTORE PUSH1 0x80 DUP4 ADD MLOAD ISZERO ISZERO PUSH1 0x80 DUP4 ADD MSTORE SWAP3 SWAP2 POP POP JUMP JUMPDEST SWAP1 DUP2 MSTORE PUSH1 0x20 ADD SWAP1 JUMP JUMPDEST SWAP2 DUP3 MSTORE ISZERO ISZERO PUSH1 0x20 DUP3 ADD MSTORE PUSH1 0x40 ADD SWAP1 JUMP JUMPDEST SWAP3 DUP4 MSTORE PUSH1 0x20 DUP4 ADD SWAP2 SWAP1 SWAP2 MSTORE PUSH1 0x40 DUP3 ADD MSTORE PUSH1 0x60 ADD SWAP1 JUMP JUMPDEST SWAP5 DUP6 MSTORE PUSH1 0x20 DUP6 ADD SWAP4 SWAP1 SWAP4 MSTORE PUSH1 0x40 DUP5 ADD SWAP2 SWAP1 SWAP2 MSTORE PUSH1 0x60 DUP4 ADD MSTORE ISZERO ISZERO PUSH1 0x80 DUP3 ADD MSTORE PUSH1 0xA0 ADD SWAP1 JUMP JUMPDEST PUSH1 0x0 JUMPDEST DUP4 DUP2 LT ISZERO PUSH2 0x34E1 JUMPI DUP2 DUP2 ADD MLOAD DUP4 DUP3 ADD MSTORE PUSH1 0x20 ADD PUSH2 0x34C9 JUMP JUMPDEST DUP4 DUP2 GT ISZERO PUSH2 0x2759 JUMPI POP POP PUSH1 0x0 SWAP2 ADD MSTORE JUMP JUMPDEST PUSH20 0xFFFFFFFFFFFFFFFFFFFFFFFFFFFFFFFFFFFFFFFF DUP2 AND DUP2 EQ PUSH2 0x3514 JUMPI PUSH1 0x0 DUP1 REVERT JUMPDEST POP JUMP JUMPDEST DUP1 ISZERO ISZERO DUP2 EQ PUSH2 0x3514 JUMPI PUSH1 0x0 DUP1 REVERT INVALID LOG2 PUSH5 0x6970667358 0x22 SLT KECCAK256 DUP3 PC CALLDATACOPY GAS 0xC1 CHAINID SAR 0xC0 CALLCODE SWAP11 SUB GAS SWAP2 PUSH14 0xA3FBD5D3FAC1FE1C167088369B43 0x2B PUSH20 0x787F64736F6C634300060C003300000000000000 "
		},
		"gasEstimates": {
			"creation": {
				"codeDepositCost": "2731800",
				"executionCost": "infinite",
				"totalCost": "infinite"
			},
			"external": {
				"ACC_SHDW_PRECISION()": "296",
				"BOOST_PRECISION()": "295",
				"MASTERCHEF_SHDW_PER_BLOCK()": "338",
				"MAX_BOOST_PRECISION()": "295",
				"SHDW()": "infinite",
				"SHDW_RATE_TOTAL_PRECISION()": "317",
				"add(uint256,address,bool,bool)": "infinite",
				"boostContract()": "1157",
				"burnAdmin()": "1136",
				"burnShdw(bool)": "infinite",
				"deposit(uint256,uint256)": "infinite",
				"emergencyWithdraw(uint256)": "infinite",
				"getBoostMultiplier(address,uint256)": "1438",
				"lastBurnedBlock()": "1097",
				"lpToken(uint256)": "2105",
				"massUpdatePools()": "infinite",
				"owner()": "1158",
				"pendingShdw(uint256,address)": "infinite",
				"poolInfo(uint256)": "5460",
				"poolLength()": "1141",
				"renounceOwnership()": "24276",
				"set(uint256,uint256,bool)": "infinite",
				"shdwPerBlock(bool)": "infinite",
				"shdwPerBlockToBurn()": "infinite",
				"shdwRateToBurn()": "1118",
				"shdwRateToRegularFarm()": "1116",
				"shdwRateToSpecialFarm()": "1117",
				"totalRegularAllocPoint()": "1139",
				"totalSpecialAllocPoint()": "1118",
				"transferOwnership(address)": "24457",
				"updateBoostContract(address)": "24087",
				"updateBoostMultiplier(address,uint256,uint256)": "infinite",
				"updateBurnAdmin(address)": "24473",
				"updatePool(uint256)": "infinite",
				"updateShdwRate(uint256,uint256,uint256,bool)": "infinite",
				"updateWhiteList(address,bool)": "infinite",
				"userInfo(uint256,address)": "3083",
				"whiteList(address)": "1325",
				"withdraw(uint256,uint256)": "infinite"
			},
			"internal": {
				"_safeTransfer(address,uint256)": "infinite",
				"settlependingShdw(address,uint256,uint256)": "infinite"
			}
		},
		"methodIdentifiers": {
			"ACC_SHDW_PRECISION()": "16e80f4d",
			"BOOST_PRECISION()": "cc6db2da",
			"MASTERCHEF_SHDW_PER_BLOCK()": "f5b91cd3",
			"MAX_BOOST_PRECISION()": "69b02128",
			"SHDW()": "03dcff74",
			"SHDW_RATE_TOTAL_PRECISION()": "d2ce6ae8",
			"add(uint256,address,bool,bool)": "c507aeaa",
			"boostContract()": "dfcedeee",
			"burnAdmin()": "81bdf98c",
			"burnShdw(bool)": "36183ed6",
			"deposit(uint256,uint256)": "e2bbb158",
			"emergencyWithdraw(uint256)": "5312ea8e",
			"getBoostMultiplier(address,uint256)": "033186e8",
			"lastBurnedBlock()": "78db4c34",
			"lpToken(uint256)": "78ed5d1f",
			"massUpdatePools()": "630b5ba1",
			"owner()": "8da5cb5b",
			"pendingShdw(uint256,address)": "c799b59d",
			"poolInfo(uint256)": "1526fe27",
			"poolLength()": "081e3eda",
			"renounceOwnership()": "715018a6",
			"set(uint256,uint256,bool)": "64482f79",
			"shdwPerBlock(bool)": "f474309e",
			"shdwPerBlockToBurn()": "19f95e2e",
			"shdwRateToBurn()": "6661100f",
			"shdwRateToRegularFarm()": "f5a26f40",
			"shdwRateToSpecialFarm()": "6fda08c3",
			"totalRegularAllocPoint()": "c40d337b",
			"totalSpecialAllocPoint()": "99d7e84a",
			"transferOwnership(address)": "f2fde38b",
			"updateBoostContract(address)": "9dd2fcc3",
			"updateBoostMultiplier(address,uint256,uint256)": "041a84c9",
			"updateBurnAdmin(address)": "0bb844bc",
			"updatePool(uint256)": "51eb05a6",
			"updateShdwRate(uint256,uint256,uint256,bool)": "815d087f",
			"updateWhiteList(address,bool)": "ac1d0609",
			"userInfo(uint256,address)": "93f1a40b",
			"whiteList(address)": "372c12b1",
			"withdraw(uint256,uint256)": "441a3e70"
		}
	},
	"abi": [
		{
			"inputs": [
				{
					"internalType": "contract IBEP20",
					"name": "_SHDW",
					"type": "address"
				},
				{
					"internalType": "address",
					"name": "_burnAdmin",
					"type": "address"
				}
			],
			"stateMutability": "nonpayable",
			"type": "constructor"
		},
		{
			"anonymous": false,
			"inputs": [
				{
					"indexed": true,
					"internalType": "uint256",
					"name": "pid",
					"type": "uint256"
				},
				{
					"indexed": false,
					"internalType": "uint256",
					"name": "allocPoint",
					"type": "uint256"
				},
				{
					"indexed": true,
					"internalType": "contract IBEP20",
					"name": "lpToken",
					"type": "address"
				},
				{
					"indexed": false,
					"internalType": "bool",
					"name": "isRegular",
					"type": "bool"
				}
			],
			"name": "AddPool",
			"type": "event"
		},
		{
			"anonymous": false,
			"inputs": [
				{
					"indexed": true,
					"internalType": "address",
					"name": "user",
					"type": "address"
				},
				{
					"indexed": true,
					"internalType": "uint256",
					"name": "pid",
					"type": "uint256"
				},
				{
					"indexed": false,
					"internalType": "uint256",
					"name": "amount",
					"type": "uint256"
				}
			],
			"name": "Deposit",
			"type": "event"
		},
		{
			"anonymous": false,
			"inputs": [
				{
					"indexed": true,
					"internalType": "address",
					"name": "user",
					"type": "address"
				},
				{
					"indexed": true,
					"internalType": "uint256",
					"name": "pid",
					"type": "uint256"
				},
				{
					"indexed": false,
					"internalType": "uint256",
					"name": "amount",
					"type": "uint256"
				}
			],
			"name": "EmergencyWithdraw",
			"type": "event"
		},
		{
			"anonymous": false,
			"inputs": [
				{
					"indexed": false,
					"internalType": "uint256",
					"name": "burnRate",
					"type": "uint256"
				},
				{
					"indexed": false,
					"internalType": "uint256",
					"name": "regularFarmRate",
					"type": "uint256"
				},
				{
					"indexed": false,
					"internalType": "uint256",
					"name": "specialFarmRate",
					"type": "uint256"
				}
			],
			"name": "EventUpdateShdwRate",
			"type": "event"
		},
		{
			"anonymous": false,
			"inputs": [],
			"name": "Init",
			"type": "event"
		},
		{
			"anonymous": false,
			"inputs": [
				{
					"indexed": true,
					"internalType": "address",
					"name": "previousOwner",
					"type": "address"
				},
				{
					"indexed": true,
					"internalType": "address",
					"name": "newOwner",
					"type": "address"
				}
			],
			"name": "OwnershipTransferred",
			"type": "event"
		},
		{
			"anonymous": false,
			"inputs": [
				{
					"indexed": true,
					"internalType": "uint256",
					"name": "pid",
					"type": "uint256"
				},
				{
					"indexed": false,
					"internalType": "uint256",
					"name": "allocPoint",
					"type": "uint256"
				}
			],
			"name": "SetPool",
			"type": "event"
		},
		{
			"anonymous": false,
			"inputs": [
				{
					"indexed": true,
					"internalType": "address",
					"name": "boostContract",
					"type": "address"
				}
			],
			"name": "UpdateBoostContract",
			"type": "event"
		},
		{
			"anonymous": false,
			"inputs": [
				{
					"indexed": true,
					"internalType": "address",
					"name": "user",
					"type": "address"
				},
				{
					"indexed": false,
					"internalType": "uint256",
					"name": "pid",
					"type": "uint256"
				},
				{
					"indexed": false,
					"internalType": "uint256",
					"name": "oldMultiplier",
					"type": "uint256"
				},
				{
					"indexed": false,
					"internalType": "uint256",
					"name": "newMultiplier",
					"type": "uint256"
				}
			],
			"name": "UpdateBoostMultiplier",
			"type": "event"
		},
		{
			"anonymous": false,
			"inputs": [
				{
					"indexed": true,
					"internalType": "address",
					"name": "oldAdmin",
					"type": "address"
				},
				{
					"indexed": true,
					"internalType": "address",
					"name": "newAdmin",
					"type": "address"
				}
			],
			"name": "UpdateBurnAdmin",
			"type": "event"
		},
		{
			"anonymous": false,
			"inputs": [
				{
					"indexed": true,
					"internalType": "uint256",
					"name": "pid",
					"type": "uint256"
				},
				{
					"indexed": false,
					"internalType": "uint256",
					"name": "lastRewardBlock",
					"type": "uint256"
				},
				{
					"indexed": false,
					"internalType": "uint256",
					"name": "lpSupply",
					"type": "uint256"
				},
				{
					"indexed": false,
					"internalType": "uint256",
					"name": "accShdwPerShare",
					"type": "uint256"
				}
			],
			"name": "UpdatePool",
			"type": "event"
		},
		{
			"anonymous": false,
			"inputs": [
				{
					"indexed": true,
					"internalType": "address",
					"name": "user",
					"type": "address"
				},
				{
					"indexed": false,
					"internalType": "bool",
					"name": "isValid",
					"type": "bool"
				}
			],
			"name": "UpdateWhiteList",
			"type": "event"
		},
		{
			"anonymous": false,
			"inputs": [
				{
					"indexed": true,
					"internalType": "address",
					"name": "user",
					"type": "address"
				},
				{
					"indexed": true,
					"internalType": "uint256",
					"name": "pid",
					"type": "uint256"
				},
				{
					"indexed": false,
					"internalType": "uint256",
					"name": "amount",
					"type": "uint256"
				}
			],
			"name": "Withdraw",
			"type": "event"
		},
		{
			"inputs": [],
			"name": "ACC_SHDW_PRECISION",
			"outputs": [
				{
					"internalType": "uint256",
					"name": "",
					"type": "uint256"
				}
			],
			"stateMutability": "view",
			"type": "function"
		},
		{
			"inputs": [],
			"name": "BOOST_PRECISION",
			"outputs": [
				{
					"internalType": "uint256",
					"name": "",
					"type": "uint256"
				}
			],
			"stateMutability": "view",
			"type": "function"
		},
		{
			"inputs": [],
			"name": "MASTERCHEF_SHDW_PER_BLOCK",
			"outputs": [
				{
					"internalType": "uint256",
					"name": "",
					"type": "uint256"
				}
			],
			"stateMutability": "view",
			"type": "function"
		},
		{
			"inputs": [],
			"name": "MAX_BOOST_PRECISION",
			"outputs": [
				{
					"internalType": "uint256",
					"name": "",
					"type": "uint256"
				}
			],
			"stateMutability": "view",
			"type": "function"
		},
		{
			"inputs": [],
			"name": "SHDW",
			"outputs": [
				{
					"internalType": "contract IBEP20",
					"name": "",
					"type": "address"
				}
			],
			"stateMutability": "view",
			"type": "function"
		},
		{
			"inputs": [],
			"name": "SHDW_RATE_TOTAL_PRECISION",
			"outputs": [
				{
					"internalType": "uint256",
					"name": "",
					"type": "uint256"
				}
			],
			"stateMutability": "view",
			"type": "function"
		},
		{
			"inputs": [
				{
					"internalType": "uint256",
					"name": "_allocPoint",
					"type": "uint256"
				},
				{
					"internalType": "contract IBEP20",
					"name": "_lpToken",
					"type": "address"
				},
				{
					"internalType": "bool",
					"name": "_isRegular",
					"type": "bool"
				},
				{
					"internalType": "bool",
					"name": "_withUpdate",
					"type": "bool"
				}
			],
			"name": "add",
			"outputs": [],
			"stateMutability": "nonpayable",
			"type": "function"
		},
		{
			"inputs": [],
			"name": "boostContract",
			"outputs": [
				{
					"internalType": "address",
					"name": "",
					"type": "address"
				}
			],
			"stateMutability": "view",
			"type": "function"
		},
		{
			"inputs": [],
			"name": "burnAdmin",
			"outputs": [
				{
					"internalType": "address",
					"name": "",
					"type": "address"
				}
			],
			"stateMutability": "view",
			"type": "function"
		},
		{
			"inputs": [
				{
					"internalType": "bool",
					"name": "_withUpdate",
					"type": "bool"
				}
			],
			"name": "burnShdw",
			"outputs": [],
			"stateMutability": "nonpayable",
			"type": "function"
		},
		{
			"inputs": [
				{
					"internalType": "uint256",
					"name": "_pid",
					"type": "uint256"
				},
				{
					"internalType": "uint256",
					"name": "_amount",
					"type": "uint256"
				}
			],
			"name": "deposit",
			"outputs": [],
			"stateMutability": "nonpayable",
			"type": "function"
		},
		{
			"inputs": [
				{
					"internalType": "uint256",
					"name": "_pid",
					"type": "uint256"
				}
			],
			"name": "emergencyWithdraw",
			"outputs": [],
			"stateMutability": "nonpayable",
			"type": "function"
		},
		{
			"inputs": [
				{
					"internalType": "address",
					"name": "_user",
					"type": "address"
				},
				{
					"internalType": "uint256",
					"name": "_pid",
					"type": "uint256"
				}
			],
			"name": "getBoostMultiplier",
			"outputs": [
				{
					"internalType": "uint256",
					"name": "",
					"type": "uint256"
				}
			],
			"stateMutability": "view",
			"type": "function"
		},
		{
			"inputs": [],
			"name": "lastBurnedBlock",
			"outputs": [
				{
					"internalType": "uint256",
					"name": "",
					"type": "uint256"
				}
			],
			"stateMutability": "view",
			"type": "function"
		},
		{
			"inputs": [
				{
					"internalType": "uint256",
					"name": "",
					"type": "uint256"
				}
			],
			"name": "lpToken",
			"outputs": [
				{
					"internalType": "contract IBEP20",
					"name": "",
					"type": "address"
				}
			],
			"stateMutability": "view",
			"type": "function"
		},
		{
			"inputs": [],
			"name": "massUpdatePools",
			"outputs": [],
			"stateMutability": "nonpayable",
			"type": "function"
		},
		{
			"inputs": [],
			"name": "owner",
			"outputs": [
				{
					"internalType": "address",
					"name": "",
					"type": "address"
				}
			],
			"stateMutability": "view",
			"type": "function"
		},
		{
			"inputs": [
				{
					"internalType": "uint256",
					"name": "_pid",
					"type": "uint256"
				},
				{
					"internalType": "address",
					"name": "_user",
					"type": "address"
				}
			],
			"name": "pendingShdw",
			"outputs": [
				{
					"internalType": "uint256",
					"name": "",
					"type": "uint256"
				}
			],
			"stateMutability": "view",
			"type": "function"
		},
		{
			"inputs": [
				{
					"internalType": "uint256",
					"name": "",
					"type": "uint256"
				}
			],
			"name": "poolInfo",
			"outputs": [
				{
					"internalType": "uint256",
					"name": "accShdwPerShare",
					"type": "uint256"
				},
				{
					"internalType": "uint256",
					"name": "lastRewardBlock",
					"type": "uint256"
				},
				{
					"internalType": "uint256",
					"name": "allocPoint",
					"type": "uint256"
				},
				{
					"internalType": "uint256",
					"name": "totalBoostedShare",
					"type": "uint256"
				},
				{
					"internalType": "bool",
					"name": "isRegular",
					"type": "bool"
				}
			],
			"stateMutability": "view",
			"type": "function"
		},
		{
			"inputs": [],
			"name": "poolLength",
			"outputs": [
				{
					"internalType": "uint256",
					"name": "pools",
					"type": "uint256"
				}
			],
			"stateMutability": "view",
			"type": "function"
		},
		{
			"inputs": [],
			"name": "renounceOwnership",
			"outputs": [],
			"stateMutability": "nonpayable",
			"type": "function"
		},
		{
			"inputs": [
				{
					"internalType": "uint256",
					"name": "_pid",
					"type": "uint256"
				},
				{
					"internalType": "uint256",
					"name": "_allocPoint",
					"type": "uint256"
				},
				{
					"internalType": "bool",
					"name": "_withUpdate",
					"type": "bool"
				}
			],
			"name": "set",
			"outputs": [],
			"stateMutability": "nonpayable",
			"type": "function"
		},
		{
			"inputs": [
				{
					"internalType": "bool",
					"name": "_isRegular",
					"type": "bool"
				}
			],
			"name": "shdwPerBlock",
			"outputs": [
				{
					"internalType": "uint256",
					"name": "amount",
					"type": "uint256"
				}
			],
			"stateMutability": "view",
			"type": "function"
		},
		{
			"inputs": [],
			"name": "shdwPerBlockToBurn",
			"outputs": [
				{
					"internalType": "uint256",
					"name": "amount",
					"type": "uint256"
				}
			],
			"stateMutability": "view",
			"type": "function"
		},
		{
			"inputs": [],
			"name": "shdwRateToBurn",
			"outputs": [
				{
					"internalType": "uint256",
					"name": "",
					"type": "uint256"
				}
			],
			"stateMutability": "view",
			"type": "function"
		},
		{
			"inputs": [],
			"name": "shdwRateToRegularFarm",
			"outputs": [
				{
					"internalType": "uint256",
					"name": "",
					"type": "uint256"
				}
			],
			"stateMutability": "view",
			"type": "function"
		},
		{
			"inputs": [],
			"name": "shdwRateToSpecialFarm",
			"outputs": [
				{
					"internalType": "uint256",
					"name": "",
					"type": "uint256"
				}
			],
			"stateMutability": "view",
			"type": "function"
		},
		{
			"inputs": [],
			"name": "totalRegularAllocPoint",
			"outputs": [
				{
					"internalType": "uint256",
					"name": "",
					"type": "uint256"
				}
			],
			"stateMutability": "view",
			"type": "function"
		},
		{
			"inputs": [],
			"name": "totalSpecialAllocPoint",
			"outputs": [
				{
					"internalType": "uint256",
					"name": "",
					"type": "uint256"
				}
			],
			"stateMutability": "view",
			"type": "function"
		},
		{
			"inputs": [
				{
					"internalType": "address",
					"name": "newOwner",
					"type": "address"
				}
			],
			"name": "transferOwnership",
			"outputs": [],
			"stateMutability": "nonpayable",
			"type": "function"
		},
		{
			"inputs": [
				{
					"internalType": "address",
					"name": "_newBoostContract",
					"type": "address"
				}
			],
			"name": "updateBoostContract",
			"outputs": [],
			"stateMutability": "nonpayable",
			"type": "function"
		},
		{
			"inputs": [
				{
					"internalType": "address",
					"name": "_user",
					"type": "address"
				},
				{
					"internalType": "uint256",
					"name": "_pid",
					"type": "uint256"
				},
				{
					"internalType": "uint256",
					"name": "_newMultiplier",
					"type": "uint256"
				}
			],
			"name": "updateBoostMultiplier",
			"outputs": [],
			"stateMutability": "nonpayable",
			"type": "function"
		},
		{
			"inputs": [
				{
					"internalType": "address",
					"name": "_newAdmin",
					"type": "address"
				}
			],
			"name": "updateBurnAdmin",
			"outputs": [],
			"stateMutability": "nonpayable",
			"type": "function"
		},
		{
			"inputs": [
				{
					"internalType": "uint256",
					"name": "_pid",
					"type": "uint256"
				}
			],
			"name": "updatePool",
			"outputs": [
				{
					"components": [
						{
							"internalType": "uint256",
							"name": "accShdwPerShare",
							"type": "uint256"
						},
						{
							"internalType": "uint256",
							"name": "lastRewardBlock",
							"type": "uint256"
						},
						{
							"internalType": "uint256",
							"name": "allocPoint",
							"type": "uint256"
						},
						{
							"internalType": "uint256",
							"name": "totalBoostedShare",
							"type": "uint256"
						},
						{
							"internalType": "bool",
							"name": "isRegular",
							"type": "bool"
						}
					],
					"internalType": "struct ShadowChefV2.PoolInfo",
					"name": "pool",
					"type": "tuple"
				}
			],
			"stateMutability": "nonpayable",
			"type": "function"
		},
		{
			"inputs": [
				{
					"internalType": "uint256",
					"name": "_burnRate",
					"type": "uint256"
				},
				{
					"internalType": "uint256",
					"name": "_regularFarmRate",
					"type": "uint256"
				},
				{
					"internalType": "uint256",
					"name": "_specialFarmRate",
					"type": "uint256"
				},
				{
					"internalType": "bool",
					"name": "_withUpdate",
					"type": "bool"
				}
			],
			"name": "updateShdwRate",
			"outputs": [],
			"stateMutability": "nonpayable",
			"type": "function"
		},
		{
			"inputs": [
				{
					"internalType": "address",
					"name": "_user",
					"type": "address"
				},
				{
					"internalType": "bool",
					"name": "_isValid",
					"type": "bool"
				}
			],
			"name": "updateWhiteList",
			"outputs": [],
			"stateMutability": "nonpayable",
			"type": "function"
		},
		{
			"inputs": [
				{
					"internalType": "uint256",
					"name": "",
					"type": "uint256"
				},
				{
					"internalType": "address",
					"name": "",
					"type": "address"
				}
			],
			"name": "userInfo",
			"outputs": [
				{
					"internalType": "uint256",
					"name": "amount",
					"type": "uint256"
				},
				{
					"internalType": "uint256",
					"name": "rewardDebt",
					"type": "uint256"
				},
				{
					"internalType": "uint256",
					"name": "boostMultiplier",
					"type": "uint256"
				}
			],
			"stateMutability": "view",
			"type": "function"
		},
		{
			"inputs": [
				{
					"internalType": "address",
					"name": "",
					"type": "address"
				}
			],
			"name": "whiteList",
			"outputs": [
				{
					"internalType": "bool",
					"name": "",
					"type": "bool"
				}
			],
			"stateMutability": "view",
			"type": "function"
		},
		{
			"inputs": [
				{
					"internalType": "uint256",
					"name": "_pid",
					"type": "uint256"
				},
				{
					"internalType": "uint256",
					"name": "_amount",
					"type": "uint256"
				}
			],
			"name": "withdraw",
			"outputs": [],
			"stateMutability": "nonpayable",
			"type": "function"
		}
	]
}