{
	"contracts/IShdw.sol": {
		"IShdw": {
			"abi": [
				{
					"inputs": [
						{
							"internalType": "contract IShdwPool",
							"name": "_shdwPool",
							"type": "address"
						},
						{
							"internalType": "address",
							"name": "_admin",
							"type": "address"
						},
						{
							"internalType": "uint256",
							"name": "_ceiling",
							"type": "uint256"
						}
					],
					"stateMutability": "nonpayable",
					"type": "constructor"
				},
				{
					"anonymous": false,
					"inputs": [
						{
							"indexed": true,
							"internalType": "address",
							"name": "previousOwner",
							"type": "address"
						},
						{
							"indexed": true,
							"internalType": "address",
							"name": "newOwner",
							"type": "address"
						}
					],
					"name": "OwnershipTransferred",
					"type": "event"
				},
				{
					"anonymous": false,
					"inputs": [
						{
							"indexed": false,
							"internalType": "uint256",
							"name": "newCeiling",
							"type": "uint256"
						}
					],
					"name": "UpdateCeiling",
					"type": "event"
				},
				{
					"inputs": [],
					"name": "MIN_CEILING_DURATION",
					"outputs": [
						{
							"internalType": "uint256",
							"name": "",
							"type": "uint256"
						}
					],
					"stateMutability": "view",
					"type": "function"
				},
				{
					"inputs": [],
					"name": "admin",
					"outputs": [
						{
							"internalType": "address",
							"name": "",
							"type": "address"
						}
					],
					"stateMutability": "view",
					"type": "function"
				},
				{
					"inputs": [],
					"name": "ceiling",
					"outputs": [
						{
							"internalType": "uint256",
							"name": "",
							"type": "uint256"
						}
					],
					"stateMutability": "view",
					"type": "function"
				},
				{
					"inputs": [
						{
							"internalType": "address",
							"name": "_user",
							"type": "address"
						}
					],
					"name": "getUserCredit",
					"outputs": [
						{
							"internalType": "uint256",
							"name": "",
							"type": "uint256"
						}
					],
					"stateMutability": "view",
					"type": "function"
				},
				{
					"inputs": [],
					"name": "owner",
					"outputs": [
						{
							"internalType": "address",
							"name": "",
							"type": "address"
						}
					],
					"stateMutability": "view",
					"type": "function"
				},
				{
					"inputs": [],
					"name": "renounceOwnership",
					"outputs": [],
					"stateMutability": "nonpayable",
					"type": "function"
				},
				{
					"inputs": [],
					"name": "shdwPool",
					"outputs": [
						{
							"internalType": "contract IShdwPool",
							"name": "",
							"type": "address"
						}
					],
					"stateMutability": "view",
					"type": "function"
				},
				{
					"inputs": [
						{
							"internalType": "address",
							"name": "newOwner",
							"type": "address"
						}
					],
					"name": "transferOwnership",
					"outputs": [],
					"stateMutability": "nonpayable",
					"type": "function"
				},
				{
					"inputs": [
						{
							"internalType": "uint256",
							"name": "_newCeiling",
							"type": "uint256"
						}
					],
					"name": "updateCeiling",
					"outputs": [],
					"stateMutability": "nonpayable",
					"type": "function"
				}
			],
			"devdoc": {
				"kind": "dev",
				"methods": {
					"constructor": {
						"params": {
							"_admin": ": admin of the this contract",
							"_ceiling": ": the max locked duration which the linear decrease start",
							"_shdwPool": ": shdw pool contract"
						}
					},
					"getUserCredit(address)": {
						"params": {
							"_user": ": user address."
						}
					},
					"owner()": {
						"details": "Returns the address of the current owner."
					},
					"renounceOwnership()": {
						"details": "Leaves the contract without owner. It will not be possible to call `onlyOwner` functions. Can only be called by the current owner. NOTE: Renouncing ownership will leave the contract without an owner, thereby disabling any functionality that is only available to the owner."
					},
					"transferOwnership(address)": {
						"details": "Transfers ownership of the contract to a new account (`newOwner`). Can only be called by the current owner."
					},
					"updateCeiling(uint256)": {
						"params": {
							"_newCeiling": ": new threshold duration."
						}
					}
				},
				"version": 1
			},
			"evm": {
				"assembly": "    /* \"contracts/IShdw.sol\":306:2522  contract IShdw is Ownable {... */\n  mstore(0x40, 0xa0)\n    /* \"contracts/IShdw.sol\":1002:1274  constructor(... */\n  callvalue\n  dup1\n  iszero\n  tag_1\n  jumpi\n  0x00\n  dup1\n  revert\ntag_1:\n  pop\n  mload(0x40)\n  sub(codesize, bytecodeSize)\n  dup1\n  bytecodeSize\n  dup4\n  codecopy\n  dup2\n  add\n  0x40\n  dup2\n  swap1\n  mstore\n  tag_2\n  swap2\n  tag_3\n  jump\t// in\ntag_2:\n    /* \"@openzeppelin/contracts/access/Ownable.sol\":964:996  _transferOwnership(_msgSender()) */\n  tag_7\n    /* \"@openzeppelin/contracts/utils/Context.sol\":719:729  msg.sender */\n  caller\n    /* \"@openzeppelin/contracts/access/Ownable.sol\":964:982  _transferOwnership */\n  tag_10\n    /* \"@openzeppelin/contracts/access/Ownable.sol\":964:996  _transferOwnership(_msgSender()) */\n  jump\t// in\ntag_7:\n    /* \"contracts/IShdw.sol\":551:558  1 weeks */\n  0x093a80\n    /* \"contracts/IShdw.sol\":1124:1132  _ceiling */\n  dup2\n    /* \"contracts/IShdw.sol\":1124:1156  _ceiling >= MIN_CEILING_DURATION */\n  lt\n  iszero\n    /* \"contracts/IShdw.sol\":1116:1185  require(_ceiling >= MIN_CEILING_DURATION, \"Invalid ceiling duration\") */\n  tag_12\n  jumpi\n  mload(0x40)\n  shl(0xe5, 0x461bcd)\n  dup2\n  mstore\n    /* \"#utility.yul\":685:687   */\n  0x20\n    /* \"contracts/IShdw.sol\":1116:1185  require(_ceiling >= MIN_CEILING_DURATION, \"Invalid ceiling duration\") */\n  0x04\n  dup3\n  add\n    /* \"#utility.yul\":667:688   */\n  mstore\n    /* \"#utility.yul\":724:726   */\n  0x18\n    /* \"#utility.yul\":704:722   */\n  0x24\n  dup3\n  add\n    /* \"#utility.yul\":697:727   */\n  mstore\n    /* \"#utility.yul\":763:789   */\n  0x496e76616c6964206365696c696e67206475726174696f6e0000000000000000\n    /* \"#utility.yul\":743:761   */\n  0x44\n  dup3\n  add\n    /* \"#utility.yul\":736:790   */\n  mstore\n    /* \"#utility.yul\":807:825   */\n  0x64\n  add\n    /* \"contracts/IShdw.sol\":1116:1185  require(_ceiling >= MIN_CEILING_DURATION, \"Invalid ceiling duration\") */\n  mload(0x40)\n  dup1\n  swap2\n  sub\n  swap1\n  revert\ntag_12:\n    /* \"contracts/IShdw.sol\":1195:1215  shdwPool = _shdwPool */\n  0x60\n  swap3\n  swap1\n  swap3\n  shl\n  not(sub(shl(0x60, 0x01), 0x01))\n  and\n  0x80\n  mstore\n    /* \"contracts/IShdw.sol\":1225:1230  admin */\n  0x01\n    /* \"contracts/IShdw.sol\":1225:1239  admin = _admin */\n  dup1\n  sload\n  not(sub(shl(0xa0, 0x01), 0x01))\n  and\n  sub(shl(0xa0, 0x01), 0x01)\n  swap3\n  swap1\n  swap3\n  and\n  swap2\n  swap1\n  swap2\n  or\n  swap1\n  sstore\n    /* \"contracts/IShdw.sol\":1249:1256  ceiling */\n  0x02\n    /* \"contracts/IShdw.sol\":1249:1267  ceiling = _ceiling */\n  sstore\n    /* \"contracts/IShdw.sol\":306:2522  contract IShdw is Ownable {... */\n  jump(tag_18)\n    /* \"@openzeppelin/contracts/access/Ownable.sol\":2503:2694  function _transferOwnership(address newOwner) internal virtual {\r... */\ntag_10:\n    /* \"@openzeppelin/contracts/access/Ownable.sol\":2577:2593  address oldOwner */\n  0x00\n    /* \"@openzeppelin/contracts/access/Ownable.sol\":2596:2602  _owner */\n  dup1\n  sload\n  sub(shl(0xa0, 0x01), 0x01)\n    /* \"@openzeppelin/contracts/access/Ownable.sol\":2613:2630  _owner = newOwner */\n  dup4\n  dup2\n  and\n  not(sub(shl(0xa0, 0x01), 0x01))\n  dup4\n  and\n  dup2\n  or\n  dup5\n  sstore\n    /* \"@openzeppelin/contracts/access/Ownable.sol\":2646:2686  OwnershipTransferred(oldOwner, newOwner) */\n  mload(0x40)\n    /* \"@openzeppelin/contracts/access/Ownable.sol\":2596:2602  _owner */\n  swap2\n  swap1\n  swap3\n  and\n  swap3\n  dup4\n  swap2\n    /* \"@openzeppelin/contracts/access/Ownable.sol\":2646:2686  OwnershipTransferred(oldOwner, newOwner) */\n  0x8be0079c531659141344cd1fd0a4f28419497f9722a3daafe3b4186f6b6457e0\n  swap2\n    /* \"@openzeppelin/contracts/access/Ownable.sol\":2577:2593  address oldOwner */\n  swap1\n    /* \"@openzeppelin/contracts/access/Ownable.sol\":2646:2686  OwnershipTransferred(oldOwner, newOwner) */\n  log3\n    /* \"@openzeppelin/contracts/access/Ownable.sol\":2566:2694  {\r... */\n  pop\n    /* \"@openzeppelin/contracts/access/Ownable.sol\":2503:2694  function _transferOwnership(address newOwner) internal virtual {\r... */\n  pop\n  jump\t// out\n    /* \"#utility.yul\":14:478   */\ntag_3:\n    /* \"#utility.yul\":120:126   */\n  0x00\n    /* \"#utility.yul\":128:134   */\n  dup1\n    /* \"#utility.yul\":136:142   */\n  0x00\n    /* \"#utility.yul\":189:191   */\n  0x60\n    /* \"#utility.yul\":177:186   */\n  dup5\n    /* \"#utility.yul\":168:175   */\n  dup7\n    /* \"#utility.yul\":164:187   */\n  sub\n    /* \"#utility.yul\":160:192   */\n  slt\n    /* \"#utility.yul\":157:159   */\n  iszero\n  tag_20\n  jumpi\n    /* \"#utility.yul\":205:206   */\n  0x00\n    /* \"#utility.yul\":202:203   */\n  dup1\n    /* \"#utility.yul\":195:207   */\n  revert\n    /* \"#utility.yul\":157:159   */\ntag_20:\n    /* \"#utility.yul\":237:246   */\n  dup4\n    /* \"#utility.yul\":231:247   */\n  mload\n    /* \"#utility.yul\":256:287   */\n  tag_21\n    /* \"#utility.yul\":281:286   */\n  dup2\n    /* \"#utility.yul\":256:287   */\n  tag_22\n  jump\t// in\ntag_21:\n    /* \"#utility.yul\":356:358   */\n  0x20\n    /* \"#utility.yul\":341:359   */\n  dup6\n  add\n    /* \"#utility.yul\":335:360   */\n  mload\n    /* \"#utility.yul\":306:311   */\n  swap1\n  swap4\n  pop\n    /* \"#utility.yul\":369:402   */\n  tag_23\n    /* \"#utility.yul\":335:360   */\n  dup2\n    /* \"#utility.yul\":369:402   */\n  tag_22\n  jump\t// in\ntag_23:\n    /* \"#utility.yul\":421:428   */\n  dup1\n    /* \"#utility.yul\":411:428   */\n  swap3\n  pop\n  pop\n    /* \"#utility.yul\":468:470   */\n  0x40\n    /* \"#utility.yul\":457:466   */\n  dup5\n    /* \"#utility.yul\":453:471   */\n  add\n    /* \"#utility.yul\":447:472   */\n  mload\n    /* \"#utility.yul\":437:472   */\n  swap1\n  pop\n    /* \"#utility.yul\":147:478   */\n  swap3\n  pop\n  swap3\n  pop\n  swap3\n  jump\t// out\n    /* \"#utility.yul\":836:967   */\ntag_22:\n  sub(shl(0xa0, 0x01), 0x01)\n    /* \"#utility.yul\":911:942   */\n  dup2\n  and\n    /* \"#utility.yul\":901:943   */\n  dup2\n  eq\n    /* \"#utility.yul\":891:893   */\n  tag_26\n  jumpi\n    /* \"#utility.yul\":957:958   */\n  0x00\n    /* \"#utility.yul\":954:955   */\n  dup1\n    /* \"#utility.yul\":947:959   */\n  revert\n    /* \"#utility.yul\":891:893   */\ntag_26:\n    /* \"#utility.yul\":881:967   */\n  pop\n  jump\t// out\ntag_18:\n    /* \"contracts/IShdw.sol\":306:2522  contract IShdw is Ownable {... */\n  shr(0x60, mload(0x80))\n  codecopy(0x00, dataOffset(sub_0), dataSize(sub_0))\n  0x00\n  assignImmutable(\"0xe7fd7ce126c70f58054b2cf4f1546f8c2e514b5731c94dc03f050916d4778ae4\")\n  return(0x00, dataSize(sub_0))\nstop\n\nsub_0: assembly {\n        /* \"contracts/IShdw.sol\":306:2522  contract IShdw is Ownable {... */\n      mstore(0x40, 0x80)\n      callvalue\n      dup1\n      iszero\n      tag_1\n      jumpi\n      0x00\n      dup1\n      revert\n    tag_1:\n      pop\n      jumpi(tag_2, lt(calldatasize, 0x04))\n      shr(0xe0, calldataload(0x00))\n      dup1\n      0xb1463a6a\n      gt\n      tag_12\n      jumpi\n      dup1\n      0xf0be070c\n      gt\n      tag_13\n      jumpi\n      dup1\n      0xf0be070c\n      eq\n      tag_9\n      jumpi\n      dup1\n      0xf2fde38b\n      eq\n      tag_10\n      jumpi\n      dup1\n      0xf851a440\n      eq\n      tag_11\n      jumpi\n      0x00\n      dup1\n      revert\n    tag_13:\n      dup1\n      0xb1463a6a\n      eq\n      tag_7\n      jumpi\n      dup1\n      0xdad6f0dc\n      eq\n      tag_8\n      jumpi\n      0x00\n      dup1\n      revert\n    tag_12:\n      dup1\n      0x41873acd\n      eq\n      tag_3\n      jumpi\n      dup1\n      0x715018a6\n      eq\n      tag_4\n      jumpi\n      dup1\n      0x753ed1bd\n      eq\n      tag_5\n      jumpi\n      dup1\n      0x8da5cb5b\n      eq\n      tag_6\n      jumpi\n    tag_2:\n      0x00\n      dup1\n      revert\n        /* \"contracts/IShdw.sol\":371:406  IShdwPool public immutable shdwPool */\n    tag_3:\n      tag_14\n      immutable(\"0xe7fd7ce126c70f58054b2cf4f1546f8c2e514b5731c94dc03f050916d4778ae4\")\n      dup2\n      jump\n    tag_14:\n      mload(0x40)\n        /* \"#utility.yul\":1657:1699   */\n      0xffffffffffffffffffffffffffffffffffffffff\n        /* \"#utility.yul\":1645:1700   */\n      swap1\n      swap2\n      and\n        /* \"#utility.yul\":1627:1701   */\n      dup2\n      mstore\n        /* \"#utility.yul\":1615:1617   */\n      0x20\n        /* \"#utility.yul\":1600:1618   */\n      add\n        /* \"contracts/IShdw.sol\":371:406  IShdwPool public immutable shdwPool */\n    tag_16:\n      mload(0x40)\n      dup1\n      swap2\n      sub\n      swap1\n      return\n        /* \"@openzeppelin/contracts/access/Ownable.sol\":1884:1987  function renounceOwnership() public virtual onlyOwner {\r... */\n    tag_4:\n      tag_18\n      tag_19\n      jump\t// in\n    tag_18:\n      stop\n        /* \"contracts/IShdw.sol\":475:497  uint256 public ceiling */\n    tag_5:\n      tag_20\n      sload(0x02)\n      dup2\n      jump\n    tag_20:\n      mload(0x40)\n        /* \"#utility.yul\":4336:4361   */\n      swap1\n      dup2\n      mstore\n        /* \"#utility.yul\":4324:4326   */\n      0x20\n        /* \"#utility.yul\":4309:4327   */\n      add\n        /* \"contracts/IShdw.sol\":475:497  uint256 public ceiling */\n      tag_16\n        /* \"#utility.yul\":4291:4367   */\n      jump\n        /* \"@openzeppelin/contracts/access/Ownable.sol\":1243:1330  function owner() public view virtual returns (address) {\r... */\n    tag_6:\n        /* \"@openzeppelin/contracts/access/Ownable.sol\":1289:1296  address */\n      0x00\n        /* \"@openzeppelin/contracts/access/Ownable.sol\":1316:1322  _owner */\n      sload\n      0xffffffffffffffffffffffffffffffffffffffff\n      and\n        /* \"@openzeppelin/contracts/access/Ownable.sol\":1243:1330  function owner() public view virtual returns (address) {\r... */\n      jump(tag_14)\n        /* \"contracts/IShdw.sol\":2215:2520  function updateCeiling(uint256 _newCeiling) external onlyAdmin {... */\n    tag_7:\n      tag_18\n      tag_29\n      calldatasize\n      0x04\n      tag_30\n      jump\t// in\n    tag_29:\n      tag_31\n      jump\t// in\n        /* \"contracts/IShdw.sol\":1379:2069  function getUserCredit(address _user) external view returns (uint256) {... */\n    tag_8:\n      tag_20\n      tag_33\n      calldatasize\n      0x04\n      tag_34\n      jump\t// in\n    tag_33:\n      tag_35\n      jump\t// in\n        /* \"contracts/IShdw.sol\":504:558  uint256 public constant MIN_CEILING_DURATION = 1 weeks */\n    tag_9:\n      tag_20\n        /* \"contracts/IShdw.sol\":551:558  1 weeks */\n      0x093a80\n        /* \"contracts/IShdw.sol\":504:558  uint256 public constant MIN_CEILING_DURATION = 1 weeks */\n      dup2\n      jump\n        /* \"@openzeppelin/contracts/access/Ownable.sol\":2142:2343  function transferOwnership(address newOwner) public virtual onlyOwner {\r... */\n    tag_10:\n      tag_18\n      tag_41\n      calldatasize\n      0x04\n      tag_34\n      jump\t// in\n    tag_41:\n      tag_42\n      jump\t// in\n        /* \"contracts/IShdw.sol\":413:433  address public admin */\n    tag_11:\n      sload(0x01)\n      tag_14\n      swap1\n      0xffffffffffffffffffffffffffffffffffffffff\n      and\n      dup2\n      jump\n        /* \"@openzeppelin/contracts/access/Ownable.sol\":1884:1987  function renounceOwnership() public virtual onlyOwner {\r... */\n    tag_19:\n        /* \"@openzeppelin/contracts/access/Ownable.sol\":1129:1142  _checkOwner() */\n      tag_47\n        /* \"@openzeppelin/contracts/access/Ownable.sol\":1129:1140  _checkOwner */\n      tag_48\n        /* \"@openzeppelin/contracts/access/Ownable.sol\":1129:1142  _checkOwner() */\n      jump\t// in\n    tag_47:\n        /* \"@openzeppelin/contracts/access/Ownable.sol\":1949:1979  _transferOwnership(address(0)) */\n      tag_50\n        /* \"@openzeppelin/contracts/access/Ownable.sol\":1976:1977  0 */\n      0x00\n        /* \"@openzeppelin/contracts/access/Ownable.sol\":1949:1967  _transferOwnership */\n      tag_51\n        /* \"@openzeppelin/contracts/access/Ownable.sol\":1949:1979  _transferOwnership(address(0)) */\n      jump\t// in\n    tag_50:\n        /* \"@openzeppelin/contracts/access/Ownable.sol\":1884:1987  function renounceOwnership() public virtual onlyOwner {\r... */\n      jump\t// out\n        /* \"contracts/IShdw.sol\":2215:2520  function updateCeiling(uint256 _newCeiling) external onlyAdmin {... */\n    tag_31:\n        /* \"contracts/IShdw.sol\":741:746  admin */\n      and(0xffffffffffffffffffffffffffffffffffffffff, sload(0x01))\n        /* \"contracts/IShdw.sol\":727:737  msg.sender */\n      caller\n        /* \"contracts/IShdw.sol\":727:746  msg.sender == admin */\n      eq\n        /* \"contracts/IShdw.sol\":719:762  require(msg.sender == admin, \"None admin!\") */\n      tag_54\n      jumpi\n      mload(0x40)\n      0x08c379a000000000000000000000000000000000000000000000000000000000\n      dup2\n      mstore\n        /* \"#utility.yul\":4052:4054   */\n      0x20\n        /* \"contracts/IShdw.sol\":719:762  require(msg.sender == admin, \"None admin!\") */\n      0x04\n      dup3\n      add\n        /* \"#utility.yul\":4034:4055   */\n      mstore\n        /* \"#utility.yul\":4091:4093   */\n      0x0b\n        /* \"#utility.yul\":4071:4089   */\n      0x24\n      dup3\n      add\n        /* \"#utility.yul\":4064:4094   */\n      mstore\n        /* \"#utility.yul\":4130:4143   */\n      0x4e6f6e652061646d696e21000000000000000000000000000000000000000000\n        /* \"#utility.yul\":4110:4128   */\n      0x44\n      dup3\n      add\n        /* \"#utility.yul\":4103:4144   */\n      mstore\n        /* \"#utility.yul\":4161:4179   */\n      0x64\n      add\n        /* \"contracts/IShdw.sol\":719:762  require(msg.sender == admin, \"None admin!\") */\n    tag_55:\n      mload(0x40)\n      dup1\n      swap2\n      sub\n      swap1\n      revert\n    tag_54:\n        /* \"contracts/IShdw.sol\":551:558  1 weeks */\n      0x093a80\n        /* \"contracts/IShdw.sol\":2296:2307  _newCeiling */\n      dup2\n        /* \"contracts/IShdw.sol\":2296:2331  _newCeiling >= MIN_CEILING_DURATION */\n      lt\n      iszero\n        /* \"contracts/IShdw.sol\":2288:2366  require(_newCeiling >= MIN_CEILING_DURATION, \"updateCeiling: Invalid ceiling\") */\n      tag_58\n      jumpi\n      mload(0x40)\n      0x08c379a000000000000000000000000000000000000000000000000000000000\n      dup2\n      mstore\n        /* \"#utility.yul\":3693:3695   */\n      0x20\n        /* \"contracts/IShdw.sol\":2288:2366  require(_newCeiling >= MIN_CEILING_DURATION, \"updateCeiling: Invalid ceiling\") */\n      0x04\n      dup3\n      add\n        /* \"#utility.yul\":3675:3696   */\n      mstore\n        /* \"#utility.yul\":3732:3734   */\n      0x1e\n        /* \"#utility.yul\":3712:3730   */\n      0x24\n      dup3\n      add\n        /* \"#utility.yul\":3705:3735   */\n      mstore\n        /* \"#utility.yul\":3771:3803   */\n      0x7570646174654365696c696e673a20496e76616c6964206365696c696e670000\n        /* \"#utility.yul\":3751:3769   */\n      0x44\n      dup3\n      add\n        /* \"#utility.yul\":3744:3804   */\n      mstore\n        /* \"#utility.yul\":3821:3839   */\n      0x64\n      add\n        /* \"contracts/IShdw.sol\":2288:2366  require(_newCeiling >= MIN_CEILING_DURATION, \"updateCeiling: Invalid ceiling\") */\n      tag_55\n        /* \"#utility.yul\":3665:3845   */\n      jump\n        /* \"contracts/IShdw.sol\":2288:2366  require(_newCeiling >= MIN_CEILING_DURATION, \"updateCeiling: Invalid ceiling\") */\n    tag_58:\n        /* \"contracts/IShdw.sol\":2395:2406  _newCeiling */\n      dup1\n        /* \"contracts/IShdw.sol\":2384:2391  ceiling */\n      sload(0x02)\n        /* \"contracts/IShdw.sol\":2384:2406  ceiling != _newCeiling */\n      eq\n      iszero\n        /* \"contracts/IShdw.sol\":2376:2445  require(ceiling != _newCeiling, \"updateCeiling: Ceiling not changed\") */\n      tag_61\n      jumpi\n      mload(0x40)\n      0x08c379a000000000000000000000000000000000000000000000000000000000\n      dup2\n      mstore\n        /* \"#utility.yul\":2929:2931   */\n      0x20\n        /* \"contracts/IShdw.sol\":2376:2445  require(ceiling != _newCeiling, \"updateCeiling: Ceiling not changed\") */\n      0x04\n      dup3\n      add\n        /* \"#utility.yul\":2911:2932   */\n      mstore\n        /* \"#utility.yul\":2968:2970   */\n      0x22\n        /* \"#utility.yul\":2948:2966   */\n      0x24\n      dup3\n      add\n        /* \"#utility.yul\":2941:2971   */\n      mstore\n        /* \"#utility.yul\":3007:3041   */\n      0x7570646174654365696c696e673a204365696c696e67206e6f74206368616e67\n        /* \"#utility.yul\":2987:3005   */\n      0x44\n      dup3\n      add\n        /* \"#utility.yul\":2980:3042   */\n      mstore\n        /* \"#utility.yul\":3078:3082   */\n      0x6564000000000000000000000000000000000000000000000000000000000000\n        /* \"#utility.yul\":3058:3076   */\n      0x64\n      dup3\n      add\n        /* \"#utility.yul\":3051:3083   */\n      mstore\n        /* \"#utility.yul\":3100:3119   */\n      0x84\n      add\n        /* \"contracts/IShdw.sol\":2376:2445  require(ceiling != _newCeiling, \"updateCeiling: Ceiling not changed\") */\n      tag_55\n        /* \"#utility.yul\":2901:3125   */\n      jump\n        /* \"contracts/IShdw.sol\":2376:2445  require(ceiling != _newCeiling, \"updateCeiling: Ceiling not changed\") */\n    tag_61:\n        /* \"contracts/IShdw.sol\":2455:2462  ceiling */\n      0x02\n        /* \"contracts/IShdw.sol\":2455:2476  ceiling = _newCeiling */\n      dup2\n      swap1\n      sstore\n        /* \"contracts/IShdw.sol\":2491:2513  UpdateCeiling(ceiling) */\n      mload(0x40)\n        /* \"#utility.yul\":4336:4361   */\n      dup2\n      dup2\n      mstore\n        /* \"contracts/IShdw.sol\":2491:2513  UpdateCeiling(ceiling) */\n      0xfb400ea281d5b831cc19858a6fefe7cc8865606ffb709543e3dc56632705708c\n      swap1\n        /* \"#utility.yul\":4324:4326   */\n      0x20\n        /* \"#utility.yul\":4309:4327   */\n      add\n        /* \"contracts/IShdw.sol\":2491:2513  UpdateCeiling(ceiling) */\n      mload(0x40)\n      dup1\n      swap2\n      sub\n      swap1\n      log1\n        /* \"contracts/IShdw.sol\":2215:2520  function updateCeiling(uint256 _newCeiling) external onlyAdmin {... */\n      pop\n      jump\t// out\n        /* \"contracts/IShdw.sol\":1379:2069  function getUserCredit(address _user) external view returns (uint256) {... */\n    tag_35:\n        /* \"contracts/IShdw.sol\":1440:1447  uint256 */\n      0x00\n        /* \"contracts/IShdw.sol\":1467:1486  _user != address(0) */\n      0xffffffffffffffffffffffffffffffffffffffff\n      dup3\n      and\n        /* \"contracts/IShdw.sol\":1459:1521  require(_user != address(0), \"getUserCredit: Invalid address\") */\n      tag_66\n      jumpi\n      mload(0x40)\n      0x08c379a000000000000000000000000000000000000000000000000000000000\n      dup2\n      mstore\n        /* \"#utility.yul\":2570:2572   */\n      0x20\n        /* \"contracts/IShdw.sol\":1459:1521  require(_user != address(0), \"getUserCredit: Invalid address\") */\n      0x04\n      dup3\n      add\n        /* \"#utility.yul\":2552:2573   */\n      mstore\n        /* \"#utility.yul\":2609:2611   */\n      0x1e\n        /* \"#utility.yul\":2589:2607   */\n      0x24\n      dup3\n      add\n        /* \"#utility.yul\":2582:2612   */\n      mstore\n        /* \"#utility.yul\":2648:2680   */\n      0x676574557365724372656469743a20496e76616c696420616464726573730000\n        /* \"#utility.yul\":2628:2646   */\n      0x44\n      dup3\n      add\n        /* \"#utility.yul\":2621:2681   */\n      mstore\n        /* \"#utility.yul\":2698:2716   */\n      0x64\n      add\n        /* \"contracts/IShdw.sol\":1459:1521  require(_user != address(0), \"getUserCredit: Invalid address\") */\n      tag_55\n        /* \"#utility.yul\":2542:2722   */\n      jump\n        /* \"contracts/IShdw.sol\":1459:1521  require(_user != address(0), \"getUserCredit: Invalid address\") */\n    tag_66:\n        /* \"contracts/IShdw.sol\":1569:1593  shdwPool.userInfo(_user) */\n      mload(0x40)\n      0x1959a00200000000000000000000000000000000000000000000000000000000\n      dup2\n      mstore\n        /* \"contracts/IShdw.sol\":1569:1586  shdwPool.userInfo */\n      0xffffffffffffffffffffffffffffffffffffffff\n        /* \"#utility.yul\":1645:1700   */\n      dup4\n      dup2\n      and\n        /* \"contracts/IShdw.sol\":1569:1593  shdwPool.userInfo(_user) */\n      0x04\n      dup4\n      add\n        /* \"#utility.yul\":1627:1701   */\n      mstore\n        /* \"contracts/IShdw.sol\":1532:1566  IShdwPool.UserInfo memory userInfo */\n      0x00\n      swap2\n        /* \"contracts/IShdw.sol\":1569:1577  shdwPool */\n      immutable(\"0xe7fd7ce126c70f58054b2cf4f1546f8c2e514b5731c94dc03f050916d4778ae4\")\n        /* \"contracts/IShdw.sol\":1569:1586  shdwPool.userInfo */\n      swap1\n      swap2\n      and\n      swap1\n      0x1959a002\n      swap1\n        /* \"#utility.yul\":1600:1618   */\n      0x24\n      add\n        /* \"contracts/IShdw.sol\":1569:1593  shdwPool.userInfo(_user) */\n      0x0120\n      mload(0x40)\n      dup1\n      dup4\n      sub\n      dup2\n      dup7\n      dup1\n      extcodesize\n      iszero\n      dup1\n      iszero\n      tag_70\n      jumpi\n      0x00\n      dup1\n      revert\n    tag_70:\n      pop\n      gas\n      staticcall\n      iszero\n      dup1\n      iszero\n      tag_72\n      jumpi\n      returndatasize\n      0x00\n      dup1\n      returndatacopy\n      revert(0x00, returndatasize)\n    tag_72:\n      pop\n      pop\n      pop\n      pop\n      mload(0x40)\n      returndatasize\n      not(0x1f)\n      0x1f\n      dup3\n      add\n      and\n      dup3\n      add\n      dup1\n      0x40\n      mstore\n      pop\n      dup2\n      add\n      swap1\n      tag_73\n      swap2\n      swap1\n      tag_74\n      jump\t// in\n    tag_73:\n        /* \"contracts/IShdw.sol\":1532:1593  IShdwPool.UserInfo memory userInfo = shdwPool.userInfo(_user) */\n      swap1\n      pop\n        /* \"contracts/IShdw.sol\":1609:1617  userInfo */\n      dup1\n        /* \"contracts/IShdw.sol\":1609:1624  userInfo.locked */\n      0xe0\n      add\n      mload\n        /* \"contracts/IShdw.sol\":1608:1624  !userInfo.locked */\n      iszero\n        /* \"contracts/IShdw.sol\":1608:1666  !userInfo.locked || block.timestamp > userInfo.lockEndTime */\n      dup1\n      tag_75\n      jumpi\n      pop\n        /* \"contracts/IShdw.sol\":1646:1654  userInfo */\n      dup1\n        /* \"contracts/IShdw.sol\":1646:1666  userInfo.lockEndTime */\n      0xa0\n      add\n      mload\n        /* \"contracts/IShdw.sol\":1628:1643  block.timestamp */\n      timestamp\n        /* \"contracts/IShdw.sol\":1628:1666  block.timestamp > userInfo.lockEndTime */\n      gt\n        /* \"contracts/IShdw.sol\":1608:1666  !userInfo.locked || block.timestamp > userInfo.lockEndTime */\n    tag_75:\n        /* \"contracts/IShdw.sol\":1604:1701  if (!userInfo.locked || block.timestamp > userInfo.lockEndTime) {... */\n      iszero\n      tag_76\n      jumpi\n      pop\n        /* \"contracts/IShdw.sol\":1689:1690  0 */\n      0x00\n      swap3\n        /* \"contracts/IShdw.sol\":1379:2069  function getUserCredit(address _user) external view returns (uint256) {... */\n      swap2\n      pop\n      pop\n      jump\t// out\n        /* \"contracts/IShdw.sol\":1604:1701  if (!userInfo.locked || block.timestamp > userInfo.lockEndTime) {... */\n    tag_76:\n        /* \"contracts/IShdw.sol\":1758:1778  uint256 lockDuration */\n      0x00\n        /* \"contracts/IShdw.sol\":1781:1829  userInfo.lockEndTime.sub(userInfo.lockStartTime) */\n      tag_77\n        /* \"contracts/IShdw.sol\":1806:1814  userInfo */\n      dup3\n        /* \"contracts/IShdw.sol\":1806:1828  userInfo.lockStartTime */\n      0x80\n      add\n      mload\n        /* \"contracts/IShdw.sol\":1781:1789  userInfo */\n      dup4\n        /* \"contracts/IShdw.sol\":1781:1801  userInfo.lockEndTime */\n      0xa0\n      add\n      mload\n        /* \"contracts/IShdw.sol\":1781:1805  userInfo.lockEndTime.sub */\n      tag_78\n      swap1\n        /* \"contracts/IShdw.sol\":1781:1829  userInfo.lockEndTime.sub(userInfo.lockStartTime) */\n      swap2\n      swap1\n      0xffffffff\n      and\n      jump\t// in\n    tag_77:\n        /* \"contracts/IShdw.sol\":1758:1829  uint256 lockDuration = userInfo.lockEndTime.sub(userInfo.lockStartTime) */\n      swap1\n      pop\n        /* \"contracts/IShdw.sol\":1860:1867  ceiling */\n      sload(0x02)\n        /* \"contracts/IShdw.sol\":1844:1856  lockDuration */\n      dup2\n        /* \"contracts/IShdw.sol\":1844:1867  lockDuration >= ceiling */\n      lt\n        /* \"contracts/IShdw.sol\":1840:2063  if (lockDuration >= ceiling) {... */\n      tag_79\n      jumpi\n      pop\n        /* \"contracts/IShdw.sol\":1890:1911  userInfo.lockedAmount */\n      0x0100\n      add\n      mload\n      swap3\n        /* \"contracts/IShdw.sol\":1379:2069  function getUserCredit(address _user) external view returns (uint256) {... */\n      swap2\n      pop\n      pop\n      jump\t// out\n        /* \"contracts/IShdw.sol\":1840:2063  if (lockDuration >= ceiling) {... */\n    tag_79:\n        /* \"contracts/IShdw.sol\":1947:1954  ceiling */\n      sload(0x02)\n        /* \"contracts/IShdw.sol\":1932:1944  lockDuration */\n      dup2\n        /* \"contracts/IShdw.sol\":1932:1954  lockDuration < ceiling */\n      lt\n        /* \"contracts/IShdw.sol\":1932:1975  lockDuration < ceiling && lockDuration >= 0 */\n      dup1\n      iszero\n      tag_81\n      jumpi\n      pop\n        /* \"contracts/IShdw.sol\":1958:1975  lockDuration >= 0 */\n      0x01\n        /* \"contracts/IShdw.sol\":1932:1975  lockDuration < ceiling && lockDuration >= 0 */\n    tag_81:\n        /* \"contracts/IShdw.sol\":1928:2063  if (lockDuration < ceiling && lockDuration >= 0) {... */\n      iszero\n      tag_82\n      jumpi\n        /* \"contracts/IShdw.sol\":1998:2052  (userInfo.lockedAmount.mul(lockDuration)).div(ceiling) */\n      tag_83\n        /* \"contracts/IShdw.sol\":2044:2051  ceiling */\n      sload(0x02)\n        /* \"contracts/IShdw.sol\":1999:2038  userInfo.lockedAmount.mul(lockDuration) */\n      tag_84\n        /* \"contracts/IShdw.sol\":2025:2037  lockDuration */\n      dup4\n        /* \"contracts/IShdw.sol\":1999:2007  userInfo */\n      dup6\n        /* \"contracts/IShdw.sol\":1999:2020  userInfo.lockedAmount */\n      0x0100\n      add\n      mload\n        /* \"contracts/IShdw.sol\":1999:2024  userInfo.lockedAmount.mul */\n      tag_85\n      swap1\n        /* \"contracts/IShdw.sol\":1999:2038  userInfo.lockedAmount.mul(lockDuration) */\n      swap2\n      swap1\n      0xffffffff\n      and\n      jump\t// in\n    tag_84:\n        /* \"contracts/IShdw.sol\":1998:2043  (userInfo.lockedAmount.mul(lockDuration)).div */\n      swap1\n      tag_86\n        /* \"contracts/IShdw.sol\":1998:2052  (userInfo.lockedAmount.mul(lockDuration)).div(ceiling) */\n      jump\t// in\n    tag_83:\n        /* \"contracts/IShdw.sol\":1991:2052  return (userInfo.lockedAmount.mul(lockDuration)).div(ceiling) */\n      swap5\n        /* \"contracts/IShdw.sol\":1379:2069  function getUserCredit(address _user) external view returns (uint256) {... */\n      swap4\n      pop\n      pop\n      pop\n      pop\n      jump\t// out\n        /* \"contracts/IShdw.sol\":1928:2063  if (lockDuration < ceiling && lockDuration >= 0) {... */\n    tag_82:\n        /* \"contracts/IShdw.sol\":1449:2069  {... */\n      pop\n      pop\n        /* \"contracts/IShdw.sol\":1379:2069  function getUserCredit(address _user) external view returns (uint256) {... */\n      swap2\n      swap1\n      pop\n      jump\t// out\n        /* \"@openzeppelin/contracts/access/Ownable.sol\":2142:2343  function transferOwnership(address newOwner) public virtual onlyOwner {\r... */\n    tag_42:\n        /* \"@openzeppelin/contracts/access/Ownable.sol\":1129:1142  _checkOwner() */\n      tag_88\n        /* \"@openzeppelin/contracts/access/Ownable.sol\":1129:1140  _checkOwner */\n      tag_48\n        /* \"@openzeppelin/contracts/access/Ownable.sol\":1129:1142  _checkOwner() */\n      jump\t// in\n    tag_88:\n        /* \"@openzeppelin/contracts/access/Ownable.sol\":2231:2253  newOwner != address(0) */\n      0xffffffffffffffffffffffffffffffffffffffff\n      dup2\n      and\n        /* \"@openzeppelin/contracts/access/Ownable.sol\":2223:2296  require(newOwner != address(0), \"Ownable: new owner is the zero address\") */\n      tag_90\n      jumpi\n      mload(0x40)\n      0x08c379a000000000000000000000000000000000000000000000000000000000\n      dup2\n      mstore\n        /* \"#utility.yul\":2163:2165   */\n      0x20\n        /* \"@openzeppelin/contracts/access/Ownable.sol\":2223:2296  require(newOwner != address(0), \"Ownable: new owner is the zero address\") */\n      0x04\n      dup3\n      add\n        /* \"#utility.yul\":2145:2166   */\n      mstore\n        /* \"#utility.yul\":2202:2204   */\n      0x26\n        /* \"#utility.yul\":2182:2200   */\n      0x24\n      dup3\n      add\n        /* \"#utility.yul\":2175:2205   */\n      mstore\n        /* \"#utility.yul\":2241:2275   */\n      0x4f776e61626c653a206e6577206f776e657220697320746865207a65726f2061\n        /* \"#utility.yul\":2221:2239   */\n      0x44\n      dup3\n      add\n        /* \"#utility.yul\":2214:2276   */\n      mstore\n        /* \"#utility.yul\":2312:2320   */\n      0x6464726573730000000000000000000000000000000000000000000000000000\n        /* \"#utility.yul\":2292:2310   */\n      0x64\n      dup3\n      add\n        /* \"#utility.yul\":2285:2321   */\n      mstore\n        /* \"#utility.yul\":2338:2357   */\n      0x84\n      add\n        /* \"@openzeppelin/contracts/access/Ownable.sol\":2223:2296  require(newOwner != address(0), \"Ownable: new owner is the zero address\") */\n      tag_55\n        /* \"#utility.yul\":2135:2363   */\n      jump\n        /* \"@openzeppelin/contracts/access/Ownable.sol\":2223:2296  require(newOwner != address(0), \"Ownable: new owner is the zero address\") */\n    tag_90:\n        /* \"@openzeppelin/contracts/access/Ownable.sol\":2307:2335  _transferOwnership(newOwner) */\n      tag_93\n        /* \"@openzeppelin/contracts/access/Ownable.sol\":2326:2334  newOwner */\n      dup2\n        /* \"@openzeppelin/contracts/access/Ownable.sol\":2307:2325  _transferOwnership */\n      tag_51\n        /* \"@openzeppelin/contracts/access/Ownable.sol\":2307:2335  _transferOwnership(newOwner) */\n      jump\t// in\n    tag_93:\n        /* \"@openzeppelin/contracts/access/Ownable.sol\":2142:2343  function transferOwnership(address newOwner) public virtual onlyOwner {\r... */\n      pop\n      jump\t// out\n        /* \"@openzeppelin/contracts/access/Ownable.sol\":1408:1540  function _checkOwner() internal view virtual {\r... */\n    tag_48:\n        /* \"@openzeppelin/contracts/access/Ownable.sol\":1289:1296  address */\n      0x00\n        /* \"@openzeppelin/contracts/access/Ownable.sol\":1316:1322  _owner */\n      sload\n        /* \"@openzeppelin/contracts/access/Ownable.sol\":1472:1495  owner() == _msgSender() */\n      0xffffffffffffffffffffffffffffffffffffffff\n        /* \"@openzeppelin/contracts/access/Ownable.sol\":1316:1322  _owner */\n      and\n        /* \"@openzeppelin/contracts/utils/Context.sol\":719:729  msg.sender */\n      caller\n        /* \"@openzeppelin/contracts/access/Ownable.sol\":1472:1495  owner() == _msgSender() */\n      eq\n        /* \"@openzeppelin/contracts/access/Ownable.sol\":1464:1532  require(owner() == _msgSender(), \"Ownable: caller is not the owner\") */\n      tag_50\n      jumpi\n      mload(0x40)\n      0x08c379a000000000000000000000000000000000000000000000000000000000\n      dup2\n      mstore\n        /* \"#utility.yul\":3332:3334   */\n      0x20\n        /* \"@openzeppelin/contracts/access/Ownable.sol\":1464:1532  require(owner() == _msgSender(), \"Ownable: caller is not the owner\") */\n      0x04\n      dup3\n      add\n        /* \"#utility.yul\":3314:3335   */\n      dup2\n      swap1\n      mstore\n        /* \"#utility.yul\":3351:3369   */\n      0x24\n      dup3\n      add\n        /* \"#utility.yul\":3344:3374   */\n      mstore\n        /* \"#utility.yul\":3410:3444   */\n      0x4f776e61626c653a2063616c6c6572206973206e6f7420746865206f776e6572\n        /* \"#utility.yul\":3390:3408   */\n      0x44\n      dup3\n      add\n        /* \"#utility.yul\":3383:3445   */\n      mstore\n        /* \"#utility.yul\":3462:3480   */\n      0x64\n      add\n        /* \"@openzeppelin/contracts/access/Ownable.sol\":1464:1532  require(owner() == _msgSender(), \"Ownable: caller is not the owner\") */\n      tag_55\n        /* \"#utility.yul\":3304:3486   */\n      jump\n        /* \"@openzeppelin/contracts/access/Ownable.sol\":2503:2694  function _transferOwnership(address newOwner) internal virtual {\r... */\n    tag_51:\n        /* \"@openzeppelin/contracts/access/Ownable.sol\":2577:2593  address oldOwner */\n      0x00\n        /* \"@openzeppelin/contracts/access/Ownable.sol\":2596:2602  _owner */\n      dup1\n      sload\n      0xffffffffffffffffffffffffffffffffffffffff\n        /* \"@openzeppelin/contracts/access/Ownable.sol\":2613:2630  _owner = newOwner */\n      dup4\n      dup2\n      and\n      0xffffffffffffffffffffffff0000000000000000000000000000000000000000\n      dup4\n      and\n      dup2\n      or\n      dup5\n      sstore\n        /* \"@openzeppelin/contracts/access/Ownable.sol\":2646:2686  OwnershipTransferred(oldOwner, newOwner) */\n      mload(0x40)\n        /* \"@openzeppelin/contracts/access/Ownable.sol\":2596:2602  _owner */\n      swap2\n      swap1\n      swap3\n      and\n      swap3\n      dup4\n      swap2\n        /* \"@openzeppelin/contracts/access/Ownable.sol\":2646:2686  OwnershipTransferred(oldOwner, newOwner) */\n      0x8be0079c531659141344cd1fd0a4f28419497f9722a3daafe3b4186f6b6457e0\n      swap2\n        /* \"@openzeppelin/contracts/access/Ownable.sol\":2577:2593  address oldOwner */\n      swap1\n        /* \"@openzeppelin/contracts/access/Ownable.sol\":2646:2686  OwnershipTransferred(oldOwner, newOwner) */\n      log3\n        /* \"@openzeppelin/contracts/access/Ownable.sol\":2566:2694  {\r... */\n      pop\n        /* \"@openzeppelin/contracts/access/Ownable.sol\":2503:2694  function _transferOwnership(address newOwner) internal virtual {\r... */\n      pop\n      jump\t// out\n        /* \"@openzeppelin/contracts/utils/math/SafeMath.sol\":3122:3218  function sub(uint256 a, uint256 b) internal pure returns (uint256) {... */\n    tag_78:\n        /* \"@openzeppelin/contracts/utils/math/SafeMath.sol\":3180:3187  uint256 */\n      0x00\n        /* \"@openzeppelin/contracts/utils/math/SafeMath.sol\":3206:3211  a - b */\n      tag_103\n        /* \"@openzeppelin/contracts/utils/math/SafeMath.sol\":3210:3211  b */\n      dup3\n        /* \"@openzeppelin/contracts/utils/math/SafeMath.sol\":3206:3207  a */\n      dup5\n        /* \"@openzeppelin/contracts/utils/math/SafeMath.sol\":3206:3211  a - b */\n      tag_104\n      jump\t// in\n    tag_103:\n        /* \"@openzeppelin/contracts/utils/math/SafeMath.sol\":3199:3211  return a - b */\n      swap4\n        /* \"@openzeppelin/contracts/utils/math/SafeMath.sol\":3122:3218  function sub(uint256 a, uint256 b) internal pure returns (uint256) {... */\n      swap3\n      pop\n      pop\n      pop\n      jump\t// out\n        /* \"@openzeppelin/contracts/utils/math/SafeMath.sol\":3465:3561  function mul(uint256 a, uint256 b) internal pure returns (uint256) {... */\n    tag_85:\n        /* \"@openzeppelin/contracts/utils/math/SafeMath.sol\":3523:3530  uint256 */\n      0x00\n        /* \"@openzeppelin/contracts/utils/math/SafeMath.sol\":3549:3554  a * b */\n      tag_103\n        /* \"@openzeppelin/contracts/utils/math/SafeMath.sol\":3553:3554  b */\n      dup3\n        /* \"@openzeppelin/contracts/utils/math/SafeMath.sol\":3549:3550  a */\n      dup5\n        /* \"@openzeppelin/contracts/utils/math/SafeMath.sol\":3549:3554  a * b */\n      tag_107\n      jump\t// in\n        /* \"@openzeppelin/contracts/utils/math/SafeMath.sol\":3850:3946  function div(uint256 a, uint256 b) internal pure returns (uint256) {... */\n    tag_86:\n        /* \"@openzeppelin/contracts/utils/math/SafeMath.sol\":3908:3915  uint256 */\n      0x00\n        /* \"@openzeppelin/contracts/utils/math/SafeMath.sol\":3934:3939  a / b */\n      tag_103\n        /* \"@openzeppelin/contracts/utils/math/SafeMath.sol\":3938:3939  b */\n      dup3\n        /* \"@openzeppelin/contracts/utils/math/SafeMath.sol\":3934:3935  a */\n      dup5\n        /* \"@openzeppelin/contracts/utils/math/SafeMath.sol\":3934:3939  a / b */\n      tag_110\n      jump\t// in\n        /* \"#utility.yul\":14:178   */\n    tag_113:\n        /* \"#utility.yul\":90:103   */\n      dup1\n      mload\n        /* \"#utility.yul\":139:152   */\n      dup1\n      iszero\n        /* \"#utility.yul\":132:153   */\n      iszero\n        /* \"#utility.yul\":122:154   */\n      dup2\n      eq\n        /* \"#utility.yul\":112:114   */\n      tag_115\n      jumpi\n        /* \"#utility.yul\":168:169   */\n      0x00\n        /* \"#utility.yul\":165:166   */\n      dup1\n        /* \"#utility.yul\":158:170   */\n      revert\n        /* \"#utility.yul\":112:114   */\n    tag_115:\n        /* \"#utility.yul\":71:178   */\n      swap2\n      swap1\n      pop\n      jump\t// out\n        /* \"#utility.yul\":183:492   */\n    tag_34:\n        /* \"#utility.yul\":242:248   */\n      0x00\n        /* \"#utility.yul\":295:297   */\n      0x20\n        /* \"#utility.yul\":283:292   */\n      dup3\n        /* \"#utility.yul\":274:281   */\n      dup5\n        /* \"#utility.yul\":270:293   */\n      sub\n        /* \"#utility.yul\":266:298   */\n      slt\n        /* \"#utility.yul\":263:265   */\n      iszero\n      tag_117\n      jumpi\n        /* \"#utility.yul\":311:312   */\n      0x00\n        /* \"#utility.yul\":308:309   */\n      dup1\n        /* \"#utility.yul\":301:313   */\n      revert\n        /* \"#utility.yul\":263:265   */\n    tag_117:\n        /* \"#utility.yul\":350:359   */\n      dup2\n        /* \"#utility.yul\":337:360   */\n      calldataload\n        /* \"#utility.yul\":400:442   */\n      0xffffffffffffffffffffffffffffffffffffffff\n        /* \"#utility.yul\":393:398   */\n      dup2\n        /* \"#utility.yul\":389:443   */\n      and\n        /* \"#utility.yul\":382:387   */\n      dup2\n        /* \"#utility.yul\":379:444   */\n      eq\n        /* \"#utility.yul\":369:371   */\n      tag_103\n      jumpi\n        /* \"#utility.yul\":458:459   */\n      0x00\n        /* \"#utility.yul\":455:456   */\n      dup1\n        /* \"#utility.yul\":448:460   */\n      revert\n        /* \"#utility.yul\":497:1291   */\n    tag_74:\n        /* \"#utility.yul\":593:599   */\n      0x00\n        /* \"#utility.yul\":646:649   */\n      0x0120\n        /* \"#utility.yul\":634:643   */\n      dup3\n        /* \"#utility.yul\":625:632   */\n      dup5\n        /* \"#utility.yul\":621:644   */\n      sub\n        /* \"#utility.yul\":617:650   */\n      slt\n        /* \"#utility.yul\":614:616   */\n      iszero\n      tag_120\n      jumpi\n        /* \"#utility.yul\":663:664   */\n      0x00\n        /* \"#utility.yul\":660:661   */\n      dup1\n        /* \"#utility.yul\":653:665   */\n      revert\n        /* \"#utility.yul\":614:616   */\n    tag_120:\n        /* \"#utility.yul\":689:706   */\n      tag_121\n      tag_122\n      jump\t// in\n    tag_121:\n        /* \"#utility.yul\":735:744   */\n      dup3\n        /* \"#utility.yul\":729:745   */\n      mload\n        /* \"#utility.yul\":722:727   */\n      dup2\n        /* \"#utility.yul\":715:746   */\n      mstore\n        /* \"#utility.yul\":799:801   */\n      0x20\n        /* \"#utility.yul\":788:797   */\n      dup4\n        /* \"#utility.yul\":784:802   */\n      add\n        /* \"#utility.yul\":778:803   */\n      mload\n        /* \"#utility.yul\":773:775   */\n      0x20\n        /* \"#utility.yul\":766:771   */\n      dup3\n        /* \"#utility.yul\":762:776   */\n      add\n        /* \"#utility.yul\":755:804   */\n      mstore\n        /* \"#utility.yul\":857:859   */\n      0x40\n        /* \"#utility.yul\":846:855   */\n      dup4\n        /* \"#utility.yul\":842:860   */\n      add\n        /* \"#utility.yul\":836:861   */\n      mload\n        /* \"#utility.yul\":831:833   */\n      0x40\n        /* \"#utility.yul\":824:829   */\n      dup3\n        /* \"#utility.yul\":820:834   */\n      add\n        /* \"#utility.yul\":813:862   */\n      mstore\n        /* \"#utility.yul\":915:917   */\n      0x60\n        /* \"#utility.yul\":904:913   */\n      dup4\n        /* \"#utility.yul\":900:918   */\n      add\n        /* \"#utility.yul\":894:919   */\n      mload\n        /* \"#utility.yul\":889:891   */\n      0x60\n        /* \"#utility.yul\":882:887   */\n      dup3\n        /* \"#utility.yul\":878:892   */\n      add\n        /* \"#utility.yul\":871:920   */\n      mstore\n        /* \"#utility.yul\":974:977   */\n      0x80\n        /* \"#utility.yul\":963:972   */\n      dup4\n        /* \"#utility.yul\":959:978   */\n      add\n        /* \"#utility.yul\":953:979   */\n      mload\n        /* \"#utility.yul\":947:950   */\n      0x80\n        /* \"#utility.yul\":940:945   */\n      dup3\n        /* \"#utility.yul\":936:951   */\n      add\n        /* \"#utility.yul\":929:980   */\n      mstore\n        /* \"#utility.yul\":1034:1037   */\n      0xa0\n        /* \"#utility.yul\":1023:1032   */\n      dup4\n        /* \"#utility.yul\":1019:1038   */\n      add\n        /* \"#utility.yul\":1013:1039   */\n      mload\n        /* \"#utility.yul\":1007:1010   */\n      0xa0\n        /* \"#utility.yul\":1000:1005   */\n      dup3\n        /* \"#utility.yul\":996:1011   */\n      add\n        /* \"#utility.yul\":989:1040   */\n      mstore\n        /* \"#utility.yul\":1094:1097   */\n      0xc0\n        /* \"#utility.yul\":1083:1092   */\n      dup4\n        /* \"#utility.yul\":1079:1098   */\n      add\n        /* \"#utility.yul\":1073:1099   */\n      mload\n        /* \"#utility.yul\":1067:1070   */\n      0xc0\n        /* \"#utility.yul\":1060:1065   */\n      dup3\n        /* \"#utility.yul\":1056:1071   */\n      add\n        /* \"#utility.yul\":1049:1100   */\n      mstore\n        /* \"#utility.yul\":1133:1180   */\n      tag_123\n        /* \"#utility.yul\":1175:1178   */\n      0xe0\n        /* \"#utility.yul\":1164:1173   */\n      dup5\n        /* \"#utility.yul\":1160:1179   */\n      add\n        /* \"#utility.yul\":1133:1180   */\n      tag_113\n      jump\t// in\n    tag_123:\n        /* \"#utility.yul\":1127:1130   */\n      0xe0\n        /* \"#utility.yul\":1116:1131   */\n      dup3\n      add\n        /* \"#utility.yul\":1109:1181   */\n      mstore\n        /* \"#utility.yul\":1200:1203   */\n      0x0100\n        /* \"#utility.yul\":1241:1259   */\n      swap3\n      dup4\n      add\n        /* \"#utility.yul\":1235:1260   */\n      mload\n        /* \"#utility.yul\":1219:1233   */\n      swap3\n      dup2\n      add\n        /* \"#utility.yul\":1212:1261   */\n      swap3\n      swap1\n      swap3\n      mstore\n      pop\n        /* \"#utility.yul\":1120:1125   */\n      swap2\n        /* \"#utility.yul\":604:1291   */\n      swap1\n      pop\n      jump\t// out\n        /* \"#utility.yul\":1296:1476   */\n    tag_30:\n        /* \"#utility.yul\":1355:1361   */\n      0x00\n        /* \"#utility.yul\":1408:1410   */\n      0x20\n        /* \"#utility.yul\":1396:1405   */\n      dup3\n        /* \"#utility.yul\":1387:1394   */\n      dup5\n        /* \"#utility.yul\":1383:1406   */\n      sub\n        /* \"#utility.yul\":1379:1411   */\n      slt\n        /* \"#utility.yul\":1376:1378   */\n      iszero\n      tag_125\n      jumpi\n        /* \"#utility.yul\":1424:1425   */\n      0x00\n        /* \"#utility.yul\":1421:1422   */\n      dup1\n        /* \"#utility.yul\":1414:1426   */\n      revert\n        /* \"#utility.yul\":1376:1378   */\n    tag_125:\n      pop\n        /* \"#utility.yul\":1447:1470   */\n      calldataload\n      swap2\n        /* \"#utility.yul\":1366:1476   */\n      swap1\n      pop\n      jump\t// out\n        /* \"#utility.yul\":4372:4773   */\n    tag_122:\n        /* \"#utility.yul\":4439:4441   */\n      0x40\n        /* \"#utility.yul\":4433:4442   */\n      mload\n        /* \"#utility.yul\":4481:4484   */\n      0x0120\n        /* \"#utility.yul\":4469:4485   */\n      dup2\n      add\n        /* \"#utility.yul\":4515:4533   */\n      0xffffffffffffffff\n        /* \"#utility.yul\":4500:4534   */\n      dup2\n      gt\n        /* \"#utility.yul\":4536:4558   */\n      dup3\n      dup3\n      lt\n        /* \"#utility.yul\":4497:4559   */\n      or\n        /* \"#utility.yul\":4494:4496   */\n      iszero\n      tag_136\n      jumpi\n        /* \"#utility.yul\":4592:4669   */\n      0x4e487b7100000000000000000000000000000000000000000000000000000000\n        /* \"#utility.yul\":4589:4590   */\n      0x00\n        /* \"#utility.yul\":4582:4670   */\n      mstore\n        /* \"#utility.yul\":4693:4697   */\n      0x41\n        /* \"#utility.yul\":4690:4691   */\n      0x04\n        /* \"#utility.yul\":4683:4698   */\n      mstore\n        /* \"#utility.yul\":4721:4725   */\n      0x24\n        /* \"#utility.yul\":4718:4719   */\n      0x00\n        /* \"#utility.yul\":4711:4726   */\n      revert\n        /* \"#utility.yul\":4494:4496   */\n    tag_136:\n        /* \"#utility.yul\":4752:4754   */\n      0x40\n        /* \"#utility.yul\":4745:4767   */\n      mstore\n        /* \"#utility.yul\":4413:4773   */\n      swap1\n      jump\t// out\n        /* \"#utility.yul\":4778:5052   */\n    tag_110:\n        /* \"#utility.yul\":4818:4819   */\n      0x00\n        /* \"#utility.yul\":4844:4845   */\n      dup3\n        /* \"#utility.yul\":4834:4836   */\n      tag_138\n      jumpi\n        /* \"#utility.yul\":4879:4956   */\n      0x4e487b7100000000000000000000000000000000000000000000000000000000\n        /* \"#utility.yul\":4876:4877   */\n      0x00\n        /* \"#utility.yul\":4869:4957   */\n      mstore\n        /* \"#utility.yul\":4980:4984   */\n      0x12\n        /* \"#utility.yul\":4977:4978   */\n      0x04\n        /* \"#utility.yul\":4970:4985   */\n      mstore\n        /* \"#utility.yul\":5008:5012   */\n      0x24\n        /* \"#utility.yul\":5005:5006   */\n      0x00\n        /* \"#utility.yul\":4998:5013   */\n      revert\n        /* \"#utility.yul\":4834:4836   */\n    tag_138:\n      pop\n        /* \"#utility.yul\":5037:5046   */\n      div\n      swap1\n        /* \"#utility.yul\":4824:5052   */\n      jump\t// out\n        /* \"#utility.yul\":5057:5285   */\n    tag_107:\n        /* \"#utility.yul\":5097:5104   */\n      0x00\n        /* \"#utility.yul\":5223:5224   */\n      dup2\n        /* \"#utility.yul\":5155:5221   */\n      0xffffffffffffffffffffffffffffffffffffffffffffffffffffffffffffffff\n        /* \"#utility.yul\":5151:5225   */\n      div\n        /* \"#utility.yul\":5148:5149   */\n      dup4\n        /* \"#utility.yul\":5145:5226   */\n      gt\n        /* \"#utility.yul\":5140:5141   */\n      dup3\n        /* \"#utility.yul\":5133:5142   */\n      iszero\n        /* \"#utility.yul\":5126:5143   */\n      iszero\n        /* \"#utility.yul\":5122:5227   */\n      and\n        /* \"#utility.yul\":5119:5121   */\n      iszero\n      tag_141\n      jumpi\n        /* \"#utility.yul\":5230:5248   */\n      tag_141\n      tag_142\n      jump\t// in\n    tag_141:\n      pop\n        /* \"#utility.yul\":5270:5279   */\n      mul\n      swap1\n        /* \"#utility.yul\":5109:5285   */\n      jump\t// out\n        /* \"#utility.yul\":5290:5415   */\n    tag_104:\n        /* \"#utility.yul\":5330:5334   */\n      0x00\n        /* \"#utility.yul\":5358:5359   */\n      dup3\n        /* \"#utility.yul\":5355:5356   */\n      dup3\n        /* \"#utility.yul\":5352:5360   */\n      lt\n        /* \"#utility.yul\":5349:5351   */\n      iszero\n      tag_145\n      jumpi\n        /* \"#utility.yul\":5363:5381   */\n      tag_145\n      tag_142\n      jump\t// in\n    tag_145:\n      pop\n        /* \"#utility.yul\":5400:5409   */\n      sub\n      swap1\n        /* \"#utility.yul\":5339:5415   */\n      jump\t// out\n        /* \"#utility.yul\":5420:5604   */\n    tag_142:\n        /* \"#utility.yul\":5472:5549   */\n      0x4e487b7100000000000000000000000000000000000000000000000000000000\n        /* \"#utility.yul\":5469:5470   */\n      0x00\n        /* \"#utility.yul\":5462:5550   */\n      mstore\n        /* \"#utility.yul\":5569:5573   */\n      0x11\n        /* \"#utility.yul\":5566:5567   */\n      0x04\n        /* \"#utility.yul\":5559:5574   */\n      mstore\n        /* \"#utility.yul\":5593:5597   */\n      0x24\n        /* \"#utility.yul\":5590:5591   */\n      0x00\n        /* \"#utility.yul\":5583:5598   */\n      revert\n\n    auxdata: 0xa26469706673582212205cdb7e623abaa79a180dafe03301d6d4662011c120ded94f41d751bae3c6197c64736f6c63430008050033\n}\n",
				"bytecode": {
					"linkReferences": {},
					"object": "60a060405234801561001057600080fd5b50604051610aec380380610aec83398101604081905261002f9161011a565b610038336100ca565b62093a8081101561008f5760405162461bcd60e51b815260206004820152601860248201527f496e76616c6964206365696c696e67206475726174696f6e0000000000000000604482015260640160405180910390fd5b60609290921b6001600160601b031916608052600180546001600160a01b0319166001600160a01b0392909216919091179055600255610175565b600080546001600160a01b038381166001600160a01b0319831681178455604051919092169283917f8be0079c531659141344cd1fd0a4f28419497f9722a3daafe3b4186f6b6457e09190a35050565b60008060006060848603121561012f57600080fd5b835161013a8161015d565b602085015190935061014b8161015d565b80925050604084015190509250925092565b6001600160a01b038116811461017257600080fd5b50565b60805160601c6109536101996000396000818160ad015261043601526109536000f3fe608060405234801561001057600080fd5b50600436106100a35760003560e01c8063b1463a6a11610076578063f0be070c1161005b578063f0be070c1461015e578063f2fde38b14610168578063f851a4401461017b57600080fd5b8063b1463a6a14610138578063dad6f0dc1461014b57600080fd5b806341873acd146100a8578063715018a6146100f9578063753ed1bd146101035780638da5cb5b1461011a575b600080fd5b6100cf7f000000000000000000000000000000000000000000000000000000000000000081565b60405173ffffffffffffffffffffffffffffffffffffffff90911681526020015b60405180910390f35b61010161019b565b005b61010c60025481565b6040519081526020016100f0565b60005473ffffffffffffffffffffffffffffffffffffffff166100cf565b6101016101463660046107f5565b6101af565b61010c61015936600461073f565b61036f565b61010c62093a8081565b61010161017636600461073f565b610552565b6001546100cf9073ffffffffffffffffffffffffffffffffffffffff1681565b6101a3610609565b6101ad600061068a565b565b60015473ffffffffffffffffffffffffffffffffffffffff163314610235576040517f08c379a000000000000000000000000000000000000000000000000000000000815260206004820152600b60248201527f4e6f6e652061646d696e2100000000000000000000000000000000000000000060448201526064015b60405180910390fd5b62093a808110156102a2576040517f08c379a000000000000000000000000000000000000000000000000000000000815260206004820152601e60248201527f7570646174654365696c696e673a20496e76616c6964206365696c696e670000604482015260640161022c565b806002541415610334576040517f08c379a000000000000000000000000000000000000000000000000000000000815260206004820152602260248201527f7570646174654365696c696e673a204365696c696e67206e6f74206368616e6760448201527f6564000000000000000000000000000000000000000000000000000000000000606482015260840161022c565b60028190556040518181527ffb400ea281d5b831cc19858a6fefe7cc8865606ffb709543e3dc56632705708c9060200160405180910390a150565b600073ffffffffffffffffffffffffffffffffffffffff82166103ee576040517f08c379a000000000000000000000000000000000000000000000000000000000815260206004820152601e60248201527f676574557365724372656469743a20496e76616c696420616464726573730000604482015260640161022c565b6040517f1959a00200000000000000000000000000000000000000000000000000000000815273ffffffffffffffffffffffffffffffffffffffff83811660048301526000917f000000000000000000000000000000000000000000000000000000000000000090911690631959a002906024016101206040518083038186803b15801561047b57600080fd5b505afa15801561048f573d6000803e3d6000fd5b505050506040513d601f19601f820116820180604052508101906104b39190610775565b90508060e0015115806104c957508060a0015142115b156104d75750600092915050565b60006104f482608001518360a001516106ff90919063ffffffff16565b9050600254811061050b5750610100015192915050565b6002548110801561051a575060015b1561054b5761054360025461053d8385610100015161071290919063ffffffff16565b9061071e565b949350505050565b5050919050565b61055a610609565b73ffffffffffffffffffffffffffffffffffffffff81166105fd576040517f08c379a000000000000000000000000000000000000000000000000000000000815260206004820152602660248201527f4f776e61626c653a206e6577206f776e657220697320746865207a65726f206160448201527f6464726573730000000000000000000000000000000000000000000000000000606482015260840161022c565b6106068161068a565b50565b60005473ffffffffffffffffffffffffffffffffffffffff1633146101ad576040517f08c379a000000000000000000000000000000000000000000000000000000000815260206004820181905260248201527f4f776e61626c653a2063616c6c6572206973206e6f7420746865206f776e6572604482015260640161022c565b6000805473ffffffffffffffffffffffffffffffffffffffff8381167fffffffffffffffffffffffff0000000000000000000000000000000000000000831681178455604051919092169283917f8be0079c531659141344cd1fd0a4f28419497f9722a3daafe3b4186f6b6457e09190a35050565b600061070b82846108d7565b9392505050565b600061070b828461089a565b600061070b828461085f565b8051801515811461073a57600080fd5b919050565b60006020828403121561075157600080fd5b813573ffffffffffffffffffffffffffffffffffffffff8116811461070b57600080fd5b6000610120828403121561078857600080fd5b61079061080e565b825181526020830151602082015260408301516040820152606083015160608201526080830151608082015260a083015160a082015260c083015160c08201526107dc60e0840161072a565b60e0820152610100928301519281019290925250919050565b60006020828403121561080757600080fd5b5035919050565b604051610120810167ffffffffffffffff81118282101715610859577f4e487b7100000000000000000000000000000000000000000000000000000000600052604160045260246000fd5b60405290565b600082610895577f4e487b7100000000000000000000000000000000000000000000000000000000600052601260045260246000fd5b500490565b6000817fffffffffffffffffffffffffffffffffffffffffffffffffffffffffffffffff04831182151516156108d2576108d26108ee565b500290565b6000828210156108e9576108e96108ee565b500390565b7f4e487b7100000000000000000000000000000000000000000000000000000000600052601160045260246000fdfea26469706673582212205cdb7e623abaa79a180dafe03301d6d4662011c120ded94f41d751bae3c6197c64736f6c63430008050033",
					"opcodes": "PUSH1 0xA0 PUSH1 0x40 MSTORE CALLVALUE DUP1 ISZERO PUSH2 0x10 JUMPI PUSH1 0x0 DUP1 REVERT JUMPDEST POP PUSH1 0x40 MLOAD PUSH2 0xAEC CODESIZE SUB DUP1 PUSH2 0xAEC DUP4 CODECOPY DUP2 ADD PUSH1 0x40 DUP2 SWAP1 MSTORE PUSH2 0x2F SWAP2 PUSH2 0x11A JUMP JUMPDEST PUSH2 0x38 CALLER PUSH2 0xCA JUMP JUMPDEST PUSH3 0x93A80 DUP2 LT ISZERO PUSH2 0x8F JUMPI PUSH1 0x40 MLOAD PUSH3 0x461BCD PUSH1 0xE5 SHL DUP2 MSTORE PUSH1 0x20 PUSH1 0x4 DUP3 ADD MSTORE PUSH1 0x18 PUSH1 0x24 DUP3 ADD MSTORE PUSH32 0x496E76616C6964206365696C696E67206475726174696F6E0000000000000000 PUSH1 0x44 DUP3 ADD MSTORE PUSH1 0x64 ADD PUSH1 0x40 MLOAD DUP1 SWAP2 SUB SWAP1 REVERT JUMPDEST PUSH1 0x60 SWAP3 SWAP1 SWAP3 SHL PUSH1 0x1 PUSH1 0x1 PUSH1 0x60 SHL SUB NOT AND PUSH1 0x80 MSTORE PUSH1 0x1 DUP1 SLOAD PUSH1 0x1 PUSH1 0x1 PUSH1 0xA0 SHL SUB NOT AND PUSH1 0x1 PUSH1 0x1 PUSH1 0xA0 SHL SUB SWAP3 SWAP1 SWAP3 AND SWAP2 SWAP1 SWAP2 OR SWAP1 SSTORE PUSH1 0x2 SSTORE PUSH2 0x175 JUMP JUMPDEST PUSH1 0x0 DUP1 SLOAD PUSH1 0x1 PUSH1 0x1 PUSH1 0xA0 SHL SUB DUP4 DUP2 AND PUSH1 0x1 PUSH1 0x1 PUSH1 0xA0 SHL SUB NOT DUP4 AND DUP2 OR DUP5 SSTORE PUSH1 0x40 MLOAD SWAP2 SWAP1 SWAP3 AND SWAP3 DUP4 SWAP2 PUSH32 0x8BE0079C531659141344CD1FD0A4F28419497F9722A3DAAFE3B4186F6B6457E0 SWAP2 SWAP1 LOG3 POP POP JUMP JUMPDEST PUSH1 0x0 DUP1 PUSH1 0x0 PUSH1 0x60 DUP5 DUP7 SUB SLT ISZERO PUSH2 0x12F JUMPI PUSH1 0x0 DUP1 REVERT JUMPDEST DUP4 MLOAD PUSH2 0x13A DUP2 PUSH2 0x15D JUMP JUMPDEST PUSH1 0x20 DUP6 ADD MLOAD SWAP1 SWAP4 POP PUSH2 0x14B DUP2 PUSH2 0x15D JUMP JUMPDEST DUP1 SWAP3 POP POP PUSH1 0x40 DUP5 ADD MLOAD SWAP1 POP SWAP3 POP SWAP3 POP SWAP3 JUMP JUMPDEST PUSH1 0x1 PUSH1 0x1 PUSH1 0xA0 SHL SUB DUP2 AND DUP2 EQ PUSH2 0x172 JUMPI PUSH1 0x0 DUP1 REVERT JUMPDEST POP JUMP JUMPDEST PUSH1 0x80 MLOAD PUSH1 0x60 SHR PUSH2 0x953 PUSH2 0x199 PUSH1 0x0 CODECOPY PUSH1 0x0 DUP2 DUP2 PUSH1 0xAD ADD MSTORE PUSH2 0x436 ADD MSTORE PUSH2 0x953 PUSH1 0x0 RETURN INVALID PUSH1 0x80 PUSH1 0x40 MSTORE CALLVALUE DUP1 ISZERO PUSH2 0x10 JUMPI PUSH1 0x0 DUP1 REVERT JUMPDEST POP PUSH1 0x4 CALLDATASIZE LT PUSH2 0xA3 JUMPI PUSH1 0x0 CALLDATALOAD PUSH1 0xE0 SHR DUP1 PUSH4 0xB1463A6A GT PUSH2 0x76 JUMPI DUP1 PUSH4 0xF0BE070C GT PUSH2 0x5B JUMPI DUP1 PUSH4 0xF0BE070C EQ PUSH2 0x15E JUMPI DUP1 PUSH4 0xF2FDE38B EQ PUSH2 0x168 JUMPI DUP1 PUSH4 0xF851A440 EQ PUSH2 0x17B JUMPI PUSH1 0x0 DUP1 REVERT JUMPDEST DUP1 PUSH4 0xB1463A6A EQ PUSH2 0x138 JUMPI DUP1 PUSH4 0xDAD6F0DC EQ PUSH2 0x14B JUMPI PUSH1 0x0 DUP1 REVERT JUMPDEST DUP1 PUSH4 0x41873ACD EQ PUSH2 0xA8 JUMPI DUP1 PUSH4 0x715018A6 EQ PUSH2 0xF9 JUMPI DUP1 PUSH4 0x753ED1BD EQ PUSH2 0x103 JUMPI DUP1 PUSH4 0x8DA5CB5B EQ PUSH2 0x11A JUMPI JUMPDEST PUSH1 0x0 DUP1 REVERT JUMPDEST PUSH2 0xCF PUSH32 0x0 DUP2 JUMP JUMPDEST PUSH1 0x40 MLOAD PUSH20 0xFFFFFFFFFFFFFFFFFFFFFFFFFFFFFFFFFFFFFFFF SWAP1 SWAP2 AND DUP2 MSTORE PUSH1 0x20 ADD JUMPDEST PUSH1 0x40 MLOAD DUP1 SWAP2 SUB SWAP1 RETURN JUMPDEST PUSH2 0x101 PUSH2 0x19B JUMP JUMPDEST STOP JUMPDEST PUSH2 0x10C PUSH1 0x2 SLOAD DUP2 JUMP JUMPDEST PUSH1 0x40 MLOAD SWAP1 DUP2 MSTORE PUSH1 0x20 ADD PUSH2 0xF0 JUMP JUMPDEST PUSH1 0x0 SLOAD PUSH20 0xFFFFFFFFFFFFFFFFFFFFFFFFFFFFFFFFFFFFFFFF AND PUSH2 0xCF JUMP JUMPDEST PUSH2 0x101 PUSH2 0x146 CALLDATASIZE PUSH1 0x4 PUSH2 0x7F5 JUMP JUMPDEST PUSH2 0x1AF JUMP JUMPDEST PUSH2 0x10C PUSH2 0x159 CALLDATASIZE PUSH1 0x4 PUSH2 0x73F JUMP JUMPDEST PUSH2 0x36F JUMP JUMPDEST PUSH2 0x10C PUSH3 0x93A80 DUP2 JUMP JUMPDEST PUSH2 0x101 PUSH2 0x176 CALLDATASIZE PUSH1 0x4 PUSH2 0x73F JUMP JUMPDEST PUSH2 0x552 JUMP JUMPDEST PUSH1 0x1 SLOAD PUSH2 0xCF SWAP1 PUSH20 0xFFFFFFFFFFFFFFFFFFFFFFFFFFFFFFFFFFFFFFFF AND DUP2 JUMP JUMPDEST PUSH2 0x1A3 PUSH2 0x609 JUMP JUMPDEST PUSH2 0x1AD PUSH1 0x0 PUSH2 0x68A JUMP JUMPDEST JUMP JUMPDEST PUSH1 0x1 SLOAD PUSH20 0xFFFFFFFFFFFFFFFFFFFFFFFFFFFFFFFFFFFFFFFF AND CALLER EQ PUSH2 0x235 JUMPI PUSH1 0x40 MLOAD PUSH32 0x8C379A000000000000000000000000000000000000000000000000000000000 DUP2 MSTORE PUSH1 0x20 PUSH1 0x4 DUP3 ADD MSTORE PUSH1 0xB PUSH1 0x24 DUP3 ADD MSTORE PUSH32 0x4E6F6E652061646D696E21000000000000000000000000000000000000000000 PUSH1 0x44 DUP3 ADD MSTORE PUSH1 0x64 ADD JUMPDEST PUSH1 0x40 MLOAD DUP1 SWAP2 SUB SWAP1 REVERT JUMPDEST PUSH3 0x93A80 DUP2 LT ISZERO PUSH2 0x2A2 JUMPI PUSH1 0x40 MLOAD PUSH32 0x8C379A000000000000000000000000000000000000000000000000000000000 DUP2 MSTORE PUSH1 0x20 PUSH1 0x4 DUP3 ADD MSTORE PUSH1 0x1E PUSH1 0x24 DUP3 ADD MSTORE PUSH32 0x7570646174654365696C696E673A20496E76616C6964206365696C696E670000 PUSH1 0x44 DUP3 ADD MSTORE PUSH1 0x64 ADD PUSH2 0x22C JUMP JUMPDEST DUP1 PUSH1 0x2 SLOAD EQ ISZERO PUSH2 0x334 JUMPI PUSH1 0x40 MLOAD PUSH32 0x8C379A000000000000000000000000000000000000000000000000000000000 DUP2 MSTORE PUSH1 0x20 PUSH1 0x4 DUP3 ADD MSTORE PUSH1 0x22 PUSH1 0x24 DUP3 ADD MSTORE PUSH32 0x7570646174654365696C696E673A204365696C696E67206E6F74206368616E67 PUSH1 0x44 DUP3 ADD MSTORE PUSH32 0x6564000000000000000000000000000000000000000000000000000000000000 PUSH1 0x64 DUP3 ADD MSTORE PUSH1 0x84 ADD PUSH2 0x22C JUMP JUMPDEST PUSH1 0x2 DUP2 SWAP1 SSTORE PUSH1 0x40 MLOAD DUP2 DUP2 MSTORE PUSH32 0xFB400EA281D5B831CC19858A6FEFE7CC8865606FFB709543E3DC56632705708C SWAP1 PUSH1 0x20 ADD PUSH1 0x40 MLOAD DUP1 SWAP2 SUB SWAP1 LOG1 POP JUMP JUMPDEST PUSH1 0x0 PUSH20 0xFFFFFFFFFFFFFFFFFFFFFFFFFFFFFFFFFFFFFFFF DUP3 AND PUSH2 0x3EE JUMPI PUSH1 0x40 MLOAD PUSH32 0x8C379A000000000000000000000000000000000000000000000000000000000 DUP2 MSTORE PUSH1 0x20 PUSH1 0x4 DUP3 ADD MSTORE PUSH1 0x1E PUSH1 0x24 DUP3 ADD MSTORE PUSH32 0x676574557365724372656469743A20496E76616C696420616464726573730000 PUSH1 0x44 DUP3 ADD MSTORE PUSH1 0x64 ADD PUSH2 0x22C JUMP JUMPDEST PUSH1 0x40 MLOAD PUSH32 0x1959A00200000000000000000000000000000000000000000000000000000000 DUP2 MSTORE PUSH20 0xFFFFFFFFFFFFFFFFFFFFFFFFFFFFFFFFFFFFFFFF DUP4 DUP2 AND PUSH1 0x4 DUP4 ADD MSTORE PUSH1 0x0 SWAP2 PUSH32 0x0 SWAP1 SWAP2 AND SWAP1 PUSH4 0x1959A002 SWAP1 PUSH1 0x24 ADD PUSH2 0x120 PUSH1 0x40 MLOAD DUP1 DUP4 SUB DUP2 DUP7 DUP1 EXTCODESIZE ISZERO DUP1 ISZERO PUSH2 0x47B JUMPI PUSH1 0x0 DUP1 REVERT JUMPDEST POP GAS STATICCALL ISZERO DUP1 ISZERO PUSH2 0x48F JUMPI RETURNDATASIZE PUSH1 0x0 DUP1 RETURNDATACOPY RETURNDATASIZE PUSH1 0x0 REVERT JUMPDEST POP POP POP POP PUSH1 0x40 MLOAD RETURNDATASIZE PUSH1 0x1F NOT PUSH1 0x1F DUP3 ADD AND DUP3 ADD DUP1 PUSH1 0x40 MSTORE POP DUP2 ADD SWAP1 PUSH2 0x4B3 SWAP2 SWAP1 PUSH2 0x775 JUMP JUMPDEST SWAP1 POP DUP1 PUSH1 0xE0 ADD MLOAD ISZERO DUP1 PUSH2 0x4C9 JUMPI POP DUP1 PUSH1 0xA0 ADD MLOAD TIMESTAMP GT JUMPDEST ISZERO PUSH2 0x4D7 JUMPI POP PUSH1 0x0 SWAP3 SWAP2 POP POP JUMP JUMPDEST PUSH1 0x0 PUSH2 0x4F4 DUP3 PUSH1 0x80 ADD MLOAD DUP4 PUSH1 0xA0 ADD MLOAD PUSH2 0x6FF SWAP1 SWAP2 SWAP1 PUSH4 0xFFFFFFFF AND JUMP JUMPDEST SWAP1 POP PUSH1 0x2 SLOAD DUP2 LT PUSH2 0x50B JUMPI POP PUSH2 0x100 ADD MLOAD SWAP3 SWAP2 POP POP JUMP JUMPDEST PUSH1 0x2 SLOAD DUP2 LT DUP1 ISZERO PUSH2 0x51A JUMPI POP PUSH1 0x1 JUMPDEST ISZERO PUSH2 0x54B JUMPI PUSH2 0x543 PUSH1 0x2 SLOAD PUSH2 0x53D DUP4 DUP6 PUSH2 0x100 ADD MLOAD PUSH2 0x712 SWAP1 SWAP2 SWAP1 PUSH4 0xFFFFFFFF AND JUMP JUMPDEST SWAP1 PUSH2 0x71E JUMP JUMPDEST SWAP5 SWAP4 POP POP POP POP JUMP JUMPDEST POP POP SWAP2 SWAP1 POP JUMP JUMPDEST PUSH2 0x55A PUSH2 0x609 JUMP JUMPDEST PUSH20 0xFFFFFFFFFFFFFFFFFFFFFFFFFFFFFFFFFFFFFFFF DUP2 AND PUSH2 0x5FD JUMPI PUSH1 0x40 MLOAD PUSH32 0x8C379A000000000000000000000000000000000000000000000000000000000 DUP2 MSTORE PUSH1 0x20 PUSH1 0x4 DUP3 ADD MSTORE PUSH1 0x26 PUSH1 0x24 DUP3 ADD MSTORE PUSH32 0x4F776E61626C653A206E6577206F776E657220697320746865207A65726F2061 PUSH1 0x44 DUP3 ADD MSTORE PUSH32 0x6464726573730000000000000000000000000000000000000000000000000000 PUSH1 0x64 DUP3 ADD MSTORE PUSH1 0x84 ADD PUSH2 0x22C JUMP JUMPDEST PUSH2 0x606 DUP2 PUSH2 0x68A JUMP JUMPDEST POP JUMP JUMPDEST PUSH1 0x0 SLOAD PUSH20 0xFFFFFFFFFFFFFFFFFFFFFFFFFFFFFFFFFFFFFFFF AND CALLER EQ PUSH2 0x1AD JUMPI PUSH1 0x40 MLOAD PUSH32 0x8C379A000000000000000000000000000000000000000000000000000000000 DUP2 MSTORE PUSH1 0x20 PUSH1 0x4 DUP3 ADD DUP2 SWAP1 MSTORE PUSH1 0x24 DUP3 ADD MSTORE PUSH32 0x4F776E61626C653A2063616C6C6572206973206E6F7420746865206F776E6572 PUSH1 0x44 DUP3 ADD MSTORE PUSH1 0x64 ADD PUSH2 0x22C JUMP JUMPDEST PUSH1 0x0 DUP1 SLOAD PUSH20 0xFFFFFFFFFFFFFFFFFFFFFFFFFFFFFFFFFFFFFFFF DUP4 DUP2 AND PUSH32 0xFFFFFFFFFFFFFFFFFFFFFFFF0000000000000000000000000000000000000000 DUP4 AND DUP2 OR DUP5 SSTORE PUSH1 0x40 MLOAD SWAP2 SWAP1 SWAP3 AND SWAP3 DUP4 SWAP2 PUSH32 0x8BE0079C531659141344CD1FD0A4F28419497F9722A3DAAFE3B4186F6B6457E0 SWAP2 SWAP1 LOG3 POP POP JUMP JUMPDEST PUSH1 0x0 PUSH2 0x70B DUP3 DUP5 PUSH2 0x8D7 JUMP JUMPDEST SWAP4 SWAP3 POP POP POP JUMP JUMPDEST PUSH1 0x0 PUSH2 0x70B DUP3 DUP5 PUSH2 0x89A JUMP JUMPDEST PUSH1 0x0 PUSH2 0x70B DUP3 DUP5 PUSH2 0x85F JUMP JUMPDEST DUP1 MLOAD DUP1 ISZERO ISZERO DUP2 EQ PUSH2 0x73A JUMPI PUSH1 0x0 DUP1 REVERT JUMPDEST SWAP2 SWAP1 POP JUMP JUMPDEST PUSH1 0x0 PUSH1 0x20 DUP3 DUP5 SUB SLT ISZERO PUSH2 0x751 JUMPI PUSH1 0x0 DUP1 REVERT JUMPDEST DUP2 CALLDATALOAD PUSH20 0xFFFFFFFFFFFFFFFFFFFFFFFFFFFFFFFFFFFFFFFF DUP2 AND DUP2 EQ PUSH2 0x70B JUMPI PUSH1 0x0 DUP1 REVERT JUMPDEST PUSH1 0x0 PUSH2 0x120 DUP3 DUP5 SUB SLT ISZERO PUSH2 0x788 JUMPI PUSH1 0x0 DUP1 REVERT JUMPDEST PUSH2 0x790 PUSH2 0x80E JUMP JUMPDEST DUP3 MLOAD DUP2 MSTORE PUSH1 0x20 DUP4 ADD MLOAD PUSH1 0x20 DUP3 ADD MSTORE PUSH1 0x40 DUP4 ADD MLOAD PUSH1 0x40 DUP3 ADD MSTORE PUSH1 0x60 DUP4 ADD MLOAD PUSH1 0x60 DUP3 ADD MSTORE PUSH1 0x80 DUP4 ADD MLOAD PUSH1 0x80 DUP3 ADD MSTORE PUSH1 0xA0 DUP4 ADD MLOAD PUSH1 0xA0 DUP3 ADD MSTORE PUSH1 0xC0 DUP4 ADD MLOAD PUSH1 0xC0 DUP3 ADD MSTORE PUSH2 0x7DC PUSH1 0xE0 DUP5 ADD PUSH2 0x72A JUMP JUMPDEST PUSH1 0xE0 DUP3 ADD MSTORE PUSH2 0x100 SWAP3 DUP4 ADD MLOAD SWAP3 DUP2 ADD SWAP3 SWAP1 SWAP3 MSTORE POP SWAP2 SWAP1 POP JUMP JUMPDEST PUSH1 0x0 PUSH1 0x20 DUP3 DUP5 SUB SLT ISZERO PUSH2 0x807 JUMPI PUSH1 0x0 DUP1 REVERT JUMPDEST POP CALLDATALOAD SWAP2 SWAP1 POP JUMP JUMPDEST PUSH1 0x40 MLOAD PUSH2 0x120 DUP2 ADD PUSH8 0xFFFFFFFFFFFFFFFF DUP2 GT DUP3 DUP3 LT OR ISZERO PUSH2 0x859 JUMPI PUSH32 0x4E487B7100000000000000000000000000000000000000000000000000000000 PUSH1 0x0 MSTORE PUSH1 0x41 PUSH1 0x4 MSTORE PUSH1 0x24 PUSH1 0x0 REVERT JUMPDEST PUSH1 0x40 MSTORE SWAP1 JUMP JUMPDEST PUSH1 0x0 DUP3 PUSH2 0x895 JUMPI PUSH32 0x4E487B7100000000000000000000000000000000000000000000000000000000 PUSH1 0x0 MSTORE PUSH1 0x12 PUSH1 0x4 MSTORE PUSH1 0x24 PUSH1 0x0 REVERT JUMPDEST POP DIV SWAP1 JUMP JUMPDEST PUSH1 0x0 DUP2 PUSH32 0xFFFFFFFFFFFFFFFFFFFFFFFFFFFFFFFFFFFFFFFFFFFFFFFFFFFFFFFFFFFFFFFF DIV DUP4 GT DUP3 ISZERO ISZERO AND ISZERO PUSH2 0x8D2 JUMPI PUSH2 0x8D2 PUSH2 0x8EE JUMP JUMPDEST POP MUL SWAP1 JUMP JUMPDEST PUSH1 0x0 DUP3 DUP3 LT ISZERO PUSH2 0x8E9 JUMPI PUSH2 0x8E9 PUSH2 0x8EE JUMP JUMPDEST POP SUB SWAP1 JUMP JUMPDEST PUSH32 0x4E487B7100000000000000000000000000000000000000000000000000000000 PUSH1 0x0 MSTORE PUSH1 0x11 PUSH1 0x4 MSTORE PUSH1 0x24 PUSH1 0x0 REVERT INVALID LOG2 PUSH5 0x6970667358 0x22 SLT KECCAK256 0x5C 0xDB PUSH31 0x623ABAA79A180DAFE03301D6D4662011C120DED94F41D751BAE3C6197C6473 PUSH16 0x6C634300080500330000000000000000 "
				},
				"gasEstimates": {
					"creation": {
						"codeDepositCost": "477400",
						"executionCost": "infinite",
						"totalCost": "infinite"
					},
					"external": {
						"MIN_CEILING_DURATION()": "217",
						"admin()": "2368",
						"ceiling()": "2340",
						"getUserCredit(address)": "infinite",
						"owner()": "2363",
						"renounceOwnership()": "infinite",
						"shdwPool()": "infinite",
						"transferOwnership(address)": "28279",
						"updateCeiling(uint256)": "27692"
					}
				},
				"methodIdentifiers": {
					"MIN_CEILING_DURATION()": "f0be070c",
					"admin()": "f851a440",
					"ceiling()": "753ed1bd",
					"getUserCredit(address)": "dad6f0dc",
					"owner()": "8da5cb5b",
					"renounceOwnership()": "715018a6",
					"shdwPool()": "41873acd",
					"transferOwnership(address)": "f2fde38b",
					"updateCeiling(uint256)": "b1463a6a"
				}
			},
			"storageLayout": {
				"storage": [
					{
						"astId": 7,
						"contract": "contracts/IShdw.sol:IShdw",
						"label": "_owner",
						"offset": 0,
						"slot": "0",
						"type": "t_address"
					},
					{
						"astId": 1188,
						"contract": "contracts/IShdw.sol:IShdw",
						"label": "admin",
						"offset": 0,
						"slot": "1",
						"type": "t_address"
					},
					{
						"astId": 1190,
						"contract": "contracts/IShdw.sol:IShdw",
						"label": "ceiling",
						"offset": 0,
						"slot": "2",
						"type": "t_uint256"
					}
				],
				"types": {
					"t_address": {
						"encoding": "inplace",
						"label": "address",
						"numberOfBytes": "20"
					},
					"t_uint256": {
						"encoding": "inplace",
						"label": "uint256",
						"numberOfBytes": "32"
					}
				}
			},
			"userdoc": {
				"kind": "user",
				"methods": {
					"constructor": {
						"notice": "Constructor"
					},
					"getUserCredit(address)": {
						"notice": "calculate ishdw credit per user."
					},
					"updateCeiling(uint256)": {
						"notice": "update ceiling thereshold duration for ishdw calculation."
					}
				},
				"version": 1
			}
		}
	}
}