{
	"contracts/ShadowPool.sol": {
		"ShadowPool": {
			"abi": [
				{
					"inputs": [
						{
							"internalType": "contract IERC20",
							"name": "_token",
							"type": "address"
						},
						{
							"internalType": "contract IShadowChefV2",
							"name": "_shadowchefV2",
							"type": "address"
						},
						{
							"internalType": "address",
							"name": "_admin",
							"type": "address"
						},
						{
							"internalType": "address",
							"name": "_treasury",
							"type": "address"
						},
						{
							"internalType": "address",
							"name": "_operator",
							"type": "address"
						},
						{
							"internalType": "uint256",
							"name": "_pid",
							"type": "uint256"
						}
					],
					"stateMutability": "nonpayable",
					"type": "constructor"
				},
				{
					"anonymous": false,
					"inputs": [
						{
							"indexed": true,
							"internalType": "address",
							"name": "sender",
							"type": "address"
						},
						{
							"indexed": false,
							"internalType": "uint256",
							"name": "amount",
							"type": "uint256"
						},
						{
							"indexed": false,
							"internalType": "uint256",
							"name": "shares",
							"type": "uint256"
						},
						{
							"indexed": false,
							"internalType": "uint256",
							"name": "duration",
							"type": "uint256"
						},
						{
							"indexed": false,
							"internalType": "uint256",
							"name": "lastDepositedTime",
							"type": "uint256"
						}
					],
					"name": "Deposit",
					"type": "event"
				},
				{
					"anonymous": false,
					"inputs": [
						{
							"indexed": true,
							"internalType": "address",
							"name": "user",
							"type": "address"
						},
						{
							"indexed": true,
							"internalType": "bool",
							"name": "free",
							"type": "bool"
						}
					],
					"name": "FreeFeeUser",
					"type": "event"
				},
				{
					"anonymous": false,
					"inputs": [
						{
							"indexed": true,
							"internalType": "address",
							"name": "sender",
							"type": "address"
						},
						{
							"indexed": false,
							"internalType": "uint256",
							"name": "amount",
							"type": "uint256"
						}
					],
					"name": "Harvest",
					"type": "event"
				},
				{
					"anonymous": false,
					"inputs": [],
					"name": "Init",
					"type": "event"
				},
				{
					"anonymous": false,
					"inputs": [
						{
							"indexed": true,
							"internalType": "address",
							"name": "sender",
							"type": "address"
						},
						{
							"indexed": false,
							"internalType": "uint256",
							"name": "lockedAmount",
							"type": "uint256"
						},
						{
							"indexed": false,
							"internalType": "uint256",
							"name": "shares",
							"type": "uint256"
						},
						{
							"indexed": false,
							"internalType": "uint256",
							"name": "lockedDuration",
							"type": "uint256"
						},
						{
							"indexed": false,
							"internalType": "uint256",
							"name": "blockTimestamp",
							"type": "uint256"
						}
					],
					"name": "Lock",
					"type": "event"
				},
				{
					"anonymous": false,
					"inputs": [
						{
							"indexed": false,
							"internalType": "address",
							"name": "admin",
							"type": "address"
						}
					],
					"name": "NewAdmin",
					"type": "event"
				},
				{
					"anonymous": false,
					"inputs": [
						{
							"indexed": false,
							"internalType": "address",
							"name": "boostContract",
							"type": "address"
						}
					],
					"name": "NewBoostContract",
					"type": "event"
				},
				{
					"anonymous": false,
					"inputs": [
						{
							"indexed": false,
							"internalType": "uint256",
							"name": "boostWeight",
							"type": "uint256"
						}
					],
					"name": "NewBoostWeight",
					"type": "event"
				},
				{
					"anonymous": false,
					"inputs": [
						{
							"indexed": false,
							"internalType": "uint256",
							"name": "durationFactor",
							"type": "uint256"
						}
					],
					"name": "NewDurationFactor",
					"type": "event"
				},
				{
					"anonymous": false,
					"inputs": [
						{
							"indexed": false,
							"internalType": "uint256",
							"name": "durationFactorOverdue",
							"type": "uint256"
						}
					],
					"name": "NewDurationFactorOverdue",
					"type": "event"
				},
				{
					"anonymous": false,
					"inputs": [
						{
							"indexed": false,
							"internalType": "uint256",
							"name": "maxLockDuration",
							"type": "uint256"
						}
					],
					"name": "NewMaxLockDuration",
					"type": "event"
				},
				{
					"anonymous": false,
					"inputs": [
						{
							"indexed": false,
							"internalType": "address",
							"name": "operator",
							"type": "address"
						}
					],
					"name": "NewOperator",
					"type": "event"
				},
				{
					"anonymous": false,
					"inputs": [
						{
							"indexed": false,
							"internalType": "uint256",
							"name": "overdueFee",
							"type": "uint256"
						}
					],
					"name": "NewOverdueFee",
					"type": "event"
				},
				{
					"anonymous": false,
					"inputs": [
						{
							"indexed": false,
							"internalType": "uint256",
							"name": "performanceFee",
							"type": "uint256"
						}
					],
					"name": "NewPerformanceFee",
					"type": "event"
				},
				{
					"anonymous": false,
					"inputs": [
						{
							"indexed": false,
							"internalType": "uint256",
							"name": "performanceFeeContract",
							"type": "uint256"
						}
					],
					"name": "NewPerformanceFeeContract",
					"type": "event"
				},
				{
					"anonymous": false,
					"inputs": [
						{
							"indexed": false,
							"internalType": "address",
							"name": "treasury",
							"type": "address"
						}
					],
					"name": "NewTreasury",
					"type": "event"
				},
				{
					"anonymous": false,
					"inputs": [
						{
							"indexed": false,
							"internalType": "uint256",
							"name": "unlockFreeDuration",
							"type": "uint256"
						}
					],
					"name": "NewUnlockFreeDuration",
					"type": "event"
				},
				{
					"anonymous": false,
					"inputs": [
						{
							"indexed": false,
							"internalType": "address",
							"name": "VShdw",
							"type": "address"
						}
					],
					"name": "NewVShdwContract",
					"type": "event"
				},
				{
					"anonymous": false,
					"inputs": [
						{
							"indexed": false,
							"internalType": "uint256",
							"name": "withdrawFee",
							"type": "uint256"
						}
					],
					"name": "NewWithdrawFee",
					"type": "event"
				},
				{
					"anonymous": false,
					"inputs": [
						{
							"indexed": false,
							"internalType": "uint256",
							"name": "withdrawFeeContract",
							"type": "uint256"
						}
					],
					"name": "NewWithdrawFeeContract",
					"type": "event"
				},
				{
					"anonymous": false,
					"inputs": [
						{
							"indexed": false,
							"internalType": "uint256",
							"name": "withdrawFeePeriod",
							"type": "uint256"
						}
					],
					"name": "NewWithdrawFeePeriod",
					"type": "event"
				},
				{
					"anonymous": false,
					"inputs": [
						{
							"indexed": true,
							"internalType": "address",
							"name": "previousOwner",
							"type": "address"
						},
						{
							"indexed": true,
							"internalType": "address",
							"name": "newOwner",
							"type": "address"
						}
					],
					"name": "OwnershipTransferred",
					"type": "event"
				},
				{
					"anonymous": false,
					"inputs": [],
					"name": "Pause",
					"type": "event"
				},
				{
					"anonymous": false,
					"inputs": [
						{
							"indexed": false,
							"internalType": "address",
							"name": "account",
							"type": "address"
						}
					],
					"name": "Paused",
					"type": "event"
				},
				{
					"anonymous": false,
					"inputs": [
						{
							"indexed": true,
							"internalType": "address",
							"name": "sender",
							"type": "address"
						},
						{
							"indexed": false,
							"internalType": "uint256",
							"name": "amount",
							"type": "uint256"
						},
						{
							"indexed": false,
							"internalType": "uint256",
							"name": "blockTimestamp",
							"type": "uint256"
						}
					],
					"name": "Unlock",
					"type": "event"
				},
				{
					"anonymous": false,
					"inputs": [],
					"name": "Unpause",
					"type": "event"
				},
				{
					"anonymous": false,
					"inputs": [
						{
							"indexed": false,
							"internalType": "address",
							"name": "account",
							"type": "address"
						}
					],
					"name": "Unpaused",
					"type": "event"
				},
				{
					"anonymous": false,
					"inputs": [
						{
							"indexed": true,
							"internalType": "address",
							"name": "sender",
							"type": "address"
						},
						{
							"indexed": false,
							"internalType": "uint256",
							"name": "amount",
							"type": "uint256"
						},
						{
							"indexed": false,
							"internalType": "uint256",
							"name": "shares",
							"type": "uint256"
						}
					],
					"name": "Withdraw",
					"type": "event"
				},
				{
					"inputs": [],
					"name": "BOOST_WEIGHT",
					"outputs": [
						{
							"internalType": "uint256",
							"name": "",
							"type": "uint256"
						}
					],
					"stateMutability": "view",
					"type": "function"
				},
				{
					"inputs": [],
					"name": "BOOST_WEIGHT_LIMIT",
					"outputs": [
						{
							"internalType": "uint256",
							"name": "",
							"type": "uint256"
						}
					],
					"stateMutability": "view",
					"type": "function"
				},
				{
					"inputs": [],
					"name": "DURATION_FACTOR",
					"outputs": [
						{
							"internalType": "uint256",
							"name": "",
							"type": "uint256"
						}
					],
					"stateMutability": "view",
					"type": "function"
				},
				{
					"inputs": [],
					"name": "DURATION_FACTOR_OVERDUE",
					"outputs": [
						{
							"internalType": "uint256",
							"name": "",
							"type": "uint256"
						}
					],
					"stateMutability": "view",
					"type": "function"
				},
				{
					"inputs": [],
					"name": "MAX_LOCK_DURATION",
					"outputs": [
						{
							"internalType": "uint256",
							"name": "",
							"type": "uint256"
						}
					],
					"stateMutability": "view",
					"type": "function"
				},
				{
					"inputs": [],
					"name": "MAX_LOCK_DURATION_LIMIT",
					"outputs": [
						{
							"internalType": "uint256",
							"name": "",
							"type": "uint256"
						}
					],
					"stateMutability": "view",
					"type": "function"
				},
				{
					"inputs": [],
					"name": "MAX_OVERDUE_FEE",
					"outputs": [
						{
							"internalType": "uint256",
							"name": "",
							"type": "uint256"
						}
					],
					"stateMutability": "view",
					"type": "function"
				},
				{
					"inputs": [],
					"name": "MAX_PERFORMANCE_FEE",
					"outputs": [
						{
							"internalType": "uint256",
							"name": "",
							"type": "uint256"
						}
					],
					"stateMutability": "view",
					"type": "function"
				},
				{
					"inputs": [],
					"name": "MAX_WITHDRAW_FEE",
					"outputs": [
						{
							"internalType": "uint256",
							"name": "",
							"type": "uint256"
						}
					],
					"stateMutability": "view",
					"type": "function"
				},
				{
					"inputs": [],
					"name": "MAX_WITHDRAW_FEE_PERIOD",
					"outputs": [
						{
							"internalType": "uint256",
							"name": "",
							"type": "uint256"
						}
					],
					"stateMutability": "view",
					"type": "function"
				},
				{
					"inputs": [],
					"name": "MIN_DEPOSIT_AMOUNT",
					"outputs": [
						{
							"internalType": "uint256",
							"name": "",
							"type": "uint256"
						}
					],
					"stateMutability": "view",
					"type": "function"
				},
				{
					"inputs": [],
					"name": "MIN_LOCK_DURATION",
					"outputs": [
						{
							"internalType": "uint256",
							"name": "",
							"type": "uint256"
						}
					],
					"stateMutability": "view",
					"type": "function"
				},
				{
					"inputs": [],
					"name": "MIN_WITHDRAW_AMOUNT",
					"outputs": [
						{
							"internalType": "uint256",
							"name": "",
							"type": "uint256"
						}
					],
					"stateMutability": "view",
					"type": "function"
				},
				{
					"inputs": [],
					"name": "PRECISION_FACTOR",
					"outputs": [
						{
							"internalType": "uint256",
							"name": "",
							"type": "uint256"
						}
					],
					"stateMutability": "view",
					"type": "function"
				},
				{
					"inputs": [],
					"name": "PRECISION_FACTOR_SHARE",
					"outputs": [
						{
							"internalType": "uint256",
							"name": "",
							"type": "uint256"
						}
					],
					"stateMutability": "view",
					"type": "function"
				},
				{
					"inputs": [],
					"name": "UNLOCK_FREE_DURATION",
					"outputs": [
						{
							"internalType": "uint256",
							"name": "",
							"type": "uint256"
						}
					],
					"stateMutability": "view",
					"type": "function"
				},
				{
					"inputs": [],
					"name": "VShdw",
					"outputs": [
						{
							"internalType": "address",
							"name": "",
							"type": "address"
						}
					],
					"stateMutability": "view",
					"type": "function"
				},
				{
					"inputs": [],
					"name": "admin",
					"outputs": [
						{
							"internalType": "address",
							"name": "",
							"type": "address"
						}
					],
					"stateMutability": "view",
					"type": "function"
				},
				{
					"inputs": [],
					"name": "available",
					"outputs": [
						{
							"internalType": "uint256",
							"name": "",
							"type": "uint256"
						}
					],
					"stateMutability": "view",
					"type": "function"
				},
				{
					"inputs": [],
					"name": "balanceOf",
					"outputs": [
						{
							"internalType": "uint256",
							"name": "",
							"type": "uint256"
						}
					],
					"stateMutability": "view",
					"type": "function"
				},
				{
					"inputs": [],
					"name": "boostContract",
					"outputs": [
						{
							"internalType": "address",
							"name": "",
							"type": "address"
						}
					],
					"stateMutability": "view",
					"type": "function"
				},
				{
					"inputs": [
						{
							"internalType": "address",
							"name": "_user",
							"type": "address"
						}
					],
					"name": "calculateOverdueFee",
					"outputs": [
						{
							"internalType": "uint256",
							"name": "",
							"type": "uint256"
						}
					],
					"stateMutability": "view",
					"type": "function"
				},
				{
					"inputs": [
						{
							"internalType": "address",
							"name": "_user",
							"type": "address"
						}
					],
					"name": "calculatePerformanceFee",
					"outputs": [
						{
							"internalType": "uint256",
							"name": "",
							"type": "uint256"
						}
					],
					"stateMutability": "view",
					"type": "function"
				},
				{
					"inputs": [],
					"name": "calculateTotalpendingShdwRewards",
					"outputs": [
						{
							"internalType": "uint256",
							"name": "",
							"type": "uint256"
						}
					],
					"stateMutability": "view",
					"type": "function"
				},
				{
					"inputs": [
						{
							"internalType": "address",
							"name": "_user",
							"type": "address"
						},
						{
							"internalType": "uint256",
							"name": "_shares",
							"type": "uint256"
						}
					],
					"name": "calculateWithdrawFee",
					"outputs": [
						{
							"internalType": "uint256",
							"name": "",
							"type": "uint256"
						}
					],
					"stateMutability": "view",
					"type": "function"
				},
				{
					"inputs": [
						{
							"internalType": "uint256",
							"name": "_amount",
							"type": "uint256"
						},
						{
							"internalType": "uint256",
							"name": "_lockDuration",
							"type": "uint256"
						}
					],
					"name": "deposit",
					"outputs": [],
					"stateMutability": "nonpayable",
					"type": "function"
				},
				{
					"inputs": [
						{
							"internalType": "address",
							"name": "",
							"type": "address"
						}
					],
					"name": "freeOverdueFeeUsers",
					"outputs": [
						{
							"internalType": "bool",
							"name": "",
							"type": "bool"
						}
					],
					"stateMutability": "view",
					"type": "function"
				},
				{
					"inputs": [
						{
							"internalType": "address",
							"name": "",
							"type": "address"
						}
					],
					"name": "freePerformanceFeeUsers",
					"outputs": [
						{
							"internalType": "bool",
							"name": "",
							"type": "bool"
						}
					],
					"stateMutability": "view",
					"type": "function"
				},
				{
					"inputs": [
						{
							"internalType": "address",
							"name": "",
							"type": "address"
						}
					],
					"name": "freeWithdrawFeeUsers",
					"outputs": [
						{
							"internalType": "bool",
							"name": "",
							"type": "bool"
						}
					],
					"stateMutability": "view",
					"type": "function"
				},
				{
					"inputs": [],
					"name": "getPricePerFullShare",
					"outputs": [
						{
							"internalType": "uint256",
							"name": "",
							"type": "uint256"
						}
					],
					"stateMutability": "view",
					"type": "function"
				},
				{
					"inputs": [
						{
							"internalType": "address",
							"name": "_token",
							"type": "address"
						}
					],
					"name": "inCaseTokensGetStuck",
					"outputs": [],
					"stateMutability": "nonpayable",
					"type": "function"
				},
				{
					"inputs": [
						{
							"internalType": "contract IERC20",
							"name": "dummyToken",
							"type": "address"
						}
					],
					"name": "init",
					"outputs": [],
					"stateMutability": "nonpayable",
					"type": "function"
				},
				{
					"inputs": [],
					"name": "operator",
					"outputs": [
						{
							"internalType": "address",
							"name": "",
							"type": "address"
						}
					],
					"stateMutability": "view",
					"type": "function"
				},
				{
					"inputs": [],
					"name": "overdueFee",
					"outputs": [
						{
							"internalType": "uint256",
							"name": "",
							"type": "uint256"
						}
					],
					"stateMutability": "view",
					"type": "function"
				},
				{
					"inputs": [],
					"name": "owner",
					"outputs": [
						{
							"internalType": "address",
							"name": "",
							"type": "address"
						}
					],
					"stateMutability": "view",
					"type": "function"
				},
				{
					"inputs": [],
					"name": "pause",
					"outputs": [],
					"stateMutability": "nonpayable",
					"type": "function"
				},
				{
					"inputs": [],
					"name": "paused",
					"outputs": [
						{
							"internalType": "bool",
							"name": "",
							"type": "bool"
						}
					],
					"stateMutability": "view",
					"type": "function"
				},
				{
					"inputs": [],
					"name": "performanceFee",
					"outputs": [
						{
							"internalType": "uint256",
							"name": "",
							"type": "uint256"
						}
					],
					"stateMutability": "view",
					"type": "function"
				},
				{
					"inputs": [],
					"name": "performanceFeeContract",
					"outputs": [
						{
							"internalType": "uint256",
							"name": "",
							"type": "uint256"
						}
					],
					"stateMutability": "view",
					"type": "function"
				},
				{
					"inputs": [],
					"name": "renounceOwnership",
					"outputs": [],
					"stateMutability": "nonpayable",
					"type": "function"
				},
				{
					"inputs": [
						{
							"internalType": "address",
							"name": "_admin",
							"type": "address"
						}
					],
					"name": "setAdmin",
					"outputs": [],
					"stateMutability": "nonpayable",
					"type": "function"
				},
				{
					"inputs": [
						{
							"internalType": "address",
							"name": "_boostContract",
							"type": "address"
						}
					],
					"name": "setBoostContract",
					"outputs": [],
					"stateMutability": "nonpayable",
					"type": "function"
				},
				{
					"inputs": [
						{
							"internalType": "uint256",
							"name": "_boostWeight",
							"type": "uint256"
						}
					],
					"name": "setBoostWeight",
					"outputs": [],
					"stateMutability": "nonpayable",
					"type": "function"
				},
				{
					"inputs": [
						{
							"internalType": "uint256",
							"name": "_durationFactor",
							"type": "uint256"
						}
					],
					"name": "setDurationFactor",
					"outputs": [],
					"stateMutability": "nonpayable",
					"type": "function"
				},
				{
					"inputs": [
						{
							"internalType": "uint256",
							"name": "_durationFactorOverdue",
							"type": "uint256"
						}
					],
					"name": "setDurationFactorOverdue",
					"outputs": [],
					"stateMutability": "nonpayable",
					"type": "function"
				},
				{
					"inputs": [
						{
							"internalType": "address",
							"name": "_user",
							"type": "address"
						},
						{
							"internalType": "bool",
							"name": "_free",
							"type": "bool"
						}
					],
					"name": "setFreePerformanceFeeUser",
					"outputs": [],
					"stateMutability": "nonpayable",
					"type": "function"
				},
				{
					"inputs": [
						{
							"internalType": "uint256",
							"name": "_maxLockDuration",
							"type": "uint256"
						}
					],
					"name": "setMaxLockDuration",
					"outputs": [],
					"stateMutability": "nonpayable",
					"type": "function"
				},
				{
					"inputs": [
						{
							"internalType": "address",
							"name": "_operator",
							"type": "address"
						}
					],
					"name": "setOperator",
					"outputs": [],
					"stateMutability": "nonpayable",
					"type": "function"
				},
				{
					"inputs": [
						{
							"internalType": "uint256",
							"name": "_overdueFee",
							"type": "uint256"
						}
					],
					"name": "setOverdueFee",
					"outputs": [],
					"stateMutability": "nonpayable",
					"type": "function"
				},
				{
					"inputs": [
						{
							"internalType": "address",
							"name": "_user",
							"type": "address"
						},
						{
							"internalType": "bool",
							"name": "_free",
							"type": "bool"
						}
					],
					"name": "setOverdueFeeUser",
					"outputs": [],
					"stateMutability": "nonpayable",
					"type": "function"
				},
				{
					"inputs": [
						{
							"internalType": "uint256",
							"name": "_performanceFee",
							"type": "uint256"
						}
					],
					"name": "setPerformanceFee",
					"outputs": [],
					"stateMutability": "nonpayable",
					"type": "function"
				},
				{
					"inputs": [
						{
							"internalType": "uint256",
							"name": "_performanceFeeContract",
							"type": "uint256"
						}
					],
					"name": "setPerformanceFeeContract",
					"outputs": [],
					"stateMutability": "nonpayable",
					"type": "function"
				},
				{
					"inputs": [
						{
							"internalType": "address",
							"name": "_treasury",
							"type": "address"
						}
					],
					"name": "setTreasury",
					"outputs": [],
					"stateMutability": "nonpayable",
					"type": "function"
				},
				{
					"inputs": [
						{
							"internalType": "uint256",
							"name": "_unlockFreeDuration",
							"type": "uint256"
						}
					],
					"name": "setUnlockFreeDuration",
					"outputs": [],
					"stateMutability": "nonpayable",
					"type": "function"
				},
				{
					"inputs": [
						{
							"internalType": "address",
							"name": "_VShdw",
							"type": "address"
						}
					],
					"name": "setVShdwContract",
					"outputs": [],
					"stateMutability": "nonpayable",
					"type": "function"
				},
				{
					"inputs": [
						{
							"internalType": "uint256",
							"name": "_withdrawFee",
							"type": "uint256"
						}
					],
					"name": "setWithdrawFee",
					"outputs": [],
					"stateMutability": "nonpayable",
					"type": "function"
				},
				{
					"inputs": [
						{
							"internalType": "uint256",
							"name": "_withdrawFeeContract",
							"type": "uint256"
						}
					],
					"name": "setWithdrawFeeContract",
					"outputs": [],
					"stateMutability": "nonpayable",
					"type": "function"
				},
				{
					"inputs": [
						{
							"internalType": "uint256",
							"name": "_withdrawFeePeriod",
							"type": "uint256"
						}
					],
					"name": "setWithdrawFeePeriod",
					"outputs": [],
					"stateMutability": "nonpayable",
					"type": "function"
				},
				{
					"inputs": [
						{
							"internalType": "address",
							"name": "_user",
							"type": "address"
						},
						{
							"internalType": "bool",
							"name": "_free",
							"type": "bool"
						}
					],
					"name": "setWithdrawFeeUser",
					"outputs": [],
					"stateMutability": "nonpayable",
					"type": "function"
				},
				{
					"inputs": [],
					"name": "shadowchefV2",
					"outputs": [
						{
							"internalType": "contract IShadowChefV2",
							"name": "",
							"type": "address"
						}
					],
					"stateMutability": "view",
					"type": "function"
				},
				{
					"inputs": [],
					"name": "shdwPoolPID",
					"outputs": [
						{
							"internalType": "uint256",
							"name": "",
							"type": "uint256"
						}
					],
					"stateMutability": "view",
					"type": "function"
				},
				{
					"inputs": [],
					"name": "token",
					"outputs": [
						{
							"internalType": "contract IERC20",
							"name": "",
							"type": "address"
						}
					],
					"stateMutability": "view",
					"type": "function"
				},
				{
					"inputs": [],
					"name": "totalBoostDebt",
					"outputs": [
						{
							"internalType": "uint256",
							"name": "",
							"type": "uint256"
						}
					],
					"stateMutability": "view",
					"type": "function"
				},
				{
					"inputs": [],
					"name": "totalLockedAmount",
					"outputs": [
						{
							"internalType": "uint256",
							"name": "",
							"type": "uint256"
						}
					],
					"stateMutability": "view",
					"type": "function"
				},
				{
					"inputs": [],
					"name": "totalShares",
					"outputs": [
						{
							"internalType": "uint256",
							"name": "",
							"type": "uint256"
						}
					],
					"stateMutability": "view",
					"type": "function"
				},
				{
					"inputs": [
						{
							"internalType": "address",
							"name": "newOwner",
							"type": "address"
						}
					],
					"name": "transferOwnership",
					"outputs": [],
					"stateMutability": "nonpayable",
					"type": "function"
				},
				{
					"inputs": [],
					"name": "treasury",
					"outputs": [
						{
							"internalType": "address",
							"name": "",
							"type": "address"
						}
					],
					"stateMutability": "view",
					"type": "function"
				},
				{
					"inputs": [
						{
							"internalType": "address",
							"name": "_user",
							"type": "address"
						}
					],
					"name": "unlock",
					"outputs": [],
					"stateMutability": "nonpayable",
					"type": "function"
				},
				{
					"inputs": [],
					"name": "unpause",
					"outputs": [],
					"stateMutability": "nonpayable",
					"type": "function"
				},
				{
					"inputs": [
						{
							"internalType": "address",
							"name": "",
							"type": "address"
						}
					],
					"name": "userInfo",
					"outputs": [
						{
							"internalType": "uint256",
							"name": "shares",
							"type": "uint256"
						},
						{
							"internalType": "uint256",
							"name": "lastDepositedTime",
							"type": "uint256"
						},
						{
							"internalType": "uint256",
							"name": "shdwAtLastUserAction",
							"type": "uint256"
						},
						{
							"internalType": "uint256",
							"name": "lastUserActionTime",
							"type": "uint256"
						},
						{
							"internalType": "uint256",
							"name": "lockStartTime",
							"type": "uint256"
						},
						{
							"internalType": "uint256",
							"name": "lockEndTime",
							"type": "uint256"
						},
						{
							"internalType": "uint256",
							"name": "userBoostedShare",
							"type": "uint256"
						},
						{
							"internalType": "bool",
							"name": "locked",
							"type": "bool"
						},
						{
							"internalType": "uint256",
							"name": "lockedAmount",
							"type": "uint256"
						}
					],
					"stateMutability": "view",
					"type": "function"
				},
				{
					"inputs": [
						{
							"internalType": "uint256",
							"name": "_shares",
							"type": "uint256"
						}
					],
					"name": "withdraw",
					"outputs": [],
					"stateMutability": "nonpayable",
					"type": "function"
				},
				{
					"inputs": [],
					"name": "withdrawAll",
					"outputs": [],
					"stateMutability": "nonpayable",
					"type": "function"
				},
				{
					"inputs": [
						{
							"internalType": "uint256",
							"name": "_amount",
							"type": "uint256"
						}
					],
					"name": "withdrawByAmount",
					"outputs": [],
					"stateMutability": "nonpayable",
					"type": "function"
				},
				{
					"inputs": [],
					"name": "withdrawFee",
					"outputs": [
						{
							"internalType": "uint256",
							"name": "",
							"type": "uint256"
						}
					],
					"stateMutability": "view",
					"type": "function"
				},
				{
					"inputs": [],
					"name": "withdrawFeeContract",
					"outputs": [
						{
							"internalType": "uint256",
							"name": "",
							"type": "uint256"
						}
					],
					"stateMutability": "view",
					"type": "function"
				},
				{
					"inputs": [],
					"name": "withdrawFeePeriod",
					"outputs": [
						{
							"internalType": "uint256",
							"name": "",
							"type": "uint256"
						}
					],
					"stateMutability": "view",
					"type": "function"
				}
			],
			"devdoc": {
				"kind": "dev",
				"methods": {
					"available()": {
						"details": "The contract puts 100% of the tokens to work."
					},
					"balanceOf()": {
						"details": "It includes tokens held by the contract and the boost debt amount."
					},
					"calculateOverdueFee(address)": {
						"params": {
							"_user": ": User address"
						},
						"returns": {
							"_0": "Returns Overdue fee."
						}
					},
					"calculatePerformanceFee(address)": {
						"params": {
							"_user": ": User address"
						},
						"returns": {
							"_0": "Returns Performance fee."
						}
					},
					"calculateTotalpendingShdwRewards()": {
						"returns": {
							"_0": "Returns total pending Shdw rewards"
						}
					},
					"calculateWithdrawFee(address,uint256)": {
						"params": {
							"_shares": ": Number of shares to withdraw",
							"_user": ": User address"
						},
						"returns": {
							"_0": "Returns Withdraw fee."
						}
					},
					"constructor": {
						"params": {
							"_admin": ": address of the admin",
							"_operator": ": address of operator",
							"_pid": ": Shdw pool ID in ShadowChefV2",
							"_shadowchefV2": ": ShadowChefV2 contract",
							"_token": ": Shdw token contract",
							"_treasury": ": address of the treasury (collects fees)"
						}
					},
					"deposit(uint256,uint256)": {
						"details": "Only possible when contract not paused.",
						"params": {
							"_amount": ": number of tokens to deposit (in Shdw)",
							"_lockDuration": ": Token lock duration"
						}
					},
					"init(address)": {
						"params": {
							"dummyToken": "The address of the token to be deposited into MCV2."
						}
					},
					"owner()": {
						"details": "Returns the address of the current owner."
					},
					"pause()": {
						"details": "Only possible when contract not paused."
					},
					"paused()": {
						"details": "Returns true if the contract is paused, and false otherwise."
					},
					"renounceOwnership()": {
						"details": "Leaves the contract without owner. It will not be possible to call `onlyOwner` functions anymore. Can only be called by the current owner. NOTE: Renouncing ownership will leave the contract without an owner, thereby removing any functionality that is only available to the owner."
					},
					"setAdmin(address)": {
						"details": "Only callable by the contract owner."
					},
					"setBoostContract(address)": {
						"details": "Callable by the contract admin."
					},
					"setBoostWeight(uint256)": {
						"details": "Only callable by the contract admin."
					},
					"setDurationFactor(uint256)": {
						"details": "Only callable by the contract admin."
					},
					"setDurationFactorOverdue(uint256)": {
						"details": "Only callable by the contract admin."
					},
					"setFreePerformanceFeeUser(address,bool)": {
						"details": "Only callable by the contract admin.",
						"params": {
							"_free": ": true:free false:not free",
							"_user": ": User address"
						}
					},
					"setMaxLockDuration(uint256)": {
						"details": "Only callable by the contract admin."
					},
					"setOperator(address)": {
						"details": "Callable by the contract owner."
					},
					"setOverdueFee(uint256)": {
						"details": "Only callable by the contract admin."
					},
					"setOverdueFeeUser(address,bool)": {
						"details": "Only callable by the contract admin.",
						"params": {
							"_free": ": true:free false:not free",
							"_user": ": User address"
						}
					},
					"setPerformanceFee(uint256)": {
						"details": "Only callable by the contract admin."
					},
					"setPerformanceFeeContract(uint256)": {
						"details": "Only callable by the contract admin."
					},
					"setTreasury(address)": {
						"details": "Only callable by the contract owner."
					},
					"setUnlockFreeDuration(uint256)": {
						"details": "Only callable by the contract admin."
					},
					"setVShdwContract(address)": {
						"details": "Callable by the contract admin."
					},
					"setWithdrawFee(uint256)": {
						"details": "Only callable by the contract admin."
					},
					"setWithdrawFeeContract(uint256)": {
						"details": "Only callable by the contract admin."
					},
					"setWithdrawFeePeriod(uint256)": {
						"details": "Only callable by the contract admin."
					},
					"setWithdrawFeeUser(address,bool)": {
						"details": "Only callable by the contract admin.",
						"params": {
							"_free": ": true:free false:not free",
							"_user": ": User address"
						}
					},
					"transferOwnership(address)": {
						"details": "Transfers ownership of the contract to a new account (`newOwner`). Can only be called by the current owner."
					},
					"unlock(address)": {
						"details": "Only possible when contract not paused.",
						"params": {
							"_user": ": User address"
						}
					},
					"unpause()": {
						"details": "Only possible when contract is paused."
					},
					"withdraw(uint256)": {
						"params": {
							"_shares": ": Number of shares to withdraw"
						}
					},
					"withdrawByAmount(uint256)": {
						"params": {
							"_amount": ": Number of amount to withdraw"
						}
					}
				},
				"version": 1
			},
			"evm": {
				"assembly": "    /* \"contracts/ShadowPool.sol\":360:33992  contract ShadowPool is Ownable, Pausable {\r... */\n  mstore(0x40, 0xc0)\n    /* \"contracts/ShadowPool.sol\":2798:2805  1 weeks */\n  0x093a80\n    /* \"contracts/ShadowPool.sol\":2760:2805  uint256 public UNLOCK_FREE_DURATION = 1 weeks */\n  0x0e\n  sstore\n    /* \"contracts/ShadowPool.sol\":2857:2865  365 days */\n  0x01e13380\n    /* \"contracts/ShadowPool.sol\":2822:2865  uint256 public MAX_LOCK_DURATION = 365 days */\n  0x0f\n  sstore\n    /* \"contracts/ShadowPool.sol\":2917:2925  365 days */\n  0x01e13380\n    /* \"contracts/ShadowPool.sol\":2884:2925  uint256 public DURATION_FACTOR = 365 days */\n  0x10\n  sstore\n    /* \"contracts/ShadowPool.sol\":3031:3039  180 days */\n  0xed4e00\n    /* \"contracts/ShadowPool.sol\":2990:3039  uint256 public DURATION_FACTOR_OVERDUE = 180 days */\n  0x11\n  sstore\n    /* \"contracts/ShadowPool.sol\":3124:3134  100 * 1e10 */\n  0xe8d4a51000\n    /* \"contracts/ShadowPool.sol\":3094:3134  uint256 public BOOST_WEIGHT = 100 * 1e10 */\n  0x12\n  sstore\n    /* \"contracts/ShadowPool.sol\":3183:3186  200 */\n  0xc8\n    /* \"contracts/ShadowPool.sol\":3151:3186  uint256 public performanceFee = 200 */\n  0x13\n  sstore\n    /* \"contracts/ShadowPool.sol\":3239:3242  200 */\n  0xc8\n    /* \"contracts/ShadowPool.sol\":3199:3242  uint256 public performanceFeeContract = 200 */\n  0x14\n  sstore\n    /* \"contracts/ShadowPool.sol\":3284:3286  10 */\n  0x0a\n    /* \"contracts/ShadowPool.sol\":3255:3286  uint256 public withdrawFee = 10 */\n  0x15\n  sstore\n    /* \"contracts/ShadowPool.sol\":3338:3340  10 */\n  0x0a\n    /* \"contracts/ShadowPool.sol\":3301:3340  uint256 public withdrawFeeContract = 10 */\n  0x16\n  sstore\n    /* \"contracts/ShadowPool.sol\":3383:3393  100 * 1e10 */\n  0xe8d4a51000\n    /* \"contracts/ShadowPool.sol\":3355:3393  uint256 public overdueFee = 100 * 1e10 */\n  0x17\n  sstore\n    /* \"contracts/ShadowPool.sol\":3443:3451  72 hours */\n  0x03f480\n    /* \"contracts/ShadowPool.sol\":3408:3451  uint256 public withdrawFeePeriod = 72 hours */\n  0x18\n  sstore\n    /* \"contracts/ShadowPool.sol\":5311:5684  constructor(\r... */\n  callvalue\n  dup1\n  iszero\n  tag_1\n  jumpi\n  0x00\n  dup1\n  revert\ntag_1:\n  pop\n  mload(0x40)\n  sub(codesize, bytecodeSize)\n  dup1\n  bytecodeSize\n  dup4\n  codecopy\n  dup2\n  add\n  0x40\n  dup2\n  swap1\n  mstore\n  tag_2\n  swap2\n  tag_3\n  jump\t// in\ntag_2:\n    /* \"@openzeppelin/contracts/access/Ownable.sol\":936:968  _transferOwnership(_msgSender()) */\n  tag_8\n    /* \"@openzeppelin/contracts/access/Ownable.sol\":955:967  _msgSender() */\n  tag_9\n    /* \"@openzeppelin/contracts/access/Ownable.sol\":955:965  _msgSender */\n  tag_10\n    /* \"@openzeppelin/contracts/access/Ownable.sol\":955:967  _msgSender() */\n  jump\t// in\ntag_9:\n    /* \"@openzeppelin/contracts/access/Ownable.sol\":936:954  _transferOwnership */\n  tag_11\n    /* \"@openzeppelin/contracts/access/Ownable.sol\":936:968  _transferOwnership(_msgSender()) */\n  jump\t// in\ntag_8:\n    /* \"@openzeppelin/contracts/security/Pausable.sol\":1006:1011  false */\n  0x00\n    /* \"@openzeppelin/contracts/security/Pausable.sol\":996:1011  _paused = false */\n  dup1\n  sload\n  not(shl(0xa0, 0xff))\n  and\n  swap1\n  sstore\n  not(sub(shl(0x60, 0x01), 0x01))\n    /* \"contracts/ShadowPool.sol\":5507:5521  token = _token */\n  0x60\n  swap7\n  dup8\n  shl\n  dup2\n  and\n  0x80\n  mstore\n    /* \"contracts/ShadowPool.sol\":5532:5560  shadowchefV2 = _shadowchefV2 */\n  swap5\n  swap1\n  swap6\n  shl\n  swap1\n  swap4\n  and\n  0xa0\n  mstore\n    /* \"contracts/ShadowPool.sol\":5571:5576  admin */\n  0x08\n    /* \"contracts/ShadowPool.sol\":5571:5585  admin = _admin */\n  dup1\n  sload\n  sub(shl(0xa0, 0x01), 0x01)\n  swap4\n  dup5\n  and\n  not(sub(shl(0xa0, 0x01), 0x01))\n  swap2\n  dup3\n  and\n  or\n  swap1\n  swap2\n  sstore\n    /* \"contracts/ShadowPool.sol\":5596:5604  treasury */\n  0x09\n    /* \"contracts/ShadowPool.sol\":5596:5616  treasury = _treasury */\n  dup1\n  sload\n  swap3\n  dup5\n  and\n  swap3\n  dup3\n  and\n  swap3\n  swap1\n  swap3\n  or\n  swap1\n  swap2\n  sstore\n    /* \"contracts/ShadowPool.sol\":5627:5635  operator */\n  0x0a\n    /* \"contracts/ShadowPool.sol\":5627:5647  operator = _operator */\n  dup1\n  sload\n  swap3\n  swap1\n  swap4\n  and\n  swap2\n  and\n  or\n  swap1\n  sstore\n    /* \"contracts/ShadowPool.sol\":5658:5669  shdwPoolPID */\n  0x0b\n    /* \"contracts/ShadowPool.sol\":5658:5676  shdwPoolPID = _pid */\n  sstore\n    /* \"contracts/ShadowPool.sol\":360:33992  contract ShadowPool is Ownable, Pausable {\r... */\n  jump(tag_17)\n    /* \"@openzeppelin/contracts/utils/Context.sol\":640:736  function _msgSender() internal view virtual returns (address) {... */\ntag_10:\n    /* \"@openzeppelin/contracts/utils/Context.sol\":719:729  msg.sender */\n  caller\n    /* \"@openzeppelin/contracts/utils/Context.sol\":640:736  function _msgSender() internal view virtual returns (address) {... */\n  swap1\n  jump\t// out\n    /* \"@openzeppelin/contracts/access/Ownable.sol\":2433:2620  function _transferOwnership(address newOwner) internal virtual {... */\ntag_11:\n    /* \"@openzeppelin/contracts/access/Ownable.sol\":2506:2522  address oldOwner */\n  0x00\n    /* \"@openzeppelin/contracts/access/Ownable.sol\":2525:2531  _owner */\n  dup1\n  sload\n  sub(shl(0xa0, 0x01), 0x01)\n    /* \"@openzeppelin/contracts/access/Ownable.sol\":2541:2558  _owner = newOwner */\n  dup4\n  dup2\n  and\n  not(sub(shl(0xa0, 0x01), 0x01))\n  dup4\n  and\n  dup2\n  or\n  dup5\n  sstore\n    /* \"@openzeppelin/contracts/access/Ownable.sol\":2573:2613  OwnershipTransferred(oldOwner, newOwner) */\n  mload(0x40)\n    /* \"@openzeppelin/contracts/access/Ownable.sol\":2525:2531  _owner */\n  swap2\n  swap1\n  swap3\n  and\n  swap3\n  dup4\n  swap2\n    /* \"@openzeppelin/contracts/access/Ownable.sol\":2573:2613  OwnershipTransferred(oldOwner, newOwner) */\n  0x8be0079c531659141344cd1fd0a4f28419497f9722a3daafe3b4186f6b6457e0\n  swap2\n    /* \"@openzeppelin/contracts/access/Ownable.sol\":2506:2522  address oldOwner */\n  swap1\n    /* \"@openzeppelin/contracts/access/Ownable.sol\":2573:2613  OwnershipTransferred(oldOwner, newOwner) */\n  log3\n    /* \"@openzeppelin/contracts/access/Ownable.sol\":2433:2620  function _transferOwnership(address newOwner) internal virtual {... */\n  pop\n  pop\n  jump\t// out\n    /* \"#utility.yul\":14:921   */\ntag_3:\n  0x00\n  dup1\n  0x00\n  dup1\n  0x00\n  dup1\n    /* \"#utility.yul\":258:261   */\n  0xc0\n    /* \"#utility.yul\":246:255   */\n  dup8\n    /* \"#utility.yul\":237:244   */\n  dup10\n    /* \"#utility.yul\":233:256   */\n  sub\n    /* \"#utility.yul\":229:262   */\n  slt\n    /* \"#utility.yul\":226:228   */\n  iszero\n  tag_19\n  jumpi\n    /* \"#utility.yul\":280:286   */\n  dup2\n    /* \"#utility.yul\":272:278   */\n  dup3\n    /* \"#utility.yul\":265:287   */\n  revert\n    /* \"#utility.yul\":226:228   */\ntag_19:\n    /* \"#utility.yul\":317:326   */\n  dup7\n    /* \"#utility.yul\":311:327   */\n  mload\n    /* \"#utility.yul\":336:369   */\n  tag_20\n    /* \"#utility.yul\":363:368   */\n  dup2\n    /* \"#utility.yul\":336:369   */\n  tag_21\n  jump\t// in\ntag_20:\n    /* \"#utility.yul\":438:440   */\n  0x20\n    /* \"#utility.yul\":423:441   */\n  dup9\n  add\n    /* \"#utility.yul\":417:442   */\n  mload\n    /* \"#utility.yul\":388:393   */\n  swap1\n  swap7\n  pop\n    /* \"#utility.yul\":451:486   */\n  tag_22\n    /* \"#utility.yul\":417:442   */\n  dup2\n    /* \"#utility.yul\":451:486   */\n  tag_21\n  jump\t// in\ntag_22:\n    /* \"#utility.yul\":557:559   */\n  0x40\n    /* \"#utility.yul\":542:560   */\n  dup9\n  add\n    /* \"#utility.yul\":536:561   */\n  mload\n    /* \"#utility.yul\":505:512   */\n  swap1\n  swap6\n  pop\n    /* \"#utility.yul\":570:605   */\n  tag_23\n    /* \"#utility.yul\":536:561   */\n  dup2\n    /* \"#utility.yul\":570:605   */\n  tag_21\n  jump\t// in\ntag_23:\n    /* \"#utility.yul\":676:678   */\n  0x60\n    /* \"#utility.yul\":661:679   */\n  dup9\n  add\n    /* \"#utility.yul\":655:680   */\n  mload\n    /* \"#utility.yul\":624:631   */\n  swap1\n  swap5\n  pop\n    /* \"#utility.yul\":689:724   */\n  tag_24\n    /* \"#utility.yul\":655:680   */\n  dup2\n    /* \"#utility.yul\":689:724   */\n  tag_21\n  jump\t// in\ntag_24:\n    /* \"#utility.yul\":795:798   */\n  0x80\n    /* \"#utility.yul\":780:799   */\n  dup9\n  add\n    /* \"#utility.yul\":774:800   */\n  mload\n    /* \"#utility.yul\":743:750   */\n  swap1\n  swap4\n  pop\n    /* \"#utility.yul\":809:844   */\n  tag_25\n    /* \"#utility.yul\":774:800   */\n  dup2\n    /* \"#utility.yul\":809:844   */\n  tag_21\n  jump\t// in\ntag_25:\n    /* \"#utility.yul\":863:870   */\n  dup1\n    /* \"#utility.yul\":853:870   */\n  swap3\n  pop\n  pop\n    /* \"#utility.yul\":910:913   */\n  0xa0\n    /* \"#utility.yul\":899:908   */\n  dup8\n    /* \"#utility.yul\":895:914   */\n  add\n    /* \"#utility.yul\":889:915   */\n  mload\n    /* \"#utility.yul\":879:915   */\n  swap1\n  pop\n    /* \"#utility.yul\":216:921   */\n  swap3\n  swap6\n  pop\n  swap3\n  swap6\n  pop\n  swap3\n  swap6\n  jump\t// out\n    /* \"#utility.yul\":926:1059   */\ntag_21:\n  sub(shl(0xa0, 0x01), 0x01)\n    /* \"#utility.yul\":1003:1034   */\n  dup2\n  and\n    /* \"#utility.yul\":993:1035   */\n  dup2\n  eq\n    /* \"#utility.yul\":983:985   */\n  tag_27\n  jumpi\n    /* \"#utility.yul\":1049:1050   */\n  0x00\n    /* \"#utility.yul\":1046:1047   */\n  dup1\n    /* \"#utility.yul\":1039:1051   */\n  revert\n    /* \"#utility.yul\":983:985   */\ntag_27:\n    /* \"#utility.yul\":973:1059   */\n  pop\n  jump\t// out\ntag_17:\n    /* \"contracts/ShadowPool.sol\":360:33992  contract ShadowPool is Ownable, Pausable {\r... */\n  shr(0x60, mload(0x80))\n  shr(0x60, mload(0xa0))\n  codecopy(0x00, dataOffset(sub_0), dataSize(sub_0))\n  0x00\n  assignImmutable(\"0x3f2cb8b8a6f6ba8772056c1e4910fb442737deea593ec84e00cbccee66f6d0e1\")\n  0x00\n  assignImmutable(\"0x8d841e129c158ed00fc3618c65b249d82e3b0efc8bcebb06537fd0a18b989353\")\n  return(0x00, dataSize(sub_0))\nstop\n\nsub_0: assembly {\n        /* \"contracts/ShadowPool.sol\":360:33992  contract ShadowPool is Ownable, Pausable {\r... */\n      mstore(0x40, 0x80)\n      callvalue\n      dup1\n      iszero\n      tag_1\n      jumpi\n      0x00\n      dup1\n      revert\n    tag_1:\n      pop\n      jumpi(tag_2, lt(calldatasize, 0x04))\n      shr(0xe0, calldataload(0x00))\n      dup1\n      0x87788782\n      gt\n      tag_79\n      jumpi\n      dup1\n      0xc6ed51be\n      gt\n      tag_80\n      jumpi\n      dup1\n      0xe464c623\n      gt\n      tag_81\n      jumpi\n      dup1\n      0xf2fde38b\n      gt\n      tag_82\n      jumpi\n      dup1\n      0xf851a440\n      gt\n      tag_83\n      jumpi\n      dup1\n      0xf851a440\n      eq\n      tag_76\n      jumpi\n      dup1\n      0xfc0c546a\n      eq\n      tag_77\n      jumpi\n      dup1\n      0xfd253b64\n      eq\n      tag_78\n      jumpi\n      jump(tag_2)\n    tag_83:\n      dup1\n      0xf2fde38b\n      eq\n      tag_74\n      jumpi\n      dup1\n      0xf786b958\n      eq\n      tag_75\n      jumpi\n      jump(tag_2)\n    tag_82:\n      dup1\n      0xe73008bc\n      gt\n      tag_84\n      jumpi\n      dup1\n      0xe73008bc\n      eq\n      tag_71\n      jumpi\n      dup1\n      0xe941fa78\n      eq\n      tag_72\n      jumpi\n      dup1\n      0xf0f44260\n      eq\n      tag_73\n      jumpi\n      jump(tag_2)\n    tag_84:\n      dup1\n      0xe464c623\n      eq\n      tag_69\n      jumpi\n      dup1\n      0xe4b37ef5\n      eq\n      tag_70\n      jumpi\n      jump(tag_2)\n    tag_81:\n      dup1\n      0xdef68a9c\n      gt\n      tag_85\n      jumpi\n      dup1\n      0xdf10b4e6\n      gt\n      tag_86\n      jumpi\n      dup1\n      0xdf10b4e6\n      eq\n      tag_66\n      jumpi\n      dup1\n      0xdfcedeee\n      eq\n      tag_67\n      jumpi\n      dup1\n      0xe2bbb158\n      eq\n      tag_68\n      jumpi\n      jump(tag_2)\n    tag_86:\n      dup1\n      0xdef68a9c\n      eq\n      tag_64\n      jumpi\n      dup1\n      0xdef7869d\n      eq\n      tag_65\n      jumpi\n      jump(tag_2)\n    tag_85:\n      dup1\n      0xc6ed51be\n      eq\n      tag_60\n      jumpi\n      dup1\n      0xcc9cfba1\n      eq\n      tag_61\n      jumpi\n      dup1\n      0xccd34cd5\n      eq\n      tag_45\n      jumpi\n      dup1\n      0xd4b0de2f\n      eq\n      tag_63\n      jumpi\n      jump(tag_2)\n    tag_80:\n      dup1\n      0xacaf88cd\n      gt\n      tag_87\n      jumpi\n      dup1\n      0xbc3d652a\n      gt\n      tag_88\n      jumpi\n      dup1\n      0xbdca9165\n      gt\n      tag_89\n      jumpi\n      dup1\n      0xbdca9165\n      eq\n      tag_57\n      jumpi\n      dup1\n      0xbeba0fa0\n      eq\n      tag_58\n      jumpi\n      dup1\n      0xc54d349c\n      eq\n      tag_59\n      jumpi\n      jump(tag_2)\n    tag_89:\n      dup1\n      0xbc3d652a\n      eq\n      tag_55\n      jumpi\n      dup1\n      0xbc75f4b8\n      eq\n      tag_56\n      jumpi\n      jump(tag_2)\n    tag_88:\n      dup1\n      0xb6857844\n      gt\n      tag_90\n      jumpi\n      dup1\n      0xb6857844\n      eq\n      tag_9\n      jumpi\n      dup1\n      0xb6ac642a\n      eq\n      tag_53\n      jumpi\n      dup1\n      0xbb9f408d\n      eq\n      tag_54\n      jumpi\n      jump(tag_2)\n    tag_90:\n      dup1\n      0xacaf88cd\n      eq\n      tag_50\n      jumpi\n      dup1\n      0xb3ab15fb\n      eq\n      tag_51\n      jumpi\n      jump(tag_2)\n    tag_87:\n      dup1\n      0x948a03f2\n      gt\n      tag_91\n      jumpi\n      dup1\n      0xa3639b39\n      gt\n      tag_92\n      jumpi\n      dup1\n      0xa3639b39\n      eq\n      tag_47\n      jumpi\n      dup1\n      0xa5834e06\n      eq\n      tag_48\n      jumpi\n      dup1\n      0xaaada5da\n      eq\n      tag_49\n      jumpi\n      jump(tag_2)\n    tag_92:\n      dup1\n      0x948a03f2\n      eq\n      tag_45\n      jumpi\n      dup1\n      0x95dc14e1\n      eq\n      tag_46\n      jumpi\n      jump(tag_2)\n    tag_91:\n      dup1\n      0x87788782\n      eq\n      tag_41\n      jumpi\n      dup1\n      0x87d4bda9\n      eq\n      tag_42\n      jumpi\n      dup1\n      0x8da5cb5b\n      eq\n      tag_43\n      jumpi\n      dup1\n      0x93c99e6a\n      eq\n      tag_44\n      jumpi\n      jump(tag_2)\n    tag_79:\n      dup1\n      0x4e4de1e9\n      gt\n      tag_93\n      jumpi\n      dup1\n      0x668679ba\n      gt\n      tag_94\n      jumpi\n      dup1\n      0x731ff24a\n      gt\n      tag_95\n      jumpi\n      dup1\n      0x78b4330f\n      gt\n      tag_96\n      jumpi\n      dup1\n      0x78b4330f\n      eq\n      tag_12\n      jumpi\n      dup1\n      0x8456cb59\n      eq\n      tag_39\n      jumpi\n      dup1\n      0x853828b6\n      eq\n      tag_40\n      jumpi\n      jump(tag_2)\n    tag_96:\n      dup1\n      0x731ff24a\n      eq\n      tag_36\n      jumpi\n      dup1\n      0x77c7b8fc\n      eq\n      tag_37\n      jumpi\n      jump(tag_2)\n    tag_95:\n      dup1\n      0x70897b23\n      gt\n      tag_97\n      jumpi\n      dup1\n      0x70897b23\n      eq\n      tag_33\n      jumpi\n      dup1\n      0x715018a6\n      eq\n      tag_34\n      jumpi\n      dup1\n      0x722713f7\n      eq\n      tag_35\n      jumpi\n      jump(tag_2)\n    tag_97:\n      dup1\n      0x668679ba\n      eq\n      tag_31\n      jumpi\n      dup1\n      0x704b6c02\n      eq\n      tag_32\n      jumpi\n      jump(tag_2)\n    tag_94:\n      dup1\n      0x570ca735\n      gt\n      tag_98\n      jumpi\n      dup1\n      0x61d027b3\n      gt\n      tag_99\n      jumpi\n      dup1\n      0x61d027b3\n      eq\n      tag_28\n      jumpi\n      dup1\n      0x61fa6368\n      eq\n      tag_29\n      jumpi\n      dup1\n      0x62122f5a\n      eq\n      tag_30\n      jumpi\n      jump(tag_2)\n    tag_99:\n      dup1\n      0x570ca735\n      eq\n      tag_26\n      jumpi\n      dup1\n      0x5c975abb\n      eq\n      tag_27\n      jumpi\n      jump(tag_2)\n    tag_98:\n      dup1\n      0x4e4de1e9\n      eq\n      tag_22\n      jumpi\n      dup1\n      0x4f1bfc9e\n      eq\n      tag_23\n      jumpi\n      dup1\n      0x51fb26df\n      eq\n      tag_24\n      jumpi\n      dup1\n      0x5521e9bf\n      eq\n      tag_25\n      jumpi\n      jump(tag_2)\n    tag_93:\n      dup1\n      0x2cfc5f01\n      gt\n      tag_100\n      jumpi\n      dup1\n      0x3eb78874\n      gt\n      tag_101\n      jumpi\n      dup1\n      0x3fec4e32\n      gt\n      tag_102\n      jumpi\n      dup1\n      0x3fec4e32\n      eq\n      tag_19\n      jumpi\n      dup1\n      0x423b93ed\n      eq\n      tag_20\n      jumpi\n      dup1\n      0x48a0d754\n      eq\n      tag_21\n      jumpi\n      jump(tag_2)\n    tag_102:\n      dup1\n      0x3eb78874\n      eq\n      tag_17\n      jumpi\n      dup1\n      0x3f4ba83a\n      eq\n      tag_18\n      jumpi\n      jump(tag_2)\n    tag_101:\n      dup1\n      0x2f6c493c\n      gt\n      tag_103\n      jumpi\n      dup1\n      0x2f6c493c\n      eq\n      tag_14\n      jumpi\n      dup1\n      0x35981921\n      eq\n      tag_15\n      jumpi\n      dup1\n      0x3a98ef39\n      eq\n      tag_16\n      jumpi\n      jump(tag_2)\n    tag_103:\n      dup1\n      0x2cfc5f01\n      eq\n      tag_12\n      jumpi\n      dup1\n      0x2e1a7d4d\n      eq\n      tag_13\n      jumpi\n      jump(tag_2)\n    tag_100:\n      dup1\n      0x1959a002\n      gt\n      tag_104\n      jumpi\n      dup1\n      0x1ea30fef\n      gt\n      tag_105\n      jumpi\n      dup1\n      0x1ea30fef\n      eq\n      tag_9\n      jumpi\n      dup1\n      0x1efac1b8\n      eq\n      tag_10\n      jumpi\n      dup1\n      0x29a5cfd6\n      eq\n      tag_11\n      jumpi\n      jump(tag_2)\n    tag_105:\n      dup1\n      0x1959a002\n      eq\n      tag_7\n      jumpi\n      dup1\n      0x19ab453c\n      eq\n      tag_8\n      jumpi\n      jump(tag_2)\n    tag_104:\n      dup1\n      0x01e81326\n      eq\n      tag_3\n      jumpi\n      dup1\n      0x05a9f274\n      eq\n      tag_4\n      jumpi\n      dup1\n      0x0c59696b\n      eq\n      tag_5\n      jumpi\n      dup1\n      0x14ff3039\n      eq\n      tag_6\n      jumpi\n    tag_2:\n      0x00\n      dup1\n      revert\n        /* \"contracts/ShadowPool.sol\":2312:2371  uint256 public constant MAX_LOCK_DURATION_LIMIT = 1000 days */\n    tag_3:\n      tag_106\n      tag_107\n      jump\t// in\n    tag_106:\n      mload(0x40)\n      tag_108\n      swap2\n      swap1\n      tag_109\n      jump\t// in\n    tag_108:\n      mload(0x40)\n      dup1\n      swap2\n      sub\n      swap1\n      return\n        /* \"contracts/ShadowPool.sol\":1917:1949  uint256 public totalLockedAmount */\n    tag_4:\n      tag_106\n      tag_111\n      jump\t// in\n        /* \"contracts/ShadowPool.sol\":24861:25109  function setOverdueFee(uint256 _overdueFee) external onlyAdmin {\r... */\n    tag_5:\n      tag_113\n      tag_114\n      calldatasize\n      0x04\n      tag_115\n      jump\t// in\n    tag_114:\n      tag_116\n      jump\t// in\n    tag_113:\n      stop\n        /* \"contracts/ShadowPool.sol\":25231:25544  function setWithdrawFeeContract(uint256 _withdrawFeeContract) external onlyAdmin {\r... */\n    tag_6:\n      tag_113\n      tag_118\n      calldatasize\n      0x04\n      tag_115\n      jump\t// in\n    tag_118:\n      tag_119\n      jump\t// in\n        /* \"contracts/ShadowPool.sol\":1389:1433  mapping(address => UserInfo) public userInfo */\n    tag_7:\n      tag_120\n      tag_121\n      calldatasize\n      0x04\n      tag_122\n      jump\t// in\n    tag_121:\n      tag_123\n      jump\t// in\n    tag_120:\n      mload(0x40)\n      tag_108\n      swap10\n      swap9\n      swap8\n      swap7\n      swap6\n      swap5\n      swap4\n      swap3\n      swap2\n      swap1\n      tag_125\n      jump\t// in\n        /* \"contracts/ShadowPool.sol\":5922:6310  function init(IERC20 dummyToken) external onlyOwner {\r... */\n    tag_8:\n      tag_113\n      tag_127\n      calldatasize\n      0x04\n      tag_122\n      jump\t// in\n    tag_127:\n      tag_129\n      jump\t// in\n        /* \"contracts/ShadowPool.sol\":2629:2687  uint256 public constant MIN_DEPOSIT_AMOUNT = 0.00001 ether */\n    tag_9:\n      tag_106\n      tag_131\n      jump\t// in\n        /* \"contracts/ShadowPool.sol\":25660:26016  function setWithdrawFeePeriod(uint256 _withdrawFeePeriod) external onlyAdmin {\r... */\n    tag_10:\n      tag_113\n      tag_134\n      calldatasize\n      0x04\n      tag_115\n      jump\t// in\n    tag_134:\n      tag_135\n      jump\t// in\n        /* \"contracts/ShadowPool.sol\":31559:32661  function calculateWithdrawFee(address _user, uint256 _shares) public view returns (uint256) {\r... */\n    tag_11:\n      tag_106\n      tag_137\n      calldatasize\n      0x04\n      tag_138\n      jump\t// in\n    tag_137:\n      tag_139\n      jump\t// in\n        /* \"contracts/ShadowPool.sol\":2170:2227  uint256 public constant MAX_WITHDRAW_FEE_PERIOD = 1 weeks */\n    tag_12:\n      tag_106\n      tag_142\n      jump\t// in\n        /* \"contracts/ShadowPool.sol\":17324:17482  function withdraw(uint256 _shares) public whenNotPaused {\r... */\n    tag_13:\n      tag_113\n      tag_145\n      calldatasize\n      0x04\n      tag_115\n      jump\t// in\n    tag_145:\n      tag_146\n      jump\t// in\n        /* \"contracts/ShadowPool.sol\":11330:11603  function unlock(address _user) external onlyOperatorOrShdwOwner(_user) whenNotPaused {\r... */\n    tag_14:\n      tag_113\n      tag_148\n      calldatasize\n      0x04\n      tag_122\n      jump\t// in\n    tag_148:\n      tag_149\n      jump\t// in\n        /* \"contracts/ShadowPool.sol\":26953:27257  function setDurationFactorOverdue(uint256 _durationFactorOverdue) external onlyAdmin {\r... */\n    tag_15:\n      tag_113\n      tag_151\n      calldatasize\n      0x04\n      tag_115\n      jump\t// in\n    tag_151:\n      tag_152\n      jump\t// in\n        /* \"contracts/ShadowPool.sol\":1707:1733  uint256 public totalShares */\n    tag_16:\n      tag_106\n      tag_154\n      jump\t// in\n        /* \"contracts/ShadowPool.sol\":3199:3242  uint256 public performanceFeeContract = 200 */\n    tag_17:\n      tag_106\n      tag_157\n      jump\t// in\n        /* \"contracts/ShadowPool.sol\":28737:28840  function unpause() external onlyAdmin whenPaused {\r... */\n    tag_18:\n      tag_113\n      tag_160\n      jump\t// in\n        /* \"contracts/ShadowPool.sol\":1440:1495  mapping(address => bool) public freePerformanceFeeUsers */\n    tag_19:\n      tag_161\n      tag_162\n      calldatasize\n      0x04\n      tag_122\n      jump\t// in\n    tag_162:\n      tag_163\n      jump\t// in\n    tag_161:\n      mload(0x40)\n      tag_108\n      swap2\n      swap1\n      tag_165\n      jump\t// in\n        /* \"contracts/ShadowPool.sol\":22366:22610  function setFreePerformanceFeeUser(address _user, bool _free) external onlyAdmin {\r... */\n    tag_20:\n      tag_113\n      tag_167\n      calldatasize\n      0x04\n      tag_168\n      jump\t// in\n    tag_167:\n      tag_169\n      jump\t// in\n        /* \"contracts/ShadowPool.sol\":33332:33439  function available() public view returns (uint256) {\r... */\n    tag_21:\n      tag_106\n      tag_171\n      jump\t// in\n        /* \"contracts/ShadowPool.sol\":22813:23045  function setOverdueFeeUser(address _user, bool _free) external onlyAdmin {\r... */\n    tag_22:\n      tag_113\n      tag_174\n      calldatasize\n      0x04\n      tag_168\n      jump\t// in\n    tag_174:\n      tag_175\n      jump\t// in\n        /* \"contracts/ShadowPool.sol\":2822:2865  uint256 public MAX_LOCK_DURATION = 365 days */\n    tag_23:\n      tag_106\n      tag_177\n      jump\t// in\n        /* \"contracts/ShadowPool.sol\":1827:1853  uint256 public shdwPoolPID */\n    tag_24:\n      tag_106\n      tag_180\n      jump\t// in\n        /* \"contracts/ShadowPool.sol\":16973:17194  function withdrawByAmount(uint256 _amount) public whenNotPaused {\r... */\n    tag_25:\n      tag_113\n      tag_183\n      calldatasize\n      0x04\n      tag_115\n      jump\t// in\n    tag_183:\n      tag_184\n      jump\t// in\n        /* \"contracts/ShadowPool.sol\":1797:1820  address public operator */\n    tag_26:\n      tag_185\n      tag_186\n      jump\t// in\n    tag_185:\n      mload(0x40)\n      tag_108\n      swap2\n      swap1\n      tag_188\n      jump\t// in\n        /* \"@openzeppelin/contracts/security/Pausable.sol\":1615:1699  function paused() public view virtual returns (bool) {... */\n    tag_27:\n      tag_161\n      tag_190\n      jump\t// in\n        /* \"contracts/ShadowPool.sol\":1767:1790  address public treasury */\n    tag_28:\n      tag_185\n      tag_193\n      jump\t// in\n        /* \"contracts/ShadowPool.sol\":1360:1380  address public VShdw */\n    tag_29:\n      tag_185\n      tag_196\n      jump\t// in\n        /* \"contracts/ShadowPool.sol\":21960:22159  function setVShdwContract(address _VShdw) external onlyAdmin {\r... */\n    tag_30:\n      tag_113\n      tag_199\n      calldatasize\n      0x04\n      tag_122\n      jump\t// in\n    tag_199:\n      tag_200\n      jump\t// in\n        /* \"contracts/ShadowPool.sol\":1620:1671  mapping(address => bool) public freeOverdueFeeUsers */\n    tag_31:\n      tag_161\n      tag_202\n      calldatasize\n      0x04\n      tag_122\n      jump\t// in\n    tag_202:\n      tag_203\n      jump\t// in\n        /* \"contracts/ShadowPool.sol\":20681:20864  function setAdmin(address _admin) external onlyOwner {\r... */\n    tag_32:\n      tag_113\n      tag_206\n      calldatasize\n      0x04\n      tag_122\n      jump\t// in\n    tag_206:\n      tag_207\n      jump\t// in\n        /* \"contracts/ShadowPool.sol\":23595:23882  function setPerformanceFee(uint256 _performanceFee) external onlyAdmin {\r... */\n    tag_33:\n      tag_113\n      tag_209\n      calldatasize\n      0x04\n      tag_115\n      jump\t// in\n    tag_209:\n      tag_210\n      jump\t// in\n        /* \"@openzeppelin/contracts/access/Ownable.sol\":1831:1932  function renounceOwnership() public virtual onlyOwner {... */\n    tag_34:\n      tag_113\n      tag_212\n      jump\t// in\n        /* \"contracts/ShadowPool.sol\":33600:33724  function balanceOf() public view returns (uint256) {\r... */\n    tag_35:\n      tag_106\n      tag_214\n      jump\t// in\n        /* \"contracts/ShadowPool.sol\":2538:2591  uint256 public constant PRECISION_FACTOR_SHARE = 1e28 */\n    tag_36:\n      tag_106\n      tag_217\n      jump\t// in\n        /* \"contracts/ShadowPool.sol\":33007:33200  function getPricePerFullShare() external view returns (uint256) {\r... */\n    tag_37:\n      tag_106\n      tag_220\n      jump\t// in\n        /* \"contracts/ShadowPool.sol\":28520:28620  function pause() external onlyAdmin whenNotPaused {\r... */\n    tag_39:\n      tag_113\n      tag_226\n      jump\t// in\n        /* \"contracts/ShadowPool.sol\":20027:20115  function withdrawAll() external {\r... */\n    tag_40:\n      tag_113\n      tag_228\n      jump\t// in\n        /* \"contracts/ShadowPool.sol\":3151:3186  uint256 public performanceFee = 200 */\n    tag_41:\n      tag_106\n      tag_230\n      jump\t// in\n        /* \"contracts/ShadowPool.sol\":1533:1585  mapping(address => bool) public freeWithdrawFeeUsers */\n    tag_42:\n      tag_161\n      tag_233\n      calldatasize\n      0x04\n      tag_122\n      jump\t// in\n    tag_233:\n      tag_234\n      jump\t// in\n        /* \"@openzeppelin/contracts/access/Ownable.sol\":1201:1286  function owner() public view virtual returns (address) {... */\n    tag_43:\n      tag_185\n      tag_237\n      jump\t// in\n        /* \"contracts/ShadowPool.sol\":27763:28027  function setBoostWeight(uint256 _boostWeight) external onlyAdmin {\r... */\n    tag_44:\n      tag_113\n      tag_240\n      calldatasize\n      0x04\n      tag_115\n      jump\t// in\n    tag_240:\n      tag_241\n      jump\t// in\n        /* \"contracts/ShadowPool.sol\":2103:2155  uint256 public constant MAX_OVERDUE_FEE = 100 * 1e10 */\n    tag_45:\n      tag_106\n      tag_243\n      jump\t// in\n        /* \"contracts/ShadowPool.sol\":29867:31015  function calculateOverdueFee(address _user) public view returns (uint256) {\r... */\n    tag_46:\n      tag_106\n      tag_246\n      calldatasize\n      0x04\n      tag_122\n      jump\t// in\n    tag_246:\n      tag_247\n      jump\t// in\n        /* \"contracts/ShadowPool.sol\":26587:26833  function setDurationFactor(uint256 _durationFactor) external onlyAdmin {\r... */\n    tag_47:\n      tag_113\n      tag_250\n      calldatasize\n      0x04\n      tag_115\n      jump\t// in\n    tag_250:\n      tag_251\n      jump\t// in\n        /* \"contracts/ShadowPool.sol\":3355:3393  uint256 public overdueFee = 100 * 1e10 */\n    tag_48:\n      tag_106\n      tag_253\n      jump\t// in\n        /* \"contracts/ShadowPool.sol\":2760:2805  uint256 public UNLOCK_FREE_DURATION = 1 weeks */\n    tag_49:\n      tag_106\n      tag_256\n      jump\t// in\n        /* \"contracts/ShadowPool.sol\":2990:3039  uint256 public DURATION_FACTOR_OVERDUE = 180 days */\n    tag_50:\n      tag_106\n      tag_259\n      jump\t// in\n        /* \"contracts/ShadowPool.sol\":21289:21493  function setOperator(address _operator) external onlyOwner {\r... */\n    tag_51:\n      tag_113\n      tag_262\n      calldatasize\n      0x04\n      tag_122\n      jump\t// in\n    tag_262:\n      tag_263\n      jump\t// in\n        /* \"contracts/ShadowPool.sol\":24496:24753  function setWithdrawFee(uint256 _withdrawFee) external onlyAdmin {\r... */\n    tag_53:\n      tag_113\n      tag_268\n      calldatasize\n      0x04\n      tag_115\n      jump\t// in\n    tag_268:\n      tag_269\n      jump\t// in\n        /* \"contracts/ShadowPool.sol\":24007:24387  function setPerformanceFeeContract(uint256 _performanceFeeContract) external onlyAdmin {\r... */\n    tag_54:\n      tag_113\n      tag_271\n      calldatasize\n      0x04\n      tag_115\n      jump\t// in\n    tag_271:\n      tag_272\n      jump\t// in\n        /* \"contracts/ShadowPool.sol\":1235:1278  IShadowChefV2 public immutable shadowchefV2 */\n    tag_55:\n      tag_185\n      tag_274\n      jump\t// in\n        /* \"contracts/ShadowPool.sol\":3094:3134  uint256 public BOOST_WEIGHT = 100 * 1e10 */\n    tag_56:\n      tag_106\n      tag_278\n      jump\t// in\n        /* \"contracts/ShadowPool.sol\":1980:2030  uint256 public constant MAX_PERFORMANCE_FEE = 2000 */\n    tag_57:\n      tag_106\n      tag_281\n      jump\t// in\n        /* \"contracts/ShadowPool.sol\":23249:23483  function setWithdrawFeeUser(address _user, bool _free) external onlyAdmin {\r... */\n    tag_58:\n      tag_113\n      tag_284\n      calldatasize\n      0x04\n      tag_168\n      jump\t// in\n    tag_284:\n      tag_285\n      jump\t// in\n        /* \"contracts/ShadowPool.sol\":27374:27654  function setUnlockFreeDuration(uint256 _unlockFreeDuration) external onlyAdmin {\r... */\n    tag_59:\n      tag_113\n      tag_287\n      calldatasize\n      0x04\n      tag_115\n      jump\t// in\n    tag_287:\n      tag_288\n      jump\t// in\n        /* \"contracts/ShadowPool.sol\":28985:29730  function calculatePerformanceFee(address _user) public view returns (uint256) {\r... */\n    tag_60:\n      tag_106\n      tag_290\n      calldatasize\n      0x04\n      tag_122\n      jump\t// in\n    tag_290:\n      tag_291\n      jump\t// in\n        /* \"contracts/ShadowPool.sol\":32813:32999  function calculateTotalpendingShdwRewards() public view returns (uint256) {\r... */\n    tag_61:\n      tag_106\n      tag_294\n      jump\t// in\n        /* \"contracts/ShadowPool.sol\":2044:2090  uint256 public constant MAX_WITHDRAW_FEE = 500 */\n    tag_63:\n      tag_106\n      tag_300\n      jump\t// in\n        /* \"contracts/ShadowPool.sol\":28118:28403  function inCaseTokensGetStuck(address _token) external onlyAdmin {\r... */\n    tag_64:\n      tag_113\n      tag_303\n      calldatasize\n      0x04\n      tag_122\n      jump\t// in\n    tag_303:\n      tag_304\n      jump\t// in\n        /* \"contracts/ShadowPool.sol\":21607:21846  function setBoostContract(address _boostContract) external onlyAdmin {\r... */\n    tag_65:\n      tag_113\n      tag_306\n      calldatasize\n      0x04\n      tag_122\n      jump\t// in\n    tag_306:\n      tag_307\n      jump\t// in\n        /* \"contracts/ShadowPool.sol\":3408:3451  uint256 public withdrawFeePeriod = 72 hours */\n    tag_66:\n      tag_106\n      tag_309\n      jump\t// in\n        /* \"contracts/ShadowPool.sol\":1287:1315  address public boostContract */\n    tag_67:\n      tag_185\n      tag_312\n      jump\t// in\n        /* \"contracts/ShadowPool.sol\":11844:12069  function deposit(uint256 _amount, uint256 _lockDuration) external whenNotPaused {\r... */\n    tag_68:\n      tag_113\n      tag_315\n      calldatasize\n      0x04\n      tag_316\n      jump\t// in\n    tag_315:\n      tag_317\n      jump\t// in\n        /* \"contracts/ShadowPool.sol\":2884:2925  uint256 public DURATION_FACTOR = 365 days */\n    tag_69:\n      tag_106\n      tag_319\n      jump\t// in\n        /* \"contracts/ShadowPool.sol\":3301:3340  uint256 public withdrawFeeContract = 10 */\n    tag_70:\n      tag_106\n      tag_322\n      jump\t// in\n        /* \"contracts/ShadowPool.sol\":1860:1889  uint256 public totalBoostDebt */\n    tag_71:\n      tag_106\n      tag_325\n      jump\t// in\n        /* \"contracts/ShadowPool.sol\":3255:3286  uint256 public withdrawFee = 10 */\n    tag_72:\n      tag_106\n      tag_328\n      jump\t// in\n        /* \"contracts/ShadowPool.sol\":20977:21181  function setTreasury(address _treasury) external onlyOwner {\r... */\n    tag_73:\n      tag_113\n      tag_331\n      calldatasize\n      0x04\n      tag_122\n      jump\t// in\n    tag_331:\n      tag_332\n      jump\t// in\n        /* \"@openzeppelin/contracts/access/Ownable.sol\":2081:2279  function transferOwnership(address newOwner) public virtual onlyOwner {... */\n    tag_74:\n      tag_113\n      tag_334\n      calldatasize\n      0x04\n      tag_122\n      jump\t// in\n    tag_334:\n      tag_335\n      jump\t// in\n        /* \"contracts/ShadowPool.sol\":26130:26475  function setMaxLockDuration(uint256 _maxLockDuration) external onlyAdmin {\r... */\n    tag_75:\n      tag_113\n      tag_337\n      calldatasize\n      0x04\n      tag_115\n      jump\t// in\n    tag_337:\n      tag_338\n      jump\t// in\n        /* \"contracts/ShadowPool.sol\":1740:1760  address public admin */\n    tag_76:\n      tag_185\n      tag_340\n      jump\t// in\n        /* \"contracts/ShadowPool.sol\":1182:1211  IERC20 public immutable token */\n    tag_77:\n      tag_185\n      tag_343\n      jump\t// in\n        /* \"contracts/ShadowPool.sol\":2391:2447  uint256 public constant BOOST_WEIGHT_LIMIT = 5000 * 1e10 */\n    tag_78:\n      tag_106\n      tag_347\n      jump\t// in\n        /* \"contracts/ShadowPool.sol\":2312:2371  uint256 public constant MAX_LOCK_DURATION_LIMIT = 1000 days */\n    tag_107:\n        /* \"contracts/ShadowPool.sol\":2362:2371  1000 days */\n      0x05265c00\n        /* \"contracts/ShadowPool.sol\":2312:2371  uint256 public constant MAX_LOCK_DURATION_LIMIT = 1000 days */\n      dup2\n      jump\t// out\n        /* \"contracts/ShadowPool.sol\":1917:1949  uint256 public totalLockedAmount */\n    tag_111:\n      sload(0x0d)\n      dup2\n      jump\t// out\n        /* \"contracts/ShadowPool.sol\":24861:25109  function setOverdueFee(uint256 _overdueFee) external onlyAdmin {\r... */\n    tag_116:\n        /* \"contracts/ShadowPool.sol\":6453:6458  admin */\n      and(0xffffffffffffffffffffffffffffffffffffffff, sload(0x08))\n        /* \"contracts/ShadowPool.sol\":6439:6449  msg.sender */\n      caller\n        /* \"contracts/ShadowPool.sol\":6439:6458  msg.sender == admin */\n      eq\n        /* \"contracts/ShadowPool.sol\":6431:6474  require(msg.sender == admin, \"admin: wut?\") */\n      tag_350\n      jumpi\n      mload(0x40)\n      0x08c379a000000000000000000000000000000000000000000000000000000000\n      dup2\n      mstore\n      0x04\n      add\n      tag_351\n      swap1\n      tag_352\n      jump\t// in\n    tag_351:\n      mload(0x40)\n      dup1\n      swap2\n      sub\n      swap1\n      revert\n    tag_350:\n        /* \"contracts/ShadowPool.sol\":2145:2155  100 * 1e10 */\n      0xe8d4a51000\n        /* \"contracts/ShadowPool.sol\":24943:24954  _overdueFee */\n      dup2\n        /* \"contracts/ShadowPool.sol\":24943:24973  _overdueFee <= MAX_OVERDUE_FEE */\n      gt\n      iszero\n        /* \"contracts/ShadowPool.sol\":24935:25024  require(_overdueFee <= MAX_OVERDUE_FEE, \"overdueFee cannot be more than MAX_OVERDUE_FEE\") */\n      tag_354\n      jumpi\n      mload(0x40)\n      0x08c379a000000000000000000000000000000000000000000000000000000000\n      dup2\n      mstore\n      0x04\n      add\n      tag_351\n      swap1\n      tag_356\n      jump\t// in\n    tag_354:\n        /* \"contracts/ShadowPool.sol\":25035:25045  overdueFee */\n      0x17\n        /* \"contracts/ShadowPool.sol\":25035:25059  overdueFee = _overdueFee */\n      dup2\n      swap1\n      sstore\n        /* \"contracts/ShadowPool.sol\":25075:25101  NewOverdueFee(_overdueFee) */\n      mload(0x40)\n      0xf4bd1c5978320077e792afbb3911e8cab1325ce28a6b3e67f9067a1d80692961\n      swap1\n      tag_357\n      swap1\n        /* \"contracts/ShadowPool.sol\":25048:25059  _overdueFee */\n      dup4\n      swap1\n        /* \"contracts/ShadowPool.sol\":25075:25101  NewOverdueFee(_overdueFee) */\n      tag_109\n      jump\t// in\n    tag_357:\n      mload(0x40)\n      dup1\n      swap2\n      sub\n      swap1\n      log1\n        /* \"contracts/ShadowPool.sol\":24861:25109  function setOverdueFee(uint256 _overdueFee) external onlyAdmin {\r... */\n      pop\n      jump\t// out\n        /* \"contracts/ShadowPool.sol\":25231:25544  function setWithdrawFeeContract(uint256 _withdrawFeeContract) external onlyAdmin {\r... */\n    tag_119:\n        /* \"contracts/ShadowPool.sol\":6453:6458  admin */\n      and(0xffffffffffffffffffffffffffffffffffffffff, sload(0x08))\n        /* \"contracts/ShadowPool.sol\":6439:6449  msg.sender */\n      caller\n        /* \"contracts/ShadowPool.sol\":6439:6458  msg.sender == admin */\n      eq\n        /* \"contracts/ShadowPool.sol\":6431:6474  require(msg.sender == admin, \"admin: wut?\") */\n      tag_359\n      jumpi\n      mload(0x40)\n      0x08c379a000000000000000000000000000000000000000000000000000000000\n      dup2\n      mstore\n      0x04\n      add\n      tag_351\n      swap1\n      tag_352\n      jump\t// in\n    tag_359:\n        /* \"contracts/ShadowPool.sol\":2087:2090  500 */\n      0x01f4\n        /* \"contracts/ShadowPool.sol\":25331:25351  _withdrawFeeContract */\n      dup2\n        /* \"contracts/ShadowPool.sol\":25331:25371  _withdrawFeeContract <= MAX_WITHDRAW_FEE */\n      gt\n      iszero\n        /* \"contracts/ShadowPool.sol\":25323:25424  require(_withdrawFeeContract <= MAX_WITHDRAW_FEE, \"withdrawFee cannot be more than MAX_WITHDRAW_FEE\") */\n      tag_362\n      jumpi\n      mload(0x40)\n      0x08c379a000000000000000000000000000000000000000000000000000000000\n      dup2\n      mstore\n      0x04\n      add\n      tag_351\n      swap1\n      tag_364\n      jump\t// in\n    tag_362:\n        /* \"contracts/ShadowPool.sol\":25435:25454  withdrawFeeContract */\n      0x16\n        /* \"contracts/ShadowPool.sol\":25435:25477  withdrawFeeContract = _withdrawFeeContract */\n      dup2\n      swap1\n      sstore\n        /* \"contracts/ShadowPool.sol\":25493:25536  NewWithdrawFeeContract(withdrawFeeContract) */\n      mload(0x40)\n      0xcab352e118188b8a2f20a2e8c4ce1241ce2c1740aac4f17c5b0831e65824d8ef\n      swap1\n      tag_357\n      swap1\n        /* \"contracts/ShadowPool.sol\":25457:25477  _withdrawFeeContract */\n      dup4\n      swap1\n        /* \"contracts/ShadowPool.sol\":25493:25536  NewWithdrawFeeContract(withdrawFeeContract) */\n      tag_109\n      jump\t// in\n        /* \"contracts/ShadowPool.sol\":1389:1433  mapping(address => UserInfo) public userInfo */\n    tag_123:\n      0x03\n      0x20\n      dup2\n      swap1\n      mstore\n      0x00\n      swap2\n      dup3\n      mstore\n      0x40\n      swap1\n      swap2\n      keccak256\n      dup1\n      sload\n      0x01\n      dup3\n      add\n      sload\n      0x02\n      dup4\n      add\n      sload\n      swap4\n      dup4\n      add\n      sload\n      0x04\n      dup5\n      add\n      sload\n      0x05\n      dup6\n      add\n      sload\n      0x06\n      dup7\n      add\n      sload\n      0x07\n      dup8\n      add\n      sload\n      0x08\n      swap1\n      swap8\n      add\n      sload\n      swap6\n      swap8\n      swap5\n      swap7\n      swap5\n      swap6\n      swap4\n      swap5\n      swap3\n      swap4\n      swap2\n      swap3\n      swap1\n      swap2\n      0xff\n      swap1\n      swap2\n      and\n      swap1\n      dup10\n      jump\t// out\n        /* \"contracts/ShadowPool.sol\":5922:6310  function init(IERC20 dummyToken) external onlyOwner {\r... */\n    tag_129:\n        /* \"@openzeppelin/contracts/access/Ownable.sol\":1094:1107  _checkOwner() */\n      tag_367\n        /* \"@openzeppelin/contracts/access/Ownable.sol\":1094:1105  _checkOwner */\n      tag_368\n        /* \"@openzeppelin/contracts/access/Ownable.sol\":1094:1107  _checkOwner() */\n      jump\t// in\n    tag_367:\n        /* \"contracts/ShadowPool.sol\":6003:6035  dummyToken.balanceOf(msg.sender) */\n      mload(0x40)\n      0x70a0823100000000000000000000000000000000000000000000000000000000\n      dup2\n      mstore\n        /* \"contracts/ShadowPool.sol\":5985:6000  uint256 balance */\n      0x00\n      swap1\n        /* \"contracts/ShadowPool.sol\":6003:6023  dummyToken.balanceOf */\n      0xffffffffffffffffffffffffffffffffffffffff\n      dup4\n      and\n      swap1\n      0x70a08231\n      swap1\n        /* \"contracts/ShadowPool.sol\":6003:6035  dummyToken.balanceOf(msg.sender) */\n      tag_370\n      swap1\n        /* \"contracts/ShadowPool.sol\":6024:6034  msg.sender */\n      caller\n      swap1\n        /* \"contracts/ShadowPool.sol\":6003:6035  dummyToken.balanceOf(msg.sender) */\n      0x04\n      add\n      tag_188\n      jump\t// in\n    tag_370:\n      0x20\n      mload(0x40)\n      dup1\n      dup4\n      sub\n      dup2\n      dup7\n      dup1\n      extcodesize\n      iszero\n      dup1\n      iszero\n      tag_371\n      jumpi\n      0x00\n      dup1\n      revert\n    tag_371:\n      pop\n      gas\n      staticcall\n      iszero\n      dup1\n      iszero\n      tag_373\n      jumpi\n      returndatasize\n      0x00\n      dup1\n      returndatacopy\n      revert(0x00, returndatasize)\n    tag_373:\n      pop\n      pop\n      pop\n      pop\n      mload(0x40)\n      returndatasize\n      not(0x1f)\n      0x1f\n      dup3\n      add\n      and\n      dup3\n      add\n      dup1\n      0x40\n      mstore\n      pop\n      dup2\n      add\n      swap1\n      tag_374\n      swap2\n      swap1\n      tag_375\n      jump\t// in\n    tag_374:\n        /* \"contracts/ShadowPool.sol\":5985:6035  uint256 balance = dummyToken.balanceOf(msg.sender) */\n      swap1\n      pop\n        /* \"contracts/ShadowPool.sol\":6054:6066  balance != 0 */\n      dup1\n        /* \"contracts/ShadowPool.sol\":6046:6092  require(balance != 0, \"Balance must exceed 0\") */\n      tag_376\n      jumpi\n      mload(0x40)\n      0x08c379a000000000000000000000000000000000000000000000000000000000\n      dup2\n      mstore\n      0x04\n      add\n      tag_351\n      swap1\n      tag_378\n      jump\t// in\n    tag_376:\n        /* \"contracts/ShadowPool.sol\":6103:6166  dummyToken.safeTransferFrom(msg.sender, address(this), balance) */\n      tag_379\n        /* \"contracts/ShadowPool.sol\":6103:6130  dummyToken.safeTransferFrom */\n      0xffffffffffffffffffffffffffffffffffffffff\n      dup4\n      and\n        /* \"contracts/ShadowPool.sol\":6131:6141  msg.sender */\n      caller\n        /* \"contracts/ShadowPool.sol\":6151:6155  this */\n      address\n        /* \"contracts/ShadowPool.sol\":6158:6165  balance */\n      dup5\n        /* \"contracts/ShadowPool.sol\":6103:6130  dummyToken.safeTransferFrom */\n      tag_380\n        /* \"contracts/ShadowPool.sol\":6103:6166  dummyToken.safeTransferFrom(msg.sender, address(this), balance) */\n      jump\t// in\n    tag_379:\n        /* \"contracts/ShadowPool.sol\":6177:6227  dummyToken.approve(address(shadowchefV2), balance) */\n      mload(0x40)\n      0x095ea7b300000000000000000000000000000000000000000000000000000000\n      dup2\n      mstore\n        /* \"contracts/ShadowPool.sol\":6177:6195  dummyToken.approve */\n      0xffffffffffffffffffffffffffffffffffffffff\n      dup4\n      and\n      swap1\n      0x095ea7b3\n      swap1\n        /* \"contracts/ShadowPool.sol\":6177:6227  dummyToken.approve(address(shadowchefV2), balance) */\n      tag_381\n      swap1\n        /* \"contracts/ShadowPool.sol\":6204:6216  shadowchefV2 */\n      immutable(\"0x3f2cb8b8a6f6ba8772056c1e4910fb442737deea593ec84e00cbccee66f6d0e1\")\n      swap1\n        /* \"contracts/ShadowPool.sol\":6219:6226  balance */\n      dup6\n      swap1\n        /* \"contracts/ShadowPool.sol\":6177:6227  dummyToken.approve(address(shadowchefV2), balance) */\n      0x04\n      add\n      tag_382\n      jump\t// in\n    tag_381:\n      0x20\n      mload(0x40)\n      dup1\n      dup4\n      sub\n      dup2\n      0x00\n      dup8\n      dup1\n      extcodesize\n      iszero\n      dup1\n      iszero\n      tag_383\n      jumpi\n      0x00\n      dup1\n      revert\n    tag_383:\n      pop\n      gas\n      call\n      iszero\n      dup1\n      iszero\n      tag_385\n      jumpi\n      returndatasize\n      0x00\n      dup1\n      returndatacopy\n      revert(0x00, returndatasize)\n    tag_385:\n      pop\n      pop\n      pop\n      pop\n      mload(0x40)\n      returndatasize\n      not(0x1f)\n      0x1f\n      dup3\n      add\n      and\n      dup3\n      add\n      dup1\n      0x40\n      mstore\n      pop\n      dup2\n      add\n      swap1\n      tag_386\n      swap2\n      swap1\n      tag_387\n      jump\t// in\n    tag_386:\n      pop\n        /* \"contracts/ShadowPool.sol\":6259:6270  shdwPoolPID */\n      sload(0x0b)\n        /* \"contracts/ShadowPool.sol\":6238:6280  shadowchefV2.deposit(shdwPoolPID, balance) */\n      mload(0x40)\n      0xe2bbb15800000000000000000000000000000000000000000000000000000000\n      dup2\n      mstore\n        /* \"contracts/ShadowPool.sol\":6238:6258  shadowchefV2.deposit */\n      0xffffffffffffffffffffffffffffffffffffffff\n        /* \"contracts/ShadowPool.sol\":6238:6250  shadowchefV2 */\n      immutable(\"0x3f2cb8b8a6f6ba8772056c1e4910fb442737deea593ec84e00cbccee66f6d0e1\")\n        /* \"contracts/ShadowPool.sol\":6238:6258  shadowchefV2.deposit */\n      and\n      swap2\n      0xe2bbb158\n      swap2\n        /* \"contracts/ShadowPool.sol\":6238:6280  shadowchefV2.deposit(shdwPoolPID, balance) */\n      tag_388\n      swap2\n        /* \"contracts/ShadowPool.sol\":6259:6270  shdwPoolPID */\n      swap1\n        /* \"contracts/ShadowPool.sol\":6272:6279  balance */\n      dup6\n      swap1\n        /* \"contracts/ShadowPool.sol\":6238:6280  shadowchefV2.deposit(shdwPoolPID, balance) */\n      0x04\n      add\n      tag_875\n      jump\t// in\n    tag_388:\n      0x00\n      mload(0x40)\n      dup1\n      dup4\n      sub\n      dup2\n      0x00\n      dup8\n      dup1\n      extcodesize\n      iszero\n      dup1\n      iszero\n      tag_390\n      jumpi\n      0x00\n      dup1\n      revert\n    tag_390:\n      pop\n      gas\n      call\n      iszero\n      dup1\n      iszero\n      tag_392\n      jumpi\n      returndatasize\n      0x00\n      dup1\n      returndatacopy\n      revert(0x00, returndatasize)\n    tag_392:\n      pop\n      pop\n        /* \"contracts/ShadowPool.sol\":6296:6302  Init() */\n      mload(0x40)\n      0x57a86f7d14ccde89e22870afe839e3011216827daa9b24e18629f0a1e9d6cc14\n      swap3\n      pop\n      0x00\n      swap2\n      pop\n      log1\n        /* \"@openzeppelin/contracts/access/Ownable.sol\":1117:1118  _ */\n      pop\n        /* \"contracts/ShadowPool.sol\":5922:6310  function init(IERC20 dummyToken) external onlyOwner {\r... */\n      pop\n      jump\t// out\n        /* \"contracts/ShadowPool.sol\":2629:2687  uint256 public constant MIN_DEPOSIT_AMOUNT = 0.00001 ether */\n    tag_131:\n        /* \"contracts/ShadowPool.sol\":2674:2687  0.00001 ether */\n      0x09184e72a000\n        /* \"contracts/ShadowPool.sol\":2629:2687  uint256 public constant MIN_DEPOSIT_AMOUNT = 0.00001 ether */\n      dup2\n      jump\t// out\n        /* \"contracts/ShadowPool.sol\":25660:26016  function setWithdrawFeePeriod(uint256 _withdrawFeePeriod) external onlyAdmin {\r... */\n    tag_135:\n        /* \"contracts/ShadowPool.sol\":6453:6458  admin */\n      and(0xffffffffffffffffffffffffffffffffffffffff, sload(0x08))\n        /* \"contracts/ShadowPool.sol\":6439:6449  msg.sender */\n      caller\n        /* \"contracts/ShadowPool.sol\":6439:6458  msg.sender == admin */\n      eq\n        /* \"contracts/ShadowPool.sol\":6431:6474  require(msg.sender == admin, \"admin: wut?\") */\n      tag_394\n      jumpi\n      mload(0x40)\n      0x08c379a000000000000000000000000000000000000000000000000000000000\n      dup2\n      mstore\n      0x04\n      add\n      tag_351\n      swap1\n      tag_352\n      jump\t// in\n    tag_394:\n        /* \"contracts/ShadowPool.sol\":2220:2227  1 weeks */\n      0x093a80\n        /* \"contracts/ShadowPool.sol\":25770:25788  _withdrawFeePeriod */\n      dup2\n        /* \"contracts/ShadowPool.sol\":25770:25815  _withdrawFeePeriod <= MAX_WITHDRAW_FEE_PERIOD */\n      gt\n      iszero\n        /* \"contracts/ShadowPool.sol\":25748:25904  require(\r... */\n      tag_397\n      jumpi\n      mload(0x40)\n      0x08c379a000000000000000000000000000000000000000000000000000000000\n      dup2\n      mstore\n      0x04\n      add\n      tag_351\n      swap1\n      tag_399\n      jump\t// in\n    tag_397:\n        /* \"contracts/ShadowPool.sol\":25915:25932  withdrawFeePeriod */\n      0x18\n        /* \"contracts/ShadowPool.sol\":25915:25953  withdrawFeePeriod = _withdrawFeePeriod */\n      dup2\n      swap1\n      sstore\n        /* \"contracts/ShadowPool.sol\":25969:26008  NewWithdrawFeePeriod(withdrawFeePeriod) */\n      mload(0x40)\n      0xb89ddaddb7435be26824cb48d2d0186c9525a2e1ec057abcb502704cdc0686cc\n      swap1\n      tag_357\n      swap1\n        /* \"contracts/ShadowPool.sol\":25935:25953  _withdrawFeePeriod */\n      dup4\n      swap1\n        /* \"contracts/ShadowPool.sol\":25969:26008  NewWithdrawFeePeriod(withdrawFeePeriod) */\n      tag_109\n      jump\t// in\n        /* \"contracts/ShadowPool.sol\":31559:32661  function calculateWithdrawFee(address _user, uint256 _shares) public view returns (uint256) {\r... */\n    tag_139:\n        /* \"contracts/ShadowPool.sol\":31686:31701  userInfo[_user] */\n      0xffffffffffffffffffffffffffffffffffffffff\n      dup3\n      and\n        /* \"contracts/ShadowPool.sol\":31642:31649  uint256 */\n      0x00\n        /* \"contracts/ShadowPool.sol\":31686:31701  userInfo[_user] */\n      swap1\n      dup2\n      mstore\n        /* \"contracts/ShadowPool.sol\":31686:31694  userInfo */\n      0x03\n        /* \"contracts/ShadowPool.sol\":31686:31701  userInfo[_user] */\n      0x20\n      mstore\n      0x40\n      dup2\n      keccak256\n        /* \"contracts/ShadowPool.sol\":31716:31727  user.shares */\n      dup1\n      sload\n        /* \"contracts/ShadowPool.sol\":31716:31737  user.shares < _shares */\n      dup4\n      gt\n        /* \"contracts/ShadowPool.sol\":31712:31787  if (user.shares < _shares) {\r... */\n      iszero\n      tag_402\n      jumpi\n        /* \"contracts/ShadowPool.sol\":31764:31775  user.shares */\n      dup1\n      sload\n      swap3\n      pop\n        /* \"contracts/ShadowPool.sol\":31712:31787  if (user.shares < _shares) {\r... */\n    tag_402:\n        /* \"contracts/ShadowPool.sol\":31823:31833  msg.sender */\n      caller\n        /* \"contracts/ShadowPool.sol\":31802:31834  freeWithdrawFeeUsers[msg.sender] */\n      0x00\n      swap1\n      dup2\n      mstore\n        /* \"contracts/ShadowPool.sol\":31802:31822  freeWithdrawFeeUsers */\n      0x05\n        /* \"contracts/ShadowPool.sol\":31802:31834  freeWithdrawFeeUsers[msg.sender] */\n      0x20\n      mstore\n      0x40\n      swap1\n      keccak256\n      sload\n      0xff\n      and\n        /* \"contracts/ShadowPool.sol\":31801:31834  !freeWithdrawFeeUsers[msg.sender] */\n      iszero\n        /* \"contracts/ShadowPool.sol\":31801:31900  !freeWithdrawFeeUsers[msg.sender] && (block.timestamp < user.lastDepositedTime + withdrawFeePeriod) */\n      dup1\n      iszero\n      tag_403\n      jumpi\n      pop\n        /* \"contracts/ShadowPool.sol\":31882:31899  withdrawFeePeriod */\n      sload(0x18)\n        /* \"contracts/ShadowPool.sol\":31857:31861  user */\n      dup2\n        /* \"contracts/ShadowPool.sol\":31857:31879  user.lastDepositedTime */\n      0x01\n      add\n      sload\n        /* \"contracts/ShadowPool.sol\":31857:31899  user.lastDepositedTime + withdrawFeePeriod */\n      tag_404\n      swap2\n      swap1\n      tag_405\n      jump\t// in\n    tag_404:\n        /* \"contracts/ShadowPool.sol\":31839:31854  block.timestamp */\n      timestamp\n        /* \"contracts/ShadowPool.sol\":31839:31899  block.timestamp < user.lastDepositedTime + withdrawFeePeriod */\n      lt\n        /* \"contracts/ShadowPool.sol\":31801:31900  !freeWithdrawFeeUsers[msg.sender] && (block.timestamp < user.lastDepositedTime + withdrawFeePeriod) */\n    tag_403:\n        /* \"contracts/ShadowPool.sol\":31797:32635  if (!freeWithdrawFeeUsers[msg.sender] && (block.timestamp < user.lastDepositedTime + withdrawFeePeriod)) {\r... */\n      iszero\n      tag_406\n      jumpi\n        /* \"contracts/ShadowPool.sol\":31917:31929  uint256 pool */\n      0x00\n        /* \"contracts/ShadowPool.sol\":31946:31980  calculateTotalpendingShdwRewards() */\n      tag_407\n        /* \"contracts/ShadowPool.sol\":31946:31978  calculateTotalpendingShdwRewards */\n      tag_294\n        /* \"contracts/ShadowPool.sol\":31946:31980  calculateTotalpendingShdwRewards() */\n      jump\t// in\n    tag_407:\n        /* \"contracts/ShadowPool.sol\":31932:31943  balanceOf() */\n      tag_408\n        /* \"contracts/ShadowPool.sol\":31932:31941  balanceOf */\n      tag_214\n        /* \"contracts/ShadowPool.sol\":31932:31943  balanceOf() */\n      jump\t// in\n    tag_408:\n        /* \"contracts/ShadowPool.sol\":31932:31980  balanceOf() + calculateTotalpendingShdwRewards() */\n      tag_409\n      swap2\n      swap1\n      tag_405\n      jump\t// in\n    tag_409:\n        /* \"contracts/ShadowPool.sol\":32050:32061  user.shares */\n      dup3\n      sload\n        /* \"contracts/ShadowPool.sol\":31917:31980  uint256 pool = balanceOf() + calculateTotalpendingShdwRewards() */\n      swap1\n      swap2\n      pop\n        /* \"contracts/ShadowPool.sol\":31995:32016  uint256 sharesPercent */\n      0x00\n      swap1\n        /* \"contracts/ShadowPool.sol\":32020:32046  _shares * PRECISION_FACTOR */\n      tag_410\n        /* \"contracts/ShadowPool.sol\":2506:2510  1e12 */\n      0xe8d4a51000\n        /* \"contracts/ShadowPool.sol\":32020:32027  _shares */\n      dup8\n        /* \"contracts/ShadowPool.sol\":32020:32046  _shares * PRECISION_FACTOR */\n      tag_411\n      jump\t// in\n    tag_410:\n        /* \"contracts/ShadowPool.sol\":32019:32061  (_shares * PRECISION_FACTOR) / user.shares */\n      tag_412\n      swap2\n      swap1\n      tag_413\n      jump\t// in\n    tag_412:\n        /* \"contracts/ShadowPool.sol\":31995:32061  uint256 sharesPercent = (_shares * PRECISION_FACTOR) / user.shares */\n      swap1\n      pop\n        /* \"contracts/ShadowPool.sol\":32076:32102  uint256 currentTotalAmount */\n      0x00\n        /* \"contracts/ShadowPool.sol\":32219:32261  calculatePerformanceFeeOrOverdueFee(_user) */\n      tag_414\n        /* \"contracts/ShadowPool.sol\":32255:32260  _user */\n      dup8\n        /* \"contracts/ShadowPool.sol\":32219:32254  calculatePerformanceFeeOrOverdueFee */\n      tag_415\n        /* \"contracts/ShadowPool.sol\":32219:32261  calculatePerformanceFeeOrOverdueFee(_user) */\n      jump\t// in\n    tag_414:\n        /* \"contracts/ShadowPool.sol\":32178:32199  user.userBoostedShare */\n      0x06\n      dup6\n      add\n      sload\n        /* \"contracts/ShadowPool.sol\":32147:32158  totalShares */\n      sload(0x07)\n        /* \"contracts/ShadowPool.sol\":32114:32125  user.shares */\n      dup7\n      sload\n        /* \"contracts/ShadowPool.sol\":32106:32126  pool * (user.shares) */\n      tag_416\n      swap1\n        /* \"contracts/ShadowPool.sol\":32106:32110  pool */\n      dup8\n        /* \"contracts/ShadowPool.sol\":32106:32126  pool * (user.shares) */\n      tag_411\n      jump\t// in\n    tag_416:\n        /* \"contracts/ShadowPool.sol\":32105:32158  (pool * (user.shares)) /\r... */\n      tag_417\n      swap2\n      swap1\n      tag_413\n      jump\t// in\n    tag_417:\n        /* \"contracts/ShadowPool.sol\":32105:32199  (pool * (user.shares)) /\r... */\n      tag_418\n      swap2\n      swap1\n      tag_419\n      jump\t// in\n    tag_418:\n        /* \"contracts/ShadowPool.sol\":32105:32261  (pool * (user.shares)) /\r... */\n      tag_420\n      swap2\n      swap1\n      tag_419\n      jump\t// in\n    tag_420:\n        /* \"contracts/ShadowPool.sol\":32076:32261  uint256 currentTotalAmount = (pool * (user.shares)) /\r... */\n      swap1\n      pop\n        /* \"contracts/ShadowPool.sol\":32276:32297  uint256 currentAmount */\n      0x00\n        /* \"contracts/ShadowPool.sol\":2506:2510  1e12 */\n      0xe8d4a51000\n        /* \"contracts/ShadowPool.sol\":32301:32335  currentTotalAmount * sharesPercent */\n      tag_421\n        /* \"contracts/ShadowPool.sol\":32322:32335  sharesPercent */\n      dup5\n        /* \"contracts/ShadowPool.sol\":32076:32261  uint256 currentTotalAmount = (pool * (user.shares)) /\r... */\n      dup5\n        /* \"contracts/ShadowPool.sol\":32301:32335  currentTotalAmount * sharesPercent */\n      tag_411\n      jump\t// in\n    tag_421:\n        /* \"contracts/ShadowPool.sol\":32300:32355  (currentTotalAmount * sharesPercent) / PRECISION_FACTOR */\n      tag_422\n      swap2\n      swap1\n      tag_413\n      jump\t// in\n    tag_422:\n        /* \"contracts/ShadowPool.sol\":32388:32399  withdrawFee */\n      sload(0x15)\n        /* \"contracts/ShadowPool.sol\":32276:32355  uint256 currentAmount = (currentTotalAmount * sharesPercent) / PRECISION_FACTOR */\n      swap1\n      swap2\n      pop\n        /* \"contracts/ShadowPool.sol\":32418:32441  _isContract(msg.sender) */\n      tag_423\n        /* \"contracts/ShadowPool.sol\":32430:32440  msg.sender */\n      caller\n        /* \"contracts/ShadowPool.sol\":32418:32429  _isContract */\n      tag_424\n        /* \"contracts/ShadowPool.sol\":32418:32441  _isContract(msg.sender) */\n      jump\t// in\n    tag_423:\n        /* \"contracts/ShadowPool.sol\":32414:32507  if (_isContract(msg.sender)) {\r... */\n      iszero\n      tag_425\n      jumpi\n      pop\n        /* \"contracts/ShadowPool.sol\":32472:32491  withdrawFeeContract */\n      sload(0x16)\n        /* \"contracts/ShadowPool.sol\":32414:32507  if (_isContract(msg.sender)) {\r... */\n    tag_425:\n        /* \"contracts/ShadowPool.sol\":32521:32547  uint256 currentWithdrawFee */\n      0x00\n        /* \"contracts/ShadowPool.sol\":32578:32583  10000 */\n      0x2710\n        /* \"contracts/ShadowPool.sol\":32551:32574  currentAmount * feeRate */\n      tag_426\n        /* \"contracts/ShadowPool.sol\":32567:32574  feeRate */\n      dup4\n        /* \"contracts/ShadowPool.sol\":32551:32564  currentAmount */\n      dup6\n        /* \"contracts/ShadowPool.sol\":32551:32574  currentAmount * feeRate */\n      tag_411\n      jump\t// in\n    tag_426:\n        /* \"contracts/ShadowPool.sol\":32550:32583  (currentAmount * feeRate) / 10000 */\n      tag_427\n      swap2\n      swap1\n      tag_413\n      jump\t// in\n    tag_427:\n        /* \"contracts/ShadowPool.sol\":32521:32583  uint256 currentWithdrawFee = (currentAmount * feeRate) / 10000 */\n      swap8\n      pop\n        /* \"contracts/ShadowPool.sol\":32598:32623  return currentWithdrawFee */\n      tag_401\n      swap7\n      pop\n      pop\n      pop\n      pop\n      pop\n      pop\n      pop\n      jump\n        /* \"contracts/ShadowPool.sol\":31797:32635  if (!freeWithdrawFeeUsers[msg.sender] && (block.timestamp < user.lastDepositedTime + withdrawFeePeriod)) {\r... */\n    tag_406:\n        /* \"contracts/ShadowPool.sol\":32652:32653  0 */\n      0x00\n        /* \"contracts/ShadowPool.sol\":32645:32653  return 0 */\n      swap2\n      pop\n      pop\n        /* \"contracts/ShadowPool.sol\":31559:32661  function calculateWithdrawFee(address _user, uint256 _shares) public view returns (uint256) {\r... */\n    tag_401:\n      swap3\n      swap2\n      pop\n      pop\n      jump\t// out\n        /* \"contracts/ShadowPool.sol\":2170:2227  uint256 public constant MAX_WITHDRAW_FEE_PERIOD = 1 weeks */\n    tag_142:\n        /* \"contracts/ShadowPool.sol\":2220:2227  1 weeks */\n      0x093a80\n        /* \"contracts/ShadowPool.sol\":2170:2227  uint256 public constant MAX_WITHDRAW_FEE_PERIOD = 1 weeks */\n      dup2\n      jump\t// out\n        /* \"contracts/ShadowPool.sol\":17324:17482  function withdraw(uint256 _shares) public whenNotPaused {\r... */\n    tag_146:\n        /* \"@openzeppelin/contracts/security/Pausable.sol\":1239:1258  _requireNotPaused() */\n      tag_429\n        /* \"@openzeppelin/contracts/security/Pausable.sol\":1239:1256  _requireNotPaused */\n      tag_430\n        /* \"@openzeppelin/contracts/security/Pausable.sol\":1239:1258  _requireNotPaused() */\n      jump\t// in\n    tag_429:\n        /* \"contracts/ShadowPool.sol\":17409:17410  0 */\n      0x00\n        /* \"contracts/ShadowPool.sol\":17399:17406  _shares */\n      dup2\n        /* \"contracts/ShadowPool.sol\":17399:17410  _shares > 0 */\n      gt\n        /* \"contracts/ShadowPool.sol\":17391:17434  require(_shares > 0, \"Nothing to withdraw\") */\n      tag_432\n      jumpi\n      mload(0x40)\n      0x08c379a000000000000000000000000000000000000000000000000000000000\n      dup2\n      mstore\n      0x04\n      add\n      tag_351\n      swap1\n      tag_434\n      jump\t// in\n    tag_432:\n        /* \"contracts/ShadowPool.sol\":17445:17474  withdrawOperation(_shares, 0) */\n      tag_435\n        /* \"contracts/ShadowPool.sol\":17463:17470  _shares */\n      dup2\n        /* \"contracts/ShadowPool.sol\":17472:17473  0 */\n      0x00\n        /* \"contracts/ShadowPool.sol\":17445:17462  withdrawOperation */\n      tag_436\n        /* \"contracts/ShadowPool.sol\":17445:17474  withdrawOperation(_shares, 0) */\n      jump\t// in\n    tag_435:\n        /* \"contracts/ShadowPool.sol\":17324:17482  function withdraw(uint256 _shares) public whenNotPaused {\r... */\n      pop\n      jump\t// out\n        /* \"contracts/ShadowPool.sol\":11330:11603  function unlock(address _user) external onlyOperatorOrShdwOwner(_user) whenNotPaused {\r... */\n    tag_149:\n        /* \"contracts/ShadowPool.sol\":11394:11399  _user */\n      dup1\n        /* \"contracts/ShadowPool.sol\":6686:6696  msg.sender */\n      caller\n        /* \"contracts/ShadowPool.sol\":6686:6705  msg.sender == _user */\n      0xffffffffffffffffffffffffffffffffffffffff\n      dup3\n      and\n      eq\n      dup1\n        /* \"contracts/ShadowPool.sol\":6686:6731  msg.sender == _user || msg.sender == operator */\n      tag_438\n      jumpi\n      pop\n        /* \"contracts/ShadowPool.sol\":6723:6731  operator */\n      and(0xffffffffffffffffffffffffffffffffffffffff, sload(0x0a))\n        /* \"contracts/ShadowPool.sol\":6709:6719  msg.sender */\n      caller\n        /* \"contracts/ShadowPool.sol\":6709:6731  msg.sender == operator */\n      eq\n        /* \"contracts/ShadowPool.sol\":6686:6731  msg.sender == _user || msg.sender == operator */\n    tag_438:\n        /* \"contracts/ShadowPool.sol\":6678:6762  require(msg.sender == _user || msg.sender == operator, \"Not operator or Shdw owner\") */\n      tag_439\n      jumpi\n      mload(0x40)\n      0x08c379a000000000000000000000000000000000000000000000000000000000\n      dup2\n      mstore\n      0x04\n      add\n      tag_351\n      swap1\n      tag_441\n      jump\t// in\n    tag_439:\n        /* \"@openzeppelin/contracts/security/Pausable.sol\":1239:1258  _requireNotPaused() */\n      tag_443\n        /* \"@openzeppelin/contracts/security/Pausable.sol\":1239:1256  _requireNotPaused */\n      tag_430\n        /* \"@openzeppelin/contracts/security/Pausable.sol\":1239:1258  _requireNotPaused() */\n      jump\t// in\n    tag_443:\n        /* \"contracts/ShadowPool.sol\":11450:11465  userInfo[_user] */\n      0xffffffffffffffffffffffffffffffffffffffff\n      dup3\n      and\n        /* \"contracts/ShadowPool.sol\":11426:11447  UserInfo storage user */\n      0x00\n        /* \"contracts/ShadowPool.sol\":11450:11465  userInfo[_user] */\n      swap1\n      dup2\n      mstore\n        /* \"contracts/ShadowPool.sol\":11450:11458  userInfo */\n      0x03\n        /* \"contracts/ShadowPool.sol\":11450:11465  userInfo[_user] */\n      0x20\n      mstore\n      0x40\n      swap1\n      keccak256\n        /* \"contracts/ShadowPool.sol\":11484:11495  user.locked */\n      0x07\n      dup2\n      add\n      sload\n      0xff\n      and\n        /* \"contracts/ShadowPool.sol\":11484:11533  user.locked && user.lockEndTime < block.timestamp */\n      dup1\n      iszero\n      tag_445\n      jumpi\n      pop\n        /* \"contracts/ShadowPool.sol\":11518:11533  block.timestamp */\n      timestamp\n        /* \"contracts/ShadowPool.sol\":11499:11503  user */\n      dup2\n        /* \"contracts/ShadowPool.sol\":11499:11515  user.lockEndTime */\n      0x05\n      add\n      sload\n        /* \"contracts/ShadowPool.sol\":11499:11533  user.lockEndTime < block.timestamp */\n      lt\n        /* \"contracts/ShadowPool.sol\":11484:11533  user.locked && user.lockEndTime < block.timestamp */\n    tag_445:\n        /* \"contracts/ShadowPool.sol\":11476:11555  require(user.locked && user.lockEndTime < block.timestamp, \"Cannot unlock yet\") */\n      tag_446\n      jumpi\n      mload(0x40)\n      0x08c379a000000000000000000000000000000000000000000000000000000000\n      dup2\n      mstore\n      0x04\n      add\n      tag_351\n      swap1\n      tag_448\n      jump\t// in\n    tag_446:\n        /* \"contracts/ShadowPool.sol\":11566:11595  depositOperation(0, 0, _user) */\n      tag_449\n        /* \"contracts/ShadowPool.sol\":11583:11584  0 */\n      0x00\n        /* \"contracts/ShadowPool.sol\":11586:11587  0 */\n      dup1\n        /* \"contracts/ShadowPool.sol\":11589:11594  _user */\n      dup6\n        /* \"contracts/ShadowPool.sol\":11566:11582  depositOperation */\n      tag_450\n        /* \"contracts/ShadowPool.sol\":11566:11595  depositOperation(0, 0, _user) */\n      jump\t// in\n    tag_449:\n        /* \"@openzeppelin/contracts/security/Pausable.sol\":1268:1269  _ */\n      pop\n        /* \"contracts/ShadowPool.sol\":11330:11603  function unlock(address _user) external onlyOperatorOrShdwOwner(_user) whenNotPaused {\r... */\n      pop\n      pop\n      jump\t// out\n        /* \"contracts/ShadowPool.sol\":26953:27257  function setDurationFactorOverdue(uint256 _durationFactorOverdue) external onlyAdmin {\r... */\n    tag_152:\n        /* \"contracts/ShadowPool.sol\":6453:6458  admin */\n      and(0xffffffffffffffffffffffffffffffffffffffff, sload(0x08))\n        /* \"contracts/ShadowPool.sol\":6439:6449  msg.sender */\n      caller\n        /* \"contracts/ShadowPool.sol\":6439:6458  msg.sender == admin */\n      eq\n        /* \"contracts/ShadowPool.sol\":6431:6474  require(msg.sender == admin, \"admin: wut?\") */\n      tag_452\n      jumpi\n      mload(0x40)\n      0x08c379a000000000000000000000000000000000000000000000000000000000\n      dup2\n      mstore\n      0x04\n      add\n      tag_351\n      swap1\n      tag_352\n      jump\t// in\n    tag_452:\n        /* \"contracts/ShadowPool.sol\":27082:27083  0 */\n      0x00\n        /* \"contracts/ShadowPool.sol\":27057:27079  _durationFactorOverdue */\n      dup2\n        /* \"contracts/ShadowPool.sol\":27057:27083  _durationFactorOverdue > 0 */\n      gt\n        /* \"contracts/ShadowPool.sol\":27049:27126  require(_durationFactorOverdue > 0, \"DURATION_FACTOR_OVERDUE cannot be zero\") */\n      tag_455\n      jumpi\n      mload(0x40)\n      0x08c379a000000000000000000000000000000000000000000000000000000000\n      dup2\n      mstore\n      0x04\n      add\n      tag_351\n      swap1\n      tag_457\n      jump\t// in\n    tag_455:\n        /* \"contracts/ShadowPool.sol\":27137:27160  DURATION_FACTOR_OVERDUE */\n      0x11\n        /* \"contracts/ShadowPool.sol\":27137:27185  DURATION_FACTOR_OVERDUE = _durationFactorOverdue */\n      dup2\n      swap1\n      sstore\n        /* \"contracts/ShadowPool.sol\":27201:27249  NewDurationFactorOverdue(_durationFactorOverdue) */\n      mload(0x40)\n      0x18b6d179114082d7eda9837e15a39eb30032d5f3df00487a67541398f48fabfe\n      swap1\n      tag_357\n      swap1\n        /* \"contracts/ShadowPool.sol\":27163:27185  _durationFactorOverdue */\n      dup4\n      swap1\n        /* \"contracts/ShadowPool.sol\":27201:27249  NewDurationFactorOverdue(_durationFactorOverdue) */\n      tag_109\n      jump\t// in\n        /* \"contracts/ShadowPool.sol\":1707:1733  uint256 public totalShares */\n    tag_154:\n      sload(0x07)\n      dup2\n      jump\t// out\n        /* \"contracts/ShadowPool.sol\":3199:3242  uint256 public performanceFeeContract = 200 */\n    tag_157:\n      sload(0x14)\n      dup2\n      jump\t// out\n        /* \"contracts/ShadowPool.sol\":28737:28840  function unpause() external onlyAdmin whenPaused {\r... */\n    tag_160:\n        /* \"contracts/ShadowPool.sol\":6453:6458  admin */\n      and(0xffffffffffffffffffffffffffffffffffffffff, sload(0x08))\n        /* \"contracts/ShadowPool.sol\":6439:6449  msg.sender */\n      caller\n        /* \"contracts/ShadowPool.sol\":6439:6458  msg.sender == admin */\n      eq\n        /* \"contracts/ShadowPool.sol\":6431:6474  require(msg.sender == admin, \"admin: wut?\") */\n      tag_460\n      jumpi\n      mload(0x40)\n      0x08c379a000000000000000000000000000000000000000000000000000000000\n      dup2\n      mstore\n      0x04\n      add\n      tag_351\n      swap1\n      tag_352\n      jump\t// in\n    tag_460:\n        /* \"@openzeppelin/contracts/security/Pausable.sol\":1486:1502  _requirePaused() */\n      tag_463\n        /* \"@openzeppelin/contracts/security/Pausable.sol\":1486:1500  _requirePaused */\n      tag_464\n        /* \"@openzeppelin/contracts/security/Pausable.sol\":1486:1502  _requirePaused() */\n      jump\t// in\n    tag_463:\n        /* \"contracts/ShadowPool.sol\":28797:28807  _unpause() */\n      tag_466\n        /* \"contracts/ShadowPool.sol\":28797:28805  _unpause */\n      tag_467\n        /* \"contracts/ShadowPool.sol\":28797:28807  _unpause() */\n      jump\t// in\n    tag_466:\n        /* \"contracts/ShadowPool.sol\":28823:28832  Unpause() */\n      mload(0x40)\n      0x7805862f689e2f13df9f062ff482ad3ad112aca9e0847911ed832e158c525b33\n      swap1\n      0x00\n      swap1\n      log1\n        /* \"contracts/ShadowPool.sol\":28737:28840  function unpause() external onlyAdmin whenPaused {\r... */\n      jump\t// out\n        /* \"contracts/ShadowPool.sol\":1440:1495  mapping(address => bool) public freePerformanceFeeUsers */\n    tag_163:\n      mstore(0x20, 0x04)\n      0x00\n      swap1\n      dup2\n      mstore\n      0x40\n      swap1\n      keccak256\n      sload\n      0xff\n      and\n      dup2\n      jump\t// out\n        /* \"contracts/ShadowPool.sol\":22366:22610  function setFreePerformanceFeeUser(address _user, bool _free) external onlyAdmin {\r... */\n    tag_169:\n        /* \"contracts/ShadowPool.sol\":6453:6458  admin */\n      and(0xffffffffffffffffffffffffffffffffffffffff, sload(0x08))\n        /* \"contracts/ShadowPool.sol\":6439:6449  msg.sender */\n      caller\n        /* \"contracts/ShadowPool.sol\":6439:6458  msg.sender == admin */\n      eq\n        /* \"contracts/ShadowPool.sol\":6431:6474  require(msg.sender == admin, \"admin: wut?\") */\n      tag_469\n      jumpi\n      mload(0x40)\n      0x08c379a000000000000000000000000000000000000000000000000000000000\n      dup2\n      mstore\n      0x04\n      add\n      tag_351\n      swap1\n      tag_352\n      jump\t// in\n    tag_469:\n        /* \"contracts/ShadowPool.sol\":22466:22485  _user != address(0) */\n      0xffffffffffffffffffffffffffffffffffffffff\n      dup3\n      and\n        /* \"contracts/ShadowPool.sol\":22458:22512  require(_user != address(0), \"Cannot be zero address\") */\n      tag_472\n      jumpi\n      mload(0x40)\n      0x08c379a000000000000000000000000000000000000000000000000000000000\n      dup2\n      mstore\n      0x04\n      add\n      tag_351\n      swap1\n      tag_474\n      jump\t// in\n    tag_472:\n        /* \"contracts/ShadowPool.sol\":22523:22553  freePerformanceFeeUsers[_user] */\n      0xffffffffffffffffffffffffffffffffffffffff\n      dup3\n      and\n      0x00\n      dup2\n      dup2\n      mstore\n        /* \"contracts/ShadowPool.sol\":22523:22546  freePerformanceFeeUsers */\n      0x04\n        /* \"contracts/ShadowPool.sol\":22523:22553  freePerformanceFeeUsers[_user] */\n      0x20\n      mstore\n      0x40\n      dup1\n      dup3\n      keccak256\n        /* \"contracts/ShadowPool.sol\":22523:22561  freePerformanceFeeUsers[_user] = _free */\n      dup1\n      sload\n      0xffffffffffffffffffffffffffffffffffffffffffffffffffffffffffffff00\n      and\n      dup6\n      iszero\n      iszero\n      swap1\n      dup2\n      or\n      swap1\n      swap2\n      sstore\n        /* \"contracts/ShadowPool.sol\":22577:22602  FreeFeeUser(_user, _free) */\n      swap1\n      mload\n        /* \"contracts/ShadowPool.sol\":22523:22561  freePerformanceFeeUsers[_user] = _free */\n      swap1\n      swap3\n        /* \"contracts/ShadowPool.sol\":22523:22553  freePerformanceFeeUsers[_user] */\n      swap2\n        /* \"contracts/ShadowPool.sol\":22577:22602  FreeFeeUser(_user, _free) */\n      0x3d7902bc9a6665bd7caf4240b834bb805d3cd68256889e9f8d2e40a10be41d44\n      swap2\n      log3\n        /* \"contracts/ShadowPool.sol\":22366:22610  function setFreePerformanceFeeUser(address _user, bool _free) external onlyAdmin {\r... */\n      pop\n      pop\n      jump\t// out\n        /* \"contracts/ShadowPool.sol\":33332:33439  function available() public view returns (uint256) {\r... */\n    tag_171:\n        /* \"contracts/ShadowPool.sol\":33401:33431  token.balanceOf(address(this)) */\n      mload(0x40)\n      0x70a0823100000000000000000000000000000000000000000000000000000000\n      dup2\n      mstore\n        /* \"contracts/ShadowPool.sol\":33374:33381  uint256 */\n      0x00\n      swap1\n        /* \"contracts/ShadowPool.sol\":33401:33416  token.balanceOf */\n      0xffffffffffffffffffffffffffffffffffffffff\n        /* \"contracts/ShadowPool.sol\":33401:33406  token */\n      immutable(\"0x8d841e129c158ed00fc3618c65b249d82e3b0efc8bcebb06537fd0a18b989353\")\n        /* \"contracts/ShadowPool.sol\":33401:33416  token.balanceOf */\n      and\n      swap1\n      0x70a08231\n      swap1\n        /* \"contracts/ShadowPool.sol\":33401:33431  token.balanceOf(address(this)) */\n      tag_476\n      swap1\n        /* \"contracts/ShadowPool.sol\":33425:33429  this */\n      address\n      swap1\n        /* \"contracts/ShadowPool.sol\":33401:33431  token.balanceOf(address(this)) */\n      0x04\n      add\n      tag_188\n      jump\t// in\n    tag_476:\n      0x20\n      mload(0x40)\n      dup1\n      dup4\n      sub\n      dup2\n      dup7\n      dup1\n      extcodesize\n      iszero\n      dup1\n      iszero\n      tag_477\n      jumpi\n      0x00\n      dup1\n      revert\n    tag_477:\n      pop\n      gas\n      staticcall\n      iszero\n      dup1\n      iszero\n      tag_479\n      jumpi\n      returndatasize\n      0x00\n      dup1\n      returndatacopy\n      revert(0x00, returndatasize)\n    tag_479:\n      pop\n      pop\n      pop\n      pop\n      mload(0x40)\n      returndatasize\n      not(0x1f)\n      0x1f\n      dup3\n      add\n      and\n      dup3\n      add\n      dup1\n      0x40\n      mstore\n      pop\n      dup2\n      add\n      swap1\n      tag_480\n      swap2\n      swap1\n      tag_375\n      jump\t// in\n    tag_480:\n        /* \"contracts/ShadowPool.sol\":33394:33431  return token.balanceOf(address(this)) */\n      swap1\n      pop\n        /* \"contracts/ShadowPool.sol\":33332:33439  function available() public view returns (uint256) {\r... */\n      swap1\n      jump\t// out\n        /* \"contracts/ShadowPool.sol\":22813:23045  function setOverdueFeeUser(address _user, bool _free) external onlyAdmin {\r... */\n    tag_175:\n        /* \"contracts/ShadowPool.sol\":6453:6458  admin */\n      and(0xffffffffffffffffffffffffffffffffffffffff, sload(0x08))\n        /* \"contracts/ShadowPool.sol\":6439:6449  msg.sender */\n      caller\n        /* \"contracts/ShadowPool.sol\":6439:6458  msg.sender == admin */\n      eq\n        /* \"contracts/ShadowPool.sol\":6431:6474  require(msg.sender == admin, \"admin: wut?\") */\n      tag_482\n      jumpi\n      mload(0x40)\n      0x08c379a000000000000000000000000000000000000000000000000000000000\n      dup2\n      mstore\n      0x04\n      add\n      tag_351\n      swap1\n      tag_352\n      jump\t// in\n    tag_482:\n        /* \"contracts/ShadowPool.sol\":22905:22924  _user != address(0) */\n      0xffffffffffffffffffffffffffffffffffffffff\n      dup3\n      and\n        /* \"contracts/ShadowPool.sol\":22897:22951  require(_user != address(0), \"Cannot be zero address\") */\n      tag_485\n      jumpi\n      mload(0x40)\n      0x08c379a000000000000000000000000000000000000000000000000000000000\n      dup2\n      mstore\n      0x04\n      add\n      tag_351\n      swap1\n      tag_474\n      jump\t// in\n    tag_485:\n        /* \"contracts/ShadowPool.sol\":22962:22988  freeOverdueFeeUsers[_user] */\n      0xffffffffffffffffffffffffffffffffffffffff\n      dup3\n      and\n      0x00\n      dup2\n      dup2\n      mstore\n        /* \"contracts/ShadowPool.sol\":22962:22981  freeOverdueFeeUsers */\n      0x06\n        /* \"contracts/ShadowPool.sol\":22962:22988  freeOverdueFeeUsers[_user] */\n      0x20\n      mstore\n      0x40\n      dup1\n      dup3\n      keccak256\n        /* \"contracts/ShadowPool.sol\":22962:22996  freeOverdueFeeUsers[_user] = _free */\n      dup1\n      sload\n      0xffffffffffffffffffffffffffffffffffffffffffffffffffffffffffffff00\n      and\n      dup6\n      iszero\n      iszero\n      swap1\n      dup2\n      or\n      swap1\n      swap2\n      sstore\n        /* \"contracts/ShadowPool.sol\":23012:23037  FreeFeeUser(_user, _free) */\n      swap1\n      mload\n        /* \"contracts/ShadowPool.sol\":22962:22996  freeOverdueFeeUsers[_user] = _free */\n      swap1\n      swap3\n        /* \"contracts/ShadowPool.sol\":22962:22988  freeOverdueFeeUsers[_user] */\n      swap2\n        /* \"contracts/ShadowPool.sol\":23012:23037  FreeFeeUser(_user, _free) */\n      0x3d7902bc9a6665bd7caf4240b834bb805d3cd68256889e9f8d2e40a10be41d44\n      swap2\n      log3\n        /* \"contracts/ShadowPool.sol\":22813:23045  function setOverdueFeeUser(address _user, bool _free) external onlyAdmin {\r... */\n      pop\n      pop\n      jump\t// out\n        /* \"contracts/ShadowPool.sol\":2822:2865  uint256 public MAX_LOCK_DURATION = 365 days */\n    tag_177:\n      sload(0x0f)\n      dup2\n      jump\t// out\n        /* \"contracts/ShadowPool.sol\":1827:1853  uint256 public shdwPoolPID */\n    tag_180:\n      sload(0x0b)\n      dup2\n      jump\t// out\n        /* \"contracts/ShadowPool.sol\":16973:17194  function withdrawByAmount(uint256 _amount) public whenNotPaused {\r... */\n    tag_184:\n        /* \"@openzeppelin/contracts/security/Pausable.sol\":1239:1258  _requireNotPaused() */\n      tag_488\n        /* \"@openzeppelin/contracts/security/Pausable.sol\":1239:1256  _requireNotPaused */\n      tag_430\n        /* \"@openzeppelin/contracts/security/Pausable.sol\":1239:1258  _requireNotPaused() */\n      jump\t// in\n    tag_488:\n        /* \"contracts/ShadowPool.sol\":2740:2753  0.00001 ether */\n      0x09184e72a000\n        /* \"contracts/ShadowPool.sol\":17056:17063  _amount */\n      dup2\n        /* \"contracts/ShadowPool.sol\":17056:17085  _amount > MIN_WITHDRAW_AMOUNT */\n      gt\n        /* \"contracts/ShadowPool.sol\":17048:17146  require(_amount > MIN_WITHDRAW_AMOUNT, \"Withdraw amount must be greater than MIN_WITHDRAW_AMOUNT\") */\n      tag_490\n      jumpi\n      mload(0x40)\n      0x08c379a000000000000000000000000000000000000000000000000000000000\n      dup2\n      mstore\n      0x04\n      add\n      tag_351\n      swap1\n      tag_492\n      jump\t// in\n    tag_490:\n        /* \"contracts/ShadowPool.sol\":17157:17186  withdrawOperation(0, _amount) */\n      tag_435\n        /* \"contracts/ShadowPool.sol\":17175:17176  0 */\n      0x00\n        /* \"contracts/ShadowPool.sol\":17178:17185  _amount */\n      dup3\n        /* \"contracts/ShadowPool.sol\":17157:17174  withdrawOperation */\n      tag_436\n        /* \"contracts/ShadowPool.sol\":17157:17186  withdrawOperation(0, _amount) */\n      jump\t// in\n        /* \"contracts/ShadowPool.sol\":1797:1820  address public operator */\n    tag_186:\n      and(0xffffffffffffffffffffffffffffffffffffffff, sload(0x0a))\n      dup2\n      jump\t// out\n        /* \"@openzeppelin/contracts/security/Pausable.sol\":1615:1699  function paused() public view virtual returns (bool) {... */\n    tag_190:\n        /* \"@openzeppelin/contracts/security/Pausable.sol\":1662:1666  bool */\n      0x00\n        /* \"@openzeppelin/contracts/security/Pausable.sol\":1685:1692  _paused */\n      sload\n      0x010000000000000000000000000000000000000000\n      swap1\n      div\n      0xff\n      and\n      swap1\n        /* \"@openzeppelin/contracts/security/Pausable.sol\":1615:1699  function paused() public view virtual returns (bool) {... */\n      jump\t// out\n        /* \"contracts/ShadowPool.sol\":1767:1790  address public treasury */\n    tag_193:\n      and(0xffffffffffffffffffffffffffffffffffffffff, sload(0x09))\n      dup2\n      jump\t// out\n        /* \"contracts/ShadowPool.sol\":1360:1380  address public VShdw */\n    tag_196:\n      and(0xffffffffffffffffffffffffffffffffffffffff, sload(0x02))\n      dup2\n      jump\t// out\n        /* \"contracts/ShadowPool.sol\":21960:22159  function setVShdwContract(address _VShdw) external onlyAdmin {\r... */\n    tag_200:\n        /* \"contracts/ShadowPool.sol\":6453:6458  admin */\n      and(0xffffffffffffffffffffffffffffffffffffffff, sload(0x08))\n        /* \"contracts/ShadowPool.sol\":6439:6449  msg.sender */\n      caller\n        /* \"contracts/ShadowPool.sol\":6439:6458  msg.sender == admin */\n      eq\n        /* \"contracts/ShadowPool.sol\":6431:6474  require(msg.sender == admin, \"admin: wut?\") */\n      tag_496\n      jumpi\n      mload(0x40)\n      0x08c379a000000000000000000000000000000000000000000000000000000000\n      dup2\n      mstore\n      0x04\n      add\n      tag_351\n      swap1\n      tag_352\n      jump\t// in\n    tag_496:\n        /* \"contracts/ShadowPool.sol\":22040:22060  _VShdw != address(0) */\n      0xffffffffffffffffffffffffffffffffffffffff\n      dup2\n      and\n        /* \"contracts/ShadowPool.sol\":22032:22087  require(_VShdw != address(0), \"Cannot be zero address\") */\n      tag_499\n      jumpi\n      mload(0x40)\n      0x08c379a000000000000000000000000000000000000000000000000000000000\n      dup2\n      mstore\n      0x04\n      add\n      tag_351\n      swap1\n      tag_474\n      jump\t// in\n    tag_499:\n        /* \"contracts/ShadowPool.sol\":22098:22103  VShdw */\n      0x02\n        /* \"contracts/ShadowPool.sol\":22098:22112  VShdw = _VShdw */\n      dup1\n      sload\n      0xffffffffffffffffffffffff0000000000000000000000000000000000000000\n      and\n      0xffffffffffffffffffffffffffffffffffffffff\n      dup4\n      dup2\n      and\n      swap2\n      swap1\n      swap2\n      or\n      swap2\n      dup3\n      swap1\n      sstore\n        /* \"contracts/ShadowPool.sol\":22128:22151  NewVShdwContract(VShdw) */\n      mload(0x40)\n      0xaf38f30be8d095bc1461196db21930b7d89226e57b0167f9d6abe951c53f3332\n      swap3\n      tag_357\n      swap3\n        /* \"contracts/ShadowPool.sol\":22145:22150  VShdw */\n      and\n      swap1\n        /* \"contracts/ShadowPool.sol\":22128:22151  NewVShdwContract(VShdw) */\n      tag_188\n      jump\t// in\n        /* \"contracts/ShadowPool.sol\":1620:1671  mapping(address => bool) public freeOverdueFeeUsers */\n    tag_203:\n      mstore(0x20, 0x06)\n      0x00\n      swap1\n      dup2\n      mstore\n      0x40\n      swap1\n      keccak256\n      sload\n      0xff\n      and\n      dup2\n      jump\t// out\n        /* \"contracts/ShadowPool.sol\":20681:20864  function setAdmin(address _admin) external onlyOwner {\r... */\n    tag_207:\n        /* \"@openzeppelin/contracts/access/Ownable.sol\":1094:1107  _checkOwner() */\n      tag_503\n        /* \"@openzeppelin/contracts/access/Ownable.sol\":1094:1105  _checkOwner */\n      tag_368\n        /* \"@openzeppelin/contracts/access/Ownable.sol\":1094:1107  _checkOwner() */\n      jump\t// in\n    tag_503:\n        /* \"contracts/ShadowPool.sol\":20753:20773  _admin != address(0) */\n      0xffffffffffffffffffffffffffffffffffffffff\n      dup2\n      and\n        /* \"contracts/ShadowPool.sol\":20745:20800  require(_admin != address(0), \"Cannot be zero address\") */\n      tag_505\n      jumpi\n      mload(0x40)\n      0x08c379a000000000000000000000000000000000000000000000000000000000\n      dup2\n      mstore\n      0x04\n      add\n      tag_351\n      swap1\n      tag_474\n      jump\t// in\n    tag_505:\n        /* \"contracts/ShadowPool.sol\":20811:20816  admin */\n      0x08\n        /* \"contracts/ShadowPool.sol\":20811:20825  admin = _admin */\n      dup1\n      sload\n      0xffffffffffffffffffffffff0000000000000000000000000000000000000000\n      and\n      0xffffffffffffffffffffffffffffffffffffffff\n      dup4\n      dup2\n      and\n      swap2\n      swap1\n      swap2\n      or\n      swap2\n      dup3\n      swap1\n      sstore\n        /* \"contracts/ShadowPool.sol\":20841:20856  NewAdmin(admin) */\n      mload(0x40)\n      0x71614071b88dee5e0b2ae578a9dd7b2ebbe9ae832ba419dc0242cd065a290b6c\n      swap3\n      tag_357\n      swap3\n        /* \"contracts/ShadowPool.sol\":20850:20855  admin */\n      and\n      swap1\n        /* \"contracts/ShadowPool.sol\":20841:20856  NewAdmin(admin) */\n      tag_188\n      jump\t// in\n        /* \"contracts/ShadowPool.sol\":23595:23882  function setPerformanceFee(uint256 _performanceFee) external onlyAdmin {\r... */\n    tag_210:\n        /* \"contracts/ShadowPool.sol\":6453:6458  admin */\n      and(0xffffffffffffffffffffffffffffffffffffffff, sload(0x08))\n        /* \"contracts/ShadowPool.sol\":6439:6449  msg.sender */\n      caller\n        /* \"contracts/ShadowPool.sol\":6439:6458  msg.sender == admin */\n      eq\n        /* \"contracts/ShadowPool.sol\":6431:6474  require(msg.sender == admin, \"admin: wut?\") */\n      tag_509\n      jumpi\n      mload(0x40)\n      0x08c379a000000000000000000000000000000000000000000000000000000000\n      dup2\n      mstore\n      0x04\n      add\n      tag_351\n      swap1\n      tag_352\n      jump\t// in\n    tag_509:\n        /* \"contracts/ShadowPool.sol\":2026:2030  2000 */\n      0x07d0\n        /* \"contracts/ShadowPool.sol\":23685:23700  _performanceFee */\n      dup2\n        /* \"contracts/ShadowPool.sol\":23685:23723  _performanceFee <= MAX_PERFORMANCE_FEE */\n      gt\n      iszero\n        /* \"contracts/ShadowPool.sol\":23677:23782  require(_performanceFee <= MAX_PERFORMANCE_FEE, \"performanceFee cannot be more than MAX_PERFORMANCE_FEE\") */\n      tag_512\n      jumpi\n      mload(0x40)\n      0x08c379a000000000000000000000000000000000000000000000000000000000\n      dup2\n      mstore\n      0x04\n      add\n      tag_351\n      swap1\n      tag_514\n      jump\t// in\n    tag_512:\n        /* \"contracts/ShadowPool.sol\":23793:23807  performanceFee */\n      0x13\n        /* \"contracts/ShadowPool.sol\":23793:23825  performanceFee = _performanceFee */\n      dup2\n      swap1\n      sstore\n        /* \"contracts/ShadowPool.sol\":23841:23874  NewPerformanceFee(performanceFee) */\n      mload(0x40)\n      0xefeafcf03e479a9566d7ef321b4816de0ba19cfa3cd0fae2f8c5f4a0afb342c4\n      swap1\n      tag_357\n      swap1\n        /* \"contracts/ShadowPool.sol\":23810:23825  _performanceFee */\n      dup4\n      swap1\n        /* \"contracts/ShadowPool.sol\":23841:23874  NewPerformanceFee(performanceFee) */\n      tag_109\n      jump\t// in\n        /* \"@openzeppelin/contracts/access/Ownable.sol\":1831:1932  function renounceOwnership() public virtual onlyOwner {... */\n    tag_212:\n        /* \"@openzeppelin/contracts/access/Ownable.sol\":1094:1107  _checkOwner() */\n      tag_517\n        /* \"@openzeppelin/contracts/access/Ownable.sol\":1094:1105  _checkOwner */\n      tag_368\n        /* \"@openzeppelin/contracts/access/Ownable.sol\":1094:1107  _checkOwner() */\n      jump\t// in\n    tag_517:\n        /* \"@openzeppelin/contracts/access/Ownable.sol\":1895:1925  _transferOwnership(address(0)) */\n      tag_519\n        /* \"@openzeppelin/contracts/access/Ownable.sol\":1922:1923  0 */\n      0x00\n        /* \"@openzeppelin/contracts/access/Ownable.sol\":1895:1913  _transferOwnership */\n      tag_520\n        /* \"@openzeppelin/contracts/access/Ownable.sol\":1895:1925  _transferOwnership(address(0)) */\n      jump\t// in\n    tag_519:\n        /* \"@openzeppelin/contracts/access/Ownable.sol\":1831:1932  function renounceOwnership() public virtual onlyOwner {... */\n      jump\t// out\n        /* \"contracts/ShadowPool.sol\":33600:33724  function balanceOf() public view returns (uint256) {\r... */\n    tag_214:\n        /* \"contracts/ShadowPool.sol\":33642:33649  uint256 */\n      0x00\n        /* \"contracts/ShadowPool.sol\":33702:33716  totalBoostDebt */\n      sload(0x0c)\n        /* \"contracts/ShadowPool.sol\":33669:33674  token */\n      immutable(\"0x8d841e129c158ed00fc3618c65b249d82e3b0efc8bcebb06537fd0a18b989353\")\n        /* \"contracts/ShadowPool.sol\":33669:33684  token.balanceOf */\n      0xffffffffffffffffffffffffffffffffffffffff\n      and\n      0x70a08231\n        /* \"contracts/ShadowPool.sol\":33693:33697  this */\n      address\n        /* \"contracts/ShadowPool.sol\":33669:33699  token.balanceOf(address(this)) */\n      mload(0x40)\n      dup3\n      0xffffffff\n      and\n      0xe0\n      shl\n      dup2\n      mstore\n      0x04\n      add\n      tag_522\n      swap2\n      swap1\n      tag_188\n      jump\t// in\n    tag_522:\n      0x20\n      mload(0x40)\n      dup1\n      dup4\n      sub\n      dup2\n      dup7\n      dup1\n      extcodesize\n      iszero\n      dup1\n      iszero\n      tag_523\n      jumpi\n      0x00\n      dup1\n      revert\n    tag_523:\n      pop\n      gas\n      staticcall\n      iszero\n      dup1\n      iszero\n      tag_525\n      jumpi\n      returndatasize\n      0x00\n      dup1\n      returndatacopy\n      revert(0x00, returndatasize)\n    tag_525:\n      pop\n      pop\n      pop\n      pop\n      mload(0x40)\n      returndatasize\n      not(0x1f)\n      0x1f\n      dup3\n      add\n      and\n      dup3\n      add\n      dup1\n      0x40\n      mstore\n      pop\n      dup2\n      add\n      swap1\n      tag_526\n      swap2\n      swap1\n      tag_375\n      jump\t// in\n    tag_526:\n        /* \"contracts/ShadowPool.sol\":33669:33716  token.balanceOf(address(this)) + totalBoostDebt */\n      tag_480\n      swap2\n      swap1\n      tag_405\n      jump\t// in\n        /* \"contracts/ShadowPool.sol\":2538:2591  uint256 public constant PRECISION_FACTOR_SHARE = 1e28 */\n    tag_217:\n        /* \"contracts/ShadowPool.sol\":2587:2591  1e28 */\n      0x204fce5e3e25026110000000\n        /* \"contracts/ShadowPool.sol\":2538:2591  uint256 public constant PRECISION_FACTOR_SHARE = 1e28 */\n      dup2\n      jump\t// out\n        /* \"contracts/ShadowPool.sol\":33007:33200  function getPricePerFullShare() external view returns (uint256) {\r... */\n    tag_220:\n        /* \"contracts/ShadowPool.sol\":33062:33069  uint256 */\n      0x00\n        /* \"contracts/ShadowPool.sol\":33089:33100  totalShares */\n      sload(0x07)\n        /* \"contracts/ShadowPool.sol\":33104:33105  0 */\n      0x00\n        /* \"contracts/ShadowPool.sol\":33089:33105  totalShares == 0 */\n      eq\n        /* \"contracts/ShadowPool.sol\":33089:33192  totalShares == 0 ? 1e18 : (((balanceOf() + calculateTotalpendingShdwRewards()) * (1e18)) / totalShares) */\n      tag_529\n      jumpi\n        /* \"contracts/ShadowPool.sol\":33180:33191  totalShares */\n      sload(0x07)\n        /* \"contracts/ShadowPool.sol\":33132:33166  calculateTotalpendingShdwRewards() */\n      tag_530\n        /* \"contracts/ShadowPool.sol\":33132:33164  calculateTotalpendingShdwRewards */\n      tag_294\n        /* \"contracts/ShadowPool.sol\":33132:33166  calculateTotalpendingShdwRewards() */\n      jump\t// in\n    tag_530:\n        /* \"contracts/ShadowPool.sol\":33118:33129  balanceOf() */\n      tag_531\n        /* \"contracts/ShadowPool.sol\":33118:33127  balanceOf */\n      tag_214\n        /* \"contracts/ShadowPool.sol\":33118:33129  balanceOf() */\n      jump\t// in\n    tag_531:\n        /* \"contracts/ShadowPool.sol\":33118:33166  balanceOf() + calculateTotalpendingShdwRewards() */\n      tag_532\n      swap2\n      swap1\n      tag_405\n      jump\t// in\n    tag_532:\n        /* \"contracts/ShadowPool.sol\":33117:33176  (balanceOf() + calculateTotalpendingShdwRewards()) * (1e18) */\n      tag_533\n      swap1\n        /* \"contracts/ShadowPool.sol\":33171:33175  1e18 */\n      0x0de0b6b3a7640000\n        /* \"contracts/ShadowPool.sol\":33117:33176  (balanceOf() + calculateTotalpendingShdwRewards()) * (1e18) */\n      tag_411\n      jump\t// in\n    tag_533:\n        /* \"contracts/ShadowPool.sol\":33116:33191  ((balanceOf() + calculateTotalpendingShdwRewards()) * (1e18)) / totalShares */\n      tag_534\n      swap2\n      swap1\n      tag_413\n      jump\t// in\n    tag_534:\n        /* \"contracts/ShadowPool.sol\":33089:33192  totalShares == 0 ? 1e18 : (((balanceOf() + calculateTotalpendingShdwRewards()) * (1e18)) / totalShares) */\n      jump(tag_480)\n    tag_529:\n      pop\n        /* \"contracts/ShadowPool.sol\":33108:33112  1e18 */\n      0x0de0b6b3a7640000\n      swap1\n        /* \"contracts/ShadowPool.sol\":33007:33200  function getPricePerFullShare() external view returns (uint256) {\r... */\n      jump\t// out\n        /* \"contracts/ShadowPool.sol\":28520:28620  function pause() external onlyAdmin whenNotPaused {\r... */\n    tag_226:\n        /* \"contracts/ShadowPool.sol\":6453:6458  admin */\n      and(0xffffffffffffffffffffffffffffffffffffffff, sload(0x08))\n        /* \"contracts/ShadowPool.sol\":6439:6449  msg.sender */\n      caller\n        /* \"contracts/ShadowPool.sol\":6439:6458  msg.sender == admin */\n      eq\n        /* \"contracts/ShadowPool.sol\":6431:6474  require(msg.sender == admin, \"admin: wut?\") */\n      tag_537\n      jumpi\n      mload(0x40)\n      0x08c379a000000000000000000000000000000000000000000000000000000000\n      dup2\n      mstore\n      0x04\n      add\n      tag_351\n      swap1\n      tag_352\n      jump\t// in\n    tag_537:\n        /* \"@openzeppelin/contracts/security/Pausable.sol\":1239:1258  _requireNotPaused() */\n      tag_540\n        /* \"@openzeppelin/contracts/security/Pausable.sol\":1239:1256  _requireNotPaused */\n      tag_430\n        /* \"@openzeppelin/contracts/security/Pausable.sol\":1239:1258  _requireNotPaused() */\n      jump\t// in\n    tag_540:\n        /* \"contracts/ShadowPool.sol\":28581:28589  _pause() */\n      tag_542\n        /* \"contracts/ShadowPool.sol\":28581:28587  _pause */\n      tag_543\n        /* \"contracts/ShadowPool.sol\":28581:28589  _pause() */\n      jump\t// in\n    tag_542:\n        /* \"contracts/ShadowPool.sol\":28605:28612  Pause() */\n      mload(0x40)\n      0x6985a02210a168e66602d3235cb6db0e70f92b3ba4d376a33c0f3d9434bff625\n      swap1\n      0x00\n      swap1\n      log1\n        /* \"contracts/ShadowPool.sol\":28520:28620  function pause() external onlyAdmin whenNotPaused {\r... */\n      jump\t// out\n        /* \"contracts/ShadowPool.sol\":20027:20115  function withdrawAll() external {\r... */\n    tag_228:\n        /* \"contracts/ShadowPool.sol\":20088:20098  msg.sender */\n      caller\n        /* \"contracts/ShadowPool.sol\":20079:20099  userInfo[msg.sender] */\n      0x00\n      swap1\n      dup2\n      mstore\n        /* \"contracts/ShadowPool.sol\":20079:20087  userInfo */\n      0x03\n        /* \"contracts/ShadowPool.sol\":20079:20099  userInfo[msg.sender] */\n      0x20\n      mstore\n      0x40\n      swap1\n      keccak256\n        /* \"contracts/ShadowPool.sol\":20079:20106  userInfo[msg.sender].shares */\n      sload\n        /* \"contracts/ShadowPool.sol\":20070:20107  withdraw(userInfo[msg.sender].shares) */\n      tag_519\n      swap1\n        /* \"contracts/ShadowPool.sol\":20070:20078  withdraw */\n      tag_146\n        /* \"contracts/ShadowPool.sol\":20070:20107  withdraw(userInfo[msg.sender].shares) */\n      jump\t// in\n        /* \"contracts/ShadowPool.sol\":3151:3186  uint256 public performanceFee = 200 */\n    tag_230:\n      sload(0x13)\n      dup2\n      jump\t// out\n        /* \"contracts/ShadowPool.sol\":1533:1585  mapping(address => bool) public freeWithdrawFeeUsers */\n    tag_234:\n      mstore(0x20, 0x05)\n      0x00\n      swap1\n      dup2\n      mstore\n      0x40\n      swap1\n      keccak256\n      sload\n      0xff\n      and\n      dup2\n      jump\t// out\n        /* \"@openzeppelin/contracts/access/Ownable.sol\":1201:1286  function owner() public view virtual returns (address) {... */\n    tag_237:\n        /* \"@openzeppelin/contracts/access/Ownable.sol\":1247:1254  address */\n      0x00\n        /* \"@openzeppelin/contracts/access/Ownable.sol\":1273:1279  _owner */\n      sload\n      0xffffffffffffffffffffffffffffffffffffffff\n      and\n        /* \"@openzeppelin/contracts/access/Ownable.sol\":1201:1286  function owner() public view virtual returns (address) {... */\n      swap1\n      jump\t// out\n        /* \"contracts/ShadowPool.sol\":27763:28027  function setBoostWeight(uint256 _boostWeight) external onlyAdmin {\r... */\n    tag_241:\n        /* \"contracts/ShadowPool.sol\":6453:6458  admin */\n      and(0xffffffffffffffffffffffffffffffffffffffff, sload(0x08))\n        /* \"contracts/ShadowPool.sol\":6439:6449  msg.sender */\n      caller\n        /* \"contracts/ShadowPool.sol\":6439:6458  msg.sender == admin */\n      eq\n        /* \"contracts/ShadowPool.sol\":6431:6474  require(msg.sender == admin, \"admin: wut?\") */\n      tag_548\n      jumpi\n      mload(0x40)\n      0x08c379a000000000000000000000000000000000000000000000000000000000\n      dup2\n      mstore\n      0x04\n      add\n      tag_351\n      swap1\n      tag_352\n      jump\t// in\n    tag_548:\n        /* \"contracts/ShadowPool.sol\":2436:2447  5000 * 1e10 */\n      0x2d79883d2000\n        /* \"contracts/ShadowPool.sol\":27847:27859  _boostWeight */\n      dup2\n        /* \"contracts/ShadowPool.sol\":27847:27881  _boostWeight <= BOOST_WEIGHT_LIMIT */\n      gt\n      iszero\n        /* \"contracts/ShadowPool.sol\":27839:27937  require(_boostWeight <= BOOST_WEIGHT_LIMIT, \"BOOST_WEIGHT cannot be more than BOOST_WEIGHT_LIMIT\") */\n      tag_551\n      jumpi\n      mload(0x40)\n      0x08c379a000000000000000000000000000000000000000000000000000000000\n      dup2\n      mstore\n      0x04\n      add\n      tag_351\n      swap1\n      tag_553\n      jump\t// in\n    tag_551:\n        /* \"contracts/ShadowPool.sol\":27948:27960  BOOST_WEIGHT */\n      0x12\n        /* \"contracts/ShadowPool.sol\":27948:27975  BOOST_WEIGHT = _boostWeight */\n      dup2\n      swap1\n      sstore\n        /* \"contracts/ShadowPool.sol\":27991:28019  NewBoostWeight(_boostWeight) */\n      mload(0x40)\n      0x7666dfff8c3377938e522b4eed3aff079973a976f95969db60a406d49f40da4e\n      swap1\n      tag_357\n      swap1\n        /* \"contracts/ShadowPool.sol\":27963:27975  _boostWeight */\n      dup4\n      swap1\n        /* \"contracts/ShadowPool.sol\":27991:28019  NewBoostWeight(_boostWeight) */\n      tag_109\n      jump\t// in\n        /* \"contracts/ShadowPool.sol\":2103:2155  uint256 public constant MAX_OVERDUE_FEE = 100 * 1e10 */\n    tag_243:\n        /* \"contracts/ShadowPool.sol\":2145:2155  100 * 1e10 */\n      0xe8d4a51000\n        /* \"contracts/ShadowPool.sol\":2103:2155  uint256 public constant MAX_OVERDUE_FEE = 100 * 1e10 */\n      dup2\n      jump\t// out\n        /* \"contracts/ShadowPool.sol\":29867:31015  function calculateOverdueFee(address _user) public view returns (uint256) {\r... */\n    tag_247:\n        /* \"contracts/ShadowPool.sol\":29976:29991  userInfo[_user] */\n      0xffffffffffffffffffffffffffffffffffffffff\n      dup2\n      and\n        /* \"contracts/ShadowPool.sol\":29932:29939  uint256 */\n      0x00\n        /* \"contracts/ShadowPool.sol\":29976:29991  userInfo[_user] */\n      swap1\n      dup2\n      mstore\n        /* \"contracts/ShadowPool.sol\":29976:29984  userInfo */\n      0x03\n        /* \"contracts/ShadowPool.sol\":29976:29991  userInfo[_user] */\n      0x20\n      mstore\n      0x40\n      dup2\n      keccak256\n        /* \"contracts/ShadowPool.sol\":30020:30031  user.shares */\n      dup1\n      sload\n        /* \"contracts/ShadowPool.sol\":30020:30035  user.shares > 0 */\n      iszero\n      dup1\n      iszero\n      swap1\n        /* \"contracts/ShadowPool.sol\":30020:30063  user.shares > 0 &&\r... */\n      tag_556\n      jumpi\n      pop\n        /* \"contracts/ShadowPool.sol\":30052:30063  user.locked */\n      0x07\n      dup2\n      add\n      sload\n      0xff\n      and\n        /* \"contracts/ShadowPool.sol\":30020:30063  user.shares > 0 &&\r... */\n    tag_556:\n        /* \"contracts/ShadowPool.sol\":30020:30107  user.shares > 0 &&\r... */\n      dup1\n      iszero\n      tag_557\n      jumpi\n      pop\n        /* \"contracts/ShadowPool.sol\":30081:30107  freeOverdueFeeUsers[_user] */\n      0xffffffffffffffffffffffffffffffffffffffff\n      dup4\n      and\n      0x00\n      swap1\n      dup2\n      mstore\n        /* \"contracts/ShadowPool.sol\":30081:30100  freeOverdueFeeUsers */\n      0x06\n        /* \"contracts/ShadowPool.sol\":30081:30107  freeOverdueFeeUsers[_user] */\n      0x20\n      mstore\n      0x40\n      swap1\n      keccak256\n      sload\n      0xff\n      and\n        /* \"contracts/ShadowPool.sol\":30080:30107  !freeOverdueFeeUsers[_user] */\n      iszero\n        /* \"contracts/ShadowPool.sol\":30020:30107  user.shares > 0 &&\r... */\n    tag_557:\n        /* \"contracts/ShadowPool.sol\":30020:30185  user.shares > 0 &&\r... */\n      dup1\n      iszero\n      tag_558\n      jumpi\n      pop\n        /* \"contracts/ShadowPool.sol\":30169:30184  block.timestamp */\n      timestamp\n        /* \"contracts/ShadowPool.sol\":30145:30165  UNLOCK_FREE_DURATION */\n      sload(0x0e)\n        /* \"contracts/ShadowPool.sol\":30126:30130  user */\n      dup3\n        /* \"contracts/ShadowPool.sol\":30126:30142  user.lockEndTime */\n      0x05\n      add\n      sload\n        /* \"contracts/ShadowPool.sol\":30126:30165  user.lockEndTime + UNLOCK_FREE_DURATION */\n      tag_559\n      swap2\n      swap1\n      tag_405\n      jump\t// in\n    tag_559:\n        /* \"contracts/ShadowPool.sol\":30125:30184  (user.lockEndTime + UNLOCK_FREE_DURATION) < block.timestamp */\n      lt\n        /* \"contracts/ShadowPool.sol\":30020:30185  user.shares > 0 &&\r... */\n    tag_558:\n        /* \"contracts/ShadowPool.sol\":30002:30989  if (\r... */\n      iszero\n      tag_560\n      jumpi\n        /* \"contracts/ShadowPool.sol\":30212:30224  uint256 pool */\n      0x00\n        /* \"contracts/ShadowPool.sol\":30241:30275  calculateTotalpendingShdwRewards() */\n      tag_561\n        /* \"contracts/ShadowPool.sol\":30241:30273  calculateTotalpendingShdwRewards */\n      tag_294\n        /* \"contracts/ShadowPool.sol\":30241:30275  calculateTotalpendingShdwRewards() */\n      jump\t// in\n    tag_561:\n        /* \"contracts/ShadowPool.sol\":30227:30238  balanceOf() */\n      tag_562\n        /* \"contracts/ShadowPool.sol\":30227:30236  balanceOf */\n      tag_214\n        /* \"contracts/ShadowPool.sol\":30227:30238  balanceOf() */\n      jump\t// in\n    tag_562:\n        /* \"contracts/ShadowPool.sol\":30227:30275  balanceOf() + calculateTotalpendingShdwRewards() */\n      tag_563\n      swap2\n      swap1\n      tag_405\n      jump\t// in\n    tag_563:\n        /* \"contracts/ShadowPool.sol\":30353:30374  user.userBoostedShare */\n      0x06\n      dup4\n      add\n      sload\n        /* \"contracts/ShadowPool.sol\":30339:30350  totalShares */\n      sload(0x07)\n        /* \"contracts/ShadowPool.sol\":30323:30334  user.shares */\n      dup5\n      sload\n        /* \"contracts/ShadowPool.sol\":30212:30275  uint256 pool = balanceOf() + calculateTotalpendingShdwRewards() */\n      swap3\n      swap4\n      pop\n        /* \"contracts/ShadowPool.sol\":30290:30311  uint256 currentAmount */\n      0x00\n      swap3\n        /* \"contracts/ShadowPool.sol\":30315:30335  pool * (user.shares) */\n      tag_564\n      swap1\n        /* \"contracts/ShadowPool.sol\":30212:30275  uint256 pool = balanceOf() + calculateTotalpendingShdwRewards() */\n      dup6\n        /* \"contracts/ShadowPool.sol\":30315:30335  pool * (user.shares) */\n      tag_411\n      jump\t// in\n    tag_564:\n        /* \"contracts/ShadowPool.sol\":30314:30350  (pool * (user.shares)) / totalShares */\n      tag_565\n      swap2\n      swap1\n      tag_413\n      jump\t// in\n    tag_565:\n        /* \"contracts/ShadowPool.sol\":30314:30374  (pool * (user.shares)) / totalShares - user.userBoostedShare */\n      tag_566\n      swap2\n      swap1\n      tag_419\n      jump\t// in\n    tag_566:\n        /* \"contracts/ShadowPool.sol\":30290:30374  uint256 currentAmount = (pool * (user.shares)) / totalShares - user.userBoostedShare */\n      swap1\n      pop\n        /* \"contracts/ShadowPool.sol\":30389:30407  uint256 earnAmount */\n      0x00\n        /* \"contracts/ShadowPool.sol\":30426:30430  user */\n      dup4\n        /* \"contracts/ShadowPool.sol\":30426:30443  user.lockedAmount */\n      0x08\n      add\n      sload\n        /* \"contracts/ShadowPool.sol\":30410:30423  currentAmount */\n      dup3\n        /* \"contracts/ShadowPool.sol\":30410:30443  currentAmount - user.lockedAmount */\n      tag_567\n      swap2\n      swap1\n      tag_419\n      jump\t// in\n    tag_567:\n        /* \"contracts/ShadowPool.sol\":30389:30443  uint256 earnAmount = currentAmount - user.lockedAmount */\n      swap1\n      pop\n        /* \"contracts/ShadowPool.sol\":30458:30481  uint256 overdueDuration */\n      0x00\n        /* \"contracts/ShadowPool.sol\":30521:30541  UNLOCK_FREE_DURATION */\n      sload(0x0e)\n        /* \"contracts/ShadowPool.sol\":30502:30506  user */\n      dup6\n        /* \"contracts/ShadowPool.sol\":30502:30518  user.lockEndTime */\n      0x05\n      add\n      sload\n        /* \"contracts/ShadowPool.sol\":30484:30499  block.timestamp */\n      timestamp\n        /* \"contracts/ShadowPool.sol\":30484:30518  block.timestamp - user.lockEndTime */\n      tag_568\n      swap2\n      swap1\n      tag_419\n      jump\t// in\n    tag_568:\n        /* \"contracts/ShadowPool.sol\":30484:30541  block.timestamp - user.lockEndTime - UNLOCK_FREE_DURATION */\n      tag_569\n      swap2\n      swap1\n      tag_419\n      jump\t// in\n    tag_569:\n        /* \"contracts/ShadowPool.sol\":30458:30541  uint256 overdueDuration = block.timestamp - user.lockEndTime - UNLOCK_FREE_DURATION */\n      swap1\n      pop\n        /* \"contracts/ShadowPool.sol\":30578:30601  DURATION_FACTOR_OVERDUE */\n      sload(0x11)\n        /* \"contracts/ShadowPool.sol\":30560:30575  overdueDuration */\n      dup2\n        /* \"contracts/ShadowPool.sol\":30560:30601  overdueDuration > DURATION_FACTOR_OVERDUE */\n      gt\n        /* \"contracts/ShadowPool.sol\":30556:30679  if (overdueDuration > DURATION_FACTOR_OVERDUE) {\r... */\n      iszero\n      tag_570\n      jumpi\n      pop\n        /* \"contracts/ShadowPool.sol\":30640:30663  DURATION_FACTOR_OVERDUE */\n      sload(0x11)\n        /* \"contracts/ShadowPool.sol\":30556:30679  if (overdueDuration > DURATION_FACTOR_OVERDUE) {\r... */\n    tag_570:\n        /* \"contracts/ShadowPool.sol\":30768:30789  uint256 overdueWeight */\n      0x00\n        /* \"contracts/ShadowPool.sol\":30825:30848  DURATION_FACTOR_OVERDUE */\n      sload(0x11)\n        /* \"contracts/ShadowPool.sol\":30811:30821  overdueFee */\n      sload(0x17)\n        /* \"contracts/ShadowPool.sol\":30793:30808  overdueDuration */\n      dup4\n        /* \"contracts/ShadowPool.sol\":30793:30821  overdueDuration * overdueFee */\n      tag_571\n      swap2\n      swap1\n      tag_411\n      jump\t// in\n    tag_571:\n        /* \"contracts/ShadowPool.sol\":30792:30848  (overdueDuration * overdueFee) / DURATION_FACTOR_OVERDUE */\n      tag_572\n      swap2\n      swap1\n      tag_413\n      jump\t// in\n    tag_572:\n        /* \"contracts/ShadowPool.sol\":30768:30848  uint256 overdueWeight = (overdueDuration * overdueFee) / DURATION_FACTOR_OVERDUE */\n      swap1\n      pop\n        /* \"contracts/ShadowPool.sol\":30863:30888  uint256 currentOverdueFee */\n      0x00\n        /* \"contracts/ShadowPool.sol\":2506:2510  1e12 */\n      0xe8d4a51000\n        /* \"contracts/ShadowPool.sol\":30892:30918  earnAmount * overdueWeight */\n      tag_573\n        /* \"contracts/ShadowPool.sol\":30768:30848  uint256 overdueWeight = (overdueDuration * overdueFee) / DURATION_FACTOR_OVERDUE */\n      dup4\n        /* \"contracts/ShadowPool.sol\":30892:30902  earnAmount */\n      dup7\n        /* \"contracts/ShadowPool.sol\":30892:30918  earnAmount * overdueWeight */\n      tag_411\n      jump\t// in\n    tag_573:\n        /* \"contracts/ShadowPool.sol\":30891:30938  (earnAmount * overdueWeight) / PRECISION_FACTOR */\n      tag_574\n      swap2\n      swap1\n      tag_413\n      jump\t// in\n    tag_574:\n        /* \"contracts/ShadowPool.sol\":30863:30938  uint256 currentOverdueFee = (earnAmount * overdueWeight) / PRECISION_FACTOR */\n      swap8\n      pop\n        /* \"contracts/ShadowPool.sol\":30953:30977  return currentOverdueFee */\n      tag_555\n      swap7\n      pop\n      pop\n      pop\n      pop\n      pop\n      pop\n      pop\n      jump\n        /* \"contracts/ShadowPool.sol\":30002:30989  if (\r... */\n    tag_560:\n        /* \"contracts/ShadowPool.sol\":31006:31007  0 */\n      0x00\n        /* \"contracts/ShadowPool.sol\":30999:31007  return 0 */\n      swap2\n      pop\n      pop\n        /* \"contracts/ShadowPool.sol\":29867:31015  function calculateOverdueFee(address _user) public view returns (uint256) {\r... */\n    tag_555:\n      swap2\n      swap1\n      pop\n      jump\t// out\n        /* \"contracts/ShadowPool.sol\":26587:26833  function setDurationFactor(uint256 _durationFactor) external onlyAdmin {\r... */\n    tag_251:\n        /* \"contracts/ShadowPool.sol\":6453:6458  admin */\n      and(0xffffffffffffffffffffffffffffffffffffffff, sload(0x08))\n        /* \"contracts/ShadowPool.sol\":6439:6449  msg.sender */\n      caller\n        /* \"contracts/ShadowPool.sol\":6439:6458  msg.sender == admin */\n      eq\n        /* \"contracts/ShadowPool.sol\":6431:6474  require(msg.sender == admin, \"admin: wut?\") */\n      tag_576\n      jumpi\n      mload(0x40)\n      0x08c379a000000000000000000000000000000000000000000000000000000000\n      dup2\n      mstore\n      0x04\n      add\n      tag_351\n      swap1\n      tag_352\n      jump\t// in\n    tag_576:\n        /* \"contracts/ShadowPool.sol\":26695:26696  0 */\n      0x00\n        /* \"contracts/ShadowPool.sol\":26677:26692  _durationFactor */\n      dup2\n        /* \"contracts/ShadowPool.sol\":26677:26696  _durationFactor > 0 */\n      gt\n        /* \"contracts/ShadowPool.sol\":26669:26731  require(_durationFactor > 0, \"DURATION_FACTOR cannot be zero\") */\n      tag_579\n      jumpi\n      mload(0x40)\n      0x08c379a000000000000000000000000000000000000000000000000000000000\n      dup2\n      mstore\n      0x04\n      add\n      tag_351\n      swap1\n      tag_581\n      jump\t// in\n    tag_579:\n        /* \"contracts/ShadowPool.sol\":26742:26757  DURATION_FACTOR */\n      0x10\n        /* \"contracts/ShadowPool.sol\":26742:26775  DURATION_FACTOR = _durationFactor */\n      dup2\n      swap1\n      sstore\n        /* \"contracts/ShadowPool.sol\":26791:26825  NewDurationFactor(_durationFactor) */\n      mload(0x40)\n      0x9478eb023aac0a7d58a4e935377056bf27cf5b72a2300725f831817a8f62fbde\n      swap1\n      tag_357\n      swap1\n        /* \"contracts/ShadowPool.sol\":26760:26775  _durationFactor */\n      dup4\n      swap1\n        /* \"contracts/ShadowPool.sol\":26791:26825  NewDurationFactor(_durationFactor) */\n      tag_109\n      jump\t// in\n        /* \"contracts/ShadowPool.sol\":3355:3393  uint256 public overdueFee = 100 * 1e10 */\n    tag_253:\n      sload(0x17)\n      dup2\n      jump\t// out\n        /* \"contracts/ShadowPool.sol\":2760:2805  uint256 public UNLOCK_FREE_DURATION = 1 weeks */\n    tag_256:\n      sload(0x0e)\n      dup2\n      jump\t// out\n        /* \"contracts/ShadowPool.sol\":2990:3039  uint256 public DURATION_FACTOR_OVERDUE = 180 days */\n    tag_259:\n      sload(0x11)\n      dup2\n      jump\t// out\n        /* \"contracts/ShadowPool.sol\":21289:21493  function setOperator(address _operator) external onlyOwner {\r... */\n    tag_263:\n        /* \"@openzeppelin/contracts/access/Ownable.sol\":1094:1107  _checkOwner() */\n      tag_584\n        /* \"@openzeppelin/contracts/access/Ownable.sol\":1094:1105  _checkOwner */\n      tag_368\n        /* \"@openzeppelin/contracts/access/Ownable.sol\":1094:1107  _checkOwner() */\n      jump\t// in\n    tag_584:\n        /* \"contracts/ShadowPool.sol\":21367:21390  _operator != address(0) */\n      0xffffffffffffffffffffffffffffffffffffffff\n      dup2\n      and\n        /* \"contracts/ShadowPool.sol\":21359:21417  require(_operator != address(0), \"Cannot be zero address\") */\n      tag_586\n      jumpi\n      mload(0x40)\n      0x08c379a000000000000000000000000000000000000000000000000000000000\n      dup2\n      mstore\n      0x04\n      add\n      tag_351\n      swap1\n      tag_474\n      jump\t// in\n    tag_586:\n        /* \"contracts/ShadowPool.sol\":21428:21436  operator */\n      0x0a\n        /* \"contracts/ShadowPool.sol\":21428:21448  operator = _operator */\n      dup1\n      sload\n      0xffffffffffffffffffffffff0000000000000000000000000000000000000000\n      and\n      0xffffffffffffffffffffffffffffffffffffffff\n      dup4\n      dup2\n      and\n      swap2\n      swap1\n      swap2\n      or\n      swap2\n      dup3\n      swap1\n      sstore\n        /* \"contracts/ShadowPool.sol\":21464:21485  NewOperator(operator) */\n      mload(0x40)\n      0xda12ee837e6978172aaf54b16145ffe08414fd8710092ef033c71b8eb6ec189a\n      swap3\n      tag_357\n      swap3\n        /* \"contracts/ShadowPool.sol\":21476:21484  operator */\n      and\n      swap1\n        /* \"contracts/ShadowPool.sol\":21464:21485  NewOperator(operator) */\n      tag_188\n      jump\t// in\n        /* \"contracts/ShadowPool.sol\":24496:24753  function setWithdrawFee(uint256 _withdrawFee) external onlyAdmin {\r... */\n    tag_269:\n        /* \"contracts/ShadowPool.sol\":6453:6458  admin */\n      and(0xffffffffffffffffffffffffffffffffffffffff, sload(0x08))\n        /* \"contracts/ShadowPool.sol\":6439:6449  msg.sender */\n      caller\n        /* \"contracts/ShadowPool.sol\":6439:6458  msg.sender == admin */\n      eq\n        /* \"contracts/ShadowPool.sol\":6431:6474  require(msg.sender == admin, \"admin: wut?\") */\n      tag_590\n      jumpi\n      mload(0x40)\n      0x08c379a000000000000000000000000000000000000000000000000000000000\n      dup2\n      mstore\n      0x04\n      add\n      tag_351\n      swap1\n      tag_352\n      jump\t// in\n    tag_590:\n        /* \"contracts/ShadowPool.sol\":2087:2090  500 */\n      0x01f4\n        /* \"contracts/ShadowPool.sol\":24580:24592  _withdrawFee */\n      dup2\n        /* \"contracts/ShadowPool.sol\":24580:24612  _withdrawFee <= MAX_WITHDRAW_FEE */\n      gt\n      iszero\n        /* \"contracts/ShadowPool.sol\":24572:24665  require(_withdrawFee <= MAX_WITHDRAW_FEE, \"withdrawFee cannot be more than MAX_WITHDRAW_FEE\") */\n      tag_593\n      jumpi\n      mload(0x40)\n      0x08c379a000000000000000000000000000000000000000000000000000000000\n      dup2\n      mstore\n      0x04\n      add\n      tag_351\n      swap1\n      tag_364\n      jump\t// in\n    tag_593:\n        /* \"contracts/ShadowPool.sol\":24676:24687  withdrawFee */\n      0x15\n        /* \"contracts/ShadowPool.sol\":24676:24702  withdrawFee = _withdrawFee */\n      dup2\n      swap1\n      sstore\n        /* \"contracts/ShadowPool.sol\":24718:24745  NewWithdrawFee(withdrawFee) */\n      mload(0x40)\n      0xd5fe46099fa396290a7f57e36c3c3c8774e2562c18ed5d1dcc0fa75071e03f1d\n      swap1\n      tag_357\n      swap1\n        /* \"contracts/ShadowPool.sol\":24690:24702  _withdrawFee */\n      dup4\n      swap1\n        /* \"contracts/ShadowPool.sol\":24718:24745  NewWithdrawFee(withdrawFee) */\n      tag_109\n      jump\t// in\n        /* \"contracts/ShadowPool.sol\":24007:24387  function setPerformanceFeeContract(uint256 _performanceFeeContract) external onlyAdmin {\r... */\n    tag_272:\n        /* \"contracts/ShadowPool.sol\":6453:6458  admin */\n      and(0xffffffffffffffffffffffffffffffffffffffff, sload(0x08))\n        /* \"contracts/ShadowPool.sol\":6439:6449  msg.sender */\n      caller\n        /* \"contracts/ShadowPool.sol\":6439:6458  msg.sender == admin */\n      eq\n        /* \"contracts/ShadowPool.sol\":6431:6474  require(msg.sender == admin, \"admin: wut?\") */\n      tag_597\n      jumpi\n      mload(0x40)\n      0x08c379a000000000000000000000000000000000000000000000000000000000\n      dup2\n      mstore\n      0x04\n      add\n      tag_351\n      swap1\n      tag_352\n      jump\t// in\n    tag_597:\n        /* \"contracts/ShadowPool.sol\":2026:2030  2000 */\n      0x07d0\n        /* \"contracts/ShadowPool.sol\":24127:24150  _performanceFeeContract */\n      dup2\n        /* \"contracts/ShadowPool.sol\":24127:24173  _performanceFeeContract <= MAX_PERFORMANCE_FEE */\n      gt\n      iszero\n        /* \"contracts/ShadowPool.sol\":24105:24255  require(\r... */\n      tag_600\n      jumpi\n      mload(0x40)\n      0x08c379a000000000000000000000000000000000000000000000000000000000\n      dup2\n      mstore\n      0x04\n      add\n      tag_351\n      swap1\n      tag_514\n      jump\t// in\n    tag_600:\n        /* \"contracts/ShadowPool.sol\":24266:24288  performanceFeeContract */\n      0x14\n        /* \"contracts/ShadowPool.sol\":24266:24314  performanceFeeContract = _performanceFeeContract */\n      dup2\n      swap1\n      sstore\n        /* \"contracts/ShadowPool.sol\":24330:24379  NewPerformanceFeeContract(performanceFeeContract) */\n      mload(0x40)\n      0xc5d25457b67b87678c987375af13f6e50beb3ad7bfd009da26766ae986eaa20d\n      swap1\n      tag_357\n      swap1\n        /* \"contracts/ShadowPool.sol\":24291:24314  _performanceFeeContract */\n      dup4\n      swap1\n        /* \"contracts/ShadowPool.sol\":24330:24379  NewPerformanceFeeContract(performanceFeeContract) */\n      tag_109\n      jump\t// in\n        /* \"contracts/ShadowPool.sol\":1235:1278  IShadowChefV2 public immutable shadowchefV2 */\n    tag_274:\n      immutable(\"0x3f2cb8b8a6f6ba8772056c1e4910fb442737deea593ec84e00cbccee66f6d0e1\")\n      dup2\n      jump\t// out\n        /* \"contracts/ShadowPool.sol\":3094:3134  uint256 public BOOST_WEIGHT = 100 * 1e10 */\n    tag_278:\n      sload(0x12)\n      dup2\n      jump\t// out\n        /* \"contracts/ShadowPool.sol\":1980:2030  uint256 public constant MAX_PERFORMANCE_FEE = 2000 */\n    tag_281:\n        /* \"contracts/ShadowPool.sol\":2026:2030  2000 */\n      0x07d0\n        /* \"contracts/ShadowPool.sol\":1980:2030  uint256 public constant MAX_PERFORMANCE_FEE = 2000 */\n      dup2\n      jump\t// out\n        /* \"contracts/ShadowPool.sol\":23249:23483  function setWithdrawFeeUser(address _user, bool _free) external onlyAdmin {\r... */\n    tag_285:\n        /* \"contracts/ShadowPool.sol\":6453:6458  admin */\n      and(0xffffffffffffffffffffffffffffffffffffffff, sload(0x08))\n        /* \"contracts/ShadowPool.sol\":6439:6449  msg.sender */\n      caller\n        /* \"contracts/ShadowPool.sol\":6439:6458  msg.sender == admin */\n      eq\n        /* \"contracts/ShadowPool.sol\":6431:6474  require(msg.sender == admin, \"admin: wut?\") */\n      tag_604\n      jumpi\n      mload(0x40)\n      0x08c379a000000000000000000000000000000000000000000000000000000000\n      dup2\n      mstore\n      0x04\n      add\n      tag_351\n      swap1\n      tag_352\n      jump\t// in\n    tag_604:\n        /* \"contracts/ShadowPool.sol\":23342:23361  _user != address(0) */\n      0xffffffffffffffffffffffffffffffffffffffff\n      dup3\n      and\n        /* \"contracts/ShadowPool.sol\":23334:23388  require(_user != address(0), \"Cannot be zero address\") */\n      tag_607\n      jumpi\n      mload(0x40)\n      0x08c379a000000000000000000000000000000000000000000000000000000000\n      dup2\n      mstore\n      0x04\n      add\n      tag_351\n      swap1\n      tag_474\n      jump\t// in\n    tag_607:\n        /* \"contracts/ShadowPool.sol\":23399:23426  freeWithdrawFeeUsers[_user] */\n      0xffffffffffffffffffffffffffffffffffffffff\n      dup3\n      and\n      0x00\n      dup2\n      dup2\n      mstore\n        /* \"contracts/ShadowPool.sol\":23399:23419  freeWithdrawFeeUsers */\n      0x05\n        /* \"contracts/ShadowPool.sol\":23399:23426  freeWithdrawFeeUsers[_user] */\n      0x20\n      mstore\n      0x40\n      dup1\n      dup3\n      keccak256\n        /* \"contracts/ShadowPool.sol\":23399:23434  freeWithdrawFeeUsers[_user] = _free */\n      dup1\n      sload\n      0xffffffffffffffffffffffffffffffffffffffffffffffffffffffffffffff00\n      and\n      dup6\n      iszero\n      iszero\n      swap1\n      dup2\n      or\n      swap1\n      swap2\n      sstore\n        /* \"contracts/ShadowPool.sol\":23450:23475  FreeFeeUser(_user, _free) */\n      swap1\n      mload\n        /* \"contracts/ShadowPool.sol\":23399:23434  freeWithdrawFeeUsers[_user] = _free */\n      swap1\n      swap3\n        /* \"contracts/ShadowPool.sol\":23399:23426  freeWithdrawFeeUsers[_user] */\n      swap2\n        /* \"contracts/ShadowPool.sol\":23450:23475  FreeFeeUser(_user, _free) */\n      0x3d7902bc9a6665bd7caf4240b834bb805d3cd68256889e9f8d2e40a10be41d44\n      swap2\n      log3\n        /* \"contracts/ShadowPool.sol\":23249:23483  function setWithdrawFeeUser(address _user, bool _free) external onlyAdmin {\r... */\n      pop\n      pop\n      jump\t// out\n        /* \"contracts/ShadowPool.sol\":27374:27654  function setUnlockFreeDuration(uint256 _unlockFreeDuration) external onlyAdmin {\r... */\n    tag_288:\n        /* \"contracts/ShadowPool.sol\":6453:6458  admin */\n      and(0xffffffffffffffffffffffffffffffffffffffff, sload(0x08))\n        /* \"contracts/ShadowPool.sol\":6439:6449  msg.sender */\n      caller\n        /* \"contracts/ShadowPool.sol\":6439:6458  msg.sender == admin */\n      eq\n        /* \"contracts/ShadowPool.sol\":6431:6474  require(msg.sender == admin, \"admin: wut?\") */\n      tag_610\n      jumpi\n      mload(0x40)\n      0x08c379a000000000000000000000000000000000000000000000000000000000\n      dup2\n      mstore\n      0x04\n      add\n      tag_351\n      swap1\n      tag_352\n      jump\t// in\n    tag_610:\n        /* \"contracts/ShadowPool.sol\":27494:27495  0 */\n      0x00\n        /* \"contracts/ShadowPool.sol\":27472:27491  _unlockFreeDuration */\n      dup2\n        /* \"contracts/ShadowPool.sol\":27472:27495  _unlockFreeDuration > 0 */\n      gt\n        /* \"contracts/ShadowPool.sol\":27464:27535  require(_unlockFreeDuration > 0, \"UNLOCK_FREE_DURATION cannot be zero\") */\n      tag_613\n      jumpi\n      mload(0x40)\n      0x08c379a000000000000000000000000000000000000000000000000000000000\n      dup2\n      mstore\n      0x04\n      add\n      tag_351\n      swap1\n      tag_615\n      jump\t// in\n    tag_613:\n        /* \"contracts/ShadowPool.sol\":27546:27566  UNLOCK_FREE_DURATION */\n      0x0e\n        /* \"contracts/ShadowPool.sol\":27546:27588  UNLOCK_FREE_DURATION = _unlockFreeDuration */\n      dup2\n      swap1\n      sstore\n        /* \"contracts/ShadowPool.sol\":27604:27646  NewUnlockFreeDuration(_unlockFreeDuration) */\n      mload(0x40)\n      0xf84bf2b901cfc02956d4e69556d7448cef4ea13587e7714dba7c6d697091e7ad\n      swap1\n      tag_357\n      swap1\n        /* \"contracts/ShadowPool.sol\":27569:27588  _unlockFreeDuration */\n      dup4\n      swap1\n        /* \"contracts/ShadowPool.sol\":27604:27646  NewUnlockFreeDuration(_unlockFreeDuration) */\n      tag_109\n      jump\t// in\n        /* \"contracts/ShadowPool.sol\":28985:29730  function calculatePerformanceFee(address _user) public view returns (uint256) {\r... */\n    tag_291:\n        /* \"contracts/ShadowPool.sol\":29098:29113  userInfo[_user] */\n      0xffffffffffffffffffffffffffffffffffffffff\n      dup2\n      and\n        /* \"contracts/ShadowPool.sol\":29054:29061  uint256 */\n      0x00\n        /* \"contracts/ShadowPool.sol\":29098:29113  userInfo[_user] */\n      swap1\n      dup2\n      mstore\n        /* \"contracts/ShadowPool.sol\":29098:29106  userInfo */\n      0x03\n        /* \"contracts/ShadowPool.sol\":29098:29113  userInfo[_user] */\n      0x20\n      mstore\n      0x40\n      dup2\n      keccak256\n        /* \"contracts/ShadowPool.sol\":29128:29139  user.shares */\n      dup1\n      sload\n        /* \"contracts/ShadowPool.sol\":29128:29143  user.shares > 0 */\n      iszero\n      dup1\n      iszero\n      swap1\n        /* \"contracts/ShadowPool.sol\":29128:29159  user.shares > 0 && !user.locked */\n      tag_618\n      jumpi\n      pop\n        /* \"contracts/ShadowPool.sol\":29148:29159  user.locked */\n      0x07\n      dup2\n      add\n      sload\n      0xff\n      and\n        /* \"contracts/ShadowPool.sol\":29147:29159  !user.locked */\n      iszero\n        /* \"contracts/ShadowPool.sol\":29128:29159  user.shares > 0 && !user.locked */\n    tag_618:\n        /* \"contracts/ShadowPool.sol\":29128:29194  user.shares > 0 && !user.locked && !freePerformanceFeeUsers[_user] */\n      dup1\n      iszero\n      tag_619\n      jumpi\n      pop\n        /* \"contracts/ShadowPool.sol\":29164:29194  freePerformanceFeeUsers[_user] */\n      0xffffffffffffffffffffffffffffffffffffffff\n      dup4\n      and\n      0x00\n      swap1\n      dup2\n      mstore\n        /* \"contracts/ShadowPool.sol\":29164:29187  freePerformanceFeeUsers */\n      0x04\n        /* \"contracts/ShadowPool.sol\":29164:29194  freePerformanceFeeUsers[_user] */\n      0x20\n      mstore\n      0x40\n      swap1\n      keccak256\n      sload\n      0xff\n      and\n        /* \"contracts/ShadowPool.sol\":29163:29194  !freePerformanceFeeUsers[_user] */\n      iszero\n        /* \"contracts/ShadowPool.sol\":29128:29194  user.shares > 0 && !user.locked && !freePerformanceFeeUsers[_user] */\n    tag_619:\n        /* \"contracts/ShadowPool.sol\":29124:29704  if (user.shares > 0 && !user.locked && !freePerformanceFeeUsers[_user]) {\r... */\n      iszero\n      tag_560\n      jumpi\n        /* \"contracts/ShadowPool.sol\":29211:29223  uint256 pool */\n      0x00\n        /* \"contracts/ShadowPool.sol\":29240:29274  calculateTotalpendingShdwRewards() */\n      tag_621\n        /* \"contracts/ShadowPool.sol\":29240:29272  calculateTotalpendingShdwRewards */\n      tag_294\n        /* \"contracts/ShadowPool.sol\":29240:29274  calculateTotalpendingShdwRewards() */\n      jump\t// in\n    tag_621:\n        /* \"contracts/ShadowPool.sol\":29226:29237  balanceOf() */\n      tag_622\n        /* \"contracts/ShadowPool.sol\":29226:29235  balanceOf */\n      tag_214\n        /* \"contracts/ShadowPool.sol\":29226:29237  balanceOf() */\n      jump\t// in\n    tag_622:\n        /* \"contracts/ShadowPool.sol\":29226:29274  balanceOf() + calculateTotalpendingShdwRewards() */\n      tag_623\n      swap2\n      swap1\n      tag_405\n      jump\t// in\n    tag_623:\n        /* \"contracts/ShadowPool.sol\":29211:29274  uint256 pool = balanceOf() + calculateTotalpendingShdwRewards() */\n      swap1\n      pop\n        /* \"contracts/ShadowPool.sol\":29289:29308  uint256 totalAmount */\n      0x00\n        /* \"contracts/ShadowPool.sol\":29334:29345  totalShares */\n      sload(0x07)\n        /* \"contracts/ShadowPool.sol\":29326:29330  pool */\n      dup3\n        /* \"contracts/ShadowPool.sol\":29312:29316  user */\n      dup5\n        /* \"contracts/ShadowPool.sol\":29312:29323  user.shares */\n      0x00\n      add\n      sload\n        /* \"contracts/ShadowPool.sol\":29312:29330  user.shares * pool */\n      tag_624\n      swap2\n      swap1\n      tag_411\n      jump\t// in\n    tag_624:\n        /* \"contracts/ShadowPool.sol\":29311:29345  (user.shares * pool) / totalShares */\n      tag_625\n      swap2\n      swap1\n      tag_413\n      jump\t// in\n    tag_625:\n        /* \"contracts/ShadowPool.sol\":29289:29345  uint256 totalAmount = (user.shares * pool) / totalShares */\n      swap1\n      pop\n        /* \"contracts/ShadowPool.sol\":29360:29378  uint256 earnAmount */\n      0x00\n        /* \"contracts/ShadowPool.sol\":29395:29399  user */\n      dup4\n        /* \"contracts/ShadowPool.sol\":29395:29420  user.shdwAtLastUserAction */\n      0x02\n      add\n      sload\n        /* \"contracts/ShadowPool.sol\":29381:29392  totalAmount */\n      dup3\n        /* \"contracts/ShadowPool.sol\":29381:29420  totalAmount - user.shdwAtLastUserAction */\n      tag_626\n      swap2\n      swap1\n      tag_419\n      jump\t// in\n    tag_626:\n        /* \"contracts/ShadowPool.sol\":29453:29467  performanceFee */\n      sload(0x13)\n        /* \"contracts/ShadowPool.sol\":29360:29420  uint256 earnAmount = totalAmount - user.shdwAtLastUserAction */\n      swap1\n      swap2\n      pop\n        /* \"contracts/ShadowPool.sol\":29486:29504  _isContract(_user) */\n      tag_627\n        /* \"contracts/ShadowPool.sol\":29498:29503  _user */\n      dup8\n        /* \"contracts/ShadowPool.sol\":29486:29497  _isContract */\n      tag_424\n        /* \"contracts/ShadowPool.sol\":29486:29504  _isContract(_user) */\n      jump\t// in\n    tag_627:\n        /* \"contracts/ShadowPool.sol\":29482:29573  if (_isContract(_user)) {\r... */\n      iszero\n      tag_628\n      jumpi\n      pop\n        /* \"contracts/ShadowPool.sol\":29535:29557  performanceFeeContract */\n      sload(0x14)\n        /* \"contracts/ShadowPool.sol\":29482:29573  if (_isContract(_user)) {\r... */\n    tag_628:\n        /* \"contracts/ShadowPool.sol\":29587:29616  uint256 currentPerformanceFee */\n      0x00\n        /* \"contracts/ShadowPool.sol\":29644:29649  10000 */\n      0x2710\n        /* \"contracts/ShadowPool.sol\":29620:29640  earnAmount * feeRate */\n      tag_629\n        /* \"contracts/ShadowPool.sol\":29633:29640  feeRate */\n      dup4\n        /* \"contracts/ShadowPool.sol\":29620:29630  earnAmount */\n      dup6\n        /* \"contracts/ShadowPool.sol\":29620:29640  earnAmount * feeRate */\n      tag_411\n      jump\t// in\n    tag_629:\n        /* \"contracts/ShadowPool.sol\":29619:29649  (earnAmount * feeRate) / 10000 */\n      tag_630\n      swap2\n      swap1\n      tag_413\n      jump\t// in\n    tag_630:\n        /* \"contracts/ShadowPool.sol\":29587:29649  uint256 currentPerformanceFee = (earnAmount * feeRate) / 10000 */\n      swap7\n      pop\n        /* \"contracts/ShadowPool.sol\":29664:29692  return currentPerformanceFee */\n      tag_555\n      swap6\n      pop\n      pop\n      pop\n      pop\n      pop\n      pop\n      jump\n        /* \"contracts/ShadowPool.sol\":32813:32999  function calculateTotalpendingShdwRewards() public view returns (uint256) {\r... */\n    tag_294:\n        /* \"contracts/ShadowPool.sol\":32878:32885  uint256 */\n      0x00\n        /* \"contracts/ShadowPool.sol\":32898:32912  uint256 amount */\n      dup1\n        /* \"contracts/ShadowPool.sol\":32915:32927  shadowchefV2 */\n      immutable(\"0x3f2cb8b8a6f6ba8772056c1e4910fb442737deea593ec84e00cbccee66f6d0e1\")\n        /* \"contracts/ShadowPool.sol\":32915:32939  shadowchefV2.pendingShdw */\n      0xffffffffffffffffffffffffffffffffffffffff\n      and\n      0xc799b59d\n        /* \"contracts/ShadowPool.sol\":32940:32951  shdwPoolPID */\n      sload(0x0b)\n        /* \"contracts/ShadowPool.sol\":32961:32965  this */\n      address\n        /* \"contracts/ShadowPool.sol\":32915:32967  shadowchefV2.pendingShdw(shdwPoolPID, address(this)) */\n      mload(0x40)\n      dup4\n      0xffffffff\n      and\n      0xe0\n      shl\n      dup2\n      mstore\n      0x04\n      add\n      tag_632\n      swap3\n      swap2\n      swap1\n      tag_633\n      jump\t// in\n    tag_632:\n      0x20\n      mload(0x40)\n      dup1\n      dup4\n      sub\n      dup2\n      dup7\n      dup1\n      extcodesize\n      iszero\n      dup1\n      iszero\n      tag_634\n      jumpi\n      0x00\n      dup1\n      revert\n    tag_634:\n      pop\n      gas\n      staticcall\n      iszero\n      dup1\n      iszero\n      tag_636\n      jumpi\n      returndatasize\n      0x00\n      dup1\n      returndatacopy\n      revert(0x00, returndatasize)\n    tag_636:\n      pop\n      pop\n      pop\n      pop\n      mload(0x40)\n      returndatasize\n      not(0x1f)\n      0x1f\n      dup3\n      add\n      and\n      dup3\n      add\n      dup1\n      0x40\n      mstore\n      pop\n      dup2\n      add\n      swap1\n      tag_637\n      swap2\n      swap1\n      tag_375\n      jump\t// in\n    tag_637:\n        /* \"contracts/ShadowPool.sol\":32898:32967  uint256 amount = shadowchefV2.pendingShdw(shdwPoolPID, address(this)) */\n      swap2\n      pop\n      pop\n        /* \"contracts/ShadowPool.sol\":32813:32999  function calculateTotalpendingShdwRewards() public view returns (uint256) {\r... */\n      swap1\n      jump\t// out\n        /* \"contracts/ShadowPool.sol\":2044:2090  uint256 public constant MAX_WITHDRAW_FEE = 500 */\n    tag_300:\n        /* \"contracts/ShadowPool.sol\":2087:2090  500 */\n      0x01f4\n        /* \"contracts/ShadowPool.sol\":2044:2090  uint256 public constant MAX_WITHDRAW_FEE = 500 */\n      dup2\n      jump\t// out\n        /* \"contracts/ShadowPool.sol\":28118:28403  function inCaseTokensGetStuck(address _token) external onlyAdmin {\r... */\n    tag_304:\n        /* \"contracts/ShadowPool.sol\":6453:6458  admin */\n      and(0xffffffffffffffffffffffffffffffffffffffff, sload(0x08))\n        /* \"contracts/ShadowPool.sol\":6439:6449  msg.sender */\n      caller\n        /* \"contracts/ShadowPool.sol\":6439:6458  msg.sender == admin */\n      eq\n        /* \"contracts/ShadowPool.sol\":6431:6474  require(msg.sender == admin, \"admin: wut?\") */\n      tag_639\n      jumpi\n      mload(0x40)\n      0x08c379a000000000000000000000000000000000000000000000000000000000\n      dup2\n      mstore\n      0x04\n      add\n      tag_351\n      swap1\n      tag_352\n      jump\t// in\n    tag_639:\n        /* \"contracts/ShadowPool.sol\":28220:28225  token */\n      immutable(\"0x8d841e129c158ed00fc3618c65b249d82e3b0efc8bcebb06537fd0a18b989353\")\n        /* \"contracts/ShadowPool.sol\":28202:28226  _token != address(token) */\n      0xffffffffffffffffffffffffffffffffffffffff\n      and\n        /* \"contracts/ShadowPool.sol\":28202:28208  _token */\n      dup2\n        /* \"contracts/ShadowPool.sol\":28202:28226  _token != address(token) */\n      0xffffffffffffffffffffffffffffffffffffffff\n      and\n      eq\n      iszero\n        /* \"contracts/ShadowPool.sol\":28194:28268  require(_token != address(token), \"Token cannot be same as deposit token\") */\n      tag_642\n      jumpi\n      mload(0x40)\n      0x08c379a000000000000000000000000000000000000000000000000000000000\n      dup2\n      mstore\n      0x04\n      add\n      tag_351\n      swap1\n      tag_644\n      jump\t// in\n    tag_642:\n        /* \"contracts/ShadowPool.sol\":28298:28337  IERC20(_token).balanceOf(address(this)) */\n      mload(0x40)\n      0x70a0823100000000000000000000000000000000000000000000000000000000\n      dup2\n      mstore\n        /* \"contracts/ShadowPool.sol\":28281:28295  uint256 amount */\n      0x00\n      swap1\n        /* \"contracts/ShadowPool.sol\":28298:28322  IERC20(_token).balanceOf */\n      0xffffffffffffffffffffffffffffffffffffffff\n      dup4\n      and\n      swap1\n      0x70a08231\n      swap1\n        /* \"contracts/ShadowPool.sol\":28298:28337  IERC20(_token).balanceOf(address(this)) */\n      tag_645\n      swap1\n        /* \"contracts/ShadowPool.sol\":28331:28335  this */\n      address\n      swap1\n        /* \"contracts/ShadowPool.sol\":28298:28337  IERC20(_token).balanceOf(address(this)) */\n      0x04\n      add\n      tag_188\n      jump\t// in\n    tag_645:\n      0x20\n      mload(0x40)\n      dup1\n      dup4\n      sub\n      dup2\n      dup7\n      dup1\n      extcodesize\n      iszero\n      dup1\n      iszero\n      tag_646\n      jumpi\n      0x00\n      dup1\n      revert\n    tag_646:\n      pop\n      gas\n      staticcall\n      iszero\n      dup1\n      iszero\n      tag_648\n      jumpi\n      returndatasize\n      0x00\n      dup1\n      returndatacopy\n      revert(0x00, returndatasize)\n    tag_648:\n      pop\n      pop\n      pop\n      pop\n      mload(0x40)\n      returndatasize\n      not(0x1f)\n      0x1f\n      dup3\n      add\n      and\n      dup3\n      add\n      dup1\n      0x40\n      mstore\n      pop\n      dup2\n      add\n      swap1\n      tag_649\n      swap2\n      swap1\n      tag_375\n      jump\t// in\n    tag_649:\n        /* \"contracts/ShadowPool.sol\":28281:28337  uint256 amount = IERC20(_token).balanceOf(address(this)) */\n      swap1\n      pop\n        /* \"contracts/ShadowPool.sol\":28348:28395  IERC20(_token).safeTransfer(msg.sender, amount) */\n      tag_650\n        /* \"contracts/ShadowPool.sol\":28348:28375  IERC20(_token).safeTransfer */\n      0xffffffffffffffffffffffffffffffffffffffff\n      dup4\n      and\n        /* \"contracts/ShadowPool.sol\":28376:28386  msg.sender */\n      caller\n        /* \"contracts/ShadowPool.sol\":28281:28337  uint256 amount = IERC20(_token).balanceOf(address(this)) */\n      dup4\n        /* \"contracts/ShadowPool.sol\":28348:28375  IERC20(_token).safeTransfer */\n      tag_651\n        /* \"contracts/ShadowPool.sol\":28348:28395  IERC20(_token).safeTransfer(msg.sender, amount) */\n      jump\t// in\n    tag_650:\n        /* \"contracts/ShadowPool.sol\":6485:6486  _ */\n      pop\n        /* \"contracts/ShadowPool.sol\":28118:28403  function inCaseTokensGetStuck(address _token) external onlyAdmin {\r... */\n      pop\n      jump\t// out\n        /* \"contracts/ShadowPool.sol\":21607:21846  function setBoostContract(address _boostContract) external onlyAdmin {\r... */\n    tag_307:\n        /* \"contracts/ShadowPool.sol\":6453:6458  admin */\n      and(0xffffffffffffffffffffffffffffffffffffffff, sload(0x08))\n        /* \"contracts/ShadowPool.sol\":6439:6449  msg.sender */\n      caller\n        /* \"contracts/ShadowPool.sol\":6439:6458  msg.sender == admin */\n      eq\n        /* \"contracts/ShadowPool.sol\":6431:6474  require(msg.sender == admin, \"admin: wut?\") */\n      tag_653\n      jumpi\n      mload(0x40)\n      0x08c379a000000000000000000000000000000000000000000000000000000000\n      dup2\n      mstore\n      0x04\n      add\n      tag_351\n      swap1\n      tag_352\n      jump\t// in\n    tag_653:\n        /* \"contracts/ShadowPool.sol\":21695:21723  _boostContract != address(0) */\n      0xffffffffffffffffffffffffffffffffffffffff\n      dup2\n      and\n        /* \"contracts/ShadowPool.sol\":21687:21750  require(_boostContract != address(0), \"Cannot be zero address\") */\n      tag_656\n      jumpi\n      mload(0x40)\n      0x08c379a000000000000000000000000000000000000000000000000000000000\n      dup2\n      mstore\n      0x04\n      add\n      tag_351\n      swap1\n      tag_474\n      jump\t// in\n    tag_656:\n        /* \"contracts/ShadowPool.sol\":21761:21774  boostContract */\n      0x01\n        /* \"contracts/ShadowPool.sol\":21761:21791  boostContract = _boostContract */\n      dup1\n      sload\n      0xffffffffffffffffffffffff0000000000000000000000000000000000000000\n      and\n      0xffffffffffffffffffffffffffffffffffffffff\n      dup4\n      dup2\n      and\n      swap2\n      swap1\n      swap2\n      or\n      swap2\n      dup3\n      swap1\n      sstore\n        /* \"contracts/ShadowPool.sol\":21807:21838  NewBoostContract(boostContract) */\n      mload(0x40)\n      0x8f49a182922022d9119a1a6aeeca151b4a5665e86bd61c1ff32e152d459558b2\n      swap3\n      tag_357\n      swap3\n        /* \"contracts/ShadowPool.sol\":21824:21837  boostContract */\n      and\n      swap1\n        /* \"contracts/ShadowPool.sol\":21807:21838  NewBoostContract(boostContract) */\n      tag_188\n      jump\t// in\n        /* \"contracts/ShadowPool.sol\":3408:3451  uint256 public withdrawFeePeriod = 72 hours */\n    tag_309:\n      sload(0x18)\n      dup2\n      jump\t// out\n        /* \"contracts/ShadowPool.sol\":1287:1315  address public boostContract */\n    tag_312:\n      and(0xffffffffffffffffffffffffffffffffffffffff, sload(0x01))\n      dup2\n      jump\t// out\n        /* \"contracts/ShadowPool.sol\":11844:12069  function deposit(uint256 _amount, uint256 _lockDuration) external whenNotPaused {\r... */\n    tag_317:\n        /* \"@openzeppelin/contracts/security/Pausable.sol\":1239:1258  _requireNotPaused() */\n      tag_660\n        /* \"@openzeppelin/contracts/security/Pausable.sol\":1239:1256  _requireNotPaused */\n      tag_430\n        /* \"@openzeppelin/contracts/security/Pausable.sol\":1239:1258  _requireNotPaused() */\n      jump\t// in\n    tag_660:\n        /* \"contracts/ShadowPool.sol\":11953:11954  0 */\n      0x00\n        /* \"contracts/ShadowPool.sol\":11943:11950  _amount */\n      dup3\n        /* \"contracts/ShadowPool.sol\":11943:11954  _amount > 0 */\n      gt\n        /* \"contracts/ShadowPool.sol\":11943:11975  _amount > 0 || _lockDuration > 0 */\n      dup1\n      tag_662\n      jumpi\n      pop\n        /* \"contracts/ShadowPool.sol\":11974:11975  0 */\n      0x00\n        /* \"contracts/ShadowPool.sol\":11958:11971  _lockDuration */\n      dup2\n        /* \"contracts/ShadowPool.sol\":11958:11975  _lockDuration > 0 */\n      gt\n        /* \"contracts/ShadowPool.sol\":11943:11975  _amount > 0 || _lockDuration > 0 */\n    tag_662:\n        /* \"contracts/ShadowPool.sol\":11935:11998  require(_amount > 0 || _lockDuration > 0, \"Nothing to deposit\") */\n      tag_663\n      jumpi\n      mload(0x40)\n      0x08c379a000000000000000000000000000000000000000000000000000000000\n      dup2\n      mstore\n      0x04\n      add\n      tag_351\n      swap1\n      tag_665\n      jump\t// in\n    tag_663:\n        /* \"contracts/ShadowPool.sol\":12009:12061  depositOperation(_amount, _lockDuration, msg.sender) */\n      tag_650\n        /* \"contracts/ShadowPool.sol\":12026:12033  _amount */\n      dup3\n        /* \"contracts/ShadowPool.sol\":12035:12048  _lockDuration */\n      dup3\n        /* \"contracts/ShadowPool.sol\":12050:12060  msg.sender */\n      caller\n        /* \"contracts/ShadowPool.sol\":12009:12025  depositOperation */\n      tag_450\n        /* \"contracts/ShadowPool.sol\":12009:12061  depositOperation(_amount, _lockDuration, msg.sender) */\n      jump\t// in\n        /* \"contracts/ShadowPool.sol\":2884:2925  uint256 public DURATION_FACTOR = 365 days */\n    tag_319:\n      sload(0x10)\n      dup2\n      jump\t// out\n        /* \"contracts/ShadowPool.sol\":3301:3340  uint256 public withdrawFeeContract = 10 */\n    tag_322:\n      sload(0x16)\n      dup2\n      jump\t// out\n        /* \"contracts/ShadowPool.sol\":1860:1889  uint256 public totalBoostDebt */\n    tag_325:\n      sload(0x0c)\n      dup2\n      jump\t// out\n        /* \"contracts/ShadowPool.sol\":3255:3286  uint256 public withdrawFee = 10 */\n    tag_328:\n      sload(0x15)\n      dup2\n      jump\t// out\n        /* \"contracts/ShadowPool.sol\":20977:21181  function setTreasury(address _treasury) external onlyOwner {\r... */\n    tag_332:\n        /* \"@openzeppelin/contracts/access/Ownable.sol\":1094:1107  _checkOwner() */\n      tag_668\n        /* \"@openzeppelin/contracts/access/Ownable.sol\":1094:1105  _checkOwner */\n      tag_368\n        /* \"@openzeppelin/contracts/access/Ownable.sol\":1094:1107  _checkOwner() */\n      jump\t// in\n    tag_668:\n        /* \"contracts/ShadowPool.sol\":21055:21078  _treasury != address(0) */\n      0xffffffffffffffffffffffffffffffffffffffff\n      dup2\n      and\n        /* \"contracts/ShadowPool.sol\":21047:21105  require(_treasury != address(0), \"Cannot be zero address\") */\n      tag_670\n      jumpi\n      mload(0x40)\n      0x08c379a000000000000000000000000000000000000000000000000000000000\n      dup2\n      mstore\n      0x04\n      add\n      tag_351\n      swap1\n      tag_474\n      jump\t// in\n    tag_670:\n        /* \"contracts/ShadowPool.sol\":21116:21124  treasury */\n      0x09\n        /* \"contracts/ShadowPool.sol\":21116:21136  treasury = _treasury */\n      dup1\n      sload\n      0xffffffffffffffffffffffff0000000000000000000000000000000000000000\n      and\n      0xffffffffffffffffffffffffffffffffffffffff\n      dup4\n      dup2\n      and\n      swap2\n      swap1\n      swap2\n      or\n      swap2\n      dup3\n      swap1\n      sstore\n        /* \"contracts/ShadowPool.sol\":21152:21173  NewTreasury(treasury) */\n      mload(0x40)\n      0xafa147634b29e2c7bd53ce194256b9f41cfb9ba3036f2b822fdd1d965beea086\n      swap3\n      tag_357\n      swap3\n        /* \"contracts/ShadowPool.sol\":21164:21172  treasury */\n      and\n      swap1\n        /* \"contracts/ShadowPool.sol\":21152:21173  NewTreasury(treasury) */\n      tag_188\n      jump\t// in\n        /* \"@openzeppelin/contracts/access/Ownable.sol\":2081:2279  function transferOwnership(address newOwner) public virtual onlyOwner {... */\n    tag_335:\n        /* \"@openzeppelin/contracts/access/Ownable.sol\":1094:1107  _checkOwner() */\n      tag_674\n        /* \"@openzeppelin/contracts/access/Ownable.sol\":1094:1105  _checkOwner */\n      tag_368\n        /* \"@openzeppelin/contracts/access/Ownable.sol\":1094:1107  _checkOwner() */\n      jump\t// in\n    tag_674:\n        /* \"@openzeppelin/contracts/access/Ownable.sol\":2169:2191  newOwner != address(0) */\n      0xffffffffffffffffffffffffffffffffffffffff\n      dup2\n      and\n        /* \"@openzeppelin/contracts/access/Ownable.sol\":2161:2234  require(newOwner != address(0), \"Ownable: new owner is the zero address\") */\n      tag_676\n      jumpi\n      mload(0x40)\n      0x08c379a000000000000000000000000000000000000000000000000000000000\n      dup2\n      mstore\n      0x04\n      add\n      tag_351\n      swap1\n      tag_678\n      jump\t// in\n    tag_676:\n        /* \"@openzeppelin/contracts/access/Ownable.sol\":2244:2272  _transferOwnership(newOwner) */\n      tag_435\n        /* \"@openzeppelin/contracts/access/Ownable.sol\":2263:2271  newOwner */\n      dup2\n        /* \"@openzeppelin/contracts/access/Ownable.sol\":2244:2262  _transferOwnership */\n      tag_520\n        /* \"@openzeppelin/contracts/access/Ownable.sol\":2244:2272  _transferOwnership(newOwner) */\n      jump\t// in\n        /* \"contracts/ShadowPool.sol\":26130:26475  function setMaxLockDuration(uint256 _maxLockDuration) external onlyAdmin {\r... */\n    tag_338:\n        /* \"contracts/ShadowPool.sol\":6453:6458  admin */\n      and(0xffffffffffffffffffffffffffffffffffffffff, sload(0x08))\n        /* \"contracts/ShadowPool.sol\":6439:6449  msg.sender */\n      caller\n        /* \"contracts/ShadowPool.sol\":6439:6458  msg.sender == admin */\n      eq\n        /* \"contracts/ShadowPool.sol\":6431:6474  require(msg.sender == admin, \"admin: wut?\") */\n      tag_681\n      jumpi\n      mload(0x40)\n      0x08c379a000000000000000000000000000000000000000000000000000000000\n      dup2\n      mstore\n      0x04\n      add\n      tag_351\n      swap1\n      tag_352\n      jump\t// in\n    tag_681:\n        /* \"contracts/ShadowPool.sol\":2362:2371  1000 days */\n      0x05265c00\n        /* \"contracts/ShadowPool.sol\":26236:26252  _maxLockDuration */\n      dup2\n        /* \"contracts/ShadowPool.sol\":26236:26279  _maxLockDuration <= MAX_LOCK_DURATION_LIMIT */\n      gt\n      iszero\n        /* \"contracts/ShadowPool.sol\":26214:26368  require(\r... */\n      tag_684\n      jumpi\n      mload(0x40)\n      0x08c379a000000000000000000000000000000000000000000000000000000000\n      dup2\n      mstore\n      0x04\n      add\n      tag_351\n      swap1\n      tag_686\n      jump\t// in\n    tag_684:\n        /* \"contracts/ShadowPool.sol\":26379:26396  MAX_LOCK_DURATION */\n      0x0f\n        /* \"contracts/ShadowPool.sol\":26379:26415  MAX_LOCK_DURATION = _maxLockDuration */\n      dup2\n      swap1\n      sstore\n        /* \"contracts/ShadowPool.sol\":26431:26467  NewMaxLockDuration(_maxLockDuration) */\n      mload(0x40)\n      0xcab2f3455b51b6ca5377e84fccd0f890b6f6ca36c02e18b6d36cb34f469fe4fe\n      swap1\n      tag_357\n      swap1\n        /* \"contracts/ShadowPool.sol\":26399:26415  _maxLockDuration */\n      dup4\n      swap1\n        /* \"contracts/ShadowPool.sol\":26431:26467  NewMaxLockDuration(_maxLockDuration) */\n      tag_109\n      jump\t// in\n        /* \"contracts/ShadowPool.sol\":1740:1760  address public admin */\n    tag_340:\n      and(0xffffffffffffffffffffffffffffffffffffffff, sload(0x08))\n      dup2\n      jump\t// out\n        /* \"contracts/ShadowPool.sol\":1182:1211  IERC20 public immutable token */\n    tag_343:\n      immutable(\"0x8d841e129c158ed00fc3618c65b249d82e3b0efc8bcebb06537fd0a18b989353\")\n      dup2\n      jump\t// out\n        /* \"contracts/ShadowPool.sol\":2391:2447  uint256 public constant BOOST_WEIGHT_LIMIT = 5000 * 1e10 */\n    tag_347:\n        /* \"contracts/ShadowPool.sol\":2436:2447  5000 * 1e10 */\n      0x2d79883d2000\n        /* \"contracts/ShadowPool.sol\":2391:2447  uint256 public constant BOOST_WEIGHT_LIMIT = 5000 * 1e10 */\n      dup2\n      jump\t// out\n        /* \"@openzeppelin/contracts/access/Ownable.sol\":1359:1489  function _checkOwner() internal view virtual {... */\n    tag_368:\n        /* \"@openzeppelin/contracts/access/Ownable.sol\":1433:1445  _msgSender() */\n      tag_689\n        /* \"@openzeppelin/contracts/access/Ownable.sol\":1433:1443  _msgSender */\n      tag_690\n        /* \"@openzeppelin/contracts/access/Ownable.sol\":1433:1445  _msgSender() */\n      jump\t// in\n    tag_689:\n        /* \"@openzeppelin/contracts/access/Ownable.sol\":1422:1445  owner() == _msgSender() */\n      0xffffffffffffffffffffffffffffffffffffffff\n      and\n        /* \"@openzeppelin/contracts/access/Ownable.sol\":1422:1429  owner() */\n      tag_691\n        /* \"@openzeppelin/contracts/access/Ownable.sol\":1422:1427  owner */\n      tag_237\n        /* \"@openzeppelin/contracts/access/Ownable.sol\":1422:1429  owner() */\n      jump\t// in\n    tag_691:\n        /* \"@openzeppelin/contracts/access/Ownable.sol\":1422:1445  owner() == _msgSender() */\n      0xffffffffffffffffffffffffffffffffffffffff\n      and\n      eq\n        /* \"@openzeppelin/contracts/access/Ownable.sol\":1414:1482  require(owner() == _msgSender(), \"Ownable: caller is not the owner\") */\n      tag_519\n      jumpi\n      mload(0x40)\n      0x08c379a000000000000000000000000000000000000000000000000000000000\n      dup2\n      mstore\n      0x04\n      add\n      tag_351\n      swap1\n      tag_694\n      jump\t// in\n        /* \"@openzeppelin/contracts/token/ERC20/utils/SafeERC20.sol\":974:1215  function safeTransferFrom(... */\n    tag_380:\n        /* \"@openzeppelin/contracts/token/ERC20/utils/SafeERC20.sol\":1112:1208  _callOptionalReturn(token, abi.encodeWithSelector(token.transferFrom.selector, from, to, value)) */\n      tag_696\n        /* \"@openzeppelin/contracts/token/ERC20/utils/SafeERC20.sol\":1132:1137  token */\n      dup5\n        /* \"@openzeppelin/contracts/token/ERC20/utils/SafeERC20.sol\":1162:1189  token.transferFrom.selector */\n      shl(0xe0, 0x23b872dd)\n        /* \"@openzeppelin/contracts/token/ERC20/utils/SafeERC20.sol\":1191:1195  from */\n      dup6\n        /* \"@openzeppelin/contracts/token/ERC20/utils/SafeERC20.sol\":1197:1199  to */\n      dup6\n        /* \"@openzeppelin/contracts/token/ERC20/utils/SafeERC20.sol\":1201:1206  value */\n      dup6\n        /* \"@openzeppelin/contracts/token/ERC20/utils/SafeERC20.sol\":1139:1207  abi.encodeWithSelector(token.transferFrom.selector, from, to, value) */\n      add(0x24, mload(0x40))\n      tag_697\n      swap4\n      swap3\n      swap2\n      swap1\n      tag_698\n      jump\t// in\n    tag_697:\n      0x40\n      dup1\n      mload\n      0xffffffffffffffffffffffffffffffffffffffffffffffffffffffffffffffe0\n      dup2\n      dup5\n      sub\n      add\n      dup2\n      mstore\n      swap2\n      swap1\n      mstore\n      0x20\n      dup2\n      add\n      dup1\n      mload\n      0xffffffffffffffffffffffffffffffffffffffffffffffffffffffff\n      and\n      0xffffffff00000000000000000000000000000000000000000000000000000000\n      swap1\n      swap4\n      and\n      swap3\n      swap1\n      swap3\n      or\n      swap1\n      swap2\n      mstore\n        /* \"@openzeppelin/contracts/token/ERC20/utils/SafeERC20.sol\":1112:1131  _callOptionalReturn */\n      tag_699\n        /* \"@openzeppelin/contracts/token/ERC20/utils/SafeERC20.sol\":1112:1208  _callOptionalReturn(token, abi.encodeWithSelector(token.transferFrom.selector, from, to, value)) */\n      jump\t// in\n    tag_696:\n        /* \"@openzeppelin/contracts/token/ERC20/utils/SafeERC20.sol\":974:1215  function safeTransferFrom(... */\n      pop\n      pop\n      pop\n      pop\n      jump\t// out\n        /* \"contracts/ShadowPool.sol\":31190:31367  function calculatePerformanceFeeOrOverdueFee(address _user) internal view returns (uint256) {\r... */\n    tag_415:\n        /* \"contracts/ShadowPool.sol\":31273:31280  uint256 */\n      0x00\n        /* \"contracts/ShadowPool.sol\":31333:31359  calculateOverdueFee(_user) */\n      tag_701\n        /* \"contracts/ShadowPool.sol\":31353:31358  _user */\n      dup3\n        /* \"contracts/ShadowPool.sol\":31333:31352  calculateOverdueFee */\n      tag_247\n        /* \"contracts/ShadowPool.sol\":31333:31359  calculateOverdueFee(_user) */\n      jump\t// in\n    tag_701:\n        /* \"contracts/ShadowPool.sol\":31300:31330  calculatePerformanceFee(_user) */\n      tag_702\n        /* \"contracts/ShadowPool.sol\":31324:31329  _user */\n      dup4\n        /* \"contracts/ShadowPool.sol\":31300:31323  calculatePerformanceFee */\n      tag_291\n        /* \"contracts/ShadowPool.sol\":31300:31330  calculatePerformanceFee(_user) */\n      jump\t// in\n    tag_702:\n        /* \"contracts/ShadowPool.sol\":31300:31359  calculatePerformanceFee(_user) + calculateOverdueFee(_user) */\n      tag_401\n      swap2\n      swap1\n      tag_405\n      jump\t// in\n        /* \"contracts/ShadowPool.sol\":33798:33989  function _isContract(address addr) internal view returns (bool) {\r... */\n    tag_424:\n        /* \"contracts/ShadowPool.sol\":33928:33945  extcodesize(addr) */\n      extcodesize\n        /* \"contracts/ShadowPool.sol\":33973:33981  size > 0 */\n      iszero\n      iszero\n      swap1\n        /* \"contracts/ShadowPool.sol\":33798:33989  function _isContract(address addr) internal view returns (bool) {\r... */\n      jump\t// out\n        /* \"@openzeppelin/contracts/security/Pausable.sol\":1767:1873  function _requireNotPaused() internal view virtual {... */\n    tag_430:\n        /* \"@openzeppelin/contracts/security/Pausable.sol\":1837:1845  paused() */\n      tag_706\n        /* \"@openzeppelin/contracts/security/Pausable.sol\":1837:1843  paused */\n      tag_190\n        /* \"@openzeppelin/contracts/security/Pausable.sol\":1837:1845  paused() */\n      jump\t// in\n    tag_706:\n        /* \"@openzeppelin/contracts/security/Pausable.sol\":1836:1845  !paused() */\n      iszero\n        /* \"@openzeppelin/contracts/security/Pausable.sol\":1828:1866  require(!paused(), \"Pausable: paused\") */\n      tag_519\n      jumpi\n      mload(0x40)\n      0x08c379a000000000000000000000000000000000000000000000000000000000\n      dup2\n      mstore\n      0x04\n      add\n      tag_351\n      swap1\n      tag_709\n      jump\t// in\n        /* \"contracts/ShadowPool.sol\":17657:19955  function withdrawOperation(uint256 _shares, uint256 _amount) internal {\r... */\n    tag_436:\n        /* \"contracts/ShadowPool.sol\":17771:17781  msg.sender */\n      caller\n        /* \"contracts/ShadowPool.sol\":17738:17759  UserInfo storage user */\n      0x00\n        /* \"contracts/ShadowPool.sol\":17762:17782  userInfo[msg.sender] */\n      swap1\n      dup2\n      mstore\n        /* \"contracts/ShadowPool.sol\":17762:17770  userInfo */\n      0x03\n        /* \"contracts/ShadowPool.sol\":17762:17782  userInfo[msg.sender] */\n      0x20\n      mstore\n      0x40\n      swap1\n      keccak256\n        /* \"contracts/ShadowPool.sol\":17812:17823  user.shares */\n      dup1\n      sload\n        /* \"contracts/ShadowPool.sol\":17801:17823  _shares <= user.shares */\n      dup4\n      gt\n      iszero\n        /* \"contracts/ShadowPool.sol\":17793:17859  require(_shares <= user.shares, \"Withdraw amount exceeds balance\") */\n      tag_711\n      jumpi\n      mload(0x40)\n      0x08c379a000000000000000000000000000000000000000000000000000000000\n      dup2\n      mstore\n      0x04\n      add\n      tag_351\n      swap1\n      tag_713\n      jump\t// in\n    tag_711:\n        /* \"contracts/ShadowPool.sol\":17897:17912  block.timestamp */\n      timestamp\n        /* \"contracts/ShadowPool.sol\":17878:17882  user */\n      dup2\n        /* \"contracts/ShadowPool.sol\":17878:17894  user.lockEndTime */\n      0x05\n      add\n      sload\n        /* \"contracts/ShadowPool.sol\":17878:17912  user.lockEndTime < block.timestamp */\n      lt\n        /* \"contracts/ShadowPool.sol\":17870:17930  require(user.lockEndTime < block.timestamp, \"Still in lock\") */\n      tag_714\n      jumpi\n      mload(0x40)\n      0x08c379a000000000000000000000000000000000000000000000000000000000\n      dup2\n      mstore\n      0x04\n      add\n      tag_351\n      swap1\n      tag_716\n      jump\t// in\n    tag_714:\n        /* \"contracts/ShadowPool.sol\":17947:17952  VShdw */\n      sload(0x02)\n        /* \"contracts/ShadowPool.sol\":17947:17966  VShdw != address(0) */\n      0xffffffffffffffffffffffffffffffffffffffff\n        /* \"contracts/ShadowPool.sol\":17947:17952  VShdw */\n      and\n        /* \"contracts/ShadowPool.sol\":17947:17966  VShdw != address(0) */\n      iszero\n        /* \"contracts/ShadowPool.sol\":17943:18029  if (VShdw != address(0)) {\r... */\n      tag_717\n      jumpi\n        /* \"contracts/ShadowPool.sol\":17990:17995  VShdw */\n      sload(0x02)\n        /* \"contracts/ShadowPool.sol\":17983:18017  IVShdw(VShdw).withdraw(msg.sender) */\n      mload(0x40)\n      0x51cff8d900000000000000000000000000000000000000000000000000000000\n      dup2\n      mstore\n        /* \"contracts/ShadowPool.sol\":17990:17995  VShdw */\n      0xffffffffffffffffffffffffffffffffffffffff\n      swap1\n      swap2\n      and\n      swap1\n        /* \"contracts/ShadowPool.sol\":17983:18005  IVShdw(VShdw).withdraw */\n      0x51cff8d9\n      swap1\n        /* \"contracts/ShadowPool.sol\":17983:18017  IVShdw(VShdw).withdraw(msg.sender) */\n      tag_718\n      swap1\n        /* \"contracts/ShadowPool.sol\":18006:18016  msg.sender */\n      caller\n      swap1\n        /* \"contracts/ShadowPool.sol\":17983:18017  IVShdw(VShdw).withdraw(msg.sender) */\n      0x04\n      add\n      tag_188\n      jump\t// in\n    tag_718:\n      0x00\n      mload(0x40)\n      dup1\n      dup4\n      sub\n      dup2\n      0x00\n      dup8\n      dup1\n      extcodesize\n      iszero\n      dup1\n      iszero\n      tag_719\n      jumpi\n      0x00\n      dup1\n      revert\n    tag_719:\n      pop\n      gas\n      call\n      iszero\n      dup1\n      iszero\n      tag_721\n      jumpi\n      returndatasize\n      0x00\n      dup1\n      returndatacopy\n      revert(0x00, returndatasize)\n    tag_721:\n      pop\n      pop\n      pop\n      pop\n        /* \"contracts/ShadowPool.sol\":17943:18029  if (VShdw != address(0)) {\r... */\n    tag_717:\n        /* \"contracts/ShadowPool.sol\":18276:18287  user.shares */\n      dup1\n      sload\n        /* \"contracts/ShadowPool.sol\":18197:18204  _shares */\n      dup4\n      swap1\n        /* \"contracts/ShadowPool.sol\":18174:18194  uint256 currentShare */\n      0x00\n      swap1\n        /* \"contracts/ShadowPool.sol\":18240:18272  _shares * PRECISION_FACTOR_SHARE */\n      tag_722\n        /* \"contracts/ShadowPool.sol\":2587:2591  1e28 */\n      0x204fce5e3e25026110000000\n        /* \"contracts/ShadowPool.sol\":18197:18204  _shares */\n      dup5\n        /* \"contracts/ShadowPool.sol\":18240:18272  _shares * PRECISION_FACTOR_SHARE */\n      tag_411\n      jump\t// in\n    tag_722:\n        /* \"contracts/ShadowPool.sol\":18239:18287  (_shares * PRECISION_FACTOR_SHARE) / user.shares */\n      tag_723\n      swap2\n      swap1\n      tag_413\n      jump\t// in\n    tag_723:\n        /* \"contracts/ShadowPool.sol\":18215:18287  uint256 sharesPercent = (_shares * PRECISION_FACTOR_SHARE) / user.shares */\n      swap1\n      pop\n        /* \"contracts/ShadowPool.sol\":18345:18354  harvest() */\n      tag_724\n        /* \"contracts/ShadowPool.sol\":18345:18352  harvest */\n      tag_725\n        /* \"contracts/ShadowPool.sol\":18345:18354  harvest() */\n      jump\t// in\n    tag_724:\n        /* \"contracts/ShadowPool.sol\":18398:18425  updateUserShare(msg.sender) */\n      tag_726\n        /* \"contracts/ShadowPool.sol\":18414:18424  msg.sender */\n      caller\n        /* \"contracts/ShadowPool.sol\":18398:18413  updateUserShare */\n      tag_727\n        /* \"contracts/ShadowPool.sol\":18398:18425  updateUserShare(msg.sender) */\n      jump\t// in\n    tag_726:\n        /* \"contracts/ShadowPool.sol\":18442:18454  _shares == 0 */\n      dup5\n      iszero\n        /* \"contracts/ShadowPool.sol\":18442:18469  _shares == 0 && _amount > 0 */\n      dup1\n      iszero\n      tag_728\n      jumpi\n      pop\n        /* \"contracts/ShadowPool.sol\":18468:18469  0 */\n      0x00\n        /* \"contracts/ShadowPool.sol\":18458:18465  _amount */\n      dup5\n        /* \"contracts/ShadowPool.sol\":18458:18469  _amount > 0 */\n      gt\n        /* \"contracts/ShadowPool.sol\":18442:18469  _shares == 0 && _amount > 0 */\n    tag_728:\n        /* \"contracts/ShadowPool.sol\":18438:18824  if (_shares == 0 && _amount > 0) {\r... */\n      iszero\n      tag_729\n      jumpi\n        /* \"contracts/ShadowPool.sol\":18486:18498  uint256 pool */\n      0x00\n        /* \"contracts/ShadowPool.sol\":18501:18512  balanceOf() */\n      tag_730\n        /* \"contracts/ShadowPool.sol\":18501:18510  balanceOf */\n      tag_214\n        /* \"contracts/ShadowPool.sol\":18501:18512  balanceOf() */\n      jump\t// in\n    tag_730:\n        /* \"contracts/ShadowPool.sol\":18486:18512  uint256 pool = balanceOf() */\n      swap1\n      pop\n        /* \"contracts/ShadowPool.sol\":18568:18572  pool */\n      dup1\n        /* \"contracts/ShadowPool.sol\":18553:18564  totalShares */\n      sload(0x07)\n        /* \"contracts/ShadowPool.sol\":18543:18550  _amount */\n      dup7\n        /* \"contracts/ShadowPool.sol\":18543:18564  _amount * totalShares */\n      tag_731\n      swap2\n      swap1\n      tag_411\n      jump\t// in\n    tag_731:\n        /* \"contracts/ShadowPool.sol\":18542:18572  (_amount * totalShares) / pool */\n      tag_732\n      swap2\n      swap1\n      tag_413\n      jump\t// in\n    tag_732:\n        /* \"contracts/ShadowPool.sol\":18637:18648  user.shares */\n      dup5\n      sload\n        /* \"contracts/ShadowPool.sol\":18527:18572  currentShare = (_amount * totalShares) / pool */\n      swap1\n      swap4\n      pop\n        /* \"contracts/ShadowPool.sol\":18622:18648  currentShare > user.shares */\n      dup4\n      gt\n        /* \"contracts/ShadowPool.sol\":18618:18711  if (currentShare > user.shares) {\r... */\n      iszero\n      tag_733\n      jumpi\n        /* \"contracts/ShadowPool.sol\":18684:18695  user.shares */\n      dup4\n      sload\n      swap3\n      pop\n        /* \"contracts/ShadowPool.sol\":18618:18711  if (currentShare > user.shares) {\r... */\n    tag_733:\n        /* \"contracts/ShadowPool.sol\":18438:18824  if (_shares == 0 && _amount > 0) {\r... */\n      pop\n      jump(tag_734)\n    tag_729:\n        /* \"contracts/ShadowPool.sol\":18775:18786  user.shares */\n      dup3\n      sload\n        /* \"contracts/ShadowPool.sol\":2587:2591  1e28 */\n      0x204fce5e3e25026110000000\n      swap1\n        /* \"contracts/ShadowPool.sol\":18759:18786  sharesPercent * user.shares */\n      tag_735\n      swap1\n        /* \"contracts/ShadowPool.sol\":18759:18772  sharesPercent */\n      dup4\n        /* \"contracts/ShadowPool.sol\":18759:18786  sharesPercent * user.shares */\n      tag_411\n      jump\t// in\n    tag_735:\n        /* \"contracts/ShadowPool.sol\":18758:18812  (sharesPercent * user.shares) / PRECISION_FACTOR_SHARE */\n      tag_736\n      swap2\n      swap1\n      tag_413\n      jump\t// in\n    tag_736:\n        /* \"contracts/ShadowPool.sol\":18743:18812  currentShare = (sharesPercent * user.shares) / PRECISION_FACTOR_SHARE */\n      swap2\n      pop\n        /* \"contracts/ShadowPool.sol\":18438:18824  if (_shares == 0 && _amount > 0) {\r... */\n    tag_734:\n        /* \"contracts/ShadowPool.sol\":18834:18855  uint256 currentAmount */\n      0x00\n        /* \"contracts/ShadowPool.sol\":18889:18900  totalShares */\n      sload(0x07)\n        /* \"contracts/ShadowPool.sol\":18873:18885  currentShare */\n      dup4\n        /* \"contracts/ShadowPool.sol\":18859:18870  balanceOf() */\n      tag_737\n        /* \"contracts/ShadowPool.sol\":18859:18868  balanceOf */\n      tag_214\n        /* \"contracts/ShadowPool.sol\":18859:18870  balanceOf() */\n      jump\t// in\n    tag_737:\n        /* \"contracts/ShadowPool.sol\":18859:18885  balanceOf() * currentShare */\n      tag_738\n      swap2\n      swap1\n      tag_411\n      jump\t// in\n    tag_738:\n        /* \"contracts/ShadowPool.sol\":18858:18900  (balanceOf() * currentShare) / totalShares */\n      tag_739\n      swap2\n      swap1\n      tag_413\n      jump\t// in\n    tag_739:\n        /* \"contracts/ShadowPool.sol\":18834:18900  uint256 currentAmount = (balanceOf() * currentShare) / totalShares */\n      swap1\n      pop\n        /* \"contracts/ShadowPool.sol\":18926:18938  currentShare */\n      dup3\n        /* \"contracts/ShadowPool.sol\":18911:18915  user */\n      dup5\n        /* \"contracts/ShadowPool.sol\":18911:18922  user.shares */\n      0x00\n      add\n      0x00\n        /* \"contracts/ShadowPool.sol\":18911:18938  user.shares -= currentShare */\n      dup3\n      dup3\n      sload\n      tag_740\n      swap2\n      swap1\n      tag_419\n      jump\t// in\n    tag_740:\n      swap3\n      pop\n      pop\n      dup2\n      swap1\n      sstore\n      pop\n        /* \"contracts/ShadowPool.sol\":18964:18976  currentShare */\n      dup3\n        /* \"contracts/ShadowPool.sol\":18949:18960  totalShares */\n      0x07\n      0x00\n        /* \"contracts/ShadowPool.sol\":18949:18976  totalShares -= currentShare */\n      dup3\n      dup3\n      sload\n      tag_741\n      swap2\n      swap1\n      tag_419\n      jump\t// in\n    tag_741:\n      swap1\n      swap2\n      sstore\n      pop\n      pop\n        /* \"contracts/ShadowPool.sol\":19050:19060  msg.sender */\n      caller\n        /* \"contracts/ShadowPool.sol\":19029:19061  freeWithdrawFeeUsers[msg.sender] */\n      0x00\n      swap1\n      dup2\n      mstore\n        /* \"contracts/ShadowPool.sol\":19029:19049  freeWithdrawFeeUsers */\n      0x05\n        /* \"contracts/ShadowPool.sol\":19029:19061  freeWithdrawFeeUsers[msg.sender] */\n      0x20\n      mstore\n      0x40\n      swap1\n      keccak256\n      sload\n      0xff\n      and\n        /* \"contracts/ShadowPool.sol\":19028:19061  !freeWithdrawFeeUsers[msg.sender] */\n      iszero\n        /* \"contracts/ShadowPool.sol\":19028:19127  !freeWithdrawFeeUsers[msg.sender] && (block.timestamp < user.lastDepositedTime + withdrawFeePeriod) */\n      dup1\n      iszero\n      tag_742\n      jumpi\n      pop\n        /* \"contracts/ShadowPool.sol\":19109:19126  withdrawFeePeriod */\n      sload(0x18)\n        /* \"contracts/ShadowPool.sol\":19084:19088  user */\n      dup5\n        /* \"contracts/ShadowPool.sol\":19084:19106  user.lastDepositedTime */\n      0x01\n      add\n      sload\n        /* \"contracts/ShadowPool.sol\":19084:19126  user.lastDepositedTime + withdrawFeePeriod */\n      tag_743\n      swap2\n      swap1\n      tag_405\n      jump\t// in\n    tag_743:\n        /* \"contracts/ShadowPool.sol\":19066:19081  block.timestamp */\n      timestamp\n        /* \"contracts/ShadowPool.sol\":19066:19126  block.timestamp < user.lastDepositedTime + withdrawFeePeriod */\n      lt\n        /* \"contracts/ShadowPool.sol\":19028:19127  !freeWithdrawFeeUsers[msg.sender] && (block.timestamp < user.lastDepositedTime + withdrawFeePeriod) */\n    tag_742:\n        /* \"contracts/ShadowPool.sol\":19024:19482  if (!freeWithdrawFeeUsers[msg.sender] && (block.timestamp < user.lastDepositedTime + withdrawFeePeriod)) {\r... */\n      iszero\n      tag_744\n      jumpi\n        /* \"contracts/ShadowPool.sol\":19162:19173  withdrawFee */\n      sload(0x15)\n        /* \"contracts/ShadowPool.sol\":19192:19215  _isContract(msg.sender) */\n      tag_745\n        /* \"contracts/ShadowPool.sol\":19204:19214  msg.sender */\n      caller\n        /* \"contracts/ShadowPool.sol\":19192:19203  _isContract */\n      tag_424\n        /* \"contracts/ShadowPool.sol\":19192:19215  _isContract(msg.sender) */\n      jump\t// in\n    tag_745:\n        /* \"contracts/ShadowPool.sol\":19188:19281  if (_isContract(msg.sender)) {\r... */\n      iszero\n      tag_746\n      jumpi\n      pop\n        /* \"contracts/ShadowPool.sol\":19246:19265  withdrawFeeContract */\n      sload(0x16)\n        /* \"contracts/ShadowPool.sol\":19188:19281  if (_isContract(msg.sender)) {\r... */\n    tag_746:\n        /* \"contracts/ShadowPool.sol\":19295:19321  uint256 currentWithdrawFee */\n      0x00\n        /* \"contracts/ShadowPool.sol\":19352:19357  10000 */\n      0x2710\n        /* \"contracts/ShadowPool.sol\":19325:19348  currentAmount * feeRate */\n      tag_747\n        /* \"contracts/ShadowPool.sol\":19341:19348  feeRate */\n      dup4\n        /* \"contracts/ShadowPool.sol\":19325:19338  currentAmount */\n      dup6\n        /* \"contracts/ShadowPool.sol\":19325:19348  currentAmount * feeRate */\n      tag_411\n      jump\t// in\n    tag_747:\n        /* \"contracts/ShadowPool.sol\":19324:19357  (currentAmount * feeRate) / 10000 */\n      tag_748\n      swap2\n      swap1\n      tag_413\n      jump\t// in\n    tag_748:\n        /* \"contracts/ShadowPool.sol\":19391:19399  treasury */\n      sload(0x09)\n        /* \"contracts/ShadowPool.sol\":19295:19357  uint256 currentWithdrawFee = (currentAmount * feeRate) / 10000 */\n      swap1\n      swap2\n      pop\n        /* \"contracts/ShadowPool.sol\":19372:19420  token.safeTransfer(treasury, currentWithdrawFee) */\n      tag_749\n      swap1\n        /* \"contracts/ShadowPool.sol\":19391:19399  treasury */\n      0xffffffffffffffffffffffffffffffffffffffff\n        /* \"contracts/ShadowPool.sol\":19372:19377  token */\n      immutable(\"0x8d841e129c158ed00fc3618c65b249d82e3b0efc8bcebb06537fd0a18b989353\")\n        /* \"contracts/ShadowPool.sol\":19372:19390  token.safeTransfer */\n      dup2\n      and\n      swap2\n        /* \"contracts/ShadowPool.sol\":19391:19399  treasury */\n      and\n        /* \"contracts/ShadowPool.sol\":19295:19357  uint256 currentWithdrawFee = (currentAmount * feeRate) / 10000 */\n      dup4\n        /* \"contracts/ShadowPool.sol\":19372:19390  token.safeTransfer */\n      tag_651\n        /* \"contracts/ShadowPool.sol\":19372:19420  token.safeTransfer(treasury, currentWithdrawFee) */\n      jump\t// in\n    tag_749:\n        /* \"contracts/ShadowPool.sol\":19435:19470  currentAmount -= currentWithdrawFee */\n      tag_750\n        /* \"contracts/ShadowPool.sol\":19452:19470  currentWithdrawFee */\n      dup2\n        /* \"contracts/ShadowPool.sol\":19435:19470  currentAmount -= currentWithdrawFee */\n      dup5\n      tag_419\n      jump\t// in\n    tag_750:\n      swap3\n      pop\n        /* \"contracts/ShadowPool.sol\":19024:19482  if (!freeWithdrawFeeUsers[msg.sender] && (block.timestamp < user.lastDepositedTime + withdrawFeePeriod)) {\r... */\n      pop\n      pop\n    tag_744:\n        /* \"contracts/ShadowPool.sol\":19494:19539  token.safeTransfer(msg.sender, currentAmount) */\n      tag_751\n        /* \"contracts/ShadowPool.sol\":19494:19512  token.safeTransfer */\n      0xffffffffffffffffffffffffffffffffffffffff\n        /* \"contracts/ShadowPool.sol\":19494:19499  token */\n      immutable(\"0x8d841e129c158ed00fc3618c65b249d82e3b0efc8bcebb06537fd0a18b989353\")\n        /* \"contracts/ShadowPool.sol\":19494:19512  token.safeTransfer */\n      and\n        /* \"contracts/ShadowPool.sol\":19513:19523  msg.sender */\n      caller\n        /* \"contracts/ShadowPool.sol\":19525:19538  currentAmount */\n      dup4\n        /* \"contracts/ShadowPool.sol\":19494:19512  token.safeTransfer */\n      tag_651\n        /* \"contracts/ShadowPool.sol\":19494:19539  token.safeTransfer(msg.sender, currentAmount) */\n      jump\t// in\n    tag_751:\n        /* \"contracts/ShadowPool.sol\":19556:19567  user.shares */\n      dup4\n      sload\n        /* \"contracts/ShadowPool.sol\":19556:19571  user.shares > 0 */\n      iszero\n        /* \"contracts/ShadowPool.sol\":19552:19731  if (user.shares > 0) {\r... */\n      tag_752\n      jumpi\n        /* \"contracts/ShadowPool.sol\":19646:19657  totalShares */\n      sload(0x07)\n        /* \"contracts/ShadowPool.sol\":19631:19642  balanceOf() */\n      tag_753\n        /* \"contracts/ShadowPool.sol\":19631:19640  balanceOf */\n      tag_214\n        /* \"contracts/ShadowPool.sol\":19631:19642  balanceOf() */\n      jump\t// in\n    tag_753:\n        /* \"contracts/ShadowPool.sol\":19617:19628  user.shares */\n      dup6\n      sload\n        /* \"contracts/ShadowPool.sol\":19617:19642  user.shares * balanceOf() */\n      tag_754\n      swap2\n      swap1\n      tag_411\n      jump\t// in\n    tag_754:\n        /* \"contracts/ShadowPool.sol\":19616:19657  (user.shares * balanceOf()) / totalShares */\n      tag_755\n      swap2\n      swap1\n      tag_413\n      jump\t// in\n    tag_755:\n        /* \"contracts/ShadowPool.sol\":19588:19613  user.shdwAtLastUserAction */\n      0x02\n      dup6\n      add\n        /* \"contracts/ShadowPool.sol\":19588:19657  user.shdwAtLastUserAction = (user.shares * balanceOf()) / totalShares */\n      sstore\n        /* \"contracts/ShadowPool.sol\":19552:19731  if (user.shares > 0) {\r... */\n      jump(tag_756)\n    tag_752:\n        /* \"contracts/ShadowPool.sol\":19718:19719  0 */\n      0x00\n        /* \"contracts/ShadowPool.sol\":19690:19715  user.shdwAtLastUserAction */\n      0x02\n      dup6\n      add\n        /* \"contracts/ShadowPool.sol\":19690:19719  user.shdwAtLastUserAction = 0 */\n      sstore\n        /* \"contracts/ShadowPool.sol\":19552:19731  if (user.shares > 0) {\r... */\n    tag_756:\n        /* \"contracts/ShadowPool.sol\":19769:19784  block.timestamp */\n      timestamp\n        /* \"contracts/ShadowPool.sol\":19743:19766  user.lastUserActionTime */\n      0x03\n      dup6\n      add\n        /* \"contracts/ShadowPool.sol\":19743:19784  user.lastUserActionTime = block.timestamp */\n      sstore\n        /* \"contracts/ShadowPool.sol\":19845:19880  updateBoostContractInfo(msg.sender) */\n      tag_757\n        /* \"contracts/ShadowPool.sol\":19869:19879  msg.sender */\n      caller\n        /* \"contracts/ShadowPool.sol\":19845:19868  updateBoostContractInfo */\n      tag_758\n        /* \"contracts/ShadowPool.sol\":19845:19880  updateBoostContractInfo(msg.sender) */\n      jump\t// in\n    tag_757:\n        /* \"contracts/ShadowPool.sol\":19907:19917  msg.sender */\n      caller\n        /* \"contracts/ShadowPool.sol\":19898:19947  Withdraw(msg.sender, currentAmount, currentShare) */\n      0xffffffffffffffffffffffffffffffffffffffff\n      and\n      0xf279e6a1f5e320cca91135676d9cb6e44ca8a08c0b88342bcdb1144f6511b568\n        /* \"contracts/ShadowPool.sol\":19919:19932  currentAmount */\n      dup3\n        /* \"contracts/ShadowPool.sol\":19934:19946  currentShare */\n      dup6\n        /* \"contracts/ShadowPool.sol\":19898:19947  Withdraw(msg.sender, currentAmount, currentShare) */\n      mload(0x40)\n      tag_759\n      swap3\n      swap2\n      swap1\n      tag_875\n      jump\t// in\n    tag_759:\n      mload(0x40)\n      dup1\n      swap2\n      sub\n      swap1\n      log2\n        /* \"contracts/ShadowPool.sol\":17657:19955  function withdrawOperation(uint256 _shares, uint256 _amount) internal {\r... */\n      pop\n      pop\n      pop\n      pop\n      pop\n      pop\n      jump\t// out\n        /* \"contracts/ShadowPool.sol\":12285:16843  function depositOperation(\r... */\n    tag_450:\n        /* \"contracts/ShadowPool.sol\":12444:12459  userInfo[_user] */\n      0xffffffffffffffffffffffffffffffffffffffff\n      dup2\n      and\n        /* \"contracts/ShadowPool.sol\":12420:12441  UserInfo storage user */\n      0x00\n        /* \"contracts/ShadowPool.sol\":12444:12459  userInfo[_user] */\n      swap1\n      dup2\n      mstore\n        /* \"contracts/ShadowPool.sol\":12444:12452  userInfo */\n      0x03\n        /* \"contracts/ShadowPool.sol\":12444:12459  userInfo[_user] */\n      0x20\n      mstore\n      0x40\n      swap1\n      keccak256\n        /* \"contracts/ShadowPool.sol\":12474:12485  user.shares */\n      dup1\n      sload\n        /* \"contracts/ShadowPool.sol\":12474:12490  user.shares == 0 */\n      iszero\n      dup1\n        /* \"contracts/ShadowPool.sol\":12474:12505  user.shares == 0 || _amount > 0 */\n      tag_761\n      jumpi\n      pop\n        /* \"contracts/ShadowPool.sol\":12504:12505  0 */\n      0x00\n        /* \"contracts/ShadowPool.sol\":12494:12501  _amount */\n      dup5\n        /* \"contracts/ShadowPool.sol\":12494:12505  _amount > 0 */\n      gt\n        /* \"contracts/ShadowPool.sol\":12474:12505  user.shares == 0 || _amount > 0 */\n    tag_761:\n        /* \"contracts/ShadowPool.sol\":12470:12629  if (user.shares == 0 || _amount > 0) {\r... */\n      iszero\n      tag_763\n      jumpi\n        /* \"contracts/ShadowPool.sol\":2674:2687  0.00001 ether */\n      0x09184e72a000\n        /* \"contracts/ShadowPool.sol\":12530:12537  _amount */\n      dup5\n        /* \"contracts/ShadowPool.sol\":12530:12558  _amount > MIN_DEPOSIT_AMOUNT */\n      gt\n        /* \"contracts/ShadowPool.sol\":12522:12617  require(_amount > MIN_DEPOSIT_AMOUNT, \"Deposit amount must be greater than MIN_DEPOSIT_AMOUNT\") */\n      tag_763\n      jumpi\n      mload(0x40)\n      0x08c379a000000000000000000000000000000000000000000000000000000000\n      dup2\n      mstore\n      0x04\n      add\n      tag_351\n      swap1\n      tag_765\n      jump\t// in\n    tag_763:\n        /* \"contracts/ShadowPool.sol\":12799:12815  user.lockEndTime */\n      0x05\n      dup2\n      add\n      sload\n        /* \"contracts/ShadowPool.sol\":12771:12784  _lockDuration */\n      dup4\n      swap1\n        /* \"contracts/ShadowPool.sol\":12819:12834  block.timestamp */\n      timestamp\n      gt\n        /* \"contracts/ShadowPool.sol\":12795:13248  if (user.lockEndTime >= block.timestamp) {\r... */\n      tag_766\n      jumpi\n        /* \"contracts/ShadowPool.sol\":12983:12994  _amount > 0 */\n      dup5\n      iszero\n        /* \"contracts/ShadowPool.sol\":12979:13164  if (_amount > 0) {\r... */\n      tag_767\n      jumpi\n        /* \"contracts/ShadowPool.sol\":13036:13051  block.timestamp */\n      timestamp\n        /* \"contracts/ShadowPool.sol\":13015:13033  user.lockStartTime */\n      0x04\n      dup4\n      add\n        /* \"contracts/ShadowPool.sol\":13015:13051  user.lockStartTime = block.timestamp */\n      sstore\n        /* \"contracts/ShadowPool.sol\":13091:13108  user.lockedAmount */\n      0x08\n      dup3\n      add\n      sload\n        /* \"contracts/ShadowPool.sol\":13070:13087  totalLockedAmount */\n      0x0d\n        /* \"contracts/ShadowPool.sol\":13070:13108  totalLockedAmount -= user.lockedAmount */\n      dup1\n      sload\n        /* \"contracts/ShadowPool.sol\":13070:13087  totalLockedAmount */\n      0x00\n      swap1\n        /* \"contracts/ShadowPool.sol\":13070:13108  totalLockedAmount -= user.lockedAmount */\n      tag_768\n      swap1\n        /* \"contracts/ShadowPool.sol\":13091:13108  user.lockedAmount */\n      dup5\n      swap1\n        /* \"contracts/ShadowPool.sol\":13070:13108  totalLockedAmount -= user.lockedAmount */\n      tag_419\n      jump\t// in\n    tag_768:\n      swap1\n      swap2\n      sstore\n      pop\n      pop\n        /* \"contracts/ShadowPool.sol\":13147:13148  0 */\n      0x00\n        /* \"contracts/ShadowPool.sol\":13127:13144  user.lockedAmount */\n      0x08\n      dup4\n      add\n        /* \"contracts/ShadowPool.sol\":13127:13148  user.lockedAmount = 0 */\n      sstore\n        /* \"contracts/ShadowPool.sol\":12979:13164  if (_amount > 0) {\r... */\n    tag_767:\n        /* \"contracts/ShadowPool.sol\":13218:13222  user */\n      dup2\n        /* \"contracts/ShadowPool.sol\":13218:13236  user.lockStartTime */\n      0x04\n      add\n      sload\n        /* \"contracts/ShadowPool.sol\":13199:13203  user */\n      dup3\n        /* \"contracts/ShadowPool.sol\":13199:13215  user.lockEndTime */\n      0x05\n      add\n      sload\n        /* \"contracts/ShadowPool.sol\":13199:13236  user.lockEndTime - user.lockStartTime */\n      tag_769\n      swap2\n      swap1\n      tag_419\n      jump\t// in\n    tag_769:\n        /* \"contracts/ShadowPool.sol\":13178:13236  totalLockDuration += user.lockEndTime - user.lockStartTime */\n      tag_770\n      swap1\n      dup3\n      tag_405\n      jump\t// in\n    tag_770:\n      swap1\n      pop\n        /* \"contracts/ShadowPool.sol\":12795:13248  if (user.lockEndTime >= block.timestamp) {\r... */\n    tag_766:\n        /* \"contracts/ShadowPool.sol\":13266:13284  _lockDuration == 0 */\n      dup4\n      iszero\n      dup1\n        /* \"contracts/ShadowPool.sol\":13266:13326  _lockDuration == 0 || totalLockDuration >= MIN_LOCK_DURATION */\n      tag_771\n      jumpi\n      pop\n        /* \"contracts/ShadowPool.sol\":2288:2295  1 weeks */\n      0x093a80\n        /* \"contracts/ShadowPool.sol\":13288:13305  totalLockDuration */\n      dup2\n        /* \"contracts/ShadowPool.sol\":13288:13326  totalLockDuration >= MIN_LOCK_DURATION */\n      lt\n      iszero\n        /* \"contracts/ShadowPool.sol\":13266:13326  _lockDuration == 0 || totalLockDuration >= MIN_LOCK_DURATION */\n    tag_771:\n        /* \"contracts/ShadowPool.sol\":13258:13362  require(_lockDuration == 0 || totalLockDuration >= MIN_LOCK_DURATION, \"Minimum lock period is one week\") */\n      tag_772\n      jumpi\n      mload(0x40)\n      0x08c379a000000000000000000000000000000000000000000000000000000000\n      dup2\n      mstore\n      0x04\n      add\n      tag_351\n      swap1\n      tag_774\n      jump\t// in\n    tag_772:\n        /* \"contracts/ShadowPool.sol\":13402:13419  MAX_LOCK_DURATION */\n      sload(0x0f)\n        /* \"contracts/ShadowPool.sol\":13381:13398  totalLockDuration */\n      dup2\n        /* \"contracts/ShadowPool.sol\":13381:13419  totalLockDuration <= MAX_LOCK_DURATION */\n      gt\n      iszero\n        /* \"contracts/ShadowPool.sol\":13373:13452  require(totalLockDuration <= MAX_LOCK_DURATION, \"Maximum lock period exceeded\") */\n      tag_775\n      jumpi\n      mload(0x40)\n      0x08c379a000000000000000000000000000000000000000000000000000000000\n      dup2\n      mstore\n      0x04\n      add\n      tag_351\n      swap1\n      tag_777\n      jump\t// in\n    tag_775:\n        /* \"contracts/ShadowPool.sol\":13469:13474  VShdw */\n      sload(0x02)\n        /* \"contracts/ShadowPool.sol\":13469:13488  VShdw != address(0) */\n      0xffffffffffffffffffffffffffffffffffffffff\n        /* \"contracts/ShadowPool.sol\":13469:13474  VShdw */\n      and\n        /* \"contracts/ShadowPool.sol\":13469:13488  VShdw != address(0) */\n      iszero\n        /* \"contracts/ShadowPool.sol\":13465:13569  if (VShdw != address(0)) {\r... */\n      tag_778\n      jumpi\n        /* \"contracts/ShadowPool.sol\":13512:13517  VShdw */\n      sload(0x02)\n        /* \"contracts/ShadowPool.sol\":13505:13557  IVShdw(VShdw).deposit(_user, _amount, _lockDuration) */\n      mload(0x40)\n      0x0efe6a8b00000000000000000000000000000000000000000000000000000000\n      dup2\n      mstore\n        /* \"contracts/ShadowPool.sol\":13512:13517  VShdw */\n      0xffffffffffffffffffffffffffffffffffffffff\n      swap1\n      swap2\n      and\n      swap1\n        /* \"contracts/ShadowPool.sol\":13505:13526  IVShdw(VShdw).deposit */\n      0x0efe6a8b\n      swap1\n        /* \"contracts/ShadowPool.sol\":13505:13557  IVShdw(VShdw).deposit(_user, _amount, _lockDuration) */\n      tag_779\n      swap1\n        /* \"contracts/ShadowPool.sol\":13527:13532  _user */\n      dup7\n      swap1\n        /* \"contracts/ShadowPool.sol\":13534:13541  _amount */\n      dup10\n      swap1\n        /* \"contracts/ShadowPool.sol\":13543:13556  _lockDuration */\n      dup10\n      swap1\n        /* \"contracts/ShadowPool.sol\":13505:13557  IVShdw(VShdw).deposit(_user, _amount, _lockDuration) */\n      0x04\n      add\n      tag_780\n      jump\t// in\n    tag_779:\n      0x00\n      mload(0x40)\n      dup1\n      dup4\n      sub\n      dup2\n      0x00\n      dup8\n      dup1\n      extcodesize\n      iszero\n      dup1\n      iszero\n      tag_781\n      jumpi\n      0x00\n      dup1\n      revert\n    tag_781:\n      pop\n      gas\n      call\n      iszero\n      dup1\n      iszero\n      tag_783\n      jumpi\n      returndatasize\n      0x00\n      dup1\n      returndatacopy\n      revert(0x00, returndatasize)\n    tag_783:\n      pop\n      pop\n      pop\n      pop\n        /* \"contracts/ShadowPool.sol\":13465:13569  if (VShdw != address(0)) {\r... */\n    tag_778:\n        /* \"contracts/ShadowPool.sol\":13625:13634  harvest() */\n      tag_784\n        /* \"contracts/ShadowPool.sol\":13625:13632  harvest */\n      tag_725\n        /* \"contracts/ShadowPool.sol\":13625:13634  harvest() */\n      jump\t// in\n    tag_784:\n        /* \"contracts/ShadowPool.sol\":13683:13694  totalShares */\n      sload(0x07)\n        /* \"contracts/ShadowPool.sol\":13679:13817  if (totalShares == 0) {\r... */\n      tag_785\n      jumpi\n        /* \"contracts/ShadowPool.sol\":13716:13735  uint256 stockAmount */\n      0x00\n        /* \"contracts/ShadowPool.sol\":13738:13749  available() */\n      tag_786\n        /* \"contracts/ShadowPool.sol\":13738:13747  available */\n      tag_171\n        /* \"contracts/ShadowPool.sol\":13738:13749  available() */\n      jump\t// in\n    tag_786:\n        /* \"contracts/ShadowPool.sol\":13783:13791  treasury */\n      sload(0x09)\n        /* \"contracts/ShadowPool.sol\":13716:13749  uint256 stockAmount = available() */\n      swap1\n      swap2\n      pop\n        /* \"contracts/ShadowPool.sol\":13764:13805  token.safeTransfer(treasury, stockAmount) */\n      tag_787\n      swap1\n        /* \"contracts/ShadowPool.sol\":13783:13791  treasury */\n      0xffffffffffffffffffffffffffffffffffffffff\n        /* \"contracts/ShadowPool.sol\":13764:13769  token */\n      immutable(\"0x8d841e129c158ed00fc3618c65b249d82e3b0efc8bcebb06537fd0a18b989353\")\n        /* \"contracts/ShadowPool.sol\":13764:13782  token.safeTransfer */\n      dup2\n      and\n      swap2\n        /* \"contracts/ShadowPool.sol\":13783:13791  treasury */\n      and\n        /* \"contracts/ShadowPool.sol\":13716:13749  uint256 stockAmount = available() */\n      dup4\n        /* \"contracts/ShadowPool.sol\":13764:13782  token.safeTransfer */\n      tag_651\n        /* \"contracts/ShadowPool.sol\":13764:13805  token.safeTransfer(treasury, stockAmount) */\n      jump\t// in\n    tag_787:\n        /* \"contracts/ShadowPool.sol\":13679:13817  if (totalShares == 0) {\r... */\n      pop\n    tag_785:\n        /* \"contracts/ShadowPool.sol\":13858:13880  updateUserShare(_user) */\n      tag_788\n        /* \"contracts/ShadowPool.sol\":13874:13879  _user */\n      dup4\n        /* \"contracts/ShadowPool.sol\":13858:13873  updateUserShare */\n      tag_727\n        /* \"contracts/ShadowPool.sol\":13858:13880  updateUserShare(_user) */\n      jump\t// in\n    tag_788:\n        /* \"contracts/ShadowPool.sol\":13931:13948  _lockDuration > 0 */\n      dup4\n      iszero\n        /* \"contracts/ShadowPool.sol\":13927:14263  if (_lockDuration > 0) {\r... */\n      tag_789\n      jumpi\n        /* \"contracts/ShadowPool.sol\":13988:14003  block.timestamp */\n      timestamp\n        /* \"contracts/ShadowPool.sol\":13969:13973  user */\n      dup3\n        /* \"contracts/ShadowPool.sol\":13969:13985  user.lockEndTime */\n      0x05\n      add\n      sload\n        /* \"contracts/ShadowPool.sol\":13969:14003  user.lockEndTime < block.timestamp */\n      lt\n        /* \"contracts/ShadowPool.sol\":13965:14219  if (user.lockEndTime < block.timestamp) {\r... */\n      iszero\n      tag_790\n      jumpi\n        /* \"contracts/ShadowPool.sol\":14045:14060  block.timestamp */\n      timestamp\n        /* \"contracts/ShadowPool.sol\":14024:14042  user.lockStartTime */\n      0x04\n      dup4\n      add\n        /* \"contracts/ShadowPool.sol\":14024:14060  user.lockStartTime = block.timestamp */\n      dup2\n      swap1\n      sstore\n        /* \"contracts/ShadowPool.sol\":14098:14129  block.timestamp + _lockDuration */\n      tag_791\n      swap1\n        /* \"contracts/ShadowPool.sol\":14116:14129  _lockDuration */\n      dup6\n      swap1\n        /* \"contracts/ShadowPool.sol\":14098:14129  block.timestamp + _lockDuration */\n      tag_405\n      jump\t// in\n    tag_791:\n        /* \"contracts/ShadowPool.sol\":14079:14095  user.lockEndTime */\n      0x05\n      dup4\n      add\n        /* \"contracts/ShadowPool.sol\":14079:14129  user.lockEndTime = block.timestamp + _lockDuration */\n      sstore\n        /* \"contracts/ShadowPool.sol\":13965:14219  if (user.lockEndTime < block.timestamp) {\r... */\n      jump(tag_792)\n    tag_790:\n        /* \"contracts/ShadowPool.sol\":14190:14203  _lockDuration */\n      dup4\n        /* \"contracts/ShadowPool.sol\":14170:14174  user */\n      dup3\n        /* \"contracts/ShadowPool.sol\":14170:14186  user.lockEndTime */\n      0x05\n      add\n      0x00\n        /* \"contracts/ShadowPool.sol\":14170:14203  user.lockEndTime += _lockDuration */\n      dup3\n      dup3\n      sload\n      tag_793\n      swap2\n      swap1\n      tag_405\n      jump\t// in\n    tag_793:\n      swap1\n      swap2\n      sstore\n      pop\n      pop\n        /* \"contracts/ShadowPool.sol\":13965:14219  if (user.lockEndTime < block.timestamp) {\r... */\n    tag_792:\n        /* \"contracts/ShadowPool.sol\":14233:14244  user.locked */\n      0x07\n      dup3\n      add\n        /* \"contracts/ShadowPool.sol\":14233:14251  user.locked = true */\n      dup1\n      sload\n      0xffffffffffffffffffffffffffffffffffffffffffffffffffffffffffffff00\n      and\n        /* \"contracts/ShadowPool.sol\":14247:14251  true */\n      0x01\n        /* \"contracts/ShadowPool.sol\":14233:14251  user.locked = true */\n      or\n      swap1\n      sstore\n        /* \"contracts/ShadowPool.sol\":13927:14263  if (_lockDuration > 0) {\r... */\n    tag_789:\n        /* \"contracts/ShadowPool.sol\":14275:14296  uint256 currentShares */\n      0x00\n        /* \"contracts/ShadowPool.sol\":14307:14328  uint256 currentAmount */\n      dup1\n        /* \"contracts/ShadowPool.sol\":14339:14371  uint256 userCurrentLockedBalance */\n      0x00\n        /* \"contracts/ShadowPool.sol\":14382:14394  uint256 pool */\n      dup1\n        /* \"contracts/ShadowPool.sol\":14397:14408  balanceOf() */\n      tag_794\n        /* \"contracts/ShadowPool.sol\":14397:14406  balanceOf */\n      tag_214\n        /* \"contracts/ShadowPool.sol\":14397:14408  balanceOf() */\n      jump\t// in\n    tag_794:\n        /* \"contracts/ShadowPool.sol\":14382:14408  uint256 pool = balanceOf() */\n      swap1\n      pop\n        /* \"contracts/ShadowPool.sol\":14423:14434  _amount > 0 */\n      dup9\n      iszero\n        /* \"contracts/ShadowPool.sol\":14419:14554  if (_amount > 0) {\r... */\n      tag_795\n      jumpi\n        /* \"contracts/ShadowPool.sol\":14451:14504  token.safeTransferFrom(_user, address(this), _amount) */\n      tag_796\n        /* \"contracts/ShadowPool.sol\":14451:14473  token.safeTransferFrom */\n      0xffffffffffffffffffffffffffffffffffffffff\n        /* \"contracts/ShadowPool.sol\":14451:14456  token */\n      immutable(\"0x8d841e129c158ed00fc3618c65b249d82e3b0efc8bcebb06537fd0a18b989353\")\n        /* \"contracts/ShadowPool.sol\":14451:14473  token.safeTransferFrom */\n      and\n        /* \"contracts/ShadowPool.sol\":14474:14479  _user */\n      dup9\n        /* \"contracts/ShadowPool.sol\":14489:14493  this */\n      address\n        /* \"contracts/ShadowPool.sol\":14496:14503  _amount */\n      dup13\n        /* \"contracts/ShadowPool.sol\":14451:14473  token.safeTransferFrom */\n      tag_380\n        /* \"contracts/ShadowPool.sol\":14451:14504  token.safeTransferFrom(_user, address(this), _amount) */\n      jump\t// in\n    tag_796:\n        /* \"contracts/ShadowPool.sol\":14535:14542  _amount */\n      dup9\n        /* \"contracts/ShadowPool.sol\":14519:14542  currentAmount = _amount */\n      swap3\n      pop\n        /* \"contracts/ShadowPool.sol\":14419:14554  if (_amount > 0) {\r... */\n    tag_795:\n        /* \"contracts/ShadowPool.sol\":14603:14614  user.shares */\n      dup6\n      sload\n        /* \"contracts/ShadowPool.sol\":14603:14618  user.shares > 0 */\n      iszero\n      dup1\n      iszero\n      swap1\n        /* \"contracts/ShadowPool.sol\":14603:14633  user.shares > 0 && user.locked */\n      tag_797\n      jumpi\n      pop\n        /* \"contracts/ShadowPool.sol\":14622:14633  user.locked */\n      0x07\n      dup7\n      add\n      sload\n      0xff\n      and\n        /* \"contracts/ShadowPool.sol\":14603:14633  user.shares > 0 && user.locked */\n    tag_797:\n        /* \"contracts/ShadowPool.sol\":14599:15080  if (user.shares > 0 && user.locked) {\r... */\n      iszero\n      tag_803\n      jumpi\n        /* \"contracts/ShadowPool.sol\":14700:14711  totalShares */\n      sload(0x07)\n        /* \"contracts/ShadowPool.sol\":14685:14696  user.shares */\n      dup7\n      sload\n        /* \"contracts/ShadowPool.sol\":14678:14696  pool * user.shares */\n      tag_799\n      swap1\n        /* \"contracts/ShadowPool.sol\":14678:14682  pool */\n      dup4\n        /* \"contracts/ShadowPool.sol\":14678:14696  pool * user.shares */\n      tag_411\n      jump\t// in\n    tag_799:\n        /* \"contracts/ShadowPool.sol\":14677:14711  (pool * user.shares) / totalShares */\n      tag_800\n      swap2\n      swap1\n      tag_413\n      jump\t// in\n    tag_800:\n        /* \"contracts/ShadowPool.sol\":14650:14711  userCurrentLockedBalance = (pool * user.shares) / totalShares */\n      swap2\n      pop\n        /* \"contracts/ShadowPool.sol\":14726:14767  currentAmount += userCurrentLockedBalance */\n      tag_801\n        /* \"contracts/ShadowPool.sol\":14650:14711  userCurrentLockedBalance = (pool * user.shares) / totalShares */\n      dup3\n        /* \"contracts/ShadowPool.sol\":14726:14767  currentAmount += userCurrentLockedBalance */\n      dup5\n      tag_405\n      jump\t// in\n    tag_801:\n      swap3\n      pop\n        /* \"contracts/ShadowPool.sol\":14797:14801  user */\n      dup6\n        /* \"contracts/ShadowPool.sol\":14797:14808  user.shares */\n      0x00\n      add\n      sload\n        /* \"contracts/ShadowPool.sol\":14782:14793  totalShares */\n      0x07\n      0x00\n        /* \"contracts/ShadowPool.sol\":14782:14808  totalShares -= user.shares */\n      dup3\n      dup3\n      sload\n      tag_802\n      swap2\n      swap1\n      tag_419\n      jump\t// in\n    tag_802:\n      swap1\n      swap2\n      sstore\n      pop\n      pop\n        /* \"contracts/ShadowPool.sol\":14837:14838  0 */\n      0x00\n        /* \"contracts/ShadowPool.sol\":14823:14838  user.shares = 0 */\n      dup7\n      sstore\n        /* \"contracts/ShadowPool.sol\":14894:14912  user.lockStartTime */\n      0x04\n      dup7\n      add\n      sload\n        /* \"contracts/ShadowPool.sol\":14916:14931  block.timestamp */\n      timestamp\n        /* \"contracts/ShadowPool.sol\":14894:14931  user.lockStartTime == block.timestamp */\n      eq\n        /* \"contracts/ShadowPool.sol\":14890:15069  if (user.lockStartTime == block.timestamp) {\r... */\n      iszero\n      tag_803\n      jumpi\n        /* \"contracts/ShadowPool.sol\":14952:14969  user.lockedAmount */\n      0x08\n      dup7\n      add\n        /* \"contracts/ShadowPool.sol\":14952:14996  user.lockedAmount = userCurrentLockedBalance */\n      dup3\n      swap1\n      sstore\n        /* \"contracts/ShadowPool.sol\":15015:15032  totalLockedAmount */\n      0x0d\n        /* \"contracts/ShadowPool.sol\":15015:15053  totalLockedAmount += user.lockedAmount */\n      dup1\n      sload\n        /* \"contracts/ShadowPool.sol\":14972:14996  userCurrentLockedBalance */\n      dup4\n      swap2\n        /* \"contracts/ShadowPool.sol\":15015:15032  totalLockedAmount */\n      swap1\n      0x00\n      swap1\n        /* \"contracts/ShadowPool.sol\":15015:15053  totalLockedAmount += user.lockedAmount */\n      tag_804\n      swap1\n        /* \"contracts/ShadowPool.sol\":14972:14996  userCurrentLockedBalance */\n      dup5\n      swap1\n        /* \"contracts/ShadowPool.sol\":15015:15053  totalLockedAmount += user.lockedAmount */\n      tag_405\n      jump\t// in\n    tag_804:\n      swap1\n      swap2\n      sstore\n      pop\n      pop\n        /* \"contracts/ShadowPool.sol\":14890:15069  if (user.lockStartTime == block.timestamp) {\r... */\n    tag_803:\n        /* \"contracts/ShadowPool.sol\":15094:15105  totalShares */\n      sload(0x07)\n        /* \"contracts/ShadowPool.sol\":15094:15110  totalShares != 0 */\n      iszero\n        /* \"contracts/ShadowPool.sol\":15090:15282  if (totalShares != 0) {\r... */\n      tag_805\n      jumpi\n        /* \"contracts/ShadowPool.sol\":15176:15207  pool - userCurrentLockedBalance */\n      tag_806\n        /* \"contracts/ShadowPool.sol\":15183:15207  userCurrentLockedBalance */\n      dup3\n        /* \"contracts/ShadowPool.sol\":15176:15180  pool */\n      dup3\n        /* \"contracts/ShadowPool.sol\":15176:15207  pool - userCurrentLockedBalance */\n      tag_419\n      jump\t// in\n    tag_806:\n        /* \"contracts/ShadowPool.sol\":15160:15171  totalShares */\n      sload(0x07)\n        /* \"contracts/ShadowPool.sol\":15144:15171  currentAmount * totalShares */\n      tag_807\n      swap1\n        /* \"contracts/ShadowPool.sol\":15144:15157  currentAmount */\n      dup6\n        /* \"contracts/ShadowPool.sol\":15144:15171  currentAmount * totalShares */\n      tag_411\n      jump\t// in\n    tag_807:\n        /* \"contracts/ShadowPool.sol\":15143:15208  (currentAmount * totalShares) / (pool - userCurrentLockedBalance) */\n      tag_808\n      swap2\n      swap1\n      tag_413\n      jump\t// in\n    tag_808:\n        /* \"contracts/ShadowPool.sol\":15127:15208  currentShares = (currentAmount * totalShares) / (pool - userCurrentLockedBalance) */\n      swap4\n      pop\n        /* \"contracts/ShadowPool.sol\":15090:15282  if (totalShares != 0) {\r... */\n      jump(tag_809)\n    tag_805:\n        /* \"contracts/ShadowPool.sol\":15257:15270  currentAmount */\n      dup3\n        /* \"contracts/ShadowPool.sol\":15241:15270  currentShares = currentAmount */\n      swap4\n      pop\n        /* \"contracts/ShadowPool.sol\":15090:15282  if (totalShares != 0) {\r... */\n    tag_809:\n        /* \"contracts/ShadowPool.sol\":15363:15367  user */\n      dup6\n        /* \"contracts/ShadowPool.sol\":15363:15381  user.lockStartTime */\n      0x04\n      add\n      sload\n        /* \"contracts/ShadowPool.sol\":15344:15348  user */\n      dup7\n        /* \"contracts/ShadowPool.sol\":15344:15360  user.lockEndTime */\n      0x05\n      add\n      sload\n        /* \"contracts/ShadowPool.sol\":15344:15381  user.lockEndTime > user.lockStartTime */\n      gt\n        /* \"contracts/ShadowPool.sol\":15340:16343  if (user.lockEndTime > user.lockStartTime) {\r... */\n      iszero\n      tag_810\n      jumpi\n        /* \"contracts/ShadowPool.sol\":15437:15456  uint256 boostWeight */\n      0x00\n        /* \"contracts/ShadowPool.sol\":15518:15533  DURATION_FACTOR */\n      sload(0x10)\n        /* \"contracts/ShadowPool.sol\":15502:15514  BOOST_WEIGHT */\n      sload(0x12)\n        /* \"contracts/ShadowPool.sol\":15480:15484  user */\n      dup9\n        /* \"contracts/ShadowPool.sol\":15480:15498  user.lockStartTime */\n      0x04\n      add\n      sload\n        /* \"contracts/ShadowPool.sol\":15461:15465  user */\n      dup10\n        /* \"contracts/ShadowPool.sol\":15461:15477  user.lockEndTime */\n      0x05\n      add\n      sload\n        /* \"contracts/ShadowPool.sol\":15461:15498  user.lockEndTime - user.lockStartTime */\n      tag_811\n      swap2\n      swap1\n      tag_419\n      jump\t// in\n    tag_811:\n        /* \"contracts/ShadowPool.sol\":15460:15514  (user.lockEndTime - user.lockStartTime) * BOOST_WEIGHT */\n      tag_812\n      swap2\n      swap1\n      tag_411\n      jump\t// in\n    tag_812:\n        /* \"contracts/ShadowPool.sol\":15459:15533  ((user.lockEndTime - user.lockStartTime) * BOOST_WEIGHT) / DURATION_FACTOR */\n      tag_813\n      swap2\n      swap1\n      tag_413\n      jump\t// in\n    tag_813:\n        /* \"contracts/ShadowPool.sol\":15437:15533  uint256 boostWeight = ((user.lockEndTime - user.lockStartTime) * BOOST_WEIGHT) / DURATION_FACTOR */\n      swap1\n      pop\n        /* \"contracts/ShadowPool.sol\":15548:15567  uint256 boostShares */\n      0x00\n        /* \"contracts/ShadowPool.sol\":2506:2510  1e12 */\n      0xe8d4a51000\n        /* \"contracts/ShadowPool.sol\":15571:15598  boostWeight * currentShares */\n      tag_814\n        /* \"contracts/ShadowPool.sol\":15585:15598  currentShares */\n      dup8\n        /* \"contracts/ShadowPool.sol\":15437:15533  uint256 boostWeight = ((user.lockEndTime - user.lockStartTime) * BOOST_WEIGHT) / DURATION_FACTOR */\n      dup5\n        /* \"contracts/ShadowPool.sol\":15571:15598  boostWeight * currentShares */\n      tag_411\n      jump\t// in\n    tag_814:\n        /* \"contracts/ShadowPool.sol\":15570:15618  (boostWeight * currentShares) / PRECISION_FACTOR */\n      tag_815\n      swap2\n      swap1\n      tag_413\n      jump\t// in\n    tag_815:\n        /* \"contracts/ShadowPool.sol\":15548:15618  uint256 boostShares = (boostWeight * currentShares) / PRECISION_FACTOR */\n      swap1\n      pop\n        /* \"contracts/ShadowPool.sol\":15633:15661  currentShares += boostShares */\n      tag_816\n        /* \"contracts/ShadowPool.sol\":15548:15618  uint256 boostShares = (boostWeight * currentShares) / PRECISION_FACTOR */\n      dup2\n        /* \"contracts/ShadowPool.sol\":15633:15661  currentShares += boostShares */\n      dup8\n      tag_405\n      jump\t// in\n    tag_816:\n      swap6\n      pop\n        /* \"contracts/ShadowPool.sol\":15691:15704  currentShares */\n      dup6\n        /* \"contracts/ShadowPool.sol\":15676:15680  user */\n      dup9\n        /* \"contracts/ShadowPool.sol\":15676:15687  user.shares */\n      0x00\n      add\n      0x00\n        /* \"contracts/ShadowPool.sol\":15676:15704  user.shares += currentShares */\n      dup3\n      dup3\n      sload\n      tag_817\n      swap2\n      swap1\n      tag_405\n      jump\t// in\n    tag_817:\n      swap1\n      swap2\n      sstore\n      pop\n        /* \"contracts/ShadowPool.sol\":15843:15867  uint256 userBoostedShare */\n      0x00\n      swap1\n      pop\n        /* \"contracts/ShadowPool.sol\":2506:2510  1e12 */\n      0xe8d4a51000\n        /* \"contracts/ShadowPool.sol\":15871:15898  boostWeight * currentAmount */\n      tag_818\n        /* \"contracts/ShadowPool.sol\":15885:15898  currentAmount */\n      dup8\n        /* \"contracts/ShadowPool.sol\":15871:15882  boostWeight */\n      dup6\n        /* \"contracts/ShadowPool.sol\":15871:15898  boostWeight * currentAmount */\n      tag_411\n      jump\t// in\n    tag_818:\n        /* \"contracts/ShadowPool.sol\":15870:15918  (boostWeight * currentAmount) / PRECISION_FACTOR */\n      tag_819\n      swap2\n      swap1\n      tag_413\n      jump\t// in\n    tag_819:\n        /* \"contracts/ShadowPool.sol\":15843:15918  uint256 userBoostedShare = (boostWeight * currentAmount) / PRECISION_FACTOR */\n      swap1\n      pop\n        /* \"contracts/ShadowPool.sol\":15958:15974  userBoostedShare */\n      dup1\n        /* \"contracts/ShadowPool.sol\":15933:15937  user */\n      dup10\n        /* \"contracts/ShadowPool.sol\":15933:15954  user.userBoostedShare */\n      0x06\n      add\n      0x00\n        /* \"contracts/ShadowPool.sol\":15933:15974  user.userBoostedShare += userBoostedShare */\n      dup3\n      dup3\n      sload\n      tag_820\n      swap2\n      swap1\n      tag_405\n      jump\t// in\n    tag_820:\n      swap3\n      pop\n      pop\n      dup2\n      swap1\n      sstore\n      pop\n        /* \"contracts/ShadowPool.sol\":16007:16023  userBoostedShare */\n      dup1\n        /* \"contracts/ShadowPool.sol\":15989:16003  totalBoostDebt */\n      0x0c\n      0x00\n        /* \"contracts/ShadowPool.sol\":15989:16023  totalBoostDebt += userBoostedShare */\n      dup3\n      dup3\n      sload\n      tag_821\n      swap2\n      swap1\n      tag_405\n      jump\t// in\n    tag_821:\n      swap3\n      pop\n      pop\n      dup2\n      swap1\n      sstore\n      pop\n        /* \"contracts/ShadowPool.sol\":16097:16104  _amount */\n      dup12\n        /* \"contracts/ShadowPool.sol\":16076:16080  user */\n      dup10\n        /* \"contracts/ShadowPool.sol\":16076:16093  user.lockedAmount */\n      0x08\n      add\n      0x00\n        /* \"contracts/ShadowPool.sol\":16076:16104  user.lockedAmount += _amount */\n      dup3\n      dup3\n      sload\n      tag_822\n      swap2\n      swap1\n      tag_405\n      jump\t// in\n    tag_822:\n      swap3\n      pop\n      pop\n      dup2\n      swap1\n      sstore\n      pop\n        /* \"contracts/ShadowPool.sol\":16140:16147  _amount */\n      dup12\n        /* \"contracts/ShadowPool.sol\":16119:16136  totalLockedAmount */\n      0x0d\n      0x00\n        /* \"contracts/ShadowPool.sol\":16119:16147  totalLockedAmount += _amount */\n      dup3\n      dup3\n      sload\n      tag_823\n      swap2\n      swap1\n      tag_405\n      jump\t// in\n    tag_823:\n      swap3\n      pop\n      pop\n      dup2\n      swap1\n      sstore\n      pop\n        /* \"contracts/ShadowPool.sol\":16174:16179  _user */\n      dup10\n        /* \"contracts/ShadowPool.sol\":16169:16270  Lock(_user, user.lockedAmount, user.shares, (user.lockEndTime - user.lockStartTime), block.timestamp) */\n      0xffffffffffffffffffffffffffffffffffffffff\n      and\n      0x2b943276e5d747f6f7dd46d3b880d8874cb8d6b9b88ca1903990a2738e7dc7a1\n        /* \"contracts/ShadowPool.sol\":16181:16185  user */\n      dup11\n        /* \"contracts/ShadowPool.sol\":16181:16198  user.lockedAmount */\n      0x08\n      add\n      sload\n        /* \"contracts/ShadowPool.sol\":16200:16204  user */\n      dup12\n        /* \"contracts/ShadowPool.sol\":16200:16211  user.shares */\n      0x00\n      add\n      sload\n        /* \"contracts/ShadowPool.sol\":16233:16237  user */\n      dup13\n        /* \"contracts/ShadowPool.sol\":16233:16251  user.lockStartTime */\n      0x04\n      add\n      sload\n        /* \"contracts/ShadowPool.sol\":16214:16218  user */\n      dup14\n        /* \"contracts/ShadowPool.sol\":16214:16230  user.lockEndTime */\n      0x05\n      add\n      sload\n        /* \"contracts/ShadowPool.sol\":16214:16251  user.lockEndTime - user.lockStartTime */\n      tag_824\n      swap2\n      swap1\n      tag_419\n      jump\t// in\n    tag_824:\n        /* \"contracts/ShadowPool.sol\":16254:16269  block.timestamp */\n      timestamp\n        /* \"contracts/ShadowPool.sol\":16169:16270  Lock(_user, user.lockedAmount, user.shares, (user.lockEndTime - user.lockStartTime), block.timestamp) */\n      mload(0x40)\n      tag_825\n      swap5\n      swap4\n      swap3\n      swap2\n      swap1\n      tag_826\n      jump\t// in\n    tag_825:\n      mload(0x40)\n      dup1\n      swap2\n      sub\n      swap1\n      log2\n        /* \"contracts/ShadowPool.sol\":15340:16343  if (user.lockEndTime > user.lockStartTime) {\r... */\n      pop\n      pop\n      pop\n      jump(tag_827)\n    tag_810:\n        /* \"contracts/ShadowPool.sol\":16318:16331  currentShares */\n      dup4\n        /* \"contracts/ShadowPool.sol\":16303:16307  user */\n      dup7\n        /* \"contracts/ShadowPool.sol\":16303:16314  user.shares */\n      0x00\n      add\n      0x00\n        /* \"contracts/ShadowPool.sol\":16303:16331  user.shares += currentShares */\n      dup3\n      dup3\n      sload\n      tag_828\n      swap2\n      swap1\n      tag_405\n      jump\t// in\n    tag_828:\n      swap1\n      swap2\n      sstore\n      pop\n      pop\n        /* \"contracts/ShadowPool.sol\":15340:16343  if (user.lockEndTime > user.lockStartTime) {\r... */\n    tag_827:\n        /* \"contracts/ShadowPool.sol\":16369:16370  0 */\n      0x00\n        /* \"contracts/ShadowPool.sol\":16359:16366  _amount */\n      dup10\n        /* \"contracts/ShadowPool.sol\":16359:16370  _amount > 0 */\n      gt\n        /* \"contracts/ShadowPool.sol\":16359:16391  _amount > 0 || _lockDuration > 0 */\n      dup1\n      tag_829\n      jumpi\n      pop\n        /* \"contracts/ShadowPool.sol\":16390:16391  0 */\n      0x00\n        /* \"contracts/ShadowPool.sol\":16374:16387  _lockDuration */\n      dup9\n        /* \"contracts/ShadowPool.sol\":16374:16391  _lockDuration > 0 */\n      gt\n        /* \"contracts/ShadowPool.sol\":16359:16391  _amount > 0 || _lockDuration > 0 */\n    tag_829:\n        /* \"contracts/ShadowPool.sol\":16355:16460  if (_amount > 0 || _lockDuration > 0) {\r... */\n      iszero\n      tag_830\n      jumpi\n        /* \"contracts/ShadowPool.sol\":16433:16448  block.timestamp */\n      timestamp\n        /* \"contracts/ShadowPool.sol\":16408:16430  user.lastDepositedTime */\n      0x01\n      dup8\n      add\n        /* \"contracts/ShadowPool.sol\":16408:16448  user.lastDepositedTime = block.timestamp */\n      sstore\n        /* \"contracts/ShadowPool.sol\":16355:16460  if (_amount > 0 || _lockDuration > 0) {\r... */\n    tag_830:\n        /* \"contracts/ShadowPool.sol\":16485:16498  currentShares */\n      dup4\n        /* \"contracts/ShadowPool.sol\":16470:16481  totalShares */\n      0x07\n      0x00\n        /* \"contracts/ShadowPool.sol\":16470:16498  totalShares += currentShares */\n      dup3\n      dup3\n      sload\n      tag_831\n      swap2\n      swap1\n      tag_405\n      jump\t// in\n    tag_831:\n      swap1\n      swap2\n      sstore\n      pop\n      pop\n        /* \"contracts/ShadowPool.sol\":16583:16604  user.userBoostedShare */\n      0x06\n      dup7\n      add\n      sload\n        /* \"contracts/ShadowPool.sol\":16569:16580  totalShares */\n      sload(0x07)\n        /* \"contracts/ShadowPool.sol\":16554:16565  balanceOf() */\n      tag_832\n        /* \"contracts/ShadowPool.sol\":16554:16563  balanceOf */\n      tag_214\n        /* \"contracts/ShadowPool.sol\":16554:16565  balanceOf() */\n      jump\t// in\n    tag_832:\n        /* \"contracts/ShadowPool.sol\":16540:16551  user.shares */\n      dup9\n      sload\n        /* \"contracts/ShadowPool.sol\":16540:16565  user.shares * balanceOf() */\n      tag_833\n      swap2\n      swap1\n      tag_411\n      jump\t// in\n    tag_833:\n        /* \"contracts/ShadowPool.sol\":16539:16580  (user.shares * balanceOf()) / totalShares */\n      tag_834\n      swap2\n      swap1\n      tag_413\n      jump\t// in\n    tag_834:\n        /* \"contracts/ShadowPool.sol\":16539:16604  (user.shares * balanceOf()) / totalShares - user.userBoostedShare */\n      tag_835\n      swap2\n      swap1\n      tag_419\n      jump\t// in\n    tag_835:\n        /* \"contracts/ShadowPool.sol\":16511:16536  user.shdwAtLastUserAction */\n      0x02\n      dup8\n      add\n        /* \"contracts/ShadowPool.sol\":16511:16604  user.shdwAtLastUserAction = (user.shares * balanceOf()) / totalShares - user.userBoostedShare */\n      sstore\n        /* \"contracts/ShadowPool.sol\":16641:16656  block.timestamp */\n      timestamp\n        /* \"contracts/ShadowPool.sol\":16615:16638  user.lastUserActionTime */\n      0x03\n      dup8\n      add\n        /* \"contracts/ShadowPool.sol\":16615:16656  user.lastUserActionTime = block.timestamp */\n      sstore\n        /* \"contracts/ShadowPool.sol\":16717:16747  updateBoostContractInfo(_user) */\n      tag_836\n        /* \"contracts/ShadowPool.sol\":16741:16746  _user */\n      dup8\n        /* \"contracts/ShadowPool.sol\":16717:16740  updateBoostContractInfo */\n      tag_758\n        /* \"contracts/ShadowPool.sol\":16717:16747  updateBoostContractInfo(_user) */\n      jump\t// in\n    tag_836:\n        /* \"contracts/ShadowPool.sol\":16773:16778  _user */\n      dup7\n        /* \"contracts/ShadowPool.sol\":16765:16835  Deposit(_user, _amount, currentShares, _lockDuration, block.timestamp) */\n      0xffffffffffffffffffffffffffffffffffffffff\n      and\n      0x7162984403f6c73c8639375d45a9187dfd04602231bd8e587c415718b5f7e5f9\n        /* \"contracts/ShadowPool.sol\":16780:16787  _amount */\n      dup11\n        /* \"contracts/ShadowPool.sol\":16789:16802  currentShares */\n      dup7\n        /* \"contracts/ShadowPool.sol\":16804:16817  _lockDuration */\n      dup12\n        /* \"contracts/ShadowPool.sol\":16819:16834  block.timestamp */\n      timestamp\n        /* \"contracts/ShadowPool.sol\":16765:16835  Deposit(_user, _amount, currentShares, _lockDuration, block.timestamp) */\n      mload(0x40)\n      tag_837\n      swap5\n      swap4\n      swap3\n      swap2\n      swap1\n      tag_826\n      jump\t// in\n    tag_837:\n      mload(0x40)\n      dup1\n      swap2\n      sub\n      swap1\n      log2\n        /* \"contracts/ShadowPool.sol\":12285:16843  function depositOperation(\r... */\n      pop\n      pop\n      pop\n      pop\n      pop\n      pop\n      pop\n      pop\n      pop\n      jump\t// out\n        /* \"@openzeppelin/contracts/security/Pausable.sol\":1945:2051  function _requirePaused() internal view virtual {... */\n    tag_464:\n        /* \"@openzeppelin/contracts/security/Pausable.sol\":2011:2019  paused() */\n      tag_839\n        /* \"@openzeppelin/contracts/security/Pausable.sol\":2011:2017  paused */\n      tag_190\n        /* \"@openzeppelin/contracts/security/Pausable.sol\":2011:2019  paused() */\n      jump\t// in\n    tag_839:\n        /* \"@openzeppelin/contracts/security/Pausable.sol\":2003:2044  require(paused(), \"Pausable: not paused\") */\n      tag_519\n      jumpi\n      mload(0x40)\n      0x08c379a000000000000000000000000000000000000000000000000000000000\n      dup2\n      mstore\n      0x04\n      add\n      tag_351\n      swap1\n      tag_842\n      jump\t// in\n        /* \"@openzeppelin/contracts/security/Pausable.sol\":2433:2550  function _unpause() internal virtual whenPaused {... */\n    tag_467:\n        /* \"@openzeppelin/contracts/security/Pausable.sol\":1486:1502  _requirePaused() */\n      tag_844\n        /* \"@openzeppelin/contracts/security/Pausable.sol\":1486:1500  _requirePaused */\n      tag_464\n        /* \"@openzeppelin/contracts/security/Pausable.sol\":1486:1502  _requirePaused() */\n      jump\t// in\n    tag_844:\n        /* \"@openzeppelin/contracts/security/Pausable.sol\":2501:2506  false */\n      0x00\n        /* \"@openzeppelin/contracts/security/Pausable.sol\":2491:2506  _paused = false */\n      dup1\n      sload\n      0xffffffffffffffffffffff00ffffffffffffffffffffffffffffffffffffffff\n      and\n      swap1\n      sstore\n        /* \"@openzeppelin/contracts/security/Pausable.sol\":2521:2543  Unpaused(_msgSender()) */\n      0x5db9ee0a495bf2e6ff9c91a7834c1ba4fdd244a5e8aa4e537bd38aeae4b073aa\n        /* \"@openzeppelin/contracts/security/Pausable.sol\":2530:2542  _msgSender() */\n      tag_846\n        /* \"@openzeppelin/contracts/security/Pausable.sol\":2530:2540  _msgSender */\n      tag_690\n        /* \"@openzeppelin/contracts/security/Pausable.sol\":2530:2542  _msgSender() */\n      jump\t// in\n    tag_846:\n        /* \"@openzeppelin/contracts/security/Pausable.sol\":2521:2543  Unpaused(_msgSender()) */\n      mload(0x40)\n      tag_847\n      swap2\n      swap1\n      tag_188\n      jump\t// in\n    tag_847:\n      mload(0x40)\n      dup1\n      swap2\n      sub\n      swap1\n      log1\n        /* \"@openzeppelin/contracts/security/Pausable.sol\":2433:2550  function _unpause() internal virtual whenPaused {... */\n      jump\t// out\n        /* \"@openzeppelin/contracts/access/Ownable.sol\":2433:2620  function _transferOwnership(address newOwner) internal virtual {... */\n    tag_520:\n        /* \"@openzeppelin/contracts/access/Ownable.sol\":2506:2522  address oldOwner */\n      0x00\n        /* \"@openzeppelin/contracts/access/Ownable.sol\":2525:2531  _owner */\n      dup1\n      sload\n      0xffffffffffffffffffffffffffffffffffffffff\n        /* \"@openzeppelin/contracts/access/Ownable.sol\":2541:2558  _owner = newOwner */\n      dup4\n      dup2\n      and\n      0xffffffffffffffffffffffff0000000000000000000000000000000000000000\n      dup4\n      and\n      dup2\n      or\n      dup5\n      sstore\n        /* \"@openzeppelin/contracts/access/Ownable.sol\":2573:2613  OwnershipTransferred(oldOwner, newOwner) */\n      mload(0x40)\n        /* \"@openzeppelin/contracts/access/Ownable.sol\":2525:2531  _owner */\n      swap2\n      swap1\n      swap3\n      and\n      swap3\n      dup4\n      swap2\n        /* \"@openzeppelin/contracts/access/Ownable.sol\":2573:2613  OwnershipTransferred(oldOwner, newOwner) */\n      0x8be0079c531659141344cd1fd0a4f28419497f9722a3daafe3b4186f6b6457e0\n      swap2\n        /* \"@openzeppelin/contracts/access/Ownable.sol\":2506:2522  address oldOwner */\n      swap1\n        /* \"@openzeppelin/contracts/access/Ownable.sol\":2573:2613  OwnershipTransferred(oldOwner, newOwner) */\n      log3\n        /* \"@openzeppelin/contracts/access/Ownable.sol\":2433:2620  function _transferOwnership(address newOwner) internal virtual {... */\n      pop\n      pop\n      jump\t// out\n        /* \"@openzeppelin/contracts/security/Pausable.sol\":2186:2301  function _pause() internal virtual whenNotPaused {... */\n    tag_543:\n        /* \"@openzeppelin/contracts/security/Pausable.sol\":1239:1258  _requireNotPaused() */\n      tag_850\n        /* \"@openzeppelin/contracts/security/Pausable.sol\":1239:1256  _requireNotPaused */\n      tag_430\n        /* \"@openzeppelin/contracts/security/Pausable.sol\":1239:1258  _requireNotPaused() */\n      jump\t// in\n    tag_850:\n        /* \"@openzeppelin/contracts/security/Pausable.sol\":2245:2252  _paused */\n      0x00\n        /* \"@openzeppelin/contracts/security/Pausable.sol\":2245:2259  _paused = true */\n      dup1\n      sload\n      0xffffffffffffffffffffff00ffffffffffffffffffffffffffffffffffffffff\n      and\n      0x010000000000000000000000000000000000000000\n      or\n      swap1\n      sstore\n        /* \"@openzeppelin/contracts/security/Pausable.sol\":2274:2294  Paused(_msgSender()) */\n      0x62e78cea01bee320cd4e420270b5ea74000d11b0c9f74754ebdbfc544b05a258\n        /* \"@openzeppelin/contracts/security/Pausable.sol\":2281:2293  _msgSender() */\n      tag_846\n        /* \"@openzeppelin/contracts/security/Pausable.sol\":2281:2291  _msgSender */\n      tag_690\n        /* \"@openzeppelin/contracts/security/Pausable.sol\":2281:2293  _msgSender() */\n      jump\t// in\n        /* \"@openzeppelin/contracts/token/ERC20/utils/SafeERC20.sol\":763:968  function safeTransfer(... */\n    tag_651:\n        /* \"@openzeppelin/contracts/token/ERC20/utils/SafeERC20.sol\":875:961  _callOptionalReturn(token, abi.encodeWithSelector(token.transfer.selector, to, value)) */\n      tag_449\n        /* \"@openzeppelin/contracts/token/ERC20/utils/SafeERC20.sol\":895:900  token */\n      dup4\n        /* \"@openzeppelin/contracts/token/ERC20/utils/SafeERC20.sol\":925:948  token.transfer.selector */\n      shl(0xe0, 0xa9059cbb)\n        /* \"@openzeppelin/contracts/token/ERC20/utils/SafeERC20.sol\":950:952  to */\n      dup5\n        /* \"@openzeppelin/contracts/token/ERC20/utils/SafeERC20.sol\":954:959  value */\n      dup5\n        /* \"@openzeppelin/contracts/token/ERC20/utils/SafeERC20.sol\":902:960  abi.encodeWithSelector(token.transfer.selector, to, value) */\n      add(0x24, mload(0x40))\n      tag_697\n      swap3\n      swap2\n      swap1\n      tag_382\n      jump\t// in\n        /* \"@openzeppelin/contracts/utils/Context.sol\":640:736  function _msgSender() internal view virtual returns (address) {... */\n    tag_690:\n        /* \"@openzeppelin/contracts/utils/Context.sol\":719:729  msg.sender */\n      caller\n        /* \"@openzeppelin/contracts/utils/Context.sol\":640:736  function _msgSender() internal view virtual returns (address) {... */\n      swap1\n      jump\t// out\n        /* \"@openzeppelin/contracts/token/ERC20/utils/SafeERC20.sol\":3747:4453  function _callOptionalReturn(IERC20 token, bytes memory data) private {... */\n    tag_699:\n        /* \"@openzeppelin/contracts/token/ERC20/utils/SafeERC20.sol\":4166:4189  bytes memory returndata */\n      0x00\n        /* \"@openzeppelin/contracts/token/ERC20/utils/SafeERC20.sol\":4192:4261  address(token).functionCall(data, \"SafeERC20: low-level call failed\") */\n      tag_859\n        /* \"@openzeppelin/contracts/token/ERC20/utils/SafeERC20.sol\":4220:4224  data */\n      dup3\n        /* \"@openzeppelin/contracts/token/ERC20/utils/SafeERC20.sol\":4192:4261  address(token).functionCall(data, \"SafeERC20: low-level call failed\") */\n      mload(0x40)\n      dup1\n      0x40\n      add\n      0x40\n      mstore\n      dup1\n      0x20\n      dup2\n      mstore\n      0x20\n      add\n      0x5361666545524332303a206c6f772d6c6576656c2063616c6c206661696c6564\n      dup2\n      mstore\n      pop\n        /* \"@openzeppelin/contracts/token/ERC20/utils/SafeERC20.sol\":4200:4205  token */\n      dup6\n        /* \"@openzeppelin/contracts/token/ERC20/utils/SafeERC20.sol\":4192:4219  address(token).functionCall */\n      0xffffffffffffffffffffffffffffffffffffffff\n      and\n      tag_860\n      swap1\n        /* \"@openzeppelin/contracts/token/ERC20/utils/SafeERC20.sol\":4192:4261  address(token).functionCall(data, \"SafeERC20: low-level call failed\") */\n      swap3\n      swap2\n      swap1\n      0xffffffff\n      and\n      jump\t// in\n    tag_859:\n        /* \"@openzeppelin/contracts/token/ERC20/utils/SafeERC20.sol\":4275:4292  returndata.length */\n      dup1\n      mload\n        /* \"@openzeppelin/contracts/token/ERC20/utils/SafeERC20.sol\":4166:4261  bytes memory returndata = address(token).functionCall(data, \"SafeERC20: low-level call failed\") */\n      swap1\n      swap2\n      pop\n        /* \"@openzeppelin/contracts/token/ERC20/utils/SafeERC20.sol\":4275:4296  returndata.length > 0 */\n      iszero\n        /* \"@openzeppelin/contracts/token/ERC20/utils/SafeERC20.sol\":4271:4447  if (returndata.length > 0) {... */\n      tag_449\n      jumpi\n        /* \"@openzeppelin/contracts/token/ERC20/utils/SafeERC20.sol\":4370:4380  returndata */\n      dup1\n        /* \"@openzeppelin/contracts/token/ERC20/utils/SafeERC20.sol\":4359:4389  abi.decode(returndata, (bool)) */\n      dup1\n      0x20\n      add\n      swap1\n      mload\n      dup2\n      add\n      swap1\n      tag_862\n      swap2\n      swap1\n      tag_387\n      jump\t// in\n    tag_862:\n        /* \"@openzeppelin/contracts/token/ERC20/utils/SafeERC20.sol\":4351:4436  require(abi.decode(returndata, (bool)), \"SafeERC20: ERC20 operation did not succeed\") */\n      tag_449\n      jumpi\n      mload(0x40)\n      0x08c379a000000000000000000000000000000000000000000000000000000000\n      dup2\n      mstore\n      0x04\n      add\n      tag_351\n      swap1\n      tag_865\n      jump\t// in\n        /* \"contracts/ShadowPool.sol\":20201:20571  function harvest() internal {\r... */\n    tag_725:\n        /* \"contracts/ShadowPool.sol\":20287:20298  shdwPoolPID */\n      sload(0x0b)\n        /* \"contracts/ShadowPool.sol\":20262:20314  shadowchefV2.pendingShdw(shdwPoolPID, address(this)) */\n      mload(0x40)\n      0xc799b59d00000000000000000000000000000000000000000000000000000000\n      dup2\n      mstore\n        /* \"contracts/ShadowPool.sol\":20240:20259  uint256 pendingShdw */\n      0x00\n      swap2\n        /* \"contracts/ShadowPool.sol\":20262:20286  shadowchefV2.pendingShdw */\n      0xffffffffffffffffffffffffffffffffffffffff\n        /* \"contracts/ShadowPool.sol\":20262:20274  shadowchefV2 */\n      immutable(\"0x3f2cb8b8a6f6ba8772056c1e4910fb442737deea593ec84e00cbccee66f6d0e1\")\n        /* \"contracts/ShadowPool.sol\":20262:20286  shadowchefV2.pendingShdw */\n      and\n      swap2\n      0xc799b59d\n      swap2\n        /* \"contracts/ShadowPool.sol\":20262:20314  shadowchefV2.pendingShdw(shdwPoolPID, address(this)) */\n      tag_867\n      swap2\n        /* \"contracts/ShadowPool.sol\":20308:20312  this */\n      address\n      swap1\n        /* \"contracts/ShadowPool.sol\":20262:20314  shadowchefV2.pendingShdw(shdwPoolPID, address(this)) */\n      0x04\n      add\n      tag_633\n      jump\t// in\n    tag_867:\n      0x20\n      mload(0x40)\n      dup1\n      dup4\n      sub\n      dup2\n      dup7\n      dup1\n      extcodesize\n      iszero\n      dup1\n      iszero\n      tag_868\n      jumpi\n      0x00\n      dup1\n      revert\n    tag_868:\n      pop\n      gas\n      staticcall\n      iszero\n      dup1\n      iszero\n      tag_870\n      jumpi\n      returndatasize\n      0x00\n      dup1\n      returndatacopy\n      revert(0x00, returndatasize)\n    tag_870:\n      pop\n      pop\n      pop\n      pop\n      mload(0x40)\n      returndatasize\n      not(0x1f)\n      0x1f\n      dup3\n      add\n      and\n      dup3\n      add\n      dup1\n      0x40\n      mstore\n      pop\n      dup2\n      add\n      swap1\n      tag_871\n      swap2\n      swap1\n      tag_375\n      jump\t// in\n    tag_871:\n        /* \"contracts/ShadowPool.sol\":20240:20314  uint256 pendingShdw = shadowchefV2.pendingShdw(shdwPoolPID, address(this)) */\n      swap1\n      pop\n        /* \"contracts/ShadowPool.sol\":20329:20344  pendingShdw > 0 */\n      dup1\n      iszero\n        /* \"contracts/ShadowPool.sol\":20325:20564  if (pendingShdw > 0) {\r... */\n      tag_435\n      jumpi\n        /* \"contracts/ShadowPool.sol\":20361:20378  uint256 balBefore */\n      0x00\n        /* \"contracts/ShadowPool.sol\":20381:20392  available() */\n      tag_873\n        /* \"contracts/ShadowPool.sol\":20381:20390  available */\n      tag_171\n        /* \"contracts/ShadowPool.sol\":20381:20392  available() */\n      jump\t// in\n    tag_873:\n        /* \"contracts/ShadowPool.sol\":20429:20440  shdwPoolPID */\n      sload(0x0b)\n        /* \"contracts/ShadowPool.sol\":20407:20444  shadowchefV2.withdraw(shdwPoolPID, 0) */\n      mload(0x40)\n      0x441a3e7000000000000000000000000000000000000000000000000000000000\n      dup2\n      mstore\n        /* \"contracts/ShadowPool.sol\":20361:20392  uint256 balBefore = available() */\n      swap2\n      swap3\n      pop\n        /* \"contracts/ShadowPool.sol\":20407:20428  shadowchefV2.withdraw */\n      0xffffffffffffffffffffffffffffffffffffffff\n        /* \"contracts/ShadowPool.sol\":20407:20419  shadowchefV2 */\n      immutable(\"0x3f2cb8b8a6f6ba8772056c1e4910fb442737deea593ec84e00cbccee66f6d0e1\")\n        /* \"contracts/ShadowPool.sol\":20407:20428  shadowchefV2.withdraw */\n      and\n      swap2\n      0x441a3e70\n      swap2\n        /* \"contracts/ShadowPool.sol\":20407:20444  shadowchefV2.withdraw(shdwPoolPID, 0) */\n      tag_874\n      swap2\n        /* \"contracts/ShadowPool.sol\":20442:20443  0 */\n      0x00\n      swap1\n        /* \"contracts/ShadowPool.sol\":20407:20444  shadowchefV2.withdraw(shdwPoolPID, 0) */\n      0x04\n      add\n      tag_875\n      jump\t// in\n    tag_874:\n      0x00\n      mload(0x40)\n      dup1\n      dup4\n      sub\n      dup2\n      0x00\n      dup8\n      dup1\n      extcodesize\n      iszero\n      dup1\n      iszero\n      tag_876\n      jumpi\n      0x00\n      dup1\n      revert\n    tag_876:\n      pop\n      gas\n      call\n      iszero\n      dup1\n      iszero\n      tag_878\n      jumpi\n      returndatasize\n      0x00\n      dup1\n      returndatacopy\n      revert(0x00, returndatasize)\n    tag_878:\n      pop\n      pop\n      pop\n      pop\n        /* \"contracts/ShadowPool.sol\":20459:20475  uint256 balAfter */\n      0x00\n        /* \"contracts/ShadowPool.sol\":20478:20489  available() */\n      tag_879\n        /* \"contracts/ShadowPool.sol\":20478:20487  available */\n      tag_171\n        /* \"contracts/ShadowPool.sol\":20478:20489  available() */\n      jump\t// in\n    tag_879:\n        /* \"contracts/ShadowPool.sol\":20459:20489  uint256 balAfter = available() */\n      swap1\n      pop\n        /* \"contracts/ShadowPool.sol\":20517:20527  msg.sender */\n      caller\n        /* \"contracts/ShadowPool.sol\":20509:20552  Harvest(msg.sender, (balAfter - balBefore)) */\n      0xc9695243a805adb74c91f28311176c65b417e842d5699893cef56d18bfa48cba\n        /* \"contracts/ShadowPool.sol\":20530:20550  balAfter - balBefore */\n      tag_880\n        /* \"contracts/ShadowPool.sol\":20541:20550  balBefore */\n      dup5\n        /* \"contracts/ShadowPool.sol\":20459:20489  uint256 balAfter = available() */\n      dup5\n        /* \"contracts/ShadowPool.sol\":20530:20550  balAfter - balBefore */\n      tag_419\n      jump\t// in\n    tag_880:\n        /* \"contracts/ShadowPool.sol\":20509:20552  Harvest(msg.sender, (balAfter - balBefore)) */\n      mload(0x40)\n      tag_881\n      swap2\n      swap1\n      tag_109\n      jump\t// in\n    tag_881:\n      mload(0x40)\n      dup1\n      swap2\n      sub\n      swap1\n      log2\n        /* \"contracts/ShadowPool.sol\":20325:20564  if (pendingShdw > 0) {\r... */\n      pop\n      pop\n        /* \"contracts/ShadowPool.sol\":20201:20571  function harvest() internal {\r... */\n      pop\n      jump\t// out\n        /* \"contracts/ShadowPool.sol\":7514:11176  function updateUserShare(address _user) internal {\r... */\n    tag_727:\n        /* \"contracts/ShadowPool.sol\":7598:7613  userInfo[_user] */\n      0xffffffffffffffffffffffffffffffffffffffff\n      dup2\n      and\n        /* \"contracts/ShadowPool.sol\":7574:7595  UserInfo storage user */\n      0x00\n        /* \"contracts/ShadowPool.sol\":7598:7613  userInfo[_user] */\n      swap1\n      dup2\n      mstore\n        /* \"contracts/ShadowPool.sol\":7598:7606  userInfo */\n      0x03\n        /* \"contracts/ShadowPool.sol\":7598:7613  userInfo[_user] */\n      0x20\n      mstore\n      0x40\n      swap1\n      keccak256\n        /* \"contracts/ShadowPool.sol\":7628:7639  user.shares */\n      dup1\n      sload\n        /* \"contracts/ShadowPool.sol\":7628:7643  user.shares > 0 */\n      iszero\n        /* \"contracts/ShadowPool.sol\":7624:11169  if (user.shares > 0) {\r... */\n      tag_650\n      jumpi\n        /* \"contracts/ShadowPool.sol\":7664:7675  user.locked */\n      0x07\n      dup2\n      add\n      sload\n      0xff\n      and\n        /* \"contracts/ShadowPool.sol\":7660:11158  if (user.locked) {\r... */\n      iszero\n      tag_884\n      jumpi\n        /* \"contracts/ShadowPool.sol\":7789:7810  uint256 currentAmount */\n      0x00\n        /* \"contracts/ShadowPool.sol\":7859:7863  user */\n      dup2\n        /* \"contracts/ShadowPool.sol\":7859:7880  user.userBoostedShare */\n      0x06\n      add\n      sload\n        /* \"contracts/ShadowPool.sol\":7845:7856  totalShares */\n      sload(0x07)\n        /* \"contracts/ShadowPool.sol\":7829:7833  user */\n      dup4\n        /* \"contracts/ShadowPool.sol\":7829:7840  user.shares */\n      0x00\n      add\n      sload\n        /* \"contracts/ShadowPool.sol\":7814:7825  balanceOf() */\n      tag_885\n        /* \"contracts/ShadowPool.sol\":7814:7823  balanceOf */\n      tag_214\n        /* \"contracts/ShadowPool.sol\":7814:7825  balanceOf() */\n      jump\t// in\n    tag_885:\n        /* \"contracts/ShadowPool.sol\":7814:7841  balanceOf() * (user.shares) */\n      tag_886\n      swap2\n      swap1\n      tag_411\n      jump\t// in\n    tag_886:\n        /* \"contracts/ShadowPool.sol\":7813:7856  (balanceOf() * (user.shares)) / totalShares */\n      tag_887\n      swap2\n      swap1\n      tag_413\n      jump\t// in\n    tag_887:\n        /* \"contracts/ShadowPool.sol\":7813:7880  (balanceOf() * (user.shares)) / totalShares - user.userBoostedShare */\n      tag_888\n      swap2\n      swap1\n      tag_419\n      jump\t// in\n    tag_888:\n        /* \"contracts/ShadowPool.sol\":7789:7880  uint256 currentAmount = (balanceOf() * (user.shares)) / totalShares - user.userBoostedShare */\n      swap1\n      pop\n        /* \"contracts/ShadowPool.sol\":7917:7921  user */\n      dup2\n        /* \"contracts/ShadowPool.sol\":7917:7938  user.userBoostedShare */\n      0x06\n      add\n      sload\n        /* \"contracts/ShadowPool.sol\":7899:7913  totalBoostDebt */\n      0x0c\n      0x00\n        /* \"contracts/ShadowPool.sol\":7899:7938  totalBoostDebt -= user.userBoostedShare */\n      dup3\n      dup3\n      sload\n      tag_889\n      swap2\n      swap1\n      tag_419\n      jump\t// in\n    tag_889:\n      swap1\n      swap2\n      sstore\n      pop\n      pop\n        /* \"contracts/ShadowPool.sol\":7981:7982  0 */\n      0x00\n        /* \"contracts/ShadowPool.sol\":7957:7978  user.userBoostedShare */\n      0x06\n      dup4\n      add\n        /* \"contracts/ShadowPool.sol\":7957:7982  user.userBoostedShare = 0 */\n      dup2\n      swap1\n      sstore\n        /* \"contracts/ShadowPool.sol\":8016:8027  user.shares */\n      dup3\n      sload\n        /* \"contracts/ShadowPool.sol\":8001:8012  totalShares */\n      0x07\n        /* \"contracts/ShadowPool.sol\":8001:8027  totalShares -= user.shares */\n      dup1\n      sload\n        /* \"contracts/ShadowPool.sol\":8016:8027  user.shares */\n      swap2\n      swap3\n        /* \"contracts/ShadowPool.sol\":8001:8012  totalShares */\n      swap1\n      swap2\n        /* \"contracts/ShadowPool.sol\":8001:8027  totalShares -= user.shares */\n      tag_890\n      swap1\n        /* \"contracts/ShadowPool.sol\":8016:8027  user.shares */\n      dup5\n      swap1\n        /* \"contracts/ShadowPool.sol\":8001:8027  totalShares -= user.shares */\n      tag_419\n      jump\t// in\n    tag_890:\n      swap1\n      swap2\n      sstore\n      pop\n      pop\n        /* \"contracts/ShadowPool.sol\":8128:8154  freeOverdueFeeUsers[_user] */\n      0xffffffffffffffffffffffffffffffffffffffff\n      dup4\n      and\n      0x00\n      swap1\n      dup2\n      mstore\n        /* \"contracts/ShadowPool.sol\":8128:8147  freeOverdueFeeUsers */\n      0x06\n        /* \"contracts/ShadowPool.sol\":8128:8154  freeOverdueFeeUsers[_user] */\n      0x20\n      mstore\n      0x40\n      swap1\n      keccak256\n      sload\n      0xff\n      and\n        /* \"contracts/ShadowPool.sol\":8127:8154  !freeOverdueFeeUsers[_user] */\n      iszero\n        /* \"contracts/ShadowPool.sol\":8127:8219  !freeOverdueFeeUsers[_user] && ((user.lockEndTime + UNLOCK_FREE_DURATION) < block.timestamp) */\n      dup1\n      iszero\n      tag_891\n      jumpi\n      pop\n        /* \"contracts/ShadowPool.sol\":8203:8218  block.timestamp */\n      timestamp\n        /* \"contracts/ShadowPool.sol\":8179:8199  UNLOCK_FREE_DURATION */\n      sload(0x0e)\n        /* \"contracts/ShadowPool.sol\":8160:8164  user */\n      dup4\n        /* \"contracts/ShadowPool.sol\":8160:8176  user.lockEndTime */\n      0x05\n      add\n      sload\n        /* \"contracts/ShadowPool.sol\":8160:8199  user.lockEndTime + UNLOCK_FREE_DURATION */\n      tag_892\n      swap2\n      swap1\n      tag_405\n      jump\t// in\n    tag_892:\n        /* \"contracts/ShadowPool.sol\":8159:8218  (user.lockEndTime + UNLOCK_FREE_DURATION) < block.timestamp */\n      lt\n        /* \"contracts/ShadowPool.sol\":8127:8219  !freeOverdueFeeUsers[_user] && ((user.lockEndTime + UNLOCK_FREE_DURATION) < block.timestamp) */\n    tag_891:\n        /* \"contracts/ShadowPool.sol\":8123:8996  if (!freeOverdueFeeUsers[_user] && ((user.lockEndTime + UNLOCK_FREE_DURATION) < block.timestamp)) {\r... */\n      iszero\n      tag_893\n      jumpi\n        /* \"contracts/ShadowPool.sol\":8244:8262  uint256 earnAmount */\n      0x00\n        /* \"contracts/ShadowPool.sol\":8281:8285  user */\n      dup3\n        /* \"contracts/ShadowPool.sol\":8281:8298  user.lockedAmount */\n      0x08\n      add\n      sload\n        /* \"contracts/ShadowPool.sol\":8265:8278  currentAmount */\n      dup3\n        /* \"contracts/ShadowPool.sol\":8265:8298  currentAmount - user.lockedAmount */\n      tag_894\n      swap2\n      swap1\n      tag_419\n      jump\t// in\n    tag_894:\n        /* \"contracts/ShadowPool.sol\":8244:8298  uint256 earnAmount = currentAmount - user.lockedAmount */\n      swap1\n      pop\n        /* \"contracts/ShadowPool.sol\":8321:8344  uint256 overdueDuration */\n      0x00\n        /* \"contracts/ShadowPool.sol\":8384:8404  UNLOCK_FREE_DURATION */\n      sload(0x0e)\n        /* \"contracts/ShadowPool.sol\":8365:8369  user */\n      dup5\n        /* \"contracts/ShadowPool.sol\":8365:8381  user.lockEndTime */\n      0x05\n      add\n      sload\n        /* \"contracts/ShadowPool.sol\":8347:8362  block.timestamp */\n      timestamp\n        /* \"contracts/ShadowPool.sol\":8347:8381  block.timestamp - user.lockEndTime */\n      tag_895\n      swap2\n      swap1\n      tag_419\n      jump\t// in\n    tag_895:\n        /* \"contracts/ShadowPool.sol\":8347:8404  block.timestamp - user.lockEndTime - UNLOCK_FREE_DURATION */\n      tag_896\n      swap2\n      swap1\n      tag_419\n      jump\t// in\n    tag_896:\n        /* \"contracts/ShadowPool.sol\":8321:8404  uint256 overdueDuration = block.timestamp - user.lockEndTime - UNLOCK_FREE_DURATION */\n      swap1\n      pop\n        /* \"contracts/ShadowPool.sol\":8449:8472  DURATION_FACTOR_OVERDUE */\n      sload(0x11)\n        /* \"contracts/ShadowPool.sol\":8431:8446  overdueDuration */\n      dup2\n        /* \"contracts/ShadowPool.sol\":8431:8472  overdueDuration > DURATION_FACTOR_OVERDUE */\n      gt\n        /* \"contracts/ShadowPool.sol\":8427:8566  if (overdueDuration > DURATION_FACTOR_OVERDUE) {\r... */\n      iszero\n      tag_897\n      jumpi\n      pop\n        /* \"contracts/ShadowPool.sol\":8519:8542  DURATION_FACTOR_OVERDUE */\n      sload(0x11)\n        /* \"contracts/ShadowPool.sol\":8427:8566  if (overdueDuration > DURATION_FACTOR_OVERDUE) {\r... */\n    tag_897:\n        /* \"contracts/ShadowPool.sol\":8671:8692  uint256 overdueWeight */\n      0x00\n        /* \"contracts/ShadowPool.sol\":8728:8751  DURATION_FACTOR_OVERDUE */\n      sload(0x11)\n        /* \"contracts/ShadowPool.sol\":8714:8724  overdueFee */\n      sload(0x17)\n        /* \"contracts/ShadowPool.sol\":8696:8711  overdueDuration */\n      dup4\n        /* \"contracts/ShadowPool.sol\":8696:8724  overdueDuration * overdueFee */\n      tag_898\n      swap2\n      swap1\n      tag_411\n      jump\t// in\n    tag_898:\n        /* \"contracts/ShadowPool.sol\":8695:8751  (overdueDuration * overdueFee) / DURATION_FACTOR_OVERDUE */\n      tag_899\n      swap2\n      swap1\n      tag_413\n      jump\t// in\n    tag_899:\n        /* \"contracts/ShadowPool.sol\":8671:8751  uint256 overdueWeight = (overdueDuration * overdueFee) / DURATION_FACTOR_OVERDUE */\n      swap1\n      pop\n        /* \"contracts/ShadowPool.sol\":8774:8799  uint256 currentOverdueFee */\n      0x00\n        /* \"contracts/ShadowPool.sol\":2506:2510  1e12 */\n      0xe8d4a51000\n        /* \"contracts/ShadowPool.sol\":8803:8829  earnAmount * overdueWeight */\n      tag_900\n        /* \"contracts/ShadowPool.sol\":8671:8751  uint256 overdueWeight = (overdueDuration * overdueFee) / DURATION_FACTOR_OVERDUE */\n      dup4\n        /* \"contracts/ShadowPool.sol\":8803:8813  earnAmount */\n      dup7\n        /* \"contracts/ShadowPool.sol\":8803:8829  earnAmount * overdueWeight */\n      tag_411\n      jump\t// in\n    tag_900:\n        /* \"contracts/ShadowPool.sol\":8802:8849  (earnAmount * overdueWeight) / PRECISION_FACTOR */\n      tag_901\n      swap2\n      swap1\n      tag_413\n      jump\t// in\n    tag_901:\n        /* \"contracts/ShadowPool.sol\":8891:8899  treasury */\n      sload(0x09)\n        /* \"contracts/ShadowPool.sol\":8774:8849  uint256 currentOverdueFee = (earnAmount * overdueWeight) / PRECISION_FACTOR */\n      swap1\n      swap2\n      pop\n        /* \"contracts/ShadowPool.sol\":8872:8919  token.safeTransfer(treasury, currentOverdueFee) */\n      tag_902\n      swap1\n        /* \"contracts/ShadowPool.sol\":8891:8899  treasury */\n      0xffffffffffffffffffffffffffffffffffffffff\n        /* \"contracts/ShadowPool.sol\":8872:8877  token */\n      immutable(\"0x8d841e129c158ed00fc3618c65b249d82e3b0efc8bcebb06537fd0a18b989353\")\n        /* \"contracts/ShadowPool.sol\":8872:8890  token.safeTransfer */\n      dup2\n      and\n      swap2\n        /* \"contracts/ShadowPool.sol\":8891:8899  treasury */\n      and\n        /* \"contracts/ShadowPool.sol\":8774:8849  uint256 currentOverdueFee = (earnAmount * overdueWeight) / PRECISION_FACTOR */\n      dup4\n        /* \"contracts/ShadowPool.sol\":8872:8890  token.safeTransfer */\n      tag_651\n        /* \"contracts/ShadowPool.sol\":8872:8919  token.safeTransfer(treasury, currentOverdueFee) */\n      jump\t// in\n    tag_902:\n        /* \"contracts/ShadowPool.sol\":8942:8976  currentAmount -= currentOverdueFee */\n      tag_903\n        /* \"contracts/ShadowPool.sol\":8959:8976  currentOverdueFee */\n      dup2\n        /* \"contracts/ShadowPool.sol\":8942:8976  currentAmount -= currentOverdueFee */\n      dup7\n      tag_419\n      jump\t// in\n    tag_903:\n      swap5\n      pop\n        /* \"contracts/ShadowPool.sol\":8123:8996  if (!freeOverdueFeeUsers[_user] && ((user.lockEndTime + UNLOCK_FREE_DURATION) < block.timestamp)) {\r... */\n      pop\n      pop\n      pop\n      pop\n    tag_893:\n        /* \"contracts/ShadowPool.sol\":9064:9076  uint256 pool */\n      0x00\n        /* \"contracts/ShadowPool.sol\":9079:9090  balanceOf() */\n      tag_904\n        /* \"contracts/ShadowPool.sol\":9079:9088  balanceOf */\n      tag_214\n        /* \"contracts/ShadowPool.sol\":9079:9090  balanceOf() */\n      jump\t// in\n    tag_904:\n        /* \"contracts/ShadowPool.sol\":9064:9090  uint256 pool = balanceOf() */\n      swap1\n      pop\n        /* \"contracts/ShadowPool.sol\":9109:9130  uint256 currentShares */\n      0x00\n        /* \"contracts/ShadowPool.sol\":9153:9164  totalShares */\n      sload(0x07)\n        /* \"contracts/ShadowPool.sol\":9168:9169  0 */\n      0x00\n        /* \"contracts/ShadowPool.sol\":9153:9169  totalShares != 0 */\n      eq\n        /* \"contracts/ShadowPool.sol\":9149:9362  if (totalShares != 0) {\r... */\n      tag_905\n      jumpi\n        /* \"contracts/ShadowPool.sol\":9243:9263  pool - currentAmount */\n      tag_906\n        /* \"contracts/ShadowPool.sol\":9250:9263  currentAmount */\n      dup4\n        /* \"contracts/ShadowPool.sol\":9243:9247  pool */\n      dup4\n        /* \"contracts/ShadowPool.sol\":9243:9263  pool - currentAmount */\n      tag_419\n      jump\t// in\n    tag_906:\n        /* \"contracts/ShadowPool.sol\":9227:9238  totalShares */\n      sload(0x07)\n        /* \"contracts/ShadowPool.sol\":9211:9238  currentAmount * totalShares */\n      tag_907\n      swap1\n        /* \"contracts/ShadowPool.sol\":9211:9224  currentAmount */\n      dup6\n        /* \"contracts/ShadowPool.sol\":9211:9238  currentAmount * totalShares */\n      tag_411\n      jump\t// in\n    tag_907:\n        /* \"contracts/ShadowPool.sol\":9210:9264  (currentAmount * totalShares) / (pool - currentAmount) */\n      tag_908\n      swap2\n      swap1\n      tag_413\n      jump\t// in\n    tag_908:\n        /* \"contracts/ShadowPool.sol\":9194:9264  currentShares = (currentAmount * totalShares) / (pool - currentAmount) */\n      swap1\n      pop\n        /* \"contracts/ShadowPool.sol\":9149:9362  if (totalShares != 0) {\r... */\n      jump(tag_909)\n    tag_905:\n      pop\n        /* \"contracts/ShadowPool.sol\":9329:9342  currentAmount */\n      dup2\n        /* \"contracts/ShadowPool.sol\":9149:9362  if (totalShares != 0) {\r... */\n    tag_909:\n        /* \"contracts/ShadowPool.sol\":9380:9407  user.shares = currentShares */\n      dup1\n      dup5\n      sstore\n        /* \"contracts/ShadowPool.sol\":9426:9437  totalShares */\n      0x07\n        /* \"contracts/ShadowPool.sol\":9426:9454  totalShares += currentShares */\n      dup1\n      sload\n        /* \"contracts/ShadowPool.sol\":9394:9407  currentShares */\n      dup3\n      swap2\n        /* \"contracts/ShadowPool.sol\":9426:9437  totalShares */\n      swap1\n        /* \"contracts/ShadowPool.sol\":9380:9391  user.shares */\n      0x00\n      swap1\n        /* \"contracts/ShadowPool.sol\":9426:9454  totalShares += currentShares */\n      tag_910\n      swap1\n        /* \"contracts/ShadowPool.sol\":9394:9407  currentShares */\n      dup5\n      swap1\n        /* \"contracts/ShadowPool.sol\":9426:9454  totalShares += currentShares */\n      tag_405\n      jump\t// in\n    tag_910:\n      swap1\n      swap2\n      sstore\n      pop\n      pop\n        /* \"contracts/ShadowPool.sol\":9549:9565  user.lockEndTime */\n      0x05\n      dup5\n      add\n      sload\n        /* \"contracts/ShadowPool.sol\":9568:9583  block.timestamp */\n      timestamp\n      gt\n        /* \"contracts/ShadowPool.sol\":9545:9913  if (user.lockEndTime < block.timestamp) {\r... */\n      iszero\n      tag_911\n      jumpi\n        /* \"contracts/ShadowPool.sol\":9608:9619  user.locked */\n      0x07\n      dup5\n      add\n        /* \"contracts/ShadowPool.sol\":9608:9627  user.locked = false */\n      dup1\n      sload\n      0xffffffffffffffffffffffffffffffffffffffffffffffffffffffffffffff00\n      and\n      swap1\n      sstore\n        /* \"contracts/ShadowPool.sol\":9622:9627  false */\n      0x00\n        /* \"contracts/ShadowPool.sol\":9650:9668  user.lockStartTime */\n      0x04\n      dup6\n      add\n        /* \"contracts/ShadowPool.sol\":9650:9672  user.lockStartTime = 0 */\n      dup2\n      swap1\n      sstore\n        /* \"contracts/ShadowPool.sol\":9695:9711  user.lockEndTime */\n      0x05\n      dup6\n      add\n        /* \"contracts/ShadowPool.sol\":9695:9715  user.lockEndTime = 0 */\n      dup2\n      swap1\n      sstore\n        /* \"contracts/ShadowPool.sol\":9759:9776  user.lockedAmount */\n      0x08\n      dup6\n      add\n      sload\n        /* \"contracts/ShadowPool.sol\":9738:9755  totalLockedAmount */\n      0x0d\n        /* \"contracts/ShadowPool.sol\":9738:9776  totalLockedAmount -= user.lockedAmount */\n      dup1\n      sload\n        /* \"contracts/ShadowPool.sol\":9759:9776  user.lockedAmount */\n      swap2\n      swap3\n        /* \"contracts/ShadowPool.sol\":9738:9755  totalLockedAmount */\n      swap1\n      swap2\n        /* \"contracts/ShadowPool.sol\":9738:9776  totalLockedAmount -= user.lockedAmount */\n      tag_912\n      swap1\n        /* \"contracts/ShadowPool.sol\":9759:9776  user.lockedAmount */\n      dup5\n      swap1\n        /* \"contracts/ShadowPool.sol\":9738:9776  totalLockedAmount -= user.lockedAmount */\n      tag_419\n      jump\t// in\n    tag_912:\n      swap1\n      swap2\n      sstore\n      pop\n      pop\n        /* \"contracts/ShadowPool.sol\":9819:9820  0 */\n      0x00\n        /* \"contracts/ShadowPool.sol\":9799:9816  user.lockedAmount */\n      0x08\n      dup6\n      add\n        /* \"contracts/ShadowPool.sol\":9799:9820  user.lockedAmount = 0 */\n      sstore\n        /* \"contracts/ShadowPool.sol\":9848:9893  Unlock(_user, currentAmount, block.timestamp) */\n      mload(0x40)\n      0xffffffffffffffffffffffffffffffffffffffff\n      dup7\n      and\n      swap1\n      0xf7870c5b224cbc19873599e46ccfc7103934650509b1af0c3ce90138377c2004\n      swap1\n      tag_913\n      swap1\n        /* \"contracts/ShadowPool.sol\":9862:9875  currentAmount */\n      dup7\n      swap1\n        /* \"contracts/ShadowPool.sol\":9877:9892  block.timestamp */\n      timestamp\n      swap1\n        /* \"contracts/ShadowPool.sol\":9848:9893  Unlock(_user, currentAmount, block.timestamp) */\n      tag_875\n      jump\t// in\n    tag_913:\n      mload(0x40)\n      dup1\n      swap2\n      sub\n      swap1\n      log2\n        /* \"contracts/ShadowPool.sol\":9545:9913  if (user.lockEndTime < block.timestamp) {\r... */\n    tag_911:\n        /* \"contracts/ShadowPool.sol\":7660:11158  if (user.locked) {\r... */\n      pop\n      pop\n      pop\n      jump(tag_650)\n    tag_884:\n        /* \"contracts/ShadowPool.sol\":9939:9969  freePerformanceFeeUsers[_user] */\n      0xffffffffffffffffffffffffffffffffffffffff\n      dup3\n      and\n      0x00\n      swap1\n      dup2\n      mstore\n        /* \"contracts/ShadowPool.sol\":9939:9962  freePerformanceFeeUsers */\n      0x04\n        /* \"contracts/ShadowPool.sol\":9939:9969  freePerformanceFeeUsers[_user] */\n      0x20\n      mstore\n      0x40\n      swap1\n      keccak256\n      sload\n      0xff\n      and\n        /* \"contracts/ShadowPool.sol\":9934:11158  if (!freePerformanceFeeUsers[_user]) {\r... */\n      tag_650\n      jumpi\n        /* \"contracts/ShadowPool.sol\":10037:10056  uint256 totalAmount */\n      0x00\n        /* \"contracts/ShadowPool.sol\":10089:10100  totalShares */\n      sload(0x07)\n        /* \"contracts/ShadowPool.sol\":10074:10085  balanceOf() */\n      tag_916\n        /* \"contracts/ShadowPool.sol\":10074:10083  balanceOf */\n      tag_214\n        /* \"contracts/ShadowPool.sol\":10074:10085  balanceOf() */\n      jump\t// in\n    tag_916:\n        /* \"contracts/ShadowPool.sol\":10060:10071  user.shares */\n      dup4\n      sload\n        /* \"contracts/ShadowPool.sol\":10060:10085  user.shares * balanceOf() */\n      tag_917\n      swap2\n      swap1\n      tag_411\n      jump\t// in\n    tag_917:\n        /* \"contracts/ShadowPool.sol\":10059:10100  (user.shares * balanceOf()) / totalShares */\n      tag_918\n      swap2\n      swap1\n      tag_413\n      jump\t// in\n    tag_918:\n        /* \"contracts/ShadowPool.sol\":10037:10100  uint256 totalAmount = (user.shares * balanceOf()) / totalShares */\n      swap1\n      pop\n        /* \"contracts/ShadowPool.sol\":10134:10138  user */\n      dup2\n        /* \"contracts/ShadowPool.sol\":10134:10145  user.shares */\n      0x00\n      add\n      sload\n        /* \"contracts/ShadowPool.sol\":10119:10130  totalShares */\n      0x07\n      0x00\n        /* \"contracts/ShadowPool.sol\":10119:10145  totalShares -= user.shares */\n      dup3\n      dup3\n      sload\n      tag_919\n      swap2\n      swap1\n      tag_419\n      jump\t// in\n    tag_919:\n      swap1\n      swap2\n      sstore\n      pop\n      pop\n        /* \"contracts/ShadowPool.sol\":10178:10179  0 */\n      0x00\n        /* \"contracts/ShadowPool.sol\":10164:10179  user.shares = 0 */\n      dup1\n      dup4\n      sstore\n        /* \"contracts/ShadowPool.sol\":10233:10258  user.shdwAtLastUserAction */\n      0x02\n      dup4\n      add\n      sload\n        /* \"contracts/ShadowPool.sol\":10219:10258  totalAmount - user.shdwAtLastUserAction */\n      tag_920\n      swap1\n        /* \"contracts/ShadowPool.sol\":10219:10230  totalAmount */\n      dup4\n        /* \"contracts/ShadowPool.sol\":10219:10258  totalAmount - user.shdwAtLastUserAction */\n      tag_419\n      jump\t// in\n    tag_920:\n        /* \"contracts/ShadowPool.sol\":10295:10309  performanceFee */\n      sload(0x13)\n        /* \"contracts/ShadowPool.sol\":10198:10258  uint256 earnAmount = totalAmount - user.shdwAtLastUserAction */\n      swap1\n      swap2\n      pop\n        /* \"contracts/ShadowPool.sol\":10332:10350  _isContract(_user) */\n      tag_921\n        /* \"contracts/ShadowPool.sol\":10344:10349  _user */\n      dup6\n        /* \"contracts/ShadowPool.sol\":10332:10343  _isContract */\n      tag_424\n        /* \"contracts/ShadowPool.sol\":10332:10350  _isContract(_user) */\n      jump\t// in\n    tag_921:\n        /* \"contracts/ShadowPool.sol\":10328:10427  if (_isContract(_user)) {\r... */\n      iszero\n      tag_922\n      jumpi\n      pop\n        /* \"contracts/ShadowPool.sol\":10385:10407  performanceFeeContract */\n      sload(0x14)\n        /* \"contracts/ShadowPool.sol\":10328:10427  if (_isContract(_user)) {\r... */\n    tag_922:\n        /* \"contracts/ShadowPool.sol\":10445:10474  uint256 currentPerformanceFee */\n      0x00\n        /* \"contracts/ShadowPool.sol\":10502:10507  10000 */\n      0x2710\n        /* \"contracts/ShadowPool.sol\":10478:10498  earnAmount * feeRate */\n      tag_923\n        /* \"contracts/ShadowPool.sol\":10491:10498  feeRate */\n      dup4\n        /* \"contracts/ShadowPool.sol\":10478:10488  earnAmount */\n      dup6\n        /* \"contracts/ShadowPool.sol\":10478:10498  earnAmount * feeRate */\n      tag_411\n      jump\t// in\n    tag_923:\n        /* \"contracts/ShadowPool.sol\":10477:10507  (earnAmount * feeRate) / 10000 */\n      tag_924\n      swap2\n      swap1\n      tag_413\n      jump\t// in\n    tag_924:\n        /* \"contracts/ShadowPool.sol\":10445:10507  uint256 currentPerformanceFee = (earnAmount * feeRate) / 10000 */\n      swap1\n      pop\n        /* \"contracts/ShadowPool.sol\":10530:10555  currentPerformanceFee > 0 */\n      dup1\n      iszero\n        /* \"contracts/ShadowPool.sol\":10526:10710  if (currentPerformanceFee > 0) {\r... */\n      tag_925\n      jumpi\n        /* \"contracts/ShadowPool.sol\":10599:10607  treasury */\n      sload(0x09)\n        /* \"contracts/ShadowPool.sol\":10580:10631  token.safeTransfer(treasury, currentPerformanceFee) */\n      tag_926\n      swap1\n        /* \"contracts/ShadowPool.sol\":10599:10607  treasury */\n      0xffffffffffffffffffffffffffffffffffffffff\n        /* \"contracts/ShadowPool.sol\":10580:10585  token */\n      immutable(\"0x8d841e129c158ed00fc3618c65b249d82e3b0efc8bcebb06537fd0a18b989353\")\n        /* \"contracts/ShadowPool.sol\":10580:10598  token.safeTransfer */\n      dup2\n      and\n      swap2\n        /* \"contracts/ShadowPool.sol\":10599:10607  treasury */\n      and\n        /* \"contracts/ShadowPool.sol\":10609:10630  currentPerformanceFee */\n      dup4\n        /* \"contracts/ShadowPool.sol\":10580:10598  token.safeTransfer */\n      tag_651\n        /* \"contracts/ShadowPool.sol\":10580:10631  token.safeTransfer(treasury, currentPerformanceFee) */\n      jump\t// in\n    tag_926:\n        /* \"contracts/ShadowPool.sol\":10654:10690  totalAmount -= currentPerformanceFee */\n      tag_927\n        /* \"contracts/ShadowPool.sol\":10669:10690  currentPerformanceFee */\n      dup2\n        /* \"contracts/ShadowPool.sol\":10654:10690  totalAmount -= currentPerformanceFee */\n      dup6\n      tag_419\n      jump\t// in\n    tag_927:\n      swap4\n      pop\n        /* \"contracts/ShadowPool.sol\":10526:10710  if (currentPerformanceFee > 0) {\r... */\n    tag_925:\n        /* \"contracts/ShadowPool.sol\":10778:10790  uint256 pool */\n      0x00\n        /* \"contracts/ShadowPool.sol\":10793:10804  balanceOf() */\n      tag_928\n        /* \"contracts/ShadowPool.sol\":10793:10802  balanceOf */\n      tag_214\n        /* \"contracts/ShadowPool.sol\":10793:10804  balanceOf() */\n      jump\t// in\n    tag_928:\n        /* \"contracts/ShadowPool.sol\":10778:10804  uint256 pool = balanceOf() */\n      swap1\n      pop\n        /* \"contracts/ShadowPool.sol\":10823:10840  uint256 newShares */\n      0x00\n        /* \"contracts/ShadowPool.sol\":10863:10874  totalShares */\n      sload(0x07)\n        /* \"contracts/ShadowPool.sol\":10878:10879  0 */\n      0x00\n        /* \"contracts/ShadowPool.sol\":10863:10879  totalShares != 0 */\n      eq\n        /* \"contracts/ShadowPool.sol\":10859:11058  if (totalShares != 0) {\r... */\n      tag_929\n      jumpi\n        /* \"contracts/ShadowPool.sol\":10947:10965  pool - totalAmount */\n      tag_930\n        /* \"contracts/ShadowPool.sol\":10954:10965  totalAmount */\n      dup7\n        /* \"contracts/ShadowPool.sol\":10947:10951  pool */\n      dup4\n        /* \"contracts/ShadowPool.sol\":10947:10965  pool - totalAmount */\n      tag_419\n      jump\t// in\n    tag_930:\n        /* \"contracts/ShadowPool.sol\":10931:10942  totalShares */\n      sload(0x07)\n        /* \"contracts/ShadowPool.sol\":10917:10942  totalAmount * totalShares */\n      tag_931\n      swap1\n        /* \"contracts/ShadowPool.sol\":10917:10928  totalAmount */\n      dup9\n        /* \"contracts/ShadowPool.sol\":10917:10942  totalAmount * totalShares */\n      tag_411\n      jump\t// in\n    tag_931:\n        /* \"contracts/ShadowPool.sol\":10916:10966  (totalAmount * totalShares) / (pool - totalAmount) */\n      tag_932\n      swap2\n      swap1\n      tag_413\n      jump\t// in\n    tag_932:\n        /* \"contracts/ShadowPool.sol\":10904:10966  newShares = (totalAmount * totalShares) / (pool - totalAmount) */\n      swap1\n      pop\n        /* \"contracts/ShadowPool.sol\":10859:11058  if (totalShares != 0) {\r... */\n      jump(tag_933)\n    tag_929:\n      pop\n        /* \"contracts/ShadowPool.sol\":11027:11038  totalAmount */\n      dup5\n        /* \"contracts/ShadowPool.sol\":10859:11058  if (totalShares != 0) {\r... */\n    tag_933:\n        /* \"contracts/ShadowPool.sol\":11076:11099  user.shares = newShares */\n      dup1\n      dup8\n      sstore\n        /* \"contracts/ShadowPool.sol\":11118:11129  totalShares */\n      0x07\n        /* \"contracts/ShadowPool.sol\":11118:11142  totalShares += newShares */\n      dup1\n      sload\n        /* \"contracts/ShadowPool.sol\":11090:11099  newShares */\n      dup3\n      swap2\n        /* \"contracts/ShadowPool.sol\":11118:11129  totalShares */\n      swap1\n        /* \"contracts/ShadowPool.sol\":11076:11087  user.shares */\n      0x00\n      swap1\n        /* \"contracts/ShadowPool.sol\":11118:11142  totalShares += newShares */\n      tag_934\n      swap1\n        /* \"contracts/ShadowPool.sol\":11090:11099  newShares */\n      dup5\n      swap1\n        /* \"contracts/ShadowPool.sol\":11118:11142  totalShares += newShares */\n      tag_405\n      jump\t// in\n    tag_934:\n      swap1\n      swap2\n      sstore\n      pop\n      pop\n      pop\n      pop\n      pop\n      pop\n      pop\n      pop\n        /* \"contracts/ShadowPool.sol\":7514:11176  function updateUserShare(address _user) internal {\r... */\n      pop\n      pop\n      jump\t// out\n        /* \"contracts/ShadowPool.sol\":6895:7381  function updateBoostContractInfo(address _user) internal {\r... */\n    tag_758:\n        /* \"contracts/ShadowPool.sol\":6967:6980  boostContract */\n      sload(0x01)\n        /* \"contracts/ShadowPool.sol\":6967:6994  boostContract != address(0) */\n      0xffffffffffffffffffffffffffffffffffffffff\n        /* \"contracts/ShadowPool.sol\":6967:6980  boostContract */\n      and\n        /* \"contracts/ShadowPool.sol\":6967:6994  boostContract != address(0) */\n      iszero\n        /* \"contracts/ShadowPool.sol\":6963:7374  if (boostContract != address(0)) {\r... */\n      tag_435\n      jumpi\n        /* \"contracts/ShadowPool.sol\":7035:7050  userInfo[_user] */\n      0xffffffffffffffffffffffffffffffffffffffff\n      dup2\n      and\n        /* \"contracts/ShadowPool.sol\":7011:7032  UserInfo storage user */\n      0x00\n        /* \"contracts/ShadowPool.sol\":7035:7050  userInfo[_user] */\n      swap1\n      dup2\n      mstore\n        /* \"contracts/ShadowPool.sol\":7035:7043  userInfo */\n      0x03\n        /* \"contracts/ShadowPool.sol\":7035:7050  userInfo[_user] */\n      0x20\n      mstore\n      0x40\n      dup2\n      keccak256\n        /* \"contracts/ShadowPool.sol\":7107:7125  user.lockStartTime */\n      0x04\n      dup2\n      add\n      sload\n        /* \"contracts/ShadowPool.sol\":7088:7104  user.lockEndTime */\n      0x05\n      dup3\n      add\n      sload\n        /* \"contracts/ShadowPool.sol\":7035:7050  userInfo[_user] */\n      swap2\n      swap3\n        /* \"contracts/ShadowPool.sol\":7011:7032  UserInfo storage user */\n      swap2\n        /* \"contracts/ShadowPool.sol\":7088:7125  user.lockEndTime - user.lockStartTime */\n      tag_937\n      swap2\n        /* \"contracts/ShadowPool.sol\":7107:7125  user.lockStartTime */\n      swap1\n        /* \"contracts/ShadowPool.sol\":7088:7125  user.lockEndTime - user.lockStartTime */\n      tag_419\n      jump\t// in\n    tag_937:\n        /* \"contracts/ShadowPool.sol\":7155:7168  boostContract */\n      sload(0x01)\n        /* \"contracts/ShadowPool.sol\":7229:7246  user.lockedAmount */\n      0x08\n      dup5\n      add\n      sload\n        /* \"contracts/ShadowPool.sol\":7296:7313  totalLockedAmount */\n      sload(0x0d)\n        /* \"contracts/ShadowPool.sol\":7332:7347  DURATION_FACTOR */\n      sload(0x10)\n        /* \"contracts/ShadowPool.sol\":7140:7362  IBoostContract(boostContract).onShdwPoolUpdate(\r... */\n      mload(0x40)\n      0x87356ef700000000000000000000000000000000000000000000000000000000\n      dup2\n      mstore\n        /* \"contracts/ShadowPool.sol\":7065:7125  uint256 lockDuration = user.lockEndTime - user.lockStartTime */\n      swap5\n      swap6\n      pop\n        /* \"contracts/ShadowPool.sol\":7155:7168  boostContract */\n      0xffffffffffffffffffffffffffffffffffffffff\n      swap1\n      swap4\n      and\n      swap4\n        /* \"contracts/ShadowPool.sol\":7140:7186  IBoostContract(boostContract).onShdwPoolUpdate */\n      0x87356ef7\n      swap4\n        /* \"contracts/ShadowPool.sol\":7140:7362  IBoostContract(boostContract).onShdwPoolUpdate(\r... */\n      tag_938\n      swap4\n        /* \"contracts/ShadowPool.sol\":7205:7210  _user */\n      dup10\n      swap4\n        /* \"contracts/ShadowPool.sol\":7229:7246  user.lockedAmount */\n      swap1\n      swap3\n        /* \"contracts/ShadowPool.sol\":7065:7125  uint256 lockDuration = user.lockEndTime - user.lockStartTime */\n      dup9\n      swap3\n        /* \"contracts/ShadowPool.sol\":7332:7347  DURATION_FACTOR */\n      swap1\n        /* \"contracts/ShadowPool.sol\":7140:7362  IBoostContract(boostContract).onShdwPoolUpdate(\r... */\n      0x04\n      add\n      tag_939\n      jump\t// in\n    tag_938:\n      0x00\n      mload(0x40)\n      dup1\n      dup4\n      sub\n      dup2\n      0x00\n      dup8\n      dup1\n      extcodesize\n      iszero\n      dup1\n      iszero\n      tag_940\n      jumpi\n      0x00\n      dup1\n      revert\n    tag_940:\n      pop\n      gas\n      call\n      iszero\n      dup1\n      iszero\n      tag_942\n      jumpi\n      returndatasize\n      0x00\n      dup1\n      returndatacopy\n      revert(0x00, returndatasize)\n    tag_942:\n      pop\n      pop\n      pop\n      pop\n        /* \"contracts/ShadowPool.sol\":6963:7374  if (boostContract != address(0)) {\r... */\n      pop\n      pop\n        /* \"contracts/ShadowPool.sol\":6895:7381  function updateBoostContractInfo(address _user) internal {\r... */\n      pop\n      jump\t// out\n        /* \"@openzeppelin/contracts/utils/Address.sol\":3861:4084  function functionCall(... */\n    tag_860:\n        /* \"@openzeppelin/contracts/utils/Address.sol\":3994:4006  bytes memory */\n      0x60\n        /* \"@openzeppelin/contracts/utils/Address.sol\":4025:4077  functionCallWithValue(target, data, 0, errorMessage) */\n      tag_944\n        /* \"@openzeppelin/contracts/utils/Address.sol\":4047:4053  target */\n      dup5\n        /* \"@openzeppelin/contracts/utils/Address.sol\":4055:4059  data */\n      dup5\n        /* \"@openzeppelin/contracts/utils/Address.sol\":4061:4062  0 */\n      0x00\n        /* \"@openzeppelin/contracts/utils/Address.sol\":4064:4076  errorMessage */\n      dup6\n        /* \"@openzeppelin/contracts/utils/Address.sol\":4025:4046  functionCallWithValue */\n      tag_945\n        /* \"@openzeppelin/contracts/utils/Address.sol\":4025:4077  functionCallWithValue(target, data, 0, errorMessage) */\n      jump\t// in\n    tag_944:\n        /* \"@openzeppelin/contracts/utils/Address.sol\":4018:4077  return functionCallWithValue(target, data, 0, errorMessage) */\n      swap1\n      pop\n        /* \"@openzeppelin/contracts/utils/Address.sol\":3861:4084  function functionCall(... */\n    tag_943:\n      swap4\n      swap3\n      pop\n      pop\n      pop\n      jump\t// out\n        /* \"@openzeppelin/contracts/utils/Address.sol\":4948:5447  function functionCallWithValue(... */\n    tag_945:\n        /* \"@openzeppelin/contracts/utils/Address.sol\":5113:5125  bytes memory */\n      0x60\n        /* \"@openzeppelin/contracts/utils/Address.sol\":5170:5175  value */\n      dup3\n        /* \"@openzeppelin/contracts/utils/Address.sol\":5145:5166  address(this).balance */\n      selfbalance\n        /* \"@openzeppelin/contracts/utils/Address.sol\":5145:5175  address(this).balance >= value */\n      lt\n      iszero\n        /* \"@openzeppelin/contracts/utils/Address.sol\":5137:5218  require(address(this).balance >= value, \"Address: insufficient balance for call\") */\n      tag_947\n      jumpi\n      mload(0x40)\n      0x08c379a000000000000000000000000000000000000000000000000000000000\n      dup2\n      mstore\n      0x04\n      add\n      tag_351\n      swap1\n      tag_949\n      jump\t// in\n    tag_947:\n        /* \"@openzeppelin/contracts/utils/Address.sol\":5236:5254  isContract(target) */\n      tag_950\n        /* \"@openzeppelin/contracts/utils/Address.sol\":5247:5253  target */\n      dup6\n        /* \"@openzeppelin/contracts/utils/Address.sol\":5236:5246  isContract */\n      tag_951\n        /* \"@openzeppelin/contracts/utils/Address.sol\":5236:5254  isContract(target) */\n      jump\t// in\n    tag_950:\n        /* \"@openzeppelin/contracts/utils/Address.sol\":5228:5288  require(isContract(target), \"Address: call to non-contract\") */\n      tag_952\n      jumpi\n      mload(0x40)\n      0x08c379a000000000000000000000000000000000000000000000000000000000\n      dup2\n      mstore\n      0x04\n      add\n      tag_351\n      swap1\n      tag_954\n      jump\t// in\n    tag_952:\n        /* \"@openzeppelin/contracts/utils/Address.sol\":5300:5312  bool success */\n      0x00\n        /* \"@openzeppelin/contracts/utils/Address.sol\":5314:5337  bytes memory returndata */\n      dup1\n        /* \"@openzeppelin/contracts/utils/Address.sol\":5341:5347  target */\n      dup7\n        /* \"@openzeppelin/contracts/utils/Address.sol\":5341:5352  target.call */\n      0xffffffffffffffffffffffffffffffffffffffff\n      and\n        /* \"@openzeppelin/contracts/utils/Address.sol\":5360:5365  value */\n      dup6\n        /* \"@openzeppelin/contracts/utils/Address.sol\":5367:5371  data */\n      dup8\n        /* \"@openzeppelin/contracts/utils/Address.sol\":5341:5372  target.call{value: value}(data) */\n      mload(0x40)\n      tag_955\n      swap2\n      swap1\n      tag_956\n      jump\t// in\n    tag_955:\n      0x00\n      mload(0x40)\n      dup1\n      dup4\n      sub\n      dup2\n      dup6\n      dup8\n      gas\n      call\n      swap3\n      pop\n      pop\n      pop\n      returndatasize\n      dup1\n      0x00\n      dup2\n      eq\n      tag_959\n      jumpi\n      mload(0x40)\n      swap2\n      pop\n      and(add(returndatasize, 0x3f), not(0x1f))\n      dup3\n      add\n      0x40\n      mstore\n      returndatasize\n      dup3\n      mstore\n      returndatasize\n      0x00\n      0x20\n      dup5\n      add\n      returndatacopy\n      jump(tag_958)\n    tag_959:\n      0x60\n      swap2\n      pop\n    tag_958:\n      pop\n        /* \"@openzeppelin/contracts/utils/Address.sol\":5299:5372  (bool success, bytes memory returndata) = target.call{value: value}(data) */\n      swap2\n      pop\n      swap2\n      pop\n        /* \"@openzeppelin/contracts/utils/Address.sol\":5389:5440  verifyCallResult(success, returndata, errorMessage) */\n      tag_960\n        /* \"@openzeppelin/contracts/utils/Address.sol\":5406:5413  success */\n      dup3\n        /* \"@openzeppelin/contracts/utils/Address.sol\":5415:5425  returndata */\n      dup3\n        /* \"@openzeppelin/contracts/utils/Address.sol\":5427:5439  errorMessage */\n      dup7\n        /* \"@openzeppelin/contracts/utils/Address.sol\":5389:5405  verifyCallResult */\n      tag_961\n        /* \"@openzeppelin/contracts/utils/Address.sol\":5389:5440  verifyCallResult(success, returndata, errorMessage) */\n      jump\t// in\n    tag_960:\n        /* \"@openzeppelin/contracts/utils/Address.sol\":5382:5440  return verifyCallResult(success, returndata, errorMessage) */\n      swap8\n        /* \"@openzeppelin/contracts/utils/Address.sol\":4948:5447  function functionCallWithValue(... */\n      swap7\n      pop\n      pop\n      pop\n      pop\n      pop\n      pop\n      pop\n      jump\t// out\n        /* \"@openzeppelin/contracts/utils/Address.sol\":1175:1495  function isContract(address account) internal view returns (bool) {... */\n    tag_951:\n        /* \"@openzeppelin/contracts/utils/Address.sol\":1465:1484  account.code.length */\n      0xffffffffffffffffffffffffffffffffffffffff\n      and\n      extcodesize\n        /* \"@openzeppelin/contracts/utils/Address.sol\":1465:1488  account.code.length > 0 */\n      iszero\n      iszero\n      swap1\n        /* \"@openzeppelin/contracts/utils/Address.sol\":1175:1495  function isContract(address account) internal view returns (bool) {... */\n      jump\t// out\n        /* \"@openzeppelin/contracts/utils/Address.sol\":7561:8303  function verifyCallResult(... */\n    tag_961:\n        /* \"@openzeppelin/contracts/utils/Address.sol\":7707:7719  bytes memory */\n      0x60\n        /* \"@openzeppelin/contracts/utils/Address.sol\":7735:7742  success */\n      dup4\n        /* \"@openzeppelin/contracts/utils/Address.sol\":7731:8297  if (success) {... */\n      iszero\n      tag_964\n      jumpi\n      pop\n        /* \"@openzeppelin/contracts/utils/Address.sol\":7765:7775  returndata */\n      dup2\n        /* \"@openzeppelin/contracts/utils/Address.sol\":7758:7775  return returndata */\n      jump(tag_943)\n        /* \"@openzeppelin/contracts/utils/Address.sol\":7731:8297  if (success) {... */\n    tag_964:\n        /* \"@openzeppelin/contracts/utils/Address.sol\":7876:7893  returndata.length */\n      dup3\n      mload\n        /* \"@openzeppelin/contracts/utils/Address.sol\":7876:7897  returndata.length > 0 */\n      iszero\n        /* \"@openzeppelin/contracts/utils/Address.sol\":7872:8287  if (returndata.length > 0) {... */\n      tag_966\n      jumpi\n        /* \"@openzeppelin/contracts/utils/Address.sol\":8120:8130  returndata */\n      dup3\n        /* \"@openzeppelin/contracts/utils/Address.sol\":8114:8131  mload(returndata) */\n      mload\n        /* \"@openzeppelin/contracts/utils/Address.sol\":8180:8195  returndata_size */\n      dup1\n        /* \"@openzeppelin/contracts/utils/Address.sol\":8167:8177  returndata */\n      dup5\n        /* \"@openzeppelin/contracts/utils/Address.sol\":8163:8165  32 */\n      0x20\n        /* \"@openzeppelin/contracts/utils/Address.sol\":8159:8178  add(32, returndata) */\n      add\n        /* \"@openzeppelin/contracts/utils/Address.sol\":8152:8196  revert(add(32, returndata), returndata_size) */\n      revert\n        /* \"@openzeppelin/contracts/utils/Address.sol\":8069:8214  {... */\n    tag_966:\n        /* \"@openzeppelin/contracts/utils/Address.sol\":8259:8271  errorMessage */\n      dup2\n        /* \"@openzeppelin/contracts/utils/Address.sol\":8252:8272  revert(errorMessage) */\n      mload(0x40)\n      0x08c379a000000000000000000000000000000000000000000000000000000000\n      dup2\n      mstore\n      0x04\n      add\n      tag_351\n      swap2\n      swap1\n      tag_969\n      jump\t// in\n        /* \"#utility.yul\":14:273   */\n    tag_122:\n      0x00\n        /* \"#utility.yul\":126:128   */\n      0x20\n        /* \"#utility.yul\":114:123   */\n      dup3\n        /* \"#utility.yul\":105:112   */\n      dup5\n        /* \"#utility.yul\":101:124   */\n      sub\n        /* \"#utility.yul\":97:129   */\n      slt\n        /* \"#utility.yul\":94:96   */\n      iszero\n      tag_972\n      jumpi\n        /* \"#utility.yul\":147:153   */\n      dup1\n        /* \"#utility.yul\":139:145   */\n      dup2\n        /* \"#utility.yul\":132:154   */\n      revert\n        /* \"#utility.yul\":94:96   */\n    tag_972:\n        /* \"#utility.yul\":191:200   */\n      dup2\n        /* \"#utility.yul\":178:201   */\n      calldataload\n        /* \"#utility.yul\":210:243   */\n      tag_943\n        /* \"#utility.yul\":237:242   */\n      dup2\n        /* \"#utility.yul\":210:243   */\n      tag_974\n      jump\t// in\n        /* \"#utility.yul\":278:674   */\n    tag_168:\n      0x00\n      dup1\n        /* \"#utility.yul\":404:406   */\n      0x40\n        /* \"#utility.yul\":392:401   */\n      dup4\n        /* \"#utility.yul\":383:390   */\n      dup6\n        /* \"#utility.yul\":379:402   */\n      sub\n        /* \"#utility.yul\":375:407   */\n      slt\n        /* \"#utility.yul\":372:374   */\n      iszero\n      tag_976\n      jumpi\n        /* \"#utility.yul\":425:431   */\n      dup1\n        /* \"#utility.yul\":417:423   */\n      dup2\n        /* \"#utility.yul\":410:432   */\n      revert\n        /* \"#utility.yul\":372:374   */\n    tag_976:\n        /* \"#utility.yul\":469:478   */\n      dup3\n        /* \"#utility.yul\":456:479   */\n      calldataload\n        /* \"#utility.yul\":488:521   */\n      tag_977\n        /* \"#utility.yul\":515:520   */\n      dup2\n        /* \"#utility.yul\":488:521   */\n      tag_974\n      jump\t// in\n    tag_977:\n        /* \"#utility.yul\":540:545   */\n      swap2\n      pop\n        /* \"#utility.yul\":597:599   */\n      0x20\n        /* \"#utility.yul\":582:600   */\n      dup4\n      add\n        /* \"#utility.yul\":569:601   */\n      calldataload\n        /* \"#utility.yul\":610:642   */\n      tag_978\n        /* \"#utility.yul\":569:601   */\n      dup2\n        /* \"#utility.yul\":610:642   */\n      tag_979\n      jump\t// in\n    tag_978:\n        /* \"#utility.yul\":661:668   */\n      dup1\n        /* \"#utility.yul\":651:668   */\n      swap2\n      pop\n      pop\n        /* \"#utility.yul\":362:674   */\n      swap3\n      pop\n      swap3\n      swap1\n      pop\n      jump\t// out\n        /* \"#utility.yul\":679:1006   */\n    tag_138:\n      0x00\n      dup1\n        /* \"#utility.yul\":808:810   */\n      0x40\n        /* \"#utility.yul\":796:805   */\n      dup4\n        /* \"#utility.yul\":787:794   */\n      dup6\n        /* \"#utility.yul\":783:806   */\n      sub\n        /* \"#utility.yul\":779:811   */\n      slt\n        /* \"#utility.yul\":776:778   */\n      iszero\n      tag_981\n      jumpi\n        /* \"#utility.yul\":829:835   */\n      dup2\n        /* \"#utility.yul\":821:827   */\n      dup3\n        /* \"#utility.yul\":814:836   */\n      revert\n        /* \"#utility.yul\":776:778   */\n    tag_981:\n        /* \"#utility.yul\":873:882   */\n      dup3\n        /* \"#utility.yul\":860:883   */\n      calldataload\n        /* \"#utility.yul\":892:925   */\n      tag_982\n        /* \"#utility.yul\":919:924   */\n      dup2\n        /* \"#utility.yul\":892:925   */\n      tag_974\n      jump\t// in\n    tag_982:\n        /* \"#utility.yul\":944:949   */\n      swap5\n        /* \"#utility.yul\":996:998   */\n      0x20\n        /* \"#utility.yul\":981:999   */\n      swap4\n      swap1\n      swap4\n      add\n        /* \"#utility.yul\":968:1000   */\n      calldataload\n      swap4\n      pop\n      pop\n      pop\n        /* \"#utility.yul\":766:1006   */\n      jump\t// out\n        /* \"#utility.yul\":1011:1268   */\n    tag_387:\n      0x00\n        /* \"#utility.yul\":1131:1133   */\n      0x20\n        /* \"#utility.yul\":1119:1128   */\n      dup3\n        /* \"#utility.yul\":1110:1117   */\n      dup5\n        /* \"#utility.yul\":1106:1129   */\n      sub\n        /* \"#utility.yul\":1102:1134   */\n      slt\n        /* \"#utility.yul\":1099:1101   */\n      iszero\n      tag_984\n      jumpi\n        /* \"#utility.yul\":1152:1158   */\n      dup1\n        /* \"#utility.yul\":1144:1150   */\n      dup2\n        /* \"#utility.yul\":1137:1159   */\n      revert\n        /* \"#utility.yul\":1099:1101   */\n    tag_984:\n        /* \"#utility.yul\":1189:1198   */\n      dup2\n        /* \"#utility.yul\":1183:1199   */\n      mload\n        /* \"#utility.yul\":1208:1238   */\n      tag_943\n        /* \"#utility.yul\":1232:1237   */\n      dup2\n        /* \"#utility.yul\":1208:1238   */\n      tag_979\n      jump\t// in\n        /* \"#utility.yul\":1551:1741   */\n    tag_115:\n      0x00\n        /* \"#utility.yul\":1663:1665   */\n      0x20\n        /* \"#utility.yul\":1651:1660   */\n      dup3\n        /* \"#utility.yul\":1642:1649   */\n      dup5\n        /* \"#utility.yul\":1638:1661   */\n      sub\n        /* \"#utility.yul\":1634:1666   */\n      slt\n        /* \"#utility.yul\":1631:1633   */\n      iszero\n      tag_990\n      jumpi\n        /* \"#utility.yul\":1684:1690   */\n      dup1\n        /* \"#utility.yul\":1676:1682   */\n      dup2\n        /* \"#utility.yul\":1669:1691   */\n      revert\n        /* \"#utility.yul\":1631:1633   */\n    tag_990:\n      pop\n        /* \"#utility.yul\":1712:1735   */\n      calldataload\n      swap2\n        /* \"#utility.yul\":1621:1741   */\n      swap1\n      pop\n      jump\t// out\n        /* \"#utility.yul\":1746:1940   */\n    tag_375:\n      0x00\n        /* \"#utility.yul\":1869:1871   */\n      0x20\n        /* \"#utility.yul\":1857:1866   */\n      dup3\n        /* \"#utility.yul\":1848:1855   */\n      dup5\n        /* \"#utility.yul\":1844:1867   */\n      sub\n        /* \"#utility.yul\":1840:1872   */\n      slt\n        /* \"#utility.yul\":1837:1839   */\n      iszero\n      tag_992\n      jumpi\n        /* \"#utility.yul\":1890:1896   */\n      dup1\n        /* \"#utility.yul\":1882:1888   */\n      dup2\n        /* \"#utility.yul\":1875:1897   */\n      revert\n        /* \"#utility.yul\":1837:1839   */\n    tag_992:\n      pop\n        /* \"#utility.yul\":1918:1934   */\n      mload\n      swap2\n        /* \"#utility.yul\":1827:1940   */\n      swap1\n      pop\n      jump\t// out\n        /* \"#utility.yul\":1945:2203   */\n    tag_316:\n      0x00\n      dup1\n        /* \"#utility.yul\":2074:2076   */\n      0x40\n        /* \"#utility.yul\":2062:2071   */\n      dup4\n        /* \"#utility.yul\":2053:2060   */\n      dup6\n        /* \"#utility.yul\":2049:2072   */\n      sub\n        /* \"#utility.yul\":2045:2077   */\n      slt\n        /* \"#utility.yul\":2042:2044   */\n      iszero\n      tag_994\n      jumpi\n        /* \"#utility.yul\":2095:2101   */\n      dup2\n        /* \"#utility.yul\":2087:2093   */\n      dup3\n        /* \"#utility.yul\":2080:2102   */\n      revert\n        /* \"#utility.yul\":2042:2044   */\n    tag_994:\n      pop\n      pop\n        /* \"#utility.yul\":2123:2146   */\n      dup1\n      calldataload\n      swap3\n        /* \"#utility.yul\":2193:2195   */\n      0x20\n        /* \"#utility.yul\":2178:2196   */\n      swap1\n      swap2\n      add\n        /* \"#utility.yul\":2165:2197   */\n      calldataload\n      swap2\n      pop\n        /* \"#utility.yul\":2032:2203   */\n      jump\t// out\n        /* \"#utility.yul\":2208:2482   */\n    tag_956:\n      0x00\n        /* \"#utility.yul\":2375:2381   */\n      dup3\n        /* \"#utility.yul\":2369:2382   */\n      mload\n        /* \"#utility.yul\":2391:2444   */\n      tag_996\n        /* \"#utility.yul\":2437:2443   */\n      dup2\n        /* \"#utility.yul\":2432:2435   */\n      dup5\n        /* \"#utility.yul\":2425:2429   */\n      0x20\n        /* \"#utility.yul\":2417:2423   */\n      dup8\n        /* \"#utility.yul\":2413:2430   */\n      add\n        /* \"#utility.yul\":2391:2444   */\n      tag_997\n      jump\t// in\n    tag_996:\n        /* \"#utility.yul\":2460:2476   */\n      swap2\n      swap1\n      swap2\n      add\n      swap3\n        /* \"#utility.yul\":2345:2482   */\n      swap2\n      pop\n      pop\n      jump\t// out\n        /* \"#utility.yul\":2487:2713   */\n    tag_188:\n        /* \"#utility.yul\":2663:2705   */\n      0xffffffffffffffffffffffffffffffffffffffff\n        /* \"#utility.yul\":2651:2706   */\n      swap2\n      swap1\n      swap2\n      and\n        /* \"#utility.yul\":2633:2707   */\n      dup2\n      mstore\n        /* \"#utility.yul\":2621:2623   */\n      0x20\n        /* \"#utility.yul\":2606:2624   */\n      add\n      swap1\n        /* \"#utility.yul\":2588:2713   */\n      jump\t// out\n        /* \"#utility.yul\":2718:3116   */\n    tag_698:\n        /* \"#utility.yul\":2930:2972   */\n      0xffffffffffffffffffffffffffffffffffffffff\n        /* \"#utility.yul\":2999:3014   */\n      swap4\n      dup5\n      and\n        /* \"#utility.yul\":2981:3015   */\n      dup2\n      mstore\n        /* \"#utility.yul\":3051:3066   */\n      swap2\n      swap1\n      swap3\n      and\n        /* \"#utility.yul\":3046:3048   */\n      0x20\n        /* \"#utility.yul\":3031:3049   */\n      dup3\n      add\n        /* \"#utility.yul\":3024:3067   */\n      mstore\n        /* \"#utility.yul\":3098:3100   */\n      0x40\n        /* \"#utility.yul\":3083:3101   */\n      dup2\n      add\n        /* \"#utility.yul\":3076:3110   */\n      swap2\n      swap1\n      swap2\n      mstore\n        /* \"#utility.yul\":2908:2910   */\n      0x60\n        /* \"#utility.yul\":2893:2911   */\n      add\n      swap1\n        /* \"#utility.yul\":2875:3116   */\n      jump\t// out\n        /* \"#utility.yul\":3121:3418   */\n    tag_382:\n        /* \"#utility.yul\":3325:3367   */\n      0xffffffffffffffffffffffffffffffffffffffff\n        /* \"#utility.yul\":3313:3368   */\n      swap3\n      swap1\n      swap3\n      and\n        /* \"#utility.yul\":3295:3369   */\n      dup3\n      mstore\n        /* \"#utility.yul\":3400:3402   */\n      0x20\n        /* \"#utility.yul\":3385:3403   */\n      dup3\n      add\n        /* \"#utility.yul\":3378:3412   */\n      mstore\n        /* \"#utility.yul\":3283:3285   */\n      0x40\n        /* \"#utility.yul\":3268:3286   */\n      add\n      swap1\n        /* \"#utility.yul\":3250:3418   */\n      jump\t// out\n        /* \"#utility.yul\":3423:3791   */\n    tag_780:\n        /* \"#utility.yul\":3655:3697   */\n      0xffffffffffffffffffffffffffffffffffffffff\n        /* \"#utility.yul\":3643:3698   */\n      swap4\n      swap1\n      swap4\n      and\n        /* \"#utility.yul\":3625:3699   */\n      dup4\n      mstore\n        /* \"#utility.yul\":3730:3732   */\n      0x20\n        /* \"#utility.yul\":3715:3733   */\n      dup4\n      add\n        /* \"#utility.yul\":3708:3742   */\n      swap2\n      swap1\n      swap2\n      mstore\n        /* \"#utility.yul\":3773:3775   */\n      0x40\n        /* \"#utility.yul\":3758:3776   */\n      dup3\n      add\n        /* \"#utility.yul\":3751:3785   */\n      mstore\n        /* \"#utility.yul\":3613:3615   */\n      0x60\n        /* \"#utility.yul\":3598:3616   */\n      add\n      swap1\n        /* \"#utility.yul\":3580:3791   */\n      jump\t// out\n        /* \"#utility.yul\":3796:4308   */\n    tag_939:\n        /* \"#utility.yul\":4085:4127   */\n      0xffffffffffffffffffffffffffffffffffffffff\n        /* \"#utility.yul\":4073:4128   */\n      swap6\n      swap1\n      swap6\n      and\n        /* \"#utility.yul\":4055:4129   */\n      dup6\n      mstore\n        /* \"#utility.yul\":4160:4162   */\n      0x20\n        /* \"#utility.yul\":4145:4163   */\n      dup6\n      add\n        /* \"#utility.yul\":4138:4172   */\n      swap4\n      swap1\n      swap4\n      mstore\n        /* \"#utility.yul\":4203:4205   */\n      0x40\n        /* \"#utility.yul\":4188:4206   */\n      dup5\n      add\n        /* \"#utility.yul\":4181:4215   */\n      swap2\n      swap1\n      swap2\n      mstore\n        /* \"#utility.yul\":4246:4248   */\n      0x60\n        /* \"#utility.yul\":4231:4249   */\n      dup4\n      add\n        /* \"#utility.yul\":4224:4258   */\n      mstore\n        /* \"#utility.yul\":4289:4292   */\n      0x80\n        /* \"#utility.yul\":4274:4293   */\n      dup3\n      add\n        /* \"#utility.yul\":4267:4302   */\n      mstore\n        /* \"#utility.yul\":4042:4045   */\n      0xa0\n        /* \"#utility.yul\":4027:4046   */\n      add\n      swap1\n        /* \"#utility.yul\":4009:4308   */\n      jump\t// out\n        /* \"#utility.yul\":4313:4500   */\n    tag_165:\n        /* \"#utility.yul\":4478:4492   */\n      swap1\n      iszero\n        /* \"#utility.yul\":4471:4493   */\n      iszero\n        /* \"#utility.yul\":4453:4494   */\n      dup2\n      mstore\n        /* \"#utility.yul\":4441:4443   */\n      0x20\n        /* \"#utility.yul\":4426:4444   */\n      add\n      swap1\n        /* \"#utility.yul\":4408:4500   */\n      jump\t// out\n        /* \"#utility.yul\":5003:5445   */\n    tag_969:\n      0x00\n        /* \"#utility.yul\":5152:5154   */\n      0x20\n        /* \"#utility.yul\":5141:5150   */\n      dup3\n        /* \"#utility.yul\":5134:5155   */\n      mstore\n        /* \"#utility.yul\":5184:5190   */\n      dup3\n        /* \"#utility.yul\":5178:5191   */\n      mload\n        /* \"#utility.yul\":5227:5233   */\n      dup1\n        /* \"#utility.yul\":5222:5224   */\n      0x20\n        /* \"#utility.yul\":5211:5220   */\n      dup5\n        /* \"#utility.yul\":5207:5225   */\n      add\n        /* \"#utility.yul\":5200:5234   */\n      mstore\n        /* \"#utility.yul\":5243:5309   */\n      tag_1007\n        /* \"#utility.yul\":5302:5308   */\n      dup2\n        /* \"#utility.yul\":5297:5299   */\n      0x40\n        /* \"#utility.yul\":5286:5295   */\n      dup6\n        /* \"#utility.yul\":5282:5300   */\n      add\n        /* \"#utility.yul\":5277:5279   */\n      0x20\n        /* \"#utility.yul\":5269:5275   */\n      dup8\n        /* \"#utility.yul\":5265:5280   */\n      add\n        /* \"#utility.yul\":5243:5309   */\n      tag_997\n      jump\t// in\n    tag_1007:\n        /* \"#utility.yul\":5361:5363   */\n      0x1f\n        /* \"#utility.yul\":5349:5364   */\n      add\n        /* \"#utility.yul\":5366:5432   */\n      0xffffffffffffffffffffffffffffffffffffffffffffffffffffffffffffffe0\n        /* \"#utility.yul\":5345:5433   */\n      and\n        /* \"#utility.yul\":5330:5434   */\n      swap2\n      swap1\n      swap2\n      add\n        /* \"#utility.yul\":5436:5438   */\n      0x40\n        /* \"#utility.yul\":5326:5439   */\n      add\n      swap3\n        /* \"#utility.yul\":5124:5445   */\n      swap2\n      pop\n      pop\n      jump\t// out\n        /* \"#utility.yul\":5450:5792   */\n    tag_665:\n        /* \"#utility.yul\":5652:5654   */\n      0x20\n        /* \"#utility.yul\":5634:5655   */\n      dup1\n      dup3\n      mstore\n        /* \"#utility.yul\":5691:5693   */\n      0x12\n        /* \"#utility.yul\":5671:5689   */\n      swap1\n      dup3\n      add\n        /* \"#utility.yul\":5664:5694   */\n      mstore\n        /* \"#utility.yul\":5730:5750   */\n      0x4e6f7468696e6720746f206465706f7369740000000000000000000000000000\n        /* \"#utility.yul\":5725:5727   */\n      0x40\n        /* \"#utility.yul\":5710:5728   */\n      dup3\n      add\n        /* \"#utility.yul\":5703:5751   */\n      mstore\n        /* \"#utility.yul\":5783:5785   */\n      0x60\n        /* \"#utility.yul\":5768:5786   */\n      add\n      swap1\n        /* \"#utility.yul\":5624:5792   */\n      jump\t// out\n        /* \"#utility.yul\":5797:6141   */\n    tag_842:\n        /* \"#utility.yul\":5999:6001   */\n      0x20\n        /* \"#utility.yul\":5981:6002   */\n      dup1\n      dup3\n      mstore\n        /* \"#utility.yul\":6038:6040   */\n      0x14\n        /* \"#utility.yul\":6018:6036   */\n      swap1\n      dup3\n      add\n        /* \"#utility.yul\":6011:6041   */\n      mstore\n        /* \"#utility.yul\":6077:6099   */\n      0x5061757361626c653a206e6f7420706175736564000000000000000000000000\n        /* \"#utility.yul\":6072:6074   */\n      0x40\n        /* \"#utility.yul\":6057:6075   */\n      dup3\n      add\n        /* \"#utility.yul\":6050:6100   */\n      mstore\n        /* \"#utility.yul\":6132:6134   */\n      0x60\n        /* \"#utility.yul\":6117:6135   */\n      add\n      swap1\n        /* \"#utility.yul\":5971:6141   */\n      jump\t// out\n        /* \"#utility.yul\":6146:6489   */\n    tag_434:\n        /* \"#utility.yul\":6348:6350   */\n      0x20\n        /* \"#utility.yul\":6330:6351   */\n      dup1\n      dup3\n      mstore\n        /* \"#utility.yul\":6387:6389   */\n      0x13\n        /* \"#utility.yul\":6367:6385   */\n      swap1\n      dup3\n      add\n        /* \"#utility.yul\":6360:6390   */\n      mstore\n        /* \"#utility.yul\":6426:6447   */\n      0x4e6f7468696e6720746f20776974686472617700000000000000000000000000\n        /* \"#utility.yul\":6421:6423   */\n      0x40\n        /* \"#utility.yul\":6406:6424   */\n      dup3\n      add\n        /* \"#utility.yul\":6399:6448   */\n      mstore\n        /* \"#utility.yul\":6480:6482   */\n      0x60\n        /* \"#utility.yul\":6465:6483   */\n      add\n      swap1\n        /* \"#utility.yul\":6320:6489   */\n      jump\t// out\n        /* \"#utility.yul\":6494:6896   */\n    tag_678:\n        /* \"#utility.yul\":6696:6698   */\n      0x20\n        /* \"#utility.yul\":6678:6699   */\n      dup1\n      dup3\n      mstore\n        /* \"#utility.yul\":6735:6737   */\n      0x26\n        /* \"#utility.yul\":6715:6733   */\n      swap1\n      dup3\n      add\n        /* \"#utility.yul\":6708:6738   */\n      mstore\n        /* \"#utility.yul\":6774:6808   */\n      0x4f776e61626c653a206e6577206f776e657220697320746865207a65726f2061\n        /* \"#utility.yul\":6769:6771   */\n      0x40\n        /* \"#utility.yul\":6754:6772   */\n      dup3\n      add\n        /* \"#utility.yul\":6747:6809   */\n      mstore\n        /* \"#utility.yul\":6845:6853   */\n      0x6464726573730000000000000000000000000000000000000000000000000000\n        /* \"#utility.yul\":6840:6842   */\n      0x60\n        /* \"#utility.yul\":6825:6843   */\n      dup3\n      add\n        /* \"#utility.yul\":6818:6854   */\n      mstore\n        /* \"#utility.yul\":6886:6889   */\n      0x80\n        /* \"#utility.yul\":6871:6890   */\n      add\n      swap1\n        /* \"#utility.yul\":6668:6896   */\n      jump\t// out\n        /* \"#utility.yul\":6901:7255   */\n    tag_581:\n        /* \"#utility.yul\":7103:7105   */\n      0x20\n        /* \"#utility.yul\":7085:7106   */\n      dup1\n      dup3\n      mstore\n        /* \"#utility.yul\":7142:7144   */\n      0x1e\n        /* \"#utility.yul\":7122:7140   */\n      swap1\n      dup3\n      add\n        /* \"#utility.yul\":7115:7145   */\n      mstore\n        /* \"#utility.yul\":7181:7213   */\n      0x4455524154494f4e5f464143544f522063616e6e6f74206265207a65726f0000\n        /* \"#utility.yul\":7176:7178   */\n      0x40\n        /* \"#utility.yul\":7161:7179   */\n      dup3\n      add\n        /* \"#utility.yul\":7154:7214   */\n      mstore\n        /* \"#utility.yul\":7246:7248   */\n      0x60\n        /* \"#utility.yul\":7231:7249   */\n      add\n      swap1\n        /* \"#utility.yul\":7075:7255   */\n      jump\t// out\n        /* \"#utility.yul\":7260:7597   */\n    tag_716:\n        /* \"#utility.yul\":7462:7464   */\n      0x20\n        /* \"#utility.yul\":7444:7465   */\n      dup1\n      dup3\n      mstore\n        /* \"#utility.yul\":7501:7503   */\n      0x0d\n        /* \"#utility.yul\":7481:7499   */\n      swap1\n      dup3\n      add\n        /* \"#utility.yul\":7474:7504   */\n      mstore\n        /* \"#utility.yul\":7540:7555   */\n      0x5374696c6c20696e206c6f636b00000000000000000000000000000000000000\n        /* \"#utility.yul\":7535:7537   */\n      0x40\n        /* \"#utility.yul\":7520:7538   */\n      dup3\n      add\n        /* \"#utility.yul\":7513:7556   */\n      mstore\n        /* \"#utility.yul\":7588:7590   */\n      0x60\n        /* \"#utility.yul\":7573:7591   */\n      add\n      swap1\n        /* \"#utility.yul\":7434:7597   */\n      jump\t// out\n        /* \"#utility.yul\":7602:8017   */\n    tag_553:\n        /* \"#utility.yul\":7804:7806   */\n      0x20\n        /* \"#utility.yul\":7786:7807   */\n      dup1\n      dup3\n      mstore\n        /* \"#utility.yul\":7843:7845   */\n      0x33\n        /* \"#utility.yul\":7823:7841   */\n      swap1\n      dup3\n      add\n        /* \"#utility.yul\":7816:7846   */\n      mstore\n        /* \"#utility.yul\":7882:7916   */\n      0x424f4f53545f5745494748542063616e6e6f74206265206d6f7265207468616e\n        /* \"#utility.yul\":7877:7879   */\n      0x40\n        /* \"#utility.yul\":7862:7880   */\n      dup3\n      add\n        /* \"#utility.yul\":7855:7917   */\n      mstore\n        /* \"#utility.yul\":7953:7974   */\n      0x20424f4f53545f5745494748545f4c494d495400000000000000000000000000\n        /* \"#utility.yul\":7948:7950   */\n      0x60\n        /* \"#utility.yul\":7933:7951   */\n      dup3\n      add\n        /* \"#utility.yul\":7926:7975   */\n      mstore\n        /* \"#utility.yul\":8007:8010   */\n      0x80\n        /* \"#utility.yul\":7992:8011   */\n      add\n      swap1\n        /* \"#utility.yul\":7776:8017   */\n      jump\t// out\n        /* \"#utility.yul\":8022:8367   */\n    tag_378:\n        /* \"#utility.yul\":8224:8226   */\n      0x20\n        /* \"#utility.yul\":8206:8227   */\n      dup1\n      dup3\n      mstore\n        /* \"#utility.yul\":8263:8265   */\n      0x15\n        /* \"#utility.yul\":8243:8261   */\n      swap1\n      dup3\n      add\n        /* \"#utility.yul\":8236:8266   */\n      mstore\n        /* \"#utility.yul\":8302:8325   */\n      0x42616c616e6365206d7573742065786365656420300000000000000000000000\n        /* \"#utility.yul\":8297:8299   */\n      0x40\n        /* \"#utility.yul\":8282:8300   */\n      dup3\n      add\n        /* \"#utility.yul\":8275:8326   */\n      mstore\n        /* \"#utility.yul\":8358:8360   */\n      0x60\n        /* \"#utility.yul\":8343:8361   */\n      add\n      swap1\n        /* \"#utility.yul\":8196:8367   */\n      jump\t// out\n        /* \"#utility.yul\":8372:8773   */\n    tag_644:\n        /* \"#utility.yul\":8574:8576   */\n      0x20\n        /* \"#utility.yul\":8556:8577   */\n      dup1\n      dup3\n      mstore\n        /* \"#utility.yul\":8613:8615   */\n      0x25\n        /* \"#utility.yul\":8593:8611   */\n      swap1\n      dup3\n      add\n        /* \"#utility.yul\":8586:8616   */\n      mstore\n        /* \"#utility.yul\":8652:8686   */\n      0x546f6b656e2063616e6e6f742062652073616d65206173206465706f73697420\n        /* \"#utility.yul\":8647:8649   */\n      0x40\n        /* \"#utility.yul\":8632:8650   */\n      dup3\n      add\n        /* \"#utility.yul\":8625:8687   */\n      mstore\n        /* \"#utility.yul\":8723:8730   */\n      0x746f6b656e000000000000000000000000000000000000000000000000000000\n        /* \"#utility.yul\":8718:8720   */\n      0x60\n        /* \"#utility.yul\":8703:8721   */\n      dup3\n      add\n        /* \"#utility.yul\":8696:8731   */\n      mstore\n        /* \"#utility.yul\":8763:8766   */\n      0x80\n        /* \"#utility.yul\":8748:8767   */\n      add\n      swap1\n        /* \"#utility.yul\":8546:8773   */\n      jump\t// out\n        /* \"#utility.yul\":8778:9133   */\n    tag_713:\n        /* \"#utility.yul\":8980:8982   */\n      0x20\n        /* \"#utility.yul\":8962:8983   */\n      dup1\n      dup3\n      mstore\n        /* \"#utility.yul\":9019:9021   */\n      0x1f\n        /* \"#utility.yul\":8999:9017   */\n      swap1\n      dup3\n      add\n        /* \"#utility.yul\":8992:9022   */\n      mstore\n        /* \"#utility.yul\":9058:9091   */\n      0x576974686472617720616d6f756e7420657863656564732062616c616e636500\n        /* \"#utility.yul\":9053:9055   */\n      0x40\n        /* \"#utility.yul\":9038:9056   */\n      dup3\n      add\n        /* \"#utility.yul\":9031:9092   */\n      mstore\n        /* \"#utility.yul\":9124:9126   */\n      0x60\n        /* \"#utility.yul\":9109:9127   */\n      add\n      swap1\n        /* \"#utility.yul\":8952:9133   */\n      jump\t// out\n        /* \"#utility.yul\":9138:9490   */\n    tag_777:\n        /* \"#utility.yul\":9340:9342   */\n      0x20\n        /* \"#utility.yul\":9322:9343   */\n      dup1\n      dup3\n      mstore\n        /* \"#utility.yul\":9379:9381   */\n      0x1c\n        /* \"#utility.yul\":9359:9377   */\n      swap1\n      dup3\n      add\n        /* \"#utility.yul\":9352:9382   */\n      mstore\n        /* \"#utility.yul\":9418:9448   */\n      0x4d6178696d756d206c6f636b20706572696f6420657863656564656400000000\n        /* \"#utility.yul\":9413:9415   */\n      0x40\n        /* \"#utility.yul\":9398:9416   */\n      dup3\n      add\n        /* \"#utility.yul\":9391:9449   */\n      mstore\n        /* \"#utility.yul\":9481:9483   */\n      0x60\n        /* \"#utility.yul\":9466:9484   */\n      add\n      swap1\n        /* \"#utility.yul\":9312:9490   */\n      jump\t// out\n        /* \"#utility.yul\":9495:9845   */\n    tag_441:\n        /* \"#utility.yul\":9697:9699   */\n      0x20\n        /* \"#utility.yul\":9679:9700   */\n      dup1\n      dup3\n      mstore\n        /* \"#utility.yul\":9736:9738   */\n      0x1a\n        /* \"#utility.yul\":9716:9734   */\n      swap1\n      dup3\n      add\n        /* \"#utility.yul\":9709:9739   */\n      mstore\n        /* \"#utility.yul\":9775:9803   */\n      0x4e6f74206f70657261746f72206f722053686477206f776e6572000000000000\n        /* \"#utility.yul\":9770:9772   */\n      0x40\n        /* \"#utility.yul\":9755:9773   */\n      dup3\n      add\n        /* \"#utility.yul\":9748:9804   */\n      mstore\n        /* \"#utility.yul\":9836:9838   */\n      0x60\n        /* \"#utility.yul\":9821:9839   */\n      add\n      swap1\n        /* \"#utility.yul\":9669:9845   */\n      jump\t// out\n        /* \"#utility.yul\":9850:10205   */\n    tag_774:\n        /* \"#utility.yul\":10052:10054   */\n      0x20\n        /* \"#utility.yul\":10034:10055   */\n      dup1\n      dup3\n      mstore\n        /* \"#utility.yul\":10091:10093   */\n      0x1f\n        /* \"#utility.yul\":10071:10089   */\n      swap1\n      dup3\n      add\n        /* \"#utility.yul\":10064:10094   */\n      mstore\n        /* \"#utility.yul\":10130:10163   */\n      0x4d696e696d756d206c6f636b20706572696f64206973206f6e65207765656b00\n        /* \"#utility.yul\":10125:10127   */\n      0x40\n        /* \"#utility.yul\":10110:10128   */\n      dup3\n      add\n        /* \"#utility.yul\":10103:10164   */\n      mstore\n        /* \"#utility.yul\":10196:10198   */\n      0x60\n        /* \"#utility.yul\":10181:10199   */\n      add\n      swap1\n        /* \"#utility.yul\":10024:10205   */\n      jump\t// out\n        /* \"#utility.yul\":10210:10612   */\n    tag_949:\n        /* \"#utility.yul\":10412:10414   */\n      0x20\n        /* \"#utility.yul\":10394:10415   */\n      dup1\n      dup3\n      mstore\n        /* \"#utility.yul\":10451:10453   */\n      0x26\n        /* \"#utility.yul\":10431:10449   */\n      swap1\n      dup3\n      add\n        /* \"#utility.yul\":10424:10454   */\n      mstore\n        /* \"#utility.yul\":10490:10524   */\n      0x416464726573733a20696e73756666696369656e742062616c616e636520666f\n        /* \"#utility.yul\":10485:10487   */\n      0x40\n        /* \"#utility.yul\":10470:10488   */\n      dup3\n      add\n        /* \"#utility.yul\":10463:10525   */\n      mstore\n        /* \"#utility.yul\":10561:10569   */\n      0x722063616c6c0000000000000000000000000000000000000000000000000000\n        /* \"#utility.yul\":10556:10558   */\n      0x60\n        /* \"#utility.yul\":10541:10559   */\n      dup3\n      add\n        /* \"#utility.yul\":10534:10570   */\n      mstore\n        /* \"#utility.yul\":10602:10605   */\n      0x80\n        /* \"#utility.yul\":10587:10606   */\n      add\n      swap1\n        /* \"#utility.yul\":10384:10612   */\n      jump\t// out\n        /* \"#utility.yul\":10617:11035   */\n    tag_514:\n        /* \"#utility.yul\":10819:10821   */\n      0x20\n        /* \"#utility.yul\":10801:10822   */\n      dup1\n      dup3\n      mstore\n        /* \"#utility.yul\":10858:10860   */\n      0x36\n        /* \"#utility.yul\":10838:10856   */\n      swap1\n      dup3\n      add\n        /* \"#utility.yul\":10831:10861   */\n      mstore\n        /* \"#utility.yul\":10897:10931   */\n      0x706572666f726d616e63654665652063616e6e6f74206265206d6f7265207468\n        /* \"#utility.yul\":10892:10894   */\n      0x40\n        /* \"#utility.yul\":10877:10895   */\n      dup3\n      add\n        /* \"#utility.yul\":10870:10932   */\n      mstore\n        /* \"#utility.yul\":10968:10992   */\n      0x616e204d41585f504552464f524d414e43455f46454500000000000000000000\n        /* \"#utility.yul\":10963:10965   */\n      0x60\n        /* \"#utility.yul\":10948:10966   */\n      dup3\n      add\n        /* \"#utility.yul\":10941:10993   */\n      mstore\n        /* \"#utility.yul\":11025:11028   */\n      0x80\n        /* \"#utility.yul\":11010:11029   */\n      add\n      swap1\n        /* \"#utility.yul\":10791:11035   */\n      jump\t// out\n        /* \"#utility.yul\":11040:11380   */\n    tag_709:\n        /* \"#utility.yul\":11242:11244   */\n      0x20\n        /* \"#utility.yul\":11224:11245   */\n      dup1\n      dup3\n      mstore\n        /* \"#utility.yul\":11281:11283   */\n      0x10\n        /* \"#utility.yul\":11261:11279   */\n      swap1\n      dup3\n      add\n        /* \"#utility.yul\":11254:11284   */\n      mstore\n        /* \"#utility.yul\":11320:11338   */\n      0x5061757361626c653a2070617573656400000000000000000000000000000000\n        /* \"#utility.yul\":11315:11317   */\n      0x40\n        /* \"#utility.yul\":11300:11318   */\n      dup3\n      add\n        /* \"#utility.yul\":11293:11339   */\n      mstore\n        /* \"#utility.yul\":11371:11373   */\n      0x60\n        /* \"#utility.yul\":11356:11374   */\n      add\n      swap1\n        /* \"#utility.yul\":11214:11380   */\n      jump\t// out\n        /* \"#utility.yul\":11385:11731   */\n    tag_474:\n        /* \"#utility.yul\":11587:11589   */\n      0x20\n        /* \"#utility.yul\":11569:11590   */\n      dup1\n      dup3\n      mstore\n        /* \"#utility.yul\":11626:11628   */\n      0x16\n        /* \"#utility.yul\":11606:11624   */\n      swap1\n      dup3\n      add\n        /* \"#utility.yul\":11599:11629   */\n      mstore\n        /* \"#utility.yul\":11665:11689   */\n      0x43616e6e6f74206265207a65726f206164647265737300000000000000000000\n        /* \"#utility.yul\":11660:11662   */\n      0x40\n        /* \"#utility.yul\":11645:11663   */\n      dup3\n      add\n        /* \"#utility.yul\":11638:11690   */\n      mstore\n        /* \"#utility.yul\":11722:11724   */\n      0x60\n        /* \"#utility.yul\":11707:11725   */\n      add\n      swap1\n        /* \"#utility.yul\":11559:11731   */\n      jump\t// out\n        /* \"#utility.yul\":11736:12138   */\n    tag_457:\n        /* \"#utility.yul\":11938:11940   */\n      0x20\n        /* \"#utility.yul\":11920:11941   */\n      dup1\n      dup3\n      mstore\n        /* \"#utility.yul\":11977:11979   */\n      0x26\n        /* \"#utility.yul\":11957:11975   */\n      swap1\n      dup3\n      add\n        /* \"#utility.yul\":11950:11980   */\n      mstore\n        /* \"#utility.yul\":12016:12050   */\n      0x4455524154494f4e5f464143544f525f4f5645524455452063616e6e6f742062\n        /* \"#utility.yul\":12011:12013   */\n      0x40\n        /* \"#utility.yul\":11996:12014   */\n      dup3\n      add\n        /* \"#utility.yul\":11989:12051   */\n      mstore\n        /* \"#utility.yul\":12087:12095   */\n      0x65207a65726f0000000000000000000000000000000000000000000000000000\n        /* \"#utility.yul\":12082:12084   */\n      0x60\n        /* \"#utility.yul\":12067:12085   */\n      dup3\n      add\n        /* \"#utility.yul\":12060:12096   */\n      mstore\n        /* \"#utility.yul\":12128:12131   */\n      0x80\n        /* \"#utility.yul\":12113:12132   */\n      add\n      swap1\n        /* \"#utility.yul\":11910:12138   */\n      jump\t// out\n        /* \"#utility.yul\":12143:12553   */\n    tag_356:\n        /* \"#utility.yul\":12345:12347   */\n      0x20\n        /* \"#utility.yul\":12327:12348   */\n      dup1\n      dup3\n      mstore\n        /* \"#utility.yul\":12384:12386   */\n      0x2e\n        /* \"#utility.yul\":12364:12382   */\n      swap1\n      dup3\n      add\n        /* \"#utility.yul\":12357:12387   */\n      mstore\n        /* \"#utility.yul\":12423:12457   */\n      0x6f7665726475654665652063616e6e6f74206265206d6f7265207468616e204d\n        /* \"#utility.yul\":12418:12420   */\n      0x40\n        /* \"#utility.yul\":12403:12421   */\n      dup3\n      add\n        /* \"#utility.yul\":12396:12458   */\n      mstore\n        /* \"#utility.yul\":12494:12510   */\n      0x41585f4f5645524455455f464545000000000000000000000000000000000000\n        /* \"#utility.yul\":12489:12491   */\n      0x60\n        /* \"#utility.yul\":12474:12492   */\n      dup3\n      add\n        /* \"#utility.yul\":12467:12511   */\n      mstore\n        /* \"#utility.yul\":12543:12546   */\n      0x80\n        /* \"#utility.yul\":12528:12547   */\n      add\n      swap1\n        /* \"#utility.yul\":12317:12553   */\n      jump\t// out\n        /* \"#utility.yul\":12558:12976   */\n    tag_765:\n        /* \"#utility.yul\":12760:12762   */\n      0x20\n        /* \"#utility.yul\":12742:12763   */\n      dup1\n      dup3\n      mstore\n        /* \"#utility.yul\":12799:12801   */\n      0x36\n        /* \"#utility.yul\":12779:12797   */\n      swap1\n      dup3\n      add\n        /* \"#utility.yul\":12772:12802   */\n      mstore\n        /* \"#utility.yul\":12838:12872   */\n      0x4465706f73697420616d6f756e74206d75737420626520677265617465722074\n        /* \"#utility.yul\":12833:12835   */\n      0x40\n        /* \"#utility.yul\":12818:12836   */\n      dup3\n      add\n        /* \"#utility.yul\":12811:12873   */\n      mstore\n        /* \"#utility.yul\":12909:12933   */\n      0x68616e204d494e5f4445504f5349545f414d4f554e5400000000000000000000\n        /* \"#utility.yul\":12904:12906   */\n      0x60\n        /* \"#utility.yul\":12889:12907   */\n      dup3\n      add\n        /* \"#utility.yul\":12882:12934   */\n      mstore\n        /* \"#utility.yul\":12966:12969   */\n      0x80\n        /* \"#utility.yul\":12951:12970   */\n      add\n      swap1\n        /* \"#utility.yul\":12732:12976   */\n      jump\t// out\n        /* \"#utility.yul\":12981:13406   */\n    tag_686:\n        /* \"#utility.yul\":13183:13185   */\n      0x20\n        /* \"#utility.yul\":13165:13186   */\n      dup1\n      dup3\n      mstore\n        /* \"#utility.yul\":13222:13224   */\n      0x3d\n        /* \"#utility.yul\":13202:13220   */\n      swap1\n      dup3\n      add\n        /* \"#utility.yul\":13195:13225   */\n      mstore\n        /* \"#utility.yul\":13261:13295   */\n      0x4d41585f4c4f434b5f4455524154494f4e2063616e6e6f74206265206d6f7265\n        /* \"#utility.yul\":13256:13258   */\n      0x40\n        /* \"#utility.yul\":13241:13259   */\n      dup3\n      add\n        /* \"#utility.yul\":13234:13296   */\n      mstore\n        /* \"#utility.yul\":13332:13363   */\n      0x207468616e204d41585f4c4f434b5f4455524154494f4e5f4c494d4954000000\n        /* \"#utility.yul\":13327:13329   */\n      0x60\n        /* \"#utility.yul\":13312:13330   */\n      dup3\n      add\n        /* \"#utility.yul\":13305:13364   */\n      mstore\n        /* \"#utility.yul\":13396:13399   */\n      0x80\n        /* \"#utility.yul\":13381:13400   */\n      add\n      swap1\n        /* \"#utility.yul\":13155:13406   */\n      jump\t// out\n        /* \"#utility.yul\":13411:13767   */\n    tag_694:\n        /* \"#utility.yul\":13613:13615   */\n      0x20\n        /* \"#utility.yul\":13595:13616   */\n      dup1\n      dup3\n      mstore\n        /* \"#utility.yul\":13632:13650   */\n      dup2\n      dup2\n      add\n        /* \"#utility.yul\":13625:13655   */\n      mstore\n        /* \"#utility.yul\":13691:13725   */\n      0x4f776e61626c653a2063616c6c6572206973206e6f7420746865206f776e6572\n        /* \"#utility.yul\":13686:13688   */\n      0x40\n        /* \"#utility.yul\":13671:13689   */\n      dup3\n      add\n        /* \"#utility.yul\":13664:13726   */\n      mstore\n        /* \"#utility.yul\":13758:13760   */\n      0x60\n        /* \"#utility.yul\":13743:13761   */\n      add\n      swap1\n        /* \"#utility.yul\":13585:13767   */\n      jump\t// out\n        /* \"#utility.yul\":13772:14107   */\n    tag_352:\n        /* \"#utility.yul\":13974:13976   */\n      0x20\n        /* \"#utility.yul\":13956:13977   */\n      dup1\n      dup3\n      mstore\n        /* \"#utility.yul\":14013:14015   */\n      0x0b\n        /* \"#utility.yul\":13993:14011   */\n      swap1\n      dup3\n      add\n        /* \"#utility.yul\":13986:14016   */\n      mstore\n        /* \"#utility.yul\":14052:14065   */\n      0x61646d696e3a207775743f000000000000000000000000000000000000000000\n        /* \"#utility.yul\":14047:14049   */\n      0x40\n        /* \"#utility.yul\":14032:14050   */\n      dup3\n      add\n        /* \"#utility.yul\":14025:14066   */\n      mstore\n        /* \"#utility.yul\":14098:14100   */\n      0x60\n        /* \"#utility.yul\":14083:14101   */\n      add\n      swap1\n        /* \"#utility.yul\":13946:14107   */\n      jump\t// out\n        /* \"#utility.yul\":14112:14532   */\n    tag_492:\n        /* \"#utility.yul\":14314:14316   */\n      0x20\n        /* \"#utility.yul\":14296:14317   */\n      dup1\n      dup3\n      mstore\n        /* \"#utility.yul\":14353:14355   */\n      0x38\n        /* \"#utility.yul\":14333:14351   */\n      swap1\n      dup3\n      add\n        /* \"#utility.yul\":14326:14356   */\n      mstore\n        /* \"#utility.yul\":14392:14426   */\n      0x576974686472617720616d6f756e74206d757374206265206772656174657220\n        /* \"#utility.yul\":14387:14389   */\n      0x40\n        /* \"#utility.yul\":14372:14390   */\n      dup3\n      add\n        /* \"#utility.yul\":14365:14427   */\n      mstore\n        /* \"#utility.yul\":14463:14489   */\n      0x7468616e204d494e5f57495448445241575f414d4f554e540000000000000000\n        /* \"#utility.yul\":14458:14460   */\n      0x60\n        /* \"#utility.yul\":14443:14461   */\n      dup3\n      add\n        /* \"#utility.yul\":14436:14490   */\n      mstore\n        /* \"#utility.yul\":14522:14525   */\n      0x80\n        /* \"#utility.yul\":14507:14526   */\n      add\n      swap1\n        /* \"#utility.yul\":14286:14532   */\n      jump\t// out\n        /* \"#utility.yul\":14537:14890   */\n    tag_954:\n        /* \"#utility.yul\":14739:14741   */\n      0x20\n        /* \"#utility.yul\":14721:14742   */\n      dup1\n      dup3\n      mstore\n        /* \"#utility.yul\":14778:14780   */\n      0x1d\n        /* \"#utility.yul\":14758:14776   */\n      swap1\n      dup3\n      add\n        /* \"#utility.yul\":14751:14781   */\n      mstore\n        /* \"#utility.yul\":14817:14848   */\n      0x416464726573733a2063616c6c20746f206e6f6e2d636f6e7472616374000000\n        /* \"#utility.yul\":14812:14814   */\n      0x40\n        /* \"#utility.yul\":14797:14815   */\n      dup3\n      add\n        /* \"#utility.yul\":14790:14849   */\n      mstore\n        /* \"#utility.yul\":14881:14883   */\n      0x60\n        /* \"#utility.yul\":14866:14884   */\n      add\n      swap1\n        /* \"#utility.yul\":14711:14890   */\n      jump\t// out\n        /* \"#utility.yul\":14895:15320   */\n    tag_399:\n        /* \"#utility.yul\":15097:15099   */\n      0x20\n        /* \"#utility.yul\":15079:15100   */\n      dup1\n      dup3\n      mstore\n        /* \"#utility.yul\":15136:15138   */\n      0x3d\n        /* \"#utility.yul\":15116:15134   */\n      swap1\n      dup3\n      add\n        /* \"#utility.yul\":15109:15139   */\n      mstore\n        /* \"#utility.yul\":15175:15209   */\n      0x7769746864726177466565506572696f642063616e6e6f74206265206d6f7265\n        /* \"#utility.yul\":15170:15172   */\n      0x40\n        /* \"#utility.yul\":15155:15173   */\n      dup3\n      add\n        /* \"#utility.yul\":15148:15210   */\n      mstore\n        /* \"#utility.yul\":15246:15277   */\n      0x207468616e204d41585f57495448445241575f4645455f504552494f44000000\n        /* \"#utility.yul\":15241:15243   */\n      0x60\n        /* \"#utility.yul\":15226:15244   */\n      dup3\n      add\n        /* \"#utility.yul\":15219:15278   */\n      mstore\n        /* \"#utility.yul\":15310:15313   */\n      0x80\n        /* \"#utility.yul\":15295:15314   */\n      add\n      swap1\n        /* \"#utility.yul\":15069:15320   */\n      jump\t// out\n        /* \"#utility.yul\":15325:15731   */\n    tag_865:\n        /* \"#utility.yul\":15527:15529   */\n      0x20\n        /* \"#utility.yul\":15509:15530   */\n      dup1\n      dup3\n      mstore\n        /* \"#utility.yul\":15566:15568   */\n      0x2a\n        /* \"#utility.yul\":15546:15564   */\n      swap1\n      dup3\n      add\n        /* \"#utility.yul\":15539:15569   */\n      mstore\n        /* \"#utility.yul\":15605:15639   */\n      0x5361666545524332303a204552433230206f7065726174696f6e20646964206e\n        /* \"#utility.yul\":15600:15602   */\n      0x40\n        /* \"#utility.yul\":15585:15603   */\n      dup3\n      add\n        /* \"#utility.yul\":15578:15640   */\n      mstore\n        /* \"#utility.yul\":15676:15688   */\n      0x6f74207375636365656400000000000000000000000000000000000000000000\n        /* \"#utility.yul\":15671:15673   */\n      0x60\n        /* \"#utility.yul\":15656:15674   */\n      dup3\n      add\n        /* \"#utility.yul\":15649:15689   */\n      mstore\n        /* \"#utility.yul\":15721:15724   */\n      0x80\n        /* \"#utility.yul\":15706:15725   */\n      add\n      swap1\n        /* \"#utility.yul\":15499:15731   */\n      jump\t// out\n        /* \"#utility.yul\":15736:16148   */\n    tag_364:\n        /* \"#utility.yul\":15938:15940   */\n      0x20\n        /* \"#utility.yul\":15920:15941   */\n      dup1\n      dup3\n      mstore\n        /* \"#utility.yul\":15977:15979   */\n      0x30\n        /* \"#utility.yul\":15957:15975   */\n      swap1\n      dup3\n      add\n        /* \"#utility.yul\":15950:15980   */\n      mstore\n        /* \"#utility.yul\":16016:16050   */\n      0x77697468647261774665652063616e6e6f74206265206d6f7265207468616e20\n        /* \"#utility.yul\":16011:16013   */\n      0x40\n        /* \"#utility.yul\":15996:16014   */\n      dup3\n      add\n        /* \"#utility.yul\":15989:16051   */\n      mstore\n        /* \"#utility.yul\":16087:16105   */\n      0x4d41585f57495448445241575f46454500000000000000000000000000000000\n        /* \"#utility.yul\":16082:16084   */\n      0x60\n        /* \"#utility.yul\":16067:16085   */\n      dup3\n      add\n        /* \"#utility.yul\":16060:16106   */\n      mstore\n        /* \"#utility.yul\":16138:16141   */\n      0x80\n        /* \"#utility.yul\":16123:16142   */\n      add\n      swap1\n        /* \"#utility.yul\":15910:16148   */\n      jump\t// out\n        /* \"#utility.yul\":16153:16552   */\n    tag_615:\n        /* \"#utility.yul\":16355:16357   */\n      0x20\n        /* \"#utility.yul\":16337:16358   */\n      dup1\n      dup3\n      mstore\n        /* \"#utility.yul\":16394:16396   */\n      0x23\n        /* \"#utility.yul\":16374:16392   */\n      swap1\n      dup3\n      add\n        /* \"#utility.yul\":16367:16397   */\n      mstore\n        /* \"#utility.yul\":16433:16467   */\n      0x554e4c4f434b5f465245455f4455524154494f4e2063616e6e6f74206265207a\n        /* \"#utility.yul\":16428:16430   */\n      0x40\n        /* \"#utility.yul\":16413:16431   */\n      dup3\n      add\n        /* \"#utility.yul\":16406:16468   */\n      mstore\n        /* \"#utility.yul\":16504:16509   */\n      0x65726f0000000000000000000000000000000000000000000000000000000000\n        /* \"#utility.yul\":16499:16501   */\n      0x60\n        /* \"#utility.yul\":16484:16502   */\n      dup3\n      add\n        /* \"#utility.yul\":16477:16510   */\n      mstore\n        /* \"#utility.yul\":16542:16545   */\n      0x80\n        /* \"#utility.yul\":16527:16546   */\n      add\n      swap1\n        /* \"#utility.yul\":16327:16552   */\n      jump\t// out\n        /* \"#utility.yul\":16557:16898   */\n    tag_448:\n        /* \"#utility.yul\":16759:16761   */\n      0x20\n        /* \"#utility.yul\":16741:16762   */\n      dup1\n      dup3\n      mstore\n        /* \"#utility.yul\":16798:16800   */\n      0x11\n        /* \"#utility.yul\":16778:16796   */\n      swap1\n      dup3\n      add\n        /* \"#utility.yul\":16771:16801   */\n      mstore\n        /* \"#utility.yul\":16837:16856   */\n      0x43616e6e6f7420756e6c6f636b20796574000000000000000000000000000000\n        /* \"#utility.yul\":16832:16834   */\n      0x40\n        /* \"#utility.yul\":16817:16835   */\n      dup3\n      add\n        /* \"#utility.yul\":16810:16857   */\n      mstore\n        /* \"#utility.yul\":16889:16891   */\n      0x60\n        /* \"#utility.yul\":16874:16892   */\n      add\n      swap1\n        /* \"#utility.yul\":16731:16898   */\n      jump\t// out\n        /* \"#utility.yul\":16903:17080   */\n    tag_109:\n        /* \"#utility.yul\":17049:17074   */\n      swap1\n      dup2\n      mstore\n        /* \"#utility.yul\":17037:17039   */\n      0x20\n        /* \"#utility.yul\":17022:17040   */\n      add\n      swap1\n        /* \"#utility.yul\":17004:17080   */\n      jump\t// out\n        /* \"#utility.yul\":17085:17382   */\n    tag_633:\n        /* \"#utility.yul\":17259:17284   */\n      swap2\n      dup3\n      mstore\n        /* \"#utility.yul\":17332:17374   */\n      0xffffffffffffffffffffffffffffffffffffffff\n        /* \"#utility.yul\":17320:17375   */\n      and\n        /* \"#utility.yul\":17315:17317   */\n      0x20\n        /* \"#utility.yul\":17300:17318   */\n      dup3\n      add\n        /* \"#utility.yul\":17293:17376   */\n      mstore\n        /* \"#utility.yul\":17247:17249   */\n      0x40\n        /* \"#utility.yul\":17232:17250   */\n      add\n      swap1\n        /* \"#utility.yul\":17214:17382   */\n      jump\t// out\n        /* \"#utility.yul\":17387:17643   */\n    tag_875:\n        /* \"#utility.yul\":17569:17594   */\n      swap2\n      dup3\n      mstore\n        /* \"#utility.yul\":17625:17627   */\n      0x20\n        /* \"#utility.yul\":17610:17628   */\n      dup3\n      add\n        /* \"#utility.yul\":17603:17637   */\n      mstore\n        /* \"#utility.yul\":17557:17559   */\n      0x40\n        /* \"#utility.yul\":17542:17560   */\n      add\n      swap1\n        /* \"#utility.yul\":17524:17643   */\n      jump\t// out\n        /* \"#utility.yul\":17901:18292   */\n    tag_826:\n        /* \"#utility.yul\":18132:18157   */\n      swap4\n      dup5\n      mstore\n        /* \"#utility.yul\":18188:18190   */\n      0x20\n        /* \"#utility.yul\":18173:18191   */\n      dup5\n      add\n        /* \"#utility.yul\":18166:18200   */\n      swap3\n      swap1\n      swap3\n      mstore\n        /* \"#utility.yul\":18231:18233   */\n      0x40\n        /* \"#utility.yul\":18216:18234   */\n      dup4\n      add\n        /* \"#utility.yul\":18209:18243   */\n      mstore\n        /* \"#utility.yul\":18274:18276   */\n      0x60\n        /* \"#utility.yul\":18259:18277   */\n      dup3\n      add\n        /* \"#utility.yul\":18252:18286   */\n      mstore\n        /* \"#utility.yul\":18119:18122   */\n      0x80\n        /* \"#utility.yul\":18104:18123   */\n      add\n      swap1\n        /* \"#utility.yul\":18086:18292   */\n      jump\t// out\n        /* \"#utility.yul\":18297:19058   */\n    tag_125:\n        /* \"#utility.yul\":18662:18687   */\n      swap9\n      dup10\n      mstore\n        /* \"#utility.yul\":18718:18720   */\n      0x20\n        /* \"#utility.yul\":18703:18721   */\n      dup10\n      add\n        /* \"#utility.yul\":18696:18730   */\n      swap8\n      swap1\n      swap8\n      mstore\n        /* \"#utility.yul\":18761:18763   */\n      0x40\n        /* \"#utility.yul\":18746:18764   */\n      dup9\n      add\n        /* \"#utility.yul\":18739:18773   */\n      swap6\n      swap1\n      swap6\n      mstore\n        /* \"#utility.yul\":18804:18806   */\n      0x60\n        /* \"#utility.yul\":18789:18807   */\n      dup8\n      add\n        /* \"#utility.yul\":18782:18816   */\n      swap4\n      swap1\n      swap4\n      mstore\n        /* \"#utility.yul\":18847:18850   */\n      0x80\n        /* \"#utility.yul\":18832:18851   */\n      dup7\n      add\n        /* \"#utility.yul\":18825:18860   */\n      swap2\n      swap1\n      swap2\n      mstore\n        /* \"#utility.yul\":18891:18894   */\n      0xa0\n        /* \"#utility.yul\":18876:18895   */\n      dup6\n      add\n        /* \"#utility.yul\":18869:18904   */\n      mstore\n        /* \"#utility.yul\":18935:18938   */\n      0xc0\n        /* \"#utility.yul\":18920:18939   */\n      dup5\n      add\n        /* \"#utility.yul\":18913:18948   */\n      mstore\n        /* \"#utility.yul\":18992:19006   */\n      iszero\n        /* \"#utility.yul\":18985:19007   */\n      iszero\n        /* \"#utility.yul\":18979:18982   */\n      0xe0\n        /* \"#utility.yul\":18964:18983   */\n      dup4\n      add\n        /* \"#utility.yul\":18957:19008   */\n      mstore\n        /* \"#utility.yul\":19039:19042   */\n      0x0100\n        /* \"#utility.yul\":19024:19043   */\n      dup3\n      add\n        /* \"#utility.yul\":19017:19052   */\n      mstore\n        /* \"#utility.yul\":18649:18652   */\n      0x0120\n        /* \"#utility.yul\":18634:18653   */\n      add\n      swap1\n        /* \"#utility.yul\":18616:19058   */\n      jump\t// out\n        /* \"#utility.yul\":19063:19191   */\n    tag_405:\n      0x00\n        /* \"#utility.yul\":19134:19135   */\n      dup3\n        /* \"#utility.yul\":19130:19136   */\n      not\n        /* \"#utility.yul\":19127:19128   */\n      dup3\n        /* \"#utility.yul\":19124:19137   */\n      gt\n        /* \"#utility.yul\":19121:19123   */\n      iszero\n      tag_1046\n      jumpi\n        /* \"#utility.yul\":19140:19158   */\n      tag_1046\n      tag_1047\n      jump\t// in\n    tag_1046:\n      pop\n        /* \"#utility.yul\":19176:19185   */\n      add\n      swap1\n        /* \"#utility.yul\":19111:19191   */\n      jump\t// out\n        /* \"#utility.yul\":19196:19470   */\n    tag_413:\n      0x00\n        /* \"#utility.yul\":19262:19263   */\n      dup3\n        /* \"#utility.yul\":19252:19254   */\n      tag_1049\n      jumpi\n        /* \"#utility.yul\":19297:19374   */\n      0x4e487b7100000000000000000000000000000000000000000000000000000000\n        /* \"#utility.yul\":19294:19295   */\n      dup2\n        /* \"#utility.yul\":19287:19375   */\n      mstore\n        /* \"#utility.yul\":19398:19402   */\n      0x12\n        /* \"#utility.yul\":19395:19396   */\n      0x04\n        /* \"#utility.yul\":19388:19403   */\n      mstore\n        /* \"#utility.yul\":19426:19430   */\n      0x24\n        /* \"#utility.yul\":19423:19424   */\n      dup2\n        /* \"#utility.yul\":19416:19431   */\n      revert\n        /* \"#utility.yul\":19252:19254   */\n    tag_1049:\n      pop\n        /* \"#utility.yul\":19455:19464   */\n      div\n      swap1\n        /* \"#utility.yul\":19242:19470   */\n      jump\t// out\n        /* \"#utility.yul\":19475:19703   */\n    tag_411:\n      0x00\n        /* \"#utility.yul\":19641:19642   */\n      dup2\n        /* \"#utility.yul\":19573:19639   */\n      0xffffffffffffffffffffffffffffffffffffffffffffffffffffffffffffffff\n        /* \"#utility.yul\":19569:19643   */\n      div\n        /* \"#utility.yul\":19566:19567   */\n      dup4\n        /* \"#utility.yul\":19563:19644   */\n      gt\n        /* \"#utility.yul\":19558:19559   */\n      dup3\n        /* \"#utility.yul\":19551:19560   */\n      iszero\n        /* \"#utility.yul\":19544:19561   */\n      iszero\n        /* \"#utility.yul\":19540:19645   */\n      and\n        /* \"#utility.yul\":19537:19539   */\n      iszero\n      tag_1052\n      jumpi\n        /* \"#utility.yul\":19648:19666   */\n      tag_1052\n      tag_1047\n      jump\t// in\n    tag_1052:\n      pop\n        /* \"#utility.yul\":19688:19697   */\n      mul\n      swap1\n        /* \"#utility.yul\":19527:19703   */\n      jump\t// out\n        /* \"#utility.yul\":19708:19833   */\n    tag_419:\n      0x00\n        /* \"#utility.yul\":19776:19777   */\n      dup3\n        /* \"#utility.yul\":19773:19774   */\n      dup3\n        /* \"#utility.yul\":19770:19778   */\n      lt\n        /* \"#utility.yul\":19767:19769   */\n      iszero\n      tag_1055\n      jumpi\n        /* \"#utility.yul\":19781:19799   */\n      tag_1055\n      tag_1047\n      jump\t// in\n    tag_1055:\n      pop\n        /* \"#utility.yul\":19818:19827   */\n      sub\n      swap1\n        /* \"#utility.yul\":19757:19833   */\n      jump\t// out\n        /* \"#utility.yul\":19838:20096   */\n    tag_997:\n        /* \"#utility.yul\":19910:19911   */\n      0x00\n        /* \"#utility.yul\":19920:20033   */\n    tag_1057:\n        /* \"#utility.yul\":19934:19940   */\n      dup4\n        /* \"#utility.yul\":19931:19932   */\n      dup2\n        /* \"#utility.yul\":19928:19941   */\n      lt\n        /* \"#utility.yul\":19920:20033   */\n      iszero\n      tag_1059\n      jumpi\n        /* \"#utility.yul\":20010:20021   */\n      dup2\n      dup2\n      add\n        /* \"#utility.yul\":20004:20022   */\n      mload\n        /* \"#utility.yul\":19991:20002   */\n      dup4\n      dup3\n      add\n        /* \"#utility.yul\":19984:20023   */\n      mstore\n        /* \"#utility.yul\":19956:19958   */\n      0x20\n        /* \"#utility.yul\":19949:19959   */\n      add\n        /* \"#utility.yul\":19920:20033   */\n      jump(tag_1057)\n    tag_1059:\n        /* \"#utility.yul\":20051:20057   */\n      dup4\n        /* \"#utility.yul\":20048:20049   */\n      dup2\n        /* \"#utility.yul\":20045:20058   */\n      gt\n        /* \"#utility.yul\":20042:20044   */\n      iszero\n      tag_696\n      jumpi\n      pop\n      pop\n        /* \"#utility.yul\":20086:20087   */\n      0x00\n        /* \"#utility.yul\":20068:20084   */\n      swap2\n      add\n        /* \"#utility.yul\":20061:20088   */\n      mstore\n        /* \"#utility.yul\":19891:20096   */\n      jump\t// out\n        /* \"#utility.yul\":20101:20285   */\n    tag_1047:\n        /* \"#utility.yul\":20153:20230   */\n      0x4e487b7100000000000000000000000000000000000000000000000000000000\n        /* \"#utility.yul\":20150:20151   */\n      0x00\n        /* \"#utility.yul\":20143:20231   */\n      mstore\n        /* \"#utility.yul\":20250:20254   */\n      0x11\n        /* \"#utility.yul\":20247:20248   */\n      0x04\n        /* \"#utility.yul\":20240:20255   */\n      mstore\n        /* \"#utility.yul\":20274:20278   */\n      0x24\n        /* \"#utility.yul\":20271:20272   */\n      0x00\n        /* \"#utility.yul\":20264:20279   */\n      revert\n        /* \"#utility.yul\":20290:20446   */\n    tag_974:\n        /* \"#utility.yul\":20378:20420   */\n      0xffffffffffffffffffffffffffffffffffffffff\n        /* \"#utility.yul\":20371:20376   */\n      dup2\n        /* \"#utility.yul\":20367:20421   */\n      and\n        /* \"#utility.yul\":20360:20365   */\n      dup2\n        /* \"#utility.yul\":20357:20422   */\n      eq\n        /* \"#utility.yul\":20347:20349   */\n      tag_435\n      jumpi\n        /* \"#utility.yul\":20436:20437   */\n      0x00\n        /* \"#utility.yul\":20433:20434   */\n      dup1\n        /* \"#utility.yul\":20426:20438   */\n      revert\n        /* \"#utility.yul\":20451:20571   */\n    tag_979:\n        /* \"#utility.yul\":20539:20544   */\n      dup1\n        /* \"#utility.yul\":20532:20545   */\n      iszero\n        /* \"#utility.yul\":20525:20546   */\n      iszero\n        /* \"#utility.yul\":20518:20523   */\n      dup2\n        /* \"#utility.yul\":20515:20547   */\n      eq\n        /* \"#utility.yul\":20505:20507   */\n      tag_435\n      jumpi\n        /* \"#utility.yul\":20561:20562   */\n      0x00\n        /* \"#utility.yul\":20558:20559   */\n      dup1\n        /* \"#utility.yul\":20551:20563   */\n      revert\n\n    auxdata: 0xa26469706673582212209148be7dbd4a79d027a9f9903f87a5cb14661085db3d662088dd1dffc4d82e9664736f6c63430008010033\n}\n",
				"bytecode": {
					"linkReferences": {},
					"object": "60c060405262093a80600e556301e13380600f556301e1338060105562ed4e0060115564e8d4a5100060125560c860135560c8601455600a601555600a60165564e8d4a510006017556203f4806018553480156200005c57600080fd5b5060405162005021380380620050218339810160408190526200007f9162000157565b620000936200008d62000103565b62000107565b6000805460ff60a01b191690556001600160601b0319606096871b81166080529490951b90931660a052600880546001600160a01b039384166001600160a01b0319918216179091556009805492841692821692909217909155600a8054929093169116179055600b55620001f7565b3390565b600080546001600160a01b038381166001600160a01b0319831681178455604051919092169283917f8be0079c531659141344cd1fd0a4f28419497f9722a3daafe3b4186f6b6457e09190a35050565b60008060008060008060c0878903121562000170578182fd5b86516200017d81620001de565b60208801519096506200019081620001de565b6040880151909550620001a381620001de565b6060880151909450620001b681620001de565b6080880151909350620001c981620001de565b8092505060a087015190509295509295509295565b6001600160a01b0381168114620001f457600080fd5b50565b60805160601c60a05160601c614d9c6200028560003960008181610c6001528181610d1d0152818161208e015281816123a00152818161384e01526139280152600081816113ec01528181611937015281816124aa015281816129ab01528181612e0f01528181612e61015281816131650152818161324001528181613b7b0152613db30152614d9c6000f3fe608060405234801561001057600080fd5b50600436106105145760003560e01c806387788782116102a1578063c6ed51be1161016b578063e464c623116100e3578063f2fde38b11610097578063f851a4401161007c578063f851a440146108fb578063fc0c546a14610903578063fd253b641461090b57610514565b8063f2fde38b146108d5578063f786b958146108e857610514565b8063e73008bc116100c8578063e73008bc146108b2578063e941fa78146108ba578063f0f44260146108c257610514565b8063e464c623146108a2578063e4b37ef5146108aa57610514565b8063def68a9c1161013a578063df10b4e61161011f578063df10b4e61461087f578063dfcedeee14610887578063e2bbb1581461088f57610514565b8063def68a9c14610859578063def7869d1461086c57610514565b8063c6ed51be14610836578063cc9cfba114610849578063ccd34cd514610779578063d4b0de2f1461085157610514565b8063acaf88cd11610219578063bc3d652a116101cd578063bdca9165116101b2578063bdca916514610808578063beba0fa014610810578063c54d349c1461082357610514565b8063bc3d652a146107f8578063bc75f4b81461080057610514565b8063b6857844116101fe578063b6857844146105a2578063b6ac642a146107d2578063bb9f408d146107e557610514565b8063acaf88cd146107b7578063b3ab15fb146107bf57610514565b8063948a03f211610270578063a3639b3911610255578063a3639b3914610794578063a5834e06146107a7578063aaada5da146107af57610514565b8063948a03f21461077957806395dc14e11461078157610514565b8063877887821461074357806387d4bda91461074b5780638da5cb5b1461075e57806393c99e6a1461076657610514565b80634e4de1e9116103e2578063668679ba1161035a578063731ff24a1161030e57806378b4330f116102f357806378b4330f146105d05780638456cb5914610733578063853828b61461073b57610514565b8063731ff24a1461072357806377c7b8fc1461072b57610514565b806370897b231161033f57806370897b2314610700578063715018a614610713578063722713f71461071b57610514565b8063668679ba146106da578063704b6c02146106ed57610514565b8063570ca735116103b157806361d027b31161039657806361d027b3146106b757806361fa6368146106bf57806362122f5a146106c757610514565b8063570ca7351461069a5780635c975abb146106af57610514565b80634e4de1e9146106645780634f1bfc9e1461067757806351fb26df1461067f5780635521e9bf1461068757610514565b80632cfc5f01116104905780633eb78874116104445780633fec4e32116104295780633fec4e3214610629578063423b93ed1461064957806348a0d7541461065c57610514565b80633eb78874146106195780633f4ba83a1461062157610514565b80632f6c493c116104755780632f6c493c146105eb57806335981921146105fe5780633a98ef391461061157610514565b80632cfc5f01146105d05780632e1a7d4d146105d857610514565b80631959a002116104e75780631ea30fef116104cc5780631ea30fef146105a25780631efac1b8146105aa57806329a5cfd6146105bd57610514565b80631959a0021461056757806319ab453c1461058f57610514565b806301e813261461051957806305a9f274146105375780630c59696b1461053f57806314ff303914610554575b600080fd5b610521610913565b60405161052e9190614b9f565b60405180910390f35b61052161091b565b61055261054d366004614171565b610921565b005b610552610562366004614171565b6109fa565b61057a6105753660046140d6565b610abc565b60405161052e99989796959493929190614bf5565b61055261059d3660046140d6565b610b0e565b610521610db2565b6105526105b8366004614171565b610dbc565b6105216105cb36600461412a565b610e7f565b610521610fce565b6105526105e6366004614171565b610fd5565b6105526105f93660046140d6565b611025565b61055261060c366004614171565b611122565b6105216111e2565b6105216111e8565b6105526111ee565b61063c6106373660046140d6565b61127a565b60405161052e91906142bf565b6105526106573660046140f2565b61128f565b6105216113ac565b6105526106723660046140f2565b611476565b610521611593565b610521611599565b610552610695366004614171565b61159f565b6106a26115f1565b60405161052e91906141de565b61063c61160d565b6106a261162e565b6106a261164a565b6105526106d53660046140d6565b611666565b61063c6106e83660046140d6565b61177a565b6105526106fb3660046140d6565b61178f565b61055261070e366004614171565b61185a565b61055261191c565b610521611930565b6105216119e8565b6105216119f8565b610552611a4f565b610552611adb565b610521611af4565b61063c6107593660046140d6565b611afa565b6106a2611b0f565b610552610774366004614171565b611b2b565b610521611bf1565b61052161078f3660046140d6565b611bfa565b6105526107a2366004614171565b611d6b565b610521611e2b565b610521611e31565b610521611e37565b6105526107cd3660046140d6565b611e3d565b6105526107e0366004614171565b611f08565b6105526107f3366004614171565b611fca565b6106a261208c565b6105216120b0565b6105216120b6565b61055261081e3660046140f2565b6120bc565b610552610831366004614171565b6121d9565b6105216108443660046140d6565b612299565b61052161239b565b610521612451565b6105526108673660046140d6565b612457565b61055261087a3660046140d6565b6125fa565b61052161270e565b6106a2612714565b61055261089d3660046141a1565b612730565b610521612788565b61052161278e565b610521612794565b61052161279a565b6105526108d03660046140d6565b6127a0565b6105526108e33660046140d6565b61286b565b6105526108f6366004614171565b6128c9565b6106a261298d565b6106a26129a9565b6105216129cd565b6305265c0081565b600d5481565b60085473ffffffffffffffffffffffffffffffffffffffff16331461097b576040517f08c379a000000000000000000000000000000000000000000000000000000000815260040161097290614929565b60405180910390fd5b64e8d4a510008111156109ba576040517f08c379a0000000000000000000000000000000000000000000000000000000008152600401610972906147dd565b60178190556040517ff4bd1c5978320077e792afbb3911e8cab1325ce28a6b3e67f9067a1d80692961906109ef908390614b9f565b60405180910390a150565b60085473ffffffffffffffffffffffffffffffffffffffff163314610a4b576040517f08c379a000000000000000000000000000000000000000000000000000000000815260040161097290614929565b6101f4811115610a87576040517f08c379a000000000000000000000000000000000000000000000000000000000815260040161097290614aae565b60168190556040517fcab352e118188b8a2f20a2e8c4ce1241ce2c1740aac4f17c5b0831e65824d8ef906109ef908390614b9f565b6003602081905260009182526040909120805460018201546002830154938301546004840154600585015460068601546007870154600890970154959794969495939492939192909160ff9091169089565b610b166129d7565b6040517f70a0823100000000000000000000000000000000000000000000000000000000815260009073ffffffffffffffffffffffffffffffffffffffff8316906370a0823190610b6b9033906004016141de565b60206040518083038186803b158015610b8357600080fd5b505afa158015610b97573d6000803e3d6000fd5b505050506040513d601f19601f82011682018060405250810190610bbb9190614189565b905080610bf4576040517f08c379a0000000000000000000000000000000000000000000000000000000008152600401610972906144e8565b610c1673ffffffffffffffffffffffffffffffffffffffff8316333084612a4a565b6040517f095ea7b300000000000000000000000000000000000000000000000000000000815273ffffffffffffffffffffffffffffffffffffffff83169063095ea7b390610c8a907f0000000000000000000000000000000000000000000000000000000000000000908590600401614230565b602060405180830381600087803b158015610ca457600080fd5b505af1158015610cb8573d6000803e3d6000fd5b505050506040513d601f19601f82011682018060405250810190610cdc9190614155565b50600b546040517fe2bbb15800000000000000000000000000000000000000000000000000000000815273ffffffffffffffffffffffffffffffffffffffff7f0000000000000000000000000000000000000000000000000000000000000000169163e2bbb15891610d5391908590600401614bcc565b600060405180830381600087803b158015610d6d57600080fd5b505af1158015610d81573d6000803e3d6000fd5b50506040517f57a86f7d14ccde89e22870afe839e3011216827daa9b24e18629f0a1e9d6cc14925060009150a15050565b6509184e72a00081565b60085473ffffffffffffffffffffffffffffffffffffffff163314610e0d576040517f08c379a000000000000000000000000000000000000000000000000000000000815260040161097290614929565b62093a80811115610e4a576040517f08c379a0000000000000000000000000000000000000000000000000000000008152600401610972906149f4565b60188190556040517fb89ddaddb7435be26824cb48d2d0186c9525a2e1ec057abcb502704cdc0686cc906109ef908390614b9f565b73ffffffffffffffffffffffffffffffffffffffff821660009081526003602052604081208054831115610eb257805492505b3360009081526005602052604090205460ff16158015610ee257506018548160010154610edf9190614c36565b42105b15610fc2576000610ef161239b565b610ef9611930565b610f039190614c36565b8254909150600090610f1a64e8d4a5100087614c87565b610f249190614c4e565b90506000610f3187612af3565b60068501546007548654610f459087614c87565b610f4f9190614c4e565b610f599190614cc4565b610f639190614cc4565b9050600064e8d4a51000610f778484614c87565b610f819190614c4e565b601554909150610f9033612b11565b15610f9a57506016545b6000612710610fa98385614c87565b610fb39190614c4e565b9750610fc89650505050505050565b60009150505b92915050565b62093a8081565b610fdd612b17565b60008111611017576040517f08c379a000000000000000000000000000000000000000000000000000000000815260040161097290614389565b611022816000612b56565b50565b803373ffffffffffffffffffffffffffffffffffffffff821614806110615750600a5473ffffffffffffffffffffffffffffffffffffffff1633145b611097576040517f08c379a0000000000000000000000000000000000000000000000000000000008152600401610972906145ea565b61109f612b17565b73ffffffffffffffffffffffffffffffffffffffff82166000908152600360205260409020600781015460ff1680156110db5750428160050154105b611111576040517f08c379a000000000000000000000000000000000000000000000000000000000815260040161097290614b68565b61111d60008085612f29565b505050565b60085473ffffffffffffffffffffffffffffffffffffffff163314611173576040517f08c379a000000000000000000000000000000000000000000000000000000000815260040161097290614929565b600081116111ad576040517f08c379a000000000000000000000000000000000000000000000000000000000815260040161097290614780565b60118190556040517f18b6d179114082d7eda9837e15a39eb30032d5f3df00487a67541398f48fabfe906109ef908390614b9f565b60075481565b60145481565b60085473ffffffffffffffffffffffffffffffffffffffff16331461123f576040517f08c379a000000000000000000000000000000000000000000000000000000000815260040161097290614929565b61124761359f565b61124f6135dd565b6040517f7805862f689e2f13df9f062ff482ad3ad112aca9e0847911ed832e158c525b3390600090a1565b60046020526000908152604090205460ff1681565b60085473ffffffffffffffffffffffffffffffffffffffff1633146112e0576040517f08c379a000000000000000000000000000000000000000000000000000000000815260040161097290614929565b73ffffffffffffffffffffffffffffffffffffffff821661132d576040517f08c379a000000000000000000000000000000000000000000000000000000000815260040161097290614749565b73ffffffffffffffffffffffffffffffffffffffff821660008181526004602052604080822080547fffffffffffffffffffffffffffffffffffffffffffffffffffffffffffffff001685151590811790915590519092917f3d7902bc9a6665bd7caf4240b834bb805d3cd68256889e9f8d2e40a10be41d4491a35050565b6040517f70a0823100000000000000000000000000000000000000000000000000000000815260009073ffffffffffffffffffffffffffffffffffffffff7f000000000000000000000000000000000000000000000000000000000000000016906370a08231906114219030906004016141de565b60206040518083038186803b15801561143957600080fd5b505afa15801561144d573d6000803e3d6000fd5b505050506040513d601f19601f820116820180604052508101906114719190614189565b905090565b60085473ffffffffffffffffffffffffffffffffffffffff1633146114c7576040517f08c379a000000000000000000000000000000000000000000000000000000000815260040161097290614929565b73ffffffffffffffffffffffffffffffffffffffff8216611514576040517f08c379a000000000000000000000000000000000000000000000000000000000815260040161097290614749565b73ffffffffffffffffffffffffffffffffffffffff821660008181526006602052604080822080547fffffffffffffffffffffffffffffffffffffffffffffffffffffffffffffff001685151590811790915590519092917f3d7902bc9a6665bd7caf4240b834bb805d3cd68256889e9f8d2e40a10be41d4491a35050565b600f5481565b600b5481565b6115a7612b17565b6509184e72a00081116115e6576040517f08c379a000000000000000000000000000000000000000000000000000000000815260040161097290614960565b611022600082612b56565b600a5473ffffffffffffffffffffffffffffffffffffffff1681565b60005474010000000000000000000000000000000000000000900460ff1690565b60095473ffffffffffffffffffffffffffffffffffffffff1681565b60025473ffffffffffffffffffffffffffffffffffffffff1681565b60085473ffffffffffffffffffffffffffffffffffffffff1633146116b7576040517f08c379a000000000000000000000000000000000000000000000000000000000815260040161097290614929565b73ffffffffffffffffffffffffffffffffffffffff8116611704576040517f08c379a000000000000000000000000000000000000000000000000000000000815260040161097290614749565b600280547fffffffffffffffffffffffff00000000000000000000000000000000000000001673ffffffffffffffffffffffffffffffffffffffff83811691909117918290556040517faf38f30be8d095bc1461196db21930b7d89226e57b0167f9d6abe951c53f3332926109ef9216906141de565b60066020526000908152604090205460ff1681565b6117976129d7565b73ffffffffffffffffffffffffffffffffffffffff81166117e4576040517f08c379a000000000000000000000000000000000000000000000000000000000815260040161097290614749565b600880547fffffffffffffffffffffffff00000000000000000000000000000000000000001673ffffffffffffffffffffffffffffffffffffffff83811691909117918290556040517f71614071b88dee5e0b2ae578a9dd7b2ebbe9ae832ba419dc0242cd065a290b6c926109ef9216906141de565b60085473ffffffffffffffffffffffffffffffffffffffff1633146118ab576040517f08c379a000000000000000000000000000000000000000000000000000000000815260040161097290614929565b6107d08111156118e7576040517f08c379a0000000000000000000000000000000000000000000000000000000008152600401610972906146b5565b60138190556040517fefeafcf03e479a9566d7ef321b4816de0ba19cfa3cd0fae2f8c5f4a0afb342c4906109ef908390614b9f565b6119246129d7565b61192e600061364d565b565b6000600c547f000000000000000000000000000000000000000000000000000000000000000073ffffffffffffffffffffffffffffffffffffffff166370a08231306040518263ffffffff1660e01b815260040161198e91906141de565b60206040518083038186803b1580156119a657600080fd5b505afa1580156119ba573d6000803e3d6000fd5b505050506040513d601f19601f820116820180604052508101906119de9190614189565b6114719190614c36565b6b204fce5e3e2502611000000081565b6000600754600014611a4257600754611a0f61239b565b611a17611930565b611a219190614c36565b611a3390670de0b6b3a7640000614c87565b611a3d9190614c4e565b611471565b50670de0b6b3a764000090565b60085473ffffffffffffffffffffffffffffffffffffffff163314611aa0576040517f08c379a000000000000000000000000000000000000000000000000000000000815260040161097290614929565b611aa8612b17565b611ab06136c2565b6040517f6985a02210a168e66602d3235cb6db0e70f92b3ba4d376a33c0f3d9434bff62590600090a1565b3360009081526003602052604090205461192e90610fd5565b60135481565b60056020526000908152604090205460ff1681565b60005473ffffffffffffffffffffffffffffffffffffffff1690565b60085473ffffffffffffffffffffffffffffffffffffffff163314611b7c576040517f08c379a000000000000000000000000000000000000000000000000000000000815260040161097290614929565b652d79883d2000811115611bbc576040517f08c379a00000000000000000000000000000000000000000000000000000000081526004016109729061448b565b60128190556040517f7666dfff8c3377938e522b4eed3aff079973a976f95969db60a406d49f40da4e906109ef908390614b9f565b64e8d4a5100081565b73ffffffffffffffffffffffffffffffffffffffff81166000908152600360205260408120805415801590611c335750600781015460ff165b8015611c65575073ffffffffffffffffffffffffffffffffffffffff831660009081526006602052604090205460ff16155b8015611c81575042600e548260050154611c7f9190614c36565b105b15611d60576000611c9061239b565b611c98611930565b611ca29190614c36565b60068301546007548454929350600092611cbc9085614c87565b611cc69190614c4e565b611cd09190614cc4565b90506000836008015482611ce49190614cc4565b90506000600e54856005015442611cfb9190614cc4565b611d059190614cc4565b9050601154811115611d1657506011545b600060115460175483611d299190614c87565b611d339190614c4e565b9050600064e8d4a51000611d478386614c87565b611d519190614c4e565b9750611d669650505050505050565b60009150505b919050565b60085473ffffffffffffffffffffffffffffffffffffffff163314611dbc576040517f08c379a000000000000000000000000000000000000000000000000000000000815260040161097290614929565b60008111611df6576040517f08c379a00000000000000000000000000000000000000000000000000000000081526004016109729061441d565b60108190556040517f9478eb023aac0a7d58a4e935377056bf27cf5b72a2300725f831817a8f62fbde906109ef908390614b9f565b60175481565b600e5481565b60115481565b611e456129d7565b73ffffffffffffffffffffffffffffffffffffffff8116611e92576040517f08c379a000000000000000000000000000000000000000000000000000000000815260040161097290614749565b600a80547fffffffffffffffffffffffff00000000000000000000000000000000000000001673ffffffffffffffffffffffffffffffffffffffff83811691909117918290556040517fda12ee837e6978172aaf54b16145ffe08414fd8710092ef033c71b8eb6ec189a926109ef9216906141de565b60085473ffffffffffffffffffffffffffffffffffffffff163314611f59576040517f08c379a000000000000000000000000000000000000000000000000000000000815260040161097290614929565b6101f4811115611f95576040517f08c379a000000000000000000000000000000000000000000000000000000000815260040161097290614aae565b60158190556040517fd5fe46099fa396290a7f57e36c3c3c8774e2562c18ed5d1dcc0fa75071e03f1d906109ef908390614b9f565b60085473ffffffffffffffffffffffffffffffffffffffff16331461201b576040517f08c379a000000000000000000000000000000000000000000000000000000000815260040161097290614929565b6107d0811115612057576040517f08c379a0000000000000000000000000000000000000000000000000000000008152600401610972906146b5565b60148190556040517fc5d25457b67b87678c987375af13f6e50beb3ad7bfd009da26766ae986eaa20d906109ef908390614b9f565b7f000000000000000000000000000000000000000000000000000000000000000081565b60125481565b6107d081565b60085473ffffffffffffffffffffffffffffffffffffffff16331461210d576040517f08c379a000000000000000000000000000000000000000000000000000000000815260040161097290614929565b73ffffffffffffffffffffffffffffffffffffffff821661215a576040517f08c379a000000000000000000000000000000000000000000000000000000000815260040161097290614749565b73ffffffffffffffffffffffffffffffffffffffff821660008181526005602052604080822080547fffffffffffffffffffffffffffffffffffffffffffffffffffffffffffffff001685151590811790915590519092917f3d7902bc9a6665bd7caf4240b834bb805d3cd68256889e9f8d2e40a10be41d4491a35050565b60085473ffffffffffffffffffffffffffffffffffffffff16331461222a576040517f08c379a000000000000000000000000000000000000000000000000000000000815260040161097290614929565b60008111612264576040517f08c379a000000000000000000000000000000000000000000000000000000000815260040161097290614b0b565b600e8190556040517ff84bf2b901cfc02956d4e69556d7448cef4ea13587e7714dba7c6d697091e7ad906109ef908390614b9f565b73ffffffffffffffffffffffffffffffffffffffff811660009081526003602052604081208054158015906122d35750600781015460ff16155b8015612305575073ffffffffffffffffffffffffffffffffffffffff831660009081526004602052604090205460ff16155b15611d6057600061231461239b565b61231c611930565b6123269190614c36565b9050600060075482846000015461233d9190614c87565b6123479190614c4e565b9050600083600201548261235b9190614cc4565b60135490915061236a87612b11565b1561237457506014545b60006127106123838385614c87565b61238d9190614c4e565b9650611d6695505050505050565b6000807f000000000000000000000000000000000000000000000000000000000000000073ffffffffffffffffffffffffffffffffffffffff1663c799b59d600b54306040518363ffffffff1660e01b81526004016123fb929190614ba8565b60206040518083038186803b15801561241357600080fd5b505afa158015612427573d6000803e3d6000fd5b505050506040513d601f19601f8201168201806040525081019061244b9190614189565b91505090565b6101f481565b60085473ffffffffffffffffffffffffffffffffffffffff1633146124a8576040517f08c379a000000000000000000000000000000000000000000000000000000000815260040161097290614929565b7f000000000000000000000000000000000000000000000000000000000000000073ffffffffffffffffffffffffffffffffffffffff168173ffffffffffffffffffffffffffffffffffffffff16141561252e576040517f08c379a00000000000000000000000000000000000000000000000000000000081526004016109729061451f565b6040517f70a0823100000000000000000000000000000000000000000000000000000000815260009073ffffffffffffffffffffffffffffffffffffffff8316906370a08231906125839030906004016141de565b60206040518083038186803b15801561259b57600080fd5b505afa1580156125af573d6000803e3d6000fd5b505050506040513d601f19601f820116820180604052508101906125d39190614189565b90506125f673ffffffffffffffffffffffffffffffffffffffff83163383613732565b5050565b60085473ffffffffffffffffffffffffffffffffffffffff16331461264b576040517f08c379a000000000000000000000000000000000000000000000000000000000815260040161097290614929565b73ffffffffffffffffffffffffffffffffffffffff8116612698576040517f08c379a000000000000000000000000000000000000000000000000000000000815260040161097290614749565b600180547fffffffffffffffffffffffff00000000000000000000000000000000000000001673ffffffffffffffffffffffffffffffffffffffff83811691909117918290556040517f8f49a182922022d9119a1a6aeeca151b4a5665e86bd61c1ff32e152d459558b2926109ef9216906141de565b60185481565b60015473ffffffffffffffffffffffffffffffffffffffff1681565b612738612b17565b60008211806127475750600081115b61277d576040517f08c379a00000000000000000000000000000000000000000000000000000000081526004016109729061431b565b6125f6828233612f29565b60105481565b60165481565b600c5481565b60155481565b6127a86129d7565b73ffffffffffffffffffffffffffffffffffffffff81166127f5576040517f08c379a000000000000000000000000000000000000000000000000000000000815260040161097290614749565b600980547fffffffffffffffffffffffff00000000000000000000000000000000000000001673ffffffffffffffffffffffffffffffffffffffff83811691909117918290556040517fafa147634b29e2c7bd53ce194256b9f41cfb9ba3036f2b822fdd1d965beea086926109ef9216906141de565b6128736129d7565b73ffffffffffffffffffffffffffffffffffffffff81166128c0576040517f08c379a0000000000000000000000000000000000000000000000000000000008152600401610972906143c0565b6110228161364d565b60085473ffffffffffffffffffffffffffffffffffffffff16331461291a576040517f08c379a000000000000000000000000000000000000000000000000000000000815260040161097290614929565b6305265c00811115612958576040517f08c379a000000000000000000000000000000000000000000000000000000000815260040161097290614897565b600f8190556040517fcab2f3455b51b6ca5377e84fccd0f890b6f6ca36c02e18b6d36cb34f469fe4fe906109ef908390614b9f565b60085473ffffffffffffffffffffffffffffffffffffffff1681565b7f000000000000000000000000000000000000000000000000000000000000000081565b652d79883d200081565b6129df613751565b73ffffffffffffffffffffffffffffffffffffffff166129fd611b0f565b73ffffffffffffffffffffffffffffffffffffffff161461192e576040517f08c379a0000000000000000000000000000000000000000000000000000000008152600401610972906148f4565b612aed846323b872dd60e01b858585604051602401612a6b939291906141ff565b604080517fffffffffffffffffffffffffffffffffffffffffffffffffffffffffffffffe08184030181529190526020810180517bffffffffffffffffffffffffffffffffffffffffffffffffffffffff167fffffffff0000000000000000000000000000000000000000000000000000000090931692909217909152613755565b50505050565b6000612afe82611bfa565b612b0783612299565b610fc89190614c36565b3b151590565b612b1f61160d565b1561192e576040517f08c379a000000000000000000000000000000000000000000000000000000000815260040161097290614712565b3360009081526003602052604090208054831115612ba0576040517f08c379a00000000000000000000000000000000000000000000000000000000081526004016109729061457c565b42816005015410612bdd576040517f08c379a000000000000000000000000000000000000000000000000000000000815260040161097290614454565b60025473ffffffffffffffffffffffffffffffffffffffff1615612c84576002546040517f51cff8d900000000000000000000000000000000000000000000000000000000815273ffffffffffffffffffffffffffffffffffffffff909116906351cff8d990612c519033906004016141de565b600060405180830381600087803b158015612c6b57600080fd5b505af1158015612c7f573d6000803e3d6000fd5b505050505b80548390600090612ca16b204fce5e3e2502611000000084614c87565b612cab9190614c4e565b9050612cb561380b565b612cbe336139e2565b84158015612ccc5750600084115b15612d0d576000612cdb611930565b90508060075486612cec9190614c87565b612cf69190614c4e565b8454909350831115612d0757835492505b50612d34565b82546b204fce5e3e2502611000000090612d279083614c87565b612d319190614c4e565b91505b600060075483612d42611930565b612d4c9190614c87565b612d569190614c4e565b905082846000016000828254612d6c9190614cc4565b925050819055508260076000828254612d859190614cc4565b90915550503360009081526005602052604090205460ff16158015612dba57506018548460010154612db79190614c36565b42105b15612e4757601554612dcb33612b11565b15612dd557506016545b6000612710612de48385614c87565b612dee9190614c4e565b600954909150612e389073ffffffffffffffffffffffffffffffffffffffff7f00000000000000000000000000000000000000000000000000000000000000008116911683613732565b612e428184614cc4565b925050505b612e8873ffffffffffffffffffffffffffffffffffffffff7f0000000000000000000000000000000000000000000000000000000000000000163383613732565b835415612eba57600754612e9a611930565b8554612ea69190614c87565b612eb09190614c4e565b6002850155612ec2565b600060028501555b426003850155612ed133613e53565b3373ffffffffffffffffffffffffffffffffffffffff167ff279e6a1f5e320cca91135676d9cb6e44ca8a08c0b88342bcdb1144f6511b5688285604051612f19929190614bcc565b60405180910390a2505050505050565b73ffffffffffffffffffffffffffffffffffffffff8116600090815260036020526040902080541580612f5c5750600084115b15612fa0576509184e72a0008411612fa0576040517f08c379a00000000000000000000000000000000000000000000000000000000081526004016109729061483a565b600581015483904211612ffe578415612fdd574260048301556008820154600d8054600090612fd0908490614cc4565b9091555050600060088301555b81600401548260050154612ff19190614cc4565b612ffb9082614c36565b90505b83158061300e575062093a808110155b613044576040517f08c379a000000000000000000000000000000000000000000000000000000000815260040161097290614621565b600f54811115613080576040517f08c379a0000000000000000000000000000000000000000000000000000000008152600401610972906145b3565b60025473ffffffffffffffffffffffffffffffffffffffff161561312b576002546040517f0efe6a8b00000000000000000000000000000000000000000000000000000000815273ffffffffffffffffffffffffffffffffffffffff90911690630efe6a8b906130f890869089908990600401614256565b600060405180830381600087803b15801561311257600080fd5b505af1158015613126573d6000803e3d6000fd5b505050505b61313361380b565b6007546131905760006131446113ac565b60095490915061318e9073ffffffffffffffffffffffffffffffffffffffff7f00000000000000000000000000000000000000000000000000000000000000008116911683613732565b505b613199836139e2565b83156132105742826005015410156131c85742600483018190556131be908590614c36565b60058301556131e2565b838260050160008282546131dc9190614c36565b90915550505b6007820180547fffffffffffffffffffffffffffffffffffffffffffffffffffffffffffffff001660011790555b60008060008061321e611930565b9050881561326c5761326873ffffffffffffffffffffffffffffffffffffffff7f00000000000000000000000000000000000000000000000000000000000000001688308c612a4a565b8892505b8554158015906132805750600786015460ff165b156132f95760075486546132949083614c87565b61329e9190614c4e565b91506132aa8284614c36565b92508560000154600760008282546132c29190614cc4565b90915550506000865560048601544214156132f95760088601829055600d80548391906000906132f3908490614c36565b90915550505b600754156133295761330b8282614cc4565b6007546133189085614c87565b6133229190614c4e565b935061332d565b8293505b8560040154866005015411156134b0576000601054601254886004015489600501546133599190614cc4565b6133639190614c87565b61336d9190614c4e565b9050600064e8d4a510006133818784614c87565b61338b9190614c4e565b90506133978187614c36565b9550858860000160008282546133ad9190614c36565b909155506000905064e8d4a510006133c58785614c87565b6133cf9190614c4e565b9050808960060160008282546133e59190614c36565b9250508190555080600c60008282546133fe9190614c36565b925050819055508b8960080160008282546134199190614c36565b925050819055508b600d60008282546134329190614c36565b925050819055508973ffffffffffffffffffffffffffffffffffffffff167f2b943276e5d747f6f7dd46d3b880d8874cb8d6b9b88ca1903990a2738e7dc7a18a600801548b600001548c600401548d6005015461348f9190614cc4565b426040516134a09493929190614bda565b60405180910390a25050506134ca565b838660000160008282546134c49190614c36565b90915550505b60008911806134d95750600088115b156134e5574260018701555b83600760008282546134f79190614c36565b9091555050600686015460075461350c611930565b88546135189190614c87565b6135229190614c4e565b61352c9190614cc4565b600287015542600387015561354087613e53565b8673ffffffffffffffffffffffffffffffffffffffff167f7162984403f6c73c8639375d45a9187dfd04602231bd8e587c415718b5f7e5f98a868b4260405161358c9493929190614bda565b60405180910390a2505050505050505050565b6135a761160d565b61192e576040517f08c379a000000000000000000000000000000000000000000000000000000000815260040161097290614352565b6135e561359f565b600080547fffffffffffffffffffffff00ffffffffffffffffffffffffffffffffffffffff1690557f5db9ee0a495bf2e6ff9c91a7834c1ba4fdd244a5e8aa4e537bd38aeae4b073aa613636613751565b60405161364391906141de565b60405180910390a1565b6000805473ffffffffffffffffffffffffffffffffffffffff8381167fffffffffffffffffffffffff0000000000000000000000000000000000000000831681178455604051919092169283917f8be0079c531659141344cd1fd0a4f28419497f9722a3daafe3b4186f6b6457e09190a35050565b6136ca612b17565b600080547fffffffffffffffffffffff00ffffffffffffffffffffffffffffffffffffffff16740100000000000000000000000000000000000000001790557f62e78cea01bee320cd4e420270b5ea74000d11b0c9f74754ebdbfc544b05a258613636613751565b61111d8363a9059cbb60e01b8484604051602401612a6b929190614230565b3390565b60006137b7826040518060400160405280602081526020017f5361666545524332303a206c6f772d6c6576656c2063616c6c206661696c65648152508573ffffffffffffffffffffffffffffffffffffffff16613f4d9092919063ffffffff16565b80519091501561111d57808060200190518101906137d59190614155565b61111d576040517f08c379a000000000000000000000000000000000000000000000000000000000815260040161097290614a51565b600b546040517fc799b59d00000000000000000000000000000000000000000000000000000000815260009173ffffffffffffffffffffffffffffffffffffffff7f0000000000000000000000000000000000000000000000000000000000000000169163c799b59d91613883913090600401614ba8565b60206040518083038186803b15801561389b57600080fd5b505afa1580156138af573d6000803e3d6000fd5b505050506040513d601f19601f820116820180604052508101906138d39190614189565b905080156110225760006138e56113ac565b600b546040517f441a3e7000000000000000000000000000000000000000000000000000000000815291925073ffffffffffffffffffffffffffffffffffffffff7f0000000000000000000000000000000000000000000000000000000000000000169163441a3e709161395e91600090600401614bcc565b600060405180830381600087803b15801561397857600080fd5b505af115801561398c573d6000803e3d6000fd5b50505050600061399a6113ac565b9050337fc9695243a805adb74c91f28311176c65b417e842d5699893cef56d18bfa48cba6139c88484614cc4565b6040516139d59190614b9f565b60405180910390a2505050565b73ffffffffffffffffffffffffffffffffffffffff811660009081526003602052604090208054156125f657600781015460ff1615613cda57600081600601546007548360000154613a32611930565b613a3c9190614c87565b613a469190614c4e565b613a509190614cc4565b90508160060154600c6000828254613a689190614cc4565b909155505060006006830181905582546007805491929091613a8b908490614cc4565b909155505073ffffffffffffffffffffffffffffffffffffffff831660009081526006602052604090205460ff16158015613ad6575042600e548360050154613ad49190614c36565b105b15613bb5576000826008015482613aed9190614cc4565b90506000600e54846005015442613b049190614cc4565b613b0e9190614cc4565b9050601154811115613b1f57506011545b600060115460175483613b329190614c87565b613b3c9190614c4e565b9050600064e8d4a51000613b508386614c87565b613b5a9190614c4e565b600954909150613ba49073ffffffffffffffffffffffffffffffffffffffff7f00000000000000000000000000000000000000000000000000000000000000008116911683613732565b613bae8186614cc4565b9450505050505b6000613bbf611930565b90506000600754600014613bf557613bd78383614cc4565b600754613be49085614c87565b613bee9190614c4e565b9050613bf8565b50815b80845560078054829190600090613c10908490614c36565b90915550506005840154421115613cd2576007840180547fffffffffffffffffffffffffffffffffffffffffffffffffffffffffffffff00169055600060048501819055600585018190556008850154600d805491929091613c73908490614cc4565b90915550506000600885015560405173ffffffffffffffffffffffffffffffffffffffff8616907ff7870c5b224cbc19873599e46ccfc7103934650509b1af0c3ce90138377c200490613cc99086904290614bcc565b60405180910390a25b5050506125f6565b73ffffffffffffffffffffffffffffffffffffffff821660009081526004602052604090205460ff166125f6576000600754613d14611930565b8354613d209190614c87565b613d2a9190614c4e565b9050816000015460076000828254613d429190614cc4565b909155505060008083556002830154613d5b9083614cc4565b601354909150613d6a85612b11565b15613d7457506014545b6000612710613d838385614c87565b613d8d9190614c4e565b90508015613de957600954613ddc9073ffffffffffffffffffffffffffffffffffffffff7f00000000000000000000000000000000000000000000000000000000000000008116911683613732565b613de68185614cc4565b93505b6000613df3611930565b90506000600754600014613e2957613e0b8683614cc4565b600754613e189088614c87565b613e229190614c4e565b9050613e2c565b50845b80875560078054829190600090613e44908490614c36565b90915550505050505050505050565b60015473ffffffffffffffffffffffffffffffffffffffff16156110225773ffffffffffffffffffffffffffffffffffffffff8116600090815260036020526040812060048101546005820154919291613ead9190614cc4565b6001546008840154600d546010546040517f87356ef700000000000000000000000000000000000000000000000000000000815294955073ffffffffffffffffffffffffffffffffffffffff909316936387356ef793613f169389939092889290600401614284565b600060405180830381600087803b158015613f3057600080fd5b505af1158015613f44573d6000803e3d6000fd5b50505050505050565b6060613f5c8484600085613f66565b90505b9392505050565b606082471015613fa2576040517f08c379a000000000000000000000000000000000000000000000000000000000815260040161097290614658565b613fab85614067565b613fe1576040517f08c379a0000000000000000000000000000000000000000000000000000000008152600401610972906149bd565b6000808673ffffffffffffffffffffffffffffffffffffffff16858760405161400a91906141c2565b60006040518083038185875af1925050503d8060008114614047576040519150601f19603f3d011682016040523d82523d6000602084013e61404c565b606091505b509150915061405c828286614083565b979650505050505050565b73ffffffffffffffffffffffffffffffffffffffff163b151590565b60608315614092575081613f5f565b8251156140a25782518084602001fd5b816040517f08c379a000000000000000000000000000000000000000000000000000000000815260040161097291906142ca565b6000602082840312156140e7578081fd5b8135613f5f81614d36565b60008060408385031215614104578081fd5b823561410f81614d36565b9150602083013561411f81614d58565b809150509250929050565b6000806040838503121561413c578182fd5b823561414781614d36565b946020939093013593505050565b600060208284031215614166578081fd5b8151613f5f81614d58565b600060208284031215614182578081fd5b5035919050565b60006020828403121561419a578081fd5b5051919050565b600080604083850312156141b3578182fd5b50508035926020909101359150565b600082516141d4818460208701614cdb565b9190910192915050565b73ffffffffffffffffffffffffffffffffffffffff91909116815260200190565b73ffffffffffffffffffffffffffffffffffffffff9384168152919092166020820152604081019190915260600190565b73ffffffffffffffffffffffffffffffffffffffff929092168252602082015260400190565b73ffffffffffffffffffffffffffffffffffffffff9390931683526020830191909152604082015260600190565b73ffffffffffffffffffffffffffffffffffffffff959095168552602085019390935260408401919091526060830152608082015260a00190565b901515815260200190565b60006020825282518060208401526142e9816040850160208701614cdb565b601f017fffffffffffffffffffffffffffffffffffffffffffffffffffffffffffffffe0169190910160400192915050565b60208082526012908201527f4e6f7468696e6720746f206465706f7369740000000000000000000000000000604082015260600190565b60208082526014908201527f5061757361626c653a206e6f7420706175736564000000000000000000000000604082015260600190565b60208082526013908201527f4e6f7468696e6720746f20776974686472617700000000000000000000000000604082015260600190565b60208082526026908201527f4f776e61626c653a206e6577206f776e657220697320746865207a65726f206160408201527f6464726573730000000000000000000000000000000000000000000000000000606082015260800190565b6020808252601e908201527f4455524154494f4e5f464143544f522063616e6e6f74206265207a65726f0000604082015260600190565b6020808252600d908201527f5374696c6c20696e206c6f636b00000000000000000000000000000000000000604082015260600190565b60208082526033908201527f424f4f53545f5745494748542063616e6e6f74206265206d6f7265207468616e60408201527f20424f4f53545f5745494748545f4c494d495400000000000000000000000000606082015260800190565b60208082526015908201527f42616c616e6365206d7573742065786365656420300000000000000000000000604082015260600190565b60208082526025908201527f546f6b656e2063616e6e6f742062652073616d65206173206465706f7369742060408201527f746f6b656e000000000000000000000000000000000000000000000000000000606082015260800190565b6020808252601f908201527f576974686472617720616d6f756e7420657863656564732062616c616e636500604082015260600190565b6020808252601c908201527f4d6178696d756d206c6f636b20706572696f6420657863656564656400000000604082015260600190565b6020808252601a908201527f4e6f74206f70657261746f72206f722053686477206f776e6572000000000000604082015260600190565b6020808252601f908201527f4d696e696d756d206c6f636b20706572696f64206973206f6e65207765656b00604082015260600190565b60208082526026908201527f416464726573733a20696e73756666696369656e742062616c616e636520666f60408201527f722063616c6c0000000000000000000000000000000000000000000000000000606082015260800190565b60208082526036908201527f706572666f726d616e63654665652063616e6e6f74206265206d6f726520746860408201527f616e204d41585f504552464f524d414e43455f46454500000000000000000000606082015260800190565b60208082526010908201527f5061757361626c653a2070617573656400000000000000000000000000000000604082015260600190565b60208082526016908201527f43616e6e6f74206265207a65726f206164647265737300000000000000000000604082015260600190565b60208082526026908201527f4455524154494f4e5f464143544f525f4f5645524455452063616e6e6f74206260408201527f65207a65726f0000000000000000000000000000000000000000000000000000606082015260800190565b6020808252602e908201527f6f7665726475654665652063616e6e6f74206265206d6f7265207468616e204d60408201527f41585f4f5645524455455f464545000000000000000000000000000000000000606082015260800190565b60208082526036908201527f4465706f73697420616d6f756e74206d7573742062652067726561746572207460408201527f68616e204d494e5f4445504f5349545f414d4f554e5400000000000000000000606082015260800190565b6020808252603d908201527f4d41585f4c4f434b5f4455524154494f4e2063616e6e6f74206265206d6f726560408201527f207468616e204d41585f4c4f434b5f4455524154494f4e5f4c494d4954000000606082015260800190565b6020808252818101527f4f776e61626c653a2063616c6c6572206973206e6f7420746865206f776e6572604082015260600190565b6020808252600b908201527f61646d696e3a207775743f000000000000000000000000000000000000000000604082015260600190565b60208082526038908201527f576974686472617720616d6f756e74206d75737420626520677265617465722060408201527f7468616e204d494e5f57495448445241575f414d4f554e540000000000000000606082015260800190565b6020808252601d908201527f416464726573733a2063616c6c20746f206e6f6e2d636f6e7472616374000000604082015260600190565b6020808252603d908201527f7769746864726177466565506572696f642063616e6e6f74206265206d6f726560408201527f207468616e204d41585f57495448445241575f4645455f504552494f44000000606082015260800190565b6020808252602a908201527f5361666545524332303a204552433230206f7065726174696f6e20646964206e60408201527f6f74207375636365656400000000000000000000000000000000000000000000606082015260800190565b60208082526030908201527f77697468647261774665652063616e6e6f74206265206d6f7265207468616e2060408201527f4d41585f57495448445241575f46454500000000000000000000000000000000606082015260800190565b60208082526023908201527f554e4c4f434b5f465245455f4455524154494f4e2063616e6e6f74206265207a60408201527f65726f0000000000000000000000000000000000000000000000000000000000606082015260800190565b60208082526011908201527f43616e6e6f7420756e6c6f636b20796574000000000000000000000000000000604082015260600190565b90815260200190565b91825273ffffffffffffffffffffffffffffffffffffffff16602082015260400190565b918252602082015260400190565b93845260208401929092526040830152606082015260800190565b988952602089019790975260408801959095526060870193909352608086019190915260a085015260c0840152151560e08301526101008201526101200190565b60008219821115614c4957614c49614d07565b500190565b600082614c82577f4e487b710000000000000000000000000000000000000000000000000000000081526012600452602481fd5b500490565b6000817fffffffffffffffffffffffffffffffffffffffffffffffffffffffffffffffff0483118215151615614cbf57614cbf614d07565b500290565b600082821015614cd657614cd6614d07565b500390565b60005b83811015614cf6578181015183820152602001614cde565b83811115612aed5750506000910152565b7f4e487b7100000000000000000000000000000000000000000000000000000000600052601160045260246000fd5b73ffffffffffffffffffffffffffffffffffffffff8116811461102257600080fd5b801515811461102257600080fdfea26469706673582212209148be7dbd4a79d027a9f9903f87a5cb14661085db3d662088dd1dffc4d82e9664736f6c63430008010033",
					"opcodes": "PUSH1 0xC0 PUSH1 0x40 MSTORE PUSH3 0x93A80 PUSH1 0xE SSTORE PUSH4 0x1E13380 PUSH1 0xF SSTORE PUSH4 0x1E13380 PUSH1 0x10 SSTORE PUSH3 0xED4E00 PUSH1 0x11 SSTORE PUSH5 0xE8D4A51000 PUSH1 0x12 SSTORE PUSH1 0xC8 PUSH1 0x13 SSTORE PUSH1 0xC8 PUSH1 0x14 SSTORE PUSH1 0xA PUSH1 0x15 SSTORE PUSH1 0xA PUSH1 0x16 SSTORE PUSH5 0xE8D4A51000 PUSH1 0x17 SSTORE PUSH3 0x3F480 PUSH1 0x18 SSTORE CALLVALUE DUP1 ISZERO PUSH3 0x5C JUMPI PUSH1 0x0 DUP1 REVERT JUMPDEST POP PUSH1 0x40 MLOAD PUSH3 0x5021 CODESIZE SUB DUP1 PUSH3 0x5021 DUP4 CODECOPY DUP2 ADD PUSH1 0x40 DUP2 SWAP1 MSTORE PUSH3 0x7F SWAP2 PUSH3 0x157 JUMP JUMPDEST PUSH3 0x93 PUSH3 0x8D PUSH3 0x103 JUMP JUMPDEST PUSH3 0x107 JUMP JUMPDEST PUSH1 0x0 DUP1 SLOAD PUSH1 0xFF PUSH1 0xA0 SHL NOT AND SWAP1 SSTORE PUSH1 0x1 PUSH1 0x1 PUSH1 0x60 SHL SUB NOT PUSH1 0x60 SWAP7 DUP8 SHL DUP2 AND PUSH1 0x80 MSTORE SWAP5 SWAP1 SWAP6 SHL SWAP1 SWAP4 AND PUSH1 0xA0 MSTORE PUSH1 0x8 DUP1 SLOAD PUSH1 0x1 PUSH1 0x1 PUSH1 0xA0 SHL SUB SWAP4 DUP5 AND PUSH1 0x1 PUSH1 0x1 PUSH1 0xA0 SHL SUB NOT SWAP2 DUP3 AND OR SWAP1 SWAP2 SSTORE PUSH1 0x9 DUP1 SLOAD SWAP3 DUP5 AND SWAP3 DUP3 AND SWAP3 SWAP1 SWAP3 OR SWAP1 SWAP2 SSTORE PUSH1 0xA DUP1 SLOAD SWAP3 SWAP1 SWAP4 AND SWAP2 AND OR SWAP1 SSTORE PUSH1 0xB SSTORE PUSH3 0x1F7 JUMP JUMPDEST CALLER SWAP1 JUMP JUMPDEST PUSH1 0x0 DUP1 SLOAD PUSH1 0x1 PUSH1 0x1 PUSH1 0xA0 SHL SUB DUP4 DUP2 AND PUSH1 0x1 PUSH1 0x1 PUSH1 0xA0 SHL SUB NOT DUP4 AND DUP2 OR DUP5 SSTORE PUSH1 0x40 MLOAD SWAP2 SWAP1 SWAP3 AND SWAP3 DUP4 SWAP2 PUSH32 0x8BE0079C531659141344CD1FD0A4F28419497F9722A3DAAFE3B4186F6B6457E0 SWAP2 SWAP1 LOG3 POP POP JUMP JUMPDEST PUSH1 0x0 DUP1 PUSH1 0x0 DUP1 PUSH1 0x0 DUP1 PUSH1 0xC0 DUP8 DUP10 SUB SLT ISZERO PUSH3 0x170 JUMPI DUP2 DUP3 REVERT JUMPDEST DUP7 MLOAD PUSH3 0x17D DUP2 PUSH3 0x1DE JUMP JUMPDEST PUSH1 0x20 DUP9 ADD MLOAD SWAP1 SWAP7 POP PUSH3 0x190 DUP2 PUSH3 0x1DE JUMP JUMPDEST PUSH1 0x40 DUP9 ADD MLOAD SWAP1 SWAP6 POP PUSH3 0x1A3 DUP2 PUSH3 0x1DE JUMP JUMPDEST PUSH1 0x60 DUP9 ADD MLOAD SWAP1 SWAP5 POP PUSH3 0x1B6 DUP2 PUSH3 0x1DE JUMP JUMPDEST PUSH1 0x80 DUP9 ADD MLOAD SWAP1 SWAP4 POP PUSH3 0x1C9 DUP2 PUSH3 0x1DE JUMP JUMPDEST DUP1 SWAP3 POP POP PUSH1 0xA0 DUP8 ADD MLOAD SWAP1 POP SWAP3 SWAP6 POP SWAP3 SWAP6 POP SWAP3 SWAP6 JUMP JUMPDEST PUSH1 0x1 PUSH1 0x1 PUSH1 0xA0 SHL SUB DUP2 AND DUP2 EQ PUSH3 0x1F4 JUMPI PUSH1 0x0 DUP1 REVERT JUMPDEST POP JUMP JUMPDEST PUSH1 0x80 MLOAD PUSH1 0x60 SHR PUSH1 0xA0 MLOAD PUSH1 0x60 SHR PUSH2 0x4D9C PUSH3 0x285 PUSH1 0x0 CODECOPY PUSH1 0x0 DUP2 DUP2 PUSH2 0xC60 ADD MSTORE DUP2 DUP2 PUSH2 0xD1D ADD MSTORE DUP2 DUP2 PUSH2 0x208E ADD MSTORE DUP2 DUP2 PUSH2 0x23A0 ADD MSTORE DUP2 DUP2 PUSH2 0x384E ADD MSTORE PUSH2 0x3928 ADD MSTORE PUSH1 0x0 DUP2 DUP2 PUSH2 0x13EC ADD MSTORE DUP2 DUP2 PUSH2 0x1937 ADD MSTORE DUP2 DUP2 PUSH2 0x24AA ADD MSTORE DUP2 DUP2 PUSH2 0x29AB ADD MSTORE DUP2 DUP2 PUSH2 0x2E0F ADD MSTORE DUP2 DUP2 PUSH2 0x2E61 ADD MSTORE DUP2 DUP2 PUSH2 0x3165 ADD MSTORE DUP2 DUP2 PUSH2 0x3240 ADD MSTORE DUP2 DUP2 PUSH2 0x3B7B ADD MSTORE PUSH2 0x3DB3 ADD MSTORE PUSH2 0x4D9C PUSH1 0x0 RETURN INVALID PUSH1 0x80 PUSH1 0x40 MSTORE CALLVALUE DUP1 ISZERO PUSH2 0x10 JUMPI PUSH1 0x0 DUP1 REVERT JUMPDEST POP PUSH1 0x4 CALLDATASIZE LT PUSH2 0x514 JUMPI PUSH1 0x0 CALLDATALOAD PUSH1 0xE0 SHR DUP1 PUSH4 0x87788782 GT PUSH2 0x2A1 JUMPI DUP1 PUSH4 0xC6ED51BE GT PUSH2 0x16B JUMPI DUP1 PUSH4 0xE464C623 GT PUSH2 0xE3 JUMPI DUP1 PUSH4 0xF2FDE38B GT PUSH2 0x97 JUMPI DUP1 PUSH4 0xF851A440 GT PUSH2 0x7C JUMPI DUP1 PUSH4 0xF851A440 EQ PUSH2 0x8FB JUMPI DUP1 PUSH4 0xFC0C546A EQ PUSH2 0x903 JUMPI DUP1 PUSH4 0xFD253B64 EQ PUSH2 0x90B JUMPI PUSH2 0x514 JUMP JUMPDEST DUP1 PUSH4 0xF2FDE38B EQ PUSH2 0x8D5 JUMPI DUP1 PUSH4 0xF786B958 EQ PUSH2 0x8E8 JUMPI PUSH2 0x514 JUMP JUMPDEST DUP1 PUSH4 0xE73008BC GT PUSH2 0xC8 JUMPI DUP1 PUSH4 0xE73008BC EQ PUSH2 0x8B2 JUMPI DUP1 PUSH4 0xE941FA78 EQ PUSH2 0x8BA JUMPI DUP1 PUSH4 0xF0F44260 EQ PUSH2 0x8C2 JUMPI PUSH2 0x514 JUMP JUMPDEST DUP1 PUSH4 0xE464C623 EQ PUSH2 0x8A2 JUMPI DUP1 PUSH4 0xE4B37EF5 EQ PUSH2 0x8AA JUMPI PUSH2 0x514 JUMP JUMPDEST DUP1 PUSH4 0xDEF68A9C GT PUSH2 0x13A JUMPI DUP1 PUSH4 0xDF10B4E6 GT PUSH2 0x11F JUMPI DUP1 PUSH4 0xDF10B4E6 EQ PUSH2 0x87F JUMPI DUP1 PUSH4 0xDFCEDEEE EQ PUSH2 0x887 JUMPI DUP1 PUSH4 0xE2BBB158 EQ PUSH2 0x88F JUMPI PUSH2 0x514 JUMP JUMPDEST DUP1 PUSH4 0xDEF68A9C EQ PUSH2 0x859 JUMPI DUP1 PUSH4 0xDEF7869D EQ PUSH2 0x86C JUMPI PUSH2 0x514 JUMP JUMPDEST DUP1 PUSH4 0xC6ED51BE EQ PUSH2 0x836 JUMPI DUP1 PUSH4 0xCC9CFBA1 EQ PUSH2 0x849 JUMPI DUP1 PUSH4 0xCCD34CD5 EQ PUSH2 0x779 JUMPI DUP1 PUSH4 0xD4B0DE2F EQ PUSH2 0x851 JUMPI PUSH2 0x514 JUMP JUMPDEST DUP1 PUSH4 0xACAF88CD GT PUSH2 0x219 JUMPI DUP1 PUSH4 0xBC3D652A GT PUSH2 0x1CD JUMPI DUP1 PUSH4 0xBDCA9165 GT PUSH2 0x1B2 JUMPI DUP1 PUSH4 0xBDCA9165 EQ PUSH2 0x808 JUMPI DUP1 PUSH4 0xBEBA0FA0 EQ PUSH2 0x810 JUMPI DUP1 PUSH4 0xC54D349C EQ PUSH2 0x823 JUMPI PUSH2 0x514 JUMP JUMPDEST DUP1 PUSH4 0xBC3D652A EQ PUSH2 0x7F8 JUMPI DUP1 PUSH4 0xBC75F4B8 EQ PUSH2 0x800 JUMPI PUSH2 0x514 JUMP JUMPDEST DUP1 PUSH4 0xB6857844 GT PUSH2 0x1FE JUMPI DUP1 PUSH4 0xB6857844 EQ PUSH2 0x5A2 JUMPI DUP1 PUSH4 0xB6AC642A EQ PUSH2 0x7D2 JUMPI DUP1 PUSH4 0xBB9F408D EQ PUSH2 0x7E5 JUMPI PUSH2 0x514 JUMP JUMPDEST DUP1 PUSH4 0xACAF88CD EQ PUSH2 0x7B7 JUMPI DUP1 PUSH4 0xB3AB15FB EQ PUSH2 0x7BF JUMPI PUSH2 0x514 JUMP JUMPDEST DUP1 PUSH4 0x948A03F2 GT PUSH2 0x270 JUMPI DUP1 PUSH4 0xA3639B39 GT PUSH2 0x255 JUMPI DUP1 PUSH4 0xA3639B39 EQ PUSH2 0x794 JUMPI DUP1 PUSH4 0xA5834E06 EQ PUSH2 0x7A7 JUMPI DUP1 PUSH4 0xAAADA5DA EQ PUSH2 0x7AF JUMPI PUSH2 0x514 JUMP JUMPDEST DUP1 PUSH4 0x948A03F2 EQ PUSH2 0x779 JUMPI DUP1 PUSH4 0x95DC14E1 EQ PUSH2 0x781 JUMPI PUSH2 0x514 JUMP JUMPDEST DUP1 PUSH4 0x87788782 EQ PUSH2 0x743 JUMPI DUP1 PUSH4 0x87D4BDA9 EQ PUSH2 0x74B JUMPI DUP1 PUSH4 0x8DA5CB5B EQ PUSH2 0x75E JUMPI DUP1 PUSH4 0x93C99E6A EQ PUSH2 0x766 JUMPI PUSH2 0x514 JUMP JUMPDEST DUP1 PUSH4 0x4E4DE1E9 GT PUSH2 0x3E2 JUMPI DUP1 PUSH4 0x668679BA GT PUSH2 0x35A JUMPI DUP1 PUSH4 0x731FF24A GT PUSH2 0x30E JUMPI DUP1 PUSH4 0x78B4330F GT PUSH2 0x2F3 JUMPI DUP1 PUSH4 0x78B4330F EQ PUSH2 0x5D0 JUMPI DUP1 PUSH4 0x8456CB59 EQ PUSH2 0x733 JUMPI DUP1 PUSH4 0x853828B6 EQ PUSH2 0x73B JUMPI PUSH2 0x514 JUMP JUMPDEST DUP1 PUSH4 0x731FF24A EQ PUSH2 0x723 JUMPI DUP1 PUSH4 0x77C7B8FC EQ PUSH2 0x72B JUMPI PUSH2 0x514 JUMP JUMPDEST DUP1 PUSH4 0x70897B23 GT PUSH2 0x33F JUMPI DUP1 PUSH4 0x70897B23 EQ PUSH2 0x700 JUMPI DUP1 PUSH4 0x715018A6 EQ PUSH2 0x713 JUMPI DUP1 PUSH4 0x722713F7 EQ PUSH2 0x71B JUMPI PUSH2 0x514 JUMP JUMPDEST DUP1 PUSH4 0x668679BA EQ PUSH2 0x6DA JUMPI DUP1 PUSH4 0x704B6C02 EQ PUSH2 0x6ED JUMPI PUSH2 0x514 JUMP JUMPDEST DUP1 PUSH4 0x570CA735 GT PUSH2 0x3B1 JUMPI DUP1 PUSH4 0x61D027B3 GT PUSH2 0x396 JUMPI DUP1 PUSH4 0x61D027B3 EQ PUSH2 0x6B7 JUMPI DUP1 PUSH4 0x61FA6368 EQ PUSH2 0x6BF JUMPI DUP1 PUSH4 0x62122F5A EQ PUSH2 0x6C7 JUMPI PUSH2 0x514 JUMP JUMPDEST DUP1 PUSH4 0x570CA735 EQ PUSH2 0x69A JUMPI DUP1 PUSH4 0x5C975ABB EQ PUSH2 0x6AF JUMPI PUSH2 0x514 JUMP JUMPDEST DUP1 PUSH4 0x4E4DE1E9 EQ PUSH2 0x664 JUMPI DUP1 PUSH4 0x4F1BFC9E EQ PUSH2 0x677 JUMPI DUP1 PUSH4 0x51FB26DF EQ PUSH2 0x67F JUMPI DUP1 PUSH4 0x5521E9BF EQ PUSH2 0x687 JUMPI PUSH2 0x514 JUMP JUMPDEST DUP1 PUSH4 0x2CFC5F01 GT PUSH2 0x490 JUMPI DUP1 PUSH4 0x3EB78874 GT PUSH2 0x444 JUMPI DUP1 PUSH4 0x3FEC4E32 GT PUSH2 0x429 JUMPI DUP1 PUSH4 0x3FEC4E32 EQ PUSH2 0x629 JUMPI DUP1 PUSH4 0x423B93ED EQ PUSH2 0x649 JUMPI DUP1 PUSH4 0x48A0D754 EQ PUSH2 0x65C JUMPI PUSH2 0x514 JUMP JUMPDEST DUP1 PUSH4 0x3EB78874 EQ PUSH2 0x619 JUMPI DUP1 PUSH4 0x3F4BA83A EQ PUSH2 0x621 JUMPI PUSH2 0x514 JUMP JUMPDEST DUP1 PUSH4 0x2F6C493C GT PUSH2 0x475 JUMPI DUP1 PUSH4 0x2F6C493C EQ PUSH2 0x5EB JUMPI DUP1 PUSH4 0x35981921 EQ PUSH2 0x5FE JUMPI DUP1 PUSH4 0x3A98EF39 EQ PUSH2 0x611 JUMPI PUSH2 0x514 JUMP JUMPDEST DUP1 PUSH4 0x2CFC5F01 EQ PUSH2 0x5D0 JUMPI DUP1 PUSH4 0x2E1A7D4D EQ PUSH2 0x5D8 JUMPI PUSH2 0x514 JUMP JUMPDEST DUP1 PUSH4 0x1959A002 GT PUSH2 0x4E7 JUMPI DUP1 PUSH4 0x1EA30FEF GT PUSH2 0x4CC JUMPI DUP1 PUSH4 0x1EA30FEF EQ PUSH2 0x5A2 JUMPI DUP1 PUSH4 0x1EFAC1B8 EQ PUSH2 0x5AA JUMPI DUP1 PUSH4 0x29A5CFD6 EQ PUSH2 0x5BD JUMPI PUSH2 0x514 JUMP JUMPDEST DUP1 PUSH4 0x1959A002 EQ PUSH2 0x567 JUMPI DUP1 PUSH4 0x19AB453C EQ PUSH2 0x58F JUMPI PUSH2 0x514 JUMP JUMPDEST DUP1 PUSH4 0x1E81326 EQ PUSH2 0x519 JUMPI DUP1 PUSH4 0x5A9F274 EQ PUSH2 0x537 JUMPI DUP1 PUSH4 0xC59696B EQ PUSH2 0x53F JUMPI DUP1 PUSH4 0x14FF3039 EQ PUSH2 0x554 JUMPI JUMPDEST PUSH1 0x0 DUP1 REVERT JUMPDEST PUSH2 0x521 PUSH2 0x913 JUMP JUMPDEST PUSH1 0x40 MLOAD PUSH2 0x52E SWAP2 SWAP1 PUSH2 0x4B9F JUMP JUMPDEST PUSH1 0x40 MLOAD DUP1 SWAP2 SUB SWAP1 RETURN JUMPDEST PUSH2 0x521 PUSH2 0x91B JUMP JUMPDEST PUSH2 0x552 PUSH2 0x54D CALLDATASIZE PUSH1 0x4 PUSH2 0x4171 JUMP JUMPDEST PUSH2 0x921 JUMP JUMPDEST STOP JUMPDEST PUSH2 0x552 PUSH2 0x562 CALLDATASIZE PUSH1 0x4 PUSH2 0x4171 JUMP JUMPDEST PUSH2 0x9FA JUMP JUMPDEST PUSH2 0x57A PUSH2 0x575 CALLDATASIZE PUSH1 0x4 PUSH2 0x40D6 JUMP JUMPDEST PUSH2 0xABC JUMP JUMPDEST PUSH1 0x40 MLOAD PUSH2 0x52E SWAP10 SWAP9 SWAP8 SWAP7 SWAP6 SWAP5 SWAP4 SWAP3 SWAP2 SWAP1 PUSH2 0x4BF5 JUMP JUMPDEST PUSH2 0x552 PUSH2 0x59D CALLDATASIZE PUSH1 0x4 PUSH2 0x40D6 JUMP JUMPDEST PUSH2 0xB0E JUMP JUMPDEST PUSH2 0x521 PUSH2 0xDB2 JUMP JUMPDEST PUSH2 0x552 PUSH2 0x5B8 CALLDATASIZE PUSH1 0x4 PUSH2 0x4171 JUMP JUMPDEST PUSH2 0xDBC JUMP JUMPDEST PUSH2 0x521 PUSH2 0x5CB CALLDATASIZE PUSH1 0x4 PUSH2 0x412A JUMP JUMPDEST PUSH2 0xE7F JUMP JUMPDEST PUSH2 0x521 PUSH2 0xFCE JUMP JUMPDEST PUSH2 0x552 PUSH2 0x5E6 CALLDATASIZE PUSH1 0x4 PUSH2 0x4171 JUMP JUMPDEST PUSH2 0xFD5 JUMP JUMPDEST PUSH2 0x552 PUSH2 0x5F9 CALLDATASIZE PUSH1 0x4 PUSH2 0x40D6 JUMP JUMPDEST PUSH2 0x1025 JUMP JUMPDEST PUSH2 0x552 PUSH2 0x60C CALLDATASIZE PUSH1 0x4 PUSH2 0x4171 JUMP JUMPDEST PUSH2 0x1122 JUMP JUMPDEST PUSH2 0x521 PUSH2 0x11E2 JUMP JUMPDEST PUSH2 0x521 PUSH2 0x11E8 JUMP JUMPDEST PUSH2 0x552 PUSH2 0x11EE JUMP JUMPDEST PUSH2 0x63C PUSH2 0x637 CALLDATASIZE PUSH1 0x4 PUSH2 0x40D6 JUMP JUMPDEST PUSH2 0x127A JUMP JUMPDEST PUSH1 0x40 MLOAD PUSH2 0x52E SWAP2 SWAP1 PUSH2 0x42BF JUMP JUMPDEST PUSH2 0x552 PUSH2 0x657 CALLDATASIZE PUSH1 0x4 PUSH2 0x40F2 JUMP JUMPDEST PUSH2 0x128F JUMP JUMPDEST PUSH2 0x521 PUSH2 0x13AC JUMP JUMPDEST PUSH2 0x552 PUSH2 0x672 CALLDATASIZE PUSH1 0x4 PUSH2 0x40F2 JUMP JUMPDEST PUSH2 0x1476 JUMP JUMPDEST PUSH2 0x521 PUSH2 0x1593 JUMP JUMPDEST PUSH2 0x521 PUSH2 0x1599 JUMP JUMPDEST PUSH2 0x552 PUSH2 0x695 CALLDATASIZE PUSH1 0x4 PUSH2 0x4171 JUMP JUMPDEST PUSH2 0x159F JUMP JUMPDEST PUSH2 0x6A2 PUSH2 0x15F1 JUMP JUMPDEST PUSH1 0x40 MLOAD PUSH2 0x52E SWAP2 SWAP1 PUSH2 0x41DE JUMP JUMPDEST PUSH2 0x63C PUSH2 0x160D JUMP JUMPDEST PUSH2 0x6A2 PUSH2 0x162E JUMP JUMPDEST PUSH2 0x6A2 PUSH2 0x164A JUMP JUMPDEST PUSH2 0x552 PUSH2 0x6D5 CALLDATASIZE PUSH1 0x4 PUSH2 0x40D6 JUMP JUMPDEST PUSH2 0x1666 JUMP JUMPDEST PUSH2 0x63C PUSH2 0x6E8 CALLDATASIZE PUSH1 0x4 PUSH2 0x40D6 JUMP JUMPDEST PUSH2 0x177A JUMP JUMPDEST PUSH2 0x552 PUSH2 0x6FB CALLDATASIZE PUSH1 0x4 PUSH2 0x40D6 JUMP JUMPDEST PUSH2 0x178F JUMP JUMPDEST PUSH2 0x552 PUSH2 0x70E CALLDATASIZE PUSH1 0x4 PUSH2 0x4171 JUMP JUMPDEST PUSH2 0x185A JUMP JUMPDEST PUSH2 0x552 PUSH2 0x191C JUMP JUMPDEST PUSH2 0x521 PUSH2 0x1930 JUMP JUMPDEST PUSH2 0x521 PUSH2 0x19E8 JUMP JUMPDEST PUSH2 0x521 PUSH2 0x19F8 JUMP JUMPDEST PUSH2 0x552 PUSH2 0x1A4F JUMP JUMPDEST PUSH2 0x552 PUSH2 0x1ADB JUMP JUMPDEST PUSH2 0x521 PUSH2 0x1AF4 JUMP JUMPDEST PUSH2 0x63C PUSH2 0x759 CALLDATASIZE PUSH1 0x4 PUSH2 0x40D6 JUMP JUMPDEST PUSH2 0x1AFA JUMP JUMPDEST PUSH2 0x6A2 PUSH2 0x1B0F JUMP JUMPDEST PUSH2 0x552 PUSH2 0x774 CALLDATASIZE PUSH1 0x4 PUSH2 0x4171 JUMP JUMPDEST PUSH2 0x1B2B JUMP JUMPDEST PUSH2 0x521 PUSH2 0x1BF1 JUMP JUMPDEST PUSH2 0x521 PUSH2 0x78F CALLDATASIZE PUSH1 0x4 PUSH2 0x40D6 JUMP JUMPDEST PUSH2 0x1BFA JUMP JUMPDEST PUSH2 0x552 PUSH2 0x7A2 CALLDATASIZE PUSH1 0x4 PUSH2 0x4171 JUMP JUMPDEST PUSH2 0x1D6B JUMP JUMPDEST PUSH2 0x521 PUSH2 0x1E2B JUMP JUMPDEST PUSH2 0x521 PUSH2 0x1E31 JUMP JUMPDEST PUSH2 0x521 PUSH2 0x1E37 JUMP JUMPDEST PUSH2 0x552 PUSH2 0x7CD CALLDATASIZE PUSH1 0x4 PUSH2 0x40D6 JUMP JUMPDEST PUSH2 0x1E3D JUMP JUMPDEST PUSH2 0x552 PUSH2 0x7E0 CALLDATASIZE PUSH1 0x4 PUSH2 0x4171 JUMP JUMPDEST PUSH2 0x1F08 JUMP JUMPDEST PUSH2 0x552 PUSH2 0x7F3 CALLDATASIZE PUSH1 0x4 PUSH2 0x4171 JUMP JUMPDEST PUSH2 0x1FCA JUMP JUMPDEST PUSH2 0x6A2 PUSH2 0x208C JUMP JUMPDEST PUSH2 0x521 PUSH2 0x20B0 JUMP JUMPDEST PUSH2 0x521 PUSH2 0x20B6 JUMP JUMPDEST PUSH2 0x552 PUSH2 0x81E CALLDATASIZE PUSH1 0x4 PUSH2 0x40F2 JUMP JUMPDEST PUSH2 0x20BC JUMP JUMPDEST PUSH2 0x552 PUSH2 0x831 CALLDATASIZE PUSH1 0x4 PUSH2 0x4171 JUMP JUMPDEST PUSH2 0x21D9 JUMP JUMPDEST PUSH2 0x521 PUSH2 0x844 CALLDATASIZE PUSH1 0x4 PUSH2 0x40D6 JUMP JUMPDEST PUSH2 0x2299 JUMP JUMPDEST PUSH2 0x521 PUSH2 0x239B JUMP JUMPDEST PUSH2 0x521 PUSH2 0x2451 JUMP JUMPDEST PUSH2 0x552 PUSH2 0x867 CALLDATASIZE PUSH1 0x4 PUSH2 0x40D6 JUMP JUMPDEST PUSH2 0x2457 JUMP JUMPDEST PUSH2 0x552 PUSH2 0x87A CALLDATASIZE PUSH1 0x4 PUSH2 0x40D6 JUMP JUMPDEST PUSH2 0x25FA JUMP JUMPDEST PUSH2 0x521 PUSH2 0x270E JUMP JUMPDEST PUSH2 0x6A2 PUSH2 0x2714 JUMP JUMPDEST PUSH2 0x552 PUSH2 0x89D CALLDATASIZE PUSH1 0x4 PUSH2 0x41A1 JUMP JUMPDEST PUSH2 0x2730 JUMP JUMPDEST PUSH2 0x521 PUSH2 0x2788 JUMP JUMPDEST PUSH2 0x521 PUSH2 0x278E JUMP JUMPDEST PUSH2 0x521 PUSH2 0x2794 JUMP JUMPDEST PUSH2 0x521 PUSH2 0x279A JUMP JUMPDEST PUSH2 0x552 PUSH2 0x8D0 CALLDATASIZE PUSH1 0x4 PUSH2 0x40D6 JUMP JUMPDEST PUSH2 0x27A0 JUMP JUMPDEST PUSH2 0x552 PUSH2 0x8E3 CALLDATASIZE PUSH1 0x4 PUSH2 0x40D6 JUMP JUMPDEST PUSH2 0x286B JUMP JUMPDEST PUSH2 0x552 PUSH2 0x8F6 CALLDATASIZE PUSH1 0x4 PUSH2 0x4171 JUMP JUMPDEST PUSH2 0x28C9 JUMP JUMPDEST PUSH2 0x6A2 PUSH2 0x298D JUMP JUMPDEST PUSH2 0x6A2 PUSH2 0x29A9 JUMP JUMPDEST PUSH2 0x521 PUSH2 0x29CD JUMP JUMPDEST PUSH4 0x5265C00 DUP2 JUMP JUMPDEST PUSH1 0xD SLOAD DUP2 JUMP JUMPDEST PUSH1 0x8 SLOAD PUSH20 0xFFFFFFFFFFFFFFFFFFFFFFFFFFFFFFFFFFFFFFFF AND CALLER EQ PUSH2 0x97B JUMPI PUSH1 0x40 MLOAD PUSH32 0x8C379A000000000000000000000000000000000000000000000000000000000 DUP2 MSTORE PUSH1 0x4 ADD PUSH2 0x972 SWAP1 PUSH2 0x4929 JUMP JUMPDEST PUSH1 0x40 MLOAD DUP1 SWAP2 SUB SWAP1 REVERT JUMPDEST PUSH5 0xE8D4A51000 DUP2 GT ISZERO PUSH2 0x9BA JUMPI PUSH1 0x40 MLOAD PUSH32 0x8C379A000000000000000000000000000000000000000000000000000000000 DUP2 MSTORE PUSH1 0x4 ADD PUSH2 0x972 SWAP1 PUSH2 0x47DD JUMP JUMPDEST PUSH1 0x17 DUP2 SWAP1 SSTORE PUSH1 0x40 MLOAD PUSH32 0xF4BD1C5978320077E792AFBB3911E8CAB1325CE28A6B3E67F9067A1D80692961 SWAP1 PUSH2 0x9EF SWAP1 DUP4 SWAP1 PUSH2 0x4B9F JUMP JUMPDEST PUSH1 0x40 MLOAD DUP1 SWAP2 SUB SWAP1 LOG1 POP JUMP JUMPDEST PUSH1 0x8 SLOAD PUSH20 0xFFFFFFFFFFFFFFFFFFFFFFFFFFFFFFFFFFFFFFFF AND CALLER EQ PUSH2 0xA4B JUMPI PUSH1 0x40 MLOAD PUSH32 0x8C379A000000000000000000000000000000000000000000000000000000000 DUP2 MSTORE PUSH1 0x4 ADD PUSH2 0x972 SWAP1 PUSH2 0x4929 JUMP JUMPDEST PUSH2 0x1F4 DUP2 GT ISZERO PUSH2 0xA87 JUMPI PUSH1 0x40 MLOAD PUSH32 0x8C379A000000000000000000000000000000000000000000000000000000000 DUP2 MSTORE PUSH1 0x4 ADD PUSH2 0x972 SWAP1 PUSH2 0x4AAE JUMP JUMPDEST PUSH1 0x16 DUP2 SWAP1 SSTORE PUSH1 0x40 MLOAD PUSH32 0xCAB352E118188B8A2F20A2E8C4CE1241CE2C1740AAC4F17C5B0831E65824D8EF SWAP1 PUSH2 0x9EF SWAP1 DUP4 SWAP1 PUSH2 0x4B9F JUMP JUMPDEST PUSH1 0x3 PUSH1 0x20 DUP2 SWAP1 MSTORE PUSH1 0x0 SWAP2 DUP3 MSTORE PUSH1 0x40 SWAP1 SWAP2 KECCAK256 DUP1 SLOAD PUSH1 0x1 DUP3 ADD SLOAD PUSH1 0x2 DUP4 ADD SLOAD SWAP4 DUP4 ADD SLOAD PUSH1 0x4 DUP5 ADD SLOAD PUSH1 0x5 DUP6 ADD SLOAD PUSH1 0x6 DUP7 ADD SLOAD PUSH1 0x7 DUP8 ADD SLOAD PUSH1 0x8 SWAP1 SWAP8 ADD SLOAD SWAP6 SWAP8 SWAP5 SWAP7 SWAP5 SWAP6 SWAP4 SWAP5 SWAP3 SWAP4 SWAP2 SWAP3 SWAP1 SWAP2 PUSH1 0xFF SWAP1 SWAP2 AND SWAP1 DUP10 JUMP JUMPDEST PUSH2 0xB16 PUSH2 0x29D7 JUMP JUMPDEST PUSH1 0x40 MLOAD PUSH32 0x70A0823100000000000000000000000000000000000000000000000000000000 DUP2 MSTORE PUSH1 0x0 SWAP1 PUSH20 0xFFFFFFFFFFFFFFFFFFFFFFFFFFFFFFFFFFFFFFFF DUP4 AND SWAP1 PUSH4 0x70A08231 SWAP1 PUSH2 0xB6B SWAP1 CALLER SWAP1 PUSH1 0x4 ADD PUSH2 0x41DE JUMP JUMPDEST PUSH1 0x20 PUSH1 0x40 MLOAD DUP1 DUP4 SUB DUP2 DUP7 DUP1 EXTCODESIZE ISZERO DUP1 ISZERO PUSH2 0xB83 JUMPI PUSH1 0x0 DUP1 REVERT JUMPDEST POP GAS STATICCALL ISZERO DUP1 ISZERO PUSH2 0xB97 JUMPI RETURNDATASIZE PUSH1 0x0 DUP1 RETURNDATACOPY RETURNDATASIZE PUSH1 0x0 REVERT JUMPDEST POP POP POP POP PUSH1 0x40 MLOAD RETURNDATASIZE PUSH1 0x1F NOT PUSH1 0x1F DUP3 ADD AND DUP3 ADD DUP1 PUSH1 0x40 MSTORE POP DUP2 ADD SWAP1 PUSH2 0xBBB SWAP2 SWAP1 PUSH2 0x4189 JUMP JUMPDEST SWAP1 POP DUP1 PUSH2 0xBF4 JUMPI PUSH1 0x40 MLOAD PUSH32 0x8C379A000000000000000000000000000000000000000000000000000000000 DUP2 MSTORE PUSH1 0x4 ADD PUSH2 0x972 SWAP1 PUSH2 0x44E8 JUMP JUMPDEST PUSH2 0xC16 PUSH20 0xFFFFFFFFFFFFFFFFFFFFFFFFFFFFFFFFFFFFFFFF DUP4 AND CALLER ADDRESS DUP5 PUSH2 0x2A4A JUMP JUMPDEST PUSH1 0x40 MLOAD PUSH32 0x95EA7B300000000000000000000000000000000000000000000000000000000 DUP2 MSTORE PUSH20 0xFFFFFFFFFFFFFFFFFFFFFFFFFFFFFFFFFFFFFFFF DUP4 AND SWAP1 PUSH4 0x95EA7B3 SWAP1 PUSH2 0xC8A SWAP1 PUSH32 0x0 SWAP1 DUP6 SWAP1 PUSH1 0x4 ADD PUSH2 0x4230 JUMP JUMPDEST PUSH1 0x20 PUSH1 0x40 MLOAD DUP1 DUP4 SUB DUP2 PUSH1 0x0 DUP8 DUP1 EXTCODESIZE ISZERO DUP1 ISZERO PUSH2 0xCA4 JUMPI PUSH1 0x0 DUP1 REVERT JUMPDEST POP GAS CALL ISZERO DUP1 ISZERO PUSH2 0xCB8 JUMPI RETURNDATASIZE PUSH1 0x0 DUP1 RETURNDATACOPY RETURNDATASIZE PUSH1 0x0 REVERT JUMPDEST POP POP POP POP PUSH1 0x40 MLOAD RETURNDATASIZE PUSH1 0x1F NOT PUSH1 0x1F DUP3 ADD AND DUP3 ADD DUP1 PUSH1 0x40 MSTORE POP DUP2 ADD SWAP1 PUSH2 0xCDC SWAP2 SWAP1 PUSH2 0x4155 JUMP JUMPDEST POP PUSH1 0xB SLOAD PUSH1 0x40 MLOAD PUSH32 0xE2BBB15800000000000000000000000000000000000000000000000000000000 DUP2 MSTORE PUSH20 0xFFFFFFFFFFFFFFFFFFFFFFFFFFFFFFFFFFFFFFFF PUSH32 0x0 AND SWAP2 PUSH4 0xE2BBB158 SWAP2 PUSH2 0xD53 SWAP2 SWAP1 DUP6 SWAP1 PUSH1 0x4 ADD PUSH2 0x4BCC JUMP JUMPDEST PUSH1 0x0 PUSH1 0x40 MLOAD DUP1 DUP4 SUB DUP2 PUSH1 0x0 DUP8 DUP1 EXTCODESIZE ISZERO DUP1 ISZERO PUSH2 0xD6D JUMPI PUSH1 0x0 DUP1 REVERT JUMPDEST POP GAS CALL ISZERO DUP1 ISZERO PUSH2 0xD81 JUMPI RETURNDATASIZE PUSH1 0x0 DUP1 RETURNDATACOPY RETURNDATASIZE PUSH1 0x0 REVERT JUMPDEST POP POP PUSH1 0x40 MLOAD PUSH32 0x57A86F7D14CCDE89E22870AFE839E3011216827DAA9B24E18629F0A1E9D6CC14 SWAP3 POP PUSH1 0x0 SWAP2 POP LOG1 POP POP JUMP JUMPDEST PUSH6 0x9184E72A000 DUP2 JUMP JUMPDEST PUSH1 0x8 SLOAD PUSH20 0xFFFFFFFFFFFFFFFFFFFFFFFFFFFFFFFFFFFFFFFF AND CALLER EQ PUSH2 0xE0D JUMPI PUSH1 0x40 MLOAD PUSH32 0x8C379A000000000000000000000000000000000000000000000000000000000 DUP2 MSTORE PUSH1 0x4 ADD PUSH2 0x972 SWAP1 PUSH2 0x4929 JUMP JUMPDEST PUSH3 0x93A80 DUP2 GT ISZERO PUSH2 0xE4A JUMPI PUSH1 0x40 MLOAD PUSH32 0x8C379A000000000000000000000000000000000000000000000000000000000 DUP2 MSTORE PUSH1 0x4 ADD PUSH2 0x972 SWAP1 PUSH2 0x49F4 JUMP JUMPDEST PUSH1 0x18 DUP2 SWAP1 SSTORE PUSH1 0x40 MLOAD PUSH32 0xB89DDADDB7435BE26824CB48D2D0186C9525A2E1EC057ABCB502704CDC0686CC SWAP1 PUSH2 0x9EF SWAP1 DUP4 SWAP1 PUSH2 0x4B9F JUMP JUMPDEST PUSH20 0xFFFFFFFFFFFFFFFFFFFFFFFFFFFFFFFFFFFFFFFF DUP3 AND PUSH1 0x0 SWAP1 DUP2 MSTORE PUSH1 0x3 PUSH1 0x20 MSTORE PUSH1 0x40 DUP2 KECCAK256 DUP1 SLOAD DUP4 GT ISZERO PUSH2 0xEB2 JUMPI DUP1 SLOAD SWAP3 POP JUMPDEST CALLER PUSH1 0x0 SWAP1 DUP2 MSTORE PUSH1 0x5 PUSH1 0x20 MSTORE PUSH1 0x40 SWAP1 KECCAK256 SLOAD PUSH1 0xFF AND ISZERO DUP1 ISZERO PUSH2 0xEE2 JUMPI POP PUSH1 0x18 SLOAD DUP2 PUSH1 0x1 ADD SLOAD PUSH2 0xEDF SWAP2 SWAP1 PUSH2 0x4C36 JUMP JUMPDEST TIMESTAMP LT JUMPDEST ISZERO PUSH2 0xFC2 JUMPI PUSH1 0x0 PUSH2 0xEF1 PUSH2 0x239B JUMP JUMPDEST PUSH2 0xEF9 PUSH2 0x1930 JUMP JUMPDEST PUSH2 0xF03 SWAP2 SWAP1 PUSH2 0x4C36 JUMP JUMPDEST DUP3 SLOAD SWAP1 SWAP2 POP PUSH1 0x0 SWAP1 PUSH2 0xF1A PUSH5 0xE8D4A51000 DUP8 PUSH2 0x4C87 JUMP JUMPDEST PUSH2 0xF24 SWAP2 SWAP1 PUSH2 0x4C4E JUMP JUMPDEST SWAP1 POP PUSH1 0x0 PUSH2 0xF31 DUP8 PUSH2 0x2AF3 JUMP JUMPDEST PUSH1 0x6 DUP6 ADD SLOAD PUSH1 0x7 SLOAD DUP7 SLOAD PUSH2 0xF45 SWAP1 DUP8 PUSH2 0x4C87 JUMP JUMPDEST PUSH2 0xF4F SWAP2 SWAP1 PUSH2 0x4C4E JUMP JUMPDEST PUSH2 0xF59 SWAP2 SWAP1 PUSH2 0x4CC4 JUMP JUMPDEST PUSH2 0xF63 SWAP2 SWAP1 PUSH2 0x4CC4 JUMP JUMPDEST SWAP1 POP PUSH1 0x0 PUSH5 0xE8D4A51000 PUSH2 0xF77 DUP5 DUP5 PUSH2 0x4C87 JUMP JUMPDEST PUSH2 0xF81 SWAP2 SWAP1 PUSH2 0x4C4E JUMP JUMPDEST PUSH1 0x15 SLOAD SWAP1 SWAP2 POP PUSH2 0xF90 CALLER PUSH2 0x2B11 JUMP JUMPDEST ISZERO PUSH2 0xF9A JUMPI POP PUSH1 0x16 SLOAD JUMPDEST PUSH1 0x0 PUSH2 0x2710 PUSH2 0xFA9 DUP4 DUP6 PUSH2 0x4C87 JUMP JUMPDEST PUSH2 0xFB3 SWAP2 SWAP1 PUSH2 0x4C4E JUMP JUMPDEST SWAP8 POP PUSH2 0xFC8 SWAP7 POP POP POP POP POP POP POP JUMP JUMPDEST PUSH1 0x0 SWAP2 POP POP JUMPDEST SWAP3 SWAP2 POP POP JUMP JUMPDEST PUSH3 0x93A80 DUP2 JUMP JUMPDEST PUSH2 0xFDD PUSH2 0x2B17 JUMP JUMPDEST PUSH1 0x0 DUP2 GT PUSH2 0x1017 JUMPI PUSH1 0x40 MLOAD PUSH32 0x8C379A000000000000000000000000000000000000000000000000000000000 DUP2 MSTORE PUSH1 0x4 ADD PUSH2 0x972 SWAP1 PUSH2 0x4389 JUMP JUMPDEST PUSH2 0x1022 DUP2 PUSH1 0x0 PUSH2 0x2B56 JUMP JUMPDEST POP JUMP JUMPDEST DUP1 CALLER PUSH20 0xFFFFFFFFFFFFFFFFFFFFFFFFFFFFFFFFFFFFFFFF DUP3 AND EQ DUP1 PUSH2 0x1061 JUMPI POP PUSH1 0xA SLOAD PUSH20 0xFFFFFFFFFFFFFFFFFFFFFFFFFFFFFFFFFFFFFFFF AND CALLER EQ JUMPDEST PUSH2 0x1097 JUMPI PUSH1 0x40 MLOAD PUSH32 0x8C379A000000000000000000000000000000000000000000000000000000000 DUP2 MSTORE PUSH1 0x4 ADD PUSH2 0x972 SWAP1 PUSH2 0x45EA JUMP JUMPDEST PUSH2 0x109F PUSH2 0x2B17 JUMP JUMPDEST PUSH20 0xFFFFFFFFFFFFFFFFFFFFFFFFFFFFFFFFFFFFFFFF DUP3 AND PUSH1 0x0 SWAP1 DUP2 MSTORE PUSH1 0x3 PUSH1 0x20 MSTORE PUSH1 0x40 SWAP1 KECCAK256 PUSH1 0x7 DUP2 ADD SLOAD PUSH1 0xFF AND DUP1 ISZERO PUSH2 0x10DB JUMPI POP TIMESTAMP DUP2 PUSH1 0x5 ADD SLOAD LT JUMPDEST PUSH2 0x1111 JUMPI PUSH1 0x40 MLOAD PUSH32 0x8C379A000000000000000000000000000000000000000000000000000000000 DUP2 MSTORE PUSH1 0x4 ADD PUSH2 0x972 SWAP1 PUSH2 0x4B68 JUMP JUMPDEST PUSH2 0x111D PUSH1 0x0 DUP1 DUP6 PUSH2 0x2F29 JUMP JUMPDEST POP POP POP JUMP JUMPDEST PUSH1 0x8 SLOAD PUSH20 0xFFFFFFFFFFFFFFFFFFFFFFFFFFFFFFFFFFFFFFFF AND CALLER EQ PUSH2 0x1173 JUMPI PUSH1 0x40 MLOAD PUSH32 0x8C379A000000000000000000000000000000000000000000000000000000000 DUP2 MSTORE PUSH1 0x4 ADD PUSH2 0x972 SWAP1 PUSH2 0x4929 JUMP JUMPDEST PUSH1 0x0 DUP2 GT PUSH2 0x11AD JUMPI PUSH1 0x40 MLOAD PUSH32 0x8C379A000000000000000000000000000000000000000000000000000000000 DUP2 MSTORE PUSH1 0x4 ADD PUSH2 0x972 SWAP1 PUSH2 0x4780 JUMP JUMPDEST PUSH1 0x11 DUP2 SWAP1 SSTORE PUSH1 0x40 MLOAD PUSH32 0x18B6D179114082D7EDA9837E15A39EB30032D5F3DF00487A67541398F48FABFE SWAP1 PUSH2 0x9EF SWAP1 DUP4 SWAP1 PUSH2 0x4B9F JUMP JUMPDEST PUSH1 0x7 SLOAD DUP2 JUMP JUMPDEST PUSH1 0x14 SLOAD DUP2 JUMP JUMPDEST PUSH1 0x8 SLOAD PUSH20 0xFFFFFFFFFFFFFFFFFFFFFFFFFFFFFFFFFFFFFFFF AND CALLER EQ PUSH2 0x123F JUMPI PUSH1 0x40 MLOAD PUSH32 0x8C379A000000000000000000000000000000000000000000000000000000000 DUP2 MSTORE PUSH1 0x4 ADD PUSH2 0x972 SWAP1 PUSH2 0x4929 JUMP JUMPDEST PUSH2 0x1247 PUSH2 0x359F JUMP JUMPDEST PUSH2 0x124F PUSH2 0x35DD JUMP JUMPDEST PUSH1 0x40 MLOAD PUSH32 0x7805862F689E2F13DF9F062FF482AD3AD112ACA9E0847911ED832E158C525B33 SWAP1 PUSH1 0x0 SWAP1 LOG1 JUMP JUMPDEST PUSH1 0x4 PUSH1 0x20 MSTORE PUSH1 0x0 SWAP1 DUP2 MSTORE PUSH1 0x40 SWAP1 KECCAK256 SLOAD PUSH1 0xFF AND DUP2 JUMP JUMPDEST PUSH1 0x8 SLOAD PUSH20 0xFFFFFFFFFFFFFFFFFFFFFFFFFFFFFFFFFFFFFFFF AND CALLER EQ PUSH2 0x12E0 JUMPI PUSH1 0x40 MLOAD PUSH32 0x8C379A000000000000000000000000000000000000000000000000000000000 DUP2 MSTORE PUSH1 0x4 ADD PUSH2 0x972 SWAP1 PUSH2 0x4929 JUMP JUMPDEST PUSH20 0xFFFFFFFFFFFFFFFFFFFFFFFFFFFFFFFFFFFFFFFF DUP3 AND PUSH2 0x132D JUMPI PUSH1 0x40 MLOAD PUSH32 0x8C379A000000000000000000000000000000000000000000000000000000000 DUP2 MSTORE PUSH1 0x4 ADD PUSH2 0x972 SWAP1 PUSH2 0x4749 JUMP JUMPDEST PUSH20 0xFFFFFFFFFFFFFFFFFFFFFFFFFFFFFFFFFFFFFFFF DUP3 AND PUSH1 0x0 DUP2 DUP2 MSTORE PUSH1 0x4 PUSH1 0x20 MSTORE PUSH1 0x40 DUP1 DUP3 KECCAK256 DUP1 SLOAD PUSH32 0xFFFFFFFFFFFFFFFFFFFFFFFFFFFFFFFFFFFFFFFFFFFFFFFFFFFFFFFFFFFFFF00 AND DUP6 ISZERO ISZERO SWAP1 DUP2 OR SWAP1 SWAP2 SSTORE SWAP1 MLOAD SWAP1 SWAP3 SWAP2 PUSH32 0x3D7902BC9A6665BD7CAF4240B834BB805D3CD68256889E9F8D2E40A10BE41D44 SWAP2 LOG3 POP POP JUMP JUMPDEST PUSH1 0x40 MLOAD PUSH32 0x70A0823100000000000000000000000000000000000000000000000000000000 DUP2 MSTORE PUSH1 0x0 SWAP1 PUSH20 0xFFFFFFFFFFFFFFFFFFFFFFFFFFFFFFFFFFFFFFFF PUSH32 0x0 AND SWAP1 PUSH4 0x70A08231 SWAP1 PUSH2 0x1421 SWAP1 ADDRESS SWAP1 PUSH1 0x4 ADD PUSH2 0x41DE JUMP JUMPDEST PUSH1 0x20 PUSH1 0x40 MLOAD DUP1 DUP4 SUB DUP2 DUP7 DUP1 EXTCODESIZE ISZERO DUP1 ISZERO PUSH2 0x1439 JUMPI PUSH1 0x0 DUP1 REVERT JUMPDEST POP GAS STATICCALL ISZERO DUP1 ISZERO PUSH2 0x144D JUMPI RETURNDATASIZE PUSH1 0x0 DUP1 RETURNDATACOPY RETURNDATASIZE PUSH1 0x0 REVERT JUMPDEST POP POP POP POP PUSH1 0x40 MLOAD RETURNDATASIZE PUSH1 0x1F NOT PUSH1 0x1F DUP3 ADD AND DUP3 ADD DUP1 PUSH1 0x40 MSTORE POP DUP2 ADD SWAP1 PUSH2 0x1471 SWAP2 SWAP1 PUSH2 0x4189 JUMP JUMPDEST SWAP1 POP SWAP1 JUMP JUMPDEST PUSH1 0x8 SLOAD PUSH20 0xFFFFFFFFFFFFFFFFFFFFFFFFFFFFFFFFFFFFFFFF AND CALLER EQ PUSH2 0x14C7 JUMPI PUSH1 0x40 MLOAD PUSH32 0x8C379A000000000000000000000000000000000000000000000000000000000 DUP2 MSTORE PUSH1 0x4 ADD PUSH2 0x972 SWAP1 PUSH2 0x4929 JUMP JUMPDEST PUSH20 0xFFFFFFFFFFFFFFFFFFFFFFFFFFFFFFFFFFFFFFFF DUP3 AND PUSH2 0x1514 JUMPI PUSH1 0x40 MLOAD PUSH32 0x8C379A000000000000000000000000000000000000000000000000000000000 DUP2 MSTORE PUSH1 0x4 ADD PUSH2 0x972 SWAP1 PUSH2 0x4749 JUMP JUMPDEST PUSH20 0xFFFFFFFFFFFFFFFFFFFFFFFFFFFFFFFFFFFFFFFF DUP3 AND PUSH1 0x0 DUP2 DUP2 MSTORE PUSH1 0x6 PUSH1 0x20 MSTORE PUSH1 0x40 DUP1 DUP3 KECCAK256 DUP1 SLOAD PUSH32 0xFFFFFFFFFFFFFFFFFFFFFFFFFFFFFFFFFFFFFFFFFFFFFFFFFFFFFFFFFFFFFF00 AND DUP6 ISZERO ISZERO SWAP1 DUP2 OR SWAP1 SWAP2 SSTORE SWAP1 MLOAD SWAP1 SWAP3 SWAP2 PUSH32 0x3D7902BC9A6665BD7CAF4240B834BB805D3CD68256889E9F8D2E40A10BE41D44 SWAP2 LOG3 POP POP JUMP JUMPDEST PUSH1 0xF SLOAD DUP2 JUMP JUMPDEST PUSH1 0xB SLOAD DUP2 JUMP JUMPDEST PUSH2 0x15A7 PUSH2 0x2B17 JUMP JUMPDEST PUSH6 0x9184E72A000 DUP2 GT PUSH2 0x15E6 JUMPI PUSH1 0x40 MLOAD PUSH32 0x8C379A000000000000000000000000000000000000000000000000000000000 DUP2 MSTORE PUSH1 0x4 ADD PUSH2 0x972 SWAP1 PUSH2 0x4960 JUMP JUMPDEST PUSH2 0x1022 PUSH1 0x0 DUP3 PUSH2 0x2B56 JUMP JUMPDEST PUSH1 0xA SLOAD PUSH20 0xFFFFFFFFFFFFFFFFFFFFFFFFFFFFFFFFFFFFFFFF AND DUP2 JUMP JUMPDEST PUSH1 0x0 SLOAD PUSH21 0x10000000000000000000000000000000000000000 SWAP1 DIV PUSH1 0xFF AND SWAP1 JUMP JUMPDEST PUSH1 0x9 SLOAD PUSH20 0xFFFFFFFFFFFFFFFFFFFFFFFFFFFFFFFFFFFFFFFF AND DUP2 JUMP JUMPDEST PUSH1 0x2 SLOAD PUSH20 0xFFFFFFFFFFFFFFFFFFFFFFFFFFFFFFFFFFFFFFFF AND DUP2 JUMP JUMPDEST PUSH1 0x8 SLOAD PUSH20 0xFFFFFFFFFFFFFFFFFFFFFFFFFFFFFFFFFFFFFFFF AND CALLER EQ PUSH2 0x16B7 JUMPI PUSH1 0x40 MLOAD PUSH32 0x8C379A000000000000000000000000000000000000000000000000000000000 DUP2 MSTORE PUSH1 0x4 ADD PUSH2 0x972 SWAP1 PUSH2 0x4929 JUMP JUMPDEST PUSH20 0xFFFFFFFFFFFFFFFFFFFFFFFFFFFFFFFFFFFFFFFF DUP2 AND PUSH2 0x1704 JUMPI PUSH1 0x40 MLOAD PUSH32 0x8C379A000000000000000000000000000000000000000000000000000000000 DUP2 MSTORE PUSH1 0x4 ADD PUSH2 0x972 SWAP1 PUSH2 0x4749 JUMP JUMPDEST PUSH1 0x2 DUP1 SLOAD PUSH32 0xFFFFFFFFFFFFFFFFFFFFFFFF0000000000000000000000000000000000000000 AND PUSH20 0xFFFFFFFFFFFFFFFFFFFFFFFFFFFFFFFFFFFFFFFF DUP4 DUP2 AND SWAP2 SWAP1 SWAP2 OR SWAP2 DUP3 SWAP1 SSTORE PUSH1 0x40 MLOAD PUSH32 0xAF38F30BE8D095BC1461196DB21930B7D89226E57B0167F9D6ABE951C53F3332 SWAP3 PUSH2 0x9EF SWAP3 AND SWAP1 PUSH2 0x41DE JUMP JUMPDEST PUSH1 0x6 PUSH1 0x20 MSTORE PUSH1 0x0 SWAP1 DUP2 MSTORE PUSH1 0x40 SWAP1 KECCAK256 SLOAD PUSH1 0xFF AND DUP2 JUMP JUMPDEST PUSH2 0x1797 PUSH2 0x29D7 JUMP JUMPDEST PUSH20 0xFFFFFFFFFFFFFFFFFFFFFFFFFFFFFFFFFFFFFFFF DUP2 AND PUSH2 0x17E4 JUMPI PUSH1 0x40 MLOAD PUSH32 0x8C379A000000000000000000000000000000000000000000000000000000000 DUP2 MSTORE PUSH1 0x4 ADD PUSH2 0x972 SWAP1 PUSH2 0x4749 JUMP JUMPDEST PUSH1 0x8 DUP1 SLOAD PUSH32 0xFFFFFFFFFFFFFFFFFFFFFFFF0000000000000000000000000000000000000000 AND PUSH20 0xFFFFFFFFFFFFFFFFFFFFFFFFFFFFFFFFFFFFFFFF DUP4 DUP2 AND SWAP2 SWAP1 SWAP2 OR SWAP2 DUP3 SWAP1 SSTORE PUSH1 0x40 MLOAD PUSH32 0x71614071B88DEE5E0B2AE578A9DD7B2EBBE9AE832BA419DC0242CD065A290B6C SWAP3 PUSH2 0x9EF SWAP3 AND SWAP1 PUSH2 0x41DE JUMP JUMPDEST PUSH1 0x8 SLOAD PUSH20 0xFFFFFFFFFFFFFFFFFFFFFFFFFFFFFFFFFFFFFFFF AND CALLER EQ PUSH2 0x18AB JUMPI PUSH1 0x40 MLOAD PUSH32 0x8C379A000000000000000000000000000000000000000000000000000000000 DUP2 MSTORE PUSH1 0x4 ADD PUSH2 0x972 SWAP1 PUSH2 0x4929 JUMP JUMPDEST PUSH2 0x7D0 DUP2 GT ISZERO PUSH2 0x18E7 JUMPI PUSH1 0x40 MLOAD PUSH32 0x8C379A000000000000000000000000000000000000000000000000000000000 DUP2 MSTORE PUSH1 0x4 ADD PUSH2 0x972 SWAP1 PUSH2 0x46B5 JUMP JUMPDEST PUSH1 0x13 DUP2 SWAP1 SSTORE PUSH1 0x40 MLOAD PUSH32 0xEFEAFCF03E479A9566D7EF321B4816DE0BA19CFA3CD0FAE2F8C5F4A0AFB342C4 SWAP1 PUSH2 0x9EF SWAP1 DUP4 SWAP1 PUSH2 0x4B9F JUMP JUMPDEST PUSH2 0x1924 PUSH2 0x29D7 JUMP JUMPDEST PUSH2 0x192E PUSH1 0x0 PUSH2 0x364D JUMP JUMPDEST JUMP JUMPDEST PUSH1 0x0 PUSH1 0xC SLOAD PUSH32 0x0 PUSH20 0xFFFFFFFFFFFFFFFFFFFFFFFFFFFFFFFFFFFFFFFF AND PUSH4 0x70A08231 ADDRESS PUSH1 0x40 MLOAD DUP3 PUSH4 0xFFFFFFFF AND PUSH1 0xE0 SHL DUP2 MSTORE PUSH1 0x4 ADD PUSH2 0x198E SWAP2 SWAP1 PUSH2 0x41DE JUMP JUMPDEST PUSH1 0x20 PUSH1 0x40 MLOAD DUP1 DUP4 SUB DUP2 DUP7 DUP1 EXTCODESIZE ISZERO DUP1 ISZERO PUSH2 0x19A6 JUMPI PUSH1 0x0 DUP1 REVERT JUMPDEST POP GAS STATICCALL ISZERO DUP1 ISZERO PUSH2 0x19BA JUMPI RETURNDATASIZE PUSH1 0x0 DUP1 RETURNDATACOPY RETURNDATASIZE PUSH1 0x0 REVERT JUMPDEST POP POP POP POP PUSH1 0x40 MLOAD RETURNDATASIZE PUSH1 0x1F NOT PUSH1 0x1F DUP3 ADD AND DUP3 ADD DUP1 PUSH1 0x40 MSTORE POP DUP2 ADD SWAP1 PUSH2 0x19DE SWAP2 SWAP1 PUSH2 0x4189 JUMP JUMPDEST PUSH2 0x1471 SWAP2 SWAP1 PUSH2 0x4C36 JUMP JUMPDEST PUSH12 0x204FCE5E3E25026110000000 DUP2 JUMP JUMPDEST PUSH1 0x0 PUSH1 0x7 SLOAD PUSH1 0x0 EQ PUSH2 0x1A42 JUMPI PUSH1 0x7 SLOAD PUSH2 0x1A0F PUSH2 0x239B JUMP JUMPDEST PUSH2 0x1A17 PUSH2 0x1930 JUMP JUMPDEST PUSH2 0x1A21 SWAP2 SWAP1 PUSH2 0x4C36 JUMP JUMPDEST PUSH2 0x1A33 SWAP1 PUSH8 0xDE0B6B3A7640000 PUSH2 0x4C87 JUMP JUMPDEST PUSH2 0x1A3D SWAP2 SWAP1 PUSH2 0x4C4E JUMP JUMPDEST PUSH2 0x1471 JUMP JUMPDEST POP PUSH8 0xDE0B6B3A7640000 SWAP1 JUMP JUMPDEST PUSH1 0x8 SLOAD PUSH20 0xFFFFFFFFFFFFFFFFFFFFFFFFFFFFFFFFFFFFFFFF AND CALLER EQ PUSH2 0x1AA0 JUMPI PUSH1 0x40 MLOAD PUSH32 0x8C379A000000000000000000000000000000000000000000000000000000000 DUP2 MSTORE PUSH1 0x4 ADD PUSH2 0x972 SWAP1 PUSH2 0x4929 JUMP JUMPDEST PUSH2 0x1AA8 PUSH2 0x2B17 JUMP JUMPDEST PUSH2 0x1AB0 PUSH2 0x36C2 JUMP JUMPDEST PUSH1 0x40 MLOAD PUSH32 0x6985A02210A168E66602D3235CB6DB0E70F92B3BA4D376A33C0F3D9434BFF625 SWAP1 PUSH1 0x0 SWAP1 LOG1 JUMP JUMPDEST CALLER PUSH1 0x0 SWAP1 DUP2 MSTORE PUSH1 0x3 PUSH1 0x20 MSTORE PUSH1 0x40 SWAP1 KECCAK256 SLOAD PUSH2 0x192E SWAP1 PUSH2 0xFD5 JUMP JUMPDEST PUSH1 0x13 SLOAD DUP2 JUMP JUMPDEST PUSH1 0x5 PUSH1 0x20 MSTORE PUSH1 0x0 SWAP1 DUP2 MSTORE PUSH1 0x40 SWAP1 KECCAK256 SLOAD PUSH1 0xFF AND DUP2 JUMP JUMPDEST PUSH1 0x0 SLOAD PUSH20 0xFFFFFFFFFFFFFFFFFFFFFFFFFFFFFFFFFFFFFFFF AND SWAP1 JUMP JUMPDEST PUSH1 0x8 SLOAD PUSH20 0xFFFFFFFFFFFFFFFFFFFFFFFFFFFFFFFFFFFFFFFF AND CALLER EQ PUSH2 0x1B7C JUMPI PUSH1 0x40 MLOAD PUSH32 0x8C379A000000000000000000000000000000000000000000000000000000000 DUP2 MSTORE PUSH1 0x4 ADD PUSH2 0x972 SWAP1 PUSH2 0x4929 JUMP JUMPDEST PUSH6 0x2D79883D2000 DUP2 GT ISZERO PUSH2 0x1BBC JUMPI PUSH1 0x40 MLOAD PUSH32 0x8C379A000000000000000000000000000000000000000000000000000000000 DUP2 MSTORE PUSH1 0x4 ADD PUSH2 0x972 SWAP1 PUSH2 0x448B JUMP JUMPDEST PUSH1 0x12 DUP2 SWAP1 SSTORE PUSH1 0x40 MLOAD PUSH32 0x7666DFFF8C3377938E522B4EED3AFF079973A976F95969DB60A406D49F40DA4E SWAP1 PUSH2 0x9EF SWAP1 DUP4 SWAP1 PUSH2 0x4B9F JUMP JUMPDEST PUSH5 0xE8D4A51000 DUP2 JUMP JUMPDEST PUSH20 0xFFFFFFFFFFFFFFFFFFFFFFFFFFFFFFFFFFFFFFFF DUP2 AND PUSH1 0x0 SWAP1 DUP2 MSTORE PUSH1 0x3 PUSH1 0x20 MSTORE PUSH1 0x40 DUP2 KECCAK256 DUP1 SLOAD ISZERO DUP1 ISZERO SWAP1 PUSH2 0x1C33 JUMPI POP PUSH1 0x7 DUP2 ADD SLOAD PUSH1 0xFF AND JUMPDEST DUP1 ISZERO PUSH2 0x1C65 JUMPI POP PUSH20 0xFFFFFFFFFFFFFFFFFFFFFFFFFFFFFFFFFFFFFFFF DUP4 AND PUSH1 0x0 SWAP1 DUP2 MSTORE PUSH1 0x6 PUSH1 0x20 MSTORE PUSH1 0x40 SWAP1 KECCAK256 SLOAD PUSH1 0xFF AND ISZERO JUMPDEST DUP1 ISZERO PUSH2 0x1C81 JUMPI POP TIMESTAMP PUSH1 0xE SLOAD DUP3 PUSH1 0x5 ADD SLOAD PUSH2 0x1C7F SWAP2 SWAP1 PUSH2 0x4C36 JUMP JUMPDEST LT JUMPDEST ISZERO PUSH2 0x1D60 JUMPI PUSH1 0x0 PUSH2 0x1C90 PUSH2 0x239B JUMP JUMPDEST PUSH2 0x1C98 PUSH2 0x1930 JUMP JUMPDEST PUSH2 0x1CA2 SWAP2 SWAP1 PUSH2 0x4C36 JUMP JUMPDEST PUSH1 0x6 DUP4 ADD SLOAD PUSH1 0x7 SLOAD DUP5 SLOAD SWAP3 SWAP4 POP PUSH1 0x0 SWAP3 PUSH2 0x1CBC SWAP1 DUP6 PUSH2 0x4C87 JUMP JUMPDEST PUSH2 0x1CC6 SWAP2 SWAP1 PUSH2 0x4C4E JUMP JUMPDEST PUSH2 0x1CD0 SWAP2 SWAP1 PUSH2 0x4CC4 JUMP JUMPDEST SWAP1 POP PUSH1 0x0 DUP4 PUSH1 0x8 ADD SLOAD DUP3 PUSH2 0x1CE4 SWAP2 SWAP1 PUSH2 0x4CC4 JUMP JUMPDEST SWAP1 POP PUSH1 0x0 PUSH1 0xE SLOAD DUP6 PUSH1 0x5 ADD SLOAD TIMESTAMP PUSH2 0x1CFB SWAP2 SWAP1 PUSH2 0x4CC4 JUMP JUMPDEST PUSH2 0x1D05 SWAP2 SWAP1 PUSH2 0x4CC4 JUMP JUMPDEST SWAP1 POP PUSH1 0x11 SLOAD DUP2 GT ISZERO PUSH2 0x1D16 JUMPI POP PUSH1 0x11 SLOAD JUMPDEST PUSH1 0x0 PUSH1 0x11 SLOAD PUSH1 0x17 SLOAD DUP4 PUSH2 0x1D29 SWAP2 SWAP1 PUSH2 0x4C87 JUMP JUMPDEST PUSH2 0x1D33 SWAP2 SWAP1 PUSH2 0x4C4E JUMP JUMPDEST SWAP1 POP PUSH1 0x0 PUSH5 0xE8D4A51000 PUSH2 0x1D47 DUP4 DUP7 PUSH2 0x4C87 JUMP JUMPDEST PUSH2 0x1D51 SWAP2 SWAP1 PUSH2 0x4C4E JUMP JUMPDEST SWAP8 POP PUSH2 0x1D66 SWAP7 POP POP POP POP POP POP POP JUMP JUMPDEST PUSH1 0x0 SWAP2 POP POP JUMPDEST SWAP2 SWAP1 POP JUMP JUMPDEST PUSH1 0x8 SLOAD PUSH20 0xFFFFFFFFFFFFFFFFFFFFFFFFFFFFFFFFFFFFFFFF AND CALLER EQ PUSH2 0x1DBC JUMPI PUSH1 0x40 MLOAD PUSH32 0x8C379A000000000000000000000000000000000000000000000000000000000 DUP2 MSTORE PUSH1 0x4 ADD PUSH2 0x972 SWAP1 PUSH2 0x4929 JUMP JUMPDEST PUSH1 0x0 DUP2 GT PUSH2 0x1DF6 JUMPI PUSH1 0x40 MLOAD PUSH32 0x8C379A000000000000000000000000000000000000000000000000000000000 DUP2 MSTORE PUSH1 0x4 ADD PUSH2 0x972 SWAP1 PUSH2 0x441D JUMP JUMPDEST PUSH1 0x10 DUP2 SWAP1 SSTORE PUSH1 0x40 MLOAD PUSH32 0x9478EB023AAC0A7D58A4E935377056BF27CF5B72A2300725F831817A8F62FBDE SWAP1 PUSH2 0x9EF SWAP1 DUP4 SWAP1 PUSH2 0x4B9F JUMP JUMPDEST PUSH1 0x17 SLOAD DUP2 JUMP JUMPDEST PUSH1 0xE SLOAD DUP2 JUMP JUMPDEST PUSH1 0x11 SLOAD DUP2 JUMP JUMPDEST PUSH2 0x1E45 PUSH2 0x29D7 JUMP JUMPDEST PUSH20 0xFFFFFFFFFFFFFFFFFFFFFFFFFFFFFFFFFFFFFFFF DUP2 AND PUSH2 0x1E92 JUMPI PUSH1 0x40 MLOAD PUSH32 0x8C379A000000000000000000000000000000000000000000000000000000000 DUP2 MSTORE PUSH1 0x4 ADD PUSH2 0x972 SWAP1 PUSH2 0x4749 JUMP JUMPDEST PUSH1 0xA DUP1 SLOAD PUSH32 0xFFFFFFFFFFFFFFFFFFFFFFFF0000000000000000000000000000000000000000 AND PUSH20 0xFFFFFFFFFFFFFFFFFFFFFFFFFFFFFFFFFFFFFFFF DUP4 DUP2 AND SWAP2 SWAP1 SWAP2 OR SWAP2 DUP3 SWAP1 SSTORE PUSH1 0x40 MLOAD PUSH32 0xDA12EE837E6978172AAF54B16145FFE08414FD8710092EF033C71B8EB6EC189A SWAP3 PUSH2 0x9EF SWAP3 AND SWAP1 PUSH2 0x41DE JUMP JUMPDEST PUSH1 0x8 SLOAD PUSH20 0xFFFFFFFFFFFFFFFFFFFFFFFFFFFFFFFFFFFFFFFF AND CALLER EQ PUSH2 0x1F59 JUMPI PUSH1 0x40 MLOAD PUSH32 0x8C379A000000000000000000000000000000000000000000000000000000000 DUP2 MSTORE PUSH1 0x4 ADD PUSH2 0x972 SWAP1 PUSH2 0x4929 JUMP JUMPDEST PUSH2 0x1F4 DUP2 GT ISZERO PUSH2 0x1F95 JUMPI PUSH1 0x40 MLOAD PUSH32 0x8C379A000000000000000000000000000000000000000000000000000000000 DUP2 MSTORE PUSH1 0x4 ADD PUSH2 0x972 SWAP1 PUSH2 0x4AAE JUMP JUMPDEST PUSH1 0x15 DUP2 SWAP1 SSTORE PUSH1 0x40 MLOAD PUSH32 0xD5FE46099FA396290A7F57E36C3C3C8774E2562C18ED5D1DCC0FA75071E03F1D SWAP1 PUSH2 0x9EF SWAP1 DUP4 SWAP1 PUSH2 0x4B9F JUMP JUMPDEST PUSH1 0x8 SLOAD PUSH20 0xFFFFFFFFFFFFFFFFFFFFFFFFFFFFFFFFFFFFFFFF AND CALLER EQ PUSH2 0x201B JUMPI PUSH1 0x40 MLOAD PUSH32 0x8C379A000000000000000000000000000000000000000000000000000000000 DUP2 MSTORE PUSH1 0x4 ADD PUSH2 0x972 SWAP1 PUSH2 0x4929 JUMP JUMPDEST PUSH2 0x7D0 DUP2 GT ISZERO PUSH2 0x2057 JUMPI PUSH1 0x40 MLOAD PUSH32 0x8C379A000000000000000000000000000000000000000000000000000000000 DUP2 MSTORE PUSH1 0x4 ADD PUSH2 0x972 SWAP1 PUSH2 0x46B5 JUMP JUMPDEST PUSH1 0x14 DUP2 SWAP1 SSTORE PUSH1 0x40 MLOAD PUSH32 0xC5D25457B67B87678C987375AF13F6E50BEB3AD7BFD009DA26766AE986EAA20D SWAP1 PUSH2 0x9EF SWAP1 DUP4 SWAP1 PUSH2 0x4B9F JUMP JUMPDEST PUSH32 0x0 DUP2 JUMP JUMPDEST PUSH1 0x12 SLOAD DUP2 JUMP JUMPDEST PUSH2 0x7D0 DUP2 JUMP JUMPDEST PUSH1 0x8 SLOAD PUSH20 0xFFFFFFFFFFFFFFFFFFFFFFFFFFFFFFFFFFFFFFFF AND CALLER EQ PUSH2 0x210D JUMPI PUSH1 0x40 MLOAD PUSH32 0x8C379A000000000000000000000000000000000000000000000000000000000 DUP2 MSTORE PUSH1 0x4 ADD PUSH2 0x972 SWAP1 PUSH2 0x4929 JUMP JUMPDEST PUSH20 0xFFFFFFFFFFFFFFFFFFFFFFFFFFFFFFFFFFFFFFFF DUP3 AND PUSH2 0x215A JUMPI PUSH1 0x40 MLOAD PUSH32 0x8C379A000000000000000000000000000000000000000000000000000000000 DUP2 MSTORE PUSH1 0x4 ADD PUSH2 0x972 SWAP1 PUSH2 0x4749 JUMP JUMPDEST PUSH20 0xFFFFFFFFFFFFFFFFFFFFFFFFFFFFFFFFFFFFFFFF DUP3 AND PUSH1 0x0 DUP2 DUP2 MSTORE PUSH1 0x5 PUSH1 0x20 MSTORE PUSH1 0x40 DUP1 DUP3 KECCAK256 DUP1 SLOAD PUSH32 0xFFFFFFFFFFFFFFFFFFFFFFFFFFFFFFFFFFFFFFFFFFFFFFFFFFFFFFFFFFFFFF00 AND DUP6 ISZERO ISZERO SWAP1 DUP2 OR SWAP1 SWAP2 SSTORE SWAP1 MLOAD SWAP1 SWAP3 SWAP2 PUSH32 0x3D7902BC9A6665BD7CAF4240B834BB805D3CD68256889E9F8D2E40A10BE41D44 SWAP2 LOG3 POP POP JUMP JUMPDEST PUSH1 0x8 SLOAD PUSH20 0xFFFFFFFFFFFFFFFFFFFFFFFFFFFFFFFFFFFFFFFF AND CALLER EQ PUSH2 0x222A JUMPI PUSH1 0x40 MLOAD PUSH32 0x8C379A000000000000000000000000000000000000000000000000000000000 DUP2 MSTORE PUSH1 0x4 ADD PUSH2 0x972 SWAP1 PUSH2 0x4929 JUMP JUMPDEST PUSH1 0x0 DUP2 GT PUSH2 0x2264 JUMPI PUSH1 0x40 MLOAD PUSH32 0x8C379A000000000000000000000000000000000000000000000000000000000 DUP2 MSTORE PUSH1 0x4 ADD PUSH2 0x972 SWAP1 PUSH2 0x4B0B JUMP JUMPDEST PUSH1 0xE DUP2 SWAP1 SSTORE PUSH1 0x40 MLOAD PUSH32 0xF84BF2B901CFC02956D4E69556D7448CEF4EA13587E7714DBA7C6D697091E7AD SWAP1 PUSH2 0x9EF SWAP1 DUP4 SWAP1 PUSH2 0x4B9F JUMP JUMPDEST PUSH20 0xFFFFFFFFFFFFFFFFFFFFFFFFFFFFFFFFFFFFFFFF DUP2 AND PUSH1 0x0 SWAP1 DUP2 MSTORE PUSH1 0x3 PUSH1 0x20 MSTORE PUSH1 0x40 DUP2 KECCAK256 DUP1 SLOAD ISZERO DUP1 ISZERO SWAP1 PUSH2 0x22D3 JUMPI POP PUSH1 0x7 DUP2 ADD SLOAD PUSH1 0xFF AND ISZERO JUMPDEST DUP1 ISZERO PUSH2 0x2305 JUMPI POP PUSH20 0xFFFFFFFFFFFFFFFFFFFFFFFFFFFFFFFFFFFFFFFF DUP4 AND PUSH1 0x0 SWAP1 DUP2 MSTORE PUSH1 0x4 PUSH1 0x20 MSTORE PUSH1 0x40 SWAP1 KECCAK256 SLOAD PUSH1 0xFF AND ISZERO JUMPDEST ISZERO PUSH2 0x1D60 JUMPI PUSH1 0x0 PUSH2 0x2314 PUSH2 0x239B JUMP JUMPDEST PUSH2 0x231C PUSH2 0x1930 JUMP JUMPDEST PUSH2 0x2326 SWAP2 SWAP1 PUSH2 0x4C36 JUMP JUMPDEST SWAP1 POP PUSH1 0x0 PUSH1 0x7 SLOAD DUP3 DUP5 PUSH1 0x0 ADD SLOAD PUSH2 0x233D SWAP2 SWAP1 PUSH2 0x4C87 JUMP JUMPDEST PUSH2 0x2347 SWAP2 SWAP1 PUSH2 0x4C4E JUMP JUMPDEST SWAP1 POP PUSH1 0x0 DUP4 PUSH1 0x2 ADD SLOAD DUP3 PUSH2 0x235B SWAP2 SWAP1 PUSH2 0x4CC4 JUMP JUMPDEST PUSH1 0x13 SLOAD SWAP1 SWAP2 POP PUSH2 0x236A DUP8 PUSH2 0x2B11 JUMP JUMPDEST ISZERO PUSH2 0x2374 JUMPI POP PUSH1 0x14 SLOAD JUMPDEST PUSH1 0x0 PUSH2 0x2710 PUSH2 0x2383 DUP4 DUP6 PUSH2 0x4C87 JUMP JUMPDEST PUSH2 0x238D SWAP2 SWAP1 PUSH2 0x4C4E JUMP JUMPDEST SWAP7 POP PUSH2 0x1D66 SWAP6 POP POP POP POP POP POP JUMP JUMPDEST PUSH1 0x0 DUP1 PUSH32 0x0 PUSH20 0xFFFFFFFFFFFFFFFFFFFFFFFFFFFFFFFFFFFFFFFF AND PUSH4 0xC799B59D PUSH1 0xB SLOAD ADDRESS PUSH1 0x40 MLOAD DUP4 PUSH4 0xFFFFFFFF AND PUSH1 0xE0 SHL DUP2 MSTORE PUSH1 0x4 ADD PUSH2 0x23FB SWAP3 SWAP2 SWAP1 PUSH2 0x4BA8 JUMP JUMPDEST PUSH1 0x20 PUSH1 0x40 MLOAD DUP1 DUP4 SUB DUP2 DUP7 DUP1 EXTCODESIZE ISZERO DUP1 ISZERO PUSH2 0x2413 JUMPI PUSH1 0x0 DUP1 REVERT JUMPDEST POP GAS STATICCALL ISZERO DUP1 ISZERO PUSH2 0x2427 JUMPI RETURNDATASIZE PUSH1 0x0 DUP1 RETURNDATACOPY RETURNDATASIZE PUSH1 0x0 REVERT JUMPDEST POP POP POP POP PUSH1 0x40 MLOAD RETURNDATASIZE PUSH1 0x1F NOT PUSH1 0x1F DUP3 ADD AND DUP3 ADD DUP1 PUSH1 0x40 MSTORE POP DUP2 ADD SWAP1 PUSH2 0x244B SWAP2 SWAP1 PUSH2 0x4189 JUMP JUMPDEST SWAP2 POP POP SWAP1 JUMP JUMPDEST PUSH2 0x1F4 DUP2 JUMP JUMPDEST PUSH1 0x8 SLOAD PUSH20 0xFFFFFFFFFFFFFFFFFFFFFFFFFFFFFFFFFFFFFFFF AND CALLER EQ PUSH2 0x24A8 JUMPI PUSH1 0x40 MLOAD PUSH32 0x8C379A000000000000000000000000000000000000000000000000000000000 DUP2 MSTORE PUSH1 0x4 ADD PUSH2 0x972 SWAP1 PUSH2 0x4929 JUMP JUMPDEST PUSH32 0x0 PUSH20 0xFFFFFFFFFFFFFFFFFFFFFFFFFFFFFFFFFFFFFFFF AND DUP2 PUSH20 0xFFFFFFFFFFFFFFFFFFFFFFFFFFFFFFFFFFFFFFFF AND EQ ISZERO PUSH2 0x252E JUMPI PUSH1 0x40 MLOAD PUSH32 0x8C379A000000000000000000000000000000000000000000000000000000000 DUP2 MSTORE PUSH1 0x4 ADD PUSH2 0x972 SWAP1 PUSH2 0x451F JUMP JUMPDEST PUSH1 0x40 MLOAD PUSH32 0x70A0823100000000000000000000000000000000000000000000000000000000 DUP2 MSTORE PUSH1 0x0 SWAP1 PUSH20 0xFFFFFFFFFFFFFFFFFFFFFFFFFFFFFFFFFFFFFFFF DUP4 AND SWAP1 PUSH4 0x70A08231 SWAP1 PUSH2 0x2583 SWAP1 ADDRESS SWAP1 PUSH1 0x4 ADD PUSH2 0x41DE JUMP JUMPDEST PUSH1 0x20 PUSH1 0x40 MLOAD DUP1 DUP4 SUB DUP2 DUP7 DUP1 EXTCODESIZE ISZERO DUP1 ISZERO PUSH2 0x259B JUMPI PUSH1 0x0 DUP1 REVERT JUMPDEST POP GAS STATICCALL ISZERO DUP1 ISZERO PUSH2 0x25AF JUMPI RETURNDATASIZE PUSH1 0x0 DUP1 RETURNDATACOPY RETURNDATASIZE PUSH1 0x0 REVERT JUMPDEST POP POP POP POP PUSH1 0x40 MLOAD RETURNDATASIZE PUSH1 0x1F NOT PUSH1 0x1F DUP3 ADD AND DUP3 ADD DUP1 PUSH1 0x40 MSTORE POP DUP2 ADD SWAP1 PUSH2 0x25D3 SWAP2 SWAP1 PUSH2 0x4189 JUMP JUMPDEST SWAP1 POP PUSH2 0x25F6 PUSH20 0xFFFFFFFFFFFFFFFFFFFFFFFFFFFFFFFFFFFFFFFF DUP4 AND CALLER DUP4 PUSH2 0x3732 JUMP JUMPDEST POP POP JUMP JUMPDEST PUSH1 0x8 SLOAD PUSH20 0xFFFFFFFFFFFFFFFFFFFFFFFFFFFFFFFFFFFFFFFF AND CALLER EQ PUSH2 0x264B JUMPI PUSH1 0x40 MLOAD PUSH32 0x8C379A000000000000000000000000000000000000000000000000000000000 DUP2 MSTORE PUSH1 0x4 ADD PUSH2 0x972 SWAP1 PUSH2 0x4929 JUMP JUMPDEST PUSH20 0xFFFFFFFFFFFFFFFFFFFFFFFFFFFFFFFFFFFFFFFF DUP2 AND PUSH2 0x2698 JUMPI PUSH1 0x40 MLOAD PUSH32 0x8C379A000000000000000000000000000000000000000000000000000000000 DUP2 MSTORE PUSH1 0x4 ADD PUSH2 0x972 SWAP1 PUSH2 0x4749 JUMP JUMPDEST PUSH1 0x1 DUP1 SLOAD PUSH32 0xFFFFFFFFFFFFFFFFFFFFFFFF0000000000000000000000000000000000000000 AND PUSH20 0xFFFFFFFFFFFFFFFFFFFFFFFFFFFFFFFFFFFFFFFF DUP4 DUP2 AND SWAP2 SWAP1 SWAP2 OR SWAP2 DUP3 SWAP1 SSTORE PUSH1 0x40 MLOAD PUSH32 0x8F49A182922022D9119A1A6AEECA151B4A5665E86BD61C1FF32E152D459558B2 SWAP3 PUSH2 0x9EF SWAP3 AND SWAP1 PUSH2 0x41DE JUMP JUMPDEST PUSH1 0x18 SLOAD DUP2 JUMP JUMPDEST PUSH1 0x1 SLOAD PUSH20 0xFFFFFFFFFFFFFFFFFFFFFFFFFFFFFFFFFFFFFFFF AND DUP2 JUMP JUMPDEST PUSH2 0x2738 PUSH2 0x2B17 JUMP JUMPDEST PUSH1 0x0 DUP3 GT DUP1 PUSH2 0x2747 JUMPI POP PUSH1 0x0 DUP2 GT JUMPDEST PUSH2 0x277D JUMPI PUSH1 0x40 MLOAD PUSH32 0x8C379A000000000000000000000000000000000000000000000000000000000 DUP2 MSTORE PUSH1 0x4 ADD PUSH2 0x972 SWAP1 PUSH2 0x431B JUMP JUMPDEST PUSH2 0x25F6 DUP3 DUP3 CALLER PUSH2 0x2F29 JUMP JUMPDEST PUSH1 0x10 SLOAD DUP2 JUMP JUMPDEST PUSH1 0x16 SLOAD DUP2 JUMP JUMPDEST PUSH1 0xC SLOAD DUP2 JUMP JUMPDEST PUSH1 0x15 SLOAD DUP2 JUMP JUMPDEST PUSH2 0x27A8 PUSH2 0x29D7 JUMP JUMPDEST PUSH20 0xFFFFFFFFFFFFFFFFFFFFFFFFFFFFFFFFFFFFFFFF DUP2 AND PUSH2 0x27F5 JUMPI PUSH1 0x40 MLOAD PUSH32 0x8C379A000000000000000000000000000000000000000000000000000000000 DUP2 MSTORE PUSH1 0x4 ADD PUSH2 0x972 SWAP1 PUSH2 0x4749 JUMP JUMPDEST PUSH1 0x9 DUP1 SLOAD PUSH32 0xFFFFFFFFFFFFFFFFFFFFFFFF0000000000000000000000000000000000000000 AND PUSH20 0xFFFFFFFFFFFFFFFFFFFFFFFFFFFFFFFFFFFFFFFF DUP4 DUP2 AND SWAP2 SWAP1 SWAP2 OR SWAP2 DUP3 SWAP1 SSTORE PUSH1 0x40 MLOAD PUSH32 0xAFA147634B29E2C7BD53CE194256B9F41CFB9BA3036F2B822FDD1D965BEEA086 SWAP3 PUSH2 0x9EF SWAP3 AND SWAP1 PUSH2 0x41DE JUMP JUMPDEST PUSH2 0x2873 PUSH2 0x29D7 JUMP JUMPDEST PUSH20 0xFFFFFFFFFFFFFFFFFFFFFFFFFFFFFFFFFFFFFFFF DUP2 AND PUSH2 0x28C0 JUMPI PUSH1 0x40 MLOAD PUSH32 0x8C379A000000000000000000000000000000000000000000000000000000000 DUP2 MSTORE PUSH1 0x4 ADD PUSH2 0x972 SWAP1 PUSH2 0x43C0 JUMP JUMPDEST PUSH2 0x1022 DUP2 PUSH2 0x364D JUMP JUMPDEST PUSH1 0x8 SLOAD PUSH20 0xFFFFFFFFFFFFFFFFFFFFFFFFFFFFFFFFFFFFFFFF AND CALLER EQ PUSH2 0x291A JUMPI PUSH1 0x40 MLOAD PUSH32 0x8C379A000000000000000000000000000000000000000000000000000000000 DUP2 MSTORE PUSH1 0x4 ADD PUSH2 0x972 SWAP1 PUSH2 0x4929 JUMP JUMPDEST PUSH4 0x5265C00 DUP2 GT ISZERO PUSH2 0x2958 JUMPI PUSH1 0x40 MLOAD PUSH32 0x8C379A000000000000000000000000000000000000000000000000000000000 DUP2 MSTORE PUSH1 0x4 ADD PUSH2 0x972 SWAP1 PUSH2 0x4897 JUMP JUMPDEST PUSH1 0xF DUP2 SWAP1 SSTORE PUSH1 0x40 MLOAD PUSH32 0xCAB2F3455B51B6CA5377E84FCCD0F890B6F6CA36C02E18B6D36CB34F469FE4FE SWAP1 PUSH2 0x9EF SWAP1 DUP4 SWAP1 PUSH2 0x4B9F JUMP JUMPDEST PUSH1 0x8 SLOAD PUSH20 0xFFFFFFFFFFFFFFFFFFFFFFFFFFFFFFFFFFFFFFFF AND DUP2 JUMP JUMPDEST PUSH32 0x0 DUP2 JUMP JUMPDEST PUSH6 0x2D79883D2000 DUP2 JUMP JUMPDEST PUSH2 0x29DF PUSH2 0x3751 JUMP JUMPDEST PUSH20 0xFFFFFFFFFFFFFFFFFFFFFFFFFFFFFFFFFFFFFFFF AND PUSH2 0x29FD PUSH2 0x1B0F JUMP JUMPDEST PUSH20 0xFFFFFFFFFFFFFFFFFFFFFFFFFFFFFFFFFFFFFFFF AND EQ PUSH2 0x192E JUMPI PUSH1 0x40 MLOAD PUSH32 0x8C379A000000000000000000000000000000000000000000000000000000000 DUP2 MSTORE PUSH1 0x4 ADD PUSH2 0x972 SWAP1 PUSH2 0x48F4 JUMP JUMPDEST PUSH2 0x2AED DUP5 PUSH4 0x23B872DD PUSH1 0xE0 SHL DUP6 DUP6 DUP6 PUSH1 0x40 MLOAD PUSH1 0x24 ADD PUSH2 0x2A6B SWAP4 SWAP3 SWAP2 SWAP1 PUSH2 0x41FF JUMP JUMPDEST PUSH1 0x40 DUP1 MLOAD PUSH32 0xFFFFFFFFFFFFFFFFFFFFFFFFFFFFFFFFFFFFFFFFFFFFFFFFFFFFFFFFFFFFFFE0 DUP2 DUP5 SUB ADD DUP2 MSTORE SWAP2 SWAP1 MSTORE PUSH1 0x20 DUP2 ADD DUP1 MLOAD PUSH28 0xFFFFFFFFFFFFFFFFFFFFFFFFFFFFFFFFFFFFFFFFFFFFFFFFFFFFFFFF AND PUSH32 0xFFFFFFFF00000000000000000000000000000000000000000000000000000000 SWAP1 SWAP4 AND SWAP3 SWAP1 SWAP3 OR SWAP1 SWAP2 MSTORE PUSH2 0x3755 JUMP JUMPDEST POP POP POP POP JUMP JUMPDEST PUSH1 0x0 PUSH2 0x2AFE DUP3 PUSH2 0x1BFA JUMP JUMPDEST PUSH2 0x2B07 DUP4 PUSH2 0x2299 JUMP JUMPDEST PUSH2 0xFC8 SWAP2 SWAP1 PUSH2 0x4C36 JUMP JUMPDEST EXTCODESIZE ISZERO ISZERO SWAP1 JUMP JUMPDEST PUSH2 0x2B1F PUSH2 0x160D JUMP JUMPDEST ISZERO PUSH2 0x192E JUMPI PUSH1 0x40 MLOAD PUSH32 0x8C379A000000000000000000000000000000000000000000000000000000000 DUP2 MSTORE PUSH1 0x4 ADD PUSH2 0x972 SWAP1 PUSH2 0x4712 JUMP JUMPDEST CALLER PUSH1 0x0 SWAP1 DUP2 MSTORE PUSH1 0x3 PUSH1 0x20 MSTORE PUSH1 0x40 SWAP1 KECCAK256 DUP1 SLOAD DUP4 GT ISZERO PUSH2 0x2BA0 JUMPI PUSH1 0x40 MLOAD PUSH32 0x8C379A000000000000000000000000000000000000000000000000000000000 DUP2 MSTORE PUSH1 0x4 ADD PUSH2 0x972 SWAP1 PUSH2 0x457C JUMP JUMPDEST TIMESTAMP DUP2 PUSH1 0x5 ADD SLOAD LT PUSH2 0x2BDD JUMPI PUSH1 0x40 MLOAD PUSH32 0x8C379A000000000000000000000000000000000000000000000000000000000 DUP2 MSTORE PUSH1 0x4 ADD PUSH2 0x972 SWAP1 PUSH2 0x4454 JUMP JUMPDEST PUSH1 0x2 SLOAD PUSH20 0xFFFFFFFFFFFFFFFFFFFFFFFFFFFFFFFFFFFFFFFF AND ISZERO PUSH2 0x2C84 JUMPI PUSH1 0x2 SLOAD PUSH1 0x40 MLOAD PUSH32 0x51CFF8D900000000000000000000000000000000000000000000000000000000 DUP2 MSTORE PUSH20 0xFFFFFFFFFFFFFFFFFFFFFFFFFFFFFFFFFFFFFFFF SWAP1 SWAP2 AND SWAP1 PUSH4 0x51CFF8D9 SWAP1 PUSH2 0x2C51 SWAP1 CALLER SWAP1 PUSH1 0x4 ADD PUSH2 0x41DE JUMP JUMPDEST PUSH1 0x0 PUSH1 0x40 MLOAD DUP1 DUP4 SUB DUP2 PUSH1 0x0 DUP8 DUP1 EXTCODESIZE ISZERO DUP1 ISZERO PUSH2 0x2C6B JUMPI PUSH1 0x0 DUP1 REVERT JUMPDEST POP GAS CALL ISZERO DUP1 ISZERO PUSH2 0x2C7F JUMPI RETURNDATASIZE PUSH1 0x0 DUP1 RETURNDATACOPY RETURNDATASIZE PUSH1 0x0 REVERT JUMPDEST POP POP POP POP JUMPDEST DUP1 SLOAD DUP4 SWAP1 PUSH1 0x0 SWAP1 PUSH2 0x2CA1 PUSH12 0x204FCE5E3E25026110000000 DUP5 PUSH2 0x4C87 JUMP JUMPDEST PUSH2 0x2CAB SWAP2 SWAP1 PUSH2 0x4C4E JUMP JUMPDEST SWAP1 POP PUSH2 0x2CB5 PUSH2 0x380B JUMP JUMPDEST PUSH2 0x2CBE CALLER PUSH2 0x39E2 JUMP JUMPDEST DUP5 ISZERO DUP1 ISZERO PUSH2 0x2CCC JUMPI POP PUSH1 0x0 DUP5 GT JUMPDEST ISZERO PUSH2 0x2D0D JUMPI PUSH1 0x0 PUSH2 0x2CDB PUSH2 0x1930 JUMP JUMPDEST SWAP1 POP DUP1 PUSH1 0x7 SLOAD DUP7 PUSH2 0x2CEC SWAP2 SWAP1 PUSH2 0x4C87 JUMP JUMPDEST PUSH2 0x2CF6 SWAP2 SWAP1 PUSH2 0x4C4E JUMP JUMPDEST DUP5 SLOAD SWAP1 SWAP4 POP DUP4 GT ISZERO PUSH2 0x2D07 JUMPI DUP4 SLOAD SWAP3 POP JUMPDEST POP PUSH2 0x2D34 JUMP JUMPDEST DUP3 SLOAD PUSH12 0x204FCE5E3E25026110000000 SWAP1 PUSH2 0x2D27 SWAP1 DUP4 PUSH2 0x4C87 JUMP JUMPDEST PUSH2 0x2D31 SWAP2 SWAP1 PUSH2 0x4C4E JUMP JUMPDEST SWAP2 POP JUMPDEST PUSH1 0x0 PUSH1 0x7 SLOAD DUP4 PUSH2 0x2D42 PUSH2 0x1930 JUMP JUMPDEST PUSH2 0x2D4C SWAP2 SWAP1 PUSH2 0x4C87 JUMP JUMPDEST PUSH2 0x2D56 SWAP2 SWAP1 PUSH2 0x4C4E JUMP JUMPDEST SWAP1 POP DUP3 DUP5 PUSH1 0x0 ADD PUSH1 0x0 DUP3 DUP3 SLOAD PUSH2 0x2D6C SWAP2 SWAP1 PUSH2 0x4CC4 JUMP JUMPDEST SWAP3 POP POP DUP2 SWAP1 SSTORE POP DUP3 PUSH1 0x7 PUSH1 0x0 DUP3 DUP3 SLOAD PUSH2 0x2D85 SWAP2 SWAP1 PUSH2 0x4CC4 JUMP JUMPDEST SWAP1 SWAP2 SSTORE POP POP CALLER PUSH1 0x0 SWAP1 DUP2 MSTORE PUSH1 0x5 PUSH1 0x20 MSTORE PUSH1 0x40 SWAP1 KECCAK256 SLOAD PUSH1 0xFF AND ISZERO DUP1 ISZERO PUSH2 0x2DBA JUMPI POP PUSH1 0x18 SLOAD DUP5 PUSH1 0x1 ADD SLOAD PUSH2 0x2DB7 SWAP2 SWAP1 PUSH2 0x4C36 JUMP JUMPDEST TIMESTAMP LT JUMPDEST ISZERO PUSH2 0x2E47 JUMPI PUSH1 0x15 SLOAD PUSH2 0x2DCB CALLER PUSH2 0x2B11 JUMP JUMPDEST ISZERO PUSH2 0x2DD5 JUMPI POP PUSH1 0x16 SLOAD JUMPDEST PUSH1 0x0 PUSH2 0x2710 PUSH2 0x2DE4 DUP4 DUP6 PUSH2 0x4C87 JUMP JUMPDEST PUSH2 0x2DEE SWAP2 SWAP1 PUSH2 0x4C4E JUMP JUMPDEST PUSH1 0x9 SLOAD SWAP1 SWAP2 POP PUSH2 0x2E38 SWAP1 PUSH20 0xFFFFFFFFFFFFFFFFFFFFFFFFFFFFFFFFFFFFFFFF PUSH32 0x0 DUP2 AND SWAP2 AND DUP4 PUSH2 0x3732 JUMP JUMPDEST PUSH2 0x2E42 DUP2 DUP5 PUSH2 0x4CC4 JUMP JUMPDEST SWAP3 POP POP POP JUMPDEST PUSH2 0x2E88 PUSH20 0xFFFFFFFFFFFFFFFFFFFFFFFFFFFFFFFFFFFFFFFF PUSH32 0x0 AND CALLER DUP4 PUSH2 0x3732 JUMP JUMPDEST DUP4 SLOAD ISZERO PUSH2 0x2EBA JUMPI PUSH1 0x7 SLOAD PUSH2 0x2E9A PUSH2 0x1930 JUMP JUMPDEST DUP6 SLOAD PUSH2 0x2EA6 SWAP2 SWAP1 PUSH2 0x4C87 JUMP JUMPDEST PUSH2 0x2EB0 SWAP2 SWAP1 PUSH2 0x4C4E JUMP JUMPDEST PUSH1 0x2 DUP6 ADD SSTORE PUSH2 0x2EC2 JUMP JUMPDEST PUSH1 0x0 PUSH1 0x2 DUP6 ADD SSTORE JUMPDEST TIMESTAMP PUSH1 0x3 DUP6 ADD SSTORE PUSH2 0x2ED1 CALLER PUSH2 0x3E53 JUMP JUMPDEST CALLER PUSH20 0xFFFFFFFFFFFFFFFFFFFFFFFFFFFFFFFFFFFFFFFF AND PUSH32 0xF279E6A1F5E320CCA91135676D9CB6E44CA8A08C0B88342BCDB1144F6511B568 DUP3 DUP6 PUSH1 0x40 MLOAD PUSH2 0x2F19 SWAP3 SWAP2 SWAP1 PUSH2 0x4BCC JUMP JUMPDEST PUSH1 0x40 MLOAD DUP1 SWAP2 SUB SWAP1 LOG2 POP POP POP POP POP POP JUMP JUMPDEST PUSH20 0xFFFFFFFFFFFFFFFFFFFFFFFFFFFFFFFFFFFFFFFF DUP2 AND PUSH1 0x0 SWAP1 DUP2 MSTORE PUSH1 0x3 PUSH1 0x20 MSTORE PUSH1 0x40 SWAP1 KECCAK256 DUP1 SLOAD ISZERO DUP1 PUSH2 0x2F5C JUMPI POP PUSH1 0x0 DUP5 GT JUMPDEST ISZERO PUSH2 0x2FA0 JUMPI PUSH6 0x9184E72A000 DUP5 GT PUSH2 0x2FA0 JUMPI PUSH1 0x40 MLOAD PUSH32 0x8C379A000000000000000000000000000000000000000000000000000000000 DUP2 MSTORE PUSH1 0x4 ADD PUSH2 0x972 SWAP1 PUSH2 0x483A JUMP JUMPDEST PUSH1 0x5 DUP2 ADD SLOAD DUP4 SWAP1 TIMESTAMP GT PUSH2 0x2FFE JUMPI DUP5 ISZERO PUSH2 0x2FDD JUMPI TIMESTAMP PUSH1 0x4 DUP4 ADD SSTORE PUSH1 0x8 DUP3 ADD SLOAD PUSH1 0xD DUP1 SLOAD PUSH1 0x0 SWAP1 PUSH2 0x2FD0 SWAP1 DUP5 SWAP1 PUSH2 0x4CC4 JUMP JUMPDEST SWAP1 SWAP2 SSTORE POP POP PUSH1 0x0 PUSH1 0x8 DUP4 ADD SSTORE JUMPDEST DUP2 PUSH1 0x4 ADD SLOAD DUP3 PUSH1 0x5 ADD SLOAD PUSH2 0x2FF1 SWAP2 SWAP1 PUSH2 0x4CC4 JUMP JUMPDEST PUSH2 0x2FFB SWAP1 DUP3 PUSH2 0x4C36 JUMP JUMPDEST SWAP1 POP JUMPDEST DUP4 ISZERO DUP1 PUSH2 0x300E JUMPI POP PUSH3 0x93A80 DUP2 LT ISZERO JUMPDEST PUSH2 0x3044 JUMPI PUSH1 0x40 MLOAD PUSH32 0x8C379A000000000000000000000000000000000000000000000000000000000 DUP2 MSTORE PUSH1 0x4 ADD PUSH2 0x972 SWAP1 PUSH2 0x4621 JUMP JUMPDEST PUSH1 0xF SLOAD DUP2 GT ISZERO PUSH2 0x3080 JUMPI PUSH1 0x40 MLOAD PUSH32 0x8C379A000000000000000000000000000000000000000000000000000000000 DUP2 MSTORE PUSH1 0x4 ADD PUSH2 0x972 SWAP1 PUSH2 0x45B3 JUMP JUMPDEST PUSH1 0x2 SLOAD PUSH20 0xFFFFFFFFFFFFFFFFFFFFFFFFFFFFFFFFFFFFFFFF AND ISZERO PUSH2 0x312B JUMPI PUSH1 0x2 SLOAD PUSH1 0x40 MLOAD PUSH32 0xEFE6A8B00000000000000000000000000000000000000000000000000000000 DUP2 MSTORE PUSH20 0xFFFFFFFFFFFFFFFFFFFFFFFFFFFFFFFFFFFFFFFF SWAP1 SWAP2 AND SWAP1 PUSH4 0xEFE6A8B SWAP1 PUSH2 0x30F8 SWAP1 DUP7 SWAP1 DUP10 SWAP1 DUP10 SWAP1 PUSH1 0x4 ADD PUSH2 0x4256 JUMP JUMPDEST PUSH1 0x0 PUSH1 0x40 MLOAD DUP1 DUP4 SUB DUP2 PUSH1 0x0 DUP8 DUP1 EXTCODESIZE ISZERO DUP1 ISZERO PUSH2 0x3112 JUMPI PUSH1 0x0 DUP1 REVERT JUMPDEST POP GAS CALL ISZERO DUP1 ISZERO PUSH2 0x3126 JUMPI RETURNDATASIZE PUSH1 0x0 DUP1 RETURNDATACOPY RETURNDATASIZE PUSH1 0x0 REVERT JUMPDEST POP POP POP POP JUMPDEST PUSH2 0x3133 PUSH2 0x380B JUMP JUMPDEST PUSH1 0x7 SLOAD PUSH2 0x3190 JUMPI PUSH1 0x0 PUSH2 0x3144 PUSH2 0x13AC JUMP JUMPDEST PUSH1 0x9 SLOAD SWAP1 SWAP2 POP PUSH2 0x318E SWAP1 PUSH20 0xFFFFFFFFFFFFFFFFFFFFFFFFFFFFFFFFFFFFFFFF PUSH32 0x0 DUP2 AND SWAP2 AND DUP4 PUSH2 0x3732 JUMP JUMPDEST POP JUMPDEST PUSH2 0x3199 DUP4 PUSH2 0x39E2 JUMP JUMPDEST DUP4 ISZERO PUSH2 0x3210 JUMPI TIMESTAMP DUP3 PUSH1 0x5 ADD SLOAD LT ISZERO PUSH2 0x31C8 JUMPI TIMESTAMP PUSH1 0x4 DUP4 ADD DUP2 SWAP1 SSTORE PUSH2 0x31BE SWAP1 DUP6 SWAP1 PUSH2 0x4C36 JUMP JUMPDEST PUSH1 0x5 DUP4 ADD SSTORE PUSH2 0x31E2 JUMP JUMPDEST DUP4 DUP3 PUSH1 0x5 ADD PUSH1 0x0 DUP3 DUP3 SLOAD PUSH2 0x31DC SWAP2 SWAP1 PUSH2 0x4C36 JUMP JUMPDEST SWAP1 SWAP2 SSTORE POP POP JUMPDEST PUSH1 0x7 DUP3 ADD DUP1 SLOAD PUSH32 0xFFFFFFFFFFFFFFFFFFFFFFFFFFFFFFFFFFFFFFFFFFFFFFFFFFFFFFFFFFFFFF00 AND PUSH1 0x1 OR SWAP1 SSTORE JUMPDEST PUSH1 0x0 DUP1 PUSH1 0x0 DUP1 PUSH2 0x321E PUSH2 0x1930 JUMP JUMPDEST SWAP1 POP DUP9 ISZERO PUSH2 0x326C JUMPI PUSH2 0x3268 PUSH20 0xFFFFFFFFFFFFFFFFFFFFFFFFFFFFFFFFFFFFFFFF PUSH32 0x0 AND DUP9 ADDRESS DUP13 PUSH2 0x2A4A JUMP JUMPDEST DUP9 SWAP3 POP JUMPDEST DUP6 SLOAD ISZERO DUP1 ISZERO SWAP1 PUSH2 0x3280 JUMPI POP PUSH1 0x7 DUP7 ADD SLOAD PUSH1 0xFF AND JUMPDEST ISZERO PUSH2 0x32F9 JUMPI PUSH1 0x7 SLOAD DUP7 SLOAD PUSH2 0x3294 SWAP1 DUP4 PUSH2 0x4C87 JUMP JUMPDEST PUSH2 0x329E SWAP2 SWAP1 PUSH2 0x4C4E JUMP JUMPDEST SWAP2 POP PUSH2 0x32AA DUP3 DUP5 PUSH2 0x4C36 JUMP JUMPDEST SWAP3 POP DUP6 PUSH1 0x0 ADD SLOAD PUSH1 0x7 PUSH1 0x0 DUP3 DUP3 SLOAD PUSH2 0x32C2 SWAP2 SWAP1 PUSH2 0x4CC4 JUMP JUMPDEST SWAP1 SWAP2 SSTORE POP POP PUSH1 0x0 DUP7 SSTORE PUSH1 0x4 DUP7 ADD SLOAD TIMESTAMP EQ ISZERO PUSH2 0x32F9 JUMPI PUSH1 0x8 DUP7 ADD DUP3 SWAP1 SSTORE PUSH1 0xD DUP1 SLOAD DUP4 SWAP2 SWAP1 PUSH1 0x0 SWAP1 PUSH2 0x32F3 SWAP1 DUP5 SWAP1 PUSH2 0x4C36 JUMP JUMPDEST SWAP1 SWAP2 SSTORE POP POP JUMPDEST PUSH1 0x7 SLOAD ISZERO PUSH2 0x3329 JUMPI PUSH2 0x330B DUP3 DUP3 PUSH2 0x4CC4 JUMP JUMPDEST PUSH1 0x7 SLOAD PUSH2 0x3318 SWAP1 DUP6 PUSH2 0x4C87 JUMP JUMPDEST PUSH2 0x3322 SWAP2 SWAP1 PUSH2 0x4C4E JUMP JUMPDEST SWAP4 POP PUSH2 0x332D JUMP JUMPDEST DUP3 SWAP4 POP JUMPDEST DUP6 PUSH1 0x4 ADD SLOAD DUP7 PUSH1 0x5 ADD SLOAD GT ISZERO PUSH2 0x34B0 JUMPI PUSH1 0x0 PUSH1 0x10 SLOAD PUSH1 0x12 SLOAD DUP9 PUSH1 0x4 ADD SLOAD DUP10 PUSH1 0x5 ADD SLOAD PUSH2 0x3359 SWAP2 SWAP1 PUSH2 0x4CC4 JUMP JUMPDEST PUSH2 0x3363 SWAP2 SWAP1 PUSH2 0x4C87 JUMP JUMPDEST PUSH2 0x336D SWAP2 SWAP1 PUSH2 0x4C4E JUMP JUMPDEST SWAP1 POP PUSH1 0x0 PUSH5 0xE8D4A51000 PUSH2 0x3381 DUP8 DUP5 PUSH2 0x4C87 JUMP JUMPDEST PUSH2 0x338B SWAP2 SWAP1 PUSH2 0x4C4E JUMP JUMPDEST SWAP1 POP PUSH2 0x3397 DUP2 DUP8 PUSH2 0x4C36 JUMP JUMPDEST SWAP6 POP DUP6 DUP9 PUSH1 0x0 ADD PUSH1 0x0 DUP3 DUP3 SLOAD PUSH2 0x33AD SWAP2 SWAP1 PUSH2 0x4C36 JUMP JUMPDEST SWAP1 SWAP2 SSTORE POP PUSH1 0x0 SWAP1 POP PUSH5 0xE8D4A51000 PUSH2 0x33C5 DUP8 DUP6 PUSH2 0x4C87 JUMP JUMPDEST PUSH2 0x33CF SWAP2 SWAP1 PUSH2 0x4C4E JUMP JUMPDEST SWAP1 POP DUP1 DUP10 PUSH1 0x6 ADD PUSH1 0x0 DUP3 DUP3 SLOAD PUSH2 0x33E5 SWAP2 SWAP1 PUSH2 0x4C36 JUMP JUMPDEST SWAP3 POP POP DUP2 SWAP1 SSTORE POP DUP1 PUSH1 0xC PUSH1 0x0 DUP3 DUP3 SLOAD PUSH2 0x33FE SWAP2 SWAP1 PUSH2 0x4C36 JUMP JUMPDEST SWAP3 POP POP DUP2 SWAP1 SSTORE POP DUP12 DUP10 PUSH1 0x8 ADD PUSH1 0x0 DUP3 DUP3 SLOAD PUSH2 0x3419 SWAP2 SWAP1 PUSH2 0x4C36 JUMP JUMPDEST SWAP3 POP POP DUP2 SWAP1 SSTORE POP DUP12 PUSH1 0xD PUSH1 0x0 DUP3 DUP3 SLOAD PUSH2 0x3432 SWAP2 SWAP1 PUSH2 0x4C36 JUMP JUMPDEST SWAP3 POP POP DUP2 SWAP1 SSTORE POP DUP10 PUSH20 0xFFFFFFFFFFFFFFFFFFFFFFFFFFFFFFFFFFFFFFFF AND PUSH32 0x2B943276E5D747F6F7DD46D3B880D8874CB8D6B9B88CA1903990A2738E7DC7A1 DUP11 PUSH1 0x8 ADD SLOAD DUP12 PUSH1 0x0 ADD SLOAD DUP13 PUSH1 0x4 ADD SLOAD DUP14 PUSH1 0x5 ADD SLOAD PUSH2 0x348F SWAP2 SWAP1 PUSH2 0x4CC4 JUMP JUMPDEST TIMESTAMP PUSH1 0x40 MLOAD PUSH2 0x34A0 SWAP5 SWAP4 SWAP3 SWAP2 SWAP1 PUSH2 0x4BDA JUMP JUMPDEST PUSH1 0x40 MLOAD DUP1 SWAP2 SUB SWAP1 LOG2 POP POP POP PUSH2 0x34CA JUMP JUMPDEST DUP4 DUP7 PUSH1 0x0 ADD PUSH1 0x0 DUP3 DUP3 SLOAD PUSH2 0x34C4 SWAP2 SWAP1 PUSH2 0x4C36 JUMP JUMPDEST SWAP1 SWAP2 SSTORE POP POP JUMPDEST PUSH1 0x0 DUP10 GT DUP1 PUSH2 0x34D9 JUMPI POP PUSH1 0x0 DUP9 GT JUMPDEST ISZERO PUSH2 0x34E5 JUMPI TIMESTAMP PUSH1 0x1 DUP8 ADD SSTORE JUMPDEST DUP4 PUSH1 0x7 PUSH1 0x0 DUP3 DUP3 SLOAD PUSH2 0x34F7 SWAP2 SWAP1 PUSH2 0x4C36 JUMP JUMPDEST SWAP1 SWAP2 SSTORE POP POP PUSH1 0x6 DUP7 ADD SLOAD PUSH1 0x7 SLOAD PUSH2 0x350C PUSH2 0x1930 JUMP JUMPDEST DUP9 SLOAD PUSH2 0x3518 SWAP2 SWAP1 PUSH2 0x4C87 JUMP JUMPDEST PUSH2 0x3522 SWAP2 SWAP1 PUSH2 0x4C4E JUMP JUMPDEST PUSH2 0x352C SWAP2 SWAP1 PUSH2 0x4CC4 JUMP JUMPDEST PUSH1 0x2 DUP8 ADD SSTORE TIMESTAMP PUSH1 0x3 DUP8 ADD SSTORE PUSH2 0x3540 DUP8 PUSH2 0x3E53 JUMP JUMPDEST DUP7 PUSH20 0xFFFFFFFFFFFFFFFFFFFFFFFFFFFFFFFFFFFFFFFF AND PUSH32 0x7162984403F6C73C8639375D45A9187DFD04602231BD8E587C415718B5F7E5F9 DUP11 DUP7 DUP12 TIMESTAMP PUSH1 0x40 MLOAD PUSH2 0x358C SWAP5 SWAP4 SWAP3 SWAP2 SWAP1 PUSH2 0x4BDA JUMP JUMPDEST PUSH1 0x40 MLOAD DUP1 SWAP2 SUB SWAP1 LOG2 POP POP POP POP POP POP POP POP POP JUMP JUMPDEST PUSH2 0x35A7 PUSH2 0x160D JUMP JUMPDEST PUSH2 0x192E JUMPI PUSH1 0x40 MLOAD PUSH32 0x8C379A000000000000000000000000000000000000000000000000000000000 DUP2 MSTORE PUSH1 0x4 ADD PUSH2 0x972 SWAP1 PUSH2 0x4352 JUMP JUMPDEST PUSH2 0x35E5 PUSH2 0x359F JUMP JUMPDEST PUSH1 0x0 DUP1 SLOAD PUSH32 0xFFFFFFFFFFFFFFFFFFFFFF00FFFFFFFFFFFFFFFFFFFFFFFFFFFFFFFFFFFFFFFF AND SWAP1 SSTORE PUSH32 0x5DB9EE0A495BF2E6FF9C91A7834C1BA4FDD244A5E8AA4E537BD38AEAE4B073AA PUSH2 0x3636 PUSH2 0x3751 JUMP JUMPDEST PUSH1 0x40 MLOAD PUSH2 0x3643 SWAP2 SWAP1 PUSH2 0x41DE JUMP JUMPDEST PUSH1 0x40 MLOAD DUP1 SWAP2 SUB SWAP1 LOG1 JUMP JUMPDEST PUSH1 0x0 DUP1 SLOAD PUSH20 0xFFFFFFFFFFFFFFFFFFFFFFFFFFFFFFFFFFFFFFFF DUP4 DUP2 AND PUSH32 0xFFFFFFFFFFFFFFFFFFFFFFFF0000000000000000000000000000000000000000 DUP4 AND DUP2 OR DUP5 SSTORE PUSH1 0x40 MLOAD SWAP2 SWAP1 SWAP3 AND SWAP3 DUP4 SWAP2 PUSH32 0x8BE0079C531659141344CD1FD0A4F28419497F9722A3DAAFE3B4186F6B6457E0 SWAP2 SWAP1 LOG3 POP POP JUMP JUMPDEST PUSH2 0x36CA PUSH2 0x2B17 JUMP JUMPDEST PUSH1 0x0 DUP1 SLOAD PUSH32 0xFFFFFFFFFFFFFFFFFFFFFF00FFFFFFFFFFFFFFFFFFFFFFFFFFFFFFFFFFFFFFFF AND PUSH21 0x10000000000000000000000000000000000000000 OR SWAP1 SSTORE PUSH32 0x62E78CEA01BEE320CD4E420270B5EA74000D11B0C9F74754EBDBFC544B05A258 PUSH2 0x3636 PUSH2 0x3751 JUMP JUMPDEST PUSH2 0x111D DUP4 PUSH4 0xA9059CBB PUSH1 0xE0 SHL DUP5 DUP5 PUSH1 0x40 MLOAD PUSH1 0x24 ADD PUSH2 0x2A6B SWAP3 SWAP2 SWAP1 PUSH2 0x4230 JUMP JUMPDEST CALLER SWAP1 JUMP JUMPDEST PUSH1 0x0 PUSH2 0x37B7 DUP3 PUSH1 0x40 MLOAD DUP1 PUSH1 0x40 ADD PUSH1 0x40 MSTORE DUP1 PUSH1 0x20 DUP2 MSTORE PUSH1 0x20 ADD PUSH32 0x5361666545524332303A206C6F772D6C6576656C2063616C6C206661696C6564 DUP2 MSTORE POP DUP6 PUSH20 0xFFFFFFFFFFFFFFFFFFFFFFFFFFFFFFFFFFFFFFFF AND PUSH2 0x3F4D SWAP1 SWAP3 SWAP2 SWAP1 PUSH4 0xFFFFFFFF AND JUMP JUMPDEST DUP1 MLOAD SWAP1 SWAP2 POP ISZERO PUSH2 0x111D JUMPI DUP1 DUP1 PUSH1 0x20 ADD SWAP1 MLOAD DUP2 ADD SWAP1 PUSH2 0x37D5 SWAP2 SWAP1 PUSH2 0x4155 JUMP JUMPDEST PUSH2 0x111D JUMPI PUSH1 0x40 MLOAD PUSH32 0x8C379A000000000000000000000000000000000000000000000000000000000 DUP2 MSTORE PUSH1 0x4 ADD PUSH2 0x972 SWAP1 PUSH2 0x4A51 JUMP JUMPDEST PUSH1 0xB SLOAD PUSH1 0x40 MLOAD PUSH32 0xC799B59D00000000000000000000000000000000000000000000000000000000 DUP2 MSTORE PUSH1 0x0 SWAP2 PUSH20 0xFFFFFFFFFFFFFFFFFFFFFFFFFFFFFFFFFFFFFFFF PUSH32 0x0 AND SWAP2 PUSH4 0xC799B59D SWAP2 PUSH2 0x3883 SWAP2 ADDRESS SWAP1 PUSH1 0x4 ADD PUSH2 0x4BA8 JUMP JUMPDEST PUSH1 0x20 PUSH1 0x40 MLOAD DUP1 DUP4 SUB DUP2 DUP7 DUP1 EXTCODESIZE ISZERO DUP1 ISZERO PUSH2 0x389B JUMPI PUSH1 0x0 DUP1 REVERT JUMPDEST POP GAS STATICCALL ISZERO DUP1 ISZERO PUSH2 0x38AF JUMPI RETURNDATASIZE PUSH1 0x0 DUP1 RETURNDATACOPY RETURNDATASIZE PUSH1 0x0 REVERT JUMPDEST POP POP POP POP PUSH1 0x40 MLOAD RETURNDATASIZE PUSH1 0x1F NOT PUSH1 0x1F DUP3 ADD AND DUP3 ADD DUP1 PUSH1 0x40 MSTORE POP DUP2 ADD SWAP1 PUSH2 0x38D3 SWAP2 SWAP1 PUSH2 0x4189 JUMP JUMPDEST SWAP1 POP DUP1 ISZERO PUSH2 0x1022 JUMPI PUSH1 0x0 PUSH2 0x38E5 PUSH2 0x13AC JUMP JUMPDEST PUSH1 0xB SLOAD PUSH1 0x40 MLOAD PUSH32 0x441A3E7000000000000000000000000000000000000000000000000000000000 DUP2 MSTORE SWAP2 SWAP3 POP PUSH20 0xFFFFFFFFFFFFFFFFFFFFFFFFFFFFFFFFFFFFFFFF PUSH32 0x0 AND SWAP2 PUSH4 0x441A3E70 SWAP2 PUSH2 0x395E SWAP2 PUSH1 0x0 SWAP1 PUSH1 0x4 ADD PUSH2 0x4BCC JUMP JUMPDEST PUSH1 0x0 PUSH1 0x40 MLOAD DUP1 DUP4 SUB DUP2 PUSH1 0x0 DUP8 DUP1 EXTCODESIZE ISZERO DUP1 ISZERO PUSH2 0x3978 JUMPI PUSH1 0x0 DUP1 REVERT JUMPDEST POP GAS CALL ISZERO DUP1 ISZERO PUSH2 0x398C JUMPI RETURNDATASIZE PUSH1 0x0 DUP1 RETURNDATACOPY RETURNDATASIZE PUSH1 0x0 REVERT JUMPDEST POP POP POP POP PUSH1 0x0 PUSH2 0x399A PUSH2 0x13AC JUMP JUMPDEST SWAP1 POP CALLER PUSH32 0xC9695243A805ADB74C91F28311176C65B417E842D5699893CEF56D18BFA48CBA PUSH2 0x39C8 DUP5 DUP5 PUSH2 0x4CC4 JUMP JUMPDEST PUSH1 0x40 MLOAD PUSH2 0x39D5 SWAP2 SWAP1 PUSH2 0x4B9F JUMP JUMPDEST PUSH1 0x40 MLOAD DUP1 SWAP2 SUB SWAP1 LOG2 POP POP POP JUMP JUMPDEST PUSH20 0xFFFFFFFFFFFFFFFFFFFFFFFFFFFFFFFFFFFFFFFF DUP2 AND PUSH1 0x0 SWAP1 DUP2 MSTORE PUSH1 0x3 PUSH1 0x20 MSTORE PUSH1 0x40 SWAP1 KECCAK256 DUP1 SLOAD ISZERO PUSH2 0x25F6 JUMPI PUSH1 0x7 DUP2 ADD SLOAD PUSH1 0xFF AND ISZERO PUSH2 0x3CDA JUMPI PUSH1 0x0 DUP2 PUSH1 0x6 ADD SLOAD PUSH1 0x7 SLOAD DUP4 PUSH1 0x0 ADD SLOAD PUSH2 0x3A32 PUSH2 0x1930 JUMP JUMPDEST PUSH2 0x3A3C SWAP2 SWAP1 PUSH2 0x4C87 JUMP JUMPDEST PUSH2 0x3A46 SWAP2 SWAP1 PUSH2 0x4C4E JUMP JUMPDEST PUSH2 0x3A50 SWAP2 SWAP1 PUSH2 0x4CC4 JUMP JUMPDEST SWAP1 POP DUP2 PUSH1 0x6 ADD SLOAD PUSH1 0xC PUSH1 0x0 DUP3 DUP3 SLOAD PUSH2 0x3A68 SWAP2 SWAP1 PUSH2 0x4CC4 JUMP JUMPDEST SWAP1 SWAP2 SSTORE POP POP PUSH1 0x0 PUSH1 0x6 DUP4 ADD DUP2 SWAP1 SSTORE DUP3 SLOAD PUSH1 0x7 DUP1 SLOAD SWAP2 SWAP3 SWAP1 SWAP2 PUSH2 0x3A8B SWAP1 DUP5 SWAP1 PUSH2 0x4CC4 JUMP JUMPDEST SWAP1 SWAP2 SSTORE POP POP PUSH20 0xFFFFFFFFFFFFFFFFFFFFFFFFFFFFFFFFFFFFFFFF DUP4 AND PUSH1 0x0 SWAP1 DUP2 MSTORE PUSH1 0x6 PUSH1 0x20 MSTORE PUSH1 0x40 SWAP1 KECCAK256 SLOAD PUSH1 0xFF AND ISZERO DUP1 ISZERO PUSH2 0x3AD6 JUMPI POP TIMESTAMP PUSH1 0xE SLOAD DUP4 PUSH1 0x5 ADD SLOAD PUSH2 0x3AD4 SWAP2 SWAP1 PUSH2 0x4C36 JUMP JUMPDEST LT JUMPDEST ISZERO PUSH2 0x3BB5 JUMPI PUSH1 0x0 DUP3 PUSH1 0x8 ADD SLOAD DUP3 PUSH2 0x3AED SWAP2 SWAP1 PUSH2 0x4CC4 JUMP JUMPDEST SWAP1 POP PUSH1 0x0 PUSH1 0xE SLOAD DUP5 PUSH1 0x5 ADD SLOAD TIMESTAMP PUSH2 0x3B04 SWAP2 SWAP1 PUSH2 0x4CC4 JUMP JUMPDEST PUSH2 0x3B0E SWAP2 SWAP1 PUSH2 0x4CC4 JUMP JUMPDEST SWAP1 POP PUSH1 0x11 SLOAD DUP2 GT ISZERO PUSH2 0x3B1F JUMPI POP PUSH1 0x11 SLOAD JUMPDEST PUSH1 0x0 PUSH1 0x11 SLOAD PUSH1 0x17 SLOAD DUP4 PUSH2 0x3B32 SWAP2 SWAP1 PUSH2 0x4C87 JUMP JUMPDEST PUSH2 0x3B3C SWAP2 SWAP1 PUSH2 0x4C4E JUMP JUMPDEST SWAP1 POP PUSH1 0x0 PUSH5 0xE8D4A51000 PUSH2 0x3B50 DUP4 DUP7 PUSH2 0x4C87 JUMP JUMPDEST PUSH2 0x3B5A SWAP2 SWAP1 PUSH2 0x4C4E JUMP JUMPDEST PUSH1 0x9 SLOAD SWAP1 SWAP2 POP PUSH2 0x3BA4 SWAP1 PUSH20 0xFFFFFFFFFFFFFFFFFFFFFFFFFFFFFFFFFFFFFFFF PUSH32 0x0 DUP2 AND SWAP2 AND DUP4 PUSH2 0x3732 JUMP JUMPDEST PUSH2 0x3BAE DUP2 DUP7 PUSH2 0x4CC4 JUMP JUMPDEST SWAP5 POP POP POP POP POP JUMPDEST PUSH1 0x0 PUSH2 0x3BBF PUSH2 0x1930 JUMP JUMPDEST SWAP1 POP PUSH1 0x0 PUSH1 0x7 SLOAD PUSH1 0x0 EQ PUSH2 0x3BF5 JUMPI PUSH2 0x3BD7 DUP4 DUP4 PUSH2 0x4CC4 JUMP JUMPDEST PUSH1 0x7 SLOAD PUSH2 0x3BE4 SWAP1 DUP6 PUSH2 0x4C87 JUMP JUMPDEST PUSH2 0x3BEE SWAP2 SWAP1 PUSH2 0x4C4E JUMP JUMPDEST SWAP1 POP PUSH2 0x3BF8 JUMP JUMPDEST POP DUP2 JUMPDEST DUP1 DUP5 SSTORE PUSH1 0x7 DUP1 SLOAD DUP3 SWAP2 SWAP1 PUSH1 0x0 SWAP1 PUSH2 0x3C10 SWAP1 DUP5 SWAP1 PUSH2 0x4C36 JUMP JUMPDEST SWAP1 SWAP2 SSTORE POP POP PUSH1 0x5 DUP5 ADD SLOAD TIMESTAMP GT ISZERO PUSH2 0x3CD2 JUMPI PUSH1 0x7 DUP5 ADD DUP1 SLOAD PUSH32 0xFFFFFFFFFFFFFFFFFFFFFFFFFFFFFFFFFFFFFFFFFFFFFFFFFFFFFFFFFFFFFF00 AND SWAP1 SSTORE PUSH1 0x0 PUSH1 0x4 DUP6 ADD DUP2 SWAP1 SSTORE PUSH1 0x5 DUP6 ADD DUP2 SWAP1 SSTORE PUSH1 0x8 DUP6 ADD SLOAD PUSH1 0xD DUP1 SLOAD SWAP2 SWAP3 SWAP1 SWAP2 PUSH2 0x3C73 SWAP1 DUP5 SWAP1 PUSH2 0x4CC4 JUMP JUMPDEST SWAP1 SWAP2 SSTORE POP POP PUSH1 0x0 PUSH1 0x8 DUP6 ADD SSTORE PUSH1 0x40 MLOAD PUSH20 0xFFFFFFFFFFFFFFFFFFFFFFFFFFFFFFFFFFFFFFFF DUP7 AND SWAP1 PUSH32 0xF7870C5B224CBC19873599E46CCFC7103934650509B1AF0C3CE90138377C2004 SWAP1 PUSH2 0x3CC9 SWAP1 DUP7 SWAP1 TIMESTAMP SWAP1 PUSH2 0x4BCC JUMP JUMPDEST PUSH1 0x40 MLOAD DUP1 SWAP2 SUB SWAP1 LOG2 JUMPDEST POP POP POP PUSH2 0x25F6 JUMP JUMPDEST PUSH20 0xFFFFFFFFFFFFFFFFFFFFFFFFFFFFFFFFFFFFFFFF DUP3 AND PUSH1 0x0 SWAP1 DUP2 MSTORE PUSH1 0x4 PUSH1 0x20 MSTORE PUSH1 0x40 SWAP1 KECCAK256 SLOAD PUSH1 0xFF AND PUSH2 0x25F6 JUMPI PUSH1 0x0 PUSH1 0x7 SLOAD PUSH2 0x3D14 PUSH2 0x1930 JUMP JUMPDEST DUP4 SLOAD PUSH2 0x3D20 SWAP2 SWAP1 PUSH2 0x4C87 JUMP JUMPDEST PUSH2 0x3D2A SWAP2 SWAP1 PUSH2 0x4C4E JUMP JUMPDEST SWAP1 POP DUP2 PUSH1 0x0 ADD SLOAD PUSH1 0x7 PUSH1 0x0 DUP3 DUP3 SLOAD PUSH2 0x3D42 SWAP2 SWAP1 PUSH2 0x4CC4 JUMP JUMPDEST SWAP1 SWAP2 SSTORE POP POP PUSH1 0x0 DUP1 DUP4 SSTORE PUSH1 0x2 DUP4 ADD SLOAD PUSH2 0x3D5B SWAP1 DUP4 PUSH2 0x4CC4 JUMP JUMPDEST PUSH1 0x13 SLOAD SWAP1 SWAP2 POP PUSH2 0x3D6A DUP6 PUSH2 0x2B11 JUMP JUMPDEST ISZERO PUSH2 0x3D74 JUMPI POP PUSH1 0x14 SLOAD JUMPDEST PUSH1 0x0 PUSH2 0x2710 PUSH2 0x3D83 DUP4 DUP6 PUSH2 0x4C87 JUMP JUMPDEST PUSH2 0x3D8D SWAP2 SWAP1 PUSH2 0x4C4E JUMP JUMPDEST SWAP1 POP DUP1 ISZERO PUSH2 0x3DE9 JUMPI PUSH1 0x9 SLOAD PUSH2 0x3DDC SWAP1 PUSH20 0xFFFFFFFFFFFFFFFFFFFFFFFFFFFFFFFFFFFFFFFF PUSH32 0x0 DUP2 AND SWAP2 AND DUP4 PUSH2 0x3732 JUMP JUMPDEST PUSH2 0x3DE6 DUP2 DUP6 PUSH2 0x4CC4 JUMP JUMPDEST SWAP4 POP JUMPDEST PUSH1 0x0 PUSH2 0x3DF3 PUSH2 0x1930 JUMP JUMPDEST SWAP1 POP PUSH1 0x0 PUSH1 0x7 SLOAD PUSH1 0x0 EQ PUSH2 0x3E29 JUMPI PUSH2 0x3E0B DUP7 DUP4 PUSH2 0x4CC4 JUMP JUMPDEST PUSH1 0x7 SLOAD PUSH2 0x3E18 SWAP1 DUP9 PUSH2 0x4C87 JUMP JUMPDEST PUSH2 0x3E22 SWAP2 SWAP1 PUSH2 0x4C4E JUMP JUMPDEST SWAP1 POP PUSH2 0x3E2C JUMP JUMPDEST POP DUP5 JUMPDEST DUP1 DUP8 SSTORE PUSH1 0x7 DUP1 SLOAD DUP3 SWAP2 SWAP1 PUSH1 0x0 SWAP1 PUSH2 0x3E44 SWAP1 DUP5 SWAP1 PUSH2 0x4C36 JUMP JUMPDEST SWAP1 SWAP2 SSTORE POP POP POP POP POP POP POP POP POP POP JUMP JUMPDEST PUSH1 0x1 SLOAD PUSH20 0xFFFFFFFFFFFFFFFFFFFFFFFFFFFFFFFFFFFFFFFF AND ISZERO PUSH2 0x1022 JUMPI PUSH20 0xFFFFFFFFFFFFFFFFFFFFFFFFFFFFFFFFFFFFFFFF DUP2 AND PUSH1 0x0 SWAP1 DUP2 MSTORE PUSH1 0x3 PUSH1 0x20 MSTORE PUSH1 0x40 DUP2 KECCAK256 PUSH1 0x4 DUP2 ADD SLOAD PUSH1 0x5 DUP3 ADD SLOAD SWAP2 SWAP3 SWAP2 PUSH2 0x3EAD SWAP2 SWAP1 PUSH2 0x4CC4 JUMP JUMPDEST PUSH1 0x1 SLOAD PUSH1 0x8 DUP5 ADD SLOAD PUSH1 0xD SLOAD PUSH1 0x10 SLOAD PUSH1 0x40 MLOAD PUSH32 0x87356EF700000000000000000000000000000000000000000000000000000000 DUP2 MSTORE SWAP5 SWAP6 POP PUSH20 0xFFFFFFFFFFFFFFFFFFFFFFFFFFFFFFFFFFFFFFFF SWAP1 SWAP4 AND SWAP4 PUSH4 0x87356EF7 SWAP4 PUSH2 0x3F16 SWAP4 DUP10 SWAP4 SWAP1 SWAP3 DUP9 SWAP3 SWAP1 PUSH1 0x4 ADD PUSH2 0x4284 JUMP JUMPDEST PUSH1 0x0 PUSH1 0x40 MLOAD DUP1 DUP4 SUB DUP2 PUSH1 0x0 DUP8 DUP1 EXTCODESIZE ISZERO DUP1 ISZERO PUSH2 0x3F30 JUMPI PUSH1 0x0 DUP1 REVERT JUMPDEST POP GAS CALL ISZERO DUP1 ISZERO PUSH2 0x3F44 JUMPI RETURNDATASIZE PUSH1 0x0 DUP1 RETURNDATACOPY RETURNDATASIZE PUSH1 0x0 REVERT JUMPDEST POP POP POP POP POP POP POP JUMP JUMPDEST PUSH1 0x60 PUSH2 0x3F5C DUP5 DUP5 PUSH1 0x0 DUP6 PUSH2 0x3F66 JUMP JUMPDEST SWAP1 POP JUMPDEST SWAP4 SWAP3 POP POP POP JUMP JUMPDEST PUSH1 0x60 DUP3 SELFBALANCE LT ISZERO PUSH2 0x3FA2 JUMPI PUSH1 0x40 MLOAD PUSH32 0x8C379A000000000000000000000000000000000000000000000000000000000 DUP2 MSTORE PUSH1 0x4 ADD PUSH2 0x972 SWAP1 PUSH2 0x4658 JUMP JUMPDEST PUSH2 0x3FAB DUP6 PUSH2 0x4067 JUMP JUMPDEST PUSH2 0x3FE1 JUMPI PUSH1 0x40 MLOAD PUSH32 0x8C379A000000000000000000000000000000000000000000000000000000000 DUP2 MSTORE PUSH1 0x4 ADD PUSH2 0x972 SWAP1 PUSH2 0x49BD JUMP JUMPDEST PUSH1 0x0 DUP1 DUP7 PUSH20 0xFFFFFFFFFFFFFFFFFFFFFFFFFFFFFFFFFFFFFFFF AND DUP6 DUP8 PUSH1 0x40 MLOAD PUSH2 0x400A SWAP2 SWAP1 PUSH2 0x41C2 JUMP JUMPDEST PUSH1 0x0 PUSH1 0x40 MLOAD DUP1 DUP4 SUB DUP2 DUP6 DUP8 GAS CALL SWAP3 POP POP POP RETURNDATASIZE DUP1 PUSH1 0x0 DUP2 EQ PUSH2 0x4047 JUMPI PUSH1 0x40 MLOAD SWAP2 POP PUSH1 0x1F NOT PUSH1 0x3F RETURNDATASIZE ADD AND DUP3 ADD PUSH1 0x40 MSTORE RETURNDATASIZE DUP3 MSTORE RETURNDATASIZE PUSH1 0x0 PUSH1 0x20 DUP5 ADD RETURNDATACOPY PUSH2 0x404C JUMP JUMPDEST PUSH1 0x60 SWAP2 POP JUMPDEST POP SWAP2 POP SWAP2 POP PUSH2 0x405C DUP3 DUP3 DUP7 PUSH2 0x4083 JUMP JUMPDEST SWAP8 SWAP7 POP POP POP POP POP POP POP JUMP JUMPDEST PUSH20 0xFFFFFFFFFFFFFFFFFFFFFFFFFFFFFFFFFFFFFFFF AND EXTCODESIZE ISZERO ISZERO SWAP1 JUMP JUMPDEST PUSH1 0x60 DUP4 ISZERO PUSH2 0x4092 JUMPI POP DUP2 PUSH2 0x3F5F JUMP JUMPDEST DUP3 MLOAD ISZERO PUSH2 0x40A2 JUMPI DUP3 MLOAD DUP1 DUP5 PUSH1 0x20 ADD REVERT JUMPDEST DUP2 PUSH1 0x40 MLOAD PUSH32 0x8C379A000000000000000000000000000000000000000000000000000000000 DUP2 MSTORE PUSH1 0x4 ADD PUSH2 0x972 SWAP2 SWAP1 PUSH2 0x42CA JUMP JUMPDEST PUSH1 0x0 PUSH1 0x20 DUP3 DUP5 SUB SLT ISZERO PUSH2 0x40E7 JUMPI DUP1 DUP2 REVERT JUMPDEST DUP2 CALLDATALOAD PUSH2 0x3F5F DUP2 PUSH2 0x4D36 JUMP JUMPDEST PUSH1 0x0 DUP1 PUSH1 0x40 DUP4 DUP6 SUB SLT ISZERO PUSH2 0x4104 JUMPI DUP1 DUP2 REVERT JUMPDEST DUP3 CALLDATALOAD PUSH2 0x410F DUP2 PUSH2 0x4D36 JUMP JUMPDEST SWAP2 POP PUSH1 0x20 DUP4 ADD CALLDATALOAD PUSH2 0x411F DUP2 PUSH2 0x4D58 JUMP JUMPDEST DUP1 SWAP2 POP POP SWAP3 POP SWAP3 SWAP1 POP JUMP JUMPDEST PUSH1 0x0 DUP1 PUSH1 0x40 DUP4 DUP6 SUB SLT ISZERO PUSH2 0x413C JUMPI DUP2 DUP3 REVERT JUMPDEST DUP3 CALLDATALOAD PUSH2 0x4147 DUP2 PUSH2 0x4D36 JUMP JUMPDEST SWAP5 PUSH1 0x20 SWAP4 SWAP1 SWAP4 ADD CALLDATALOAD SWAP4 POP POP POP JUMP JUMPDEST PUSH1 0x0 PUSH1 0x20 DUP3 DUP5 SUB SLT ISZERO PUSH2 0x4166 JUMPI DUP1 DUP2 REVERT JUMPDEST DUP2 MLOAD PUSH2 0x3F5F DUP2 PUSH2 0x4D58 JUMP JUMPDEST PUSH1 0x0 PUSH1 0x20 DUP3 DUP5 SUB SLT ISZERO PUSH2 0x4182 JUMPI DUP1 DUP2 REVERT JUMPDEST POP CALLDATALOAD SWAP2 SWAP1 POP JUMP JUMPDEST PUSH1 0x0 PUSH1 0x20 DUP3 DUP5 SUB SLT ISZERO PUSH2 0x419A JUMPI DUP1 DUP2 REVERT JUMPDEST POP MLOAD SWAP2 SWAP1 POP JUMP JUMPDEST PUSH1 0x0 DUP1 PUSH1 0x40 DUP4 DUP6 SUB SLT ISZERO PUSH2 0x41B3 JUMPI DUP2 DUP3 REVERT JUMPDEST POP POP DUP1 CALLDATALOAD SWAP3 PUSH1 0x20 SWAP1 SWAP2 ADD CALLDATALOAD SWAP2 POP JUMP JUMPDEST PUSH1 0x0 DUP3 MLOAD PUSH2 0x41D4 DUP2 DUP5 PUSH1 0x20 DUP8 ADD PUSH2 0x4CDB JUMP JUMPDEST SWAP2 SWAP1 SWAP2 ADD SWAP3 SWAP2 POP POP JUMP JUMPDEST PUSH20 0xFFFFFFFFFFFFFFFFFFFFFFFFFFFFFFFFFFFFFFFF SWAP2 SWAP1 SWAP2 AND DUP2 MSTORE PUSH1 0x20 ADD SWAP1 JUMP JUMPDEST PUSH20 0xFFFFFFFFFFFFFFFFFFFFFFFFFFFFFFFFFFFFFFFF SWAP4 DUP5 AND DUP2 MSTORE SWAP2 SWAP1 SWAP3 AND PUSH1 0x20 DUP3 ADD MSTORE PUSH1 0x40 DUP2 ADD SWAP2 SWAP1 SWAP2 MSTORE PUSH1 0x60 ADD SWAP1 JUMP JUMPDEST PUSH20 0xFFFFFFFFFFFFFFFFFFFFFFFFFFFFFFFFFFFFFFFF SWAP3 SWAP1 SWAP3 AND DUP3 MSTORE PUSH1 0x20 DUP3 ADD MSTORE PUSH1 0x40 ADD SWAP1 JUMP JUMPDEST PUSH20 0xFFFFFFFFFFFFFFFFFFFFFFFFFFFFFFFFFFFFFFFF SWAP4 SWAP1 SWAP4 AND DUP4 MSTORE PUSH1 0x20 DUP4 ADD SWAP2 SWAP1 SWAP2 MSTORE PUSH1 0x40 DUP3 ADD MSTORE PUSH1 0x60 ADD SWAP1 JUMP JUMPDEST PUSH20 0xFFFFFFFFFFFFFFFFFFFFFFFFFFFFFFFFFFFFFFFF SWAP6 SWAP1 SWAP6 AND DUP6 MSTORE PUSH1 0x20 DUP6 ADD SWAP4 SWAP1 SWAP4 MSTORE PUSH1 0x40 DUP5 ADD SWAP2 SWAP1 SWAP2 MSTORE PUSH1 0x60 DUP4 ADD MSTORE PUSH1 0x80 DUP3 ADD MSTORE PUSH1 0xA0 ADD SWAP1 JUMP JUMPDEST SWAP1 ISZERO ISZERO DUP2 MSTORE PUSH1 0x20 ADD SWAP1 JUMP JUMPDEST PUSH1 0x0 PUSH1 0x20 DUP3 MSTORE DUP3 MLOAD DUP1 PUSH1 0x20 DUP5 ADD MSTORE PUSH2 0x42E9 DUP2 PUSH1 0x40 DUP6 ADD PUSH1 0x20 DUP8 ADD PUSH2 0x4CDB JUMP JUMPDEST PUSH1 0x1F ADD PUSH32 0xFFFFFFFFFFFFFFFFFFFFFFFFFFFFFFFFFFFFFFFFFFFFFFFFFFFFFFFFFFFFFFE0 AND SWAP2 SWAP1 SWAP2 ADD PUSH1 0x40 ADD SWAP3 SWAP2 POP POP JUMP JUMPDEST PUSH1 0x20 DUP1 DUP3 MSTORE PUSH1 0x12 SWAP1 DUP3 ADD MSTORE PUSH32 0x4E6F7468696E6720746F206465706F7369740000000000000000000000000000 PUSH1 0x40 DUP3 ADD MSTORE PUSH1 0x60 ADD SWAP1 JUMP JUMPDEST PUSH1 0x20 DUP1 DUP3 MSTORE PUSH1 0x14 SWAP1 DUP3 ADD MSTORE PUSH32 0x5061757361626C653A206E6F7420706175736564000000000000000000000000 PUSH1 0x40 DUP3 ADD MSTORE PUSH1 0x60 ADD SWAP1 JUMP JUMPDEST PUSH1 0x20 DUP1 DUP3 MSTORE PUSH1 0x13 SWAP1 DUP3 ADD MSTORE PUSH32 0x4E6F7468696E6720746F20776974686472617700000000000000000000000000 PUSH1 0x40 DUP3 ADD MSTORE PUSH1 0x60 ADD SWAP1 JUMP JUMPDEST PUSH1 0x20 DUP1 DUP3 MSTORE PUSH1 0x26 SWAP1 DUP3 ADD MSTORE PUSH32 0x4F776E61626C653A206E6577206F776E657220697320746865207A65726F2061 PUSH1 0x40 DUP3 ADD MSTORE PUSH32 0x6464726573730000000000000000000000000000000000000000000000000000 PUSH1 0x60 DUP3 ADD MSTORE PUSH1 0x80 ADD SWAP1 JUMP JUMPDEST PUSH1 0x20 DUP1 DUP3 MSTORE PUSH1 0x1E SWAP1 DUP3 ADD MSTORE PUSH32 0x4455524154494F4E5F464143544F522063616E6E6F74206265207A65726F0000 PUSH1 0x40 DUP3 ADD MSTORE PUSH1 0x60 ADD SWAP1 JUMP JUMPDEST PUSH1 0x20 DUP1 DUP3 MSTORE PUSH1 0xD SWAP1 DUP3 ADD MSTORE PUSH32 0x5374696C6C20696E206C6F636B00000000000000000000000000000000000000 PUSH1 0x40 DUP3 ADD MSTORE PUSH1 0x60 ADD SWAP1 JUMP JUMPDEST PUSH1 0x20 DUP1 DUP3 MSTORE PUSH1 0x33 SWAP1 DUP3 ADD MSTORE PUSH32 0x424F4F53545F5745494748542063616E6E6F74206265206D6F7265207468616E PUSH1 0x40 DUP3 ADD MSTORE PUSH32 0x20424F4F53545F5745494748545F4C494D495400000000000000000000000000 PUSH1 0x60 DUP3 ADD MSTORE PUSH1 0x80 ADD SWAP1 JUMP JUMPDEST PUSH1 0x20 DUP1 DUP3 MSTORE PUSH1 0x15 SWAP1 DUP3 ADD MSTORE PUSH32 0x42616C616E6365206D7573742065786365656420300000000000000000000000 PUSH1 0x40 DUP3 ADD MSTORE PUSH1 0x60 ADD SWAP1 JUMP JUMPDEST PUSH1 0x20 DUP1 DUP3 MSTORE PUSH1 0x25 SWAP1 DUP3 ADD MSTORE PUSH32 0x546F6B656E2063616E6E6F742062652073616D65206173206465706F73697420 PUSH1 0x40 DUP3 ADD MSTORE PUSH32 0x746F6B656E000000000000000000000000000000000000000000000000000000 PUSH1 0x60 DUP3 ADD MSTORE PUSH1 0x80 ADD SWAP1 JUMP JUMPDEST PUSH1 0x20 DUP1 DUP3 MSTORE PUSH1 0x1F SWAP1 DUP3 ADD MSTORE PUSH32 0x576974686472617720616D6F756E7420657863656564732062616C616E636500 PUSH1 0x40 DUP3 ADD MSTORE PUSH1 0x60 ADD SWAP1 JUMP JUMPDEST PUSH1 0x20 DUP1 DUP3 MSTORE PUSH1 0x1C SWAP1 DUP3 ADD MSTORE PUSH32 0x4D6178696D756D206C6F636B20706572696F6420657863656564656400000000 PUSH1 0x40 DUP3 ADD MSTORE PUSH1 0x60 ADD SWAP1 JUMP JUMPDEST PUSH1 0x20 DUP1 DUP3 MSTORE PUSH1 0x1A SWAP1 DUP3 ADD MSTORE PUSH32 0x4E6F74206F70657261746F72206F722053686477206F776E6572000000000000 PUSH1 0x40 DUP3 ADD MSTORE PUSH1 0x60 ADD SWAP1 JUMP JUMPDEST PUSH1 0x20 DUP1 DUP3 MSTORE PUSH1 0x1F SWAP1 DUP3 ADD MSTORE PUSH32 0x4D696E696D756D206C6F636B20706572696F64206973206F6E65207765656B00 PUSH1 0x40 DUP3 ADD MSTORE PUSH1 0x60 ADD SWAP1 JUMP JUMPDEST PUSH1 0x20 DUP1 DUP3 MSTORE PUSH1 0x26 SWAP1 DUP3 ADD MSTORE PUSH32 0x416464726573733A20696E73756666696369656E742062616C616E636520666F PUSH1 0x40 DUP3 ADD MSTORE PUSH32 0x722063616C6C0000000000000000000000000000000000000000000000000000 PUSH1 0x60 DUP3 ADD MSTORE PUSH1 0x80 ADD SWAP1 JUMP JUMPDEST PUSH1 0x20 DUP1 DUP3 MSTORE PUSH1 0x36 SWAP1 DUP3 ADD MSTORE PUSH32 0x706572666F726D616E63654665652063616E6E6F74206265206D6F7265207468 PUSH1 0x40 DUP3 ADD MSTORE PUSH32 0x616E204D41585F504552464F524D414E43455F46454500000000000000000000 PUSH1 0x60 DUP3 ADD MSTORE PUSH1 0x80 ADD SWAP1 JUMP JUMPDEST PUSH1 0x20 DUP1 DUP3 MSTORE PUSH1 0x10 SWAP1 DUP3 ADD MSTORE PUSH32 0x5061757361626C653A2070617573656400000000000000000000000000000000 PUSH1 0x40 DUP3 ADD MSTORE PUSH1 0x60 ADD SWAP1 JUMP JUMPDEST PUSH1 0x20 DUP1 DUP3 MSTORE PUSH1 0x16 SWAP1 DUP3 ADD MSTORE PUSH32 0x43616E6E6F74206265207A65726F206164647265737300000000000000000000 PUSH1 0x40 DUP3 ADD MSTORE PUSH1 0x60 ADD SWAP1 JUMP JUMPDEST PUSH1 0x20 DUP1 DUP3 MSTORE PUSH1 0x26 SWAP1 DUP3 ADD MSTORE PUSH32 0x4455524154494F4E5F464143544F525F4F5645524455452063616E6E6F742062 PUSH1 0x40 DUP3 ADD MSTORE PUSH32 0x65207A65726F0000000000000000000000000000000000000000000000000000 PUSH1 0x60 DUP3 ADD MSTORE PUSH1 0x80 ADD SWAP1 JUMP JUMPDEST PUSH1 0x20 DUP1 DUP3 MSTORE PUSH1 0x2E SWAP1 DUP3 ADD MSTORE PUSH32 0x6F7665726475654665652063616E6E6F74206265206D6F7265207468616E204D PUSH1 0x40 DUP3 ADD MSTORE PUSH32 0x41585F4F5645524455455F464545000000000000000000000000000000000000 PUSH1 0x60 DUP3 ADD MSTORE PUSH1 0x80 ADD SWAP1 JUMP JUMPDEST PUSH1 0x20 DUP1 DUP3 MSTORE PUSH1 0x36 SWAP1 DUP3 ADD MSTORE PUSH32 0x4465706F73697420616D6F756E74206D75737420626520677265617465722074 PUSH1 0x40 DUP3 ADD MSTORE PUSH32 0x68616E204D494E5F4445504F5349545F414D4F554E5400000000000000000000 PUSH1 0x60 DUP3 ADD MSTORE PUSH1 0x80 ADD SWAP1 JUMP JUMPDEST PUSH1 0x20 DUP1 DUP3 MSTORE PUSH1 0x3D SWAP1 DUP3 ADD MSTORE PUSH32 0x4D41585F4C4F434B5F4455524154494F4E2063616E6E6F74206265206D6F7265 PUSH1 0x40 DUP3 ADD MSTORE PUSH32 0x207468616E204D41585F4C4F434B5F4455524154494F4E5F4C494D4954000000 PUSH1 0x60 DUP3 ADD MSTORE PUSH1 0x80 ADD SWAP1 JUMP JUMPDEST PUSH1 0x20 DUP1 DUP3 MSTORE DUP2 DUP2 ADD MSTORE PUSH32 0x4F776E61626C653A2063616C6C6572206973206E6F7420746865206F776E6572 PUSH1 0x40 DUP3 ADD MSTORE PUSH1 0x60 ADD SWAP1 JUMP JUMPDEST PUSH1 0x20 DUP1 DUP3 MSTORE PUSH1 0xB SWAP1 DUP3 ADD MSTORE PUSH32 0x61646D696E3A207775743F000000000000000000000000000000000000000000 PUSH1 0x40 DUP3 ADD MSTORE PUSH1 0x60 ADD SWAP1 JUMP JUMPDEST PUSH1 0x20 DUP1 DUP3 MSTORE PUSH1 0x38 SWAP1 DUP3 ADD MSTORE PUSH32 0x576974686472617720616D6F756E74206D757374206265206772656174657220 PUSH1 0x40 DUP3 ADD MSTORE PUSH32 0x7468616E204D494E5F57495448445241575F414D4F554E540000000000000000 PUSH1 0x60 DUP3 ADD MSTORE PUSH1 0x80 ADD SWAP1 JUMP JUMPDEST PUSH1 0x20 DUP1 DUP3 MSTORE PUSH1 0x1D SWAP1 DUP3 ADD MSTORE PUSH32 0x416464726573733A2063616C6C20746F206E6F6E2D636F6E7472616374000000 PUSH1 0x40 DUP3 ADD MSTORE PUSH1 0x60 ADD SWAP1 JUMP JUMPDEST PUSH1 0x20 DUP1 DUP3 MSTORE PUSH1 0x3D SWAP1 DUP3 ADD MSTORE PUSH32 0x7769746864726177466565506572696F642063616E6E6F74206265206D6F7265 PUSH1 0x40 DUP3 ADD MSTORE PUSH32 0x207468616E204D41585F57495448445241575F4645455F504552494F44000000 PUSH1 0x60 DUP3 ADD MSTORE PUSH1 0x80 ADD SWAP1 JUMP JUMPDEST PUSH1 0x20 DUP1 DUP3 MSTORE PUSH1 0x2A SWAP1 DUP3 ADD MSTORE PUSH32 0x5361666545524332303A204552433230206F7065726174696F6E20646964206E PUSH1 0x40 DUP3 ADD MSTORE PUSH32 0x6F74207375636365656400000000000000000000000000000000000000000000 PUSH1 0x60 DUP3 ADD MSTORE PUSH1 0x80 ADD SWAP1 JUMP JUMPDEST PUSH1 0x20 DUP1 DUP3 MSTORE PUSH1 0x30 SWAP1 DUP3 ADD MSTORE PUSH32 0x77697468647261774665652063616E6E6F74206265206D6F7265207468616E20 PUSH1 0x40 DUP3 ADD MSTORE PUSH32 0x4D41585F57495448445241575F46454500000000000000000000000000000000 PUSH1 0x60 DUP3 ADD MSTORE PUSH1 0x80 ADD SWAP1 JUMP JUMPDEST PUSH1 0x20 DUP1 DUP3 MSTORE PUSH1 0x23 SWAP1 DUP3 ADD MSTORE PUSH32 0x554E4C4F434B5F465245455F4455524154494F4E2063616E6E6F74206265207A PUSH1 0x40 DUP3 ADD MSTORE PUSH32 0x65726F0000000000000000000000000000000000000000000000000000000000 PUSH1 0x60 DUP3 ADD MSTORE PUSH1 0x80 ADD SWAP1 JUMP JUMPDEST PUSH1 0x20 DUP1 DUP3 MSTORE PUSH1 0x11 SWAP1 DUP3 ADD MSTORE PUSH32 0x43616E6E6F7420756E6C6F636B20796574000000000000000000000000000000 PUSH1 0x40 DUP3 ADD MSTORE PUSH1 0x60 ADD SWAP1 JUMP JUMPDEST SWAP1 DUP2 MSTORE PUSH1 0x20 ADD SWAP1 JUMP JUMPDEST SWAP2 DUP3 MSTORE PUSH20 0xFFFFFFFFFFFFFFFFFFFFFFFFFFFFFFFFFFFFFFFF AND PUSH1 0x20 DUP3 ADD MSTORE PUSH1 0x40 ADD SWAP1 JUMP JUMPDEST SWAP2 DUP3 MSTORE PUSH1 0x20 DUP3 ADD MSTORE PUSH1 0x40 ADD SWAP1 JUMP JUMPDEST SWAP4 DUP5 MSTORE PUSH1 0x20 DUP5 ADD SWAP3 SWAP1 SWAP3 MSTORE PUSH1 0x40 DUP4 ADD MSTORE PUSH1 0x60 DUP3 ADD MSTORE PUSH1 0x80 ADD SWAP1 JUMP JUMPDEST SWAP9 DUP10 MSTORE PUSH1 0x20 DUP10 ADD SWAP8 SWAP1 SWAP8 MSTORE PUSH1 0x40 DUP9 ADD SWAP6 SWAP1 SWAP6 MSTORE PUSH1 0x60 DUP8 ADD SWAP4 SWAP1 SWAP4 MSTORE PUSH1 0x80 DUP7 ADD SWAP2 SWAP1 SWAP2 MSTORE PUSH1 0xA0 DUP6 ADD MSTORE PUSH1 0xC0 DUP5 ADD MSTORE ISZERO ISZERO PUSH1 0xE0 DUP4 ADD MSTORE PUSH2 0x100 DUP3 ADD MSTORE PUSH2 0x120 ADD SWAP1 JUMP JUMPDEST PUSH1 0x0 DUP3 NOT DUP3 GT ISZERO PUSH2 0x4C49 JUMPI PUSH2 0x4C49 PUSH2 0x4D07 JUMP JUMPDEST POP ADD SWAP1 JUMP JUMPDEST PUSH1 0x0 DUP3 PUSH2 0x4C82 JUMPI PUSH32 0x4E487B7100000000000000000000000000000000000000000000000000000000 DUP2 MSTORE PUSH1 0x12 PUSH1 0x4 MSTORE PUSH1 0x24 DUP2 REVERT JUMPDEST POP DIV SWAP1 JUMP JUMPDEST PUSH1 0x0 DUP2 PUSH32 0xFFFFFFFFFFFFFFFFFFFFFFFFFFFFFFFFFFFFFFFFFFFFFFFFFFFFFFFFFFFFFFFF DIV DUP4 GT DUP3 ISZERO ISZERO AND ISZERO PUSH2 0x4CBF JUMPI PUSH2 0x4CBF PUSH2 0x4D07 JUMP JUMPDEST POP MUL SWAP1 JUMP JUMPDEST PUSH1 0x0 DUP3 DUP3 LT ISZERO PUSH2 0x4CD6 JUMPI PUSH2 0x4CD6 PUSH2 0x4D07 JUMP JUMPDEST POP SUB SWAP1 JUMP JUMPDEST PUSH1 0x0 JUMPDEST DUP4 DUP2 LT ISZERO PUSH2 0x4CF6 JUMPI DUP2 DUP2 ADD MLOAD DUP4 DUP3 ADD MSTORE PUSH1 0x20 ADD PUSH2 0x4CDE JUMP JUMPDEST DUP4 DUP2 GT ISZERO PUSH2 0x2AED JUMPI POP POP PUSH1 0x0 SWAP2 ADD MSTORE JUMP JUMPDEST PUSH32 0x4E487B7100000000000000000000000000000000000000000000000000000000 PUSH1 0x0 MSTORE PUSH1 0x11 PUSH1 0x4 MSTORE PUSH1 0x24 PUSH1 0x0 REVERT JUMPDEST PUSH20 0xFFFFFFFFFFFFFFFFFFFFFFFFFFFFFFFFFFFFFFFF DUP2 AND DUP2 EQ PUSH2 0x1022 JUMPI PUSH1 0x0 DUP1 REVERT JUMPDEST DUP1 ISZERO ISZERO DUP2 EQ PUSH2 0x1022 JUMPI PUSH1 0x0 DUP1 REVERT INVALID LOG2 PUSH5 0x6970667358 0x22 SLT KECCAK256 SWAP2 0x48 0xBE PUSH30 0xBD4A79D027A9F9903F87A5CB14661085DB3D662088DD1DFFC4D82E966473 PUSH16 0x6C634300080100330000000000000000 "
				},
				"gasEstimates": {
					"creation": {
						"codeDepositCost": "3973600",
						"executionCost": "infinite",
						"totalCost": "infinite"
					},
					"external": {
						"BOOST_WEIGHT()": "1140",
						"BOOST_WEIGHT_LIMIT()": "360",
						"DURATION_FACTOR()": "1118",
						"DURATION_FACTOR_OVERDUE()": "1119",
						"MAX_LOCK_DURATION()": "1119",
						"MAX_LOCK_DURATION_LIMIT()": "298",
						"MAX_OVERDUE_FEE()": "319",
						"MAX_PERFORMANCE_FEE()": "317",
						"MAX_WITHDRAW_FEE()": "362",
						"MAX_WITHDRAW_FEE_PERIOD()": "320",
						"MIN_DEPOSIT_AMOUNT()": "319",
						"MIN_LOCK_DURATION()": "317",
						"MIN_WITHDRAW_AMOUNT()": "318",
						"PRECISION_FACTOR()": "340",
						"PRECISION_FACTOR_SHARE()": "318",
						"UNLOCK_FREE_DURATION()": "1162",
						"VShdw()": "1158",
						"admin()": "1134",
						"available()": "infinite",
						"balanceOf()": "infinite",
						"boostContract()": "1157",
						"calculateOverdueFee(address)": "infinite",
						"calculatePerformanceFee(address)": "infinite",
						"calculateTotalpendingShdwRewards()": "infinite",
						"calculateWithdrawFee(address,uint256)": "infinite",
						"deposit(uint256,uint256)": "infinite",
						"freeOverdueFeeUsers(address)": "1337",
						"freePerformanceFeeUsers(address)": "1336",
						"freeWithdrawFeeUsers(address)": "1337",
						"getPricePerFullShare()": "infinite",
						"inCaseTokensGetStuck(address)": "infinite",
						"init(address)": "infinite",
						"operator()": "1137",
						"overdueFee()": "1140",
						"owner()": "1159",
						"pause()": "infinite",
						"paused()": "1164",
						"performanceFee()": "1097",
						"performanceFeeContract()": "1119",
						"renounceOwnership()": "infinite",
						"setAdmin(address)": "23290",
						"setBoostContract(address)": "23199",
						"setBoostWeight(uint256)": "22314",
						"setDurationFactor(uint256)": "22266",
						"setDurationFactorOverdue(uint256)": "22289",
						"setFreePerformanceFeeUser(address,bool)": "infinite",
						"setMaxLockDuration(uint256)": "22290",
						"setOperator(address)": "23290",
						"setOverdueFee(uint256)": "22293",
						"setOverdueFeeUser(address,bool)": "infinite",
						"setPerformanceFee(uint256)": "22269",
						"setPerformanceFeeContract(uint256)": "22313",
						"setTreasury(address)": "23310",
						"setUnlockFreeDuration(uint256)": "22309",
						"setVShdwContract(address)": "23221",
						"setWithdrawFee(uint256)": "22291",
						"setWithdrawFeeContract(uint256)": "22315",
						"setWithdrawFeePeriod(uint256)": "22292",
						"setWithdrawFeeUser(address,bool)": "infinite",
						"shadowchefV2()": "infinite",
						"shdwPoolPID()": "1141",
						"token()": "infinite",
						"totalBoostDebt()": "1117",
						"totalLockedAmount()": "1120",
						"totalShares()": "1163",
						"transferOwnership(address)": "infinite",
						"treasury()": "1136",
						"unlock(address)": "infinite",
						"unpause()": "infinite",
						"userInfo(address)": "8056",
						"withdraw(uint256)": "infinite",
						"withdrawAll()": "infinite",
						"withdrawByAmount(uint256)": "infinite",
						"withdrawFee()": "1139",
						"withdrawFeeContract()": "1140",
						"withdrawFeePeriod()": "1117"
					},
					"internal": {
						"_isContract(address)": "718",
						"calculatePerformanceFeeOrOverdueFee(address)": "infinite",
						"depositOperation(uint256,uint256,address)": "infinite",
						"harvest()": "infinite",
						"updateBoostContractInfo(address)": "infinite",
						"updateUserShare(address)": "infinite",
						"withdrawOperation(uint256,uint256)": "infinite"
					}
				},
				"methodIdentifiers": {
					"BOOST_WEIGHT()": "bc75f4b8",
					"BOOST_WEIGHT_LIMIT()": "fd253b64",
					"DURATION_FACTOR()": "e464c623",
					"DURATION_FACTOR_OVERDUE()": "acaf88cd",
					"MAX_LOCK_DURATION()": "4f1bfc9e",
					"MAX_LOCK_DURATION_LIMIT()": "01e81326",
					"MAX_OVERDUE_FEE()": "948a03f2",
					"MAX_PERFORMANCE_FEE()": "bdca9165",
					"MAX_WITHDRAW_FEE()": "d4b0de2f",
					"MAX_WITHDRAW_FEE_PERIOD()": "2cfc5f01",
					"MIN_DEPOSIT_AMOUNT()": "1ea30fef",
					"MIN_LOCK_DURATION()": "78b4330f",
					"MIN_WITHDRAW_AMOUNT()": "b6857844",
					"PRECISION_FACTOR()": "ccd34cd5",
					"PRECISION_FACTOR_SHARE()": "731ff24a",
					"UNLOCK_FREE_DURATION()": "aaada5da",
					"VShdw()": "61fa6368",
					"admin()": "f851a440",
					"available()": "48a0d754",
					"balanceOf()": "722713f7",
					"boostContract()": "dfcedeee",
					"calculateOverdueFee(address)": "95dc14e1",
					"calculatePerformanceFee(address)": "c6ed51be",
					"calculateTotalpendingShdwRewards()": "cc9cfba1",
					"calculateWithdrawFee(address,uint256)": "29a5cfd6",
					"deposit(uint256,uint256)": "e2bbb158",
					"freeOverdueFeeUsers(address)": "668679ba",
					"freePerformanceFeeUsers(address)": "3fec4e32",
					"freeWithdrawFeeUsers(address)": "87d4bda9",
					"getPricePerFullShare()": "77c7b8fc",
					"inCaseTokensGetStuck(address)": "def68a9c",
					"init(address)": "19ab453c",
					"operator()": "570ca735",
					"overdueFee()": "a5834e06",
					"owner()": "8da5cb5b",
					"pause()": "8456cb59",
					"paused()": "5c975abb",
					"performanceFee()": "87788782",
					"performanceFeeContract()": "3eb78874",
					"renounceOwnership()": "715018a6",
					"setAdmin(address)": "704b6c02",
					"setBoostContract(address)": "def7869d",
					"setBoostWeight(uint256)": "93c99e6a",
					"setDurationFactor(uint256)": "a3639b39",
					"setDurationFactorOverdue(uint256)": "35981921",
					"setFreePerformanceFeeUser(address,bool)": "423b93ed",
					"setMaxLockDuration(uint256)": "f786b958",
					"setOperator(address)": "b3ab15fb",
					"setOverdueFee(uint256)": "0c59696b",
					"setOverdueFeeUser(address,bool)": "4e4de1e9",
					"setPerformanceFee(uint256)": "70897b23",
					"setPerformanceFeeContract(uint256)": "bb9f408d",
					"setTreasury(address)": "f0f44260",
					"setUnlockFreeDuration(uint256)": "c54d349c",
					"setVShdwContract(address)": "62122f5a",
					"setWithdrawFee(uint256)": "b6ac642a",
					"setWithdrawFeeContract(uint256)": "14ff3039",
					"setWithdrawFeePeriod(uint256)": "1efac1b8",
					"setWithdrawFeeUser(address,bool)": "beba0fa0",
					"shadowchefV2()": "bc3d652a",
					"shdwPoolPID()": "51fb26df",
					"token()": "fc0c546a",
					"totalBoostDebt()": "e73008bc",
					"totalLockedAmount()": "05a9f274",
					"totalShares()": "3a98ef39",
					"transferOwnership(address)": "f2fde38b",
					"treasury()": "61d027b3",
					"unlock(address)": "2f6c493c",
					"unpause()": "3f4ba83a",
					"userInfo(address)": "1959a002",
					"withdraw(uint256)": "2e1a7d4d",
					"withdrawAll()": "853828b6",
					"withdrawByAmount(uint256)": "5521e9bf",
					"withdrawFee()": "e941fa78",
					"withdrawFeeContract()": "e4b37ef5",
					"withdrawFeePeriod()": "df10b4e6"
				}
			},
			"storageLayout": {
				"storage": [
					{
						"astId": 7,
						"contract": "contracts/ShadowPool.sol:ShadowPool",
						"label": "_owner",
						"offset": 0,
						"slot": "0",
						"type": "t_address"
					},
					{
						"astId": 130,
						"contract": "contracts/ShadowPool.sol:ShadowPool",
						"label": "_paused",
						"offset": 20,
						"slot": "0",
						"type": "t_bool"
					},
					{
						"astId": 975,
						"contract": "contracts/ShadowPool.sol:ShadowPool",
						"label": "boostContract",
						"offset": 0,
						"slot": "1",
						"type": "t_address"
					},
					{
						"astId": 977,
						"contract": "contracts/ShadowPool.sol:ShadowPool",
						"label": "VShdw",
						"offset": 0,
						"slot": "2",
						"type": "t_address"
					},
					{
						"astId": 982,
						"contract": "contracts/ShadowPool.sol:ShadowPool",
						"label": "userInfo",
						"offset": 0,
						"slot": "3",
						"type": "t_mapping(t_address,t_struct(UserInfo)967_storage)"
					},
					{
						"astId": 986,
						"contract": "contracts/ShadowPool.sol:ShadowPool",
						"label": "freePerformanceFeeUsers",
						"offset": 0,
						"slot": "4",
						"type": "t_mapping(t_address,t_bool)"
					},
					{
						"astId": 990,
						"contract": "contracts/ShadowPool.sol:ShadowPool",
						"label": "freeWithdrawFeeUsers",
						"offset": 0,
						"slot": "5",
						"type": "t_mapping(t_address,t_bool)"
					},
					{
						"astId": 994,
						"contract": "contracts/ShadowPool.sol:ShadowPool",
						"label": "freeOverdueFeeUsers",
						"offset": 0,
						"slot": "6",
						"type": "t_mapping(t_address,t_bool)"
					},
					{
						"astId": 996,
						"contract": "contracts/ShadowPool.sol:ShadowPool",
						"label": "totalShares",
						"offset": 0,
						"slot": "7",
						"type": "t_uint256"
					},
					{
						"astId": 998,
						"contract": "contracts/ShadowPool.sol:ShadowPool",
						"label": "admin",
						"offset": 0,
						"slot": "8",
						"type": "t_address"
					},
					{
						"astId": 1000,
						"contract": "contracts/ShadowPool.sol:ShadowPool",
						"label": "treasury",
						"offset": 0,
						"slot": "9",
						"type": "t_address"
					},
					{
						"astId": 1002,
						"contract": "contracts/ShadowPool.sol:ShadowPool",
						"label": "operator",
						"offset": 0,
						"slot": "10",
						"type": "t_address"
					},
					{
						"astId": 1004,
						"contract": "contracts/ShadowPool.sol:ShadowPool",
						"label": "shdwPoolPID",
						"offset": 0,
						"slot": "11",
						"type": "t_uint256"
					},
					{
						"astId": 1006,
						"contract": "contracts/ShadowPool.sol:ShadowPool",
						"label": "totalBoostDebt",
						"offset": 0,
						"slot": "12",
						"type": "t_uint256"
					},
					{
						"astId": 1008,
						"contract": "contracts/ShadowPool.sol:ShadowPool",
						"label": "totalLockedAmount",
						"offset": 0,
						"slot": "13",
						"type": "t_uint256"
					},
					{
						"astId": 1048,
						"contract": "contracts/ShadowPool.sol:ShadowPool",
						"label": "UNLOCK_FREE_DURATION",
						"offset": 0,
						"slot": "14",
						"type": "t_uint256"
					},
					{
						"astId": 1051,
						"contract": "contracts/ShadowPool.sol:ShadowPool",
						"label": "MAX_LOCK_DURATION",
						"offset": 0,
						"slot": "15",
						"type": "t_uint256"
					},
					{
						"astId": 1054,
						"contract": "contracts/ShadowPool.sol:ShadowPool",
						"label": "DURATION_FACTOR",
						"offset": 0,
						"slot": "16",
						"type": "t_uint256"
					},
					{
						"astId": 1057,
						"contract": "contracts/ShadowPool.sol:ShadowPool",
						"label": "DURATION_FACTOR_OVERDUE",
						"offset": 0,
						"slot": "17",
						"type": "t_uint256"
					},
					{
						"astId": 1062,
						"contract": "contracts/ShadowPool.sol:ShadowPool",
						"label": "BOOST_WEIGHT",
						"offset": 0,
						"slot": "18",
						"type": "t_uint256"
					},
					{
						"astId": 1065,
						"contract": "contracts/ShadowPool.sol:ShadowPool",
						"label": "performanceFee",
						"offset": 0,
						"slot": "19",
						"type": "t_uint256"
					},
					{
						"astId": 1068,
						"contract": "contracts/ShadowPool.sol:ShadowPool",
						"label": "performanceFeeContract",
						"offset": 0,
						"slot": "20",
						"type": "t_uint256"
					},
					{
						"astId": 1071,
						"contract": "contracts/ShadowPool.sol:ShadowPool",
						"label": "withdrawFee",
						"offset": 0,
						"slot": "21",
						"type": "t_uint256"
					},
					{
						"astId": 1074,
						"contract": "contracts/ShadowPool.sol:ShadowPool",
						"label": "withdrawFeeContract",
						"offset": 0,
						"slot": "22",
						"type": "t_uint256"
					},
					{
						"astId": 1079,
						"contract": "contracts/ShadowPool.sol:ShadowPool",
						"label": "overdueFee",
						"offset": 0,
						"slot": "23",
						"type": "t_uint256"
					},
					{
						"astId": 1082,
						"contract": "contracts/ShadowPool.sol:ShadowPool",
						"label": "withdrawFeePeriod",
						"offset": 0,
						"slot": "24",
						"type": "t_uint256"
					}
				],
				"types": {
					"t_address": {
						"encoding": "inplace",
						"label": "address",
						"numberOfBytes": "20"
					},
					"t_bool": {
						"encoding": "inplace",
						"label": "bool",
						"numberOfBytes": "1"
					},
					"t_mapping(t_address,t_bool)": {
						"encoding": "mapping",
						"key": "t_address",
						"label": "mapping(address => bool)",
						"numberOfBytes": "32",
						"value": "t_bool"
					},
					"t_mapping(t_address,t_struct(UserInfo)967_storage)": {
						"encoding": "mapping",
						"key": "t_address",
						"label": "mapping(address => struct ShadowPool.UserInfo)",
						"numberOfBytes": "32",
						"value": "t_struct(UserInfo)967_storage"
					},
					"t_struct(UserInfo)967_storage": {
						"encoding": "inplace",
						"label": "struct ShadowPool.UserInfo",
						"members": [
							{
								"astId": 950,
								"contract": "contracts/ShadowPool.sol:ShadowPool",
								"label": "shares",
								"offset": 0,
								"slot": "0",
								"type": "t_uint256"
							},
							{
								"astId": 952,
								"contract": "contracts/ShadowPool.sol:ShadowPool",
								"label": "lastDepositedTime",
								"offset": 0,
								"slot": "1",
								"type": "t_uint256"
							},
							{
								"astId": 954,
								"contract": "contracts/ShadowPool.sol:ShadowPool",
								"label": "shdwAtLastUserAction",
								"offset": 0,
								"slot": "2",
								"type": "t_uint256"
							},
							{
								"astId": 956,
								"contract": "contracts/ShadowPool.sol:ShadowPool",
								"label": "lastUserActionTime",
								"offset": 0,
								"slot": "3",
								"type": "t_uint256"
							},
							{
								"astId": 958,
								"contract": "contracts/ShadowPool.sol:ShadowPool",
								"label": "lockStartTime",
								"offset": 0,
								"slot": "4",
								"type": "t_uint256"
							},
							{
								"astId": 960,
								"contract": "contracts/ShadowPool.sol:ShadowPool",
								"label": "lockEndTime",
								"offset": 0,
								"slot": "5",
								"type": "t_uint256"
							},
							{
								"astId": 962,
								"contract": "contracts/ShadowPool.sol:ShadowPool",
								"label": "userBoostedShare",
								"offset": 0,
								"slot": "6",
								"type": "t_uint256"
							},
							{
								"astId": 964,
								"contract": "contracts/ShadowPool.sol:ShadowPool",
								"label": "locked",
								"offset": 0,
								"slot": "7",
								"type": "t_bool"
							},
							{
								"astId": 966,
								"contract": "contracts/ShadowPool.sol:ShadowPool",
								"label": "lockedAmount",
								"offset": 0,
								"slot": "8",
								"type": "t_uint256"
							}
						],
						"numberOfBytes": "288"
					},
					"t_uint256": {
						"encoding": "inplace",
						"label": "uint256",
						"numberOfBytes": "32"
					}
				}
			},
			"userdoc": {
				"kind": "user",
				"methods": {
					"available()": {
						"notice": "Current pool available balance"
					},
					"balanceOf()": {
						"notice": "Calculates the total underlying tokens"
					},
					"calculateOverdueFee(address)": {
						"notice": "Calculate overdue fee."
					},
					"calculatePerformanceFee(address)": {
						"notice": "Calculate Performance fee."
					},
					"calculateTotalpendingShdwRewards()": {
						"notice": "Calculates the total pending rewards that can be harvested"
					},
					"calculateWithdrawFee(address,uint256)": {
						"notice": "Calculate withdraw fee."
					},
					"constructor": {
						"notice": "Constructor"
					},
					"deposit(uint256,uint256)": {
						"notice": "Deposit funds into the Shdw Pool."
					},
					"inCaseTokensGetStuck(address)": {
						"notice": "Withdraw unexpected tokens sent to the Shdw Pool"
					},
					"init(address)": {
						"notice": "Deposits a dummy token to `MASTER_CHEF` MCV2. It will transfer all the `dummyToken` in the tx sender address."
					},
					"pause()": {
						"notice": "Trigger stopped state"
					},
					"setAdmin(address)": {
						"notice": "Set admin address"
					},
					"setBoostContract(address)": {
						"notice": "Set Boost Contract address"
					},
					"setBoostWeight(uint256)": {
						"notice": "Set BOOST_WEIGHT"
					},
					"setDurationFactor(uint256)": {
						"notice": "Set DURATION_FACTOR"
					},
					"setDurationFactorOverdue(uint256)": {
						"notice": "Set DURATION_FACTOR_OVERDUE"
					},
					"setFreePerformanceFeeUser(address,bool)": {
						"notice": "Set free performance fee address"
					},
					"setMaxLockDuration(uint256)": {
						"notice": "Set MAX_LOCK_DURATION"
					},
					"setOperator(address)": {
						"notice": "Set operator address"
					},
					"setOverdueFee(uint256)": {
						"notice": "Set overdue fee"
					},
					"setOverdueFeeUser(address,bool)": {
						"notice": "Set free overdue fee address"
					},
					"setPerformanceFee(uint256)": {
						"notice": "Set performance fee"
					},
					"setPerformanceFeeContract(uint256)": {
						"notice": "Set performance fee for contract"
					},
					"setTreasury(address)": {
						"notice": "Set treasury address"
					},
					"setUnlockFreeDuration(uint256)": {
						"notice": "Set UNLOCK_FREE_DURATION"
					},
					"setVShdwContract(address)": {
						"notice": "Set VShdw Contract address"
					},
					"setWithdrawFee(uint256)": {
						"notice": "Set withdraw fee"
					},
					"setWithdrawFeeContract(uint256)": {
						"notice": "Set withdraw fee for contract"
					},
					"setWithdrawFeePeriod(uint256)": {
						"notice": "Set withdraw fee period"
					},
					"setWithdrawFeeUser(address,bool)": {
						"notice": "Set free withdraw fee address"
					},
					"unlock(address)": {
						"notice": "Unlock user Shdw funds."
					},
					"unpause()": {
						"notice": "Return to normal state"
					},
					"withdraw(uint256)": {
						"notice": "Withdraw funds from the Shdw Pool."
					},
					"withdrawAll()": {
						"notice": "Withdraw all funds for a user"
					},
					"withdrawByAmount(uint256)": {
						"notice": "Withdraw funds from the Shdw Pool."
					}
				},
				"version": 1
			}
		}
	}
}