{
	"contracts/ShadowChef.sol": {
		"ShadowChefV2": {
			"abi": [
				{
					"inputs": [
						{
							"internalType": "contract IBEP20",
							"name": "_SHDW",
							"type": "address"
						},
						{
							"internalType": "address",
							"name": "_burnAdmin",
							"type": "address"
						}
					],
					"stateMutability": "nonpayable",
					"type": "constructor"
				},
				{
					"anonymous": false,
					"inputs": [
						{
							"indexed": true,
							"internalType": "uint256",
							"name": "pid",
							"type": "uint256"
						},
						{
							"indexed": false,
							"internalType": "uint256",
							"name": "allocPoint",
							"type": "uint256"
						},
						{
							"indexed": true,
							"internalType": "contract IBEP20",
							"name": "lpToken",
							"type": "address"
						},
						{
							"indexed": false,
							"internalType": "bool",
							"name": "isRegular",
							"type": "bool"
						}
					],
					"name": "AddPool",
					"type": "event"
				},
				{
					"anonymous": false,
					"inputs": [
						{
							"indexed": true,
							"internalType": "address",
							"name": "user",
							"type": "address"
						},
						{
							"indexed": true,
							"internalType": "uint256",
							"name": "pid",
							"type": "uint256"
						},
						{
							"indexed": false,
							"internalType": "uint256",
							"name": "amount",
							"type": "uint256"
						}
					],
					"name": "Deposit",
					"type": "event"
				},
				{
					"anonymous": false,
					"inputs": [
						{
							"indexed": true,
							"internalType": "address",
							"name": "user",
							"type": "address"
						},
						{
							"indexed": true,
							"internalType": "uint256",
							"name": "pid",
							"type": "uint256"
						},
						{
							"indexed": false,
							"internalType": "uint256",
							"name": "amount",
							"type": "uint256"
						}
					],
					"name": "EmergencyWithdraw",
					"type": "event"
				},
				{
					"anonymous": false,
					"inputs": [
						{
							"indexed": false,
							"internalType": "uint256",
							"name": "burnRate",
							"type": "uint256"
						},
						{
							"indexed": false,
							"internalType": "uint256",
							"name": "regularFarmRate",
							"type": "uint256"
						},
						{
							"indexed": false,
							"internalType": "uint256",
							"name": "specialFarmRate",
							"type": "uint256"
						}
					],
					"name": "EventUpdateShdwRate",
					"type": "event"
				},
				{
					"anonymous": false,
					"inputs": [],
					"name": "Init",
					"type": "event"
				},
				{
					"anonymous": false,
					"inputs": [
						{
							"indexed": true,
							"internalType": "address",
							"name": "previousOwner",
							"type": "address"
						},
						{
							"indexed": true,
							"internalType": "address",
							"name": "newOwner",
							"type": "address"
						}
					],
					"name": "OwnershipTransferred",
					"type": "event"
				},
				{
					"anonymous": false,
					"inputs": [
						{
							"indexed": true,
							"internalType": "uint256",
							"name": "pid",
							"type": "uint256"
						},
						{
							"indexed": false,
							"internalType": "uint256",
							"name": "allocPoint",
							"type": "uint256"
						}
					],
					"name": "SetPool",
					"type": "event"
				},
				{
					"anonymous": false,
					"inputs": [
						{
							"indexed": true,
							"internalType": "address",
							"name": "boostContract",
							"type": "address"
						}
					],
					"name": "UpdateBoostContract",
					"type": "event"
				},
				{
					"anonymous": false,
					"inputs": [
						{
							"indexed": true,
							"internalType": "address",
							"name": "user",
							"type": "address"
						},
						{
							"indexed": false,
							"internalType": "uint256",
							"name": "pid",
							"type": "uint256"
						},
						{
							"indexed": false,
							"internalType": "uint256",
							"name": "oldMultiplier",
							"type": "uint256"
						},
						{
							"indexed": false,
							"internalType": "uint256",
							"name": "newMultiplier",
							"type": "uint256"
						}
					],
					"name": "UpdateBoostMultiplier",
					"type": "event"
				},
				{
					"anonymous": false,
					"inputs": [
						{
							"indexed": true,
							"internalType": "address",
							"name": "oldAdmin",
							"type": "address"
						},
						{
							"indexed": true,
							"internalType": "address",
							"name": "newAdmin",
							"type": "address"
						}
					],
					"name": "UpdateBurnAdmin",
					"type": "event"
				},
				{
					"anonymous": false,
					"inputs": [
						{
							"indexed": true,
							"internalType": "uint256",
							"name": "pid",
							"type": "uint256"
						},
						{
							"indexed": false,
							"internalType": "uint256",
							"name": "lastRewardBlock",
							"type": "uint256"
						},
						{
							"indexed": false,
							"internalType": "uint256",
							"name": "lpSupply",
							"type": "uint256"
						},
						{
							"indexed": false,
							"internalType": "uint256",
							"name": "accShdwPerShare",
							"type": "uint256"
						}
					],
					"name": "UpdatePool",
					"type": "event"
				},
				{
					"anonymous": false,
					"inputs": [
						{
							"indexed": true,
							"internalType": "address",
							"name": "user",
							"type": "address"
						},
						{
							"indexed": false,
							"internalType": "bool",
							"name": "isValid",
							"type": "bool"
						}
					],
					"name": "UpdateWhiteList",
					"type": "event"
				},
				{
					"anonymous": false,
					"inputs": [
						{
							"indexed": true,
							"internalType": "address",
							"name": "user",
							"type": "address"
						},
						{
							"indexed": true,
							"internalType": "uint256",
							"name": "pid",
							"type": "uint256"
						},
						{
							"indexed": false,
							"internalType": "uint256",
							"name": "amount",
							"type": "uint256"
						}
					],
					"name": "Withdraw",
					"type": "event"
				},
				{
					"inputs": [],
					"name": "ACC_SHDW_PRECISION",
					"outputs": [
						{
							"internalType": "uint256",
							"name": "",
							"type": "uint256"
						}
					],
					"stateMutability": "view",
					"type": "function"
				},
				{
					"inputs": [],
					"name": "BOOST_PRECISION",
					"outputs": [
						{
							"internalType": "uint256",
							"name": "",
							"type": "uint256"
						}
					],
					"stateMutability": "view",
					"type": "function"
				},
				{
					"inputs": [],
					"name": "MASTERCHEF_SHDW_PER_BLOCK",
					"outputs": [
						{
							"internalType": "uint256",
							"name": "",
							"type": "uint256"
						}
					],
					"stateMutability": "view",
					"type": "function"
				},
				{
					"inputs": [],
					"name": "MAX_BOOST_PRECISION",
					"outputs": [
						{
							"internalType": "uint256",
							"name": "",
							"type": "uint256"
						}
					],
					"stateMutability": "view",
					"type": "function"
				},
				{
					"inputs": [],
					"name": "SHDW",
					"outputs": [
						{
							"internalType": "contract IBEP20",
							"name": "",
							"type": "address"
						}
					],
					"stateMutability": "view",
					"type": "function"
				},
				{
					"inputs": [],
					"name": "SHDW_RATE_TOTAL_PRECISION",
					"outputs": [
						{
							"internalType": "uint256",
							"name": "",
							"type": "uint256"
						}
					],
					"stateMutability": "view",
					"type": "function"
				},
				{
					"inputs": [
						{
							"internalType": "uint256",
							"name": "_allocPoint",
							"type": "uint256"
						},
						{
							"internalType": "contract IBEP20",
							"name": "_lpToken",
							"type": "address"
						},
						{
							"internalType": "bool",
							"name": "_isRegular",
							"type": "bool"
						},
						{
							"internalType": "bool",
							"name": "_withUpdate",
							"type": "bool"
						}
					],
					"name": "add",
					"outputs": [],
					"stateMutability": "nonpayable",
					"type": "function"
				},
				{
					"inputs": [],
					"name": "boostContract",
					"outputs": [
						{
							"internalType": "address",
							"name": "",
							"type": "address"
						}
					],
					"stateMutability": "view",
					"type": "function"
				},
				{
					"inputs": [],
					"name": "burnAdmin",
					"outputs": [
						{
							"internalType": "address",
							"name": "",
							"type": "address"
						}
					],
					"stateMutability": "view",
					"type": "function"
				},
				{
					"inputs": [
						{
							"internalType": "bool",
							"name": "_withUpdate",
							"type": "bool"
						}
					],
					"name": "burnShdw",
					"outputs": [],
					"stateMutability": "nonpayable",
					"type": "function"
				},
				{
					"inputs": [
						{
							"internalType": "uint256",
							"name": "_pid",
							"type": "uint256"
						},
						{
							"internalType": "uint256",
							"name": "_amount",
							"type": "uint256"
						}
					],
					"name": "deposit",
					"outputs": [],
					"stateMutability": "nonpayable",
					"type": "function"
				},
				{
					"inputs": [
						{
							"internalType": "uint256",
							"name": "_pid",
							"type": "uint256"
						}
					],
					"name": "emergencyWithdraw",
					"outputs": [],
					"stateMutability": "nonpayable",
					"type": "function"
				},
				{
					"inputs": [
						{
							"internalType": "address",
							"name": "_user",
							"type": "address"
						},
						{
							"internalType": "uint256",
							"name": "_pid",
							"type": "uint256"
						}
					],
					"name": "getBoostMultiplier",
					"outputs": [
						{
							"internalType": "uint256",
							"name": "",
							"type": "uint256"
						}
					],
					"stateMutability": "view",
					"type": "function"
				},
				{
					"inputs": [],
					"name": "lastBurnedBlock",
					"outputs": [
						{
							"internalType": "uint256",
							"name": "",
							"type": "uint256"
						}
					],
					"stateMutability": "view",
					"type": "function"
				},
				{
					"inputs": [
						{
							"internalType": "uint256",
							"name": "",
							"type": "uint256"
						}
					],
					"name": "lpToken",
					"outputs": [
						{
							"internalType": "contract IBEP20",
							"name": "",
							"type": "address"
						}
					],
					"stateMutability": "view",
					"type": "function"
				},
				{
					"inputs": [],
					"name": "massUpdatePools",
					"outputs": [],
					"stateMutability": "nonpayable",
					"type": "function"
				},
				{
					"inputs": [],
					"name": "owner",
					"outputs": [
						{
							"internalType": "address",
							"name": "",
							"type": "address"
						}
					],
					"stateMutability": "view",
					"type": "function"
				},
				{
					"inputs": [
						{
							"internalType": "uint256",
							"name": "_pid",
							"type": "uint256"
						},
						{
							"internalType": "address",
							"name": "_user",
							"type": "address"
						}
					],
					"name": "pendingShdw",
					"outputs": [
						{
							"internalType": "uint256",
							"name": "",
							"type": "uint256"
						}
					],
					"stateMutability": "view",
					"type": "function"
				},
				{
					"inputs": [
						{
							"internalType": "uint256",
							"name": "",
							"type": "uint256"
						}
					],
					"name": "poolInfo",
					"outputs": [
						{
							"internalType": "uint256",
							"name": "accShdwPerShare",
							"type": "uint256"
						},
						{
							"internalType": "uint256",
							"name": "lastRewardBlock",
							"type": "uint256"
						},
						{
							"internalType": "uint256",
							"name": "allocPoint",
							"type": "uint256"
						},
						{
							"internalType": "uint256",
							"name": "totalBoostedShare",
							"type": "uint256"
						},
						{
							"internalType": "bool",
							"name": "isRegular",
							"type": "bool"
						}
					],
					"stateMutability": "view",
					"type": "function"
				},
				{
					"inputs": [],
					"name": "poolLength",
					"outputs": [
						{
							"internalType": "uint256",
							"name": "pools",
							"type": "uint256"
						}
					],
					"stateMutability": "view",
					"type": "function"
				},
				{
					"inputs": [],
					"name": "renounceOwnership",
					"outputs": [],
					"stateMutability": "nonpayable",
					"type": "function"
				},
				{
					"inputs": [
						{
							"internalType": "uint256",
							"name": "_pid",
							"type": "uint256"
						},
						{
							"internalType": "uint256",
							"name": "_allocPoint",
							"type": "uint256"
						},
						{
							"internalType": "bool",
							"name": "_withUpdate",
							"type": "bool"
						}
					],
					"name": "set",
					"outputs": [],
					"stateMutability": "nonpayable",
					"type": "function"
				},
				{
					"inputs": [
						{
							"internalType": "bool",
							"name": "_isRegular",
							"type": "bool"
						}
					],
					"name": "shdwPerBlock",
					"outputs": [
						{
							"internalType": "uint256",
							"name": "amount",
							"type": "uint256"
						}
					],
					"stateMutability": "view",
					"type": "function"
				},
				{
					"inputs": [],
					"name": "shdwPerBlockToBurn",
					"outputs": [
						{
							"internalType": "uint256",
							"name": "amount",
							"type": "uint256"
						}
					],
					"stateMutability": "view",
					"type": "function"
				},
				{
					"inputs": [],
					"name": "shdwRateToBurn",
					"outputs": [
						{
							"internalType": "uint256",
							"name": "",
							"type": "uint256"
						}
					],
					"stateMutability": "view",
					"type": "function"
				},
				{
					"inputs": [],
					"name": "shdwRateToRegularFarm",
					"outputs": [
						{
							"internalType": "uint256",
							"name": "",
							"type": "uint256"
						}
					],
					"stateMutability": "view",
					"type": "function"
				},
				{
					"inputs": [],
					"name": "shdwRateToSpecialFarm",
					"outputs": [
						{
							"internalType": "uint256",
							"name": "",
							"type": "uint256"
						}
					],
					"stateMutability": "view",
					"type": "function"
				},
				{
					"inputs": [],
					"name": "totalRegularAllocPoint",
					"outputs": [
						{
							"internalType": "uint256",
							"name": "",
							"type": "uint256"
						}
					],
					"stateMutability": "view",
					"type": "function"
				},
				{
					"inputs": [],
					"name": "totalSpecialAllocPoint",
					"outputs": [
						{
							"internalType": "uint256",
							"name": "",
							"type": "uint256"
						}
					],
					"stateMutability": "view",
					"type": "function"
				},
				{
					"inputs": [
						{
							"internalType": "address",
							"name": "newOwner",
							"type": "address"
						}
					],
					"name": "transferOwnership",
					"outputs": [],
					"stateMutability": "nonpayable",
					"type": "function"
				},
				{
					"inputs": [
						{
							"internalType": "address",
							"name": "_newBoostContract",
							"type": "address"
						}
					],
					"name": "updateBoostContract",
					"outputs": [],
					"stateMutability": "nonpayable",
					"type": "function"
				},
				{
					"inputs": [
						{
							"internalType": "address",
							"name": "_user",
							"type": "address"
						},
						{
							"internalType": "uint256",
							"name": "_pid",
							"type": "uint256"
						},
						{
							"internalType": "uint256",
							"name": "_newMultiplier",
							"type": "uint256"
						}
					],
					"name": "updateBoostMultiplier",
					"outputs": [],
					"stateMutability": "nonpayable",
					"type": "function"
				},
				{
					"inputs": [
						{
							"internalType": "address",
							"name": "_newAdmin",
							"type": "address"
						}
					],
					"name": "updateBurnAdmin",
					"outputs": [],
					"stateMutability": "nonpayable",
					"type": "function"
				},
				{
					"inputs": [
						{
							"internalType": "uint256",
							"name": "_pid",
							"type": "uint256"
						}
					],
					"name": "updatePool",
					"outputs": [
						{
							"components": [
								{
									"internalType": "uint256",
									"name": "accShdwPerShare",
									"type": "uint256"
								},
								{
									"internalType": "uint256",
									"name": "lastRewardBlock",
									"type": "uint256"
								},
								{
									"internalType": "uint256",
									"name": "allocPoint",
									"type": "uint256"
								},
								{
									"internalType": "uint256",
									"name": "totalBoostedShare",
									"type": "uint256"
								},
								{
									"internalType": "bool",
									"name": "isRegular",
									"type": "bool"
								}
							],
							"internalType": "struct ShadowChefV2.PoolInfo",
							"name": "pool",
							"type": "tuple"
						}
					],
					"stateMutability": "nonpayable",
					"type": "function"
				},
				{
					"inputs": [
						{
							"internalType": "uint256",
							"name": "_burnRate",
							"type": "uint256"
						},
						{
							"internalType": "uint256",
							"name": "_regularFarmRate",
							"type": "uint256"
						},
						{
							"internalType": "uint256",
							"name": "_specialFarmRate",
							"type": "uint256"
						},
						{
							"internalType": "bool",
							"name": "_withUpdate",
							"type": "bool"
						}
					],
					"name": "updateShdwRate",
					"outputs": [],
					"stateMutability": "nonpayable",
					"type": "function"
				},
				{
					"inputs": [
						{
							"internalType": "address",
							"name": "_user",
							"type": "address"
						},
						{
							"internalType": "bool",
							"name": "_isValid",
							"type": "bool"
						}
					],
					"name": "updateWhiteList",
					"outputs": [],
					"stateMutability": "nonpayable",
					"type": "function"
				},
				{
					"inputs": [
						{
							"internalType": "uint256",
							"name": "",
							"type": "uint256"
						},
						{
							"internalType": "address",
							"name": "",
							"type": "address"
						}
					],
					"name": "userInfo",
					"outputs": [
						{
							"internalType": "uint256",
							"name": "amount",
							"type": "uint256"
						},
						{
							"internalType": "uint256",
							"name": "rewardDebt",
							"type": "uint256"
						},
						{
							"internalType": "uint256",
							"name": "boostMultiplier",
							"type": "uint256"
						}
					],
					"stateMutability": "view",
					"type": "function"
				},
				{
					"inputs": [
						{
							"internalType": "address",
							"name": "",
							"type": "address"
						}
					],
					"name": "whiteList",
					"outputs": [
						{
							"internalType": "bool",
							"name": "",
							"type": "bool"
						}
					],
					"stateMutability": "view",
					"type": "function"
				},
				{
					"inputs": [
						{
							"internalType": "uint256",
							"name": "_pid",
							"type": "uint256"
						},
						{
							"internalType": "uint256",
							"name": "_amount",
							"type": "uint256"
						}
					],
					"name": "withdraw",
					"outputs": [],
					"stateMutability": "nonpayable",
					"type": "function"
				}
			],
			"devdoc": {
				"kind": "dev",
				"methods": {
					"add(uint256,address,bool,bool)": {
						"params": {
							"_allocPoint": "Number of allocation points for the new pool.",
							"_isRegular": "Whether the pool is regular or special. LP farms are always \"regular\". \"Special\" pools are",
							"_lpToken": "Address of the LP BEP-20 token.",
							"_withUpdate": "Whether call \"massUpdatePools\" operation. only for SHDW distributions within ShadowSwap products."
						}
					},
					"burnShdw(bool)": {
						"params": {
							"_withUpdate": "Whether call \"massUpdatePools\" operation."
						}
					},
					"constructor": {
						"params": {
							"_SHDW": "The SHDW token contract address.",
							"_burnAdmin": "The address of burn admin."
						}
					},
					"deposit(uint256,uint256)": {
						"params": {
							"_amount": "Amount of LP tokens to deposit.",
							"_pid": "The id of the pool. See `poolInfo`."
						}
					},
					"emergencyWithdraw(uint256)": {
						"params": {
							"_pid": "The id of the pool. See `poolInfo`."
						}
					},
					"getBoostMultiplier(address,uint256)": {
						"params": {
							"_pid": "The pool id.",
							"_user": "The user address."
						}
					},
					"owner()": {
						"details": "Returns the address of the current owner."
					},
					"pendingShdw(uint256,address)": {
						"params": {
							"_pid": "The id of the pool. See `poolInfo`.",
							"_user": "Address of the user."
						}
					},
					"renounceOwnership()": {
						"details": "Leaves the contract without owner. It will not be possible to call `onlyOwner` functions anymore. Can only be called by the current owner. NOTE: Renouncing ownership will leave the contract without an owner, thereby removing any functionality that is only available to the owner."
					},
					"set(uint256,uint256,bool)": {
						"params": {
							"_allocPoint": "New number of allocation points for the pool.",
							"_pid": "The id of the pool. See `poolInfo`.",
							"_withUpdate": "Whether call \"massUpdatePools\" operation."
						}
					},
					"shdwPerBlock(bool)": {
						"params": {
							"_isRegular": "If the pool belongs to regular or special."
						}
					},
					"transferOwnership(address)": {
						"details": "Transfers ownership of the contract to a new account (`newOwner`). Can only be called by the current owner."
					},
					"updateBoostContract(address)": {
						"params": {
							"_newBoostContract": "The new address for handling all the share boosts."
						}
					},
					"updateBoostMultiplier(address,uint256,uint256)": {
						"params": {
							"_newMultiplier": "New boost multiplier.",
							"_pid": "The pool id for the boost factor updates.",
							"_user": "The user address for boost factor updates."
						}
					},
					"updateBurnAdmin(address)": {
						"params": {
							"_newAdmin": "The new burn admin address."
						}
					},
					"updatePool(uint256)": {
						"params": {
							"_pid": "The id of the pool. See `poolInfo`."
						},
						"returns": {
							"pool": "Returns the pool that was updated."
						}
					},
					"updateShdwRate(uint256,uint256,uint256,bool)": {
						"params": {
							"_burnRate": "The % of SHDW to burn each block.",
							"_regularFarmRate": "The % of SHDW to regular pools each block.",
							"_specialFarmRate": "The % of SHDW to special pools each block.",
							"_withUpdate": "Whether call \"massUpdatePools\" operation."
						}
					},
					"updateWhiteList(address,bool)": {
						"params": {
							"_isValid": "The flag for valid or invalid.",
							"_user": "The address to be updated."
						}
					},
					"withdraw(uint256,uint256)": {
						"params": {
							"_amount": "Amount of LP tokens to withdraw.",
							"_pid": "The id of the pool. See `poolInfo`."
						}
					}
				},
				"version": 1
			},
			"evm": {
				"assembly": "    /* \"contracts/ShadowChef.sol\":271:22001  contract ShadowChefV2 is Ownable, ReentrancyGuard {\r... */\n  mstore(0x40, 0xa0)\n    /* \"contracts/ShadowChef.sol\":4140:4151  50000000000 */\n  0x0ba43b7400\n    /* \"contracts/ShadowChef.sol\":4108:4151  uint256 public shdwRateToBurn = 50000000000 */\n  0x0a\n  sstore\n    /* \"contracts/ShadowChef.sol\":4254:4266  250000000000 */\n  0x3a35294400\n    /* \"contracts/ShadowChef.sol\":4215:4266  uint256 public shdwRateToRegularFarm = 250000000000 */\n  0x0b\n  sstore\n    /* \"contracts/ShadowChef.sol\":4365:4377  700000000000 */\n  0xa2fb405800\n    /* \"contracts/ShadowChef.sol\":4326:4377  uint256 public shdwRateToSpecialFarm = 700000000000 */\n  0x0c\n  sstore\n    /* \"contracts/ShadowChef.sol\":5503:5645  constructor(\r... */\n  callvalue\n  dup1\n  iszero\n  tag_1\n  jumpi\n  0x00\n  dup1\n  revert\ntag_1:\n  pop\n  mload(0x40)\n  sub(codesize, bytecodeSize)\n  dup1\n  bytecodeSize\n  dup4\n  codecopy\n  dup2\n  add\n  0x40\n  dup2\n  swap1\n  mstore\n  tag_2\n  swap2\n  tag_3\n  jump\t// in\ntag_2:\n    /* \"contracts/access/Ownable.sol\":891:908  address msgSender */\n  0x00\n    /* \"contracts/access/Ownable.sol\":911:923  _msgSender() */\n  tag_8\n    /* \"contracts/access/Ownable.sol\":911:921  _msgSender */\n  tag_9\n    /* \"contracts/access/Ownable.sol\":911:923  _msgSender() */\n  jump\t// in\ntag_8:\n    /* \"contracts/access/Ownable.sol\":934:940  _owner */\n  0x00\n    /* \"contracts/access/Ownable.sol\":934:952  _owner = msgSender */\n  dup1\n  sload\n  not(sub(shl(0xa0, 0x01), 0x01))\n  and\n  sub(shl(0xa0, 0x01), 0x01)\n  dup4\n  and\n  swap1\n  dup2\n  or\n  dup3\n  sstore\n    /* \"contracts/access/Ownable.sol\":968:1011  OwnershipTransferred(address(0), msgSender) */\n  mload(0x40)\n    /* \"contracts/access/Ownable.sol\":934:952  _owner = msgSender */\n  swap3\n  swap4\n  pop\n  swap2\n    /* \"contracts/access/Ownable.sol\":968:1011  OwnershipTransferred(address(0), msgSender) */\n  0x8be0079c531659141344cd1fd0a4f28419497f9722a3daafe3b4186f6b6457e0\n  swap1\n    /* \"contracts/access/Ownable.sol\":934:940  _owner */\n  dup3\n  swap1\n    /* \"contracts/access/Ownable.sol\":968:1011  OwnershipTransferred(address(0), msgSender) */\n  log3\n  pop\n    /* \"contracts/security/ReentrancyGuard.sol\":1660:1661  1 */\n  0x01\n    /* \"contracts/security/ReentrancyGuard.sol\":1781:1803  _status = _NOT_ENTERED */\n  dup1\n  sstore\n    /* \"contracts/ShadowChef.sol\":5592:5604  SHDW = _SHDW */\n  0x60\n  swap2\n  swap1\n  swap2\n  shl\n  not(sub(shl(0x60, 0x01), 0x01))\n  and\n  0x80\n  mstore\n    /* \"contracts/ShadowChef.sol\":5615:5624  burnAdmin */\n  0x02\n    /* \"contracts/ShadowChef.sol\":5615:5637  burnAdmin = _burnAdmin */\n  dup1\n  sload\n  not(sub(shl(0xa0, 0x01), 0x01))\n  and\n  sub(shl(0xa0, 0x01), 0x01)\n  swap1\n  swap3\n  and\n  swap2\n  swap1\n  swap2\n  or\n  swap1\n  sstore\n    /* \"contracts/ShadowChef.sol\":271:22001  contract ShadowChefV2 is Ownable, ReentrancyGuard {\r... */\n  jump(tag_14)\n    /* \"contracts/GSN/Context.sol\":605:711  function _msgSender() internal view virtual returns (address payable) {\r... */\ntag_9:\n    /* \"contracts/GSN/Context.sol\":693:703  msg.sender */\n  caller\n    /* \"contracts/GSN/Context.sol\":605:711  function _msgSender() internal view virtual returns (address payable) {\r... */\n  swap1\n  jump\t// out\n    /* \"--CODEGEN--\":317:746   */\ntag_3:\n  0x00\n  dup1\n    /* \"--CODEGEN--\":464:466   */\n  0x40\n    /* \"--CODEGEN--\":452:461   */\n  dup4\n    /* \"--CODEGEN--\":443:450   */\n  dup6\n    /* \"--CODEGEN--\":439:462   */\n  sub\n    /* \"--CODEGEN--\":435:467   */\n  slt\n    /* \"--CODEGEN--\":432:434   */\n  iszero\n  tag_16\n  jumpi\n  dup2\n  dup3\n    /* \"--CODEGEN--\":470:482   */\n  revert\n    /* \"--CODEGEN--\":432:434   */\ntag_16:\n    /* \"--CODEGEN--\":245:251   */\n  dup3\n    /* \"--CODEGEN--\":239:252   */\n  mload\n    /* \"--CODEGEN--\":257:305   */\n  tag_17\n    /* \"--CODEGEN--\":299:304   */\n  dup2\n    /* \"--CODEGEN--\":257:305   */\n  tag_18\n  jump\t// in\ntag_17:\n    /* \"--CODEGEN--\":648:650   */\n  0x20\n    /* \"--CODEGEN--\":698:720   */\n  dup5\n  add\n    /* \"--CODEGEN--\":83:96   */\n  mload\n    /* \"--CODEGEN--\":522:611   */\n  swap1\n  swap3\n  pop\n    /* \"--CODEGEN--\":101:134   */\n  tag_19\n    /* \"--CODEGEN--\":83:96   */\n  dup2\n    /* \"--CODEGEN--\":101:134   */\n  tag_18\n  jump\t// in\ntag_19:\n    /* \"--CODEGEN--\":656:730   */\n  dup1\n  swap2\n  pop\n  pop\n    /* \"--CODEGEN--\":426:746   */\n  swap3\n  pop\n  swap3\n  swap1\n  pop\n  jump\t// out\n    /* \"--CODEGEN--\":1092:1209   */\ntag_18:\n  sub(shl(0xa0, 0x01), 0x01)\n    /* \"--CODEGEN--\":1026:1080   */\n  dup2\n  and\n    /* \"--CODEGEN--\":1151:1186   */\n  dup2\n  eq\n    /* \"--CODEGEN--\":1141:1143   */\n  tag_21\n  jumpi\n    /* \"--CODEGEN--\":1200:1201   */\n  0x00\n  dup1\n    /* \"--CODEGEN--\":1190:1202   */\n  revert\n    /* \"--CODEGEN--\":1141:1143   */\ntag_21:\n    /* \"--CODEGEN--\":1135:1209   */\n  pop\n  jump\t// out\ntag_14:\n    /* \"contracts/ShadowChef.sol\":271:22001  contract ShadowChefV2 is Ownable, ReentrancyGuard {\r... */\n  shr(0x60, mload(0x80))\n  codecopy(0x00, dataOffset(sub_0), dataSize(sub_0))\n  assignImmutable(\"0xdb56024b3d6cde3a6cd02fd327b99549871e338b958b94e29cae4ab4619605ef\")\n  return(0x00, dataSize(sub_0))\nstop\n\nsub_0: assembly {\n        /* \"contracts/ShadowChef.sol\":271:22001  contract ShadowChefV2 is Ownable, ReentrancyGuard {\r... */\n      mstore(0x40, 0x80)\n      callvalue\n      dup1\n      iszero\n      tag_1\n      jumpi\n      0x00\n      dup1\n      revert\n    tag_1:\n      pop\n      jumpi(tag_2, lt(calldatasize, 0x04))\n      shr(0xe0, calldataload(0x00))\n      dup1\n      0x78db4c34\n      gt\n      tag_42\n      jumpi\n      dup1\n      0xc507aeaa\n      gt\n      tag_43\n      jumpi\n      dup1\n      0xe2bbb158\n      gt\n      tag_44\n      jumpi\n      dup1\n      0xf474309e\n      gt\n      tag_45\n      jumpi\n      dup1\n      0xf474309e\n      eq\n      tag_39\n      jumpi\n      dup1\n      0xf5a26f40\n      eq\n      tag_40\n      jumpi\n      dup1\n      0xf5b91cd3\n      eq\n      tag_41\n      jumpi\n      jump(tag_2)\n    tag_45:\n      dup1\n      0xe2bbb158\n      eq\n      tag_37\n      jumpi\n      dup1\n      0xf2fde38b\n      eq\n      tag_38\n      jumpi\n      jump(tag_2)\n    tag_44:\n      dup1\n      0xcc6db2da\n      gt\n      tag_46\n      jumpi\n      dup1\n      0xcc6db2da\n      eq\n      tag_34\n      jumpi\n      dup1\n      0xd2ce6ae8\n      eq\n      tag_34\n      jumpi\n      dup1\n      0xdfcedeee\n      eq\n      tag_36\n      jumpi\n      jump(tag_2)\n    tag_46:\n      dup1\n      0xc507aeaa\n      eq\n      tag_32\n      jumpi\n      dup1\n      0xc799b59d\n      eq\n      tag_33\n      jumpi\n      jump(tag_2)\n    tag_43:\n      dup1\n      0x93f1a40b\n      gt\n      tag_47\n      jumpi\n      dup1\n      0x9dd2fcc3\n      gt\n      tag_48\n      jumpi\n      dup1\n      0x9dd2fcc3\n      eq\n      tag_29\n      jumpi\n      dup1\n      0xac1d0609\n      eq\n      tag_30\n      jumpi\n      dup1\n      0xc40d337b\n      eq\n      tag_31\n      jumpi\n      jump(tag_2)\n    tag_48:\n      dup1\n      0x93f1a40b\n      eq\n      tag_27\n      jumpi\n      dup1\n      0x99d7e84a\n      eq\n      tag_28\n      jumpi\n      jump(tag_2)\n    tag_47:\n      dup1\n      0x815d087f\n      gt\n      tag_49\n      jumpi\n      dup1\n      0x815d087f\n      eq\n      tag_24\n      jumpi\n      dup1\n      0x81bdf98c\n      eq\n      tag_25\n      jumpi\n      dup1\n      0x8da5cb5b\n      eq\n      tag_26\n      jumpi\n      jump(tag_2)\n    tag_49:\n      dup1\n      0x78db4c34\n      eq\n      tag_22\n      jumpi\n      dup1\n      0x78ed5d1f\n      eq\n      tag_23\n      jumpi\n      jump(tag_2)\n    tag_42:\n      dup1\n      0x372c12b1\n      gt\n      tag_50\n      jumpi\n      dup1\n      0x64482f79\n      gt\n      tag_51\n      jumpi\n      dup1\n      0x69b02128\n      gt\n      tag_52\n      jumpi\n      dup1\n      0x69b02128\n      eq\n      tag_19\n      jumpi\n      dup1\n      0x6fda08c3\n      eq\n      tag_20\n      jumpi\n      dup1\n      0x715018a6\n      eq\n      tag_21\n      jumpi\n      jump(tag_2)\n    tag_52:\n      dup1\n      0x64482f79\n      eq\n      tag_17\n      jumpi\n      dup1\n      0x6661100f\n      eq\n      tag_18\n      jumpi\n      jump(tag_2)\n    tag_51:\n      dup1\n      0x51eb05a6\n      gt\n      tag_53\n      jumpi\n      dup1\n      0x51eb05a6\n      eq\n      tag_14\n      jumpi\n      dup1\n      0x5312ea8e\n      eq\n      tag_15\n      jumpi\n      dup1\n      0x630b5ba1\n      eq\n      tag_16\n      jumpi\n      jump(tag_2)\n    tag_53:\n      dup1\n      0x372c12b1\n      eq\n      tag_12\n      jumpi\n      dup1\n      0x441a3e70\n      eq\n      tag_13\n      jumpi\n      jump(tag_2)\n    tag_50:\n      dup1\n      0x0bb844bc\n      gt\n      tag_54\n      jumpi\n      dup1\n      0x16e80f4d\n      gt\n      tag_55\n      jumpi\n      dup1\n      0x16e80f4d\n      eq\n      tag_9\n      jumpi\n      dup1\n      0x19f95e2e\n      eq\n      tag_10\n      jumpi\n      dup1\n      0x36183ed6\n      eq\n      tag_11\n      jumpi\n      jump(tag_2)\n    tag_55:\n      dup1\n      0x0bb844bc\n      eq\n      tag_7\n      jumpi\n      dup1\n      0x1526fe27\n      eq\n      tag_8\n      jumpi\n      jump(tag_2)\n    tag_54:\n      dup1\n      0x033186e8\n      eq\n      tag_3\n      jumpi\n      dup1\n      0x03dcff74\n      eq\n      tag_4\n      jumpi\n      dup1\n      0x041a84c9\n      eq\n      tag_5\n      jumpi\n      dup1\n      0x081e3eda\n      eq\n      tag_6\n      jumpi\n    tag_2:\n      0x00\n      dup1\n      revert\n        /* \"contracts/ShadowChef.sol\":20450:20691  function getBoostMultiplier(address _user, uint256 _pid) public view returns (uint256) {\r... */\n    tag_3:\n      tag_56\n      tag_57\n      calldatasize\n      0x04\n      tag_58\n      jump\t// in\n    tag_57:\n      tag_59\n      jump\t// in\n    tag_56:\n      mload(0x40)\n      tag_60\n      swap2\n      swap1\n      tag_61\n      jump\t// in\n    tag_60:\n      mload(0x40)\n      dup1\n      swap2\n      sub\n      swap1\n      return\n        /* \"contracts/ShadowChef.sol\":2464:2492  IBEP20 public immutable SHDW */\n    tag_4:\n      tag_62\n      tag_63\n      jump\t// in\n    tag_62:\n      mload(0x40)\n      tag_60\n      swap2\n      swap1\n      tag_141\n      jump\t// in\n        /* \"contracts/ShadowChef.sol\":19007:20303  function updateBoostMultiplier(\r... */\n    tag_5:\n      tag_66\n      tag_67\n      calldatasize\n      0x04\n      tag_68\n      jump\t// in\n    tag_67:\n      tag_69\n      jump\t// in\n    tag_66:\n      stop\n        /* \"contracts/ShadowChef.sol\":5930:6030  function poolLength() public view returns (uint256 pools) {\r... */\n    tag_6:\n      tag_56\n      tag_71\n      jump\t// in\n        /* \"contracts/ShadowChef.sol\":17405:17805  function updateBurnAdmin(address _newAdmin) external onlyOwner {\r... */\n    tag_7:\n      tag_66\n      tag_74\n      calldatasize\n      0x04\n      tag_75\n      jump\t// in\n    tag_74:\n      tag_76\n      jump\t// in\n        /* \"contracts/ShadowChef.sol\":2732:2758  PoolInfo[] public poolInfo */\n    tag_8:\n      tag_77\n      tag_78\n      calldatasize\n      0x04\n      tag_79\n      jump\t// in\n    tag_78:\n      tag_80\n      jump\t// in\n    tag_77:\n      mload(0x40)\n      tag_60\n      swap6\n      swap5\n      swap4\n      swap3\n      swap2\n      swap1\n      tag_82\n      jump\t// in\n        /* \"contracts/ShadowChef.sol\":3519:3568  uint256 public constant ACC_SHDW_PRECISION = 1e18 */\n    tag_9:\n      tag_56\n      tag_84\n      jump\t// in\n        /* \"contracts/ShadowChef.sol\":10850:11021  function shdwPerBlockToBurn() public view returns (uint256 amount) {\r... */\n    tag_10:\n      tag_56\n      tag_87\n      jump\t// in\n        /* \"contracts/ShadowChef.sol\":15611:16012  function burnShdw(bool _withUpdate) public onlyOwner {\r... */\n    tag_11:\n      tag_66\n      tag_90\n      calldatasize\n      0x04\n      tag_91\n      jump\t// in\n    tag_90:\n      tag_92\n      jump\t// in\n        /* \"contracts/ShadowChef.sol\":3051:3092  mapping(address => bool) public whiteList */\n    tag_12:\n      tag_93\n      tag_94\n      calldatasize\n      0x04\n      tag_75\n      jump\t// in\n    tag_94:\n      tag_95\n      jump\t// in\n    tag_93:\n      mload(0x40)\n      tag_60\n      swap2\n      swap1\n      tag_97\n      jump\t// in\n        /* \"contracts/ShadowChef.sol\":13736:14640  function withdraw(uint256 _pid, uint256 _amount) external nonReentrant {\r... */\n    tag_13:\n      tag_66\n      tag_99\n      calldatasize\n      0x04\n      tag_100\n      jump\t// in\n    tag_99:\n      tag_101\n      jump\t// in\n        /* \"contracts/ShadowChef.sol\":11204:12153  function updatePool(uint256 _pid) public returns (PoolInfo memory pool) {\r... */\n    tag_14:\n      tag_102\n      tag_103\n      calldatasize\n      0x04\n      tag_79\n      jump\t// in\n    tag_103:\n      tag_104\n      jump\t// in\n    tag_102:\n      mload(0x40)\n      tag_60\n      swap2\n      swap1\n      tag_106\n      jump\t// in\n        /* \"contracts/ShadowChef.sol\":14783:15473  function emergencyWithdraw(uint256 _pid) external nonReentrant {\r... */\n    tag_15:\n      tag_66\n      tag_108\n      calldatasize\n      0x04\n      tag_79\n      jump\t// in\n    tag_108:\n      tag_109\n      jump\t// in\n        /* \"contracts/ShadowChef.sol\":9967:10258  function massUpdatePools() public {\r... */\n    tag_16:\n      tag_66\n      tag_111\n      jump\t// in\n        /* \"contracts/ShadowChef.sol\":7995:8725  function set(\r... */\n    tag_17:\n      tag_66\n      tag_113\n      calldatasize\n      0x04\n      tag_114\n      jump\t// in\n    tag_113:\n      tag_115\n      jump\t// in\n        /* \"contracts/ShadowChef.sol\":4108:4151  uint256 public shdwRateToBurn = 50000000000 */\n    tag_18:\n      tag_56\n      tag_117\n      jump\t// in\n        /* \"contracts/ShadowChef.sol\":3797:3853  uint256 public constant MAX_BOOST_PRECISION = 200 * 1e10 */\n    tag_19:\n      tag_56\n      tag_120\n      jump\t// in\n        /* \"contracts/ShadowChef.sol\":4326:4377  uint256 public shdwRateToSpecialFarm = 700000000000 */\n    tag_20:\n      tag_56\n      tag_123\n      jump\t// in\n        /* \"contracts/access/Ownable.sol\":1742:1890  function renounceOwnership() public virtual onlyOwner {\r... */\n    tag_21:\n      tag_66\n      tag_126\n      jump\t// in\n        /* \"contracts/ShadowChef.sol\":4386:4416  uint256 public lastBurnedBlock */\n    tag_22:\n      tag_56\n      tag_128\n      jump\t// in\n        /* \"contracts/ShadowChef.sol\":2826:2849  IBEP20[] public lpToken */\n    tag_23:\n      tag_62\n      tag_131\n      calldatasize\n      0x04\n      tag_79\n      jump\t// in\n    tag_131:\n      tag_132\n      jump\t// in\n        /* \"contracts/ShadowChef.sol\":16397:17299  function updateShdwRate(\r... */\n    tag_24:\n      tag_66\n      tag_135\n      calldatasize\n      0x04\n      tag_136\n      jump\t// in\n    tag_135:\n      tag_137\n      jump\t// in\n        /* \"contracts/ShadowChef.sol\":2567:2591  address public burnAdmin */\n    tag_25:\n      tag_62\n      tag_139\n      jump\t// in\n        /* \"contracts/access/Ownable.sol\":1100:1179  function owner() public view returns (address) {\r... */\n    tag_26:\n      tag_62\n      tag_143\n      jump\t// in\n        /* \"contracts/ShadowChef.sol\":2899:2963  mapping(uint256 => mapping(address => UserInfo)) public userInfo */\n    tag_27:\n      tag_145\n      tag_146\n      calldatasize\n      0x04\n      tag_147\n      jump\t// in\n    tag_146:\n      tag_148\n      jump\t// in\n    tag_145:\n      mload(0x40)\n      tag_60\n      swap4\n      swap3\n      swap2\n      swap1\n      tag_150\n      jump\t// in\n        /* \"contracts/ShadowChef.sol\":3359:3396  uint256 public totalSpecialAllocPoint */\n    tag_28:\n      tag_56\n      tag_152\n      jump\t// in\n        /* \"contracts/ShadowChef.sol\":18408:18775  function updateBoostContract(address _newBoostContract) external onlyOwner {\r... */\n    tag_29:\n      tag_66\n      tag_155\n      calldatasize\n      0x04\n      tag_75\n      jump\t// in\n    tag_155:\n      tag_156\n      jump\t// in\n        /* \"contracts/ShadowChef.sol\":17983:18246  function updateWhiteList(address _user, bool _isValid) external onlyOwner {\r... */\n    tag_30:\n      tag_66\n      tag_158\n      calldatasize\n      0x04\n      tag_159\n      jump\t// in\n    tag_158:\n      tag_160\n      jump\t// in\n        /* \"contracts/ShadowChef.sol\":3208:3245  uint256 public totalRegularAllocPoint */\n    tag_31:\n      tag_56\n      tag_162\n      jump\t// in\n        /* \"contracts/ShadowChef.sol\":6579:7689  function add(\r... */\n    tag_32:\n      tag_66\n      tag_165\n      calldatasize\n      0x04\n      tag_166\n      jump\t// in\n    tag_165:\n      tag_167\n      jump\t// in\n        /* \"contracts/ShadowChef.sol\":8899:9869  function pendingShdw(uint256 _pid, address _user) external view returns (uint256) {\r... */\n    tag_33:\n      tag_56\n      tag_169\n      calldatasize\n      0x04\n      tag_147\n      jump\t// in\n    tag_169:\n      tag_170\n      jump\t// in\n        /* \"contracts/ShadowChef.sol\":3647:3699  uint256 public constant BOOST_PRECISION = 100 * 1e10 */\n    tag_34:\n      tag_56\n      tag_173\n      jump\t// in\n        /* \"contracts/ShadowChef.sol\":2654:2682  address public boostContract */\n    tag_36:\n      tag_62\n      tag_179\n      jump\t// in\n        /* \"contracts/ShadowChef.sol\":12318:13567  function deposit(uint256 _pid, uint256 _amount) external nonReentrant {\r... */\n    tag_37:\n      tag_66\n      tag_182\n      calldatasize\n      0x04\n      tag_100\n      jump\t// in\n    tag_182:\n      tag_183\n      jump\t// in\n        /* \"contracts/access/Ownable.sol\":2045:2289  function transferOwnership(address newOwner) public virtual onlyOwner {\r... */\n    tag_38:\n      tag_66\n      tag_185\n      calldatasize\n      0x04\n      tag_75\n      jump\t// in\n    tag_185:\n      tag_186\n      jump\t// in\n        /* \"contracts/ShadowChef.sol\":10408:10762  function shdwPerBlock(bool _isRegular) public view returns (uint256 amount) {\r... */\n    tag_39:\n      tag_56\n      tag_188\n      calldatasize\n      0x04\n      tag_91\n      jump\t// in\n    tag_188:\n      tag_189\n      jump\t// in\n        /* \"contracts/ShadowChef.sol\":4215:4266  uint256 public shdwRateToRegularFarm = 250000000000 */\n    tag_40:\n      tag_56\n      tag_192\n      jump\t// in\n        /* \"contracts/ShadowChef.sol\":3448:3512  uint256 public constant MASTERCHEF_SHDW_PER_BLOCK = 1.375 * 1e18 */\n    tag_41:\n      tag_56\n      tag_195\n      jump\t// in\n        /* \"contracts/ShadowChef.sol\":20450:20691  function getBoostMultiplier(address _user, uint256 _pid) public view returns (uint256) {\r... */\n    tag_59:\n        /* \"contracts/ShadowChef.sol\":20528:20535  uint256 */\n      0x00\n        /* \"contracts/ShadowChef.sol\":20569:20583  userInfo[_pid] */\n      dup2\n      dup2\n      mstore\n        /* \"contracts/ShadowChef.sol\":20569:20577  userInfo */\n      0x06\n        /* \"contracts/ShadowChef.sol\":20569:20583  userInfo[_pid] */\n      0x20\n      swap1\n      dup2\n      mstore\n      0x40\n      dup1\n      dup4\n      keccak256\n        /* \"contracts/ShadowChef.sol\":20569:20590  userInfo[_pid][_user] */\n      0xffffffffffffffffffffffffffffffffffffffff\n      dup7\n      and\n      dup5\n      mstore\n      swap1\n      swap2\n      mstore\n      dup2\n      keccak256\n        /* \"contracts/ShadowChef.sol\":20569:20606  userInfo[_pid][_user].boostMultiplier */\n      0x02\n      add\n      sload\n        /* \"contracts/ShadowChef.sol\":3689:3699  100 * 1e10 */\n      0xe8d4a51000\n        /* \"contracts/ShadowChef.sol\":20624:20652  multiplier > BOOST_PRECISION */\n      dup2\n      gt\n        /* \"contracts/ShadowChef.sol\":20624:20683  multiplier > BOOST_PRECISION ? multiplier : BOOST_PRECISION */\n      tag_198\n      jumpi\n        /* \"contracts/ShadowChef.sol\":3689:3699  100 * 1e10 */\n      0xe8d4a51000\n        /* \"contracts/ShadowChef.sol\":20624:20683  multiplier > BOOST_PRECISION ? multiplier : BOOST_PRECISION */\n      jump(tag_199)\n    tag_198:\n        /* \"contracts/ShadowChef.sol\":20655:20665  multiplier */\n      dup1\n        /* \"contracts/ShadowChef.sol\":20624:20683  multiplier > BOOST_PRECISION ? multiplier : BOOST_PRECISION */\n    tag_199:\n        /* \"contracts/ShadowChef.sol\":20617:20683  return multiplier > BOOST_PRECISION ? multiplier : BOOST_PRECISION */\n      swap2\n      pop\n      pop\n        /* \"contracts/ShadowChef.sol\":20450:20691  function getBoostMultiplier(address _user, uint256 _pid) public view returns (uint256) {\r... */\n    tag_197:\n      swap3\n      swap2\n      pop\n      pop\n      jump\t// out\n        /* \"contracts/ShadowChef.sol\":2464:2492  IBEP20 public immutable SHDW */\n    tag_63:\n      immutable(\"0xdb56024b3d6cde3a6cd02fd327b99549871e338b958b94e29cae4ab4619605ef\")\n      dup2\n      jump\t// out\n        /* \"contracts/ShadowChef.sol\":19007:20303  function updateBoostMultiplier(\r... */\n    tag_69:\n        /* \"contracts/ShadowChef.sol\":5776:5789  boostContract */\n      sload(0x03)\n        /* \"contracts/ShadowChef.sol\":5776:5803  boostContract == msg.sender */\n      0xffffffffffffffffffffffffffffffffffffffff\n        /* \"contracts/ShadowChef.sol\":5776:5789  boostContract */\n      and\n        /* \"contracts/ShadowChef.sol\":5793:5803  msg.sender */\n      caller\n        /* \"contracts/ShadowChef.sol\":5776:5803  boostContract == msg.sender */\n      eq\n        /* \"contracts/ShadowChef.sol\":5768:5849  require(boostContract == msg.sender, \"Ownable: caller is not the boost contract\") */\n      tag_201\n      jumpi\n      mload(0x40)\n      0x08c379a000000000000000000000000000000000000000000000000000000000\n      dup2\n      mstore\n      0x04\n      add\n      tag_202\n      swap1\n      tag_203\n      jump\t// in\n    tag_202:\n      mload(0x40)\n      dup1\n      swap2\n      sub\n      swap1\n      revert\n    tag_201:\n        /* \"contracts/security/ReentrancyGuard.sol\":1704:1705  2 */\n      0x02\n        /* \"contracts/security/ReentrancyGuard.sol\":2310:2317  _status */\n      sload(0x01)\n        /* \"contracts/security/ReentrancyGuard.sol\":2310:2329  _status != _ENTERED */\n      eq\n      iszero\n        /* \"contracts/security/ReentrancyGuard.sol\":2302:2365  require(_status != _ENTERED, \"ReentrancyGuard: reentrant call\") */\n      tag_205\n      jumpi\n      mload(0x40)\n      0x08c379a000000000000000000000000000000000000000000000000000000000\n      dup2\n      mstore\n      0x04\n      add\n      tag_202\n      swap1\n      tag_207\n      jump\t// in\n    tag_205:\n        /* \"contracts/security/ReentrancyGuard.sol\":1704:1705  2 */\n      0x02\n        /* \"contracts/security/ReentrancyGuard.sol\":2443:2450  _status */\n      0x01\n        /* \"contracts/security/ReentrancyGuard.sol\":2443:2461  _status = _ENTERED */\n      sstore\n        /* \"contracts/ShadowChef.sol\":19184:19203  _user != address(0) */\n      0xffffffffffffffffffffffffffffffffffffffff\n      dup4\n      and\n        /* \"contracts/ShadowChef.sol\":19176:19252  require(_user != address(0), \"ShadowChefV2: The user address must be valid\") */\n      tag_209\n      jumpi\n      mload(0x40)\n      0x08c379a000000000000000000000000000000000000000000000000000000000\n      dup2\n      mstore\n      0x04\n      add\n      tag_202\n      swap1\n      tag_211\n      jump\t// in\n    tag_209:\n        /* \"contracts/ShadowChef.sol\":19271:19279  poolInfo */\n      0x04\n        /* \"contracts/ShadowChef.sol\":19280:19284  _pid */\n      dup3\n        /* \"contracts/ShadowChef.sol\":19271:19285  poolInfo[_pid] */\n      dup2\n      sload\n      dup2\n      lt\n      tag_212\n      jumpi\n      invalid\n    tag_212:\n      0x00\n      swap2\n      dup3\n      mstore\n      0x20\n      swap1\n      swap2\n      keccak256\n        /* \"contracts/ShadowChef.sol\":19271:19295  poolInfo[_pid].isRegular */\n      0x04\n        /* \"contracts/ShadowChef.sol\":19271:19285  poolInfo[_pid] */\n      0x05\n      swap1\n      swap3\n      mul\n      add\n        /* \"contracts/ShadowChef.sol\":19271:19295  poolInfo[_pid].isRegular */\n      add\n      sload\n      0xff\n      and\n        /* \"contracts/ShadowChef.sol\":19263:19348  require(poolInfo[_pid].isRegular, \"ShadowChefV2: Only regular farm could be boosted\") */\n      tag_214\n      jumpi\n      mload(0x40)\n      0x08c379a000000000000000000000000000000000000000000000000000000000\n      dup2\n      mstore\n      0x04\n      add\n      tag_202\n      swap1\n      tag_216\n      jump\t// in\n    tag_214:\n        /* \"contracts/ShadowChef.sol\":3689:3699  100 * 1e10 */\n      0xe8d4a51000\n        /* \"contracts/ShadowChef.sol\":19381:19395  _newMultiplier */\n      dup2\n        /* \"contracts/ShadowChef.sol\":19381:19414  _newMultiplier >= BOOST_PRECISION */\n      lt\n      iszero\n        /* \"contracts/ShadowChef.sol\":19381:19455  _newMultiplier >= BOOST_PRECISION && _newMultiplier <= MAX_BOOST_PRECISION */\n      dup1\n      iszero\n      tag_217\n      jumpi\n      pop\n        /* \"contracts/ShadowChef.sol\":3843:3853  200 * 1e10 */\n      0x01d1a94a2000\n        /* \"contracts/ShadowChef.sol\":19418:19432  _newMultiplier */\n      dup2\n        /* \"contracts/ShadowChef.sol\":19418:19455  _newMultiplier <= MAX_BOOST_PRECISION */\n      gt\n      iszero\n        /* \"contracts/ShadowChef.sol\":19381:19455  _newMultiplier >= BOOST_PRECISION && _newMultiplier <= MAX_BOOST_PRECISION */\n    tag_217:\n        /* \"contracts/ShadowChef.sol\":19359:19525  require(\r... */\n      tag_218\n      jumpi\n      mload(0x40)\n      0x08c379a000000000000000000000000000000000000000000000000000000000\n      dup2\n      mstore\n      0x04\n      add\n      tag_202\n      swap1\n      tag_220\n      jump\t// in\n    tag_218:\n        /* \"contracts/ShadowChef.sol\":19538:19558  PoolInfo memory pool */\n      tag_221\n      tag_222\n      jump\t// in\n    tag_221:\n        /* \"contracts/ShadowChef.sol\":19561:19577  updatePool(_pid) */\n      tag_223\n        /* \"contracts/ShadowChef.sol\":19572:19576  _pid */\n      dup4\n        /* \"contracts/ShadowChef.sol\":19561:19571  updatePool */\n      tag_104\n        /* \"contracts/ShadowChef.sol\":19561:19577  updatePool(_pid) */\n      jump\t// in\n    tag_223:\n        /* \"contracts/ShadowChef.sol\":19588:19609  UserInfo storage user */\n      0x00\n        /* \"contracts/ShadowChef.sol\":19612:19626  userInfo[_pid] */\n      dup5\n      dup2\n      mstore\n        /* \"contracts/ShadowChef.sol\":19612:19620  userInfo */\n      0x06\n        /* \"contracts/ShadowChef.sol\":19612:19626  userInfo[_pid] */\n      0x20\n      swap1\n      dup2\n      mstore\n      0x40\n      dup1\n      dup4\n      keccak256\n        /* \"contracts/ShadowChef.sol\":19612:19633  userInfo[_pid][_user] */\n      0xffffffffffffffffffffffffffffffffffffffff\n      dup10\n      and\n      dup5\n      mstore\n      swap1\n      swap2\n      mstore\n      dup2\n      keccak256\n        /* \"contracts/ShadowChef.sol\":19538:19577  PoolInfo memory pool = updatePool(_pid) */\n      swap2\n      swap3\n      pop\n        /* \"contracts/ShadowChef.sol\":19671:19702  getBoostMultiplier(_user, _pid) */\n      tag_224\n        /* \"contracts/ShadowChef.sol\":19627:19632  _user */\n      dup7\n        /* \"contracts/ShadowChef.sol\":19621:19625  _pid */\n      dup7\n        /* \"contracts/ShadowChef.sol\":19671:19689  getBoostMultiplier */\n      tag_59\n        /* \"contracts/ShadowChef.sol\":19671:19702  getBoostMultiplier(_user, _pid) */\n      jump\t// in\n    tag_224:\n        /* \"contracts/ShadowChef.sol\":19646:19702  uint256 prevMultiplier = getBoostMultiplier(_user, _pid) */\n      swap1\n      pop\n        /* \"contracts/ShadowChef.sol\":19713:19759  settlependingShdw(_user, _pid, prevMultiplier) */\n      tag_225\n        /* \"contracts/ShadowChef.sol\":19731:19736  _user */\n      dup7\n        /* \"contracts/ShadowChef.sol\":19738:19742  _pid */\n      dup7\n        /* \"contracts/ShadowChef.sol\":19744:19758  prevMultiplier */\n      dup4\n        /* \"contracts/ShadowChef.sol\":19713:19730  settlependingShdw */\n      tag_226\n        /* \"contracts/ShadowChef.sol\":19713:19759  settlependingShdw(_user, _pid, prevMultiplier) */\n      jump\t// in\n    tag_225:\n        /* \"contracts/ShadowChef.sol\":19790:19916  user.amount.mul(_newMultiplier).div(BOOST_PRECISION).mul(pool.accShdwPerShare).div(\r... */\n      tag_227\n        /* \"contracts/ShadowChef.sol\":3564:3568  1e18 */\n      0x0de0b6b3a7640000\n        /* \"contracts/ShadowChef.sol\":19790:19868  user.amount.mul(_newMultiplier).div(BOOST_PRECISION).mul(pool.accShdwPerShare) */\n      tag_230\n        /* \"contracts/ShadowChef.sol\":19847:19851  pool */\n      dup6\n        /* \"contracts/ShadowChef.sol\":19847:19867  pool.accShdwPerShare */\n      0x00\n      add\n      mload\n        /* \"contracts/ShadowChef.sol\":19790:19842  user.amount.mul(_newMultiplier).div(BOOST_PRECISION) */\n      tag_229\n        /* \"contracts/ShadowChef.sol\":3689:3699  100 * 1e10 */\n      0xe8d4a51000\n        /* \"contracts/ShadowChef.sol\":19790:19821  user.amount.mul(_newMultiplier) */\n      tag_230\n        /* \"contracts/ShadowChef.sol\":19806:19820  _newMultiplier */\n      dup11\n        /* \"contracts/ShadowChef.sol\":19790:19794  user */\n      dup10\n        /* \"contracts/ShadowChef.sol\":19790:19801  user.amount */\n      0x00\n      add\n      sload\n        /* \"contracts/ShadowChef.sol\":19790:19805  user.amount.mul */\n      tag_231\n      swap1\n        /* \"contracts/ShadowChef.sol\":19790:19821  user.amount.mul(_newMultiplier) */\n      swap2\n      swap1\n      0xffffffff\n      and\n      jump\t// in\n    tag_230:\n        /* \"contracts/ShadowChef.sol\":19790:19825  user.amount.mul(_newMultiplier).div */\n      swap1\n      tag_232\n        /* \"contracts/ShadowChef.sol\":19790:19842  user.amount.mul(_newMultiplier).div(BOOST_PRECISION) */\n      jump\t// in\n    tag_229:\n        /* \"contracts/ShadowChef.sol\":19790:19846  user.amount.mul(_newMultiplier).div(BOOST_PRECISION).mul */\n      swap1\n      tag_231\n        /* \"contracts/ShadowChef.sol\":19790:19868  user.amount.mul(_newMultiplier).div(BOOST_PRECISION).mul(pool.accShdwPerShare) */\n      jump\t// in\n        /* \"contracts/ShadowChef.sol\":19790:19916  user.amount.mul(_newMultiplier).div(BOOST_PRECISION).mul(pool.accShdwPerShare).div(\r... */\n    tag_227:\n        /* \"contracts/ShadowChef.sol\":19772:19787  user.rewardDebt */\n      0x01\n      dup4\n      add\n        /* \"contracts/ShadowChef.sol\":19772:19916  user.rewardDebt = user.amount.mul(_newMultiplier).div(BOOST_PRECISION).mul(pool.accShdwPerShare).div(\r... */\n      sstore\n        /* \"contracts/ShadowChef.sol\":20051:20062  user.amount */\n      dup2\n      sload\n        /* \"contracts/ShadowChef.sol\":19952:20114  pool.totalBoostedShare.sub(user.amount.mul(prevMultiplier).div(BOOST_PRECISION)).add(\r... */\n      tag_233\n      swap1\n        /* \"contracts/ShadowChef.sol\":20051:20103  user.amount.mul(_newMultiplier).div(BOOST_PRECISION) */\n      tag_234\n      swap1\n        /* \"contracts/ShadowChef.sol\":3689:3699  100 * 1e10 */\n      0xe8d4a51000\n      swap1\n        /* \"contracts/ShadowChef.sol\":20051:20082  user.amount.mul(_newMultiplier) */\n      tag_230\n      swap1\n        /* \"contracts/ShadowChef.sol\":20067:20081  _newMultiplier */\n      dup9\n        /* \"contracts/ShadowChef.sol\":20051:20066  user.amount.mul */\n      tag_231\n        /* \"contracts/ShadowChef.sol\":20051:20082  user.amount.mul(_newMultiplier) */\n      jump\t// in\n        /* \"contracts/ShadowChef.sol\":20051:20103  user.amount.mul(_newMultiplier).div(BOOST_PRECISION) */\n    tag_234:\n        /* \"contracts/ShadowChef.sol\":19979:19990  user.amount */\n      dup4\n      sload\n        /* \"contracts/ShadowChef.sol\":19952:20032  pool.totalBoostedShare.sub(user.amount.mul(prevMultiplier).div(BOOST_PRECISION)) */\n      tag_236\n      swap1\n        /* \"contracts/ShadowChef.sol\":19979:20031  user.amount.mul(prevMultiplier).div(BOOST_PRECISION) */\n      tag_237\n      swap1\n        /* \"contracts/ShadowChef.sol\":3689:3699  100 * 1e10 */\n      0xe8d4a51000\n      swap1\n        /* \"contracts/ShadowChef.sol\":19979:20010  user.amount.mul(prevMultiplier) */\n      tag_230\n      swap1\n        /* \"contracts/ShadowChef.sol\":19995:20009  prevMultiplier */\n      dup8\n        /* \"contracts/ShadowChef.sol\":19979:19994  user.amount.mul */\n      tag_231\n        /* \"contracts/ShadowChef.sol\":19979:20010  user.amount.mul(prevMultiplier) */\n      jump\t// in\n        /* \"contracts/ShadowChef.sol\":19979:20031  user.amount.mul(prevMultiplier).div(BOOST_PRECISION) */\n    tag_237:\n        /* \"contracts/ShadowChef.sol\":19952:19974  pool.totalBoostedShare */\n      0x60\n      dup8\n      add\n      mload\n      swap1\n        /* \"contracts/ShadowChef.sol\":19952:19978  pool.totalBoostedShare.sub */\n      tag_239\n        /* \"contracts/ShadowChef.sol\":19952:20032  pool.totalBoostedShare.sub(user.amount.mul(prevMultiplier).div(BOOST_PRECISION)) */\n      jump\t// in\n    tag_236:\n        /* \"contracts/ShadowChef.sol\":19952:20036  pool.totalBoostedShare.sub(user.amount.mul(prevMultiplier).div(BOOST_PRECISION)).add */\n      swap1\n      tag_240\n        /* \"contracts/ShadowChef.sol\":19952:20114  pool.totalBoostedShare.sub(user.amount.mul(prevMultiplier).div(BOOST_PRECISION)).add(\r... */\n      jump\t// in\n    tag_233:\n        /* \"contracts/ShadowChef.sol\":19927:19949  pool.totalBoostedShare */\n      0x60\n      dup5\n      add\n        /* \"contracts/ShadowChef.sol\":19927:20114  pool.totalBoostedShare = pool.totalBoostedShare.sub(user.amount.mul(prevMultiplier).div(BOOST_PRECISION)).add(\r... */\n      mstore\n        /* \"contracts/ShadowChef.sol\":20125:20133  poolInfo */\n      0x04\n        /* \"contracts/ShadowChef.sol\":20125:20139  poolInfo[_pid] */\n      dup1\n      sload\n        /* \"contracts/ShadowChef.sol\":19927:19931  pool */\n      dup5\n      swap2\n        /* \"contracts/ShadowChef.sol\":20125:20133  poolInfo */\n      swap1\n        /* \"contracts/ShadowChef.sol\":20134:20138  _pid */\n      dup8\n      swap1\n        /* \"contracts/ShadowChef.sol\":20125:20139  poolInfo[_pid] */\n      dup2\n      lt\n      tag_241\n      jumpi\n      invalid\n    tag_241:\n      0x00\n      swap2\n      dup3\n      mstore\n      0x20\n      dup1\n      dup4\n      keccak256\n        /* \"contracts/ShadowChef.sol\":20125:20146  poolInfo[_pid] = pool */\n      dup5\n      mload\n        /* \"contracts/ShadowChef.sol\":20125:20139  poolInfo[_pid] */\n      0x05\n      swap4\n      swap1\n      swap4\n      mul\n      add\n        /* \"contracts/ShadowChef.sol\":20125:20146  poolInfo[_pid] = pool */\n      swap2\n      dup3\n      sstore\n      dup4\n      dup2\n      add\n      mload\n      0x01\n      dup4\n      add\n      sstore\n      0x40\n      dup1\n      dup6\n      add\n      mload\n      0x02\n      dup1\n      dup6\n      add\n      swap2\n      swap1\n      swap2\n      sstore\n      0x60\n      dup7\n      add\n      mload\n      0x03\n      dup6\n      add\n      sstore\n      0x80\n      swap1\n      swap6\n      add\n      mload\n      0x04\n      swap1\n      swap4\n      add\n      dup1\n      sload\n      0xffffffffffffffffffffffffffffffffffffffffffffffffffffffffffffff00\n      and\n      swap4\n      iszero\n      iszero\n      swap4\n      swap1\n      swap4\n      or\n      swap1\n      swap3\n      sstore\n        /* \"contracts/ShadowChef.sol\":20157:20171  userInfo[_pid] */\n      dup9\n      dup4\n      mstore\n        /* \"contracts/ShadowChef.sol\":20157:20165  userInfo */\n      0x06\n        /* \"contracts/ShadowChef.sol\":20157:20171  userInfo[_pid] */\n      dup2\n      mstore\n      dup2\n      dup4\n      keccak256\n        /* \"contracts/ShadowChef.sol\":20157:20178  userInfo[_pid][_user] */\n      0xffffffffffffffffffffffffffffffffffffffff\n      dup12\n      and\n      dup1\n      dup6\n      mstore\n      swap2\n      mstore\n      swap2\n      dup2\n      swap1\n      keccak256\n        /* \"contracts/ShadowChef.sol\":20157:20194  userInfo[_pid][_user].boostMultiplier */\n      swap1\n      swap3\n      add\n        /* \"contracts/ShadowChef.sol\":20157:20211  userInfo[_pid][_user].boostMultiplier = _newMultiplier */\n      dup7\n      swap1\n      sstore\n        /* \"contracts/ShadowChef.sol\":20229:20295  UpdateBoostMultiplier(_user, _pid, prevMultiplier, _newMultiplier) */\n      swap1\n      mload\n      0x01abd62439b64f6c5dab6f94d56099495bd0c094f9c21f98f4d3562a21edb4ba\n      swap1\n      tag_243\n      swap1\n        /* \"contracts/ShadowChef.sol\":20157:20171  userInfo[_pid] */\n      dup9\n      swap1\n        /* \"contracts/ShadowChef.sol\":20264:20278  prevMultiplier */\n      dup6\n      swap1\n        /* \"contracts/ShadowChef.sol\":20157:20211  userInfo[_pid][_user].boostMultiplier = _newMultiplier */\n      dup10\n      swap1\n        /* \"contracts/ShadowChef.sol\":20229:20295  UpdateBoostMultiplier(_user, _pid, prevMultiplier, _newMultiplier) */\n      tag_150\n      jump\t// in\n    tag_243:\n      mload(0x40)\n      dup1\n      swap2\n      sub\n      swap1\n      log2\n      pop\n      pop\n        /* \"contracts/security/ReentrancyGuard.sol\":1660:1661  1 */\n      0x01\n        /* \"contracts/security/ReentrancyGuard.sol\":2622:2644  _status = _NOT_ENTERED */\n      dup1\n      sstore\n      pop\n      pop\n      pop\n      pop\n        /* \"contracts/ShadowChef.sol\":19007:20303  function updateBoostMultiplier(\r... */\n      jump\t// out\n        /* \"contracts/ShadowChef.sol\":5930:6030  function poolLength() public view returns (uint256 pools) {\r... */\n    tag_71:\n        /* \"contracts/ShadowChef.sol\":6007:6015  poolInfo */\n      0x04\n        /* \"contracts/ShadowChef.sol\":6007:6022  poolInfo.length */\n      sload\n      swap1\n        /* \"contracts/ShadowChef.sol\":5930:6030  function poolLength() public view returns (uint256 pools) {\r... */\n      jump\t// out\n        /* \"contracts/ShadowChef.sol\":17405:17805  function updateBurnAdmin(address _newAdmin) external onlyOwner {\r... */\n    tag_76:\n        /* \"contracts/access/Ownable.sol\":1322:1334  _msgSender() */\n      tag_246\n        /* \"contracts/access/Ownable.sol\":1322:1332  _msgSender */\n      tag_247\n        /* \"contracts/access/Ownable.sol\":1322:1334  _msgSender() */\n      jump\t// in\n    tag_246:\n        /* \"contracts/access/Ownable.sol\":1312:1318  _owner */\n      sload(0x00)\n        /* \"contracts/access/Ownable.sol\":1312:1334  _owner == _msgSender() */\n      0xffffffffffffffffffffffffffffffffffffffff\n        /* \"contracts/access/Ownable.sol\":1312:1318  _owner */\n      swap1\n      dup2\n      and\n        /* \"contracts/access/Ownable.sol\":1312:1334  _owner == _msgSender() */\n      swap2\n      and\n      eq\n        /* \"contracts/access/Ownable.sol\":1304:1371  require(_owner == _msgSender(), \"Ownable: caller is not the owner\") */\n      tag_248\n      jumpi\n      mload(0x40)\n      0x08c379a000000000000000000000000000000000000000000000000000000000\n      dup2\n      mstore\n      0x04\n      add\n      tag_202\n      swap1\n      tag_250\n      jump\t// in\n    tag_248:\n        /* \"contracts/ShadowChef.sol\":17487:17510  _newAdmin != address(0) */\n      0xffffffffffffffffffffffffffffffffffffffff\n      dup2\n      and\n        /* \"contracts/ShadowChef.sol\":17479:17561  require(_newAdmin != address(0), \"ShadowChefV2: Burn admin address must be valid\") */\n      tag_252\n      jumpi\n      mload(0x40)\n      0x08c379a000000000000000000000000000000000000000000000000000000000\n      dup2\n      mstore\n      0x04\n      add\n      tag_202\n      swap1\n      tag_254\n      jump\t// in\n    tag_252:\n        /* \"contracts/ShadowChef.sol\":17593:17602  burnAdmin */\n      sload(0x02)\n      0xffffffffffffffffffffffffffffffffffffffff\n        /* \"contracts/ShadowChef.sol\":17580:17602  _newAdmin != burnAdmin */\n      dup3\n      dup2\n      and\n        /* \"contracts/ShadowChef.sol\":17593:17602  burnAdmin */\n      swap2\n      and\n        /* \"contracts/ShadowChef.sol\":17580:17602  _newAdmin != burnAdmin */\n      eq\n      iszero\n        /* \"contracts/ShadowChef.sol\":17572:17672  require(_newAdmin != burnAdmin, \"ShadowChefV2: Burn admin address is the same with current address\") */\n      tag_255\n      jumpi\n      mload(0x40)\n      0x08c379a000000000000000000000000000000000000000000000000000000000\n      dup2\n      mstore\n      0x04\n      add\n      tag_202\n      swap1\n      tag_257\n      jump\t// in\n    tag_255:\n        /* \"contracts/ShadowChef.sol\":17703:17712  burnAdmin */\n      0x02\n      dup1\n      sload\n      0xffffffffffffffffffffffffffffffffffffffff\n        /* \"contracts/ShadowChef.sol\":17723:17744  burnAdmin = _newAdmin */\n      dup4\n      dup2\n      and\n      0xffffffffffffffffffffffff0000000000000000000000000000000000000000\n      dup4\n      and\n      dup2\n      or\n      swap1\n      swap4\n      sstore\n        /* \"contracts/ShadowChef.sol\":17760:17797  UpdateBurnAdmin(_oldAdmin, _newAdmin) */\n      mload(0x40)\n        /* \"contracts/ShadowChef.sol\":17703:17712  burnAdmin */\n      swap2\n      and\n      swap2\n        /* \"contracts/ShadowChef.sol\":17723:17744  burnAdmin = _newAdmin */\n      swap1\n        /* \"contracts/ShadowChef.sol\":17703:17712  burnAdmin */\n      dup3\n      swap1\n        /* \"contracts/ShadowChef.sol\":17760:17797  UpdateBurnAdmin(_oldAdmin, _newAdmin) */\n      0xd146fe330fdddf682413850a35b28edfccd4c4b53cfee802fd24950de5be1dbe\n      swap1\n        /* \"contracts/ShadowChef.sol\":17683:17700  address _oldAdmin */\n      0x00\n      swap1\n        /* \"contracts/ShadowChef.sol\":17760:17797  UpdateBurnAdmin(_oldAdmin, _newAdmin) */\n      log3\n        /* \"contracts/access/Ownable.sol\":1382:1383  _ */\n      pop\n        /* \"contracts/ShadowChef.sol\":17405:17805  function updateBurnAdmin(address _newAdmin) external onlyOwner {\r... */\n      pop\n      jump\t// out\n        /* \"contracts/ShadowChef.sol\":2732:2758  PoolInfo[] public poolInfo */\n    tag_80:\n      0x04\n      dup2\n      dup2\n      sload\n      dup2\n      lt\n      tag_258\n      jumpi\n      invalid\n    tag_258:\n      0x00\n      swap2\n      dup3\n      mstore\n      0x20\n      swap1\n      swap2\n      keccak256\n      0x05\n      swap1\n      swap2\n      mul\n      add\n      dup1\n      sload\n      0x01\n      dup3\n      add\n      sload\n      0x02\n      dup4\n      add\n      sload\n      0x03\n      dup5\n      add\n      sload\n      0x04\n      swap1\n      swap5\n      add\n      sload\n      swap3\n      swap5\n      pop\n      swap1\n      swap3\n      swap1\n      swap2\n      0xff\n      and\n      dup6\n      jump\t// out\n        /* \"contracts/ShadowChef.sol\":3519:3568  uint256 public constant ACC_SHDW_PRECISION = 1e18 */\n    tag_84:\n        /* \"contracts/ShadowChef.sol\":3564:3568  1e18 */\n      0x0de0b6b3a7640000\n        /* \"contracts/ShadowChef.sol\":3519:3568  uint256 public constant ACC_SHDW_PRECISION = 1e18 */\n      dup2\n      jump\t// out\n        /* \"contracts/ShadowChef.sol\":10850:11021  function shdwPerBlockToBurn() public view returns (uint256 amount) {\r... */\n    tag_87:\n        /* \"contracts/ShadowChef.sol\":10901:10915  uint256 amount */\n      0x00\n        /* \"contracts/ShadowChef.sol\":10937:11013  MASTERCHEF_SHDW_PER_BLOCK.mul(shdwRateToBurn).div(SHDW_RATE_TOTAL_PRECISION) */\n      tag_261\n        /* \"contracts/ShadowChef.sol\":3978:3982  1e12 */\n      0xe8d4a51000\n        /* \"contracts/ShadowChef.sol\":10937:10982  MASTERCHEF_SHDW_PER_BLOCK.mul(shdwRateToBurn) */\n      tag_230\n        /* \"contracts/ShadowChef.sol\":10967:10981  shdwRateToBurn */\n      sload(0x0a)\n        /* \"contracts/ShadowChef.sol\":3500:3512  1.375 * 1e18 */\n      0x1314fb3706298000\n        /* \"contracts/ShadowChef.sol\":10937:10966  MASTERCHEF_SHDW_PER_BLOCK.mul */\n      tag_231\n      swap1\n        /* \"contracts/ShadowChef.sol\":10937:10982  MASTERCHEF_SHDW_PER_BLOCK.mul(shdwRateToBurn) */\n      swap2\n      swap1\n      0xffffffff\n      and\n      jump\t// in\n        /* \"contracts/ShadowChef.sol\":10937:11013  MASTERCHEF_SHDW_PER_BLOCK.mul(shdwRateToBurn).div(SHDW_RATE_TOTAL_PRECISION) */\n    tag_261:\n        /* \"contracts/ShadowChef.sol\":10928:11013  amount = MASTERCHEF_SHDW_PER_BLOCK.mul(shdwRateToBurn).div(SHDW_RATE_TOTAL_PRECISION) */\n      swap1\n      pop\n        /* \"contracts/ShadowChef.sol\":10850:11021  function shdwPerBlockToBurn() public view returns (uint256 amount) {\r... */\n      swap1\n      jump\t// out\n        /* \"contracts/ShadowChef.sol\":15611:16012  function burnShdw(bool _withUpdate) public onlyOwner {\r... */\n    tag_92:\n        /* \"contracts/access/Ownable.sol\":1322:1334  _msgSender() */\n      tag_264\n        /* \"contracts/access/Ownable.sol\":1322:1332  _msgSender */\n      tag_247\n        /* \"contracts/access/Ownable.sol\":1322:1334  _msgSender() */\n      jump\t// in\n    tag_264:\n        /* \"contracts/access/Ownable.sol\":1312:1318  _owner */\n      sload(0x00)\n        /* \"contracts/access/Ownable.sol\":1312:1334  _owner == _msgSender() */\n      0xffffffffffffffffffffffffffffffffffffffff\n        /* \"contracts/access/Ownable.sol\":1312:1318  _owner */\n      swap1\n      dup2\n      and\n        /* \"contracts/access/Ownable.sol\":1312:1334  _owner == _msgSender() */\n      swap2\n      and\n      eq\n        /* \"contracts/access/Ownable.sol\":1304:1371  require(_owner == _msgSender(), \"Ownable: caller is not the owner\") */\n      tag_265\n      jumpi\n      mload(0x40)\n      0x08c379a000000000000000000000000000000000000000000000000000000000\n      dup2\n      mstore\n      0x04\n      add\n      tag_202\n      swap1\n      tag_250\n      jump\t// in\n    tag_265:\n        /* \"contracts/ShadowChef.sol\":15679:15690  _withUpdate */\n      dup1\n        /* \"contracts/ShadowChef.sol\":15675:15736  if (_withUpdate) {\r... */\n      iszero\n      tag_269\n      jumpi\n        /* \"contracts/ShadowChef.sol\":15707:15724  massUpdatePools() */\n      tag_269\n        /* \"contracts/ShadowChef.sol\":15707:15722  massUpdatePools */\n      tag_111\n        /* \"contracts/ShadowChef.sol\":15707:15724  massUpdatePools() */\n      jump\t// in\n    tag_269:\n        /* \"contracts/ShadowChef.sol\":15748:15766  uint256 multiplier */\n      0x00\n        /* \"contracts/ShadowChef.sol\":15769:15802  block.number.sub(lastBurnedBlock) */\n      tag_270\n        /* \"contracts/ShadowChef.sol\":15786:15801  lastBurnedBlock */\n      sload(0x0d)\n        /* \"contracts/ShadowChef.sol\":15769:15781  block.number */\n      number\n        /* \"contracts/ShadowChef.sol\":15769:15785  block.number.sub */\n      tag_239\n      swap1\n        /* \"contracts/ShadowChef.sol\":15769:15802  block.number.sub(lastBurnedBlock) */\n      swap2\n      swap1\n      0xffffffff\n      and\n      jump\t// in\n    tag_270:\n        /* \"contracts/ShadowChef.sol\":15748:15802  uint256 multiplier = block.number.sub(lastBurnedBlock) */\n      swap1\n      pop\n        /* \"contracts/ShadowChef.sol\":15813:15838  uint256 pendingShdwToBurn */\n      0x00\n        /* \"contracts/ShadowChef.sol\":15841:15877  multiplier.mul(shdwPerBlockToBurn()) */\n      tag_271\n        /* \"contracts/ShadowChef.sol\":15856:15876  shdwPerBlockToBurn() */\n      tag_272\n        /* \"contracts/ShadowChef.sol\":15856:15874  shdwPerBlockToBurn */\n      tag_87\n        /* \"contracts/ShadowChef.sol\":15856:15876  shdwPerBlockToBurn() */\n      jump\t// in\n    tag_272:\n        /* \"contracts/ShadowChef.sol\":15841:15851  multiplier */\n      dup4\n      swap1\n        /* \"contracts/ShadowChef.sol\":15841:15855  multiplier.mul */\n      tag_231\n        /* \"contracts/ShadowChef.sol\":15841:15877  multiplier.mul(shdwPerBlockToBurn()) */\n      jump\t// in\n    tag_271:\n        /* \"contracts/ShadowChef.sol\":15934:15943  burnAdmin */\n      sload(0x02)\n        /* \"contracts/ShadowChef.sol\":15813:15877  uint256 pendingShdwToBurn = multiplier.mul(shdwPerBlockToBurn()) */\n      swap1\n      swap2\n      pop\n        /* \"contracts/ShadowChef.sol\":15920:15963  _safeTransfer(burnAdmin, pendingShdwToBurn) */\n      tag_273\n      swap1\n        /* \"contracts/ShadowChef.sol\":15934:15943  burnAdmin */\n      0xffffffffffffffffffffffffffffffffffffffff\n      and\n        /* \"contracts/ShadowChef.sol\":15813:15877  uint256 pendingShdwToBurn = multiplier.mul(shdwPerBlockToBurn()) */\n      dup3\n        /* \"contracts/ShadowChef.sol\":15920:15933  _safeTransfer */\n      tag_274\n        /* \"contracts/ShadowChef.sol\":15920:15963  _safeTransfer(burnAdmin, pendingShdwToBurn) */\n      jump\t// in\n    tag_273:\n      pop\n      pop\n        /* \"contracts/ShadowChef.sol\":15992:16004  block.number */\n      number\n        /* \"contracts/ShadowChef.sol\":15974:15989  lastBurnedBlock */\n      0x0d\n        /* \"contracts/ShadowChef.sol\":15974:16004  lastBurnedBlock = block.number */\n      sstore\n      pop\n        /* \"contracts/ShadowChef.sol\":15611:16012  function burnShdw(bool _withUpdate) public onlyOwner {\r... */\n      jump\t// out\n        /* \"contracts/ShadowChef.sol\":3051:3092  mapping(address => bool) public whiteList */\n    tag_95:\n      mstore(0x20, 0x07)\n      0x00\n      swap1\n      dup2\n      mstore\n      0x40\n      swap1\n      keccak256\n      sload\n      0xff\n      and\n      dup2\n      jump\t// out\n        /* \"contracts/ShadowChef.sol\":13736:14640  function withdraw(uint256 _pid, uint256 _amount) external nonReentrant {\r... */\n    tag_101:\n        /* \"contracts/security/ReentrancyGuard.sol\":1704:1705  2 */\n      0x02\n        /* \"contracts/security/ReentrancyGuard.sol\":2310:2317  _status */\n      sload(0x01)\n        /* \"contracts/security/ReentrancyGuard.sol\":2310:2329  _status != _ENTERED */\n      eq\n      iszero\n        /* \"contracts/security/ReentrancyGuard.sol\":2302:2365  require(_status != _ENTERED, \"ReentrancyGuard: reentrant call\") */\n      tag_276\n      jumpi\n      mload(0x40)\n      0x08c379a000000000000000000000000000000000000000000000000000000000\n      dup2\n      mstore\n      0x04\n      add\n      tag_202\n      swap1\n      tag_207\n      jump\t// in\n    tag_276:\n        /* \"contracts/security/ReentrancyGuard.sol\":1704:1705  2 */\n      0x02\n        /* \"contracts/security/ReentrancyGuard.sol\":2443:2450  _status */\n      0x01\n        /* \"contracts/security/ReentrancyGuard.sol\":2443:2461  _status = _ENTERED */\n      sstore\n        /* \"contracts/ShadowChef.sol\":13818:13838  PoolInfo memory pool */\n      tag_279\n      tag_222\n      jump\t// in\n    tag_279:\n        /* \"contracts/ShadowChef.sol\":13841:13857  updatePool(_pid) */\n      tag_280\n        /* \"contracts/ShadowChef.sol\":13852:13856  _pid */\n      dup4\n        /* \"contracts/ShadowChef.sol\":13841:13851  updatePool */\n      tag_104\n        /* \"contracts/ShadowChef.sol\":13841:13857  updatePool(_pid) */\n      jump\t// in\n    tag_280:\n        /* \"contracts/ShadowChef.sol\":13868:13889  UserInfo storage user */\n      0x00\n        /* \"contracts/ShadowChef.sol\":13892:13906  userInfo[_pid] */\n      dup5\n      dup2\n      mstore\n        /* \"contracts/ShadowChef.sol\":13892:13900  userInfo */\n      0x06\n        /* \"contracts/ShadowChef.sol\":13892:13906  userInfo[_pid] */\n      0x20\n      swap1\n      dup2\n      mstore\n      0x40\n      dup1\n      dup4\n      keccak256\n        /* \"contracts/ShadowChef.sol\":13907:13917  msg.sender */\n      caller\n        /* \"contracts/ShadowChef.sol\":13892:13918  userInfo[_pid][msg.sender] */\n      dup5\n      mstore\n      swap1\n      swap2\n      mstore\n      swap1\n      keccak256\n        /* \"contracts/ShadowChef.sol\":13939:13950  user.amount */\n      dup1\n      sload\n        /* \"contracts/ShadowChef.sol\":13818:13857  PoolInfo memory pool = updatePool(_pid) */\n      swap2\n      swap3\n      pop\n        /* \"contracts/ShadowChef.sol\":13892:13918  userInfo[_pid][msg.sender] */\n      swap1\n        /* \"contracts/ShadowChef.sol\":13939:13961  user.amount >= _amount */\n      dup4\n      gt\n      iszero\n        /* \"contracts/ShadowChef.sol\":13931:13988  require(user.amount >= _amount, \"withdraw: Insufficient\") */\n      tag_281\n      jumpi\n      mload(0x40)\n      0x08c379a000000000000000000000000000000000000000000000000000000000\n      dup2\n      mstore\n      0x04\n      add\n      tag_202\n      swap1\n      tag_283\n      jump\t// in\n    tag_281:\n        /* \"contracts/ShadowChef.sol\":14001:14019  uint256 multiplier */\n      0x00\n        /* \"contracts/ShadowChef.sol\":14022:14058  getBoostMultiplier(msg.sender, _pid) */\n      tag_284\n        /* \"contracts/ShadowChef.sol\":14041:14051  msg.sender */\n      caller\n        /* \"contracts/ShadowChef.sol\":14053:14057  _pid */\n      dup7\n        /* \"contracts/ShadowChef.sol\":14022:14040  getBoostMultiplier */\n      tag_59\n        /* \"contracts/ShadowChef.sol\":14022:14058  getBoostMultiplier(msg.sender, _pid) */\n      jump\t// in\n    tag_284:\n        /* \"contracts/ShadowChef.sol\":14001:14058  uint256 multiplier = getBoostMultiplier(msg.sender, _pid) */\n      swap1\n      pop\n        /* \"contracts/ShadowChef.sol\":14071:14118  settlependingShdw(msg.sender, _pid, multiplier) */\n      tag_285\n        /* \"contracts/ShadowChef.sol\":14089:14099  msg.sender */\n      caller\n        /* \"contracts/ShadowChef.sol\":14101:14105  _pid */\n      dup7\n        /* \"contracts/ShadowChef.sol\":14107:14117  multiplier */\n      dup4\n        /* \"contracts/ShadowChef.sol\":14071:14088  settlependingShdw */\n      tag_226\n        /* \"contracts/ShadowChef.sol\":14071:14118  settlependingShdw(msg.sender, _pid, multiplier) */\n      jump\t// in\n    tag_285:\n        /* \"contracts/ShadowChef.sol\":14135:14146  _amount > 0 */\n      dup4\n      iszero\n        /* \"contracts/ShadowChef.sol\":14131:14275  if (_amount > 0) {\r... */\n      tag_288\n      jumpi\n        /* \"contracts/ShadowChef.sol\":14177:14188  user.amount */\n      dup2\n      sload\n        /* \"contracts/ShadowChef.sol\":14177:14201  user.amount.sub(_amount) */\n      tag_287\n      swap1\n        /* \"contracts/ShadowChef.sol\":14193:14200  _amount */\n      dup6\n        /* \"contracts/ShadowChef.sol\":14177:14192  user.amount.sub */\n      tag_239\n        /* \"contracts/ShadowChef.sol\":14177:14201  user.amount.sub(_amount) */\n      jump\t// in\n    tag_287:\n        /* \"contracts/ShadowChef.sol\":14163:14167  user */\n      dup3\n        /* \"contracts/ShadowChef.sol\":14163:14174  user.amount */\n      0x00\n      add\n        /* \"contracts/ShadowChef.sol\":14163:14201  user.amount = user.amount.sub(_amount) */\n      dup2\n      swap1\n      sstore\n      pop\n        /* \"contracts/ShadowChef.sol\":14216:14263  lpToken[_pid].safeTransfer(msg.sender, _amount) */\n      tag_288\n        /* \"contracts/ShadowChef.sol\":14243:14253  msg.sender */\n      caller\n        /* \"contracts/ShadowChef.sol\":14255:14262  _amount */\n      dup6\n        /* \"contracts/ShadowChef.sol\":14216:14223  lpToken */\n      0x05\n        /* \"contracts/ShadowChef.sol\":14224:14228  _pid */\n      dup9\n        /* \"contracts/ShadowChef.sol\":14216:14229  lpToken[_pid] */\n      dup2\n      sload\n      dup2\n      lt\n      tag_289\n      jumpi\n      invalid\n    tag_289:\n      0x00\n      swap2\n      dup3\n      mstore\n      0x20\n      swap1\n      swap2\n      keccak256\n      add\n      sload\n      0xffffffffffffffffffffffffffffffffffffffff\n      and\n      swap2\n        /* \"contracts/ShadowChef.sol\":14216:14263  lpToken[_pid].safeTransfer(msg.sender, _amount) */\n      swap1\n        /* \"contracts/ShadowChef.sol\":14216:14242  lpToken[_pid].safeTransfer */\n      tag_291\n        /* \"contracts/ShadowChef.sol\":14216:14263  lpToken[_pid].safeTransfer(msg.sender, _amount) */\n      jump\t// in\n    tag_288:\n        /* \"contracts/ShadowChef.sol\":14305:14427  user.amount.mul(multiplier).div(BOOST_PRECISION).mul(pool.accShdwPerShare).div(\r... */\n      tag_292\n        /* \"contracts/ShadowChef.sol\":3564:3568  1e18 */\n      0x0de0b6b3a7640000\n        /* \"contracts/ShadowChef.sol\":14305:14379  user.amount.mul(multiplier).div(BOOST_PRECISION).mul(pool.accShdwPerShare) */\n      tag_230\n        /* \"contracts/ShadowChef.sol\":14358:14362  pool */\n      dup6\n        /* \"contracts/ShadowChef.sol\":14358:14378  pool.accShdwPerShare */\n      0x00\n      add\n      mload\n        /* \"contracts/ShadowChef.sol\":14305:14353  user.amount.mul(multiplier).div(BOOST_PRECISION) */\n      tag_229\n        /* \"contracts/ShadowChef.sol\":3689:3699  100 * 1e10 */\n      0xe8d4a51000\n        /* \"contracts/ShadowChef.sol\":14305:14332  user.amount.mul(multiplier) */\n      tag_230\n        /* \"contracts/ShadowChef.sol\":14321:14331  multiplier */\n      dup8\n        /* \"contracts/ShadowChef.sol\":14305:14309  user */\n      dup10\n        /* \"contracts/ShadowChef.sol\":14305:14316  user.amount */\n      0x00\n      add\n      sload\n        /* \"contracts/ShadowChef.sol\":14305:14320  user.amount.mul */\n      tag_231\n      swap1\n        /* \"contracts/ShadowChef.sol\":14305:14332  user.amount.mul(multiplier) */\n      swap2\n      swap1\n      0xffffffff\n      and\n      jump\t// in\n        /* \"contracts/ShadowChef.sol\":14305:14427  user.amount.mul(multiplier).div(BOOST_PRECISION).mul(pool.accShdwPerShare).div(\r... */\n    tag_292:\n        /* \"contracts/ShadowChef.sol\":14287:14302  user.rewardDebt */\n      0x01\n      dup4\n      add\n        /* \"contracts/ShadowChef.sol\":14287:14427  user.rewardDebt = user.amount.mul(multiplier).div(BOOST_PRECISION).mul(pool.accShdwPerShare).div(\r... */\n      sstore\n        /* \"contracts/ShadowChef.sol\":14473:14579  poolInfo[_pid].totalBoostedShare.sub(\r... */\n      tag_296\n        /* \"contracts/ShadowChef.sol\":14524:14568  _amount.mul(multiplier).div(BOOST_PRECISION) */\n      tag_297\n        /* \"contracts/ShadowChef.sol\":3689:3699  100 * 1e10 */\n      0xe8d4a51000\n        /* \"contracts/ShadowChef.sol\":14524:14547  _amount.mul(multiplier) */\n      tag_230\n        /* \"contracts/ShadowChef.sol\":14524:14531  _amount */\n      dup8\n        /* \"contracts/ShadowChef.sol\":14536:14546  multiplier */\n      dup6\n        /* \"contracts/ShadowChef.sol\":14524:14535  _amount.mul */\n      tag_231\n        /* \"contracts/ShadowChef.sol\":14524:14547  _amount.mul(multiplier) */\n      jump\t// in\n        /* \"contracts/ShadowChef.sol\":14524:14568  _amount.mul(multiplier).div(BOOST_PRECISION) */\n    tag_297:\n        /* \"contracts/ShadowChef.sol\":14473:14481  poolInfo */\n      0x04\n        /* \"contracts/ShadowChef.sol\":14482:14486  _pid */\n      dup8\n        /* \"contracts/ShadowChef.sol\":14473:14487  poolInfo[_pid] */\n      dup2\n      sload\n      dup2\n      lt\n      tag_299\n      jumpi\n      invalid\n    tag_299:\n      swap1\n      0x00\n      mstore\n      keccak256(0x00, 0x20)\n      swap1\n      0x05\n      mul\n      add\n        /* \"contracts/ShadowChef.sol\":14473:14505  poolInfo[_pid].totalBoostedShare */\n      0x03\n      add\n      sload\n        /* \"contracts/ShadowChef.sol\":14473:14509  poolInfo[_pid].totalBoostedShare.sub */\n      tag_239\n      swap1\n        /* \"contracts/ShadowChef.sol\":14473:14579  poolInfo[_pid].totalBoostedShare.sub(\r... */\n      swap2\n      swap1\n      0xffffffff\n      and\n      jump\t// in\n    tag_296:\n        /* \"contracts/ShadowChef.sol\":14438:14446  poolInfo */\n      0x04\n        /* \"contracts/ShadowChef.sol\":14447:14451  _pid */\n      dup7\n        /* \"contracts/ShadowChef.sol\":14438:14452  poolInfo[_pid] */\n      dup2\n      sload\n      dup2\n      lt\n      tag_301\n      jumpi\n      invalid\n    tag_301:\n      swap1\n      0x00\n      mstore\n      keccak256(0x00, 0x20)\n      swap1\n      0x05\n      mul\n      add\n        /* \"contracts/ShadowChef.sol\":14438:14470  poolInfo[_pid].totalBoostedShare */\n      0x03\n      add\n        /* \"contracts/ShadowChef.sol\":14438:14579  poolInfo[_pid].totalBoostedShare = poolInfo[_pid].totalBoostedShare.sub(\r... */\n      dup2\n      swap1\n      sstore\n      pop\n        /* \"contracts/ShadowChef.sol\":14618:14622  _pid */\n      dup5\n        /* \"contracts/ShadowChef.sol\":14606:14616  msg.sender */\n      caller\n        /* \"contracts/ShadowChef.sol\":14597:14632  Withdraw(msg.sender, _pid, _amount) */\n      0xffffffffffffffffffffffffffffffffffffffff\n      and\n      0xf279e6a1f5e320cca91135676d9cb6e44ca8a08c0b88342bcdb1144f6511b568\n        /* \"contracts/ShadowChef.sol\":14624:14631  _amount */\n      dup7\n        /* \"contracts/ShadowChef.sol\":14597:14632  Withdraw(msg.sender, _pid, _amount) */\n      mload(0x40)\n      tag_303\n      swap2\n      swap1\n      tag_61\n      jump\t// in\n    tag_303:\n      mload(0x40)\n      dup1\n      swap2\n      sub\n      swap1\n      log3\n      pop\n      pop\n        /* \"contracts/security/ReentrancyGuard.sol\":1660:1661  1 */\n      0x01\n        /* \"contracts/security/ReentrancyGuard.sol\":2622:2644  _status = _NOT_ENTERED */\n      dup1\n      sstore\n      pop\n      pop\n      pop\n        /* \"contracts/ShadowChef.sol\":13736:14640  function withdraw(uint256 _pid, uint256 _amount) external nonReentrant {\r... */\n      jump\t// out\n        /* \"contracts/ShadowChef.sol\":11204:12153  function updatePool(uint256 _pid) public returns (PoolInfo memory pool) {\r... */\n    tag_104:\n        /* \"contracts/ShadowChef.sol\":11254:11274  PoolInfo memory pool */\n      tag_304\n      tag_222\n      jump\t// in\n    tag_304:\n        /* \"contracts/ShadowChef.sol\":11294:11302  poolInfo */\n      0x04\n        /* \"contracts/ShadowChef.sol\":11303:11307  _pid */\n      dup3\n        /* \"contracts/ShadowChef.sol\":11294:11308  poolInfo[_pid] */\n      dup2\n      sload\n      dup2\n      lt\n      tag_306\n      jumpi\n      invalid\n    tag_306:\n      0x00\n      swap2\n      dup3\n      mstore\n      0x20\n      swap2\n      dup3\n      swap1\n      keccak256\n        /* \"contracts/ShadowChef.sol\":11287:11308  pool = poolInfo[_pid] */\n      0x40\n      dup1\n      mload\n      0xa0\n      dup2\n      add\n      dup3\n      mstore\n        /* \"contracts/ShadowChef.sol\":11294:11308  poolInfo[_pid] */\n      0x05\n      swap1\n      swap4\n      mul\n      swap1\n      swap2\n      add\n        /* \"contracts/ShadowChef.sol\":11287:11308  pool = poolInfo[_pid] */\n      dup1\n      sload\n      dup4\n      mstore\n      0x01\n      dup2\n      add\n      sload\n      swap4\n      dup4\n      add\n      dup5\n      swap1\n      mstore\n      0x02\n      dup2\n      add\n      sload\n      swap2\n      dup4\n      add\n      swap2\n      swap1\n      swap2\n      mstore\n      0x03\n      dup2\n      add\n      sload\n      0x60\n      dup4\n      add\n      mstore\n      0x04\n      add\n      sload\n      0xff\n      and\n      iszero\n      iszero\n      0x80\n      dup3\n      add\n      mstore\n      swap2\n      pop\n        /* \"contracts/ShadowChef.sol\":11323:11335  block.number */\n      number\n        /* \"contracts/ShadowChef.sol\":11323:11358  block.number > pool.lastRewardBlock */\n      gt\n        /* \"contracts/ShadowChef.sol\":11319:12146  if (block.number > pool.lastRewardBlock) {\r... */\n      iszero\n      tag_308\n      jumpi\n        /* \"contracts/ShadowChef.sol\":11394:11416  pool.totalBoostedShare */\n      0x60\n      dup2\n      add\n      mload\n        /* \"contracts/ShadowChef.sol\":11458:11472  pool.isRegular */\n      0x80\n      dup3\n      add\n      mload\n        /* \"contracts/ShadowChef.sol\":11375:11391  uint256 lpSupply */\n      0x00\n      swap1\n        /* \"contracts/ShadowChef.sol\":11458:11522  pool.isRegular ? totalRegularAllocPoint : totalSpecialAllocPoint */\n      tag_309\n      jumpi\n        /* \"contracts/ShadowChef.sol\":11500:11522  totalSpecialAllocPoint */\n      sload(0x09)\n        /* \"contracts/ShadowChef.sol\":11458:11522  pool.isRegular ? totalRegularAllocPoint : totalSpecialAllocPoint */\n      jump(tag_310)\n    tag_309:\n        /* \"contracts/ShadowChef.sol\":11475:11497  totalRegularAllocPoint */\n      sload(0x08)\n        /* \"contracts/ShadowChef.sol\":11458:11522  pool.isRegular ? totalRegularAllocPoint : totalSpecialAllocPoint */\n    tag_310:\n        /* \"contracts/ShadowChef.sol\":11431:11523  uint256 totalAllocPoint = (pool.isRegular ? totalRegularAllocPoint : totalSpecialAllocPoint) */\n      swap1\n      pop\n        /* \"contracts/ShadowChef.sol\":11555:11556  0 */\n      0x00\n        /* \"contracts/ShadowChef.sol\":11544:11552  lpSupply */\n      dup3\n        /* \"contracts/ShadowChef.sol\":11544:11556  lpSupply > 0 */\n      gt\n        /* \"contracts/ShadowChef.sol\":11544:11579  lpSupply > 0 && totalAllocPoint > 0 */\n      dup1\n      iszero\n      tag_311\n      jumpi\n      pop\n        /* \"contracts/ShadowChef.sol\":11578:11579  0 */\n      0x00\n        /* \"contracts/ShadowChef.sol\":11560:11575  totalAllocPoint */\n      dup2\n        /* \"contracts/ShadowChef.sol\":11560:11579  totalAllocPoint > 0 */\n      gt\n        /* \"contracts/ShadowChef.sol\":11544:11579  lpSupply > 0 && totalAllocPoint > 0 */\n    tag_311:\n        /* \"contracts/ShadowChef.sol\":11540:11959  if (lpSupply > 0 && totalAllocPoint > 0) {\r... */\n      iszero\n      tag_312\n      jumpi\n        /* \"contracts/ShadowChef.sol\":11600:11618  uint256 multiplier */\n      0x00\n        /* \"contracts/ShadowChef.sol\":11621:11659  block.number.sub(pool.lastRewardBlock) */\n      tag_313\n        /* \"contracts/ShadowChef.sol\":11638:11642  pool */\n      dup5\n        /* \"contracts/ShadowChef.sol\":11638:11658  pool.lastRewardBlock */\n      0x20\n      add\n      mload\n        /* \"contracts/ShadowChef.sol\":11621:11633  block.number */\n      number\n        /* \"contracts/ShadowChef.sol\":11621:11637  block.number.sub */\n      tag_239\n      swap1\n        /* \"contracts/ShadowChef.sol\":11621:11659  block.number.sub(pool.lastRewardBlock) */\n      swap2\n      swap1\n      0xffffffff\n      and\n      jump\t// in\n    tag_313:\n        /* \"contracts/ShadowChef.sol\":11600:11659  uint256 multiplier = block.number.sub(pool.lastRewardBlock) */\n      swap1\n      pop\n        /* \"contracts/ShadowChef.sol\":11678:11696  uint256 shdwReward */\n      0x00\n        /* \"contracts/ShadowChef.sol\":11699:11825  multiplier.mul(shdwPerBlock(pool.isRegular)).mul(pool.allocPoint).div(\r... */\n      tag_314\n        /* \"contracts/ShadowChef.sol\":11791:11806  totalAllocPoint */\n      dup4\n        /* \"contracts/ShadowChef.sol\":11699:11764  multiplier.mul(shdwPerBlock(pool.isRegular)).mul(pool.allocPoint) */\n      tag_230\n        /* \"contracts/ShadowChef.sol\":11748:11752  pool */\n      dup8\n        /* \"contracts/ShadowChef.sol\":11748:11763  pool.allocPoint */\n      0x40\n      add\n      mload\n        /* \"contracts/ShadowChef.sol\":11699:11743  multiplier.mul(shdwPerBlock(pool.isRegular)) */\n      tag_229\n        /* \"contracts/ShadowChef.sol\":11714:11742  shdwPerBlock(pool.isRegular) */\n      tag_317\n        /* \"contracts/ShadowChef.sol\":11727:11731  pool */\n      dup11\n        /* \"contracts/ShadowChef.sol\":11727:11741  pool.isRegular */\n      0x80\n      add\n      mload\n        /* \"contracts/ShadowChef.sol\":11714:11726  shdwPerBlock */\n      tag_189\n        /* \"contracts/ShadowChef.sol\":11714:11742  shdwPerBlock(pool.isRegular) */\n      jump\t// in\n    tag_317:\n        /* \"contracts/ShadowChef.sol\":11699:11709  multiplier */\n      dup8\n      swap1\n        /* \"contracts/ShadowChef.sol\":11699:11713  multiplier.mul */\n      tag_231\n        /* \"contracts/ShadowChef.sol\":11699:11743  multiplier.mul(shdwPerBlock(pool.isRegular)) */\n      jump\t// in\n        /* \"contracts/ShadowChef.sol\":11699:11825  multiplier.mul(shdwPerBlock(pool.isRegular)).mul(pool.allocPoint).div(\r... */\n    tag_314:\n        /* \"contracts/ShadowChef.sol\":11678:11825  uint256 shdwReward = multiplier.mul(shdwPerBlock(pool.isRegular)).mul(pool.allocPoint).div(\r... */\n      swap1\n      pop\n        /* \"contracts/ShadowChef.sol\":11867:11943  pool.accShdwPerShare.add((shdwReward.mul(ACC_SHDW_PRECISION).div(lpSupply))) */\n      tag_318\n        /* \"contracts/ShadowChef.sol\":11893:11941  shdwReward.mul(ACC_SHDW_PRECISION).div(lpSupply) */\n      tag_319\n        /* \"contracts/ShadowChef.sol\":11932:11940  lpSupply */\n      dup6\n        /* \"contracts/ShadowChef.sol\":11893:11927  shdwReward.mul(ACC_SHDW_PRECISION) */\n      tag_230\n        /* \"contracts/ShadowChef.sol\":11678:11825  uint256 shdwReward = multiplier.mul(shdwPerBlock(pool.isRegular)).mul(pool.allocPoint).div(\r... */\n      dup5\n        /* \"contracts/ShadowChef.sol\":3564:3568  1e18 */\n      0x0de0b6b3a7640000\n        /* \"contracts/ShadowChef.sol\":11893:11907  shdwReward.mul */\n      tag_231\n        /* \"contracts/ShadowChef.sol\":11893:11927  shdwReward.mul(ACC_SHDW_PRECISION) */\n      jump\t// in\n        /* \"contracts/ShadowChef.sol\":11893:11941  shdwReward.mul(ACC_SHDW_PRECISION).div(lpSupply) */\n    tag_319:\n        /* \"contracts/ShadowChef.sol\":11867:11887  pool.accShdwPerShare */\n      dup7\n      mload\n      swap1\n        /* \"contracts/ShadowChef.sol\":11867:11891  pool.accShdwPerShare.add */\n      tag_240\n        /* \"contracts/ShadowChef.sol\":11867:11943  pool.accShdwPerShare.add((shdwReward.mul(ACC_SHDW_PRECISION).div(lpSupply))) */\n      jump\t// in\n    tag_318:\n        /* \"contracts/ShadowChef.sol\":11844:11943  pool.accShdwPerShare = pool.accShdwPerShare.add((shdwReward.mul(ACC_SHDW_PRECISION).div(lpSupply))) */\n      dup6\n      mstore\n      pop\n      pop\n        /* \"contracts/ShadowChef.sol\":11540:11959  if (lpSupply > 0 && totalAllocPoint > 0) {\r... */\n    tag_312:\n        /* \"contracts/ShadowChef.sol\":11996:12008  block.number */\n      number\n        /* \"contracts/ShadowChef.sol\":11973:11993  pool.lastRewardBlock */\n      0x20\n      dup5\n      add\n        /* \"contracts/ShadowChef.sol\":11973:12008  pool.lastRewardBlock = block.number */\n      mstore\n        /* \"contracts/ShadowChef.sol\":12023:12031  poolInfo */\n      0x04\n        /* \"contracts/ShadowChef.sol\":12023:12037  poolInfo[_pid] */\n      dup1\n      sload\n        /* \"contracts/ShadowChef.sol\":11973:11977  pool */\n      dup5\n      swap2\n        /* \"contracts/ShadowChef.sol\":12023:12031  poolInfo */\n      swap1\n        /* \"contracts/ShadowChef.sol\":12032:12036  _pid */\n      dup7\n      swap1\n        /* \"contracts/ShadowChef.sol\":12023:12037  poolInfo[_pid] */\n      dup2\n      lt\n      tag_321\n      jumpi\n      invalid\n    tag_321:\n      0x00\n      swap2\n      dup3\n      mstore\n      0x20\n      swap2\n      dup3\n      swap1\n      keccak256\n        /* \"contracts/ShadowChef.sol\":12023:12044  poolInfo[_pid] = pool */\n      dup4\n      mload\n        /* \"contracts/ShadowChef.sol\":12023:12037  poolInfo[_pid] */\n      0x05\n      swap3\n      swap1\n      swap3\n      mul\n      add\n        /* \"contracts/ShadowChef.sol\":12023:12044  poolInfo[_pid] = pool */\n      swap1\n      dup2\n      sstore\n      dup3\n      dup3\n      add\n      mload\n      0x01\n      dup3\n      add\n      sstore\n      0x40\n      dup1\n      dup5\n      add\n      mload\n      0x02\n      dup4\n      add\n      sstore\n      0x60\n      dup5\n      add\n      mload\n      0x03\n      dup4\n      add\n      sstore\n      0x80\n      swap1\n      swap4\n      add\n      mload\n      0x04\n      swap1\n      swap2\n      add\n      dup1\n      sload\n      0xffffffffffffffffffffffffffffffffffffffffffffffffffffffffffffff00\n      and\n      swap2\n      iszero\n      iszero\n      swap2\n      swap1\n      swap2\n      or\n      swap1\n      sstore\n        /* \"contracts/ShadowChef.sol\":12081:12101  pool.lastRewardBlock */\n      dup5\n      add\n      mload\n        /* \"contracts/ShadowChef.sol\":12113:12133  pool.accShdwPerShare */\n      dup5\n      mload\n        /* \"contracts/ShadowChef.sol\":12064:12134  UpdatePool(_pid, pool.lastRewardBlock, lpSupply, pool.accShdwPerShare) */\n      swap2\n      mload\n        /* \"contracts/ShadowChef.sol\":12075:12079  _pid */\n      dup7\n      swap3\n        /* \"contracts/ShadowChef.sol\":12064:12134  UpdatePool(_pid, pool.lastRewardBlock, lpSupply, pool.accShdwPerShare) */\n      0x3be3541fc42237d611b30329040bfa4569541d156560acdbbae57640d20b8f46\n      swap3\n      tag_323\n      swap3\n        /* \"contracts/ShadowChef.sol\":12081:12101  pool.lastRewardBlock */\n      swap1\n      swap2\n        /* \"contracts/ShadowChef.sol\":12103:12111  lpSupply */\n      dup8\n      swap2\n        /* \"contracts/ShadowChef.sol\":12064:12134  UpdatePool(_pid, pool.lastRewardBlock, lpSupply, pool.accShdwPerShare) */\n      tag_150\n      jump\t// in\n    tag_323:\n      mload(0x40)\n      dup1\n      swap2\n      sub\n      swap1\n      log2\n        /* \"contracts/ShadowChef.sol\":11319:12146  if (block.number > pool.lastRewardBlock) {\r... */\n      pop\n      pop\n    tag_308:\n        /* \"contracts/ShadowChef.sol\":11204:12153  function updatePool(uint256 _pid) public returns (PoolInfo memory pool) {\r... */\n      swap2\n      swap1\n      pop\n      jump\t// out\n        /* \"contracts/ShadowChef.sol\":14783:15473  function emergencyWithdraw(uint256 _pid) external nonReentrant {\r... */\n    tag_109:\n        /* \"contracts/security/ReentrancyGuard.sol\":1704:1705  2 */\n      0x02\n        /* \"contracts/security/ReentrancyGuard.sol\":2310:2317  _status */\n      sload(0x01)\n        /* \"contracts/security/ReentrancyGuard.sol\":2310:2329  _status != _ENTERED */\n      eq\n      iszero\n        /* \"contracts/security/ReentrancyGuard.sol\":2302:2365  require(_status != _ENTERED, \"ReentrancyGuard: reentrant call\") */\n      tag_325\n      jumpi\n      mload(0x40)\n      0x08c379a000000000000000000000000000000000000000000000000000000000\n      dup2\n      mstore\n      0x04\n      add\n      tag_202\n      swap1\n      tag_207\n      jump\t// in\n    tag_325:\n        /* \"contracts/security/ReentrancyGuard.sol\":1704:1705  2 */\n      0x02\n        /* \"contracts/security/ReentrancyGuard.sol\":2443:2450  _status */\n      0x01\n        /* \"contracts/security/ReentrancyGuard.sol\":2443:2461  _status = _ENTERED */\n      dup2\n      swap1\n      sstore\n      pop\n        /* \"contracts/ShadowChef.sol\":14857:14878  PoolInfo storage pool */\n      0x00\n        /* \"contracts/ShadowChef.sol\":14881:14889  poolInfo */\n      0x04\n        /* \"contracts/ShadowChef.sol\":14890:14894  _pid */\n      dup3\n        /* \"contracts/ShadowChef.sol\":14881:14895  poolInfo[_pid] */\n      dup2\n      sload\n      dup2\n      lt\n      tag_328\n      jumpi\n      invalid\n    tag_328:\n      0x00\n      swap2\n      dup3\n      mstore\n      0x20\n      dup1\n      dup4\n      keccak256\n        /* \"contracts/ShadowChef.sol\":14930:14944  userInfo[_pid] */\n      dup6\n      dup5\n      mstore\n        /* \"contracts/ShadowChef.sol\":14930:14938  userInfo */\n      0x06\n        /* \"contracts/ShadowChef.sol\":14930:14944  userInfo[_pid] */\n      dup3\n      mstore\n      0x40\n      dup1\n      dup6\n      keccak256\n        /* \"contracts/ShadowChef.sol\":14945:14955  msg.sender */\n      caller\n        /* \"contracts/ShadowChef.sol\":14930:14956  userInfo[_pid][msg.sender] */\n      dup1\n      dup8\n      mstore\n      swap4\n      mstore\n      dup5\n      keccak256\n        /* \"contracts/ShadowChef.sol\":14986:14997  user.amount */\n      dup1\n      sload\n        /* \"contracts/ShadowChef.sol\":15008:15023  user.amount = 0 */\n      dup6\n      dup3\n      sstore\n      0x01\n        /* \"contracts/ShadowChef.sol\":15034:15049  user.rewardDebt */\n      dup3\n      add\n        /* \"contracts/ShadowChef.sol\":15034:15053  user.rewardDebt = 0 */\n      dup7\n      swap1\n      sstore\n        /* \"contracts/ShadowChef.sol\":14881:14895  poolInfo[_pid] */\n      0x05\n      swap1\n      swap5\n      mul\n      swap1\n      swap2\n      add\n      swap5\n      pop\n        /* \"contracts/ShadowChef.sol\":14930:14956  userInfo[_pid][msg.sender] */\n      swap3\n        /* \"contracts/ShadowChef.sol\":14881:14895  poolInfo[_pid] */\n      swap1\n        /* \"contracts/ShadowChef.sol\":15088:15157  amount.mul(getBoostMultiplier(msg.sender, _pid)).div(BOOST_PRECISION) */\n      tag_330\n      swap1\n        /* \"contracts/ShadowChef.sol\":3689:3699  100 * 1e10 */\n      0xe8d4a51000\n      swap1\n        /* \"contracts/ShadowChef.sol\":15088:15136  amount.mul(getBoostMultiplier(msg.sender, _pid)) */\n      tag_230\n      swap1\n        /* \"contracts/ShadowChef.sol\":15099:15135  getBoostMultiplier(msg.sender, _pid) */\n      tag_332\n      swap1\n        /* \"contracts/ShadowChef.sol\":14939:14943  _pid */\n      dup10\n        /* \"contracts/ShadowChef.sol\":15099:15117  getBoostMultiplier */\n      tag_59\n        /* \"contracts/ShadowChef.sol\":15099:15135  getBoostMultiplier(msg.sender, _pid) */\n      jump\t// in\n    tag_332:\n        /* \"contracts/ShadowChef.sol\":15088:15094  amount */\n      dup6\n      swap1\n        /* \"contracts/ShadowChef.sol\":15088:15098  amount.mul */\n      tag_231\n        /* \"contracts/ShadowChef.sol\":15088:15136  amount.mul(getBoostMultiplier(msg.sender, _pid)) */\n      jump\t// in\n        /* \"contracts/ShadowChef.sol\":15088:15157  amount.mul(getBoostMultiplier(msg.sender, _pid)).div(BOOST_PRECISION) */\n    tag_330:\n        /* \"contracts/ShadowChef.sol\":15064:15157  uint256 boostedAmount = amount.mul(getBoostMultiplier(msg.sender, _pid)).div(BOOST_PRECISION) */\n      swap1\n      pop\n        /* \"contracts/ShadowChef.sol\":15218:15231  boostedAmount */\n      dup1\n        /* \"contracts/ShadowChef.sol\":15193:15197  pool */\n      dup5\n        /* \"contracts/ShadowChef.sol\":15193:15215  pool.totalBoostedShare */\n      0x03\n      add\n      sload\n        /* \"contracts/ShadowChef.sol\":15193:15231  pool.totalBoostedShare > boostedAmount */\n      gt\n        /* \"contracts/ShadowChef.sol\":15193:15279  pool.totalBoostedShare > boostedAmount ? pool.totalBoostedShare.sub(boostedAmount) : 0 */\n      tag_333\n      jumpi\n        /* \"contracts/ShadowChef.sol\":15278:15279  0 */\n      0x00\n        /* \"contracts/ShadowChef.sol\":15193:15279  pool.totalBoostedShare > boostedAmount ? pool.totalBoostedShare.sub(boostedAmount) : 0 */\n      jump(tag_335)\n    tag_333:\n        /* \"contracts/ShadowChef.sol\":15234:15256  pool.totalBoostedShare */\n      0x03\n      dup5\n      add\n      sload\n        /* \"contracts/ShadowChef.sol\":15234:15275  pool.totalBoostedShare.sub(boostedAmount) */\n      tag_335\n      swap1\n        /* \"contracts/ShadowChef.sol\":15261:15274  boostedAmount */\n      dup3\n        /* \"contracts/ShadowChef.sol\":15234:15260  pool.totalBoostedShare.sub */\n      tag_239\n        /* \"contracts/ShadowChef.sol\":15234:15275  pool.totalBoostedShare.sub(boostedAmount) */\n      jump\t// in\n    tag_335:\n        /* \"contracts/ShadowChef.sol\":15168:15172  pool */\n      dup5\n        /* \"contracts/ShadowChef.sol\":15168:15190  pool.totalBoostedShare */\n      0x03\n      add\n        /* \"contracts/ShadowChef.sol\":15168:15279  pool.totalBoostedShare = pool.totalBoostedShare > boostedAmount ? pool.totalBoostedShare.sub(boostedAmount) : 0 */\n      dup2\n      swap1\n      sstore\n      pop\n        /* \"contracts/ShadowChef.sol\":15360:15406  lpToken[_pid].safeTransfer(msg.sender, amount) */\n      tag_336\n        /* \"contracts/ShadowChef.sol\":15387:15397  msg.sender */\n      caller\n        /* \"contracts/ShadowChef.sol\":15399:15405  amount */\n      dup4\n        /* \"contracts/ShadowChef.sol\":15360:15367  lpToken */\n      0x05\n        /* \"contracts/ShadowChef.sol\":15368:15372  _pid */\n      dup9\n        /* \"contracts/ShadowChef.sol\":15360:15373  lpToken[_pid] */\n      dup2\n      sload\n      dup2\n      lt\n      tag_289\n      jumpi\n      invalid\n        /* \"contracts/ShadowChef.sol\":15360:15406  lpToken[_pid].safeTransfer(msg.sender, amount) */\n    tag_336:\n        /* \"contracts/ShadowChef.sol\":15452:15456  _pid */\n      dup5\n        /* \"contracts/ShadowChef.sol\":15440:15450  msg.sender */\n      caller\n        /* \"contracts/ShadowChef.sol\":15422:15465  EmergencyWithdraw(msg.sender, _pid, amount) */\n      0xffffffffffffffffffffffffffffffffffffffff\n      and\n      0xbb757047c2b5f3974fe26b7c10f732e7bce710b0952a71082702781e62ae0595\n        /* \"contracts/ShadowChef.sol\":15458:15464  amount */\n      dup5\n        /* \"contracts/ShadowChef.sol\":15422:15465  EmergencyWithdraw(msg.sender, _pid, amount) */\n      mload(0x40)\n      tag_303\n      swap2\n      swap1\n      tag_61\n      jump\t// in\n        /* \"contracts/ShadowChef.sol\":9967:10258  function massUpdatePools() public {\r... */\n    tag_111:\n        /* \"contracts/ShadowChef.sol\":10029:10037  poolInfo */\n      0x04\n        /* \"contracts/ShadowChef.sol\":10029:10044  poolInfo.length */\n      sload\n        /* \"contracts/ShadowChef.sol\":10012:10026  uint256 length */\n      0x00\n        /* \"contracts/ShadowChef.sol\":10055:10251  for (uint256 pid = 0; pid < length; ++pid) {\r... */\n    tag_341:\n        /* \"contracts/ShadowChef.sol\":10083:10089  length */\n      dup2\n        /* \"contracts/ShadowChef.sol\":10077:10080  pid */\n      dup2\n        /* \"contracts/ShadowChef.sol\":10077:10089  pid < length */\n      lt\n        /* \"contracts/ShadowChef.sol\":10055:10251  for (uint256 pid = 0; pid < length; ++pid) {\r... */\n      iszero\n      tag_342\n      jumpi\n        /* \"contracts/ShadowChef.sol\":10113:10133  PoolInfo memory pool */\n      tag_344\n      tag_222\n      jump\t// in\n    tag_344:\n        /* \"contracts/ShadowChef.sol\":10136:10144  poolInfo */\n      0x04\n        /* \"contracts/ShadowChef.sol\":10145:10148  pid */\n      dup3\n        /* \"contracts/ShadowChef.sol\":10136:10149  poolInfo[pid] */\n      dup2\n      sload\n      dup2\n      lt\n      tag_345\n      jumpi\n      invalid\n    tag_345:\n      0x00\n      swap2\n      dup3\n      mstore\n      0x20\n      swap2\n      dup3\n      swap1\n      keccak256\n        /* \"contracts/ShadowChef.sol\":10113:10149  PoolInfo memory pool = poolInfo[pid] */\n      0x40\n      dup1\n      mload\n      0xa0\n      dup2\n      add\n      dup3\n      mstore\n        /* \"contracts/ShadowChef.sol\":10136:10149  poolInfo[pid] */\n      0x05\n      swap1\n      swap4\n      mul\n      swap1\n      swap2\n      add\n        /* \"contracts/ShadowChef.sol\":10113:10149  PoolInfo memory pool = poolInfo[pid] */\n      dup1\n      sload\n      dup4\n      mstore\n      0x01\n      dup2\n      add\n      sload\n      swap4\n      dup4\n      add\n      swap4\n      swap1\n      swap4\n      mstore\n      0x02\n      dup4\n      add\n      sload\n      swap1\n      dup3\n      add\n      dup2\n      swap1\n      mstore\n      0x03\n      dup4\n      add\n      sload\n      0x60\n      dup4\n      add\n      mstore\n      0x04\n      swap1\n      swap3\n      add\n      sload\n      0xff\n      and\n      iszero\n      iszero\n      0x80\n      dup3\n      add\n      mstore\n      swap2\n      pop\n        /* \"contracts/ShadowChef.sol\":10168:10188  pool.allocPoint != 0 */\n      iszero\n        /* \"contracts/ShadowChef.sol\":10164:10240  if (pool.allocPoint != 0) {\r... */\n      tag_347\n      jumpi\n        /* \"contracts/ShadowChef.sol\":10209:10224  updatePool(pid) */\n      tag_348\n        /* \"contracts/ShadowChef.sol\":10220:10223  pid */\n      dup3\n        /* \"contracts/ShadowChef.sol\":10209:10219  updatePool */\n      tag_104\n        /* \"contracts/ShadowChef.sol\":10209:10224  updatePool(pid) */\n      jump\t// in\n    tag_348:\n      pop\n        /* \"contracts/ShadowChef.sol\":10164:10240  if (pool.allocPoint != 0) {\r... */\n    tag_347:\n      pop\n        /* \"contracts/ShadowChef.sol\":10091:10096  ++pid */\n      0x01\n      add\n        /* \"contracts/ShadowChef.sol\":10055:10251  for (uint256 pid = 0; pid < length; ++pid) {\r... */\n      jump(tag_341)\n    tag_342:\n      pop\n        /* \"contracts/ShadowChef.sol\":9967:10258  function massUpdatePools() public {\r... */\n      pop\n      jump\t// out\n        /* \"contracts/ShadowChef.sol\":7995:8725  function set(\r... */\n    tag_115:\n        /* \"contracts/access/Ownable.sol\":1322:1334  _msgSender() */\n      tag_350\n        /* \"contracts/access/Ownable.sol\":1322:1332  _msgSender */\n      tag_247\n        /* \"contracts/access/Ownable.sol\":1322:1334  _msgSender() */\n      jump\t// in\n    tag_350:\n        /* \"contracts/access/Ownable.sol\":1312:1318  _owner */\n      sload(0x00)\n        /* \"contracts/access/Ownable.sol\":1312:1334  _owner == _msgSender() */\n      0xffffffffffffffffffffffffffffffffffffffff\n        /* \"contracts/access/Ownable.sol\":1312:1318  _owner */\n      swap1\n      dup2\n      and\n        /* \"contracts/access/Ownable.sol\":1312:1334  _owner == _msgSender() */\n      swap2\n      and\n      eq\n        /* \"contracts/access/Ownable.sol\":1304:1371  require(_owner == _msgSender(), \"Ownable: caller is not the owner\") */\n      tag_351\n      jumpi\n      mload(0x40)\n      0x08c379a000000000000000000000000000000000000000000000000000000000\n      dup2\n      mstore\n      0x04\n      add\n      tag_202\n      swap1\n      tag_250\n      jump\t// in\n    tag_351:\n        /* \"contracts/ShadowChef.sol\":8244:8260  updatePool(_pid) */\n      tag_354\n        /* \"contracts/ShadowChef.sol\":8255:8259  _pid */\n      dup4\n        /* \"contracts/ShadowChef.sol\":8244:8254  updatePool */\n      tag_104\n        /* \"contracts/ShadowChef.sol\":8244:8260  updatePool(_pid) */\n      jump\t// in\n    tag_354:\n      pop\n        /* \"contracts/ShadowChef.sol\":8277:8288  _withUpdate */\n      dup1\n        /* \"contracts/ShadowChef.sol\":8273:8334  if (_withUpdate) {\r... */\n      iszero\n      tag_356\n      jumpi\n        /* \"contracts/ShadowChef.sol\":8305:8322  massUpdatePools() */\n      tag_356\n        /* \"contracts/ShadowChef.sol\":8305:8320  massUpdatePools */\n      tag_111\n        /* \"contracts/ShadowChef.sol\":8305:8322  massUpdatePools() */\n      jump\t// in\n    tag_356:\n        /* \"contracts/ShadowChef.sol\":8350:8358  poolInfo */\n      0x04\n        /* \"contracts/ShadowChef.sol\":8359:8363  _pid */\n      dup4\n        /* \"contracts/ShadowChef.sol\":8350:8364  poolInfo[_pid] */\n      dup2\n      sload\n      dup2\n      lt\n      tag_357\n      jumpi\n      invalid\n    tag_357:\n      0x00\n      swap2\n      dup3\n      mstore\n      0x20\n      swap1\n      swap2\n      keccak256\n        /* \"contracts/ShadowChef.sol\":8350:8374  poolInfo[_pid].isRegular */\n      0x04\n        /* \"contracts/ShadowChef.sol\":8350:8364  poolInfo[_pid] */\n      0x05\n      swap1\n      swap3\n      mul\n      add\n        /* \"contracts/ShadowChef.sol\":8350:8374  poolInfo[_pid].isRegular */\n      add\n      sload\n      0xff\n      and\n        /* \"contracts/ShadowChef.sol\":8346:8626  if (poolInfo[_pid].isRegular) {\r... */\n      iszero\n      tag_359\n      jumpi\n        /* \"contracts/ShadowChef.sol\":8416:8486  totalRegularAllocPoint.sub(poolInfo[_pid].allocPoint).add(_allocPoint) */\n      tag_360\n        /* \"contracts/ShadowChef.sol\":8474:8485  _allocPoint */\n      dup3\n        /* \"contracts/ShadowChef.sol\":8416:8469  totalRegularAllocPoint.sub(poolInfo[_pid].allocPoint) */\n      tag_236\n        /* \"contracts/ShadowChef.sol\":8443:8451  poolInfo */\n      0x04\n        /* \"contracts/ShadowChef.sol\":8452:8456  _pid */\n      dup7\n        /* \"contracts/ShadowChef.sol\":8443:8457  poolInfo[_pid] */\n      dup2\n      sload\n      dup2\n      lt\n      tag_362\n      jumpi\n      invalid\n    tag_362:\n      swap1\n      0x00\n      mstore\n      keccak256(0x00, 0x20)\n      swap1\n      0x05\n      mul\n      add\n        /* \"contracts/ShadowChef.sol\":8443:8468  poolInfo[_pid].allocPoint */\n      0x02\n      add\n      sload\n        /* \"contracts/ShadowChef.sol\":8416:8438  totalRegularAllocPoint */\n      sload(0x08)\n        /* \"contracts/ShadowChef.sol\":8416:8442  totalRegularAllocPoint.sub */\n      tag_239\n      swap1\n        /* \"contracts/ShadowChef.sol\":8416:8469  totalRegularAllocPoint.sub(poolInfo[_pid].allocPoint) */\n      swap2\n      swap1\n      0xffffffff\n      and\n      jump\t// in\n        /* \"contracts/ShadowChef.sol\":8416:8486  totalRegularAllocPoint.sub(poolInfo[_pid].allocPoint).add(_allocPoint) */\n    tag_360:\n        /* \"contracts/ShadowChef.sol\":8391:8413  totalRegularAllocPoint */\n      0x08\n        /* \"contracts/ShadowChef.sol\":8391:8486  totalRegularAllocPoint = totalRegularAllocPoint.sub(poolInfo[_pid].allocPoint).add(_allocPoint) */\n      sstore\n        /* \"contracts/ShadowChef.sol\":8346:8626  if (poolInfo[_pid].isRegular) {\r... */\n      jump(tag_364)\n    tag_359:\n        /* \"contracts/ShadowChef.sol\":8544:8614  totalSpecialAllocPoint.sub(poolInfo[_pid].allocPoint).add(_allocPoint) */\n      tag_365\n        /* \"contracts/ShadowChef.sol\":8602:8613  _allocPoint */\n      dup3\n        /* \"contracts/ShadowChef.sol\":8544:8597  totalSpecialAllocPoint.sub(poolInfo[_pid].allocPoint) */\n      tag_236\n        /* \"contracts/ShadowChef.sol\":8571:8579  poolInfo */\n      0x04\n        /* \"contracts/ShadowChef.sol\":8580:8584  _pid */\n      dup7\n        /* \"contracts/ShadowChef.sol\":8571:8585  poolInfo[_pid] */\n      dup2\n      sload\n      dup2\n      lt\n      tag_367\n      jumpi\n      invalid\n    tag_367:\n      swap1\n      0x00\n      mstore\n      keccak256(0x00, 0x20)\n      swap1\n      0x05\n      mul\n      add\n        /* \"contracts/ShadowChef.sol\":8571:8596  poolInfo[_pid].allocPoint */\n      0x02\n      add\n      sload\n        /* \"contracts/ShadowChef.sol\":8544:8566  totalSpecialAllocPoint */\n      sload(0x09)\n        /* \"contracts/ShadowChef.sol\":8544:8570  totalSpecialAllocPoint.sub */\n      tag_239\n      swap1\n        /* \"contracts/ShadowChef.sol\":8544:8597  totalSpecialAllocPoint.sub(poolInfo[_pid].allocPoint) */\n      swap2\n      swap1\n      0xffffffff\n      and\n      jump\t// in\n        /* \"contracts/ShadowChef.sol\":8544:8614  totalSpecialAllocPoint.sub(poolInfo[_pid].allocPoint).add(_allocPoint) */\n    tag_365:\n        /* \"contracts/ShadowChef.sol\":8519:8541  totalSpecialAllocPoint */\n      0x09\n        /* \"contracts/ShadowChef.sol\":8519:8614  totalSpecialAllocPoint = totalSpecialAllocPoint.sub(poolInfo[_pid].allocPoint).add(_allocPoint) */\n      sstore\n        /* \"contracts/ShadowChef.sol\":8346:8626  if (poolInfo[_pid].isRegular) {\r... */\n    tag_364:\n        /* \"contracts/ShadowChef.sol\":8664:8675  _allocPoint */\n      dup2\n        /* \"contracts/ShadowChef.sol\":8636:8644  poolInfo */\n      0x04\n        /* \"contracts/ShadowChef.sol\":8645:8649  _pid */\n      dup5\n        /* \"contracts/ShadowChef.sol\":8636:8650  poolInfo[_pid] */\n      dup2\n      sload\n      dup2\n      lt\n      tag_369\n      jumpi\n      invalid\n    tag_369:\n      swap1\n      0x00\n      mstore\n      keccak256(0x00, 0x20)\n      swap1\n      0x05\n      mul\n      add\n        /* \"contracts/ShadowChef.sol\":8636:8661  poolInfo[_pid].allocPoint */\n      0x02\n      add\n        /* \"contracts/ShadowChef.sol\":8636:8675  poolInfo[_pid].allocPoint = _allocPoint */\n      dup2\n      swap1\n      sstore\n      pop\n        /* \"contracts/ShadowChef.sol\":8699:8703  _pid */\n      dup3\n        /* \"contracts/ShadowChef.sol\":8691:8717  SetPool(_pid, _allocPoint) */\n      0xc0cfd54d2de2b55f1e6e108d3ec53ff0a1abe6055401d32c61e9433b747ef9f8\n        /* \"contracts/ShadowChef.sol\":8705:8716  _allocPoint */\n      dup4\n        /* \"contracts/ShadowChef.sol\":8691:8717  SetPool(_pid, _allocPoint) */\n      mload(0x40)\n      tag_371\n      swap2\n      swap1\n      tag_61\n      jump\t// in\n    tag_371:\n      mload(0x40)\n      dup1\n      swap2\n      sub\n      swap1\n      log2\n        /* \"contracts/ShadowChef.sol\":7995:8725  function set(\r... */\n      pop\n      pop\n      pop\n      jump\t// out\n        /* \"contracts/ShadowChef.sol\":4108:4151  uint256 public shdwRateToBurn = 50000000000 */\n    tag_117:\n      sload(0x0a)\n      dup2\n      jump\t// out\n        /* \"contracts/ShadowChef.sol\":3797:3853  uint256 public constant MAX_BOOST_PRECISION = 200 * 1e10 */\n    tag_120:\n        /* \"contracts/ShadowChef.sol\":3843:3853  200 * 1e10 */\n      0x01d1a94a2000\n        /* \"contracts/ShadowChef.sol\":3797:3853  uint256 public constant MAX_BOOST_PRECISION = 200 * 1e10 */\n      dup2\n      jump\t// out\n        /* \"contracts/ShadowChef.sol\":4326:4377  uint256 public shdwRateToSpecialFarm = 700000000000 */\n    tag_123:\n      sload(0x0c)\n      dup2\n      jump\t// out\n        /* \"contracts/access/Ownable.sol\":1742:1890  function renounceOwnership() public virtual onlyOwner {\r... */\n    tag_126:\n        /* \"contracts/access/Ownable.sol\":1322:1334  _msgSender() */\n      tag_373\n        /* \"contracts/access/Ownable.sol\":1322:1332  _msgSender */\n      tag_247\n        /* \"contracts/access/Ownable.sol\":1322:1334  _msgSender() */\n      jump\t// in\n    tag_373:\n        /* \"contracts/access/Ownable.sol\":1312:1318  _owner */\n      sload(0x00)\n        /* \"contracts/access/Ownable.sol\":1312:1334  _owner == _msgSender() */\n      0xffffffffffffffffffffffffffffffffffffffff\n        /* \"contracts/access/Ownable.sol\":1312:1318  _owner */\n      swap1\n      dup2\n      and\n        /* \"contracts/access/Ownable.sol\":1312:1334  _owner == _msgSender() */\n      swap2\n      and\n      eq\n        /* \"contracts/access/Ownable.sol\":1304:1371  require(_owner == _msgSender(), \"Ownable: caller is not the owner\") */\n      tag_374\n      jumpi\n      mload(0x40)\n      0x08c379a000000000000000000000000000000000000000000000000000000000\n      dup2\n      mstore\n      0x04\n      add\n      tag_202\n      swap1\n      tag_250\n      jump\t// in\n    tag_374:\n        /* \"contracts/access/Ownable.sol\":1849:1850  0 */\n      0x00\n        /* \"contracts/access/Ownable.sol\":1833:1839  _owner */\n      dup1\n      sload\n        /* \"contracts/access/Ownable.sol\":1812:1852  OwnershipTransferred(_owner, address(0)) */\n      mload(0x40)\n      0xffffffffffffffffffffffffffffffffffffffff\n        /* \"contracts/access/Ownable.sol\":1833:1839  _owner */\n      swap1\n      swap2\n      and\n      swap1\n        /* \"contracts/access/Ownable.sol\":1812:1852  OwnershipTransferred(_owner, address(0)) */\n      0x8be0079c531659141344cd1fd0a4f28419497f9722a3daafe3b4186f6b6457e0\n      swap1\n        /* \"contracts/access/Ownable.sol\":1849:1850  0 */\n      dup4\n      swap1\n        /* \"contracts/access/Ownable.sol\":1812:1852  OwnershipTransferred(_owner, address(0)) */\n      log3\n        /* \"contracts/access/Ownable.sol\":1880:1881  0 */\n      0x00\n        /* \"contracts/access/Ownable.sol\":1863:1882  _owner = address(0) */\n      dup1\n      sload\n      0xffffffffffffffffffffffff0000000000000000000000000000000000000000\n      and\n      swap1\n      sstore\n        /* \"contracts/access/Ownable.sol\":1742:1890  function renounceOwnership() public virtual onlyOwner {\r... */\n      jump\t// out\n        /* \"contracts/ShadowChef.sol\":4386:4416  uint256 public lastBurnedBlock */\n    tag_128:\n      sload(0x0d)\n      dup2\n      jump\t// out\n        /* \"contracts/ShadowChef.sol\":2826:2849  IBEP20[] public lpToken */\n    tag_132:\n      0x05\n      dup2\n      dup2\n      sload\n      dup2\n      lt\n      tag_377\n      jumpi\n      invalid\n    tag_377:\n      0x00\n      swap2\n      dup3\n      mstore\n      0x20\n      swap1\n      swap2\n      keccak256\n      add\n      sload\n      0xffffffffffffffffffffffffffffffffffffffff\n      and\n      swap1\n      pop\n      dup2\n      jump\t// out\n        /* \"contracts/ShadowChef.sol\":16397:17299  function updateShdwRate(\r... */\n    tag_137:\n        /* \"contracts/access/Ownable.sol\":1322:1334  _msgSender() */\n      tag_380\n        /* \"contracts/access/Ownable.sol\":1322:1332  _msgSender */\n      tag_247\n        /* \"contracts/access/Ownable.sol\":1322:1334  _msgSender() */\n      jump\t// in\n    tag_380:\n        /* \"contracts/access/Ownable.sol\":1312:1318  _owner */\n      sload(0x00)\n        /* \"contracts/access/Ownable.sol\":1312:1334  _owner == _msgSender() */\n      0xffffffffffffffffffffffffffffffffffffffff\n        /* \"contracts/access/Ownable.sol\":1312:1318  _owner */\n      swap1\n      dup2\n      and\n        /* \"contracts/access/Ownable.sol\":1312:1334  _owner == _msgSender() */\n      swap2\n      and\n      eq\n        /* \"contracts/access/Ownable.sol\":1304:1371  require(_owner == _msgSender(), \"Ownable: caller is not the owner\") */\n      tag_381\n      jumpi\n      mload(0x40)\n      0x08c379a000000000000000000000000000000000000000000000000000000000\n      dup2\n      mstore\n      0x04\n      add\n      tag_202\n      swap1\n      tag_250\n      jump\t// in\n    tag_381:\n        /* \"contracts/ShadowChef.sol\":16617:16618  0 */\n      0x00\n        /* \"contracts/ShadowChef.sol\":16605:16614  _burnRate */\n      dup5\n        /* \"contracts/ShadowChef.sol\":16605:16618  _burnRate > 0 */\n      gt\n        /* \"contracts/ShadowChef.sol\":16605:16642  _burnRate > 0 && _regularFarmRate > 0 */\n      dup1\n      iszero\n      tag_384\n      jumpi\n      pop\n        /* \"contracts/ShadowChef.sol\":16641:16642  0 */\n      0x00\n        /* \"contracts/ShadowChef.sol\":16622:16638  _regularFarmRate */\n      dup4\n        /* \"contracts/ShadowChef.sol\":16622:16642  _regularFarmRate > 0 */\n      gt\n        /* \"contracts/ShadowChef.sol\":16605:16642  _burnRate > 0 && _regularFarmRate > 0 */\n    tag_384:\n        /* \"contracts/ShadowChef.sol\":16605:16666  _burnRate > 0 && _regularFarmRate > 0 && _specialFarmRate > 0 */\n      dup1\n      iszero\n      tag_385\n      jumpi\n      pop\n        /* \"contracts/ShadowChef.sol\":16665:16666  0 */\n      0x00\n        /* \"contracts/ShadowChef.sol\":16646:16662  _specialFarmRate */\n      dup3\n        /* \"contracts/ShadowChef.sol\":16646:16666  _specialFarmRate > 0 */\n      gt\n        /* \"contracts/ShadowChef.sol\":16605:16666  _burnRate > 0 && _regularFarmRate > 0 && _specialFarmRate > 0 */\n    tag_385:\n        /* \"contracts/ShadowChef.sol\":16583:16740  require(\r... */\n      tag_386\n      jumpi\n      mload(0x40)\n      0x08c379a000000000000000000000000000000000000000000000000000000000\n      dup2\n      mstore\n      0x04\n      add\n      tag_202\n      swap1\n      tag_388\n      jump\t// in\n    tag_386:\n        /* \"contracts/ShadowChef.sol\":3978:3982  1e12 */\n      0xe8d4a51000\n        /* \"contracts/ShadowChef.sol\":16773:16826  _burnRate.add(_regularFarmRate).add(_specialFarmRate) */\n      tag_389\n        /* \"contracts/ShadowChef.sol\":16809:16825  _specialFarmRate */\n      dup4\n        /* \"contracts/ShadowChef.sol\":16773:16804  _burnRate.add(_regularFarmRate) */\n      tag_236\n        /* \"contracts/ShadowChef.sol\":16773:16782  _burnRate */\n      dup8\n        /* \"contracts/ShadowChef.sol\":16787:16803  _regularFarmRate */\n      dup8\n        /* \"contracts/ShadowChef.sol\":16773:16786  _burnRate.add */\n      tag_240\n        /* \"contracts/ShadowChef.sol\":16773:16804  _burnRate.add(_regularFarmRate) */\n      jump\t// in\n        /* \"contracts/ShadowChef.sol\":16773:16826  _burnRate.add(_regularFarmRate).add(_specialFarmRate) */\n    tag_389:\n        /* \"contracts/ShadowChef.sol\":16773:16855  _burnRate.add(_regularFarmRate).add(_specialFarmRate) == SHDW_RATE_TOTAL_PRECISION */\n      eq\n        /* \"contracts/ShadowChef.sol\":16751:16920  require(\r... */\n      tag_391\n      jumpi\n      mload(0x40)\n      0x08c379a000000000000000000000000000000000000000000000000000000000\n      dup2\n      mstore\n      0x04\n      add\n      tag_202\n      swap1\n      tag_393\n      jump\t// in\n    tag_391:\n        /* \"contracts/ShadowChef.sol\":16935:16946  _withUpdate */\n      dup1\n        /* \"contracts/ShadowChef.sol\":16931:16992  if (_withUpdate) {\r... */\n      iszero\n      tag_395\n      jumpi\n        /* \"contracts/ShadowChef.sol\":16963:16980  massUpdatePools() */\n      tag_395\n        /* \"contracts/ShadowChef.sol\":16963:16978  massUpdatePools */\n      tag_111\n        /* \"contracts/ShadowChef.sol\":16963:16980  massUpdatePools() */\n      jump\t// in\n    tag_395:\n        /* \"contracts/ShadowChef.sol\":17051:17066  burnShdw(false) */\n      tag_396\n        /* \"contracts/ShadowChef.sol\":17060:17065  false */\n      0x00\n        /* \"contracts/ShadowChef.sol\":17051:17059  burnShdw */\n      tag_92\n        /* \"contracts/ShadowChef.sol\":17051:17066  burnShdw(false) */\n      jump\t// in\n    tag_396:\n        /* \"contracts/ShadowChef.sol\":17079:17093  shdwRateToBurn */\n      0x0a\n        /* \"contracts/ShadowChef.sol\":17079:17105  shdwRateToBurn = _burnRate */\n      dup5\n      swap1\n      sstore\n        /* \"contracts/ShadowChef.sol\":17116:17137  shdwRateToRegularFarm */\n      0x0b\n        /* \"contracts/ShadowChef.sol\":17116:17156  shdwRateToRegularFarm = _regularFarmRate */\n      dup4\n      swap1\n      sstore\n        /* \"contracts/ShadowChef.sol\":17167:17188  shdwRateToSpecialFarm */\n      0x0c\n        /* \"contracts/ShadowChef.sol\":17167:17207  shdwRateToSpecialFarm = _specialFarmRate */\n      dup3\n      swap1\n      sstore\n        /* \"contracts/ShadowChef.sol\":17225:17291  EventUpdateShdwRate(_burnRate, _regularFarmRate, _specialFarmRate) */\n      mload(0x40)\n      0x49f805c5fed16b2296163d4fd1958b1961efe39fef41cbb4b981aaa3d80d22d2\n      swap1\n      tag_397\n      swap1\n        /* \"contracts/ShadowChef.sol\":17096:17105  _burnRate */\n      dup7\n      swap1\n        /* \"contracts/ShadowChef.sol\":17140:17156  _regularFarmRate */\n      dup7\n      swap1\n        /* \"contracts/ShadowChef.sol\":17191:17207  _specialFarmRate */\n      dup7\n      swap1\n        /* \"contracts/ShadowChef.sol\":17225:17291  EventUpdateShdwRate(_burnRate, _regularFarmRate, _specialFarmRate) */\n      tag_150\n      jump\t// in\n    tag_397:\n      mload(0x40)\n      dup1\n      swap2\n      sub\n      swap1\n      log1\n        /* \"contracts/ShadowChef.sol\":16397:17299  function updateShdwRate(\r... */\n      pop\n      pop\n      pop\n      pop\n      jump\t// out\n        /* \"contracts/ShadowChef.sol\":2567:2591  address public burnAdmin */\n    tag_139:\n      and(0xffffffffffffffffffffffffffffffffffffffff, sload(0x02))\n      dup2\n      jump\t// out\n        /* \"contracts/access/Ownable.sol\":1100:1179  function owner() public view returns (address) {\r... */\n    tag_143:\n        /* \"contracts/access/Ownable.sol\":1138:1145  address */\n      0x00\n        /* \"contracts/access/Ownable.sol\":1165:1171  _owner */\n      sload\n      0xffffffffffffffffffffffffffffffffffffffff\n      and\n        /* \"contracts/access/Ownable.sol\":1100:1179  function owner() public view returns (address) {\r... */\n      swap1\n      jump\t// out\n        /* \"contracts/ShadowChef.sol\":2899:2963  mapping(uint256 => mapping(address => UserInfo)) public userInfo */\n    tag_148:\n      0x06\n      0x20\n      swap1\n      dup2\n      mstore\n      0x00\n      swap3\n      dup4\n      mstore\n      0x40\n      dup1\n      dup5\n      keccak256\n      swap1\n      swap2\n      mstore\n      swap1\n      dup3\n      mstore\n      swap1\n      keccak256\n      dup1\n      sload\n      0x01\n      dup3\n      add\n      sload\n      0x02\n      swap1\n      swap3\n      add\n      sload\n      swap1\n      swap2\n      swap1\n      dup4\n      jump\t// out\n        /* \"contracts/ShadowChef.sol\":3359:3396  uint256 public totalSpecialAllocPoint */\n    tag_152:\n      sload(0x09)\n      dup2\n      jump\t// out\n        /* \"contracts/ShadowChef.sol\":18408:18775  function updateBoostContract(address _newBoostContract) external onlyOwner {\r... */\n    tag_156:\n        /* \"contracts/access/Ownable.sol\":1322:1334  _msgSender() */\n      tag_400\n        /* \"contracts/access/Ownable.sol\":1322:1332  _msgSender */\n      tag_247\n        /* \"contracts/access/Ownable.sol\":1322:1334  _msgSender() */\n      jump\t// in\n    tag_400:\n        /* \"contracts/access/Ownable.sol\":1312:1318  _owner */\n      sload(0x00)\n        /* \"contracts/access/Ownable.sol\":1312:1334  _owner == _msgSender() */\n      0xffffffffffffffffffffffffffffffffffffffff\n        /* \"contracts/access/Ownable.sol\":1312:1318  _owner */\n      swap1\n      dup2\n      and\n        /* \"contracts/access/Ownable.sol\":1312:1334  _owner == _msgSender() */\n      swap2\n      and\n      eq\n        /* \"contracts/access/Ownable.sol\":1304:1371  require(_owner == _msgSender(), \"Ownable: caller is not the owner\") */\n      tag_401\n      jumpi\n      mload(0x40)\n      0x08c379a000000000000000000000000000000000000000000000000000000000\n      dup2\n      mstore\n      0x04\n      add\n      tag_202\n      swap1\n      tag_250\n      jump\t// in\n    tag_401:\n        /* \"contracts/ShadowChef.sol\":18516:18547  _newBoostContract != address(0) */\n      0xffffffffffffffffffffffffffffffffffffffff\n      dup2\n      and\n      iszero\n      dup1\n      iszero\n      swap1\n        /* \"contracts/ShadowChef.sol\":18516:18585  _newBoostContract != address(0) && _newBoostContract != boostContract */\n      tag_404\n      jumpi\n      pop\n        /* \"contracts/ShadowChef.sol\":18572:18585  boostContract */\n      sload(0x03)\n      0xffffffffffffffffffffffffffffffffffffffff\n        /* \"contracts/ShadowChef.sol\":18551:18585  _newBoostContract != boostContract */\n      dup3\n      dup2\n      and\n        /* \"contracts/ShadowChef.sol\":18572:18585  boostContract */\n      swap2\n      and\n        /* \"contracts/ShadowChef.sol\":18551:18585  _newBoostContract != boostContract */\n      eq\n      iszero\n        /* \"contracts/ShadowChef.sol\":18516:18585  _newBoostContract != address(0) && _newBoostContract != boostContract */\n    tag_404:\n        /* \"contracts/ShadowChef.sol\":18494:18667  require(\r... */\n      tag_405\n      jumpi\n      mload(0x40)\n      0x08c379a000000000000000000000000000000000000000000000000000000000\n      dup2\n      mstore\n      0x04\n      add\n      tag_202\n      swap1\n      tag_407\n      jump\t// in\n    tag_405:\n        /* \"contracts/ShadowChef.sol\":18680:18693  boostContract */\n      0x03\n        /* \"contracts/ShadowChef.sol\":18680:18713  boostContract = _newBoostContract */\n      dup1\n      sload\n      0xffffffffffffffffffffffff0000000000000000000000000000000000000000\n      and\n      0xffffffffffffffffffffffffffffffffffffffff\n      dup4\n      and\n      swap1\n      dup2\n      or\n      swap1\n      swap2\n      sstore\n        /* \"contracts/ShadowChef.sol\":18729:18767  UpdateBoostContract(_newBoostContract) */\n      mload(0x40)\n      0x4c0c07d0b548b824a1b998eb4d11fccf1cfbc1e47edcdb309970ba88315eb303\n      swap1\n      0x00\n      swap1\n      log2\n        /* \"contracts/ShadowChef.sol\":18408:18775  function updateBoostContract(address _newBoostContract) external onlyOwner {\r... */\n      pop\n      jump\t// out\n        /* \"contracts/ShadowChef.sol\":17983:18246  function updateWhiteList(address _user, bool _isValid) external onlyOwner {\r... */\n    tag_160:\n        /* \"contracts/access/Ownable.sol\":1322:1334  _msgSender() */\n      tag_409\n        /* \"contracts/access/Ownable.sol\":1322:1332  _msgSender */\n      tag_247\n        /* \"contracts/access/Ownable.sol\":1322:1334  _msgSender() */\n      jump\t// in\n    tag_409:\n        /* \"contracts/access/Ownable.sol\":1312:1318  _owner */\n      sload(0x00)\n        /* \"contracts/access/Ownable.sol\":1312:1334  _owner == _msgSender() */\n      0xffffffffffffffffffffffffffffffffffffffff\n        /* \"contracts/access/Ownable.sol\":1312:1318  _owner */\n      swap1\n      dup2\n      and\n        /* \"contracts/access/Ownable.sol\":1312:1334  _owner == _msgSender() */\n      swap2\n      and\n      eq\n        /* \"contracts/access/Ownable.sol\":1304:1371  require(_owner == _msgSender(), \"Ownable: caller is not the owner\") */\n      tag_410\n      jumpi\n      mload(0x40)\n      0x08c379a000000000000000000000000000000000000000000000000000000000\n      dup2\n      mstore\n      0x04\n      add\n      tag_202\n      swap1\n      tag_250\n      jump\t// in\n    tag_410:\n        /* \"contracts/ShadowChef.sol\":18076:18095  _user != address(0) */\n      0xffffffffffffffffffffffffffffffffffffffff\n      dup3\n      and\n        /* \"contracts/ShadowChef.sol\":18068:18150  require(_user != address(0), \"ShadowChefV2: The white list address must be valid\") */\n      tag_413\n      jumpi\n      mload(0x40)\n      0x08c379a000000000000000000000000000000000000000000000000000000000\n      dup2\n      mstore\n      0x04\n      add\n      tag_202\n      swap1\n      tag_415\n      jump\t// in\n    tag_413:\n        /* \"contracts/ShadowChef.sol\":18163:18179  whiteList[_user] */\n      0xffffffffffffffffffffffffffffffffffffffff\n      dup3\n      and\n      0x00\n      dup2\n      dup2\n      mstore\n        /* \"contracts/ShadowChef.sol\":18163:18172  whiteList */\n      0x07\n        /* \"contracts/ShadowChef.sol\":18163:18179  whiteList[_user] */\n      0x20\n      mstore\n      0x40\n      swap1\n      dup2\n      swap1\n      keccak256\n        /* \"contracts/ShadowChef.sol\":18163:18190  whiteList[_user] = _isValid */\n      dup1\n      sload\n      0xffffffffffffffffffffffffffffffffffffffffffffffffffffffffffffff00\n      and\n      dup5\n      iszero\n      iszero\n      or\n      swap1\n      sstore\n        /* \"contracts/ShadowChef.sol\":18206:18238  UpdateWhiteList(_user, _isValid) */\n      mload\n      0xc551bbb22d0406dbfb8b6b7740cc521bcf44e1106029cf899c19b6a8e4c99d51\n      swap1\n      tag_416\n      swap1\n        /* \"contracts/ShadowChef.sol\":18163:18190  whiteList[_user] = _isValid */\n      dup5\n      swap1\n        /* \"contracts/ShadowChef.sol\":18206:18238  UpdateWhiteList(_user, _isValid) */\n      tag_97\n      jump\t// in\n    tag_416:\n      mload(0x40)\n      dup1\n      swap2\n      sub\n      swap1\n      log2\n        /* \"contracts/ShadowChef.sol\":17983:18246  function updateWhiteList(address _user, bool _isValid) external onlyOwner {\r... */\n      pop\n      pop\n      jump\t// out\n        /* \"contracts/ShadowChef.sol\":3208:3245  uint256 public totalRegularAllocPoint */\n    tag_162:\n      sload(0x08)\n      dup2\n      jump\t// out\n        /* \"contracts/ShadowChef.sol\":6579:7689  function add(\r... */\n    tag_167:\n        /* \"contracts/access/Ownable.sol\":1322:1334  _msgSender() */\n      tag_418\n        /* \"contracts/access/Ownable.sol\":1322:1332  _msgSender */\n      tag_247\n        /* \"contracts/access/Ownable.sol\":1322:1334  _msgSender() */\n      jump\t// in\n    tag_418:\n        /* \"contracts/access/Ownable.sol\":1312:1318  _owner */\n      sload(0x00)\n        /* \"contracts/access/Ownable.sol\":1312:1334  _owner == _msgSender() */\n      0xffffffffffffffffffffffffffffffffffffffff\n        /* \"contracts/access/Ownable.sol\":1312:1318  _owner */\n      swap1\n      dup2\n      and\n        /* \"contracts/access/Ownable.sol\":1312:1334  _owner == _msgSender() */\n      swap2\n      and\n      eq\n        /* \"contracts/access/Ownable.sol\":1304:1371  require(_owner == _msgSender(), \"Ownable: caller is not the owner\") */\n      tag_419\n      jumpi\n      mload(0x40)\n      0x08c379a000000000000000000000000000000000000000000000000000000000\n      dup2\n      mstore\n      0x04\n      add\n      tag_202\n      swap1\n      tag_250\n      jump\t// in\n    tag_419:\n        /* \"contracts/ShadowChef.sol\":6746:6779  _lpToken.balanceOf(address(this)) */\n      mload(0x40)\n      0x70a0823100000000000000000000000000000000000000000000000000000000\n      dup2\n      mstore\n        /* \"contracts/ShadowChef.sol\":6783:6784  0 */\n      0x00\n      swap1\n        /* \"contracts/ShadowChef.sol\":6746:6764  _lpToken.balanceOf */\n      0xffffffffffffffffffffffffffffffffffffffff\n      dup6\n      and\n      swap1\n      0x70a08231\n      swap1\n        /* \"contracts/ShadowChef.sol\":6746:6779  _lpToken.balanceOf(address(this)) */\n      tag_422\n      swap1\n        /* \"contracts/ShadowChef.sol\":6773:6777  this */\n      address\n      swap1\n        /* \"contracts/ShadowChef.sol\":6746:6779  _lpToken.balanceOf(address(this)) */\n      0x04\n      add\n      tag_141\n      jump\t// in\n    tag_422:\n      0x20\n      mload(0x40)\n      dup1\n      dup4\n      sub\n      dup2\n      dup7\n      dup1\n      extcodesize\n      iszero\n      dup1\n      iszero\n      tag_423\n      jumpi\n      0x00\n      dup1\n      revert\n    tag_423:\n      pop\n      gas\n      staticcall\n      iszero\n      dup1\n      iszero\n      tag_425\n      jumpi\n      returndatasize\n      0x00\n      dup1\n      returndatacopy\n      revert(0x00, returndatasize)\n    tag_425:\n      pop\n      pop\n      pop\n      pop\n      mload(0x40)\n      returndatasize\n      not(0x1f)\n      0x1f\n      dup3\n      add\n      and\n      dup3\n      add\n      dup1\n      0x40\n      mstore\n      pop\n      dup2\n      add\n      swap1\n      tag_426\n      swap2\n      swap1\n      tag_427\n      jump\t// in\n    tag_426:\n        /* \"contracts/ShadowChef.sol\":6746:6784  _lpToken.balanceOf(address(this)) >= 0 */\n      lt\n      iszero\n        /* \"contracts/ShadowChef.sol\":6738:6806  require(_lpToken.balanceOf(address(this)) >= 0, \"None BEP20 tokens\") */\n      tag_428\n      jumpi\n      mload(0x40)\n      0x08c379a000000000000000000000000000000000000000000000000000000000\n      dup2\n      mstore\n      0x04\n      add\n      tag_202\n      swap1\n      tag_430\n      jump\t// in\n    tag_428:\n        /* \"contracts/ShadowChef.sol\":6991:6995  SHDW */\n      immutable(\"0xdb56024b3d6cde3a6cd02fd327b99549871e338b958b94e29cae4ab4619605ef\")\n        /* \"contracts/ShadowChef.sol\":6979:6995  _lpToken != SHDW */\n      0xffffffffffffffffffffffffffffffffffffffff\n      and\n        /* \"contracts/ShadowChef.sol\":6979:6987  _lpToken */\n      dup4\n        /* \"contracts/ShadowChef.sol\":6979:6995  _lpToken != SHDW */\n      0xffffffffffffffffffffffffffffffffffffffff\n      and\n      eq\n      iszero\n        /* \"contracts/ShadowChef.sol\":6971:7039  require(_lpToken != SHDW, \"SHDW token can't be added to farm pools\") */\n      tag_431\n      jumpi\n      mload(0x40)\n      0x08c379a000000000000000000000000000000000000000000000000000000000\n      dup2\n      mstore\n      0x04\n      add\n      tag_202\n      swap1\n      tag_433\n      jump\t// in\n    tag_431:\n        /* \"contracts/ShadowChef.sol\":7056:7067  _withUpdate */\n      dup1\n        /* \"contracts/ShadowChef.sol\":7052:7113  if (_withUpdate) {\r... */\n      iszero\n      tag_435\n      jumpi\n        /* \"contracts/ShadowChef.sol\":7084:7101  massUpdatePools() */\n      tag_435\n        /* \"contracts/ShadowChef.sol\":7084:7099  massUpdatePools */\n      tag_111\n        /* \"contracts/ShadowChef.sol\":7084:7101  massUpdatePools() */\n      jump\t// in\n    tag_435:\n        /* \"contracts/ShadowChef.sol\":7129:7139  _isRegular */\n      dup2\n        /* \"contracts/ShadowChef.sol\":7125:7329  if (_isRegular) {\r... */\n      iszero\n      tag_436\n      jumpi\n        /* \"contracts/ShadowChef.sol\":7181:7203  totalRegularAllocPoint */\n      sload(0x08)\n        /* \"contracts/ShadowChef.sol\":7181:7220  totalRegularAllocPoint.add(_allocPoint) */\n      tag_437\n      swap1\n        /* \"contracts/ShadowChef.sol\":7208:7219  _allocPoint */\n      dup6\n        /* \"contracts/ShadowChef.sol\":7181:7207  totalRegularAllocPoint.add */\n      tag_240\n        /* \"contracts/ShadowChef.sol\":7181:7220  totalRegularAllocPoint.add(_allocPoint) */\n      jump\t// in\n    tag_437:\n        /* \"contracts/ShadowChef.sol\":7156:7178  totalRegularAllocPoint */\n      0x08\n        /* \"contracts/ShadowChef.sol\":7156:7220  totalRegularAllocPoint = totalRegularAllocPoint.add(_allocPoint) */\n      sstore\n        /* \"contracts/ShadowChef.sol\":7125:7329  if (_isRegular) {\r... */\n      jump(tag_438)\n    tag_436:\n        /* \"contracts/ShadowChef.sol\":7278:7300  totalSpecialAllocPoint */\n      sload(0x09)\n        /* \"contracts/ShadowChef.sol\":7278:7317  totalSpecialAllocPoint.add(_allocPoint) */\n      tag_439\n      swap1\n        /* \"contracts/ShadowChef.sol\":7305:7316  _allocPoint */\n      dup6\n        /* \"contracts/ShadowChef.sol\":7278:7304  totalSpecialAllocPoint.add */\n      tag_240\n        /* \"contracts/ShadowChef.sol\":7278:7317  totalSpecialAllocPoint.add(_allocPoint) */\n      jump\t// in\n    tag_439:\n        /* \"contracts/ShadowChef.sol\":7253:7275  totalSpecialAllocPoint */\n      0x09\n        /* \"contracts/ShadowChef.sol\":7253:7317  totalSpecialAllocPoint = totalSpecialAllocPoint.add(_allocPoint) */\n      sstore\n        /* \"contracts/ShadowChef.sol\":7125:7329  if (_isRegular) {\r... */\n    tag_438:\n        /* \"contracts/ShadowChef.sol\":7339:7346  lpToken */\n      0x05\n        /* \"contracts/ShadowChef.sol\":7339:7361  lpToken.push(_lpToken) */\n      dup1\n      sload\n      0x01\n      dup1\n      dup3\n      add\n      dup4\n      sstore\n      0x036b6384b5eca791c62761152d0c79bb0604c104a5fb6f4eb0703f3154bb3db0\n      swap1\n      swap2\n      add\n      dup1\n      sload\n      0xffffffffffffffffffffffff0000000000000000000000000000000000000000\n      and\n      0xffffffffffffffffffffffffffffffffffffffff\n      dup8\n      and\n      swap1\n      dup2\n      or\n      swap1\n      swap2\n      sstore\n        /* \"contracts/ShadowChef.sol\":7402:7589  PoolInfo({\r... */\n      0x40\n      dup1\n      mload\n      0xa0\n      dup2\n      add\n      dup3\n      mstore\n      0x00\n      dup1\n      dup3\n      mstore\n        /* \"contracts/ShadowChef.sol\":7473:7485  block.number */\n      number\n        /* \"contracts/ShadowChef.sol\":7339:7361  lpToken.push(_lpToken) */\n      0x20\n        /* \"contracts/ShadowChef.sol\":7402:7589  PoolInfo({\r... */\n      dup4\n      add\n      swap1\n      dup2\n      mstore\n      swap3\n      dup3\n      add\n      dup11\n      dup2\n      mstore\n      0x60\n      dup4\n      add\n      dup3\n      dup2\n      mstore\n      dup10\n      iszero\n      iszero\n      0x80\n      dup6\n      add\n      swap1\n      dup2\n      mstore\n        /* \"contracts/ShadowChef.sol\":7374:7382  poolInfo */\n      0x04\n        /* \"contracts/ShadowChef.sol\":7374:7600  poolInfo.push(\r... */\n      dup1\n      sload\n      dup1\n      dup11\n      add\n      dup3\n      sstore\n      swap5\n      mstore\n      swap4\n      mload\n      0x8a35acfbc15ff81a39ae7d344fd709f28e8600b4aa8c65c6b64bfe7fe36bd19b\n      swap4\n      dup10\n      mul\n      swap4\n      dup5\n      add\n      sstore\n      swap4\n      mload\n      0x8a35acfbc15ff81a39ae7d344fd709f28e8600b4aa8c65c6b64bfe7fe36bd19c\n      dup4\n      add\n      sstore\n      mload\n      0x8a35acfbc15ff81a39ae7d344fd709f28e8600b4aa8c65c6b64bfe7fe36bd19d\n      dup3\n      add\n      sstore\n      swap2\n      mload\n      0x8a35acfbc15ff81a39ae7d344fd709f28e8600b4aa8c65c6b64bfe7fe36bd19e\n      dup4\n      add\n      sstore\n      mload\n      0x8a35acfbc15ff81a39ae7d344fd709f28e8600b4aa8c65c6b64bfe7fe36bd19f\n      swap1\n      swap2\n      add\n      dup1\n      sload\n      0xffffffffffffffffffffffffffffffffffffffffffffffffffffffffffffff00\n      and\n      swap2\n      iszero\n      iszero\n      swap2\n      swap1\n      swap2\n      or\n      swap1\n      sstore\n        /* \"contracts/ShadowChef.sol\":7624:7638  lpToken.length */\n      swap2\n      sload\n        /* \"contracts/ShadowChef.sol\":7624:7645  lpToken.length.sub(1) */\n      tag_442\n      swap2\n        /* \"contracts/ShadowChef.sol\":7624:7642  lpToken.length.sub */\n      tag_239\n        /* \"contracts/ShadowChef.sol\":7624:7645  lpToken.length.sub(1) */\n      jump\t// in\n    tag_442:\n        /* \"contracts/ShadowChef.sol\":7616:7681  AddPool(lpToken.length.sub(1), _allocPoint, _lpToken, _isRegular) */\n      0x18caa0724a26384928efe604ae6ddc99c242548876259770fc88fcb7e719d8fa\n        /* \"contracts/ShadowChef.sol\":7647:7658  _allocPoint */\n      dup7\n        /* \"contracts/ShadowChef.sol\":7670:7680  _isRegular */\n      dup6\n        /* \"contracts/ShadowChef.sol\":7616:7681  AddPool(lpToken.length.sub(1), _allocPoint, _lpToken, _isRegular) */\n      mload(0x40)\n      tag_443\n      swap3\n      swap2\n      swap1\n      tag_444\n      jump\t// in\n    tag_443:\n      mload(0x40)\n      dup1\n      swap2\n      sub\n      swap1\n      log3\n        /* \"contracts/ShadowChef.sol\":6579:7689  function add(\r... */\n      pop\n      pop\n      pop\n      pop\n      jump\t// out\n        /* \"contracts/ShadowChef.sol\":8899:9869  function pendingShdw(uint256 _pid, address _user) external view returns (uint256) {\r... */\n    tag_170:\n        /* \"contracts/ShadowChef.sol\":8972:8979  uint256 */\n      0x00\n        /* \"contracts/ShadowChef.sol\":8992:9012  PoolInfo memory pool */\n      tag_446\n      tag_222\n      jump\t// in\n    tag_446:\n        /* \"contracts/ShadowChef.sol\":9015:9023  poolInfo */\n      0x04\n        /* \"contracts/ShadowChef.sol\":9024:9028  _pid */\n      dup5\n        /* \"contracts/ShadowChef.sol\":9015:9029  poolInfo[_pid] */\n      dup2\n      sload\n      dup2\n      lt\n      tag_447\n      jumpi\n      invalid\n    tag_447:\n      0x00\n      swap2\n      dup3\n      mstore\n      0x20\n      swap2\n      dup3\n      swap1\n      keccak256\n        /* \"contracts/ShadowChef.sol\":8992:9029  PoolInfo memory pool = poolInfo[_pid] */\n      0x40\n      dup1\n      mload\n      0xa0\n      dup2\n      add\n      dup3\n      mstore\n        /* \"contracts/ShadowChef.sol\":9015:9029  poolInfo[_pid] */\n      0x05\n      swap1\n      swap4\n      mul\n      swap1\n      swap2\n      add\n        /* \"contracts/ShadowChef.sol\":8992:9029  PoolInfo memory pool = poolInfo[_pid] */\n      dup1\n      sload\n      dup4\n      mstore\n      0x01\n      dup2\n      add\n      sload\n      swap4\n      dup4\n      add\n      swap4\n      swap1\n      swap4\n      mstore\n      0x02\n      dup4\n      add\n      sload\n      swap1\n      dup3\n      add\n      mstore\n      0x03\n      dup3\n      add\n      sload\n      0x60\n      dup3\n      add\n      mstore\n      0x04\n      swap1\n      swap2\n      add\n      sload\n      0xff\n      and\n      iszero\n      iszero\n      0x80\n      dup3\n      add\n      mstore\n      swap1\n      pop\n        /* \"contracts/ShadowChef.sol\":9040:9060  UserInfo memory user */\n      tag_449\n      tag_450\n      jump\t// in\n    tag_449:\n      pop\n        /* \"contracts/ShadowChef.sol\":9063:9077  userInfo[_pid] */\n      0x00\n      dup5\n      dup2\n      mstore\n        /* \"contracts/ShadowChef.sol\":9063:9071  userInfo */\n      0x06\n        /* \"contracts/ShadowChef.sol\":9063:9077  userInfo[_pid] */\n      0x20\n      swap1\n      dup2\n      mstore\n      0x40\n      dup1\n      dup4\n      keccak256\n        /* \"contracts/ShadowChef.sol\":9063:9084  userInfo[_pid][_user] */\n      0xffffffffffffffffffffffffffffffffffffffff\n      dup8\n      and\n      dup5\n      mstore\n      dup3\n      mstore\n      swap2\n      dup3\n      swap1\n      keccak256\n        /* \"contracts/ShadowChef.sol\":9040:9084  UserInfo memory user = userInfo[_pid][_user] */\n      dup3\n      mload\n      0x60\n      dup1\n      dup3\n      add\n      dup6\n      mstore\n      dup3\n      sload\n      dup3\n      mstore\n      0x01\n      dup4\n      add\n      sload\n      dup3\n      dup6\n      add\n      mstore\n      0x02\n      swap1\n      swap3\n      add\n      sload\n      swap4\n      dup2\n      add\n      swap4\n      swap1\n      swap4\n      mstore\n        /* \"contracts/ShadowChef.sol\":9121:9141  pool.accShdwPerShare */\n      dup4\n      mload\n        /* \"contracts/ShadowChef.sol\":9171:9193  pool.totalBoostedShare */\n      swap1\n      dup5\n      add\n      mload\n        /* \"contracts/ShadowChef.sol\":9225:9245  pool.lastRewardBlock */\n      swap2\n      dup5\n      add\n      mload\n        /* \"contracts/ShadowChef.sol\":9121:9141  pool.accShdwPerShare */\n      swap1\n      swap2\n        /* \"contracts/ShadowChef.sol\":9171:9193  pool.totalBoostedShare */\n      swap1\n        /* \"contracts/ShadowChef.sol\":9210:9222  block.number */\n      number\n        /* \"contracts/ShadowChef.sol\":9210:9245  block.number > pool.lastRewardBlock */\n      gt\n        /* \"contracts/ShadowChef.sol\":9210:9262  block.number > pool.lastRewardBlock && lpSupply != 0 */\n      dup1\n      iszero\n      tag_451\n      jumpi\n      pop\n        /* \"contracts/ShadowChef.sol\":9249:9262  lpSupply != 0 */\n      dup1\n      iszero\n      iszero\n        /* \"contracts/ShadowChef.sol\":9210:9262  block.number > pool.lastRewardBlock && lpSupply != 0 */\n    tag_451:\n        /* \"contracts/ShadowChef.sol\":9206:9659  if (block.number > pool.lastRewardBlock && lpSupply != 0) {\r... */\n      iszero\n      tag_452\n      jumpi\n        /* \"contracts/ShadowChef.sol\":9279:9297  uint256 multiplier */\n      0x00\n        /* \"contracts/ShadowChef.sol\":9300:9338  block.number.sub(pool.lastRewardBlock) */\n      tag_453\n        /* \"contracts/ShadowChef.sol\":9317:9321  pool */\n      dup6\n        /* \"contracts/ShadowChef.sol\":9317:9337  pool.lastRewardBlock */\n      0x20\n      add\n      mload\n        /* \"contracts/ShadowChef.sol\":9300:9312  block.number */\n      number\n        /* \"contracts/ShadowChef.sol\":9300:9316  block.number.sub */\n      tag_239\n      swap1\n        /* \"contracts/ShadowChef.sol\":9300:9338  block.number.sub(pool.lastRewardBlock) */\n      swap2\n      swap1\n      0xffffffff\n      and\n      jump\t// in\n    tag_453:\n        /* \"contracts/ShadowChef.sol\":9279:9338  uint256 multiplier = block.number.sub(pool.lastRewardBlock) */\n      swap1\n      pop\n        /* \"contracts/ShadowChef.sol\":9355:9373  uint256 shdwReward */\n      0x00\n        /* \"contracts/ShadowChef.sol\":9376:9545  multiplier.mul(shdwPerBlock(pool.isRegular)).mul(pool.allocPoint).div(\r... */\n      tag_454\n        /* \"contracts/ShadowChef.sol\":9465:9469  pool */\n      dup7\n        /* \"contracts/ShadowChef.sol\":9465:9479  pool.isRegular */\n      0x80\n      add\n      mload\n        /* \"contracts/ShadowChef.sol\":9465:9529  pool.isRegular ? totalRegularAllocPoint : totalSpecialAllocPoint */\n      tag_455\n      jumpi\n        /* \"contracts/ShadowChef.sol\":9507:9529  totalSpecialAllocPoint */\n      sload(0x09)\n        /* \"contracts/ShadowChef.sol\":9465:9529  pool.isRegular ? totalRegularAllocPoint : totalSpecialAllocPoint */\n      jump(tag_456)\n    tag_455:\n        /* \"contracts/ShadowChef.sol\":9482:9504  totalRegularAllocPoint */\n      sload(0x08)\n        /* \"contracts/ShadowChef.sol\":9465:9529  pool.isRegular ? totalRegularAllocPoint : totalSpecialAllocPoint */\n    tag_456:\n        /* \"contracts/ShadowChef.sol\":9376:9441  multiplier.mul(shdwPerBlock(pool.isRegular)).mul(pool.allocPoint) */\n      tag_230\n        /* \"contracts/ShadowChef.sol\":9425:9429  pool */\n      dup9\n        /* \"contracts/ShadowChef.sol\":9425:9440  pool.allocPoint */\n      0x40\n      add\n      mload\n        /* \"contracts/ShadowChef.sol\":9376:9420  multiplier.mul(shdwPerBlock(pool.isRegular)) */\n      tag_229\n        /* \"contracts/ShadowChef.sol\":9391:9419  shdwPerBlock(pool.isRegular) */\n      tag_317\n        /* \"contracts/ShadowChef.sol\":9404:9408  pool */\n      dup12\n        /* \"contracts/ShadowChef.sol\":9404:9418  pool.isRegular */\n      0x80\n      add\n      mload\n        /* \"contracts/ShadowChef.sol\":9391:9403  shdwPerBlock */\n      tag_189\n        /* \"contracts/ShadowChef.sol\":9391:9419  shdwPerBlock(pool.isRegular) */\n      jump\t// in\n        /* \"contracts/ShadowChef.sol\":9376:9545  multiplier.mul(shdwPerBlock(pool.isRegular)).mul(pool.allocPoint).div(\r... */\n    tag_454:\n        /* \"contracts/ShadowChef.sol\":9355:9545  uint256 shdwReward = multiplier.mul(shdwPerBlock(pool.isRegular)).mul(pool.allocPoint).div(\r... */\n      swap1\n      pop\n        /* \"contracts/ShadowChef.sol\":9578:9647  accShdwPerShare.add(shdwReward.mul(ACC_SHDW_PRECISION).div(lpSupply)) */\n      tag_460\n        /* \"contracts/ShadowChef.sol\":9598:9646  shdwReward.mul(ACC_SHDW_PRECISION).div(lpSupply) */\n      tag_461\n        /* \"contracts/ShadowChef.sol\":9637:9645  lpSupply */\n      dup5\n        /* \"contracts/ShadowChef.sol\":9598:9632  shdwReward.mul(ACC_SHDW_PRECISION) */\n      tag_230\n        /* \"contracts/ShadowChef.sol\":9355:9545  uint256 shdwReward = multiplier.mul(shdwPerBlock(pool.isRegular)).mul(pool.allocPoint).div(\r... */\n      dup5\n        /* \"contracts/ShadowChef.sol\":3564:3568  1e18 */\n      0x0de0b6b3a7640000\n        /* \"contracts/ShadowChef.sol\":9598:9612  shdwReward.mul */\n      tag_231\n        /* \"contracts/ShadowChef.sol\":9598:9632  shdwReward.mul(ACC_SHDW_PRECISION) */\n      jump\t// in\n        /* \"contracts/ShadowChef.sol\":9598:9646  shdwReward.mul(ACC_SHDW_PRECISION).div(lpSupply) */\n    tag_461:\n        /* \"contracts/ShadowChef.sol\":9578:9593  accShdwPerShare */\n      dup6\n      swap1\n        /* \"contracts/ShadowChef.sol\":9578:9597  accShdwPerShare.add */\n      tag_240\n        /* \"contracts/ShadowChef.sol\":9578:9647  accShdwPerShare.add(shdwReward.mul(ACC_SHDW_PRECISION).div(lpSupply)) */\n      jump\t// in\n    tag_460:\n        /* \"contracts/ShadowChef.sol\":9560:9647  accShdwPerShare = accShdwPerShare.add(shdwReward.mul(ACC_SHDW_PRECISION).div(lpSupply)) */\n      swap4\n      pop\n        /* \"contracts/ShadowChef.sol\":9206:9659  if (block.number > pool.lastRewardBlock && lpSupply != 0) {\r... */\n      pop\n      pop\n    tag_452:\n        /* \"contracts/ShadowChef.sol\":9671:9692  uint256 boostedAmount */\n      0x00\n        /* \"contracts/ShadowChef.sol\":9695:9764  user.amount.mul(getBoostMultiplier(_user, _pid)).div(BOOST_PRECISION) */\n      tag_463\n        /* \"contracts/ShadowChef.sol\":3689:3699  100 * 1e10 */\n      0xe8d4a51000\n        /* \"contracts/ShadowChef.sol\":9695:9743  user.amount.mul(getBoostMultiplier(_user, _pid)) */\n      tag_230\n        /* \"contracts/ShadowChef.sol\":9711:9742  getBoostMultiplier(_user, _pid) */\n      tag_465\n        /* \"contracts/ShadowChef.sol\":9730:9735  _user */\n      dup11\n        /* \"contracts/ShadowChef.sol\":9737:9741  _pid */\n      dup13\n        /* \"contracts/ShadowChef.sol\":9711:9729  getBoostMultiplier */\n      tag_59\n        /* \"contracts/ShadowChef.sol\":9711:9742  getBoostMultiplier(_user, _pid) */\n      jump\t// in\n    tag_465:\n        /* \"contracts/ShadowChef.sol\":9695:9706  user.amount */\n      dup8\n      mload\n      swap1\n        /* \"contracts/ShadowChef.sol\":9695:9710  user.amount.mul */\n      tag_231\n        /* \"contracts/ShadowChef.sol\":9695:9743  user.amount.mul(getBoostMultiplier(_user, _pid)) */\n      jump\t// in\n        /* \"contracts/ShadowChef.sol\":9695:9764  user.amount.mul(getBoostMultiplier(_user, _pid)).div(BOOST_PRECISION) */\n    tag_463:\n        /* \"contracts/ShadowChef.sol\":9845:9860  user.rewardDebt */\n      0x20\n      dup6\n      add\n      mload\n        /* \"contracts/ShadowChef.sol\":9671:9764  uint256 boostedAmount = user.amount.mul(getBoostMultiplier(_user, _pid)).div(BOOST_PRECISION) */\n      swap1\n      swap2\n      pop\n        /* \"contracts/ShadowChef.sol\":9782:9861  boostedAmount.mul(accShdwPerShare).div(ACC_SHDW_PRECISION).sub(user.rewardDebt) */\n      tag_466\n      swap1\n        /* \"contracts/ShadowChef.sol\":9782:9840  boostedAmount.mul(accShdwPerShare).div(ACC_SHDW_PRECISION) */\n      tag_467\n        /* \"contracts/ShadowChef.sol\":3564:3568  1e18 */\n      0x0de0b6b3a7640000\n        /* \"contracts/ShadowChef.sol\":9782:9816  boostedAmount.mul(accShdwPerShare) */\n      tag_230\n        /* \"contracts/ShadowChef.sol\":9671:9764  uint256 boostedAmount = user.amount.mul(getBoostMultiplier(_user, _pid)).div(BOOST_PRECISION) */\n      dup6\n        /* \"contracts/ShadowChef.sol\":9800:9815  accShdwPerShare */\n      dup9\n        /* \"contracts/ShadowChef.sol\":9782:9799  boostedAmount.mul */\n      tag_231\n        /* \"contracts/ShadowChef.sol\":9782:9816  boostedAmount.mul(accShdwPerShare) */\n      jump\t// in\n        /* \"contracts/ShadowChef.sol\":9782:9840  boostedAmount.mul(accShdwPerShare).div(ACC_SHDW_PRECISION) */\n    tag_467:\n        /* \"contracts/ShadowChef.sol\":9782:9844  boostedAmount.mul(accShdwPerShare).div(ACC_SHDW_PRECISION).sub */\n      swap1\n      tag_239\n        /* \"contracts/ShadowChef.sol\":9782:9861  boostedAmount.mul(accShdwPerShare).div(ACC_SHDW_PRECISION).sub(user.rewardDebt) */\n      jump\t// in\n    tag_466:\n        /* \"contracts/ShadowChef.sol\":9775:9861  return boostedAmount.mul(accShdwPerShare).div(ACC_SHDW_PRECISION).sub(user.rewardDebt) */\n      swap9\n        /* \"contracts/ShadowChef.sol\":8899:9869  function pendingShdw(uint256 _pid, address _user) external view returns (uint256) {\r... */\n      swap8\n      pop\n      pop\n      pop\n      pop\n      pop\n      pop\n      pop\n      pop\n      jump\t// out\n        /* \"contracts/ShadowChef.sol\":3647:3699  uint256 public constant BOOST_PRECISION = 100 * 1e10 */\n    tag_173:\n        /* \"contracts/ShadowChef.sol\":3689:3699  100 * 1e10 */\n      0xe8d4a51000\n        /* \"contracts/ShadowChef.sol\":3647:3699  uint256 public constant BOOST_PRECISION = 100 * 1e10 */\n      dup2\n      jump\t// out\n        /* \"contracts/ShadowChef.sol\":2654:2682  address public boostContract */\n    tag_179:\n      and(0xffffffffffffffffffffffffffffffffffffffff, sload(0x03))\n      dup2\n      jump\t// out\n        /* \"contracts/ShadowChef.sol\":12318:13567  function deposit(uint256 _pid, uint256 _amount) external nonReentrant {\r... */\n    tag_183:\n        /* \"contracts/security/ReentrancyGuard.sol\":1704:1705  2 */\n      0x02\n        /* \"contracts/security/ReentrancyGuard.sol\":2310:2317  _status */\n      sload(0x01)\n        /* \"contracts/security/ReentrancyGuard.sol\":2310:2329  _status != _ENTERED */\n      eq\n      iszero\n        /* \"contracts/security/ReentrancyGuard.sol\":2302:2365  require(_status != _ENTERED, \"ReentrancyGuard: reentrant call\") */\n      tag_470\n      jumpi\n      mload(0x40)\n      0x08c379a000000000000000000000000000000000000000000000000000000000\n      dup2\n      mstore\n      0x04\n      add\n      tag_202\n      swap1\n      tag_207\n      jump\t// in\n    tag_470:\n        /* \"contracts/security/ReentrancyGuard.sol\":1704:1705  2 */\n      0x02\n        /* \"contracts/security/ReentrancyGuard.sol\":2443:2450  _status */\n      0x01\n        /* \"contracts/security/ReentrancyGuard.sol\":2443:2461  _status = _ENTERED */\n      sstore\n        /* \"contracts/ShadowChef.sol\":12399:12419  PoolInfo memory pool */\n      tag_473\n      tag_222\n      jump\t// in\n    tag_473:\n        /* \"contracts/ShadowChef.sol\":12422:12438  updatePool(_pid) */\n      tag_474\n        /* \"contracts/ShadowChef.sol\":12433:12437  _pid */\n      dup4\n        /* \"contracts/ShadowChef.sol\":12422:12432  updatePool */\n      tag_104\n        /* \"contracts/ShadowChef.sol\":12422:12438  updatePool(_pid) */\n      jump\t// in\n    tag_474:\n        /* \"contracts/ShadowChef.sol\":12449:12470  UserInfo storage user */\n      0x00\n        /* \"contracts/ShadowChef.sol\":12473:12487  userInfo[_pid] */\n      dup5\n      dup2\n      mstore\n        /* \"contracts/ShadowChef.sol\":12473:12481  userInfo */\n      0x06\n        /* \"contracts/ShadowChef.sol\":12473:12487  userInfo[_pid] */\n      0x20\n      swap1\n      dup2\n      mstore\n      0x40\n      dup1\n      dup4\n      keccak256\n        /* \"contracts/ShadowChef.sol\":12488:12498  msg.sender */\n      caller\n        /* \"contracts/ShadowChef.sol\":12473:12499  userInfo[_pid][msg.sender] */\n      dup5\n      mstore\n      swap1\n      swap2\n      mstore\n      swap1\n      keccak256\n        /* \"contracts/ShadowChef.sol\":12534:12548  pool.isRegular */\n      0x80\n      dup3\n      add\n      mload\n        /* \"contracts/ShadowChef.sol\":12399:12438  PoolInfo memory pool = updatePool(_pid) */\n      swap2\n      swap3\n      pop\n        /* \"contracts/ShadowChef.sol\":12473:12499  userInfo[_pid][msg.sender] */\n      swap1\n        /* \"contracts/ShadowChef.sol\":12534:12548  pool.isRegular */\n      dup1\n        /* \"contracts/ShadowChef.sol\":12534:12573  pool.isRegular || whiteList[msg.sender] */\n      tag_475\n      jumpi\n      pop\n        /* \"contracts/ShadowChef.sol\":12562:12572  msg.sender */\n      caller\n        /* \"contracts/ShadowChef.sol\":12552:12573  whiteList[msg.sender] */\n      0x00\n      swap1\n      dup2\n      mstore\n        /* \"contracts/ShadowChef.sol\":12552:12561  whiteList */\n      0x07\n        /* \"contracts/ShadowChef.sol\":12552:12573  whiteList[msg.sender] */\n      0x20\n      mstore\n      0x40\n      swap1\n      keccak256\n      sload\n      0xff\n      and\n        /* \"contracts/ShadowChef.sol\":12534:12573  pool.isRegular || whiteList[msg.sender] */\n    tag_475:\n        /* \"contracts/ShadowChef.sol\":12512:12667  require(\r... */\n      tag_476\n      jumpi\n      mload(0x40)\n      0x08c379a000000000000000000000000000000000000000000000000000000000\n      dup2\n      mstore\n      0x04\n      add\n      tag_202\n      swap1\n      tag_478\n      jump\t// in\n    tag_476:\n        /* \"contracts/ShadowChef.sol\":12680:12698  uint256 multiplier */\n      0x00\n        /* \"contracts/ShadowChef.sol\":12701:12737  getBoostMultiplier(msg.sender, _pid) */\n      tag_479\n        /* \"contracts/ShadowChef.sol\":12720:12730  msg.sender */\n      caller\n        /* \"contracts/ShadowChef.sol\":12732:12736  _pid */\n      dup7\n        /* \"contracts/ShadowChef.sol\":12701:12719  getBoostMultiplier */\n      tag_59\n        /* \"contracts/ShadowChef.sol\":12701:12737  getBoostMultiplier(msg.sender, _pid) */\n      jump\t// in\n    tag_479:\n        /* \"contracts/ShadowChef.sol\":12754:12765  user.amount */\n      dup3\n      sload\n        /* \"contracts/ShadowChef.sol\":12680:12737  uint256 multiplier = getBoostMultiplier(msg.sender, _pid) */\n      swap1\n      swap2\n      pop\n        /* \"contracts/ShadowChef.sol\":12754:12769  user.amount > 0 */\n      iszero\n        /* \"contracts/ShadowChef.sol\":12750:12845  if (user.amount > 0) {\r... */\n      tag_481\n      jumpi\n        /* \"contracts/ShadowChef.sol\":12786:12833  settlependingShdw(msg.sender, _pid, multiplier) */\n      tag_481\n        /* \"contracts/ShadowChef.sol\":12804:12814  msg.sender */\n      caller\n        /* \"contracts/ShadowChef.sol\":12816:12820  _pid */\n      dup7\n        /* \"contracts/ShadowChef.sol\":12822:12832  multiplier */\n      dup4\n        /* \"contracts/ShadowChef.sol\":12786:12803  settlependingShdw */\n      tag_226\n        /* \"contracts/ShadowChef.sol\":12786:12833  settlependingShdw(msg.sender, _pid, multiplier) */\n      jump\t// in\n    tag_481:\n        /* \"contracts/ShadowChef.sol\":12861:12872  _amount > 0 */\n      dup4\n      iszero\n        /* \"contracts/ShadowChef.sol\":12857:13323  if (_amount > 0) {\r... */\n      tag_482\n      jumpi\n        /* \"contracts/ShadowChef.sol\":12889:12903  uint256 before */\n      0x00\n        /* \"contracts/ShadowChef.sol\":12906:12913  lpToken */\n      0x05\n        /* \"contracts/ShadowChef.sol\":12914:12918  _pid */\n      dup7\n        /* \"contracts/ShadowChef.sol\":12906:12919  lpToken[_pid] */\n      dup2\n      sload\n      dup2\n      lt\n      tag_483\n      jumpi\n      invalid\n    tag_483:\n      0x00\n      swap2\n      dup3\n      mstore\n      0x20\n      swap1\n      swap2\n      keccak256\n      add\n      sload\n        /* \"contracts/ShadowChef.sol\":12906:12944  lpToken[_pid].balanceOf(address(this)) */\n      mload(0x40)\n      0x70a0823100000000000000000000000000000000000000000000000000000000\n      dup2\n      mstore\n        /* \"contracts/ShadowChef.sol\":12906:12919  lpToken[_pid] */\n      0xffffffffffffffffffffffffffffffffffffffff\n      swap1\n      swap2\n      and\n      swap1\n        /* \"contracts/ShadowChef.sol\":12906:12929  lpToken[_pid].balanceOf */\n      0x70a08231\n      swap1\n        /* \"contracts/ShadowChef.sol\":12906:12944  lpToken[_pid].balanceOf(address(this)) */\n      tag_485\n      swap1\n        /* \"contracts/ShadowChef.sol\":12938:12942  this */\n      address\n      swap1\n        /* \"contracts/ShadowChef.sol\":12906:12944  lpToken[_pid].balanceOf(address(this)) */\n      0x04\n      add\n      tag_141\n      jump\t// in\n    tag_485:\n      0x20\n      mload(0x40)\n      dup1\n      dup4\n      sub\n      dup2\n      dup7\n      dup1\n      extcodesize\n      iszero\n      dup1\n      iszero\n      tag_486\n      jumpi\n      0x00\n      dup1\n      revert\n    tag_486:\n      pop\n      gas\n      staticcall\n      iszero\n      dup1\n      iszero\n      tag_488\n      jumpi\n      returndatasize\n      0x00\n      dup1\n      returndatacopy\n      revert(0x00, returndatasize)\n    tag_488:\n      pop\n      pop\n      pop\n      pop\n      mload(0x40)\n      returndatasize\n      not(0x1f)\n      0x1f\n      dup3\n      add\n      and\n      dup3\n      add\n      dup1\n      0x40\n      mstore\n      pop\n      dup2\n      add\n      swap1\n      tag_489\n      swap2\n      swap1\n      tag_427\n      jump\t// in\n    tag_489:\n        /* \"contracts/ShadowChef.sol\":12889:12944  uint256 before = lpToken[_pid].balanceOf(address(this)) */\n      swap1\n      pop\n        /* \"contracts/ShadowChef.sol\":12959:13025  lpToken[_pid].safeTransferFrom(msg.sender, address(this), _amount) */\n      tag_490\n        /* \"contracts/ShadowChef.sol\":12990:13000  msg.sender */\n      caller\n        /* \"contracts/ShadowChef.sol\":13010:13014  this */\n      address\n        /* \"contracts/ShadowChef.sol\":13017:13024  _amount */\n      dup8\n        /* \"contracts/ShadowChef.sol\":12959:12966  lpToken */\n      0x05\n        /* \"contracts/ShadowChef.sol\":12967:12971  _pid */\n      dup11\n        /* \"contracts/ShadowChef.sol\":12959:12972  lpToken[_pid] */\n      dup2\n      sload\n      dup2\n      lt\n      tag_491\n      jumpi\n      invalid\n    tag_491:\n      0x00\n      swap2\n      dup3\n      mstore\n      0x20\n      swap1\n      swap2\n      keccak256\n      add\n      sload\n      0xffffffffffffffffffffffffffffffffffffffff\n      and\n      swap3\n        /* \"contracts/ShadowChef.sol\":12959:13025  lpToken[_pid].safeTransferFrom(msg.sender, address(this), _amount) */\n      swap2\n      swap1\n        /* \"contracts/ShadowChef.sol\":12959:12989  lpToken[_pid].safeTransferFrom */\n      tag_493\n        /* \"contracts/ShadowChef.sol\":12959:13025  lpToken[_pid].safeTransferFrom(msg.sender, address(this), _amount) */\n      jump\t// in\n    tag_490:\n        /* \"contracts/ShadowChef.sol\":13050:13100  lpToken[_pid].balanceOf(address(this)).sub(before) */\n      tag_494\n        /* \"contracts/ShadowChef.sol\":13093:13099  before */\n      dup2\n        /* \"contracts/ShadowChef.sol\":13050:13057  lpToken */\n      0x05\n        /* \"contracts/ShadowChef.sol\":13058:13062  _pid */\n      dup9\n        /* \"contracts/ShadowChef.sol\":13050:13063  lpToken[_pid] */\n      dup2\n      sload\n      dup2\n      lt\n      tag_495\n      jumpi\n      invalid\n    tag_495:\n      0x00\n      swap2\n      dup3\n      mstore\n      0x20\n      swap1\n      swap2\n      keccak256\n      add\n      sload\n        /* \"contracts/ShadowChef.sol\":13050:13088  lpToken[_pid].balanceOf(address(this)) */\n      mload(0x40)\n      0x70a0823100000000000000000000000000000000000000000000000000000000\n      dup2\n      mstore\n        /* \"contracts/ShadowChef.sol\":13050:13063  lpToken[_pid] */\n      0xffffffffffffffffffffffffffffffffffffffff\n      swap1\n      swap2\n      and\n      swap1\n        /* \"contracts/ShadowChef.sol\":13050:13073  lpToken[_pid].balanceOf */\n      0x70a08231\n      swap1\n        /* \"contracts/ShadowChef.sol\":13050:13088  lpToken[_pid].balanceOf(address(this)) */\n      tag_497\n      swap1\n        /* \"contracts/ShadowChef.sol\":13082:13086  this */\n      address\n      swap1\n        /* \"contracts/ShadowChef.sol\":13050:13088  lpToken[_pid].balanceOf(address(this)) */\n      0x04\n      add\n      tag_141\n      jump\t// in\n    tag_497:\n      0x20\n      mload(0x40)\n      dup1\n      dup4\n      sub\n      dup2\n      dup7\n      dup1\n      extcodesize\n      iszero\n      dup1\n      iszero\n      tag_498\n      jumpi\n      0x00\n      dup1\n      revert\n    tag_498:\n      pop\n      gas\n      staticcall\n      iszero\n      dup1\n      iszero\n      tag_500\n      jumpi\n      returndatasize\n      0x00\n      dup1\n      returndatacopy\n      revert(0x00, returndatasize)\n    tag_500:\n      pop\n      pop\n      pop\n      pop\n      mload(0x40)\n      returndatasize\n      not(0x1f)\n      0x1f\n      dup3\n      add\n      and\n      dup3\n      add\n      dup1\n      0x40\n      mstore\n      pop\n      dup2\n      add\n      swap1\n      tag_467\n      swap2\n      swap1\n      tag_427\n      jump\t// in\n        /* \"contracts/ShadowChef.sol\":13050:13100  lpToken[_pid].balanceOf(address(this)).sub(before) */\n    tag_494:\n        /* \"contracts/ShadowChef.sol\":13129:13140  user.amount */\n      dup4\n      sload\n        /* \"contracts/ShadowChef.sol\":13040:13100  _amount = lpToken[_pid].balanceOf(address(this)).sub(before) */\n      swap1\n      swap6\n      pop\n        /* \"contracts/ShadowChef.sol\":13129:13153  user.amount.add(_amount) */\n      tag_502\n      swap1\n        /* \"contracts/ShadowChef.sol\":13040:13100  _amount = lpToken[_pid].balanceOf(address(this)).sub(before) */\n      dup7\n        /* \"contracts/ShadowChef.sol\":13129:13144  user.amount.add */\n      tag_240\n        /* \"contracts/ShadowChef.sol\":13129:13153  user.amount.add(_amount) */\n      jump\t// in\n    tag_502:\n        /* \"contracts/ShadowChef.sol\":13115:13153  user.amount = user.amount.add(_amount) */\n      dup4\n      sstore\n        /* \"contracts/ShadowChef.sol\":13239:13311  pool.totalBoostedShare.add(_amount.mul(multiplier).div(BOOST_PRECISION)) */\n      tag_503\n        /* \"contracts/ShadowChef.sol\":13266:13310  _amount.mul(multiplier).div(BOOST_PRECISION) */\n      tag_504\n        /* \"contracts/ShadowChef.sol\":3689:3699  100 * 1e10 */\n      0xe8d4a51000\n        /* \"contracts/ShadowChef.sol\":13266:13289  _amount.mul(multiplier) */\n      tag_230\n        /* \"contracts/ShadowChef.sol\":13266:13273  _amount */\n      dup9\n        /* \"contracts/ShadowChef.sol\":13278:13288  multiplier */\n      dup7\n        /* \"contracts/ShadowChef.sol\":13266:13277  _amount.mul */\n      tag_231\n        /* \"contracts/ShadowChef.sol\":13266:13289  _amount.mul(multiplier) */\n      jump\t// in\n        /* \"contracts/ShadowChef.sol\":13266:13310  _amount.mul(multiplier).div(BOOST_PRECISION) */\n    tag_504:\n        /* \"contracts/ShadowChef.sol\":13239:13261  pool.totalBoostedShare */\n      0x60\n      dup7\n      add\n      mload\n      swap1\n        /* \"contracts/ShadowChef.sol\":13239:13265  pool.totalBoostedShare.add */\n      tag_240\n        /* \"contracts/ShadowChef.sol\":13239:13311  pool.totalBoostedShare.add(_amount.mul(multiplier).div(BOOST_PRECISION)) */\n      jump\t// in\n    tag_503:\n        /* \"contracts/ShadowChef.sol\":13214:13236  pool.totalBoostedShare */\n      0x60\n      dup6\n      add\n        /* \"contracts/ShadowChef.sol\":13214:13311  pool.totalBoostedShare = pool.totalBoostedShare.add(_amount.mul(multiplier).div(BOOST_PRECISION)) */\n      mstore\n      pop\n        /* \"contracts/ShadowChef.sol\":12857:13323  if (_amount > 0) {\r... */\n    tag_482:\n        /* \"contracts/ShadowChef.sol\":13353:13475  user.amount.mul(multiplier).div(BOOST_PRECISION).mul(pool.accShdwPerShare).div(\r... */\n      tag_506\n        /* \"contracts/ShadowChef.sol\":3564:3568  1e18 */\n      0x0de0b6b3a7640000\n        /* \"contracts/ShadowChef.sol\":13353:13427  user.amount.mul(multiplier).div(BOOST_PRECISION).mul(pool.accShdwPerShare) */\n      tag_230\n        /* \"contracts/ShadowChef.sol\":13406:13410  pool */\n      dup6\n        /* \"contracts/ShadowChef.sol\":13406:13426  pool.accShdwPerShare */\n      0x00\n      add\n      mload\n        /* \"contracts/ShadowChef.sol\":13353:13401  user.amount.mul(multiplier).div(BOOST_PRECISION) */\n      tag_229\n        /* \"contracts/ShadowChef.sol\":3689:3699  100 * 1e10 */\n      0xe8d4a51000\n        /* \"contracts/ShadowChef.sol\":13353:13380  user.amount.mul(multiplier) */\n      tag_230\n        /* \"contracts/ShadowChef.sol\":13369:13379  multiplier */\n      dup8\n        /* \"contracts/ShadowChef.sol\":13353:13357  user */\n      dup10\n        /* \"contracts/ShadowChef.sol\":13353:13364  user.amount */\n      0x00\n      add\n      sload\n        /* \"contracts/ShadowChef.sol\":13353:13368  user.amount.mul */\n      tag_231\n      swap1\n        /* \"contracts/ShadowChef.sol\":13353:13380  user.amount.mul(multiplier) */\n      swap2\n      swap1\n      0xffffffff\n      and\n      jump\t// in\n        /* \"contracts/ShadowChef.sol\":13353:13475  user.amount.mul(multiplier).div(BOOST_PRECISION).mul(pool.accShdwPerShare).div(\r... */\n    tag_506:\n        /* \"contracts/ShadowChef.sol\":13335:13339  user */\n      dup3\n        /* \"contracts/ShadowChef.sol\":13335:13350  user.rewardDebt */\n      0x01\n      add\n        /* \"contracts/ShadowChef.sol\":13335:13475  user.rewardDebt = user.amount.mul(multiplier).div(BOOST_PRECISION).mul(pool.accShdwPerShare).div(\r... */\n      dup2\n      swap1\n      sstore\n      pop\n        /* \"contracts/ShadowChef.sol\":13503:13507  pool */\n      dup3\n        /* \"contracts/ShadowChef.sol\":13486:13494  poolInfo */\n      0x04\n        /* \"contracts/ShadowChef.sol\":13495:13499  _pid */\n      dup7\n        /* \"contracts/ShadowChef.sol\":13486:13500  poolInfo[_pid] */\n      dup2\n      sload\n      dup2\n      lt\n      tag_510\n      jumpi\n      invalid\n    tag_510:\n      0x00\n      swap2\n      dup3\n      mstore\n      0x20\n      swap2\n      dup3\n      swap1\n      keccak256\n        /* \"contracts/ShadowChef.sol\":13486:13507  poolInfo[_pid] = pool */\n      dup4\n      mload\n        /* \"contracts/ShadowChef.sol\":13486:13500  poolInfo[_pid] */\n      0x05\n      swap3\n      swap1\n      swap3\n      mul\n      add\n        /* \"contracts/ShadowChef.sol\":13486:13507  poolInfo[_pid] = pool */\n      swap1\n      dup2\n      sstore\n      swap1\n      dup3\n      add\n      mload\n      0x01\n      dup3\n      add\n      sstore\n      0x40\n      dup1\n      dup4\n      add\n      mload\n      0x02\n      dup4\n      add\n      sstore\n      0x60\n      dup4\n      add\n      mload\n      0x03\n      dup4\n      add\n      sstore\n      0x80\n      swap1\n      swap3\n      add\n      mload\n      0x04\n      swap1\n      swap2\n      add\n      dup1\n      sload\n      0xffffffffffffffffffffffffffffffffffffffffffffffffffffffffffffff00\n      and\n      swap2\n      iszero\n      iszero\n      swap2\n      swap1\n      swap2\n      or\n      swap1\n      sstore\n        /* \"contracts/ShadowChef.sol\":13525:13559  Deposit(msg.sender, _pid, _amount) */\n      mload\n        /* \"contracts/ShadowChef.sol\":13545:13549  _pid */\n      dup6\n      swap1\n        /* \"contracts/ShadowChef.sol\":13533:13543  msg.sender */\n      caller\n      swap1\n        /* \"contracts/ShadowChef.sol\":13525:13559  Deposit(msg.sender, _pid, _amount) */\n      0x90890809c654f11d6e72a28fa60149770a0d11ec6c92319d6ceb2bb0a4ea1a15\n      swap1\n      tag_303\n      swap1\n        /* \"contracts/ShadowChef.sol\":13551:13558  _amount */\n      dup9\n      swap1\n        /* \"contracts/ShadowChef.sol\":13525:13559  Deposit(msg.sender, _pid, _amount) */\n      tag_61\n      jump\t// in\n        /* \"contracts/access/Ownable.sol\":2045:2289  function transferOwnership(address newOwner) public virtual onlyOwner {\r... */\n    tag_186:\n        /* \"contracts/access/Ownable.sol\":1322:1334  _msgSender() */\n      tag_514\n        /* \"contracts/access/Ownable.sol\":1322:1332  _msgSender */\n      tag_247\n        /* \"contracts/access/Ownable.sol\":1322:1334  _msgSender() */\n      jump\t// in\n    tag_514:\n        /* \"contracts/access/Ownable.sol\":1312:1318  _owner */\n      sload(0x00)\n        /* \"contracts/access/Ownable.sol\":1312:1334  _owner == _msgSender() */\n      0xffffffffffffffffffffffffffffffffffffffff\n        /* \"contracts/access/Ownable.sol\":1312:1318  _owner */\n      swap1\n      dup2\n      and\n        /* \"contracts/access/Ownable.sol\":1312:1334  _owner == _msgSender() */\n      swap2\n      and\n      eq\n        /* \"contracts/access/Ownable.sol\":1304:1371  require(_owner == _msgSender(), \"Ownable: caller is not the owner\") */\n      tag_515\n      jumpi\n      mload(0x40)\n      0x08c379a000000000000000000000000000000000000000000000000000000000\n      dup2\n      mstore\n      0x04\n      add\n      tag_202\n      swap1\n      tag_250\n      jump\t// in\n    tag_515:\n        /* \"contracts/access/Ownable.sol\":2134:2156  newOwner != address(0) */\n      0xffffffffffffffffffffffffffffffffffffffff\n      dup2\n      and\n        /* \"contracts/access/Ownable.sol\":2126:2199  require(newOwner != address(0), \"Ownable: new owner is the zero address\") */\n      tag_518\n      jumpi\n      mload(0x40)\n      0x08c379a000000000000000000000000000000000000000000000000000000000\n      dup2\n      mstore\n      0x04\n      add\n      tag_202\n      swap1\n      tag_520\n      jump\t// in\n    tag_518:\n        /* \"contracts/access/Ownable.sol\":2236:2242  _owner */\n      0x00\n      dup1\n      sload\n        /* \"contracts/access/Ownable.sol\":2215:2253  OwnershipTransferred(_owner, newOwner) */\n      mload(0x40)\n      0xffffffffffffffffffffffffffffffffffffffff\n      dup1\n      dup6\n      and\n      swap4\n        /* \"contracts/access/Ownable.sol\":2236:2242  _owner */\n      swap3\n      and\n      swap2\n        /* \"contracts/access/Ownable.sol\":2215:2253  OwnershipTransferred(_owner, newOwner) */\n      0x8be0079c531659141344cd1fd0a4f28419497f9722a3daafe3b4186f6b6457e0\n      swap2\n      log3\n        /* \"contracts/access/Ownable.sol\":2264:2270  _owner */\n      0x00\n        /* \"contracts/access/Ownable.sol\":2264:2281  _owner = newOwner */\n      dup1\n      sload\n      0xffffffffffffffffffffffff0000000000000000000000000000000000000000\n      and\n      0xffffffffffffffffffffffffffffffffffffffff\n      swap3\n      swap1\n      swap3\n      and\n      swap2\n      swap1\n      swap2\n      or\n      swap1\n      sstore\n        /* \"contracts/access/Ownable.sol\":2045:2289  function transferOwnership(address newOwner) public virtual onlyOwner {\r... */\n      jump\t// out\n        /* \"contracts/ShadowChef.sol\":10408:10762  function shdwPerBlock(bool _isRegular) public view returns (uint256 amount) {\r... */\n    tag_189:\n        /* \"contracts/ShadowChef.sol\":10468:10482  uint256 amount */\n      0x00\n        /* \"contracts/ShadowChef.sol\":10499:10509  _isRegular */\n      dup2\n        /* \"contracts/ShadowChef.sol\":10495:10755  if (_isRegular) {\r... */\n      iszero\n      tag_522\n      jumpi\n        /* \"contracts/ShadowChef.sol\":10535:10618  MASTERCHEF_SHDW_PER_BLOCK.mul(shdwRateToRegularFarm).div(SHDW_RATE_TOTAL_PRECISION) */\n      tag_523\n        /* \"contracts/ShadowChef.sol\":3978:3982  1e12 */\n      0xe8d4a51000\n        /* \"contracts/ShadowChef.sol\":10535:10587  MASTERCHEF_SHDW_PER_BLOCK.mul(shdwRateToRegularFarm) */\n      tag_230\n        /* \"contracts/ShadowChef.sol\":10565:10586  shdwRateToRegularFarm */\n      sload(0x0b)\n        /* \"contracts/ShadowChef.sol\":3500:3512  1.375 * 1e18 */\n      0x1314fb3706298000\n        /* \"contracts/ShadowChef.sol\":10535:10564  MASTERCHEF_SHDW_PER_BLOCK.mul */\n      tag_231\n      swap1\n        /* \"contracts/ShadowChef.sol\":10535:10587  MASTERCHEF_SHDW_PER_BLOCK.mul(shdwRateToRegularFarm) */\n      swap2\n      swap1\n      0xffffffff\n      and\n      jump\t// in\n        /* \"contracts/ShadowChef.sol\":10535:10618  MASTERCHEF_SHDW_PER_BLOCK.mul(shdwRateToRegularFarm).div(SHDW_RATE_TOTAL_PRECISION) */\n    tag_523:\n        /* \"contracts/ShadowChef.sol\":10526:10618  amount = MASTERCHEF_SHDW_PER_BLOCK.mul(shdwRateToRegularFarm).div(SHDW_RATE_TOTAL_PRECISION) */\n      swap1\n      pop\n        /* \"contracts/ShadowChef.sol\":10495:10755  if (_isRegular) {\r... */\n      jump(tag_308)\n    tag_522:\n        /* \"contracts/ShadowChef.sol\":10660:10743  MASTERCHEF_SHDW_PER_BLOCK.mul(shdwRateToSpecialFarm).div(SHDW_RATE_TOTAL_PRECISION) */\n      tag_197\n        /* \"contracts/ShadowChef.sol\":3978:3982  1e12 */\n      0xe8d4a51000\n        /* \"contracts/ShadowChef.sol\":10660:10712  MASTERCHEF_SHDW_PER_BLOCK.mul(shdwRateToSpecialFarm) */\n      tag_230\n        /* \"contracts/ShadowChef.sol\":10690:10711  shdwRateToSpecialFarm */\n      sload(0x0c)\n        /* \"contracts/ShadowChef.sol\":3500:3512  1.375 * 1e18 */\n      0x1314fb3706298000\n        /* \"contracts/ShadowChef.sol\":10660:10689  MASTERCHEF_SHDW_PER_BLOCK.mul */\n      tag_231\n      swap1\n        /* \"contracts/ShadowChef.sol\":10660:10712  MASTERCHEF_SHDW_PER_BLOCK.mul(shdwRateToSpecialFarm) */\n      swap2\n      swap1\n      0xffffffff\n      and\n      jump\t// in\n        /* \"contracts/ShadowChef.sol\":4215:4266  uint256 public shdwRateToRegularFarm = 250000000000 */\n    tag_192:\n      sload(0x0b)\n      dup2\n      jump\t// out\n        /* \"contracts/ShadowChef.sol\":3448:3512  uint256 public constant MASTERCHEF_SHDW_PER_BLOCK = 1.375 * 1e18 */\n    tag_195:\n        /* \"contracts/ShadowChef.sol\":3500:3512  1.375 * 1e18 */\n      0x1314fb3706298000\n        /* \"contracts/ShadowChef.sol\":3448:3512  uint256 public constant MASTERCHEF_SHDW_PER_BLOCK = 1.375 * 1e18 */\n      dup2\n      jump\t// out\n        /* \"contracts/ShadowChef.sol\":20952:21460  function settlependingShdw(\r... */\n    tag_226:\n        /* \"contracts/ShadowChef.sol\":21088:21108  UserInfo memory user */\n      tag_529\n      tag_450\n      jump\t// in\n    tag_529:\n      pop\n        /* \"contracts/ShadowChef.sol\":21111:21125  userInfo[_pid] */\n      0x00\n      dup3\n      dup2\n      mstore\n        /* \"contracts/ShadowChef.sol\":21111:21119  userInfo */\n      0x06\n        /* \"contracts/ShadowChef.sol\":21111:21125  userInfo[_pid] */\n      0x20\n      swap1\n      dup2\n      mstore\n      0x40\n      dup1\n      dup4\n      keccak256\n        /* \"contracts/ShadowChef.sol\":21111:21132  userInfo[_pid][_user] */\n      0xffffffffffffffffffffffffffffffffffffffff\n      dup8\n      and\n      dup5\n      mstore\n      dup3\n      mstore\n      dup1\n      dup4\n      keccak256\n        /* \"contracts/ShadowChef.sol\":21088:21132  UserInfo memory user = userInfo[_pid][_user] */\n      dup2\n      mload\n      0x60\n      dup2\n      add\n      dup4\n      mstore\n      dup2\n      sload\n      dup1\n      dup3\n      mstore\n      0x01\n      dup4\n      add\n      sload\n      swap5\n      dup3\n      add\n      swap5\n      swap1\n      swap5\n      mstore\n      0x02\n      swap1\n      swap2\n      add\n      sload\n      swap2\n      dup2\n      add\n      swap2\n      swap1\n      swap2\n      mstore\n      swap2\n        /* \"contracts/ShadowChef.sol\":21111:21125  userInfo[_pid] */\n      swap1\n        /* \"contracts/ShadowChef.sol\":21169:21223  user.amount.mul(_boostMultiplier).div(BOOST_PRECISION) */\n      tag_530\n      swap1\n        /* \"contracts/ShadowChef.sol\":3689:3699  100 * 1e10 */\n      0xe8d4a51000\n      swap1\n        /* \"contracts/ShadowChef.sol\":21169:21202  user.amount.mul(_boostMultiplier) */\n      tag_230\n      swap1\n        /* \"contracts/ShadowChef.sol\":21185:21201  _boostMultiplier */\n      dup7\n        /* \"contracts/ShadowChef.sol\":21169:21184  user.amount.mul */\n      tag_231\n        /* \"contracts/ShadowChef.sol\":21169:21202  user.amount.mul(_boostMultiplier) */\n      jump\t// in\n        /* \"contracts/ShadowChef.sol\":21169:21223  user.amount.mul(_boostMultiplier).div(BOOST_PRECISION) */\n    tag_530:\n        /* \"contracts/ShadowChef.sol\":21145:21223  uint256 boostedAmount = user.amount.mul(_boostMultiplier).div(BOOST_PRECISION) */\n      swap1\n      pop\n        /* \"contracts/ShadowChef.sol\":21234:21249  uint256 accShdw */\n      0x00\n        /* \"contracts/ShadowChef.sol\":21252:21325  boostedAmount.mul(poolInfo[_pid].accShdwPerShare).div(ACC_SHDW_PRECISION) */\n      tag_532\n        /* \"contracts/ShadowChef.sol\":3564:3568  1e18 */\n      0x0de0b6b3a7640000\n        /* \"contracts/ShadowChef.sol\":21252:21301  boostedAmount.mul(poolInfo[_pid].accShdwPerShare) */\n      tag_230\n        /* \"contracts/ShadowChef.sol\":21270:21278  poolInfo */\n      0x04\n        /* \"contracts/ShadowChef.sol\":21279:21283  _pid */\n      dup9\n        /* \"contracts/ShadowChef.sol\":21270:21284  poolInfo[_pid] */\n      dup2\n      sload\n      dup2\n      lt\n      tag_534\n      jumpi\n      invalid\n    tag_534:\n      0x00\n      swap2\n      dup3\n      mstore\n      0x20\n      swap1\n      swap2\n      keccak256\n      0x05\n      swap1\n      swap2\n      mul\n      add\n        /* \"contracts/ShadowChef.sol\":21270:21300  poolInfo[_pid].accShdwPerShare */\n      sload\n        /* \"contracts/ShadowChef.sol\":21252:21265  boostedAmount */\n      dup6\n      swap1\n        /* \"contracts/ShadowChef.sol\":21252:21269  boostedAmount.mul */\n      tag_231\n        /* \"contracts/ShadowChef.sol\":21252:21301  boostedAmount.mul(poolInfo[_pid].accShdwPerShare) */\n      jump\t// in\n        /* \"contracts/ShadowChef.sol\":21252:21325  boostedAmount.mul(poolInfo[_pid].accShdwPerShare).div(ACC_SHDW_PRECISION) */\n    tag_532:\n        /* \"contracts/ShadowChef.sol\":21234:21325  uint256 accShdw = boostedAmount.mul(poolInfo[_pid].accShdwPerShare).div(ACC_SHDW_PRECISION) */\n      swap1\n      pop\n        /* \"contracts/ShadowChef.sol\":21336:21351  uint256 pending */\n      0x00\n        /* \"contracts/ShadowChef.sol\":21354:21382  accShdw.sub(user.rewardDebt) */\n      tag_536\n        /* \"contracts/ShadowChef.sol\":21366:21370  user */\n      dup5\n        /* \"contracts/ShadowChef.sol\":21366:21381  user.rewardDebt */\n      0x20\n      add\n      mload\n        /* \"contracts/ShadowChef.sol\":21354:21361  accShdw */\n      dup4\n        /* \"contracts/ShadowChef.sol\":21354:21365  accShdw.sub */\n      tag_239\n      swap1\n        /* \"contracts/ShadowChef.sol\":21354:21382  accShdw.sub(user.rewardDebt) */\n      swap2\n      swap1\n      0xffffffff\n      and\n      jump\t// in\n    tag_536:\n        /* \"contracts/ShadowChef.sol\":21336:21382  uint256 pending = accShdw.sub(user.rewardDebt) */\n      swap1\n      pop\n        /* \"contracts/ShadowChef.sol\":21423:21452  _safeTransfer(_user, pending) */\n      tag_537\n        /* \"contracts/ShadowChef.sol\":21437:21442  _user */\n      dup8\n        /* \"contracts/ShadowChef.sol\":21444:21451  pending */\n      dup3\n        /* \"contracts/ShadowChef.sol\":21423:21436  _safeTransfer */\n      tag_274\n        /* \"contracts/ShadowChef.sol\":21423:21452  _safeTransfer(_user, pending) */\n      jump\t// in\n    tag_537:\n        /* \"contracts/ShadowChef.sol\":20952:21460  function settlependingShdw(\r... */\n      pop\n      pop\n      pop\n      pop\n      pop\n      pop\n      pop\n      jump\t// out\n        /* \"contracts/utils/SafeMath.sol\":2256:2727  function mul(uint256 a, uint256 b) internal pure returns (uint256) {\r... */\n    tag_231:\n        /* \"contracts/utils/SafeMath.sol\":2314:2321  uint256 */\n      0x00\n        /* \"contracts/utils/SafeMath.sol\":2559:2565  a == 0 */\n      dup3\n        /* \"contracts/utils/SafeMath.sol\":2555:2602  if (a == 0) {\r... */\n      tag_539\n      jumpi\n      pop\n        /* \"contracts/utils/SafeMath.sol\":2589:2590  0 */\n      0x00\n        /* \"contracts/utils/SafeMath.sol\":2582:2590  return 0 */\n      jump(tag_197)\n        /* \"contracts/utils/SafeMath.sol\":2555:2602  if (a == 0) {\r... */\n    tag_539:\n        /* \"contracts/utils/SafeMath.sol\":2626:2631  a * b */\n      dup3\n      dup3\n      mul\n        /* \"contracts/utils/SafeMath.sol\":2630:2631  b */\n      dup3\n        /* \"contracts/utils/SafeMath.sol\":2626:2627  a */\n      dup5\n        /* \"contracts/utils/SafeMath.sol\":2626:2631  a * b */\n      dup3\n        /* \"contracts/utils/SafeMath.sol\":2626:2627  a */\n      dup2\n        /* \"contracts/utils/SafeMath.sol\":2650:2655  c / a */\n      tag_540\n      jumpi\n      invalid\n    tag_540:\n      div\n        /* \"contracts/utils/SafeMath.sol\":2650:2660  c / a == b */\n      eq\n        /* \"contracts/utils/SafeMath.sol\":2642:2698  require(c / a == b, \"SafeMath: multiplication overflow\") */\n      tag_198\n      jumpi\n      mload(0x40)\n      0x08c379a000000000000000000000000000000000000000000000000000000000\n      dup2\n      mstore\n      0x04\n      add\n      tag_202\n      swap1\n      tag_543\n      jump\t// in\n        /* \"contracts/utils/SafeMath.sol\":3203:3335  function div(uint256 a, uint256 b) internal pure returns (uint256) {\r... */\n    tag_232:\n        /* \"contracts/utils/SafeMath.sol\":3261:3268  uint256 */\n      0x00\n        /* \"contracts/utils/SafeMath.sol\":3288:3327  div(a, b, \"SafeMath: division by zero\") */\n      tag_545\n        /* \"contracts/utils/SafeMath.sol\":3292:3293  a */\n      dup4\n        /* \"contracts/utils/SafeMath.sol\":3295:3296  b */\n      dup4\n        /* \"contracts/utils/SafeMath.sol\":3288:3327  div(a, b, \"SafeMath: division by zero\") */\n      mload(0x40)\n      dup1\n      0x40\n      add\n      0x40\n      mstore\n      dup1\n      0x1a\n      dup2\n      mstore\n      0x20\n      add\n      0x536166654d6174683a206469766973696f6e206279207a65726f000000000000\n      dup2\n      mstore\n      pop\n        /* \"contracts/utils/SafeMath.sol\":3288:3291  div */\n      tag_546\n        /* \"contracts/utils/SafeMath.sol\":3288:3327  div(a, b, \"SafeMath: division by zero\") */\n      jump\t// in\n    tag_545:\n        /* \"contracts/utils/SafeMath.sol\":3281:3327  return div(a, b, \"SafeMath: division by zero\") */\n      swap4\n        /* \"contracts/utils/SafeMath.sol\":3203:3335  function div(uint256 a, uint256 b) internal pure returns (uint256) {\r... */\n      swap3\n      pop\n      pop\n      pop\n      jump\t// out\n        /* \"contracts/utils/SafeMath.sol\":1366:1502  function sub(uint256 a, uint256 b) internal pure returns (uint256) {\r... */\n    tag_239:\n        /* \"contracts/utils/SafeMath.sol\":1424:1431  uint256 */\n      0x00\n        /* \"contracts/utils/SafeMath.sol\":1451:1494  sub(a, b, \"SafeMath: subtraction overflow\") */\n      tag_545\n        /* \"contracts/utils/SafeMath.sol\":1455:1456  a */\n      dup4\n        /* \"contracts/utils/SafeMath.sol\":1458:1459  b */\n      dup4\n        /* \"contracts/utils/SafeMath.sol\":1451:1494  sub(a, b, \"SafeMath: subtraction overflow\") */\n      mload(0x40)\n      dup1\n      0x40\n      add\n      0x40\n      mstore\n      dup1\n      0x1e\n      dup2\n      mstore\n      0x20\n      add\n      0x536166654d6174683a207375627472616374696f6e206f766572666c6f770000\n      dup2\n      mstore\n      pop\n        /* \"contracts/utils/SafeMath.sol\":1451:1454  sub */\n      tag_549\n        /* \"contracts/utils/SafeMath.sol\":1451:1494  sub(a, b, \"SafeMath: subtraction overflow\") */\n      jump\t// in\n        /* \"contracts/utils/SafeMath.sol\":902:1083  function add(uint256 a, uint256 b) internal pure returns (uint256) {\r... */\n    tag_240:\n        /* \"contracts/utils/SafeMath.sol\":960:967  uint256 */\n      0x00\n        /* \"contracts/utils/SafeMath.sol\":992:997  a + b */\n      dup3\n      dup3\n      add\n        /* \"contracts/utils/SafeMath.sol\":1016:1022  c >= a */\n      dup4\n      dup2\n      lt\n      iszero\n        /* \"contracts/utils/SafeMath.sol\":1008:1054  require(c >= a, \"SafeMath: addition overflow\") */\n      tag_198\n      jumpi\n      mload(0x40)\n      0x08c379a000000000000000000000000000000000000000000000000000000000\n      dup2\n      mstore\n      0x04\n      add\n      tag_202\n      swap1\n      tag_553\n      jump\t// in\n        /* \"contracts/GSN/Context.sol\":605:711  function _msgSender() internal view virtual returns (address payable) {\r... */\n    tag_247:\n        /* \"contracts/GSN/Context.sol\":693:703  msg.sender */\n      caller\n        /* \"contracts/GSN/Context.sol\":605:711  function _msgSender() internal view virtual returns (address payable) {\r... */\n      swap1\n      jump\t// out\n        /* \"contracts/ShadowChef.sol\":21599:21998  function _safeTransfer(address _to, uint256 _amount) internal {\r... */\n    tag_274:\n        /* \"contracts/ShadowChef.sol\":21676:21687  _amount > 0 */\n      dup1\n      iszero\n        /* \"contracts/ShadowChef.sol\":21672:21991  if (_amount > 0) {\r... */\n      tag_342\n      jumpi\n        /* \"contracts/ShadowChef.sol\":21815:21844  SHDW.balanceOf(address(this)) */\n      mload(0x40)\n      0x70a0823100000000000000000000000000000000000000000000000000000000\n      dup2\n      mstore\n        /* \"contracts/ShadowChef.sol\":21797:21812  uint256 balance */\n      0x00\n      swap1\n        /* \"contracts/ShadowChef.sol\":21815:21829  SHDW.balanceOf */\n      0xffffffffffffffffffffffffffffffffffffffff\n        /* \"contracts/ShadowChef.sol\":21815:21819  SHDW */\n      immutable(\"0xdb56024b3d6cde3a6cd02fd327b99549871e338b958b94e29cae4ab4619605ef\")\n        /* \"contracts/ShadowChef.sol\":21815:21829  SHDW.balanceOf */\n      and\n      swap1\n      0x70a08231\n      swap1\n        /* \"contracts/ShadowChef.sol\":21815:21844  SHDW.balanceOf(address(this)) */\n      tag_557\n      swap1\n        /* \"contracts/ShadowChef.sol\":21838:21842  this */\n      address\n      swap1\n        /* \"contracts/ShadowChef.sol\":21815:21844  SHDW.balanceOf(address(this)) */\n      0x04\n      add\n      tag_141\n      jump\t// in\n    tag_557:\n      0x20\n      mload(0x40)\n      dup1\n      dup4\n      sub\n      dup2\n      dup7\n      dup1\n      extcodesize\n      iszero\n      dup1\n      iszero\n      tag_558\n      jumpi\n      0x00\n      dup1\n      revert\n    tag_558:\n      pop\n      gas\n      staticcall\n      iszero\n      dup1\n      iszero\n      tag_560\n      jumpi\n      returndatasize\n      0x00\n      dup1\n      returndatacopy\n      revert(0x00, returndatasize)\n    tag_560:\n      pop\n      pop\n      pop\n      pop\n      mload(0x40)\n      returndatasize\n      not(0x1f)\n      0x1f\n      dup3\n      add\n      and\n      dup3\n      add\n      dup1\n      0x40\n      mstore\n      pop\n      dup2\n      add\n      swap1\n      tag_561\n      swap2\n      swap1\n      tag_427\n      jump\t// in\n    tag_561:\n        /* \"contracts/ShadowChef.sol\":21797:21844  uint256 balance = SHDW.balanceOf(address(this)) */\n      swap1\n      pop\n        /* \"contracts/ShadowChef.sol\":21873:21880  _amount */\n      dup2\n        /* \"contracts/ShadowChef.sol\":21863:21870  balance */\n      dup2\n        /* \"contracts/ShadowChef.sol\":21863:21880  balance < _amount */\n      lt\n        /* \"contracts/ShadowChef.sol\":21859:21934  if (balance < _amount) {\r... */\n      iszero\n      tag_562\n      jumpi\n        /* \"contracts/ShadowChef.sol\":21911:21918  balance */\n      dup1\n        /* \"contracts/ShadowChef.sol\":21901:21918  _amount = balance */\n      swap2\n      pop\n        /* \"contracts/ShadowChef.sol\":21859:21934  if (balance < _amount) {\r... */\n    tag_562:\n        /* \"contracts/ShadowChef.sol\":21948:21979  SHDW.safeTransfer(_to, _amount) */\n      tag_563\n        /* \"contracts/ShadowChef.sol\":21948:21965  SHDW.safeTransfer */\n      0xffffffffffffffffffffffffffffffffffffffff\n        /* \"contracts/ShadowChef.sol\":21948:21952  SHDW */\n      immutable(\"0xdb56024b3d6cde3a6cd02fd327b99549871e338b958b94e29cae4ab4619605ef\")\n        /* \"contracts/ShadowChef.sol\":21948:21965  SHDW.safeTransfer */\n      and\n        /* \"contracts/ShadowChef.sol\":21966:21969  _to */\n      dup5\n        /* \"contracts/ShadowChef.sol\":21971:21978  _amount */\n      dup5\n        /* \"contracts/ShadowChef.sol\":21948:21965  SHDW.safeTransfer */\n      tag_291\n        /* \"contracts/ShadowChef.sol\":21948:21979  SHDW.safeTransfer(_to, _amount) */\n      jump\t// in\n    tag_563:\n        /* \"contracts/ShadowChef.sol\":21672:21991  if (_amount > 0) {\r... */\n      pop\n        /* \"contracts/ShadowChef.sol\":21599:21998  function _safeTransfer(address _to, uint256 _amount) internal {\r... */\n      pop\n      pop\n      jump\t// out\n        /* \"contracts/SafeBEP20.sol\":719:967  function safeTransfer(\r... */\n    tag_291:\n        /* \"contracts/SafeBEP20.sol\":836:959  _callOptionalReturn(\r... */\n      tag_563\n        /* \"contracts/SafeBEP20.sol\":870:875  token */\n      dup4\n        /* \"contracts/SafeBEP20.sol\":913:936  token.transfer.selector */\n      shl(0xe0, 0xa9059cbb)\n        /* \"contracts/SafeBEP20.sol\":938:940  to */\n      dup5\n        /* \"contracts/SafeBEP20.sol\":942:947  value */\n      dup5\n        /* \"contracts/SafeBEP20.sol\":890:948  abi.encodeWithSelector(token.transfer.selector, to, value) */\n      add(0x24, mload(0x40))\n      tag_566\n      swap3\n      swap2\n      swap1\n      tag_567\n      jump\t// in\n    tag_566:\n      0x40\n      dup1\n      mload\n      0xffffffffffffffffffffffffffffffffffffffffffffffffffffffffffffffe0\n      dup2\n      dup5\n      sub\n      add\n      dup2\n      mstore\n      swap2\n      swap1\n      mstore\n      0x20\n      dup2\n      add\n      dup1\n      mload\n      0xffffffffffffffffffffffffffffffffffffffffffffffffffffffff\n      and\n      0xffffffff00000000000000000000000000000000000000000000000000000000\n      swap1\n      swap4\n      and\n      swap3\n      swap1\n      swap3\n      or\n      swap1\n      swap2\n      mstore\n        /* \"contracts/SafeBEP20.sol\":836:855  _callOptionalReturn */\n      tag_568\n        /* \"contracts/SafeBEP20.sol\":836:959  _callOptionalReturn(\r... */\n      jump\t// in\n        /* \"contracts/SafeBEP20.sol\":975:1260  function safeTransferFrom(\r... */\n    tag_493:\n        /* \"contracts/SafeBEP20.sol\":1119:1252  _callOptionalReturn(\r... */\n      tag_570\n        /* \"contracts/SafeBEP20.sol\":1153:1158  token */\n      dup5\n        /* \"contracts/SafeBEP20.sol\":1196:1223  token.transferFrom.selector */\n      shl(0xe0, 0x23b872dd)\n        /* \"contracts/SafeBEP20.sol\":1225:1229  from */\n      dup6\n        /* \"contracts/SafeBEP20.sol\":1231:1233  to */\n      dup6\n        /* \"contracts/SafeBEP20.sol\":1235:1240  value */\n      dup6\n        /* \"contracts/SafeBEP20.sol\":1173:1241  abi.encodeWithSelector(token.transferFrom.selector, from, to, value) */\n      add(0x24, mload(0x40))\n      tag_566\n      swap4\n      swap3\n      swap2\n      swap1\n      tag_572\n      jump\t// in\n        /* \"contracts/SafeBEP20.sol\":1119:1252  _callOptionalReturn(\r... */\n    tag_570:\n        /* \"contracts/SafeBEP20.sol\":975:1260  function safeTransferFrom(\r... */\n      pop\n      pop\n      pop\n      pop\n      jump\t// out\n        /* \"contracts/utils/SafeMath.sol\":3831:4109  function div(uint256 a, uint256 b, string memory errorMessage) internal pure returns (uint256) {\r... */\n    tag_546:\n        /* \"contracts/utils/SafeMath.sol\":3917:3924  uint256 */\n      0x00\n        /* \"contracts/utils/SafeMath.sol\":3952:3964  errorMessage */\n      dup2\n        /* \"contracts/utils/SafeMath.sol\":3945:3950  b > 0 */\n      dup4\n        /* \"contracts/utils/SafeMath.sol\":3937:3965  require(b > 0, errorMessage) */\n      tag_574\n      jumpi\n      mload(0x40)\n      0x08c379a000000000000000000000000000000000000000000000000000000000\n      dup2\n      mstore\n      0x04\n      add\n      tag_202\n      swap2\n      swap1\n      tag_576\n      jump\t// in\n    tag_574:\n      pop\n        /* \"contracts/utils/SafeMath.sol\":3976:3985  uint256 c */\n      0x00\n        /* \"contracts/utils/SafeMath.sol\":3992:3993  b */\n      dup4\n        /* \"contracts/utils/SafeMath.sol\":3988:3989  a */\n      dup6\n        /* \"contracts/utils/SafeMath.sol\":3988:3993  a / b */\n      dup2\n      tag_577\n      jumpi\n      invalid\n    tag_577:\n      div\n      swap6\n        /* \"contracts/utils/SafeMath.sol\":3831:4109  function div(uint256 a, uint256 b, string memory errorMessage) internal pure returns (uint256) {\r... */\n      swap5\n      pop\n      pop\n      pop\n      pop\n      pop\n      jump\t// out\n        /* \"contracts/utils/SafeMath.sol\":1805:1997  function sub(uint256 a, uint256 b, string memory errorMessage) internal pure returns (uint256) {\r... */\n    tag_549:\n        /* \"contracts/utils/SafeMath.sol\":1891:1898  uint256 */\n      0x00\n        /* \"contracts/utils/SafeMath.sol\":1927:1939  errorMessage */\n      dup2\n        /* \"contracts/utils/SafeMath.sol\":1919:1925  b <= a */\n      dup5\n      dup5\n      gt\n      iszero\n        /* \"contracts/utils/SafeMath.sol\":1911:1940  require(b <= a, errorMessage) */\n      tag_579\n      jumpi\n      mload(0x40)\n      0x08c379a000000000000000000000000000000000000000000000000000000000\n      dup2\n      mstore\n      0x04\n      add\n      tag_202\n      swap2\n      swap1\n      tag_576\n      jump\t// in\n    tag_579:\n      pop\n      pop\n      pop\n        /* \"contracts/utils/SafeMath.sol\":1963:1968  a - b */\n      swap1\n      sub\n      swap1\n        /* \"contracts/utils/SafeMath.sol\":1805:1997  function sub(uint256 a, uint256 b, string memory errorMessage) internal pure returns (uint256) {\r... */\n      jump\t// out\n        /* \"contracts/SafeBEP20.sol\":3430:4262  function _callOptionalReturn(IBEP20 token, bytes memory data) private {\r... */\n    tag_568:\n        /* \"contracts/SafeBEP20.sol\":3854:3877  bytes memory returndata */\n      0x60\n        /* \"contracts/SafeBEP20.sol\":3889:3958  address(token).functionCall(data, \"SafeBEP20: low-level call failed\") */\n      tag_582\n        /* \"contracts/SafeBEP20.sol\":3917:3921  data */\n      dup3\n        /* \"contracts/SafeBEP20.sol\":3889:3958  address(token).functionCall(data, \"SafeBEP20: low-level call failed\") */\n      mload(0x40)\n      dup1\n      0x40\n      add\n      0x40\n      mstore\n      dup1\n      0x20\n      dup2\n      mstore\n      0x20\n      add\n      0x5361666542455032303a206c6f772d6c6576656c2063616c6c206661696c6564\n      dup2\n      mstore\n      pop\n        /* \"contracts/SafeBEP20.sol\":3897:3902  token */\n      dup6\n        /* \"contracts/SafeBEP20.sol\":3889:3916  address(token).functionCall */\n      0xffffffffffffffffffffffffffffffffffffffff\n      and\n      tag_583\n      swap1\n        /* \"contracts/SafeBEP20.sol\":3889:3958  address(token).functionCall(data, \"SafeBEP20: low-level call failed\") */\n      swap3\n      swap2\n      swap1\n      0xffffffff\n      and\n      jump\t// in\n    tag_582:\n        /* \"contracts/SafeBEP20.sol\":3973:3990  returndata.length */\n      dup1\n      mload\n        /* \"contracts/SafeBEP20.sol\":3854:3958  bytes memory returndata =\r... */\n      swap1\n      swap2\n      pop\n        /* \"contracts/SafeBEP20.sol\":3973:3994  returndata.length > 0 */\n      iszero\n        /* \"contracts/SafeBEP20.sol\":3969:4255  if (returndata.length > 0) {\r... */\n      tag_563\n      jumpi\n        /* \"contracts/SafeBEP20.sol\":4146:4156  returndata */\n      dup1\n        /* \"contracts/SafeBEP20.sol\":4135:4165  abi.decode(returndata, (bool)) */\n      dup1\n      0x20\n      add\n      swap1\n      mload\n      dup2\n      add\n      swap1\n      tag_585\n      swap2\n      swap1\n      tag_586\n      jump\t// in\n    tag_585:\n        /* \"contracts/SafeBEP20.sol\":4109:4243  require(\r... */\n      tag_563\n      jumpi\n      mload(0x40)\n      0x08c379a000000000000000000000000000000000000000000000000000000000\n      dup2\n      mstore\n      0x04\n      add\n      tag_202\n      swap1\n      tag_589\n      jump\t// in\n        /* \"contracts/utils/Address.sol\":3661:3857  function functionCall(address target, bytes memory data, string memory errorMessage) internal returns (bytes memory) {\r... */\n    tag_583:\n        /* \"contracts/utils/Address.sol\":3764:3776  bytes memory */\n      0x60\n        /* \"contracts/utils/Address.sol\":3796:3849  _functionCallWithValue(target, data, 0, errorMessage) */\n      tag_591\n        /* \"contracts/utils/Address.sol\":3819:3825  target */\n      dup5\n        /* \"contracts/utils/Address.sol\":3827:3831  data */\n      dup5\n        /* \"contracts/utils/Address.sol\":3833:3834  0 */\n      0x00\n        /* \"contracts/utils/Address.sol\":3836:3848  errorMessage */\n      dup6\n        /* \"contracts/utils/Address.sol\":3796:3818  _functionCallWithValue */\n      tag_592\n        /* \"contracts/utils/Address.sol\":3796:3849  _functionCallWithValue(target, data, 0, errorMessage) */\n      jump\t// in\n    tag_591:\n        /* \"contracts/utils/Address.sol\":3789:3849  return _functionCallWithValue(target, data, 0, errorMessage) */\n      swap5\n        /* \"contracts/utils/Address.sol\":3661:3857  function functionCall(address target, bytes memory data, string memory errorMessage) internal returns (bytes memory) {\r... */\n      swap4\n      pop\n      pop\n      pop\n      pop\n      jump\t// out\n        /* \"contracts/utils/Address.sol\":5038:6017  function _functionCallWithValue(address target, bytes memory data, uint256 weiValue, string memory errorMessage) private returns (bytes memory) {\r... */\n    tag_592:\n        /* \"contracts/utils/Address.sol\":5168:5180  bytes memory */\n      0x60\n        /* \"contracts/utils/Address.sol\":5201:5219  isContract(target) */\n      tag_594\n        /* \"contracts/utils/Address.sol\":5212:5218  target */\n      dup6\n        /* \"contracts/utils/Address.sol\":5201:5211  isContract */\n      tag_595\n        /* \"contracts/utils/Address.sol\":5201:5219  isContract(target) */\n      jump\t// in\n    tag_594:\n        /* \"contracts/utils/Address.sol\":5193:5253  require(isContract(target), \"Address: call to non-contract\") */\n      tag_596\n      jumpi\n      mload(0x40)\n      0x08c379a000000000000000000000000000000000000000000000000000000000\n      dup2\n      mstore\n      0x04\n      add\n      tag_202\n      swap1\n      tag_598\n      jump\t// in\n    tag_596:\n        /* \"contracts/utils/Address.sol\":5327:5339  bool success */\n      0x00\n        /* \"contracts/utils/Address.sol\":5341:5364  bytes memory returndata */\n      0x60\n        /* \"contracts/utils/Address.sol\":5368:5374  target */\n      dup7\n        /* \"contracts/utils/Address.sol\":5368:5379  target.call */\n      0xffffffffffffffffffffffffffffffffffffffff\n      and\n        /* \"contracts/utils/Address.sol\":5388:5396  weiValue */\n      dup6\n        /* \"contracts/utils/Address.sol\":5399:5403  data */\n      dup8\n        /* \"contracts/utils/Address.sol\":5368:5404  target.call{ value: weiValue }(data) */\n      mload(0x40)\n      tag_599\n      swap2\n      swap1\n      tag_600\n      jump\t// in\n    tag_599:\n      0x00\n      mload(0x40)\n      dup1\n      dup4\n      sub\n      dup2\n      dup6\n      dup8\n      gas\n      call\n      swap3\n      pop\n      pop\n      pop\n      returndatasize\n      dup1\n      0x00\n      dup2\n      eq\n      tag_603\n      jumpi\n      mload(0x40)\n      swap2\n      pop\n      and(add(returndatasize, 0x3f), not(0x1f))\n      dup3\n      add\n      0x40\n      mstore\n      returndatasize\n      dup3\n      mstore\n      returndatasize\n      0x00\n      0x20\n      dup5\n      add\n      returndatacopy\n      jump(tag_602)\n    tag_603:\n      0x60\n      swap2\n      pop\n    tag_602:\n      pop\n        /* \"contracts/utils/Address.sol\":5326:5404  (bool success, bytes memory returndata) = target.call{ value: weiValue }(data) */\n      swap2\n      pop\n      swap2\n      pop\n        /* \"contracts/utils/Address.sol\":5419:5426  success */\n      dup2\n        /* \"contracts/utils/Address.sol\":5415:6010  if (success) {\r... */\n      iszero\n      tag_604\n      jumpi\n        /* \"contracts/utils/Address.sol\":5450:5460  returndata */\n      swap2\n      pop\n        /* \"contracts/utils/Address.sol\":5443:5460  return returndata */\n      tag_591\n      swap1\n      pop\n      jump\n        /* \"contracts/utils/Address.sol\":5415:6010  if (success) {\r... */\n    tag_604:\n        /* \"contracts/utils/Address.sol\":5564:5581  returndata.length */\n      dup1\n      mload\n        /* \"contracts/utils/Address.sol\":5564:5585  returndata.length > 0 */\n      iszero\n        /* \"contracts/utils/Address.sol\":5560:5999  if (returndata.length > 0) {\r... */\n      tag_606\n      jumpi\n        /* \"contracts/utils/Address.sol\":5827:5837  returndata */\n      dup1\n        /* \"contracts/utils/Address.sol\":5821:5838  mload(returndata) */\n      mload\n        /* \"contracts/utils/Address.sol\":5888:5903  returndata_size */\n      dup1\n        /* \"contracts/utils/Address.sol\":5875:5885  returndata */\n      dup3\n        /* \"contracts/utils/Address.sol\":5871:5873  32 */\n      0x20\n        /* \"contracts/utils/Address.sol\":5867:5886  add(32, returndata) */\n      add\n        /* \"contracts/utils/Address.sol\":5860:5904  revert(add(32, returndata), returndata_size) */\n      revert\n        /* \"contracts/utils/Address.sol\":5775:5923  {\r... */\n    tag_606:\n        /* \"contracts/utils/Address.sol\":5970:5982  errorMessage */\n      dup4\n        /* \"contracts/utils/Address.sol\":5963:5983  revert(errorMessage) */\n      mload(0x40)\n      0x08c379a000000000000000000000000000000000000000000000000000000000\n      dup2\n      mstore\n      0x04\n      add\n      tag_202\n      swap2\n      swap1\n      tag_576\n      jump\t// in\n        /* \"contracts/utils/Address.sol\":743:1165  function isContract(address account) internal view returns (bool) {\r... */\n    tag_595:\n        /* \"contracts/utils/Address.sol\":1110:1130  extcodesize(account) */\n      extcodesize\n        /* \"contracts/utils/Address.sol\":1149:1157  size > 0 */\n      iszero\n      iszero\n      swap1\n        /* \"contracts/utils/Address.sol\":743:1165  function isContract(address account) internal view returns (bool) {\r... */\n      jump\t// out\n    tag_222:\n      mload(0x40)\n      dup1\n      0xa0\n      add\n      0x40\n      mstore\n      dup1\n      0x00\n      dup2\n      mstore\n      0x20\n      add\n      0x00\n      dup2\n      mstore\n      0x20\n      add\n      0x00\n      dup2\n      mstore\n      0x20\n      add\n      0x00\n      dup2\n      mstore\n      0x20\n      add\n      iszero(iszero(0x00))\n      dup2\n      mstore\n      pop\n      swap1\n      jump\t// out\n    tag_450:\n      mload(0x40)\n      dup1\n      0x60\n      add\n      0x40\n      mstore\n      dup1\n      0x00\n      dup2\n      mstore\n      0x20\n      add\n      0x00\n      dup2\n      mstore\n      0x20\n      add\n      0x00\n      dup2\n      mstore\n      pop\n      swap1\n      jump\t// out\n        /* \"--CODEGEN--\":853:1094   */\n    tag_75:\n      0x00\n        /* \"--CODEGEN--\":957:959   */\n      0x20\n        /* \"--CODEGEN--\":945:954   */\n      dup3\n        /* \"--CODEGEN--\":936:943   */\n      dup5\n        /* \"--CODEGEN--\":932:955   */\n      sub\n        /* \"--CODEGEN--\":928:960   */\n      slt\n        /* \"--CODEGEN--\":925:927   */\n      iszero\n      tag_612\n      jumpi\n      dup1\n      dup2\n        /* \"--CODEGEN--\":963:975   */\n      revert\n        /* \"--CODEGEN--\":925:927   */\n    tag_612:\n        /* \"--CODEGEN--\":85:91   */\n      dup2\n        /* \"--CODEGEN--\":72:92   */\n      calldataload\n        /* \"--CODEGEN--\":97:130   */\n      tag_198\n        /* \"--CODEGEN--\":124:129   */\n      dup2\n        /* \"--CODEGEN--\":97:130   */\n      tag_614\n      jump\t// in\n        /* \"--CODEGEN--\":1101:1461   */\n    tag_159:\n      0x00\n      dup1\n        /* \"--CODEGEN--\":1219:1221   */\n      0x40\n        /* \"--CODEGEN--\":1207:1216   */\n      dup4\n        /* \"--CODEGEN--\":1198:1205   */\n      dup6\n        /* \"--CODEGEN--\":1194:1217   */\n      sub\n        /* \"--CODEGEN--\":1190:1222   */\n      slt\n        /* \"--CODEGEN--\":1187:1189   */\n      iszero\n      tag_616\n      jumpi\n      dup1\n      dup2\n        /* \"--CODEGEN--\":1225:1237   */\n      revert\n        /* \"--CODEGEN--\":1187:1189   */\n    tag_616:\n        /* \"--CODEGEN--\":85:91   */\n      dup3\n        /* \"--CODEGEN--\":72:92   */\n      calldataload\n        /* \"--CODEGEN--\":97:130   */\n      tag_617\n        /* \"--CODEGEN--\":124:129   */\n      dup2\n        /* \"--CODEGEN--\":97:130   */\n      tag_614\n      jump\t// in\n    tag_617:\n        /* \"--CODEGEN--\":1277:1340   */\n      swap2\n      pop\n        /* \"--CODEGEN--\":1377:1379   */\n      0x20\n        /* \"--CODEGEN--\":1413:1435   */\n      dup4\n      add\n        /* \"--CODEGEN--\":206:226   */\n      calldataload\n        /* \"--CODEGEN--\":231:261   */\n      tag_618\n        /* \"--CODEGEN--\":206:226   */\n      dup2\n        /* \"--CODEGEN--\":231:261   */\n      tag_619\n      jump\t// in\n    tag_618:\n        /* \"--CODEGEN--\":1385:1445   */\n      dup1\n      swap2\n      pop\n      pop\n        /* \"--CODEGEN--\":1181:1461   */\n      swap3\n      pop\n      swap3\n      swap1\n      pop\n      jump\t// out\n        /* \"--CODEGEN--\":1468:1834   */\n    tag_58:\n      0x00\n      dup1\n        /* \"--CODEGEN--\":1589:1591   */\n      0x40\n        /* \"--CODEGEN--\":1577:1586   */\n      dup4\n        /* \"--CODEGEN--\":1568:1575   */\n      dup6\n        /* \"--CODEGEN--\":1564:1587   */\n      sub\n        /* \"--CODEGEN--\":1560:1592   */\n      slt\n        /* \"--CODEGEN--\":1557:1559   */\n      iszero\n      tag_621\n      jumpi\n      dup2\n      dup3\n        /* \"--CODEGEN--\":1595:1607   */\n      revert\n        /* \"--CODEGEN--\":1557:1559   */\n    tag_621:\n        /* \"--CODEGEN--\":85:91   */\n      dup3\n        /* \"--CODEGEN--\":72:92   */\n      calldataload\n        /* \"--CODEGEN--\":97:130   */\n      tag_622\n        /* \"--CODEGEN--\":124:129   */\n      dup2\n        /* \"--CODEGEN--\":97:130   */\n      tag_614\n      jump\t// in\n    tag_622:\n        /* \"--CODEGEN--\":1647:1710   */\n      swap5\n        /* \"--CODEGEN--\":1747:1749   */\n      0x20\n        /* \"--CODEGEN--\":1786:1808   */\n      swap4\n      swap1\n      swap4\n      add\n        /* \"--CODEGEN--\":642:662   */\n      calldataload\n      swap4\n      pop\n      pop\n      pop\n        /* \"--CODEGEN--\":1551:1834   */\n      jump\t// out\n        /* \"--CODEGEN--\":1841:2332   */\n    tag_68:\n      0x00\n      dup1\n      0x00\n        /* \"--CODEGEN--\":1979:1981   */\n      0x60\n        /* \"--CODEGEN--\":1967:1976   */\n      dup5\n        /* \"--CODEGEN--\":1958:1965   */\n      dup7\n        /* \"--CODEGEN--\":1954:1977   */\n      sub\n        /* \"--CODEGEN--\":1950:1982   */\n      slt\n        /* \"--CODEGEN--\":1947:1949   */\n      iszero\n      tag_624\n      jumpi\n      dup1\n      dup2\n        /* \"--CODEGEN--\":1985:1997   */\n      revert\n        /* \"--CODEGEN--\":1947:1949   */\n    tag_624:\n        /* \"--CODEGEN--\":85:91   */\n      dup4\n        /* \"--CODEGEN--\":72:92   */\n      calldataload\n        /* \"--CODEGEN--\":97:130   */\n      tag_625\n        /* \"--CODEGEN--\":124:129   */\n      dup2\n        /* \"--CODEGEN--\":97:130   */\n      tag_614\n      jump\t// in\n    tag_625:\n        /* \"--CODEGEN--\":2037:2100   */\n      swap6\n        /* \"--CODEGEN--\":2137:2139   */\n      0x20\n        /* \"--CODEGEN--\":2176:2198   */\n      dup6\n      add\n        /* \"--CODEGEN--\":642:662   */\n      calldataload\n      swap6\n      pop\n        /* \"--CODEGEN--\":2245:2247   */\n      0x40\n        /* \"--CODEGEN--\":2284:2306   */\n      swap1\n      swap5\n      add\n        /* \"--CODEGEN--\":642:662   */\n      calldataload\n      swap4\n        /* \"--CODEGEN--\":1941:2332   */\n      swap3\n      pop\n      pop\n      pop\n      jump\t// out\n        /* \"--CODEGEN--\":2339:2574   */\n    tag_91:\n      0x00\n        /* \"--CODEGEN--\":2440:2442   */\n      0x20\n        /* \"--CODEGEN--\":2428:2437   */\n      dup3\n        /* \"--CODEGEN--\":2419:2426   */\n      dup5\n        /* \"--CODEGEN--\":2415:2438   */\n      sub\n        /* \"--CODEGEN--\":2411:2443   */\n      slt\n        /* \"--CODEGEN--\":2408:2410   */\n      iszero\n      tag_627\n      jumpi\n      dup1\n      dup2\n        /* \"--CODEGEN--\":2446:2458   */\n      revert\n        /* \"--CODEGEN--\":2408:2410   */\n    tag_627:\n        /* \"--CODEGEN--\":219:225   */\n      dup2\n        /* \"--CODEGEN--\":206:226   */\n      calldataload\n        /* \"--CODEGEN--\":231:261   */\n      tag_198\n        /* \"--CODEGEN--\":255:260   */\n      dup2\n        /* \"--CODEGEN--\":231:261   */\n      tag_619\n      jump\t// in\n        /* \"--CODEGEN--\":2581:2838   */\n    tag_586:\n      0x00\n        /* \"--CODEGEN--\":2693:2695   */\n      0x20\n        /* \"--CODEGEN--\":2681:2690   */\n      dup3\n        /* \"--CODEGEN--\":2672:2679   */\n      dup5\n        /* \"--CODEGEN--\":2668:2691   */\n      sub\n        /* \"--CODEGEN--\":2664:2696   */\n      slt\n        /* \"--CODEGEN--\":2661:2663   */\n      iszero\n      tag_630\n      jumpi\n      dup1\n      dup2\n        /* \"--CODEGEN--\":2699:2711   */\n      revert\n        /* \"--CODEGEN--\":2661:2663   */\n    tag_630:\n        /* \"--CODEGEN--\":354:360   */\n      dup2\n        /* \"--CODEGEN--\":348:361   */\n      mload\n        /* \"--CODEGEN--\":366:396   */\n      tag_198\n        /* \"--CODEGEN--\":390:395   */\n      dup2\n        /* \"--CODEGEN--\":366:396   */\n      tag_619\n      jump\t// in\n        /* \"--CODEGEN--\":2845:3086   */\n    tag_79:\n      0x00\n        /* \"--CODEGEN--\":2949:2951   */\n      0x20\n        /* \"--CODEGEN--\":2937:2946   */\n      dup3\n        /* \"--CODEGEN--\":2928:2935   */\n      dup5\n        /* \"--CODEGEN--\":2924:2947   */\n      sub\n        /* \"--CODEGEN--\":2920:2952   */\n      slt\n        /* \"--CODEGEN--\":2917:2919   */\n      iszero\n      tag_633\n      jumpi\n      dup1\n      dup2\n        /* \"--CODEGEN--\":2955:2967   */\n      revert\n        /* \"--CODEGEN--\":2917:2919   */\n    tag_633:\n      pop\n        /* \"--CODEGEN--\":642:662   */\n      calldataload\n      swap2\n        /* \"--CODEGEN--\":2911:3086   */\n      swap1\n      pop\n      jump\t// out\n        /* \"--CODEGEN--\":3093:3356   */\n    tag_427:\n      0x00\n        /* \"--CODEGEN--\":3208:3210   */\n      0x20\n        /* \"--CODEGEN--\":3196:3205   */\n      dup3\n        /* \"--CODEGEN--\":3187:3194   */\n      dup5\n        /* \"--CODEGEN--\":3183:3206   */\n      sub\n        /* \"--CODEGEN--\":3179:3211   */\n      slt\n        /* \"--CODEGEN--\":3176:3178   */\n      iszero\n      tag_635\n      jumpi\n      dup1\n      dup2\n        /* \"--CODEGEN--\":3214:3226   */\n      revert\n        /* \"--CODEGEN--\":3176:3178   */\n    tag_635:\n      pop\n        /* \"--CODEGEN--\":790:803   */\n      mload\n      swap2\n        /* \"--CODEGEN--\":3170:3356   */\n      swap1\n      pop\n      jump\t// out\n        /* \"--CODEGEN--\":3363:3729   */\n    tag_147:\n      0x00\n      dup1\n        /* \"--CODEGEN--\":3484:3486   */\n      0x40\n        /* \"--CODEGEN--\":3472:3481   */\n      dup4\n        /* \"--CODEGEN--\":3463:3470   */\n      dup6\n        /* \"--CODEGEN--\":3459:3482   */\n      sub\n        /* \"--CODEGEN--\":3455:3487   */\n      slt\n        /* \"--CODEGEN--\":3452:3454   */\n      iszero\n      tag_637\n      jumpi\n      dup2\n      dup3\n        /* \"--CODEGEN--\":3490:3502   */\n      revert\n        /* \"--CODEGEN--\":3452:3454   */\n    tag_637:\n        /* \"--CODEGEN--\":655:661   */\n      dup3\n        /* \"--CODEGEN--\":642:662   */\n      calldataload\n        /* \"--CODEGEN--\":3542:3605   */\n      swap2\n      pop\n        /* \"--CODEGEN--\":3642:3644   */\n      0x20\n        /* \"--CODEGEN--\":3685:3694   */\n      dup4\n        /* \"--CODEGEN--\":3681:3703   */\n      add\n        /* \"--CODEGEN--\":72:92   */\n      calldataload\n        /* \"--CODEGEN--\":97:130   */\n      tag_618\n        /* \"--CODEGEN--\":124:129   */\n      dup2\n        /* \"--CODEGEN--\":97:130   */\n      tag_614\n      jump\t// in\n        /* \"--CODEGEN--\":3736:4371   */\n    tag_166:\n      0x00\n      dup1\n      0x00\n      dup1\n        /* \"--CODEGEN--\":3900:3903   */\n      0x80\n        /* \"--CODEGEN--\":3888:3897   */\n      dup6\n        /* \"--CODEGEN--\":3879:3886   */\n      dup8\n        /* \"--CODEGEN--\":3875:3898   */\n      sub\n        /* \"--CODEGEN--\":3871:3904   */\n      slt\n        /* \"--CODEGEN--\":3868:3870   */\n      iszero\n      tag_640\n      jumpi\n      dup1\n      dup2\n        /* \"--CODEGEN--\":3907:3919   */\n      revert\n        /* \"--CODEGEN--\":3868:3870   */\n    tag_640:\n        /* \"--CODEGEN--\":655:661   */\n      dup5\n        /* \"--CODEGEN--\":642:662   */\n      calldataload\n        /* \"--CODEGEN--\":3959:4022   */\n      swap4\n      pop\n        /* \"--CODEGEN--\":4059:4061   */\n      0x20\n        /* \"--CODEGEN--\":4117:4126   */\n      dup6\n        /* \"--CODEGEN--\":4113:4135   */\n      add\n        /* \"--CODEGEN--\":490:510   */\n      calldataload\n        /* \"--CODEGEN--\":515:563   */\n      tag_641\n        /* \"--CODEGEN--\":557:562   */\n      dup2\n        /* \"--CODEGEN--\":515:563   */\n      tag_614\n      jump\t// in\n    tag_641:\n        /* \"--CODEGEN--\":4067:4145   */\n      swap3\n      pop\n        /* \"--CODEGEN--\":4182:4184   */\n      0x40\n        /* \"--CODEGEN--\":4218:4240   */\n      dup6\n      add\n        /* \"--CODEGEN--\":206:226   */\n      calldataload\n        /* \"--CODEGEN--\":231:261   */\n      tag_642\n        /* \"--CODEGEN--\":206:226   */\n      dup2\n        /* \"--CODEGEN--\":231:261   */\n      tag_619\n      jump\t// in\n    tag_642:\n        /* \"--CODEGEN--\":4190:4250   */\n      swap2\n      pop\n        /* \"--CODEGEN--\":4287:4289   */\n      0x60\n        /* \"--CODEGEN--\":4323:4345   */\n      dup6\n      add\n        /* \"--CODEGEN--\":206:226   */\n      calldataload\n        /* \"--CODEGEN--\":231:261   */\n      tag_643\n        /* \"--CODEGEN--\":206:226   */\n      dup2\n        /* \"--CODEGEN--\":231:261   */\n      tag_619\n      jump\t// in\n    tag_643:\n        /* \"--CODEGEN--\":3862:4371   */\n      swap4\n      swap7\n      swap3\n      swap6\n      pop\n      swap1\n      swap4\n      pop\n      pop\n      jump\t// out\n        /* \"--CODEGEN--\":4378:4744   */\n    tag_100:\n      0x00\n      dup1\n        /* \"--CODEGEN--\":4499:4501   */\n      0x40\n        /* \"--CODEGEN--\":4487:4496   */\n      dup4\n        /* \"--CODEGEN--\":4478:4485   */\n      dup6\n        /* \"--CODEGEN--\":4474:4497   */\n      sub\n        /* \"--CODEGEN--\":4470:4502   */\n      slt\n        /* \"--CODEGEN--\":4467:4469   */\n      iszero\n      tag_645\n      jumpi\n      dup2\n      dup3\n        /* \"--CODEGEN--\":4505:4517   */\n      revert\n        /* \"--CODEGEN--\":4467:4469   */\n    tag_645:\n      pop\n      pop\n        /* \"--CODEGEN--\":642:662   */\n      dup1\n      calldataload\n      swap3\n        /* \"--CODEGEN--\":4657:4659   */\n      0x20\n        /* \"--CODEGEN--\":4696:4718   */\n      swap1\n      swap2\n      add\n        /* \"--CODEGEN--\":642:662   */\n      calldataload\n      swap2\n      pop\n        /* \"--CODEGEN--\":4461:4744   */\n      jump\t// out\n        /* \"--CODEGEN--\":4751:5236   */\n    tag_114:\n      0x00\n      dup1\n      0x00\n        /* \"--CODEGEN--\":4886:4888   */\n      0x60\n        /* \"--CODEGEN--\":4874:4883   */\n      dup5\n        /* \"--CODEGEN--\":4865:4872   */\n      dup7\n        /* \"--CODEGEN--\":4861:4884   */\n      sub\n        /* \"--CODEGEN--\":4857:4889   */\n      slt\n        /* \"--CODEGEN--\":4854:4856   */\n      iszero\n      tag_647\n      jumpi\n      dup3\n      dup4\n        /* \"--CODEGEN--\":4892:4904   */\n      revert\n        /* \"--CODEGEN--\":4854:4856   */\n    tag_647:\n        /* \"--CODEGEN--\":655:661   */\n      dup4\n        /* \"--CODEGEN--\":642:662   */\n      calldataload\n        /* \"--CODEGEN--\":4944:5007   */\n      swap3\n      pop\n        /* \"--CODEGEN--\":5044:5046   */\n      0x20\n        /* \"--CODEGEN--\":5087:5096   */\n      dup5\n        /* \"--CODEGEN--\":5083:5105   */\n      add\n        /* \"--CODEGEN--\":642:662   */\n      calldataload\n        /* \"--CODEGEN--\":5052:5115   */\n      swap2\n      pop\n        /* \"--CODEGEN--\":5152:5154   */\n      0x40\n        /* \"--CODEGEN--\":5192:5201   */\n      dup5\n        /* \"--CODEGEN--\":5188:5210   */\n      add\n        /* \"--CODEGEN--\":206:226   */\n      calldataload\n        /* \"--CODEGEN--\":231:261   */\n      tag_648\n        /* \"--CODEGEN--\":255:260   */\n      dup2\n        /* \"--CODEGEN--\":231:261   */\n      tag_619\n      jump\t// in\n    tag_648:\n        /* \"--CODEGEN--\":5160:5220   */\n      dup1\n      swap2\n      pop\n      pop\n        /* \"--CODEGEN--\":4848:5236   */\n      swap3\n      pop\n      swap3\n      pop\n      swap3\n      jump\t// out\n        /* \"--CODEGEN--\":5243:5854   */\n    tag_136:\n      0x00\n      dup1\n      0x00\n      dup1\n        /* \"--CODEGEN--\":5395:5398   */\n      0x80\n        /* \"--CODEGEN--\":5383:5392   */\n      dup6\n        /* \"--CODEGEN--\":5374:5381   */\n      dup8\n        /* \"--CODEGEN--\":5370:5393   */\n      sub\n        /* \"--CODEGEN--\":5366:5399   */\n      slt\n        /* \"--CODEGEN--\":5363:5365   */\n      iszero\n      tag_650\n      jumpi\n      dup4\n      dup5\n        /* \"--CODEGEN--\":5402:5414   */\n      revert\n        /* \"--CODEGEN--\":5363:5365   */\n    tag_650:\n        /* \"--CODEGEN--\":655:661   */\n      dup5\n        /* \"--CODEGEN--\":642:662   */\n      calldataload\n        /* \"--CODEGEN--\":5454:5517   */\n      swap4\n      pop\n        /* \"--CODEGEN--\":5554:5556   */\n      0x20\n        /* \"--CODEGEN--\":5597:5606   */\n      dup6\n        /* \"--CODEGEN--\":5593:5615   */\n      add\n        /* \"--CODEGEN--\":642:662   */\n      calldataload\n        /* \"--CODEGEN--\":5562:5625   */\n      swap3\n      pop\n        /* \"--CODEGEN--\":5662:5664   */\n      0x40\n        /* \"--CODEGEN--\":5705:5714   */\n      dup6\n        /* \"--CODEGEN--\":5701:5723   */\n      add\n        /* \"--CODEGEN--\":642:662   */\n      calldataload\n        /* \"--CODEGEN--\":5670:5733   */\n      swap2\n      pop\n        /* \"--CODEGEN--\":5770:5772   */\n      0x60\n        /* \"--CODEGEN--\":5810:5819   */\n      dup6\n        /* \"--CODEGEN--\":5806:5828   */\n      add\n        /* \"--CODEGEN--\":206:226   */\n      calldataload\n        /* \"--CODEGEN--\":231:261   */\n      tag_643\n        /* \"--CODEGEN--\":255:260   */\n      dup2\n        /* \"--CODEGEN--\":231:261   */\n      tag_619\n      jump\t// in\n        /* \"--CODEGEN--\":16322:16593   */\n    tag_600:\n      0x00\n        /* \"--CODEGEN--\":6353:6358   */\n      dup3\n        /* \"--CODEGEN--\":29384:29396   */\n      mload\n        /* \"--CODEGEN--\":6464:6516   */\n      tag_653\n        /* \"--CODEGEN--\":6509:6515   */\n      dup2\n        /* \"--CODEGEN--\":6504:6507   */\n      dup5\n        /* \"--CODEGEN--\":6497:6501   */\n      0x20\n        /* \"--CODEGEN--\":6490:6495   */\n      dup8\n        /* \"--CODEGEN--\":6486:6502   */\n      add\n        /* \"--CODEGEN--\":6464:6516   */\n      tag_654\n      jump\t// in\n    tag_653:\n        /* \"--CODEGEN--\":6528:6544   */\n      swap2\n      swap1\n      swap2\n      add\n      swap3\n        /* \"--CODEGEN--\":16456:16593   */\n      swap2\n      pop\n      pop\n      jump\t// out\n        /* \"--CODEGEN--\":16600:16822   */\n    tag_141:\n        /* \"--CODEGEN--\":30255:30297   */\n      0xffffffffffffffffffffffffffffffffffffffff\n        /* \"--CODEGEN--\":30244:30298   */\n      swap2\n      swap1\n      swap2\n      and\n        /* \"--CODEGEN--\":5932:5969   */\n      dup2\n      mstore\n        /* \"--CODEGEN--\":16727:16729   */\n      0x20\n        /* \"--CODEGEN--\":16712:16730   */\n      add\n      swap1\n        /* \"--CODEGEN--\":16698:16822   */\n      jump\t// out\n        /* \"--CODEGEN--\":16829:17273   */\n    tag_572:\n        /* \"--CODEGEN--\":30255:30297   */\n      0xffffffffffffffffffffffffffffffffffffffff\n        /* \"--CODEGEN--\":30244:30298   */\n      swap4\n      dup5\n      and\n        /* \"--CODEGEN--\":5932:5969   */\n      dup2\n      mstore\n        /* \"--CODEGEN--\":30244:30298   */\n      swap2\n      swap1\n      swap3\n      and\n        /* \"--CODEGEN--\":17176:17178   */\n      0x20\n        /* \"--CODEGEN--\":17161:17179   */\n      dup3\n      add\n        /* \"--CODEGEN--\":5932:5969   */\n      mstore\n        /* \"--CODEGEN--\":17259:17261   */\n      0x40\n        /* \"--CODEGEN--\":17244:17262   */\n      dup2\n      add\n        /* \"--CODEGEN--\":16153:16190   */\n      swap2\n      swap1\n      swap2\n      mstore\n        /* \"--CODEGEN--\":17012:17014   */\n      0x60\n        /* \"--CODEGEN--\":16997:17015   */\n      add\n      swap1\n        /* \"--CODEGEN--\":16983:17273   */\n      jump\t// out\n        /* \"--CODEGEN--\":17280:17613   */\n    tag_567:\n        /* \"--CODEGEN--\":30255:30297   */\n      0xffffffffffffffffffffffffffffffffffffffff\n        /* \"--CODEGEN--\":30244:30298   */\n      swap3\n      swap1\n      swap3\n      and\n        /* \"--CODEGEN--\":5932:5969   */\n      dup3\n      mstore\n        /* \"--CODEGEN--\":17599:17601   */\n      0x20\n        /* \"--CODEGEN--\":17584:17602   */\n      dup3\n      add\n        /* \"--CODEGEN--\":16153:16190   */\n      mstore\n        /* \"--CODEGEN--\":17435:17437   */\n      0x40\n        /* \"--CODEGEN--\":17420:17438   */\n      add\n      swap1\n        /* \"--CODEGEN--\":17406:17613   */\n      jump\t// out\n        /* \"--CODEGEN--\":17620:17830   */\n    tag_97:\n        /* \"--CODEGEN--\":30043:30056   */\n      swap1\n      iszero\n        /* \"--CODEGEN--\":30036:30057   */\n      iszero\n        /* \"--CODEGEN--\":6036:6070   */\n      dup2\n      mstore\n        /* \"--CODEGEN--\":17741:17743   */\n      0x20\n        /* \"--CODEGEN--\":17726:17744   */\n      add\n      swap1\n        /* \"--CODEGEN--\":17712:17830   */\n      jump\t// out\n        /* \"--CODEGEN--\":18096:18406   */\n    tag_576:\n      0x00\n        /* \"--CODEGEN--\":18243:18245   */\n      0x20\n        /* \"--CODEGEN--\":18264:18281   */\n      dup3\n        /* \"--CODEGEN--\":18257:18304   */\n      mstore\n        /* \"--CODEGEN--\":6864:6869   */\n      dup3\n        /* \"--CODEGEN--\":29384:29396   */\n      mload\n        /* \"--CODEGEN--\":29823:29829   */\n      dup1\n        /* \"--CODEGEN--\":18243:18245   */\n      0x20\n        /* \"--CODEGEN--\":18232:18241   */\n      dup5\n        /* \"--CODEGEN--\":18228:18246   */\n      add\n        /* \"--CODEGEN--\":29811:29830   */\n      mstore\n        /* \"--CODEGEN--\":6958:7010   */\n      tag_661\n        /* \"--CODEGEN--\":7003:7009   */\n      dup2\n        /* \"--CODEGEN--\":29851:29865   */\n      0x40\n        /* \"--CODEGEN--\":18232:18241   */\n      dup6\n        /* \"--CODEGEN--\":29851:29865   */\n      add\n        /* \"--CODEGEN--\":18243:18245   */\n      0x20\n        /* \"--CODEGEN--\":6984:6989   */\n      dup8\n        /* \"--CODEGEN--\":6980:6996   */\n      add\n        /* \"--CODEGEN--\":6958:7010   */\n      tag_654\n      jump\t// in\n    tag_661:\n        /* \"--CODEGEN--\":31042:31044   */\n      0x1f\n        /* \"--CODEGEN--\":31022:31036   */\n      add\n        /* \"--CODEGEN--\":31038:31045   */\n      0xffffffffffffffffffffffffffffffffffffffffffffffffffffffffffffffe0\n        /* \"--CODEGEN--\":31018:31046   */\n      and\n        /* \"--CODEGEN--\":7022:7061   */\n      swap2\n      swap1\n      swap2\n      add\n        /* \"--CODEGEN--\":29851:29865   */\n      0x40\n        /* \"--CODEGEN--\":7022:7061   */\n      add\n      swap3\n        /* \"--CODEGEN--\":18214:18406   */\n      swap2\n      pop\n      pop\n      jump\t// out\n        /* \"--CODEGEN--\":18413:18829   */\n    tag_220:\n        /* \"--CODEGEN--\":18613:18615   */\n      0x20\n        /* \"--CODEGEN--\":18627:18674   */\n      dup1\n      dup3\n      mstore\n        /* \"--CODEGEN--\":7298:7300   */\n      0x2a\n        /* \"--CODEGEN--\":18598:18616   */\n      swap1\n      dup3\n      add\n        /* \"--CODEGEN--\":29811:29830   */\n      mstore\n        /* \"--CODEGEN--\":7334:7368   */\n      0x536861646f774368656656323a20496e76616c6964206e657720626f6f737420\n        /* \"--CODEGEN--\":29851:29865   */\n      0x40\n      dup3\n      add\n        /* \"--CODEGEN--\":7314:7369   */\n      mstore\n        /* \"--CODEGEN--\":7403:7415   */\n      0x6d756c7469706c69657200000000000000000000000000000000000000000000\n        /* \"--CODEGEN--\":7389:7401   */\n      0x60\n      dup3\n      add\n        /* \"--CODEGEN--\":7382:7416   */\n      mstore\n        /* \"--CODEGEN--\":7435:7447   */\n      0x80\n      add\n      swap1\n        /* \"--CODEGEN--\":18584:18829   */\n      jump\t// out\n        /* \"--CODEGEN--\":18836:19252   */\n    tag_211:\n        /* \"--CODEGEN--\":19036:19038   */\n      0x20\n        /* \"--CODEGEN--\":19050:19097   */\n      dup1\n      dup3\n      mstore\n        /* \"--CODEGEN--\":7686:7688   */\n      0x2c\n        /* \"--CODEGEN--\":19021:19039   */\n      swap1\n      dup3\n      add\n        /* \"--CODEGEN--\":29811:29830   */\n      mstore\n        /* \"--CODEGEN--\":7722:7756   */\n      0x536861646f774368656656323a2054686520757365722061646472657373206d\n        /* \"--CODEGEN--\":29851:29865   */\n      0x40\n      dup3\n      add\n        /* \"--CODEGEN--\":7702:7757   */\n      mstore\n        /* \"--CODEGEN--\":7791:7805   */\n      0x7573742062652076616c69640000000000000000000000000000000000000000\n        /* \"--CODEGEN--\":7777:7789   */\n      0x60\n      dup3\n      add\n        /* \"--CODEGEN--\":7770:7806   */\n      mstore\n        /* \"--CODEGEN--\":7825:7837   */\n      0x80\n      add\n      swap1\n        /* \"--CODEGEN--\":19007:19252   */\n      jump\t// out\n        /* \"--CODEGEN--\":19259:19675   */\n    tag_589:\n        /* \"--CODEGEN--\":19459:19461   */\n      0x20\n        /* \"--CODEGEN--\":19473:19520   */\n      dup1\n      dup3\n      mstore\n        /* \"--CODEGEN--\":8076:8078   */\n      0x2a\n        /* \"--CODEGEN--\":19444:19462   */\n      swap1\n      dup3\n      add\n        /* \"--CODEGEN--\":29811:29830   */\n      mstore\n        /* \"--CODEGEN--\":8112:8146   */\n      0x5361666542455032303a204245503230206f7065726174696f6e20646964206e\n        /* \"--CODEGEN--\":29851:29865   */\n      0x40\n      dup3\n      add\n        /* \"--CODEGEN--\":8092:8147   */\n      mstore\n        /* \"--CODEGEN--\":8181:8193   */\n      0x6f74207375636365656400000000000000000000000000000000000000000000\n        /* \"--CODEGEN--\":8167:8179   */\n      0x60\n      dup3\n      add\n        /* \"--CODEGEN--\":8160:8194   */\n      mstore\n        /* \"--CODEGEN--\":8213:8225   */\n      0x80\n      add\n      swap1\n        /* \"--CODEGEN--\":19430:19675   */\n      jump\t// out\n        /* \"--CODEGEN--\":19682:20098   */\n    tag_520:\n        /* \"--CODEGEN--\":19882:19884   */\n      0x20\n        /* \"--CODEGEN--\":19896:19943   */\n      dup1\n      dup3\n      mstore\n        /* \"--CODEGEN--\":8464:8466   */\n      0x26\n        /* \"--CODEGEN--\":19867:19885   */\n      swap1\n      dup3\n      add\n        /* \"--CODEGEN--\":29811:29830   */\n      mstore\n        /* \"--CODEGEN--\":8500:8534   */\n      0x4f776e61626c653a206e6577206f776e657220697320746865207a65726f2061\n        /* \"--CODEGEN--\":29851:29865   */\n      0x40\n      dup3\n      add\n        /* \"--CODEGEN--\":8480:8535   */\n      mstore\n        /* \"--CODEGEN--\":8569:8577   */\n      0x6464726573730000000000000000000000000000000000000000000000000000\n        /* \"--CODEGEN--\":8555:8567   */\n      0x60\n      dup3\n      add\n        /* \"--CODEGEN--\":8548:8578   */\n      mstore\n        /* \"--CODEGEN--\":8597:8609   */\n      0x80\n      add\n      swap1\n        /* \"--CODEGEN--\":19853:20098   */\n      jump\t// out\n        /* \"--CODEGEN--\":20105:20521   */\n    tag_553:\n        /* \"--CODEGEN--\":20305:20307   */\n      0x20\n        /* \"--CODEGEN--\":20319:20366   */\n      dup1\n      dup3\n      mstore\n        /* \"--CODEGEN--\":8848:8850   */\n      0x1b\n        /* \"--CODEGEN--\":20290:20308   */\n      swap1\n      dup3\n      add\n        /* \"--CODEGEN--\":29811:29830   */\n      mstore\n        /* \"--CODEGEN--\":8884:8913   */\n      0x536166654d6174683a206164646974696f6e206f766572666c6f770000000000\n        /* \"--CODEGEN--\":29851:29865   */\n      0x40\n      dup3\n      add\n        /* \"--CODEGEN--\":8864:8914   */\n      mstore\n        /* \"--CODEGEN--\":8933:8945   */\n      0x60\n      add\n      swap1\n        /* \"--CODEGEN--\":20276:20521   */\n      jump\t// out\n        /* \"--CODEGEN--\":20528:20944   */\n    tag_254:\n        /* \"--CODEGEN--\":20728:20730   */\n      0x20\n        /* \"--CODEGEN--\":20742:20789   */\n      dup1\n      dup3\n      mstore\n        /* \"--CODEGEN--\":9184:9186   */\n      0x2e\n        /* \"--CODEGEN--\":20713:20731   */\n      swap1\n      dup3\n      add\n        /* \"--CODEGEN--\":29811:29830   */\n      mstore\n        /* \"--CODEGEN--\":9220:9254   */\n      0x536861646f774368656656323a204275726e2061646d696e2061646472657373\n        /* \"--CODEGEN--\":29851:29865   */\n      0x40\n      dup3\n      add\n        /* \"--CODEGEN--\":9200:9255   */\n      mstore\n        /* \"--CODEGEN--\":9289:9305   */\n      0x206d7573742062652076616c6964000000000000000000000000000000000000\n        /* \"--CODEGEN--\":9275:9287   */\n      0x60\n      dup3\n      add\n        /* \"--CODEGEN--\":9268:9306   */\n      mstore\n        /* \"--CODEGEN--\":9325:9337   */\n      0x80\n      add\n      swap1\n        /* \"--CODEGEN--\":20699:20944   */\n      jump\t// out\n        /* \"--CODEGEN--\":20951:21367   */\n    tag_478:\n        /* \"--CODEGEN--\":21151:21153   */\n      0x20\n        /* \"--CODEGEN--\":21165:21212   */\n      dup1\n      dup3\n      mstore\n        /* \"--CODEGEN--\":9576:9578   */\n      0x42\n        /* \"--CODEGEN--\":21136:21154   */\n      swap1\n      dup3\n      add\n        /* \"--CODEGEN--\":29811:29830   */\n      mstore\n        /* \"--CODEGEN--\":9612:9646   */\n      0x536861646f774368656656323a205468652061646472657373206973206e6f74\n        /* \"--CODEGEN--\":29851:29865   */\n      0x40\n      dup3\n      add\n        /* \"--CODEGEN--\":9592:9647   */\n      mstore\n        /* \"--CODEGEN--\":9681:9715   */\n      0x20617661696c61626c6520746f206465706f73697420696e207468697320706f\n        /* \"--CODEGEN--\":9667:9679   */\n      0x60\n      dup3\n      add\n        /* \"--CODEGEN--\":9660:9716   */\n      mstore\n        /* \"--CODEGEN--\":9750:9754   */\n      0x6f6c000000000000000000000000000000000000000000000000000000000000\n        /* \"--CODEGEN--\":9736:9748   */\n      0x80\n      dup3\n      add\n        /* \"--CODEGEN--\":9729:9755   */\n      mstore\n        /* \"--CODEGEN--\":9774:9786   */\n      0xa0\n      add\n      swap1\n        /* \"--CODEGEN--\":21122:21367   */\n      jump\t// out\n        /* \"--CODEGEN--\":21374:21790   */\n    tag_388:\n        /* \"--CODEGEN--\":21574:21576   */\n      0x20\n        /* \"--CODEGEN--\":21588:21635   */\n      dup1\n      dup3\n      mstore\n        /* \"--CODEGEN--\":10025:10027   */\n      0x2e\n        /* \"--CODEGEN--\":21559:21577   */\n      swap1\n      dup3\n      add\n        /* \"--CODEGEN--\":29811:29830   */\n      mstore\n        /* \"--CODEGEN--\":10061:10095   */\n      0x536861646f774368656656323a20534844572072617465206d75737420626520\n        /* \"--CODEGEN--\":29851:29865   */\n      0x40\n      dup3\n      add\n        /* \"--CODEGEN--\":10041:10096   */\n      mstore\n        /* \"--CODEGEN--\":10130:10146   */\n      0x67726561746572207468616e2030000000000000000000000000000000000000\n        /* \"--CODEGEN--\":10116:10128   */\n      0x60\n      dup3\n      add\n        /* \"--CODEGEN--\":10109:10147   */\n      mstore\n        /* \"--CODEGEN--\":10166:10178   */\n      0x80\n      add\n      swap1\n        /* \"--CODEGEN--\":21545:21790   */\n      jump\t// out\n        /* \"--CODEGEN--\":21797:22213   */\n    tag_393:\n        /* \"--CODEGEN--\":21997:21999   */\n      0x20\n        /* \"--CODEGEN--\":22011:22058   */\n      dup1\n      dup3\n      mstore\n        /* \"--CODEGEN--\":10417:10419   */\n      0x25\n        /* \"--CODEGEN--\":21982:22000   */\n      swap1\n      dup3\n      add\n        /* \"--CODEGEN--\":29811:29830   */\n      mstore\n        /* \"--CODEGEN--\":10453:10487   */\n      0x536861646f774368656656323a20546f74616c2072617465206d757374206265\n        /* \"--CODEGEN--\":29851:29865   */\n      0x40\n      dup3\n      add\n        /* \"--CODEGEN--\":10433:10488   */\n      mstore\n        /* \"--CODEGEN--\":10522:10529   */\n      0x2031653132000000000000000000000000000000000000000000000000000000\n        /* \"--CODEGEN--\":10508:10520   */\n      0x60\n      dup3\n      add\n        /* \"--CODEGEN--\":10501:10530   */\n      mstore\n        /* \"--CODEGEN--\":10549:10561   */\n      0x80\n      add\n      swap1\n        /* \"--CODEGEN--\":21968:22213   */\n      jump\t// out\n        /* \"--CODEGEN--\":22220:22636   */\n    tag_415:\n        /* \"--CODEGEN--\":22420:22422   */\n      0x20\n        /* \"--CODEGEN--\":22434:22481   */\n      dup1\n      dup3\n      mstore\n        /* \"--CODEGEN--\":10800:10802   */\n      0x32\n        /* \"--CODEGEN--\":22405:22423   */\n      swap1\n      dup3\n      add\n        /* \"--CODEGEN--\":29811:29830   */\n      mstore\n        /* \"--CODEGEN--\":10836:10870   */\n      0x536861646f774368656656323a20546865207768697465206c69737420616464\n        /* \"--CODEGEN--\":29851:29865   */\n      0x40\n      dup3\n      add\n        /* \"--CODEGEN--\":10816:10871   */\n      mstore\n        /* \"--CODEGEN--\":10905:10925   */\n      0x72657373206d7573742062652076616c69640000000000000000000000000000\n        /* \"--CODEGEN--\":10891:10903   */\n      0x60\n      dup3\n      add\n        /* \"--CODEGEN--\":10884:10926   */\n      mstore\n        /* \"--CODEGEN--\":10945:10957   */\n      0x80\n      add\n      swap1\n        /* \"--CODEGEN--\":22391:22636   */\n      jump\t// out\n        /* \"--CODEGEN--\":22643:23059   */\n    tag_543:\n        /* \"--CODEGEN--\":22843:22845   */\n      0x20\n        /* \"--CODEGEN--\":22857:22904   */\n      dup1\n      dup3\n      mstore\n        /* \"--CODEGEN--\":11196:11198   */\n      0x21\n        /* \"--CODEGEN--\":22828:22846   */\n      swap1\n      dup3\n      add\n        /* \"--CODEGEN--\":29811:29830   */\n      mstore\n        /* \"--CODEGEN--\":11232:11266   */\n      0x536166654d6174683a206d756c7469706c69636174696f6e206f766572666c6f\n        /* \"--CODEGEN--\":29851:29865   */\n      0x40\n      dup3\n      add\n        /* \"--CODEGEN--\":11212:11267   */\n      mstore\n        /* \"--CODEGEN--\":11301:11304   */\n      0x7700000000000000000000000000000000000000000000000000000000000000\n        /* \"--CODEGEN--\":11287:11299   */\n      0x60\n      dup3\n      add\n        /* \"--CODEGEN--\":11280:11305   */\n      mstore\n        /* \"--CODEGEN--\":11324:11336   */\n      0x80\n      add\n      swap1\n        /* \"--CODEGEN--\":22814:23059   */\n      jump\t// out\n        /* \"--CODEGEN--\":23066:23482   */\n    tag_283:\n        /* \"--CODEGEN--\":23266:23268   */\n      0x20\n        /* \"--CODEGEN--\":23280:23327   */\n      dup1\n      dup3\n      mstore\n        /* \"--CODEGEN--\":11575:11577   */\n      0x16\n        /* \"--CODEGEN--\":23251:23269   */\n      swap1\n      dup3\n      add\n        /* \"--CODEGEN--\":29811:29830   */\n      mstore\n        /* \"--CODEGEN--\":11611:11635   */\n      0x77697468647261773a20496e73756666696369656e7400000000000000000000\n        /* \"--CODEGEN--\":29851:29865   */\n      0x40\n      dup3\n      add\n        /* \"--CODEGEN--\":11591:11636   */\n      mstore\n        /* \"--CODEGEN--\":11655:11667   */\n      0x60\n      add\n      swap1\n        /* \"--CODEGEN--\":23237:23482   */\n      jump\t// out\n        /* \"--CODEGEN--\":23489:23905   */\n    tag_430:\n        /* \"--CODEGEN--\":23689:23691   */\n      0x20\n        /* \"--CODEGEN--\":23703:23750   */\n      dup1\n      dup3\n      mstore\n        /* \"--CODEGEN--\":11906:11908   */\n      0x11\n        /* \"--CODEGEN--\":23674:23692   */\n      swap1\n      dup3\n      add\n        /* \"--CODEGEN--\":29811:29830   */\n      mstore\n        /* \"--CODEGEN--\":11942:11961   */\n      0x4e6f6e6520424550323020746f6b656e73000000000000000000000000000000\n        /* \"--CODEGEN--\":29851:29865   */\n      0x40\n      dup3\n      add\n        /* \"--CODEGEN--\":11922:11962   */\n      mstore\n        /* \"--CODEGEN--\":11981:11993   */\n      0x60\n      add\n      swap1\n        /* \"--CODEGEN--\":23660:23905   */\n      jump\t// out\n        /* \"--CODEGEN--\":23912:24328   */\n    tag_250:\n        /* \"--CODEGEN--\":24112:24114   */\n      0x20\n        /* \"--CODEGEN--\":24126:24173   */\n      dup1\n      dup3\n      mstore\n        /* \"--CODEGEN--\":24097:24115   */\n      dup2\n      dup2\n      add\n        /* \"--CODEGEN--\":29811:29830   */\n      mstore\n        /* \"--CODEGEN--\":12268:12302   */\n      0x4f776e61626c653a2063616c6c6572206973206e6f7420746865206f776e6572\n        /* \"--CODEGEN--\":29851:29865   */\n      0x40\n      dup3\n      add\n        /* \"--CODEGEN--\":12248:12303   */\n      mstore\n        /* \"--CODEGEN--\":12322:12334   */\n      0x60\n      add\n      swap1\n        /* \"--CODEGEN--\":24083:24328   */\n      jump\t// out\n        /* \"--CODEGEN--\":24335:24751   */\n    tag_203:\n        /* \"--CODEGEN--\":24535:24537   */\n      0x20\n        /* \"--CODEGEN--\":24549:24596   */\n      dup1\n      dup3\n      mstore\n        /* \"--CODEGEN--\":12573:12575   */\n      0x29\n        /* \"--CODEGEN--\":24520:24538   */\n      swap1\n      dup3\n      add\n        /* \"--CODEGEN--\":29811:29830   */\n      mstore\n        /* \"--CODEGEN--\":12609:12643   */\n      0x4f776e61626c653a2063616c6c6572206973206e6f742074686520626f6f7374\n        /* \"--CODEGEN--\":29851:29865   */\n      0x40\n      dup3\n      add\n        /* \"--CODEGEN--\":12589:12644   */\n      mstore\n        /* \"--CODEGEN--\":12678:12689   */\n      0x20636f6e74726163740000000000000000000000000000000000000000000000\n        /* \"--CODEGEN--\":12664:12676   */\n      0x60\n      dup3\n      add\n        /* \"--CODEGEN--\":12657:12690   */\n      mstore\n        /* \"--CODEGEN--\":12709:12721   */\n      0x80\n      add\n      swap1\n        /* \"--CODEGEN--\":24506:24751   */\n      jump\t// out\n        /* \"--CODEGEN--\":24758:25174   */\n    tag_407:\n        /* \"--CODEGEN--\":24958:24960   */\n      0x20\n        /* \"--CODEGEN--\":24972:25019   */\n      dup1\n      dup3\n      mstore\n        /* \"--CODEGEN--\":12960:12962   */\n      0x36\n        /* \"--CODEGEN--\":24943:24961   */\n      swap1\n      dup3\n      add\n        /* \"--CODEGEN--\":29811:29830   */\n      mstore\n        /* \"--CODEGEN--\":12996:13030   */\n      0x536861646f774368656656323a204e657720626f6f737420636f6e7472616374\n        /* \"--CODEGEN--\":29851:29865   */\n      0x40\n      dup3\n      add\n        /* \"--CODEGEN--\":12976:13031   */\n      mstore\n        /* \"--CODEGEN--\":13065:13089   */\n      0x2061646472657373206d7573742062652076616c696400000000000000000000\n        /* \"--CODEGEN--\":13051:13063   */\n      0x60\n      dup3\n      add\n        /* \"--CODEGEN--\":13044:13090   */\n      mstore\n        /* \"--CODEGEN--\":13109:13121   */\n      0x80\n      add\n      swap1\n        /* \"--CODEGEN--\":24929:25174   */\n      jump\t// out\n        /* \"--CODEGEN--\":25181:25597   */\n    tag_598:\n        /* \"--CODEGEN--\":25381:25383   */\n      0x20\n        /* \"--CODEGEN--\":25395:25442   */\n      dup1\n      dup3\n      mstore\n        /* \"--CODEGEN--\":13360:13362   */\n      0x1d\n        /* \"--CODEGEN--\":25366:25384   */\n      swap1\n      dup3\n      add\n        /* \"--CODEGEN--\":29811:29830   */\n      mstore\n        /* \"--CODEGEN--\":13396:13427   */\n      0x416464726573733a2063616c6c20746f206e6f6e2d636f6e7472616374000000\n        /* \"--CODEGEN--\":29851:29865   */\n      0x40\n      dup3\n      add\n        /* \"--CODEGEN--\":13376:13428   */\n      mstore\n        /* \"--CODEGEN--\":13447:13459   */\n      0x60\n      add\n      swap1\n        /* \"--CODEGEN--\":25352:25597   */\n      jump\t// out\n        /* \"--CODEGEN--\":25604:26020   */\n    tag_257:\n        /* \"--CODEGEN--\":25804:25806   */\n      0x20\n        /* \"--CODEGEN--\":25818:25865   */\n      dup1\n      dup3\n      mstore\n        /* \"--CODEGEN--\":13698:13700   */\n      0x41\n        /* \"--CODEGEN--\":25789:25807   */\n      swap1\n      dup3\n      add\n        /* \"--CODEGEN--\":29811:29830   */\n      mstore\n        /* \"--CODEGEN--\":13734:13768   */\n      0x536861646f774368656656323a204275726e2061646d696e2061646472657373\n        /* \"--CODEGEN--\":29851:29865   */\n      0x40\n      dup3\n      add\n        /* \"--CODEGEN--\":13714:13769   */\n      mstore\n        /* \"--CODEGEN--\":13803:13837   */\n      0x206973207468652073616d6520776974682063757272656e7420616464726573\n        /* \"--CODEGEN--\":13789:13801   */\n      0x60\n      dup3\n      add\n        /* \"--CODEGEN--\":13782:13838   */\n      mstore\n        /* \"--CODEGEN--\":13872:13875   */\n      0x7300000000000000000000000000000000000000000000000000000000000000\n        /* \"--CODEGEN--\":13858:13870   */\n      0x80\n      dup3\n      add\n        /* \"--CODEGEN--\":13851:13876   */\n      mstore\n        /* \"--CODEGEN--\":13895:13907   */\n      0xa0\n      add\n      swap1\n        /* \"--CODEGEN--\":25775:26020   */\n      jump\t// out\n        /* \"--CODEGEN--\":26027:26443   */\n    tag_216:\n        /* \"--CODEGEN--\":26227:26229   */\n      0x20\n        /* \"--CODEGEN--\":26241:26288   */\n      dup1\n      dup3\n      mstore\n        /* \"--CODEGEN--\":14146:14148   */\n      0x30\n        /* \"--CODEGEN--\":26212:26230   */\n      swap1\n      dup3\n      add\n        /* \"--CODEGEN--\":29811:29830   */\n      mstore\n        /* \"--CODEGEN--\":14182:14216   */\n      0x536861646f774368656656323a204f6e6c7920726567756c6172206661726d20\n        /* \"--CODEGEN--\":29851:29865   */\n      0x40\n      dup3\n      add\n        /* \"--CODEGEN--\":14162:14217   */\n      mstore\n        /* \"--CODEGEN--\":14251:14269   */\n      0x636f756c6420626520626f6f7374656400000000000000000000000000000000\n        /* \"--CODEGEN--\":14237:14249   */\n      0x60\n      dup3\n      add\n        /* \"--CODEGEN--\":14230:14270   */\n      mstore\n        /* \"--CODEGEN--\":14289:14301   */\n      0x80\n      add\n      swap1\n        /* \"--CODEGEN--\":26198:26443   */\n      jump\t// out\n        /* \"--CODEGEN--\":26450:26866   */\n    tag_433:\n        /* \"--CODEGEN--\":26650:26652   */\n      0x20\n        /* \"--CODEGEN--\":26664:26711   */\n      dup1\n      dup3\n      mstore\n        /* \"--CODEGEN--\":14540:14542   */\n      0x27\n        /* \"--CODEGEN--\":26635:26653   */\n      swap1\n      dup3\n      add\n        /* \"--CODEGEN--\":29811:29830   */\n      mstore\n        /* \"--CODEGEN--\":14576:14610   */\n      0x5348445720746f6b656e2063616e277420626520616464656420746f20666172\n        /* \"--CODEGEN--\":29851:29865   */\n      0x40\n      dup3\n      add\n        /* \"--CODEGEN--\":14556:14611   */\n      mstore\n        /* \"--CODEGEN--\":14645:14654   */\n      0x6d20706f6f6c7300000000000000000000000000000000000000000000000000\n        /* \"--CODEGEN--\":14631:14643   */\n      0x60\n      dup3\n      add\n        /* \"--CODEGEN--\":14624:14655   */\n      mstore\n        /* \"--CODEGEN--\":14674:14686   */\n      0x80\n      add\n      swap1\n        /* \"--CODEGEN--\":26621:26866   */\n      jump\t// out\n        /* \"--CODEGEN--\":26873:27289   */\n    tag_207:\n        /* \"--CODEGEN--\":27073:27075   */\n      0x20\n        /* \"--CODEGEN--\":27087:27134   */\n      dup1\n      dup3\n      mstore\n        /* \"--CODEGEN--\":14925:14927   */\n      0x1f\n        /* \"--CODEGEN--\":27058:27076   */\n      swap1\n      dup3\n      add\n        /* \"--CODEGEN--\":29811:29830   */\n      mstore\n        /* \"--CODEGEN--\":14961:14994   */\n      0x5265656e7472616e637947756172643a207265656e7472616e742063616c6c00\n        /* \"--CODEGEN--\":29851:29865   */\n      0x40\n      dup3\n      add\n        /* \"--CODEGEN--\":14941:14995   */\n      mstore\n        /* \"--CODEGEN--\":15014:15026   */\n      0x60\n      add\n      swap1\n        /* \"--CODEGEN--\":27044:27289   */\n      jump\t// out\n        /* \"--CODEGEN--\":27296:27619   */\n    tag_106:\n      0x00\n        /* \"--CODEGEN--\":27473:27476   */\n      0xa0\n        /* \"--CODEGEN--\":27462:27471   */\n      dup3\n        /* \"--CODEGEN--\":27458:27477   */\n      add\n        /* \"--CODEGEN--\":27450:27477   */\n      swap1\n      pop\n        /* \"--CODEGEN--\":15333:15349   */\n      dup3\n        /* \"--CODEGEN--\":15327:15350   */\n      mload\n        /* \"--CODEGEN--\":16160:16163   */\n      dup3\n        /* \"--CODEGEN--\":16153:16190   */\n      mstore\n        /* \"--CODEGEN--\":15509:15513   */\n      0x20\n        /* \"--CODEGEN--\":15502:15507   */\n      dup4\n        /* \"--CODEGEN--\":15498:15514   */\n      add\n        /* \"--CODEGEN--\":15492:15515   */\n      mload\n        /* \"--CODEGEN--\":15509:15513   */\n      0x20\n        /* \"--CODEGEN--\":15573:15576   */\n      dup4\n        /* \"--CODEGEN--\":15569:15583   */\n      add\n        /* \"--CODEGEN--\":16153:16190   */\n      mstore\n        /* \"--CODEGEN--\":15669:15673   */\n      0x40\n        /* \"--CODEGEN--\":15662:15667   */\n      dup4\n        /* \"--CODEGEN--\":15658:15674   */\n      add\n        /* \"--CODEGEN--\":15652:15675   */\n      mload\n        /* \"--CODEGEN--\":15669:15673   */\n      0x40\n        /* \"--CODEGEN--\":15733:15736   */\n      dup4\n        /* \"--CODEGEN--\":15729:15743   */\n      add\n        /* \"--CODEGEN--\":16153:16190   */\n      mstore\n        /* \"--CODEGEN--\":15836:15840   */\n      0x60\n        /* \"--CODEGEN--\":15829:15834   */\n      dup4\n        /* \"--CODEGEN--\":15825:15841   */\n      add\n        /* \"--CODEGEN--\":15819:15842   */\n      mload\n        /* \"--CODEGEN--\":15836:15840   */\n      0x60\n        /* \"--CODEGEN--\":15900:15903   */\n      dup4\n        /* \"--CODEGEN--\":15896:15910   */\n      add\n        /* \"--CODEGEN--\":16153:16190   */\n      mstore\n        /* \"--CODEGEN--\":15995:15999   */\n      0x80\n        /* \"--CODEGEN--\":15988:15993   */\n      dup4\n        /* \"--CODEGEN--\":15984:16000   */\n      add\n        /* \"--CODEGEN--\":15978:16001   */\n      mload\n        /* \"--CODEGEN--\":30043:30056   */\n      iszero\n        /* \"--CODEGEN--\":30036:30057   */\n      iszero\n        /* \"--CODEGEN--\":15995:15999   */\n      0x80\n        /* \"--CODEGEN--\":16053:16056   */\n      dup4\n        /* \"--CODEGEN--\":16049:16063   */\n      add\n        /* \"--CODEGEN--\":6036:6070   */\n      mstore\n        /* \"--CODEGEN--\":27444:27619   */\n      swap3\n      swap2\n      pop\n      pop\n      jump\t// out\n        /* \"--CODEGEN--\":27626:27848   */\n    tag_61:\n        /* \"--CODEGEN--\":16153:16190   */\n      swap1\n      dup2\n      mstore\n        /* \"--CODEGEN--\":27753:27755   */\n      0x20\n        /* \"--CODEGEN--\":27738:27756   */\n      add\n      swap1\n        /* \"--CODEGEN--\":27724:27848   */\n      jump\t// out\n        /* \"--CODEGEN--\":27855:28176   */\n    tag_444:\n        /* \"--CODEGEN--\":16153:16190   */\n      swap2\n      dup3\n      mstore\n        /* \"--CODEGEN--\":30043:30056   */\n      iszero\n        /* \"--CODEGEN--\":30036:30057   */\n      iszero\n        /* \"--CODEGEN--\":28162:28164   */\n      0x20\n        /* \"--CODEGEN--\":28147:28165   */\n      dup3\n      add\n        /* \"--CODEGEN--\":6036:6070   */\n      mstore\n        /* \"--CODEGEN--\":28004:28006   */\n      0x40\n        /* \"--CODEGEN--\":27989:28007   */\n      add\n      swap1\n        /* \"--CODEGEN--\":27975:28176   */\n      jump\t// out\n        /* \"--CODEGEN--\":28183:28627   */\n    tag_150:\n        /* \"--CODEGEN--\":16153:16190   */\n      swap3\n      dup4\n      mstore\n        /* \"--CODEGEN--\":28530:28532   */\n      0x20\n        /* \"--CODEGEN--\":28515:28533   */\n      dup4\n      add\n        /* \"--CODEGEN--\":16153:16190   */\n      swap2\n      swap1\n      swap2\n      mstore\n        /* \"--CODEGEN--\":28613:28615   */\n      0x40\n        /* \"--CODEGEN--\":28598:28616   */\n      dup3\n      add\n        /* \"--CODEGEN--\":16153:16190   */\n      mstore\n        /* \"--CODEGEN--\":28366:28368   */\n      0x60\n        /* \"--CODEGEN--\":28351:28369   */\n      add\n      swap1\n        /* \"--CODEGEN--\":28337:28627   */\n      jump\t// out\n        /* \"--CODEGEN--\":28634:29290   */\n    tag_82:\n        /* \"--CODEGEN--\":16153:16190   */\n      swap5\n      dup6\n      mstore\n        /* \"--CODEGEN--\":29032:29034   */\n      0x20\n        /* \"--CODEGEN--\":29017:29035   */\n      dup6\n      add\n        /* \"--CODEGEN--\":16153:16190   */\n      swap4\n      swap1\n      swap4\n      mstore\n        /* \"--CODEGEN--\":29115:29117   */\n      0x40\n        /* \"--CODEGEN--\":29100:29118   */\n      dup5\n      add\n        /* \"--CODEGEN--\":16153:16190   */\n      swap2\n      swap1\n      swap2\n      mstore\n        /* \"--CODEGEN--\":29198:29200   */\n      0x60\n        /* \"--CODEGEN--\":29183:29201   */\n      dup4\n      add\n        /* \"--CODEGEN--\":16153:16190   */\n      mstore\n        /* \"--CODEGEN--\":30043:30056   */\n      iszero\n        /* \"--CODEGEN--\":30036:30057   */\n      iszero\n        /* \"--CODEGEN--\":29275:29278   */\n      0x80\n        /* \"--CODEGEN--\":29260:29279   */\n      dup3\n      add\n        /* \"--CODEGEN--\":6036:6070   */\n      mstore\n        /* \"--CODEGEN--\":28867:28870   */\n      0xa0\n        /* \"--CODEGEN--\":28852:28871   */\n      add\n      swap1\n        /* \"--CODEGEN--\":28838:29290   */\n      jump\t// out\n        /* \"--CODEGEN--\":30678:30946   */\n    tag_654:\n        /* \"--CODEGEN--\":30743:30744   */\n      0x00\n        /* \"--CODEGEN--\":30750:30851   */\n    tag_689:\n        /* \"--CODEGEN--\":30764:30770   */\n      dup4\n        /* \"--CODEGEN--\":30761:30762   */\n      dup2\n        /* \"--CODEGEN--\":30758:30771   */\n      lt\n        /* \"--CODEGEN--\":30750:30851   */\n      iszero\n      tag_691\n      jumpi\n        /* \"--CODEGEN--\":30831:30842   */\n      dup2\n      dup2\n      add\n        /* \"--CODEGEN--\":30825:30843   */\n      mload\n        /* \"--CODEGEN--\":30812:30823   */\n      dup4\n      dup3\n      add\n        /* \"--CODEGEN--\":30805:30844   */\n      mstore\n        /* \"--CODEGEN--\":30786:30788   */\n      0x20\n        /* \"--CODEGEN--\":30779:30789   */\n      add\n        /* \"--CODEGEN--\":30750:30851   */\n      jump(tag_689)\n    tag_691:\n        /* \"--CODEGEN--\":30866:30872   */\n      dup4\n        /* \"--CODEGEN--\":30863:30864   */\n      dup2\n        /* \"--CODEGEN--\":30860:30873   */\n      gt\n        /* \"--CODEGEN--\":30857:30859   */\n      iszero\n      tag_570\n      jumpi\n      pop\n      pop\n        /* \"--CODEGEN--\":30743:30744   */\n      0x00\n        /* \"--CODEGEN--\":30913:30929   */\n      swap2\n      add\n        /* \"--CODEGEN--\":30906:30933   */\n      mstore\n        /* \"--CODEGEN--\":30727:30946   */\n      jump\t// out\n        /* \"--CODEGEN--\":31059:31176   */\n    tag_614:\n        /* \"--CODEGEN--\":30255:30297   */\n      0xffffffffffffffffffffffffffffffffffffffff\n        /* \"--CODEGEN--\":31146:31151   */\n      dup2\n        /* \"--CODEGEN--\":30244:30298   */\n      and\n        /* \"--CODEGEN--\":31121:31126   */\n      dup2\n        /* \"--CODEGEN--\":31118:31153   */\n      eq\n        /* \"--CODEGEN--\":31108:31110   */\n      tag_694\n      jumpi\n        /* \"--CODEGEN--\":31167:31168   */\n      0x00\n      dup1\n        /* \"--CODEGEN--\":31157:31169   */\n      revert\n        /* \"--CODEGEN--\":31108:31110   */\n    tag_694:\n        /* \"--CODEGEN--\":31102:31176   */\n      pop\n      jump\t// out\n        /* \"--CODEGEN--\":31183:31294   */\n    tag_619:\n        /* \"--CODEGEN--\":31264:31269   */\n      dup1\n        /* \"--CODEGEN--\":30043:30056   */\n      iszero\n        /* \"--CODEGEN--\":30036:30057   */\n      iszero\n        /* \"--CODEGEN--\":31242:31247   */\n      dup2\n        /* \"--CODEGEN--\":31239:31271   */\n      eq\n        /* \"--CODEGEN--\":31229:31231   */\n      tag_694\n      jumpi\n        /* \"--CODEGEN--\":31285:31286   */\n      0x00\n      dup1\n        /* \"--CODEGEN--\":31275:31287   */\n      revert\n\n    auxdata: 0xa26469706673582212208258375ac1461dc0f29a035a916da3fbd5d3fac1fe1c167088369b432b73787f64736f6c634300060c0033\n}\n",
				"bytecode": {
					"linkReferences": {},
					"object": "60a0604052640ba43b7400600a55643a35294400600b5564a2fb405800600c553480156200002c57600080fd5b50604051620036c4380380620036c48339810160408190526200004f91620000e5565b60006200005b620000e1565b600080546001600160a01b0319166001600160a01b0383169081178255604051929350917f8be0079c531659141344cd1fd0a4f28419497f9722a3daafe3b4186f6b6457e0908290a3506001805560609190911b6001600160601b031916608052600280546001600160a01b0319166001600160a01b039092169190911790556200013c565b3390565b60008060408385031215620000f8578182fd5b8251620001058162000123565b6020840151909250620001188162000123565b809150509250929050565b6001600160a01b03811681146200013957600080fd5b50565b60805160601c61355b6200016960003980610575528061199c52806125be528061266b525061355b6000f3fe608060405234801561001057600080fd5b50600436106102ad5760003560e01c806378db4c341161017b578063c507aeaa116100d8578063e2bbb1581161008c578063f474309e11610071578063f474309e146104fa578063f5a26f401461050d578063f5b91cd314610515576102ad565b8063e2bbb158146104d4578063f2fde38b146104e7576102ad565b8063cc6db2da116100bd578063cc6db2da146104c4578063d2ce6ae8146104c4578063dfcedeee146104cc576102ad565b8063c507aeaa1461049e578063c799b59d146104b1576102ad565b806393f1a40b1161012f5780639dd2fcc3116101145780639dd2fcc314610470578063ac1d060914610483578063c40d337b14610496576102ad565b806393f1a40b1461044657806399d7e84a14610468576102ad565b8063815d087f11610160578063815d087f1461042357806381bdf98c146104365780638da5cb5b1461043e576102ad565b806378db4c341461040857806378ed5d1f14610410576102ad565b8063372c12b11161022957806364482f79116101dd57806369b02128116101c257806369b02128146103f05780636fda08c3146103f8578063715018a614610400576102ad565b806364482f79146103d55780636661100f146103e8576102ad565b806351eb05a61161020e57806351eb05a61461039a5780635312ea8e146103ba578063630b5ba1146103cd576102ad565b8063372c12b114610367578063441a3e7014610387576102ad565b80630bb844bc1161028057806316e80f4d1161026557806316e80f4d1461034457806319f95e2e1461034c57806336183ed614610354576102ad565b80630bb844bc1461030d5780631526fe2714610320576102ad565b8063033186e8146102b257806303dcff74146102db578063041a84c9146102f0578063081e3eda14610305575b600080fd5b6102c56102c0366004612a74565b61051d565b6040516102d29190613472565b60405180910390f35b6102e3610573565b6040516102d29190612c5b565b6103036102fe366004612a9f565b610597565b005b6102c561090f565b61030361031b366004612a20565b610915565b61033361032e366004612b0b565b610a8a565b6040516102d29594939291906134a1565b6102c5610acb565b6102c5610ad7565b610303610362366004612ad3565b610b04565b61037a610375366004612a20565b610bca565b6040516102d29190612cd3565b610303610395366004612bb1565b610bdf565b6103ad6103a8366004612b0b565b610df0565b6040516102d29190613436565b6103036103c8366004612b0b565b610fc6565b6103036110f4565b6103036103e3366004612bd2565b611188565b6102c56112ff565b6102c5611305565b6102c561130f565b610303611315565b6102c56113e0565b6102e361041e366004612b0b565b6113e6565b610303610431366004612c0a565b61141a565b6102e361157c565b6102e3611598565b610459610454366004612b3b565b6115b4565b6040516102d29392919061348b565b6102c56115e0565b61030361047e366004612a20565b6115e6565b610303610491366004612a3c565b611727565b6102c561185b565b6103036104ac366004612b5f565b611861565b6102c56104bf366004612b3b565b611c3a565b6102c5611de6565b6102e3611def565b6103036104e2366004612bb1565b611e0b565b6103036104f5366004612a20565b6121d6565b6102c5610508366004612ad3565b61230c565b6102c5612367565b6102c561236d565b600081815260066020908152604080832073ffffffffffffffffffffffffffffffffffffffff8616845290915281206002015464e8d4a5100081116105675764e8d4a51000610569565b805b9150505b92915050565b7f000000000000000000000000000000000000000000000000000000000000000081565b60035473ffffffffffffffffffffffffffffffffffffffff1633146105f1576040517f08c379a00000000000000000000000000000000000000000000000000000000081526004016105e8906131d1565b60405180910390fd5b6002600154141561062e576040517f08c379a00000000000000000000000000000000000000000000000000000000081526004016105e8906133ff565b600260015573ffffffffffffffffffffffffffffffffffffffff8316610680576040517f08c379a00000000000000000000000000000000000000000000000000000000081526004016105e890612d8c565b6004828154811061068d57fe5b600091825260209091206004600590920201015460ff166106da576040517f08c379a00000000000000000000000000000000000000000000000000000000081526004016105e890613345565b64e8d4a5100081101580156106f557506501d1a94a20008111155b61072b576040517f08c379a00000000000000000000000000000000000000000000000000000000081526004016105e890612d2f565b6107336129ce565b61073c83610df0565b600084815260066020908152604080832073ffffffffffffffffffffffffffffffffffffffff891684529091528120919250610778868661051d565b9050610785868683612379565b6107c5670de0b6b3a76400006107b985600001516107bf64e8d4a510006107b98a896000015461245690919063ffffffff16565b906124aa565b90612456565b60018301558154610811906107e59064e8d4a51000906107b99088612456565b835461080b906108009064e8d4a51000906107b99087612456565b6060870151906124f3565b90612535565b6060840152600480548491908790811061082757fe5b6000918252602080832084516005939093020191825583810151600183015560408085015160028085019190915560608601516003850155608090950151600490930180547fffffffffffffffffffffffffffffffffffffffffffffffffffffffffffffff0016931515939093179092558883526006815281832073ffffffffffffffffffffffffffffffffffffffff8b1680855291529181902090920186905590517f01abd62439b64f6c5dab6f94d56099495bd0c094f9c21f98f4d3562a21edb4ba906108fb9088908590899061348b565b60405180910390a250506001805550505050565b60045490565b61091d612574565b60005473ffffffffffffffffffffffffffffffffffffffff908116911614610971576040517f08c379a00000000000000000000000000000000000000000000000000000000081526004016105e89061319c565b73ffffffffffffffffffffffffffffffffffffffff81166109be576040517f08c379a00000000000000000000000000000000000000000000000000000000081526004016105e890612eda565b60025473ffffffffffffffffffffffffffffffffffffffff82811691161415610a13576040517f08c379a00000000000000000000000000000000000000000000000000000000081526004016105e8906132c2565b6002805473ffffffffffffffffffffffffffffffffffffffff8381167fffffffffffffffffffffffff0000000000000000000000000000000000000000831681179093556040519116919082907fd146fe330fdddf682413850a35b28edfccd4c4b53cfee802fd24950de5be1dbe90600090a35050565b60048181548110610a9757fe5b6000918252602090912060059091020180546001820154600283015460038401546004909401549294509092909160ff1685565b670de0b6b3a764000081565b6000610aff64e8d4a510006107b9600a54671314fb370629800061245690919063ffffffff16565b905090565b610b0c612574565b60005473ffffffffffffffffffffffffffffffffffffffff908116911614610b60576040517f08c379a00000000000000000000000000000000000000000000000000000000081526004016105e89061319c565b8015610b6e57610b6e6110f4565b6000610b85600d54436124f390919063ffffffff16565b90506000610b9b610b94610ad7565b8390612456565b600254909150610bc19073ffffffffffffffffffffffffffffffffffffffff1682612578565b505043600d5550565b60076020526000908152604090205460ff1681565b60026001541415610c1c576040517f08c379a00000000000000000000000000000000000000000000000000000000081526004016105e8906133ff565b6002600155610c296129ce565b610c3283610df0565b60008481526006602090815260408083203384529091529020805491925090831115610c8a576040517f08c379a00000000000000000000000000000000000000000000000000000000081526004016105e89061312e565b6000610c96338661051d565b9050610ca3338683612379565b8315610cf8578154610cb590856124f3565b8260000181905550610cf8338560058881548110610ccf57fe5b60009182526020909120015473ffffffffffffffffffffffffffffffffffffffff169190612697565b610d2c670de0b6b3a76400006107b985600001516107bf64e8d4a510006107b987896000015461245690919063ffffffff16565b6001830155610d74610d4764e8d4a510006107b98785612456565b60048781548110610d5457fe5b9060005260206000209060050201600301546124f390919063ffffffff16565b60048681548110610d8157fe5b906000526020600020906005020160030181905550843373ffffffffffffffffffffffffffffffffffffffff167ff279e6a1f5e320cca91135676d9cb6e44ca8a08c0b88342bcdb1144f6511b56886604051610ddd9190613472565b60405180910390a3505060018055505050565b610df86129ce565b60048281548110610e0557fe5b60009182526020918290206040805160a0810182526005909302909101805483526001810154938301849052600281015491830191909152600381015460608301526004015460ff16151560808201529150431115610fc15760608101516080820151600090610e7757600954610e7b565b6008545b9050600082118015610e8d5750600081115b15610efa576000610eab8460200151436124f390919063ffffffff16565b90506000610ed2836107b987604001516107bf610ecb8a6080015161230c565b8790612456565b9050610ef5610eed856107b984670de0b6b3a7640000612456565b865190612535565b855250505b4360208401526004805484919086908110610f1157fe5b6000918252602091829020835160059290920201908155828201516001820155604080840151600283015560608401516003830155608090930151600490910180547fffffffffffffffffffffffffffffffffffffffffffffffffffffffffffffff00169115159190911790558401518451915186927f3be3541fc42237d611b30329040bfa4569541d156560acdbbae57640d20b8f4692610fb6929091879161348b565b60405180910390a250505b919050565b60026001541415611003576040517f08c379a00000000000000000000000000000000000000000000000000000000081526004016105e8906133ff565b600260018190555060006004828154811061101a57fe5b6000918252602080832085845260068252604080852033808752935284208054858255600182018690556005909402909101945092906110709064e8d4a51000906107b990611069908961051d565b8590612456565b905080846003015411611084576000611093565b600384015461109390826124f3565b84600301819055506110ad338360058881548110610ccf57fe5b843373ffffffffffffffffffffffffffffffffffffffff167fbb757047c2b5f3974fe26b7c10f732e7bce710b0952a71082702781e62ae059584604051610ddd9190613472565b60045460005b818110156111845761110a6129ce565b6004828154811061111757fe5b60009182526020918290206040805160a08101825260059093029091018054835260018101549383019390935260028301549082018190526003830154606083015260049092015460ff161515608082015291501561117b5761117982610df0565b505b506001016110fa565b5050565b611190612574565b60005473ffffffffffffffffffffffffffffffffffffffff9081169116146111e4576040517f08c379a00000000000000000000000000000000000000000000000000000000081526004016105e89061319c565b6111ed83610df0565b5080156111fc576111fc6110f4565b6004838154811061120957fe5b600091825260209091206004600590920201015460ff16156112645761125c8261080b6004868154811061123957fe5b9060005260206000209060050201600201546008546124f390919063ffffffff16565b60085561129f565b61129b8261080b6004868154811061127857fe5b9060005260206000209060050201600201546009546124f390919063ffffffff16565b6009555b81600484815481106112ad57fe5b906000526020600020906005020160020181905550827fc0cfd54d2de2b55f1e6e108d3ec53ff0a1abe6055401d32c61e9433b747ef9f8836040516112f29190613472565b60405180910390a2505050565b600a5481565b6501d1a94a200081565b600c5481565b61131d612574565b60005473ffffffffffffffffffffffffffffffffffffffff908116911614611371576040517f08c379a00000000000000000000000000000000000000000000000000000000081526004016105e89061319c565b6000805460405173ffffffffffffffffffffffffffffffffffffffff909116907f8be0079c531659141344cd1fd0a4f28419497f9722a3daafe3b4186f6b6457e0908390a3600080547fffffffffffffffffffffffff0000000000000000000000000000000000000000169055565b600d5481565b600581815481106113f357fe5b60009182526020909120015473ffffffffffffffffffffffffffffffffffffffff16905081565b611422612574565b60005473ffffffffffffffffffffffffffffffffffffffff908116911614611476576040517f08c379a00000000000000000000000000000000000000000000000000000000081526004016105e89061319c565b6000841180156114865750600083115b80156114925750600082115b6114c8576040517f08c379a00000000000000000000000000000000000000000000000000000000081526004016105e890612fba565b64e8d4a510006114dc8361080b8787612535565b14611513576040517f08c379a00000000000000000000000000000000000000000000000000000000081526004016105e890613017565b8015611521576115216110f4565b61152b6000610b04565b600a849055600b839055600c8290556040517f49f805c5fed16b2296163d4fd1958b1961efe39fef41cbb4b981aaa3d80d22d29061156e9086908690869061348b565b60405180910390a150505050565b60025473ffffffffffffffffffffffffffffffffffffffff1681565b60005473ffffffffffffffffffffffffffffffffffffffff1690565b600660209081526000928352604080842090915290825290208054600182015460029092015490919083565b60095481565b6115ee612574565b60005473ffffffffffffffffffffffffffffffffffffffff908116911614611642576040517f08c379a00000000000000000000000000000000000000000000000000000000081526004016105e89061319c565b73ffffffffffffffffffffffffffffffffffffffff811615801590611682575060035473ffffffffffffffffffffffffffffffffffffffff828116911614155b6116b8576040517f08c379a00000000000000000000000000000000000000000000000000000000081526004016105e89061322e565b600380547fffffffffffffffffffffffff00000000000000000000000000000000000000001673ffffffffffffffffffffffffffffffffffffffff83169081179091556040517f4c0c07d0b548b824a1b998eb4d11fccf1cfbc1e47edcdb309970ba88315eb30390600090a250565b61172f612574565b60005473ffffffffffffffffffffffffffffffffffffffff908116911614611783576040517f08c379a00000000000000000000000000000000000000000000000000000000081526004016105e89061319c565b73ffffffffffffffffffffffffffffffffffffffff82166117d0576040517f08c379a00000000000000000000000000000000000000000000000000000000081526004016105e890613074565b73ffffffffffffffffffffffffffffffffffffffff82166000818152600760205260409081902080547fffffffffffffffffffffffffffffffffffffffffffffffffffffffffffffff0016841515179055517fc551bbb22d0406dbfb8b6b7740cc521bcf44e1106029cf899c19b6a8e4c99d519061184f908490612cd3565b60405180910390a25050565b60085481565b611869612574565b60005473ffffffffffffffffffffffffffffffffffffffff9081169116146118bd576040517f08c379a00000000000000000000000000000000000000000000000000000000081526004016105e89061319c565b6040517f70a0823100000000000000000000000000000000000000000000000000000000815260009073ffffffffffffffffffffffffffffffffffffffff8516906370a0823190611912903090600401612c5b565b60206040518083038186803b15801561192a57600080fd5b505afa15801561193e573d6000803e3d6000fd5b505050506040513d601f19601f820116820180604052508101906119629190612b23565b101561199a576040517f08c379a00000000000000000000000000000000000000000000000000000000081526004016105e890613165565b7f000000000000000000000000000000000000000000000000000000000000000073ffffffffffffffffffffffffffffffffffffffff168373ffffffffffffffffffffffffffffffffffffffff161415611a20576040517f08c379a00000000000000000000000000000000000000000000000000000000081526004016105e8906133a2565b8015611a2e57611a2e6110f4565b8115611a4957600854611a419085612535565b600855611a5a565b600954611a569085612535565b6009555b60058054600180820183557f036b6384b5eca791c62761152d0c79bb0604c104a5fb6f4eb0703f3154bb3db090910180547fffffffffffffffffffffffff00000000000000000000000000000000000000001673ffffffffffffffffffffffffffffffffffffffff87169081179091556040805160a081018252600080825243602083019081529282018a8152606083018281528915156080850190815260048054808a018255945293517f8a35acfbc15ff81a39ae7d344fd709f28e8600b4aa8c65c6b64bfe7fe36bd19b9389029384015593517f8a35acfbc15ff81a39ae7d344fd709f28e8600b4aa8c65c6b64bfe7fe36bd19c830155517f8a35acfbc15ff81a39ae7d344fd709f28e8600b4aa8c65c6b64bfe7fe36bd19d82015591517f8a35acfbc15ff81a39ae7d344fd709f28e8600b4aa8c65c6b64bfe7fe36bd19e830155517f8a35acfbc15ff81a39ae7d344fd709f28e8600b4aa8c65c6b64bfe7fe36bd19f90910180547fffffffffffffffffffffffffffffffffffffffffffffffffffffffffffffff00169115159190911790559154611bfb916124f3565b7f18caa0724a26384928efe604ae6ddc99c242548876259770fc88fcb7e719d8fa8685604051611c2c92919061347b565b60405180910390a350505050565b6000611c446129ce565b60048481548110611c5157fe5b60009182526020918290206040805160a0810182526005909302909101805483526001810154938301939093526002830154908201526003820154606082015260049091015460ff16151560808201529050611cab6129ff565b50600084815260066020908152604080832073ffffffffffffffffffffffffffffffffffffffff8716845282529182902082516060808201855282548252600183015482850152600290920154938101939093528351908401519184015190919043118015611d1957508015155b15611d92576000611d378560200151436124f390919063ffffffff16565b90506000611d6b8660800151611d4f57600954611d53565b6008545b6107b988604001516107bf610ecb8b6080015161230c565b9050611d8d611d86846107b984670de0b6b3a7640000612456565b8590612535565b935050505b6000611db264e8d4a510006107b9611daa8a8c61051d565b875190612456565b6020850151909150611dda90611dd4670de0b6b3a76400006107b98588612456565b906124f3565b98975050505050505050565b64e8d4a5100081565b60035473ffffffffffffffffffffffffffffffffffffffff1681565b60026001541415611e48576040517f08c379a00000000000000000000000000000000000000000000000000000000081526004016105e8906133ff565b6002600155611e556129ce565b611e5e83610df0565b6000848152600660209081526040808320338452909152902060808201519192509080611e9a57503360009081526007602052604090205460ff165b611ed0576040517f08c379a00000000000000000000000000000000000000000000000000000000081526004016105e890612f37565b6000611edc338661051d565b825490915015611ef157611ef1338683612379565b83156120ed57600060058681548110611f0657fe5b6000918252602090912001546040517f70a0823100000000000000000000000000000000000000000000000000000000815273ffffffffffffffffffffffffffffffffffffffff909116906370a0823190611f65903090600401612c5b565b60206040518083038186803b158015611f7d57600080fd5b505afa158015611f91573d6000803e3d6000fd5b505050506040513d601f19601f82011682018060405250810190611fb59190612b23565b9050611ff433308760058a81548110611fca57fe5b60009182526020909120015473ffffffffffffffffffffffffffffffffffffffff16929190612738565b6120b4816005888154811061200557fe5b6000918252602090912001546040517f70a0823100000000000000000000000000000000000000000000000000000000815273ffffffffffffffffffffffffffffffffffffffff909116906370a0823190612064903090600401612c5b565b60206040518083038186803b15801561207c57600080fd5b505afa158015612090573d6000803e3d6000fd5b505050506040513d601f19601f82011682018060405250810190611dd49190612b23565b83549095506120c39086612535565b83556120e66120db64e8d4a510006107b98886612456565b606086015190612535565b6060850152505b612121670de0b6b3a76400006107b985600001516107bf64e8d4a510006107b987896000015461245690919063ffffffff16565b8260010181905550826004868154811061213757fe5b6000918252602091829020835160059290920201908155908201516001820155604080830151600283015560608301516003830155608090920151600490910180547fffffffffffffffffffffffffffffffffffffffffffffffffffffffffffffff001691151591909117905551859033907f90890809c654f11d6e72a28fa60149770a0d11ec6c92319d6ceb2bb0a4ea1a1590610ddd908890613472565b6121de612574565b60005473ffffffffffffffffffffffffffffffffffffffff908116911614612232576040517f08c379a00000000000000000000000000000000000000000000000000000000081526004016105e89061319c565b73ffffffffffffffffffffffffffffffffffffffff811661227f576040517f08c379a00000000000000000000000000000000000000000000000000000000081526004016105e890612e46565b6000805460405173ffffffffffffffffffffffffffffffffffffffff808516939216917f8be0079c531659141344cd1fd0a4f28419497f9722a3daafe3b4186f6b6457e091a3600080547fffffffffffffffffffffffff00000000000000000000000000000000000000001673ffffffffffffffffffffffffffffffffffffffff92909216919091179055565b600081156123415761233a64e8d4a510006107b9600b54671314fb370629800061245690919063ffffffff16565b9050610fc1565b61056d64e8d4a510006107b9600c54671314fb370629800061245690919063ffffffff16565b600b5481565b671314fb370629800081565b6123816129ff565b50600082815260066020908152604080832073ffffffffffffffffffffffffffffffffffffffff871684528252808320815160608101835281548082526001830154948201949094526002909101549181019190915291906123ee9064e8d4a51000906107b99086612456565b90506000612426670de0b6b3a76400006107b96004888154811061240e57fe5b60009182526020909120600590910201548590612456565b905060006124418460200151836124f390919063ffffffff16565b905061244d8782612578565b50505050505050565b6000826124655750600061056d565b8282028284828161247257fe5b0414610567576040517f08c379a00000000000000000000000000000000000000000000000000000000081526004016105e8906130d1565b60006124ec83836040518060400160405280601a81526020017f536166654d6174683a206469766973696f6e206279207a65726f00000000000081525061275f565b9392505050565b60006124ec83836040518060400160405280601e81526020017f536166654d6174683a207375627472616374696f6e206f766572666c6f7700008152506127b0565b600082820183811015610567576040517f08c379a00000000000000000000000000000000000000000000000000000000081526004016105e890612ea3565b3390565b8015611184576040517f70a0823100000000000000000000000000000000000000000000000000000000815260009073ffffffffffffffffffffffffffffffffffffffff7f000000000000000000000000000000000000000000000000000000000000000016906370a08231906125f3903090600401612c5b565b60206040518083038186803b15801561260b57600080fd5b505afa15801561261f573d6000803e3d6000fd5b505050506040513d601f19601f820116820180604052508101906126439190612b23565b905081811015612651578091505b61269273ffffffffffffffffffffffffffffffffffffffff7f0000000000000000000000000000000000000000000000000000000000000000168484612697565b505050565b6126928363a9059cbb60e01b84846040516024016126b6929190612cad565b604080517fffffffffffffffffffffffffffffffffffffffffffffffffffffffffffffffe08184030181529190526020810180517bffffffffffffffffffffffffffffffffffffffffffffffffffffffff167fffffffff00000000000000000000000000000000000000000000000000000000909316929092179091526127f6565b612759846323b872dd60e01b8585856040516024016126b693929190612c7c565b50505050565b6000818361279a576040517f08c379a00000000000000000000000000000000000000000000000000000000081526004016105e89190612cde565b5060008385816127a657fe5b0495945050505050565b600081848411156127ee576040517f08c379a00000000000000000000000000000000000000000000000000000000081526004016105e89190612cde565b505050900390565b6060612858826040518060400160405280602081526020017f5361666542455032303a206c6f772d6c6576656c2063616c6c206661696c65648152508573ffffffffffffffffffffffffffffffffffffffff166128ac9092919063ffffffff16565b80519091501561269257808060200190518101906128769190612aef565b612692576040517f08c379a00000000000000000000000000000000000000000000000000000000081526004016105e890612de9565b60606128bb84846000856128c3565b949350505050565b60606128ce856129c8565b612904576040517f08c379a00000000000000000000000000000000000000000000000000000000081526004016105e89061328b565b600060608673ffffffffffffffffffffffffffffffffffffffff16858760405161292e9190612c3f565b60006040518083038185875af1925050503d806000811461296b576040519150601f19603f3d011682016040523d82523d6000602084013e612970565b606091505b509150915081156129845791506128bb9050565b8051156129945780518082602001fd5b836040517f08c379a00000000000000000000000000000000000000000000000000000000081526004016105e89190612cde565b3b151590565b6040518060a00160405280600081526020016000815260200160008152602001600081526020016000151581525090565b60405180606001604052806000815260200160008152602001600081525090565b600060208284031215612a31578081fd5b8135610567816134f2565b60008060408385031215612a4e578081fd5b8235612a59816134f2565b91506020830135612a6981613517565b809150509250929050565b60008060408385031215612a86578182fd5b8235612a91816134f2565b946020939093013593505050565b600080600060608486031215612ab3578081fd5b8335612abe816134f2565b95602085013595506040909401359392505050565b600060208284031215612ae4578081fd5b813561056781613517565b600060208284031215612b00578081fd5b815161056781613517565b600060208284031215612b1c578081fd5b5035919050565b600060208284031215612b34578081fd5b5051919050565b60008060408385031215612b4d578182fd5b823591506020830135612a69816134f2565b60008060008060808587031215612b74578081fd5b843593506020850135612b86816134f2565b92506040850135612b9681613517565b91506060850135612ba681613517565b939692955090935050565b60008060408385031215612bc3578182fd5b50508035926020909101359150565b600080600060608486031215612be6578283fd5b83359250602084013591506040840135612bff81613517565b809150509250925092565b60008060008060808587031215612c1f578384fd5b8435935060208501359250604085013591506060850135612ba681613517565b60008251612c518184602087016134c6565b9190910192915050565b73ffffffffffffffffffffffffffffffffffffffff91909116815260200190565b73ffffffffffffffffffffffffffffffffffffffff9384168152919092166020820152604081019190915260600190565b73ffffffffffffffffffffffffffffffffffffffff929092168252602082015260400190565b901515815260200190565b6000602082528251806020840152612cfd8160408501602087016134c6565b601f017fffffffffffffffffffffffffffffffffffffffffffffffffffffffffffffffe0169190910160400192915050565b6020808252602a908201527f536861646f774368656656323a20496e76616c6964206e657720626f6f73742060408201527f6d756c7469706c69657200000000000000000000000000000000000000000000606082015260800190565b6020808252602c908201527f536861646f774368656656323a2054686520757365722061646472657373206d60408201527f7573742062652076616c69640000000000000000000000000000000000000000606082015260800190565b6020808252602a908201527f5361666542455032303a204245503230206f7065726174696f6e20646964206e60408201527f6f74207375636365656400000000000000000000000000000000000000000000606082015260800190565b60208082526026908201527f4f776e61626c653a206e6577206f776e657220697320746865207a65726f206160408201527f6464726573730000000000000000000000000000000000000000000000000000606082015260800190565b6020808252601b908201527f536166654d6174683a206164646974696f6e206f766572666c6f770000000000604082015260600190565b6020808252602e908201527f536861646f774368656656323a204275726e2061646d696e206164647265737360408201527f206d7573742062652076616c6964000000000000000000000000000000000000606082015260800190565b60208082526042908201527f536861646f774368656656323a205468652061646472657373206973206e6f7460408201527f20617661696c61626c6520746f206465706f73697420696e207468697320706f60608201527f6f6c000000000000000000000000000000000000000000000000000000000000608082015260a00190565b6020808252602e908201527f536861646f774368656656323a20534844572072617465206d7573742062652060408201527f67726561746572207468616e2030000000000000000000000000000000000000606082015260800190565b60208082526025908201527f536861646f774368656656323a20546f74616c2072617465206d75737420626560408201527f2031653132000000000000000000000000000000000000000000000000000000606082015260800190565b60208082526032908201527f536861646f774368656656323a20546865207768697465206c6973742061646460408201527f72657373206d7573742062652076616c69640000000000000000000000000000606082015260800190565b60208082526021908201527f536166654d6174683a206d756c7469706c69636174696f6e206f766572666c6f60408201527f7700000000000000000000000000000000000000000000000000000000000000606082015260800190565b60208082526016908201527f77697468647261773a20496e73756666696369656e7400000000000000000000604082015260600190565b60208082526011908201527f4e6f6e6520424550323020746f6b656e73000000000000000000000000000000604082015260600190565b6020808252818101527f4f776e61626c653a2063616c6c6572206973206e6f7420746865206f776e6572604082015260600190565b60208082526029908201527f4f776e61626c653a2063616c6c6572206973206e6f742074686520626f6f737460408201527f20636f6e74726163740000000000000000000000000000000000000000000000606082015260800190565b60208082526036908201527f536861646f774368656656323a204e657720626f6f737420636f6e747261637460408201527f2061646472657373206d7573742062652076616c696400000000000000000000606082015260800190565b6020808252601d908201527f416464726573733a2063616c6c20746f206e6f6e2d636f6e7472616374000000604082015260600190565b60208082526041908201527f536861646f774368656656323a204275726e2061646d696e206164647265737360408201527f206973207468652073616d6520776974682063757272656e742061646472657360608201527f7300000000000000000000000000000000000000000000000000000000000000608082015260a00190565b60208082526030908201527f536861646f774368656656323a204f6e6c7920726567756c6172206661726d2060408201527f636f756c6420626520626f6f7374656400000000000000000000000000000000606082015260800190565b60208082526027908201527f5348445720746f6b656e2063616e277420626520616464656420746f2066617260408201527f6d20706f6f6c7300000000000000000000000000000000000000000000000000606082015260800190565b6020808252601f908201527f5265656e7472616e637947756172643a207265656e7472616e742063616c6c00604082015260600190565b600060a0820190508251825260208301516020830152604083015160408301526060830151606083015260808301511515608083015292915050565b90815260200190565b9182521515602082015260400190565b9283526020830191909152604082015260600190565b9485526020850193909352604084019190915260608301521515608082015260a00190565b60005b838110156134e15781810151838201526020016134c9565b838111156127595750506000910152565b73ffffffffffffffffffffffffffffffffffffffff8116811461351457600080fd5b50565b801515811461351457600080fdfea26469706673582212208258375ac1461dc0f29a035a916da3fbd5d3fac1fe1c167088369b432b73787f64736f6c634300060c0033",
					"opcodes": "PUSH1 0xA0 PUSH1 0x40 MSTORE PUSH5 0xBA43B7400 PUSH1 0xA SSTORE PUSH5 0x3A35294400 PUSH1 0xB SSTORE PUSH5 0xA2FB405800 PUSH1 0xC SSTORE CALLVALUE DUP1 ISZERO PUSH3 0x2C JUMPI PUSH1 0x0 DUP1 REVERT JUMPDEST POP PUSH1 0x40 MLOAD PUSH3 0x36C4 CODESIZE SUB DUP1 PUSH3 0x36C4 DUP4 CODECOPY DUP2 ADD PUSH1 0x40 DUP2 SWAP1 MSTORE PUSH3 0x4F SWAP2 PUSH3 0xE5 JUMP JUMPDEST PUSH1 0x0 PUSH3 0x5B PUSH3 0xE1 JUMP JUMPDEST PUSH1 0x0 DUP1 SLOAD PUSH1 0x1 PUSH1 0x1 PUSH1 0xA0 SHL SUB NOT AND PUSH1 0x1 PUSH1 0x1 PUSH1 0xA0 SHL SUB DUP4 AND SWAP1 DUP2 OR DUP3 SSTORE PUSH1 0x40 MLOAD SWAP3 SWAP4 POP SWAP2 PUSH32 0x8BE0079C531659141344CD1FD0A4F28419497F9722A3DAAFE3B4186F6B6457E0 SWAP1 DUP3 SWAP1 LOG3 POP PUSH1 0x1 DUP1 SSTORE PUSH1 0x60 SWAP2 SWAP1 SWAP2 SHL PUSH1 0x1 PUSH1 0x1 PUSH1 0x60 SHL SUB NOT AND PUSH1 0x80 MSTORE PUSH1 0x2 DUP1 SLOAD PUSH1 0x1 PUSH1 0x1 PUSH1 0xA0 SHL SUB NOT AND PUSH1 0x1 PUSH1 0x1 PUSH1 0xA0 SHL SUB SWAP1 SWAP3 AND SWAP2 SWAP1 SWAP2 OR SWAP1 SSTORE PUSH3 0x13C JUMP JUMPDEST CALLER SWAP1 JUMP JUMPDEST PUSH1 0x0 DUP1 PUSH1 0x40 DUP4 DUP6 SUB SLT ISZERO PUSH3 0xF8 JUMPI DUP2 DUP3 REVERT JUMPDEST DUP3 MLOAD PUSH3 0x105 DUP2 PUSH3 0x123 JUMP JUMPDEST PUSH1 0x20 DUP5 ADD MLOAD SWAP1 SWAP3 POP PUSH3 0x118 DUP2 PUSH3 0x123 JUMP JUMPDEST DUP1 SWAP2 POP POP SWAP3 POP SWAP3 SWAP1 POP JUMP JUMPDEST PUSH1 0x1 PUSH1 0x1 PUSH1 0xA0 SHL SUB DUP2 AND DUP2 EQ PUSH3 0x139 JUMPI PUSH1 0x0 DUP1 REVERT JUMPDEST POP JUMP JUMPDEST PUSH1 0x80 MLOAD PUSH1 0x60 SHR PUSH2 0x355B PUSH3 0x169 PUSH1 0x0 CODECOPY DUP1 PUSH2 0x575 MSTORE DUP1 PUSH2 0x199C MSTORE DUP1 PUSH2 0x25BE MSTORE DUP1 PUSH2 0x266B MSTORE POP PUSH2 0x355B PUSH1 0x0 RETURN INVALID PUSH1 0x80 PUSH1 0x40 MSTORE CALLVALUE DUP1 ISZERO PUSH2 0x10 JUMPI PUSH1 0x0 DUP1 REVERT JUMPDEST POP PUSH1 0x4 CALLDATASIZE LT PUSH2 0x2AD JUMPI PUSH1 0x0 CALLDATALOAD PUSH1 0xE0 SHR DUP1 PUSH4 0x78DB4C34 GT PUSH2 0x17B JUMPI DUP1 PUSH4 0xC507AEAA GT PUSH2 0xD8 JUMPI DUP1 PUSH4 0xE2BBB158 GT PUSH2 0x8C JUMPI DUP1 PUSH4 0xF474309E GT PUSH2 0x71 JUMPI DUP1 PUSH4 0xF474309E EQ PUSH2 0x4FA JUMPI DUP1 PUSH4 0xF5A26F40 EQ PUSH2 0x50D JUMPI DUP1 PUSH4 0xF5B91CD3 EQ PUSH2 0x515 JUMPI PUSH2 0x2AD JUMP JUMPDEST DUP1 PUSH4 0xE2BBB158 EQ PUSH2 0x4D4 JUMPI DUP1 PUSH4 0xF2FDE38B EQ PUSH2 0x4E7 JUMPI PUSH2 0x2AD JUMP JUMPDEST DUP1 PUSH4 0xCC6DB2DA GT PUSH2 0xBD JUMPI DUP1 PUSH4 0xCC6DB2DA EQ PUSH2 0x4C4 JUMPI DUP1 PUSH4 0xD2CE6AE8 EQ PUSH2 0x4C4 JUMPI DUP1 PUSH4 0xDFCEDEEE EQ PUSH2 0x4CC JUMPI PUSH2 0x2AD JUMP JUMPDEST DUP1 PUSH4 0xC507AEAA EQ PUSH2 0x49E JUMPI DUP1 PUSH4 0xC799B59D EQ PUSH2 0x4B1 JUMPI PUSH2 0x2AD JUMP JUMPDEST DUP1 PUSH4 0x93F1A40B GT PUSH2 0x12F JUMPI DUP1 PUSH4 0x9DD2FCC3 GT PUSH2 0x114 JUMPI DUP1 PUSH4 0x9DD2FCC3 EQ PUSH2 0x470 JUMPI DUP1 PUSH4 0xAC1D0609 EQ PUSH2 0x483 JUMPI DUP1 PUSH4 0xC40D337B EQ PUSH2 0x496 JUMPI PUSH2 0x2AD JUMP JUMPDEST DUP1 PUSH4 0x93F1A40B EQ PUSH2 0x446 JUMPI DUP1 PUSH4 0x99D7E84A EQ PUSH2 0x468 JUMPI PUSH2 0x2AD JUMP JUMPDEST DUP1 PUSH4 0x815D087F GT PUSH2 0x160 JUMPI DUP1 PUSH4 0x815D087F EQ PUSH2 0x423 JUMPI DUP1 PUSH4 0x81BDF98C EQ PUSH2 0x436 JUMPI DUP1 PUSH4 0x8DA5CB5B EQ PUSH2 0x43E JUMPI PUSH2 0x2AD JUMP JUMPDEST DUP1 PUSH4 0x78DB4C34 EQ PUSH2 0x408 JUMPI DUP1 PUSH4 0x78ED5D1F EQ PUSH2 0x410 JUMPI PUSH2 0x2AD JUMP JUMPDEST DUP1 PUSH4 0x372C12B1 GT PUSH2 0x229 JUMPI DUP1 PUSH4 0x64482F79 GT PUSH2 0x1DD JUMPI DUP1 PUSH4 0x69B02128 GT PUSH2 0x1C2 JUMPI DUP1 PUSH4 0x69B02128 EQ PUSH2 0x3F0 JUMPI DUP1 PUSH4 0x6FDA08C3 EQ PUSH2 0x3F8 JUMPI DUP1 PUSH4 0x715018A6 EQ PUSH2 0x400 JUMPI PUSH2 0x2AD JUMP JUMPDEST DUP1 PUSH4 0x64482F79 EQ PUSH2 0x3D5 JUMPI DUP1 PUSH4 0x6661100F EQ PUSH2 0x3E8 JUMPI PUSH2 0x2AD JUMP JUMPDEST DUP1 PUSH4 0x51EB05A6 GT PUSH2 0x20E JUMPI DUP1 PUSH4 0x51EB05A6 EQ PUSH2 0x39A JUMPI DUP1 PUSH4 0x5312EA8E EQ PUSH2 0x3BA JUMPI DUP1 PUSH4 0x630B5BA1 EQ PUSH2 0x3CD JUMPI PUSH2 0x2AD JUMP JUMPDEST DUP1 PUSH4 0x372C12B1 EQ PUSH2 0x367 JUMPI DUP1 PUSH4 0x441A3E70 EQ PUSH2 0x387 JUMPI PUSH2 0x2AD JUMP JUMPDEST DUP1 PUSH4 0xBB844BC GT PUSH2 0x280 JUMPI DUP1 PUSH4 0x16E80F4D GT PUSH2 0x265 JUMPI DUP1 PUSH4 0x16E80F4D EQ PUSH2 0x344 JUMPI DUP1 PUSH4 0x19F95E2E EQ PUSH2 0x34C JUMPI DUP1 PUSH4 0x36183ED6 EQ PUSH2 0x354 JUMPI PUSH2 0x2AD JUMP JUMPDEST DUP1 PUSH4 0xBB844BC EQ PUSH2 0x30D JUMPI DUP1 PUSH4 0x1526FE27 EQ PUSH2 0x320 JUMPI PUSH2 0x2AD JUMP JUMPDEST DUP1 PUSH4 0x33186E8 EQ PUSH2 0x2B2 JUMPI DUP1 PUSH4 0x3DCFF74 EQ PUSH2 0x2DB JUMPI DUP1 PUSH4 0x41A84C9 EQ PUSH2 0x2F0 JUMPI DUP1 PUSH4 0x81E3EDA EQ PUSH2 0x305 JUMPI JUMPDEST PUSH1 0x0 DUP1 REVERT JUMPDEST PUSH2 0x2C5 PUSH2 0x2C0 CALLDATASIZE PUSH1 0x4 PUSH2 0x2A74 JUMP JUMPDEST PUSH2 0x51D JUMP JUMPDEST PUSH1 0x40 MLOAD PUSH2 0x2D2 SWAP2 SWAP1 PUSH2 0x3472 JUMP JUMPDEST PUSH1 0x40 MLOAD DUP1 SWAP2 SUB SWAP1 RETURN JUMPDEST PUSH2 0x2E3 PUSH2 0x573 JUMP JUMPDEST PUSH1 0x40 MLOAD PUSH2 0x2D2 SWAP2 SWAP1 PUSH2 0x2C5B JUMP JUMPDEST PUSH2 0x303 PUSH2 0x2FE CALLDATASIZE PUSH1 0x4 PUSH2 0x2A9F JUMP JUMPDEST PUSH2 0x597 JUMP JUMPDEST STOP JUMPDEST PUSH2 0x2C5 PUSH2 0x90F JUMP JUMPDEST PUSH2 0x303 PUSH2 0x31B CALLDATASIZE PUSH1 0x4 PUSH2 0x2A20 JUMP JUMPDEST PUSH2 0x915 JUMP JUMPDEST PUSH2 0x333 PUSH2 0x32E CALLDATASIZE PUSH1 0x4 PUSH2 0x2B0B JUMP JUMPDEST PUSH2 0xA8A JUMP JUMPDEST PUSH1 0x40 MLOAD PUSH2 0x2D2 SWAP6 SWAP5 SWAP4 SWAP3 SWAP2 SWAP1 PUSH2 0x34A1 JUMP JUMPDEST PUSH2 0x2C5 PUSH2 0xACB JUMP JUMPDEST PUSH2 0x2C5 PUSH2 0xAD7 JUMP JUMPDEST PUSH2 0x303 PUSH2 0x362 CALLDATASIZE PUSH1 0x4 PUSH2 0x2AD3 JUMP JUMPDEST PUSH2 0xB04 JUMP JUMPDEST PUSH2 0x37A PUSH2 0x375 CALLDATASIZE PUSH1 0x4 PUSH2 0x2A20 JUMP JUMPDEST PUSH2 0xBCA JUMP JUMPDEST PUSH1 0x40 MLOAD PUSH2 0x2D2 SWAP2 SWAP1 PUSH2 0x2CD3 JUMP JUMPDEST PUSH2 0x303 PUSH2 0x395 CALLDATASIZE PUSH1 0x4 PUSH2 0x2BB1 JUMP JUMPDEST PUSH2 0xBDF JUMP JUMPDEST PUSH2 0x3AD PUSH2 0x3A8 CALLDATASIZE PUSH1 0x4 PUSH2 0x2B0B JUMP JUMPDEST PUSH2 0xDF0 JUMP JUMPDEST PUSH1 0x40 MLOAD PUSH2 0x2D2 SWAP2 SWAP1 PUSH2 0x3436 JUMP JUMPDEST PUSH2 0x303 PUSH2 0x3C8 CALLDATASIZE PUSH1 0x4 PUSH2 0x2B0B JUMP JUMPDEST PUSH2 0xFC6 JUMP JUMPDEST PUSH2 0x303 PUSH2 0x10F4 JUMP JUMPDEST PUSH2 0x303 PUSH2 0x3E3 CALLDATASIZE PUSH1 0x4 PUSH2 0x2BD2 JUMP JUMPDEST PUSH2 0x1188 JUMP JUMPDEST PUSH2 0x2C5 PUSH2 0x12FF JUMP JUMPDEST PUSH2 0x2C5 PUSH2 0x1305 JUMP JUMPDEST PUSH2 0x2C5 PUSH2 0x130F JUMP JUMPDEST PUSH2 0x303 PUSH2 0x1315 JUMP JUMPDEST PUSH2 0x2C5 PUSH2 0x13E0 JUMP JUMPDEST PUSH2 0x2E3 PUSH2 0x41E CALLDATASIZE PUSH1 0x4 PUSH2 0x2B0B JUMP JUMPDEST PUSH2 0x13E6 JUMP JUMPDEST PUSH2 0x303 PUSH2 0x431 CALLDATASIZE PUSH1 0x4 PUSH2 0x2C0A JUMP JUMPDEST PUSH2 0x141A JUMP JUMPDEST PUSH2 0x2E3 PUSH2 0x157C JUMP JUMPDEST PUSH2 0x2E3 PUSH2 0x1598 JUMP JUMPDEST PUSH2 0x459 PUSH2 0x454 CALLDATASIZE PUSH1 0x4 PUSH2 0x2B3B JUMP JUMPDEST PUSH2 0x15B4 JUMP JUMPDEST PUSH1 0x40 MLOAD PUSH2 0x2D2 SWAP4 SWAP3 SWAP2 SWAP1 PUSH2 0x348B JUMP JUMPDEST PUSH2 0x2C5 PUSH2 0x15E0 JUMP JUMPDEST PUSH2 0x303 PUSH2 0x47E CALLDATASIZE PUSH1 0x4 PUSH2 0x2A20 JUMP JUMPDEST PUSH2 0x15E6 JUMP JUMPDEST PUSH2 0x303 PUSH2 0x491 CALLDATASIZE PUSH1 0x4 PUSH2 0x2A3C JUMP JUMPDEST PUSH2 0x1727 JUMP JUMPDEST PUSH2 0x2C5 PUSH2 0x185B JUMP JUMPDEST PUSH2 0x303 PUSH2 0x4AC CALLDATASIZE PUSH1 0x4 PUSH2 0x2B5F JUMP JUMPDEST PUSH2 0x1861 JUMP JUMPDEST PUSH2 0x2C5 PUSH2 0x4BF CALLDATASIZE PUSH1 0x4 PUSH2 0x2B3B JUMP JUMPDEST PUSH2 0x1C3A JUMP JUMPDEST PUSH2 0x2C5 PUSH2 0x1DE6 JUMP JUMPDEST PUSH2 0x2E3 PUSH2 0x1DEF JUMP JUMPDEST PUSH2 0x303 PUSH2 0x4E2 CALLDATASIZE PUSH1 0x4 PUSH2 0x2BB1 JUMP JUMPDEST PUSH2 0x1E0B JUMP JUMPDEST PUSH2 0x303 PUSH2 0x4F5 CALLDATASIZE PUSH1 0x4 PUSH2 0x2A20 JUMP JUMPDEST PUSH2 0x21D6 JUMP JUMPDEST PUSH2 0x2C5 PUSH2 0x508 CALLDATASIZE PUSH1 0x4 PUSH2 0x2AD3 JUMP JUMPDEST PUSH2 0x230C JUMP JUMPDEST PUSH2 0x2C5 PUSH2 0x2367 JUMP JUMPDEST PUSH2 0x2C5 PUSH2 0x236D JUMP JUMPDEST PUSH1 0x0 DUP2 DUP2 MSTORE PUSH1 0x6 PUSH1 0x20 SWAP1 DUP2 MSTORE PUSH1 0x40 DUP1 DUP4 KECCAK256 PUSH20 0xFFFFFFFFFFFFFFFFFFFFFFFFFFFFFFFFFFFFFFFF DUP7 AND DUP5 MSTORE SWAP1 SWAP2 MSTORE DUP2 KECCAK256 PUSH1 0x2 ADD SLOAD PUSH5 0xE8D4A51000 DUP2 GT PUSH2 0x567 JUMPI PUSH5 0xE8D4A51000 PUSH2 0x569 JUMP JUMPDEST DUP1 JUMPDEST SWAP2 POP POP JUMPDEST SWAP3 SWAP2 POP POP JUMP JUMPDEST PUSH32 0x0 DUP2 JUMP JUMPDEST PUSH1 0x3 SLOAD PUSH20 0xFFFFFFFFFFFFFFFFFFFFFFFFFFFFFFFFFFFFFFFF AND CALLER EQ PUSH2 0x5F1 JUMPI PUSH1 0x40 MLOAD PUSH32 0x8C379A000000000000000000000000000000000000000000000000000000000 DUP2 MSTORE PUSH1 0x4 ADD PUSH2 0x5E8 SWAP1 PUSH2 0x31D1 JUMP JUMPDEST PUSH1 0x40 MLOAD DUP1 SWAP2 SUB SWAP1 REVERT JUMPDEST PUSH1 0x2 PUSH1 0x1 SLOAD EQ ISZERO PUSH2 0x62E JUMPI PUSH1 0x40 MLOAD PUSH32 0x8C379A000000000000000000000000000000000000000000000000000000000 DUP2 MSTORE PUSH1 0x4 ADD PUSH2 0x5E8 SWAP1 PUSH2 0x33FF JUMP JUMPDEST PUSH1 0x2 PUSH1 0x1 SSTORE PUSH20 0xFFFFFFFFFFFFFFFFFFFFFFFFFFFFFFFFFFFFFFFF DUP4 AND PUSH2 0x680 JUMPI PUSH1 0x40 MLOAD PUSH32 0x8C379A000000000000000000000000000000000000000000000000000000000 DUP2 MSTORE PUSH1 0x4 ADD PUSH2 0x5E8 SWAP1 PUSH2 0x2D8C JUMP JUMPDEST PUSH1 0x4 DUP3 DUP2 SLOAD DUP2 LT PUSH2 0x68D JUMPI INVALID JUMPDEST PUSH1 0x0 SWAP2 DUP3 MSTORE PUSH1 0x20 SWAP1 SWAP2 KECCAK256 PUSH1 0x4 PUSH1 0x5 SWAP1 SWAP3 MUL ADD ADD SLOAD PUSH1 0xFF AND PUSH2 0x6DA JUMPI PUSH1 0x40 MLOAD PUSH32 0x8C379A000000000000000000000000000000000000000000000000000000000 DUP2 MSTORE PUSH1 0x4 ADD PUSH2 0x5E8 SWAP1 PUSH2 0x3345 JUMP JUMPDEST PUSH5 0xE8D4A51000 DUP2 LT ISZERO DUP1 ISZERO PUSH2 0x6F5 JUMPI POP PUSH6 0x1D1A94A2000 DUP2 GT ISZERO JUMPDEST PUSH2 0x72B JUMPI PUSH1 0x40 MLOAD PUSH32 0x8C379A000000000000000000000000000000000000000000000000000000000 DUP2 MSTORE PUSH1 0x4 ADD PUSH2 0x5E8 SWAP1 PUSH2 0x2D2F JUMP JUMPDEST PUSH2 0x733 PUSH2 0x29CE JUMP JUMPDEST PUSH2 0x73C DUP4 PUSH2 0xDF0 JUMP JUMPDEST PUSH1 0x0 DUP5 DUP2 MSTORE PUSH1 0x6 PUSH1 0x20 SWAP1 DUP2 MSTORE PUSH1 0x40 DUP1 DUP4 KECCAK256 PUSH20 0xFFFFFFFFFFFFFFFFFFFFFFFFFFFFFFFFFFFFFFFF DUP10 AND DUP5 MSTORE SWAP1 SWAP2 MSTORE DUP2 KECCAK256 SWAP2 SWAP3 POP PUSH2 0x778 DUP7 DUP7 PUSH2 0x51D JUMP JUMPDEST SWAP1 POP PUSH2 0x785 DUP7 DUP7 DUP4 PUSH2 0x2379 JUMP JUMPDEST PUSH2 0x7C5 PUSH8 0xDE0B6B3A7640000 PUSH2 0x7B9 DUP6 PUSH1 0x0 ADD MLOAD PUSH2 0x7BF PUSH5 0xE8D4A51000 PUSH2 0x7B9 DUP11 DUP10 PUSH1 0x0 ADD SLOAD PUSH2 0x2456 SWAP1 SWAP2 SWAP1 PUSH4 0xFFFFFFFF AND JUMP JUMPDEST SWAP1 PUSH2 0x24AA JUMP JUMPDEST SWAP1 PUSH2 0x2456 JUMP JUMPDEST PUSH1 0x1 DUP4 ADD SSTORE DUP2 SLOAD PUSH2 0x811 SWAP1 PUSH2 0x7E5 SWAP1 PUSH5 0xE8D4A51000 SWAP1 PUSH2 0x7B9 SWAP1 DUP9 PUSH2 0x2456 JUMP JUMPDEST DUP4 SLOAD PUSH2 0x80B SWAP1 PUSH2 0x800 SWAP1 PUSH5 0xE8D4A51000 SWAP1 PUSH2 0x7B9 SWAP1 DUP8 PUSH2 0x2456 JUMP JUMPDEST PUSH1 0x60 DUP8 ADD MLOAD SWAP1 PUSH2 0x24F3 JUMP JUMPDEST SWAP1 PUSH2 0x2535 JUMP JUMPDEST PUSH1 0x60 DUP5 ADD MSTORE PUSH1 0x4 DUP1 SLOAD DUP5 SWAP2 SWAP1 DUP8 SWAP1 DUP2 LT PUSH2 0x827 JUMPI INVALID JUMPDEST PUSH1 0x0 SWAP2 DUP3 MSTORE PUSH1 0x20 DUP1 DUP4 KECCAK256 DUP5 MLOAD PUSH1 0x5 SWAP4 SWAP1 SWAP4 MUL ADD SWAP2 DUP3 SSTORE DUP4 DUP2 ADD MLOAD PUSH1 0x1 DUP4 ADD SSTORE PUSH1 0x40 DUP1 DUP6 ADD MLOAD PUSH1 0x2 DUP1 DUP6 ADD SWAP2 SWAP1 SWAP2 SSTORE PUSH1 0x60 DUP7 ADD MLOAD PUSH1 0x3 DUP6 ADD SSTORE PUSH1 0x80 SWAP1 SWAP6 ADD MLOAD PUSH1 0x4 SWAP1 SWAP4 ADD DUP1 SLOAD PUSH32 0xFFFFFFFFFFFFFFFFFFFFFFFFFFFFFFFFFFFFFFFFFFFFFFFFFFFFFFFFFFFFFF00 AND SWAP4 ISZERO ISZERO SWAP4 SWAP1 SWAP4 OR SWAP1 SWAP3 SSTORE DUP9 DUP4 MSTORE PUSH1 0x6 DUP2 MSTORE DUP2 DUP4 KECCAK256 PUSH20 0xFFFFFFFFFFFFFFFFFFFFFFFFFFFFFFFFFFFFFFFF DUP12 AND DUP1 DUP6 MSTORE SWAP2 MSTORE SWAP2 DUP2 SWAP1 KECCAK256 SWAP1 SWAP3 ADD DUP7 SWAP1 SSTORE SWAP1 MLOAD PUSH32 0x1ABD62439B64F6C5DAB6F94D56099495BD0C094F9C21F98F4D3562A21EDB4BA SWAP1 PUSH2 0x8FB SWAP1 DUP9 SWAP1 DUP6 SWAP1 DUP10 SWAP1 PUSH2 0x348B JUMP JUMPDEST PUSH1 0x40 MLOAD DUP1 SWAP2 SUB SWAP1 LOG2 POP POP PUSH1 0x1 DUP1 SSTORE POP POP POP POP JUMP JUMPDEST PUSH1 0x4 SLOAD SWAP1 JUMP JUMPDEST PUSH2 0x91D PUSH2 0x2574 JUMP JUMPDEST PUSH1 0x0 SLOAD PUSH20 0xFFFFFFFFFFFFFFFFFFFFFFFFFFFFFFFFFFFFFFFF SWAP1 DUP2 AND SWAP2 AND EQ PUSH2 0x971 JUMPI PUSH1 0x40 MLOAD PUSH32 0x8C379A000000000000000000000000000000000000000000000000000000000 DUP2 MSTORE PUSH1 0x4 ADD PUSH2 0x5E8 SWAP1 PUSH2 0x319C JUMP JUMPDEST PUSH20 0xFFFFFFFFFFFFFFFFFFFFFFFFFFFFFFFFFFFFFFFF DUP2 AND PUSH2 0x9BE JUMPI PUSH1 0x40 MLOAD PUSH32 0x8C379A000000000000000000000000000000000000000000000000000000000 DUP2 MSTORE PUSH1 0x4 ADD PUSH2 0x5E8 SWAP1 PUSH2 0x2EDA JUMP JUMPDEST PUSH1 0x2 SLOAD PUSH20 0xFFFFFFFFFFFFFFFFFFFFFFFFFFFFFFFFFFFFFFFF DUP3 DUP2 AND SWAP2 AND EQ ISZERO PUSH2 0xA13 JUMPI PUSH1 0x40 MLOAD PUSH32 0x8C379A000000000000000000000000000000000000000000000000000000000 DUP2 MSTORE PUSH1 0x4 ADD PUSH2 0x5E8 SWAP1 PUSH2 0x32C2 JUMP JUMPDEST PUSH1 0x2 DUP1 SLOAD PUSH20 0xFFFFFFFFFFFFFFFFFFFFFFFFFFFFFFFFFFFFFFFF DUP4 DUP2 AND PUSH32 0xFFFFFFFFFFFFFFFFFFFFFFFF0000000000000000000000000000000000000000 DUP4 AND DUP2 OR SWAP1 SWAP4 SSTORE PUSH1 0x40 MLOAD SWAP2 AND SWAP2 SWAP1 DUP3 SWAP1 PUSH32 0xD146FE330FDDDF682413850A35B28EDFCCD4C4B53CFEE802FD24950DE5BE1DBE SWAP1 PUSH1 0x0 SWAP1 LOG3 POP POP JUMP JUMPDEST PUSH1 0x4 DUP2 DUP2 SLOAD DUP2 LT PUSH2 0xA97 JUMPI INVALID JUMPDEST PUSH1 0x0 SWAP2 DUP3 MSTORE PUSH1 0x20 SWAP1 SWAP2 KECCAK256 PUSH1 0x5 SWAP1 SWAP2 MUL ADD DUP1 SLOAD PUSH1 0x1 DUP3 ADD SLOAD PUSH1 0x2 DUP4 ADD SLOAD PUSH1 0x3 DUP5 ADD SLOAD PUSH1 0x4 SWAP1 SWAP5 ADD SLOAD SWAP3 SWAP5 POP SWAP1 SWAP3 SWAP1 SWAP2 PUSH1 0xFF AND DUP6 JUMP JUMPDEST PUSH8 0xDE0B6B3A7640000 DUP2 JUMP JUMPDEST PUSH1 0x0 PUSH2 0xAFF PUSH5 0xE8D4A51000 PUSH2 0x7B9 PUSH1 0xA SLOAD PUSH8 0x1314FB3706298000 PUSH2 0x2456 SWAP1 SWAP2 SWAP1 PUSH4 0xFFFFFFFF AND JUMP JUMPDEST SWAP1 POP SWAP1 JUMP JUMPDEST PUSH2 0xB0C PUSH2 0x2574 JUMP JUMPDEST PUSH1 0x0 SLOAD PUSH20 0xFFFFFFFFFFFFFFFFFFFFFFFFFFFFFFFFFFFFFFFF SWAP1 DUP2 AND SWAP2 AND EQ PUSH2 0xB60 JUMPI PUSH1 0x40 MLOAD PUSH32 0x8C379A000000000000000000000000000000000000000000000000000000000 DUP2 MSTORE PUSH1 0x4 ADD PUSH2 0x5E8 SWAP1 PUSH2 0x319C JUMP JUMPDEST DUP1 ISZERO PUSH2 0xB6E JUMPI PUSH2 0xB6E PUSH2 0x10F4 JUMP JUMPDEST PUSH1 0x0 PUSH2 0xB85 PUSH1 0xD SLOAD NUMBER PUSH2 0x24F3 SWAP1 SWAP2 SWAP1 PUSH4 0xFFFFFFFF AND JUMP JUMPDEST SWAP1 POP PUSH1 0x0 PUSH2 0xB9B PUSH2 0xB94 PUSH2 0xAD7 JUMP JUMPDEST DUP4 SWAP1 PUSH2 0x2456 JUMP JUMPDEST PUSH1 0x2 SLOAD SWAP1 SWAP2 POP PUSH2 0xBC1 SWAP1 PUSH20 0xFFFFFFFFFFFFFFFFFFFFFFFFFFFFFFFFFFFFFFFF AND DUP3 PUSH2 0x2578 JUMP JUMPDEST POP POP NUMBER PUSH1 0xD SSTORE POP JUMP JUMPDEST PUSH1 0x7 PUSH1 0x20 MSTORE PUSH1 0x0 SWAP1 DUP2 MSTORE PUSH1 0x40 SWAP1 KECCAK256 SLOAD PUSH1 0xFF AND DUP2 JUMP JUMPDEST PUSH1 0x2 PUSH1 0x1 SLOAD EQ ISZERO PUSH2 0xC1C JUMPI PUSH1 0x40 MLOAD PUSH32 0x8C379A000000000000000000000000000000000000000000000000000000000 DUP2 MSTORE PUSH1 0x4 ADD PUSH2 0x5E8 SWAP1 PUSH2 0x33FF JUMP JUMPDEST PUSH1 0x2 PUSH1 0x1 SSTORE PUSH2 0xC29 PUSH2 0x29CE JUMP JUMPDEST PUSH2 0xC32 DUP4 PUSH2 0xDF0 JUMP JUMPDEST PUSH1 0x0 DUP5 DUP2 MSTORE PUSH1 0x6 PUSH1 0x20 SWAP1 DUP2 MSTORE PUSH1 0x40 DUP1 DUP4 KECCAK256 CALLER DUP5 MSTORE SWAP1 SWAP2 MSTORE SWAP1 KECCAK256 DUP1 SLOAD SWAP2 SWAP3 POP SWAP1 DUP4 GT ISZERO PUSH2 0xC8A JUMPI PUSH1 0x40 MLOAD PUSH32 0x8C379A000000000000000000000000000000000000000000000000000000000 DUP2 MSTORE PUSH1 0x4 ADD PUSH2 0x5E8 SWAP1 PUSH2 0x312E JUMP JUMPDEST PUSH1 0x0 PUSH2 0xC96 CALLER DUP7 PUSH2 0x51D JUMP JUMPDEST SWAP1 POP PUSH2 0xCA3 CALLER DUP7 DUP4 PUSH2 0x2379 JUMP JUMPDEST DUP4 ISZERO PUSH2 0xCF8 JUMPI DUP2 SLOAD PUSH2 0xCB5 SWAP1 DUP6 PUSH2 0x24F3 JUMP JUMPDEST DUP3 PUSH1 0x0 ADD DUP2 SWAP1 SSTORE POP PUSH2 0xCF8 CALLER DUP6 PUSH1 0x5 DUP9 DUP2 SLOAD DUP2 LT PUSH2 0xCCF JUMPI INVALID JUMPDEST PUSH1 0x0 SWAP2 DUP3 MSTORE PUSH1 0x20 SWAP1 SWAP2 KECCAK256 ADD SLOAD PUSH20 0xFFFFFFFFFFFFFFFFFFFFFFFFFFFFFFFFFFFFFFFF AND SWAP2 SWAP1 PUSH2 0x2697 JUMP JUMPDEST PUSH2 0xD2C PUSH8 0xDE0B6B3A7640000 PUSH2 0x7B9 DUP6 PUSH1 0x0 ADD MLOAD PUSH2 0x7BF PUSH5 0xE8D4A51000 PUSH2 0x7B9 DUP8 DUP10 PUSH1 0x0 ADD SLOAD PUSH2 0x2456 SWAP1 SWAP2 SWAP1 PUSH4 0xFFFFFFFF AND JUMP JUMPDEST PUSH1 0x1 DUP4 ADD SSTORE PUSH2 0xD74 PUSH2 0xD47 PUSH5 0xE8D4A51000 PUSH2 0x7B9 DUP8 DUP6 PUSH2 0x2456 JUMP JUMPDEST PUSH1 0x4 DUP8 DUP2 SLOAD DUP2 LT PUSH2 0xD54 JUMPI INVALID JUMPDEST SWAP1 PUSH1 0x0 MSTORE PUSH1 0x20 PUSH1 0x0 KECCAK256 SWAP1 PUSH1 0x5 MUL ADD PUSH1 0x3 ADD SLOAD PUSH2 0x24F3 SWAP1 SWAP2 SWAP1 PUSH4 0xFFFFFFFF AND JUMP JUMPDEST PUSH1 0x4 DUP7 DUP2 SLOAD DUP2 LT PUSH2 0xD81 JUMPI INVALID JUMPDEST SWAP1 PUSH1 0x0 MSTORE PUSH1 0x20 PUSH1 0x0 KECCAK256 SWAP1 PUSH1 0x5 MUL ADD PUSH1 0x3 ADD DUP2 SWAP1 SSTORE POP DUP5 CALLER PUSH20 0xFFFFFFFFFFFFFFFFFFFFFFFFFFFFFFFFFFFFFFFF AND PUSH32 0xF279E6A1F5E320CCA91135676D9CB6E44CA8A08C0B88342BCDB1144F6511B568 DUP7 PUSH1 0x40 MLOAD PUSH2 0xDDD SWAP2 SWAP1 PUSH2 0x3472 JUMP JUMPDEST PUSH1 0x40 MLOAD DUP1 SWAP2 SUB SWAP1 LOG3 POP POP PUSH1 0x1 DUP1 SSTORE POP POP POP JUMP JUMPDEST PUSH2 0xDF8 PUSH2 0x29CE JUMP JUMPDEST PUSH1 0x4 DUP3 DUP2 SLOAD DUP2 LT PUSH2 0xE05 JUMPI INVALID JUMPDEST PUSH1 0x0 SWAP2 DUP3 MSTORE PUSH1 0x20 SWAP2 DUP3 SWAP1 KECCAK256 PUSH1 0x40 DUP1 MLOAD PUSH1 0xA0 DUP2 ADD DUP3 MSTORE PUSH1 0x5 SWAP1 SWAP4 MUL SWAP1 SWAP2 ADD DUP1 SLOAD DUP4 MSTORE PUSH1 0x1 DUP2 ADD SLOAD SWAP4 DUP4 ADD DUP5 SWAP1 MSTORE PUSH1 0x2 DUP2 ADD SLOAD SWAP2 DUP4 ADD SWAP2 SWAP1 SWAP2 MSTORE PUSH1 0x3 DUP2 ADD SLOAD PUSH1 0x60 DUP4 ADD MSTORE PUSH1 0x4 ADD SLOAD PUSH1 0xFF AND ISZERO ISZERO PUSH1 0x80 DUP3 ADD MSTORE SWAP2 POP NUMBER GT ISZERO PUSH2 0xFC1 JUMPI PUSH1 0x60 DUP2 ADD MLOAD PUSH1 0x80 DUP3 ADD MLOAD PUSH1 0x0 SWAP1 PUSH2 0xE77 JUMPI PUSH1 0x9 SLOAD PUSH2 0xE7B JUMP JUMPDEST PUSH1 0x8 SLOAD JUMPDEST SWAP1 POP PUSH1 0x0 DUP3 GT DUP1 ISZERO PUSH2 0xE8D JUMPI POP PUSH1 0x0 DUP2 GT JUMPDEST ISZERO PUSH2 0xEFA JUMPI PUSH1 0x0 PUSH2 0xEAB DUP5 PUSH1 0x20 ADD MLOAD NUMBER PUSH2 0x24F3 SWAP1 SWAP2 SWAP1 PUSH4 0xFFFFFFFF AND JUMP JUMPDEST SWAP1 POP PUSH1 0x0 PUSH2 0xED2 DUP4 PUSH2 0x7B9 DUP8 PUSH1 0x40 ADD MLOAD PUSH2 0x7BF PUSH2 0xECB DUP11 PUSH1 0x80 ADD MLOAD PUSH2 0x230C JUMP JUMPDEST DUP8 SWAP1 PUSH2 0x2456 JUMP JUMPDEST SWAP1 POP PUSH2 0xEF5 PUSH2 0xEED DUP6 PUSH2 0x7B9 DUP5 PUSH8 0xDE0B6B3A7640000 PUSH2 0x2456 JUMP JUMPDEST DUP7 MLOAD SWAP1 PUSH2 0x2535 JUMP JUMPDEST DUP6 MSTORE POP POP JUMPDEST NUMBER PUSH1 0x20 DUP5 ADD MSTORE PUSH1 0x4 DUP1 SLOAD DUP5 SWAP2 SWAP1 DUP7 SWAP1 DUP2 LT PUSH2 0xF11 JUMPI INVALID JUMPDEST PUSH1 0x0 SWAP2 DUP3 MSTORE PUSH1 0x20 SWAP2 DUP3 SWAP1 KECCAK256 DUP4 MLOAD PUSH1 0x5 SWAP3 SWAP1 SWAP3 MUL ADD SWAP1 DUP2 SSTORE DUP3 DUP3 ADD MLOAD PUSH1 0x1 DUP3 ADD SSTORE PUSH1 0x40 DUP1 DUP5 ADD MLOAD PUSH1 0x2 DUP4 ADD SSTORE PUSH1 0x60 DUP5 ADD MLOAD PUSH1 0x3 DUP4 ADD SSTORE PUSH1 0x80 SWAP1 SWAP4 ADD MLOAD PUSH1 0x4 SWAP1 SWAP2 ADD DUP1 SLOAD PUSH32 0xFFFFFFFFFFFFFFFFFFFFFFFFFFFFFFFFFFFFFFFFFFFFFFFFFFFFFFFFFFFFFF00 AND SWAP2 ISZERO ISZERO SWAP2 SWAP1 SWAP2 OR SWAP1 SSTORE DUP5 ADD MLOAD DUP5 MLOAD SWAP2 MLOAD DUP7 SWAP3 PUSH32 0x3BE3541FC42237D611B30329040BFA4569541D156560ACDBBAE57640D20B8F46 SWAP3 PUSH2 0xFB6 SWAP3 SWAP1 SWAP2 DUP8 SWAP2 PUSH2 0x348B JUMP JUMPDEST PUSH1 0x40 MLOAD DUP1 SWAP2 SUB SWAP1 LOG2 POP POP JUMPDEST SWAP2 SWAP1 POP JUMP JUMPDEST PUSH1 0x2 PUSH1 0x1 SLOAD EQ ISZERO PUSH2 0x1003 JUMPI PUSH1 0x40 MLOAD PUSH32 0x8C379A000000000000000000000000000000000000000000000000000000000 DUP2 MSTORE PUSH1 0x4 ADD PUSH2 0x5E8 SWAP1 PUSH2 0x33FF JUMP JUMPDEST PUSH1 0x2 PUSH1 0x1 DUP2 SWAP1 SSTORE POP PUSH1 0x0 PUSH1 0x4 DUP3 DUP2 SLOAD DUP2 LT PUSH2 0x101A JUMPI INVALID JUMPDEST PUSH1 0x0 SWAP2 DUP3 MSTORE PUSH1 0x20 DUP1 DUP4 KECCAK256 DUP6 DUP5 MSTORE PUSH1 0x6 DUP3 MSTORE PUSH1 0x40 DUP1 DUP6 KECCAK256 CALLER DUP1 DUP8 MSTORE SWAP4 MSTORE DUP5 KECCAK256 DUP1 SLOAD DUP6 DUP3 SSTORE PUSH1 0x1 DUP3 ADD DUP7 SWAP1 SSTORE PUSH1 0x5 SWAP1 SWAP5 MUL SWAP1 SWAP2 ADD SWAP5 POP SWAP3 SWAP1 PUSH2 0x1070 SWAP1 PUSH5 0xE8D4A51000 SWAP1 PUSH2 0x7B9 SWAP1 PUSH2 0x1069 SWAP1 DUP10 PUSH2 0x51D JUMP JUMPDEST DUP6 SWAP1 PUSH2 0x2456 JUMP JUMPDEST SWAP1 POP DUP1 DUP5 PUSH1 0x3 ADD SLOAD GT PUSH2 0x1084 JUMPI PUSH1 0x0 PUSH2 0x1093 JUMP JUMPDEST PUSH1 0x3 DUP5 ADD SLOAD PUSH2 0x1093 SWAP1 DUP3 PUSH2 0x24F3 JUMP JUMPDEST DUP5 PUSH1 0x3 ADD DUP2 SWAP1 SSTORE POP PUSH2 0x10AD CALLER DUP4 PUSH1 0x5 DUP9 DUP2 SLOAD DUP2 LT PUSH2 0xCCF JUMPI INVALID JUMPDEST DUP5 CALLER PUSH20 0xFFFFFFFFFFFFFFFFFFFFFFFFFFFFFFFFFFFFFFFF AND PUSH32 0xBB757047C2B5F3974FE26B7C10F732E7BCE710B0952A71082702781E62AE0595 DUP5 PUSH1 0x40 MLOAD PUSH2 0xDDD SWAP2 SWAP1 PUSH2 0x3472 JUMP JUMPDEST PUSH1 0x4 SLOAD PUSH1 0x0 JUMPDEST DUP2 DUP2 LT ISZERO PUSH2 0x1184 JUMPI PUSH2 0x110A PUSH2 0x29CE JUMP JUMPDEST PUSH1 0x4 DUP3 DUP2 SLOAD DUP2 LT PUSH2 0x1117 JUMPI INVALID JUMPDEST PUSH1 0x0 SWAP2 DUP3 MSTORE PUSH1 0x20 SWAP2 DUP3 SWAP1 KECCAK256 PUSH1 0x40 DUP1 MLOAD PUSH1 0xA0 DUP2 ADD DUP3 MSTORE PUSH1 0x5 SWAP1 SWAP4 MUL SWAP1 SWAP2 ADD DUP1 SLOAD DUP4 MSTORE PUSH1 0x1 DUP2 ADD SLOAD SWAP4 DUP4 ADD SWAP4 SWAP1 SWAP4 MSTORE PUSH1 0x2 DUP4 ADD SLOAD SWAP1 DUP3 ADD DUP2 SWAP1 MSTORE PUSH1 0x3 DUP4 ADD SLOAD PUSH1 0x60 DUP4 ADD MSTORE PUSH1 0x4 SWAP1 SWAP3 ADD SLOAD PUSH1 0xFF AND ISZERO ISZERO PUSH1 0x80 DUP3 ADD MSTORE SWAP2 POP ISZERO PUSH2 0x117B JUMPI PUSH2 0x1179 DUP3 PUSH2 0xDF0 JUMP JUMPDEST POP JUMPDEST POP PUSH1 0x1 ADD PUSH2 0x10FA JUMP JUMPDEST POP POP JUMP JUMPDEST PUSH2 0x1190 PUSH2 0x2574 JUMP JUMPDEST PUSH1 0x0 SLOAD PUSH20 0xFFFFFFFFFFFFFFFFFFFFFFFFFFFFFFFFFFFFFFFF SWAP1 DUP2 AND SWAP2 AND EQ PUSH2 0x11E4 JUMPI PUSH1 0x40 MLOAD PUSH32 0x8C379A000000000000000000000000000000000000000000000000000000000 DUP2 MSTORE PUSH1 0x4 ADD PUSH2 0x5E8 SWAP1 PUSH2 0x319C JUMP JUMPDEST PUSH2 0x11ED DUP4 PUSH2 0xDF0 JUMP JUMPDEST POP DUP1 ISZERO PUSH2 0x11FC JUMPI PUSH2 0x11FC PUSH2 0x10F4 JUMP JUMPDEST PUSH1 0x4 DUP4 DUP2 SLOAD DUP2 LT PUSH2 0x1209 JUMPI INVALID JUMPDEST PUSH1 0x0 SWAP2 DUP3 MSTORE PUSH1 0x20 SWAP1 SWAP2 KECCAK256 PUSH1 0x4 PUSH1 0x5 SWAP1 SWAP3 MUL ADD ADD SLOAD PUSH1 0xFF AND ISZERO PUSH2 0x1264 JUMPI PUSH2 0x125C DUP3 PUSH2 0x80B PUSH1 0x4 DUP7 DUP2 SLOAD DUP2 LT PUSH2 0x1239 JUMPI INVALID JUMPDEST SWAP1 PUSH1 0x0 MSTORE PUSH1 0x20 PUSH1 0x0 KECCAK256 SWAP1 PUSH1 0x5 MUL ADD PUSH1 0x2 ADD SLOAD PUSH1 0x8 SLOAD PUSH2 0x24F3 SWAP1 SWAP2 SWAP1 PUSH4 0xFFFFFFFF AND JUMP JUMPDEST PUSH1 0x8 SSTORE PUSH2 0x129F JUMP JUMPDEST PUSH2 0x129B DUP3 PUSH2 0x80B PUSH1 0x4 DUP7 DUP2 SLOAD DUP2 LT PUSH2 0x1278 JUMPI INVALID JUMPDEST SWAP1 PUSH1 0x0 MSTORE PUSH1 0x20 PUSH1 0x0 KECCAK256 SWAP1 PUSH1 0x5 MUL ADD PUSH1 0x2 ADD SLOAD PUSH1 0x9 SLOAD PUSH2 0x24F3 SWAP1 SWAP2 SWAP1 PUSH4 0xFFFFFFFF AND JUMP JUMPDEST PUSH1 0x9 SSTORE JUMPDEST DUP2 PUSH1 0x4 DUP5 DUP2 SLOAD DUP2 LT PUSH2 0x12AD JUMPI INVALID JUMPDEST SWAP1 PUSH1 0x0 MSTORE PUSH1 0x20 PUSH1 0x0 KECCAK256 SWAP1 PUSH1 0x5 MUL ADD PUSH1 0x2 ADD DUP2 SWAP1 SSTORE POP DUP3 PUSH32 0xC0CFD54D2DE2B55F1E6E108D3EC53FF0A1ABE6055401D32C61E9433B747EF9F8 DUP4 PUSH1 0x40 MLOAD PUSH2 0x12F2 SWAP2 SWAP1 PUSH2 0x3472 JUMP JUMPDEST PUSH1 0x40 MLOAD DUP1 SWAP2 SUB SWAP1 LOG2 POP POP POP JUMP JUMPDEST PUSH1 0xA SLOAD DUP2 JUMP JUMPDEST PUSH6 0x1D1A94A2000 DUP2 JUMP JUMPDEST PUSH1 0xC SLOAD DUP2 JUMP JUMPDEST PUSH2 0x131D PUSH2 0x2574 JUMP JUMPDEST PUSH1 0x0 SLOAD PUSH20 0xFFFFFFFFFFFFFFFFFFFFFFFFFFFFFFFFFFFFFFFF SWAP1 DUP2 AND SWAP2 AND EQ PUSH2 0x1371 JUMPI PUSH1 0x40 MLOAD PUSH32 0x8C379A000000000000000000000000000000000000000000000000000000000 DUP2 MSTORE PUSH1 0x4 ADD PUSH2 0x5E8 SWAP1 PUSH2 0x319C JUMP JUMPDEST PUSH1 0x0 DUP1 SLOAD PUSH1 0x40 MLOAD PUSH20 0xFFFFFFFFFFFFFFFFFFFFFFFFFFFFFFFFFFFFFFFF SWAP1 SWAP2 AND SWAP1 PUSH32 0x8BE0079C531659141344CD1FD0A4F28419497F9722A3DAAFE3B4186F6B6457E0 SWAP1 DUP4 SWAP1 LOG3 PUSH1 0x0 DUP1 SLOAD PUSH32 0xFFFFFFFFFFFFFFFFFFFFFFFF0000000000000000000000000000000000000000 AND SWAP1 SSTORE JUMP JUMPDEST PUSH1 0xD SLOAD DUP2 JUMP JUMPDEST PUSH1 0x5 DUP2 DUP2 SLOAD DUP2 LT PUSH2 0x13F3 JUMPI INVALID JUMPDEST PUSH1 0x0 SWAP2 DUP3 MSTORE PUSH1 0x20 SWAP1 SWAP2 KECCAK256 ADD SLOAD PUSH20 0xFFFFFFFFFFFFFFFFFFFFFFFFFFFFFFFFFFFFFFFF AND SWAP1 POP DUP2 JUMP JUMPDEST PUSH2 0x1422 PUSH2 0x2574 JUMP JUMPDEST PUSH1 0x0 SLOAD PUSH20 0xFFFFFFFFFFFFFFFFFFFFFFFFFFFFFFFFFFFFFFFF SWAP1 DUP2 AND SWAP2 AND EQ PUSH2 0x1476 JUMPI PUSH1 0x40 MLOAD PUSH32 0x8C379A000000000000000000000000000000000000000000000000000000000 DUP2 MSTORE PUSH1 0x4 ADD PUSH2 0x5E8 SWAP1 PUSH2 0x319C JUMP JUMPDEST PUSH1 0x0 DUP5 GT DUP1 ISZERO PUSH2 0x1486 JUMPI POP PUSH1 0x0 DUP4 GT JUMPDEST DUP1 ISZERO PUSH2 0x1492 JUMPI POP PUSH1 0x0 DUP3 GT JUMPDEST PUSH2 0x14C8 JUMPI PUSH1 0x40 MLOAD PUSH32 0x8C379A000000000000000000000000000000000000000000000000000000000 DUP2 MSTORE PUSH1 0x4 ADD PUSH2 0x5E8 SWAP1 PUSH2 0x2FBA JUMP JUMPDEST PUSH5 0xE8D4A51000 PUSH2 0x14DC DUP4 PUSH2 0x80B DUP8 DUP8 PUSH2 0x2535 JUMP JUMPDEST EQ PUSH2 0x1513 JUMPI PUSH1 0x40 MLOAD PUSH32 0x8C379A000000000000000000000000000000000000000000000000000000000 DUP2 MSTORE PUSH1 0x4 ADD PUSH2 0x5E8 SWAP1 PUSH2 0x3017 JUMP JUMPDEST DUP1 ISZERO PUSH2 0x1521 JUMPI PUSH2 0x1521 PUSH2 0x10F4 JUMP JUMPDEST PUSH2 0x152B PUSH1 0x0 PUSH2 0xB04 JUMP JUMPDEST PUSH1 0xA DUP5 SWAP1 SSTORE PUSH1 0xB DUP4 SWAP1 SSTORE PUSH1 0xC DUP3 SWAP1 SSTORE PUSH1 0x40 MLOAD PUSH32 0x49F805C5FED16B2296163D4FD1958B1961EFE39FEF41CBB4B981AAA3D80D22D2 SWAP1 PUSH2 0x156E SWAP1 DUP7 SWAP1 DUP7 SWAP1 DUP7 SWAP1 PUSH2 0x348B JUMP JUMPDEST PUSH1 0x40 MLOAD DUP1 SWAP2 SUB SWAP1 LOG1 POP POP POP POP JUMP JUMPDEST PUSH1 0x2 SLOAD PUSH20 0xFFFFFFFFFFFFFFFFFFFFFFFFFFFFFFFFFFFFFFFF AND DUP2 JUMP JUMPDEST PUSH1 0x0 SLOAD PUSH20 0xFFFFFFFFFFFFFFFFFFFFFFFFFFFFFFFFFFFFFFFF AND SWAP1 JUMP JUMPDEST PUSH1 0x6 PUSH1 0x20 SWAP1 DUP2 MSTORE PUSH1 0x0 SWAP3 DUP4 MSTORE PUSH1 0x40 DUP1 DUP5 KECCAK256 SWAP1 SWAP2 MSTORE SWAP1 DUP3 MSTORE SWAP1 KECCAK256 DUP1 SLOAD PUSH1 0x1 DUP3 ADD SLOAD PUSH1 0x2 SWAP1 SWAP3 ADD SLOAD SWAP1 SWAP2 SWAP1 DUP4 JUMP JUMPDEST PUSH1 0x9 SLOAD DUP2 JUMP JUMPDEST PUSH2 0x15EE PUSH2 0x2574 JUMP JUMPDEST PUSH1 0x0 SLOAD PUSH20 0xFFFFFFFFFFFFFFFFFFFFFFFFFFFFFFFFFFFFFFFF SWAP1 DUP2 AND SWAP2 AND EQ PUSH2 0x1642 JUMPI PUSH1 0x40 MLOAD PUSH32 0x8C379A000000000000000000000000000000000000000000000000000000000 DUP2 MSTORE PUSH1 0x4 ADD PUSH2 0x5E8 SWAP1 PUSH2 0x319C JUMP JUMPDEST PUSH20 0xFFFFFFFFFFFFFFFFFFFFFFFFFFFFFFFFFFFFFFFF DUP2 AND ISZERO DUP1 ISZERO SWAP1 PUSH2 0x1682 JUMPI POP PUSH1 0x3 SLOAD PUSH20 0xFFFFFFFFFFFFFFFFFFFFFFFFFFFFFFFFFFFFFFFF DUP3 DUP2 AND SWAP2 AND EQ ISZERO JUMPDEST PUSH2 0x16B8 JUMPI PUSH1 0x40 MLOAD PUSH32 0x8C379A000000000000000000000000000000000000000000000000000000000 DUP2 MSTORE PUSH1 0x4 ADD PUSH2 0x5E8 SWAP1 PUSH2 0x322E JUMP JUMPDEST PUSH1 0x3 DUP1 SLOAD PUSH32 0xFFFFFFFFFFFFFFFFFFFFFFFF0000000000000000000000000000000000000000 AND PUSH20 0xFFFFFFFFFFFFFFFFFFFFFFFFFFFFFFFFFFFFFFFF DUP4 AND SWAP1 DUP2 OR SWAP1 SWAP2 SSTORE PUSH1 0x40 MLOAD PUSH32 0x4C0C07D0B548B824A1B998EB4D11FCCF1CFBC1E47EDCDB309970BA88315EB303 SWAP1 PUSH1 0x0 SWAP1 LOG2 POP JUMP JUMPDEST PUSH2 0x172F PUSH2 0x2574 JUMP JUMPDEST PUSH1 0x0 SLOAD PUSH20 0xFFFFFFFFFFFFFFFFFFFFFFFFFFFFFFFFFFFFFFFF SWAP1 DUP2 AND SWAP2 AND EQ PUSH2 0x1783 JUMPI PUSH1 0x40 MLOAD PUSH32 0x8C379A000000000000000000000000000000000000000000000000000000000 DUP2 MSTORE PUSH1 0x4 ADD PUSH2 0x5E8 SWAP1 PUSH2 0x319C JUMP JUMPDEST PUSH20 0xFFFFFFFFFFFFFFFFFFFFFFFFFFFFFFFFFFFFFFFF DUP3 AND PUSH2 0x17D0 JUMPI PUSH1 0x40 MLOAD PUSH32 0x8C379A000000000000000000000000000000000000000000000000000000000 DUP2 MSTORE PUSH1 0x4 ADD PUSH2 0x5E8 SWAP1 PUSH2 0x3074 JUMP JUMPDEST PUSH20 0xFFFFFFFFFFFFFFFFFFFFFFFFFFFFFFFFFFFFFFFF DUP3 AND PUSH1 0x0 DUP2 DUP2 MSTORE PUSH1 0x7 PUSH1 0x20 MSTORE PUSH1 0x40 SWAP1 DUP2 SWAP1 KECCAK256 DUP1 SLOAD PUSH32 0xFFFFFFFFFFFFFFFFFFFFFFFFFFFFFFFFFFFFFFFFFFFFFFFFFFFFFFFFFFFFFF00 AND DUP5 ISZERO ISZERO OR SWAP1 SSTORE MLOAD PUSH32 0xC551BBB22D0406DBFB8B6B7740CC521BCF44E1106029CF899C19B6A8E4C99D51 SWAP1 PUSH2 0x184F SWAP1 DUP5 SWAP1 PUSH2 0x2CD3 JUMP JUMPDEST PUSH1 0x40 MLOAD DUP1 SWAP2 SUB SWAP1 LOG2 POP POP JUMP JUMPDEST PUSH1 0x8 SLOAD DUP2 JUMP JUMPDEST PUSH2 0x1869 PUSH2 0x2574 JUMP JUMPDEST PUSH1 0x0 SLOAD PUSH20 0xFFFFFFFFFFFFFFFFFFFFFFFFFFFFFFFFFFFFFFFF SWAP1 DUP2 AND SWAP2 AND EQ PUSH2 0x18BD JUMPI PUSH1 0x40 MLOAD PUSH32 0x8C379A000000000000000000000000000000000000000000000000000000000 DUP2 MSTORE PUSH1 0x4 ADD PUSH2 0x5E8 SWAP1 PUSH2 0x319C JUMP JUMPDEST PUSH1 0x40 MLOAD PUSH32 0x70A0823100000000000000000000000000000000000000000000000000000000 DUP2 MSTORE PUSH1 0x0 SWAP1 PUSH20 0xFFFFFFFFFFFFFFFFFFFFFFFFFFFFFFFFFFFFFFFF DUP6 AND SWAP1 PUSH4 0x70A08231 SWAP1 PUSH2 0x1912 SWAP1 ADDRESS SWAP1 PUSH1 0x4 ADD PUSH2 0x2C5B JUMP JUMPDEST PUSH1 0x20 PUSH1 0x40 MLOAD DUP1 DUP4 SUB DUP2 DUP7 DUP1 EXTCODESIZE ISZERO DUP1 ISZERO PUSH2 0x192A JUMPI PUSH1 0x0 DUP1 REVERT JUMPDEST POP GAS STATICCALL ISZERO DUP1 ISZERO PUSH2 0x193E JUMPI RETURNDATASIZE PUSH1 0x0 DUP1 RETURNDATACOPY RETURNDATASIZE PUSH1 0x0 REVERT JUMPDEST POP POP POP POP PUSH1 0x40 MLOAD RETURNDATASIZE PUSH1 0x1F NOT PUSH1 0x1F DUP3 ADD AND DUP3 ADD DUP1 PUSH1 0x40 MSTORE POP DUP2 ADD SWAP1 PUSH2 0x1962 SWAP2 SWAP1 PUSH2 0x2B23 JUMP JUMPDEST LT ISZERO PUSH2 0x199A JUMPI PUSH1 0x40 MLOAD PUSH32 0x8C379A000000000000000000000000000000000000000000000000000000000 DUP2 MSTORE PUSH1 0x4 ADD PUSH2 0x5E8 SWAP1 PUSH2 0x3165 JUMP JUMPDEST PUSH32 0x0 PUSH20 0xFFFFFFFFFFFFFFFFFFFFFFFFFFFFFFFFFFFFFFFF AND DUP4 PUSH20 0xFFFFFFFFFFFFFFFFFFFFFFFFFFFFFFFFFFFFFFFF AND EQ ISZERO PUSH2 0x1A20 JUMPI PUSH1 0x40 MLOAD PUSH32 0x8C379A000000000000000000000000000000000000000000000000000000000 DUP2 MSTORE PUSH1 0x4 ADD PUSH2 0x5E8 SWAP1 PUSH2 0x33A2 JUMP JUMPDEST DUP1 ISZERO PUSH2 0x1A2E JUMPI PUSH2 0x1A2E PUSH2 0x10F4 JUMP JUMPDEST DUP2 ISZERO PUSH2 0x1A49 JUMPI PUSH1 0x8 SLOAD PUSH2 0x1A41 SWAP1 DUP6 PUSH2 0x2535 JUMP JUMPDEST PUSH1 0x8 SSTORE PUSH2 0x1A5A JUMP JUMPDEST PUSH1 0x9 SLOAD PUSH2 0x1A56 SWAP1 DUP6 PUSH2 0x2535 JUMP JUMPDEST PUSH1 0x9 SSTORE JUMPDEST PUSH1 0x5 DUP1 SLOAD PUSH1 0x1 DUP1 DUP3 ADD DUP4 SSTORE PUSH32 0x36B6384B5ECA791C62761152D0C79BB0604C104A5FB6F4EB0703F3154BB3DB0 SWAP1 SWAP2 ADD DUP1 SLOAD PUSH32 0xFFFFFFFFFFFFFFFFFFFFFFFF0000000000000000000000000000000000000000 AND PUSH20 0xFFFFFFFFFFFFFFFFFFFFFFFFFFFFFFFFFFFFFFFF DUP8 AND SWAP1 DUP2 OR SWAP1 SWAP2 SSTORE PUSH1 0x40 DUP1 MLOAD PUSH1 0xA0 DUP2 ADD DUP3 MSTORE PUSH1 0x0 DUP1 DUP3 MSTORE NUMBER PUSH1 0x20 DUP4 ADD SWAP1 DUP2 MSTORE SWAP3 DUP3 ADD DUP11 DUP2 MSTORE PUSH1 0x60 DUP4 ADD DUP3 DUP2 MSTORE DUP10 ISZERO ISZERO PUSH1 0x80 DUP6 ADD SWAP1 DUP2 MSTORE PUSH1 0x4 DUP1 SLOAD DUP1 DUP11 ADD DUP3 SSTORE SWAP5 MSTORE SWAP4 MLOAD PUSH32 0x8A35ACFBC15FF81A39AE7D344FD709F28E8600B4AA8C65C6B64BFE7FE36BD19B SWAP4 DUP10 MUL SWAP4 DUP5 ADD SSTORE SWAP4 MLOAD PUSH32 0x8A35ACFBC15FF81A39AE7D344FD709F28E8600B4AA8C65C6B64BFE7FE36BD19C DUP4 ADD SSTORE MLOAD PUSH32 0x8A35ACFBC15FF81A39AE7D344FD709F28E8600B4AA8C65C6B64BFE7FE36BD19D DUP3 ADD SSTORE SWAP2 MLOAD PUSH32 0x8A35ACFBC15FF81A39AE7D344FD709F28E8600B4AA8C65C6B64BFE7FE36BD19E DUP4 ADD SSTORE MLOAD PUSH32 0x8A35ACFBC15FF81A39AE7D344FD709F28E8600B4AA8C65C6B64BFE7FE36BD19F SWAP1 SWAP2 ADD DUP1 SLOAD PUSH32 0xFFFFFFFFFFFFFFFFFFFFFFFFFFFFFFFFFFFFFFFFFFFFFFFFFFFFFFFFFFFFFF00 AND SWAP2 ISZERO ISZERO SWAP2 SWAP1 SWAP2 OR SWAP1 SSTORE SWAP2 SLOAD PUSH2 0x1BFB SWAP2 PUSH2 0x24F3 JUMP JUMPDEST PUSH32 0x18CAA0724A26384928EFE604AE6DDC99C242548876259770FC88FCB7E719D8FA DUP7 DUP6 PUSH1 0x40 MLOAD PUSH2 0x1C2C SWAP3 SWAP2 SWAP1 PUSH2 0x347B JUMP JUMPDEST PUSH1 0x40 MLOAD DUP1 SWAP2 SUB SWAP1 LOG3 POP POP POP POP JUMP JUMPDEST PUSH1 0x0 PUSH2 0x1C44 PUSH2 0x29CE JUMP JUMPDEST PUSH1 0x4 DUP5 DUP2 SLOAD DUP2 LT PUSH2 0x1C51 JUMPI INVALID JUMPDEST PUSH1 0x0 SWAP2 DUP3 MSTORE PUSH1 0x20 SWAP2 DUP3 SWAP1 KECCAK256 PUSH1 0x40 DUP1 MLOAD PUSH1 0xA0 DUP2 ADD DUP3 MSTORE PUSH1 0x5 SWAP1 SWAP4 MUL SWAP1 SWAP2 ADD DUP1 SLOAD DUP4 MSTORE PUSH1 0x1 DUP2 ADD SLOAD SWAP4 DUP4 ADD SWAP4 SWAP1 SWAP4 MSTORE PUSH1 0x2 DUP4 ADD SLOAD SWAP1 DUP3 ADD MSTORE PUSH1 0x3 DUP3 ADD SLOAD PUSH1 0x60 DUP3 ADD MSTORE PUSH1 0x4 SWAP1 SWAP2 ADD SLOAD PUSH1 0xFF AND ISZERO ISZERO PUSH1 0x80 DUP3 ADD MSTORE SWAP1 POP PUSH2 0x1CAB PUSH2 0x29FF JUMP JUMPDEST POP PUSH1 0x0 DUP5 DUP2 MSTORE PUSH1 0x6 PUSH1 0x20 SWAP1 DUP2 MSTORE PUSH1 0x40 DUP1 DUP4 KECCAK256 PUSH20 0xFFFFFFFFFFFFFFFFFFFFFFFFFFFFFFFFFFFFFFFF DUP8 AND DUP5 MSTORE DUP3 MSTORE SWAP2 DUP3 SWAP1 KECCAK256 DUP3 MLOAD PUSH1 0x60 DUP1 DUP3 ADD DUP6 MSTORE DUP3 SLOAD DUP3 MSTORE PUSH1 0x1 DUP4 ADD SLOAD DUP3 DUP6 ADD MSTORE PUSH1 0x2 SWAP1 SWAP3 ADD SLOAD SWAP4 DUP2 ADD SWAP4 SWAP1 SWAP4 MSTORE DUP4 MLOAD SWAP1 DUP5 ADD MLOAD SWAP2 DUP5 ADD MLOAD SWAP1 SWAP2 SWAP1 NUMBER GT DUP1 ISZERO PUSH2 0x1D19 JUMPI POP DUP1 ISZERO ISZERO JUMPDEST ISZERO PUSH2 0x1D92 JUMPI PUSH1 0x0 PUSH2 0x1D37 DUP6 PUSH1 0x20 ADD MLOAD NUMBER PUSH2 0x24F3 SWAP1 SWAP2 SWAP1 PUSH4 0xFFFFFFFF AND JUMP JUMPDEST SWAP1 POP PUSH1 0x0 PUSH2 0x1D6B DUP7 PUSH1 0x80 ADD MLOAD PUSH2 0x1D4F JUMPI PUSH1 0x9 SLOAD PUSH2 0x1D53 JUMP JUMPDEST PUSH1 0x8 SLOAD JUMPDEST PUSH2 0x7B9 DUP9 PUSH1 0x40 ADD MLOAD PUSH2 0x7BF PUSH2 0xECB DUP12 PUSH1 0x80 ADD MLOAD PUSH2 0x230C JUMP JUMPDEST SWAP1 POP PUSH2 0x1D8D PUSH2 0x1D86 DUP5 PUSH2 0x7B9 DUP5 PUSH8 0xDE0B6B3A7640000 PUSH2 0x2456 JUMP JUMPDEST DUP6 SWAP1 PUSH2 0x2535 JUMP JUMPDEST SWAP4 POP POP POP JUMPDEST PUSH1 0x0 PUSH2 0x1DB2 PUSH5 0xE8D4A51000 PUSH2 0x7B9 PUSH2 0x1DAA DUP11 DUP13 PUSH2 0x51D JUMP JUMPDEST DUP8 MLOAD SWAP1 PUSH2 0x2456 JUMP JUMPDEST PUSH1 0x20 DUP6 ADD MLOAD SWAP1 SWAP2 POP PUSH2 0x1DDA SWAP1 PUSH2 0x1DD4 PUSH8 0xDE0B6B3A7640000 PUSH2 0x7B9 DUP6 DUP9 PUSH2 0x2456 JUMP JUMPDEST SWAP1 PUSH2 0x24F3 JUMP JUMPDEST SWAP9 SWAP8 POP POP POP POP POP POP POP POP JUMP JUMPDEST PUSH5 0xE8D4A51000 DUP2 JUMP JUMPDEST PUSH1 0x3 SLOAD PUSH20 0xFFFFFFFFFFFFFFFFFFFFFFFFFFFFFFFFFFFFFFFF AND DUP2 JUMP JUMPDEST PUSH1 0x2 PUSH1 0x1 SLOAD EQ ISZERO PUSH2 0x1E48 JUMPI PUSH1 0x40 MLOAD PUSH32 0x8C379A000000000000000000000000000000000000000000000000000000000 DUP2 MSTORE PUSH1 0x4 ADD PUSH2 0x5E8 SWAP1 PUSH2 0x33FF JUMP JUMPDEST PUSH1 0x2 PUSH1 0x1 SSTORE PUSH2 0x1E55 PUSH2 0x29CE JUMP JUMPDEST PUSH2 0x1E5E DUP4 PUSH2 0xDF0 JUMP JUMPDEST PUSH1 0x0 DUP5 DUP2 MSTORE PUSH1 0x6 PUSH1 0x20 SWAP1 DUP2 MSTORE PUSH1 0x40 DUP1 DUP4 KECCAK256 CALLER DUP5 MSTORE SWAP1 SWAP2 MSTORE SWAP1 KECCAK256 PUSH1 0x80 DUP3 ADD MLOAD SWAP2 SWAP3 POP SWAP1 DUP1 PUSH2 0x1E9A JUMPI POP CALLER PUSH1 0x0 SWAP1 DUP2 MSTORE PUSH1 0x7 PUSH1 0x20 MSTORE PUSH1 0x40 SWAP1 KECCAK256 SLOAD PUSH1 0xFF AND JUMPDEST PUSH2 0x1ED0 JUMPI PUSH1 0x40 MLOAD PUSH32 0x8C379A000000000000000000000000000000000000000000000000000000000 DUP2 MSTORE PUSH1 0x4 ADD PUSH2 0x5E8 SWAP1 PUSH2 0x2F37 JUMP JUMPDEST PUSH1 0x0 PUSH2 0x1EDC CALLER DUP7 PUSH2 0x51D JUMP JUMPDEST DUP3 SLOAD SWAP1 SWAP2 POP ISZERO PUSH2 0x1EF1 JUMPI PUSH2 0x1EF1 CALLER DUP7 DUP4 PUSH2 0x2379 JUMP JUMPDEST DUP4 ISZERO PUSH2 0x20ED JUMPI PUSH1 0x0 PUSH1 0x5 DUP7 DUP2 SLOAD DUP2 LT PUSH2 0x1F06 JUMPI INVALID JUMPDEST PUSH1 0x0 SWAP2 DUP3 MSTORE PUSH1 0x20 SWAP1 SWAP2 KECCAK256 ADD SLOAD PUSH1 0x40 MLOAD PUSH32 0x70A0823100000000000000000000000000000000000000000000000000000000 DUP2 MSTORE PUSH20 0xFFFFFFFFFFFFFFFFFFFFFFFFFFFFFFFFFFFFFFFF SWAP1 SWAP2 AND SWAP1 PUSH4 0x70A08231 SWAP1 PUSH2 0x1F65 SWAP1 ADDRESS SWAP1 PUSH1 0x4 ADD PUSH2 0x2C5B JUMP JUMPDEST PUSH1 0x20 PUSH1 0x40 MLOAD DUP1 DUP4 SUB DUP2 DUP7 DUP1 EXTCODESIZE ISZERO DUP1 ISZERO PUSH2 0x1F7D JUMPI PUSH1 0x0 DUP1 REVERT JUMPDEST POP GAS STATICCALL ISZERO DUP1 ISZERO PUSH2 0x1F91 JUMPI RETURNDATASIZE PUSH1 0x0 DUP1 RETURNDATACOPY RETURNDATASIZE PUSH1 0x0 REVERT JUMPDEST POP POP POP POP PUSH1 0x40 MLOAD RETURNDATASIZE PUSH1 0x1F NOT PUSH1 0x1F DUP3 ADD AND DUP3 ADD DUP1 PUSH1 0x40 MSTORE POP DUP2 ADD SWAP1 PUSH2 0x1FB5 SWAP2 SWAP1 PUSH2 0x2B23 JUMP JUMPDEST SWAP1 POP PUSH2 0x1FF4 CALLER ADDRESS DUP8 PUSH1 0x5 DUP11 DUP2 SLOAD DUP2 LT PUSH2 0x1FCA JUMPI INVALID JUMPDEST PUSH1 0x0 SWAP2 DUP3 MSTORE PUSH1 0x20 SWAP1 SWAP2 KECCAK256 ADD SLOAD PUSH20 0xFFFFFFFFFFFFFFFFFFFFFFFFFFFFFFFFFFFFFFFF AND SWAP3 SWAP2 SWAP1 PUSH2 0x2738 JUMP JUMPDEST PUSH2 0x20B4 DUP2 PUSH1 0x5 DUP9 DUP2 SLOAD DUP2 LT PUSH2 0x2005 JUMPI INVALID JUMPDEST PUSH1 0x0 SWAP2 DUP3 MSTORE PUSH1 0x20 SWAP1 SWAP2 KECCAK256 ADD SLOAD PUSH1 0x40 MLOAD PUSH32 0x70A0823100000000000000000000000000000000000000000000000000000000 DUP2 MSTORE PUSH20 0xFFFFFFFFFFFFFFFFFFFFFFFFFFFFFFFFFFFFFFFF SWAP1 SWAP2 AND SWAP1 PUSH4 0x70A08231 SWAP1 PUSH2 0x2064 SWAP1 ADDRESS SWAP1 PUSH1 0x4 ADD PUSH2 0x2C5B JUMP JUMPDEST PUSH1 0x20 PUSH1 0x40 MLOAD DUP1 DUP4 SUB DUP2 DUP7 DUP1 EXTCODESIZE ISZERO DUP1 ISZERO PUSH2 0x207C JUMPI PUSH1 0x0 DUP1 REVERT JUMPDEST POP GAS STATICCALL ISZERO DUP1 ISZERO PUSH2 0x2090 JUMPI RETURNDATASIZE PUSH1 0x0 DUP1 RETURNDATACOPY RETURNDATASIZE PUSH1 0x0 REVERT JUMPDEST POP POP POP POP PUSH1 0x40 MLOAD RETURNDATASIZE PUSH1 0x1F NOT PUSH1 0x1F DUP3 ADD AND DUP3 ADD DUP1 PUSH1 0x40 MSTORE POP DUP2 ADD SWAP1 PUSH2 0x1DD4 SWAP2 SWAP1 PUSH2 0x2B23 JUMP JUMPDEST DUP4 SLOAD SWAP1 SWAP6 POP PUSH2 0x20C3 SWAP1 DUP7 PUSH2 0x2535 JUMP JUMPDEST DUP4 SSTORE PUSH2 0x20E6 PUSH2 0x20DB PUSH5 0xE8D4A51000 PUSH2 0x7B9 DUP9 DUP7 PUSH2 0x2456 JUMP JUMPDEST PUSH1 0x60 DUP7 ADD MLOAD SWAP1 PUSH2 0x2535 JUMP JUMPDEST PUSH1 0x60 DUP6 ADD MSTORE POP JUMPDEST PUSH2 0x2121 PUSH8 0xDE0B6B3A7640000 PUSH2 0x7B9 DUP6 PUSH1 0x0 ADD MLOAD PUSH2 0x7BF PUSH5 0xE8D4A51000 PUSH2 0x7B9 DUP8 DUP10 PUSH1 0x0 ADD SLOAD PUSH2 0x2456 SWAP1 SWAP2 SWAP1 PUSH4 0xFFFFFFFF AND JUMP JUMPDEST DUP3 PUSH1 0x1 ADD DUP2 SWAP1 SSTORE POP DUP3 PUSH1 0x4 DUP7 DUP2 SLOAD DUP2 LT PUSH2 0x2137 JUMPI INVALID JUMPDEST PUSH1 0x0 SWAP2 DUP3 MSTORE PUSH1 0x20 SWAP2 DUP3 SWAP1 KECCAK256 DUP4 MLOAD PUSH1 0x5 SWAP3 SWAP1 SWAP3 MUL ADD SWAP1 DUP2 SSTORE SWAP1 DUP3 ADD MLOAD PUSH1 0x1 DUP3 ADD SSTORE PUSH1 0x40 DUP1 DUP4 ADD MLOAD PUSH1 0x2 DUP4 ADD SSTORE PUSH1 0x60 DUP4 ADD MLOAD PUSH1 0x3 DUP4 ADD SSTORE PUSH1 0x80 SWAP1 SWAP3 ADD MLOAD PUSH1 0x4 SWAP1 SWAP2 ADD DUP1 SLOAD PUSH32 0xFFFFFFFFFFFFFFFFFFFFFFFFFFFFFFFFFFFFFFFFFFFFFFFFFFFFFFFFFFFFFF00 AND SWAP2 ISZERO ISZERO SWAP2 SWAP1 SWAP2 OR SWAP1 SSTORE MLOAD DUP6 SWAP1 CALLER SWAP1 PUSH32 0x90890809C654F11D6E72A28FA60149770A0D11EC6C92319D6CEB2BB0A4EA1A15 SWAP1 PUSH2 0xDDD SWAP1 DUP9 SWAP1 PUSH2 0x3472 JUMP JUMPDEST PUSH2 0x21DE PUSH2 0x2574 JUMP JUMPDEST PUSH1 0x0 SLOAD PUSH20 0xFFFFFFFFFFFFFFFFFFFFFFFFFFFFFFFFFFFFFFFF SWAP1 DUP2 AND SWAP2 AND EQ PUSH2 0x2232 JUMPI PUSH1 0x40 MLOAD PUSH32 0x8C379A000000000000000000000000000000000000000000000000000000000 DUP2 MSTORE PUSH1 0x4 ADD PUSH2 0x5E8 SWAP1 PUSH2 0x319C JUMP JUMPDEST PUSH20 0xFFFFFFFFFFFFFFFFFFFFFFFFFFFFFFFFFFFFFFFF DUP2 AND PUSH2 0x227F JUMPI PUSH1 0x40 MLOAD PUSH32 0x8C379A000000000000000000000000000000000000000000000000000000000 DUP2 MSTORE PUSH1 0x4 ADD PUSH2 0x5E8 SWAP1 PUSH2 0x2E46 JUMP JUMPDEST PUSH1 0x0 DUP1 SLOAD PUSH1 0x40 MLOAD PUSH20 0xFFFFFFFFFFFFFFFFFFFFFFFFFFFFFFFFFFFFFFFF DUP1 DUP6 AND SWAP4 SWAP3 AND SWAP2 PUSH32 0x8BE0079C531659141344CD1FD0A4F28419497F9722A3DAAFE3B4186F6B6457E0 SWAP2 LOG3 PUSH1 0x0 DUP1 SLOAD PUSH32 0xFFFFFFFFFFFFFFFFFFFFFFFF0000000000000000000000000000000000000000 AND PUSH20 0xFFFFFFFFFFFFFFFFFFFFFFFFFFFFFFFFFFFFFFFF SWAP3 SWAP1 SWAP3 AND SWAP2 SWAP1 SWAP2 OR SWAP1 SSTORE JUMP JUMPDEST PUSH1 0x0 DUP2 ISZERO PUSH2 0x2341 JUMPI PUSH2 0x233A PUSH5 0xE8D4A51000 PUSH2 0x7B9 PUSH1 0xB SLOAD PUSH8 0x1314FB3706298000 PUSH2 0x2456 SWAP1 SWAP2 SWAP1 PUSH4 0xFFFFFFFF AND JUMP JUMPDEST SWAP1 POP PUSH2 0xFC1 JUMP JUMPDEST PUSH2 0x56D PUSH5 0xE8D4A51000 PUSH2 0x7B9 PUSH1 0xC SLOAD PUSH8 0x1314FB3706298000 PUSH2 0x2456 SWAP1 SWAP2 SWAP1 PUSH4 0xFFFFFFFF AND JUMP JUMPDEST PUSH1 0xB SLOAD DUP2 JUMP JUMPDEST PUSH8 0x1314FB3706298000 DUP2 JUMP JUMPDEST PUSH2 0x2381 PUSH2 0x29FF JUMP JUMPDEST POP PUSH1 0x0 DUP3 DUP2 MSTORE PUSH1 0x6 PUSH1 0x20 SWAP1 DUP2 MSTORE PUSH1 0x40 DUP1 DUP4 KECCAK256 PUSH20 0xFFFFFFFFFFFFFFFFFFFFFFFFFFFFFFFFFFFFFFFF DUP8 AND DUP5 MSTORE DUP3 MSTORE DUP1 DUP4 KECCAK256 DUP2 MLOAD PUSH1 0x60 DUP2 ADD DUP4 MSTORE DUP2 SLOAD DUP1 DUP3 MSTORE PUSH1 0x1 DUP4 ADD SLOAD SWAP5 DUP3 ADD SWAP5 SWAP1 SWAP5 MSTORE PUSH1 0x2 SWAP1 SWAP2 ADD SLOAD SWAP2 DUP2 ADD SWAP2 SWAP1 SWAP2 MSTORE SWAP2 SWAP1 PUSH2 0x23EE SWAP1 PUSH5 0xE8D4A51000 SWAP1 PUSH2 0x7B9 SWAP1 DUP7 PUSH2 0x2456 JUMP JUMPDEST SWAP1 POP PUSH1 0x0 PUSH2 0x2426 PUSH8 0xDE0B6B3A7640000 PUSH2 0x7B9 PUSH1 0x4 DUP9 DUP2 SLOAD DUP2 LT PUSH2 0x240E JUMPI INVALID JUMPDEST PUSH1 0x0 SWAP2 DUP3 MSTORE PUSH1 0x20 SWAP1 SWAP2 KECCAK256 PUSH1 0x5 SWAP1 SWAP2 MUL ADD SLOAD DUP6 SWAP1 PUSH2 0x2456 JUMP JUMPDEST SWAP1 POP PUSH1 0x0 PUSH2 0x2441 DUP5 PUSH1 0x20 ADD MLOAD DUP4 PUSH2 0x24F3 SWAP1 SWAP2 SWAP1 PUSH4 0xFFFFFFFF AND JUMP JUMPDEST SWAP1 POP PUSH2 0x244D DUP8 DUP3 PUSH2 0x2578 JUMP JUMPDEST POP POP POP POP POP POP POP JUMP JUMPDEST PUSH1 0x0 DUP3 PUSH2 0x2465 JUMPI POP PUSH1 0x0 PUSH2 0x56D JUMP JUMPDEST DUP3 DUP3 MUL DUP3 DUP5 DUP3 DUP2 PUSH2 0x2472 JUMPI INVALID JUMPDEST DIV EQ PUSH2 0x567 JUMPI PUSH1 0x40 MLOAD PUSH32 0x8C379A000000000000000000000000000000000000000000000000000000000 DUP2 MSTORE PUSH1 0x4 ADD PUSH2 0x5E8 SWAP1 PUSH2 0x30D1 JUMP JUMPDEST PUSH1 0x0 PUSH2 0x24EC DUP4 DUP4 PUSH1 0x40 MLOAD DUP1 PUSH1 0x40 ADD PUSH1 0x40 MSTORE DUP1 PUSH1 0x1A DUP2 MSTORE PUSH1 0x20 ADD PUSH32 0x536166654D6174683A206469766973696F6E206279207A65726F000000000000 DUP2 MSTORE POP PUSH2 0x275F JUMP JUMPDEST SWAP4 SWAP3 POP POP POP JUMP JUMPDEST PUSH1 0x0 PUSH2 0x24EC DUP4 DUP4 PUSH1 0x40 MLOAD DUP1 PUSH1 0x40 ADD PUSH1 0x40 MSTORE DUP1 PUSH1 0x1E DUP2 MSTORE PUSH1 0x20 ADD PUSH32 0x536166654D6174683A207375627472616374696F6E206F766572666C6F770000 DUP2 MSTORE POP PUSH2 0x27B0 JUMP JUMPDEST PUSH1 0x0 DUP3 DUP3 ADD DUP4 DUP2 LT ISZERO PUSH2 0x567 JUMPI PUSH1 0x40 MLOAD PUSH32 0x8C379A000000000000000000000000000000000000000000000000000000000 DUP2 MSTORE PUSH1 0x4 ADD PUSH2 0x5E8 SWAP1 PUSH2 0x2EA3 JUMP JUMPDEST CALLER SWAP1 JUMP JUMPDEST DUP1 ISZERO PUSH2 0x1184 JUMPI PUSH1 0x40 MLOAD PUSH32 0x70A0823100000000000000000000000000000000000000000000000000000000 DUP2 MSTORE PUSH1 0x0 SWAP1 PUSH20 0xFFFFFFFFFFFFFFFFFFFFFFFFFFFFFFFFFFFFFFFF PUSH32 0x0 AND SWAP1 PUSH4 0x70A08231 SWAP1 PUSH2 0x25F3 SWAP1 ADDRESS SWAP1 PUSH1 0x4 ADD PUSH2 0x2C5B JUMP JUMPDEST PUSH1 0x20 PUSH1 0x40 MLOAD DUP1 DUP4 SUB DUP2 DUP7 DUP1 EXTCODESIZE ISZERO DUP1 ISZERO PUSH2 0x260B JUMPI PUSH1 0x0 DUP1 REVERT JUMPDEST POP GAS STATICCALL ISZERO DUP1 ISZERO PUSH2 0x261F JUMPI RETURNDATASIZE PUSH1 0x0 DUP1 RETURNDATACOPY RETURNDATASIZE PUSH1 0x0 REVERT JUMPDEST POP POP POP POP PUSH1 0x40 MLOAD RETURNDATASIZE PUSH1 0x1F NOT PUSH1 0x1F DUP3 ADD AND DUP3 ADD DUP1 PUSH1 0x40 MSTORE POP DUP2 ADD SWAP1 PUSH2 0x2643 SWAP2 SWAP1 PUSH2 0x2B23 JUMP JUMPDEST SWAP1 POP DUP2 DUP2 LT ISZERO PUSH2 0x2651 JUMPI DUP1 SWAP2 POP JUMPDEST PUSH2 0x2692 PUSH20 0xFFFFFFFFFFFFFFFFFFFFFFFFFFFFFFFFFFFFFFFF PUSH32 0x0 AND DUP5 DUP5 PUSH2 0x2697 JUMP JUMPDEST POP POP POP JUMP JUMPDEST PUSH2 0x2692 DUP4 PUSH4 0xA9059CBB PUSH1 0xE0 SHL DUP5 DUP5 PUSH1 0x40 MLOAD PUSH1 0x24 ADD PUSH2 0x26B6 SWAP3 SWAP2 SWAP1 PUSH2 0x2CAD JUMP JUMPDEST PUSH1 0x40 DUP1 MLOAD PUSH32 0xFFFFFFFFFFFFFFFFFFFFFFFFFFFFFFFFFFFFFFFFFFFFFFFFFFFFFFFFFFFFFFE0 DUP2 DUP5 SUB ADD DUP2 MSTORE SWAP2 SWAP1 MSTORE PUSH1 0x20 DUP2 ADD DUP1 MLOAD PUSH28 0xFFFFFFFFFFFFFFFFFFFFFFFFFFFFFFFFFFFFFFFFFFFFFFFFFFFFFFFF AND PUSH32 0xFFFFFFFF00000000000000000000000000000000000000000000000000000000 SWAP1 SWAP4 AND SWAP3 SWAP1 SWAP3 OR SWAP1 SWAP2 MSTORE PUSH2 0x27F6 JUMP JUMPDEST PUSH2 0x2759 DUP5 PUSH4 0x23B872DD PUSH1 0xE0 SHL DUP6 DUP6 DUP6 PUSH1 0x40 MLOAD PUSH1 0x24 ADD PUSH2 0x26B6 SWAP4 SWAP3 SWAP2 SWAP1 PUSH2 0x2C7C JUMP JUMPDEST POP POP POP POP JUMP JUMPDEST PUSH1 0x0 DUP2 DUP4 PUSH2 0x279A JUMPI PUSH1 0x40 MLOAD PUSH32 0x8C379A000000000000000000000000000000000000000000000000000000000 DUP2 MSTORE PUSH1 0x4 ADD PUSH2 0x5E8 SWAP2 SWAP1 PUSH2 0x2CDE JUMP JUMPDEST POP PUSH1 0x0 DUP4 DUP6 DUP2 PUSH2 0x27A6 JUMPI INVALID JUMPDEST DIV SWAP6 SWAP5 POP POP POP POP POP JUMP JUMPDEST PUSH1 0x0 DUP2 DUP5 DUP5 GT ISZERO PUSH2 0x27EE JUMPI PUSH1 0x40 MLOAD PUSH32 0x8C379A000000000000000000000000000000000000000000000000000000000 DUP2 MSTORE PUSH1 0x4 ADD PUSH2 0x5E8 SWAP2 SWAP1 PUSH2 0x2CDE JUMP JUMPDEST POP POP POP SWAP1 SUB SWAP1 JUMP JUMPDEST PUSH1 0x60 PUSH2 0x2858 DUP3 PUSH1 0x40 MLOAD DUP1 PUSH1 0x40 ADD PUSH1 0x40 MSTORE DUP1 PUSH1 0x20 DUP2 MSTORE PUSH1 0x20 ADD PUSH32 0x5361666542455032303A206C6F772D6C6576656C2063616C6C206661696C6564 DUP2 MSTORE POP DUP6 PUSH20 0xFFFFFFFFFFFFFFFFFFFFFFFFFFFFFFFFFFFFFFFF AND PUSH2 0x28AC SWAP1 SWAP3 SWAP2 SWAP1 PUSH4 0xFFFFFFFF AND JUMP JUMPDEST DUP1 MLOAD SWAP1 SWAP2 POP ISZERO PUSH2 0x2692 JUMPI DUP1 DUP1 PUSH1 0x20 ADD SWAP1 MLOAD DUP2 ADD SWAP1 PUSH2 0x2876 SWAP2 SWAP1 PUSH2 0x2AEF JUMP JUMPDEST PUSH2 0x2692 JUMPI PUSH1 0x40 MLOAD PUSH32 0x8C379A000000000000000000000000000000000000000000000000000000000 DUP2 MSTORE PUSH1 0x4 ADD PUSH2 0x5E8 SWAP1 PUSH2 0x2DE9 JUMP JUMPDEST PUSH1 0x60 PUSH2 0x28BB DUP5 DUP5 PUSH1 0x0 DUP6 PUSH2 0x28C3 JUMP JUMPDEST SWAP5 SWAP4 POP POP POP POP JUMP JUMPDEST PUSH1 0x60 PUSH2 0x28CE DUP6 PUSH2 0x29C8 JUMP JUMPDEST PUSH2 0x2904 JUMPI PUSH1 0x40 MLOAD PUSH32 0x8C379A000000000000000000000000000000000000000000000000000000000 DUP2 MSTORE PUSH1 0x4 ADD PUSH2 0x5E8 SWAP1 PUSH2 0x328B JUMP JUMPDEST PUSH1 0x0 PUSH1 0x60 DUP7 PUSH20 0xFFFFFFFFFFFFFFFFFFFFFFFFFFFFFFFFFFFFFFFF AND DUP6 DUP8 PUSH1 0x40 MLOAD PUSH2 0x292E SWAP2 SWAP1 PUSH2 0x2C3F JUMP JUMPDEST PUSH1 0x0 PUSH1 0x40 MLOAD DUP1 DUP4 SUB DUP2 DUP6 DUP8 GAS CALL SWAP3 POP POP POP RETURNDATASIZE DUP1 PUSH1 0x0 DUP2 EQ PUSH2 0x296B JUMPI PUSH1 0x40 MLOAD SWAP2 POP PUSH1 0x1F NOT PUSH1 0x3F RETURNDATASIZE ADD AND DUP3 ADD PUSH1 0x40 MSTORE RETURNDATASIZE DUP3 MSTORE RETURNDATASIZE PUSH1 0x0 PUSH1 0x20 DUP5 ADD RETURNDATACOPY PUSH2 0x2970 JUMP JUMPDEST PUSH1 0x60 SWAP2 POP JUMPDEST POP SWAP2 POP SWAP2 POP DUP2 ISZERO PUSH2 0x2984 JUMPI SWAP2 POP PUSH2 0x28BB SWAP1 POP JUMP JUMPDEST DUP1 MLOAD ISZERO PUSH2 0x2994 JUMPI DUP1 MLOAD DUP1 DUP3 PUSH1 0x20 ADD REVERT JUMPDEST DUP4 PUSH1 0x40 MLOAD PUSH32 0x8C379A000000000000000000000000000000000000000000000000000000000 DUP2 MSTORE PUSH1 0x4 ADD PUSH2 0x5E8 SWAP2 SWAP1 PUSH2 0x2CDE JUMP JUMPDEST EXTCODESIZE ISZERO ISZERO SWAP1 JUMP JUMPDEST PUSH1 0x40 MLOAD DUP1 PUSH1 0xA0 ADD PUSH1 0x40 MSTORE DUP1 PUSH1 0x0 DUP2 MSTORE PUSH1 0x20 ADD PUSH1 0x0 DUP2 MSTORE PUSH1 0x20 ADD PUSH1 0x0 DUP2 MSTORE PUSH1 0x20 ADD PUSH1 0x0 DUP2 MSTORE PUSH1 0x20 ADD PUSH1 0x0 ISZERO ISZERO DUP2 MSTORE POP SWAP1 JUMP JUMPDEST PUSH1 0x40 MLOAD DUP1 PUSH1 0x60 ADD PUSH1 0x40 MSTORE DUP1 PUSH1 0x0 DUP2 MSTORE PUSH1 0x20 ADD PUSH1 0x0 DUP2 MSTORE PUSH1 0x20 ADD PUSH1 0x0 DUP2 MSTORE POP SWAP1 JUMP JUMPDEST PUSH1 0x0 PUSH1 0x20 DUP3 DUP5 SUB SLT ISZERO PUSH2 0x2A31 JUMPI DUP1 DUP2 REVERT JUMPDEST DUP2 CALLDATALOAD PUSH2 0x567 DUP2 PUSH2 0x34F2 JUMP JUMPDEST PUSH1 0x0 DUP1 PUSH1 0x40 DUP4 DUP6 SUB SLT ISZERO PUSH2 0x2A4E JUMPI DUP1 DUP2 REVERT JUMPDEST DUP3 CALLDATALOAD PUSH2 0x2A59 DUP2 PUSH2 0x34F2 JUMP JUMPDEST SWAP2 POP PUSH1 0x20 DUP4 ADD CALLDATALOAD PUSH2 0x2A69 DUP2 PUSH2 0x3517 JUMP JUMPDEST DUP1 SWAP2 POP POP SWAP3 POP SWAP3 SWAP1 POP JUMP JUMPDEST PUSH1 0x0 DUP1 PUSH1 0x40 DUP4 DUP6 SUB SLT ISZERO PUSH2 0x2A86 JUMPI DUP2 DUP3 REVERT JUMPDEST DUP3 CALLDATALOAD PUSH2 0x2A91 DUP2 PUSH2 0x34F2 JUMP JUMPDEST SWAP5 PUSH1 0x20 SWAP4 SWAP1 SWAP4 ADD CALLDATALOAD SWAP4 POP POP POP JUMP JUMPDEST PUSH1 0x0 DUP1 PUSH1 0x0 PUSH1 0x60 DUP5 DUP7 SUB SLT ISZERO PUSH2 0x2AB3 JUMPI DUP1 DUP2 REVERT JUMPDEST DUP4 CALLDATALOAD PUSH2 0x2ABE DUP2 PUSH2 0x34F2 JUMP JUMPDEST SWAP6 PUSH1 0x20 DUP6 ADD CALLDATALOAD SWAP6 POP PUSH1 0x40 SWAP1 SWAP5 ADD CALLDATALOAD SWAP4 SWAP3 POP POP POP JUMP JUMPDEST PUSH1 0x0 PUSH1 0x20 DUP3 DUP5 SUB SLT ISZERO PUSH2 0x2AE4 JUMPI DUP1 DUP2 REVERT JUMPDEST DUP2 CALLDATALOAD PUSH2 0x567 DUP2 PUSH2 0x3517 JUMP JUMPDEST PUSH1 0x0 PUSH1 0x20 DUP3 DUP5 SUB SLT ISZERO PUSH2 0x2B00 JUMPI DUP1 DUP2 REVERT JUMPDEST DUP2 MLOAD PUSH2 0x567 DUP2 PUSH2 0x3517 JUMP JUMPDEST PUSH1 0x0 PUSH1 0x20 DUP3 DUP5 SUB SLT ISZERO PUSH2 0x2B1C JUMPI DUP1 DUP2 REVERT JUMPDEST POP CALLDATALOAD SWAP2 SWAP1 POP JUMP JUMPDEST PUSH1 0x0 PUSH1 0x20 DUP3 DUP5 SUB SLT ISZERO PUSH2 0x2B34 JUMPI DUP1 DUP2 REVERT JUMPDEST POP MLOAD SWAP2 SWAP1 POP JUMP JUMPDEST PUSH1 0x0 DUP1 PUSH1 0x40 DUP4 DUP6 SUB SLT ISZERO PUSH2 0x2B4D JUMPI DUP2 DUP3 REVERT JUMPDEST DUP3 CALLDATALOAD SWAP2 POP PUSH1 0x20 DUP4 ADD CALLDATALOAD PUSH2 0x2A69 DUP2 PUSH2 0x34F2 JUMP JUMPDEST PUSH1 0x0 DUP1 PUSH1 0x0 DUP1 PUSH1 0x80 DUP6 DUP8 SUB SLT ISZERO PUSH2 0x2B74 JUMPI DUP1 DUP2 REVERT JUMPDEST DUP5 CALLDATALOAD SWAP4 POP PUSH1 0x20 DUP6 ADD CALLDATALOAD PUSH2 0x2B86 DUP2 PUSH2 0x34F2 JUMP JUMPDEST SWAP3 POP PUSH1 0x40 DUP6 ADD CALLDATALOAD PUSH2 0x2B96 DUP2 PUSH2 0x3517 JUMP JUMPDEST SWAP2 POP PUSH1 0x60 DUP6 ADD CALLDATALOAD PUSH2 0x2BA6 DUP2 PUSH2 0x3517 JUMP JUMPDEST SWAP4 SWAP7 SWAP3 SWAP6 POP SWAP1 SWAP4 POP POP JUMP JUMPDEST PUSH1 0x0 DUP1 PUSH1 0x40 DUP4 DUP6 SUB SLT ISZERO PUSH2 0x2BC3 JUMPI DUP2 DUP3 REVERT JUMPDEST POP POP DUP1 CALLDATALOAD SWAP3 PUSH1 0x20 SWAP1 SWAP2 ADD CALLDATALOAD SWAP2 POP JUMP JUMPDEST PUSH1 0x0 DUP1 PUSH1 0x0 PUSH1 0x60 DUP5 DUP7 SUB SLT ISZERO PUSH2 0x2BE6 JUMPI DUP3 DUP4 REVERT JUMPDEST DUP4 CALLDATALOAD SWAP3 POP PUSH1 0x20 DUP5 ADD CALLDATALOAD SWAP2 POP PUSH1 0x40 DUP5 ADD CALLDATALOAD PUSH2 0x2BFF DUP2 PUSH2 0x3517 JUMP JUMPDEST DUP1 SWAP2 POP POP SWAP3 POP SWAP3 POP SWAP3 JUMP JUMPDEST PUSH1 0x0 DUP1 PUSH1 0x0 DUP1 PUSH1 0x80 DUP6 DUP8 SUB SLT ISZERO PUSH2 0x2C1F JUMPI DUP4 DUP5 REVERT JUMPDEST DUP5 CALLDATALOAD SWAP4 POP PUSH1 0x20 DUP6 ADD CALLDATALOAD SWAP3 POP PUSH1 0x40 DUP6 ADD CALLDATALOAD SWAP2 POP PUSH1 0x60 DUP6 ADD CALLDATALOAD PUSH2 0x2BA6 DUP2 PUSH2 0x3517 JUMP JUMPDEST PUSH1 0x0 DUP3 MLOAD PUSH2 0x2C51 DUP2 DUP5 PUSH1 0x20 DUP8 ADD PUSH2 0x34C6 JUMP JUMPDEST SWAP2 SWAP1 SWAP2 ADD SWAP3 SWAP2 POP POP JUMP JUMPDEST PUSH20 0xFFFFFFFFFFFFFFFFFFFFFFFFFFFFFFFFFFFFFFFF SWAP2 SWAP1 SWAP2 AND DUP2 MSTORE PUSH1 0x20 ADD SWAP1 JUMP JUMPDEST PUSH20 0xFFFFFFFFFFFFFFFFFFFFFFFFFFFFFFFFFFFFFFFF SWAP4 DUP5 AND DUP2 MSTORE SWAP2 SWAP1 SWAP3 AND PUSH1 0x20 DUP3 ADD MSTORE PUSH1 0x40 DUP2 ADD SWAP2 SWAP1 SWAP2 MSTORE PUSH1 0x60 ADD SWAP1 JUMP JUMPDEST PUSH20 0xFFFFFFFFFFFFFFFFFFFFFFFFFFFFFFFFFFFFFFFF SWAP3 SWAP1 SWAP3 AND DUP3 MSTORE PUSH1 0x20 DUP3 ADD MSTORE PUSH1 0x40 ADD SWAP1 JUMP JUMPDEST SWAP1 ISZERO ISZERO DUP2 MSTORE PUSH1 0x20 ADD SWAP1 JUMP JUMPDEST PUSH1 0x0 PUSH1 0x20 DUP3 MSTORE DUP3 MLOAD DUP1 PUSH1 0x20 DUP5 ADD MSTORE PUSH2 0x2CFD DUP2 PUSH1 0x40 DUP6 ADD PUSH1 0x20 DUP8 ADD PUSH2 0x34C6 JUMP JUMPDEST PUSH1 0x1F ADD PUSH32 0xFFFFFFFFFFFFFFFFFFFFFFFFFFFFFFFFFFFFFFFFFFFFFFFFFFFFFFFFFFFFFFE0 AND SWAP2 SWAP1 SWAP2 ADD PUSH1 0x40 ADD SWAP3 SWAP2 POP POP JUMP JUMPDEST PUSH1 0x20 DUP1 DUP3 MSTORE PUSH1 0x2A SWAP1 DUP3 ADD MSTORE PUSH32 0x536861646F774368656656323A20496E76616C6964206E657720626F6F737420 PUSH1 0x40 DUP3 ADD MSTORE PUSH32 0x6D756C7469706C69657200000000000000000000000000000000000000000000 PUSH1 0x60 DUP3 ADD MSTORE PUSH1 0x80 ADD SWAP1 JUMP JUMPDEST PUSH1 0x20 DUP1 DUP3 MSTORE PUSH1 0x2C SWAP1 DUP3 ADD MSTORE PUSH32 0x536861646F774368656656323A2054686520757365722061646472657373206D PUSH1 0x40 DUP3 ADD MSTORE PUSH32 0x7573742062652076616C69640000000000000000000000000000000000000000 PUSH1 0x60 DUP3 ADD MSTORE PUSH1 0x80 ADD SWAP1 JUMP JUMPDEST PUSH1 0x20 DUP1 DUP3 MSTORE PUSH1 0x2A SWAP1 DUP3 ADD MSTORE PUSH32 0x5361666542455032303A204245503230206F7065726174696F6E20646964206E PUSH1 0x40 DUP3 ADD MSTORE PUSH32 0x6F74207375636365656400000000000000000000000000000000000000000000 PUSH1 0x60 DUP3 ADD MSTORE PUSH1 0x80 ADD SWAP1 JUMP JUMPDEST PUSH1 0x20 DUP1 DUP3 MSTORE PUSH1 0x26 SWAP1 DUP3 ADD MSTORE PUSH32 0x4F776E61626C653A206E6577206F776E657220697320746865207A65726F2061 PUSH1 0x40 DUP3 ADD MSTORE PUSH32 0x6464726573730000000000000000000000000000000000000000000000000000 PUSH1 0x60 DUP3 ADD MSTORE PUSH1 0x80 ADD SWAP1 JUMP JUMPDEST PUSH1 0x20 DUP1 DUP3 MSTORE PUSH1 0x1B SWAP1 DUP3 ADD MSTORE PUSH32 0x536166654D6174683A206164646974696F6E206F766572666C6F770000000000 PUSH1 0x40 DUP3 ADD MSTORE PUSH1 0x60 ADD SWAP1 JUMP JUMPDEST PUSH1 0x20 DUP1 DUP3 MSTORE PUSH1 0x2E SWAP1 DUP3 ADD MSTORE PUSH32 0x536861646F774368656656323A204275726E2061646D696E2061646472657373 PUSH1 0x40 DUP3 ADD MSTORE PUSH32 0x206D7573742062652076616C6964000000000000000000000000000000000000 PUSH1 0x60 DUP3 ADD MSTORE PUSH1 0x80 ADD SWAP1 JUMP JUMPDEST PUSH1 0x20 DUP1 DUP3 MSTORE PUSH1 0x42 SWAP1 DUP3 ADD MSTORE PUSH32 0x536861646F774368656656323A205468652061646472657373206973206E6F74 PUSH1 0x40 DUP3 ADD MSTORE PUSH32 0x20617661696C61626C6520746F206465706F73697420696E207468697320706F PUSH1 0x60 DUP3 ADD MSTORE PUSH32 0x6F6C000000000000000000000000000000000000000000000000000000000000 PUSH1 0x80 DUP3 ADD MSTORE PUSH1 0xA0 ADD SWAP1 JUMP JUMPDEST PUSH1 0x20 DUP1 DUP3 MSTORE PUSH1 0x2E SWAP1 DUP3 ADD MSTORE PUSH32 0x536861646F774368656656323A20534844572072617465206D75737420626520 PUSH1 0x40 DUP3 ADD MSTORE PUSH32 0x67726561746572207468616E2030000000000000000000000000000000000000 PUSH1 0x60 DUP3 ADD MSTORE PUSH1 0x80 ADD SWAP1 JUMP JUMPDEST PUSH1 0x20 DUP1 DUP3 MSTORE PUSH1 0x25 SWAP1 DUP3 ADD MSTORE PUSH32 0x536861646F774368656656323A20546F74616C2072617465206D757374206265 PUSH1 0x40 DUP3 ADD MSTORE PUSH32 0x2031653132000000000000000000000000000000000000000000000000000000 PUSH1 0x60 DUP3 ADD MSTORE PUSH1 0x80 ADD SWAP1 JUMP JUMPDEST PUSH1 0x20 DUP1 DUP3 MSTORE PUSH1 0x32 SWAP1 DUP3 ADD MSTORE PUSH32 0x536861646F774368656656323A20546865207768697465206C69737420616464 PUSH1 0x40 DUP3 ADD MSTORE PUSH32 0x72657373206D7573742062652076616C69640000000000000000000000000000 PUSH1 0x60 DUP3 ADD MSTORE PUSH1 0x80 ADD SWAP1 JUMP JUMPDEST PUSH1 0x20 DUP1 DUP3 MSTORE PUSH1 0x21 SWAP1 DUP3 ADD MSTORE PUSH32 0x536166654D6174683A206D756C7469706C69636174696F6E206F766572666C6F PUSH1 0x40 DUP3 ADD MSTORE PUSH32 0x7700000000000000000000000000000000000000000000000000000000000000 PUSH1 0x60 DUP3 ADD MSTORE PUSH1 0x80 ADD SWAP1 JUMP JUMPDEST PUSH1 0x20 DUP1 DUP3 MSTORE PUSH1 0x16 SWAP1 DUP3 ADD MSTORE PUSH32 0x77697468647261773A20496E73756666696369656E7400000000000000000000 PUSH1 0x40 DUP3 ADD MSTORE PUSH1 0x60 ADD SWAP1 JUMP JUMPDEST PUSH1 0x20 DUP1 DUP3 MSTORE PUSH1 0x11 SWAP1 DUP3 ADD MSTORE PUSH32 0x4E6F6E6520424550323020746F6B656E73000000000000000000000000000000 PUSH1 0x40 DUP3 ADD MSTORE PUSH1 0x60 ADD SWAP1 JUMP JUMPDEST PUSH1 0x20 DUP1 DUP3 MSTORE DUP2 DUP2 ADD MSTORE PUSH32 0x4F776E61626C653A2063616C6C6572206973206E6F7420746865206F776E6572 PUSH1 0x40 DUP3 ADD MSTORE PUSH1 0x60 ADD SWAP1 JUMP JUMPDEST PUSH1 0x20 DUP1 DUP3 MSTORE PUSH1 0x29 SWAP1 DUP3 ADD MSTORE PUSH32 0x4F776E61626C653A2063616C6C6572206973206E6F742074686520626F6F7374 PUSH1 0x40 DUP3 ADD MSTORE PUSH32 0x20636F6E74726163740000000000000000000000000000000000000000000000 PUSH1 0x60 DUP3 ADD MSTORE PUSH1 0x80 ADD SWAP1 JUMP JUMPDEST PUSH1 0x20 DUP1 DUP3 MSTORE PUSH1 0x36 SWAP1 DUP3 ADD MSTORE PUSH32 0x536861646F774368656656323A204E657720626F6F737420636F6E7472616374 PUSH1 0x40 DUP3 ADD MSTORE PUSH32 0x2061646472657373206D7573742062652076616C696400000000000000000000 PUSH1 0x60 DUP3 ADD MSTORE PUSH1 0x80 ADD SWAP1 JUMP JUMPDEST PUSH1 0x20 DUP1 DUP3 MSTORE PUSH1 0x1D SWAP1 DUP3 ADD MSTORE PUSH32 0x416464726573733A2063616C6C20746F206E6F6E2D636F6E7472616374000000 PUSH1 0x40 DUP3 ADD MSTORE PUSH1 0x60 ADD SWAP1 JUMP JUMPDEST PUSH1 0x20 DUP1 DUP3 MSTORE PUSH1 0x41 SWAP1 DUP3 ADD MSTORE PUSH32 0x536861646F774368656656323A204275726E2061646D696E2061646472657373 PUSH1 0x40 DUP3 ADD MSTORE PUSH32 0x206973207468652073616D6520776974682063757272656E7420616464726573 PUSH1 0x60 DUP3 ADD MSTORE PUSH32 0x7300000000000000000000000000000000000000000000000000000000000000 PUSH1 0x80 DUP3 ADD MSTORE PUSH1 0xA0 ADD SWAP1 JUMP JUMPDEST PUSH1 0x20 DUP1 DUP3 MSTORE PUSH1 0x30 SWAP1 DUP3 ADD MSTORE PUSH32 0x536861646F774368656656323A204F6E6C7920726567756C6172206661726D20 PUSH1 0x40 DUP3 ADD MSTORE PUSH32 0x636F756C6420626520626F6F7374656400000000000000000000000000000000 PUSH1 0x60 DUP3 ADD MSTORE PUSH1 0x80 ADD SWAP1 JUMP JUMPDEST PUSH1 0x20 DUP1 DUP3 MSTORE PUSH1 0x27 SWAP1 DUP3 ADD MSTORE PUSH32 0x5348445720746F6B656E2063616E277420626520616464656420746F20666172 PUSH1 0x40 DUP3 ADD MSTORE PUSH32 0x6D20706F6F6C7300000000000000000000000000000000000000000000000000 PUSH1 0x60 DUP3 ADD MSTORE PUSH1 0x80 ADD SWAP1 JUMP JUMPDEST PUSH1 0x20 DUP1 DUP3 MSTORE PUSH1 0x1F SWAP1 DUP3 ADD MSTORE PUSH32 0x5265656E7472616E637947756172643A207265656E7472616E742063616C6C00 PUSH1 0x40 DUP3 ADD MSTORE PUSH1 0x60 ADD SWAP1 JUMP JUMPDEST PUSH1 0x0 PUSH1 0xA0 DUP3 ADD SWAP1 POP DUP3 MLOAD DUP3 MSTORE PUSH1 0x20 DUP4 ADD MLOAD PUSH1 0x20 DUP4 ADD MSTORE PUSH1 0x40 DUP4 ADD MLOAD PUSH1 0x40 DUP4 ADD MSTORE PUSH1 0x60 DUP4 ADD MLOAD PUSH1 0x60 DUP4 ADD MSTORE PUSH1 0x80 DUP4 ADD MLOAD ISZERO ISZERO PUSH1 0x80 DUP4 ADD MSTORE SWAP3 SWAP2 POP POP JUMP JUMPDEST SWAP1 DUP2 MSTORE PUSH1 0x20 ADD SWAP1 JUMP JUMPDEST SWAP2 DUP3 MSTORE ISZERO ISZERO PUSH1 0x20 DUP3 ADD MSTORE PUSH1 0x40 ADD SWAP1 JUMP JUMPDEST SWAP3 DUP4 MSTORE PUSH1 0x20 DUP4 ADD SWAP2 SWAP1 SWAP2 MSTORE PUSH1 0x40 DUP3 ADD MSTORE PUSH1 0x60 ADD SWAP1 JUMP JUMPDEST SWAP5 DUP6 MSTORE PUSH1 0x20 DUP6 ADD SWAP4 SWAP1 SWAP4 MSTORE PUSH1 0x40 DUP5 ADD SWAP2 SWAP1 SWAP2 MSTORE PUSH1 0x60 DUP4 ADD MSTORE ISZERO ISZERO PUSH1 0x80 DUP3 ADD MSTORE PUSH1 0xA0 ADD SWAP1 JUMP JUMPDEST PUSH1 0x0 JUMPDEST DUP4 DUP2 LT ISZERO PUSH2 0x34E1 JUMPI DUP2 DUP2 ADD MLOAD DUP4 DUP3 ADD MSTORE PUSH1 0x20 ADD PUSH2 0x34C9 JUMP JUMPDEST DUP4 DUP2 GT ISZERO PUSH2 0x2759 JUMPI POP POP PUSH1 0x0 SWAP2 ADD MSTORE JUMP JUMPDEST PUSH20 0xFFFFFFFFFFFFFFFFFFFFFFFFFFFFFFFFFFFFFFFF DUP2 AND DUP2 EQ PUSH2 0x3514 JUMPI PUSH1 0x0 DUP1 REVERT JUMPDEST POP JUMP JUMPDEST DUP1 ISZERO ISZERO DUP2 EQ PUSH2 0x3514 JUMPI PUSH1 0x0 DUP1 REVERT INVALID LOG2 PUSH5 0x6970667358 0x22 SLT KECCAK256 DUP3 PC CALLDATACOPY GAS 0xC1 CHAINID SAR 0xC0 CALLCODE SWAP11 SUB GAS SWAP2 PUSH14 0xA3FBD5D3FAC1FE1C167088369B43 0x2B PUSH20 0x787F64736F6C634300060C003300000000000000 "
				},
				"gasEstimates": {
					"creation": {
						"codeDepositCost": "2731800",
						"executionCost": "infinite",
						"totalCost": "infinite"
					},
					"external": {
						"ACC_SHDW_PRECISION()": "296",
						"BOOST_PRECISION()": "295",
						"MASTERCHEF_SHDW_PER_BLOCK()": "338",
						"MAX_BOOST_PRECISION()": "295",
						"SHDW()": "infinite",
						"SHDW_RATE_TOTAL_PRECISION()": "317",
						"add(uint256,address,bool,bool)": "infinite",
						"boostContract()": "1157",
						"burnAdmin()": "1136",
						"burnShdw(bool)": "infinite",
						"deposit(uint256,uint256)": "infinite",
						"emergencyWithdraw(uint256)": "infinite",
						"getBoostMultiplier(address,uint256)": "1438",
						"lastBurnedBlock()": "1097",
						"lpToken(uint256)": "2105",
						"massUpdatePools()": "infinite",
						"owner()": "1158",
						"pendingShdw(uint256,address)": "infinite",
						"poolInfo(uint256)": "5460",
						"poolLength()": "1141",
						"renounceOwnership()": "24276",
						"set(uint256,uint256,bool)": "infinite",
						"shdwPerBlock(bool)": "infinite",
						"shdwPerBlockToBurn()": "infinite",
						"shdwRateToBurn()": "1118",
						"shdwRateToRegularFarm()": "1116",
						"shdwRateToSpecialFarm()": "1117",
						"totalRegularAllocPoint()": "1139",
						"totalSpecialAllocPoint()": "1118",
						"transferOwnership(address)": "24457",
						"updateBoostContract(address)": "24087",
						"updateBoostMultiplier(address,uint256,uint256)": "infinite",
						"updateBurnAdmin(address)": "24473",
						"updatePool(uint256)": "infinite",
						"updateShdwRate(uint256,uint256,uint256,bool)": "infinite",
						"updateWhiteList(address,bool)": "infinite",
						"userInfo(uint256,address)": "3083",
						"whiteList(address)": "1325",
						"withdraw(uint256,uint256)": "infinite"
					},
					"internal": {
						"_safeTransfer(address,uint256)": "infinite",
						"settlependingShdw(address,uint256,uint256)": "infinite"
					}
				},
				"methodIdentifiers": {
					"ACC_SHDW_PRECISION()": "16e80f4d",
					"BOOST_PRECISION()": "cc6db2da",
					"MASTERCHEF_SHDW_PER_BLOCK()": "f5b91cd3",
					"MAX_BOOST_PRECISION()": "69b02128",
					"SHDW()": "03dcff74",
					"SHDW_RATE_TOTAL_PRECISION()": "d2ce6ae8",
					"add(uint256,address,bool,bool)": "c507aeaa",
					"boostContract()": "dfcedeee",
					"burnAdmin()": "81bdf98c",
					"burnShdw(bool)": "36183ed6",
					"deposit(uint256,uint256)": "e2bbb158",
					"emergencyWithdraw(uint256)": "5312ea8e",
					"getBoostMultiplier(address,uint256)": "033186e8",
					"lastBurnedBlock()": "78db4c34",
					"lpToken(uint256)": "78ed5d1f",
					"massUpdatePools()": "630b5ba1",
					"owner()": "8da5cb5b",
					"pendingShdw(uint256,address)": "c799b59d",
					"poolInfo(uint256)": "1526fe27",
					"poolLength()": "081e3eda",
					"renounceOwnership()": "715018a6",
					"set(uint256,uint256,bool)": "64482f79",
					"shdwPerBlock(bool)": "f474309e",
					"shdwPerBlockToBurn()": "19f95e2e",
					"shdwRateToBurn()": "6661100f",
					"shdwRateToRegularFarm()": "f5a26f40",
					"shdwRateToSpecialFarm()": "6fda08c3",
					"totalRegularAllocPoint()": "c40d337b",
					"totalSpecialAllocPoint()": "99d7e84a",
					"transferOwnership(address)": "f2fde38b",
					"updateBoostContract(address)": "9dd2fcc3",
					"updateBoostMultiplier(address,uint256,uint256)": "041a84c9",
					"updateBurnAdmin(address)": "0bb844bc",
					"updatePool(uint256)": "51eb05a6",
					"updateShdwRate(uint256,uint256,uint256,bool)": "815d087f",
					"updateWhiteList(address,bool)": "ac1d0609",
					"userInfo(uint256,address)": "93f1a40b",
					"whiteList(address)": "372c12b1",
					"withdraw(uint256,uint256)": "441a3e70"
				}
			},
			"storageLayout": {
				"storage": [
					{
						"astId": 1798,
						"contract": "contracts/ShadowChef.sol:ShadowChefV2",
						"label": "_owner",
						"offset": 0,
						"slot": "0",
						"type": "t_address"
					},
					{
						"astId": 2011,
						"contract": "contracts/ShadowChef.sol:ShadowChefV2",
						"label": "_status",
						"offset": 0,
						"slot": "1",
						"type": "t_uint256"
					},
					{
						"astId": 277,
						"contract": "contracts/ShadowChef.sol:ShadowChefV2",
						"label": "burnAdmin",
						"offset": 0,
						"slot": "2",
						"type": "t_address"
					},
					{
						"astId": 280,
						"contract": "contracts/ShadowChef.sol:ShadowChefV2",
						"label": "boostContract",
						"offset": 0,
						"slot": "3",
						"type": "t_address"
					},
					{
						"astId": 284,
						"contract": "contracts/ShadowChef.sol:ShadowChefV2",
						"label": "poolInfo",
						"offset": 0,
						"slot": "4",
						"type": "t_array(t_struct(PoolInfo)271_storage)dyn_storage"
					},
					{
						"astId": 288,
						"contract": "contracts/ShadowChef.sol:ShadowChefV2",
						"label": "lpToken",
						"offset": 0,
						"slot": "5",
						"type": "t_array(t_contract(IBEP20)2000)dyn_storage"
					},
					{
						"astId": 295,
						"contract": "contracts/ShadowChef.sol:ShadowChefV2",
						"label": "userInfo",
						"offset": 0,
						"slot": "6",
						"type": "t_mapping(t_uint256,t_mapping(t_address,t_struct(UserInfo)260_storage))"
					},
					{
						"astId": 300,
						"contract": "contracts/ShadowChef.sol:ShadowChefV2",
						"label": "whiteList",
						"offset": 0,
						"slot": "7",
						"type": "t_mapping(t_address,t_bool)"
					},
					{
						"astId": 303,
						"contract": "contracts/ShadowChef.sol:ShadowChefV2",
						"label": "totalRegularAllocPoint",
						"offset": 0,
						"slot": "8",
						"type": "t_uint256"
					},
					{
						"astId": 306,
						"contract": "contracts/ShadowChef.sol:ShadowChefV2",
						"label": "totalSpecialAllocPoint",
						"offset": 0,
						"slot": "9",
						"type": "t_uint256"
					},
					{
						"astId": 335,
						"contract": "contracts/ShadowChef.sol:ShadowChefV2",
						"label": "shdwRateToBurn",
						"offset": 0,
						"slot": "10",
						"type": "t_uint256"
					},
					{
						"astId": 339,
						"contract": "contracts/ShadowChef.sol:ShadowChefV2",
						"label": "shdwRateToRegularFarm",
						"offset": 0,
						"slot": "11",
						"type": "t_uint256"
					},
					{
						"astId": 343,
						"contract": "contracts/ShadowChef.sol:ShadowChefV2",
						"label": "shdwRateToSpecialFarm",
						"offset": 0,
						"slot": "12",
						"type": "t_uint256"
					},
					{
						"astId": 345,
						"contract": "contracts/ShadowChef.sol:ShadowChefV2",
						"label": "lastBurnedBlock",
						"offset": 0,
						"slot": "13",
						"type": "t_uint256"
					}
				],
				"types": {
					"t_address": {
						"encoding": "inplace",
						"label": "address",
						"numberOfBytes": "20"
					},
					"t_array(t_contract(IBEP20)2000)dyn_storage": {
						"base": "t_contract(IBEP20)2000",
						"encoding": "dynamic_array",
						"label": "contract IBEP20[]",
						"numberOfBytes": "32"
					},
					"t_array(t_struct(PoolInfo)271_storage)dyn_storage": {
						"base": "t_struct(PoolInfo)271_storage",
						"encoding": "dynamic_array",
						"label": "struct ShadowChefV2.PoolInfo[]",
						"numberOfBytes": "32"
					},
					"t_bool": {
						"encoding": "inplace",
						"label": "bool",
						"numberOfBytes": "1"
					},
					"t_contract(IBEP20)2000": {
						"encoding": "inplace",
						"label": "contract IBEP20",
						"numberOfBytes": "20"
					},
					"t_mapping(t_address,t_bool)": {
						"encoding": "mapping",
						"key": "t_address",
						"label": "mapping(address => bool)",
						"numberOfBytes": "32",
						"value": "t_bool"
					},
					"t_mapping(t_address,t_struct(UserInfo)260_storage)": {
						"encoding": "mapping",
						"key": "t_address",
						"label": "mapping(address => struct ShadowChefV2.UserInfo)",
						"numberOfBytes": "32",
						"value": "t_struct(UserInfo)260_storage"
					},
					"t_mapping(t_uint256,t_mapping(t_address,t_struct(UserInfo)260_storage))": {
						"encoding": "mapping",
						"key": "t_uint256",
						"label": "mapping(uint256 => mapping(address => struct ShadowChefV2.UserInfo))",
						"numberOfBytes": "32",
						"value": "t_mapping(t_address,t_struct(UserInfo)260_storage)"
					},
					"t_struct(PoolInfo)271_storage": {
						"encoding": "inplace",
						"label": "struct ShadowChefV2.PoolInfo",
						"members": [
							{
								"astId": 262,
								"contract": "contracts/ShadowChef.sol:ShadowChefV2",
								"label": "accShdwPerShare",
								"offset": 0,
								"slot": "0",
								"type": "t_uint256"
							},
							{
								"astId": 264,
								"contract": "contracts/ShadowChef.sol:ShadowChefV2",
								"label": "lastRewardBlock",
								"offset": 0,
								"slot": "1",
								"type": "t_uint256"
							},
							{
								"astId": 266,
								"contract": "contracts/ShadowChef.sol:ShadowChefV2",
								"label": "allocPoint",
								"offset": 0,
								"slot": "2",
								"type": "t_uint256"
							},
							{
								"astId": 268,
								"contract": "contracts/ShadowChef.sol:ShadowChefV2",
								"label": "totalBoostedShare",
								"offset": 0,
								"slot": "3",
								"type": "t_uint256"
							},
							{
								"astId": 270,
								"contract": "contracts/ShadowChef.sol:ShadowChefV2",
								"label": "isRegular",
								"offset": 0,
								"slot": "4",
								"type": "t_bool"
							}
						],
						"numberOfBytes": "160"
					},
					"t_struct(UserInfo)260_storage": {
						"encoding": "inplace",
						"label": "struct ShadowChefV2.UserInfo",
						"members": [
							{
								"astId": 255,
								"contract": "contracts/ShadowChef.sol:ShadowChefV2",
								"label": "amount",
								"offset": 0,
								"slot": "0",
								"type": "t_uint256"
							},
							{
								"astId": 257,
								"contract": "contracts/ShadowChef.sol:ShadowChefV2",
								"label": "rewardDebt",
								"offset": 0,
								"slot": "1",
								"type": "t_uint256"
							},
							{
								"astId": 259,
								"contract": "contracts/ShadowChef.sol:ShadowChefV2",
								"label": "boostMultiplier",
								"offset": 0,
								"slot": "2",
								"type": "t_uint256"
							}
						],
						"numberOfBytes": "96"
					},
					"t_uint256": {
						"encoding": "inplace",
						"label": "uint256",
						"numberOfBytes": "32"
					}
				}
			},
			"userdoc": {
				"kind": "user",
				"methods": {
					"BOOST_PRECISION()": {
						"notice": "Basic boost factor, none boosted user's boost factor"
					},
					"MASTERCHEF_SHDW_PER_BLOCK()": {
						"notice": "40 SHDWs per block in MCV1"
					},
					"MAX_BOOST_PRECISION()": {
						"notice": "Hard limit for maxmium boost factor, it must greater than BOOST_PRECISION"
					},
					"SHDW()": {
						"notice": "Address of SHDW contract."
					},
					"SHDW_RATE_TOTAL_PRECISION()": {
						"notice": "total SHDW rate = toBurn + toRegular + toSpecial"
					},
					"add(uint256,address,bool,bool)": {
						"notice": "Add a new pool. Can only be called by the owner. DO NOT add the same LP token more than once. Rewards will be messed up if you do."
					},
					"boostContract()": {
						"notice": "The contract handles the share boosts."
					},
					"burnAdmin()": {
						"notice": "The only address can withdraw all the burn SHDW."
					},
					"burnShdw(bool)": {
						"notice": "Send SHDW pending for burn to `burnAdmin`."
					},
					"deposit(uint256,uint256)": {
						"notice": "Deposit LP tokens to pool."
					},
					"emergencyWithdraw(uint256)": {
						"notice": "Withdraw without caring about the rewards. EMERGENCY ONLY."
					},
					"getBoostMultiplier(address,uint256)": {
						"notice": "Get user boost multiplier for specific pool id."
					},
					"lpToken(uint256)": {
						"notice": "Address of the LP token for each MCV2 pool."
					},
					"massUpdatePools()": {
						"notice": "Update SHDW reward for all the active pools. Be careful of gas spending!"
					},
					"pendingShdw(uint256,address)": {
						"notice": "View function for checking pending SHDW rewards."
					},
					"poolInfo(uint256)": {
						"notice": "Info of each MCV2 pool."
					},
					"poolLength()": {
						"notice": "Returns the number of MCV2 pools."
					},
					"set(uint256,uint256,bool)": {
						"notice": "Update the given pool's SHDW allocation point. Can only be called by the owner."
					},
					"shdwPerBlock(bool)": {
						"notice": "Calculates and returns the `amount` of SHDW per block."
					},
					"shdwPerBlockToBurn()": {
						"notice": "Calculates and returns the `amount` of SHDW per block to burn."
					},
					"shdwRateToBurn()": {
						"notice": "The last block number of SHDW burn action being executed.SHDW distribute % for burn"
					},
					"shdwRateToRegularFarm()": {
						"notice": "SHDW distribute % for regular farm pool"
					},
					"shdwRateToSpecialFarm()": {
						"notice": "SHDW distribute % for special pools"
					},
					"totalRegularAllocPoint()": {
						"notice": "Total regular allocation points. Must be the sum of all regular pools' allocation points."
					},
					"totalSpecialAllocPoint()": {
						"notice": "Total special allocation points. Must be the sum of all special pools' allocation points."
					},
					"updateBoostContract(address)": {
						"notice": "Update boost contract address and max boost factor."
					},
					"updateBoostMultiplier(address,uint256,uint256)": {
						"notice": "Update user boost factor."
					},
					"updateBurnAdmin(address)": {
						"notice": "Update burn admin address."
					},
					"updatePool(uint256)": {
						"notice": "Update reward variables for the given pool."
					},
					"updateShdwRate(uint256,uint256,uint256,bool)": {
						"notice": "Update the % of SHDW distributions for burn, regular pools and special pools."
					},
					"updateWhiteList(address,bool)": {
						"notice": "Update whitelisted addresses for special pools."
					},
					"userInfo(uint256,address)": {
						"notice": "Info of each pool user."
					},
					"whiteList(address)": {
						"notice": "The whitelist of addresses allowed to deposit in special pools."
					},
					"withdraw(uint256,uint256)": {
						"notice": "Withdraw LP tokens from pool."
					}
				},
				"version": 1
			}
		}
	}
}